{
  "address": "0xb85d44CD82dEE4feADc7fa88f0Fcf4BACF9005F0",
  "abi": [
    {
      "inputs": [
        {
          "internalType": "uint256",
          "name": "_x",
          "type": "uint256"
        },
        {
          "internalType": "uint256",
          "name": "_y",
          "type": "uint256"
        }
      ],
      "stateMutability": "nonpayable",
      "type": "constructor"
    },
    {
      "inputs": [],
      "name": "A",
      "outputs": [
        {
          "internalType": "uint256",
          "name": "",
          "type": "uint256"
        }
      ],
      "stateMutability": "view",
      "type": "function"
    },
    {
      "inputs": [
        {
          "internalType": "uint256",
          "name": "x_in",
          "type": "uint256"
        },
        {
          "internalType": "uint256",
          "name": "y_in",
          "type": "uint256"
        }
      ],
      "name": "addLiquidity",
      "outputs": [],
      "stateMutability": "nonpayable",
      "type": "function"
    },
    {
      "inputs": [
        {
          "internalType": "uint256",
          "name": "_A",
          "type": "uint256"
        }
      ],
      "name": "changeA",
      "outputs": [],
      "stateMutability": "nonpayable",
      "type": "function"
    },
    {
      "inputs": [],
      "name": "invariant",
      "outputs": [
        {
          "internalType": "bool",
          "name": "pass",
          "type": "bool"
        }
      ],
      "stateMutability": "view",
      "type": "function"
    },
    {
      "inputs": [],
      "name": "k",
      "outputs": [
        {
          "internalType": "uint256",
          "name": "",
          "type": "uint256"
        }
      ],
      "stateMutability": "view",
      "type": "function"
    },
    {
      "inputs": [
        {
          "internalType": "int256",
          "name": "base",
          "type": "int256"
        },
        {
          "internalType": "int256",
          "name": "exponent",
          "type": "int256"
        }
      ],
      "name": "pow",
      "outputs": [
        {
          "internalType": "int256",
          "name": "",
          "type": "int256"
        }
      ],
      "stateMutability": "pure",
      "type": "function"
    },
    {
      "inputs": [
        {
          "internalType": "uint256",
          "name": "percOut",
          "type": "uint256"
        }
      ],
      "name": "removeLiquidity",
      "outputs": [
        {
          "internalType": "uint256",
          "name": "x_back",
          "type": "uint256"
        },
        {
          "internalType": "uint256",
          "name": "y_back",
          "type": "uint256"
        }
      ],
      "stateMutability": "nonpayable",
      "type": "function"
    },
    {
      "inputs": [
        {
          "internalType": "uint256",
          "name": "a",
          "type": "uint256"
        }
      ],
      "name": "sqrt",
      "outputs": [
        {
          "internalType": "uint256",
          "name": "b",
          "type": "uint256"
        }
      ],
      "stateMutability": "pure",
      "type": "function"
    },
    {
      "inputs": [
        {
          "internalType": "uint256",
          "name": "x_in",
          "type": "uint256"
        }
      ],
      "name": "swap_x",
      "outputs": [
        {
          "internalType": "uint256",
          "name": "y_out",
          "type": "uint256"
        }
      ],
      "stateMutability": "nonpayable",
      "type": "function"
    },
    {
      "inputs": [
        {
          "internalType": "uint256",
          "name": "y_in",
          "type": "uint256"
        }
      ],
      "name": "swap_y",
      "outputs": [
        {
          "internalType": "uint256",
          "name": "x_out",
          "type": "uint256"
        }
      ],
      "stateMutability": "nonpayable",
      "type": "function"
    },
    {
      "inputs": [],
      "name": "x",
      "outputs": [
        {
          "internalType": "uint256",
          "name": "",
          "type": "uint256"
        }
      ],
      "stateMutability": "view",
      "type": "function"
    },
    {
      "inputs": [],
      "name": "y",
      "outputs": [
        {
          "internalType": "uint256",
          "name": "",
          "type": "uint256"
        }
      ],
      "stateMutability": "view",
      "type": "function"
    }
  ],
  "transactionHash": "0x5a925d9451bac369ae2ed5e023740adf7dd40b5ea782a107d7933ef91543e0bf",
  "args": [
    1000,
    1000
  ],
  "solcInputHash": "236f0ba086e85134a7112ff121671143",
  "bytecode": "0x60806040523480156200001c57600080620000196200017e565b50505b5060405162001a0938038062001a09833981810160405260408110156200004d576000806200004a6200017e565b50505b810190808051906020019092919080519060200190929190505050816000819062000077620001ee565b505050806001819062000089620001ee565b505050620000bc60016200009c62000255565b6000620000a862000255565b620000e860201b62000f2f1790919060201c565b60028190620000ca620001ee565b505050600060038190620000dd620001ee565b5050505050620002ba565b600080831415620000fd576000905062000178565b60008284029050828482816200010f57fe5b041462000173576040517f08c379a0000000000000000000000000000000000000000000000000000000008152600401808060200182810382526021815260200180620019e86021913960400191505060405180910390620001706200017e565b50505b809150505b92915050565b632a2a7adb598160e01b8152600481016020815285602082015260005b86811015620001bb5780860151816040840101526020810190506200019b565b506020828760640184336000905af158600e01573d6000803e3d6000fd5b3d6001141558600a015760016000f35b505050565b6322bd64c0598160e01b8152836004820152846024820152600081604483336000905af158600e01573d6000803e3d6000fd5b3d6001141558600a015760016000f35b60005b6040811015620002505760008183015260208101905062000234565b505050565b6303daa959598160e01b8152836004820152602081602483336000905af158600e01573d6000803e3d6000fd5b3d6001141558600a015760016000f35b8051935060005b6040811015620002b55760008183015260208101905062000299565b505050565b61171e80620002ca6000396000f3fe608060405234801561001957600080610016611539565b50505b50600436106100bd5760003560e01c8063adde7b8b1161007a578063adde7b8b1461023a578063b03a9a0514610285578063b4f40c61146102a5578063d2c15a67146102c3578063f446c1d01461030e578063fcbfcc711461032c576100bd565b80630c55699c146100cb578063677342ce146100e957806392b0c5b2146101345780639c8f9f23146101895780639cd441da146101db578063a56dfe4a1461021c575b6000806100c8611539565b50505b6100d3610363565b6040518082815260200191505060405180910390f35b61011e6004803603602081101561010857600080610105611539565b50505b8101908080359060200190929190505050610370565b6040518082815260200191505060405180910390f35b6101736004803603604081101561015357600080610150611539565b50505b81019080803590602001909291908035906020019092919050505061042b565b6040518082815260200191505060405180910390f35b6101be600480360360208110156101a8576000806101a5611539565b50505b81019080803590602001909291905050506104b0565b604051808381526020018281526020019250505060405180910390f35b61021a600480360360408110156101fa576000806101f7611539565b50505b8101908080359060200190929190803590602001909291905050506105c7565b005b610224610677565b6040518082815260200191505060405180910390f35b61026f6004803603602081101561025957600080610256611539565b50505b8101908080359060200190929190505050610684565b6040518082815260200191505060405180910390f35b61028d6109c8565b60405180821515815260200191505060405180910390f35b6102ad610b9e565b6040518082815260200191505060405180910390f35b6102f8600480360360208110156102e2576000806102df611539565b50505b8101908080359060200190929190505050610bab565b6040518082815260200191505060405180910390f35b610316610eef565b6040518082815260200191505060405180910390f35b6103616004803603602081101561034b57600080610348611539565b50505b8101908080359060200190929190505050610efc565b005b600061036d6115a7565b81565b60008082101561038857600080610385611539565b50505b600082141561039a5760009050610426565b600382116103ab5760019050610426565b60006103d460026103c6600186610fbe90919063ffffffff16565b61104f90919063ffffffff16565b90508291505b818110156104245780915061041d600261040f83610401858861104f90919063ffffffff16565b610fbe90919063ffffffff16565b61104f90919063ffffffff16565b90506103da565b505b919050565b60008082141561043e57600190506104aa565b600182141561044f578290506104aa565b600083148015610460575060008214155b1561046e57600090506104aa565b60008390506000600190505b838112156104a45761049585836110e190919063ffffffff16565b9150808060010191505061047a565b50809150505b92915050565b6000806000831180156104c4575060648311155b6104d6576000806104d3611539565b50505b61050560646104f78560006104e96115a7565b610f2f90919063ffffffff16565b61104f90919063ffffffff16565b9150610536606461052885600161051a6115a7565b610f2f90919063ffffffff16565b61104f90919063ffffffff16565b90506105548260006105466115a7565b61121d90919063ffffffff16565b6000819061056061160a565b50505061057f8160016105716115a7565b61121d90919063ffffffff16565b6001819061058b61160a565b5050506105b3600161059b6115a7565b60006105a56115a7565b610f2f90919063ffffffff16565b600281906105bf61160a565b505050915091565b6000821180156105d75750600081115b6105e9576000806105e6611539565b50505b6106058260006105f76115a7565b610fbe90919063ffffffff16565b6000819061061161160a565b5050506106308160016106226115a7565b610fbe90919063ffffffff16565b6001819061063c61160a565b505050610664600161064c6115a7565b60006106566115a7565b610f2f90919063ffffffff16565b6002819061067061160a565b5050505050565b60016106816115a7565b81565b6000806106a38360016106956115a7565b610fbe90919063ffffffff16565b905060006106c4600460036106b66115a7565b610f2f90919063ffffffff16565b905060006106ed60026106df60026106da6115a7565b610370565b610f2f90919063ffffffff16565b90506000806107188561070a600487610f2f90919063ffffffff16565b610f2f90919063ffffffff16565b905060006107cc610757876107498761073b60048b610f2f90919063ffffffff16565b610f2f90919063ffffffff16565b610f2f90919063ffffffff16565b6107be6107808761077260048c610f2f90919063ffffffff16565b610f2f90919063ffffffff16565b6107b061078e8b600261042b565b6107a260048c610f2f90919063ffffffff16565b610f2f90919063ffffffff16565b6112a990919063ffffffff16565b61134090919063ffffffff16565b905060006107db85600361042b565b6000039050600061082c61080b836107fd6004886110e190919063ffffffff16565b6110e190919063ffffffff16565b61081e85866110e190919063ffffffff16565b61134090919063ffffffff16565b9050600061084161083c836113d7565b610370565b9050600082126109435760006108886108646002886110e190919063ffffffff16565b61087784886112a990919063ffffffff16565b6000036113f390919063ffffffff16565b905060006108c76108a36002896110e190919063ffffffff16565b6108b6858961134090919063ffffffff16565b6000036113f390919063ffffffff16565b90506000821380156108e2575060026108de6115a7565b8213155b6108ec57806108ee565b815b975061090c8860006108fe6115a7565b61121d90919063ffffffff16565b9b508a6000819061091b61160a565b505050876001819061092b61160a565b5050506109366109c8565b61093c57fe5b50506109ba565b6040517f08c379a000000000000000000000000000000000000000000000000000000000815260040180806020018281038252601a8152602001807f57726f6e67207377617020616d6f756e742070726f7669646564000000000000815250602001915050604051809103906109b7611539565b50505b505050505050505050919050565b60008060006109d56115a7565b1180156109f4575060026109e76115a7565b60006109f16115a7565b11155b610a0657600080610a03611539565b50505b60006001610a126115a7565b118015610a3157506002610a246115a7565b6001610a2e6115a7565b11155b610a4357600080610a40611539565b50505b6000610a576002610a526115a7565b610370565b90506000610ad3610a72600284610f2f90919063ffffffff16565b610ac5610a9a6001610a826115a7565b6000610a8c6115a7565b610fbe90919063ffffffff16565b610ab760046003610aa96115a7565b610f2f90919063ffffffff16565b610f2f90919063ffffffff16565b610fbe90919063ffffffff16565b90506000610b91610b126001610ae76115a7565b610b0460046000610af66115a7565b610f2f90919063ffffffff16565b610f2f90919063ffffffff16565b610b83610b33610b2c600288610f2f90919063ffffffff16565b600361042b565b610b75610b4a600289610f2f90919063ffffffff16565b610b6760046003610b596115a7565b610f2f90919063ffffffff16565b610f2f90919063ffffffff16565b610fbe90919063ffffffff16565b61104f90919063ffffffff16565b9050808214935050505090565b6002610ba86115a7565b81565b600080610bca836000610bbc6115a7565b610fbe90919063ffffffff16565b90506000610beb60046003610bdd6115a7565b610f2f90919063ffffffff16565b90506000610c146002610c066002610c016115a7565b610370565b610f2f90919063ffffffff16565b9050600080610c3f85610c31600487610f2f90919063ffffffff16565b610f2f90919063ffffffff16565b90506000610cf3610c7e87610c7087610c6260048b610f2f90919063ffffffff16565b610f2f90919063ffffffff16565b610f2f90919063ffffffff16565b610ce5610ca787610c9960048c610f2f90919063ffffffff16565b610f2f90919063ffffffff16565b610cd7610cb58b600261042b565b610cc960048c610f2f90919063ffffffff16565b610f2f90919063ffffffff16565b6112a990919063ffffffff16565b61134090919063ffffffff16565b90506000610d0285600361042b565b60000390506000610d53610d3283610d246004886110e190919063ffffffff16565b6110e190919063ffffffff16565b610d4585866110e190919063ffffffff16565b61134090919063ffffffff16565b90506000610d68610d63836113d7565b610370565b905060008212610e6a576000610daf610d8b6002886110e190919063ffffffff16565b610d9e84886112a990919063ffffffff16565b6000036113f390919063ffffffff16565b90506000610dee610dca6002896110e190919063ffffffff16565b610ddd858961134090919063ffffffff16565b6000036113f390919063ffffffff16565b9050600082138015610e0957506002610e056115a7565b8213155b610e135780610e15565b815b9750610e33886001610e256115a7565b61121d90919063ffffffff16565b9b508760008190610e4261160a565b5050508a60018190610e5261160a565b505050610e5d6109c8565b610e6357fe5b5050610ee1565b6040517f08c379a000000000000000000000000000000000000000000000000000000000815260040180806020018281038252601a8152602001807f57726f6e67207377617020616d6f756e742070726f766964656400000000000081525060200191505060405180910390610ede611539565b50505b505050505050505050919050565b6003610ef96115a7565b81565b60006003610f086115a7565b1015610f1c57600080610f19611539565b50505b8060038190610f2961160a565b50505050565b600080831415610f425760009050610fb8565b6000828402905082848281610f5357fe5b0414610fb3576040517f08c379a00000000000000000000000000000000000000000000000000000000081526004018080602001828103825260218152602001806116b26021913960400191505060405180910390610fb0611539565b50505b809150505b92915050565b600080828401905083811015611045576040517f08c379a000000000000000000000000000000000000000000000000000000000815260040180806020018281038252601b8152602001807f536166654d6174683a206164646974696f6e206f766572666c6f77000000000081525060200191505060405180910390611042611539565b50505b8091505092915050565b60008082116110cf576040517f08c379a000000000000000000000000000000000000000000000000000000000815260040180806020018281038252601a8152602001807f536166654d6174683a206469766973696f6e206279207a65726f000000000000815250602001915050604051809103906110cc611539565b50505b8183816110d857fe5b04905092915050565b6000808314156110f45760009050611217565b7fffffffffffffffffffffffffffffffffffffffffffffffffffffffffffffffff8314801561114257507f800000000000000000000000000000000000000000000000000000000000000082145b156111a1576040517f08c379a00000000000000000000000000000000000000000000000000000000081526004018080602001828103825260278152602001806116d3602791396040019150506040518091039061119e611539565b50505b60008284029050828482816111b257fe5b0514611212576040517f08c379a00000000000000000000000000000000000000000000000000000000081526004018080602001828103825260278152602001806116d3602791396040019150506040518091039061120f611539565b50505b809150505b92915050565b60008282111561129e576040517f08c379a000000000000000000000000000000000000000000000000000000000815260040180806020018281038252601e8152602001807f536166654d6174683a207375627472616374696f6e206f766572666c6f7700008152506020019150506040518091039061129b611539565b50505b818303905092915050565b6000808284019050600083121580156112c25750838112155b806112d857506000831280156112d757508381125b5b611336576040517f08c379a00000000000000000000000000000000000000000000000000000000081526004018080602001828103825260218152602001806116706021913960400191505060405180910390611333611539565b50505b8091505092915050565b6000808284039050600083121580156113595750838113155b8061136f575060008312801561136e57508381135b5b6113cd576040517f08c379a00000000000000000000000000000000000000000000000000000000081526004018080602001828103825260248152602001806116fa60249139604001915050604051809103906113ca611539565b50505b8091505092915050565b6000808212156113ea57816000036113ec565b815b9050919050565b600080821415611474576040517f08c379a00000000000000000000000000000000000000000000000000000000081526004018080602001828103825260208152602001807f5369676e6564536166654d6174683a206469766973696f6e206279207a65726f81525060200191505060405180910390611471611539565b50505b7fffffffffffffffffffffffffffffffffffffffffffffffffffffffffffffffff821480156114c257507f800000000000000000000000000000000000000000000000000000000000000083145b15611521576040517f08c379a0000000000000000000000000000000000000000000000000000000008152600401808060200182810382526021815260200180611691602191396040019150506040518091039061151e611539565b50505b600082848161152c57fe5b0590508091505092915050565b632a2a7adb598160e01b8152600481016020815285602082015260005b86811015611574578086015181604084010152602081019050611556565b506020828760640184336000905af158600e01573d6000803e3d6000fd5b3d6001141558600a015760016000f35b505050565b6303daa959598160e01b8152836004820152602081602483336000905af158600e01573d6000803e3d6000fd5b3d6001141558600a015760016000f35b8051935060005b6040811015611605576000818301526020810190506115eb565b505050565b6322bd64c0598160e01b8152836004820152846024820152600081604483336000905af158600e01573d6000803e3d6000fd5b3d6001141558600a015760016000f35b60005b604081101561166a57600081830152602081019050611650565b50505056fe5369676e6564536166654d6174683a206164646974696f6e206f766572666c6f775369676e6564536166654d6174683a206469766973696f6e206f766572666c6f77536166654d6174683a206d756c7469706c69636174696f6e206f766572666c6f775369676e6564536166654d6174683a206d756c7469706c69636174696f6e206f766572666c6f775369676e6564536166654d6174683a207375627472616374696f6e206f766572666c6f77536166654d6174683a206d756c7469706c69636174696f6e206f766572666c6f77",
  "devdoc": {
    "details": "Store & retrieve value in a variable",
    "kind": "dev",
    "methods": {
      "addLiquidity(uint256,uint256)": {
        "details": "add x tokens, y tokens to update invariant k with same A",
        "params": {
          "x_in": ", y_in balances such that val(x_in) = val(y_in)"
        }
      },
      "changeA(uint256)": {
        "details": "Change A for Stable Swap equation",
        "params": {
          "_A": "dictating shape of stable swap curve"
        }
      },
      "constructor": {
        "details": "initialize x tokens, y tokens to form invariant with A = 0",
        "params": {
          "_x": ", _y balances such that val(_x) = val(_y)"
        }
      },
      "invariant()": {
        "details": "Boolean function enforcing stable swap invariant"
      },
      "pow(int256,int256)": {
        "details": "Safe Power function",
        "params": {
          "base": ", exponent to find base^(exponent) Adapted from https://forum.openzeppelin.com/t/does-safemath-library-need-a-safe-power-function/871/8"
        }
      },
      "removeLiquidity(uint256)": {
        "details": "remove x tokens, y tokens to update invariant k with same A",
        "params": {
          "percOut": "such that percentage of liquidity removed"
        }
      },
      "sqrt(uint256)": {
        "details": "Square root function",
        "params": {
          "a": "number to find the square root of (rounded down?) Adapted from https://github.com/ethereum/dapp-bin/pull/50/files (an open PR for solidity)"
        }
      },
      "swap_x(uint256)": {
        "details": "Swap x for y according to stable swap invariant",
        "params": {
          "x_in": "to return y_out"
        }
      },
      "swap_y(uint256)": {
        "details": "Swap y for x according to stable swap invariant",
        "params": {
          "y_in": "to return x_out"
        }
      }
    },
    "title": "Storage",
    "version": 1
  },
  "userdoc": {
    "kind": "user",
    "methods": {},
    "version": 1
  },
  "storageLayout": {
    "storage": [
      {
        "astId": 760,
        "contract": "contracts/StableSwap.sol:StableSwap",
        "label": "x",
        "offset": 0,
        "slot": "0",
        "type": "t_uint256"
      },
      {
        "astId": 762,
        "contract": "contracts/StableSwap.sol:StableSwap",
        "label": "y",
        "offset": 0,
        "slot": "1",
        "type": "t_uint256"
      },
      {
        "astId": 764,
        "contract": "contracts/StableSwap.sol:StableSwap",
        "label": "k",
        "offset": 0,
        "slot": "2",
        "type": "t_uint256"
      },
      {
        "astId": 766,
        "contract": "contracts/StableSwap.sol:StableSwap",
        "label": "A",
        "offset": 0,
        "slot": "3",
        "type": "t_uint256"
      }
    ],
    "types": {
      "t_uint256": {
        "encoding": "inplace",
        "label": "uint256",
        "numberOfBytes": "32"
      }
    }
  }
}