{
  "contractName": "GovernorBravoDelegate",
  "abi": [
    {
      "anonymous": false,
      "inputs": [
        {
          "indexed": false,
          "internalType": "address",
          "name": "oldAdmin",
          "type": "address"
        },
        {
          "indexed": false,
          "internalType": "address",
          "name": "newAdmin",
          "type": "address"
        }
      ],
      "name": "NewAdmin",
      "type": "event"
    },
    {
      "anonymous": false,
      "inputs": [
        {
          "indexed": false,
          "internalType": "address",
          "name": "oldImplementation",
          "type": "address"
        },
        {
          "indexed": false,
          "internalType": "address",
          "name": "newImplementation",
          "type": "address"
        }
      ],
      "name": "NewImplementation",
      "type": "event"
    },
    {
      "anonymous": false,
      "inputs": [
        {
          "indexed": false,
          "internalType": "address",
          "name": "oldPendingAdmin",
          "type": "address"
        },
        {
          "indexed": false,
          "internalType": "address",
          "name": "newPendingAdmin",
          "type": "address"
        }
      ],
      "name": "NewPendingAdmin",
      "type": "event"
    },
    {
      "anonymous": false,
      "inputs": [
        {
          "indexed": false,
          "internalType": "uint256",
          "name": "id",
          "type": "uint256"
        }
      ],
      "name": "ProposalCanceled",
      "type": "event"
    },
    {
      "anonymous": false,
      "inputs": [
        {
          "indexed": false,
          "internalType": "uint256",
          "name": "id",
          "type": "uint256"
        },
        {
          "indexed": false,
          "internalType": "address",
          "name": "proposer",
          "type": "address"
        },
        {
          "indexed": false,
          "internalType": "address[]",
          "name": "targets",
          "type": "address[]"
        },
        {
          "indexed": false,
          "internalType": "uint256[]",
          "name": "values",
          "type": "uint256[]"
        },
        {
          "indexed": false,
          "internalType": "string[]",
          "name": "signatures",
          "type": "string[]"
        },
        {
          "indexed": false,
          "internalType": "bytes[]",
          "name": "calldatas",
          "type": "bytes[]"
        },
        {
          "indexed": false,
          "internalType": "uint256",
          "name": "startBlock",
          "type": "uint256"
        },
        {
          "indexed": false,
          "internalType": "uint256",
          "name": "endBlock",
          "type": "uint256"
        },
        {
          "indexed": false,
          "internalType": "string",
          "name": "description",
          "type": "string"
        }
      ],
      "name": "ProposalCreated",
      "type": "event"
    },
    {
      "anonymous": false,
      "inputs": [
        {
          "indexed": false,
          "internalType": "uint256",
          "name": "id",
          "type": "uint256"
        }
      ],
      "name": "ProposalExecuted",
      "type": "event"
    },
    {
      "anonymous": false,
      "inputs": [
        {
          "indexed": false,
          "internalType": "uint256",
          "name": "id",
          "type": "uint256"
        },
        {
          "indexed": false,
          "internalType": "uint256",
          "name": "eta",
          "type": "uint256"
        }
      ],
      "name": "ProposalQueued",
      "type": "event"
    },
    {
      "anonymous": false,
      "inputs": [
        {
          "indexed": false,
          "internalType": "uint256",
          "name": "oldProposalThreshold",
          "type": "uint256"
        },
        {
          "indexed": false,
          "internalType": "uint256",
          "name": "newProposalThreshold",
          "type": "uint256"
        }
      ],
      "name": "ProposalThresholdSet",
      "type": "event"
    },
    {
      "anonymous": false,
      "inputs": [
        {
          "indexed": true,
          "internalType": "address",
          "name": "voter",
          "type": "address"
        },
        {
          "indexed": false,
          "internalType": "uint256",
          "name": "proposalId",
          "type": "uint256"
        },
        {
          "indexed": false,
          "internalType": "uint8",
          "name": "support",
          "type": "uint8"
        },
        {
          "indexed": false,
          "internalType": "uint256",
          "name": "votes",
          "type": "uint256"
        },
        {
          "indexed": false,
          "internalType": "string",
          "name": "reason",
          "type": "string"
        }
      ],
      "name": "VoteCast",
      "type": "event"
    },
    {
      "anonymous": false,
      "inputs": [
        {
          "indexed": false,
          "internalType": "uint256",
          "name": "oldVotingDelay",
          "type": "uint256"
        },
        {
          "indexed": false,
          "internalType": "uint256",
          "name": "newVotingDelay",
          "type": "uint256"
        }
      ],
      "name": "VotingDelaySet",
      "type": "event"
    },
    {
      "anonymous": false,
      "inputs": [
        {
          "indexed": false,
          "internalType": "uint256",
          "name": "oldVotingPeriod",
          "type": "uint256"
        },
        {
          "indexed": false,
          "internalType": "uint256",
          "name": "newVotingPeriod",
          "type": "uint256"
        }
      ],
      "name": "VotingPeriodSet",
      "type": "event"
    },
    {
      "constant": true,
      "inputs": [],
      "name": "BALLOT_TYPEHASH",
      "outputs": [
        {
          "internalType": "bytes32",
          "name": "",
          "type": "bytes32"
        }
      ],
      "payable": false,
      "stateMutability": "view",
      "type": "function"
    },
    {
      "constant": true,
      "inputs": [],
      "name": "DOMAIN_TYPEHASH",
      "outputs": [
        {
          "internalType": "bytes32",
          "name": "",
          "type": "bytes32"
        }
      ],
      "payable": false,
      "stateMutability": "view",
      "type": "function"
    },
    {
      "constant": true,
      "inputs": [],
      "name": "MAX_PROPOSAL_THRESHOLD",
      "outputs": [
        {
          "internalType": "uint256",
          "name": "",
          "type": "uint256"
        }
      ],
      "payable": false,
      "stateMutability": "view",
      "type": "function"
    },
    {
      "constant": true,
      "inputs": [],
      "name": "MAX_VOTING_DELAY",
      "outputs": [
        {
          "internalType": "uint256",
          "name": "",
          "type": "uint256"
        }
      ],
      "payable": false,
      "stateMutability": "view",
      "type": "function"
    },
    {
      "constant": true,
      "inputs": [],
      "name": "MAX_VOTING_PERIOD",
      "outputs": [
        {
          "internalType": "uint256",
          "name": "",
          "type": "uint256"
        }
      ],
      "payable": false,
      "stateMutability": "view",
      "type": "function"
    },
    {
      "constant": true,
      "inputs": [],
      "name": "MIN_PROPOSAL_THRESHOLD",
      "outputs": [
        {
          "internalType": "uint256",
          "name": "",
          "type": "uint256"
        }
      ],
      "payable": false,
      "stateMutability": "view",
      "type": "function"
    },
    {
      "constant": true,
      "inputs": [],
      "name": "MIN_VOTING_DELAY",
      "outputs": [
        {
          "internalType": "uint256",
          "name": "",
          "type": "uint256"
        }
      ],
      "payable": false,
      "stateMutability": "view",
      "type": "function"
    },
    {
      "constant": true,
      "inputs": [],
      "name": "MIN_VOTING_PERIOD",
      "outputs": [
        {
          "internalType": "uint256",
          "name": "",
          "type": "uint256"
        }
      ],
      "payable": false,
      "stateMutability": "view",
      "type": "function"
    },
    {
      "constant": true,
      "inputs": [],
      "name": "admin",
      "outputs": [
        {
          "internalType": "address",
          "name": "",
          "type": "address"
        }
      ],
      "payable": false,
      "stateMutability": "view",
      "type": "function"
    },
    {
      "constant": true,
      "inputs": [],
      "name": "ctoken",
      "outputs": [
        {
          "internalType": "contract CTokenInterface",
          "name": "",
          "type": "address"
        }
      ],
      "payable": false,
      "stateMutability": "view",
      "type": "function"
    },
    {
      "constant": true,
      "inputs": [],
      "name": "implementation",
      "outputs": [
        {
          "internalType": "address",
          "name": "",
          "type": "address"
        }
      ],
      "payable": false,
      "stateMutability": "view",
      "type": "function"
    },
    {
      "constant": true,
      "inputs": [],
      "name": "initialProposalId",
      "outputs": [
        {
          "internalType": "uint256",
          "name": "",
          "type": "uint256"
        }
      ],
      "payable": false,
      "stateMutability": "view",
      "type": "function"
    },
    {
      "constant": true,
      "inputs": [
        {
          "internalType": "address",
          "name": "",
          "type": "address"
        }
      ],
      "name": "latestProposalIds",
      "outputs": [
        {
          "internalType": "uint256",
          "name": "",
          "type": "uint256"
        }
      ],
      "payable": false,
      "stateMutability": "view",
      "type": "function"
    },
    {
      "constant": true,
      "inputs": [],
      "name": "name",
      "outputs": [
        {
          "internalType": "string",
          "name": "",
          "type": "string"
        }
      ],
      "payable": false,
      "stateMutability": "view",
      "type": "function"
    },
    {
      "constant": true,
      "inputs": [],
      "name": "pendingAdmin",
      "outputs": [
        {
          "internalType": "address",
          "name": "",
          "type": "address"
        }
      ],
      "payable": false,
      "stateMutability": "view",
      "type": "function"
    },
    {
      "constant": true,
      "inputs": [],
      "name": "proposalCount",
      "outputs": [
        {
          "internalType": "uint256",
          "name": "",
          "type": "uint256"
        }
      ],
      "payable": false,
      "stateMutability": "view",
      "type": "function"
    },
    {
      "constant": true,
      "inputs": [],
      "name": "proposalMaxOperations",
      "outputs": [
        {
          "internalType": "uint256",
          "name": "",
          "type": "uint256"
        }
      ],
      "payable": false,
      "stateMutability": "view",
      "type": "function"
    },
    {
      "constant": true,
      "inputs": [],
      "name": "proposalThreshold",
      "outputs": [
        {
          "internalType": "uint256",
          "name": "",
          "type": "uint256"
        }
      ],
      "payable": false,
      "stateMutability": "view",
      "type": "function"
    },
    {
      "constant": true,
      "inputs": [
        {
          "internalType": "uint256",
          "name": "",
          "type": "uint256"
        }
      ],
      "name": "proposals",
      "outputs": [
        {
          "internalType": "uint256",
          "name": "id",
          "type": "uint256"
        },
        {
          "internalType": "address",
          "name": "proposer",
          "type": "address"
        },
        {
          "internalType": "uint256",
          "name": "eta",
          "type": "uint256"
        },
        {
          "internalType": "uint256",
          "name": "startBlock",
          "type": "uint256"
        },
        {
          "internalType": "uint256",
          "name": "endBlock",
          "type": "uint256"
        },
        {
          "internalType": "uint256",
          "name": "forVotes",
          "type": "uint256"
        },
        {
          "internalType": "uint256",
          "name": "againstVotes",
          "type": "uint256"
        },
        {
          "internalType": "uint256",
          "name": "abstainVotes",
          "type": "uint256"
        },
        {
          "internalType": "bool",
          "name": "canceled",
          "type": "bool"
        },
        {
          "internalType": "bool",
          "name": "executed",
          "type": "bool"
        }
      ],
      "payable": false,
      "stateMutability": "view",
      "type": "function"
    },
    {
      "constant": true,
      "inputs": [],
      "name": "quorumVotes",
      "outputs": [
        {
          "internalType": "uint256",
          "name": "",
          "type": "uint256"
        }
      ],
      "payable": false,
      "stateMutability": "view",
      "type": "function"
    },
    {
      "constant": true,
      "inputs": [],
      "name": "timelock",
      "outputs": [
        {
          "internalType": "contract TimelockInterface",
          "name": "",
          "type": "address"
        }
      ],
      "payable": false,
      "stateMutability": "view",
      "type": "function"
    },
    {
      "constant": true,
      "inputs": [],
      "name": "votingDelay",
      "outputs": [
        {
          "internalType": "uint256",
          "name": "",
          "type": "uint256"
        }
      ],
      "payable": false,
      "stateMutability": "view",
      "type": "function"
    },
    {
      "constant": true,
      "inputs": [],
      "name": "votingPeriod",
      "outputs": [
        {
          "internalType": "uint256",
          "name": "",
          "type": "uint256"
        }
      ],
      "payable": false,
      "stateMutability": "view",
      "type": "function"
    },
    {
      "constant": false,
      "inputs": [
        {
          "internalType": "address",
          "name": "timelock_",
          "type": "address"
        },
        {
          "internalType": "address",
          "name": "ctoken_",
          "type": "address"
        },
        {
          "internalType": "uint256",
          "name": "votingPeriod_",
          "type": "uint256"
        },
        {
          "internalType": "uint256",
          "name": "votingDelay_",
          "type": "uint256"
        },
        {
          "internalType": "uint256",
          "name": "proposalThreshold_",
          "type": "uint256"
        }
      ],
      "name": "initialize",
      "outputs": [],
      "payable": false,
      "stateMutability": "nonpayable",
      "type": "function"
    },
    {
      "constant": false,
      "inputs": [
        {
          "internalType": "address[]",
          "name": "targets",
          "type": "address[]"
        },
        {
          "internalType": "uint256[]",
          "name": "values",
          "type": "uint256[]"
        },
        {
          "internalType": "string[]",
          "name": "signatures",
          "type": "string[]"
        },
        {
          "internalType": "bytes[]",
          "name": "calldatas",
          "type": "bytes[]"
        },
        {
          "internalType": "string",
          "name": "description",
          "type": "string"
        }
      ],
      "name": "propose",
      "outputs": [
        {
          "internalType": "uint256",
          "name": "",
          "type": "uint256"
        }
      ],
      "payable": false,
      "stateMutability": "nonpayable",
      "type": "function"
    },
    {
      "constant": false,
      "inputs": [
        {
          "internalType": "uint256",
          "name": "proposalId",
          "type": "uint256"
        }
      ],
      "name": "queue",
      "outputs": [],
      "payable": false,
      "stateMutability": "nonpayable",
      "type": "function"
    },
    {
      "constant": false,
      "inputs": [
        {
          "internalType": "uint256",
          "name": "proposalId",
          "type": "uint256"
        }
      ],
      "name": "execute",
      "outputs": [],
      "payable": true,
      "stateMutability": "payable",
      "type": "function"
    },
    {
      "constant": false,
      "inputs": [
        {
          "internalType": "uint256",
          "name": "proposalId",
          "type": "uint256"
        }
      ],
      "name": "cancel",
      "outputs": [],
      "payable": false,
      "stateMutability": "nonpayable",
      "type": "function"
    },
    {
      "constant": true,
      "inputs": [
        {
          "internalType": "uint256",
          "name": "proposalId",
          "type": "uint256"
        }
      ],
      "name": "getActions",
      "outputs": [
        {
          "internalType": "address[]",
          "name": "targets",
          "type": "address[]"
        },
        {
          "internalType": "uint256[]",
          "name": "values",
          "type": "uint256[]"
        },
        {
          "internalType": "string[]",
          "name": "signatures",
          "type": "string[]"
        },
        {
          "internalType": "bytes[]",
          "name": "calldatas",
          "type": "bytes[]"
        }
      ],
      "payable": false,
      "stateMutability": "view",
      "type": "function"
    },
    {
      "constant": true,
      "inputs": [
        {
          "internalType": "uint256",
          "name": "proposalId",
          "type": "uint256"
        },
        {
          "internalType": "address",
          "name": "voter",
          "type": "address"
        }
      ],
      "name": "getReceipt",
      "outputs": [
        {
          "components": [
            {
              "internalType": "bool",
              "name": "hasVoted",
              "type": "bool"
            },
            {
              "internalType": "uint8",
              "name": "support",
              "type": "uint8"
            },
            {
              "internalType": "uint96",
              "name": "votes",
              "type": "uint96"
            }
          ],
          "internalType": "struct GovernorBravoDelegateStorageV1.Receipt",
          "name": "",
          "type": "tuple"
        }
      ],
      "payable": false,
      "stateMutability": "view",
      "type": "function"
    },
    {
      "constant": true,
      "inputs": [
        {
          "internalType": "uint256",
          "name": "proposalId",
          "type": "uint256"
        }
      ],
      "name": "state",
      "outputs": [
        {
          "internalType": "enum GovernorBravoDelegateStorageV1.ProposalState",
          "name": "",
          "type": "uint8"
        }
      ],
      "payable": false,
      "stateMutability": "view",
      "type": "function"
    },
    {
      "constant": false,
      "inputs": [
        {
          "internalType": "uint256",
          "name": "proposalId",
          "type": "uint256"
        },
        {
          "internalType": "uint8",
          "name": "support",
          "type": "uint8"
        }
      ],
      "name": "castVote",
      "outputs": [],
      "payable": false,
      "stateMutability": "nonpayable",
      "type": "function"
    },
    {
      "constant": false,
      "inputs": [
        {
          "internalType": "uint256",
          "name": "proposalId",
          "type": "uint256"
        },
        {
          "internalType": "uint8",
          "name": "support",
          "type": "uint8"
        },
        {
          "internalType": "string",
          "name": "reason",
          "type": "string"
        }
      ],
      "name": "castVoteWithReason",
      "outputs": [],
      "payable": false,
      "stateMutability": "nonpayable",
      "type": "function"
    },
    {
      "constant": false,
      "inputs": [
        {
          "internalType": "uint256",
          "name": "proposalId",
          "type": "uint256"
        },
        {
          "internalType": "uint8",
          "name": "support",
          "type": "uint8"
        },
        {
          "internalType": "uint8",
          "name": "v",
          "type": "uint8"
        },
        {
          "internalType": "bytes32",
          "name": "r",
          "type": "bytes32"
        },
        {
          "internalType": "bytes32",
          "name": "s",
          "type": "bytes32"
        }
      ],
      "name": "castVoteBySig",
      "outputs": [],
      "payable": false,
      "stateMutability": "nonpayable",
      "type": "function"
    },
    {
      "constant": false,
      "inputs": [
        {
          "internalType": "uint256",
          "name": "newVotingDelay",
          "type": "uint256"
        }
      ],
      "name": "_setVotingDelay",
      "outputs": [],
      "payable": false,
      "stateMutability": "nonpayable",
      "type": "function"
    },
    {
      "constant": false,
      "inputs": [
        {
          "internalType": "uint256",
          "name": "newVotingPeriod",
          "type": "uint256"
        }
      ],
      "name": "_setVotingPeriod",
      "outputs": [],
      "payable": false,
      "stateMutability": "nonpayable",
      "type": "function"
    },
    {
      "constant": false,
      "inputs": [
        {
          "internalType": "uint256",
          "name": "newProposalThreshold",
          "type": "uint256"
        }
      ],
      "name": "_setProposalThreshold",
      "outputs": [],
      "payable": false,
      "stateMutability": "nonpayable",
      "type": "function"
    },
    {
      "constant": false,
      "inputs": [],
      "name": "_initiate",
      "outputs": [],
      "payable": false,
      "stateMutability": "nonpayable",
      "type": "function"
    },
    {
      "constant": false,
      "inputs": [
        {
          "internalType": "address",
          "name": "newPendingAdmin",
          "type": "address"
        }
      ],
      "name": "_setPendingAdmin",
      "outputs": [],
      "payable": false,
      "stateMutability": "nonpayable",
      "type": "function"
    },
    {
      "constant": false,
      "inputs": [],
      "name": "_acceptAdmin",
      "outputs": [],
      "payable": false,
      "stateMutability": "nonpayable",
      "type": "function"
    }
  ],
  "bytecode": "0x608060405234801561001057600080fd5b50614361806100206000396000f3fe6080604052600436106101cb5760003560e01c8063013cf08b146101d057806302a251a31461020f57806306fdde03146102315780630ea2d98c1461025357806317977c611461027557806317ba1b8b146102955780631dfb1b5a146102b557806320606b70146102d5578063215809ca146102ea57806324bc1a64146102ff57806325fd935a146103145780632678224714610329578063328dd9821461034b5780633932abb11461037b5780633bccf4fd146103905780633e4f49e6146103b057806340e58ee5146103dd57806356781388146103fd5780635c60da1b1461041d578063791f5d23146104325780637b3c71d3146104475780637bdbe4d014610467578063878f14821461047c578063a64e024a14610491578063b1126263146104a6578063b58131b0146104bb578063b71d1a0c146104d0578063ccf3eb9f146104f0578063d13f90b414610512578063d33219b414610532578063da35c66414610547578063da95691a1461055c578063ddf0b0091461057c578063deaaa7cc1461059c578063e23a9a52146105b1578063e48083fe146105de578063e9c714f2146105f3578063f851a44014610608578063fc4eee421461061d578063fe0d94c114610632575b600080fd5b3480156101dc57600080fd5b506101f06101eb366004612a0c565b610645565b6040516102069a99989796959493929190613f7b565b60405180910390f35b34801561021b57600080fd5b506102246106a8565b6040516102069190613bb8565b34801561023d57600080fd5b506102466106ae565b6040516102069190613c74565b34801561025f57600080fd5b5061027361026e366004612a0c565b6106dd565b005b34801561028157600080fd5b50610224610290366004612827565b610786565b3480156102a157600080fd5b506102736102b0366004612a0c565b610798565b3480156102c157600080fd5b506102736102d0366004612a0c565b61083c565b3480156102e157600080fd5b506102246108cf565b3480156102f657600080fd5b506102246108e6565b34801561030b57600080fd5b506102246108eb565b34801561032057600080fd5b506102246108f9565b34801561033557600080fd5b5061033e610907565b6040516102069190613a7e565b34801561035757600080fd5b5061036b610366366004612a0c565b610916565b6040516102069493929190613b6b565b34801561038757600080fd5b50610224610ba5565b34801561039c57600080fd5b506102736103ab366004612afb565b610bab565b3480156103bc57600080fd5b506103d06103cb366004612a0c565b610d70565b6040516102069190613c66565b3480156103e957600080fd5b506102736103f8366004612a0c565b610ef6565b34801561040957600080fd5b50610273610418366004612a64565b61114a565b34801561042957600080fd5b5061033e611182565b34801561043e57600080fd5b50610224611191565b34801561045357600080fd5b50610273610462366004612a94565b61119f565b34801561047357600080fd5b506102246111dd565b34801561048857600080fd5b506102736111e2565b34801561049d57600080fd5b50610224611296565b3480156104b257600080fd5b5061022461129d565b3480156104c757600080fd5b506102246112a3565b3480156104dc57600080fd5b506102736104eb366004612827565b6112a9565b3480156104fc57600080fd5b50610505611314565b6040516102069190613c58565b34801561051e57600080fd5b5061027361052d36600461284d565b611323565b34801561053e57600080fd5b5061050561149f565b34801561055357600080fd5b506102246114ae565b34801561056857600080fd5b506102246105773660046128c2565b6114b4565b34801561058857600080fd5b50610273610597366004612a0c565b6118fc565b3480156105a857600080fd5b50610224611b78565b3480156105bd57600080fd5b506105d16105cc366004612a2a565b611b84565b6040516102069190613ec5565b3480156105ea57600080fd5b50610224611bf1565b3480156105ff57600080fd5b50610273611bf6565b34801561061457600080fd5b5061033e611cc2565b34801561062957600080fd5b50610224611cd1565b610273610640366004612a0c565b611cd7565b600a60208190526000918252604090912080546001820154600283015460078401546008850154600986015496860154600b870154600c9097015495976001600160a01b0390951696939592949193919290919060ff808216916101009004168a565b60045481565b60405180604001604052806013815260200172426f626120476f7665726e6f7220427261766f60681b81525081565b6000546001600160a01b031633146107105760405162461bcd60e51b815260040161070790613cc5565b60405180910390fd5b60028110158015610724575062013b008111155b6107405760405162461bcd60e51b815260040161070790613d05565b60048054908290556040517f7e3f7f0708a84de9203036abaa450dccc85ad5ff52f78c170f3edb55cf5e88289061077a9083908590614001565b60405180910390a15050565b600b6020526000908152604090205481565b6000546001600160a01b031633146107c25760405162461bcd60e51b815260040161070790613e85565b690a968163f0a57b40000081101580156107e6575069152d02c7e14af68000008111155b6108025760405162461bcd60e51b815260040161070790613da5565b60058054908290556040517fccb45da8d5717e6c4544694297c4ba5cf151d455c9bb0ed4fc7a38411bc054619061077a9083908590614001565b6000546001600160a01b031633146108665760405162461bcd60e51b815260040161070790613ce5565b600181101580156108795750619d808111155b6108955760405162461bcd60e51b815260040161070790613d35565b60038054908290556040517fc565b045403dc03c2eea82b81a0465edad9e2e7fc4d97e11421c209da93d7a939061077a9083908590614001565b6040516108db90613a73565b604051809103902081565b600281565b6954b40b1f852bda00000081565b69152d02c7e14af680000081565b6001546001600160a01b031681565b6060806060806000600a60008781526020019081526020016000209050806003018160040182600501836006018380548060200260200160405190810160405280929190818152602001828054801561099857602002820191906000526020600020905b81546001600160a01b0316815260019091019060200180831161097a575b50505050509350828054806020026020016040519081016040528092919081815260200182805480156109ea57602002820191906000526020600020905b8154815260200190600101908083116109d6575b5050505050925081805480602002602001604051908101604052809291908181526020016000905b82821015610abd5760008481526020908190208301805460408051601f6002600019610100600187161502019094169390930492830185900485028101850190915281815292830182828015610aa95780601f10610a7e57610100808354040283529160200191610aa9565b820191906000526020600020905b815481529060010190602001808311610a8c57829003601f168201915b505050505081526020019060010190610a12565b50505050915080805480602002602001604051908101604052809291908181526020016000905b82821015610b8f5760008481526020908190208301805460408051601f6002600019610100600187161502019094169390930492830185900485028101850190915281815292830182828015610b7b5780601f10610b5057610100808354040283529160200191610b7b565b820191906000526020600020905b815481529060010190602001808311610b5e57829003601f168201915b505050505081526020019060010190610ae4565b5050505090509450945094509450509193509193565b60035481565b6000604051610bb990613a73565b604080519182900382208282019091526013825272426f626120476f7665726e6f7220427261766f60681b6020909201919091527fc7729dbd0d17759b9836d4966b5a57ec0153428815a91533a0ca924f62df3ec7610c16611e90565b30604051602001610c2a9493929190613bc6565b6040516020818303038152906040528051906020012090506000604051610c5090613a37565b604051908190038120610c699189908990602001613bfb565b60405160208183030381529060405280519060200120905060008282604051602001610c96929190613a42565b604051602081830303815290604052805190602001209050600060018288888860405160008152602001604052604051610cd39493929190613c23565b6020604051602081039080840390855afa158015610cf5573d6000803e3d6000fd5b5050604051601f1901519150506001600160a01b038116610d285760405162461bcd60e51b815260040161070790613d65565b806001600160a01b03166000805160206142ff8339815191528a8a610d4e858e8e611e95565b604051610d5d93929190614055565b60405180910390a2505050505050505050565b60008160075410158015610d85575060065482115b610da15760405162461bcd60e51b815260040161070790613e95565b6000828152600a60205260409020600c81015460ff1615610dc6576002915050610ef1565b80600701544311610ddb576000915050610ef1565b80600801544311610df0576001915050610ef1565b80600a01548160090154111580610e1457506954b40b1f852bda0000008160090154105b15610e23576003915050610ef1565b6002810154610e36576004915050610ef1565b600c810154610100900460ff1615610e52576007915050610ef1565b6002810154600854604080516360d143f160e11b81529051610edb93926001600160a01b03169163c1a287e2916004808301926020929190829003018186803b158015610e9e57600080fd5b505afa158015610eb2573d6000803e3d6000fd5b505050506040513d601f19601f82011682018060405250610ed691908101906129ba565b612081565b4210610eeb576006915050610ef1565b60059150505b919050565b6007610f0182610d70565b6007811115610f0c57fe5b1415610f2a5760405162461bcd60e51b815260040161070790613e75565b6000818152600a6020526040902060018101546001600160a01b0316331480610ff257506005546009546001838101546001600160a01b039283169263782d6fe192911690610f7a9043906120a6565b6040518363ffffffff1660e01b8152600401610f97929190613ac2565b60206040518083038186803b158015610faf57600080fd5b505afa158015610fc3573d6000803e3d6000fd5b505050506040513d601f19601f82011682018060405250610fe79190810190612b41565b6001600160601b0316105b61100e5760405162461bcd60e51b815260040161070790613e05565b600c8101805460ff1916600117905560005b600382015481101561111a576008546003830180546001600160a01b039092169163591fcdfe91908490811061105257fe5b6000918252602090912001546004850180546001600160a01b03909216918590811061107a57fe5b906000526020600020015485600501858154811061109457fe5b906000526020600020018660060186815481106110ad57fe5b9060005260206000200187600201546040518663ffffffff1660e01b81526004016110dc959493929190613b2a565b600060405180830381600087803b1580156110f657600080fd5b505af115801561110a573d6000803e3d6000fd5b5050600190920191506110209050565b507f789cf55be980739dad1d0699b93b58e806b51c9d96619bfa8fe0a28abaa7b30c8260405161077a9190613bb8565b336000805160206142ff8339815191528383611167848383611e95565b60405161117693929190614055565b60405180910390a25050565b6002546001600160a01b031681565b690a968163f0a57b40000081565b336000805160206142ff83398151915285856111bc848383611e95565b86866040516111cf95949392919061400f565b60405180910390a250505050565b600a81565b6000546001600160a01b0316331461120c5760405162461bcd60e51b815260040161070790613e55565b6006541561122c5760405162461bcd60e51b815260040161070790613dd5565b6001600781905560065560085460408051630e18b68160e01b815290516001600160a01b0390921691630e18b6819160048082019260009290919082900301818387803b15801561127c57600080fd5b505af1158015611290573d6000803e3d6000fd5b50505050565b62013b0081565b619d8081565b60055481565b6000546001600160a01b031633146112d35760405162461bcd60e51b815260040161070790613ca5565b600180546001600160a01b038381166001600160a01b031983161790925560405191169060008051602061429f8339815191529061077a9083908590613aa7565b6009546001600160a01b031681565b6008546001600160a01b03161561134c5760405162461bcd60e51b815260040161070790613c95565b6000546001600160a01b031633146113765760405162461bcd60e51b815260040161070790613d95565b6001600160a01b03851661139c5760405162461bcd60e51b815260040161070790613cd5565b6001600160a01b0384166113c25760405162461bcd60e51b815260040161070790613e35565b600283101580156113d6575062013b008311155b6113f25760405162461bcd60e51b815260040161070790613ea5565b600182101580156114055750619d808211155b6114215760405162461bcd60e51b815260040161070790613d75565b690a968163f0a57b4000008110158015611445575069152d02c7e14af68000008111155b6114615760405162461bcd60e51b815260040161070790613d45565b600880546001600160a01b039687166001600160a01b0319918216179091556009805495909616941693909317909355600455600391909155600555565b6008546001600160a01b031681565b60075481565b6000600654600014156114d95760405162461bcd60e51b815260040161070790613cf5565b6005546009546001600160a01b031663782d6fe1336114f94360016120a6565b6040518363ffffffff1660e01b8152600401611516929190613a8c565b60206040518083038186803b15801561152e57600080fd5b505afa158015611542573d6000803e3d6000fd5b505050506040513d601f19601f820116820180604052506115669190810190612b41565b6001600160601b03161161158c5760405162461bcd60e51b815260040161070790613e65565b8451865114801561159e575083518651145b80156115ab575082518651145b6115c75760405162461bcd60e51b815260040161070790613d85565b85516115e55760405162461bcd60e51b815260040161070790613de5565b600a865111156116075760405162461bcd60e51b815260040161070790613e15565b336000908152600b6020526040902054801561168457600061162882610d70565b9050600181600781111561163857fe5b14156116565760405162461bcd60e51b815260040161070790613e45565b600081600781111561166457fe5b14156116825760405162461bcd60e51b815260040161070790613e25565b505b600061169243600354612081565b905060006116a282600454612081565b60078054600101905590506116b561222d565b604051806101c001604052806007548152602001336001600160a01b03168152602001600081526020018b81526020018a815260200189815260200188815260200184815260200183815260200160008152602001600081526020016000815260200160001515815260200160001515815250905080600a6000836000015181526020019081526020016000206000820151816000015560208201518160010160006101000a8154816001600160a01b0302191690836001600160a01b0316021790555060408201518160020155606082015181600301908051906020019061179f9291906122a9565b50608082015180516117bb91600484019160209091019061230e565b5060a082015180516117d7916005840191602090910190612355565b5060c082015180516117f39160068401916020909101906123ae565b5060e082015181600701556101008201518160080155610120820151816009015561014082015181600a015561016082015181600b015561018082015181600c0160006101000a81548160ff0219169083151502179055506101a082015181600c0160016101000a81548160ff0219169083151502179055509050508060000151600b600083602001516001600160a01b03166001600160a01b03168152602001908152602001600020819055507f7d84a6263ae0d98d3329bd7b46bb4e8d6f98cd35a7adb45c274c8b7fd5ebd5e08160000151338c8c8c8c89898e6040516118e499989796959493929190613ed3565b60405180910390a15193505050505b95945050505050565b600461190782610d70565b600781111561191257fe5b1461192f5760405162461bcd60e51b815260040161070790613db5565b6000818152600a602090815260408083206008548251630d48571f60e31b815292519194936119899342936001600160a01b0390931692636a42b8f892600480840193919291829003018186803b158015610e9e57600080fd5b905060005b6003830154811015611b3157611b298360030182815481106119ac57fe5b6000918252602090912001546004850180546001600160a01b0390921691849081106119d457fe5b90600052602060002001548560050184815481106119ee57fe5b600091825260209182902001805460408051601f6002600019610100600187161502019094169390930492830185900485028101850190915281815292830182828015611a7c5780601f10611a5157610100808354040283529160200191611a7c565b820191906000526020600020905b815481529060010190602001808311611a5f57829003601f168201915b5050505050866006018581548110611a9057fe5b600091825260209182902001805460408051601f6002600019610100600187161502019094169390930492830185900485028101850190915281815292830182828015611b1e5780601f10611af357610100808354040283529160200191611b1e565b820191906000526020600020905b815481529060010190602001808311611b0157829003601f168201915b5050505050866120ce565b60010161198e565b50600282018190556040517f9a2e42fd6722813d69113e7d0079d3d940171428df7373df9c7f7617cfda289290611b6b9085908490614001565b60405180910390a1505050565b6040516108db90613a37565b611b8c612407565b506000828152600a602090815260408083206001600160a01b0385168452600d018252918290208251606081018452905460ff8082161515835261010082041692820192909252620100009091046001600160601b0316918101919091525b92915050565b600181565b6001546001600160a01b031633148015611c0f57503315155b611c2b5760405162461bcd60e51b815260040161070790613df5565b60008054600180546001600160a01b038082166001600160a01b03198086168217968790559092169092556040519282169390927ff9ffabca9c8276e99321725bcb43fb076a6c66a54b7f21c4e8146d8519b417dc92611c8f928692911690613aa7565b60405180910390a160015460405160008051602061429f8339815191529161077a9184916001600160a01b031690613aa7565b6000546001600160a01b031681565b60065481565b6005611ce282610d70565b6007811115611ced57fe5b14611d0a5760405162461bcd60e51b815260040161070790613d55565b6000818152600a60205260408120600c8101805461ff001916610100179055905b6003820154811015611e60576008546004830180546001600160a01b0390921691630825f38f919084908110611d5d57fe5b9060005260206000200154846003018481548110611d7757fe5b6000918252602090912001546004860180546001600160a01b039092169186908110611d9f57fe5b9060005260206000200154866005018681548110611db957fe5b90600052602060002001876006018781548110611dd257fe5b9060005260206000200188600201546040518763ffffffff1660e01b8152600401611e01959493929190613b2a565b6000604051808303818588803b158015611e1a57600080fd5b505af1158015611e2e573d6000803e3d6000fd5b50505050506040513d6000823e601f3d908101601f19168201604052611e5791908101906129d8565b50600101611d2b565b507f712ae1383f79ac853f8d882153778e0260ef8f03b504e2866e0593e04d2b291f8260405161077a9190613bb8565b465b90565b60006001611ea284610d70565b6007811115611ead57fe5b14611eca5760405162461bcd60e51b815260040161070790613d15565b60028260ff161115611eee5760405162461bcd60e51b815260040161070790613c85565b6000838152600a602090815260408083206001600160a01b0388168452600d8101909252909120805460ff1615611f375760405162461bcd60e51b815260040161070790613d25565b600954600783015460405163782d6fe160e01b81526000926001600160a01b03169163782d6fe191611f6d918b91600401613ac2565b60206040518083038186803b158015611f8557600080fd5b505afa158015611f99573d6000803e3d6000fd5b505050506040513d601f19601f82011682018060405250611fbd9190810190612b41565b905060ff8516611fe857611fde83600a0154826001600160601b0316612081565b600a84015561203e565b8460ff16600114156120155761200b8360090154826001600160601b0316612081565b600984015561203e565b8460ff166002141561203e5761203883600b0154826001600160601b0316612081565b600b8401555b8154600160ff199091161761ff00191661010060ff8716021762010000600160701b031916620100006001600160601b03831602179091559150505b9392505050565b60008282018381101561207a5760405162461bcd60e51b815260040161070790613dc5565b6000828211156120c85760405162461bcd60e51b815260040161070790613eb5565b50900390565b6008546040516001600160a01b039091169063f2b06537906120fc9088908890889088908890602001613ad0565b604051602081830303815290604052805190602001206040518263ffffffff1660e01b815260040161212e9190613bb8565b60206040518083038186803b15801561214657600080fd5b505afa15801561215a573d6000803e3d6000fd5b505050506040513d601f19601f8201168201806040525061217e919081019061299c565b1561219b5760405162461bcd60e51b815260040161070790613cb5565b600854604051633a66f90160e01b81526001600160a01b0390911690633a66f901906121d39088908890889088908890600401613ad0565b602060405180830381600087803b1580156121ed57600080fd5b505af1158015612201573d6000803e3d6000fd5b505050506040513d601f19601f8201168201806040525061222591908101906129ba565b505050505050565b604051806101c001604052806000815260200160006001600160a01b03168152602001600081526020016060815260200160608152602001606081526020016060815260200160008152602001600081526020016000815260200160008152602001600081526020016000151581526020016000151581525090565b8280548282559060005260206000209081019282156122fe579160200282015b828111156122fe57825182546001600160a01b0319166001600160a01b039091161782556020909201916001909101906122c9565b5061230a929150612427565b5090565b828054828255906000526020600020908101928215612349579160200282015b8281111561234957825182559160200191906001019061232e565b5061230a92915061244b565b8280548282559060005260206000209081019282156123a2579160200282015b828111156123a25782518051612392918491602090910190612465565b5091602001919060010190612375565b5061230a9291506124d2565b8280548282559060005260206000209081019282156123fb579160200282015b828111156123fb57825180516123eb918491602090910190612465565b50916020019190600101906123ce565b5061230a9291506124f5565b604080516060810182526000808252602082018190529181019190915290565b611e9291905b8082111561230a5780546001600160a01b031916815560010161242d565b611e9291905b8082111561230a5760008155600101612451565b828054600181600116156101000203166002900490600052602060002090601f016020900481019282601f106124a657805160ff1916838001178555612349565b82800160010185558215612349579182018281111561234957825182559160200191906001019061232e565b611e9291905b8082111561230a5760006124ec8282612518565b506001016124d8565b611e9291905b8082111561230a57600061250f8282612518565b506001016124fb565b50805460018160011615610100020316600290046000825580601f1061253e575061255c565b601f01602090049060005260206000209081019061255c919061244b565b50565b8035611beb816141c6565b600082601f83011261257b57600080fd5b813561258e612589826140b4565b61408e565b915081818352602084019350602081019050838560208402820111156125b357600080fd5b60005b838110156125df57816125c9888261255f565b84525060209283019291909101906001016125b6565b5050505092915050565b600082601f8301126125fa57600080fd5b8135612608612589826140b4565b81815260209384019390925082018360005b838110156125df57813586016126308882612734565b845250602092830192919091019060010161261a565b600082601f83011261265757600080fd5b8135612665612589826140b4565b81815260209384019390925082018360005b838110156125df578135860161268d8882612734565b8452506020928301929190910190600101612677565b600082601f8301126126b457600080fd5b81356126c2612589826140b4565b915081818352602084019350602081019050838560208402820111156126e757600080fd5b60005b838110156125df57816126fd888261271e565b84525060209283019291909101906001016126ea565b8051611beb816141da565b8035611beb816141e3565b8051611beb816141e3565b600082601f83011261274557600080fd5b8135612753612589826140d4565b9150808252602083016020830185838301111561276f57600080fd5b61277a83828461417a565b50505092915050565b600082601f83011261279457600080fd5b81516127a2612589826140d4565b915080825260208301602083018583830111156127be57600080fd5b61277a838284614186565b60008083601f8401126127db57600080fd5b5081356001600160401b038111156127f257600080fd5b60208301915083600182028301111561280a57600080fd5b9250929050565b8035611beb816141ec565b8051611beb816141f5565b60006020828403121561283957600080fd5b6000612845848461255f565b949350505050565b600080600080600060a0868803121561286557600080fd5b6000612871888861255f565b95505060206128828882890161255f565b94505060406128938882890161271e565b93505060606128a48882890161271e565b92505060806128b58882890161271e565b9150509295509295909350565b600080600080600060a086880312156128da57600080fd5b85356001600160401b038111156128f057600080fd5b6128fc8882890161256a565b95505060208601356001600160401b0381111561291857600080fd5b612924888289016126a3565b94505060408601356001600160401b0381111561294057600080fd5b61294c88828901612646565b93505060608601356001600160401b0381111561296857600080fd5b612974888289016125e9565b92505060808601356001600160401b0381111561299057600080fd5b6128b588828901612734565b6000602082840312156129ae57600080fd5b60006128458484612713565b6000602082840312156129cc57600080fd5b60006128458484612729565b6000602082840312156129ea57600080fd5b81516001600160401b03811115612a0057600080fd5b61284584828501612783565b600060208284031215612a1e57600080fd5b6000612845848461271e565b60008060408385031215612a3d57600080fd5b6000612a49858561271e565b9250506020612a5a8582860161255f565b9150509250929050565b60008060408385031215612a7757600080fd5b6000612a83858561271e565b9250506020612a5a85828601612811565b60008060008060608587031215612aaa57600080fd5b6000612ab6878761271e565b9450506020612ac787828801612811565b93505060408501356001600160401b03811115612ae357600080fd5b612aef878288016127c9565b95989497509550505050565b600080600080600060a08688031215612b1357600080fd5b6000612b1f888861271e565b9550506020612b3088828901612811565b945050604061289388828901612811565b600060208284031215612b5357600080fd5b6000612845848461281c565b6000612b6b8383612b9a565b505060200190565b600061207a8383612d3c565b6000612b6b8383612d22565b612b9481614152565b82525050565b612b948161411a565b6000612bae8261410d565b612bb88185614111565b9350612bc3836140fb565b8060005b83811015612bf1578151612bdb8882612b5f565b9750612be6836140fb565b925050600101612bc7565b509495945050505050565b6000612c078261410d565b612c118185614111565b935083602082028501612c23856140fb565b8060005b85811015612c5d5784840389528151612c408582612b73565b9450612c4b836140fb565b60209a909a0199925050600101612c27565b5091979650505050505050565b6000612c758261410d565b612c7f8185614111565b935083602082028501612c91856140fb565b8060005b85811015612c5d5784840389528151612cae8582612b73565b9450612cb9836140fb565b60209a909a0199925050600101612c95565b6000612cd68261410d565b612ce08185614111565b9350612ceb836140fb565b8060005b83811015612bf1578151612d038882612b7f565b9750612d0e836140fb565b925050600101612cef565b612b9481614125565b612b9481611e92565b612b94612d3782611e92565b611e92565b6000612d478261410d565b612d518185614111565b9350612d61818560208601614186565b612d6a816141b2565b9093019392505050565b600081546001811660008114612d915760018114612db757612df6565b607f6002830416612da28187614111565b60ff1984168152955050602085019250612df6565b60028204612dc58187614111565b9550612dd085614101565b60005b82811015612def57815488820152600190910190602001612dd3565b8701945050505b505092915050565b612b9481614159565b612b9481614164565b6000612e1c8385614111565b9350612e2983858461417a565b612d6a836141b2565b6000612e3f603283614111565b60008051602061421f83398151915281527120696e76616c696420766f7465207479706560701b602082015260400192915050565b6000612e81602883610ef1565b7f42616c6c6f742875696e743235362070726f706f73616c49642c75696e743820815267737570706f72742960c01b602082015260280192915050565b6000612ecb603383614111565b7f476f7665726e6f72427261766f3a3a696e697469616c697a653a2063616e206f8152726e6c7920696e697469616c697a65206f6e636560681b602082015260400192915050565b6000612f20602a83614111565b7f476f7665726e6f72427261766f3a5f73657450656e64696e6741646d696e3a2081526961646d696e206f6e6c7960b01b602082015260400192915050565b6000612f6c605583614111565b7f476f7665726e6f72427261766f3a3a71756575654f72526576657274496e746581527f726e616c3a206964656e746963616c2070726f706f73616c20616374696f6e20602082015274616c7265616479207175657565642061742065746160581b604082015260600192915050565b6000612fe9602b83614111565b6000805160206142df83398151915281526a2061646d696e206f6e6c7960a81b602082015260400192915050565b6000613024603383614111565b60008051602061423f83398151915281527269642074696d656c6f636b206164647265737360681b602082015260400192915050565b6000613067602a83614111565b6000805160206142bf83398151915281526961646d696e206f6e6c7960b01b602082015260400192915050565b60006130a1603183614111565b7f476f7665726e6f72427261766f3a3a70726f706f73653a20476f7665726e6f7281527020427261766f206e6f742061637469766560781b602082015260400192915050565b60006130f4600283610ef1565b61190160f01b815260020192915050565b6000613112603683614111565b6000805160206142df833981519152815275081a5b9d985b1a59081d9bdd1a5b99c81c195c9a5bd960521b602082015260400192915050565b6000613158603183614111565b60008051602061421f833981519152815270081d9bdd1a5b99c81a5cc818db1bdcd959607a1b602082015260400192915050565b6000613199603483614111565b60008051602061421f833981519152815273081d9bdd195c88185b1c9958591e481d9bdd195960621b602082015260400192915050565b60006131dd603483614111565b6000805160206142bf833981519152815273696e76616c696420766f74696e672064656c617960601b602082015260400192915050565b6000613221603583614111565b60008051602061423f8339815191528152741a59081c1c9bdc1bdcd85b081d1a1c995cda1bdb19605a1b602082015260400192915050565b6000613266604583614111565b7f476f7665726e6f72427261766f3a3a657865637574653a2070726f706f73616c81527f2063616e206f6e6c7920626520657865637574656420696620697420697320716020820152641d595d595960da1b604082015260600192915050565b60006132d3602f83614111565b7f476f7665726e6f72427261766f3a3a63617374566f746542795369673a20696e81526e76616c6964207369676e617475726560881b602082015260400192915050565b6000613324602f83614111565b60008051602061423f83398151915281526e696420766f74696e672064656c617960881b602082015260400192915050565b6000613363604483614111565b7f476f7665726e6f72427261766f3a3a70726f706f73653a2070726f706f73616c81527f2066756e6374696f6e20696e666f726d6174696f6e206172697479206d69736d6020820152630c2e8c6d60e31b604082015260600192915050565b60006133cf602583614111565b7f476f7665726e6f72427261766f3a3a696e697469616c697a653a2061646d696e815264206f6e6c7960d81b602082015260400192915050565b6000613416604083614111565b6000805160206141ff83398151915281527f686f6c643a20696e76616c69642070726f706f73616c207468726573686f6c64602082015260400192915050565b6000613463604483614111565b7f476f7665726e6f72427261766f3a3a71756575653a2070726f706f73616c206381527f616e206f6e6c79206265207175657565642069662069742069732073756363656020820152631959195960e21b604082015260600192915050565b60006134cf601183614111565b706164646974696f6e206f766572666c6f7760781b815260200192915050565b60006134fc604383610ef1565b7f454950373132446f6d61696e28737472696e67206e616d652c75696e7432353681527f20636861696e49642c6164647265737320766572696679696e67436f6e74726160208201526263742960e81b604082015260430192915050565b6000613567603083614111565b7f476f7665726e6f72427261766f3a3a5f696e6974696174653a2063616e206f6e81526f6c7920696e697469617465206f6e636560801b602082015260400192915050565b60006135b9602c83614111565b7f476f7665726e6f72427261766f3a3a70726f706f73653a206d7573742070726f81526b7669646520616374696f6e7360a01b602082015260400192915050565b6000613607602e83614111565b7f476f7665726e6f72427261766f3a5f61636365707441646d696e3a2070656e6481526d696e672061646d696e206f6e6c7960901b602082015260400192915050565b6000613657602f83614111565b7f476f7665726e6f72427261766f3a3a63616e63656c3a2070726f706f7365722081526e18589bdd99481d1a1c995cda1bdb19608a1b602082015260400192915050565b60006136a8602883614111565b7f476f7665726e6f72427261766f3a3a70726f706f73653a20746f6f206d616e7981526720616374696f6e7360c01b602082015260400192915050565b60006136f2605983614111565b60008051602061425f833981519152815260008051602061427f83398151915260208201527808185b1c9958591e481c195b991a5b99c81c1c9bdc1bdcd85b603a1b604082015260600192915050565b600061374f603183614111565b60008051602061423f83398151915281527069642043546f6b656e206164647265737360781b602082015260400192915050565b6000613790605883614111565b60008051602061425f833981519152815260008051602061427f83398151915260208201527708185b1c9958591e481858dd1a5d99481c1c9bdc1bdcd85b60421b604082015260600192915050565b6000611beb600083614111565b60006137f9602483614111565b7f476f7665726e6f72427261766f3a3a5f696e6974696174653a2061646d696e208152636f6e6c7960e01b602082015260400192915050565b600061383f603f83614111565b7f476f7665726e6f72427261766f3a3a70726f706f73653a2070726f706f73657281527f20766f7465732062656c6f772070726f706f73616c207468726573686f6c6400602082015260400192915050565b600061389e603683614111565b7f476f7665726e6f72427261766f3a3a63616e63656c3a2063616e6e6f742063618152751b98d95b08195e1958dd5d1959081c1c9bdc1bdcd85b60521b602082015260400192915050565b60006138f6603083614111565b6000805160206141ff83398151915281526f686f6c643a2061646d696e206f6e6c7960801b602082015260400192915050565b6000613936602983614111565b7f476f7665726e6f72427261766f3a3a73746174653a20696e76616c69642070728152681bdc1bdcd85b081a5960ba1b602082015260400192915050565b6000613981603083614111565b60008051602061423f83398151915281526f1a59081d9bdd1a5b99c81c195c9a5bd960821b602082015260400192915050565b60006139c1601583614111565b747375627472616374696f6e20756e646572666c6f7760581b815260200192915050565b805160608301906139f68482612d19565b506020820151613a096020850182613a1c565b5060408201516112906040850182613a2e565b612b9481614140565b612b948161416f565b612b9481614146565b6000611beb82612e74565b6000613a4d826130e7565b9150613a598285612d2b565b602082019150613a698284612d2b565b5060200192915050565b6000611beb826134ef565b60208101611beb8284612b9a565b60408101613a9a8285612b8b565b61207a6020830184612d22565b60408101613ab58285612b9a565b61207a6020830184612b9a565b60408101613a9a8285612b9a565b60a08101613ade8288612b9a565b613aeb6020830187612d22565b8181036040830152613afd8186612d3c565b90508181036060830152613b118185612d3c565b9050613b206080830184612d22565b9695505050505050565b60a08101613b388288612b9a565b613b456020830187612d22565b8181036040830152613b578186612d74565b90508181036060830152613b118185612d74565b60808082528101613b7c8187612ba3565b90508181036020830152613b908186612ccb565b90508181036040830152613ba48185612c6a565b90508181036060830152613b208184612bfc565b60208101611beb8284612d22565b60808101613bd48287612d22565b613be16020830186612d22565b613bee6040830185612d22565b6118f36060830184612b9a565b60608101613c098286612d22565b613c166020830185612d22565b6128456040830184613a1c565b60808101613c318287612d22565b613c3e6020830186613a1c565b613c4b6040830185612d22565b6118f36060830184612d22565b60208101611beb8284612dfe565b60208101611beb8284612e07565b6020808252810161207a8184612d3c565b60208082528101611beb81612e32565b60208082528101611beb81612ebe565b60208082528101611beb81612f13565b60208082528101611beb81612f5f565b60208082528101611beb81612fdc565b60208082528101611beb81613017565b60208082528101611beb8161305a565b60208082528101611beb81613094565b60208082528101611beb81613105565b60208082528101611beb8161314b565b60208082528101611beb8161318c565b60208082528101611beb816131d0565b60208082528101611beb81613214565b60208082528101611beb81613259565b60208082528101611beb816132c6565b60208082528101611beb81613317565b60208082528101611beb81613356565b60208082528101611beb816133c2565b60208082528101611beb81613409565b60208082528101611beb81613456565b60208082528101611beb816134c2565b60208082528101611beb8161355a565b60208082528101611beb816135ac565b60208082528101611beb816135fa565b60208082528101611beb8161364a565b60208082528101611beb8161369b565b60208082528101611beb816136e5565b60208082528101611beb81613742565b60208082528101611beb81613783565b60208082528101611beb816137ec565b60208082528101611beb81613832565b60208082528101611beb81613891565b60208082528101611beb816138e9565b60208082528101611beb81613929565b60208082528101611beb81613974565b60208082528101611beb816139b4565b60608101611beb82846139e5565b6101208101613ee2828c612d22565b613eef602083018b612b8b565b8181036040830152613f01818a612ba3565b90508181036060830152613f158189612ccb565b90508181036080830152613f298188612c6a565b905081810360a0830152613f3d8187612bfc565b9050613f4c60c0830186612d22565b613f5960e0830185612d22565b818103610100830152613f6c8184612d3c565b9b9a5050505050505050505050565b6101408101613f8a828d612d22565b613f97602083018c612b9a565b613fa4604083018b612d22565b613fb1606083018a612d22565b613fbe6080830189612d22565b613fcb60a0830188612d22565b613fd860c0830187612d22565b613fe560e0830186612d22565b613ff3610100830185612d19565b613f6c610120830184612d19565b60408101613a9a8285612d22565b6080810161401d8288612d22565b61402a6020830187613a1c565b6140376040830186613a25565b818103606083015261404a818486612e10565b979650505050505050565b608081016140638286612d22565b6140706020830185613a1c565b61407d6040830184613a25565b81810360608301526118f3816137df565b6040518181016001600160401b03811182821017156140ac57600080fd5b604052919050565b60006001600160401b038211156140ca57600080fd5b5060209081020190565b60006001600160401b038211156140ea57600080fd5b506020601f91909101601f19160190565b60200190565b60009081526020902090565b5190565b90815260200190565b6000611beb82614134565b151590565b80610ef1816141bc565b6001600160a01b031690565b60ff1690565b6001600160601b031690565b6000611beb825b6000611beb8261411a565b6000611beb8261412a565b6000611beb82614146565b82818337506000910152565b60005b838110156141a1578181015183820152602001614189565b838111156112905750506000910152565b601f01601f191690565b6008811061255c57fe5b6141cf8161411a565b811461255c57600080fd5b6141cf81614125565b6141cf81611e92565b6141cf81614140565b6141cf8161414656fe476f7665726e6f72427261766f3a3a5f73657450726f706f73616c5468726573476f7665726e6f72427261766f3a3a63617374566f7465496e7465726e616c3a476f7665726e6f72427261766f3a3a696e697469616c697a653a20696e76616c476f7665726e6f72427261766f3a3a70726f706f73653a206f6e65206c6976652070726f706f73616c207065722070726f706f7365722c20666f756e6420616eca4f2f25d0898edd99413412fb94012f9e54ec8142f9b093e7720646a95b16a9476f7665726e6f72427261766f3a3a5f736574566f74696e6744656c61793a20476f7665726e6f72427261766f3a3a5f736574566f74696e67506572696f643ab8e138887d0aa13bab447e82de9d5c1777041ecd21ca36ba824ff1e6c07ddda4a365627a7a723158201d141b63400ab9b011eebb38c6cad31439a936c3c649cddec5b9eb8c18c2e26c6c6578706572696d656e74616cf564736f6c63430005100040",
  "source": "pragma solidity ^0.5.16;\npragma experimental ABIEncoderV2;\n\nimport \"./GovernorBravoInterfaces.sol\";\n\ncontract GovernorBravoDelegate is GovernorBravoDelegateStorageV1, GovernorBravoEvents {\n\n    /// @notice The name of this contract\n    string public constant name = \"Boba Governor Bravo\";\n\n    /// @notice The minimum setable proposal threshold\n    uint public constant MIN_PROPOSAL_THRESHOLD = 50000e18; // 50,000 CTokens\n\n    /// @notice The maximum setable proposal threshold\n    uint public constant MAX_PROPOSAL_THRESHOLD = 100000e18; //100,000 CTokens\n\n    /// @notice The minimum setable voting period\n    uint public constant MIN_VOTING_PERIOD = 2; // 2 minutes\n\n    /// @notice The max setable voting period\n    uint public constant MAX_VOTING_PERIOD = 80640; // About 2 weeks\n\n    /// @notice The min setable voting delay\n    uint public constant MIN_VOTING_DELAY = 1;\n\n    /// @notice The max setable voting delay\n    uint public constant MAX_VOTING_DELAY = 40320; // About 1 week\n\n    /// @notice The number of votes in support of a proposal required for a quorum to be reached and for a vote to succeed\n    uint public constant quorumVotes = 400000e18; // 400,000 = 4% of CToken\n\n    /// @notice The maximum number of actions that can be included in a proposal\n    uint public constant proposalMaxOperations = 10; // 10 actions\n\n    /// @notice The EIP-712 typehash for the contract's domain\n    bytes32 public constant DOMAIN_TYPEHASH = keccak256(\"EIP712Domain(string name,uint256 chainId,address verifyingContract)\");\n\n    /// @notice The EIP-712 typehash for the ballot struct used by the contract\n    bytes32 public constant BALLOT_TYPEHASH = keccak256(\"Ballot(uint256 proposalId,uint8 support)\");\n\n    /**\n      * @notice Used to initialize the contract during delegator contructor\n      * @param timelock_ The address of the Timelock\n      * @param ctoken_ The address of the CToken\n      * @param votingPeriod_ The initial voting period\n      * @param votingDelay_ The initial voting delay\n      * @param proposalThreshold_ The initial proposal threshold\n      */\n    function initialize(address timelock_, address ctoken_, uint votingPeriod_, uint votingDelay_, uint proposalThreshold_) public {\n        require(address(timelock) == address(0), \"GovernorBravo::initialize: can only initialize once\");\n        require(msg.sender == admin, \"GovernorBravo::initialize: admin only\");\n        require(timelock_ != address(0), \"GovernorBravo::initialize: invalid timelock address\");\n        require(ctoken_ != address(0), \"GovernorBravo::initialize: invalid CToken address\");\n        require(votingPeriod_ >= MIN_VOTING_PERIOD && votingPeriod_ <= MAX_VOTING_PERIOD, \"GovernorBravo::initialize: invalid voting period\");\n        require(votingDelay_ >= MIN_VOTING_DELAY && votingDelay_ <= MAX_VOTING_DELAY, \"GovernorBravo::initialize: invalid voting delay\");\n        require(proposalThreshold_ >= MIN_PROPOSAL_THRESHOLD && proposalThreshold_ <= MAX_PROPOSAL_THRESHOLD, \"GovernorBravo::initialize: invalid proposal threshold\");\n\n        timelock = TimelockInterface(timelock_);\n        ctoken = CTokenInterface(ctoken_);\n        votingPeriod = votingPeriod_;\n        votingDelay = votingDelay_;\n        proposalThreshold = proposalThreshold_;\n    }\n\n    /**\n      * @notice Function used to propose a new proposal. Sender must have delegates above the proposal threshold\n      * @param targets Target addresses for proposal calls\n      * @param values Eth values for proposal calls\n      * @param signatures Function signatures for proposal calls\n      * @param calldatas Calldatas for proposal calls\n      * @param description String description of the proposal\n      * @return Proposal id of new proposal\n      */\n    function propose(address[] memory targets, uint[] memory values, string[] memory signatures, bytes[] memory calldatas, string memory description) public returns (uint) {\n        // Reject proposals before initiating as Governor\n        require(initialProposalId != 0, \"GovernorBravo::propose: Governor Bravo not active\");\n        require(ctoken.getPriorVotes(msg.sender, sub256(block.number, 1)) > proposalThreshold, \"GovernorBravo::propose: proposer votes below proposal threshold\");\n        require(targets.length == values.length && targets.length == signatures.length && targets.length == calldatas.length, \"GovernorBravo::propose: proposal function information arity mismatch\");\n        require(targets.length != 0, \"GovernorBravo::propose: must provide actions\");\n        require(targets.length <= proposalMaxOperations, \"GovernorBravo::propose: too many actions\");\n\n        uint latestProposalId = latestProposalIds[msg.sender];\n        if (latestProposalId != 0) {\n          ProposalState proposersLatestProposalState = state(latestProposalId);\n          require(proposersLatestProposalState != ProposalState.Active, \"GovernorBravo::propose: one live proposal per proposer, found an already active proposal\");\n          require(proposersLatestProposalState != ProposalState.Pending, \"GovernorBravo::propose: one live proposal per proposer, found an already pending proposal\");\n        }\n\n        uint startBlock = add256(block.number, votingDelay);\n        uint endBlock = add256(startBlock, votingPeriod);\n\n        proposalCount++;\n        Proposal memory newProposal = Proposal({\n            id: proposalCount,\n            proposer: msg.sender,\n            eta: 0,\n            targets: targets,\n            values: values,\n            signatures: signatures,\n            calldatas: calldatas,\n            startBlock: startBlock,\n            endBlock: endBlock,\n            forVotes: 0,\n            againstVotes: 0,\n            abstainVotes: 0,\n            canceled: false,\n            executed: false\n        });\n\n        proposals[newProposal.id] = newProposal;\n        latestProposalIds[newProposal.proposer] = newProposal.id;\n\n        emit ProposalCreated(newProposal.id, msg.sender, targets, values, signatures, calldatas, startBlock, endBlock, description);\n        return newProposal.id;\n    }\n\n    /**\n      * @notice Queues a proposal of state succeeded\n      * @param proposalId The id of the proposal to queue\n      */\n    function queue(uint proposalId) external {\n        require(state(proposalId) == ProposalState.Succeeded, \"GovernorBravo::queue: proposal can only be queued if it is succeeded\");\n        Proposal storage proposal = proposals[proposalId];\n        uint eta = add256(block.timestamp, timelock.delay());\n        for (uint i = 0; i < proposal.targets.length; i++) {\n            queueOrRevertInternal(proposal.targets[i], proposal.values[i], proposal.signatures[i], proposal.calldatas[i], eta);\n        }\n        proposal.eta = eta;\n        emit ProposalQueued(proposalId, eta);\n    }\n\n    function queueOrRevertInternal(address target, uint value, string memory signature, bytes memory data, uint eta) internal {\n        require(!timelock.queuedTransactions(keccak256(abi.encode(target, value, signature, data, eta))), \"GovernorBravo::queueOrRevertInternal: identical proposal action already queued at eta\");\n        timelock.queueTransaction(target, value, signature, data, eta);\n    }\n\n    /**\n      * @notice Executes a queued proposal if eta has passed\n      * @param proposalId The id of the proposal to execute\n      */\n    function execute(uint proposalId) external payable {\n        require(state(proposalId) == ProposalState.Queued, \"GovernorBravo::execute: proposal can only be executed if it is queued\");\n        Proposal storage proposal = proposals[proposalId];\n        proposal.executed = true;\n        for (uint i = 0; i < proposal.targets.length; i++) {\n            timelock.executeTransaction.value(proposal.values[i])(proposal.targets[i], proposal.values[i], proposal.signatures[i], proposal.calldatas[i], proposal.eta);\n        }\n        emit ProposalExecuted(proposalId);\n    }\n\n    /**\n      * @notice Cancels a proposal only if sender is the proposer, or proposer delegates dropped below proposal threshold\n      * @param proposalId The id of the proposal to cancel\n      */\n    function cancel(uint proposalId) external {\n        require(state(proposalId) != ProposalState.Executed, \"GovernorBravo::cancel: cannot cancel executed proposal\");\n\n        Proposal storage proposal = proposals[proposalId];\n        require(msg.sender == proposal.proposer || ctoken.getPriorVotes(proposal.proposer, sub256(block.number, 1)) < proposalThreshold, \"GovernorBravo::cancel: proposer above threshold\");\n\n        proposal.canceled = true;\n        for (uint i = 0; i < proposal.targets.length; i++) {\n            timelock.cancelTransaction(proposal.targets[i], proposal.values[i], proposal.signatures[i], proposal.calldatas[i], proposal.eta);\n        }\n\n        emit ProposalCanceled(proposalId);\n    }\n\n    /**\n      * @notice Gets actions of a proposal\n      * @param proposalId the id of the proposal\n      * @return Targets, values, signatures, and calldatas of the proposal actions\n      */\n    function getActions(uint proposalId) external view returns (address[] memory targets, uint[] memory values, string[] memory signatures, bytes[] memory calldatas) {\n        Proposal storage p = proposals[proposalId];\n        return (p.targets, p.values, p.signatures, p.calldatas);\n    }\n\n    /**\n      * @notice Gets the receipt for a voter on a given proposal\n      * @param proposalId the id of proposal\n      * @param voter The address of the voter\n      * @return The voting receipt\n      */\n    function getReceipt(uint proposalId, address voter) external view returns (Receipt memory) {\n        return proposals[proposalId].receipts[voter];\n    }\n\n    /**\n      * @notice Gets the state of a proposal\n      * @param proposalId The id of the proposal\n      * @return Proposal state\n      */\n    function state(uint proposalId) public view returns (ProposalState) {\n        require(proposalCount >= proposalId && proposalId > initialProposalId, \"GovernorBravo::state: invalid proposal id\");\n        Proposal storage proposal = proposals[proposalId];\n        if (proposal.canceled) {\n            return ProposalState.Canceled;\n        } else if (block.number <= proposal.startBlock) {\n            return ProposalState.Pending;\n        } else if (block.number <= proposal.endBlock) {\n            return ProposalState.Active;\n        } else if (proposal.forVotes <= proposal.againstVotes || proposal.forVotes < quorumVotes) {\n            return ProposalState.Defeated;\n        } else if (proposal.eta == 0) {\n            return ProposalState.Succeeded;\n        } else if (proposal.executed) {\n            return ProposalState.Executed;\n        } else if (block.timestamp >= add256(proposal.eta, timelock.GRACE_PERIOD())) {\n            return ProposalState.Expired;\n        } else {\n            return ProposalState.Queued;\n        }\n    }\n\n    /**\n      * @notice Cast a vote for a proposal\n      * @param proposalId The id of the proposal to vote on\n      * @param support The support value for the vote. 0=against, 1=for, 2=abstain\n      */\n    function castVote(uint proposalId, uint8 support) external {\n        emit VoteCast(msg.sender, proposalId, support, castVoteInternal(msg.sender, proposalId, support), \"\");\n    }\n\n    /**\n      * @notice Cast a vote for a proposal with a reason\n      * @param proposalId The id of the proposal to vote on\n      * @param support The support value for the vote. 0=against, 1=for, 2=abstain\n      * @param reason The reason given for the vote by the voter\n      */\n    function castVoteWithReason(uint proposalId, uint8 support, string calldata reason) external {\n        emit VoteCast(msg.sender, proposalId, support, castVoteInternal(msg.sender, proposalId, support), reason);\n    }\n\n    /**\n      * @notice Cast a vote for a proposal by signature\n      * @dev External function that accepts EIP-712 signatures for voting on proposals.\n      */\n    function castVoteBySig(uint proposalId, uint8 support, uint8 v, bytes32 r, bytes32 s) external {\n        bytes32 domainSeparator = keccak256(abi.encode(DOMAIN_TYPEHASH, keccak256(bytes(name)), getChainIdInternal(), address(this)));\n        bytes32 structHash = keccak256(abi.encode(BALLOT_TYPEHASH, proposalId, support));\n        bytes32 digest = keccak256(abi.encodePacked(\"\\x19\\x01\", domainSeparator, structHash));\n        address signatory = ecrecover(digest, v, r, s);\n        require(signatory != address(0), \"GovernorBravo::castVoteBySig: invalid signature\");\n        emit VoteCast(signatory, proposalId, support, castVoteInternal(signatory, proposalId, support), \"\");\n    }\n\n    /**\n      * @notice Internal function that caries out voting logic\n      * @param voter The voter that is casting their vote\n      * @param proposalId The id of the proposal to vote on\n      * @param support The support value for the vote. 0=against, 1=for, 2=abstain\n      * @return The number of votes cast\n      */\n    function castVoteInternal(address voter, uint proposalId, uint8 support) internal returns (uint96) {\n        require(state(proposalId) == ProposalState.Active, \"GovernorBravo::castVoteInternal: voting is closed\");\n        require(support <= 2, \"GovernorBravo::castVoteInternal: invalid vote type\");\n        Proposal storage proposal = proposals[proposalId];\n        Receipt storage receipt = proposal.receipts[voter];\n        require(receipt.hasVoted == false, \"GovernorBravo::castVoteInternal: voter already voted\");\n        uint96 votes = ctoken.getPriorVotes(voter, proposal.startBlock);\n\n        if (support == 0) {\n            proposal.againstVotes = add256(proposal.againstVotes, votes);\n        } else if (support == 1) {\n            proposal.forVotes = add256(proposal.forVotes, votes);\n        } else if (support == 2) {\n            proposal.abstainVotes = add256(proposal.abstainVotes, votes);\n        }\n\n        receipt.hasVoted = true;\n        receipt.support = support;\n        receipt.votes = votes;\n\n        return votes;\n    }\n\n    /**\n      * @notice Admin function for setting the voting delay\n      * @param newVotingDelay new voting delay, in blocks\n      */\n    function _setVotingDelay(uint newVotingDelay) external {\n        require(msg.sender == admin, \"GovernorBravo::_setVotingDelay: admin only\");\n        require(newVotingDelay >= MIN_VOTING_DELAY && newVotingDelay <= MAX_VOTING_DELAY, \"GovernorBravo::_setVotingDelay: invalid voting delay\");\n        uint oldVotingDelay = votingDelay;\n        votingDelay = newVotingDelay;\n\n        emit VotingDelaySet(oldVotingDelay,votingDelay);\n    }\n\n    /**\n      * @notice Admin function for setting the voting period\n      * @param newVotingPeriod new voting period, in blocks\n      */\n    function _setVotingPeriod(uint newVotingPeriod) external {\n        require(msg.sender == admin, \"GovernorBravo::_setVotingPeriod: admin only\");\n        require(newVotingPeriod >= MIN_VOTING_PERIOD && newVotingPeriod <= MAX_VOTING_PERIOD, \"GovernorBravo::_setVotingPeriod: invalid voting period\");\n        uint oldVotingPeriod = votingPeriod;\n        votingPeriod = newVotingPeriod;\n\n        emit VotingPeriodSet(oldVotingPeriod, votingPeriod);\n    }\n\n    /**\n      * @notice Admin function for setting the proposal threshold\n      * @dev newProposalThreshold must be greater than the hardcoded min\n      * @param newProposalThreshold new proposal threshold\n      */\n    function _setProposalThreshold(uint newProposalThreshold) external {\n        require(msg.sender == admin, \"GovernorBravo::_setProposalThreshold: admin only\");\n        require(newProposalThreshold >= MIN_PROPOSAL_THRESHOLD && newProposalThreshold <= MAX_PROPOSAL_THRESHOLD, \"GovernorBravo::_setProposalThreshold: invalid proposal threshold\");\n        uint oldProposalThreshold = proposalThreshold;\n        proposalThreshold = newProposalThreshold;\n\n        emit ProposalThresholdSet(oldProposalThreshold, proposalThreshold);\n    }\n\n    /**\n      * @notice Initiate the GovernorBravo contract\n      * @dev Admin only. Sets initial proposal id which initiates the contract, ensuring a continuous proposal id count\n      */\n    function _initiate() external {\n        require(msg.sender == admin, \"GovernorBravo::_initiate: admin only\");\n        require(initialProposalId == 0, \"GovernorBravo::_initiate: can only initiate once\");\n        proposalCount = 1;\n        initialProposalId = proposalCount;\n        timelock.acceptAdmin();\n    }\n\n    /**\n      * @notice Begins transfer of admin rights. The newPendingAdmin must call `_acceptAdmin` to finalize the transfer.\n      * @dev Admin function to begin change of admin. The newPendingAdmin must call `_acceptAdmin` to finalize the transfer.\n      * @param newPendingAdmin New pending admin.\n      */\n    function _setPendingAdmin(address newPendingAdmin) external {\n        // Check caller = admin\n        require(msg.sender == admin, \"GovernorBravo:_setPendingAdmin: admin only\");\n\n        // Save current value, if any, for inclusion in log\n        address oldPendingAdmin = pendingAdmin;\n\n        // Store pendingAdmin with value newPendingAdmin\n        pendingAdmin = newPendingAdmin;\n\n        // Emit NewPendingAdmin(oldPendingAdmin, newPendingAdmin)\n        emit NewPendingAdmin(oldPendingAdmin, newPendingAdmin);\n    }\n\n    /**\n      * @notice Accepts transfer of admin rights. msg.sender must be pendingAdmin\n      * @dev Admin function for pending admin to accept role and update admin\n      */\n    function _acceptAdmin() external {\n        // Check caller is pendingAdmin and pendingAdmin  address(0)\n        require(msg.sender == pendingAdmin && msg.sender != address(0), \"GovernorBravo:_acceptAdmin: pending admin only\");\n\n        // Save current values for inclusion in log\n        address oldAdmin = admin;\n        address oldPendingAdmin = pendingAdmin;\n\n        // Store admin with value pendingAdmin\n        admin = pendingAdmin;\n\n        // Clear the pending value\n        pendingAdmin = address(0);\n\n        emit NewAdmin(oldAdmin, admin);\n        emit NewPendingAdmin(oldPendingAdmin, pendingAdmin);\n    }\n\n    function add256(uint256 a, uint256 b) internal pure returns (uint) {\n        uint c = a + b;\n        require(c >= a, \"addition overflow\");\n        return c;\n    }\n\n    function sub256(uint256 a, uint256 b) internal pure returns (uint) {\n        require(b <= a, \"subtraction underflow\");\n        return a - b;\n    }\n\n    function getChainIdInternal() internal pure returns (uint) {\n        uint chainId;\n        assembly { chainId := chainid() }\n        return chainId;\n    }\n}",
  "sourcePath": "/Users/janliphardt/Documents/GitHub/optimism/omgx_examples/compound-simple/contracts/GovernorBravoDelegate.sol",
  "compiler": {
    "name": "solc",
    "version": "0.5.16+commit.9c3226ce.Emscripten.clang"
  },
  "schemaVersion": "3.4.3",
  "updatedAt": "2021-08-31T01:15:26.669Z",
  "networkType": "ethereum",
  "devdoc": {
    "methods": {
      "_acceptAdmin()": {
        "details": "Admin function for pending admin to accept role and update admin"
      },
      "_initiate()": {
        "details": "Admin only. Sets initial proposal id which initiates the contract, ensuring a continuous proposal id count"
      },
      "_setPendingAdmin(address)": {
        "details": "Admin function to begin change of admin. The newPendingAdmin must call `_acceptAdmin` to finalize the transfer.",
        "params": {
          "newPendingAdmin": "New pending admin."
        }
      },
      "_setProposalThreshold(uint256)": {
        "details": "newProposalThreshold must be greater than the hardcoded min",
        "params": {
          "newProposalThreshold": "new proposal threshold"
        }
      },
      "_setVotingDelay(uint256)": {
        "params": {
          "newVotingDelay": "new voting delay, in blocks"
        }
      },
      "_setVotingPeriod(uint256)": {
        "params": {
          "newVotingPeriod": "new voting period, in blocks"
        }
      },
      "cancel(uint256)": {
        "params": {
          "proposalId": "The id of the proposal to cancel"
        }
      },
      "castVote(uint256,uint8)": {
        "params": {
          "proposalId": "The id of the proposal to vote on",
          "support": "The support value for the vote. 0=against, 1=for, 2=abstain"
        }
      },
      "castVoteBySig(uint256,uint8,uint8,bytes32,bytes32)": {
        "details": "External function that accepts EIP-712 signatures for voting on proposals."
      },
      "castVoteWithReason(uint256,uint8,string)": {
        "params": {
          "proposalId": "The id of the proposal to vote on",
          "reason": "The reason given for the vote by the voter",
          "support": "The support value for the vote. 0=against, 1=for, 2=abstain"
        }
      },
      "execute(uint256)": {
        "params": {
          "proposalId": "The id of the proposal to execute"
        }
      },
      "getActions(uint256)": {
        "params": {
          "proposalId": "the id of the proposal"
        },
        "return": "Targets, values, signatures, and calldatas of the proposal actions"
      },
      "getReceipt(uint256,address)": {
        "params": {
          "proposalId": "the id of proposal",
          "voter": "The address of the voter"
        },
        "return": "The voting receipt"
      },
      "initialize(address,address,uint256,uint256,uint256)": {
        "params": {
          "ctoken_": "The address of the CToken",
          "proposalThreshold_": "The initial proposal threshold",
          "timelock_": "The address of the Timelock",
          "votingDelay_": "The initial voting delay",
          "votingPeriod_": "The initial voting period"
        }
      },
      "propose(address[],uint256[],string[],bytes[],string)": {
        "params": {
          "calldatas": "Calldatas for proposal calls",
          "description": "String description of the proposal",
          "signatures": "Function signatures for proposal calls",
          "targets": "Target addresses for proposal calls",
          "values": "Eth values for proposal calls"
        },
        "return": "Proposal id of new proposal"
      },
      "queue(uint256)": {
        "params": {
          "proposalId": "The id of the proposal to queue"
        }
      },
      "state(uint256)": {
        "params": {
          "proposalId": "The id of the proposal"
        },
        "return": "Proposal state"
      }
    }
  },
  "userdoc": {
    "methods": {
      "_acceptAdmin()": {
        "notice": "Accepts transfer of admin rights. msg.sender must be pendingAdmin"
      },
      "_initiate()": {
        "notice": "Initiate the GovernorBravo contract"
      },
      "_setPendingAdmin(address)": {
        "notice": "Begins transfer of admin rights. The newPendingAdmin must call `_acceptAdmin` to finalize the transfer."
      },
      "_setProposalThreshold(uint256)": {
        "notice": "Admin function for setting the proposal threshold"
      },
      "_setVotingDelay(uint256)": {
        "notice": "Admin function for setting the voting delay"
      },
      "_setVotingPeriod(uint256)": {
        "notice": "Admin function for setting the voting period"
      },
      "cancel(uint256)": {
        "notice": "Cancels a proposal only if sender is the proposer, or proposer delegates dropped below proposal threshold"
      },
      "castVote(uint256,uint8)": {
        "notice": "Cast a vote for a proposal"
      },
      "castVoteBySig(uint256,uint8,uint8,bytes32,bytes32)": {
        "notice": "Cast a vote for a proposal by signature"
      },
      "castVoteWithReason(uint256,uint8,string)": {
        "notice": "Cast a vote for a proposal with a reason"
      },
      "execute(uint256)": {
        "notice": "Executes a queued proposal if eta has passed"
      },
      "getActions(uint256)": {
        "notice": "Gets actions of a proposal"
      },
      "getReceipt(uint256,address)": {
        "notice": "Gets the receipt for a voter on a given proposal"
      },
      "initialize(address,address,uint256,uint256,uint256)": {
        "notice": "Used to initialize the contract during delegator contructor"
      },
      "propose(address[],uint256[],string[],bytes[],string)": {
        "notice": "Function used to propose a new proposal. Sender must have delegates above the proposal threshold"
      },
      "queue(uint256)": {
        "notice": "Queues a proposal of state succeeded"
      },
      "state(uint256)": {
        "notice": "Gets the state of a proposal"
      }
    }
  }
}