{
  "_format": "hh-sol-artifact-1",
  "contractName": "OVM_L2StandardBridge",
  "sourceName": "contracts/optimistic-ethereum/OVM/bridge/tokens/OVM_L2StandardBridge.sol",
  "abi": [
    {
      "inputs": [
        {
          "internalType": "address",
          "name": "_l2CrossDomainMessenger",
          "type": "address"
        },
        {
          "internalType": "address",
          "name": "_l1TokenBridge",
          "type": "address"
        }
      ],
      "stateMutability": "nonpayable",
      "type": "constructor"
    },
    {
      "anonymous": false,
      "inputs": [
        {
          "indexed": true,
          "internalType": "address",
          "name": "_l1Token",
          "type": "address"
        },
        {
          "indexed": true,
          "internalType": "address",
          "name": "_l2Token",
          "type": "address"
        },
        {
          "indexed": true,
          "internalType": "address",
          "name": "_from",
          "type": "address"
        },
        {
          "indexed": false,
          "internalType": "address",
          "name": "_to",
          "type": "address"
        },
        {
          "indexed": false,
          "internalType": "uint256",
          "name": "_amount",
          "type": "uint256"
        },
        {
          "indexed": false,
          "internalType": "bytes",
          "name": "_data",
          "type": "bytes"
        }
      ],
      "name": "DepositFailed",
      "type": "event"
    },
    {
      "anonymous": false,
      "inputs": [
        {
          "indexed": true,
          "internalType": "address",
          "name": "_l1Token",
          "type": "address"
        },
        {
          "indexed": true,
          "internalType": "address",
          "name": "_l2Token",
          "type": "address"
        },
        {
          "indexed": true,
          "internalType": "address",
          "name": "_from",
          "type": "address"
        },
        {
          "indexed": false,
          "internalType": "address",
          "name": "_to",
          "type": "address"
        },
        {
          "indexed": false,
          "internalType": "uint256",
          "name": "_amount",
          "type": "uint256"
        },
        {
          "indexed": false,
          "internalType": "bytes",
          "name": "_data",
          "type": "bytes"
        }
      ],
      "name": "DepositFinalized",
      "type": "event"
    },
    {
      "anonymous": false,
      "inputs": [
        {
          "indexed": true,
          "internalType": "address",
          "name": "_l1Token",
          "type": "address"
        },
        {
          "indexed": true,
          "internalType": "address",
          "name": "_l2Token",
          "type": "address"
        },
        {
          "indexed": true,
          "internalType": "address",
          "name": "_from",
          "type": "address"
        },
        {
          "indexed": false,
          "internalType": "address",
          "name": "_to",
          "type": "address"
        },
        {
          "indexed": false,
          "internalType": "uint256",
          "name": "_amount",
          "type": "uint256"
        },
        {
          "indexed": false,
          "internalType": "bytes",
          "name": "_data",
          "type": "bytes"
        }
      ],
      "name": "WithdrawalInitiated",
      "type": "event"
    },
    {
      "inputs": [
        {
          "internalType": "address",
          "name": "_l1Token",
          "type": "address"
        },
        {
          "internalType": "address",
          "name": "_l2Token",
          "type": "address"
        },
        {
          "internalType": "address",
          "name": "_from",
          "type": "address"
        },
        {
          "internalType": "address",
          "name": "_to",
          "type": "address"
        },
        {
          "internalType": "uint256",
          "name": "_amount",
          "type": "uint256"
        },
        {
          "internalType": "bytes",
          "name": "_data",
          "type": "bytes"
        }
      ],
      "name": "finalizeDeposit",
      "outputs": [],
      "stateMutability": "nonpayable",
      "type": "function"
    },
    {
      "inputs": [],
      "name": "l1TokenBridge",
      "outputs": [
        {
          "internalType": "address",
          "name": "",
          "type": "address"
        }
      ],
      "stateMutability": "view",
      "type": "function"
    },
    {
      "inputs": [],
      "name": "messenger",
      "outputs": [
        {
          "internalType": "address",
          "name": "",
          "type": "address"
        }
      ],
      "stateMutability": "view",
      "type": "function"
    },
    {
      "inputs": [
        {
          "internalType": "address",
          "name": "_l2Token",
          "type": "address"
        },
        {
          "internalType": "uint256",
          "name": "_amount",
          "type": "uint256"
        },
        {
          "internalType": "uint32",
          "name": "_l1Gas",
          "type": "uint32"
        },
        {
          "internalType": "bytes",
          "name": "_data",
          "type": "bytes"
        }
      ],
      "name": "withdraw",
      "outputs": [],
      "stateMutability": "nonpayable",
      "type": "function"
    },
    {
      "inputs": [
        {
          "internalType": "address",
          "name": "_l2Token",
          "type": "address"
        },
        {
          "internalType": "address",
          "name": "_to",
          "type": "address"
        },
        {
          "internalType": "uint256",
          "name": "_amount",
          "type": "uint256"
        },
        {
          "internalType": "uint32",
          "name": "_l1Gas",
          "type": "uint32"
        },
        {
          "internalType": "bytes",
          "name": "_data",
          "type": "bytes"
        }
      ],
      "name": "withdrawTo",
      "outputs": [],
      "stateMutability": "nonpayable",
      "type": "function"
    }
  ],
  "bytecode": "0x608060405234801561001057600080fd5b50604051610d9b380380610d9b83398101604081905261002f9161007c565b600080546001600160a01b039384166001600160a01b031991821617909155600180549290931691161790556100ae565b80516001600160a01b038116811461007757600080fd5b919050565b6000806040838503121561008e578182fd5b61009783610060565b91506100a560208401610060565b90509250929050565b610cde806100bd6000396000f3fe608060405234801561001057600080fd5b50600436106100575760003560e01c806332b7006d1461005c57806336c717c1146100715780633cb747bf1461008f578063662a633a14610097578063a3a79548146100aa575b600080fd5b61006f61006a366004610aaa565b6100bd565b005b6100796100d3565b6040516100869190610b43565b60405180910390f35b6100796100e2565b61006f6100a5366004610993565b6100f1565b61006f6100b8366004610a29565b61044f565b6100cc85333387878787610466565b5050505050565b6001546001600160a01b031681565b6000546001600160a01b031681565b6001546001600160a01b0316610105610677565b6001600160a01b0316336001600160a01b0316146101545760405162461bcd60e51b815260040180806020018281038252602e815260200180610c4b602e913960400191505060405180910390fd5b806001600160a01b0316610166610677565b6001600160a01b0316636e296e456040518163ffffffff1660e01b815260040160206040518083038186803b15801561019e57600080fd5b505afa1580156101b2573d6000803e3d6000fd5b505050506040513d60208110156101c857600080fd5b50516001600160a01b03161461020f5760405162461bcd60e51b8152600401808060200182810382526030815260200180610c796030913960400191505060405180910390fd5b61022087631d1d8b6360e01b610686565b80156102af5750866001600160a01b031663c01e1bd66040518163ffffffff1660e01b8152600401602060405180830381600087803b15801561026257600080fd5b505af1158015610276573d6000803e3d6000fd5b505050506040513d601f19601f8201168201806040525081019061029a9190610977565b6001600160a01b0316886001600160a01b0316145b15610374576040516340c10f1960e01b81526001600160a01b038816906340c10f19906102e29088908890600401610b57565b600060405180830381600087803b1580156102fc57600080fd5b505af1158015610310573d6000803e3d6000fd5b50505050856001600160a01b0316876001600160a01b0316896001600160a01b03167fb0444523268717a02698be47d0803aa7468c00acbed2f8bd93a0459cde61dd89888888886040516103679493929190610c00565b60405180910390a4610445565b600063a9f9e67560e01b8989888a89898960405160240161039b9796959493929190610b70565b60408051601f198184030181529190526020810180516001600160e01b03166001600160e01b0319909316929092179091526001549091506103e8906001600160a01b03166000836106a9565b866001600160a01b0316886001600160a01b03168a6001600160a01b03167f7ea89a4591614515571c2b51f5ea06494056f261c10ab1ed8c03c7590d87bce08989898960405161043b9493929190610c00565b60405180910390a4505b5050505050505050565b61045e86338787878787610466565b505050505050565b604051632770a7eb60e21b81526001600160a01b03881690639dc29fac906104949033908890600401610b57565b600060405180830381600087803b1580156104ae57600080fd5b505af11580156104c2573d6000803e3d6000fd5b505050506000876001600160a01b031663c01e1bd66040518163ffffffff1660e01b8152600401602060405180830381600087803b15801561050357600080fd5b505af1158015610517573d6000803e3d6000fd5b505050506040513d601f19601f8201168201806040525081019061053b9190610977565b905060606001600160a01b0389166006602160991b0114156105b25760405163054cbb0d60e21b90610579908a908a908a9089908990602401610bc1565b60408051601f198184030181529190526020810180516001600160e01b03166001600160e01b031990931692909217909152905061060d565b60405163a9f9e67560e01b906105d89084908c908c908c908c908b908b90602401610b70565b60408051601f198184030181529190526020810180516001600160e01b03166001600160e01b03199093169290921790915290505b600154610624906001600160a01b031686836106a9565b336001600160a01b0316896001600160a01b0316836001600160a01b03167f73d170910aba9e6d50b102db522b1dbcd796216f5128b445aa2135272886497e8a8a898960405161043b9493929190610c00565b6000546001600160a01b031690565b600061069183610794565b80156106a257506106a283836107ca565b9392505050565b6106b1610677565b6001600160a01b0316633dbb202b8483856040518463ffffffff1660e01b815260040180846001600160a01b03168152602001806020018363ffffffff168152602001828103825284818151815260200191508051906020019080838360005b83811015610729578181015183820152602001610711565b50505050905090810190601f1680156107565780820380516001836020036101000a031916815260200191505b50945050505050600060405180830381600087803b15801561077757600080fd5b505af115801561078b573d6000803e3d6000fd5b50505050505050565b60006107a7826301ffc9a760e01b6107ca565b80156107c257506107c0826001600160e01b03196107ca565b155b90505b919050565b60008060006107d985856107f0565b915091508180156107e75750805b95945050505050565b604080516001600160e01b0319831660248083019190915282518083039091018152604490910182526020810180516001600160e01b03166301ffc9a760e01b17815291518151600093849392849283926001600160a01b038a169261753092879282918083835b602083106108775780518252601f199092019160209182019101610858565b6001836020036101000a0380198251168184511680821785525050505050509050019150506000604051808303818686fa925050503d80600081146108d8576040519150601f19603f3d011682016040523d82523d6000602084013e6108dd565b606091505b50915091506020815110156108fb576000809450945050505061091c565b8181806020019051602081101561091157600080fd5b505190955093505050505b9250929050565b60008083601f840112610934578182fd5b50813567ffffffffffffffff81111561094b578182fd5b60208301915083602082850101111561091c57600080fd5b803563ffffffff811681146107c557600080fd5b600060208284031215610988578081fd5b81516106a281610c32565b600080600080600080600060c0888a0312156109ad578283fd5b87356109b881610c32565b965060208801356109c881610c32565b955060408801356109d881610c32565b945060608801356109e881610c32565b93506080880135925060a088013567ffffffffffffffff811115610a0a578283fd5b610a168a828b01610923565b989b979a50959850939692959293505050565b60008060008060008060a08789031215610a41578182fd5b8635610a4c81610c32565b95506020870135610a5c81610c32565b945060408701359350610a7160608801610963565b9250608087013567ffffffffffffffff811115610a8c578283fd5b610a9889828a01610923565b979a9699509497509295939492505050565b600080600080600060808688031215610ac1578081fd5b8535610acc81610c32565b945060208601359350610ae160408701610963565b9250606086013567ffffffffffffffff811115610afc578182fd5b610b0888828901610923565b969995985093965092949392505050565b60008284528282602086013780602084860101526020601f19601f85011685010190509392505050565b6001600160a01b0391909116815260200190565b6001600160a01b03929092168252602082015260400190565b6001600160a01b03888116825287811660208301528681166040830152851660608201526080810184905260c060a08201819052600090610bb49083018486610b19565b9998505050505050505050565b6001600160a01b0386811682528516602082015260408101849052608060608201819052600090610bf59083018486610b19565b979650505050505050565b600060018060a01b038616825284602083015260606040830152610c28606083018486610b19565b9695505050505050565b6001600160a01b0381168114610c4757600080fd5b5056fe4f564d5f58434841494e3a206d657373656e67657220636f6e747261637420756e61757468656e746963617465644f564d5f58434841494e3a2077726f6e672073656e646572206f662063726f73732d646f6d61696e206d657373616765a26469706673582212204aee5cf728743c2a5751688c023b69a5aff87f0d1b8e724e24cddd829de7131664736f6c63430007060033",
  "linkReferences": {},
  "deployedLinkReferences": {}
}