{
  "contractName": "GovernorBravoDelegator",
  "abi": [
    {
      "inputs": [
        {
          "internalType": "address",
          "name": "timelock_",
          "type": "address"
        },
        {
          "internalType": "address",
          "name": "comp_",
          "type": "address"
        },
        {
          "internalType": "address",
          "name": "admin_",
          "type": "address"
        },
        {
          "internalType": "address",
          "name": "implementation_",
          "type": "address"
        },
        {
          "internalType": "uint256",
          "name": "votingPeriod_",
          "type": "uint256"
        },
        {
          "internalType": "uint256",
          "name": "votingDelay_",
          "type": "uint256"
        },
        {
          "internalType": "uint256",
          "name": "proposalThreshold_",
          "type": "uint256"
        }
      ],
      "payable": false,
      "stateMutability": "nonpayable",
      "type": "constructor"
    },
    {
      "anonymous": false,
      "inputs": [
        {
          "indexed": false,
          "internalType": "address",
          "name": "oldAdmin",
          "type": "address"
        },
        {
          "indexed": false,
          "internalType": "address",
          "name": "newAdmin",
          "type": "address"
        }
      ],
      "name": "NewAdmin",
      "type": "event"
    },
    {
      "anonymous": false,
      "inputs": [
        {
          "indexed": false,
          "internalType": "address",
          "name": "oldImplementation",
          "type": "address"
        },
        {
          "indexed": false,
          "internalType": "address",
          "name": "newImplementation",
          "type": "address"
        }
      ],
      "name": "NewImplementation",
      "type": "event"
    },
    {
      "anonymous": false,
      "inputs": [
        {
          "indexed": false,
          "internalType": "address",
          "name": "oldPendingAdmin",
          "type": "address"
        },
        {
          "indexed": false,
          "internalType": "address",
          "name": "newPendingAdmin",
          "type": "address"
        }
      ],
      "name": "NewPendingAdmin",
      "type": "event"
    },
    {
      "anonymous": false,
      "inputs": [
        {
          "indexed": false,
          "internalType": "uint256",
          "name": "id",
          "type": "uint256"
        }
      ],
      "name": "ProposalCanceled",
      "type": "event"
    },
    {
      "anonymous": false,
      "inputs": [
        {
          "indexed": false,
          "internalType": "uint256",
          "name": "id",
          "type": "uint256"
        },
        {
          "indexed": false,
          "internalType": "address",
          "name": "proposer",
          "type": "address"
        },
        {
          "indexed": false,
          "internalType": "address[]",
          "name": "targets",
          "type": "address[]"
        },
        {
          "indexed": false,
          "internalType": "uint256[]",
          "name": "values",
          "type": "uint256[]"
        },
        {
          "indexed": false,
          "internalType": "string[]",
          "name": "signatures",
          "type": "string[]"
        },
        {
          "indexed": false,
          "internalType": "bytes[]",
          "name": "calldatas",
          "type": "bytes[]"
        },
        {
          "indexed": false,
          "internalType": "uint256",
          "name": "startBlock",
          "type": "uint256"
        },
        {
          "indexed": false,
          "internalType": "uint256",
          "name": "endBlock",
          "type": "uint256"
        },
        {
          "indexed": false,
          "internalType": "string",
          "name": "description",
          "type": "string"
        }
      ],
      "name": "ProposalCreated",
      "type": "event"
    },
    {
      "anonymous": false,
      "inputs": [
        {
          "indexed": false,
          "internalType": "uint256",
          "name": "id",
          "type": "uint256"
        }
      ],
      "name": "ProposalExecuted",
      "type": "event"
    },
    {
      "anonymous": false,
      "inputs": [
        {
          "indexed": false,
          "internalType": "uint256",
          "name": "id",
          "type": "uint256"
        },
        {
          "indexed": false,
          "internalType": "uint256",
          "name": "eta",
          "type": "uint256"
        }
      ],
      "name": "ProposalQueued",
      "type": "event"
    },
    {
      "anonymous": false,
      "inputs": [
        {
          "indexed": false,
          "internalType": "uint256",
          "name": "oldProposalThreshold",
          "type": "uint256"
        },
        {
          "indexed": false,
          "internalType": "uint256",
          "name": "newProposalThreshold",
          "type": "uint256"
        }
      ],
      "name": "ProposalThresholdSet",
      "type": "event"
    },
    {
      "anonymous": false,
      "inputs": [
        {
          "indexed": true,
          "internalType": "address",
          "name": "voter",
          "type": "address"
        },
        {
          "indexed": false,
          "internalType": "uint256",
          "name": "proposalId",
          "type": "uint256"
        },
        {
          "indexed": false,
          "internalType": "uint8",
          "name": "support",
          "type": "uint8"
        },
        {
          "indexed": false,
          "internalType": "uint256",
          "name": "votes",
          "type": "uint256"
        },
        {
          "indexed": false,
          "internalType": "string",
          "name": "reason",
          "type": "string"
        }
      ],
      "name": "VoteCast",
      "type": "event"
    },
    {
      "anonymous": false,
      "inputs": [
        {
          "indexed": false,
          "internalType": "uint256",
          "name": "oldVotingDelay",
          "type": "uint256"
        },
        {
          "indexed": false,
          "internalType": "uint256",
          "name": "newVotingDelay",
          "type": "uint256"
        }
      ],
      "name": "VotingDelaySet",
      "type": "event"
    },
    {
      "anonymous": false,
      "inputs": [
        {
          "indexed": false,
          "internalType": "uint256",
          "name": "oldVotingPeriod",
          "type": "uint256"
        },
        {
          "indexed": false,
          "internalType": "uint256",
          "name": "newVotingPeriod",
          "type": "uint256"
        }
      ],
      "name": "VotingPeriodSet",
      "type": "event"
    },
    {
      "payable": true,
      "stateMutability": "payable",
      "type": "fallback"
    },
    {
      "constant": true,
      "inputs": [],
      "name": "admin",
      "outputs": [
        {
          "internalType": "address",
          "name": "",
          "type": "address"
        }
      ],
      "payable": false,
      "stateMutability": "view",
      "type": "function"
    },
    {
      "constant": true,
      "inputs": [],
      "name": "implementation",
      "outputs": [
        {
          "internalType": "address",
          "name": "",
          "type": "address"
        }
      ],
      "payable": false,
      "stateMutability": "view",
      "type": "function"
    },
    {
      "constant": true,
      "inputs": [],
      "name": "pendingAdmin",
      "outputs": [
        {
          "internalType": "address",
          "name": "",
          "type": "address"
        }
      ],
      "payable": false,
      "stateMutability": "view",
      "type": "function"
    },
    {
      "constant": false,
      "inputs": [
        {
          "internalType": "address",
          "name": "implementation_",
          "type": "address"
        }
      ],
      "name": "_setImplementation",
      "outputs": [],
      "payable": false,
      "stateMutability": "nonpayable",
      "type": "function"
    }
  ],
  "bytecode": "0x60806040523480156200001c576000806200001962000328565b50505b5060405162000feb38038062000feb8339810160408190526200003f91620005a7565b5a6200004a62000395565b600060018162000059620003f1565b816001600160a01b0302191690836001600160a01b03160217906200007d6200043e565b505050620000d7848888868686604051602401620000a095949392919062000795565b604051601f1981830301815260409190915263344fe42d60e21b6020820180516001600160e01b0390811690921790526200012f16565b620000eb846001600160e01b03620001c416565b846000600181620000fb620003f1565b816001600160a01b0302191690836001600160a01b03160217906200011f6200043e565b5050505050505050505062000898565b60006060836001600160a01b0316836040516200014d919062000761565b600060405180830381855a620001626200048d565b50505050509150503d806000811462000198576040513d603f01601f191681016040523d815291503d6000602084013e6200019d565b606091505b50915091506000821415620001be573d60208201620001bb62000328565b50505b50505050565b600080620001d1620003f1565b906101000a90046001600160a01b03166001600160a01b03165a620001f562000395565b6001600160a01b031614620002325760405162461bcd60e51b81526004016200021e90620007fd565b604051809103906200022f62000328565b50505b6001600160a01b0381166200026f5760405162461bcd60e51b81526004016200025b90620007eb565b604051809103906200026c62000328565b50505b60008060026200027e620003f1565b906101000a90046001600160a01b0316905081600260006101000a81620002a4620003f1565b816001600160a01b0302191690836001600160a01b0316021790620002c86200043e565b5050507fd604de94d45953f9138079ec1b82d533cb2160c906d1076d1f7ed54befbca97a816002600090620002fc620003f1565b906101000a90046001600160a01b03166040516200031c92919062000776565b60405180910390a15050565b632a2a7adb598160e01b8152600481016020815285602082015260005b868110156200036257808601518282016040015260200162000345565b506020828760640184336000905af158600e01573d6000803e3d6000fd5b3d6001141558600a015760016000f35b505050565b6373509064598160e01b8152602081600483336000905af158600e01573d6000803e3d6000fd5b3d6001141558600a015760016000f35b8051935060005b6040811015620003ec57600082820152602001620003d3565b505050565b6303daa959598160e01b8152836004820152602081602483336000905af158600e01573d6000803e3d6000fd5b3d6001141558600a015760016000f35b80516000825293506020620003d3565b6322bd64c0598160e01b8152836004820152846024820152600081604483336000905af158600e01573d6000803e3d6000fd5b3d6001141558600a015760016000f35b600081526020620003d3565b63ffe73914598160e01b8152620004c3565b8080831115620004ac5750815b92915050565b8080831015620004ac575090919050565b836004820152846024820152606060448201528660648201526084810160005b88811015620004fd578088015182820152602001620004e3565b506060828960a40184336000905af158600e01573d6000803e3d6000fd5b3d6001141558600a015760016000f35b815160408301513d6000853e8b8b82606087013350600060045af15059620005548d3d620004b2565b8c016200056281876200049f565b5b8281101562000579576000815260200162000563565b50929c50505050505050565b600081519050620004ac816200086b565b600081519050620004ac816200088d565b600080600080600080600060e0888a031215620005ce57600080620005cb62000328565b50505b6000620005dc8a8a62000585565b9750506020620005ef8a828b0162000585565b9650506040620006028a828b0162000585565b9550506060620006158a828b0162000585565b9450506080620006288a828b0162000596565b93505060a06200063b8a828b0162000596565b92505060c06200064e8a828b0162000596565b91505092959891949750929550565b620006688162000827565b82525050565b60006200067b826200080f565b62000687818562000819565b9350620006998185602086016200083c565b9290920192915050565b6000620006b2604a836200081e565b60008051602062000fcb83398151915281527f656d656e746174696f6e3a20696e76616c696420696d706c656d656e746174696020820152696f6e206164647265737360b01b604082015260600192915050565b6000620007156036836200081e565b60008051602062000fcb83398151915281527f656d656e746174696f6e3a2061646d696e206f6e6c7900000000000000000000602082015260400192915050565b620006688162000839565b60006200076f82846200066e565b9392505050565b604081016200078682856200065d565b6200076f60208301846200065d565b60a08101620007a582886200065d565b620007b460208301876200065d565b620007c3604083018662000756565b620007d2606083018562000756565b620007e1608083018462000756565b9695505050505050565b60208082528101620004ac81620006a3565b60208082528101620004ac8162000706565b6000815192915050565b919050565b90815260200190565b60006001600160a01b038216620004ac565b90565b60005b83811015620008595780820151838201526020016200083f565b83811115620001be5750506000910152565b620008768162000827565b81146200088a57600080620003ec62000328565b50565b620008768162000839565b61072380620008a86000396000f3fe60806040526004361061003f5760003560e01c806326782247146100ea5780635c60da1b1461011e578063bb913f411461013c578063f851a44014610167575b600080600261004c610303565b906101000a90046001600160a01b03166001600160a01b031660003660405161007692919061065d565b600060405180830381855a610089610363565b50505050509150503d80600081146100bd576040513d603f01601f191681016040523d815291503d6000602084013e6100c2565b606091505b505090506040513d6000823e8180156100d9573d82f35b3d826100e3610450565b5050505050005b3480156100ff576000806100fc610450565b50505b50610108610185565b604051610115919061066a565b60405180910390f35b34801561013357600080610130610450565b50505b506101086101a4565b3480156101515760008061014e610450565b50505b5061016561016036600461055a565b6101b0565b005b34801561017c57600080610179610450565b50505b506101086102fc565b60006001610191610303565b906101000a90046001600160a01b031681565b60006002610191610303565b6000806101bb610303565b906101000a90046001600160a01b03166001600160a01b03165a6101dd6104bb565b6001600160a01b0316146102155760405162461bcd60e51b8152600401610203906106aa565b60405180910390610212610450565b50505b6001600160a01b03811661024d5760405162461bcd60e51b815260040161023b9061069a565b6040518091039061024a610450565b50505b600080600261025a610303565b906101000a90046001600160a01b0316905081600260006101000a8161027e610303565b816001600160a01b0302191690836001600160a01b03160217906102a0610501565b5050507fd604de94d45953f9138079ec1b82d533cb2160c906d1076d1f7ed54befbca97a8160026000906102d2610303565b906101000a90046001600160a01b03166040516102f0929190610678565b60405180910390a15050565b6000806101915b6303daa959598160e01b8152836004820152602081602483336000905af158600e01573d6000803e3d6000fd5b3d6001141558600a015760016000f35b8051935060005b604081101561035e57600082820152602001610347565b505050565b63ffe73914598160e01b8152610396565b80808311156103805750815b92915050565b8080831015610380575090919050565b836004820152846024820152606060448201528660648201526084810160005b888110156103ce5780880151828201526020016103b6565b506060828960a40184336000905af158600e01573d6000803e3d6000fd5b3d6001141558600a015760016000f35b815160408301513d6000853e8b8b82606087013350600060045af150596104238d3d610386565b8c0161042f8187610374565b5b828110156104445760008152602001610430565b50929c50505050505050565b632a2a7adb598160e01b8152600481016020815285602082015260005b8681101561048857808601518282016040015260200161046d565b506020828760640184336000905af158600e01573d6000803e3d6000fd5b3d6001141558600a015760016000f35b505050565b6373509064598160e01b8152602081600483336000905af158600e01573d6000803e3d6000fd5b3d6001141558600a015760016000f35b80516000825293506020610347565b6322bd64c0598160e01b8152836004820152846024820152600081604483336000905af158600e01573d6000803e3d6000fd5b3d6001141558600a015760016000f35b600081526020610347565b8035610380816106e5565b60006020828403121561057557600080610572610450565b50505b6000610581848461054f565b949350505050565b610592816106c8565b82525050565b60006105a483856106ba565b93506105b18385846106d9565b50500190565b60006105c4604a836106bf565b60008051602061070383398151915281527f656d656e746174696f6e3a20696e76616c696420696d706c656d656e746174696020820152696f6e206164647265737360b01b604082015260600192915050565b60006106246036836106bf565b600080516020610703833981519152815275656d656e746174696f6e3a2061646d696e206f6e6c7960501b602082015260400192915050565b6000610581828486610598565b602081016103808284610589565b604081016106868285610589565b6106936020830184610589565b9392505050565b60208082528101610380816105b7565b6020808252810161038081610617565b919050565b90815260200190565b60006001600160a01b038216610380565b82818337506000910152565b6106ee816106c8565b81146106ff5760008061035e610450565b5056fe476f7665726e6f72427261766f44656c656761746f723a3a5f736574496d706c476f7665726e6f72427261766f44656c656761746f723a3a5f736574496d706c",
  "deployedBytecode": "0x60806040526004361061003f5760003560e01c806326782247146100ea5780635c60da1b1461011e578063bb913f411461013c578063f851a44014610167575b600080600261004c610303565b906101000a90046001600160a01b03166001600160a01b031660003660405161007692919061065d565b600060405180830381855a610089610363565b50505050509150503d80600081146100bd576040513d603f01601f191681016040523d815291503d6000602084013e6100c2565b606091505b505090506040513d6000823e8180156100d9573d82f35b3d826100e3610450565b5050505050005b3480156100ff576000806100fc610450565b50505b50610108610185565b604051610115919061066a565b60405180910390f35b34801561013357600080610130610450565b50505b506101086101a4565b3480156101515760008061014e610450565b50505b5061016561016036600461055a565b6101b0565b005b34801561017c57600080610179610450565b50505b506101086102fc565b60006001610191610303565b906101000a90046001600160a01b031681565b60006002610191610303565b6000806101bb610303565b906101000a90046001600160a01b03166001600160a01b03165a6101dd6104bb565b6001600160a01b0316146102155760405162461bcd60e51b8152600401610203906106aa565b60405180910390610212610450565b50505b6001600160a01b03811661024d5760405162461bcd60e51b815260040161023b9061069a565b6040518091039061024a610450565b50505b600080600261025a610303565b906101000a90046001600160a01b0316905081600260006101000a8161027e610303565b816001600160a01b0302191690836001600160a01b03160217906102a0610501565b5050507fd604de94d45953f9138079ec1b82d533cb2160c906d1076d1f7ed54befbca97a8160026000906102d2610303565b906101000a90046001600160a01b03166040516102f0929190610678565b60405180910390a15050565b6000806101915b6303daa959598160e01b8152836004820152602081602483336000905af158601d01573d60011458600c01573d6000803e3d621234565260ea61109c528051935060005b604081101561035e57600082820152602001610347565b505050565b63ffe73914598160e01b8152610396565b80808311156103805750815b92915050565b8080831015610380575090919050565b836004820152846024820152606060448201528660648201526084810160005b888110156103ce5780880151828201526020016103b6565b506060828960a40184336000905af158601d01573d60011458600c01573d6000803e3d621234565260ea61109c52815160408301513d6000853e8b8b82606087013350600060045af150596104238d3d610386565b8c0161042f8187610374565b5b828110156104445760008152602001610430565b50929c50505050505050565b632a2a7adb598160e01b8152600481016020815285602082015260005b8681101561048857808601518282016040015260200161046d565b506020828760640184336000905af158601d01573d60011458600c01573d6000803e3d621234565260ea61109c52505050565b6373509064598160e01b8152602081600483336000905af158601d01573d60011458600c01573d6000803e3d621234565260ea61109c5280516000825293506020610347565b6322bd64c0598160e01b8152836004820152846024820152600081604483336000905af158601d01573d60011458600c01573d6000803e3d621234565260ea61109c52600081526020610347565b8035610380816106e5565b60006020828403121561057557600080610572610450565b50505b6000610581848461054f565b949350505050565b610592816106c8565b82525050565b60006105a483856106ba565b93506105b18385846106d9565b50500190565b60006105c4604a836106bf565b60008051602061070383398151915281527f656d656e746174696f6e3a20696e76616c696420696d706c656d656e746174696020820152696f6e206164647265737360b01b604082015260600192915050565b60006106246036836106bf565b600080516020610703833981519152815275656d656e746174696f6e3a2061646d696e206f6e6c7960501b602082015260400192915050565b6000610581828486610598565b602081016103808284610589565b604081016106868285610589565b6106936020830184610589565b9392505050565b60208082528101610380816105b7565b6020808252810161038081610617565b919050565b90815260200190565b60006001600160a01b038216610380565b82818337506000910152565b6106ee816106c8565b81146106ff5760008061035e610450565b5056fe476f7665726e6f72427261766f44656c656761746f723a3a5f736574496d706c",
  "source": "pragma solidity ^0.5.16;\npragma experimental ABIEncoderV2;\n\nimport \"./GovernorBravoInterfaces.sol\";\n\ncontract GovernorBravoDelegator is GovernorBravoDelegatorStorage, GovernorBravoEvents {\n\tconstructor(\n\t\t\taddress timelock_,\n\t\t\taddress comp_,\n\t\t\taddress admin_,\n\t        address implementation_,\n\t        uint votingPeriod_,\n\t        uint votingDelay_,\n            uint proposalThreshold_) public {\n\n        // Admin set to msg.sender for initialization\n        admin = msg.sender;\n\n        delegateTo(implementation_, abi.encodeWithSignature(\"initialize(address,address,uint256,uint256,uint256)\",\n                                                            timelock_,\n                                                            comp_,\n                                                            votingPeriod_,\n                                                            votingDelay_,\n                                                            proposalThreshold_));\n\n        _setImplementation(implementation_);\n\n\t\tadmin = admin_;\n\t}\n\n\n\t/**\n     * @notice Called by the admin to update the implementation of the delegator\n     * @param implementation_ The address of the new implementation for delegation\n     */\n    function _setImplementation(address implementation_) public {\n        require(msg.sender == admin, \"GovernorBravoDelegator::_setImplementation: admin only\");\n        require(implementation_ != address(0), \"GovernorBravoDelegator::_setImplementation: invalid implementation address\");\n\n        address oldImplementation = implementation;\n        implementation = implementation_;\n\n        emit NewImplementation(oldImplementation, implementation);\n    }\n\n    /**\n     * @notice Internal method to delegate execution to another contract\n     * @dev It returns to the external caller whatever the implementation returns or forwards reverts\n     * @param callee The contract to delegatecall\n     * @param data The raw data to delegatecall\n     */\n    function delegateTo(address callee, bytes memory data) internal {\n        (bool success, bytes memory returnData) = callee.delegatecall(data);\n        assembly {\n            if eq(success, 0) {\n                revert(add(returnData, 0x20), returndatasize)\n            }\n        }\n    }\n\n\t/**\n     * @dev Delegates execution to an implementation contract.\n     * It returns to the external caller whatever the implementation returns\n     * or forwards reverts.\n     */\n    function () external payable {\n        // delegate all other functions to current implementation\n        (bool success, ) = implementation.delegatecall(msg.data);\n\n        assembly {\n              let free_mem_ptr := mload(0x40)\n              returndatacopy(free_mem_ptr, 0, returndatasize)\n\n              switch success\n              case 0 { revert(free_mem_ptr, returndatasize) }\n              default { return(free_mem_ptr, returndatasize) }\n        }\n    }\n}",
  "sourcePath": "/Users/jesusmeza/Developer/omgx/optimism/omgx_examples/compound-bravo/contracts/GovernorBravoDelegator.sol",
  "compiler": {
    "name": "solc",
    "version": "0.5.16"
  },
  "schemaVersion": "3.4.2",
  "updatedAt": "2021-08-09T18:31:01.265Z",
  "networkType": "ethereum",
  "devdoc": {
    "methods": {
      "_setImplementation(address)": {
        "params": {
          "implementation_": "The address of the new implementation for delegation"
        }
      }
    }
  },
  "userdoc": {
    "methods": {
      "_setImplementation(address)": {
        "notice": "Called by the admin to update the implementation of the delegator"
      }
    }
  }
}