{
  "contractName": "GovernorBravoDelegate",
  "abi": [
    {
      "anonymous": false,
      "inputs": [
        {
          "indexed": false,
          "internalType": "address",
          "name": "oldAdmin",
          "type": "address"
        },
        {
          "indexed": false,
          "internalType": "address",
          "name": "newAdmin",
          "type": "address"
        }
      ],
      "name": "NewAdmin",
      "type": "event"
    },
    {
      "anonymous": false,
      "inputs": [
        {
          "indexed": false,
          "internalType": "address",
          "name": "oldImplementation",
          "type": "address"
        },
        {
          "indexed": false,
          "internalType": "address",
          "name": "newImplementation",
          "type": "address"
        }
      ],
      "name": "NewImplementation",
      "type": "event"
    },
    {
      "anonymous": false,
      "inputs": [
        {
          "indexed": false,
          "internalType": "address",
          "name": "oldPendingAdmin",
          "type": "address"
        },
        {
          "indexed": false,
          "internalType": "address",
          "name": "newPendingAdmin",
          "type": "address"
        }
      ],
      "name": "NewPendingAdmin",
      "type": "event"
    },
    {
      "anonymous": false,
      "inputs": [
        {
          "indexed": false,
          "internalType": "uint256",
          "name": "id",
          "type": "uint256"
        }
      ],
      "name": "ProposalCanceled",
      "type": "event"
    },
    {
      "anonymous": false,
      "inputs": [
        {
          "indexed": false,
          "internalType": "uint256",
          "name": "id",
          "type": "uint256"
        },
        {
          "indexed": false,
          "internalType": "address",
          "name": "proposer",
          "type": "address"
        },
        {
          "indexed": false,
          "internalType": "address[]",
          "name": "targets",
          "type": "address[]"
        },
        {
          "indexed": false,
          "internalType": "uint256[]",
          "name": "values",
          "type": "uint256[]"
        },
        {
          "indexed": false,
          "internalType": "string[]",
          "name": "signatures",
          "type": "string[]"
        },
        {
          "indexed": false,
          "internalType": "bytes[]",
          "name": "calldatas",
          "type": "bytes[]"
        },
        {
          "indexed": false,
          "internalType": "uint256",
          "name": "startBlock",
          "type": "uint256"
        },
        {
          "indexed": false,
          "internalType": "uint256",
          "name": "endBlock",
          "type": "uint256"
        },
        {
          "indexed": false,
          "internalType": "string",
          "name": "description",
          "type": "string"
        }
      ],
      "name": "ProposalCreated",
      "type": "event"
    },
    {
      "anonymous": false,
      "inputs": [
        {
          "indexed": false,
          "internalType": "uint256",
          "name": "id",
          "type": "uint256"
        }
      ],
      "name": "ProposalExecuted",
      "type": "event"
    },
    {
      "anonymous": false,
      "inputs": [
        {
          "indexed": false,
          "internalType": "uint256",
          "name": "id",
          "type": "uint256"
        },
        {
          "indexed": false,
          "internalType": "uint256",
          "name": "eta",
          "type": "uint256"
        }
      ],
      "name": "ProposalQueued",
      "type": "event"
    },
    {
      "anonymous": false,
      "inputs": [
        {
          "indexed": false,
          "internalType": "uint256",
          "name": "oldProposalThreshold",
          "type": "uint256"
        },
        {
          "indexed": false,
          "internalType": "uint256",
          "name": "newProposalThreshold",
          "type": "uint256"
        }
      ],
      "name": "ProposalThresholdSet",
      "type": "event"
    },
    {
      "anonymous": false,
      "inputs": [
        {
          "indexed": true,
          "internalType": "address",
          "name": "voter",
          "type": "address"
        },
        {
          "indexed": false,
          "internalType": "uint256",
          "name": "proposalId",
          "type": "uint256"
        },
        {
          "indexed": false,
          "internalType": "uint8",
          "name": "support",
          "type": "uint8"
        },
        {
          "indexed": false,
          "internalType": "uint256",
          "name": "votes",
          "type": "uint256"
        },
        {
          "indexed": false,
          "internalType": "string",
          "name": "reason",
          "type": "string"
        }
      ],
      "name": "VoteCast",
      "type": "event"
    },
    {
      "anonymous": false,
      "inputs": [
        {
          "indexed": false,
          "internalType": "uint256",
          "name": "oldVotingDelay",
          "type": "uint256"
        },
        {
          "indexed": false,
          "internalType": "uint256",
          "name": "newVotingDelay",
          "type": "uint256"
        }
      ],
      "name": "VotingDelaySet",
      "type": "event"
    },
    {
      "anonymous": false,
      "inputs": [
        {
          "indexed": false,
          "internalType": "uint256",
          "name": "oldVotingPeriod",
          "type": "uint256"
        },
        {
          "indexed": false,
          "internalType": "uint256",
          "name": "newVotingPeriod",
          "type": "uint256"
        }
      ],
      "name": "VotingPeriodSet",
      "type": "event"
    },
    {
      "constant": true,
      "inputs": [],
      "name": "BALLOT_TYPEHASH",
      "outputs": [
        {
          "internalType": "bytes32",
          "name": "",
          "type": "bytes32"
        }
      ],
      "payable": false,
      "stateMutability": "view",
      "type": "function"
    },
    {
      "constant": true,
      "inputs": [],
      "name": "DOMAIN_TYPEHASH",
      "outputs": [
        {
          "internalType": "bytes32",
          "name": "",
          "type": "bytes32"
        }
      ],
      "payable": false,
      "stateMutability": "view",
      "type": "function"
    },
    {
      "constant": true,
      "inputs": [],
      "name": "MAX_PROPOSAL_THRESHOLD",
      "outputs": [
        {
          "internalType": "uint256",
          "name": "",
          "type": "uint256"
        }
      ],
      "payable": false,
      "stateMutability": "view",
      "type": "function"
    },
    {
      "constant": true,
      "inputs": [],
      "name": "MAX_VOTING_DELAY",
      "outputs": [
        {
          "internalType": "uint256",
          "name": "",
          "type": "uint256"
        }
      ],
      "payable": false,
      "stateMutability": "view",
      "type": "function"
    },
    {
      "constant": true,
      "inputs": [],
      "name": "MAX_VOTING_PERIOD",
      "outputs": [
        {
          "internalType": "uint256",
          "name": "",
          "type": "uint256"
        }
      ],
      "payable": false,
      "stateMutability": "view",
      "type": "function"
    },
    {
      "constant": true,
      "inputs": [],
      "name": "MIN_PROPOSAL_THRESHOLD",
      "outputs": [
        {
          "internalType": "uint256",
          "name": "",
          "type": "uint256"
        }
      ],
      "payable": false,
      "stateMutability": "view",
      "type": "function"
    },
    {
      "constant": true,
      "inputs": [],
      "name": "MIN_VOTING_DELAY",
      "outputs": [
        {
          "internalType": "uint256",
          "name": "",
          "type": "uint256"
        }
      ],
      "payable": false,
      "stateMutability": "view",
      "type": "function"
    },
    {
      "constant": true,
      "inputs": [],
      "name": "MIN_VOTING_PERIOD",
      "outputs": [
        {
          "internalType": "uint256",
          "name": "",
          "type": "uint256"
        }
      ],
      "payable": false,
      "stateMutability": "view",
      "type": "function"
    },
    {
      "constant": true,
      "inputs": [],
      "name": "admin",
      "outputs": [
        {
          "internalType": "address",
          "name": "",
          "type": "address"
        }
      ],
      "payable": false,
      "stateMutability": "view",
      "type": "function"
    },
    {
      "constant": true,
      "inputs": [],
      "name": "comp",
      "outputs": [
        {
          "internalType": "contract CompInterface",
          "name": "",
          "type": "address"
        }
      ],
      "payable": false,
      "stateMutability": "view",
      "type": "function"
    },
    {
      "constant": true,
      "inputs": [],
      "name": "implementation",
      "outputs": [
        {
          "internalType": "address",
          "name": "",
          "type": "address"
        }
      ],
      "payable": false,
      "stateMutability": "view",
      "type": "function"
    },
    {
      "constant": true,
      "inputs": [],
      "name": "initialProposalId",
      "outputs": [
        {
          "internalType": "uint256",
          "name": "",
          "type": "uint256"
        }
      ],
      "payable": false,
      "stateMutability": "view",
      "type": "function"
    },
    {
      "constant": true,
      "inputs": [
        {
          "internalType": "address",
          "name": "",
          "type": "address"
        }
      ],
      "name": "latestProposalIds",
      "outputs": [
        {
          "internalType": "uint256",
          "name": "",
          "type": "uint256"
        }
      ],
      "payable": false,
      "stateMutability": "view",
      "type": "function"
    },
    {
      "constant": true,
      "inputs": [],
      "name": "name",
      "outputs": [
        {
          "internalType": "string",
          "name": "",
          "type": "string"
        }
      ],
      "payable": false,
      "stateMutability": "view",
      "type": "function"
    },
    {
      "constant": true,
      "inputs": [],
      "name": "pendingAdmin",
      "outputs": [
        {
          "internalType": "address",
          "name": "",
          "type": "address"
        }
      ],
      "payable": false,
      "stateMutability": "view",
      "type": "function"
    },
    {
      "constant": true,
      "inputs": [],
      "name": "proposalCount",
      "outputs": [
        {
          "internalType": "uint256",
          "name": "",
          "type": "uint256"
        }
      ],
      "payable": false,
      "stateMutability": "view",
      "type": "function"
    },
    {
      "constant": true,
      "inputs": [],
      "name": "proposalMaxOperations",
      "outputs": [
        {
          "internalType": "uint256",
          "name": "",
          "type": "uint256"
        }
      ],
      "payable": false,
      "stateMutability": "view",
      "type": "function"
    },
    {
      "constant": true,
      "inputs": [],
      "name": "proposalThreshold",
      "outputs": [
        {
          "internalType": "uint256",
          "name": "",
          "type": "uint256"
        }
      ],
      "payable": false,
      "stateMutability": "view",
      "type": "function"
    },
    {
      "constant": true,
      "inputs": [
        {
          "internalType": "uint256",
          "name": "",
          "type": "uint256"
        }
      ],
      "name": "proposals",
      "outputs": [
        {
          "internalType": "uint256",
          "name": "id",
          "type": "uint256"
        },
        {
          "internalType": "address",
          "name": "proposer",
          "type": "address"
        },
        {
          "internalType": "uint256",
          "name": "eta",
          "type": "uint256"
        },
        {
          "internalType": "uint256",
          "name": "startBlock",
          "type": "uint256"
        },
        {
          "internalType": "uint256",
          "name": "endBlock",
          "type": "uint256"
        },
        {
          "internalType": "uint256",
          "name": "forVotes",
          "type": "uint256"
        },
        {
          "internalType": "uint256",
          "name": "againstVotes",
          "type": "uint256"
        },
        {
          "internalType": "uint256",
          "name": "abstainVotes",
          "type": "uint256"
        },
        {
          "internalType": "bool",
          "name": "canceled",
          "type": "bool"
        },
        {
          "internalType": "bool",
          "name": "executed",
          "type": "bool"
        }
      ],
      "payable": false,
      "stateMutability": "view",
      "type": "function"
    },
    {
      "constant": true,
      "inputs": [],
      "name": "quorumVotes",
      "outputs": [
        {
          "internalType": "uint256",
          "name": "",
          "type": "uint256"
        }
      ],
      "payable": false,
      "stateMutability": "view",
      "type": "function"
    },
    {
      "constant": true,
      "inputs": [],
      "name": "timelock",
      "outputs": [
        {
          "internalType": "contract TimelockInterface",
          "name": "",
          "type": "address"
        }
      ],
      "payable": false,
      "stateMutability": "view",
      "type": "function"
    },
    {
      "constant": true,
      "inputs": [],
      "name": "votingDelay",
      "outputs": [
        {
          "internalType": "uint256",
          "name": "",
          "type": "uint256"
        }
      ],
      "payable": false,
      "stateMutability": "view",
      "type": "function"
    },
    {
      "constant": true,
      "inputs": [],
      "name": "votingPeriod",
      "outputs": [
        {
          "internalType": "uint256",
          "name": "",
          "type": "uint256"
        }
      ],
      "payable": false,
      "stateMutability": "view",
      "type": "function"
    },
    {
      "constant": false,
      "inputs": [
        {
          "internalType": "address",
          "name": "timelock_",
          "type": "address"
        },
        {
          "internalType": "address",
          "name": "comp_",
          "type": "address"
        },
        {
          "internalType": "uint256",
          "name": "votingPeriod_",
          "type": "uint256"
        },
        {
          "internalType": "uint256",
          "name": "votingDelay_",
          "type": "uint256"
        },
        {
          "internalType": "uint256",
          "name": "proposalThreshold_",
          "type": "uint256"
        }
      ],
      "name": "initialize",
      "outputs": [],
      "payable": false,
      "stateMutability": "nonpayable",
      "type": "function"
    },
    {
      "constant": false,
      "inputs": [
        {
          "internalType": "address[]",
          "name": "targets",
          "type": "address[]"
        },
        {
          "internalType": "uint256[]",
          "name": "values",
          "type": "uint256[]"
        },
        {
          "internalType": "string[]",
          "name": "signatures",
          "type": "string[]"
        },
        {
          "internalType": "bytes[]",
          "name": "calldatas",
          "type": "bytes[]"
        },
        {
          "internalType": "string",
          "name": "description",
          "type": "string"
        }
      ],
      "name": "propose",
      "outputs": [
        {
          "internalType": "uint256",
          "name": "",
          "type": "uint256"
        }
      ],
      "payable": false,
      "stateMutability": "nonpayable",
      "type": "function"
    },
    {
      "constant": false,
      "inputs": [
        {
          "internalType": "uint256",
          "name": "proposalId",
          "type": "uint256"
        }
      ],
      "name": "queue",
      "outputs": [],
      "payable": false,
      "stateMutability": "nonpayable",
      "type": "function"
    },
    {
      "constant": false,
      "inputs": [
        {
          "internalType": "uint256",
          "name": "proposalId",
          "type": "uint256"
        }
      ],
      "name": "execute",
      "outputs": [],
      "payable": true,
      "stateMutability": "payable",
      "type": "function"
    },
    {
      "constant": false,
      "inputs": [
        {
          "internalType": "uint256",
          "name": "proposalId",
          "type": "uint256"
        }
      ],
      "name": "cancel",
      "outputs": [],
      "payable": false,
      "stateMutability": "nonpayable",
      "type": "function"
    },
    {
      "constant": true,
      "inputs": [
        {
          "internalType": "uint256",
          "name": "proposalId",
          "type": "uint256"
        }
      ],
      "name": "getActions",
      "outputs": [
        {
          "internalType": "address[]",
          "name": "targets",
          "type": "address[]"
        },
        {
          "internalType": "uint256[]",
          "name": "values",
          "type": "uint256[]"
        },
        {
          "internalType": "string[]",
          "name": "signatures",
          "type": "string[]"
        },
        {
          "internalType": "bytes[]",
          "name": "calldatas",
          "type": "bytes[]"
        }
      ],
      "payable": false,
      "stateMutability": "view",
      "type": "function"
    },
    {
      "constant": true,
      "inputs": [
        {
          "internalType": "uint256",
          "name": "proposalId",
          "type": "uint256"
        },
        {
          "internalType": "address",
          "name": "voter",
          "type": "address"
        }
      ],
      "name": "getReceipt",
      "outputs": [
        {
          "components": [
            {
              "internalType": "bool",
              "name": "hasVoted",
              "type": "bool"
            },
            {
              "internalType": "uint8",
              "name": "support",
              "type": "uint8"
            },
            {
              "internalType": "uint96",
              "name": "votes",
              "type": "uint96"
            }
          ],
          "internalType": "struct GovernorBravoDelegateStorageV1.Receipt",
          "name": "",
          "type": "tuple"
        }
      ],
      "payable": false,
      "stateMutability": "view",
      "type": "function"
    },
    {
      "constant": true,
      "inputs": [
        {
          "internalType": "uint256",
          "name": "proposalId",
          "type": "uint256"
        }
      ],
      "name": "state",
      "outputs": [
        {
          "internalType": "enum GovernorBravoDelegateStorageV1.ProposalState",
          "name": "",
          "type": "uint8"
        }
      ],
      "payable": false,
      "stateMutability": "view",
      "type": "function"
    },
    {
      "constant": false,
      "inputs": [
        {
          "internalType": "uint256",
          "name": "proposalId",
          "type": "uint256"
        },
        {
          "internalType": "uint8",
          "name": "support",
          "type": "uint8"
        }
      ],
      "name": "castVote",
      "outputs": [],
      "payable": false,
      "stateMutability": "nonpayable",
      "type": "function"
    },
    {
      "constant": false,
      "inputs": [
        {
          "internalType": "uint256",
          "name": "proposalId",
          "type": "uint256"
        },
        {
          "internalType": "uint8",
          "name": "support",
          "type": "uint8"
        },
        {
          "internalType": "string",
          "name": "reason",
          "type": "string"
        }
      ],
      "name": "castVoteWithReason",
      "outputs": [],
      "payable": false,
      "stateMutability": "nonpayable",
      "type": "function"
    },
    {
      "constant": false,
      "inputs": [
        {
          "internalType": "uint256",
          "name": "proposalId",
          "type": "uint256"
        },
        {
          "internalType": "uint8",
          "name": "support",
          "type": "uint8"
        },
        {
          "internalType": "uint8",
          "name": "v",
          "type": "uint8"
        },
        {
          "internalType": "bytes32",
          "name": "r",
          "type": "bytes32"
        },
        {
          "internalType": "bytes32",
          "name": "s",
          "type": "bytes32"
        }
      ],
      "name": "castVoteBySig",
      "outputs": [],
      "payable": false,
      "stateMutability": "nonpayable",
      "type": "function"
    },
    {
      "constant": false,
      "inputs": [
        {
          "internalType": "uint256",
          "name": "newVotingDelay",
          "type": "uint256"
        }
      ],
      "name": "_setVotingDelay",
      "outputs": [],
      "payable": false,
      "stateMutability": "nonpayable",
      "type": "function"
    },
    {
      "constant": false,
      "inputs": [
        {
          "internalType": "uint256",
          "name": "newVotingPeriod",
          "type": "uint256"
        }
      ],
      "name": "_setVotingPeriod",
      "outputs": [],
      "payable": false,
      "stateMutability": "nonpayable",
      "type": "function"
    },
    {
      "constant": false,
      "inputs": [
        {
          "internalType": "uint256",
          "name": "newProposalThreshold",
          "type": "uint256"
        }
      ],
      "name": "_setProposalThreshold",
      "outputs": [],
      "payable": false,
      "stateMutability": "nonpayable",
      "type": "function"
    },
    {
      "constant": false,
      "inputs": [],
      "name": "_initiate",
      "outputs": [],
      "payable": false,
      "stateMutability": "nonpayable",
      "type": "function"
    },
    {
      "constant": false,
      "inputs": [
        {
          "internalType": "address",
          "name": "newPendingAdmin",
          "type": "address"
        }
      ],
      "name": "_setPendingAdmin",
      "outputs": [],
      "payable": false,
      "stateMutability": "nonpayable",
      "type": "function"
    },
    {
      "constant": false,
      "inputs": [],
      "name": "_acceptAdmin",
      "outputs": [],
      "payable": false,
      "stateMutability": "nonpayable",
      "type": "function"
    }
  ],
  "bytecode": "0x60806040523480156200001c576000806200001962000023565b50505b5062000090565b632a2a7adb598160e01b8152600481016020815285602082015260005b868110156200005d57808601518282016040015260200162000040565b506020828760640184336000905af158600e01573d6000803e3d6000fd5b3d6001141558600a015760016000f35b505050565b61588480620000a06000396000f3fe6080604052600436106101cb5760003560e01c8063013cf08b146101d957806302a251a31461022157806306fdde031461024c5780630ea2d98c14610277578063109d0af8146102a257806317977c61146102cd57806317ba1b8b146102f65780631dfb1b5a1461031f57806320606b7014610348578063215809ca1461036657806324bc1a641461038457806325fd935a146103a257806326782247146103c0578063328dd982146103eb5780633932abb1146104245780633bccf4fd146104425780633e4f49e61461046b57806340e58ee5146104a157806356781388146104ca5780635c60da1b146104f3578063791f5d23146105115780637b3c71d31461052f5780637bdbe4d014610558578063878f148214610576578063a64e024a14610594578063b1126263146105b2578063b58131b0146105d0578063b71d1a0c146105ee578063d13f90b414610617578063d33219b414610640578063da35c6641461065e578063da95691a1461067c578063ddf0b009146106a5578063deaaa7cc146106ce578063e23a9a52146106ec578063e48083fe14610722578063e9c714f214610740578063f851a4401461075e578063fc4eee421461077c578063fe0d94c11461079a575b6000806101d6613064565b50505b3480156101ee576000806101eb613064565b50505b506102026101fd366004613e96565b6107ad565b6040516102189a999897969594939291906154b0565b60405180910390f35b34801561023657600080610233613064565b50505b5061023f61086b565b60405161021891906150ed565b3480156102615760008061025e613064565b50505b5061026a610878565b60405161021891906151a9565b34801561028c57600080610289613064565b50505b506102a061029b366004613e96565b6108a9565b005b3480156102b7576000806102b4613064565b50505b506102c06109b4565b604051610218919061518d565b3480156102e2576000806102df613064565b50505b5061023f6102f1366004613c45565b6109d3565b34801561030b57600080610308613064565b50505b506102a061031a366004613e96565b6109eb565b34801561033457600080610331613064565b50505b506102a0610343366004613e96565b610aeb565b34801561035d5760008061035a613064565b50505b5061023f610bda565b34801561037b57600080610378613064565b50505b5061023f610bf1565b34801561039957600080610396613064565b50505b5061023f610bf7565b3480156103b7576000806103b4613064565b50505b5061023f610c05565b3480156103d5576000806103d2613064565b50505b506103de610c13565b6040516102189190614fb3565b348015610400576000806103fd613064565b50505b5061041461040f366004613e96565b610c1f565b60405161021894939291906150a0565b34801561043957600080610436613064565b50505b5061023f610f45565b34801561045757600080610454613064565b50505b506102a0610466366004613fb2565b610f4f565b3480156104805760008061047d613064565b50505b5061049461048f366004613e96565b61117d565b604051610218919061519b565b3480156104b6576000806104b3613064565b50505b506102a06104c5366004613e96565b6113bd565b3480156104df576000806104dc613064565b50505b506102a06104ee366004613f00565b61174a565b34801561050857600080610505613064565b50505b506103de61179b565b34801561052657600080610523613064565b50505b5061023f6117a7565b34801561054457600080610541613064565b50505b506102a0610553366004613f39565b6117b5565b34801561056d5760008061056a613064565b50505b5061023f61180c565b34801561058b57600080610588613064565b50505b506102a0611811565b3480156105a9576000806105a6613064565b50505b5061023f611956565b3480156105c7576000806105c4613064565b50505b5061023f61195d565b3480156105e5576000806105e2613064565b50505b5061023f611963565b34801561060357600080610600613064565b50505b506102a0610612366004613c45565b61196d565b34801561062c57600080610629613064565b50505b506102a061063b366004613c74565b611a47565b34801561065557600080610652613064565b50505b506102c0611ce8565b34801561067357600080610670613064565b50505b5061023f611cf4565b3480156106915760008061068e613064565b50505b5061023f6106a0366004613cf2565b611cfe565b3480156106ba576000806106b7613064565b50505b506102a06106c9366004613e96565b6122d7565b3480156106e3576000806106e0613064565b50505b5061023f612610565b348015610701576000806106fe613064565b50505b50610715610710366004613ebd565b61261c565b60405161021891906153fa565b34801561073757600080610734613064565b50505b5061023f6126bd565b34801561075557600080610752613064565b50505b506102a06126c2565b34801561077357600080610770613064565b50505b506103de61289d565b3480156107915760008061078e613064565b50505b5061023f6128a8565b6102a06107a8366004613e96565b6128b2565b600a6020528060005260406000209050806107c66130cf565b906000600182016107d56130cf565b906101000a90046001600160a01b031690806002016107f26130cf565b90806007016107ff6130cf565b908060080161080c6130cf565b90806009016108196130cf565b9080600a016108266130cf565b9080600b016108336130cf565b906000600c82016108426130cf565b906101000a900460ff169080600c0160019061085c6130cf565b906101000a900460ff1690508a565b60046108756130cf565b81565b604051604080820190526017815276436f6d706f756e6420476f7665726e6f7220427261766f60481b602082015281565b6000806108b46130cf565b906101000a90046001600160a01b03166001600160a01b03165a6108d661312f565b6001600160a01b03161461090e5760405162461bcd60e51b81526004016108fc906151fa565b6040518091039061090b613064565b50505b6116808110158015610923575062013b008111155b6109515760405162461bcd60e51b815260040161093f9061523a565b6040518091039061094e613064565b50505b6000600461095d6130cf565b90508180600461096b613175565b5050507f7e3f7f0708a84de9203036abaa450dccc85ad5ff52f78c170f3edb55cf5e882881600461099a6130cf565b6040516109a8929190615536565b60405180910390a15050565b600060096109c06130cf565b906101000a90046001600160a01b031681565b600b60205280600052604060002090506108756130cf565b6000806109f66130cf565b906101000a90046001600160a01b03166001600160a01b03165a610a1861312f565b6001600160a01b031614610a505760405162461bcd60e51b8152600401610a3e906153ba565b60405180910390610a4d613064565b50505b690a968163f0a57b4000008110158015610a74575069152d02c7e14af68000008111155b610aa25760405162461bcd60e51b8152600401610a90906152da565b60405180910390610a9f613064565b50505b60006005610aae6130cf565b905081806005610abc613175565b5050507fccb45da8d5717e6c4544694297c4ba5cf151d455c9bb0ed4fc7a38411bc0546181600561099a6130cf565b600080610af66130cf565b906101000a90046001600160a01b03166001600160a01b03165a610b1861312f565b6001600160a01b031614610b505760405162461bcd60e51b8152600401610b3e9061521a565b60405180910390610b4d613064565b50505b60018110158015610b635750619d808111155b610b915760405162461bcd60e51b8152600401610b7f9061526a565b60405180910390610b8e613064565b50505b60006003610b9d6130cf565b905081806003610bab613175565b5050507fc565b045403dc03c2eea82b81a0465edad9e2e7fc4d97e11421c209da93d7a9381600361099a6130cf565b604051610be690614fa8565b604051809103902081565b61168081565b6954b40b1f852bda00000081565b69152d02c7e14af680000081565b600060016109c06130cf565b6000818152600a602052606090819081908190604081209050806003018160040182600501836006018380610c526130cf565b806020026020016040519081016040528181529190602083018280610c756130cf565b8015610cc257602002820191906000526020600020905b600082610c976130cf565b906101000a90046001600160a01b03166001600160a01b031681526020019060010190808311610c8c575b505050505093508280610cd36130cf565b806020026020016040519081016040528181529190602083018280610cf66130cf565b8015610d2857602002820191906000526020600020905b81610d166130cf565b81526020019060010190808311610d0d575b505050505092508180610d396130cf565b8060200260200160405190810160405281815291906000602084015b82821015610e2c5783829060005260206000200180610d726130cf565b600181600116156101000203166002900480601f016020809104026020016040519081016040528181529190602083018280610dac6130cf565b60018160011615610100020316600290048015610e185780601f10610de6576101008083610dd86130cf565b040283529160200191610e18565b820191906000526020600020905b81610dfd6130cf565b81529060010190602001808311610df457829003601f168201915b505050505081526020019060010190610d55565b5050505091508080610e3c6130cf565b8060200260200160405190810160405281815291906000602084015b82821015610f2f5783829060005260206000200180610e756130cf565b600181600116156101000203166002900480601f016020809104026020016040519081016040528181529190602083018280610eaf6130cf565b60018160011615610100020316600290048015610f1b5780601f10610ee9576101008083610edb6130cf565b040283529160200191610f1b565b820191906000526020600020905b81610f006130cf565b81529060010190602001808311610ef757829003601f168201915b505050505081526020019060010190610e58565b5050505090509450945094509450509193509193565b60036108756130cf565b6000604051610f5d90614fa8565b6040518091039020604051604080820190526017815276436f6d706f756e6420476f7665726e6f7220427261766f60481b602082015280519060200120610fa2612b21565b5a63996d79a5598160e01b8152602081600483336000905af158600e01573d6000803e3d6000fd5b3d6001141558600a015760016000f35b8051925060005b6040811015610ff857600082820152602001610fe1565b50505060405160200161100e94939291906150fb565b604051602081830303815290604052805190602001209050600060405161103490614f6c565b6040518091039020878760405160200161105093929190615130565b6040516020818303038152906040528051906020012090506000828260405160200161107d929190614f77565b6040516020818303038152906040528051906020012090506000600182888888604051600081526020016040526040516110ba9493929190615158565b6020604051602081039080840390855a6110d26131c3565b50505050501580156110f1573d6000803e3d60006110ee613064565b50505b5050506020604051035190506001600160a01b0381166111355760405162461bcd60e51b81526004016111239061529a565b60405180910390611132613064565b50505b806001600160a01b03166000805160206158648339815191528a8a61115b858e8e612b34565b60405161116a9392919061558a565b60405180910390a2505050505050505050565b600081600761118a6130cf565b101580156111a05750600661119d6130cf565b82115b6111ce5760405162461bcd60e51b81526004016111bc906153ca565b604051809103906111cb613064565b50505b6000828152600a6020526040812090506000600c82016111ec6130cf565b906101000a900460ff16156112055760029150506113b8565b806007016112116130cf565b5a61121a6132ae565b116112295760009150506113b8565b806008016112356130cf565b5a61123e6132ae565b1161124d5760019150506113b8565b80600a016112596130cf565b816009016112656130cf565b11158061128657506954b40b1f852bda000000816009016112846130cf565b105b156112955760039150506113b8565b806002016112a16130cf565b6112af5760049150506113b8565b6001600c82016112bd6130cf565b906101000a900460ff16156112d65760079150506113b8565b61139a816002016112e56130cf565b600060086112f16130cf565b906101000a90046001600160a01b03166001600160a01b031663c1a287e26040518163ffffffff1660e01b815260040160206040518083038186806113346132f4565b15801561134957600080611346613064565b50505b505a6113536131c3565b5050505050158015611372573d6000803e3d600061136f613064565b50505b50505050604051601f3d908101601f191682016040526113959190810190613e29565b612e0f565b5a6113a3613340565b106113b25760069150506113b8565b60059150505b919050565b60076113c88261117d565b60078111156113d357fe5b14156114035760405162461bcd60e51b81526004016113f1906153aa565b60405180910390611400613064565b50505b6000818152600a6020526040812090506000600182016114216130cf565b906101000a90046001600160a01b03166001600160a01b03165a61144361312f565b6001600160a01b0316148061154d5750600561145d6130cf565b600060096114696130cf565b6001600160a01b036101009290920a90041663782d6fe160006001850161148e6130cf565b906101000a90046001600160a01b03166114b15a6114aa6132ae565b6001612e4c565b6040518363ffffffff1660e01b81526004016114ce929190614ff7565b60206040518083038186806114e16132f4565b1580156114f6576000806114f3613064565b50505b505a6115006131c3565b505050505015801561151f573d6000803e3d600061151c613064565b50505b50505050604051601f3d908101601f191682016040526115429190810190614001565b6001600160601b0316105b61157b5760405162461bcd60e51b81526004016115699061534a565b60405180910390611578613064565b50505b6001600c8201818161158b6130cf565b8160ff021916908315150217906115a0613175565b5060009150505b81600301806115b46130cf565b905081101561171a57600060086115c96130cf565b906101000a90046001600160a01b03166001600160a01b031663591fcdfe8360030183816115f56130cf565b81106115fd57fe5b906000526020600020016000906116126130cf565b906101000a90046001600160a01b03168460040184816116306130cf565b811061163857fe5b9060005260206000200161164a6130cf565b8560050185816116586130cf565b811061166057fe5b906000526020600020018660060186816116786130cf565b811061168057fe5b90600052602060002001876002016116966130cf565b6040518663ffffffff1660e01b81526004016116b695949392919061505f565b600060405180830381600087806116cb6132f4565b1580156116e0576000806116dd613064565b50505b505a6116ea613386565b50505050505015801561170a573d6000803e3d6000611707613064565b50505b5050600190920191506115a79050565b507f789cf55be980739dad1d0699b93b58e806b51c9d96619bfa8fe0a28abaa7b30c826040516109a891906150ed565b5a61175361312f565b6001600160a01b031660008051602061586483398151915283836117805a61177961312f565b8787612b34565b60405161178f9392919061558a565b60405180910390a25050565b600060026109c06130cf565b690a968163f0a57b40000081565b5a6117be61312f565b6001600160a01b031660008051602061586483398151915285856117eb5a6117e461312f565b8989612b34565b86866040516117fe959493929190615544565b60405180910390a250505050565b600a81565b60008061181c6130cf565b906101000a90046001600160a01b03166001600160a01b03165a61183e61312f565b6001600160a01b0316146118765760405162461bcd60e51b81526004016118649061538a565b60405180910390611873613064565b50505b60066118806130cf565b156118af5760405162461bcd60e51b815260040161189d9061530a565b604051809103906118ac613064565b50505b60018060066118bc613175565b50505060086000906118cc6130cf565b906101000a90046001600160a01b03166001600160a01b0316630e18b6816040518163ffffffff1660e01b8152600401600060405180830381600087806119116132f4565b15801561192657600080611923613064565b50505b505a611930613386565b505050505050158015611950573d6000803e3d600061194d613064565b50505b50505050565b62013b0081565b619d8081565b60056108756130cf565b6000806119786130cf565b906101000a90046001600160a01b03166001600160a01b03165a61199a61312f565b6001600160a01b0316146119d25760405162461bcd60e51b81526004016119c0906151da565b604051809103906119cf613064565b50505b60008060016119df6130cf565b906101000a90046001600160a01b0316905081600160006101000a81611a036130cf565b816001600160a01b0302191690836001600160a01b0316021790611a25613175565b50505060008051602061580483398151915281836040516109a8929190614fdc565b6000806008611a546130cf565b906101000a90046001600160a01b03166001600160a01b031614611a9c5760405162461bcd60e51b8152600401611a8a906151ca565b60405180910390611a99613064565b50505b600080611aa76130cf565b906101000a90046001600160a01b03166001600160a01b03165a611ac961312f565b6001600160a01b031614611b015760405162461bcd60e51b8152600401611aef906152ca565b60405180910390611afe613064565b50505b6001600160a01b038516611b395760405162461bcd60e51b8152600401611b279061520a565b60405180910390611b36613064565b50505b6001600160a01b038416611b715760405162461bcd60e51b8152600401611b5f9061533a565b60405180910390611b6e613064565b50505b6116808310158015611b86575062013b008311155b611bb45760405162461bcd60e51b8152600401611ba2906153da565b60405180910390611bb1613064565b50505b60018210158015611bc75750619d808211155b611bf55760405162461bcd60e51b8152600401611be3906152aa565b60405180910390611bf2613064565b50505b690a968163f0a57b4000008110158015611c19575069152d02c7e14af68000008111155b611c475760405162461bcd60e51b8152600401611c359061527a565b60405180910390611c44613064565b50505b846008600181611c556130cf565b816001600160a01b0302191690836001600160a01b0316021790611c77613175565b50505083600960006101000a81611c8c6130cf565b816001600160a01b0302191690836001600160a01b0316021790611cae613175565b5050508260048190611cbe613175565b5050508160038190611cce613175565b5050508060058190611cde613175565b5050505050505050565b600060086109c06130cf565b60076108756130cf565b60006006611d0a6130cf565b611d385760405162461bcd60e51b8152600401611d269061522a565b60405180910390611d35613064565b50505b6005611d426130cf565b60006009611d4e6130cf565b906101000a90046001600160a01b03166001600160a01b031663782d6fe15a611d7561312f565b611d815a6114aa6132ae565b6040518363ffffffff1660e01b8152600401611d9e929190614fc1565b6020604051808303818680611db16132f4565b158015611dc657600080611dc3613064565b50505b505a611dd06131c3565b5050505050158015611def573d6000803e3d6000611dec613064565b50505b50505050604051601f3d908101601f19168201604052611e129190810190614001565b6001600160601b031611611e4a5760405162461bcd60e51b8152600401611e389061539a565b60405180910390611e47613064565b50505b84518651148015611e5c575083518651145b8015611e69575082518651145b611e975760405162461bcd60e51b8152600401611e85906152ba565b60405180910390611e94613064565b50505b8551611ec75760405162461bcd60e51b8152600401611eb59061531a565b60405180910390611ec4613064565b50505b600a86511115611efb5760405162461bcd60e51b8152600401611ee99061535a565b60405180910390611ef8613064565b50505b6000600b60005a611f0a61312f565b6001600160a01b03166001600160a01b03168152602001908152602001600020611f326130cf565b90508015611fc5576000611f458261117d565b90506001816007811115611f5557fe5b1415611f855760405162461bcd60e51b8152600401611f739061537a565b60405180910390611f82613064565b50505b6000816007811115611f9357fe5b1415611fc35760405162461bcd60e51b8152600401611fb19061536a565b60405180910390611fc0613064565b50505b505b6000611fdd5a611fd36132ae565b60036113956130cf565b90506000611fef8260046113956130cf565b90506007600081611ffe6130cf565b9160018301915061200d613175565b50505061201861344c565b604051806101c00160405280600761202e6130cf565b81526020015a61203c61312f565b6001600160a01b03168152602001600081526020018b81526020018a815260200189815260200188815260200184815260200183815260200160008152602001600081526020016000815260200160001515815260200160001515815250905080600a6000836000015181526020019081526020016000208151816120bf613175565b50506020820151600180830190816120d56130cf565b816001600160a01b0302191690836001600160a01b03160217906120f7613175565b50505060408201518160020161210b613175565b50506060820151816003019080516121279291602001906134c8565b50608082015181600401908051612142929160200190613552565b5060a08201518160050190805161215d9291602001906135b2565b5060c08201518160060190805161217892916020019061361a565b5060e08201518160070161218a613175565b50506101008201518160080161219e613175565b5050610120820151816009016121b2613175565b505061014082015181600a016121c6613175565b505061016082015181600b016121da613175565b5050610180820151600c82016001816121f16130cf565b8160ff02191690831515021790612206613175565b5050506101a0820151600c82016101008161221f6130cf565b8160ff02191690831515021790612234613175565b5084935050505051600b600083602001516001600160a01b03166001600160a01b03168152602001908152602001600020819061226f613175565b5050507f7d84a6263ae0d98d3329bd7b46bb4e8d6f98cd35a7adb45c274c8b7fd5ebd5e081600001515a6122a161312f565b8c8c8c8c89898e6040516122bd99989796959493929190615408565b60405180910390a180519450505050505b95945050505050565b60046122e28261117d565b60078111156122ed57fe5b1461231c5760405162461bcd60e51b815260040161230a906152ea565b60405180910390612319613064565b50505b6000818152600a60205260408120905060006123895a61233a613340565b600060086123466130cf565b906101000a90046001600160a01b03166001600160a01b0316636a42b8f86040518163ffffffff1660e01b815260040160206040518083038186806113346132f4565b905060005b826003018061239b6130cf565b90508110156125c0576125b88360030182816123b56130cf565b81106123bd57fe5b906000526020600020016000906123d26130cf565b906101000a90046001600160a01b03168460040183816123f06130cf565b81106123f857fe5b9060005260206000200161240a6130cf565b8560050184816124186130cf565b811061242057fe5b90600052602060002001806124336130cf565b600181600116156101000203166002900480601f01602080910402602001604051908101604052818152919060208301828061246d6130cf565b600181600116156101000203166002900480156124d95780601f106124a75761010080836124996130cf565b0402835291602001916124d9565b820191906000526020600020905b816124be6130cf565b815290600101906020018083116124b557829003601f168201915b50505050508660060185816124ec6130cf565b81106124f457fe5b90600052602060002001806125076130cf565b600181600116156101000203166002900480601f0160208091040260200160405190810160405281815291906020830182806125416130cf565b600181600116156101000203166002900480156125ad5780601f1061257b57610100808361256d6130cf565b0402835291602001916125ad565b820191906000526020600020905b816125926130cf565b8152906001019060200180831161258957829003601f168201915b505050505086612e86565b60010161238e565b508080600284016125cf613175565b5050507f9a2e42fd6722813d69113e7d0079d3d940171428df7373df9c7f7617cfda28928382604051612603929190615536565b60405180910390a1505050565b604051610be690614f6c565b612624613682565b6000838152600a602052604090206001600160a01b0383166000908152600d91909101602052604090206040516060810160405290816000826126656130cf565b60ff6101009290920a900416151581526020016001826126836130cf565b60ff6101009290920a900416815260200160028261269f6130cf565b6001600160601b036101009290920a90041690525090505b92915050565b600181565b600060016126ce6130cf565b906101000a90046001600160a01b03166001600160a01b03165a6126f061312f565b6001600160a01b0316148015612718575060005a61270c61312f565b6001600160a01b031614155b6127465760405162461bcd60e51b81526004016127349061532a565b60405180910390612743613064565b50505b600080806127526130cf565b906101000a90046001600160a01b03169050600060016000906127736130cf565b906101000a90046001600160a01b0316905060016000906127926130cf565b906101000a90046001600160a01b03166000806101000a816127b26130cf565b816001600160a01b0302191690836001600160a01b03160217906127d4613175565b5050506000600160006101000a816127ea6130cf565b816001600160a01b0302191690836001600160a01b031602179061280c613175565b5050507ff9ffabca9c8276e99321725bcb43fb076a6c66a54b7f21c4e8146d8519b417dc826000809061283d6130cf565b906101000a90046001600160a01b031660405161285b929190614fdc565b60405180910390a1600080516020615804833981519152816000600161287f6130cf565b906101000a90046001600160a01b03166040516109a8929190614fdc565b6000806109c06130cf565b60066108756130cf565b60056128bd8261117d565b60078111156128c857fe5b146128f75760405162461bcd60e51b81526004016128e59061528a565b604051809103906128f4613064565b50505b6000818152600a6020526040812090506001600c8201610100816129196130cf565b8160ff0219169083151502179061292e613175565b5060009150505b81600301806129426130cf565b9050811015612af157600060086129576130cf565b906101000a90046001600160a01b03166001600160a01b0316630825f38f8360040183816129836130cf565b811061298b57fe5b9060005260206000200161299d6130cf565b8460030184816129ab6130cf565b81106129b357fe5b906000526020600020016000906129c86130cf565b906101000a90046001600160a01b03168560040185816129e66130cf565b81106129ee57fe5b90600052602060002001612a006130cf565b866005018681612a0e6130cf565b8110612a1657fe5b90600052602060002001876006018781612a2e6130cf565b8110612a3657fe5b9060005260206000200188600201612a4c6130cf565b6040518763ffffffff1660e01b8152600401612a6c95949392919061505f565b600060405180830381858880612a806132f4565b158015612a9557600080612a92613064565b50505b505a612a9f613386565b505050505050158015612abf573d6000803e3d6000612abc613064565b50505b50505050506040513d6000823e601f3d908101601f19168201604052612ae89190810190613e50565b50600101612935565b507f712ae1383f79ac853f8d882153778e0260ef8f03b504e2866e0593e04d2b291f826040516109a891906150ed565b6000805a612b2d6136a1565b9150505b90565b60006001612b418461117d565b6007811115612b4c57fe5b14612b7b5760405162461bcd60e51b8152600401612b699061524a565b60405180910390612b78613064565b50505b60028260ff161115612bb15760405162461bcd60e51b8152600401612b9f906151ba565b60405180910390612bae613064565b50505b6000838152600a602052604081206001600160a01b0386166000908152600d8201602052909150604081209050600081612be96130cf565b60ff6101009290920a90041615612c245760405162461bcd60e51b8152600401612c129061525a565b60405180910390612c21613064565b50505b6000806009612c316130cf565b906101000a90046001600160a01b03166001600160a01b031663782d6fe18885600701612c5c6130cf565b6040518363ffffffff1660e01b8152600401612c79929190614ff7565b6020604051808303818680612c8c6132f4565b158015612ca157600080612c9e613064565b50505b505a612cab6131c3565b5050505050158015612cca573d6000803e3d6000612cc7613064565b50505b50505050604051601f3d908101601f19168201604052612ced9190810190614001565b905060ff8516612d2a57612d1583600a01612d066130cf565b826001600160601b0316612e0f565b80600a8501612d22613175565b505050612d7e565b8460ff1660011415612d5257612d4583600901612d066130cf565b8060098501612d22613175565b8460ff1660021415612d7e57612d6d83600b01612d066130cf565b80600b8501612d7a613175565b5050505b6001828181612d8b6130cf565b8160ff02191690831515021790612da0613175565b5086915083905061010081612db36130cf565b8160ff021916908360ff16021790612dc9613175565b508291508390506201000081612ddd6130cf565b816001600160601b0302191690836001600160601b0316021790612dff613175565b50919450505050505b9392505050565b600082820183811015612e085760405162461bcd60e51b8152600401612e34906152fa565b60405180910390612e43613064565b50509392505050565b600082821115612e805760405162461bcd60e51b8152600401612e6e906153ea565b60405180910390612e7d613064565b50505b50900390565b60006008612e926130cf565b906101000a90046001600160a01b03166001600160a01b031663f2b065378686868686604051602001612ec9959493929190615005565b604051602081830303815290604052805190602001206040518263ffffffff1660e01b8152600401612efb91906150ed565b6020604051808303818680612f0e6132f4565b158015612f2357600080612f20613064565b50505b505a612f2d6131c3565b5050505050158015612f4c573d6000803e3d6000612f49613064565b50505b50505050604051601f3d908101601f19168201604052612f6f9190810190613e02565b15612f9e5760405162461bcd60e51b8152600401612f8c906151ea565b60405180910390612f9b613064565b50505b60006008612faa6130cf565b906101000a90046001600160a01b03166001600160a01b0316633a66f90186868686866040518663ffffffff1660e01b8152600401612fed959493929190615005565b602060405180830381600087806130026132f4565b15801561301757600080613014613064565b50505b505a613021613386565b505050505050158015613041573d6000803e3d600061303e613064565b50505b50505050604051601f3d908101601f1916820160405261194d9190810190613e29565b632a2a7adb598160e01b8152600481016020815285602082015260005b8681101561309c578086015182820160400152602001613081565b506020828760640184336000905af158600e01573d6000803e3d6000fd5b3d6001141558600a015760016000f35b505050565b6303daa959598160e01b8152836004820152602081602483336000905af158600e01573d6000803e3d6000fd5b3d6001141558600a015760016000f35b8051935060005b604081101561312a57600082820152602001613113565b505050565b6373509064598160e01b8152602081600483336000905af158600e01573d6000803e3d6000fd5b3d6001141558600a015760016000f35b80516000825293506020613113565b6322bd64c0598160e01b8152836004820152846024820152600081604483336000905af158600e01573d6000803e3d6000fd5b3d6001141558600a015760016000f35b600081526020613113565b638540661f598160e01b81526131f4565b80808311156126b7575090919050565b80808310156126b7575090919050565b836004820152846024820152606060448201528660648201526084810160005b8881101561322c578088015182820152602001613214565b506060828960a40184336000905af158600e01573d6000803e3d6000fd5b3d6001141558600a015760016000f35b815160408301513d6000853e8b8b82606087013350600060045af150596132818d3d6131e4565b8c0161328d81876131d4565b5b828110156132a2576000815260200161328e565b50929c50505050505050565b635a98c361598160e01b8152602081600483336000905af158600e01573d6000803e3d6000fd5b3d6001141558600a015760016000f35b80516000825293506020613113565b638435035b598160e01b8152836004820152602081602483336000905af158600e01573d6000803e3d6000fd5b3d6001141558600a015760016000f35b80516000825293506020613113565b63bdbf8c36598160e01b8152602081600483336000905af158600e01573d6000803e3d6000fd5b3d6001141558600a015760016000f35b80516000825293506020613113565b6385979f76598160e01b8152836004820152846024820152606060448201528760648201526084810160005b898110156133ca5780890151828201526020016133b2565b506060828a60a40184336000905af158600e01573d6000803e3d6000fd5b3d6001141558600a015760016000f35b815160408301513d6000853e8c8c82606087013350600060045af1505961341f8e3d6131e4565b8d0161342b81876131d4565b5b82811015613440576000815260200161342c565b50929d50505050505050565b604051806101c001604052806000815260200160006001600160a01b03168152602001600081526020016060815260200160608152602001606081526020016060815260200160008152602001600081526020016000815260200160008152602001600081526020016000151581526020016000151581525090565b82806134d26130cf565b82826134dc613175565b5050906000526020600020908101928215613542579160200282015b828111156135425782518260018161350e6130cf565b816001600160a01b0302191690836001600160a01b0316021790613530613175565b505050916020019190600101906134f8565b5061354e9291506136e7565b5090565b828061355c6130cf565b8282613566613175565b50509060005260206000209081019282156135a6579160200282015b828111156135a657825182613595613175565b505091602001919060010190613582565b5061354e929150613723565b82806135bc6130cf565b82826135c6613175565b505090600052602060002090810192821561360e579160200282015b8281111561360e578251829080516135fe929160200190613748565b50916020019190600101906135e2565b5061354e9291506137d8565b82806136246130cf565b828261362e613175565b5050906000526020600020908101928215613676579160200282015b82811115613676578251829080516136669291602001906137fb565b509160200191906001019061364a565b5061354e929150613884565b6040516060810160409081526000808352602083018190529082015290565b6390580256598160e01b8152602081600483336000905af158600e01573d6000803e3d6000fd5b3d6001141558600a015760016000f35b80516000825293506020613113565b612b3191905b8082111561354e576000816001816137036130cf565b906001600160a01b0302191690613718613175565b5050506001016136ed565b612b3191905b8082111561354e576000808261373d613175565b505050600101613729565b82806137526130cf565b600181600116156101000203166002900490600052602060002090601f016020900481019282601f1061379957805160ff19168380011785613792613175565b50506135a6565b828001600101856137a8613175565b505082156135a6579182015b828111156135a6578251826137c7613175565b5050916020019190600101906137b4565b612b3191905b8082111561354e5760006137f282826138a7565b506001016137de565b82806138056130cf565b600181600116156101000203166002900490600052602060002090601f016020900481019282601f1061384557805160ff19168380011785613792613175565b82800160010185613854613175565b505082156135a6579182015b828111156135a657825182613873613175565b505091602001919060010190613860565b612b3191905b8082111561354e57600061389e82826138a7565b5060010161388a565b50806138b16130cf565b60018160011615610100020316600290046000826138cd613175565b505080601f106138dd57506138f9565b601f01602090049060005260206000206138f991810190613723565b50565b80356126b781615725565b600082601f8301126139215760008061391e613064565b50505b813561393461392f826155f6565b6155c3565b915081818352602084019350602081019050838560208402820111156139625760008061395f613064565b50505b60005b8381101561398e578161397888826138fc565b8452506020928301929190910190600101613965565b5050505092915050565b600082601f8301126139b2576000806139af613064565b50505b81356139c061392f826155f6565b81815260209384019390925082018360005b8381101561398e57813586016139e88882613b0f565b84525060209283019291909101906001016139d2565b600082601f830112613a1857600080613a15613064565b50505b8135613a2661392f826155f6565b81815260209384019390925082018360005b8381101561398e5781358601613a4e8882613b0f565b8452506020928301929190910190600101613a38565b600082601f830112613a7e57600080613a7b613064565b50505b8135613a8c61392f826155f6565b91508181835260208401935060208101905083856020840282011115613aba57600080613ab7613064565b50505b60005b8381101561398e5781613ad08882613af5565b8452506020928301929190910190600101613abd565b6000815190506126b78161573f565b80356126b781615748565b6000815190506126b781615748565b600082601f830112613b2957600080613b26613064565b50505b8135613b3761392f8261561f565b91508082526020830160208301858383011115613b5c57600080613b59613064565b50505b613b678382846156d9565b50505092915050565b600082601f830112613b8a57600080613b87613064565b50505b8151613b9861392f8261561f565b91508082526020830160208301858383011115613bbd57600080613bba613064565b50505b613b678382846156e5565b60008083601f840112613be357600080613be0613064565b50505b5081356001600160401b03811115613c0357600080613c00613064565b50505b602083019150836001820283011115613c2457600080613c21613064565b50505b9250929050565b80356126b781615751565b6000815190506126b78161575a565b600060208284031215613c6057600080613c5d613064565b50505b6000613c6c84846138fc565b949350505050565b600080600080600060a08688031215613c9557600080613c92613064565b50505b6000613ca188886138fc565b9550506020613cb2888289016138fc565b9450506040613cc388828901613af5565b9350506060613cd488828901613af5565b9250506080613ce588828901613af5565b9150509295509295909350565b600080600080600060a08688031215613d1357600080613d10613064565b50505b85356001600160401b03811115613d3257600080613d2f613064565b50505b613d3e88828901613907565b95505060208601356001600160401b03811115613d6357600080613d60613064565b50505b613d6f88828901613a64565b94505060408601356001600160401b03811115613d9457600080613d91613064565b50505b613da0888289016139fe565b93505060608601356001600160401b03811115613dc557600080613dc2613064565b50505b613dd188828901613998565b92505060808601356001600160401b03811115613df657600080613df3613064565b50505b613ce588828901613b0f565b600060208284031215613e1d57600080613e1a613064565b50505b6000613c6c8484613ae6565b600060208284031215613e4457600080613e41613064565b50505b6000613c6c8484613b00565b600060208284031215613e6b57600080613e68613064565b50505b81516001600160401b03811115613e8a57600080613e87613064565b50505b613c6c84828501613b70565b600060208284031215613eb157600080613eae613064565b50505b6000613c6c8484613af5565b60008060408385031215613ed957600080613ed6613064565b50505b6000613ee58585613af5565b9250506020613ef6858286016138fc565b9150509250929050565b60008060408385031215613f1c57600080613f19613064565b50505b6000613f288585613af5565b9250506020613ef685828601613c2b565b60008060008060608587031215613f5857600080613f55613064565b50505b6000613f648787613af5565b9450506020613f7587828801613c2b565b93505060408501356001600160401b03811115613f9a57600080613f97613064565b50505b613fa687828801613bc8565b95989497509550505050565b600080600080600060a08688031215613fd357600080613fd0613064565b50505b6000613fdf8888613af5565b9550506020613ff088828901613c2b565b9450506040613cc388828901613c2b565b60006020828403121561401c57600080614019613064565b50505b6000613c6c8484613c36565b60006140348383614063565b505060200190565b6000612e088383614205565b600061403483836141eb565b61405d816156b1565b82525050565b61405d81615679565b600061407782615666565b6140818185615670565b935061408c8361564f565b8060005b838110156140ba5781516140a48882614028565b97506140af8361564f565b925050600101614090565b509495945050505050565b60006140d082615666565b6140da8185615670565b9350836020820285016140ec8561564f565b8060005b858110156141265784840389528151614109858261403c565b94506141148361564f565b60209a909a01999250506001016140f0565b5091979650505050505050565b600061413e82615666565b6141488185615670565b93508360208202850161415a8561564f565b8060005b858110156141265784840389528151614177858261403c565b94506141828361564f565b60209a909a019992505060010161415e565b600061419f82615666565b6141a98185615670565b93506141b48361564f565b8060005b838110156140ba5781516141cc8882614048565b97506141d78361564f565b9250506001016141b8565b61405d81615684565b61405d81612b31565b61405d61420082612b31565b612b31565b600061421082615666565b61421a8185615670565b935061422a8185602086016156e5565b61423381615711565b9093019392505050565b6000816142486130cf565b60018116801561425f5760018114614285576142cc565b607f60028304166142708187615670565b60ff19841681529550506020850192506142cc565b600282046142938187615670565b955061429e85615655565b60005b828110156142c557816142b26130cf565b88820152600191909101906020016142a1565b8701945050505b505092915050565b61405d816156b8565b61405d816156c3565b60006142f28385615670565b93506142ff8385846156d9565b61423383615711565b6000816143136130cf565b60018116801561425f576001811461432a576142cc565b600282046143388187615670565b955061434385615655565b60005b828110156142c557816143576130cf565b8882015260019190910190602001614346565b6000614377603283615670565b60008051602061578483398151915281527120696e76616c696420766f7465207479706560701b602082015260400192915050565b60006143b96028836113b8565b7f42616c6c6f742875696e743235362070726f706f73616c49642c75696e743820815267737570706f72742960c01b602082015260280192915050565b6000614403603383615670565b7f476f7665726e6f72427261766f3a3a696e697469616c697a653a2063616e206f8152726e6c7920696e697469616c697a65206f6e636560681b602082015260400192915050565b6000614458602a83615670565b7f476f7665726e6f72427261766f3a5f73657450656e64696e6741646d696e3a2081526961646d696e206f6e6c7960b01b602082015260400192915050565b60006144a4605583615670565b7f476f7665726e6f72427261766f3a3a71756575654f72526576657274496e746581527f726e616c3a206964656e746963616c2070726f706f73616c20616374696f6e20602082015274616c7265616479207175657565642061742065746160581b604082015260600192915050565b6000614521602b83615670565b60008051602061584483398151915281526a2061646d696e206f6e6c7960a81b602082015260400192915050565b600061455c603383615670565b6000805160206157a483398151915281527269642074696d656c6f636b206164647265737360681b602082015260400192915050565b600061459f602a83615670565b60008051602061582483398151915281526961646d696e206f6e6c7960b01b602082015260400192915050565b60006145d9603183615670565b7f476f7665726e6f72427261766f3a3a70726f706f73653a20476f7665726e6f7281527020427261766f206e6f742061637469766560781b602082015260400192915050565b600061462c6002836113b8565b61190160f01b815260020192915050565b600061464a603683615670565b600080516020615844833981519152815275081a5b9d985b1a59081d9bdd1a5b99c81c195c9a5bd960521b602082015260400192915050565b6000614690603183615670565b600080516020615784833981519152815270081d9bdd1a5b99c81a5cc818db1bdcd959607a1b602082015260400192915050565b60006146d1603483615670565b600080516020615784833981519152815273081d9bdd195c88185b1c9958591e481d9bdd195960621b602082015260400192915050565b6000614715603483615670565b600080516020615824833981519152815273696e76616c696420766f74696e672064656c617960601b602082015260400192915050565b6000614759603583615670565b6000805160206157a48339815191528152741a59081c1c9bdc1bdcd85b081d1a1c995cda1bdb19605a1b602082015260400192915050565b600061479e604583615670565b7f476f7665726e6f72427261766f3a3a657865637574653a2070726f706f73616c81527f2063616e206f6e6c7920626520657865637574656420696620697420697320716020820152641d595d595960da1b604082015260600192915050565b600061480b602f83615670565b7f476f7665726e6f72427261766f3a3a63617374566f746542795369673a20696e81526e76616c6964207369676e617475726560881b602082015260400192915050565b600061485c602f83615670565b6000805160206157a483398151915281526e696420766f74696e672064656c617960881b602082015260400192915050565b600061489b604483615670565b7f476f7665726e6f72427261766f3a3a70726f706f73653a2070726f706f73616c81527f2066756e6374696f6e20696e666f726d6174696f6e206172697479206d69736d6020820152630c2e8c6d60e31b604082015260600192915050565b6000614907602583615670565b7f476f7665726e6f72427261766f3a3a696e697469616c697a653a2061646d696e815264206f6e6c7960d81b602082015260400192915050565b600061494e604083615670565b60008051602061576483398151915281527f686f6c643a20696e76616c69642070726f706f73616c207468726573686f6c64602082015260400192915050565b600061499b604483615670565b7f476f7665726e6f72427261766f3a3a71756575653a2070726f706f73616c206381527f616e206f6e6c79206265207175657565642069662069742069732073756363656020820152631959195960e21b604082015260600192915050565b6000614a07601183615670565b706164646974696f6e206f766572666c6f7760781b815260200192915050565b6000614a346043836113b8565b7f454950373132446f6d61696e28737472696e67206e616d652c75696e7432353681527f20636861696e49642c6164647265737320766572696679696e67436f6e74726160208201526263742960e81b604082015260430192915050565b6000614a9f603083615670565b7f476f7665726e6f72427261766f3a3a5f696e6974696174653a2063616e206f6e81526f6c7920696e697469617465206f6e636560801b602082015260400192915050565b6000614af1602c83615670565b7f476f7665726e6f72427261766f3a3a70726f706f73653a206d7573742070726f81526b7669646520616374696f6e7360a01b602082015260400192915050565b6000614b3f602e83615670565b7f476f7665726e6f72427261766f3a5f61636365707441646d696e3a2070656e6481526d696e672061646d696e206f6e6c7960901b602082015260400192915050565b6000614b8f602f83615670565b6000805160206157a483398151915281526e696420636f6d70206164647265737360881b602082015260400192915050565b6000614bce602f83615670565b7f476f7665726e6f72427261766f3a3a63616e63656c3a2070726f706f7365722081526e18589bdd99481d1a1c995cda1bdb19608a1b602082015260400192915050565b6000614c1f602883615670565b7f476f7665726e6f72427261766f3a3a70726f706f73653a20746f6f206d616e7981526720616374696f6e7360c01b602082015260400192915050565b6000614c69605983615670565b6000805160206157c483398151915281526000805160206157e483398151915260208201527808185b1c9958591e481c195b991a5b99c81c1c9bdc1bdcd85b603a1b604082015260600192915050565b6000614cc6605883615670565b6000805160206157c483398151915281526000805160206157e483398151915260208201527708185b1c9958591e481858dd1a5d99481c1c9bdc1bdcd85b60421b604082015260600192915050565b60006126b7600083615670565b6000614d2f602483615670565b7f476f7665726e6f72427261766f3a3a5f696e6974696174653a2061646d696e208152636f6e6c7960e01b602082015260400192915050565b6000614d75603f83615670565b7f476f7665726e6f72427261766f3a3a70726f706f73653a2070726f706f73657281527f20766f7465732062656c6f772070726f706f73616c207468726573686f6c6400602082015260400192915050565b6000614dd4603683615670565b7f476f7665726e6f72427261766f3a3a63616e63656c3a2063616e6e6f742063618152751b98d95b08195e1958dd5d1959081c1c9bdc1bdcd85b60521b602082015260400192915050565b6000614e2c603083615670565b60008051602061576483398151915281526f686f6c643a2061646d696e206f6e6c7960801b602082015260400192915050565b6000614e6c602983615670565b7f476f7665726e6f72427261766f3a3a73746174653a20696e76616c69642070728152681bdc1bdcd85b081a5960ba1b602082015260400192915050565b6000614eb7603083615670565b6000805160206157a483398151915281526f1a59081d9bdd1a5b99c81c195c9a5bd960821b602082015260400192915050565b6000614ef7601583615670565b747375627472616374696f6e20756e646572666c6f7760581b815260200192915050565b606082018151614f2b84826141e2565b506020820151614f3e6020850182614f51565b5060408201516119506040850182614f63565b61405d8161569f565b61405d816156ce565b61405d816156a5565b60006126b7826143ac565b6000614f828261461f565b9150614f8e82856141f4565b602082019150614f9e82846141f4565b5060200192915050565b60006126b782614a27565b602081016126b78284614063565b60408101614fcf8285614054565b612e0860208301846141eb565b60408101614fea8285614063565b612e086020830184614063565b60408101614fcf8285614063565b60a081016150138288614063565b61502060208301876141eb565b81810360408301526150328186614205565b905081810360608301526150468185614205565b905061505560808301846141eb565b9695505050505050565b60a0810161506d8288614063565b61507a60208301876141eb565b818103604083015261508c8186614308565b90508181036060830152615046818561423d565b608080825281016150b1818761406c565b905081810360208301526150c58186614194565b905081810360408301526150d98185614133565b9050818103606083015261505581846140c5565b602081016126b782846141eb565b6080810161510982876141eb565b61511660208301866141eb565b61512360408301856141eb565b6122ce6060830184614063565b6060810161513e82866141eb565b61514b60208301856141eb565b613c6c6040830184614f51565b6080810161516682876141eb565b6151736020830186614f51565b61518060408301856141eb565b6122ce60608301846141eb565b602081016126b782846142d4565b602081016126b782846142dd565b60208082528101612e088184614205565b602080825281016126b78161436a565b602080825281016126b7816143f6565b602080825281016126b78161444b565b602080825281016126b781614497565b602080825281016126b781614514565b602080825281016126b78161454f565b602080825281016126b781614592565b602080825281016126b7816145cc565b602080825281016126b78161463d565b602080825281016126b781614683565b602080825281016126b7816146c4565b602080825281016126b781614708565b602080825281016126b78161474c565b602080825281016126b781614791565b602080825281016126b7816147fe565b602080825281016126b78161484f565b602080825281016126b78161488e565b602080825281016126b7816148fa565b602080825281016126b781614941565b602080825281016126b78161498e565b602080825281016126b7816149fa565b602080825281016126b781614a92565b602080825281016126b781614ae4565b602080825281016126b781614b32565b602080825281016126b781614b82565b602080825281016126b781614bc1565b602080825281016126b781614c12565b602080825281016126b781614c5c565b602080825281016126b781614cb9565b602080825281016126b781614d22565b602080825281016126b781614d68565b602080825281016126b781614dc7565b602080825281016126b781614e1f565b602080825281016126b781614e5f565b602080825281016126b781614eaa565b602080825281016126b781614eea565b606081016126b78284614f1b565b6101208101615417828c6141eb565b615424602083018b614054565b8181036040830152615436818a61406c565b9050818103606083015261544a8189614194565b9050818103608083015261545e8188614133565b905081810360a083015261547281876140c5565b905061548160c08301866141eb565b61548e60e08301856141eb565b8181036101008301526154a18184614205565b9b9a5050505050505050505050565b61014081016154bf828d6141eb565b6154cc602083018c614063565b6154d9604083018b6141eb565b6154e6606083018a6141eb565b6154f360808301896141eb565b61550060a08301886141eb565b61550d60c08301876141eb565b61551a60e08301866141eb565b6155286101008301856141e2565b6154a16101208301846141e2565b60408101614fcf82856141eb565b6080810161555282886141eb565b61555f6020830187614f51565b61556c6040830186614f5a565b818103606083015261557f8184866142e6565b979650505050505050565b6080810161559882866141eb565b6155a56020830185614f51565b6155b26040830184614f5a565b81810360608301526122ce81614d15565b600060405190508181018181106001600160401b03821117156155ee576000806155eb613064565b50505b604052919050565b60006001600160401b0382111561561557600080615612613064565b50505b5060209081020190565b60006001600160401b0382111561563e5760008061563b613064565b50505b506020601f91909101601f19160190565b60200190565b600081815281906020902092915050565b6000815192915050565b90815260200190565b60006126b782615693565b151590565b806113b88161571b565b6001600160a01b031690565b60ff1690565b6001600160601b031690565b60006126b7825b60006126b782615679565b60006126b782615689565b60006126b7826156a5565b82818337506000910152565b60005b838110156157005780820151838201526020016156e8565b838111156119505750506000910152565b601f01601f191690565b600881106138f957fe5b61572e81615679565b81146138f95760008061312a613064565b61572e81615684565b61572e81612b31565b61572e8161569f565b61572e816156a556fe476f7665726e6f72427261766f3a3a5f73657450726f706f73616c5468726573476f7665726e6f72427261766f3a3a63617374566f7465496e7465726e616c3a476f7665726e6f72427261766f3a3a696e697469616c697a653a20696e76616c476f7665726e6f72427261766f3a3a70726f706f73653a206f6e65206c6976652070726f706f73616c207065722070726f706f7365722c20666f756e6420616eca4f2f25d0898edd99413412fb94012f9e54ec8142f9b093e7720646a95b16a9476f7665726e6f72427261766f3a3a5f736574566f74696e6744656c61793a20476f7665726e6f72427261766f3a3a5f736574566f74696e67506572696f643ab8e138887d0aa13bab447e82de9d5c1777041ecd21ca36ba824ff1e6c07ddda4",
  "deployedBytecode": "0x6080604052600436106101cb5760003560e01c8063013cf08b146101d957806302a251a31461022157806306fdde031461024c5780630ea2d98c14610277578063109d0af8146102a257806317977c61146102cd57806317ba1b8b146102f65780631dfb1b5a1461031f57806320606b7014610348578063215809ca1461036657806324bc1a641461038457806325fd935a146103a257806326782247146103c0578063328dd982146103eb5780633932abb1146104245780633bccf4fd146104425780633e4f49e61461046b57806340e58ee5146104a157806356781388146104ca5780635c60da1b146104f3578063791f5d23146105115780637b3c71d31461052f5780637bdbe4d014610558578063878f148214610576578063a64e024a14610594578063b1126263146105b2578063b58131b0146105d0578063b71d1a0c146105ee578063d13f90b414610617578063d33219b414610640578063da35c6641461065e578063da95691a1461067c578063ddf0b009146106a5578063deaaa7cc146106ce578063e23a9a52146106ec578063e48083fe14610722578063e9c714f214610740578063f851a4401461075e578063fc4eee421461077c578063fe0d94c11461079a575b6000806101d6613064565b50505b3480156101ee576000806101eb613064565b50505b506102026101fd366004613e96565b6107ad565b6040516102189a999897969594939291906154b0565b60405180910390f35b34801561023657600080610233613064565b50505b5061023f61086b565b60405161021891906150ed565b3480156102615760008061025e613064565b50505b5061026a610878565b60405161021891906151a9565b34801561028c57600080610289613064565b50505b506102a061029b366004613e96565b6108a9565b005b3480156102b7576000806102b4613064565b50505b506102c06109b4565b604051610218919061518d565b3480156102e2576000806102df613064565b50505b5061023f6102f1366004613c45565b6109d3565b34801561030b57600080610308613064565b50505b506102a061031a366004613e96565b6109eb565b34801561033457600080610331613064565b50505b506102a0610343366004613e96565b610aeb565b34801561035d5760008061035a613064565b50505b5061023f610bda565b34801561037b57600080610378613064565b50505b5061023f610bf1565b34801561039957600080610396613064565b50505b5061023f610bf7565b3480156103b7576000806103b4613064565b50505b5061023f610c05565b3480156103d5576000806103d2613064565b50505b506103de610c13565b6040516102189190614fb3565b348015610400576000806103fd613064565b50505b5061041461040f366004613e96565b610c1f565b60405161021894939291906150a0565b34801561043957600080610436613064565b50505b5061023f610f45565b34801561045757600080610454613064565b50505b506102a0610466366004613fb2565b610f4f565b3480156104805760008061047d613064565b50505b5061049461048f366004613e96565b61117d565b604051610218919061519b565b3480156104b6576000806104b3613064565b50505b506102a06104c5366004613e96565b6113bd565b3480156104df576000806104dc613064565b50505b506102a06104ee366004613f00565b61174a565b34801561050857600080610505613064565b50505b506103de61179b565b34801561052657600080610523613064565b50505b5061023f6117a7565b34801561054457600080610541613064565b50505b506102a0610553366004613f39565b6117b5565b34801561056d5760008061056a613064565b50505b5061023f61180c565b34801561058b57600080610588613064565b50505b506102a0611811565b3480156105a9576000806105a6613064565b50505b5061023f611956565b3480156105c7576000806105c4613064565b50505b5061023f61195d565b3480156105e5576000806105e2613064565b50505b5061023f611963565b34801561060357600080610600613064565b50505b506102a0610612366004613c45565b61196d565b34801561062c57600080610629613064565b50505b506102a061063b366004613c74565b611a47565b34801561065557600080610652613064565b50505b506102c0611ce8565b34801561067357600080610670613064565b50505b5061023f611cf4565b3480156106915760008061068e613064565b50505b5061023f6106a0366004613cf2565b611cfe565b3480156106ba576000806106b7613064565b50505b506102a06106c9366004613e96565b6122d7565b3480156106e3576000806106e0613064565b50505b5061023f612610565b348015610701576000806106fe613064565b50505b50610715610710366004613ebd565b61261c565b60405161021891906153fa565b34801561073757600080610734613064565b50505b5061023f6126bd565b34801561075557600080610752613064565b50505b506102a06126c2565b34801561077357600080610770613064565b50505b506103de61289d565b3480156107915760008061078e613064565b50505b5061023f6128a8565b6102a06107a8366004613e96565b6128b2565b600a6020528060005260406000209050806107c66130cf565b906000600182016107d56130cf565b906101000a90046001600160a01b031690806002016107f26130cf565b90806007016107ff6130cf565b908060080161080c6130cf565b90806009016108196130cf565b9080600a016108266130cf565b9080600b016108336130cf565b906000600c82016108426130cf565b906101000a900460ff169080600c0160019061085c6130cf565b906101000a900460ff1690508a565b60046108756130cf565b81565b604051604080820190526017815276436f6d706f756e6420476f7665726e6f7220427261766f60481b602082015281565b6000806108b46130cf565b906101000a90046001600160a01b03166001600160a01b03165a6108d661312f565b6001600160a01b03161461090e5760405162461bcd60e51b81526004016108fc906151fa565b6040518091039061090b613064565b50505b6116808110158015610923575062013b008111155b6109515760405162461bcd60e51b815260040161093f9061523a565b6040518091039061094e613064565b50505b6000600461095d6130cf565b90508180600461096b613175565b5050507f7e3f7f0708a84de9203036abaa450dccc85ad5ff52f78c170f3edb55cf5e882881600461099a6130cf565b6040516109a8929190615536565b60405180910390a15050565b600060096109c06130cf565b906101000a90046001600160a01b031681565b600b60205280600052604060002090506108756130cf565b6000806109f66130cf565b906101000a90046001600160a01b03166001600160a01b03165a610a1861312f565b6001600160a01b031614610a505760405162461bcd60e51b8152600401610a3e906153ba565b60405180910390610a4d613064565b50505b690a968163f0a57b4000008110158015610a74575069152d02c7e14af68000008111155b610aa25760405162461bcd60e51b8152600401610a90906152da565b60405180910390610a9f613064565b50505b60006005610aae6130cf565b905081806005610abc613175565b5050507fccb45da8d5717e6c4544694297c4ba5cf151d455c9bb0ed4fc7a38411bc0546181600561099a6130cf565b600080610af66130cf565b906101000a90046001600160a01b03166001600160a01b03165a610b1861312f565b6001600160a01b031614610b505760405162461bcd60e51b8152600401610b3e9061521a565b60405180910390610b4d613064565b50505b60018110158015610b635750619d808111155b610b915760405162461bcd60e51b8152600401610b7f9061526a565b60405180910390610b8e613064565b50505b60006003610b9d6130cf565b905081806003610bab613175565b5050507fc565b045403dc03c2eea82b81a0465edad9e2e7fc4d97e11421c209da93d7a9381600361099a6130cf565b604051610be690614fa8565b604051809103902081565b61168081565b6954b40b1f852bda00000081565b69152d02c7e14af680000081565b600060016109c06130cf565b6000818152600a602052606090819081908190604081209050806003018160040182600501836006018380610c526130cf565b806020026020016040519081016040528181529190602083018280610c756130cf565b8015610cc257602002820191906000526020600020905b600082610c976130cf565b906101000a90046001600160a01b03166001600160a01b031681526020019060010190808311610c8c575b505050505093508280610cd36130cf565b806020026020016040519081016040528181529190602083018280610cf66130cf565b8015610d2857602002820191906000526020600020905b81610d166130cf565b81526020019060010190808311610d0d575b505050505092508180610d396130cf565b8060200260200160405190810160405281815291906000602084015b82821015610e2c5783829060005260206000200180610d726130cf565b600181600116156101000203166002900480601f016020809104026020016040519081016040528181529190602083018280610dac6130cf565b60018160011615610100020316600290048015610e185780601f10610de6576101008083610dd86130cf565b040283529160200191610e18565b820191906000526020600020905b81610dfd6130cf565b81529060010190602001808311610df457829003601f168201915b505050505081526020019060010190610d55565b5050505091508080610e3c6130cf565b8060200260200160405190810160405281815291906000602084015b82821015610f2f5783829060005260206000200180610e756130cf565b600181600116156101000203166002900480601f016020809104026020016040519081016040528181529190602083018280610eaf6130cf565b60018160011615610100020316600290048015610f1b5780601f10610ee9576101008083610edb6130cf565b040283529160200191610f1b565b820191906000526020600020905b81610f006130cf565b81529060010190602001808311610ef757829003601f168201915b505050505081526020019060010190610e58565b5050505090509450945094509450509193509193565b60036108756130cf565b6000604051610f5d90614fa8565b6040518091039020604051604080820190526017815276436f6d706f756e6420476f7665726e6f7220427261766f60481b602082015280519060200120610fa2612b21565b5a63996d79a5598160e01b8152602081600483336000905af158601d01573d60011458600c01573d6000803e3d621234565260ea61109c528051925060005b6040811015610ff857600082820152602001610fe1565b50505060405160200161100e94939291906150fb565b604051602081830303815290604052805190602001209050600060405161103490614f6c565b6040518091039020878760405160200161105093929190615130565b6040516020818303038152906040528051906020012090506000828260405160200161107d929190614f77565b6040516020818303038152906040528051906020012090506000600182888888604051600081526020016040526040516110ba9493929190615158565b6020604051602081039080840390855a6110d26131c3565b50505050501580156110f1573d6000803e3d60006110ee613064565b50505b5050506020604051035190506001600160a01b0381166111355760405162461bcd60e51b81526004016111239061529a565b60405180910390611132613064565b50505b806001600160a01b03166000805160206158648339815191528a8a61115b858e8e612b34565b60405161116a9392919061558a565b60405180910390a2505050505050505050565b600081600761118a6130cf565b101580156111a05750600661119d6130cf565b82115b6111ce5760405162461bcd60e51b81526004016111bc906153ca565b604051809103906111cb613064565b50505b6000828152600a6020526040812090506000600c82016111ec6130cf565b906101000a900460ff16156112055760029150506113b8565b806007016112116130cf565b5a61121a6132ae565b116112295760009150506113b8565b806008016112356130cf565b5a61123e6132ae565b1161124d5760019150506113b8565b80600a016112596130cf565b816009016112656130cf565b11158061128657506954b40b1f852bda000000816009016112846130cf565b105b156112955760039150506113b8565b806002016112a16130cf565b6112af5760049150506113b8565b6001600c82016112bd6130cf565b906101000a900460ff16156112d65760079150506113b8565b61139a816002016112e56130cf565b600060086112f16130cf565b906101000a90046001600160a01b03166001600160a01b031663c1a287e26040518163ffffffff1660e01b815260040160206040518083038186806113346132f4565b15801561134957600080611346613064565b50505b505a6113536131c3565b5050505050158015611372573d6000803e3d600061136f613064565b50505b50505050604051601f3d908101601f191682016040526113959190810190613e29565b612e0f565b5a6113a3613340565b106113b25760069150506113b8565b60059150505b919050565b60076113c88261117d565b60078111156113d357fe5b14156114035760405162461bcd60e51b81526004016113f1906153aa565b60405180910390611400613064565b50505b6000818152600a6020526040812090506000600182016114216130cf565b906101000a90046001600160a01b03166001600160a01b03165a61144361312f565b6001600160a01b0316148061154d5750600561145d6130cf565b600060096114696130cf565b6001600160a01b036101009290920a90041663782d6fe160006001850161148e6130cf565b906101000a90046001600160a01b03166114b15a6114aa6132ae565b6001612e4c565b6040518363ffffffff1660e01b81526004016114ce929190614ff7565b60206040518083038186806114e16132f4565b1580156114f6576000806114f3613064565b50505b505a6115006131c3565b505050505015801561151f573d6000803e3d600061151c613064565b50505b50505050604051601f3d908101601f191682016040526115429190810190614001565b6001600160601b0316105b61157b5760405162461bcd60e51b81526004016115699061534a565b60405180910390611578613064565b50505b6001600c8201818161158b6130cf565b8160ff021916908315150217906115a0613175565b5060009150505b81600301806115b46130cf565b905081101561171a57600060086115c96130cf565b906101000a90046001600160a01b03166001600160a01b031663591fcdfe8360030183816115f56130cf565b81106115fd57fe5b906000526020600020016000906116126130cf565b906101000a90046001600160a01b03168460040184816116306130cf565b811061163857fe5b9060005260206000200161164a6130cf565b8560050185816116586130cf565b811061166057fe5b906000526020600020018660060186816116786130cf565b811061168057fe5b90600052602060002001876002016116966130cf565b6040518663ffffffff1660e01b81526004016116b695949392919061505f565b600060405180830381600087806116cb6132f4565b1580156116e0576000806116dd613064565b50505b505a6116ea613386565b50505050505015801561170a573d6000803e3d6000611707613064565b50505b5050600190920191506115a79050565b507f789cf55be980739dad1d0699b93b58e806b51c9d96619bfa8fe0a28abaa7b30c826040516109a891906150ed565b5a61175361312f565b6001600160a01b031660008051602061586483398151915283836117805a61177961312f565b8787612b34565b60405161178f9392919061558a565b60405180910390a25050565b600060026109c06130cf565b690a968163f0a57b40000081565b5a6117be61312f565b6001600160a01b031660008051602061586483398151915285856117eb5a6117e461312f565b8989612b34565b86866040516117fe959493929190615544565b60405180910390a250505050565b600a81565b60008061181c6130cf565b906101000a90046001600160a01b03166001600160a01b03165a61183e61312f565b6001600160a01b0316146118765760405162461bcd60e51b81526004016118649061538a565b60405180910390611873613064565b50505b60066118806130cf565b156118af5760405162461bcd60e51b815260040161189d9061530a565b604051809103906118ac613064565b50505b60018060066118bc613175565b50505060086000906118cc6130cf565b906101000a90046001600160a01b03166001600160a01b0316630e18b6816040518163ffffffff1660e01b8152600401600060405180830381600087806119116132f4565b15801561192657600080611923613064565b50505b505a611930613386565b505050505050158015611950573d6000803e3d600061194d613064565b50505b50505050565b62013b0081565b619d8081565b60056108756130cf565b6000806119786130cf565b906101000a90046001600160a01b03166001600160a01b03165a61199a61312f565b6001600160a01b0316146119d25760405162461bcd60e51b81526004016119c0906151da565b604051809103906119cf613064565b50505b60008060016119df6130cf565b906101000a90046001600160a01b0316905081600160006101000a81611a036130cf565b816001600160a01b0302191690836001600160a01b0316021790611a25613175565b50505060008051602061580483398151915281836040516109a8929190614fdc565b6000806008611a546130cf565b906101000a90046001600160a01b03166001600160a01b031614611a9c5760405162461bcd60e51b8152600401611a8a906151ca565b60405180910390611a99613064565b50505b600080611aa76130cf565b906101000a90046001600160a01b03166001600160a01b03165a611ac961312f565b6001600160a01b031614611b015760405162461bcd60e51b8152600401611aef906152ca565b60405180910390611afe613064565b50505b6001600160a01b038516611b395760405162461bcd60e51b8152600401611b279061520a565b60405180910390611b36613064565b50505b6001600160a01b038416611b715760405162461bcd60e51b8152600401611b5f9061533a565b60405180910390611b6e613064565b50505b6116808310158015611b86575062013b008311155b611bb45760405162461bcd60e51b8152600401611ba2906153da565b60405180910390611bb1613064565b50505b60018210158015611bc75750619d808211155b611bf55760405162461bcd60e51b8152600401611be3906152aa565b60405180910390611bf2613064565b50505b690a968163f0a57b4000008110158015611c19575069152d02c7e14af68000008111155b611c475760405162461bcd60e51b8152600401611c359061527a565b60405180910390611c44613064565b50505b846008600181611c556130cf565b816001600160a01b0302191690836001600160a01b0316021790611c77613175565b50505083600960006101000a81611c8c6130cf565b816001600160a01b0302191690836001600160a01b0316021790611cae613175565b5050508260048190611cbe613175565b5050508160038190611cce613175565b5050508060058190611cde613175565b5050505050505050565b600060086109c06130cf565b60076108756130cf565b60006006611d0a6130cf565b611d385760405162461bcd60e51b8152600401611d269061522a565b60405180910390611d35613064565b50505b6005611d426130cf565b60006009611d4e6130cf565b906101000a90046001600160a01b03166001600160a01b031663782d6fe15a611d7561312f565b611d815a6114aa6132ae565b6040518363ffffffff1660e01b8152600401611d9e929190614fc1565b6020604051808303818680611db16132f4565b158015611dc657600080611dc3613064565b50505b505a611dd06131c3565b5050505050158015611def573d6000803e3d6000611dec613064565b50505b50505050604051601f3d908101601f19168201604052611e129190810190614001565b6001600160601b031611611e4a5760405162461bcd60e51b8152600401611e389061539a565b60405180910390611e47613064565b50505b84518651148015611e5c575083518651145b8015611e69575082518651145b611e975760405162461bcd60e51b8152600401611e85906152ba565b60405180910390611e94613064565b50505b8551611ec75760405162461bcd60e51b8152600401611eb59061531a565b60405180910390611ec4613064565b50505b600a86511115611efb5760405162461bcd60e51b8152600401611ee99061535a565b60405180910390611ef8613064565b50505b6000600b60005a611f0a61312f565b6001600160a01b03166001600160a01b03168152602001908152602001600020611f326130cf565b90508015611fc5576000611f458261117d565b90506001816007811115611f5557fe5b1415611f855760405162461bcd60e51b8152600401611f739061537a565b60405180910390611f82613064565b50505b6000816007811115611f9357fe5b1415611fc35760405162461bcd60e51b8152600401611fb19061536a565b60405180910390611fc0613064565b50505b505b6000611fdd5a611fd36132ae565b60036113956130cf565b90506000611fef8260046113956130cf565b90506007600081611ffe6130cf565b9160018301915061200d613175565b50505061201861344c565b604051806101c00160405280600761202e6130cf565b81526020015a61203c61312f565b6001600160a01b03168152602001600081526020018b81526020018a815260200189815260200188815260200184815260200183815260200160008152602001600081526020016000815260200160001515815260200160001515815250905080600a6000836000015181526020019081526020016000208151816120bf613175565b50506020820151600180830190816120d56130cf565b816001600160a01b0302191690836001600160a01b03160217906120f7613175565b50505060408201518160020161210b613175565b50506060820151816003019080516121279291602001906134c8565b50608082015181600401908051612142929160200190613552565b5060a08201518160050190805161215d9291602001906135b2565b5060c08201518160060190805161217892916020019061361a565b5060e08201518160070161218a613175565b50506101008201518160080161219e613175565b5050610120820151816009016121b2613175565b505061014082015181600a016121c6613175565b505061016082015181600b016121da613175565b5050610180820151600c82016001816121f16130cf565b8160ff02191690831515021790612206613175565b5050506101a0820151600c82016101008161221f6130cf565b8160ff02191690831515021790612234613175565b5084935050505051600b600083602001516001600160a01b03166001600160a01b03168152602001908152602001600020819061226f613175565b5050507f7d84a6263ae0d98d3329bd7b46bb4e8d6f98cd35a7adb45c274c8b7fd5ebd5e081600001515a6122a161312f565b8c8c8c8c89898e6040516122bd99989796959493929190615408565b60405180910390a180519450505050505b95945050505050565b60046122e28261117d565b60078111156122ed57fe5b1461231c5760405162461bcd60e51b815260040161230a906152ea565b60405180910390612319613064565b50505b6000818152600a60205260408120905060006123895a61233a613340565b600060086123466130cf565b906101000a90046001600160a01b03166001600160a01b0316636a42b8f86040518163ffffffff1660e01b815260040160206040518083038186806113346132f4565b905060005b826003018061239b6130cf565b90508110156125c0576125b88360030182816123b56130cf565b81106123bd57fe5b906000526020600020016000906123d26130cf565b906101000a90046001600160a01b03168460040183816123f06130cf565b81106123f857fe5b9060005260206000200161240a6130cf565b8560050184816124186130cf565b811061242057fe5b90600052602060002001806124336130cf565b600181600116156101000203166002900480601f01602080910402602001604051908101604052818152919060208301828061246d6130cf565b600181600116156101000203166002900480156124d95780601f106124a75761010080836124996130cf565b0402835291602001916124d9565b820191906000526020600020905b816124be6130cf565b815290600101906020018083116124b557829003601f168201915b50505050508660060185816124ec6130cf565b81106124f457fe5b90600052602060002001806125076130cf565b600181600116156101000203166002900480601f0160208091040260200160405190810160405281815291906020830182806125416130cf565b600181600116156101000203166002900480156125ad5780601f1061257b57610100808361256d6130cf565b0402835291602001916125ad565b820191906000526020600020905b816125926130cf565b8152906001019060200180831161258957829003601f168201915b505050505086612e86565b60010161238e565b508080600284016125cf613175565b5050507f9a2e42fd6722813d69113e7d0079d3d940171428df7373df9c7f7617cfda28928382604051612603929190615536565b60405180910390a1505050565b604051610be690614f6c565b612624613682565b6000838152600a602052604090206001600160a01b0383166000908152600d91909101602052604090206040516060810160405290816000826126656130cf565b60ff6101009290920a900416151581526020016001826126836130cf565b60ff6101009290920a900416815260200160028261269f6130cf565b6001600160601b036101009290920a90041690525090505b92915050565b600181565b600060016126ce6130cf565b906101000a90046001600160a01b03166001600160a01b03165a6126f061312f565b6001600160a01b0316148015612718575060005a61270c61312f565b6001600160a01b031614155b6127465760405162461bcd60e51b81526004016127349061532a565b60405180910390612743613064565b50505b600080806127526130cf565b906101000a90046001600160a01b03169050600060016000906127736130cf565b906101000a90046001600160a01b0316905060016000906127926130cf565b906101000a90046001600160a01b03166000806101000a816127b26130cf565b816001600160a01b0302191690836001600160a01b03160217906127d4613175565b5050506000600160006101000a816127ea6130cf565b816001600160a01b0302191690836001600160a01b031602179061280c613175565b5050507ff9ffabca9c8276e99321725bcb43fb076a6c66a54b7f21c4e8146d8519b417dc826000809061283d6130cf565b906101000a90046001600160a01b031660405161285b929190614fdc565b60405180910390a1600080516020615804833981519152816000600161287f6130cf565b906101000a90046001600160a01b03166040516109a8929190614fdc565b6000806109c06130cf565b60066108756130cf565b60056128bd8261117d565b60078111156128c857fe5b146128f75760405162461bcd60e51b81526004016128e59061528a565b604051809103906128f4613064565b50505b6000818152600a6020526040812090506001600c8201610100816129196130cf565b8160ff0219169083151502179061292e613175565b5060009150505b81600301806129426130cf565b9050811015612af157600060086129576130cf565b906101000a90046001600160a01b03166001600160a01b0316630825f38f8360040183816129836130cf565b811061298b57fe5b9060005260206000200161299d6130cf565b8460030184816129ab6130cf565b81106129b357fe5b906000526020600020016000906129c86130cf565b906101000a90046001600160a01b03168560040185816129e66130cf565b81106129ee57fe5b90600052602060002001612a006130cf565b866005018681612a0e6130cf565b8110612a1657fe5b90600052602060002001876006018781612a2e6130cf565b8110612a3657fe5b9060005260206000200188600201612a4c6130cf565b6040518763ffffffff1660e01b8152600401612a6c95949392919061505f565b600060405180830381858880612a806132f4565b158015612a9557600080612a92613064565b50505b505a612a9f613386565b505050505050158015612abf573d6000803e3d6000612abc613064565b50505b50505050506040513d6000823e601f3d908101601f19168201604052612ae89190810190613e50565b50600101612935565b507f712ae1383f79ac853f8d882153778e0260ef8f03b504e2866e0593e04d2b291f826040516109a891906150ed565b6000805a612b2d6136a1565b9150505b90565b60006001612b418461117d565b6007811115612b4c57fe5b14612b7b5760405162461bcd60e51b8152600401612b699061524a565b60405180910390612b78613064565b50505b60028260ff161115612bb15760405162461bcd60e51b8152600401612b9f906151ba565b60405180910390612bae613064565b50505b6000838152600a602052604081206001600160a01b0386166000908152600d8201602052909150604081209050600081612be96130cf565b60ff6101009290920a90041615612c245760405162461bcd60e51b8152600401612c129061525a565b60405180910390612c21613064565b50505b6000806009612c316130cf565b906101000a90046001600160a01b03166001600160a01b031663782d6fe18885600701612c5c6130cf565b6040518363ffffffff1660e01b8152600401612c79929190614ff7565b6020604051808303818680612c8c6132f4565b158015612ca157600080612c9e613064565b50505b505a612cab6131c3565b5050505050158015612cca573d6000803e3d6000612cc7613064565b50505b50505050604051601f3d908101601f19168201604052612ced9190810190614001565b905060ff8516612d2a57612d1583600a01612d066130cf565b826001600160601b0316612e0f565b80600a8501612d22613175565b505050612d7e565b8460ff1660011415612d5257612d4583600901612d066130cf565b8060098501612d22613175565b8460ff1660021415612d7e57612d6d83600b01612d066130cf565b80600b8501612d7a613175565b5050505b6001828181612d8b6130cf565b8160ff02191690831515021790612da0613175565b5086915083905061010081612db36130cf565b8160ff021916908360ff16021790612dc9613175565b508291508390506201000081612ddd6130cf565b816001600160601b0302191690836001600160601b0316021790612dff613175565b50919450505050505b9392505050565b600082820183811015612e085760405162461bcd60e51b8152600401612e34906152fa565b60405180910390612e43613064565b50509392505050565b600082821115612e805760405162461bcd60e51b8152600401612e6e906153ea565b60405180910390612e7d613064565b50505b50900390565b60006008612e926130cf565b906101000a90046001600160a01b03166001600160a01b031663f2b065378686868686604051602001612ec9959493929190615005565b604051602081830303815290604052805190602001206040518263ffffffff1660e01b8152600401612efb91906150ed565b6020604051808303818680612f0e6132f4565b158015612f2357600080612f20613064565b50505b505a612f2d6131c3565b5050505050158015612f4c573d6000803e3d6000612f49613064565b50505b50505050604051601f3d908101601f19168201604052612f6f9190810190613e02565b15612f9e5760405162461bcd60e51b8152600401612f8c906151ea565b60405180910390612f9b613064565b50505b60006008612faa6130cf565b906101000a90046001600160a01b03166001600160a01b0316633a66f90186868686866040518663ffffffff1660e01b8152600401612fed959493929190615005565b602060405180830381600087806130026132f4565b15801561301757600080613014613064565b50505b505a613021613386565b505050505050158015613041573d6000803e3d600061303e613064565b50505b50505050604051601f3d908101601f1916820160405261194d9190810190613e29565b632a2a7adb598160e01b8152600481016020815285602082015260005b8681101561309c578086015182820160400152602001613081565b506020828760640184336000905af158601d01573d60011458600c01573d6000803e3d621234565260ea61109c52505050565b6303daa959598160e01b8152836004820152602081602483336000905af158601d01573d60011458600c01573d6000803e3d621234565260ea61109c528051935060005b604081101561312a57600082820152602001613113565b505050565b6373509064598160e01b8152602081600483336000905af158601d01573d60011458600c01573d6000803e3d621234565260ea61109c5280516000825293506020613113565b6322bd64c0598160e01b8152836004820152846024820152600081604483336000905af158601d01573d60011458600c01573d6000803e3d621234565260ea61109c52600081526020613113565b638540661f598160e01b81526131f4565b80808311156126b7575090919050565b80808310156126b7575090919050565b836004820152846024820152606060448201528660648201526084810160005b8881101561322c578088015182820152602001613214565b506060828960a40184336000905af158601d01573d60011458600c01573d6000803e3d621234565260ea61109c52815160408301513d6000853e8b8b82606087013350600060045af150596132818d3d6131e4565b8c0161328d81876131d4565b5b828110156132a2576000815260200161328e565b50929c50505050505050565b635a98c361598160e01b8152602081600483336000905af158601d01573d60011458600c01573d6000803e3d621234565260ea61109c5280516000825293506020613113565b638435035b598160e01b8152836004820152602081602483336000905af158601d01573d60011458600c01573d6000803e3d621234565260ea61109c5280516000825293506020613113565b63bdbf8c36598160e01b8152602081600483336000905af158601d01573d60011458600c01573d6000803e3d621234565260ea61109c5280516000825293506020613113565b6385979f76598160e01b8152836004820152846024820152606060448201528760648201526084810160005b898110156133ca5780890151828201526020016133b2565b506060828a60a40184336000905af158601d01573d60011458600c01573d6000803e3d621234565260ea61109c52815160408301513d6000853e8c8c82606087013350600060045af1505961341f8e3d6131e4565b8d0161342b81876131d4565b5b82811015613440576000815260200161342c565b50929d50505050505050565b604051806101c001604052806000815260200160006001600160a01b03168152602001600081526020016060815260200160608152602001606081526020016060815260200160008152602001600081526020016000815260200160008152602001600081526020016000151581526020016000151581525090565b82806134d26130cf565b82826134dc613175565b5050906000526020600020908101928215613542579160200282015b828111156135425782518260018161350e6130cf565b816001600160a01b0302191690836001600160a01b0316021790613530613175565b505050916020019190600101906134f8565b5061354e9291506136e7565b5090565b828061355c6130cf565b8282613566613175565b50509060005260206000209081019282156135a6579160200282015b828111156135a657825182613595613175565b505091602001919060010190613582565b5061354e929150613723565b82806135bc6130cf565b82826135c6613175565b505090600052602060002090810192821561360e579160200282015b8281111561360e578251829080516135fe929160200190613748565b50916020019190600101906135e2565b5061354e9291506137d8565b82806136246130cf565b828261362e613175565b5050906000526020600020908101928215613676579160200282015b82811115613676578251829080516136669291602001906137fb565b509160200191906001019061364a565b5061354e929150613884565b6040516060810160409081526000808352602083018190529082015290565b6390580256598160e01b8152602081600483336000905af158601d01573d60011458600c01573d6000803e3d621234565260ea61109c5280516000825293506020613113565b612b3191905b8082111561354e576000816001816137036130cf565b906001600160a01b0302191690613718613175565b5050506001016136ed565b612b3191905b8082111561354e576000808261373d613175565b505050600101613729565b82806137526130cf565b600181600116156101000203166002900490600052602060002090601f016020900481019282601f1061379957805160ff19168380011785613792613175565b50506135a6565b828001600101856137a8613175565b505082156135a6579182015b828111156135a6578251826137c7613175565b5050916020019190600101906137b4565b612b3191905b8082111561354e5760006137f282826138a7565b506001016137de565b82806138056130cf565b600181600116156101000203166002900490600052602060002090601f016020900481019282601f1061384557805160ff19168380011785613792613175565b82800160010185613854613175565b505082156135a6579182015b828111156135a657825182613873613175565b505091602001919060010190613860565b612b3191905b8082111561354e57600061389e82826138a7565b5060010161388a565b50806138b16130cf565b60018160011615610100020316600290046000826138cd613175565b505080601f106138dd57506138f9565b601f01602090049060005260206000206138f991810190613723565b50565b80356126b781615725565b600082601f8301126139215760008061391e613064565b50505b813561393461392f826155f6565b6155c3565b915081818352602084019350602081019050838560208402820111156139625760008061395f613064565b50505b60005b8381101561398e578161397888826138fc565b8452506020928301929190910190600101613965565b5050505092915050565b600082601f8301126139b2576000806139af613064565b50505b81356139c061392f826155f6565b81815260209384019390925082018360005b8381101561398e57813586016139e88882613b0f565b84525060209283019291909101906001016139d2565b600082601f830112613a1857600080613a15613064565b50505b8135613a2661392f826155f6565b81815260209384019390925082018360005b8381101561398e5781358601613a4e8882613b0f565b8452506020928301929190910190600101613a38565b600082601f830112613a7e57600080613a7b613064565b50505b8135613a8c61392f826155f6565b91508181835260208401935060208101905083856020840282011115613aba57600080613ab7613064565b50505b60005b8381101561398e5781613ad08882613af5565b8452506020928301929190910190600101613abd565b6000815190506126b78161573f565b80356126b781615748565b6000815190506126b781615748565b600082601f830112613b2957600080613b26613064565b50505b8135613b3761392f8261561f565b91508082526020830160208301858383011115613b5c57600080613b59613064565b50505b613b678382846156d9565b50505092915050565b600082601f830112613b8a57600080613b87613064565b50505b8151613b9861392f8261561f565b91508082526020830160208301858383011115613bbd57600080613bba613064565b50505b613b678382846156e5565b60008083601f840112613be357600080613be0613064565b50505b5081356001600160401b03811115613c0357600080613c00613064565b50505b602083019150836001820283011115613c2457600080613c21613064565b50505b9250929050565b80356126b781615751565b6000815190506126b78161575a565b600060208284031215613c6057600080613c5d613064565b50505b6000613c6c84846138fc565b949350505050565b600080600080600060a08688031215613c9557600080613c92613064565b50505b6000613ca188886138fc565b9550506020613cb2888289016138fc565b9450506040613cc388828901613af5565b9350506060613cd488828901613af5565b9250506080613ce588828901613af5565b9150509295509295909350565b600080600080600060a08688031215613d1357600080613d10613064565b50505b85356001600160401b03811115613d3257600080613d2f613064565b50505b613d3e88828901613907565b95505060208601356001600160401b03811115613d6357600080613d60613064565b50505b613d6f88828901613a64565b94505060408601356001600160401b03811115613d9457600080613d91613064565b50505b613da0888289016139fe565b93505060608601356001600160401b03811115613dc557600080613dc2613064565b50505b613dd188828901613998565b92505060808601356001600160401b03811115613df657600080613df3613064565b50505b613ce588828901613b0f565b600060208284031215613e1d57600080613e1a613064565b50505b6000613c6c8484613ae6565b600060208284031215613e4457600080613e41613064565b50505b6000613c6c8484613b00565b600060208284031215613e6b57600080613e68613064565b50505b81516001600160401b03811115613e8a57600080613e87613064565b50505b613c6c84828501613b70565b600060208284031215613eb157600080613eae613064565b50505b6000613c6c8484613af5565b60008060408385031215613ed957600080613ed6613064565b50505b6000613ee58585613af5565b9250506020613ef6858286016138fc565b9150509250929050565b60008060408385031215613f1c57600080613f19613064565b50505b6000613f288585613af5565b9250506020613ef685828601613c2b565b60008060008060608587031215613f5857600080613f55613064565b50505b6000613f648787613af5565b9450506020613f7587828801613c2b565b93505060408501356001600160401b03811115613f9a57600080613f97613064565b50505b613fa687828801613bc8565b95989497509550505050565b600080600080600060a08688031215613fd357600080613fd0613064565b50505b6000613fdf8888613af5565b9550506020613ff088828901613c2b565b9450506040613cc388828901613c2b565b60006020828403121561401c57600080614019613064565b50505b6000613c6c8484613c36565b60006140348383614063565b505060200190565b6000612e088383614205565b600061403483836141eb565b61405d816156b1565b82525050565b61405d81615679565b600061407782615666565b6140818185615670565b935061408c8361564f565b8060005b838110156140ba5781516140a48882614028565b97506140af8361564f565b925050600101614090565b509495945050505050565b60006140d082615666565b6140da8185615670565b9350836020820285016140ec8561564f565b8060005b858110156141265784840389528151614109858261403c565b94506141148361564f565b60209a909a01999250506001016140f0565b5091979650505050505050565b600061413e82615666565b6141488185615670565b93508360208202850161415a8561564f565b8060005b858110156141265784840389528151614177858261403c565b94506141828361564f565b60209a909a019992505060010161415e565b600061419f82615666565b6141a98185615670565b93506141b48361564f565b8060005b838110156140ba5781516141cc8882614048565b97506141d78361564f565b9250506001016141b8565b61405d81615684565b61405d81612b31565b61405d61420082612b31565b612b31565b600061421082615666565b61421a8185615670565b935061422a8185602086016156e5565b61423381615711565b9093019392505050565b6000816142486130cf565b60018116801561425f5760018114614285576142cc565b607f60028304166142708187615670565b60ff19841681529550506020850192506142cc565b600282046142938187615670565b955061429e85615655565b60005b828110156142c557816142b26130cf565b88820152600191909101906020016142a1565b8701945050505b505092915050565b61405d816156b8565b61405d816156c3565b60006142f28385615670565b93506142ff8385846156d9565b61423383615711565b6000816143136130cf565b60018116801561425f576001811461432a576142cc565b600282046143388187615670565b955061434385615655565b60005b828110156142c557816143576130cf565b8882015260019190910190602001614346565b6000614377603283615670565b60008051602061578483398151915281527120696e76616c696420766f7465207479706560701b602082015260400192915050565b60006143b96028836113b8565b7f42616c6c6f742875696e743235362070726f706f73616c49642c75696e743820815267737570706f72742960c01b602082015260280192915050565b6000614403603383615670565b7f476f7665726e6f72427261766f3a3a696e697469616c697a653a2063616e206f8152726e6c7920696e697469616c697a65206f6e636560681b602082015260400192915050565b6000614458602a83615670565b7f476f7665726e6f72427261766f3a5f73657450656e64696e6741646d696e3a2081526961646d696e206f6e6c7960b01b602082015260400192915050565b60006144a4605583615670565b7f476f7665726e6f72427261766f3a3a71756575654f72526576657274496e746581527f726e616c3a206964656e746963616c2070726f706f73616c20616374696f6e20602082015274616c7265616479207175657565642061742065746160581b604082015260600192915050565b6000614521602b83615670565b60008051602061584483398151915281526a2061646d696e206f6e6c7960a81b602082015260400192915050565b600061455c603383615670565b6000805160206157a483398151915281527269642074696d656c6f636b206164647265737360681b602082015260400192915050565b600061459f602a83615670565b60008051602061582483398151915281526961646d696e206f6e6c7960b01b602082015260400192915050565b60006145d9603183615670565b7f476f7665726e6f72427261766f3a3a70726f706f73653a20476f7665726e6f7281527020427261766f206e6f742061637469766560781b602082015260400192915050565b600061462c6002836113b8565b61190160f01b815260020192915050565b600061464a603683615670565b600080516020615844833981519152815275081a5b9d985b1a59081d9bdd1a5b99c81c195c9a5bd960521b602082015260400192915050565b6000614690603183615670565b600080516020615784833981519152815270081d9bdd1a5b99c81a5cc818db1bdcd959607a1b602082015260400192915050565b60006146d1603483615670565b600080516020615784833981519152815273081d9bdd195c88185b1c9958591e481d9bdd195960621b602082015260400192915050565b6000614715603483615670565b600080516020615824833981519152815273696e76616c696420766f74696e672064656c617960601b602082015260400192915050565b6000614759603583615670565b6000805160206157a48339815191528152741a59081c1c9bdc1bdcd85b081d1a1c995cda1bdb19605a1b602082015260400192915050565b600061479e604583615670565b7f476f7665726e6f72427261766f3a3a657865637574653a2070726f706f73616c81527f2063616e206f6e6c7920626520657865637574656420696620697420697320716020820152641d595d595960da1b604082015260600192915050565b600061480b602f83615670565b7f476f7665726e6f72427261766f3a3a63617374566f746542795369673a20696e81526e76616c6964207369676e617475726560881b602082015260400192915050565b600061485c602f83615670565b6000805160206157a483398151915281526e696420766f74696e672064656c617960881b602082015260400192915050565b600061489b604483615670565b7f476f7665726e6f72427261766f3a3a70726f706f73653a2070726f706f73616c81527f2066756e6374696f6e20696e666f726d6174696f6e206172697479206d69736d6020820152630c2e8c6d60e31b604082015260600192915050565b6000614907602583615670565b7f476f7665726e6f72427261766f3a3a696e697469616c697a653a2061646d696e815264206f6e6c7960d81b602082015260400192915050565b600061494e604083615670565b60008051602061576483398151915281527f686f6c643a20696e76616c69642070726f706f73616c207468726573686f6c64602082015260400192915050565b600061499b604483615670565b7f476f7665726e6f72427261766f3a3a71756575653a2070726f706f73616c206381527f616e206f6e6c79206265207175657565642069662069742069732073756363656020820152631959195960e21b604082015260600192915050565b6000614a07601183615670565b706164646974696f6e206f766572666c6f7760781b815260200192915050565b6000614a346043836113b8565b7f454950373132446f6d61696e28737472696e67206e616d652c75696e7432353681527f20636861696e49642c6164647265737320766572696679696e67436f6e74726160208201526263742960e81b604082015260430192915050565b6000614a9f603083615670565b7f476f7665726e6f72427261766f3a3a5f696e6974696174653a2063616e206f6e81526f6c7920696e697469617465206f6e636560801b602082015260400192915050565b6000614af1602c83615670565b7f476f7665726e6f72427261766f3a3a70726f706f73653a206d7573742070726f81526b7669646520616374696f6e7360a01b602082015260400192915050565b6000614b3f602e83615670565b7f476f7665726e6f72427261766f3a5f61636365707441646d696e3a2070656e6481526d696e672061646d696e206f6e6c7960901b602082015260400192915050565b6000614b8f602f83615670565b6000805160206157a483398151915281526e696420636f6d70206164647265737360881b602082015260400192915050565b6000614bce602f83615670565b7f476f7665726e6f72427261766f3a3a63616e63656c3a2070726f706f7365722081526e18589bdd99481d1a1c995cda1bdb19608a1b602082015260400192915050565b6000614c1f602883615670565b7f476f7665726e6f72427261766f3a3a70726f706f73653a20746f6f206d616e7981526720616374696f6e7360c01b602082015260400192915050565b6000614c69605983615670565b6000805160206157c483398151915281526000805160206157e483398151915260208201527808185b1c9958591e481c195b991a5b99c81c1c9bdc1bdcd85b603a1b604082015260600192915050565b6000614cc6605883615670565b6000805160206157c483398151915281526000805160206157e483398151915260208201527708185b1c9958591e481858dd1a5d99481c1c9bdc1bdcd85b60421b604082015260600192915050565b60006126b7600083615670565b6000614d2f602483615670565b7f476f7665726e6f72427261766f3a3a5f696e6974696174653a2061646d696e208152636f6e6c7960e01b602082015260400192915050565b6000614d75603f83615670565b7f476f7665726e6f72427261766f3a3a70726f706f73653a2070726f706f73657281527f20766f7465732062656c6f772070726f706f73616c207468726573686f6c6400602082015260400192915050565b6000614dd4603683615670565b7f476f7665726e6f72427261766f3a3a63616e63656c3a2063616e6e6f742063618152751b98d95b08195e1958dd5d1959081c1c9bdc1bdcd85b60521b602082015260400192915050565b6000614e2c603083615670565b60008051602061576483398151915281526f686f6c643a2061646d696e206f6e6c7960801b602082015260400192915050565b6000614e6c602983615670565b7f476f7665726e6f72427261766f3a3a73746174653a20696e76616c69642070728152681bdc1bdcd85b081a5960ba1b602082015260400192915050565b6000614eb7603083615670565b6000805160206157a483398151915281526f1a59081d9bdd1a5b99c81c195c9a5bd960821b602082015260400192915050565b6000614ef7601583615670565b747375627472616374696f6e20756e646572666c6f7760581b815260200192915050565b606082018151614f2b84826141e2565b506020820151614f3e6020850182614f51565b5060408201516119506040850182614f63565b61405d8161569f565b61405d816156ce565b61405d816156a5565b60006126b7826143ac565b6000614f828261461f565b9150614f8e82856141f4565b602082019150614f9e82846141f4565b5060200192915050565b60006126b782614a27565b602081016126b78284614063565b60408101614fcf8285614054565b612e0860208301846141eb565b60408101614fea8285614063565b612e086020830184614063565b60408101614fcf8285614063565b60a081016150138288614063565b61502060208301876141eb565b81810360408301526150328186614205565b905081810360608301526150468185614205565b905061505560808301846141eb565b9695505050505050565b60a0810161506d8288614063565b61507a60208301876141eb565b818103604083015261508c8186614308565b90508181036060830152615046818561423d565b608080825281016150b1818761406c565b905081810360208301526150c58186614194565b905081810360408301526150d98185614133565b9050818103606083015261505581846140c5565b602081016126b782846141eb565b6080810161510982876141eb565b61511660208301866141eb565b61512360408301856141eb565b6122ce6060830184614063565b6060810161513e82866141eb565b61514b60208301856141eb565b613c6c6040830184614f51565b6080810161516682876141eb565b6151736020830186614f51565b61518060408301856141eb565b6122ce60608301846141eb565b602081016126b782846142d4565b602081016126b782846142dd565b60208082528101612e088184614205565b602080825281016126b78161436a565b602080825281016126b7816143f6565b602080825281016126b78161444b565b602080825281016126b781614497565b602080825281016126b781614514565b602080825281016126b78161454f565b602080825281016126b781614592565b602080825281016126b7816145cc565b602080825281016126b78161463d565b602080825281016126b781614683565b602080825281016126b7816146c4565b602080825281016126b781614708565b602080825281016126b78161474c565b602080825281016126b781614791565b602080825281016126b7816147fe565b602080825281016126b78161484f565b602080825281016126b78161488e565b602080825281016126b7816148fa565b602080825281016126b781614941565b602080825281016126b78161498e565b602080825281016126b7816149fa565b602080825281016126b781614a92565b602080825281016126b781614ae4565b602080825281016126b781614b32565b602080825281016126b781614b82565b602080825281016126b781614bc1565b602080825281016126b781614c12565b602080825281016126b781614c5c565b602080825281016126b781614cb9565b602080825281016126b781614d22565b602080825281016126b781614d68565b602080825281016126b781614dc7565b602080825281016126b781614e1f565b602080825281016126b781614e5f565b602080825281016126b781614eaa565b602080825281016126b781614eea565b606081016126b78284614f1b565b6101208101615417828c6141eb565b615424602083018b614054565b8181036040830152615436818a61406c565b9050818103606083015261544a8189614194565b9050818103608083015261545e8188614133565b905081810360a083015261547281876140c5565b905061548160c08301866141eb565b61548e60e08301856141eb565b8181036101008301526154a18184614205565b9b9a5050505050505050505050565b61014081016154bf828d6141eb565b6154cc602083018c614063565b6154d9604083018b6141eb565b6154e6606083018a6141eb565b6154f360808301896141eb565b61550060a08301886141eb565b61550d60c08301876141eb565b61551a60e08301866141eb565b6155286101008301856141e2565b6154a16101208301846141e2565b60408101614fcf82856141eb565b6080810161555282886141eb565b61555f6020830187614f51565b61556c6040830186614f5a565b818103606083015261557f8184866142e6565b979650505050505050565b6080810161559882866141eb565b6155a56020830185614f51565b6155b26040830184614f5a565b81810360608301526122ce81614d15565b600060405190508181018181106001600160401b03821117156155ee576000806155eb613064565b50505b604052919050565b60006001600160401b0382111561561557600080615612613064565b50505b5060209081020190565b60006001600160401b0382111561563e5760008061563b613064565b50505b506020601f91909101601f19160190565b60200190565b600081815281906020902092915050565b6000815192915050565b90815260200190565b60006126b782615693565b151590565b806113b88161571b565b6001600160a01b031690565b60ff1690565b6001600160601b031690565b60006126b7825b60006126b782615679565b60006126b782615689565b60006126b7826156a5565b82818337506000910152565b60005b838110156157005780820151838201526020016156e8565b838111156119505750506000910152565b601f01601f191690565b600881106138f957fe5b61572e81615679565b81146138f95760008061312a613064565b61572e81615684565b61572e81612b31565b61572e8161569f565b61572e816156a556fe476f7665726e6f72427261766f3a3a5f73657450726f706f73616c5468726573476f7665726e6f72427261766f3a3a63617374566f7465496e7465726e616c3a476f7665726e6f72427261766f3a3a696e697469616c697a653a20696e76616c476f7665726e6f72427261766f3a3a70726f706f73653a206f6e65206c6976652070726f706f73616c207065722070726f706f7365722c20666f756e6420616eca4f2f25d0898edd99413412fb94012f9e54ec8142f9b093e7720646a95b16a9476f7665726e6f72427261766f3a3a5f736574566f74696e6744656c61793a20476f7665726e6f72427261766f3a3a5f736574566f74696e67506572696f643ab8e138887d0aa13bab447e82de9d5c1777041ecd21ca36ba824ff1e6c07ddda4",
  "source": "pragma solidity ^0.5.16;\npragma experimental ABIEncoderV2;\n\nimport \"./GovernorBravoInterfaces.sol\";\n\ncontract GovernorBravoDelegate is GovernorBravoDelegateStorageV1, GovernorBravoEvents {\n\n    /// @notice The name of this contract\n    string public constant name = \"Compound Governor Bravo\";\n\n    /// @notice The minimum setable proposal threshold\n    uint public constant MIN_PROPOSAL_THRESHOLD = 50000e18; // 50,000 Comp\n\n    /// @notice The maximum setable proposal threshold\n    uint public constant MAX_PROPOSAL_THRESHOLD = 100000e18; //100,000 Comp\n\n    /// @notice The minimum setable voting period\n    uint public constant MIN_VOTING_PERIOD = 5760; // About 24 hours\n\n    /// @notice The max setable voting period\n    uint public constant MAX_VOTING_PERIOD = 80640; // About 2 weeks\n\n    /// @notice The min setable voting delay\n    uint public constant MIN_VOTING_DELAY = 1;\n\n    /// @notice The max setable voting delay\n    uint public constant MAX_VOTING_DELAY = 40320; // About 1 week\n\n    /// @notice The number of votes in support of a proposal required in order for a quorum to be reached and for a vote to succeed\n    uint public constant quorumVotes = 400000e18; // 400,000 = 4% of Comp\n\n    /// @notice The maximum number of actions that can be included in a proposal\n    uint public constant proposalMaxOperations = 10; // 10 actions\n\n    /// @notice The EIP-712 typehash for the contract's domain\n    bytes32 public constant DOMAIN_TYPEHASH = keccak256(\"EIP712Domain(string name,uint256 chainId,address verifyingContract)\");\n\n    /// @notice The EIP-712 typehash for the ballot struct used by the contract\n    bytes32 public constant BALLOT_TYPEHASH = keccak256(\"Ballot(uint256 proposalId,uint8 support)\");\n\n    /**\n      * @notice Used to initialize the contract during delegator contructor\n      * @param timelock_ The address of the Timelock\n      * @param comp_ The address of the COMP token\n      * @param votingPeriod_ The initial voting period\n      * @param votingDelay_ The initial voting delay\n      * @param proposalThreshold_ The initial proposal threshold\n      */\n    function initialize(address timelock_, address comp_, uint votingPeriod_, uint votingDelay_, uint proposalThreshold_) public {\n        require(address(timelock) == address(0), \"GovernorBravo::initialize: can only initialize once\");\n        require(msg.sender == admin, \"GovernorBravo::initialize: admin only\");\n        require(timelock_ != address(0), \"GovernorBravo::initialize: invalid timelock address\");\n        require(comp_ != address(0), \"GovernorBravo::initialize: invalid comp address\");\n        require(votingPeriod_ >= MIN_VOTING_PERIOD && votingPeriod_ <= MAX_VOTING_PERIOD, \"GovernorBravo::initialize: invalid voting period\");\n        require(votingDelay_ >= MIN_VOTING_DELAY && votingDelay_ <= MAX_VOTING_DELAY, \"GovernorBravo::initialize: invalid voting delay\");\n        require(proposalThreshold_ >= MIN_PROPOSAL_THRESHOLD && proposalThreshold_ <= MAX_PROPOSAL_THRESHOLD, \"GovernorBravo::initialize: invalid proposal threshold\");\n\n        timelock = TimelockInterface(timelock_);\n        comp = CompInterface(comp_);\n        votingPeriod = votingPeriod_;\n        votingDelay = votingDelay_;\n        proposalThreshold = proposalThreshold_;\n    }\n\n    /**\n      * @notice Function used to propose a new proposal. Sender must have delegates above the proposal threshold\n      * @param targets Target addresses for proposal calls\n      * @param values Eth values for proposal calls\n      * @param signatures Function signatures for proposal calls\n      * @param calldatas Calldatas for proposal calls\n      * @param description String description of the proposal\n      * @return Proposal id of new proposal\n      */\n    function propose(address[] memory targets, uint[] memory values, string[] memory signatures, bytes[] memory calldatas, string memory description) public returns (uint) {\n        // Reject proposals before initiating as Governor\n        require(initialProposalId != 0, \"GovernorBravo::propose: Governor Bravo not active\");\n        require(comp.getPriorVotes(msg.sender, sub256(block.number, 1)) > proposalThreshold, \"GovernorBravo::propose: proposer votes below proposal threshold\");\n        require(targets.length == values.length && targets.length == signatures.length && targets.length == calldatas.length, \"GovernorBravo::propose: proposal function information arity mismatch\");\n        require(targets.length != 0, \"GovernorBravo::propose: must provide actions\");\n        require(targets.length <= proposalMaxOperations, \"GovernorBravo::propose: too many actions\");\n\n        uint latestProposalId = latestProposalIds[msg.sender];\n        if (latestProposalId != 0) {\n          ProposalState proposersLatestProposalState = state(latestProposalId);\n          require(proposersLatestProposalState != ProposalState.Active, \"GovernorBravo::propose: one live proposal per proposer, found an already active proposal\");\n          require(proposersLatestProposalState != ProposalState.Pending, \"GovernorBravo::propose: one live proposal per proposer, found an already pending proposal\");\n        }\n\n        uint startBlock = add256(block.number, votingDelay);\n        uint endBlock = add256(startBlock, votingPeriod);\n\n        proposalCount++;\n        Proposal memory newProposal = Proposal({\n            id: proposalCount,\n            proposer: msg.sender,\n            eta: 0,\n            targets: targets,\n            values: values,\n            signatures: signatures,\n            calldatas: calldatas,\n            startBlock: startBlock,\n            endBlock: endBlock,\n            forVotes: 0,\n            againstVotes: 0,\n            abstainVotes: 0,\n            canceled: false,\n            executed: false\n        });\n\n        proposals[newProposal.id] = newProposal;\n        latestProposalIds[newProposal.proposer] = newProposal.id;\n\n        emit ProposalCreated(newProposal.id, msg.sender, targets, values, signatures, calldatas, startBlock, endBlock, description);\n        return newProposal.id;\n    }\n\n    /**\n      * @notice Queues a proposal of state succeeded\n      * @param proposalId The id of the proposal to queue\n      */\n    function queue(uint proposalId) external {\n        require(state(proposalId) == ProposalState.Succeeded, \"GovernorBravo::queue: proposal can only be queued if it is succeeded\");\n        Proposal storage proposal = proposals[proposalId];\n        uint eta = add256(block.timestamp, timelock.delay());\n        for (uint i = 0; i < proposal.targets.length; i++) {\n            queueOrRevertInternal(proposal.targets[i], proposal.values[i], proposal.signatures[i], proposal.calldatas[i], eta);\n        }\n        proposal.eta = eta;\n        emit ProposalQueued(proposalId, eta);\n    }\n\n    function queueOrRevertInternal(address target, uint value, string memory signature, bytes memory data, uint eta) internal {\n        require(!timelock.queuedTransactions(keccak256(abi.encode(target, value, signature, data, eta))), \"GovernorBravo::queueOrRevertInternal: identical proposal action already queued at eta\");\n        timelock.queueTransaction(target, value, signature, data, eta);\n    }\n\n    /**\n      * @notice Executes a queued proposal if eta has passed\n      * @param proposalId The id of the proposal to execute\n      */\n    function execute(uint proposalId) external payable {\n        require(state(proposalId) == ProposalState.Queued, \"GovernorBravo::execute: proposal can only be executed if it is queued\");\n        Proposal storage proposal = proposals[proposalId];\n        proposal.executed = true;\n        for (uint i = 0; i < proposal.targets.length; i++) {\n            timelock.executeTransaction.value(proposal.values[i])(proposal.targets[i], proposal.values[i], proposal.signatures[i], proposal.calldatas[i], proposal.eta);\n        }\n        emit ProposalExecuted(proposalId);\n    }\n\n    /**\n      * @notice Cancels a proposal only if sender is the proposer, or proposer delegates dropped below proposal threshold\n      * @param proposalId The id of the proposal to cancel\n      */\n    function cancel(uint proposalId) external {\n        require(state(proposalId) != ProposalState.Executed, \"GovernorBravo::cancel: cannot cancel executed proposal\");\n\n        Proposal storage proposal = proposals[proposalId];\n        require(msg.sender == proposal.proposer || comp.getPriorVotes(proposal.proposer, sub256(block.number, 1)) < proposalThreshold, \"GovernorBravo::cancel: proposer above threshold\");\n\n        proposal.canceled = true;\n        for (uint i = 0; i < proposal.targets.length; i++) {\n            timelock.cancelTransaction(proposal.targets[i], proposal.values[i], proposal.signatures[i], proposal.calldatas[i], proposal.eta);\n        }\n\n        emit ProposalCanceled(proposalId);\n    }\n\n    /**\n      * @notice Gets actions of a proposal\n      * @param proposalId the id of the proposal\n      * @return Targets, values, signatures, and calldatas of the proposal actions\n      */\n    function getActions(uint proposalId) external view returns (address[] memory targets, uint[] memory values, string[] memory signatures, bytes[] memory calldatas) {\n        Proposal storage p = proposals[proposalId];\n        return (p.targets, p.values, p.signatures, p.calldatas);\n    }\n\n    /**\n      * @notice Gets the receipt for a voter on a given proposal\n      * @param proposalId the id of proposal\n      * @param voter The address of the voter\n      * @return The voting receipt\n      */\n    function getReceipt(uint proposalId, address voter) external view returns (Receipt memory) {\n        return proposals[proposalId].receipts[voter];\n    }\n\n    /**\n      * @notice Gets the state of a proposal\n      * @param proposalId The id of the proposal\n      * @return Proposal state\n      */\n    function state(uint proposalId) public view returns (ProposalState) {\n        require(proposalCount >= proposalId && proposalId > initialProposalId, \"GovernorBravo::state: invalid proposal id\");\n        Proposal storage proposal = proposals[proposalId];\n        if (proposal.canceled) {\n            return ProposalState.Canceled;\n        } else if (block.number <= proposal.startBlock) {\n            return ProposalState.Pending;\n        } else if (block.number <= proposal.endBlock) {\n            return ProposalState.Active;\n        } else if (proposal.forVotes <= proposal.againstVotes || proposal.forVotes < quorumVotes) {\n            return ProposalState.Defeated;\n        } else if (proposal.eta == 0) {\n            return ProposalState.Succeeded;\n        } else if (proposal.executed) {\n            return ProposalState.Executed;\n        } else if (block.timestamp >= add256(proposal.eta, timelock.GRACE_PERIOD())) {\n            return ProposalState.Expired;\n        } else {\n            return ProposalState.Queued;\n        }\n    }\n\n    /**\n      * @notice Cast a vote for a proposal\n      * @param proposalId The id of the proposal to vote on\n      * @param support The support value for the vote. 0=against, 1=for, 2=abstain\n      */\n    function castVote(uint proposalId, uint8 support) external {\n        emit VoteCast(msg.sender, proposalId, support, castVoteInternal(msg.sender, proposalId, support), \"\");\n    }\n\n    /**\n      * @notice Cast a vote for a proposal with a reason\n      * @param proposalId The id of the proposal to vote on\n      * @param support The support value for the vote. 0=against, 1=for, 2=abstain\n      * @param reason The reason given for the vote by the voter\n      */\n    function castVoteWithReason(uint proposalId, uint8 support, string calldata reason) external {\n        emit VoteCast(msg.sender, proposalId, support, castVoteInternal(msg.sender, proposalId, support), reason);\n    }\n\n    /**\n      * @notice Cast a vote for a proposal by signature\n      * @dev External function that accepts EIP-712 signatures for voting on proposals.\n      */\n    function castVoteBySig(uint proposalId, uint8 support, uint8 v, bytes32 r, bytes32 s) external {\n        bytes32 domainSeparator = keccak256(abi.encode(DOMAIN_TYPEHASH, keccak256(bytes(name)), getChainIdInternal(), address(this)));\n        bytes32 structHash = keccak256(abi.encode(BALLOT_TYPEHASH, proposalId, support));\n        bytes32 digest = keccak256(abi.encodePacked(\"\\x19\\x01\", domainSeparator, structHash));\n        address signatory = ecrecover(digest, v, r, s);\n        require(signatory != address(0), \"GovernorBravo::castVoteBySig: invalid signature\");\n        emit VoteCast(signatory, proposalId, support, castVoteInternal(signatory, proposalId, support), \"\");\n    }\n\n    /**\n      * @notice Internal function that caries out voting logic\n      * @param voter The voter that is casting their vote\n      * @param proposalId The id of the proposal to vote on\n      * @param support The support value for the vote. 0=against, 1=for, 2=abstain\n      * @return The number of votes cast\n      */\n    function castVoteInternal(address voter, uint proposalId, uint8 support) internal returns (uint96) {\n        require(state(proposalId) == ProposalState.Active, \"GovernorBravo::castVoteInternal: voting is closed\");\n        require(support <= 2, \"GovernorBravo::castVoteInternal: invalid vote type\");\n        Proposal storage proposal = proposals[proposalId];\n        Receipt storage receipt = proposal.receipts[voter];\n        require(receipt.hasVoted == false, \"GovernorBravo::castVoteInternal: voter already voted\");\n        uint96 votes = comp.getPriorVotes(voter, proposal.startBlock);\n\n        if (support == 0) {\n            proposal.againstVotes = add256(proposal.againstVotes, votes);\n        } else if (support == 1) {\n            proposal.forVotes = add256(proposal.forVotes, votes);\n        } else if (support == 2) {\n            proposal.abstainVotes = add256(proposal.abstainVotes, votes);\n        }\n\n        receipt.hasVoted = true;\n        receipt.support = support;\n        receipt.votes = votes;\n\n        return votes;\n    }\n\n    /**\n      * @notice Admin function for setting the voting delay\n      * @param newVotingDelay new voting delay, in blocks\n      */\n    function _setVotingDelay(uint newVotingDelay) external {\n        require(msg.sender == admin, \"GovernorBravo::_setVotingDelay: admin only\");\n        require(newVotingDelay >= MIN_VOTING_DELAY && newVotingDelay <= MAX_VOTING_DELAY, \"GovernorBravo::_setVotingDelay: invalid voting delay\");\n        uint oldVotingDelay = votingDelay;\n        votingDelay = newVotingDelay;\n\n        emit VotingDelaySet(oldVotingDelay,votingDelay);\n    }\n\n    /**\n      * @notice Admin function for setting the voting period\n      * @param newVotingPeriod new voting period, in blocks\n      */\n    function _setVotingPeriod(uint newVotingPeriod) external {\n        require(msg.sender == admin, \"GovernorBravo::_setVotingPeriod: admin only\");\n        require(newVotingPeriod >= MIN_VOTING_PERIOD && newVotingPeriod <= MAX_VOTING_PERIOD, \"GovernorBravo::_setVotingPeriod: invalid voting period\");\n        uint oldVotingPeriod = votingPeriod;\n        votingPeriod = newVotingPeriod;\n\n        emit VotingPeriodSet(oldVotingPeriod, votingPeriod);\n    }\n\n    /**\n      * @notice Admin function for setting the proposal threshold\n      * @dev newProposalThreshold must be greater than the hardcoded min\n      * @param newProposalThreshold new proposal threshold\n      */\n    function _setProposalThreshold(uint newProposalThreshold) external {\n        require(msg.sender == admin, \"GovernorBravo::_setProposalThreshold: admin only\");\n        require(newProposalThreshold >= MIN_PROPOSAL_THRESHOLD && newProposalThreshold <= MAX_PROPOSAL_THRESHOLD, \"GovernorBravo::_setProposalThreshold: invalid proposal threshold\");\n        uint oldProposalThreshold = proposalThreshold;\n        proposalThreshold = newProposalThreshold;\n\n        emit ProposalThresholdSet(oldProposalThreshold, proposalThreshold);\n    }\n\n    /**\n      * @notice Initiate the GovernorBravo contract\n      * @dev Admin only. Sets initial proposal id which initiates the contract, ensuring a continuous proposal id count\n      * DELETE param governorAlpha\n      */\n    function _initiate(/*address governorAlpha*/) external {\n        require(msg.sender == admin, \"GovernorBravo::_initiate: admin only\");\n        require(initialProposalId == 0, \"GovernorBravo::_initiate: can only initiate once\");\n        //proposalCount = GovernorAlpha(governorAlpha).proposalCount();\n        initialProposalId = 1; //proposalCount;\n        timelock.acceptAdmin();\n    }\n\n    /**\n      * @notice Begins transfer of admin rights. The newPendingAdmin must call `_acceptAdmin` to finalize the transfer.\n      * @dev Admin function to begin change of admin. The newPendingAdmin must call `_acceptAdmin` to finalize the transfer.\n      * @param newPendingAdmin New pending admin.\n      */\n    function _setPendingAdmin(address newPendingAdmin) external {\n        // Check caller = admin\n        require(msg.sender == admin, \"GovernorBravo:_setPendingAdmin: admin only\");\n\n        // Save current value, if any, for inclusion in log\n        address oldPendingAdmin = pendingAdmin;\n\n        // Store pendingAdmin with value newPendingAdmin\n        pendingAdmin = newPendingAdmin;\n\n        // Emit NewPendingAdmin(oldPendingAdmin, newPendingAdmin)\n        emit NewPendingAdmin(oldPendingAdmin, newPendingAdmin);\n    }\n\n    /**\n      * @notice Accepts transfer of admin rights. msg.sender must be pendingAdmin\n      * @dev Admin function for pending admin to accept role and update admin\n      */\n    function _acceptAdmin() external {\n        // Check caller is pendingAdmin and pendingAdmin  address(0)\n        require(msg.sender == pendingAdmin && msg.sender != address(0), \"GovernorBravo:_acceptAdmin: pending admin only\");\n\n        // Save current values for inclusion in log\n        address oldAdmin = admin;\n        address oldPendingAdmin = pendingAdmin;\n\n        // Store admin with value pendingAdmin\n        admin = pendingAdmin;\n\n        // Clear the pending value\n        pendingAdmin = address(0);\n\n        emit NewAdmin(oldAdmin, admin);\n        emit NewPendingAdmin(oldPendingAdmin, pendingAdmin);\n    }\n\n    function add256(uint256 a, uint256 b) internal pure returns (uint) {\n        uint c = a + b;\n        require(c >= a, \"addition overflow\");\n        return c;\n    }\n\n    function sub256(uint256 a, uint256 b) internal pure returns (uint) {\n        require(b <= a, \"subtraction underflow\");\n        return a - b;\n    }\n\n    function getChainIdInternal() internal pure returns (uint) {\n        uint chainId;\n        assembly { chainId := chainid() }\n        return chainId;\n    }\n}",
  "sourcePath": "/Users/jesusmeza/Developer/omgx/optimism/omgx_examples/compound-bravo/contracts/GovernorBravoDelegate.sol",
  "compiler": {
    "name": "solc",
    "version": "0.5.16"
  },
  "schemaVersion": "3.4.2",
  "updatedAt": "2021-08-09T18:31:01.244Z",
  "networkType": "ethereum",
  "devdoc": {
    "methods": {
      "_acceptAdmin()": {
        "details": "Admin function for pending admin to accept role and update admin"
      },
      "_initiate()": {
        "details": "Admin only. Sets initial proposal id which initiates the contract, ensuring a continuous proposal id count DELETE param governorAlpha"
      },
      "_setPendingAdmin(address)": {
        "details": "Admin function to begin change of admin. The newPendingAdmin must call `_acceptAdmin` to finalize the transfer.",
        "params": {
          "newPendingAdmin": "New pending admin."
        }
      },
      "_setProposalThreshold(uint256)": {
        "details": "newProposalThreshold must be greater than the hardcoded min",
        "params": {
          "newProposalThreshold": "new proposal threshold"
        }
      },
      "_setVotingDelay(uint256)": {
        "params": {
          "newVotingDelay": "new voting delay, in blocks"
        }
      },
      "_setVotingPeriod(uint256)": {
        "params": {
          "newVotingPeriod": "new voting period, in blocks"
        }
      },
      "cancel(uint256)": {
        "params": {
          "proposalId": "The id of the proposal to cancel"
        }
      },
      "castVote(uint256,uint8)": {
        "params": {
          "proposalId": "The id of the proposal to vote on",
          "support": "The support value for the vote. 0=against, 1=for, 2=abstain"
        }
      },
      "castVoteBySig(uint256,uint8,uint8,bytes32,bytes32)": {
        "details": "External function that accepts EIP-712 signatures for voting on proposals."
      },
      "castVoteWithReason(uint256,uint8,string)": {
        "params": {
          "proposalId": "The id of the proposal to vote on",
          "reason": "The reason given for the vote by the voter",
          "support": "The support value for the vote. 0=against, 1=for, 2=abstain"
        }
      },
      "execute(uint256)": {
        "params": {
          "proposalId": "The id of the proposal to execute"
        }
      },
      "getActions(uint256)": {
        "params": {
          "proposalId": "the id of the proposal"
        },
        "return": "Targets, values, signatures, and calldatas of the proposal actions"
      },
      "getReceipt(uint256,address)": {
        "params": {
          "proposalId": "the id of proposal",
          "voter": "The address of the voter"
        },
        "return": "The voting receipt"
      },
      "initialize(address,address,uint256,uint256,uint256)": {
        "params": {
          "comp_": "The address of the COMP token",
          "proposalThreshold_": "The initial proposal threshold",
          "timelock_": "The address of the Timelock",
          "votingDelay_": "The initial voting delay",
          "votingPeriod_": "The initial voting period"
        }
      },
      "propose(address[],uint256[],string[],bytes[],string)": {
        "params": {
          "calldatas": "Calldatas for proposal calls",
          "description": "String description of the proposal",
          "signatures": "Function signatures for proposal calls",
          "targets": "Target addresses for proposal calls",
          "values": "Eth values for proposal calls"
        },
        "return": "Proposal id of new proposal"
      },
      "queue(uint256)": {
        "params": {
          "proposalId": "The id of the proposal to queue"
        }
      },
      "state(uint256)": {
        "params": {
          "proposalId": "The id of the proposal"
        },
        "return": "Proposal state"
      }
    }
  },
  "userdoc": {
    "methods": {
      "_acceptAdmin()": {
        "notice": "Accepts transfer of admin rights. msg.sender must be pendingAdmin"
      },
      "_initiate()": {
        "notice": "Initiate the GovernorBravo contract"
      },
      "_setPendingAdmin(address)": {
        "notice": "Begins transfer of admin rights. The newPendingAdmin must call `_acceptAdmin` to finalize the transfer."
      },
      "_setProposalThreshold(uint256)": {
        "notice": "Admin function for setting the proposal threshold"
      },
      "_setVotingDelay(uint256)": {
        "notice": "Admin function for setting the voting delay"
      },
      "_setVotingPeriod(uint256)": {
        "notice": "Admin function for setting the voting period"
      },
      "cancel(uint256)": {
        "notice": "Cancels a proposal only if sender is the proposer, or proposer delegates dropped below proposal threshold"
      },
      "castVote(uint256,uint8)": {
        "notice": "Cast a vote for a proposal"
      },
      "castVoteBySig(uint256,uint8,uint8,bytes32,bytes32)": {
        "notice": "Cast a vote for a proposal by signature"
      },
      "castVoteWithReason(uint256,uint8,string)": {
        "notice": "Cast a vote for a proposal with a reason"
      },
      "execute(uint256)": {
        "notice": "Executes a queued proposal if eta has passed"
      },
      "getActions(uint256)": {
        "notice": "Gets actions of a proposal"
      },
      "getReceipt(uint256,address)": {
        "notice": "Gets the receipt for a voter on a given proposal"
      },
      "initialize(address,address,uint256,uint256,uint256)": {
        "notice": "Used to initialize the contract during delegator contructor"
      },
      "propose(address[],uint256[],string[],bytes[],string)": {
        "notice": "Function used to propose a new proposal. Sender must have delegates above the proposal threshold"
      },
      "queue(uint256)": {
        "notice": "Queues a proposal of state succeeded"
      },
      "state(uint256)": {
        "notice": "Gets the state of a proposal"
      }
    }
  }
}