{
  "contractName": "GovernorBravoDelegateStorageV1",
  "abi": [
    {
      "constant": true,
      "inputs": [],
      "name": "admin",
      "outputs": [
        {
          "internalType": "address",
          "name": "",
          "type": "address"
        }
      ],
      "payable": false,
      "stateMutability": "view",
      "type": "function"
    },
    {
      "constant": true,
      "inputs": [],
      "name": "ctoken",
      "outputs": [
        {
          "internalType": "contract CTokenInterface",
          "name": "",
          "type": "address"
        }
      ],
      "payable": false,
      "stateMutability": "view",
      "type": "function"
    },
    {
      "constant": true,
      "inputs": [],
      "name": "implementation",
      "outputs": [
        {
          "internalType": "address",
          "name": "",
          "type": "address"
        }
      ],
      "payable": false,
      "stateMutability": "view",
      "type": "function"
    },
    {
      "constant": true,
      "inputs": [],
      "name": "initialProposalId",
      "outputs": [
        {
          "internalType": "uint256",
          "name": "",
          "type": "uint256"
        }
      ],
      "payable": false,
      "stateMutability": "view",
      "type": "function"
    },
    {
      "constant": true,
      "inputs": [
        {
          "internalType": "address",
          "name": "",
          "type": "address"
        }
      ],
      "name": "latestProposalIds",
      "outputs": [
        {
          "internalType": "uint256",
          "name": "",
          "type": "uint256"
        }
      ],
      "payable": false,
      "stateMutability": "view",
      "type": "function"
    },
    {
      "constant": true,
      "inputs": [],
      "name": "pendingAdmin",
      "outputs": [
        {
          "internalType": "address",
          "name": "",
          "type": "address"
        }
      ],
      "payable": false,
      "stateMutability": "view",
      "type": "function"
    },
    {
      "constant": true,
      "inputs": [],
      "name": "proposalCount",
      "outputs": [
        {
          "internalType": "uint256",
          "name": "",
          "type": "uint256"
        }
      ],
      "payable": false,
      "stateMutability": "view",
      "type": "function"
    },
    {
      "constant": true,
      "inputs": [],
      "name": "proposalThreshold",
      "outputs": [
        {
          "internalType": "uint256",
          "name": "",
          "type": "uint256"
        }
      ],
      "payable": false,
      "stateMutability": "view",
      "type": "function"
    },
    {
      "constant": true,
      "inputs": [
        {
          "internalType": "uint256",
          "name": "",
          "type": "uint256"
        }
      ],
      "name": "proposals",
      "outputs": [
        {
          "internalType": "uint256",
          "name": "id",
          "type": "uint256"
        },
        {
          "internalType": "address",
          "name": "proposer",
          "type": "address"
        },
        {
          "internalType": "uint256",
          "name": "eta",
          "type": "uint256"
        },
        {
          "internalType": "uint256",
          "name": "startBlock",
          "type": "uint256"
        },
        {
          "internalType": "uint256",
          "name": "endBlock",
          "type": "uint256"
        },
        {
          "internalType": "uint256",
          "name": "forVotes",
          "type": "uint256"
        },
        {
          "internalType": "uint256",
          "name": "againstVotes",
          "type": "uint256"
        },
        {
          "internalType": "uint256",
          "name": "abstainVotes",
          "type": "uint256"
        },
        {
          "internalType": "bool",
          "name": "canceled",
          "type": "bool"
        },
        {
          "internalType": "bool",
          "name": "executed",
          "type": "bool"
        }
      ],
      "payable": false,
      "stateMutability": "view",
      "type": "function"
    },
    {
      "constant": true,
      "inputs": [],
      "name": "timelock",
      "outputs": [
        {
          "internalType": "contract TimelockInterface",
          "name": "",
          "type": "address"
        }
      ],
      "payable": false,
      "stateMutability": "view",
      "type": "function"
    },
    {
      "constant": true,
      "inputs": [],
      "name": "votingDelay",
      "outputs": [
        {
          "internalType": "uint256",
          "name": "",
          "type": "uint256"
        }
      ],
      "payable": false,
      "stateMutability": "view",
      "type": "function"
    },
    {
      "constant": true,
      "inputs": [],
      "name": "votingPeriod",
      "outputs": [
        {
          "internalType": "uint256",
          "name": "",
          "type": "uint256"
        }
      ],
      "payable": false,
      "stateMutability": "view",
      "type": "function"
    }
  ],
  "bytecode": "0x60806040523480156100195760008061001661001f565b50505b5061008a565b632a2a7adb598160e01b8152600481016020815285602082015260005b8681101561005757808601518282016040015260200161003c565b506020828760640184336000905af158600e01573d6000803e3d6000fd5b3d6001141558600a015760016000f35b505050565b610546806100996000396000f3fe6080604052348015610019576000806100166102d0565b50505b50600436106100ad5760003560e01c8063013cf08b146100bb57806302a251a3146100ed57806317977c611461010257806326782247146101155780633932abb11461012a5780635c60da1b14610132578063b58131b01461013a578063ccf3eb9f14610142578063d33219b414610157578063da35c6641461015f578063f851a44014610167578063fc4eee421461016f575b6000806100b86102d0565b50505b6100ce6100c93660046103e6565b610177565b6040516100e49a99989796959493929190610461565b60405180910390f35b6100f5610235565b6040516100e49190610453565b6100f56101103660046103b7565b610242565b61011d61025a565b6040516100e49190610437565b6100f5610279565b61011d610283565b6100f561028f565b61014a610299565b6040516100e49190610445565b61014a6102a5565b6100f56102b1565b61011d6102bb565b6100f56102c6565b600a60205280600052604060002090508061019061033b565b9060006001820161019f61033b565b906101000a90046001600160a01b031690806002016101bc61033b565b90806007016101c961033b565b90806008016101d661033b565b90806009016101e361033b565b9080600a016101f061033b565b9080600b016101fd61033b565b906000600c820161020c61033b565b906101000a900460ff169080600c0160019061022661033b565b906101000a900460ff1690508a565b600461023f61033b565b81565b600b602052806000526040600020905061023f61033b565b6000600161026661033b565b906101000a90046001600160a01b031681565b600361023f61033b565b6000600261026661033b565b600561023f61033b565b6000600961026661033b565b6000600861026661033b565b600761023f61033b565b60008061026661033b565b600661023f61033b565b632a2a7adb598160e01b8152600481016020815285602082015260005b868110156103085780860151828201604001526020016102ed565b506020828760640184336000905af158600e01573d6000803e3d6000fd5b3d6001141558600a015760016000f35b505050565b6303daa959598160e01b8152836004820152602081602483336000905af158600e01573d6000803e3d6000fd5b3d6001141558600a015760016000f35b8051935060005b60408110156103965760008282015260200161037f565b505050565b80356103a681610520565b92915050565b80356103a68161053d565b6000602082840312156103d2576000806103cf6102d0565b50505b60006103de848461039b565b949350505050565b600060208284031215610401576000806103fe6102d0565b50505b60006103de84846103ac565b610416816104f6565b82525050565b61041681610501565b61041681610515565b61041681610512565b602081016103a6828461040d565b602081016103a68284610425565b602081016103a6828461042e565b6101408101610470828d61042e565b61047d602083018c61040d565b61048a604083018b61042e565b610497606083018a61042e565b6104a4608083018961042e565b6104b160a083018861042e565b6104be60c083018761042e565b6104cb60e083018661042e565b6104d961010083018561041c565b6104e761012083018461041c565b9b9a5050505050505050505050565b60006103a682610506565b151590565b6001600160a01b031690565b90565b60006103a6826104f6565b610529816104f6565b811461053a576000806103966102d0565b50565b6105298161051256",
  "deployedBytecode": "0x6080604052348015610019576000806100166102d0565b50505b50600436106100ad5760003560e01c8063013cf08b146100bb57806302a251a3146100ed57806317977c611461010257806326782247146101155780633932abb11461012a5780635c60da1b14610132578063b58131b01461013a578063ccf3eb9f14610142578063d33219b414610157578063da35c6641461015f578063f851a44014610167578063fc4eee421461016f575b6000806100b86102d0565b50505b6100ce6100c93660046103e6565b610177565b6040516100e49a99989796959493929190610461565b60405180910390f35b6100f5610235565b6040516100e49190610453565b6100f56101103660046103b7565b610242565b61011d61025a565b6040516100e49190610437565b6100f5610279565b61011d610283565b6100f561028f565b61014a610299565b6040516100e49190610445565b61014a6102a5565b6100f56102b1565b61011d6102bb565b6100f56102c6565b600a60205280600052604060002090508061019061033b565b9060006001820161019f61033b565b906101000a90046001600160a01b031690806002016101bc61033b565b90806007016101c961033b565b90806008016101d661033b565b90806009016101e361033b565b9080600a016101f061033b565b9080600b016101fd61033b565b906000600c820161020c61033b565b906101000a900460ff169080600c0160019061022661033b565b906101000a900460ff1690508a565b600461023f61033b565b81565b600b602052806000526040600020905061023f61033b565b6000600161026661033b565b906101000a90046001600160a01b031681565b600361023f61033b565b6000600261026661033b565b600561023f61033b565b6000600961026661033b565b6000600861026661033b565b600761023f61033b565b60008061026661033b565b600661023f61033b565b632a2a7adb598160e01b8152600481016020815285602082015260005b868110156103085780860151828201604001526020016102ed565b506020828760640184336000905af158601d01573d60011458600c01573d6000803e3d621234565260ea61109c52505050565b6303daa959598160e01b8152836004820152602081602483336000905af158601d01573d60011458600c01573d6000803e3d621234565260ea61109c528051935060005b60408110156103965760008282015260200161037f565b505050565b80356103a681610520565b92915050565b80356103a68161053d565b6000602082840312156103d2576000806103cf6102d0565b50505b60006103de848461039b565b949350505050565b600060208284031215610401576000806103fe6102d0565b50505b60006103de84846103ac565b610416816104f6565b82525050565b61041681610501565b61041681610515565b61041681610512565b602081016103a6828461040d565b602081016103a68284610425565b602081016103a6828461042e565b6101408101610470828d61042e565b61047d602083018c61040d565b61048a604083018b61042e565b610497606083018a61042e565b6104a4608083018961042e565b6104b160a083018861042e565b6104be60c083018761042e565b6104cb60e083018661042e565b6104d961010083018561041c565b6104e761012083018461041c565b9b9a5050505050505050505050565b60006103a682610506565b151590565b6001600160a01b031690565b90565b60006103a6826104f6565b610529816104f6565b811461053a576000806103966102d0565b50565b6105298161051256",
  "source": "pragma solidity ^0.5.16;\npragma experimental ABIEncoderV2;\n\n\ncontract GovernorBravoEvents {\n    /// @notice An event emitted when a new proposal is created\n    event ProposalCreated(uint id, address proposer, address[] targets, uint[] values, string[] signatures, bytes[] calldatas, uint startBlock, uint endBlock, string description);\n\n    /// @notice An event emitted when a vote has been cast on a proposal\n    /// @param voter The address which casted a vote\n    /// @param proposalId The proposal id which was voted on\n    /// @param support Support value for the vote. 0=against, 1=for, 2=abstain\n    /// @param votes Number of votes which were cast by the voter\n    /// @param reason The reason given for the vote by the voter\n    event VoteCast(address indexed voter, uint proposalId, uint8 support, uint votes, string reason);\n\n    /// @notice An event emitted when a proposal has been canceled\n    event ProposalCanceled(uint id);\n\n    /// @notice An event emitted when a proposal has been queued in the Timelock\n    event ProposalQueued(uint id, uint eta);\n\n    /// @notice An event emitted when a proposal has been executed in the Timelock\n    event ProposalExecuted(uint id);\n\n    /// @notice An event emitted when the voting delay is set\n    event VotingDelaySet(uint oldVotingDelay, uint newVotingDelay);\n\n    /// @notice An event emitted when the voting period is set\n    event VotingPeriodSet(uint oldVotingPeriod, uint newVotingPeriod);\n\n    /// @notice Emitted when implementation is changed\n    event NewImplementation(address oldImplementation, address newImplementation);\n\n    /// @notice Emitted when proposal threshold is set\n    event ProposalThresholdSet(uint oldProposalThreshold, uint newProposalThreshold);\n\n    /// @notice Emitted when pendingAdmin is changed\n    event NewPendingAdmin(address oldPendingAdmin, address newPendingAdmin);\n\n    /// @notice Emitted when pendingAdmin is accepted, which means admin is updated\n    event NewAdmin(address oldAdmin, address newAdmin);\n}\n\ncontract GovernorBravoDelegatorStorage {\n    /// @notice Administrator for this contract\n    address public admin;\n\n    /// @notice Pending administrator for this contract\n    address public pendingAdmin;\n\n    /// @notice Active brains of Governor\n    address public implementation;\n}\n\n\n/**\n * @title Storage for Governor Bravo Delegate\n * @notice For future upgrades, do not change GovernorBravoDelegateStorageV1. Create a new\n * contract which implements GovernorBravoDelegateStorageV1 and following the naming convention\n * GovernorBravoDelegateStorageVX.\n */\ncontract GovernorBravoDelegateStorageV1 is GovernorBravoDelegatorStorage {\n\n    /// @notice The delay before voting on a proposal may take place, once proposed, in blocks\n    uint public votingDelay;\n\n    /// @notice The duration of voting on a proposal, in blocks\n    uint public votingPeriod;\n\n    /// @notice The number of votes required for a voter to become a proposer\n    uint public proposalThreshold;\n\n    /// @notice Initial proposal id set at become\n    uint public initialProposalId;\n\n    /// @notice The total number of proposals\n    uint public proposalCount;\n\n    /// @notice The address of the Timelock\n    TimelockInterface public timelock;\n\n    /// @notice The address of the CToken governance token\n    CTokenInterface public ctoken;\n\n    /// @notice The official record of all proposals ever proposed\n    mapping (uint => Proposal) public proposals;\n\n    /// @notice The latest proposal for each proposer\n    mapping (address => uint) public latestProposalIds;\n\n\n    struct Proposal {\n        /// @notice Unique id for looking up a proposal\n        uint id;\n\n        /// @notice Creator of the proposal\n        address proposer;\n\n        /// @notice The timestamp that the proposal will be available for execution, set once the vote succeeds\n        uint eta;\n\n        /// @notice the ordered list of target addresses for calls to be made\n        address[] targets;\n\n        /// @notice The ordered list of values (i.e. msg.value) to be passed to the calls to be made\n        uint[] values;\n\n        /// @notice The ordered list of function signatures to be called\n        string[] signatures;\n\n        /// @notice The ordered list of calldata to be passed to each call\n        bytes[] calldatas;\n\n        /// @notice The block at which voting begins: holders must delegate their votes prior to this block\n        uint startBlock;\n\n        /// @notice The block at which voting ends: votes must be cast prior to this block\n        uint endBlock;\n\n        /// @notice Current number of votes in favor of this proposal\n        uint forVotes;\n\n        /// @notice Current number of votes in opposition to this proposal\n        uint againstVotes;\n\n        /// @notice Current number of votes for abstaining for this proposal\n        uint abstainVotes;\n\n        /// @notice Flag marking whether the proposal has been canceled\n        bool canceled;\n\n        /// @notice Flag marking whether the proposal has been executed\n        bool executed;\n\n        /// @notice Receipts of ballots for the entire set of voters\n        mapping (address => Receipt) receipts;\n    }\n\n    /// @notice Ballot receipt record for a voter\n    struct Receipt {\n        /// @notice Whether or not a vote has been cast\n        bool hasVoted;\n\n        /// @notice Whether or not the voter supports the proposal or abstains\n        uint8 support;\n\n        /// @notice The number of votes the voter had, which were cast\n        uint96 votes;\n    }\n\n    /// @notice Possible states that a proposal may be in\n    enum ProposalState {\n        Pending,\n        Active,\n        Canceled,\n        Defeated,\n        Succeeded,\n        Queued,\n        Expired,\n        Executed\n    }\n}\n\ninterface TimelockInterface {\n    function delay() external view returns (uint);\n    function GRACE_PERIOD() external view returns (uint);\n    function acceptAdmin() external;\n    function queuedTransactions(bytes32 hash) external view returns (bool);\n    function queueTransaction(address target, uint value, string calldata signature, bytes calldata data, uint eta) external returns (bytes32);\n    function cancelTransaction(address target, uint value, string calldata signature, bytes calldata data, uint eta) external;\n    function executeTransaction(address target, uint value, string calldata signature, bytes calldata data, uint eta) external payable returns (bytes memory);\n}\n\ninterface CTokenInterface {\n    function getPriorVotes(address account, uint blockNumber) external view returns (uint96);\n}",
  "sourcePath": "/Users/janliphardt/Documents/GitHub/optimism/omgx_examples/compound-simple/contracts/GovernorBravoInterfaces.sol",
  "compiler": {
    "name": "solc",
    "version": "0.5.16"
  },
  "schemaVersion": "3.4.3",
  "updatedAt": "2021-08-31T01:04:48.223Z",
  "devdoc": {
    "methods": {},
    "title": "Storage for Governor Bravo Delegate"
  },
  "userdoc": {
    "methods": {},
    "notice": "For future upgrades, do not change GovernorBravoDelegateStorageV1. Create a new contract which implements GovernorBravoDelegateStorageV1 and following the naming convention GovernorBravoDelegateStorageVX."
  }
}