{
  "contractName": "GovernorBravoDelegate",
  "abi": [
    {
      "anonymous": false,
      "inputs": [
        {
          "indexed": false,
          "internalType": "address",
          "name": "oldAdmin",
          "type": "address"
        },
        {
          "indexed": false,
          "internalType": "address",
          "name": "newAdmin",
          "type": "address"
        }
      ],
      "name": "NewAdmin",
      "type": "event"
    },
    {
      "anonymous": false,
      "inputs": [
        {
          "indexed": false,
          "internalType": "address",
          "name": "oldImplementation",
          "type": "address"
        },
        {
          "indexed": false,
          "internalType": "address",
          "name": "newImplementation",
          "type": "address"
        }
      ],
      "name": "NewImplementation",
      "type": "event"
    },
    {
      "anonymous": false,
      "inputs": [
        {
          "indexed": false,
          "internalType": "address",
          "name": "oldPendingAdmin",
          "type": "address"
        },
        {
          "indexed": false,
          "internalType": "address",
          "name": "newPendingAdmin",
          "type": "address"
        }
      ],
      "name": "NewPendingAdmin",
      "type": "event"
    },
    {
      "anonymous": false,
      "inputs": [
        {
          "indexed": false,
          "internalType": "uint256",
          "name": "id",
          "type": "uint256"
        }
      ],
      "name": "ProposalCanceled",
      "type": "event"
    },
    {
      "anonymous": false,
      "inputs": [
        {
          "indexed": false,
          "internalType": "uint256",
          "name": "id",
          "type": "uint256"
        },
        {
          "indexed": false,
          "internalType": "address",
          "name": "proposer",
          "type": "address"
        },
        {
          "indexed": false,
          "internalType": "address[]",
          "name": "targets",
          "type": "address[]"
        },
        {
          "indexed": false,
          "internalType": "uint256[]",
          "name": "values",
          "type": "uint256[]"
        },
        {
          "indexed": false,
          "internalType": "string[]",
          "name": "signatures",
          "type": "string[]"
        },
        {
          "indexed": false,
          "internalType": "bytes[]",
          "name": "calldatas",
          "type": "bytes[]"
        },
        {
          "indexed": false,
          "internalType": "uint256",
          "name": "startBlock",
          "type": "uint256"
        },
        {
          "indexed": false,
          "internalType": "uint256",
          "name": "endBlock",
          "type": "uint256"
        },
        {
          "indexed": false,
          "internalType": "string",
          "name": "description",
          "type": "string"
        }
      ],
      "name": "ProposalCreated",
      "type": "event"
    },
    {
      "anonymous": false,
      "inputs": [
        {
          "indexed": false,
          "internalType": "uint256",
          "name": "id",
          "type": "uint256"
        }
      ],
      "name": "ProposalExecuted",
      "type": "event"
    },
    {
      "anonymous": false,
      "inputs": [
        {
          "indexed": false,
          "internalType": "uint256",
          "name": "id",
          "type": "uint256"
        },
        {
          "indexed": false,
          "internalType": "uint256",
          "name": "eta",
          "type": "uint256"
        }
      ],
      "name": "ProposalQueued",
      "type": "event"
    },
    {
      "anonymous": false,
      "inputs": [
        {
          "indexed": false,
          "internalType": "uint256",
          "name": "oldProposalThreshold",
          "type": "uint256"
        },
        {
          "indexed": false,
          "internalType": "uint256",
          "name": "newProposalThreshold",
          "type": "uint256"
        }
      ],
      "name": "ProposalThresholdSet",
      "type": "event"
    },
    {
      "anonymous": false,
      "inputs": [
        {
          "indexed": true,
          "internalType": "address",
          "name": "voter",
          "type": "address"
        },
        {
          "indexed": false,
          "internalType": "uint256",
          "name": "proposalId",
          "type": "uint256"
        },
        {
          "indexed": false,
          "internalType": "uint8",
          "name": "support",
          "type": "uint8"
        },
        {
          "indexed": false,
          "internalType": "uint256",
          "name": "votes",
          "type": "uint256"
        },
        {
          "indexed": false,
          "internalType": "string",
          "name": "reason",
          "type": "string"
        }
      ],
      "name": "VoteCast",
      "type": "event"
    },
    {
      "anonymous": false,
      "inputs": [
        {
          "indexed": false,
          "internalType": "uint256",
          "name": "oldVotingDelay",
          "type": "uint256"
        },
        {
          "indexed": false,
          "internalType": "uint256",
          "name": "newVotingDelay",
          "type": "uint256"
        }
      ],
      "name": "VotingDelaySet",
      "type": "event"
    },
    {
      "anonymous": false,
      "inputs": [
        {
          "indexed": false,
          "internalType": "uint256",
          "name": "oldVotingPeriod",
          "type": "uint256"
        },
        {
          "indexed": false,
          "internalType": "uint256",
          "name": "newVotingPeriod",
          "type": "uint256"
        }
      ],
      "name": "VotingPeriodSet",
      "type": "event"
    },
    {
      "constant": true,
      "inputs": [],
      "name": "BALLOT_TYPEHASH",
      "outputs": [
        {
          "internalType": "bytes32",
          "name": "",
          "type": "bytes32"
        }
      ],
      "payable": false,
      "stateMutability": "view",
      "type": "function"
    },
    {
      "constant": true,
      "inputs": [],
      "name": "DOMAIN_TYPEHASH",
      "outputs": [
        {
          "internalType": "bytes32",
          "name": "",
          "type": "bytes32"
        }
      ],
      "payable": false,
      "stateMutability": "view",
      "type": "function"
    },
    {
      "constant": true,
      "inputs": [],
      "name": "MAX_PROPOSAL_THRESHOLD",
      "outputs": [
        {
          "internalType": "uint256",
          "name": "",
          "type": "uint256"
        }
      ],
      "payable": false,
      "stateMutability": "view",
      "type": "function"
    },
    {
      "constant": true,
      "inputs": [],
      "name": "MAX_VOTING_DELAY",
      "outputs": [
        {
          "internalType": "uint256",
          "name": "",
          "type": "uint256"
        }
      ],
      "payable": false,
      "stateMutability": "view",
      "type": "function"
    },
    {
      "constant": true,
      "inputs": [],
      "name": "MAX_VOTING_PERIOD",
      "outputs": [
        {
          "internalType": "uint256",
          "name": "",
          "type": "uint256"
        }
      ],
      "payable": false,
      "stateMutability": "view",
      "type": "function"
    },
    {
      "constant": true,
      "inputs": [],
      "name": "MIN_PROPOSAL_THRESHOLD",
      "outputs": [
        {
          "internalType": "uint256",
          "name": "",
          "type": "uint256"
        }
      ],
      "payable": false,
      "stateMutability": "view",
      "type": "function"
    },
    {
      "constant": true,
      "inputs": [],
      "name": "MIN_VOTING_DELAY",
      "outputs": [
        {
          "internalType": "uint256",
          "name": "",
          "type": "uint256"
        }
      ],
      "payable": false,
      "stateMutability": "view",
      "type": "function"
    },
    {
      "constant": true,
      "inputs": [],
      "name": "MIN_VOTING_PERIOD",
      "outputs": [
        {
          "internalType": "uint256",
          "name": "",
          "type": "uint256"
        }
      ],
      "payable": false,
      "stateMutability": "view",
      "type": "function"
    },
    {
      "constant": true,
      "inputs": [],
      "name": "admin",
      "outputs": [
        {
          "internalType": "address",
          "name": "",
          "type": "address"
        }
      ],
      "payable": false,
      "stateMutability": "view",
      "type": "function"
    },
    {
      "constant": true,
      "inputs": [],
      "name": "ctoken",
      "outputs": [
        {
          "internalType": "contract CTokenInterface",
          "name": "",
          "type": "address"
        }
      ],
      "payable": false,
      "stateMutability": "view",
      "type": "function"
    },
    {
      "constant": true,
      "inputs": [],
      "name": "implementation",
      "outputs": [
        {
          "internalType": "address",
          "name": "",
          "type": "address"
        }
      ],
      "payable": false,
      "stateMutability": "view",
      "type": "function"
    },
    {
      "constant": true,
      "inputs": [],
      "name": "initialProposalId",
      "outputs": [
        {
          "internalType": "uint256",
          "name": "",
          "type": "uint256"
        }
      ],
      "payable": false,
      "stateMutability": "view",
      "type": "function"
    },
    {
      "constant": true,
      "inputs": [
        {
          "internalType": "address",
          "name": "",
          "type": "address"
        }
      ],
      "name": "latestProposalIds",
      "outputs": [
        {
          "internalType": "uint256",
          "name": "",
          "type": "uint256"
        }
      ],
      "payable": false,
      "stateMutability": "view",
      "type": "function"
    },
    {
      "constant": true,
      "inputs": [],
      "name": "name",
      "outputs": [
        {
          "internalType": "string",
          "name": "",
          "type": "string"
        }
      ],
      "payable": false,
      "stateMutability": "view",
      "type": "function"
    },
    {
      "constant": true,
      "inputs": [],
      "name": "pendingAdmin",
      "outputs": [
        {
          "internalType": "address",
          "name": "",
          "type": "address"
        }
      ],
      "payable": false,
      "stateMutability": "view",
      "type": "function"
    },
    {
      "constant": true,
      "inputs": [],
      "name": "proposalCount",
      "outputs": [
        {
          "internalType": "uint256",
          "name": "",
          "type": "uint256"
        }
      ],
      "payable": false,
      "stateMutability": "view",
      "type": "function"
    },
    {
      "constant": true,
      "inputs": [],
      "name": "proposalMaxOperations",
      "outputs": [
        {
          "internalType": "uint256",
          "name": "",
          "type": "uint256"
        }
      ],
      "payable": false,
      "stateMutability": "view",
      "type": "function"
    },
    {
      "constant": true,
      "inputs": [],
      "name": "proposalThreshold",
      "outputs": [
        {
          "internalType": "uint256",
          "name": "",
          "type": "uint256"
        }
      ],
      "payable": false,
      "stateMutability": "view",
      "type": "function"
    },
    {
      "constant": true,
      "inputs": [
        {
          "internalType": "uint256",
          "name": "",
          "type": "uint256"
        }
      ],
      "name": "proposals",
      "outputs": [
        {
          "internalType": "uint256",
          "name": "id",
          "type": "uint256"
        },
        {
          "internalType": "address",
          "name": "proposer",
          "type": "address"
        },
        {
          "internalType": "uint256",
          "name": "eta",
          "type": "uint256"
        },
        {
          "internalType": "uint256",
          "name": "startBlock",
          "type": "uint256"
        },
        {
          "internalType": "uint256",
          "name": "endBlock",
          "type": "uint256"
        },
        {
          "internalType": "uint256",
          "name": "forVotes",
          "type": "uint256"
        },
        {
          "internalType": "uint256",
          "name": "againstVotes",
          "type": "uint256"
        },
        {
          "internalType": "uint256",
          "name": "abstainVotes",
          "type": "uint256"
        },
        {
          "internalType": "bool",
          "name": "canceled",
          "type": "bool"
        },
        {
          "internalType": "bool",
          "name": "executed",
          "type": "bool"
        }
      ],
      "payable": false,
      "stateMutability": "view",
      "type": "function"
    },
    {
      "constant": true,
      "inputs": [],
      "name": "quorumVotes",
      "outputs": [
        {
          "internalType": "uint256",
          "name": "",
          "type": "uint256"
        }
      ],
      "payable": false,
      "stateMutability": "view",
      "type": "function"
    },
    {
      "constant": true,
      "inputs": [],
      "name": "timelock",
      "outputs": [
        {
          "internalType": "contract TimelockInterface",
          "name": "",
          "type": "address"
        }
      ],
      "payable": false,
      "stateMutability": "view",
      "type": "function"
    },
    {
      "constant": true,
      "inputs": [],
      "name": "votingDelay",
      "outputs": [
        {
          "internalType": "uint256",
          "name": "",
          "type": "uint256"
        }
      ],
      "payable": false,
      "stateMutability": "view",
      "type": "function"
    },
    {
      "constant": true,
      "inputs": [],
      "name": "votingPeriod",
      "outputs": [
        {
          "internalType": "uint256",
          "name": "",
          "type": "uint256"
        }
      ],
      "payable": false,
      "stateMutability": "view",
      "type": "function"
    },
    {
      "constant": false,
      "inputs": [
        {
          "internalType": "address",
          "name": "timelock_",
          "type": "address"
        },
        {
          "internalType": "address",
          "name": "ctoken_",
          "type": "address"
        },
        {
          "internalType": "uint256",
          "name": "votingPeriod_",
          "type": "uint256"
        },
        {
          "internalType": "uint256",
          "name": "votingDelay_",
          "type": "uint256"
        },
        {
          "internalType": "uint256",
          "name": "proposalThreshold_",
          "type": "uint256"
        }
      ],
      "name": "initialize",
      "outputs": [],
      "payable": false,
      "stateMutability": "nonpayable",
      "type": "function"
    },
    {
      "constant": false,
      "inputs": [
        {
          "internalType": "address[]",
          "name": "targets",
          "type": "address[]"
        },
        {
          "internalType": "uint256[]",
          "name": "values",
          "type": "uint256[]"
        },
        {
          "internalType": "string[]",
          "name": "signatures",
          "type": "string[]"
        },
        {
          "internalType": "bytes[]",
          "name": "calldatas",
          "type": "bytes[]"
        },
        {
          "internalType": "string",
          "name": "description",
          "type": "string"
        }
      ],
      "name": "propose",
      "outputs": [
        {
          "internalType": "uint256",
          "name": "",
          "type": "uint256"
        }
      ],
      "payable": false,
      "stateMutability": "nonpayable",
      "type": "function"
    },
    {
      "constant": false,
      "inputs": [
        {
          "internalType": "uint256",
          "name": "proposalId",
          "type": "uint256"
        }
      ],
      "name": "queue",
      "outputs": [],
      "payable": false,
      "stateMutability": "nonpayable",
      "type": "function"
    },
    {
      "constant": false,
      "inputs": [
        {
          "internalType": "uint256",
          "name": "proposalId",
          "type": "uint256"
        }
      ],
      "name": "execute",
      "outputs": [],
      "payable": true,
      "stateMutability": "payable",
      "type": "function"
    },
    {
      "constant": false,
      "inputs": [
        {
          "internalType": "uint256",
          "name": "proposalId",
          "type": "uint256"
        }
      ],
      "name": "cancel",
      "outputs": [],
      "payable": false,
      "stateMutability": "nonpayable",
      "type": "function"
    },
    {
      "constant": true,
      "inputs": [
        {
          "internalType": "uint256",
          "name": "proposalId",
          "type": "uint256"
        }
      ],
      "name": "getActions",
      "outputs": [
        {
          "internalType": "address[]",
          "name": "targets",
          "type": "address[]"
        },
        {
          "internalType": "uint256[]",
          "name": "values",
          "type": "uint256[]"
        },
        {
          "internalType": "string[]",
          "name": "signatures",
          "type": "string[]"
        },
        {
          "internalType": "bytes[]",
          "name": "calldatas",
          "type": "bytes[]"
        }
      ],
      "payable": false,
      "stateMutability": "view",
      "type": "function"
    },
    {
      "constant": true,
      "inputs": [
        {
          "internalType": "uint256",
          "name": "proposalId",
          "type": "uint256"
        },
        {
          "internalType": "address",
          "name": "voter",
          "type": "address"
        }
      ],
      "name": "getReceipt",
      "outputs": [
        {
          "components": [
            {
              "internalType": "bool",
              "name": "hasVoted",
              "type": "bool"
            },
            {
              "internalType": "uint8",
              "name": "support",
              "type": "uint8"
            },
            {
              "internalType": "uint96",
              "name": "votes",
              "type": "uint96"
            }
          ],
          "internalType": "struct GovernorBravoDelegateStorageV1.Receipt",
          "name": "",
          "type": "tuple"
        }
      ],
      "payable": false,
      "stateMutability": "view",
      "type": "function"
    },
    {
      "constant": true,
      "inputs": [
        {
          "internalType": "uint256",
          "name": "proposalId",
          "type": "uint256"
        }
      ],
      "name": "state",
      "outputs": [
        {
          "internalType": "enum GovernorBravoDelegateStorageV1.ProposalState",
          "name": "",
          "type": "uint8"
        }
      ],
      "payable": false,
      "stateMutability": "view",
      "type": "function"
    },
    {
      "constant": false,
      "inputs": [
        {
          "internalType": "uint256",
          "name": "proposalId",
          "type": "uint256"
        },
        {
          "internalType": "uint8",
          "name": "support",
          "type": "uint8"
        }
      ],
      "name": "castVote",
      "outputs": [],
      "payable": false,
      "stateMutability": "nonpayable",
      "type": "function"
    },
    {
      "constant": false,
      "inputs": [
        {
          "internalType": "uint256",
          "name": "proposalId",
          "type": "uint256"
        },
        {
          "internalType": "uint8",
          "name": "support",
          "type": "uint8"
        },
        {
          "internalType": "string",
          "name": "reason",
          "type": "string"
        }
      ],
      "name": "castVoteWithReason",
      "outputs": [],
      "payable": false,
      "stateMutability": "nonpayable",
      "type": "function"
    },
    {
      "constant": false,
      "inputs": [
        {
          "internalType": "uint256",
          "name": "proposalId",
          "type": "uint256"
        },
        {
          "internalType": "uint8",
          "name": "support",
          "type": "uint8"
        },
        {
          "internalType": "uint8",
          "name": "v",
          "type": "uint8"
        },
        {
          "internalType": "bytes32",
          "name": "r",
          "type": "bytes32"
        },
        {
          "internalType": "bytes32",
          "name": "s",
          "type": "bytes32"
        }
      ],
      "name": "castVoteBySig",
      "outputs": [],
      "payable": false,
      "stateMutability": "nonpayable",
      "type": "function"
    },
    {
      "constant": false,
      "inputs": [
        {
          "internalType": "uint256",
          "name": "newVotingDelay",
          "type": "uint256"
        }
      ],
      "name": "_setVotingDelay",
      "outputs": [],
      "payable": false,
      "stateMutability": "nonpayable",
      "type": "function"
    },
    {
      "constant": false,
      "inputs": [
        {
          "internalType": "uint256",
          "name": "newVotingPeriod",
          "type": "uint256"
        }
      ],
      "name": "_setVotingPeriod",
      "outputs": [],
      "payable": false,
      "stateMutability": "nonpayable",
      "type": "function"
    },
    {
      "constant": false,
      "inputs": [
        {
          "internalType": "uint256",
          "name": "newProposalThreshold",
          "type": "uint256"
        }
      ],
      "name": "_setProposalThreshold",
      "outputs": [],
      "payable": false,
      "stateMutability": "nonpayable",
      "type": "function"
    },
    {
      "constant": false,
      "inputs": [],
      "name": "_initiate",
      "outputs": [],
      "payable": false,
      "stateMutability": "nonpayable",
      "type": "function"
    },
    {
      "constant": false,
      "inputs": [
        {
          "internalType": "address",
          "name": "newPendingAdmin",
          "type": "address"
        }
      ],
      "name": "_setPendingAdmin",
      "outputs": [],
      "payable": false,
      "stateMutability": "nonpayable",
      "type": "function"
    },
    {
      "constant": false,
      "inputs": [],
      "name": "_acceptAdmin",
      "outputs": [],
      "payable": false,
      "stateMutability": "nonpayable",
      "type": "function"
    }
  ],
  "bytecode": "0x60806040523480156200001c576000806200001962000023565b50505b5062000090565b632a2a7adb598160e01b8152600481016020815285602082015260005b868110156200005d57808601518282016040015260200162000040565b506020828760640184336000905af158600e01573d6000803e3d6000fd5b3d6001141558600a015760016000f35b505050565b61584280620000a06000396000f3fe6080604052600436106101cb5760003560e01c8063013cf08b146101d957806302a251a31461022157806306fdde031461024c5780630ea2d98c1461027757806317977c61146102a257806317ba1b8b146102cb5780631dfb1b5a146102f457806320606b701461031d578063215809ca1461033b57806324bc1a641461035957806325fd935a146103775780632678224714610395578063328dd982146103c05780633932abb1146103f95780633bccf4fd146104175780633e4f49e61461044057806340e58ee514610476578063567813881461049f5780635c60da1b146104c8578063791f5d23146104e65780637b3c71d3146105045780637bdbe4d01461052d578063878f14821461054b578063a64e024a14610569578063b112626314610587578063b58131b0146105a5578063b71d1a0c146105c3578063ccf3eb9f146105ec578063d13f90b414610617578063d33219b414610640578063da35c6641461065e578063da95691a1461067c578063ddf0b009146106a5578063deaaa7cc146106ce578063e23a9a52146106ec578063e48083fe14610722578063e9c714f214610740578063f851a4401461075e578063fc4eee421461077c578063fe0d94c11461079a575b6000806101d6613071565b50505b3480156101ee576000806101eb613071565b50505b506102026101fd366004613e52565b6107ad565b6040516102189a9998979695949392919061546e565b60405180910390f35b34801561023657600080610233613071565b50505b5061023f61086b565b60405161021891906150ab565b3480156102615760008061025e613071565b50505b5061026a610878565b6040516102189190615167565b34801561028c57600080610289613071565b50505b506102a061029b366004613e52565b6108a5565b005b3480156102b7576000806102b4613071565b50505b5061023f6102c6366004613c01565b6109af565b3480156102e0576000806102dd613071565b50505b506102a06102ef366004613e52565b6109c7565b34801561030957600080610306613071565b50505b506102a0610318366004613e52565b610ac7565b3480156103325760008061032f613071565b50505b5061023f610bb6565b3480156103505760008061034d613071565b50505b5061023f610bcd565b34801561036e5760008061036b613071565b50505b5061023f610bd2565b34801561038c57600080610389613071565b50505b5061023f610be0565b3480156103aa576000806103a7613071565b50505b506103b3610bee565b6040516102189190614f71565b3480156103d5576000806103d2613071565b50505b506103e96103e4366004613e52565b610c0d565b604051610218949392919061505e565b34801561040e5760008061040b613071565b50505b5061023f610f33565b34801561042c57600080610429613071565b50505b506102a061043b366004613f6e565b610f3d565b34801561045557600080610452613071565b50505b50610469610464366004613e52565b611167565b6040516102189190615159565b34801561048b57600080610488613071565b50505b506102a061049a366004613e52565b6113a7565b3480156104b4576000806104b1613071565b50505b506102a06104c3366004613ebc565b611734565b3480156104dd576000806104da613071565b50505b506103b3611785565b3480156104fb576000806104f8613071565b50505b5061023f611791565b34801561051957600080610516613071565b50505b506102a0610528366004613ef5565b61179f565b3480156105425760008061053f613071565b50505b5061023f6117f6565b3480156105605760008061055d613071565b50505b506102a06117fb565b34801561057e5760008061057b613071565b50505b5061023f611958565b34801561059c57600080610599613071565b50505b5061023f61195f565b3480156105ba576000806105b7613071565b50505b5061023f611965565b3480156105d8576000806105d5613071565b50505b506102a06105e7366004613c01565b61196f565b348015610601576000806105fe613071565b50505b5061060a611a49565b604051610218919061514b565b34801561062c57600080610629613071565b50505b506102a061063b366004613c30565b611a55565b34801561065557600080610652613071565b50505b5061060a611cf5565b34801561067357600080610670613071565b50505b5061023f611d01565b3480156106915760008061068e613071565b50505b5061023f6106a0366004613cae565b611d0b565b3480156106ba576000806106b7613071565b50505b506102a06106c9366004613e52565b6122e4565b3480156106e3576000806106e0613071565b50505b5061023f61261d565b348015610701576000806106fe613071565b50505b50610715610710366004613e79565b612629565b60405161021891906153b8565b34801561073757600080610734613071565b50505b5061023f6126ca565b34801561075557600080610752613071565b50505b506102a06126cf565b34801561077357600080610770613071565b50505b506103b36128aa565b3480156107915760008061078e613071565b50505b5061023f6128b5565b6102a06107a8366004613e52565b6128bf565b600a6020528060005260406000209050806107c66130dc565b906000600182016107d56130dc565b906101000a90046001600160a01b031690806002016107f26130dc565b90806007016107ff6130dc565b908060080161080c6130dc565b90806009016108196130dc565b9080600a016108266130dc565b9080600b016108336130dc565b906000600c82016108426130dc565b906101000a900460ff169080600c0160019061085c6130dc565b906101000a900460ff1690508a565b60046108756130dc565b81565b604051604080820190526013815272426f626120476f7665726e6f7220427261766f60681b602082015281565b6000806108b06130dc565b906101000a90046001600160a01b03166001600160a01b03165a6108d261313c565b6001600160a01b03161461090a5760405162461bcd60e51b81526004016108f8906151b8565b60405180910390610907613071565b50505b6002811015801561091e575062013b008111155b61094c5760405162461bcd60e51b815260040161093a906151f8565b60405180910390610949613071565b50505b600060046109586130dc565b905081806004610966613182565b5050507f7e3f7f0708a84de9203036abaa450dccc85ad5ff52f78c170f3edb55cf5e88288160046109956130dc565b6040516109a39291906154f4565b60405180910390a15050565b600b60205280600052604060002090506108756130dc565b6000806109d26130dc565b906101000a90046001600160a01b03166001600160a01b03165a6109f461313c565b6001600160a01b031614610a2c5760405162461bcd60e51b8152600401610a1a90615378565b60405180910390610a29613071565b50505b690a968163f0a57b4000008110158015610a50575069152d02c7e14af68000008111155b610a7e5760405162461bcd60e51b8152600401610a6c90615298565b60405180910390610a7b613071565b50505b60006005610a8a6130dc565b905081806005610a98613182565b5050507fccb45da8d5717e6c4544694297c4ba5cf151d455c9bb0ed4fc7a38411bc054618160056109956130dc565b600080610ad26130dc565b906101000a90046001600160a01b03166001600160a01b03165a610af461313c565b6001600160a01b031614610b2c5760405162461bcd60e51b8152600401610b1a906151d8565b60405180910390610b29613071565b50505b60018110158015610b3f5750619d808111155b610b6d5760405162461bcd60e51b8152600401610b5b90615228565b60405180910390610b6a613071565b50505b60006003610b796130dc565b905081806003610b87613182565b5050507fc565b045403dc03c2eea82b81a0465edad9e2e7fc4d97e11421c209da93d7a938160036109956130dc565b604051610bc290614f66565b604051809103902081565b600281565b6954b40b1f852bda00000081565b69152d02c7e14af680000081565b60006001610bfa6130dc565b906101000a90046001600160a01b031681565b6000818152600a602052606090819081908190604081209050806003018160040182600501836006018380610c406130dc565b806020026020016040519081016040528181529190602083018280610c636130dc565b8015610cb057602002820191906000526020600020905b600082610c856130dc565b906101000a90046001600160a01b03166001600160a01b031681526020019060010190808311610c7a575b505050505093508280610cc16130dc565b806020026020016040519081016040528181529190602083018280610ce46130dc565b8015610d1657602002820191906000526020600020905b81610d046130dc565b81526020019060010190808311610cfb575b505050505092508180610d276130dc565b8060200260200160405190810160405281815291906000602084015b82821015610e1a5783829060005260206000200180610d606130dc565b600181600116156101000203166002900480601f016020809104026020016040519081016040528181529190602083018280610d9a6130dc565b60018160011615610100020316600290048015610e065780601f10610dd4576101008083610dc66130dc565b040283529160200191610e06565b820191906000526020600020905b81610deb6130dc565b81529060010190602001808311610de257829003601f168201915b505050505081526020019060010190610d43565b5050505091508080610e2a6130dc565b8060200260200160405190810160405281815291906000602084015b82821015610f1d5783829060005260206000200180610e636130dc565b600181600116156101000203166002900480601f016020809104026020016040519081016040528181529190602083018280610e9d6130dc565b60018160011615610100020316600290048015610f095780601f10610ed7576101008083610ec96130dc565b040283529160200191610f09565b820191906000526020600020905b81610eee6130dc565b81529060010190602001808311610ee557829003601f168201915b505050505081526020019060010190610e46565b5050505090509450945094509450509193509193565b60036108756130dc565b6000604051610f4b90614f66565b6040518091039020604051604080820190526013815272426f626120476f7665726e6f7220427261766f60681b602082015280519060200120610f8c612b2e565b5a63996d79a5598160e01b8152602081600483336000905af158600e01573d6000803e3d6000fd5b3d6001141558600a015760016000f35b8051925060005b6040811015610fe257600082820152602001610fcb565b505050604051602001610ff894939291906150b9565b604051602081830303815290604052805190602001209050600060405161101e90614f2a565b6040518091039020878760405160200161103a939291906150ee565b60405160208183030381529060405280519060200120905060008282604051602001611067929190614f35565b6040516020818303038152906040528051906020012090506000600182888888604051600081526020016040526040516110a49493929190615116565b6020604051602081039080840390855a6110bc6131d0565b50505050501580156110db573d6000803e3d60006110d8613071565b50505b5050506020604051035190506001600160a01b03811661111f5760405162461bcd60e51b815260040161110d90615258565b6040518091039061111c613071565b50505b806001600160a01b03166000805160206158228339815191528a8a611145858e8e612b41565b60405161115493929190615548565b60405180910390a2505050505050505050565b60008160076111746130dc565b1015801561118a575060066111876130dc565b82115b6111b85760405162461bcd60e51b81526004016111a690615388565b604051809103906111b5613071565b50505b6000828152600a6020526040812090506000600c82016111d66130dc565b906101000a900460ff16156111ef5760029150506113a2565b806007016111fb6130dc565b5a611204613280565b116112135760009150506113a2565b8060080161121f6130dc565b5a611228613280565b116112375760019150506113a2565b80600a016112436130dc565b8160090161124f6130dc565b11158061127057506954b40b1f852bda0000008160090161126e6130dc565b105b1561127f5760039150506113a2565b8060020161128b6130dc565b6112995760049150506113a2565b6001600c82016112a76130dc565b906101000a900460ff16156112c05760079150506113a2565b611384816002016112cf6130dc565b600060086112db6130dc565b906101000a90046001600160a01b03166001600160a01b031663c1a287e26040518163ffffffff1660e01b8152600401602060405180830381868061131e6132c6565b15801561133357600080611330613071565b50505b505a61133d6131d0565b505050505015801561135c573d6000803e3d6000611359613071565b50505b50505050604051601f3d908101601f1916820160405261137f9190810190613de5565b612e1c565b5a61138d613312565b1061139c5760069150506113a2565b60059150505b919050565b60076113b282611167565b60078111156113bd57fe5b14156113ed5760405162461bcd60e51b81526004016113db90615368565b604051809103906113ea613071565b50505b6000818152600a60205260408120905060006001820161140b6130dc565b906101000a90046001600160a01b03166001600160a01b03165a61142d61313c565b6001600160a01b03161480611537575060056114476130dc565b600060096114536130dc565b6001600160a01b036101009290920a90041663782d6fe16000600185016114786130dc565b906101000a90046001600160a01b031661149b5a611494613280565b6001612e59565b6040518363ffffffff1660e01b81526004016114b8929190614fb5565b60206040518083038186806114cb6132c6565b1580156114e0576000806114dd613071565b50505b505a6114ea6131d0565b5050505050158015611509573d6000803e3d6000611506613071565b50505b50505050604051601f3d908101601f1916820160405261152c9190810190613fbd565b6001600160601b0316105b6115655760405162461bcd60e51b8152600401611553906152f8565b60405180910390611562613071565b50505b6001600c820181816115756130dc565b8160ff0219169083151502179061158a613182565b5060009150505b816003018061159e6130dc565b905081101561170457600060086115b36130dc565b906101000a90046001600160a01b03166001600160a01b031663591fcdfe8360030183816115df6130dc565b81106115e757fe5b906000526020600020016000906115fc6130dc565b906101000a90046001600160a01b031684600401848161161a6130dc565b811061162257fe5b906000526020600020016116346130dc565b8560050185816116426130dc565b811061164a57fe5b906000526020600020018660060186816116626130dc565b811061166a57fe5b90600052602060002001876002016116806130dc565b6040518663ffffffff1660e01b81526004016116a095949392919061501d565b600060405180830381600087806116b56132c6565b1580156116ca576000806116c7613071565b50505b505a6116d4613358565b5050505050501580156116f4573d6000803e3d60006116f1613071565b50505b5050600190920191506115919050565b507f789cf55be980739dad1d0699b93b58e806b51c9d96619bfa8fe0a28abaa7b30c826040516109a391906150ab565b5a61173d61313c565b6001600160a01b0316600080516020615822833981519152838361176a5a61176361313c565b8787612b41565b60405161177993929190615548565b60405180910390a25050565b60006002610bfa6130dc565b690a968163f0a57b40000081565b5a6117a861313c565b6001600160a01b031660008051602061582283398151915285856117d55a6117ce61313c565b8989612b41565b86866040516117e8959493929190615502565b60405180910390a250505050565b600a81565b6000806118066130dc565b906101000a90046001600160a01b03166001600160a01b03165a61182861313c565b6001600160a01b0316146118605760405162461bcd60e51b815260040161184e90615348565b6040518091039061185d613071565b50505b600661186a6130dc565b156118995760405162461bcd60e51b8152600401611887906152c8565b60405180910390611896613071565b50505b60018060076118a6613182565b50505060076118b36130dc565b8060066118be613182565b50505060086000906118ce6130dc565b906101000a90046001600160a01b03166001600160a01b0316630e18b6816040518163ffffffff1660e01b8152600401600060405180830381600087806119136132c6565b15801561192857600080611925613071565b50505b505a611932613358565b505050505050158015611952573d6000803e3d600061194f613071565b50505b50505050565b62013b0081565b619d8081565b60056108756130dc565b60008061197a6130dc565b906101000a90046001600160a01b03166001600160a01b03165a61199c61313c565b6001600160a01b0316146119d45760405162461bcd60e51b81526004016119c290615198565b604051809103906119d1613071565b50505b60008060016119e16130dc565b906101000a90046001600160a01b0316905081600160006101000a81611a056130dc565b816001600160a01b0302191690836001600160a01b0316021790611a27613182565b5050506000805160206157c283398151915281836040516109a3929190614f9a565b60006009610bfa6130dc565b6000806008611a626130dc565b906101000a90046001600160a01b03166001600160a01b031614611aaa5760405162461bcd60e51b8152600401611a9890615188565b60405180910390611aa7613071565b50505b600080611ab56130dc565b906101000a90046001600160a01b03166001600160a01b03165a611ad761313c565b6001600160a01b031614611b0f5760405162461bcd60e51b8152600401611afd90615288565b60405180910390611b0c613071565b50505b6001600160a01b038516611b475760405162461bcd60e51b8152600401611b35906151c8565b60405180910390611b44613071565b50505b6001600160a01b038416611b7f5760405162461bcd60e51b8152600401611b6d90615328565b60405180910390611b7c613071565b50505b60028310158015611b93575062013b008311155b611bc15760405162461bcd60e51b8152600401611baf90615398565b60405180910390611bbe613071565b50505b60018210158015611bd45750619d808211155b611c025760405162461bcd60e51b8152600401611bf090615268565b60405180910390611bff613071565b50505b690a968163f0a57b4000008110158015611c26575069152d02c7e14af68000008111155b611c545760405162461bcd60e51b8152600401611c4290615238565b60405180910390611c51613071565b50505b846008600181611c626130dc565b816001600160a01b0302191690836001600160a01b0316021790611c84613182565b50505083600960006101000a81611c996130dc565b816001600160a01b0302191690836001600160a01b0316021790611cbb613182565b5050508260048190611ccb613182565b5050508160038190611cdb613182565b5050508060058190611ceb613182565b5050505050505050565b60006008610bfa6130dc565b60076108756130dc565b60006006611d176130dc565b611d455760405162461bcd60e51b8152600401611d33906151e8565b60405180910390611d42613071565b50505b6005611d4f6130dc565b60006009611d5b6130dc565b906101000a90046001600160a01b03166001600160a01b031663782d6fe15a611d8261313c565b611d8e5a611494613280565b6040518363ffffffff1660e01b8152600401611dab929190614f7f565b6020604051808303818680611dbe6132c6565b158015611dd357600080611dd0613071565b50505b505a611ddd6131d0565b5050505050158015611dfc573d6000803e3d6000611df9613071565b50505b50505050604051601f3d908101601f19168201604052611e1f9190810190613fbd565b6001600160601b031611611e575760405162461bcd60e51b8152600401611e4590615358565b60405180910390611e54613071565b50505b84518651148015611e69575083518651145b8015611e76575082518651145b611ea45760405162461bcd60e51b8152600401611e9290615278565b60405180910390611ea1613071565b50505b8551611ed45760405162461bcd60e51b8152600401611ec2906152d8565b60405180910390611ed1613071565b50505b600a86511115611f085760405162461bcd60e51b8152600401611ef690615308565b60405180910390611f05613071565b50505b6000600b60005a611f1761313c565b6001600160a01b03166001600160a01b03168152602001908152602001600020611f3f6130dc565b90508015611fd2576000611f5282611167565b90506001816007811115611f6257fe5b1415611f925760405162461bcd60e51b8152600401611f8090615338565b60405180910390611f8f613071565b50505b6000816007811115611fa057fe5b1415611fd05760405162461bcd60e51b8152600401611fbe90615318565b60405180910390611fcd613071565b50505b505b6000611fea5a611fe0613280565b600361137f6130dc565b90506000611ffc82600461137f6130dc565b9050600760008161200b6130dc565b9160018301915061201a613182565b505050612025613408565b604051806101c00160405280600761203b6130dc565b81526020015a61204961313c565b6001600160a01b03168152602001600081526020018b81526020018a815260200189815260200188815260200184815260200183815260200160008152602001600081526020016000815260200160001515815260200160001515815250905080600a6000836000015181526020019081526020016000208151816120cc613182565b50506020820151600180830190816120e26130dc565b816001600160a01b0302191690836001600160a01b0316021790612104613182565b505050604082015181600201612118613182565b5050606082015181600301908051612134929160200190613484565b5060808201518160040190805161214f92916020019061350e565b5060a08201518160050190805161216a92916020019061356e565b5060c0820151816006019080516121859291602001906135d6565b5060e082015181600701612197613182565b5050610100820151816008016121ab613182565b5050610120820151816009016121bf613182565b505061014082015181600a016121d3613182565b505061016082015181600b016121e7613182565b5050610180820151600c82016001816121fe6130dc565b8160ff02191690831515021790612213613182565b5050506101a0820151600c82016101008161222c6130dc565b8160ff02191690831515021790612241613182565b5084935050505051600b600083602001516001600160a01b03166001600160a01b03168152602001908152602001600020819061227c613182565b5050507f7d84a6263ae0d98d3329bd7b46bb4e8d6f98cd35a7adb45c274c8b7fd5ebd5e081600001515a6122ae61313c565b8c8c8c8c89898e6040516122ca999897969594939291906153c6565b60405180910390a180519450505050505b95945050505050565b60046122ef82611167565b60078111156122fa57fe5b146123295760405162461bcd60e51b8152600401612317906152a8565b60405180910390612326613071565b50505b6000818152600a60205260408120905060006123965a612347613312565b600060086123536130dc565b906101000a90046001600160a01b03166001600160a01b0316636a42b8f86040518163ffffffff1660e01b8152600401602060405180830381868061131e6132c6565b905060005b82600301806123a86130dc565b90508110156125cd576125c58360030182816123c26130dc565b81106123ca57fe5b906000526020600020016000906123df6130dc565b906101000a90046001600160a01b03168460040183816123fd6130dc565b811061240557fe5b906000526020600020016124176130dc565b8560050184816124256130dc565b811061242d57fe5b90600052602060002001806124406130dc565b600181600116156101000203166002900480601f01602080910402602001604051908101604052818152919060208301828061247a6130dc565b600181600116156101000203166002900480156124e65780601f106124b45761010080836124a66130dc565b0402835291602001916124e6565b820191906000526020600020905b816124cb6130dc565b815290600101906020018083116124c257829003601f168201915b50505050508660060185816124f96130dc565b811061250157fe5b90600052602060002001806125146130dc565b600181600116156101000203166002900480601f01602080910402602001604051908101604052818152919060208301828061254e6130dc565b600181600116156101000203166002900480156125ba5780601f1061258857610100808361257a6130dc565b0402835291602001916125ba565b820191906000526020600020905b8161259f6130dc565b8152906001019060200180831161259657829003601f168201915b505050505086612e93565b60010161239b565b508080600284016125dc613182565b5050507f9a2e42fd6722813d69113e7d0079d3d940171428df7373df9c7f7617cfda289283826040516126109291906154f4565b60405180910390a1505050565b604051610bc290614f2a565b61263161363e565b6000838152600a602052604090206001600160a01b0383166000908152600d91909101602052604090206040516060810160405290816000826126726130dc565b60ff6101009290920a900416151581526020016001826126906130dc565b60ff6101009290920a90041681526020016002826126ac6130dc565b6001600160601b036101009290920a90041690525090505b92915050565b600181565b600060016126db6130dc565b906101000a90046001600160a01b03166001600160a01b03165a6126fd61313c565b6001600160a01b0316148015612725575060005a61271961313c565b6001600160a01b031614155b6127535760405162461bcd60e51b8152600401612741906152e8565b60405180910390612750613071565b50505b6000808061275f6130dc565b906101000a90046001600160a01b03169050600060016000906127806130dc565b906101000a90046001600160a01b03169050600160009061279f6130dc565b906101000a90046001600160a01b03166000806101000a816127bf6130dc565b816001600160a01b0302191690836001600160a01b03160217906127e1613182565b5050506000600160006101000a816127f76130dc565b816001600160a01b0302191690836001600160a01b0316021790612819613182565b5050507ff9ffabca9c8276e99321725bcb43fb076a6c66a54b7f21c4e8146d8519b417dc826000809061284a6130dc565b906101000a90046001600160a01b0316604051612868929190614f9a565b60405180910390a16000805160206157c2833981519152816000600161288c6130dc565b906101000a90046001600160a01b03166040516109a3929190614f9a565b600080610bfa6130dc565b60066108756130dc565b60056128ca82611167565b60078111156128d557fe5b146129045760405162461bcd60e51b81526004016128f290615248565b60405180910390612901613071565b50505b6000818152600a6020526040812090506001600c8201610100816129266130dc565b8160ff0219169083151502179061293b613182565b5060009150505b816003018061294f6130dc565b9050811015612afe57600060086129646130dc565b906101000a90046001600160a01b03166001600160a01b0316630825f38f8360040183816129906130dc565b811061299857fe5b906000526020600020016129aa6130dc565b8460030184816129b86130dc565b81106129c057fe5b906000526020600020016000906129d56130dc565b906101000a90046001600160a01b03168560040185816129f36130dc565b81106129fb57fe5b90600052602060002001612a0d6130dc565b866005018681612a1b6130dc565b8110612a2357fe5b90600052602060002001876006018781612a3b6130dc565b8110612a4357fe5b9060005260206000200188600201612a596130dc565b6040518763ffffffff1660e01b8152600401612a7995949392919061501d565b600060405180830381858880612a8d6132c6565b158015612aa257600080612a9f613071565b50505b505a612aac613358565b505050505050158015612acc573d6000803e3d6000612ac9613071565b50505b50505050506040513d6000823e601f3d908101601f19168201604052612af59190810190613e0c565b50600101612942565b507f712ae1383f79ac853f8d882153778e0260ef8f03b504e2866e0593e04d2b291f826040516109a391906150ab565b6000805a612b3a61365d565b9150505b90565b60006001612b4e84611167565b6007811115612b5957fe5b14612b885760405162461bcd60e51b8152600401612b7690615208565b60405180910390612b85613071565b50505b60028260ff161115612bbe5760405162461bcd60e51b8152600401612bac90615178565b60405180910390612bbb613071565b50505b6000838152600a602052604081206001600160a01b0386166000908152600d8201602052909150604081209050600081612bf66130dc565b60ff6101009290920a90041615612c315760405162461bcd60e51b8152600401612c1f90615218565b60405180910390612c2e613071565b50505b6000806009612c3e6130dc565b906101000a90046001600160a01b03166001600160a01b031663782d6fe18885600701612c696130dc565b6040518363ffffffff1660e01b8152600401612c86929190614fb5565b6020604051808303818680612c996132c6565b158015612cae57600080612cab613071565b50505b505a612cb86131d0565b5050505050158015612cd7573d6000803e3d6000612cd4613071565b50505b50505050604051601f3d908101601f19168201604052612cfa9190810190613fbd565b905060ff8516612d3757612d2283600a01612d136130dc565b826001600160601b0316612e1c565b80600a8501612d2f613182565b505050612d8b565b8460ff1660011415612d5f57612d5283600901612d136130dc565b8060098501612d2f613182565b8460ff1660021415612d8b57612d7a83600b01612d136130dc565b80600b8501612d87613182565b5050505b6001828181612d986130dc565b8160ff02191690831515021790612dad613182565b5086915083905061010081612dc06130dc565b8160ff021916908360ff16021790612dd6613182565b508291508390506201000081612dea6130dc565b816001600160601b0302191690836001600160601b0316021790612e0c613182565b50919450505050505b9392505050565b600082820183811015612e155760405162461bcd60e51b8152600401612e41906152b8565b60405180910390612e50613071565b50509392505050565b600082821115612e8d5760405162461bcd60e51b8152600401612e7b906153a8565b60405180910390612e8a613071565b50505b50900390565b60006008612e9f6130dc565b906101000a90046001600160a01b03166001600160a01b031663f2b065378686868686604051602001612ed6959493929190614fc3565b604051602081830303815290604052805190602001206040518263ffffffff1660e01b8152600401612f0891906150ab565b6020604051808303818680612f1b6132c6565b158015612f3057600080612f2d613071565b50505b505a612f3a6131d0565b5050505050158015612f59573d6000803e3d6000612f56613071565b50505b50505050604051601f3d908101601f19168201604052612f7c9190810190613dbe565b15612fab5760405162461bcd60e51b8152600401612f99906151a8565b60405180910390612fa8613071565b50505b60006008612fb76130dc565b906101000a90046001600160a01b03166001600160a01b0316633a66f90186868686866040518663ffffffff1660e01b8152600401612ffa959493929190614fc3565b6020604051808303816000878061300f6132c6565b15801561302457600080613021613071565b50505b505a61302e613358565b50505050505015801561304e573d6000803e3d600061304b613071565b50505b50505050604051601f3d908101601f1916820160405261194f9190810190613de5565b632a2a7adb598160e01b8152600481016020815285602082015260005b868110156130a957808601518282016040015260200161308e565b506020828760640184336000905af158600e01573d6000803e3d6000fd5b3d6001141558600a015760016000f35b505050565b6303daa959598160e01b8152836004820152602081602483336000905af158600e01573d6000803e3d6000fd5b3d6001141558600a015760016000f35b8051935060005b604081101561313757600082820152602001613120565b505050565b6373509064598160e01b8152602081600483336000905af158600e01573d6000803e3d6000fd5b3d6001141558600a015760016000f35b80516000825293506020613120565b6322bd64c0598160e01b8152836004820152846024820152600081604483336000905af158600e01573d6000803e3d6000fd5b3d6001141558600a015760016000f35b600081526020613120565b638540661f598160e01b8152836004820152846024820152606060448201528660648201526084810160005b888110156132145780880151828201526020016131fc565b506060828960a40184336000905af158600e01573d6000803e3d6000fd5b3d6001141558600a015760016000f35b815160408301513d6000853e8b8b82606087013350600060045af15059845b818110156132755760008152602001613261565b50919b505050505050565b635a98c361598160e01b8152602081600483336000905af158600e01573d6000803e3d6000fd5b3d6001141558600a015760016000f35b80516000825293506020613120565b638435035b598160e01b8152836004820152602081602483336000905af158600e01573d6000803e3d6000fd5b3d6001141558600a015760016000f35b80516000825293506020613120565b63bdbf8c36598160e01b8152602081600483336000905af158600e01573d6000803e3d6000fd5b3d6001141558600a015760016000f35b80516000825293506020613120565b6385979f76598160e01b8152836004820152846024820152606060448201528760648201526084810160005b8981101561339c578089015182820152602001613384565b506060828a60a40184336000905af158600e01573d6000803e3d6000fd5b3d6001141558600a015760016000f35b815160408301513d6000853e8c8c82606087013350600060045af15059845b818110156133fd57600081526020016133e9565b50919c505050505050565b604051806101c001604052806000815260200160006001600160a01b03168152602001600081526020016060815260200160608152602001606081526020016060815260200160008152602001600081526020016000815260200160008152602001600081526020016000151581526020016000151581525090565b828061348e6130dc565b8282613498613182565b50509060005260206000209081019282156134fe579160200282015b828111156134fe578251826001816134ca6130dc565b816001600160a01b0302191690836001600160a01b03160217906134ec613182565b505050916020019190600101906134b4565b5061350a9291506136a3565b5090565b82806135186130dc565b8282613522613182565b5050906000526020600020908101928215613562579160200282015b8281111561356257825182613551613182565b50509160200191906001019061353e565b5061350a9291506136df565b82806135786130dc565b8282613582613182565b50509060005260206000209081019282156135ca579160200282015b828111156135ca578251829080516135ba929160200190613704565b509160200191906001019061359e565b5061350a929150613794565b82806135e06130dc565b82826135ea613182565b5050906000526020600020908101928215613632579160200282015b82811115613632578251829080516136229291602001906137b7565b5091602001919060010190613606565b5061350a929150613840565b6040516060810160409081526000808352602083018190529082015290565b6390580256598160e01b8152602081600483336000905af158600e01573d6000803e3d6000fd5b3d6001141558600a015760016000f35b80516000825293506020613120565b612b3e91905b8082111561350a576000816001816136bf6130dc565b906001600160a01b03021916906136d4613182565b5050506001016136a9565b612b3e91905b8082111561350a57600080826136f9613182565b5050506001016136e5565b828061370e6130dc565b600181600116156101000203166002900490600052602060002090601f016020900481019282601f1061375557805160ff1916838001178561374e613182565b5050613562565b82800160010185613764613182565b50508215613562579182015b8281111561356257825182613783613182565b505091602001919060010190613770565b612b3e91905b8082111561350a5760006137ae8282613863565b5060010161379a565b82806137c16130dc565b600181600116156101000203166002900490600052602060002090601f016020900481019282601f1061380157805160ff1916838001178561374e613182565b82800160010185613810613182565b50508215613562579182015b828111156135625782518261382f613182565b50509160200191906001019061381c565b612b3e91905b8082111561350a57600061385a8282613863565b50600101613846565b508061386d6130dc565b6001816001161561010002031660029004600082613889613182565b505080601f1061389957506138b5565b601f01602090049060005260206000206138b5918101906136df565b50565b80356126c4816156e3565b600082601f8301126138dd576000806138da613071565b50505b81356138f06138eb826155b4565b615581565b9150818183526020840193506020810190508385602084028201111561391e5760008061391b613071565b50505b60005b8381101561394a578161393488826138b8565b8452506020928301929190910190600101613921565b5050505092915050565b600082601f83011261396e5760008061396b613071565b50505b813561397c6138eb826155b4565b81815260209384019390925082018360005b8381101561394a57813586016139a48882613acb565b845250602092830192919091019060010161398e565b600082601f8301126139d4576000806139d1613071565b50505b81356139e26138eb826155b4565b81815260209384019390925082018360005b8381101561394a5781358601613a0a8882613acb565b84525060209283019291909101906001016139f4565b600082601f830112613a3a57600080613a37613071565b50505b8135613a486138eb826155b4565b91508181835260208401935060208101905083856020840282011115613a7657600080613a73613071565b50505b60005b8381101561394a5781613a8c8882613ab1565b8452506020928301929190910190600101613a79565b6000815190506126c4816156fd565b80356126c481615706565b6000815190506126c481615706565b600082601f830112613ae557600080613ae2613071565b50505b8135613af36138eb826155dd565b91508082526020830160208301858383011115613b1857600080613b15613071565b50505b613b23838284615697565b50505092915050565b600082601f830112613b4657600080613b43613071565b50505b8151613b546138eb826155dd565b91508082526020830160208301858383011115613b7957600080613b76613071565b50505b613b238382846156a3565b60008083601f840112613b9f57600080613b9c613071565b50505b5081356001600160401b03811115613bbf57600080613bbc613071565b50505b602083019150836001820283011115613be057600080613bdd613071565b50505b9250929050565b80356126c48161570f565b6000815190506126c481615718565b600060208284031215613c1c57600080613c19613071565b50505b6000613c2884846138b8565b949350505050565b600080600080600060a08688031215613c5157600080613c4e613071565b50505b6000613c5d88886138b8565b9550506020613c6e888289016138b8565b9450506040613c7f88828901613ab1565b9350506060613c9088828901613ab1565b9250506080613ca188828901613ab1565b9150509295509295909350565b600080600080600060a08688031215613ccf57600080613ccc613071565b50505b85356001600160401b03811115613cee57600080613ceb613071565b50505b613cfa888289016138c3565b95505060208601356001600160401b03811115613d1f57600080613d1c613071565b50505b613d2b88828901613a20565b94505060408601356001600160401b03811115613d5057600080613d4d613071565b50505b613d5c888289016139ba565b93505060608601356001600160401b03811115613d8157600080613d7e613071565b50505b613d8d88828901613954565b92505060808601356001600160401b03811115613db257600080613daf613071565b50505b613ca188828901613acb565b600060208284031215613dd957600080613dd6613071565b50505b6000613c288484613aa2565b600060208284031215613e0057600080613dfd613071565b50505b6000613c288484613abc565b600060208284031215613e2757600080613e24613071565b50505b81516001600160401b03811115613e4657600080613e43613071565b50505b613c2884828501613b2c565b600060208284031215613e6d57600080613e6a613071565b50505b6000613c288484613ab1565b60008060408385031215613e9557600080613e92613071565b50505b6000613ea18585613ab1565b9250506020613eb2858286016138b8565b9150509250929050565b60008060408385031215613ed857600080613ed5613071565b50505b6000613ee48585613ab1565b9250506020613eb285828601613be7565b60008060008060608587031215613f1457600080613f11613071565b50505b6000613f208787613ab1565b9450506020613f3187828801613be7565b93505060408501356001600160401b03811115613f5657600080613f53613071565b50505b613f6287828801613b84565b95989497509550505050565b600080600080600060a08688031215613f8f57600080613f8c613071565b50505b6000613f9b8888613ab1565b9550506020613fac88828901613be7565b9450506040613c7f88828901613be7565b600060208284031215613fd857600080613fd5613071565b50505b6000613c288484613bf2565b6000613ff0838361401f565b505060200190565b6000612e1583836141c1565b6000613ff083836141a7565b6140198161566f565b82525050565b61401981615637565b600061403382615624565b61403d818561562e565b93506140488361560d565b8060005b838110156140765781516140608882613fe4565b975061406b8361560d565b92505060010161404c565b509495945050505050565b600061408c82615624565b614096818561562e565b9350836020820285016140a88561560d565b8060005b858110156140e257848403895281516140c58582613ff8565b94506140d08361560d565b60209a909a01999250506001016140ac565b5091979650505050505050565b60006140fa82615624565b614104818561562e565b9350836020820285016141168561560d565b8060005b858110156140e257848403895281516141338582613ff8565b945061413e8361560d565b60209a909a019992505060010161411a565b600061415b82615624565b614165818561562e565b93506141708361560d565b8060005b838110156140765781516141888882614004565b97506141938361560d565b925050600101614174565b61401981615642565b61401981612b3e565b6140196141bc82612b3e565b612b3e565b60006141cc82615624565b6141d6818561562e565b93506141e68185602086016156a3565b6141ef816156cf565b9093019392505050565b6000816142046130dc565b60018116801561421b576001811461424157614288565b607f600283041661422c818761562e565b60ff1984168152955050602085019250614288565b6002820461424f818761562e565b955061425a85615613565b60005b82811015614281578161426e6130dc565b888201526001919091019060200161425d565b8701945050505b505092915050565b61401981615676565b61401981615681565b60006142ae838561562e565b93506142bb838584615697565b6141ef836156cf565b6000816142cf6130dc565b60018116801561421b57600181146142e657614288565b600282046142f4818761562e565b95506142ff85615613565b60005b8281101561428157816143136130dc565b8882015260019190910190602001614302565b600061433360328361562e565b60008051602061574283398151915281527120696e76616c696420766f7465207479706560701b602082015260400192915050565b60006143756028836113a2565b7f42616c6c6f742875696e743235362070726f706f73616c49642c75696e743820815267737570706f72742960c01b602082015260280192915050565b60006143bf60338361562e565b7f476f7665726e6f72427261766f3a3a696e697469616c697a653a2063616e206f8152726e6c7920696e697469616c697a65206f6e636560681b602082015260400192915050565b6000614414602a8361562e565b7f476f7665726e6f72427261766f3a5f73657450656e64696e6741646d696e3a2081526961646d696e206f6e6c7960b01b602082015260400192915050565b600061446060558361562e565b7f476f7665726e6f72427261766f3a3a71756575654f72526576657274496e746581527f726e616c3a206964656e746963616c2070726f706f73616c20616374696f6e20602082015274616c7265616479207175657565642061742065746160581b604082015260600192915050565b60006144dd602b8361562e565b60008051602061580283398151915281526a2061646d696e206f6e6c7960a81b602082015260400192915050565b600061451860338361562e565b60008051602061576283398151915281527269642074696d656c6f636b206164647265737360681b602082015260400192915050565b600061455b602a8361562e565b6000805160206157e283398151915281526961646d696e206f6e6c7960b01b602082015260400192915050565b600061459560318361562e565b7f476f7665726e6f72427261766f3a3a70726f706f73653a20476f7665726e6f7281527020427261766f206e6f742061637469766560781b602082015260400192915050565b60006145e86002836113a2565b61190160f01b815260020192915050565b600061460660368361562e565b600080516020615802833981519152815275081a5b9d985b1a59081d9bdd1a5b99c81c195c9a5bd960521b602082015260400192915050565b600061464c60318361562e565b600080516020615742833981519152815270081d9bdd1a5b99c81a5cc818db1bdcd959607a1b602082015260400192915050565b600061468d60348361562e565b600080516020615742833981519152815273081d9bdd195c88185b1c9958591e481d9bdd195960621b602082015260400192915050565b60006146d160348361562e565b6000805160206157e2833981519152815273696e76616c696420766f74696e672064656c617960601b602082015260400192915050565b600061471560358361562e565b6000805160206157628339815191528152741a59081c1c9bdc1bdcd85b081d1a1c995cda1bdb19605a1b602082015260400192915050565b600061475a60458361562e565b7f476f7665726e6f72427261766f3a3a657865637574653a2070726f706f73616c81527f2063616e206f6e6c7920626520657865637574656420696620697420697320716020820152641d595d595960da1b604082015260600192915050565b60006147c7602f8361562e565b7f476f7665726e6f72427261766f3a3a63617374566f746542795369673a20696e81526e76616c6964207369676e617475726560881b602082015260400192915050565b6000614818602f8361562e565b60008051602061576283398151915281526e696420766f74696e672064656c617960881b602082015260400192915050565b600061485760448361562e565b7f476f7665726e6f72427261766f3a3a70726f706f73653a2070726f706f73616c81527f2066756e6374696f6e20696e666f726d6174696f6e206172697479206d69736d6020820152630c2e8c6d60e31b604082015260600192915050565b60006148c360258361562e565b7f476f7665726e6f72427261766f3a3a696e697469616c697a653a2061646d696e815264206f6e6c7960d81b602082015260400192915050565b600061490a60408361562e565b60008051602061572283398151915281527f686f6c643a20696e76616c69642070726f706f73616c207468726573686f6c64602082015260400192915050565b600061495760448361562e565b7f476f7665726e6f72427261766f3a3a71756575653a2070726f706f73616c206381527f616e206f6e6c79206265207175657565642069662069742069732073756363656020820152631959195960e21b604082015260600192915050565b60006149c360118361562e565b706164646974696f6e206f766572666c6f7760781b815260200192915050565b60006149f06043836113a2565b7f454950373132446f6d61696e28737472696e67206e616d652c75696e7432353681527f20636861696e49642c6164647265737320766572696679696e67436f6e74726160208201526263742960e81b604082015260430192915050565b6000614a5b60308361562e565b7f476f7665726e6f72427261766f3a3a5f696e6974696174653a2063616e206f6e81526f6c7920696e697469617465206f6e636560801b602082015260400192915050565b6000614aad602c8361562e565b7f476f7665726e6f72427261766f3a3a70726f706f73653a206d7573742070726f81526b7669646520616374696f6e7360a01b602082015260400192915050565b6000614afb602e8361562e565b7f476f7665726e6f72427261766f3a5f61636365707441646d696e3a2070656e6481526d696e672061646d696e206f6e6c7960901b602082015260400192915050565b6000614b4b602f8361562e565b7f476f7665726e6f72427261766f3a3a63616e63656c3a2070726f706f7365722081526e18589bdd99481d1a1c995cda1bdb19608a1b602082015260400192915050565b6000614b9c60288361562e565b7f476f7665726e6f72427261766f3a3a70726f706f73653a20746f6f206d616e7981526720616374696f6e7360c01b602082015260400192915050565b6000614be660598361562e565b60008051602061578283398151915281526000805160206157a283398151915260208201527808185b1c9958591e481c195b991a5b99c81c1c9bdc1bdcd85b603a1b604082015260600192915050565b6000614c4360318361562e565b60008051602061576283398151915281527069642043546f6b656e206164647265737360781b602082015260400192915050565b6000614c8460588361562e565b60008051602061578283398151915281526000805160206157a283398151915260208201527708185b1c9958591e481858dd1a5d99481c1c9bdc1bdcd85b60421b604082015260600192915050565b60006126c460008361562e565b6000614ced60248361562e565b7f476f7665726e6f72427261766f3a3a5f696e6974696174653a2061646d696e208152636f6e6c7960e01b602082015260400192915050565b6000614d33603f8361562e565b7f476f7665726e6f72427261766f3a3a70726f706f73653a2070726f706f73657281527f20766f7465732062656c6f772070726f706f73616c207468726573686f6c6400602082015260400192915050565b6000614d9260368361562e565b7f476f7665726e6f72427261766f3a3a63616e63656c3a2063616e6e6f742063618152751b98d95b08195e1958dd5d1959081c1c9bdc1bdcd85b60521b602082015260400192915050565b6000614dea60308361562e565b60008051602061572283398151915281526f686f6c643a2061646d696e206f6e6c7960801b602082015260400192915050565b6000614e2a60298361562e565b7f476f7665726e6f72427261766f3a3a73746174653a20696e76616c69642070728152681bdc1bdcd85b081a5960ba1b602082015260400192915050565b6000614e7560308361562e565b60008051602061576283398151915281526f1a59081d9bdd1a5b99c81c195c9a5bd960821b602082015260400192915050565b6000614eb560158361562e565b747375627472616374696f6e20756e646572666c6f7760581b815260200192915050565b606082018151614ee9848261419e565b506020820151614efc6020850182614f0f565b5060408201516119526040850182614f21565b6140198161565d565b6140198161568c565b61401981615663565b60006126c482614368565b6000614f40826145db565b9150614f4c82856141b0565b602082019150614f5c82846141b0565b5060200192915050565b60006126c4826149e3565b602081016126c4828461401f565b60408101614f8d8285614010565b612e1560208301846141a7565b60408101614fa8828561401f565b612e15602083018461401f565b60408101614f8d828561401f565b60a08101614fd1828861401f565b614fde60208301876141a7565b8181036040830152614ff081866141c1565b9050818103606083015261500481856141c1565b905061501360808301846141a7565b9695505050505050565b60a0810161502b828861401f565b61503860208301876141a7565b818103604083015261504a81866142c4565b9050818103606083015261500481856141f9565b6080808252810161506f8187614028565b905081810360208301526150838186614150565b9050818103604083015261509781856140ef565b905081810360608301526150138184614081565b602081016126c482846141a7565b608081016150c782876141a7565b6150d460208301866141a7565b6150e160408301856141a7565b6122db606083018461401f565b606081016150fc82866141a7565b61510960208301856141a7565b613c286040830184614f0f565b6080810161512482876141a7565b6151316020830186614f0f565b61513e60408301856141a7565b6122db60608301846141a7565b602081016126c48284614290565b602081016126c48284614299565b60208082528101612e1581846141c1565b602080825281016126c481614326565b602080825281016126c4816143b2565b602080825281016126c481614407565b602080825281016126c481614453565b602080825281016126c4816144d0565b602080825281016126c48161450b565b602080825281016126c48161454e565b602080825281016126c481614588565b602080825281016126c4816145f9565b602080825281016126c48161463f565b602080825281016126c481614680565b602080825281016126c4816146c4565b602080825281016126c481614708565b602080825281016126c48161474d565b602080825281016126c4816147ba565b602080825281016126c48161480b565b602080825281016126c48161484a565b602080825281016126c4816148b6565b602080825281016126c4816148fd565b602080825281016126c48161494a565b602080825281016126c4816149b6565b602080825281016126c481614a4e565b602080825281016126c481614aa0565b602080825281016126c481614aee565b602080825281016126c481614b3e565b602080825281016126c481614b8f565b602080825281016126c481614bd9565b602080825281016126c481614c36565b602080825281016126c481614c77565b602080825281016126c481614ce0565b602080825281016126c481614d26565b602080825281016126c481614d85565b602080825281016126c481614ddd565b602080825281016126c481614e1d565b602080825281016126c481614e68565b602080825281016126c481614ea8565b606081016126c48284614ed9565b61012081016153d5828c6141a7565b6153e2602083018b614010565b81810360408301526153f4818a614028565b905081810360608301526154088189614150565b9050818103608083015261541c81886140ef565b905081810360a08301526154308187614081565b905061543f60c08301866141a7565b61544c60e08301856141a7565b81810361010083015261545f81846141c1565b9b9a5050505050505050505050565b610140810161547d828d6141a7565b61548a602083018c61401f565b615497604083018b6141a7565b6154a4606083018a6141a7565b6154b160808301896141a7565b6154be60a08301886141a7565b6154cb60c08301876141a7565b6154d860e08301866141a7565b6154e661010083018561419e565b61545f61012083018461419e565b60408101614f8d82856141a7565b6080810161551082886141a7565b61551d6020830187614f0f565b61552a6040830186614f18565b818103606083015261553d8184866142a2565b979650505050505050565b6080810161555682866141a7565b6155636020830185614f0f565b6155706040830184614f18565b81810360608301526122db81614cd3565b600060405190508181018181106001600160401b03821117156155ac576000806155a9613071565b50505b604052919050565b60006001600160401b038211156155d3576000806155d0613071565b50505b5060209081020190565b60006001600160401b038211156155fc576000806155f9613071565b50505b506020601f91909101601f19160190565b60200190565b600081815281906020902092915050565b6000815192915050565b90815260200190565b60006126c482615651565b151590565b806113a2816156d9565b6001600160a01b031690565b60ff1690565b6001600160601b031690565b60006126c4825b60006126c482615637565b60006126c482615647565b60006126c482615663565b82818337506000910152565b60005b838110156156be5780820151838201526020016156a6565b838111156119525750506000910152565b601f01601f191690565b600881106138b557fe5b6156ec81615637565b81146138b557600080613137613071565b6156ec81615642565b6156ec81612b3e565b6156ec8161565d565b6156ec8161566356fe476f7665726e6f72427261766f3a3a5f73657450726f706f73616c5468726573476f7665726e6f72427261766f3a3a63617374566f7465496e7465726e616c3a476f7665726e6f72427261766f3a3a696e697469616c697a653a20696e76616c476f7665726e6f72427261766f3a3a70726f706f73653a206f6e65206c6976652070726f706f73616c207065722070726f706f7365722c20666f756e6420616eca4f2f25d0898edd99413412fb94012f9e54ec8142f9b093e7720646a95b16a9476f7665726e6f72427261766f3a3a5f736574566f74696e6744656c61793a20476f7665726e6f72427261766f3a3a5f736574566f74696e67506572696f643ab8e138887d0aa13bab447e82de9d5c1777041ecd21ca36ba824ff1e6c07ddda4",
  "deployedBytecode": "0x6080604052600436106101cb5760003560e01c8063013cf08b146101d957806302a251a31461022157806306fdde031461024c5780630ea2d98c1461027757806317977c61146102a257806317ba1b8b146102cb5780631dfb1b5a146102f457806320606b701461031d578063215809ca1461033b57806324bc1a641461035957806325fd935a146103775780632678224714610395578063328dd982146103c05780633932abb1146103f95780633bccf4fd146104175780633e4f49e61461044057806340e58ee514610476578063567813881461049f5780635c60da1b146104c8578063791f5d23146104e65780637b3c71d3146105045780637bdbe4d01461052d578063878f14821461054b578063a64e024a14610569578063b112626314610587578063b58131b0146105a5578063b71d1a0c146105c3578063ccf3eb9f146105ec578063d13f90b414610617578063d33219b414610640578063da35c6641461065e578063da95691a1461067c578063ddf0b009146106a5578063deaaa7cc146106ce578063e23a9a52146106ec578063e48083fe14610722578063e9c714f214610740578063f851a4401461075e578063fc4eee421461077c578063fe0d94c11461079a575b6000806101d6613071565b50505b3480156101ee576000806101eb613071565b50505b506102026101fd366004613e52565b6107ad565b6040516102189a9998979695949392919061546e565b60405180910390f35b34801561023657600080610233613071565b50505b5061023f61086b565b60405161021891906150ab565b3480156102615760008061025e613071565b50505b5061026a610878565b6040516102189190615167565b34801561028c57600080610289613071565b50505b506102a061029b366004613e52565b6108a5565b005b3480156102b7576000806102b4613071565b50505b5061023f6102c6366004613c01565b6109af565b3480156102e0576000806102dd613071565b50505b506102a06102ef366004613e52565b6109c7565b34801561030957600080610306613071565b50505b506102a0610318366004613e52565b610ac7565b3480156103325760008061032f613071565b50505b5061023f610bb6565b3480156103505760008061034d613071565b50505b5061023f610bcd565b34801561036e5760008061036b613071565b50505b5061023f610bd2565b34801561038c57600080610389613071565b50505b5061023f610be0565b3480156103aa576000806103a7613071565b50505b506103b3610bee565b6040516102189190614f71565b3480156103d5576000806103d2613071565b50505b506103e96103e4366004613e52565b610c0d565b604051610218949392919061505e565b34801561040e5760008061040b613071565b50505b5061023f610f33565b34801561042c57600080610429613071565b50505b506102a061043b366004613f6e565b610f3d565b34801561045557600080610452613071565b50505b50610469610464366004613e52565b611167565b6040516102189190615159565b34801561048b57600080610488613071565b50505b506102a061049a366004613e52565b6113a7565b3480156104b4576000806104b1613071565b50505b506102a06104c3366004613ebc565b611734565b3480156104dd576000806104da613071565b50505b506103b3611785565b3480156104fb576000806104f8613071565b50505b5061023f611791565b34801561051957600080610516613071565b50505b506102a0610528366004613ef5565b61179f565b3480156105425760008061053f613071565b50505b5061023f6117f6565b3480156105605760008061055d613071565b50505b506102a06117fb565b34801561057e5760008061057b613071565b50505b5061023f611958565b34801561059c57600080610599613071565b50505b5061023f61195f565b3480156105ba576000806105b7613071565b50505b5061023f611965565b3480156105d8576000806105d5613071565b50505b506102a06105e7366004613c01565b61196f565b348015610601576000806105fe613071565b50505b5061060a611a49565b604051610218919061514b565b34801561062c57600080610629613071565b50505b506102a061063b366004613c30565b611a55565b34801561065557600080610652613071565b50505b5061060a611cf5565b34801561067357600080610670613071565b50505b5061023f611d01565b3480156106915760008061068e613071565b50505b5061023f6106a0366004613cae565b611d0b565b3480156106ba576000806106b7613071565b50505b506102a06106c9366004613e52565b6122e4565b3480156106e3576000806106e0613071565b50505b5061023f61261d565b348015610701576000806106fe613071565b50505b50610715610710366004613e79565b612629565b60405161021891906153b8565b34801561073757600080610734613071565b50505b5061023f6126ca565b34801561075557600080610752613071565b50505b506102a06126cf565b34801561077357600080610770613071565b50505b506103b36128aa565b3480156107915760008061078e613071565b50505b5061023f6128b5565b6102a06107a8366004613e52565b6128bf565b600a6020528060005260406000209050806107c66130dc565b906000600182016107d56130dc565b906101000a90046001600160a01b031690806002016107f26130dc565b90806007016107ff6130dc565b908060080161080c6130dc565b90806009016108196130dc565b9080600a016108266130dc565b9080600b016108336130dc565b906000600c82016108426130dc565b906101000a900460ff169080600c0160019061085c6130dc565b906101000a900460ff1690508a565b60046108756130dc565b81565b604051604080820190526013815272426f626120476f7665726e6f7220427261766f60681b602082015281565b6000806108b06130dc565b906101000a90046001600160a01b03166001600160a01b03165a6108d261313c565b6001600160a01b03161461090a5760405162461bcd60e51b81526004016108f8906151b8565b60405180910390610907613071565b50505b6002811015801561091e575062013b008111155b61094c5760405162461bcd60e51b815260040161093a906151f8565b60405180910390610949613071565b50505b600060046109586130dc565b905081806004610966613182565b5050507f7e3f7f0708a84de9203036abaa450dccc85ad5ff52f78c170f3edb55cf5e88288160046109956130dc565b6040516109a39291906154f4565b60405180910390a15050565b600b60205280600052604060002090506108756130dc565b6000806109d26130dc565b906101000a90046001600160a01b03166001600160a01b03165a6109f461313c565b6001600160a01b031614610a2c5760405162461bcd60e51b8152600401610a1a90615378565b60405180910390610a29613071565b50505b690a968163f0a57b4000008110158015610a50575069152d02c7e14af68000008111155b610a7e5760405162461bcd60e51b8152600401610a6c90615298565b60405180910390610a7b613071565b50505b60006005610a8a6130dc565b905081806005610a98613182565b5050507fccb45da8d5717e6c4544694297c4ba5cf151d455c9bb0ed4fc7a38411bc054618160056109956130dc565b600080610ad26130dc565b906101000a90046001600160a01b03166001600160a01b03165a610af461313c565b6001600160a01b031614610b2c5760405162461bcd60e51b8152600401610b1a906151d8565b60405180910390610b29613071565b50505b60018110158015610b3f5750619d808111155b610b6d5760405162461bcd60e51b8152600401610b5b90615228565b60405180910390610b6a613071565b50505b60006003610b796130dc565b905081806003610b87613182565b5050507fc565b045403dc03c2eea82b81a0465edad9e2e7fc4d97e11421c209da93d7a938160036109956130dc565b604051610bc290614f66565b604051809103902081565b600281565b6954b40b1f852bda00000081565b69152d02c7e14af680000081565b60006001610bfa6130dc565b906101000a90046001600160a01b031681565b6000818152600a602052606090819081908190604081209050806003018160040182600501836006018380610c406130dc565b806020026020016040519081016040528181529190602083018280610c636130dc565b8015610cb057602002820191906000526020600020905b600082610c856130dc565b906101000a90046001600160a01b03166001600160a01b031681526020019060010190808311610c7a575b505050505093508280610cc16130dc565b806020026020016040519081016040528181529190602083018280610ce46130dc565b8015610d1657602002820191906000526020600020905b81610d046130dc565b81526020019060010190808311610cfb575b505050505092508180610d276130dc565b8060200260200160405190810160405281815291906000602084015b82821015610e1a5783829060005260206000200180610d606130dc565b600181600116156101000203166002900480601f016020809104026020016040519081016040528181529190602083018280610d9a6130dc565b60018160011615610100020316600290048015610e065780601f10610dd4576101008083610dc66130dc565b040283529160200191610e06565b820191906000526020600020905b81610deb6130dc565b81529060010190602001808311610de257829003601f168201915b505050505081526020019060010190610d43565b5050505091508080610e2a6130dc565b8060200260200160405190810160405281815291906000602084015b82821015610f1d5783829060005260206000200180610e636130dc565b600181600116156101000203166002900480601f016020809104026020016040519081016040528181529190602083018280610e9d6130dc565b60018160011615610100020316600290048015610f095780601f10610ed7576101008083610ec96130dc565b040283529160200191610f09565b820191906000526020600020905b81610eee6130dc565b81529060010190602001808311610ee557829003601f168201915b505050505081526020019060010190610e46565b5050505090509450945094509450509193509193565b60036108756130dc565b6000604051610f4b90614f66565b6040518091039020604051604080820190526013815272426f626120476f7665726e6f7220427261766f60681b602082015280519060200120610f8c612b2e565b5a63996d79a5598160e01b8152602081600483336000905af158601d01573d60011458600c01573d6000803e3d621234565260ea61109c528051925060005b6040811015610fe257600082820152602001610fcb565b505050604051602001610ff894939291906150b9565b604051602081830303815290604052805190602001209050600060405161101e90614f2a565b6040518091039020878760405160200161103a939291906150ee565b60405160208183030381529060405280519060200120905060008282604051602001611067929190614f35565b6040516020818303038152906040528051906020012090506000600182888888604051600081526020016040526040516110a49493929190615116565b6020604051602081039080840390855a6110bc6131d0565b50505050501580156110db573d6000803e3d60006110d8613071565b50505b5050506020604051035190506001600160a01b03811661111f5760405162461bcd60e51b815260040161110d90615258565b6040518091039061111c613071565b50505b806001600160a01b03166000805160206158228339815191528a8a611145858e8e612b41565b60405161115493929190615548565b60405180910390a2505050505050505050565b60008160076111746130dc565b1015801561118a575060066111876130dc565b82115b6111b85760405162461bcd60e51b81526004016111a690615388565b604051809103906111b5613071565b50505b6000828152600a6020526040812090506000600c82016111d66130dc565b906101000a900460ff16156111ef5760029150506113a2565b806007016111fb6130dc565b5a611204613280565b116112135760009150506113a2565b8060080161121f6130dc565b5a611228613280565b116112375760019150506113a2565b80600a016112436130dc565b8160090161124f6130dc565b11158061127057506954b40b1f852bda0000008160090161126e6130dc565b105b1561127f5760039150506113a2565b8060020161128b6130dc565b6112995760049150506113a2565b6001600c82016112a76130dc565b906101000a900460ff16156112c05760079150506113a2565b611384816002016112cf6130dc565b600060086112db6130dc565b906101000a90046001600160a01b03166001600160a01b031663c1a287e26040518163ffffffff1660e01b8152600401602060405180830381868061131e6132c6565b15801561133357600080611330613071565b50505b505a61133d6131d0565b505050505015801561135c573d6000803e3d6000611359613071565b50505b50505050604051601f3d908101601f1916820160405261137f9190810190613de5565b612e1c565b5a61138d613312565b1061139c5760069150506113a2565b60059150505b919050565b60076113b282611167565b60078111156113bd57fe5b14156113ed5760405162461bcd60e51b81526004016113db90615368565b604051809103906113ea613071565b50505b6000818152600a60205260408120905060006001820161140b6130dc565b906101000a90046001600160a01b03166001600160a01b03165a61142d61313c565b6001600160a01b03161480611537575060056114476130dc565b600060096114536130dc565b6001600160a01b036101009290920a90041663782d6fe16000600185016114786130dc565b906101000a90046001600160a01b031661149b5a611494613280565b6001612e59565b6040518363ffffffff1660e01b81526004016114b8929190614fb5565b60206040518083038186806114cb6132c6565b1580156114e0576000806114dd613071565b50505b505a6114ea6131d0565b5050505050158015611509573d6000803e3d6000611506613071565b50505b50505050604051601f3d908101601f1916820160405261152c9190810190613fbd565b6001600160601b0316105b6115655760405162461bcd60e51b8152600401611553906152f8565b60405180910390611562613071565b50505b6001600c820181816115756130dc565b8160ff0219169083151502179061158a613182565b5060009150505b816003018061159e6130dc565b905081101561170457600060086115b36130dc565b906101000a90046001600160a01b03166001600160a01b031663591fcdfe8360030183816115df6130dc565b81106115e757fe5b906000526020600020016000906115fc6130dc565b906101000a90046001600160a01b031684600401848161161a6130dc565b811061162257fe5b906000526020600020016116346130dc565b8560050185816116426130dc565b811061164a57fe5b906000526020600020018660060186816116626130dc565b811061166a57fe5b90600052602060002001876002016116806130dc565b6040518663ffffffff1660e01b81526004016116a095949392919061501d565b600060405180830381600087806116b56132c6565b1580156116ca576000806116c7613071565b50505b505a6116d4613358565b5050505050501580156116f4573d6000803e3d60006116f1613071565b50505b5050600190920191506115919050565b507f789cf55be980739dad1d0699b93b58e806b51c9d96619bfa8fe0a28abaa7b30c826040516109a391906150ab565b5a61173d61313c565b6001600160a01b0316600080516020615822833981519152838361176a5a61176361313c565b8787612b41565b60405161177993929190615548565b60405180910390a25050565b60006002610bfa6130dc565b690a968163f0a57b40000081565b5a6117a861313c565b6001600160a01b031660008051602061582283398151915285856117d55a6117ce61313c565b8989612b41565b86866040516117e8959493929190615502565b60405180910390a250505050565b600a81565b6000806118066130dc565b906101000a90046001600160a01b03166001600160a01b03165a61182861313c565b6001600160a01b0316146118605760405162461bcd60e51b815260040161184e90615348565b6040518091039061185d613071565b50505b600661186a6130dc565b156118995760405162461bcd60e51b8152600401611887906152c8565b60405180910390611896613071565b50505b60018060076118a6613182565b50505060076118b36130dc565b8060066118be613182565b50505060086000906118ce6130dc565b906101000a90046001600160a01b03166001600160a01b0316630e18b6816040518163ffffffff1660e01b8152600401600060405180830381600087806119136132c6565b15801561192857600080611925613071565b50505b505a611932613358565b505050505050158015611952573d6000803e3d600061194f613071565b50505b50505050565b62013b0081565b619d8081565b60056108756130dc565b60008061197a6130dc565b906101000a90046001600160a01b03166001600160a01b03165a61199c61313c565b6001600160a01b0316146119d45760405162461bcd60e51b81526004016119c290615198565b604051809103906119d1613071565b50505b60008060016119e16130dc565b906101000a90046001600160a01b0316905081600160006101000a81611a056130dc565b816001600160a01b0302191690836001600160a01b0316021790611a27613182565b5050506000805160206157c283398151915281836040516109a3929190614f9a565b60006009610bfa6130dc565b6000806008611a626130dc565b906101000a90046001600160a01b03166001600160a01b031614611aaa5760405162461bcd60e51b8152600401611a9890615188565b60405180910390611aa7613071565b50505b600080611ab56130dc565b906101000a90046001600160a01b03166001600160a01b03165a611ad761313c565b6001600160a01b031614611b0f5760405162461bcd60e51b8152600401611afd90615288565b60405180910390611b0c613071565b50505b6001600160a01b038516611b475760405162461bcd60e51b8152600401611b35906151c8565b60405180910390611b44613071565b50505b6001600160a01b038416611b7f5760405162461bcd60e51b8152600401611b6d90615328565b60405180910390611b7c613071565b50505b60028310158015611b93575062013b008311155b611bc15760405162461bcd60e51b8152600401611baf90615398565b60405180910390611bbe613071565b50505b60018210158015611bd45750619d808211155b611c025760405162461bcd60e51b8152600401611bf090615268565b60405180910390611bff613071565b50505b690a968163f0a57b4000008110158015611c26575069152d02c7e14af68000008111155b611c545760405162461bcd60e51b8152600401611c4290615238565b60405180910390611c51613071565b50505b846008600181611c626130dc565b816001600160a01b0302191690836001600160a01b0316021790611c84613182565b50505083600960006101000a81611c996130dc565b816001600160a01b0302191690836001600160a01b0316021790611cbb613182565b5050508260048190611ccb613182565b5050508160038190611cdb613182565b5050508060058190611ceb613182565b5050505050505050565b60006008610bfa6130dc565b60076108756130dc565b60006006611d176130dc565b611d455760405162461bcd60e51b8152600401611d33906151e8565b60405180910390611d42613071565b50505b6005611d4f6130dc565b60006009611d5b6130dc565b906101000a90046001600160a01b03166001600160a01b031663782d6fe15a611d8261313c565b611d8e5a611494613280565b6040518363ffffffff1660e01b8152600401611dab929190614f7f565b6020604051808303818680611dbe6132c6565b158015611dd357600080611dd0613071565b50505b505a611ddd6131d0565b5050505050158015611dfc573d6000803e3d6000611df9613071565b50505b50505050604051601f3d908101601f19168201604052611e1f9190810190613fbd565b6001600160601b031611611e575760405162461bcd60e51b8152600401611e4590615358565b60405180910390611e54613071565b50505b84518651148015611e69575083518651145b8015611e76575082518651145b611ea45760405162461bcd60e51b8152600401611e9290615278565b60405180910390611ea1613071565b50505b8551611ed45760405162461bcd60e51b8152600401611ec2906152d8565b60405180910390611ed1613071565b50505b600a86511115611f085760405162461bcd60e51b8152600401611ef690615308565b60405180910390611f05613071565b50505b6000600b60005a611f1761313c565b6001600160a01b03166001600160a01b03168152602001908152602001600020611f3f6130dc565b90508015611fd2576000611f5282611167565b90506001816007811115611f6257fe5b1415611f925760405162461bcd60e51b8152600401611f8090615338565b60405180910390611f8f613071565b50505b6000816007811115611fa057fe5b1415611fd05760405162461bcd60e51b8152600401611fbe90615318565b60405180910390611fcd613071565b50505b505b6000611fea5a611fe0613280565b600361137f6130dc565b90506000611ffc82600461137f6130dc565b9050600760008161200b6130dc565b9160018301915061201a613182565b505050612025613408565b604051806101c00160405280600761203b6130dc565b81526020015a61204961313c565b6001600160a01b03168152602001600081526020018b81526020018a815260200189815260200188815260200184815260200183815260200160008152602001600081526020016000815260200160001515815260200160001515815250905080600a6000836000015181526020019081526020016000208151816120cc613182565b50506020820151600180830190816120e26130dc565b816001600160a01b0302191690836001600160a01b0316021790612104613182565b505050604082015181600201612118613182565b5050606082015181600301908051612134929160200190613484565b5060808201518160040190805161214f92916020019061350e565b5060a08201518160050190805161216a92916020019061356e565b5060c0820151816006019080516121859291602001906135d6565b5060e082015181600701612197613182565b5050610100820151816008016121ab613182565b5050610120820151816009016121bf613182565b505061014082015181600a016121d3613182565b505061016082015181600b016121e7613182565b5050610180820151600c82016001816121fe6130dc565b8160ff02191690831515021790612213613182565b5050506101a0820151600c82016101008161222c6130dc565b8160ff02191690831515021790612241613182565b5084935050505051600b600083602001516001600160a01b03166001600160a01b03168152602001908152602001600020819061227c613182565b5050507f7d84a6263ae0d98d3329bd7b46bb4e8d6f98cd35a7adb45c274c8b7fd5ebd5e081600001515a6122ae61313c565b8c8c8c8c89898e6040516122ca999897969594939291906153c6565b60405180910390a180519450505050505b95945050505050565b60046122ef82611167565b60078111156122fa57fe5b146123295760405162461bcd60e51b8152600401612317906152a8565b60405180910390612326613071565b50505b6000818152600a60205260408120905060006123965a612347613312565b600060086123536130dc565b906101000a90046001600160a01b03166001600160a01b0316636a42b8f86040518163ffffffff1660e01b8152600401602060405180830381868061131e6132c6565b905060005b82600301806123a86130dc565b90508110156125cd576125c58360030182816123c26130dc565b81106123ca57fe5b906000526020600020016000906123df6130dc565b906101000a90046001600160a01b03168460040183816123fd6130dc565b811061240557fe5b906000526020600020016124176130dc565b8560050184816124256130dc565b811061242d57fe5b90600052602060002001806124406130dc565b600181600116156101000203166002900480601f01602080910402602001604051908101604052818152919060208301828061247a6130dc565b600181600116156101000203166002900480156124e65780601f106124b45761010080836124a66130dc565b0402835291602001916124e6565b820191906000526020600020905b816124cb6130dc565b815290600101906020018083116124c257829003601f168201915b50505050508660060185816124f96130dc565b811061250157fe5b90600052602060002001806125146130dc565b600181600116156101000203166002900480601f01602080910402602001604051908101604052818152919060208301828061254e6130dc565b600181600116156101000203166002900480156125ba5780601f1061258857610100808361257a6130dc565b0402835291602001916125ba565b820191906000526020600020905b8161259f6130dc565b8152906001019060200180831161259657829003601f168201915b505050505086612e93565b60010161239b565b508080600284016125dc613182565b5050507f9a2e42fd6722813d69113e7d0079d3d940171428df7373df9c7f7617cfda289283826040516126109291906154f4565b60405180910390a1505050565b604051610bc290614f2a565b61263161363e565b6000838152600a602052604090206001600160a01b0383166000908152600d91909101602052604090206040516060810160405290816000826126726130dc565b60ff6101009290920a900416151581526020016001826126906130dc565b60ff6101009290920a90041681526020016002826126ac6130dc565b6001600160601b036101009290920a90041690525090505b92915050565b600181565b600060016126db6130dc565b906101000a90046001600160a01b03166001600160a01b03165a6126fd61313c565b6001600160a01b0316148015612725575060005a61271961313c565b6001600160a01b031614155b6127535760405162461bcd60e51b8152600401612741906152e8565b60405180910390612750613071565b50505b6000808061275f6130dc565b906101000a90046001600160a01b03169050600060016000906127806130dc565b906101000a90046001600160a01b03169050600160009061279f6130dc565b906101000a90046001600160a01b03166000806101000a816127bf6130dc565b816001600160a01b0302191690836001600160a01b03160217906127e1613182565b5050506000600160006101000a816127f76130dc565b816001600160a01b0302191690836001600160a01b0316021790612819613182565b5050507ff9ffabca9c8276e99321725bcb43fb076a6c66a54b7f21c4e8146d8519b417dc826000809061284a6130dc565b906101000a90046001600160a01b0316604051612868929190614f9a565b60405180910390a16000805160206157c2833981519152816000600161288c6130dc565b906101000a90046001600160a01b03166040516109a3929190614f9a565b600080610bfa6130dc565b60066108756130dc565b60056128ca82611167565b60078111156128d557fe5b146129045760405162461bcd60e51b81526004016128f290615248565b60405180910390612901613071565b50505b6000818152600a6020526040812090506001600c8201610100816129266130dc565b8160ff0219169083151502179061293b613182565b5060009150505b816003018061294f6130dc565b9050811015612afe57600060086129646130dc565b906101000a90046001600160a01b03166001600160a01b0316630825f38f8360040183816129906130dc565b811061299857fe5b906000526020600020016129aa6130dc565b8460030184816129b86130dc565b81106129c057fe5b906000526020600020016000906129d56130dc565b906101000a90046001600160a01b03168560040185816129f36130dc565b81106129fb57fe5b90600052602060002001612a0d6130dc565b866005018681612a1b6130dc565b8110612a2357fe5b90600052602060002001876006018781612a3b6130dc565b8110612a4357fe5b9060005260206000200188600201612a596130dc565b6040518763ffffffff1660e01b8152600401612a7995949392919061501d565b600060405180830381858880612a8d6132c6565b158015612aa257600080612a9f613071565b50505b505a612aac613358565b505050505050158015612acc573d6000803e3d6000612ac9613071565b50505b50505050506040513d6000823e601f3d908101601f19168201604052612af59190810190613e0c565b50600101612942565b507f712ae1383f79ac853f8d882153778e0260ef8f03b504e2866e0593e04d2b291f826040516109a391906150ab565b6000805a612b3a61365d565b9150505b90565b60006001612b4e84611167565b6007811115612b5957fe5b14612b885760405162461bcd60e51b8152600401612b7690615208565b60405180910390612b85613071565b50505b60028260ff161115612bbe5760405162461bcd60e51b8152600401612bac90615178565b60405180910390612bbb613071565b50505b6000838152600a602052604081206001600160a01b0386166000908152600d8201602052909150604081209050600081612bf66130dc565b60ff6101009290920a90041615612c315760405162461bcd60e51b8152600401612c1f90615218565b60405180910390612c2e613071565b50505b6000806009612c3e6130dc565b906101000a90046001600160a01b03166001600160a01b031663782d6fe18885600701612c696130dc565b6040518363ffffffff1660e01b8152600401612c86929190614fb5565b6020604051808303818680612c996132c6565b158015612cae57600080612cab613071565b50505b505a612cb86131d0565b5050505050158015612cd7573d6000803e3d6000612cd4613071565b50505b50505050604051601f3d908101601f19168201604052612cfa9190810190613fbd565b905060ff8516612d3757612d2283600a01612d136130dc565b826001600160601b0316612e1c565b80600a8501612d2f613182565b505050612d8b565b8460ff1660011415612d5f57612d5283600901612d136130dc565b8060098501612d2f613182565b8460ff1660021415612d8b57612d7a83600b01612d136130dc565b80600b8501612d87613182565b5050505b6001828181612d986130dc565b8160ff02191690831515021790612dad613182565b5086915083905061010081612dc06130dc565b8160ff021916908360ff16021790612dd6613182565b508291508390506201000081612dea6130dc565b816001600160601b0302191690836001600160601b0316021790612e0c613182565b50919450505050505b9392505050565b600082820183811015612e155760405162461bcd60e51b8152600401612e41906152b8565b60405180910390612e50613071565b50509392505050565b600082821115612e8d5760405162461bcd60e51b8152600401612e7b906153a8565b60405180910390612e8a613071565b50505b50900390565b60006008612e9f6130dc565b906101000a90046001600160a01b03166001600160a01b031663f2b065378686868686604051602001612ed6959493929190614fc3565b604051602081830303815290604052805190602001206040518263ffffffff1660e01b8152600401612f0891906150ab565b6020604051808303818680612f1b6132c6565b158015612f3057600080612f2d613071565b50505b505a612f3a6131d0565b5050505050158015612f59573d6000803e3d6000612f56613071565b50505b50505050604051601f3d908101601f19168201604052612f7c9190810190613dbe565b15612fab5760405162461bcd60e51b8152600401612f99906151a8565b60405180910390612fa8613071565b50505b60006008612fb76130dc565b906101000a90046001600160a01b03166001600160a01b0316633a66f90186868686866040518663ffffffff1660e01b8152600401612ffa959493929190614fc3565b6020604051808303816000878061300f6132c6565b15801561302457600080613021613071565b50505b505a61302e613358565b50505050505015801561304e573d6000803e3d600061304b613071565b50505b50505050604051601f3d908101601f1916820160405261194f9190810190613de5565b632a2a7adb598160e01b8152600481016020815285602082015260005b868110156130a957808601518282016040015260200161308e565b506020828760640184336000905af158601d01573d60011458600c01573d6000803e3d621234565260ea61109c52505050565b6303daa959598160e01b8152836004820152602081602483336000905af158601d01573d60011458600c01573d6000803e3d621234565260ea61109c528051935060005b604081101561313757600082820152602001613120565b505050565b6373509064598160e01b8152602081600483336000905af158601d01573d60011458600c01573d6000803e3d621234565260ea61109c5280516000825293506020613120565b6322bd64c0598160e01b8152836004820152846024820152600081604483336000905af158601d01573d60011458600c01573d6000803e3d621234565260ea61109c52600081526020613120565b638540661f598160e01b8152836004820152846024820152606060448201528660648201526084810160005b888110156132145780880151828201526020016131fc565b506060828960a40184336000905af158601d01573d60011458600c01573d6000803e3d621234565260ea61109c52815160408301513d6000853e8b8b82606087013350600060045af15059845b818110156132755760008152602001613261565b50919b505050505050565b635a98c361598160e01b8152602081600483336000905af158601d01573d60011458600c01573d6000803e3d621234565260ea61109c5280516000825293506020613120565b638435035b598160e01b8152836004820152602081602483336000905af158601d01573d60011458600c01573d6000803e3d621234565260ea61109c5280516000825293506020613120565b63bdbf8c36598160e01b8152602081600483336000905af158601d01573d60011458600c01573d6000803e3d621234565260ea61109c5280516000825293506020613120565b6385979f76598160e01b8152836004820152846024820152606060448201528760648201526084810160005b8981101561339c578089015182820152602001613384565b506060828a60a40184336000905af158601d01573d60011458600c01573d6000803e3d621234565260ea61109c52815160408301513d6000853e8c8c82606087013350600060045af15059845b818110156133fd57600081526020016133e9565b50919c505050505050565b604051806101c001604052806000815260200160006001600160a01b03168152602001600081526020016060815260200160608152602001606081526020016060815260200160008152602001600081526020016000815260200160008152602001600081526020016000151581526020016000151581525090565b828061348e6130dc565b8282613498613182565b50509060005260206000209081019282156134fe579160200282015b828111156134fe578251826001816134ca6130dc565b816001600160a01b0302191690836001600160a01b03160217906134ec613182565b505050916020019190600101906134b4565b5061350a9291506136a3565b5090565b82806135186130dc565b8282613522613182565b5050906000526020600020908101928215613562579160200282015b8281111561356257825182613551613182565b50509160200191906001019061353e565b5061350a9291506136df565b82806135786130dc565b8282613582613182565b50509060005260206000209081019282156135ca579160200282015b828111156135ca578251829080516135ba929160200190613704565b509160200191906001019061359e565b5061350a929150613794565b82806135e06130dc565b82826135ea613182565b5050906000526020600020908101928215613632579160200282015b82811115613632578251829080516136229291602001906137b7565b5091602001919060010190613606565b5061350a929150613840565b6040516060810160409081526000808352602083018190529082015290565b6390580256598160e01b8152602081600483336000905af158601d01573d60011458600c01573d6000803e3d621234565260ea61109c5280516000825293506020613120565b612b3e91905b8082111561350a576000816001816136bf6130dc565b906001600160a01b03021916906136d4613182565b5050506001016136a9565b612b3e91905b8082111561350a57600080826136f9613182565b5050506001016136e5565b828061370e6130dc565b600181600116156101000203166002900490600052602060002090601f016020900481019282601f1061375557805160ff1916838001178561374e613182565b5050613562565b82800160010185613764613182565b50508215613562579182015b8281111561356257825182613783613182565b505091602001919060010190613770565b612b3e91905b8082111561350a5760006137ae8282613863565b5060010161379a565b82806137c16130dc565b600181600116156101000203166002900490600052602060002090601f016020900481019282601f1061380157805160ff1916838001178561374e613182565b82800160010185613810613182565b50508215613562579182015b828111156135625782518261382f613182565b50509160200191906001019061381c565b612b3e91905b8082111561350a57600061385a8282613863565b50600101613846565b508061386d6130dc565b6001816001161561010002031660029004600082613889613182565b505080601f1061389957506138b5565b601f01602090049060005260206000206138b5918101906136df565b50565b80356126c4816156e3565b600082601f8301126138dd576000806138da613071565b50505b81356138f06138eb826155b4565b615581565b9150818183526020840193506020810190508385602084028201111561391e5760008061391b613071565b50505b60005b8381101561394a578161393488826138b8565b8452506020928301929190910190600101613921565b5050505092915050565b600082601f83011261396e5760008061396b613071565b50505b813561397c6138eb826155b4565b81815260209384019390925082018360005b8381101561394a57813586016139a48882613acb565b845250602092830192919091019060010161398e565b600082601f8301126139d4576000806139d1613071565b50505b81356139e26138eb826155b4565b81815260209384019390925082018360005b8381101561394a5781358601613a0a8882613acb565b84525060209283019291909101906001016139f4565b600082601f830112613a3a57600080613a37613071565b50505b8135613a486138eb826155b4565b91508181835260208401935060208101905083856020840282011115613a7657600080613a73613071565b50505b60005b8381101561394a5781613a8c8882613ab1565b8452506020928301929190910190600101613a79565b6000815190506126c4816156fd565b80356126c481615706565b6000815190506126c481615706565b600082601f830112613ae557600080613ae2613071565b50505b8135613af36138eb826155dd565b91508082526020830160208301858383011115613b1857600080613b15613071565b50505b613b23838284615697565b50505092915050565b600082601f830112613b4657600080613b43613071565b50505b8151613b546138eb826155dd565b91508082526020830160208301858383011115613b7957600080613b76613071565b50505b613b238382846156a3565b60008083601f840112613b9f57600080613b9c613071565b50505b5081356001600160401b03811115613bbf57600080613bbc613071565b50505b602083019150836001820283011115613be057600080613bdd613071565b50505b9250929050565b80356126c48161570f565b6000815190506126c481615718565b600060208284031215613c1c57600080613c19613071565b50505b6000613c2884846138b8565b949350505050565b600080600080600060a08688031215613c5157600080613c4e613071565b50505b6000613c5d88886138b8565b9550506020613c6e888289016138b8565b9450506040613c7f88828901613ab1565b9350506060613c9088828901613ab1565b9250506080613ca188828901613ab1565b9150509295509295909350565b600080600080600060a08688031215613ccf57600080613ccc613071565b50505b85356001600160401b03811115613cee57600080613ceb613071565b50505b613cfa888289016138c3565b95505060208601356001600160401b03811115613d1f57600080613d1c613071565b50505b613d2b88828901613a20565b94505060408601356001600160401b03811115613d5057600080613d4d613071565b50505b613d5c888289016139ba565b93505060608601356001600160401b03811115613d8157600080613d7e613071565b50505b613d8d88828901613954565b92505060808601356001600160401b03811115613db257600080613daf613071565b50505b613ca188828901613acb565b600060208284031215613dd957600080613dd6613071565b50505b6000613c288484613aa2565b600060208284031215613e0057600080613dfd613071565b50505b6000613c288484613abc565b600060208284031215613e2757600080613e24613071565b50505b81516001600160401b03811115613e4657600080613e43613071565b50505b613c2884828501613b2c565b600060208284031215613e6d57600080613e6a613071565b50505b6000613c288484613ab1565b60008060408385031215613e9557600080613e92613071565b50505b6000613ea18585613ab1565b9250506020613eb2858286016138b8565b9150509250929050565b60008060408385031215613ed857600080613ed5613071565b50505b6000613ee48585613ab1565b9250506020613eb285828601613be7565b60008060008060608587031215613f1457600080613f11613071565b50505b6000613f208787613ab1565b9450506020613f3187828801613be7565b93505060408501356001600160401b03811115613f5657600080613f53613071565b50505b613f6287828801613b84565b95989497509550505050565b600080600080600060a08688031215613f8f57600080613f8c613071565b50505b6000613f9b8888613ab1565b9550506020613fac88828901613be7565b9450506040613c7f88828901613be7565b600060208284031215613fd857600080613fd5613071565b50505b6000613c288484613bf2565b6000613ff0838361401f565b505060200190565b6000612e1583836141c1565b6000613ff083836141a7565b6140198161566f565b82525050565b61401981615637565b600061403382615624565b61403d818561562e565b93506140488361560d565b8060005b838110156140765781516140608882613fe4565b975061406b8361560d565b92505060010161404c565b509495945050505050565b600061408c82615624565b614096818561562e565b9350836020820285016140a88561560d565b8060005b858110156140e257848403895281516140c58582613ff8565b94506140d08361560d565b60209a909a01999250506001016140ac565b5091979650505050505050565b60006140fa82615624565b614104818561562e565b9350836020820285016141168561560d565b8060005b858110156140e257848403895281516141338582613ff8565b945061413e8361560d565b60209a909a019992505060010161411a565b600061415b82615624565b614165818561562e565b93506141708361560d565b8060005b838110156140765781516141888882614004565b97506141938361560d565b925050600101614174565b61401981615642565b61401981612b3e565b6140196141bc82612b3e565b612b3e565b60006141cc82615624565b6141d6818561562e565b93506141e68185602086016156a3565b6141ef816156cf565b9093019392505050565b6000816142046130dc565b60018116801561421b576001811461424157614288565b607f600283041661422c818761562e565b60ff1984168152955050602085019250614288565b6002820461424f818761562e565b955061425a85615613565b60005b82811015614281578161426e6130dc565b888201526001919091019060200161425d565b8701945050505b505092915050565b61401981615676565b61401981615681565b60006142ae838561562e565b93506142bb838584615697565b6141ef836156cf565b6000816142cf6130dc565b60018116801561421b57600181146142e657614288565b600282046142f4818761562e565b95506142ff85615613565b60005b8281101561428157816143136130dc565b8882015260019190910190602001614302565b600061433360328361562e565b60008051602061574283398151915281527120696e76616c696420766f7465207479706560701b602082015260400192915050565b60006143756028836113a2565b7f42616c6c6f742875696e743235362070726f706f73616c49642c75696e743820815267737570706f72742960c01b602082015260280192915050565b60006143bf60338361562e565b7f476f7665726e6f72427261766f3a3a696e697469616c697a653a2063616e206f8152726e6c7920696e697469616c697a65206f6e636560681b602082015260400192915050565b6000614414602a8361562e565b7f476f7665726e6f72427261766f3a5f73657450656e64696e6741646d696e3a2081526961646d696e206f6e6c7960b01b602082015260400192915050565b600061446060558361562e565b7f476f7665726e6f72427261766f3a3a71756575654f72526576657274496e746581527f726e616c3a206964656e746963616c2070726f706f73616c20616374696f6e20602082015274616c7265616479207175657565642061742065746160581b604082015260600192915050565b60006144dd602b8361562e565b60008051602061580283398151915281526a2061646d696e206f6e6c7960a81b602082015260400192915050565b600061451860338361562e565b60008051602061576283398151915281527269642074696d656c6f636b206164647265737360681b602082015260400192915050565b600061455b602a8361562e565b6000805160206157e283398151915281526961646d696e206f6e6c7960b01b602082015260400192915050565b600061459560318361562e565b7f476f7665726e6f72427261766f3a3a70726f706f73653a20476f7665726e6f7281527020427261766f206e6f742061637469766560781b602082015260400192915050565b60006145e86002836113a2565b61190160f01b815260020192915050565b600061460660368361562e565b600080516020615802833981519152815275081a5b9d985b1a59081d9bdd1a5b99c81c195c9a5bd960521b602082015260400192915050565b600061464c60318361562e565b600080516020615742833981519152815270081d9bdd1a5b99c81a5cc818db1bdcd959607a1b602082015260400192915050565b600061468d60348361562e565b600080516020615742833981519152815273081d9bdd195c88185b1c9958591e481d9bdd195960621b602082015260400192915050565b60006146d160348361562e565b6000805160206157e2833981519152815273696e76616c696420766f74696e672064656c617960601b602082015260400192915050565b600061471560358361562e565b6000805160206157628339815191528152741a59081c1c9bdc1bdcd85b081d1a1c995cda1bdb19605a1b602082015260400192915050565b600061475a60458361562e565b7f476f7665726e6f72427261766f3a3a657865637574653a2070726f706f73616c81527f2063616e206f6e6c7920626520657865637574656420696620697420697320716020820152641d595d595960da1b604082015260600192915050565b60006147c7602f8361562e565b7f476f7665726e6f72427261766f3a3a63617374566f746542795369673a20696e81526e76616c6964207369676e617475726560881b602082015260400192915050565b6000614818602f8361562e565b60008051602061576283398151915281526e696420766f74696e672064656c617960881b602082015260400192915050565b600061485760448361562e565b7f476f7665726e6f72427261766f3a3a70726f706f73653a2070726f706f73616c81527f2066756e6374696f6e20696e666f726d6174696f6e206172697479206d69736d6020820152630c2e8c6d60e31b604082015260600192915050565b60006148c360258361562e565b7f476f7665726e6f72427261766f3a3a696e697469616c697a653a2061646d696e815264206f6e6c7960d81b602082015260400192915050565b600061490a60408361562e565b60008051602061572283398151915281527f686f6c643a20696e76616c69642070726f706f73616c207468726573686f6c64602082015260400192915050565b600061495760448361562e565b7f476f7665726e6f72427261766f3a3a71756575653a2070726f706f73616c206381527f616e206f6e6c79206265207175657565642069662069742069732073756363656020820152631959195960e21b604082015260600192915050565b60006149c360118361562e565b706164646974696f6e206f766572666c6f7760781b815260200192915050565b60006149f06043836113a2565b7f454950373132446f6d61696e28737472696e67206e616d652c75696e7432353681527f20636861696e49642c6164647265737320766572696679696e67436f6e74726160208201526263742960e81b604082015260430192915050565b6000614a5b60308361562e565b7f476f7665726e6f72427261766f3a3a5f696e6974696174653a2063616e206f6e81526f6c7920696e697469617465206f6e636560801b602082015260400192915050565b6000614aad602c8361562e565b7f476f7665726e6f72427261766f3a3a70726f706f73653a206d7573742070726f81526b7669646520616374696f6e7360a01b602082015260400192915050565b6000614afb602e8361562e565b7f476f7665726e6f72427261766f3a5f61636365707441646d696e3a2070656e6481526d696e672061646d696e206f6e6c7960901b602082015260400192915050565b6000614b4b602f8361562e565b7f476f7665726e6f72427261766f3a3a63616e63656c3a2070726f706f7365722081526e18589bdd99481d1a1c995cda1bdb19608a1b602082015260400192915050565b6000614b9c60288361562e565b7f476f7665726e6f72427261766f3a3a70726f706f73653a20746f6f206d616e7981526720616374696f6e7360c01b602082015260400192915050565b6000614be660598361562e565b60008051602061578283398151915281526000805160206157a283398151915260208201527808185b1c9958591e481c195b991a5b99c81c1c9bdc1bdcd85b603a1b604082015260600192915050565b6000614c4360318361562e565b60008051602061576283398151915281527069642043546f6b656e206164647265737360781b602082015260400192915050565b6000614c8460588361562e565b60008051602061578283398151915281526000805160206157a283398151915260208201527708185b1c9958591e481858dd1a5d99481c1c9bdc1bdcd85b60421b604082015260600192915050565b60006126c460008361562e565b6000614ced60248361562e565b7f476f7665726e6f72427261766f3a3a5f696e6974696174653a2061646d696e208152636f6e6c7960e01b602082015260400192915050565b6000614d33603f8361562e565b7f476f7665726e6f72427261766f3a3a70726f706f73653a2070726f706f73657281527f20766f7465732062656c6f772070726f706f73616c207468726573686f6c6400602082015260400192915050565b6000614d9260368361562e565b7f476f7665726e6f72427261766f3a3a63616e63656c3a2063616e6e6f742063618152751b98d95b08195e1958dd5d1959081c1c9bdc1bdcd85b60521b602082015260400192915050565b6000614dea60308361562e565b60008051602061572283398151915281526f686f6c643a2061646d696e206f6e6c7960801b602082015260400192915050565b6000614e2a60298361562e565b7f476f7665726e6f72427261766f3a3a73746174653a20696e76616c69642070728152681bdc1bdcd85b081a5960ba1b602082015260400192915050565b6000614e7560308361562e565b60008051602061576283398151915281526f1a59081d9bdd1a5b99c81c195c9a5bd960821b602082015260400192915050565b6000614eb560158361562e565b747375627472616374696f6e20756e646572666c6f7760581b815260200192915050565b606082018151614ee9848261419e565b506020820151614efc6020850182614f0f565b5060408201516119526040850182614f21565b6140198161565d565b6140198161568c565b61401981615663565b60006126c482614368565b6000614f40826145db565b9150614f4c82856141b0565b602082019150614f5c82846141b0565b5060200192915050565b60006126c4826149e3565b602081016126c4828461401f565b60408101614f8d8285614010565b612e1560208301846141a7565b60408101614fa8828561401f565b612e15602083018461401f565b60408101614f8d828561401f565b60a08101614fd1828861401f565b614fde60208301876141a7565b8181036040830152614ff081866141c1565b9050818103606083015261500481856141c1565b905061501360808301846141a7565b9695505050505050565b60a0810161502b828861401f565b61503860208301876141a7565b818103604083015261504a81866142c4565b9050818103606083015261500481856141f9565b6080808252810161506f8187614028565b905081810360208301526150838186614150565b9050818103604083015261509781856140ef565b905081810360608301526150138184614081565b602081016126c482846141a7565b608081016150c782876141a7565b6150d460208301866141a7565b6150e160408301856141a7565b6122db606083018461401f565b606081016150fc82866141a7565b61510960208301856141a7565b613c286040830184614f0f565b6080810161512482876141a7565b6151316020830186614f0f565b61513e60408301856141a7565b6122db60608301846141a7565b602081016126c48284614290565b602081016126c48284614299565b60208082528101612e1581846141c1565b602080825281016126c481614326565b602080825281016126c4816143b2565b602080825281016126c481614407565b602080825281016126c481614453565b602080825281016126c4816144d0565b602080825281016126c48161450b565b602080825281016126c48161454e565b602080825281016126c481614588565b602080825281016126c4816145f9565b602080825281016126c48161463f565b602080825281016126c481614680565b602080825281016126c4816146c4565b602080825281016126c481614708565b602080825281016126c48161474d565b602080825281016126c4816147ba565b602080825281016126c48161480b565b602080825281016126c48161484a565b602080825281016126c4816148b6565b602080825281016126c4816148fd565b602080825281016126c48161494a565b602080825281016126c4816149b6565b602080825281016126c481614a4e565b602080825281016126c481614aa0565b602080825281016126c481614aee565b602080825281016126c481614b3e565b602080825281016126c481614b8f565b602080825281016126c481614bd9565b602080825281016126c481614c36565b602080825281016126c481614c77565b602080825281016126c481614ce0565b602080825281016126c481614d26565b602080825281016126c481614d85565b602080825281016126c481614ddd565b602080825281016126c481614e1d565b602080825281016126c481614e68565b602080825281016126c481614ea8565b606081016126c48284614ed9565b61012081016153d5828c6141a7565b6153e2602083018b614010565b81810360408301526153f4818a614028565b905081810360608301526154088189614150565b9050818103608083015261541c81886140ef565b905081810360a08301526154308187614081565b905061543f60c08301866141a7565b61544c60e08301856141a7565b81810361010083015261545f81846141c1565b9b9a5050505050505050505050565b610140810161547d828d6141a7565b61548a602083018c61401f565b615497604083018b6141a7565b6154a4606083018a6141a7565b6154b160808301896141a7565b6154be60a08301886141a7565b6154cb60c08301876141a7565b6154d860e08301866141a7565b6154e661010083018561419e565b61545f61012083018461419e565b60408101614f8d82856141a7565b6080810161551082886141a7565b61551d6020830187614f0f565b61552a6040830186614f18565b818103606083015261553d8184866142a2565b979650505050505050565b6080810161555682866141a7565b6155636020830185614f0f565b6155706040830184614f18565b81810360608301526122db81614cd3565b600060405190508181018181106001600160401b03821117156155ac576000806155a9613071565b50505b604052919050565b60006001600160401b038211156155d3576000806155d0613071565b50505b5060209081020190565b60006001600160401b038211156155fc576000806155f9613071565b50505b506020601f91909101601f19160190565b60200190565b600081815281906020902092915050565b6000815192915050565b90815260200190565b60006126c482615651565b151590565b806113a2816156d9565b6001600160a01b031690565b60ff1690565b6001600160601b031690565b60006126c4825b60006126c482615637565b60006126c482615647565b60006126c482615663565b82818337506000910152565b60005b838110156156be5780820151838201526020016156a6565b838111156119525750506000910152565b601f01601f191690565b600881106138b557fe5b6156ec81615637565b81146138b557600080613137613071565b6156ec81615642565b6156ec81612b3e565b6156ec8161565d565b6156ec8161566356fe476f7665726e6f72427261766f3a3a5f73657450726f706f73616c5468726573476f7665726e6f72427261766f3a3a63617374566f7465496e7465726e616c3a476f7665726e6f72427261766f3a3a696e697469616c697a653a20696e76616c476f7665726e6f72427261766f3a3a70726f706f73653a206f6e65206c6976652070726f706f73616c207065722070726f706f7365722c20666f756e6420616eca4f2f25d0898edd99413412fb94012f9e54ec8142f9b093e7720646a95b16a9476f7665726e6f72427261766f3a3a5f736574566f74696e6744656c61793a20476f7665726e6f72427261766f3a3a5f736574566f74696e67506572696f643ab8e138887d0aa13bab447e82de9d5c1777041ecd21ca36ba824ff1e6c07ddda4",
  "source": "pragma solidity ^0.5.16;\npragma experimental ABIEncoderV2;\n\nimport \"./GovernorBravoInterfaces.sol\";\n\ncontract GovernorBravoDelegate is GovernorBravoDelegateStorageV1, GovernorBravoEvents {\n\n    /// @notice The name of this contract\n    string public constant name = \"Boba Governor Bravo\";\n\n    /// @notice The minimum setable proposal threshold\n    uint public constant MIN_PROPOSAL_THRESHOLD = 50000e18; // 50,000 CTokens\n\n    /// @notice The maximum setable proposal threshold\n    uint public constant MAX_PROPOSAL_THRESHOLD = 100000e18; //100,000 CTokens\n\n    /// @notice The minimum setable voting period\n    uint public constant MIN_VOTING_PERIOD = 2; // 2 minutes\n\n    /// @notice The max setable voting period\n    uint public constant MAX_VOTING_PERIOD = 80640; // About 2 weeks\n\n    /// @notice The min setable voting delay\n    uint public constant MIN_VOTING_DELAY = 1;\n\n    /// @notice The max setable voting delay\n    uint public constant MAX_VOTING_DELAY = 40320; // About 1 week\n\n    /// @notice The number of votes in support of a proposal required for a quorum to be reached and for a vote to succeed\n    uint public constant quorumVotes = 400000e18; // 400,000 = 4% of CToken\n\n    /// @notice The maximum number of actions that can be included in a proposal\n    uint public constant proposalMaxOperations = 10; // 10 actions\n\n    /// @notice The EIP-712 typehash for the contract's domain\n    bytes32 public constant DOMAIN_TYPEHASH = keccak256(\"EIP712Domain(string name,uint256 chainId,address verifyingContract)\");\n\n    /// @notice The EIP-712 typehash for the ballot struct used by the contract\n    bytes32 public constant BALLOT_TYPEHASH = keccak256(\"Ballot(uint256 proposalId,uint8 support)\");\n\n    /**\n      * @notice Used to initialize the contract during delegator contructor\n      * @param timelock_ The address of the Timelock\n      * @param ctoken_ The address of the CToken\n      * @param votingPeriod_ The initial voting period\n      * @param votingDelay_ The initial voting delay\n      * @param proposalThreshold_ The initial proposal threshold\n      */\n    function initialize(address timelock_, address ctoken_, uint votingPeriod_, uint votingDelay_, uint proposalThreshold_) public {\n        require(address(timelock) == address(0), \"GovernorBravo::initialize: can only initialize once\");\n        require(msg.sender == admin, \"GovernorBravo::initialize: admin only\");\n        require(timelock_ != address(0), \"GovernorBravo::initialize: invalid timelock address\");\n        require(ctoken_ != address(0), \"GovernorBravo::initialize: invalid CToken address\");\n        require(votingPeriod_ >= MIN_VOTING_PERIOD && votingPeriod_ <= MAX_VOTING_PERIOD, \"GovernorBravo::initialize: invalid voting period\");\n        require(votingDelay_ >= MIN_VOTING_DELAY && votingDelay_ <= MAX_VOTING_DELAY, \"GovernorBravo::initialize: invalid voting delay\");\n        require(proposalThreshold_ >= MIN_PROPOSAL_THRESHOLD && proposalThreshold_ <= MAX_PROPOSAL_THRESHOLD, \"GovernorBravo::initialize: invalid proposal threshold\");\n\n        timelock = TimelockInterface(timelock_);\n        ctoken = CTokenInterface(ctoken_);\n        votingPeriod = votingPeriod_;\n        votingDelay = votingDelay_;\n        proposalThreshold = proposalThreshold_;\n    }\n\n    /**\n      * @notice Function used to propose a new proposal. Sender must have delegates above the proposal threshold\n      * @param targets Target addresses for proposal calls\n      * @param values Eth values for proposal calls\n      * @param signatures Function signatures for proposal calls\n      * @param calldatas Calldatas for proposal calls\n      * @param description String description of the proposal\n      * @return Proposal id of new proposal\n      */\n    function propose(address[] memory targets, uint[] memory values, string[] memory signatures, bytes[] memory calldatas, string memory description) public returns (uint) {\n        // Reject proposals before initiating as Governor\n        require(initialProposalId != 0, \"GovernorBravo::propose: Governor Bravo not active\");\n        require(ctoken.getPriorVotes(msg.sender, sub256(block.number, 1)) > proposalThreshold, \"GovernorBravo::propose: proposer votes below proposal threshold\");\n        require(targets.length == values.length && targets.length == signatures.length && targets.length == calldatas.length, \"GovernorBravo::propose: proposal function information arity mismatch\");\n        require(targets.length != 0, \"GovernorBravo::propose: must provide actions\");\n        require(targets.length <= proposalMaxOperations, \"GovernorBravo::propose: too many actions\");\n\n        uint latestProposalId = latestProposalIds[msg.sender];\n        if (latestProposalId != 0) {\n          ProposalState proposersLatestProposalState = state(latestProposalId);\n          require(proposersLatestProposalState != ProposalState.Active, \"GovernorBravo::propose: one live proposal per proposer, found an already active proposal\");\n          require(proposersLatestProposalState != ProposalState.Pending, \"GovernorBravo::propose: one live proposal per proposer, found an already pending proposal\");\n        }\n\n        uint startBlock = add256(block.number, votingDelay);\n        uint endBlock = add256(startBlock, votingPeriod);\n\n        proposalCount++;\n        Proposal memory newProposal = Proposal({\n            id: proposalCount,\n            proposer: msg.sender,\n            eta: 0,\n            targets: targets,\n            values: values,\n            signatures: signatures,\n            calldatas: calldatas,\n            startBlock: startBlock,\n            endBlock: endBlock,\n            forVotes: 0,\n            againstVotes: 0,\n            abstainVotes: 0,\n            canceled: false,\n            executed: false\n        });\n\n        proposals[newProposal.id] = newProposal;\n        latestProposalIds[newProposal.proposer] = newProposal.id;\n\n        emit ProposalCreated(newProposal.id, msg.sender, targets, values, signatures, calldatas, startBlock, endBlock, description);\n        return newProposal.id;\n    }\n\n    /**\n      * @notice Queues a proposal of state succeeded\n      * @param proposalId The id of the proposal to queue\n      */\n    function queue(uint proposalId) external {\n        require(state(proposalId) == ProposalState.Succeeded, \"GovernorBravo::queue: proposal can only be queued if it is succeeded\");\n        Proposal storage proposal = proposals[proposalId];\n        uint eta = add256(block.timestamp, timelock.delay());\n        for (uint i = 0; i < proposal.targets.length; i++) {\n            queueOrRevertInternal(proposal.targets[i], proposal.values[i], proposal.signatures[i], proposal.calldatas[i], eta);\n        }\n        proposal.eta = eta;\n        emit ProposalQueued(proposalId, eta);\n    }\n\n    function queueOrRevertInternal(address target, uint value, string memory signature, bytes memory data, uint eta) internal {\n        require(!timelock.queuedTransactions(keccak256(abi.encode(target, value, signature, data, eta))), \"GovernorBravo::queueOrRevertInternal: identical proposal action already queued at eta\");\n        timelock.queueTransaction(target, value, signature, data, eta);\n    }\n\n    /**\n      * @notice Executes a queued proposal if eta has passed\n      * @param proposalId The id of the proposal to execute\n      */\n    function execute(uint proposalId) external payable {\n        require(state(proposalId) == ProposalState.Queued, \"GovernorBravo::execute: proposal can only be executed if it is queued\");\n        Proposal storage proposal = proposals[proposalId];\n        proposal.executed = true;\n        for (uint i = 0; i < proposal.targets.length; i++) {\n            timelock.executeTransaction.value(proposal.values[i])(proposal.targets[i], proposal.values[i], proposal.signatures[i], proposal.calldatas[i], proposal.eta);\n        }\n        emit ProposalExecuted(proposalId);\n    }\n\n    /**\n      * @notice Cancels a proposal only if sender is the proposer, or proposer delegates dropped below proposal threshold\n      * @param proposalId The id of the proposal to cancel\n      */\n    function cancel(uint proposalId) external {\n        require(state(proposalId) != ProposalState.Executed, \"GovernorBravo::cancel: cannot cancel executed proposal\");\n\n        Proposal storage proposal = proposals[proposalId];\n        require(msg.sender == proposal.proposer || ctoken.getPriorVotes(proposal.proposer, sub256(block.number, 1)) < proposalThreshold, \"GovernorBravo::cancel: proposer above threshold\");\n\n        proposal.canceled = true;\n        for (uint i = 0; i < proposal.targets.length; i++) {\n            timelock.cancelTransaction(proposal.targets[i], proposal.values[i], proposal.signatures[i], proposal.calldatas[i], proposal.eta);\n        }\n\n        emit ProposalCanceled(proposalId);\n    }\n\n    /**\n      * @notice Gets actions of a proposal\n      * @param proposalId the id of the proposal\n      * @return Targets, values, signatures, and calldatas of the proposal actions\n      */\n    function getActions(uint proposalId) external view returns (address[] memory targets, uint[] memory values, string[] memory signatures, bytes[] memory calldatas) {\n        Proposal storage p = proposals[proposalId];\n        return (p.targets, p.values, p.signatures, p.calldatas);\n    }\n\n    /**\n      * @notice Gets the receipt for a voter on a given proposal\n      * @param proposalId the id of proposal\n      * @param voter The address of the voter\n      * @return The voting receipt\n      */\n    function getReceipt(uint proposalId, address voter) external view returns (Receipt memory) {\n        return proposals[proposalId].receipts[voter];\n    }\n\n    /**\n      * @notice Gets the state of a proposal\n      * @param proposalId The id of the proposal\n      * @return Proposal state\n      */\n    function state(uint proposalId) public view returns (ProposalState) {\n        require(proposalCount >= proposalId && proposalId > initialProposalId, \"GovernorBravo::state: invalid proposal id\");\n        Proposal storage proposal = proposals[proposalId];\n        if (proposal.canceled) {\n            return ProposalState.Canceled;\n        } else if (block.number <= proposal.startBlock) {\n            return ProposalState.Pending;\n        } else if (block.number <= proposal.endBlock) {\n            return ProposalState.Active;\n        } else if (proposal.forVotes <= proposal.againstVotes || proposal.forVotes < quorumVotes) {\n            return ProposalState.Defeated;\n        } else if (proposal.eta == 0) {\n            return ProposalState.Succeeded;\n        } else if (proposal.executed) {\n            return ProposalState.Executed;\n        } else if (block.timestamp >= add256(proposal.eta, timelock.GRACE_PERIOD())) {\n            return ProposalState.Expired;\n        } else {\n            return ProposalState.Queued;\n        }\n    }\n\n    /**\n      * @notice Cast a vote for a proposal\n      * @param proposalId The id of the proposal to vote on\n      * @param support The support value for the vote. 0=against, 1=for, 2=abstain\n      */\n    function castVote(uint proposalId, uint8 support) external {\n        emit VoteCast(msg.sender, proposalId, support, castVoteInternal(msg.sender, proposalId, support), \"\");\n    }\n\n    /**\n      * @notice Cast a vote for a proposal with a reason\n      * @param proposalId The id of the proposal to vote on\n      * @param support The support value for the vote. 0=against, 1=for, 2=abstain\n      * @param reason The reason given for the vote by the voter\n      */\n    function castVoteWithReason(uint proposalId, uint8 support, string calldata reason) external {\n        emit VoteCast(msg.sender, proposalId, support, castVoteInternal(msg.sender, proposalId, support), reason);\n    }\n\n    /**\n      * @notice Cast a vote for a proposal by signature\n      * @dev External function that accepts EIP-712 signatures for voting on proposals.\n      */\n    function castVoteBySig(uint proposalId, uint8 support, uint8 v, bytes32 r, bytes32 s) external {\n        bytes32 domainSeparator = keccak256(abi.encode(DOMAIN_TYPEHASH, keccak256(bytes(name)), getChainIdInternal(), address(this)));\n        bytes32 structHash = keccak256(abi.encode(BALLOT_TYPEHASH, proposalId, support));\n        bytes32 digest = keccak256(abi.encodePacked(\"\\x19\\x01\", domainSeparator, structHash));\n        address signatory = ecrecover(digest, v, r, s);\n        require(signatory != address(0), \"GovernorBravo::castVoteBySig: invalid signature\");\n        emit VoteCast(signatory, proposalId, support, castVoteInternal(signatory, proposalId, support), \"\");\n    }\n\n    /**\n      * @notice Internal function that caries out voting logic\n      * @param voter The voter that is casting their vote\n      * @param proposalId The id of the proposal to vote on\n      * @param support The support value for the vote. 0=against, 1=for, 2=abstain\n      * @return The number of votes cast\n      */\n    function castVoteInternal(address voter, uint proposalId, uint8 support) internal returns (uint96) {\n        require(state(proposalId) == ProposalState.Active, \"GovernorBravo::castVoteInternal: voting is closed\");\n        require(support <= 2, \"GovernorBravo::castVoteInternal: invalid vote type\");\n        Proposal storage proposal = proposals[proposalId];\n        Receipt storage receipt = proposal.receipts[voter];\n        require(receipt.hasVoted == false, \"GovernorBravo::castVoteInternal: voter already voted\");\n        uint96 votes = ctoken.getPriorVotes(voter, proposal.startBlock);\n\n        if (support == 0) {\n            proposal.againstVotes = add256(proposal.againstVotes, votes);\n        } else if (support == 1) {\n            proposal.forVotes = add256(proposal.forVotes, votes);\n        } else if (support == 2) {\n            proposal.abstainVotes = add256(proposal.abstainVotes, votes);\n        }\n\n        receipt.hasVoted = true;\n        receipt.support = support;\n        receipt.votes = votes;\n\n        return votes;\n    }\n\n    /**\n      * @notice Admin function for setting the voting delay\n      * @param newVotingDelay new voting delay, in blocks\n      */\n    function _setVotingDelay(uint newVotingDelay) external {\n        require(msg.sender == admin, \"GovernorBravo::_setVotingDelay: admin only\");\n        require(newVotingDelay >= MIN_VOTING_DELAY && newVotingDelay <= MAX_VOTING_DELAY, \"GovernorBravo::_setVotingDelay: invalid voting delay\");\n        uint oldVotingDelay = votingDelay;\n        votingDelay = newVotingDelay;\n\n        emit VotingDelaySet(oldVotingDelay,votingDelay);\n    }\n\n    /**\n      * @notice Admin function for setting the voting period\n      * @param newVotingPeriod new voting period, in blocks\n      */\n    function _setVotingPeriod(uint newVotingPeriod) external {\n        require(msg.sender == admin, \"GovernorBravo::_setVotingPeriod: admin only\");\n        require(newVotingPeriod >= MIN_VOTING_PERIOD && newVotingPeriod <= MAX_VOTING_PERIOD, \"GovernorBravo::_setVotingPeriod: invalid voting period\");\n        uint oldVotingPeriod = votingPeriod;\n        votingPeriod = newVotingPeriod;\n\n        emit VotingPeriodSet(oldVotingPeriod, votingPeriod);\n    }\n\n    /**\n      * @notice Admin function for setting the proposal threshold\n      * @dev newProposalThreshold must be greater than the hardcoded min\n      * @param newProposalThreshold new proposal threshold\n      */\n    function _setProposalThreshold(uint newProposalThreshold) external {\n        require(msg.sender == admin, \"GovernorBravo::_setProposalThreshold: admin only\");\n        require(newProposalThreshold >= MIN_PROPOSAL_THRESHOLD && newProposalThreshold <= MAX_PROPOSAL_THRESHOLD, \"GovernorBravo::_setProposalThreshold: invalid proposal threshold\");\n        uint oldProposalThreshold = proposalThreshold;\n        proposalThreshold = newProposalThreshold;\n\n        emit ProposalThresholdSet(oldProposalThreshold, proposalThreshold);\n    }\n\n    /**\n      * @notice Initiate the GovernorBravo contract\n      * @dev Admin only. Sets initial proposal id which initiates the contract, ensuring a continuous proposal id count\n      */\n    function _initiate() external {\n        require(msg.sender == admin, \"GovernorBravo::_initiate: admin only\");\n        require(initialProposalId == 0, \"GovernorBravo::_initiate: can only initiate once\");\n        proposalCount = 1;\n        initialProposalId = proposalCount;\n        timelock.acceptAdmin();\n    }\n\n    /**\n      * @notice Begins transfer of admin rights. The newPendingAdmin must call `_acceptAdmin` to finalize the transfer.\n      * @dev Admin function to begin change of admin. The newPendingAdmin must call `_acceptAdmin` to finalize the transfer.\n      * @param newPendingAdmin New pending admin.\n      */\n    function _setPendingAdmin(address newPendingAdmin) external {\n        // Check caller = admin\n        require(msg.sender == admin, \"GovernorBravo:_setPendingAdmin: admin only\");\n\n        // Save current value, if any, for inclusion in log\n        address oldPendingAdmin = pendingAdmin;\n\n        // Store pendingAdmin with value newPendingAdmin\n        pendingAdmin = newPendingAdmin;\n\n        // Emit NewPendingAdmin(oldPendingAdmin, newPendingAdmin)\n        emit NewPendingAdmin(oldPendingAdmin, newPendingAdmin);\n    }\n\n    /**\n      * @notice Accepts transfer of admin rights. msg.sender must be pendingAdmin\n      * @dev Admin function for pending admin to accept role and update admin\n      */\n    function _acceptAdmin() external {\n        // Check caller is pendingAdmin and pendingAdmin  address(0)\n        require(msg.sender == pendingAdmin && msg.sender != address(0), \"GovernorBravo:_acceptAdmin: pending admin only\");\n\n        // Save current values for inclusion in log\n        address oldAdmin = admin;\n        address oldPendingAdmin = pendingAdmin;\n\n        // Store admin with value pendingAdmin\n        admin = pendingAdmin;\n\n        // Clear the pending value\n        pendingAdmin = address(0);\n\n        emit NewAdmin(oldAdmin, admin);\n        emit NewPendingAdmin(oldPendingAdmin, pendingAdmin);\n    }\n\n    function add256(uint256 a, uint256 b) internal pure returns (uint) {\n        uint c = a + b;\n        require(c >= a, \"addition overflow\");\n        return c;\n    }\n\n    function sub256(uint256 a, uint256 b) internal pure returns (uint) {\n        require(b <= a, \"subtraction underflow\");\n        return a - b;\n    }\n\n    function getChainIdInternal() internal pure returns (uint) {\n        uint chainId;\n        assembly { chainId := chainid() }\n        return chainId;\n    }\n}",
  "sourcePath": "/Users/janliphardt/Documents/GitHub/optimism/omgx_examples/compound-simple/contracts/GovernorBravoDelegate.sol",
  "compiler": {
    "name": "solc",
    "version": "0.5.16"
  },
  "schemaVersion": "3.4.3",
  "updatedAt": "2021-08-31T01:04:48.196Z",
  "devdoc": {
    "methods": {
      "_acceptAdmin()": {
        "details": "Admin function for pending admin to accept role and update admin"
      },
      "_initiate()": {
        "details": "Admin only. Sets initial proposal id which initiates the contract, ensuring a continuous proposal id count"
      },
      "_setPendingAdmin(address)": {
        "details": "Admin function to begin change of admin. The newPendingAdmin must call `_acceptAdmin` to finalize the transfer.",
        "params": {
          "newPendingAdmin": "New pending admin."
        }
      },
      "_setProposalThreshold(uint256)": {
        "details": "newProposalThreshold must be greater than the hardcoded min",
        "params": {
          "newProposalThreshold": "new proposal threshold"
        }
      },
      "_setVotingDelay(uint256)": {
        "params": {
          "newVotingDelay": "new voting delay, in blocks"
        }
      },
      "_setVotingPeriod(uint256)": {
        "params": {
          "newVotingPeriod": "new voting period, in blocks"
        }
      },
      "cancel(uint256)": {
        "params": {
          "proposalId": "The id of the proposal to cancel"
        }
      },
      "castVote(uint256,uint8)": {
        "params": {
          "proposalId": "The id of the proposal to vote on",
          "support": "The support value for the vote. 0=against, 1=for, 2=abstain"
        }
      },
      "castVoteBySig(uint256,uint8,uint8,bytes32,bytes32)": {
        "details": "External function that accepts EIP-712 signatures for voting on proposals."
      },
      "castVoteWithReason(uint256,uint8,string)": {
        "params": {
          "proposalId": "The id of the proposal to vote on",
          "reason": "The reason given for the vote by the voter",
          "support": "The support value for the vote. 0=against, 1=for, 2=abstain"
        }
      },
      "execute(uint256)": {
        "params": {
          "proposalId": "The id of the proposal to execute"
        }
      },
      "getActions(uint256)": {
        "params": {
          "proposalId": "the id of the proposal"
        },
        "return": "Targets, values, signatures, and calldatas of the proposal actions"
      },
      "getReceipt(uint256,address)": {
        "params": {
          "proposalId": "the id of proposal",
          "voter": "The address of the voter"
        },
        "return": "The voting receipt"
      },
      "initialize(address,address,uint256,uint256,uint256)": {
        "params": {
          "ctoken_": "The address of the CToken",
          "proposalThreshold_": "The initial proposal threshold",
          "timelock_": "The address of the Timelock",
          "votingDelay_": "The initial voting delay",
          "votingPeriod_": "The initial voting period"
        }
      },
      "propose(address[],uint256[],string[],bytes[],string)": {
        "params": {
          "calldatas": "Calldatas for proposal calls",
          "description": "String description of the proposal",
          "signatures": "Function signatures for proposal calls",
          "targets": "Target addresses for proposal calls",
          "values": "Eth values for proposal calls"
        },
        "return": "Proposal id of new proposal"
      },
      "queue(uint256)": {
        "params": {
          "proposalId": "The id of the proposal to queue"
        }
      },
      "state(uint256)": {
        "params": {
          "proposalId": "The id of the proposal"
        },
        "return": "Proposal state"
      }
    }
  },
  "userdoc": {
    "methods": {
      "_acceptAdmin()": {
        "notice": "Accepts transfer of admin rights. msg.sender must be pendingAdmin"
      },
      "_initiate()": {
        "notice": "Initiate the GovernorBravo contract"
      },
      "_setPendingAdmin(address)": {
        "notice": "Begins transfer of admin rights. The newPendingAdmin must call `_acceptAdmin` to finalize the transfer."
      },
      "_setProposalThreshold(uint256)": {
        "notice": "Admin function for setting the proposal threshold"
      },
      "_setVotingDelay(uint256)": {
        "notice": "Admin function for setting the voting delay"
      },
      "_setVotingPeriod(uint256)": {
        "notice": "Admin function for setting the voting period"
      },
      "cancel(uint256)": {
        "notice": "Cancels a proposal only if sender is the proposer, or proposer delegates dropped below proposal threshold"
      },
      "castVote(uint256,uint8)": {
        "notice": "Cast a vote for a proposal"
      },
      "castVoteBySig(uint256,uint8,uint8,bytes32,bytes32)": {
        "notice": "Cast a vote for a proposal by signature"
      },
      "castVoteWithReason(uint256,uint8,string)": {
        "notice": "Cast a vote for a proposal with a reason"
      },
      "execute(uint256)": {
        "notice": "Executes a queued proposal if eta has passed"
      },
      "getActions(uint256)": {
        "notice": "Gets actions of a proposal"
      },
      "getReceipt(uint256,address)": {
        "notice": "Gets the receipt for a voter on a given proposal"
      },
      "initialize(address,address,uint256,uint256,uint256)": {
        "notice": "Used to initialize the contract during delegator contructor"
      },
      "propose(address[],uint256[],string[],bytes[],string)": {
        "notice": "Function used to propose a new proposal. Sender must have delegates above the proposal threshold"
      },
      "queue(uint256)": {
        "notice": "Queues a proposal of state succeeded"
      },
      "state(uint256)": {
        "notice": "Gets the state of a proposal"
      }
    }
  }
}