{
  "contractName": "Timelock",
  "abi": [
    {
      "inputs": [
        {
          "internalType": "address",
          "name": "admin_",
          "type": "address"
        },
        {
          "internalType": "uint256",
          "name": "delay_",
          "type": "uint256"
        }
      ],
      "payable": false,
      "stateMutability": "nonpayable",
      "type": "constructor"
    },
    {
      "anonymous": false,
      "inputs": [
        {
          "indexed": true,
          "internalType": "bytes32",
          "name": "txHash",
          "type": "bytes32"
        },
        {
          "indexed": true,
          "internalType": "address",
          "name": "target",
          "type": "address"
        },
        {
          "indexed": false,
          "internalType": "uint256",
          "name": "value",
          "type": "uint256"
        },
        {
          "indexed": false,
          "internalType": "string",
          "name": "signature",
          "type": "string"
        },
        {
          "indexed": false,
          "internalType": "bytes",
          "name": "data",
          "type": "bytes"
        },
        {
          "indexed": false,
          "internalType": "uint256",
          "name": "eta",
          "type": "uint256"
        }
      ],
      "name": "CancelTransaction",
      "type": "event"
    },
    {
      "anonymous": false,
      "inputs": [
        {
          "indexed": true,
          "internalType": "bytes32",
          "name": "txHash",
          "type": "bytes32"
        },
        {
          "indexed": true,
          "internalType": "address",
          "name": "target",
          "type": "address"
        },
        {
          "indexed": false,
          "internalType": "uint256",
          "name": "value",
          "type": "uint256"
        },
        {
          "indexed": false,
          "internalType": "string",
          "name": "signature",
          "type": "string"
        },
        {
          "indexed": false,
          "internalType": "bytes",
          "name": "data",
          "type": "bytes"
        },
        {
          "indexed": false,
          "internalType": "uint256",
          "name": "eta",
          "type": "uint256"
        }
      ],
      "name": "ExecuteTransaction",
      "type": "event"
    },
    {
      "anonymous": false,
      "inputs": [
        {
          "indexed": true,
          "internalType": "address",
          "name": "newAdmin",
          "type": "address"
        }
      ],
      "name": "NewAdmin",
      "type": "event"
    },
    {
      "anonymous": false,
      "inputs": [
        {
          "indexed": true,
          "internalType": "uint256",
          "name": "newDelay",
          "type": "uint256"
        }
      ],
      "name": "NewDelay",
      "type": "event"
    },
    {
      "anonymous": false,
      "inputs": [
        {
          "indexed": true,
          "internalType": "address",
          "name": "newPendingAdmin",
          "type": "address"
        }
      ],
      "name": "NewPendingAdmin",
      "type": "event"
    },
    {
      "anonymous": false,
      "inputs": [
        {
          "indexed": true,
          "internalType": "bytes32",
          "name": "txHash",
          "type": "bytes32"
        },
        {
          "indexed": true,
          "internalType": "address",
          "name": "target",
          "type": "address"
        },
        {
          "indexed": false,
          "internalType": "uint256",
          "name": "value",
          "type": "uint256"
        },
        {
          "indexed": false,
          "internalType": "string",
          "name": "signature",
          "type": "string"
        },
        {
          "indexed": false,
          "internalType": "bytes",
          "name": "data",
          "type": "bytes"
        },
        {
          "indexed": false,
          "internalType": "uint256",
          "name": "eta",
          "type": "uint256"
        }
      ],
      "name": "QueueTransaction",
      "type": "event"
    },
    {
      "payable": true,
      "stateMutability": "payable",
      "type": "fallback"
    },
    {
      "constant": true,
      "inputs": [],
      "name": "GRACE_PERIOD",
      "outputs": [
        {
          "internalType": "uint256",
          "name": "",
          "type": "uint256"
        }
      ],
      "payable": false,
      "stateMutability": "view",
      "type": "function"
    },
    {
      "constant": true,
      "inputs": [],
      "name": "MAXIMUM_DELAY",
      "outputs": [
        {
          "internalType": "uint256",
          "name": "",
          "type": "uint256"
        }
      ],
      "payable": false,
      "stateMutability": "view",
      "type": "function"
    },
    {
      "constant": true,
      "inputs": [],
      "name": "MINIMUM_DELAY",
      "outputs": [
        {
          "internalType": "uint256",
          "name": "",
          "type": "uint256"
        }
      ],
      "payable": false,
      "stateMutability": "view",
      "type": "function"
    },
    {
      "constant": true,
      "inputs": [],
      "name": "admin",
      "outputs": [
        {
          "internalType": "address",
          "name": "",
          "type": "address"
        }
      ],
      "payable": false,
      "stateMutability": "view",
      "type": "function"
    },
    {
      "constant": true,
      "inputs": [],
      "name": "delay",
      "outputs": [
        {
          "internalType": "uint256",
          "name": "",
          "type": "uint256"
        }
      ],
      "payable": false,
      "stateMutability": "view",
      "type": "function"
    },
    {
      "constant": true,
      "inputs": [],
      "name": "pendingAdmin",
      "outputs": [
        {
          "internalType": "address",
          "name": "",
          "type": "address"
        }
      ],
      "payable": false,
      "stateMutability": "view",
      "type": "function"
    },
    {
      "constant": true,
      "inputs": [
        {
          "internalType": "bytes32",
          "name": "",
          "type": "bytes32"
        }
      ],
      "name": "queuedTransactions",
      "outputs": [
        {
          "internalType": "bool",
          "name": "",
          "type": "bool"
        }
      ],
      "payable": false,
      "stateMutability": "view",
      "type": "function"
    },
    {
      "constant": false,
      "inputs": [
        {
          "internalType": "uint256",
          "name": "delay_",
          "type": "uint256"
        }
      ],
      "name": "setDelay",
      "outputs": [],
      "payable": false,
      "stateMutability": "nonpayable",
      "type": "function"
    },
    {
      "constant": false,
      "inputs": [],
      "name": "acceptAdmin",
      "outputs": [],
      "payable": false,
      "stateMutability": "nonpayable",
      "type": "function"
    },
    {
      "constant": false,
      "inputs": [
        {
          "internalType": "address",
          "name": "pendingAdmin_",
          "type": "address"
        }
      ],
      "name": "setPendingAdmin",
      "outputs": [],
      "payable": false,
      "stateMutability": "nonpayable",
      "type": "function"
    },
    {
      "constant": false,
      "inputs": [
        {
          "internalType": "address",
          "name": "target",
          "type": "address"
        },
        {
          "internalType": "uint256",
          "name": "value",
          "type": "uint256"
        },
        {
          "internalType": "string",
          "name": "signature",
          "type": "string"
        },
        {
          "internalType": "bytes",
          "name": "data",
          "type": "bytes"
        },
        {
          "internalType": "uint256",
          "name": "eta",
          "type": "uint256"
        }
      ],
      "name": "queueTransaction",
      "outputs": [
        {
          "internalType": "bytes32",
          "name": "",
          "type": "bytes32"
        }
      ],
      "payable": false,
      "stateMutability": "nonpayable",
      "type": "function"
    },
    {
      "constant": false,
      "inputs": [
        {
          "internalType": "address",
          "name": "target",
          "type": "address"
        },
        {
          "internalType": "uint256",
          "name": "value",
          "type": "uint256"
        },
        {
          "internalType": "string",
          "name": "signature",
          "type": "string"
        },
        {
          "internalType": "bytes",
          "name": "data",
          "type": "bytes"
        },
        {
          "internalType": "uint256",
          "name": "eta",
          "type": "uint256"
        }
      ],
      "name": "cancelTransaction",
      "outputs": [],
      "payable": false,
      "stateMutability": "nonpayable",
      "type": "function"
    },
    {
      "constant": false,
      "inputs": [
        {
          "internalType": "address",
          "name": "target",
          "type": "address"
        },
        {
          "internalType": "uint256",
          "name": "value",
          "type": "uint256"
        },
        {
          "internalType": "string",
          "name": "signature",
          "type": "string"
        },
        {
          "internalType": "bytes",
          "name": "data",
          "type": "bytes"
        },
        {
          "internalType": "uint256",
          "name": "eta",
          "type": "uint256"
        }
      ],
      "name": "executeTransaction",
      "outputs": [
        {
          "internalType": "bytes",
          "name": "",
          "type": "bytes"
        }
      ],
      "payable": true,
      "stateMutability": "payable",
      "type": "function"
    }
  ],
  "bytecode": "0x60806040523480156200001c576000806200001962000106565b50505b5060405162001fb838038062001fb8833981810160405260408110156200004d576000806200004a62000106565b50505b8101908080519291906020018051925062000066915050565b62278d00811115620000b55760405162461bcd60e51b815260040180806020018281038252603881526020018062001f806038913960400191505060405180910390620000b262000106565b50505b816000600181620000c562000173565b816001600160a01b0302191690836001600160a01b0316021790620000e9620001d5565b5050508060028190620000fb620001d5565b505050505062000224565b632a2a7adb598160e01b8152600481016020815285602082015260005b868110156200014057808601518282016040015260200162000123565b506020828760640184336000905af158600e01573d6000803e3d6000fd5b3d6001141558600a015760016000f35b505050565b6303daa959598160e01b8152836004820152602081602483336000905af158600e01573d6000803e3d6000fd5b3d6001141558600a015760016000f35b8051935060005b6040811015620001d057600082820152602001620001b7565b505050565b6322bd64c0598160e01b8152836004820152846024820152600081604483336000905af158600e01573d6000803e3d6000fd5b3d6001141558600a015760016000f35b600081526020620001b7565b611d4c80620002346000396000f3fe6080604052600436106100a25760003560e01c80630825f38f146100a45780630e18b6811461029857806326782247146102b65780633a66f901146102f05780634dd18bf514610495578063591fcdfe146104da5780636a42b8f81461066d5780637d645fab1461068b578063b1b43ae5146106a9578063c1a287e2146106c7578063e177246e146106e5578063f2b0653714610721578063f851a44014610771575b005b610221600480360360a08110156100c3576000806100c061183d565b50505b6001600160a01b0382351691602081013591810190606081016040820135600160201b8111156100fb576000806100f861183d565b50505b8201836020820111156101165760008061011361183d565b50505b803590602001918460018302840111600160201b831117156101405760008061013d61183d565b50505b91908080601f01602080910402602001604051908101604052818152929190602084018383808284376000920191909152509295949360208101935035915050600160201b81111561019a5760008061019761183d565b50505b8201836020820111156101b5576000806101b261183d565b50505b803590602001918460018302840111600160201b831117156101df576000806101dc61183d565b50505b91908080601f0160208091040260200160405190810160405281815292919060208401838380828437600092019190915250929550509135925061078f915050565b60405160208082528190810183818151815260200191508051906020019080838360005b8381101561025d578082015183820152602001610245565b50505050905090810190601f16801561028a5780820380516001836020036101000a031916815260200191505b509250505060405180910390f35b3480156102ad576000806102aa61183d565b50505b506100a2610d31565b3480156102cb576000806102c861183d565b50505b506102d4610e73565b6040516001600160a01b03909116815260200160405180910390f35b3480156103055760008061030261183d565b50505b50610483600480360360a08110156103255760008061032261183d565b50505b6001600160a01b0382351691602081013591810190606081016040820135600160201b81111561035d5760008061035a61183d565b50505b8201836020820111156103785760008061037561183d565b50505b803590602001918460018302840111600160201b831117156103a25760008061039f61183d565b50505b91908080601f01602080910402602001604051908101604052818152929190602084018383808284376000920191909152509295949360208101935035915050600160201b8111156103fc576000806103f961183d565b50505b8201836020820111156104175760008061041461183d565b50505b803590602001918460018302840111600160201b831117156104415760008061043e61183d565b50505b91908080601f01602080910402602001604051908101604052818152929190602084018383808284376000920191909152509295505091359250610e92915050565b60405190815260200160405180910390f35b3480156104aa576000806104a761183d565b50505b506100a2600480360360208110156104ca576000806104c761183d565b50505b50356001600160a01b03166111f4565b3480156104ef576000806104ec61183d565b50505b506100a2600480360360a081101561050f5760008061050c61183d565b50505b6001600160a01b0382351691602081013591810190606081016040820135600160201b8111156105475760008061054461183d565b50505b8201836020820111156105625760008061055f61183d565b50505b803590602001918460018302840111600160201b8311171561058c5760008061058961183d565b50505b91908080601f01602080910402602001604051908101604052818152929190602084018383808284376000920191909152509295949360208101935035915050600160201b8111156105e6576000806105e361183d565b50505b820183602082011115610601576000806105fe61183d565b50505b803590602001918460018302840111600160201b8311171561062b5760008061062861183d565b50505b91908080601f01602080910402602001604051908101604052818152929190602084018383808284376000920191909152509295505091359250611334915050565b3480156106825760008061067f61183d565b50505b50610483611628565b3480156106a05760008061069d61183d565b50505b50610483611635565b3480156106be576000806106bb61183d565b50505b5061048361163c565b3480156106dc576000806106d961183d565b50505b50610483611641565b3480156106fa576000806106f761183d565b50505b506100a26004803603602081101561071a5760008061071761183d565b50505b5035611648565b3480156107365760008061073361183d565b50505b5061075d600480360360208110156107565760008061075361183d565b50505b5035611794565b604051901515815260200160405180910390f35b3480156107865760008061078361183d565b50505b506102d46117bb565b606060008061079c6118a8565b906101000a90046001600160a01b03166001600160a01b03165a6107be611908565b6001600160a01b03161461080c5760405162461bcd60e51b8152600401808060200182810382526038815260200180611a93603891396040019150506040518091039061080961183d565b50505b6000868686868660405160200180866001600160a01b03166001600160a01b031681526020018581526020018060200180602001848152602001838103835286818151815260200191508051906020019080838360005b8381101561087b578082015183820152602001610863565b50505050905090810190601f1680156108a85780820380516001836020036101000a031916815260200191505b50838103825285818151815260200191508051906020019080838360005b838110156108de5780820151838201526020016108c6565b50505050905090810190601f16801561090b5780820380516001836020036101000a031916815260200191505b509750505050505050506040516020818303038152906040528051906020012060008181526003602052909150604090206000906109476118a8565b906101000a900460ff166109955760405162461bcd60e51b815260040180806020018281038252603d815260200180611bb2603d91396040019150506040518091039061099261183d565b50505b8261099e6117c6565b10156109e45760405162461bcd60e51b8152600401808060200182810382526045815260200180611b3560459139606001915050604051809103906109e161183d565b50505b6109f7836212750063ffffffff6117d616565b6109ff6117c6565b1115610a455760405162461bcd60e51b8152600401808060200182810382526033815260200180611b026033913960400191505060405180910390610a4261183d565b50505b6000818152600360205260408120600181610a5e6118a8565b8160ff02191690831515021790610a7361194e565b50505060608551610a85575083610b09565b8580519060200120856040516001600160e01b03198316602082019081529060240182805190602001908083835b60208310610ad25780518252601f199092019160209182019101610ab3565b6001836020036101000a03801982511681845116179092525050509190910193506040925050505160208183030381529060405290505b60006060896001600160a01b031689846040518082805190602001908083835b60208310610b485780518252601f199092019160209182019101610b29565b6001836020036101000a03801982511681845116808217855250505050505090500191505060006040518083038185875a610b8161199c565b505050505050925050503d8060008114610bb7576040513d603f01601f191681016040523d815291503d6000602084013e610bbc565b606091505b509150915081610c065760405162461bcd60e51b815260040180806020018281038252603d815260200180611c95603d913960400191505060405180910390610c0361183d565b50505b896001600160a01b0316847fa560e3198060a2f10670c1ec5b403077ea6ae93ca8de1c32b451dc1a943cd6e78b8b8b8b604051808581526020018060200180602001848152602001838103835286818151815260200191508051906020019080838360005b83811015610c83578082015183820152602001610c6b565b50505050905090810190601f168015610cb05780820380516001836020036101000a031916815260200191505b50838103825285818151815260200191508051906020019080838360005b83811015610ce6578082015183820152602001610cce565b50505050905090810190601f168015610d135780820380516001836020036101000a031916815260200191505b50965050505050505060405180910390a39998505050505050505050565b60006001610d3d6118a8565b906101000a90046001600160a01b03166001600160a01b03165a610d5f611908565b6001600160a01b031614610dad5760405162461bcd60e51b8152600401808060200182810382526038815260200180611bef6038913960400191505060405180910390610daa61183d565b50505b5a610db6611908565b6000600181610dc36118a8565b816001600160a01b0302191690836001600160a01b0316021790610de561194e565b5050506000600160006101000a81610dfb6118a8565b816001600160a01b0302191690836001600160a01b0316021790610e1d61194e565b50505060008090610e2c6118a8565b906101000a90046001600160a01b03166001600160a01b03167f71614071b88dee5e0b2ae578a9dd7b2ebbe9ae832ba419dc0242cd065a290b6c60405160405180910390a2565b60006001610e7f6118a8565b906101000a90046001600160a01b031681565b60008080610e9e6118a8565b906101000a90046001600160a01b03166001600160a01b03165a610ec0611908565b6001600160a01b031614610f0e5760405162461bcd60e51b8152600401808060200182810382526036815260200180611c5f6036913960400191505060405180910390610f0b61183d565b50505b610f2f6002610f1b6118a8565b610f236117c6565b9063ffffffff6117d616565b821015610f765760405162461bcd60e51b8152600401808060200182810382526049815260200180611cd26049913960600191505060405180910390610f7361183d565b50505b6000868686868660405160200180866001600160a01b03166001600160a01b031681526020018581526020018060200180602001848152602001838103835286818151815260200191508051906020019080838360005b83811015610fe5578082015183820152602001610fcd565b50505050905090810190601f1680156110125780820380516001836020036101000a031916815260200191505b50838103825285818151815260200191508051906020019080838360005b83811015611048578082015183820152602001611030565b50505050905090810190601f1680156110755780820380516001836020036101000a031916815260200191505b509750505050505050506040516020818303038152906040528051906020012060008181526003602052909150600190604090206001816110b46118a8565b8160ff021916908315150217906110c961194e565b505050866001600160a01b0316817f76e2796dc3a81d57b0e8504b647febcbeeb5f4af818e164f11eef8131a6a763f88888888604051808581526020018060200180602001848152602001838103835286818151815260200191508051906020019080838360005b83811015611149578082015183820152602001611131565b50505050905090810190601f1680156111765780820380516001836020036101000a031916815260200191505b50838103825285818151815260200191508051906020019080838360005b838110156111ac578082015183820152602001611194565b50505050905090810190601f1680156111d95780820380516001836020036101000a031916815260200191505b50965050505050505060405180910390a39695505050505050565b5a63996d79a5598160e01b8152602081600483336000905af158600e01573d6000803e3d6000fd5b3d6001141558600a015760016000f35b8051925060005b604081101561124a57600082820152602001611233565b5050506001600160a01b03165a61125f611908565b6001600160a01b0316146112ad5760405162461bcd60e51b8152600401808060200182810382526038815260200180611c2760389139604001915050604051809103906112aa61183d565b50505b80600180806112ba6118a8565b816001600160a01b0302191690836001600160a01b03160217906112dc61194e565b50505060016000906112ec6118a8565b906101000a90046001600160a01b03166001600160a01b03167f69d78e38a01985fbb1462961809b4b2d65531bc93b2b94037f3334b82ca4a75660405160405180910390a250565b60008061133f6118a8565b906101000a90046001600160a01b03166001600160a01b03165a611361611908565b6001600160a01b0316146113af5760405162461bcd60e51b8152600401808060200182810382526037815260200180611acb60379139604001915050604051809103906113ac61183d565b50505b6000858585858560405160200180866001600160a01b03166001600160a01b031681526020018581526020018060200180602001848152602001838103835286818151815260200191508051906020019080838360005b8381101561141e578082015183820152602001611406565b50505050905090810190601f16801561144b5780820380516001836020036101000a031916815260200191505b50838103825285818151815260200191508051906020019080838360005b83811015611481578082015183820152602001611469565b50505050905090810190601f1680156114ae5780820380516001836020036101000a031916815260200191505b509750505050505050506040516020818303038152906040528051906020012060008181526003602052909150604081206001816114ea6118a8565b8160ff021916908315150217906114ff61194e565b505050856001600160a01b0316817f2fffc091a501fd91bfbff27141450d3acb40fb8e6d8382b243ec7a812a3aaf8787878787604051808581526020018060200180602001848152602001838103835286818151815260200191508051906020019080838360005b8381101561157f578082015183820152602001611567565b50505050905090810190601f1680156115ac5780820380516001836020036101000a031916815260200191505b50838103825285818151815260200191508051906020019080838360005b838110156115e25780820151838201526020016115ca565b50505050905090810190601f16801561160f5780820380516001836020036101000a031916815260200191505b50965050505050505060405180910390a3505050505050565b60026116326118a8565b81565b62278d0081565b600081565b6212750081565b5a63996d79a5598160e01b8152602081600483336000905af158600e01573d6000803e3d6000fd5b3d6001141558600a015760016000f35b8051925060005b604081101561169e57600082820152602001611687565b5050506001600160a01b03165a6116b3611908565b6001600160a01b0316146117015760405162461bcd60e51b8152600401808060200182810382526031815260200180611d1b60319139604001915050604051809103906116fe61183d565b50505b62278d0081111561174c5760405162461bcd60e51b8152600401808060200182810382526038815260200180611b7a603891396040019150506040518091039061174961183d565b50505b8080600261175861194e565b50505060026117656118a8565b7f948b1f6a42ee138b7e34058ba85a37f716d55ff25ff05a763f15bed6a04c8d2c60405160405180910390a250565b6003602052806000526040600020600091506117ae6118a8565b906101000a900460ff1681565b600080610e7f6118a8565b60005a6117d1611a4c565b905090565b6000828201838110156118365760405162461bcd60e51b815260206004820152601b60248201527a536166654d6174683a206164646974696f6e206f766572666c6f7760281b60448201526064016040518091039061183361183d565b50505b9392505050565b632a2a7adb598160e01b8152600481016020815285602082015260005b8681101561187557808601518282016040015260200161185a565b506020828760640184336000905af158600e01573d6000803e3d6000fd5b3d6001141558600a015760016000f35b505050565b6303daa959598160e01b8152836004820152602081602483336000905af158600e01573d6000803e3d6000fd5b3d6001141558600a015760016000f35b8051935060005b6040811015611903576000828201526020016118ec565b505050565b6373509064598160e01b8152602081600483336000905af158600e01573d6000803e3d6000fd5b3d6001141558600a015760016000f35b805160008252935060206118ec565b6322bd64c0598160e01b8152836004820152846024820152600081604483336000905af158600e01573d6000803e3d6000fd5b3d6001141558600a015760016000f35b6000815260206118ec565b6385979f76598160e01b8152836004820152846024820152606060448201528760648201526084810160005b898110156119e05780890151828201526020016119c8565b506060828a60a40184336000905af158600e01573d6000803e3d6000fd5b3d6001141558600a015760016000f35b815160408301513d6000853e8c8c82606087013350600060045af15059845b81811015611a415760008152602001611a2d565b50919c505050505050565b63bdbf8c36598160e01b8152602081600483336000905af158600e01573d6000803e3d6000fd5b3d6001141558600a015760016000f35b805160008252935060206118ec56fe54696d656c6f636b3a3a657865637574655472616e73616374696f6e3a2043616c6c206d75737420636f6d652066726f6d2061646d696e2e54696d656c6f636b3a3a63616e63656c5472616e73616374696f6e3a2043616c6c206d75737420636f6d652066726f6d2061646d696e2e54696d656c6f636b3a3a657865637574655472616e73616374696f6e3a205472616e73616374696f6e206973207374616c652e54696d656c6f636b3a3a657865637574655472616e73616374696f6e3a205472616e73616374696f6e206861736e2774207375727061737365642074696d65206c6f636b2e54696d656c6f636b3a3a73657444656c61793a2044656c6179206d757374206e6f7420657863656564206d6178696d756d2064656c61792e54696d656c6f636b3a3a657865637574655472616e73616374696f6e3a205472616e73616374696f6e206861736e2774206265656e207175657565642e54696d656c6f636b3a3a61636365707441646d696e3a2043616c6c206d75737420636f6d652066726f6d2070656e64696e6741646d696e2e54696d656c6f636b3a3a73657450656e64696e6741646d696e3a2043616c6c206d75737420636f6d652066726f6d2054696d656c6f636b2e54696d656c6f636b3a3a71756575655472616e73616374696f6e3a2043616c6c206d75737420636f6d652066726f6d2061646d696e2e54696d656c6f636b3a3a657865637574655472616e73616374696f6e3a205472616e73616374696f6e20657865637574696f6e2072657665727465642e54696d656c6f636b3a3a71756575655472616e73616374696f6e3a20457374696d6174656420657865637574696f6e20626c6f636b206d75737420736174697366792064656c61792e54696d656c6f636b3a3a73657444656c61793a2043616c6c206d75737420636f6d652066726f6d2054696d656c6f636b2e54696d656c6f636b3a3a73657444656c61793a2044656c6179206d757374206e6f7420657863656564206d6178696d756d2064656c61792e",
  "deployedBytecode": "0x6080604052600436106100a25760003560e01c80630825f38f146100a45780630e18b6811461029857806326782247146102b65780633a66f901146102f05780634dd18bf514610495578063591fcdfe146104da5780636a42b8f81461066d5780637d645fab1461068b578063b1b43ae5146106a9578063c1a287e2146106c7578063e177246e146106e5578063f2b0653714610721578063f851a44014610771575b005b610221600480360360a08110156100c3576000806100c061183d565b50505b6001600160a01b0382351691602081013591810190606081016040820135600160201b8111156100fb576000806100f861183d565b50505b8201836020820111156101165760008061011361183d565b50505b803590602001918460018302840111600160201b831117156101405760008061013d61183d565b50505b91908080601f01602080910402602001604051908101604052818152929190602084018383808284376000920191909152509295949360208101935035915050600160201b81111561019a5760008061019761183d565b50505b8201836020820111156101b5576000806101b261183d565b50505b803590602001918460018302840111600160201b831117156101df576000806101dc61183d565b50505b91908080601f0160208091040260200160405190810160405281815292919060208401838380828437600092019190915250929550509135925061078f915050565b60405160208082528190810183818151815260200191508051906020019080838360005b8381101561025d578082015183820152602001610245565b50505050905090810190601f16801561028a5780820380516001836020036101000a031916815260200191505b509250505060405180910390f35b3480156102ad576000806102aa61183d565b50505b506100a2610d31565b3480156102cb576000806102c861183d565b50505b506102d4610e73565b6040516001600160a01b03909116815260200160405180910390f35b3480156103055760008061030261183d565b50505b50610483600480360360a08110156103255760008061032261183d565b50505b6001600160a01b0382351691602081013591810190606081016040820135600160201b81111561035d5760008061035a61183d565b50505b8201836020820111156103785760008061037561183d565b50505b803590602001918460018302840111600160201b831117156103a25760008061039f61183d565b50505b91908080601f01602080910402602001604051908101604052818152929190602084018383808284376000920191909152509295949360208101935035915050600160201b8111156103fc576000806103f961183d565b50505b8201836020820111156104175760008061041461183d565b50505b803590602001918460018302840111600160201b831117156104415760008061043e61183d565b50505b91908080601f01602080910402602001604051908101604052818152929190602084018383808284376000920191909152509295505091359250610e92915050565b60405190815260200160405180910390f35b3480156104aa576000806104a761183d565b50505b506100a2600480360360208110156104ca576000806104c761183d565b50505b50356001600160a01b03166111f4565b3480156104ef576000806104ec61183d565b50505b506100a2600480360360a081101561050f5760008061050c61183d565b50505b6001600160a01b0382351691602081013591810190606081016040820135600160201b8111156105475760008061054461183d565b50505b8201836020820111156105625760008061055f61183d565b50505b803590602001918460018302840111600160201b8311171561058c5760008061058961183d565b50505b91908080601f01602080910402602001604051908101604052818152929190602084018383808284376000920191909152509295949360208101935035915050600160201b8111156105e6576000806105e361183d565b50505b820183602082011115610601576000806105fe61183d565b50505b803590602001918460018302840111600160201b8311171561062b5760008061062861183d565b50505b91908080601f01602080910402602001604051908101604052818152929190602084018383808284376000920191909152509295505091359250611334915050565b3480156106825760008061067f61183d565b50505b50610483611628565b3480156106a05760008061069d61183d565b50505b50610483611635565b3480156106be576000806106bb61183d565b50505b5061048361163c565b3480156106dc576000806106d961183d565b50505b50610483611641565b3480156106fa576000806106f761183d565b50505b506100a26004803603602081101561071a5760008061071761183d565b50505b5035611648565b3480156107365760008061073361183d565b50505b5061075d600480360360208110156107565760008061075361183d565b50505b5035611794565b604051901515815260200160405180910390f35b3480156107865760008061078361183d565b50505b506102d46117bb565b606060008061079c6118a8565b906101000a90046001600160a01b03166001600160a01b03165a6107be611908565b6001600160a01b03161461080c5760405162461bcd60e51b8152600401808060200182810382526038815260200180611a93603891396040019150506040518091039061080961183d565b50505b6000868686868660405160200180866001600160a01b03166001600160a01b031681526020018581526020018060200180602001848152602001838103835286818151815260200191508051906020019080838360005b8381101561087b578082015183820152602001610863565b50505050905090810190601f1680156108a85780820380516001836020036101000a031916815260200191505b50838103825285818151815260200191508051906020019080838360005b838110156108de5780820151838201526020016108c6565b50505050905090810190601f16801561090b5780820380516001836020036101000a031916815260200191505b509750505050505050506040516020818303038152906040528051906020012060008181526003602052909150604090206000906109476118a8565b906101000a900460ff166109955760405162461bcd60e51b815260040180806020018281038252603d815260200180611bb2603d91396040019150506040518091039061099261183d565b50505b8261099e6117c6565b10156109e45760405162461bcd60e51b8152600401808060200182810382526045815260200180611b3560459139606001915050604051809103906109e161183d565b50505b6109f7836212750063ffffffff6117d616565b6109ff6117c6565b1115610a455760405162461bcd60e51b8152600401808060200182810382526033815260200180611b026033913960400191505060405180910390610a4261183d565b50505b6000818152600360205260408120600181610a5e6118a8565b8160ff02191690831515021790610a7361194e565b50505060608551610a85575083610b09565b8580519060200120856040516001600160e01b03198316602082019081529060240182805190602001908083835b60208310610ad25780518252601f199092019160209182019101610ab3565b6001836020036101000a03801982511681845116179092525050509190910193506040925050505160208183030381529060405290505b60006060896001600160a01b031689846040518082805190602001908083835b60208310610b485780518252601f199092019160209182019101610b29565b6001836020036101000a03801982511681845116808217855250505050505090500191505060006040518083038185875a610b8161199c565b505050505050925050503d8060008114610bb7576040513d603f01601f191681016040523d815291503d6000602084013e610bbc565b606091505b509150915081610c065760405162461bcd60e51b815260040180806020018281038252603d815260200180611c95603d913960400191505060405180910390610c0361183d565b50505b896001600160a01b0316847fa560e3198060a2f10670c1ec5b403077ea6ae93ca8de1c32b451dc1a943cd6e78b8b8b8b604051808581526020018060200180602001848152602001838103835286818151815260200191508051906020019080838360005b83811015610c83578082015183820152602001610c6b565b50505050905090810190601f168015610cb05780820380516001836020036101000a031916815260200191505b50838103825285818151815260200191508051906020019080838360005b83811015610ce6578082015183820152602001610cce565b50505050905090810190601f168015610d135780820380516001836020036101000a031916815260200191505b50965050505050505060405180910390a39998505050505050505050565b60006001610d3d6118a8565b906101000a90046001600160a01b03166001600160a01b03165a610d5f611908565b6001600160a01b031614610dad5760405162461bcd60e51b8152600401808060200182810382526038815260200180611bef6038913960400191505060405180910390610daa61183d565b50505b5a610db6611908565b6000600181610dc36118a8565b816001600160a01b0302191690836001600160a01b0316021790610de561194e565b5050506000600160006101000a81610dfb6118a8565b816001600160a01b0302191690836001600160a01b0316021790610e1d61194e565b50505060008090610e2c6118a8565b906101000a90046001600160a01b03166001600160a01b03167f71614071b88dee5e0b2ae578a9dd7b2ebbe9ae832ba419dc0242cd065a290b6c60405160405180910390a2565b60006001610e7f6118a8565b906101000a90046001600160a01b031681565b60008080610e9e6118a8565b906101000a90046001600160a01b03166001600160a01b03165a610ec0611908565b6001600160a01b031614610f0e5760405162461bcd60e51b8152600401808060200182810382526036815260200180611c5f6036913960400191505060405180910390610f0b61183d565b50505b610f2f6002610f1b6118a8565b610f236117c6565b9063ffffffff6117d616565b821015610f765760405162461bcd60e51b8152600401808060200182810382526049815260200180611cd26049913960600191505060405180910390610f7361183d565b50505b6000868686868660405160200180866001600160a01b03166001600160a01b031681526020018581526020018060200180602001848152602001838103835286818151815260200191508051906020019080838360005b83811015610fe5578082015183820152602001610fcd565b50505050905090810190601f1680156110125780820380516001836020036101000a031916815260200191505b50838103825285818151815260200191508051906020019080838360005b83811015611048578082015183820152602001611030565b50505050905090810190601f1680156110755780820380516001836020036101000a031916815260200191505b509750505050505050506040516020818303038152906040528051906020012060008181526003602052909150600190604090206001816110b46118a8565b8160ff021916908315150217906110c961194e565b505050866001600160a01b0316817f76e2796dc3a81d57b0e8504b647febcbeeb5f4af818e164f11eef8131a6a763f88888888604051808581526020018060200180602001848152602001838103835286818151815260200191508051906020019080838360005b83811015611149578082015183820152602001611131565b50505050905090810190601f1680156111765780820380516001836020036101000a031916815260200191505b50838103825285818151815260200191508051906020019080838360005b838110156111ac578082015183820152602001611194565b50505050905090810190601f1680156111d95780820380516001836020036101000a031916815260200191505b50965050505050505060405180910390a39695505050505050565b5a63996d79a5598160e01b8152602081600483336000905af158601d01573d60011458600c01573d6000803e3d621234565260ea61109c528051925060005b604081101561124a57600082820152602001611233565b5050506001600160a01b03165a61125f611908565b6001600160a01b0316146112ad5760405162461bcd60e51b8152600401808060200182810382526038815260200180611c2760389139604001915050604051809103906112aa61183d565b50505b80600180806112ba6118a8565b816001600160a01b0302191690836001600160a01b03160217906112dc61194e565b50505060016000906112ec6118a8565b906101000a90046001600160a01b03166001600160a01b03167f69d78e38a01985fbb1462961809b4b2d65531bc93b2b94037f3334b82ca4a75660405160405180910390a250565b60008061133f6118a8565b906101000a90046001600160a01b03166001600160a01b03165a611361611908565b6001600160a01b0316146113af5760405162461bcd60e51b8152600401808060200182810382526037815260200180611acb60379139604001915050604051809103906113ac61183d565b50505b6000858585858560405160200180866001600160a01b03166001600160a01b031681526020018581526020018060200180602001848152602001838103835286818151815260200191508051906020019080838360005b8381101561141e578082015183820152602001611406565b50505050905090810190601f16801561144b5780820380516001836020036101000a031916815260200191505b50838103825285818151815260200191508051906020019080838360005b83811015611481578082015183820152602001611469565b50505050905090810190601f1680156114ae5780820380516001836020036101000a031916815260200191505b509750505050505050506040516020818303038152906040528051906020012060008181526003602052909150604081206001816114ea6118a8565b8160ff021916908315150217906114ff61194e565b505050856001600160a01b0316817f2fffc091a501fd91bfbff27141450d3acb40fb8e6d8382b243ec7a812a3aaf8787878787604051808581526020018060200180602001848152602001838103835286818151815260200191508051906020019080838360005b8381101561157f578082015183820152602001611567565b50505050905090810190601f1680156115ac5780820380516001836020036101000a031916815260200191505b50838103825285818151815260200191508051906020019080838360005b838110156115e25780820151838201526020016115ca565b50505050905090810190601f16801561160f5780820380516001836020036101000a031916815260200191505b50965050505050505060405180910390a3505050505050565b60026116326118a8565b81565b62278d0081565b600081565b6212750081565b5a63996d79a5598160e01b8152602081600483336000905af158601d01573d60011458600c01573d6000803e3d621234565260ea61109c528051925060005b604081101561169e57600082820152602001611687565b5050506001600160a01b03165a6116b3611908565b6001600160a01b0316146117015760405162461bcd60e51b8152600401808060200182810382526031815260200180611d1b60319139604001915050604051809103906116fe61183d565b50505b62278d0081111561174c5760405162461bcd60e51b8152600401808060200182810382526038815260200180611b7a603891396040019150506040518091039061174961183d565b50505b8080600261175861194e565b50505060026117656118a8565b7f948b1f6a42ee138b7e34058ba85a37f716d55ff25ff05a763f15bed6a04c8d2c60405160405180910390a250565b6003602052806000526040600020600091506117ae6118a8565b906101000a900460ff1681565b600080610e7f6118a8565b60005a6117d1611a4c565b905090565b6000828201838110156118365760405162461bcd60e51b815260206004820152601b60248201527a536166654d6174683a206164646974696f6e206f766572666c6f7760281b60448201526064016040518091039061183361183d565b50505b9392505050565b632a2a7adb598160e01b8152600481016020815285602082015260005b8681101561187557808601518282016040015260200161185a565b506020828760640184336000905af158601d01573d60011458600c01573d6000803e3d621234565260ea61109c52505050565b6303daa959598160e01b8152836004820152602081602483336000905af158601d01573d60011458600c01573d6000803e3d621234565260ea61109c528051935060005b6040811015611903576000828201526020016118ec565b505050565b6373509064598160e01b8152602081600483336000905af158601d01573d60011458600c01573d6000803e3d621234565260ea61109c52805160008252935060206118ec565b6322bd64c0598160e01b8152836004820152846024820152600081604483336000905af158601d01573d60011458600c01573d6000803e3d621234565260ea61109c526000815260206118ec565b6385979f76598160e01b8152836004820152846024820152606060448201528760648201526084810160005b898110156119e05780890151828201526020016119c8565b506060828a60a40184336000905af158601d01573d60011458600c01573d6000803e3d621234565260ea61109c52815160408301513d6000853e8c8c82606087013350600060045af15059845b81811015611a415760008152602001611a2d565b50919c505050505050565b63bdbf8c36598160e01b8152602081600483336000905af158601d01573d60011458600c01573d6000803e3d621234565260ea61109c52805160008252935060206118ec56fe54696d656c6f636b3a3a657865637574655472616e73616374696f6e3a2043616c6c206d75737420636f6d652066726f6d2061646d696e2e54696d656c6f636b3a3a63616e63656c5472616e73616374696f6e3a2043616c6c206d75737420636f6d652066726f6d2061646d696e2e54696d656c6f636b3a3a657865637574655472616e73616374696f6e3a205472616e73616374696f6e206973207374616c652e54696d656c6f636b3a3a657865637574655472616e73616374696f6e3a205472616e73616374696f6e206861736e2774207375727061737365642074696d65206c6f636b2e54696d656c6f636b3a3a73657444656c61793a2044656c6179206d757374206e6f7420657863656564206d6178696d756d2064656c61792e54696d656c6f636b3a3a657865637574655472616e73616374696f6e3a205472616e73616374696f6e206861736e2774206265656e207175657565642e54696d656c6f636b3a3a61636365707441646d696e3a2043616c6c206d75737420636f6d652066726f6d2070656e64696e6741646d696e2e54696d656c6f636b3a3a73657450656e64696e6741646d696e3a2043616c6c206d75737420636f6d652066726f6d2054696d656c6f636b2e54696d656c6f636b3a3a71756575655472616e73616374696f6e3a2043616c6c206d75737420636f6d652066726f6d2061646d696e2e54696d656c6f636b3a3a657865637574655472616e73616374696f6e3a205472616e73616374696f6e20657865637574696f6e2072657665727465642e54696d656c6f636b3a3a71756575655472616e73616374696f6e3a20457374696d6174656420657865637574696f6e20626c6f636b206d75737420736174697366792064656c61792e54696d656c6f636b3a3a73657444656c61793a2043616c6c206d75737420636f6d652066726f6d2054696d656c6f636b2e",
  "source": "pragma solidity ^0.5.16;\n\nimport \"./SafeMath.sol\";\n\ncontract Timelock {\n    using SafeMath for uint;\n\n    event NewAdmin(address indexed newAdmin);\n    event NewPendingAdmin(address indexed newPendingAdmin);\n    event NewDelay(uint indexed newDelay);\n    event CancelTransaction(bytes32 indexed txHash, address indexed target, uint value, string signature,  bytes data, uint eta);\n    event ExecuteTransaction(bytes32 indexed txHash, address indexed target, uint value, string signature,  bytes data, uint eta);\n    event QueueTransaction(bytes32 indexed txHash, address indexed target, uint value, string signature, bytes data, uint eta);\n\n    uint public constant GRACE_PERIOD = 14 days;\n    uint public constant MINIMUM_DELAY = 0; //2 days;\n    uint public constant MAXIMUM_DELAY = 30 days;\n\n    address public admin;\n    address public pendingAdmin;\n    uint public delay;\n\n    mapping (bytes32 => bool) public queuedTransactions;\n\n\n    constructor(address admin_, uint delay_) public {\n        require(delay_ >= MINIMUM_DELAY, \"Timelock::constructor: Delay must exceed minimum delay.\");\n        require(delay_ <= MAXIMUM_DELAY, \"Timelock::setDelay: Delay must not exceed maximum delay.\");\n\n        admin = admin_;\n        delay = delay_;\n    }\n\n    function() external payable { }\n\n    function setDelay(uint delay_) public {\n        require(msg.sender == address(this), \"Timelock::setDelay: Call must come from Timelock.\");\n        require(delay_ >= MINIMUM_DELAY, \"Timelock::setDelay: Delay must exceed minimum delay.\");\n        require(delay_ <= MAXIMUM_DELAY, \"Timelock::setDelay: Delay must not exceed maximum delay.\");\n        delay = delay_;\n\n        emit NewDelay(delay);\n    }\n\n    function acceptAdmin() public {\n        require(msg.sender == pendingAdmin, \"Timelock::acceptAdmin: Call must come from pendingAdmin.\");\n        admin = msg.sender;\n        pendingAdmin = address(0);\n\n        emit NewAdmin(admin);\n    }\n\n    function setPendingAdmin(address pendingAdmin_) public {\n        require(msg.sender == address(this), \"Timelock::setPendingAdmin: Call must come from Timelock.\");\n        pendingAdmin = pendingAdmin_;\n\n        emit NewPendingAdmin(pendingAdmin);\n    }\n\n    function queueTransaction(address target, uint value, string memory signature, bytes memory data, uint eta) public returns (bytes32) {\n        require(msg.sender == admin, \"Timelock::queueTransaction: Call must come from admin.\");\n        require(eta >= getBlockTimestamp().add(delay), \"Timelock::queueTransaction: Estimated execution block must satisfy delay.\");\n\n        bytes32 txHash = keccak256(abi.encode(target, value, signature, data, eta));\n        queuedTransactions[txHash] = true;\n\n        emit QueueTransaction(txHash, target, value, signature, data, eta);\n        return txHash;\n    }\n\n    function cancelTransaction(address target, uint value, string memory signature, bytes memory data, uint eta) public {\n        require(msg.sender == admin, \"Timelock::cancelTransaction: Call must come from admin.\");\n\n        bytes32 txHash = keccak256(abi.encode(target, value, signature, data, eta));\n        queuedTransactions[txHash] = false;\n\n        emit CancelTransaction(txHash, target, value, signature, data, eta);\n    }\n\n    function executeTransaction(address target, uint value, string memory signature, bytes memory data, uint eta) public payable returns (bytes memory) {\n        require(msg.sender == admin, \"Timelock::executeTransaction: Call must come from admin.\");\n\n        bytes32 txHash = keccak256(abi.encode(target, value, signature, data, eta));\n        require(queuedTransactions[txHash], \"Timelock::executeTransaction: Transaction hasn't been queued.\");\n        require(getBlockTimestamp() >= eta, \"Timelock::executeTransaction: Transaction hasn't surpassed time lock.\");\n        require(getBlockTimestamp() <= eta.add(GRACE_PERIOD), \"Timelock::executeTransaction: Transaction is stale.\");\n\n        queuedTransactions[txHash] = false;\n\n        bytes memory callData;\n\n        if (bytes(signature).length == 0) {\n            callData = data;\n        } else {\n            callData = abi.encodePacked(bytes4(keccak256(bytes(signature))), data);\n        }\n\n        // solium-disable-next-line security/no-call-value\n        (bool success, bytes memory returnData) = target.call.value(value)(callData);\n        require(success, \"Timelock::executeTransaction: Transaction execution reverted.\");\n\n        emit ExecuteTransaction(txHash, target, value, signature, data, eta);\n\n        return returnData;\n    }\n\n    function getBlockTimestamp() internal view returns (uint) {\n        // solium-disable-next-line security/no-block-members\n        return block.timestamp;\n    }\n}",
  "sourcePath": "/Users/janliphardt/Documents/GitHub/optimism/omgx_examples/compound-simple/contracts/Timelock.sol",
  "compiler": {
    "name": "solc",
    "version": "0.5.16"
  },
  "schemaVersion": "3.4.3",
  "updatedAt": "2021-08-31T00:56:40.262Z",
  "networkType": "ethereum",
  "devdoc": {
    "methods": {}
  },
  "userdoc": {
    "methods": {}
  }
}