{
  "contractName": "CCompLikeDelegate",
  "abi": [
    {
      "inputs": [],
      "payable": false,
      "stateMutability": "nonpayable",
      "type": "constructor"
    },
    {
      "anonymous": false,
      "inputs": [
        {
          "indexed": false,
          "internalType": "uint256",
          "name": "cashPrior",
          "type": "uint256"
        },
        {
          "indexed": false,
          "internalType": "uint256",
          "name": "interestAccumulated",
          "type": "uint256"
        },
        {
          "indexed": false,
          "internalType": "uint256",
          "name": "borrowIndex",
          "type": "uint256"
        },
        {
          "indexed": false,
          "internalType": "uint256",
          "name": "totalBorrows",
          "type": "uint256"
        }
      ],
      "name": "AccrueInterest",
      "type": "event"
    },
    {
      "anonymous": false,
      "inputs": [
        {
          "indexed": true,
          "internalType": "address",
          "name": "owner",
          "type": "address"
        },
        {
          "indexed": true,
          "internalType": "address",
          "name": "spender",
          "type": "address"
        },
        {
          "indexed": false,
          "internalType": "uint256",
          "name": "amount",
          "type": "uint256"
        }
      ],
      "name": "Approval",
      "type": "event"
    },
    {
      "anonymous": false,
      "inputs": [
        {
          "indexed": false,
          "internalType": "address",
          "name": "borrower",
          "type": "address"
        },
        {
          "indexed": false,
          "internalType": "uint256",
          "name": "borrowAmount",
          "type": "uint256"
        },
        {
          "indexed": false,
          "internalType": "uint256",
          "name": "accountBorrows",
          "type": "uint256"
        },
        {
          "indexed": false,
          "internalType": "uint256",
          "name": "totalBorrows",
          "type": "uint256"
        }
      ],
      "name": "Borrow",
      "type": "event"
    },
    {
      "anonymous": false,
      "inputs": [
        {
          "indexed": false,
          "internalType": "uint256",
          "name": "error",
          "type": "uint256"
        },
        {
          "indexed": false,
          "internalType": "uint256",
          "name": "info",
          "type": "uint256"
        },
        {
          "indexed": false,
          "internalType": "uint256",
          "name": "detail",
          "type": "uint256"
        }
      ],
      "name": "Failure",
      "type": "event"
    },
    {
      "anonymous": false,
      "inputs": [
        {
          "indexed": false,
          "internalType": "address",
          "name": "liquidator",
          "type": "address"
        },
        {
          "indexed": false,
          "internalType": "address",
          "name": "borrower",
          "type": "address"
        },
        {
          "indexed": false,
          "internalType": "uint256",
          "name": "repayAmount",
          "type": "uint256"
        },
        {
          "indexed": false,
          "internalType": "address",
          "name": "cTokenCollateral",
          "type": "address"
        },
        {
          "indexed": false,
          "internalType": "uint256",
          "name": "seizeTokens",
          "type": "uint256"
        }
      ],
      "name": "LiquidateBorrow",
      "type": "event"
    },
    {
      "anonymous": false,
      "inputs": [
        {
          "indexed": false,
          "internalType": "address",
          "name": "minter",
          "type": "address"
        },
        {
          "indexed": false,
          "internalType": "uint256",
          "name": "mintAmount",
          "type": "uint256"
        },
        {
          "indexed": false,
          "internalType": "uint256",
          "name": "mintTokens",
          "type": "uint256"
        }
      ],
      "name": "Mint",
      "type": "event"
    },
    {
      "anonymous": false,
      "inputs": [
        {
          "indexed": false,
          "internalType": "address",
          "name": "oldAdmin",
          "type": "address"
        },
        {
          "indexed": false,
          "internalType": "address",
          "name": "newAdmin",
          "type": "address"
        }
      ],
      "name": "NewAdmin",
      "type": "event"
    },
    {
      "anonymous": false,
      "inputs": [
        {
          "indexed": false,
          "internalType": "contract ComptrollerInterface",
          "name": "oldComptroller",
          "type": "address"
        },
        {
          "indexed": false,
          "internalType": "contract ComptrollerInterface",
          "name": "newComptroller",
          "type": "address"
        }
      ],
      "name": "NewComptroller",
      "type": "event"
    },
    {
      "anonymous": false,
      "inputs": [
        {
          "indexed": false,
          "internalType": "contract InterestRateModel",
          "name": "oldInterestRateModel",
          "type": "address"
        },
        {
          "indexed": false,
          "internalType": "contract InterestRateModel",
          "name": "newInterestRateModel",
          "type": "address"
        }
      ],
      "name": "NewMarketInterestRateModel",
      "type": "event"
    },
    {
      "anonymous": false,
      "inputs": [
        {
          "indexed": false,
          "internalType": "address",
          "name": "oldPendingAdmin",
          "type": "address"
        },
        {
          "indexed": false,
          "internalType": "address",
          "name": "newPendingAdmin",
          "type": "address"
        }
      ],
      "name": "NewPendingAdmin",
      "type": "event"
    },
    {
      "anonymous": false,
      "inputs": [
        {
          "indexed": false,
          "internalType": "uint256",
          "name": "oldReserveFactorMantissa",
          "type": "uint256"
        },
        {
          "indexed": false,
          "internalType": "uint256",
          "name": "newReserveFactorMantissa",
          "type": "uint256"
        }
      ],
      "name": "NewReserveFactor",
      "type": "event"
    },
    {
      "anonymous": false,
      "inputs": [
        {
          "indexed": false,
          "internalType": "address",
          "name": "redeemer",
          "type": "address"
        },
        {
          "indexed": false,
          "internalType": "uint256",
          "name": "redeemAmount",
          "type": "uint256"
        },
        {
          "indexed": false,
          "internalType": "uint256",
          "name": "redeemTokens",
          "type": "uint256"
        }
      ],
      "name": "Redeem",
      "type": "event"
    },
    {
      "anonymous": false,
      "inputs": [
        {
          "indexed": false,
          "internalType": "address",
          "name": "payer",
          "type": "address"
        },
        {
          "indexed": false,
          "internalType": "address",
          "name": "borrower",
          "type": "address"
        },
        {
          "indexed": false,
          "internalType": "uint256",
          "name": "repayAmount",
          "type": "uint256"
        },
        {
          "indexed": false,
          "internalType": "uint256",
          "name": "accountBorrows",
          "type": "uint256"
        },
        {
          "indexed": false,
          "internalType": "uint256",
          "name": "totalBorrows",
          "type": "uint256"
        }
      ],
      "name": "RepayBorrow",
      "type": "event"
    },
    {
      "anonymous": false,
      "inputs": [
        {
          "indexed": false,
          "internalType": "address",
          "name": "benefactor",
          "type": "address"
        },
        {
          "indexed": false,
          "internalType": "uint256",
          "name": "addAmount",
          "type": "uint256"
        },
        {
          "indexed": false,
          "internalType": "uint256",
          "name": "newTotalReserves",
          "type": "uint256"
        }
      ],
      "name": "ReservesAdded",
      "type": "event"
    },
    {
      "anonymous": false,
      "inputs": [
        {
          "indexed": false,
          "internalType": "address",
          "name": "admin",
          "type": "address"
        },
        {
          "indexed": false,
          "internalType": "uint256",
          "name": "reduceAmount",
          "type": "uint256"
        },
        {
          "indexed": false,
          "internalType": "uint256",
          "name": "newTotalReserves",
          "type": "uint256"
        }
      ],
      "name": "ReservesReduced",
      "type": "event"
    },
    {
      "anonymous": false,
      "inputs": [
        {
          "indexed": true,
          "internalType": "address",
          "name": "from",
          "type": "address"
        },
        {
          "indexed": true,
          "internalType": "address",
          "name": "to",
          "type": "address"
        },
        {
          "indexed": false,
          "internalType": "uint256",
          "name": "amount",
          "type": "uint256"
        }
      ],
      "name": "Transfer",
      "type": "event"
    },
    {
      "constant": false,
      "inputs": [],
      "name": "_acceptAdmin",
      "outputs": [
        {
          "internalType": "uint256",
          "name": "",
          "type": "uint256"
        }
      ],
      "payable": false,
      "stateMutability": "nonpayable",
      "type": "function"
    },
    {
      "constant": false,
      "inputs": [
        {
          "internalType": "uint256",
          "name": "addAmount",
          "type": "uint256"
        }
      ],
      "name": "_addReserves",
      "outputs": [
        {
          "internalType": "uint256",
          "name": "",
          "type": "uint256"
        }
      ],
      "payable": false,
      "stateMutability": "nonpayable",
      "type": "function"
    },
    {
      "constant": false,
      "inputs": [
        {
          "internalType": "bytes",
          "name": "data",
          "type": "bytes"
        }
      ],
      "name": "_becomeImplementation",
      "outputs": [],
      "payable": false,
      "stateMutability": "nonpayable",
      "type": "function"
    },
    {
      "constant": false,
      "inputs": [
        {
          "internalType": "uint256",
          "name": "reduceAmount",
          "type": "uint256"
        }
      ],
      "name": "_reduceReserves",
      "outputs": [
        {
          "internalType": "uint256",
          "name": "",
          "type": "uint256"
        }
      ],
      "payable": false,
      "stateMutability": "nonpayable",
      "type": "function"
    },
    {
      "constant": false,
      "inputs": [],
      "name": "_resignImplementation",
      "outputs": [],
      "payable": false,
      "stateMutability": "nonpayable",
      "type": "function"
    },
    {
      "constant": false,
      "inputs": [
        {
          "internalType": "contract ComptrollerInterface",
          "name": "newComptroller",
          "type": "address"
        }
      ],
      "name": "_setComptroller",
      "outputs": [
        {
          "internalType": "uint256",
          "name": "",
          "type": "uint256"
        }
      ],
      "payable": false,
      "stateMutability": "nonpayable",
      "type": "function"
    },
    {
      "constant": false,
      "inputs": [
        {
          "internalType": "contract InterestRateModel",
          "name": "newInterestRateModel",
          "type": "address"
        }
      ],
      "name": "_setInterestRateModel",
      "outputs": [
        {
          "internalType": "uint256",
          "name": "",
          "type": "uint256"
        }
      ],
      "payable": false,
      "stateMutability": "nonpayable",
      "type": "function"
    },
    {
      "constant": false,
      "inputs": [
        {
          "internalType": "address payable",
          "name": "newPendingAdmin",
          "type": "address"
        }
      ],
      "name": "_setPendingAdmin",
      "outputs": [
        {
          "internalType": "uint256",
          "name": "",
          "type": "uint256"
        }
      ],
      "payable": false,
      "stateMutability": "nonpayable",
      "type": "function"
    },
    {
      "constant": false,
      "inputs": [
        {
          "internalType": "uint256",
          "name": "newReserveFactorMantissa",
          "type": "uint256"
        }
      ],
      "name": "_setReserveFactor",
      "outputs": [
        {
          "internalType": "uint256",
          "name": "",
          "type": "uint256"
        }
      ],
      "payable": false,
      "stateMutability": "nonpayable",
      "type": "function"
    },
    {
      "constant": true,
      "inputs": [],
      "name": "accrualBlockNumber",
      "outputs": [
        {
          "internalType": "uint256",
          "name": "",
          "type": "uint256"
        }
      ],
      "payable": false,
      "stateMutability": "view",
      "type": "function"
    },
    {
      "constant": false,
      "inputs": [],
      "name": "accrueInterest",
      "outputs": [
        {
          "internalType": "uint256",
          "name": "",
          "type": "uint256"
        }
      ],
      "payable": false,
      "stateMutability": "nonpayable",
      "type": "function"
    },
    {
      "constant": true,
      "inputs": [],
      "name": "admin",
      "outputs": [
        {
          "internalType": "address payable",
          "name": "",
          "type": "address"
        }
      ],
      "payable": false,
      "stateMutability": "view",
      "type": "function"
    },
    {
      "constant": true,
      "inputs": [
        {
          "internalType": "address",
          "name": "owner",
          "type": "address"
        },
        {
          "internalType": "address",
          "name": "spender",
          "type": "address"
        }
      ],
      "name": "allowance",
      "outputs": [
        {
          "internalType": "uint256",
          "name": "",
          "type": "uint256"
        }
      ],
      "payable": false,
      "stateMutability": "view",
      "type": "function"
    },
    {
      "constant": false,
      "inputs": [
        {
          "internalType": "address",
          "name": "spender",
          "type": "address"
        },
        {
          "internalType": "uint256",
          "name": "amount",
          "type": "uint256"
        }
      ],
      "name": "approve",
      "outputs": [
        {
          "internalType": "bool",
          "name": "",
          "type": "bool"
        }
      ],
      "payable": false,
      "stateMutability": "nonpayable",
      "type": "function"
    },
    {
      "constant": true,
      "inputs": [
        {
          "internalType": "address",
          "name": "owner",
          "type": "address"
        }
      ],
      "name": "balanceOf",
      "outputs": [
        {
          "internalType": "uint256",
          "name": "",
          "type": "uint256"
        }
      ],
      "payable": false,
      "stateMutability": "view",
      "type": "function"
    },
    {
      "constant": false,
      "inputs": [
        {
          "internalType": "address",
          "name": "owner",
          "type": "address"
        }
      ],
      "name": "balanceOfUnderlying",
      "outputs": [
        {
          "internalType": "uint256",
          "name": "",
          "type": "uint256"
        }
      ],
      "payable": false,
      "stateMutability": "nonpayable",
      "type": "function"
    },
    {
      "constant": false,
      "inputs": [
        {
          "internalType": "uint256",
          "name": "borrowAmount",
          "type": "uint256"
        }
      ],
      "name": "borrow",
      "outputs": [
        {
          "internalType": "uint256",
          "name": "",
          "type": "uint256"
        }
      ],
      "payable": false,
      "stateMutability": "nonpayable",
      "type": "function"
    },
    {
      "constant": false,
      "inputs": [
        {
          "internalType": "address",
          "name": "account",
          "type": "address"
        }
      ],
      "name": "borrowBalanceCurrent",
      "outputs": [
        {
          "internalType": "uint256",
          "name": "",
          "type": "uint256"
        }
      ],
      "payable": false,
      "stateMutability": "nonpayable",
      "type": "function"
    },
    {
      "constant": true,
      "inputs": [
        {
          "internalType": "address",
          "name": "account",
          "type": "address"
        }
      ],
      "name": "borrowBalanceStored",
      "outputs": [
        {
          "internalType": "uint256",
          "name": "",
          "type": "uint256"
        }
      ],
      "payable": false,
      "stateMutability": "view",
      "type": "function"
    },
    {
      "constant": true,
      "inputs": [],
      "name": "borrowIndex",
      "outputs": [
        {
          "internalType": "uint256",
          "name": "",
          "type": "uint256"
        }
      ],
      "payable": false,
      "stateMutability": "view",
      "type": "function"
    },
    {
      "constant": true,
      "inputs": [],
      "name": "borrowRatePerBlock",
      "outputs": [
        {
          "internalType": "uint256",
          "name": "",
          "type": "uint256"
        }
      ],
      "payable": false,
      "stateMutability": "view",
      "type": "function"
    },
    {
      "constant": true,
      "inputs": [],
      "name": "comptroller",
      "outputs": [
        {
          "internalType": "contract ComptrollerInterface",
          "name": "",
          "type": "address"
        }
      ],
      "payable": false,
      "stateMutability": "view",
      "type": "function"
    },
    {
      "constant": true,
      "inputs": [],
      "name": "decimals",
      "outputs": [
        {
          "internalType": "uint8",
          "name": "",
          "type": "uint8"
        }
      ],
      "payable": false,
      "stateMutability": "view",
      "type": "function"
    },
    {
      "constant": false,
      "inputs": [],
      "name": "exchangeRateCurrent",
      "outputs": [
        {
          "internalType": "uint256",
          "name": "",
          "type": "uint256"
        }
      ],
      "payable": false,
      "stateMutability": "nonpayable",
      "type": "function"
    },
    {
      "constant": true,
      "inputs": [],
      "name": "exchangeRateStored",
      "outputs": [
        {
          "internalType": "uint256",
          "name": "",
          "type": "uint256"
        }
      ],
      "payable": false,
      "stateMutability": "view",
      "type": "function"
    },
    {
      "constant": true,
      "inputs": [
        {
          "internalType": "address",
          "name": "account",
          "type": "address"
        }
      ],
      "name": "getAccountSnapshot",
      "outputs": [
        {
          "internalType": "uint256",
          "name": "",
          "type": "uint256"
        },
        {
          "internalType": "uint256",
          "name": "",
          "type": "uint256"
        },
        {
          "internalType": "uint256",
          "name": "",
          "type": "uint256"
        },
        {
          "internalType": "uint256",
          "name": "",
          "type": "uint256"
        }
      ],
      "payable": false,
      "stateMutability": "view",
      "type": "function"
    },
    {
      "constant": true,
      "inputs": [],
      "name": "getCash",
      "outputs": [
        {
          "internalType": "uint256",
          "name": "",
          "type": "uint256"
        }
      ],
      "payable": false,
      "stateMutability": "view",
      "type": "function"
    },
    {
      "constant": true,
      "inputs": [],
      "name": "implementation",
      "outputs": [
        {
          "internalType": "address",
          "name": "",
          "type": "address"
        }
      ],
      "payable": false,
      "stateMutability": "view",
      "type": "function"
    },
    {
      "constant": false,
      "inputs": [
        {
          "internalType": "address",
          "name": "underlying_",
          "type": "address"
        },
        {
          "internalType": "contract ComptrollerInterface",
          "name": "comptroller_",
          "type": "address"
        },
        {
          "internalType": "contract InterestRateModel",
          "name": "interestRateModel_",
          "type": "address"
        },
        {
          "internalType": "uint256",
          "name": "initialExchangeRateMantissa_",
          "type": "uint256"
        },
        {
          "internalType": "string",
          "name": "name_",
          "type": "string"
        },
        {
          "internalType": "string",
          "name": "symbol_",
          "type": "string"
        },
        {
          "internalType": "uint8",
          "name": "decimals_",
          "type": "uint8"
        }
      ],
      "name": "initialize",
      "outputs": [],
      "payable": false,
      "stateMutability": "nonpayable",
      "type": "function"
    },
    {
      "constant": false,
      "inputs": [
        {
          "internalType": "contract ComptrollerInterface",
          "name": "comptroller_",
          "type": "address"
        },
        {
          "internalType": "contract InterestRateModel",
          "name": "interestRateModel_",
          "type": "address"
        },
        {
          "internalType": "uint256",
          "name": "initialExchangeRateMantissa_",
          "type": "uint256"
        },
        {
          "internalType": "string",
          "name": "name_",
          "type": "string"
        },
        {
          "internalType": "string",
          "name": "symbol_",
          "type": "string"
        },
        {
          "internalType": "uint8",
          "name": "decimals_",
          "type": "uint8"
        }
      ],
      "name": "initialize",
      "outputs": [],
      "payable": false,
      "stateMutability": "nonpayable",
      "type": "function"
    },
    {
      "constant": true,
      "inputs": [],
      "name": "interestRateModel",
      "outputs": [
        {
          "internalType": "contract InterestRateModel",
          "name": "",
          "type": "address"
        }
      ],
      "payable": false,
      "stateMutability": "view",
      "type": "function"
    },
    {
      "constant": true,
      "inputs": [],
      "name": "isCToken",
      "outputs": [
        {
          "internalType": "bool",
          "name": "",
          "type": "bool"
        }
      ],
      "payable": false,
      "stateMutability": "view",
      "type": "function"
    },
    {
      "constant": false,
      "inputs": [
        {
          "internalType": "address",
          "name": "borrower",
          "type": "address"
        },
        {
          "internalType": "uint256",
          "name": "repayAmount",
          "type": "uint256"
        },
        {
          "internalType": "contract CTokenInterface",
          "name": "cTokenCollateral",
          "type": "address"
        }
      ],
      "name": "liquidateBorrow",
      "outputs": [
        {
          "internalType": "uint256",
          "name": "",
          "type": "uint256"
        }
      ],
      "payable": false,
      "stateMutability": "nonpayable",
      "type": "function"
    },
    {
      "constant": false,
      "inputs": [
        {
          "internalType": "uint256",
          "name": "mintAmount",
          "type": "uint256"
        }
      ],
      "name": "mint",
      "outputs": [
        {
          "internalType": "uint256",
          "name": "",
          "type": "uint256"
        }
      ],
      "payable": false,
      "stateMutability": "nonpayable",
      "type": "function"
    },
    {
      "constant": true,
      "inputs": [],
      "name": "name",
      "outputs": [
        {
          "internalType": "string",
          "name": "",
          "type": "string"
        }
      ],
      "payable": false,
      "stateMutability": "view",
      "type": "function"
    },
    {
      "constant": true,
      "inputs": [],
      "name": "pendingAdmin",
      "outputs": [
        {
          "internalType": "address payable",
          "name": "",
          "type": "address"
        }
      ],
      "payable": false,
      "stateMutability": "view",
      "type": "function"
    },
    {
      "constant": false,
      "inputs": [
        {
          "internalType": "uint256",
          "name": "redeemTokens",
          "type": "uint256"
        }
      ],
      "name": "redeem",
      "outputs": [
        {
          "internalType": "uint256",
          "name": "",
          "type": "uint256"
        }
      ],
      "payable": false,
      "stateMutability": "nonpayable",
      "type": "function"
    },
    {
      "constant": false,
      "inputs": [
        {
          "internalType": "uint256",
          "name": "redeemAmount",
          "type": "uint256"
        }
      ],
      "name": "redeemUnderlying",
      "outputs": [
        {
          "internalType": "uint256",
          "name": "",
          "type": "uint256"
        }
      ],
      "payable": false,
      "stateMutability": "nonpayable",
      "type": "function"
    },
    {
      "constant": false,
      "inputs": [
        {
          "internalType": "uint256",
          "name": "repayAmount",
          "type": "uint256"
        }
      ],
      "name": "repayBorrow",
      "outputs": [
        {
          "internalType": "uint256",
          "name": "",
          "type": "uint256"
        }
      ],
      "payable": false,
      "stateMutability": "nonpayable",
      "type": "function"
    },
    {
      "constant": false,
      "inputs": [
        {
          "internalType": "address",
          "name": "borrower",
          "type": "address"
        },
        {
          "internalType": "uint256",
          "name": "repayAmount",
          "type": "uint256"
        }
      ],
      "name": "repayBorrowBehalf",
      "outputs": [
        {
          "internalType": "uint256",
          "name": "",
          "type": "uint256"
        }
      ],
      "payable": false,
      "stateMutability": "nonpayable",
      "type": "function"
    },
    {
      "constant": true,
      "inputs": [],
      "name": "reserveFactorMantissa",
      "outputs": [
        {
          "internalType": "uint256",
          "name": "",
          "type": "uint256"
        }
      ],
      "payable": false,
      "stateMutability": "view",
      "type": "function"
    },
    {
      "constant": false,
      "inputs": [
        {
          "internalType": "address",
          "name": "liquidator",
          "type": "address"
        },
        {
          "internalType": "address",
          "name": "borrower",
          "type": "address"
        },
        {
          "internalType": "uint256",
          "name": "seizeTokens",
          "type": "uint256"
        }
      ],
      "name": "seize",
      "outputs": [
        {
          "internalType": "uint256",
          "name": "",
          "type": "uint256"
        }
      ],
      "payable": false,
      "stateMutability": "nonpayable",
      "type": "function"
    },
    {
      "constant": true,
      "inputs": [],
      "name": "supplyRatePerBlock",
      "outputs": [
        {
          "internalType": "uint256",
          "name": "",
          "type": "uint256"
        }
      ],
      "payable": false,
      "stateMutability": "view",
      "type": "function"
    },
    {
      "constant": false,
      "inputs": [
        {
          "internalType": "contract EIP20NonStandardInterface",
          "name": "token",
          "type": "address"
        }
      ],
      "name": "sweepToken",
      "outputs": [],
      "payable": false,
      "stateMutability": "nonpayable",
      "type": "function"
    },
    {
      "constant": true,
      "inputs": [],
      "name": "symbol",
      "outputs": [
        {
          "internalType": "string",
          "name": "",
          "type": "string"
        }
      ],
      "payable": false,
      "stateMutability": "view",
      "type": "function"
    },
    {
      "constant": true,
      "inputs": [],
      "name": "totalBorrows",
      "outputs": [
        {
          "internalType": "uint256",
          "name": "",
          "type": "uint256"
        }
      ],
      "payable": false,
      "stateMutability": "view",
      "type": "function"
    },
    {
      "constant": false,
      "inputs": [],
      "name": "totalBorrowsCurrent",
      "outputs": [
        {
          "internalType": "uint256",
          "name": "",
          "type": "uint256"
        }
      ],
      "payable": false,
      "stateMutability": "nonpayable",
      "type": "function"
    },
    {
      "constant": true,
      "inputs": [],
      "name": "totalReserves",
      "outputs": [
        {
          "internalType": "uint256",
          "name": "",
          "type": "uint256"
        }
      ],
      "payable": false,
      "stateMutability": "view",
      "type": "function"
    },
    {
      "constant": true,
      "inputs": [],
      "name": "totalSupply",
      "outputs": [
        {
          "internalType": "uint256",
          "name": "",
          "type": "uint256"
        }
      ],
      "payable": false,
      "stateMutability": "view",
      "type": "function"
    },
    {
      "constant": false,
      "inputs": [
        {
          "internalType": "address",
          "name": "dst",
          "type": "address"
        },
        {
          "internalType": "uint256",
          "name": "amount",
          "type": "uint256"
        }
      ],
      "name": "transfer",
      "outputs": [
        {
          "internalType": "bool",
          "name": "",
          "type": "bool"
        }
      ],
      "payable": false,
      "stateMutability": "nonpayable",
      "type": "function"
    },
    {
      "constant": false,
      "inputs": [
        {
          "internalType": "address",
          "name": "src",
          "type": "address"
        },
        {
          "internalType": "address",
          "name": "dst",
          "type": "address"
        },
        {
          "internalType": "uint256",
          "name": "amount",
          "type": "uint256"
        }
      ],
      "name": "transferFrom",
      "outputs": [
        {
          "internalType": "bool",
          "name": "",
          "type": "bool"
        }
      ],
      "payable": false,
      "stateMutability": "nonpayable",
      "type": "function"
    },
    {
      "constant": true,
      "inputs": [],
      "name": "underlying",
      "outputs": [
        {
          "internalType": "address",
          "name": "",
          "type": "address"
        }
      ],
      "payable": false,
      "stateMutability": "view",
      "type": "function"
    },
    {
      "constant": false,
      "inputs": [
        {
          "internalType": "address",
          "name": "compLikeDelegatee",
          "type": "address"
        }
      ],
      "name": "_delegateCompLikeTo",
      "outputs": [],
      "payable": false,
      "stateMutability": "nonpayable",
      "type": "function"
    }
  ],
  "bytecode": "0x60806040523480156200001c576000806200001962000023565b50505b5062000090565b632a2a7adb598160e01b8152600481016020815285602082015260005b868110156200005d57808601518282016040015260200162000040565b506020828760640184336000905af158600e01573d6000803e3d6000fd5b3d6001141558600a015760016000f35b505050565b61703c80620000a06000396000f3fe608060405234801561001957600080610016616808565b50505b50600436106102705760003560e01c806306fdde031461027e578063095ea7b3146102fd5780630e75270214610346578063153ab5051461037e578063173b99041461038857806317bfdfbc1461039057806318160ddd146103bf578063182df0f5146103c75780631a31d465146103cf5780631be195601461056257806323b872dd146105915780632608f818146105d05780632678224714610605578063313ce567146106295780633af9e669146106475780633b1d21a2146106765780633e9410101461067e5780634576b5db146106a457806347bd3718146106d357806356e67728146106db5780635c60da1b146107a25780635fe3b567146107aa578063601a0bf1146107b25780636c540baf146107d85780636f307dc3146107e057806370a08231146107e857806373acee98146108175780637f1e06be1461081f578063852a12e31461084e5780638f840ddd1461087457806395d89b411461087c57806395dd91931461088457806399d8c1b4146108b3578063a0712d6814610a3e578063a6afed9514610a64578063a9059cbb14610a6c578063aa5af0fd14610aa1578063ae9d70b014610aa9578063b2a02ff114610ab1578063b71d1a0c14610af0578063bd6d894d14610b1f578063c37f68e214610b27578063c5ebeaec14610b81578063db006a7514610ba7578063dd62ed3e14610bcd578063e9c714f214610c04578063f2b3abbd14610c0c578063f3fdb15a14610c3b578063f5e3c46214610c43578063f851a44014610c82578063f8f9da2814610c8a578063fca7820b14610c92578063fe9c44ae14610cb8575b60008061027b616808565b50505b610286610cc0565b60405160208082528190810183818151815260200191508051906020019080838360005b838110156102c25780820151838201526020016102aa565b50505050905090810190601f1680156102ef5780820380516001836020036101000a031916815260200191505b509250505060405180910390f35b6103326004803603604081101561031c57600080610319616808565b50505b506001600160a01b038135169060200135610d79565b604051901515815260200160405180910390f35b61036c6004803603602081101561036557600080610362616808565b50505b5035610e1b565b60405190815260200160405180910390f35b610386610e31565b005b61036c610eaf565b61036c600480360360208110156103af576000806103ac616808565b50505b50356001600160a01b0316610ebc565b61036c610fd9565b61036c610fe3565b610386600480360360e08110156103ee576000806103eb616808565b50505b6001600160a01b03823581169260208101358216926040820135909216916060820135919081019060a081016080820135600160201b81111561043957600080610436616808565b50505b82018360208201111561045457600080610451616808565b50505b803590602001918460018302840111600160201b8311171561047e5760008061047b616808565b50505b91908080601f01602080910402602001604051908101604052818152929190602084018383808284376000920191909152509295949360208101935035915050600160201b8111156104d8576000806104d5616808565b50505b8201836020820111156104f3576000806104f0616808565b50505b803590602001918460018302840111600160201b8311171561051d5760008061051a616808565b50505b91908080601f01602080910402602001604051908101604052818152929190602084018383808284376000920191909152509295505050903560ff16915061104f9050565b610386600480360360208110156105815760008061057e616808565b50505b50356001600160a01b0316611150565b610332600480360360608110156105b0576000806105ad616808565b50505b506001600160a01b03813581169160208101359091169060400135611386565b61036c600480360360408110156105ef576000806105ec616808565b50505b506001600160a01b038135169060200135611455565b61060d61146b565b6040516001600160a01b03909116815260200160405180910390f35b61063161148a565b60405160ff909116815260200160405180910390f35b61036c6004803603602081101561066657600080610663616808565b50505b50356001600160a01b03166114a3565b61036c611564565b61036c6004803603602081101561069d5760008061069a616808565b50505b5035611573565b61036c600480360360208110156106c3576000806106c0616808565b50505b50356001600160a01b031661157e565b61036c611764565b610386600480360360208110156106fa576000806106f7616808565b50505b810190602081018135600160201b81111561071d5760008061071a616808565b50505b82018360208201111561073857600080610735616808565b50505b803590602001918460018302840111600160201b831117156107625760008061075f616808565b50505b91908080601f016020809104026020016040519081016040528181529291906020840183838082843760009201919091525092955061176e945050505050565b61060d6117ed565b61060d6117f9565b61036c600480360360208110156107d1576000806107ce616808565b50505b5035611805565b61036c6118d1565b61060d6118db565b61036c6004803603602081101561080757600080610804616808565b50505b50356001600160a01b03166118e7565b61036c611907565b6103866004803603602081101561083e5760008061083b616808565b50505b50356001600160a01b0316611a22565b61036c6004803603602081101561086d5760008061086a616808565b50505b5035611b4b565b61036c611b56565b610286611b60565b61036c600480360360208110156108a3576000806108a0616808565b50505b50356001600160a01b0316611c02565b610386600480360360c08110156108d2576000806108cf616808565b50505b6001600160a01b03823581169260208101359091169160408201359190810190608081016060820135600160201b81111561091557600080610912616808565b50505b8201836020820111156109305760008061092d616808565b50505b803590602001918460018302840111600160201b8311171561095a57600080610957616808565b50505b91908080601f01602080910402602001604051908101604052818152929190602084018383808284376000920191909152509295949360208101935035915050600160201b8111156109b4576000806109b1616808565b50505b8201836020820111156109cf576000806109cc616808565b50505b803590602001918460018302840111600160201b831117156109f9576000806109f6616808565b50505b91908080601f01602080910402602001604051908101604052818152929190602084018383808284376000920191909152509295505050903560ff169150611c6e9050565b61036c60048036036020811015610a5d57600080610a5a616808565b50505b5035611f12565b61036c611f1e565b61033260048036036040811015610a8b57600080610a88616808565b50505b506001600160a01b03813516906020013561232c565b61036c612402565b61036c61240c565b61036c60048036036060811015610ad057600080610acd616808565b50505b506001600160a01b0381358116916020810135909116906040013561250c565b61036c60048036036020811015610b0f57600080610b0c616808565b50505b50356001600160a01b03166125b2565b61036c61268d565b610b5660048036036020811015610b4657600080610b43616808565b50505b50356001600160a01b031661277b565b6040518085815260200184815260200183815260200182815260200194505050505060405180910390f35b61036c60048036036020811015610ba057600080610b9d616808565b50505b5035612819565b61036c60048036036020811015610bc657600080610bc3616808565b50505b5035612824565b61036c60048036036040811015610bec57600080610be9616808565b50505b506001600160a01b038135811691602001351661282f565b61036c612868565b61036c60048036036020811015610c2b57600080610c28616808565b50505b50356001600160a01b0316612a5c565b61060d612a96565b61036c60048036036060811015610c6257600080610c5f616808565b50505b506001600160a01b03813581169160208101359160409091013516612aa2565b61060d612aba565b61036c612ac6565b61036c60048036036020811015610cb157600080610cae616808565b50505b5035612b4c565b610332612bff565b600180610ccb616873565b600181600116156101000203166002900480601f016020809104026020016040519081016040528181529190602083018280610d05616873565b60018160011615610100020316600290048015610d715780601f10610d3f576101008083610d31616873565b040283529160200191610d71565b820191906000526020600020905b81610d56616873565b81529060010190602001808311610d4d57829003601f168201915b505050505081565b6000805a610d856168ce565b6001600160a01b0381166000908152600f6020529091508390604090206001600160a01b0386166000908152602091909152604090208190610dc5616914565b505050836001600160a01b0316816001600160a01b03167f8c5be1e5ebec7d5bd14f71427d1e84f3dd0314c0f7b2291e5b200ac8c7c3b9258560405190815260200160405180910390a360019150505b92915050565b600080610e2783612c04565b509150505b919050565b60016003610e3d616873565b906101000a90046001600160a01b03166001600160a01b03165a610e5f6168ce565b6001600160a01b031614610ead5760405162461bcd60e51b815260040180806020018281038252602d815260200180616ded602d913960400191505060405180910390610eaa616808565b50505b565b6008610eb9616873565b81565b60008080610ec8616873565b906101000a900460ff16610f185760405162461bcd60e51b815260206004820152600a6024820152691c994b595b9d195c995960b21b604482015260640160405180910390610f15616808565b50505b600080600181610f26616873565b8160ff02191690831515021790610f3b616914565b5060009150610f479050565b610f4f611f1e565b14610fa25760405162461bcd60e51b81526020600482015260166024820152751858d8dc9d59481a5b9d195c995cdd0819985a5b195960521b604482015260640160405180910390610f9f616808565b50505b610fab82611c02565b90505b600160008181610fbc616873565b8160ff02191690831515021790610fd1616914565b505050919050565b600d610eb9616873565b6000806000610ff0612d08565b9092509050600082600381111561100357fe5b146110485760405162461bcd60e51b8152600401808060200182810382526035815260200180616f5a6035913960400191505060405180910390611045616808565b50505b9150505b90565b61105d868686868686611c6e565b86601160018161106b616873565b816001600160a01b0302191690836001600160a01b031602179061108d616914565b505050601160009061109d616873565b906101000a90046001600160a01b03166001600160a01b03166318160ddd6040518163ffffffff1660e01b815260040160206040518083038186806110e0616962565b1580156110f5576000806110f2616808565b50505b505a6110ff6169ae565b505050505015801561111e573d6000803e3d600061111b616808565b50505b505050506040513d602081101561113d5760008061113a616808565b50505b8101908080515050505050505050505050565b6000601161115c616873565b906101000a90046001600160a01b03166001600160a01b0316816001600160a01b031614156111c55760405162461bcd60e51b8152600401808060200182810382526032815260200180616d3c60329139604001915050604051809103906111c2616808565b50505b6000816001600160a01b03166370a082315a63996d79a5598160e01b8152602081600483336000905af158600e01573d6000803e3d6000fd5b3d6001141558600a015760016000f35b8051925060005b604081101561122c57600082820152602001611215565b5050506040516001600160e01b031960e084901b1681526001600160a01b0390911660048201526024016020604051808303818680611269616962565b15801561127e5760008061127b616808565b50505b505a6112886169ae565b50505050501580156112a7573d6000803e3d60006112a4616808565b50505b505050506040513d60208110156112c6576000806112c3616808565b50505b810190808051935050506001600160a01b038316905063a9059cbb600160036112ed616873565b906101000a90046001600160a01b0316836040516001600160e01b031960e085901b1681526001600160a01b03909216600483015260248201526044016000604051808303816000878061133f616962565b15801561135457600080611351616808565b50505b505a61135e616a5e565b50505050505015801561137e573d6000803e3d600061137b616808565b50505b505050505050565b60008080611392616873565b906101000a900460ff166113e25760405162461bcd60e51b815260206004820152600a6024820152691c994b595b9d195c995960b21b6044820152606401604051809103906113df616808565b50505b6000806001816113f0616873565b8160ff02191690831515021790611405616914565b50600091506114119050565b6114255a61141d6168ce565b868686612dd3565b149050600160008181611436616873565b8160ff0219169083151502179061144b616914565b5050509392505050565b6000806114628484613170565b50949350505050565b60006004611477616873565b906101000a90046001600160a01b031681565b60006003611496616873565b906101000a900460ff1681565b60006114ad616b0e565b60405180602001604052806114c061268d565b90526001600160a01b0384166000908152600e602052909150806114ef83604083206114ea616873565b61326e565b9092509050600082600381111561150257fe5b1461155c5760405162461bcd60e51b815260206004820152601f60248201527f62616c616e636520636f756c64206e6f742062652063616c63756c6174656400604482015260640160405180910390611559616808565b50505b949350505050565b600061156e6132c2565b905090565b6000610e15826133f0565b60006001600361158c616873565b906101000a90046001600160a01b03166001600160a01b03165a6115ae6168ce565b6001600160a01b0316146115cf576115c86001603f6134b5565b9050610e2c565b60008060056115dc616873565b906101000a90046001600160a01b03169050826001600160a01b0316627e3dd26040518163ffffffff1660e01b81526004016020604051808303818680611621616962565b15801561163657600080611633616808565b50505b505a6116406169ae565b505050505015801561165f573d6000803e3d600061165c616808565b50505b505050506040513d602081101561167e5760008061167b616808565b50505b81019080805192506116e19150505760405162461bcd60e51b815260206004820152601c60248201527b6d61726b6572206d6574686f642072657475726e65642066616c736560201b6044820152606401604051809103906116de616808565b50505b8260056001816116ef616873565b816001600160a01b0302191690836001600160a01b0316021790611711616914565b5050507f7ac369dbd14fa5ea3f473ed67cc9d598964a77501540ba6751eb0b3decf5870d81846040516001600160a01b039283168152911660208201526040908101905180910390a160005b9392505050565b600b610eb9616873565b6001600361177a616873565b906101000a90046001600160a01b03166001600160a01b03165a61179c6168ce565b6001600160a01b0316146117ea5760405162461bcd60e51b815260040180806020018281038252602d81526020018061700f602d9139604001915050604051809103906117e7616808565b50505b50565b60006012611477616873565b60006005611477616873565b60008080611811616873565b906101000a900460ff166118615760405162461bcd60e51b815260206004820152600a6024820152691c994b595b9d195c995960b21b60448201526064016040518091039061185e616808565b50505b60008060018161186f616873565b8160ff02191690831515021790611884616914565b5050506000611891611f1e565b905080156118b7576118af8160108111156118a857fe5b60306134b5565b915050610fae565b6118c08361350f565b915050600160008181610fbc616873565b6009610eb9616873565b60006011611477616873565b6001600160a01b0381166000908152600e60205260408120610e15616873565b60008080611913616873565b906101000a900460ff166119635760405162461bcd60e51b815260206004820152600a6024820152691c994b595b9d195c995960b21b604482015260640160405180910390611960616808565b50505b600080600181611971616873565b8160ff02191690831515021790611986616914565b50600091506119929050565b61199a611f1e565b146119ed5760405162461bcd60e51b81526020600482015260166024820152751858d8dc9d59481a5b9d195c995cdd0819985a5b195960521b6044820152606401604051809103906119ea616808565b50505b600b6119f7616873565b9050600160008181611a07616873565b8160ff02191690831515021790611a1c616914565b50505090565b60016003611a2e616873565b906101000a90046001600160a01b03166001600160a01b03165a611a506168ce565b6001600160a01b031614611a9e5760405162461bcd60e51b815260040180806020018281038252602d815260200180616d9e602d913960400191505060405180910390611a9b616808565b50505b60006011611aaa616873565b906101000a90046001600160a01b03166001600160a01b0316635c19a95c826040516001600160e01b031960e084901b1681526001600160a01b03909116600482015260240160006040518083038160008780611b05616962565b158015611b1a57600080611b17616808565b50505b505a611b24616a5e565b505050505050158015611b44573d6000803e3d6000611b41616808565b50505b5050505050565b6000610e15826136c4565b600c610eb9616873565b600280611b6b616873565b600181600116156101000203166002900480601f016020809104026020016040519081016040528181529190602083018280611ba5616873565b60018160011615610100020316600290048015610d715780601f10611bd1576101008083610d31616873565b820191906000526020600020905b81611be8616873565b81529060010190602001808311611bdf5750859350505050565b6000806000611c1084613782565b90925090506000826003811115611c2357fe5b1461175d5760405162461bcd60e51b8152600401808060200182810382526037815260200180616e456037913960400191505060405180910390611c65616808565b50509392505050565b60016003611c7a616873565b906101000a90046001600160a01b03166001600160a01b03165a611c9c6168ce565b6001600160a01b031614611cea5760405162461bcd60e51b8152600401808060200182810382526024815260200180616cd56024913960400191505060405180910390611ce7616808565b50505b6009611cf4616873565b158015611d085750600a611d06616873565b155b611d4c5760405162461bcd60e51b8152600401808060200182810382526023815260200180616cf96023913960400191505060405180910390611d49616808565b50505b83806007611d58616914565b50505060006007611d67616873565b11611dac5760405162461bcd60e51b8152600401808060200182810382526030815260200180616d6e6030913960400191505060405180910390611da9616808565b50505b6000611db78761157e565b90508015611e115760405162461bcd60e51b815260206004820152601a6024820152791cd95d1d1a5b99c818dbdb5c1d1c9bdb1b195c8819985a5b195960321b604482015260640160405180910390611e0e616808565b50505b611e1961384e565b806009611e24616914565b505050670de0b6b3a7640000600a8190611e3c616914565b505050611e4886613859565b90508015611e905760405162461bcd60e51b8152600401808060200182810382526022815260200180616dcb6022913960400191505060405180910390611e8d616808565b50505b6001848051611ea3929160200190616b1f565b506002838051611eb7929160200190616b1f565b50816003600181611ec6616873565b8160ff021916908360ff16021790611edc616914565b50505060016000806101000a81611ef1616873565b8160ff02191690831515021790611f06616914565b50505050505050505050565b600080610e2783613a59565b600080611f2961384e565b905060006009611f37616873565b905081811415611f4c5760009250505061104c565b6000611f566132c2565b90506000600b611f64616873565b90506000600c611f72616873565b90506000600a611f80616873565b90506000806006611f8f616873565b906101000a90046001600160a01b03166001600160a01b03166315f240538686866040516001600160e01b031960e086901b1681526004810193909352602483019190915260448201526064016020604051808303818680611fef616962565b15801561200457600080612001616808565b50505b505a61200e6169ae565b505050505015801561202d573d6000803e3d600061202a616808565b50505b505050506040513d602081101561204c57600080612049616808565b50505b8101908080519350505065048c2739500082111590506120ba5760405162461bcd60e51b815260206004820152601c60248201527b0c4dee4e4deee40e4c2e8ca40d2e640c2c4e6eae4c8d8f240d0d2ced60231b6044820152606401604051809103906120b7616808565b50505b6000806120c78989613b16565b909250905060008260038111156120da57fe5b146121345760405162461bcd60e51b815260206004820152601f60248201527f636f756c64206e6f742063616c63756c61746520626c6f636b2064656c746100604482015260640160405180910390612131616808565b50505b61213c616b0e565b6000806000806121586040516020810160405289815287613b39565b9097509450600087600381111561216b57fe5b1461219d576121886009600689600381111561218357fe5b613b9f565b9e50505050505050505050505050505061104c565b6121a7858c61326e565b909750935060008760038111156121ba57fe5b146121d2576121886009600189600381111561218357fe5b6121dc848c613bf8565b909750925060008760038111156121ef57fe5b14612207576121886009600489600381111561218357fe5b6122286040518060200160405280600861221f616873565b9052858c613c1e565b9097509150600087600381111561223b57fe5b14612253576121886009600589600381111561218357fe5b61225e858a8b613c1e565b9097509050600087600381111561227157fe5b14612289576121886009600389600381111561218357fe5b8d806009612295616914565b50505080600a81906122a5616914565b50505082600b81906122b5616914565b50505081600c81906122c5616914565b5050507f4dec04e750ca11537cabcd8a9eab06494de08da3735bc8871cd41250e190bc048c8583866040518085815260200184815260200183815260200182815260200194505050505060405180910390a160009e50505050505050505050505050505090565b60008080612338616873565b906101000a900460ff166123885760405162461bcd60e51b815260206004820152600a6024820152691c994b595b9d195c995960b21b604482015260640160405180910390612385616808565b50505b600080600181612396616873565b8160ff021916908315150217906123ab616914565b50600091506123b79050565b6123d35a6123c36168ce565b5a6123cc6168ce565b8686612dd3565b1490506001600081816123e4616873565b8160ff021916908315150217906123f9616914565b50505092915050565b600a610eb9616873565b6000806006612419616873565b906101000a90046001600160a01b03166001600160a01b031663b816881661243f6132c2565b600b612449616873565b600c612453616873565b600861245d616873565b6040516001600160e01b031960e087901b168152600481019490945260248401929092526044830152606482015260840160206040518083038186806124a1616962565b1580156124b6576000806124b3616808565b50505b505a6124c06169ae565b50505050501580156124df573d6000803e3d60006124dc616808565b50505b505050506040513d60208110156124fe576000806124fb616808565b50505b810190808051935050505090565b60008080612518616873565b906101000a900460ff166125685760405162461bcd60e51b815260206004820152600a6024820152691c994b595b9d195c995960b21b604482015260640160405180910390612565616808565b50505b600080600181612576616873565b8160ff0219169083151502179061258b616914565b5050506125a25a61259a6168ce565b858585613c7a565b9050600160008181611436616873565b6000600160036125c0616873565b906101000a90046001600160a01b03166001600160a01b03165a6125e26168ce565b6001600160a01b0316146125fc576115c8600160456134b5565b6000806004612609616873565b906101000a90046001600160a01b0316905082600460006101000a8161262d616873565b816001600160a01b0302191690836001600160a01b031602179061264f616914565b505050600080516020616e7c83398151915281846040516001600160a01b039283168152911660208201526040908101905180910390a1600061175d565b60008080612699616873565b906101000a900460ff166126e95760405162461bcd60e51b815260206004820152600a6024820152691c994b595b9d195c995960b21b6044820152606401604051809103906126e6616808565b50505b6000806001816126f7616873565b8160ff0219169083151502179061270c616914565b50600091506127189050565b612720611f1e565b146127735760405162461bcd60e51b81526020600482015260166024820152751858d8dc9d59481a5b9d195c995cdd0819985a5b195960521b604482015260640160405180910390612770616808565b50505b6119f7610fe3565b6001600160a01b0381166000908152600e602052808080806040812061279f616873565b905060008060006127af89613782565b9350905060008160038111156127c157fe5b146127df5760095b9750600096508695508594506128129350505050565b6127e7612d08565b9250905060008160038111156127f957fe5b146128055760096127c9565b5060009650919450925090505b9193509193565b6000610e1582613f4b565b6000610e1582614007565b6001600160a01b0382166000908152600f602052604081206001600160a01b03831660009081526020919091526040902061175d616873565b6000806004612875616873565b906101000a90046001600160a01b03166001600160a01b03165a6128976168ce565b6001600160a01b03161415806128be575060005a6128b36168ce565b6001600160a01b0316145b156128d6576128cf600160006134b5565b905061104c565b6000600160036128e4616873565b906101000a90046001600160a01b0316905060006004600090612905616873565b906101000a90046001600160a01b031690506004600090612924616873565b906101000a90046001600160a01b0316600360016101000a81612945616873565b816001600160a01b0302191690836001600160a01b0316021790612967616914565b5050506000600460006101000a8161297d616873565b816001600160a01b0302191690836001600160a01b031602179061299f616914565b5050507ff9ffabca9c8276e99321725bcb43fb076a6c66a54b7f21c4e8146d8519b417dc8260036001906129d1616873565b906101000a90046001600160a01b03166040516001600160a01b039283168152911660208201526040908101905180910390a1600080516020616e7c8339815191528160006004612a20616873565b906101000a90046001600160a01b03166040516001600160a01b039283168152911660208201526040908101905180910390a160009250505090565b600080612a67611f1e565b90508015612a8d57612a85816010811115612a7e57fe5b60406134b5565b915050610e2c565b61175d83613859565b60006006611477616873565b600080612ab08585856140be565b5095945050505050565b60016003611477616873565b6000806006612ad3616873565b906101000a90046001600160a01b03166001600160a01b03166315f24053612af96132c2565b600b612b03616873565b600c612b0d616873565b6040516001600160e01b031960e086901b16815260048101939093526024830191909152604482015260640160206040518083038186806124a1616962565b60008080612b58616873565b906101000a900460ff16612ba85760405162461bcd60e51b815260206004820152600a6024820152691c994b595b9d195c995960b21b604482015260640160405180910390612ba5616808565b50505b600080600181612bb6616873565b8160ff02191690831515021790612bcb616914565b5050506000612bd8611f1e565b90508015612bf6576118af816010811115612bef57fe5b60466134b5565b6118c083614282565b600181565b6000808080612c11616873565b906101000a900460ff16612c615760405162461bcd60e51b815260206004820152600a6024820152691c994b595b9d195c995960b21b604482015260640160405180910390612c5e616808565b50505b600080600181612c6f616873565b8160ff02191690831515021790612c84616914565b5050506000612c91611f1e565b90508015612cbc57612caf816010811115612ca857fe5b60366134b5565b925060009150612cdd9050565b612cd75a612cc86168ce565b5a612cd16168ce565b86614369565b92509250505b600160008181612ceb616873565b8160ff02191690831515021790612d00616914565b505050915091565b6000806000600d612d17616873565b905080612d345760006007612d2a616873565b9250925050612dcf565b6000612d3e6132c2565b90506000612d4a616b0e565b6000612d6984600b612d5a616873565b600c612d64616873565b6147d7565b935090506000816003811115612d7b57fe5b14612d9057955060009450612dcf9350505050565b612d9a8386614815565b925090506000816003811115612dac57fe5b14612dc157955060009450612dcf9350505050565b600082519650965050505050505b9091565b600080806005612de1616873565b906101000a90046001600160a01b03166001600160a01b031663bdcdc2585a63996d79a5598160e01b8152602081600483336000905af158600e01573d6000803e3d6000fd5b3d6001141558600a015760016000f35b8051925060005b6040811015612e5557600082820152602001612e3e565b5050508787876040516001600160e01b031960e087901b1681526001600160a01b039485166004820152928416602484015292166044820152606481019190915260840160206040518083038160008780612eae616962565b158015612ec357600080612ec0616808565b50505b505a612ecd616a5e565b505050505050158015612eed573d6000803e3d6000612eea616808565b50505b505050506040513d6020811015612f0c57600080612f09616808565b50505b81019080805193505082159150612f34905057612f2c6003604a83613b9f565b91505061155c565b836001600160a01b0316856001600160a01b03161415612f5a57612f2c6002604b6134b5565b60006001600160a01b038781169087161415612f795750600019612fb5565b6001600160a01b0386166000908152600f602052604090206001600160a01b038816600090815260209190915260409020612fb2616873565b90505b600080600080612fc58589613b16565b90945092506000846003811115612fd857fe5b14612ff657612fe96009604b6134b5565b965050505050505061155c565b6001600160a01b038a166000908152600e602052613020906040902061301a616873565b89613b16565b9094509150600084600381111561303357fe5b1461304457612fe96009604c6134b5565b6001600160a01b0389166000908152600e60205261306e9060409020613068616873565b89613bf8565b9094509050600084600381111561308157fe5b1461309257612fe96009604d6134b5565b6001600160a01b038a166000908152600e60205282906040902081906130b6616914565b5050506001600160a01b0389166000908152600e60205281906040902081906130dd616914565b505050600019851461312a576001600160a01b038a166000908152600f6020528390604090206001600160a01b038d166000908152602091909152604090208190613126616914565b5050505b886001600160a01b03168a6001600160a01b0316600080516020616ed68339815191528a60405190815260200160405180910390a35060009a9950505050505050505050565b600080808061317d616873565b906101000a900460ff166131cd5760405162461bcd60e51b815260206004820152600a6024820152691c994b595b9d195c995960b21b6044820152606401604051809103906131ca616808565b50505b6000806001816131db616873565b8160ff021916908315150217906131f0616914565b50505060006131fd611f1e565b905080156132285761321b81601081111561321457fe5b60356134b5565b9250600091506132419050565b61323b5a6132346168ce565b8686614369565b92509250505b60016000818161324f616873565b8160ff02191690831515021790613264616914565b5050509250929050565b600080600061327b616b0e565b6132858686613b39565b9092509050600082600381111561329857fe5b146132a957509150600090506132bb565b60006132b4826148c7565b9350935050505b9250929050565b6000808060116132d0616873565b906101000a90046001600160a01b03169050806001600160a01b03166370a082315a63996d79a5598160e01b8152602081600483336000905af158600e01573d6000803e3d6000fd5b3d6001141558600a015760016000f35b8051925060005b604081101561334757600082820152602001613330565b5050506040516001600160e01b031960e084901b1681526001600160a01b0390911660048201526024016020604051808303818680613384616962565b15801561339957600080613396616808565b50505b505a6133a36169ae565b50505050501580156133c2573d6000803e3d60006133bf616808565b50505b505050506040513d60208110156133e1576000806133de616808565b50505b81019080805194505050505090565b600080806133fc616873565b906101000a900460ff1661344c5760405162461bcd60e51b815260206004820152600a6024820152691c994b595b9d195c995960b21b604482015260640160405180910390613449616808565b50505b60008060018161345a616873565b8160ff0219169083151502179061346f616914565b505050600061347c611f1e565b9050801561349a576118af81601081111561349357fe5b604e6134b5565b6134a3836148e2565b50915050600160008181610fbc616873565b6000600080516020616d1c8339815191528360108111156134d257fe5b8360508111156134de57fe5b600060405180848152602001838152602001828152602001935050505060405180910390a182601081111561175d57fe5b6000806001600361351e616873565b906101000a90046001600160a01b03166001600160a01b03165a6135406168ce565b6001600160a01b03161461355a57612a85600160316134b5565b61356261384e565b600961356c616873565b1461357d57612a85600a60336134b5565b826135866132c2565b101561359857612a85600e60326134b5565b600c6135a2616873565b8311156135b557612a85600260346134b5565b82600c6135c0616873565b039050600c6135cd616873565b8111156136145760405162461bcd60e51b8152600401808060200182810382526024815260200180616feb6024913960400191505060405180910390613611616808565b50505b8080600c613620616914565b5050506136496003600190613633616873565b906101000a90046001600160a01b031684614a1a565b7f3bad0c59cf2f06e7314077049f48a93578cd16f5ef92329f1dab1420a99c177e60016003613676616873565b906101000a90046001600160a01b0316848360405180846001600160a01b03166001600160a01b03168152602001838152602001828152602001935050505060405180910390a1600061175d565b600080806136d0616873565b906101000a900460ff166137205760405162461bcd60e51b815260206004820152600a6024820152691c994b595b9d195c995960b21b60448201526064016040518091039061371d616808565b50505b60008060018161372e616873565b8160ff02191690831515021790613743616914565b5050506000613750611f1e565b9050801561376e576118af81601081111561376757fe5b60276134b5565b6118c05a61377a6168ce565b600085614b63565b6001600160a01b038116600090815260106020528080808080604081209050806137aa616873565b6137bf57506000945084935061384992505050565b6137da816137cb616873565b600a6137d5616873565b615213565b909450925060008460038111156137ed57fe5b14613802575091935060009250613849915050565b6138178382600101613812616873565b615252565b9094509150600084600381111561382a57fe5b1461383f575091935060009250613849915050565b5060009450925050505b915091565b60005a61156e616bbf565b60008060016003613868616873565b906101000a90046001600160a01b03166001600160a01b03165a61388a6168ce565b6001600160a01b0316146138a457612a85600160426134b5565b6138ac61384e565b60096138b6616873565b146138c757612a85600a60416134b5565b600060066138d3616873565b906101000a90046001600160a01b03169050826001600160a01b0316632191f92a6040518163ffffffff1660e01b81526004016020604051808303818680613919616962565b15801561392e5760008061392b616808565b50505b505a6139386169ae565b5050505050158015613957573d6000803e3d6000613954616808565b50505b505050506040513d602081101561397657600080613973616808565b50505b81019080805192506139d99150505760405162461bcd60e51b815260206004820152601c60248201527b6d61726b6572206d6574686f642072657475726e65642066616c736560201b6044820152606401604051809103906139d6616808565b50505b8260066001816139e7616873565b816001600160a01b0302191690836001600160a01b0316021790613a09616914565b5050507fedffc32e068c7c95dfd4bdfd5c4d939a084d6b11c4199eac8436ed234d72f92681846040516001600160a01b039283168152911660208201526040908101905180910390a1600061175d565b6000808080613a66616873565b906101000a900460ff16613ab65760405162461bcd60e51b815260206004820152600a6024820152691c994b595b9d195c995960b21b604482015260640160405180910390613ab3616808565b50505b600080600181613ac4616873565b8160ff02191690831515021790613ad9616914565b5050506000613ae6611f1e565b90508015613b0457612caf816010811115613afd57fe5b601e6134b5565b612cd75a613b106168ce565b8561527d565b600080838311613b2d5750600090508183036132bb565b506003905060006132bb565b6000613b43616b0e565b600080613b51865186615213565b90925090506000826003811115613b6457fe5b14613b855781604051602081016040526000815290945092506132bb915050565b600060405160208101604052918252969095509350505050565b6000600080516020616d1c833981519152846010811115613bbc57fe5b846050811115613bc857fe5b8460405180848152602001838152602001828152602001935050505060405180910390a183601081111561155c57fe5b600080838301848110613c10576000925090506132bb565b5060029150600090506132bb565b6000806000613c2b616b0e565b613c358787613b39565b90925090506000826003811115613c4857fe5b14613c595750915060009050613c72565b613c6b613c65826148c7565b86613bf8565b9350935050505b935093915050565b600080806005613c88616873565b906101000a90046001600160a01b03166001600160a01b031663d02f73515a63996d79a5598160e01b8152602081600483336000905af158600e01573d6000803e3d6000fd5b3d6001141558600a015760016000f35b8051925060005b6040811015613cfc57600082820152602001613ce5565b505050888888886040516001600160e01b031960e088901b1681526001600160a01b039586166004820152938516602485015291841660448401529092166064820152608481019190915260a40160206040518083038160008780613d5f616962565b158015613d7457600080613d71616808565b50505b505a613d7e616a5e565b505050505050158015613d9e573d6000803e3d6000613d9b616808565b50505b505050506040513d6020811015613dbd57600080613dba616808565b50505b81019080805193505082159150613ddd905057612f2c6003601b83613b9f565b846001600160a01b0316846001600160a01b03161415613e0357612f2c6006601c6134b5565b6001600160a01b0384166000908152600e6020528080613e2e60408220613e28616873565b87613b16565b90935091506000836003811115613e4157fe5b14613e6457613e596009601a85600381111561218357fe5b94505050505061155c565b6001600160a01b0388166000908152600e602052613e8e9060409020613e88616873565b87613bf8565b90935090506000836003811115613ea157fe5b14613eb957613e596009601985600381111561218357fe5b6001600160a01b0387166000908152600e6020528290604090208190613edd616914565b5050506001600160a01b0388166000908152600e6020528190604090208190613f04616914565b505050876001600160a01b0316876001600160a01b0316600080516020616ed68339815191528860405190815260200160405180910390a360009998505050505050505050565b60008080613f57616873565b906101000a900460ff16613fa75760405162461bcd60e51b815260206004820152600a6024820152691c994b595b9d195c995960b21b604482015260640160405180910390613fa4616808565b50505b600080600181613fb5616873565b8160ff02191690831515021790613fca616914565b5050506000613fd7611f1e565b90508015613ff5576118af816010811115613fee57fe5b60086134b5565b6118c05a6140016168ce565b846157ad565b60008080614013616873565b906101000a900460ff166140635760405162461bcd60e51b815260206004820152600a6024820152691c994b595b9d195c995960b21b604482015260640160405180910390614060616808565b50505b600080600181614071616873565b8160ff02191690831515021790614086616914565b5050506000614093611f1e565b905080156140aa576118af81601081111561376757fe5b6118c05a6140b66168ce565b846000614b63565b60008080806140cb616873565b906101000a900460ff1661411b5760405162461bcd60e51b815260206004820152600a6024820152691c994b595b9d195c995960b21b604482015260640160405180910390614118616808565b50505b600080600181614129616873565b8160ff0219169083151502179061413e616914565b505050600061414b611f1e565b905080156141765761416981601081111561416257fe5b600f6134b5565b9250600091506142549050565b836001600160a01b031663a6afed956040518163ffffffff1660e01b8152600401602060405180830381600087806141ac616962565b1580156141c1576000806141be616808565b50505b505a6141cb616a5e565b5050505050501580156141eb573d6000803e3d60006141e8616808565b50505b505050506040513d602081101561420a57600080614207616808565b50505b81019080805193506000925061421e915050565b811461423a5761416981601081111561423357fe5b60106134b5565b61424e5a6142466168ce565b878787615b50565b92509250505b600160008181614262616873565b8160ff02191690831515021790614277616914565b505050935093915050565b600060016003614290616873565b906101000a90046001600160a01b03166001600160a01b03165a6142b26168ce565b6001600160a01b0316146142cc576115c8600160476134b5565b6142d461384e565b60096142de616873565b146142ef576115c8600a60486134b5565b670de0b6b3a764000082111561430b576115c8600260496134b5565b60006008614317616873565b905082806008614325616914565b5050507faaa68312e2ea9d50e16af5068410ab56e1a1fd06037b1a35664812c30f821460818460405191825260208201526040908101905180910390a1600061175d565b60008080806005614378616873565b906101000a90046001600160a01b03166001600160a01b03166324008a625a63996d79a5598160e01b8152602081600483336000905af158600e01573d6000803e3d6000fd5b3d6001141558600a015760016000f35b8051925060005b60408110156143ec576000828201526020016143d5565b5050508888886040516001600160e01b031960e087901b1681526001600160a01b039485166004820152928416602484015292166044820152606481019190915260840160206040518083038160008780614445616962565b15801561445a57600080614457616808565b50505b505a614464616a5e565b505050505050158015614484573d6000803e3d6000614481616808565b50505b505050506040513d60208110156144a3576000806144a0616808565b50505b810190808051935050821591506144d09050576144c36003603883613b9f565b925060009150613c729050565b6144d861384e565b60096144e2616873565b146144f3576144c3600a60396134b5565b6144fb616c05565b6001600160a01b038616600090815260106020526040902060010161451e616873565b606082015261452c86613782565b608083018190526020830182600381111561454357fe5b600381111561454e57fe5b905250600090508160200151600381111561456557fe5b1461458f57614581600960378360200151600381111561218357fe5b935060009250613c72915050565b6000198514156145a857806080015160408201526145b0565b604081018590525b6145be878260400151616337565b60e08201526145d560808201518260e00151613b16565b60a08301819052602083018260038111156145ec57fe5b60038111156145f757fe5b905250600090508160200151600381111561460e57fe5b146146535760405162461bcd60e51b815260040180806020018281038252603a815260200180616e9c603a913960400191505060405180910390614650616808565b50505b61466a600b614660616873565b8260e00151613b16565b60c083018190526020830182600381111561468157fe5b600381111561468c57fe5b90525060009050816020015160038111156146a357fe5b146146e85760405162461bcd60e51b8152600401808060200182810382526031815260200180616ef660319139604001915050604051809103906146e5616808565b50505b8060a001516001600160a01b0387166000908152601060205260409020819061470f616914565b505050600a61471c616873565b6001600160a01b03871660009081526010602052604090206001018190614741616914565b5050508060c0015180600b614754616914565b5050507f1a2a22cb034d26d1854bdc6666a5b91fe25efbbb5dcad3b0355478d6f5c362a187878360e001518460a001518560c001516040516001600160a01b0395861681529390941660208401526040808401929092526060830152608082019290925260a001905180910390a160008160e00151935093505050935093915050565b6000806000806147e78787613bf8565b909250905060008260038111156147fa57fe5b1461480b5750915060009050613c72565b613c6b8186613b16565b600061481f616b0e565b60008061483486670de0b6b3a7640000615213565b9092509050600082600381111561484757fe5b146148685781604051602081016040526000815290945092506132bb915050565b6000806148758388615252565b9092509050600082600381111561488857fe5b146148ab5781604051602081016040526000815290965094506132bb9350505050565b6000604051602081016040529182529890975095505050505050565b6000670de0b6b3a76400008251816148db57fe5b0492915050565b6000806000806148f061384e565b60096148fa616873565b146149165761490b600a604f6134b5565b935091506138499050565b6149285a6149226168ce565b86616337565b905080600c614935616873565b019150600c614942616873565b82101561499e5760405162461bcd60e51b815260206004820181905260248201527f61646420726573657276657320756e6578706563746564206f766572666c6f7760448201526064016040518091039061499b616808565b50505b8180600c6149aa616914565b5050507fa91e67c5ea634cd43a12c5a482724b03de01e85ca68702a53d0c2f45cb7c1dc55a6149d76168ce565b828460405180846001600160a01b03166001600160a01b03168152602001838152602001828152602001935050505060405180910390a160009350915050915091565b6000806011614a27616873565b906101000a90046001600160a01b03169050806001600160a01b031663a9059cbb84846040516001600160e01b031960e085901b1681526001600160a01b039092166004830152602482015260440160006040518083038160008780614a8b616962565b158015614aa057600080614a9d616808565b50505b505a614aaa616a5e565b505050505050158015614aca573d6000803e3d6000614ac7616808565b50505b5050505060003d60008114614af35760208114614afd57600080614aec616808565b5050614b09565b6000199150614b09565b60206000803e60005191505b5080614b5d5760405162461bcd60e51b81526020600482015260196024820152781513d2d15397d514905394d1915497d3d55517d19052531151603a1b60448201526064016040518091039061137e616808565b50505050565b6000821580614b70575081155b614bb45760405162461bcd60e51b8152600401808060200182810382526034815260200180616fb76034913960400191505060405180910390614bb1616808565b50505b614bbc616c4a565b614bc4612d08565b6040830181905260208301826003811115614bdb57fe5b6003811115614be657fe5b9052506000905081602001516003811115614bfd57fe5b14614c2157614c196009602b8360200151600381111561218357fe5b91505061175d565b8315614ca35760608101849052614c496040518060200160405280836040015190528561326e565b6080830181905260208301826003811115614c6057fe5b6003811115614c6b57fe5b9052506000905081602001516003811115614c8257fe5b14614c9e57614c19600960298360200151600381111561218357fe5b614d1b565b614cbe83604051806020016040528084604001519052616798565b6060830181905260208301826003811115614cd557fe5b6003811115614ce057fe5b9052506000905081602001516003811115614cf757fe5b14614d1357614c196009602a8360200151600381111561218357fe5b608081018390525b6000806005614d28616873565b906101000a90046001600160a01b03166001600160a01b031663eabe7d915a63996d79a5598160e01b8152602081600483336000905af158600e01573d6000803e3d6000fd5b3d6001141558600a015760016000f35b8051925060005b6040811015614d9c57600082820152602001614d85565b5050508885606001516040516001600160e01b031960e086901b1681526001600160a01b039384166004820152919092166024820152604481019190915260640160206040518083038160008780614df2616962565b158015614e0757600080614e04616808565b50505b505a614e11616a5e565b505050505050158015614e31573d6000803e3d6000614e2e616808565b50505b505050506040513d6020811015614e5057600080614e4d616808565b50505b81019080805193505082159150614e79905057614e706003602883613b9f565b9250505061175d565b614e8161384e565b6009614e8b616873565b14614e9c57614e70600a602c6134b5565b614eb3600d614ea9616873565b8360600151613b16565b60a0840181905260208401826003811115614eca57fe5b6003811115614ed557fe5b9052506000905082602001516003811115614eec57fe5b14614f0857614e706009602e8460200151600381111561218357fe5b6001600160a01b0386166000908152600e602052614f2c9060409020614ea9616873565b60c0840181905260208401826003811115614f4357fe5b6003811115614f4e57fe5b9052506000905082602001516003811115614f6557fe5b14614f8157614e706009602d8460200151600381111561218357fe5b8160800151614f8e6132c2565b1015614fa057614e70600e602f6134b5565b614fae868360800151614a1a565b8160a0015180600d614fbe616914565b5050508160c001516001600160a01b0387166000908152600e602052604090208190614fe8616914565b5050505a63996d79a5598160e01b8152602081600483336000905af158600e01573d6000803e3d6000fd5b3d6001141558600a015760016000f35b8051925060005b60408110156150415760008282015260200161502a565b5050506001600160a01b0316866001600160a01b0316600080516020616ed6833981519152846060015160405190815260200160405180910390a37fe5b754fb1abb7f01b499791d0b820ae3b6af3424ac1c59768edb53f4ec31a929868360800151846060015160405180846001600160a01b03166001600160a01b03168152602001838152602001828152602001935050505060405180910390a1600060056150e9616873565b906101000a90046001600160a01b03166001600160a01b03166351dff9895a63996d79a5598160e01b8152602081600483336000905af158600e01573d6000803e3d6000fd5b3d6001141558600a015760016000f35b8051925060005b604081101561515d57600082820152602001615146565b50505088856080015186606001516040516001600160e01b031960e087901b1681526001600160a01b03948516600482015292909316602483015260448201526064810191909152608401600060405180830381600087806151bd616962565b1580156151d2576000806151cf616808565b50505b505a6151dc616a5e565b5050505050501580156151fc573d6000803e3d60006151f9616808565b50505b5060009250615209915050565b9695505050505050565b60008083615226575060009050806132bb565b8383028385828161523357fe5b0414615247575060029150600090506132bb565b6000925090506132bb565b6000808261526657506001905060006132bb565b600083858161527157fe5b04915091509250929050565b6000808080600561528c616873565b906101000a90046001600160a01b03166001600160a01b0316634ef4c3e15a63996d79a5598160e01b8152602081600483336000905af158600e01573d6000803e3d6000fd5b3d6001141558600a015760016000f35b8051925060005b6040811015615300576000828201526020016152e9565b50505087876040516001600160e01b031960e086901b1681526001600160a01b039384166004820152919092166024820152604481019190915260640160206040518083038160008780615352616962565b15801561536757600080615364616808565b50505b505a615371616a5e565b505050505050158015615391573d6000803e3d600061538e616808565b50505b505050506040513d60208110156153b0576000806153ad616808565b50505b810190808051935050821591506153dd9050576153d06003601f83613b9f565b9250600091506132bb9050565b6153e561384e565b60096153ef616873565b14615400576153d0600a60226134b5565b615408616c4a565b615410612d08565b604083018190526020830182600381111561542757fe5b600381111561543257fe5b905250600090508160200151600381111561544957fe5b1461547357615465600960218360200151600381111561218357fe5b9350600092506132bb915050565b61547d8686616337565b60c082019081526154a09051604051806020016040528084604001519052616798565b60608301819052602083018260038111156154b757fe5b60038111156154c257fe5b90525060009050816020015160038111156154d957fe5b146155335760405162461bcd60e51b815260206004820181905260248201527f4d494e545f45584348414e47455f43414c43554c4154494f4e5f4641494c4544604482015260640160405180910390615530616808565b50505b61554a600d615540616873565b8260600151613bf8565b608083018190526020830182600381111561556157fe5b600381111561556c57fe5b905250600090508160200151600381111561558357fe5b146155c85760405162461bcd60e51b8152600401808060200182810382526028815260200180616f8f60289139604001915050604051809103906155c5616808565b50505b6001600160a01b0386166000908152600e6020526155ec9060409020615540616873565b60a083018190526020830182600381111561560357fe5b600381111561560e57fe5b905250600090508160200151600381111561562557fe5b1461566a5760405162461bcd60e51b815260040180806020018281038252602b815260200180616e1a602b913960400191505060405180910390615667616808565b50505b806080015180600d61567a616914565b5050508060a001516001600160a01b0387166000908152600e6020526040902081906156a4616914565b5050507f4c209b5fc8ad50758f13e2e1088ba56a560dff690a1c6fef26394f4c03821c4f868260c00151836060015160405180846001600160a01b03166001600160a01b03168152602001838152602001828152602001935050505060405180910390a1856001600160a01b03165a63996d79a5598160e01b8152602081600483336000905af158600e01573d6000803e3d6000fd5b3d6001141558600a015760016000f35b8051925060005b604081101561576857600082820152602001615751565b5050506001600160a01b0316600080516020616ed6833981519152836060015160405190815260200160405180910390a360008160c001519350935050509250929050565b6000808060056157bb616873565b906101000a90046001600160a01b03166001600160a01b031663da3d454c5a63996d79a5598160e01b8152602081600483336000905af158600e01573d6000803e3d6000fd5b3d6001141558600a015760016000f35b8051925060005b604081101561582f57600082820152602001615818565b50505086866040516001600160e01b031960e086901b1681526001600160a01b039384166004820152919092166024820152604481019190915260640160206040518083038160008780615881616962565b15801561589657600080615893616808565b50505b505a6158a0616a5e565b5050505050501580156158c0573d6000803e3d60006158bd616808565b50505b505050506040513d60208110156158df576000806158dc616808565b50505b810190808051935050821591506159079050576158ff6003600e83613b9f565b915050610e15565b61590f61384e565b6009615919616873565b14615929576158ff600a806134b5565b826159326132c2565b1015615944576158ff600e60096134b5565b61594c616c87565b61595585613782565b602083018190528282600381111561596957fe5b600381111561597457fe5b905250600090508151600381111561598857fe5b146159aa576159a1600960078351600381111561218357fe5b92505050610e15565b6159b8816020015185613bf8565b60408301819052828260038111156159cc57fe5b60038111156159d757fe5b90525060009050815160038111156159eb57fe5b14615a04576159a16009600c8351600381111561218357fe5b615a17600b615a11616873565b85613bf8565b6060830181905282826003811115615a2b57fe5b6003811115615a3657fe5b9052506000905081516003811115615a4a57fe5b14615a63576159a16009600b8351600381111561218357fe5b615a6d8585614a1a565b80604001516001600160a01b03861660009081526010602052604090208190615a94616914565b505050600a615aa1616873565b6001600160a01b03861660009081526010602052604090206001018190615ac6616914565b505050806060015180600b615ad9616914565b5050507f13ed6866d4e1ee6da46f845c46d7e54120883d75c5ea9a2dacc1c4ca8984ab8085858360400151846060015160405180856001600160a01b03166001600160a01b0316815260200184815260200183815260200182815260200194505050505060405180910390a1600095945050505050565b60008080806005615b5f616873565b906101000a90046001600160a01b03166001600160a01b0316635fc7e71e5a63996d79a5598160e01b8152602081600483336000905af158600e01573d6000803e3d6000fd5b3d6001141558600a015760016000f35b8051925060005b6040811015615bd357600082820152602001615bbc565b505050868a8a8a6040516001600160e01b031960e088901b1681526001600160a01b039586166004820152938516602485015291841660448401529092166064820152608481019190915260a40160206040518083038160008780615c36616962565b158015615c4b57600080615c48616808565b50505b505a615c55616a5e565b505050505050158015615c75573d6000803e3d6000615c72616808565b50505b505050506040513d6020811015615c9457600080615c91616808565b50505b81019080805193505082159150615cc1905057615cb46003601283613b9f565b92506000915061632e9050565b615cc961384e565b6009615cd3616873565b14615ce457615cb4600a60166134b5565b615cec61384e565b846001600160a01b0316636c540baf6040518163ffffffff1660e01b81526004016020604051808303818680615d20616962565b158015615d3557600080615d32616808565b50505b505a615d3f6169ae565b5050505050158015615d5e573d6000803e3d6000615d5b616808565b50505b505050506040513d6020811015615d7d57600080615d7a616808565b50505b810190808051939093149250615d9c91505057615cb4600a60116134b5565b866001600160a01b0316866001600160a01b03161415615dc257615cb4600660176134b5565b84615dd357615cb4600760156134b5565b600019851415615de957615cb4600760146134b5565b600080615df7898989614369565b90925090508115615e2757615e18826010811115615e1157fe5b60186134b5565b94506000935061632e92505050565b600080806005615e35616873565b906101000a90046001600160a01b03166001600160a01b031663c488847b5a63996d79a5598160e01b8152602081600483336000905af158600e01573d6000803e3d6000fd5b3d6001141558600a015760016000f35b8051925060005b6040811015615ea957600082820152602001615e92565b5050508a866040516001600160e01b031960e086901b1681526001600160a01b039384166004820152919092166024820152604481019190915260640160408051808303818680615ef8616962565b158015615f0d57600080615f0a616808565b50505b505a615f176169ae565b5050505050158015615f36573d6000803e3d6000615f33616808565b50505b505050506040513d6040811015615f5557600080615f52616808565b50505b810190808051929190602001805193955092935060009250615f75915050565b8214615fbb5760405162461bcd60e51b8152600401808060200182810382526033815260200180616f276033913960400191505060405180910390615fb8616808565b50505b80886001600160a01b03166370a082318c6040516001600160e01b031960e084901b1681526001600160a01b0390911660048201526024016020604051808303818680616006616962565b15801561601b57600080616018616808565b50505b505a6160256169ae565b5050505050158015616044573d6000803e3d6000616041616808565b50505b505050506040513d602081101561606357600080616060616808565b50505b810190808051939093101592506160c79150505760405162461bcd60e51b815260206004820152601860248201527709892a2aa928882a88abea68a92b48abea89e9ebe9aaa86960431b6044820152606401604051809103906160c4616808565b50505b60005a63996d79a5598160e01b8152602081600483336000905af158600e01573d6000803e3d6000fd5b3d6001141558600a015760016000f35b8051925060005b604081101561611f57600082820152602001616108565b5050506001600160a01b0316896001600160a01b031614156161a65761619f5a63996d79a5598160e01b8152602081600483336000905af158600e01573d6000803e3d6000fd5b3d6001141558600a015760016000f35b8051925060005b60408110156161945760008282015260200161617d565b5050508d8d85613c7a565b905061626f565b886001600160a01b031663b2a02ff18d8d856040516001600160e01b031960e086901b1681526001600160a01b039384166004820152919092166024820152604481019190915260640160206040518083038160008780616205616962565b15801561621a57600080616217616808565b50505b505a616224616a5e565b505050505050158015616244573d6000803e3d6000616241616808565b50505b505050506040513d602081101561626357600080616260616808565b50505b81019080805193505050505b80156162c15760405162461bcd60e51b81526020600482015260146024820152731d1bdad95b881cd95a5e9d5c994819985a5b195960621b6044820152606401604051809103906162be616808565b50505b7f298637f684da70674f26509b10f07ec2fbc77a335ab1e7d6215a4b2484d8bb528c8c868c866040516001600160a01b039586168152938516602085015260408085019390935293166060830152608082019290925260a001905180910390a16000975092955050505050505b94509492505050565b600080806011616345616873565b906101000a90046001600160a01b0316905060006011600090616366616873565b906101000a90046001600160a01b03166001600160a01b03166370a082315a63996d79a5598160e01b8152602081600483336000905af158600e01573d6000803e3d6000fd5b3d6001141558600a015760016000f35b8051925060005b60408110156163da576000828201526020016163c3565b5050506040516001600160e01b031960e084901b1681526001600160a01b0390911660048201526024016020604051808303818680616417616962565b15801561642c57600080616429616808565b50505b505a6164366169ae565b5050505050158015616455573d6000803e3d6000616452616808565b50505b505050506040513d602081101561647457600080616471616808565b50505b810190808051935050506001600160a01b03831690506323b872dd865a63996d79a5598160e01b8152602081600483336000905af158600e01573d6000803e3d6000fd5b3d6001141558600a015760016000f35b8051925060005b60408110156164e6576000828201526020016164cf565b505050876040516001600160e01b031960e086901b1681526001600160a01b039384166004820152919092166024820152604481019190915260640160006040518083038160008780616537616962565b15801561654c57600080616549616808565b50505b505a616556616a5e565b505050505050158015616576573d6000803e3d6000616573616808565b50505b5050505060003d6000811461659f57602081146165a957600080616598616808565b50506165b5565b60001991506165b5565b60206000803e60005191505b508061660b5760405162461bcd60e51b81526020600482015260186024820152771513d2d15397d514905394d1915497d25397d1905253115160421b604482015260640160405180910390616608616808565b50505b6000806011616618616873565b906101000a90046001600160a01b03166001600160a01b03166370a082315a63996d79a5598160e01b8152602081600483336000905af158600e01573d6000803e3d6000fd5b3d6001141558600a015760016000f35b8051925060005b604081101561668c57600082820152602001616675565b5050506040516001600160e01b031960e084901b1681526001600160a01b03909116600482015260240160206040518083038186806166c9616962565b1580156166de576000806166db616808565b50505b505a6166e86169ae565b5050505050158015616707573d6000803e3d6000616704616808565b50505b505050506040513d602081101561672657600080616723616808565b50505b81019080805193505050508281101561678b5760405162461bcd60e51b815260206004820152601a602482015279544f4b454e5f5452414e534645525f494e5f4f564552464c4f5760301b604482015260640160405180910390616788616808565b50505b9190910395945050505050565b60008060006167a5616b0e565b613285868660006167b4616b0e565b6000806167c9670de0b6b3a764000087615213565b909250905060008260038111156167dc57fe5b146167fd5781604051602081016040526000815290945092506132bb915050565b6132b4818651614815565b632a2a7adb598160e01b8152600481016020815285602082015260005b86811015616840578086015182820160400152602001616825565b506020828760640184336000905af158600e01573d6000803e3d6000fd5b3d6001141558600a015760016000f35b505050565b6303daa959598160e01b8152836004820152602081602483336000905af158600e01573d6000803e3d6000fd5b3d6001141558600a015760016000f35b8051935060005b60408110156117e7576000828201526020016168b7565b6373509064598160e01b8152602081600483336000905af158600e01573d6000803e3d6000fd5b3d6001141558600a015760016000f35b805160008252935060206168b7565b6322bd64c0598160e01b8152836004820152846024820152600081604483336000905af158600e01573d6000803e3d6000fd5b3d6001141558600a015760016000f35b6000815260206168b7565b638435035b598160e01b8152836004820152602081602483336000905af158600e01573d6000803e3d6000fd5b3d6001141558600a015760016000f35b805160008252935060206168b7565b638540661f598160e01b8152836004820152846024820152606060448201528660648201526084810160005b888110156169f25780880151828201526020016169da565b506060828960a40184336000905af158600e01573d6000803e3d6000fd5b3d6001141558600a015760016000f35b815160408301513d6000853e8b8b82606087013350600060045af15059845b81811015616a535760008152602001616a3f565b50919b505050505050565b6385979f76598160e01b8152836004820152846024820152606060448201528760648201526084810160005b89811015616aa2578089015182820152602001616a8a565b506060828a60a40184336000905af158600e01573d6000803e3d6000fd5b3d6001141558600a015760016000f35b815160408301513d6000853e8c8c82606087013350600060045af15059845b81811015616b035760008152602001616aef565b50919c505050505050565b604051602081016040526000815290565b8280616b29616873565b600181600116156101000203166002900490600052602060002090601f016020900481019282601f10616b7057805160ff19168380011785616b69616914565b5050616baf565b82800160010185616b7f616914565b50508215616baf579182015b82811115616baf57825182616b9e616914565b505091602001919060010190616b8b565b50616bbb929150616caf565b5090565b635a98c361598160e01b8152602081600483336000905af158600e01573d6000803e3d6000fd5b3d6001141558600a015760016000f35b805160008252935060206168b7565b60405161010081016040528060008152602001600081526020016000815260200160008152602001600081526020016000815260200160008152602001600081525090565b60405160e0810160405280600081526020016000815260200160008152602001600081526020016000815260200160008152602001600081525090565b6040516080810160405280600081526020016000815260200160008152602001600081525090565b61104c91905b80821115616bbb5760008082616cc9616914565b505050600101616cb556fe6f6e6c792061646d696e206d617920696e697469616c697a6520746865206d61726b65746d61726b6574206d6179206f6e6c7920626520696e697469616c697a6564206f6e636545b96fe442630264581b197e84bbada861235052c5a1aadfff9ea4e40a969aa04345726332303a3a7377656570546f6b656e3a2063616e206e6f7420737765657020756e6465726c79696e6720746f6b656e696e697469616c2065786368616e67652072617465206d7573742062652067726561746572207468616e207a65726f2e6f6e6c79207468652061646d696e206d6179207365742074686520636f6d702d6c696b652064656c656761746573657474696e6720696e7465726573742072617465206d6f64656c206661696c65646f6e6c79207468652061646d696e206d61792063616c6c205f72657369676e496d706c656d656e746174696f6e4d494e545f4e45575f4143434f554e545f42414c414e43455f43414c43554c4154494f4e5f4641494c4544626f72726f7742616c616e636553746f7265643a20626f72726f7742616c616e636553746f726564496e7465726e616c206661696c6564ca4f2f25d0898edd99413412fb94012f9e54ec8142f9b093e7720646a95b16a952455041595f424f52524f575f4e45575f4143434f554e545f424f52524f575f42414c414e43455f43414c43554c4154494f4e5f4641494c4544ddf252ad1be2c89b69c2b068fc378daa952ba7f163c4a11628f55a4df523b3ef52455041595f424f52524f575f4e45575f544f54414c5f42414c414e43455f43414c43554c4154494f4e5f4641494c45444c49515549444154455f434f4d5054524f4c4c45525f43414c43554c4154455f414d4f554e545f5345495a455f4641494c454465786368616e67655261746553746f7265643a2065786368616e67655261746553746f726564496e7465726e616c206661696c65644d494e545f4e45575f544f54414c5f535550504c595f43414c43554c4154494f4e5f4641494c45446f6e65206f662072656465656d546f6b656e73496e206f722072656465656d416d6f756e74496e206d757374206265207a65726f72656475636520726573657276657320756e657870656374656420756e646572666c6f776f6e6c79207468652061646d696e206d61792063616c6c205f6265636f6d65496d706c656d656e746174696f6e",
  "deployedBytecode": "0x608060405234801561001957600080610016616808565b50505b50600436106102705760003560e01c806306fdde031461027e578063095ea7b3146102fd5780630e75270214610346578063153ab5051461037e578063173b99041461038857806317bfdfbc1461039057806318160ddd146103bf578063182df0f5146103c75780631a31d465146103cf5780631be195601461056257806323b872dd146105915780632608f818146105d05780632678224714610605578063313ce567146106295780633af9e669146106475780633b1d21a2146106765780633e9410101461067e5780634576b5db146106a457806347bd3718146106d357806356e67728146106db5780635c60da1b146107a25780635fe3b567146107aa578063601a0bf1146107b25780636c540baf146107d85780636f307dc3146107e057806370a08231146107e857806373acee98146108175780637f1e06be1461081f578063852a12e31461084e5780638f840ddd1461087457806395d89b411461087c57806395dd91931461088457806399d8c1b4146108b3578063a0712d6814610a3e578063a6afed9514610a64578063a9059cbb14610a6c578063aa5af0fd14610aa1578063ae9d70b014610aa9578063b2a02ff114610ab1578063b71d1a0c14610af0578063bd6d894d14610b1f578063c37f68e214610b27578063c5ebeaec14610b81578063db006a7514610ba7578063dd62ed3e14610bcd578063e9c714f214610c04578063f2b3abbd14610c0c578063f3fdb15a14610c3b578063f5e3c46214610c43578063f851a44014610c82578063f8f9da2814610c8a578063fca7820b14610c92578063fe9c44ae14610cb8575b60008061027b616808565b50505b610286610cc0565b60405160208082528190810183818151815260200191508051906020019080838360005b838110156102c25780820151838201526020016102aa565b50505050905090810190601f1680156102ef5780820380516001836020036101000a031916815260200191505b509250505060405180910390f35b6103326004803603604081101561031c57600080610319616808565b50505b506001600160a01b038135169060200135610d79565b604051901515815260200160405180910390f35b61036c6004803603602081101561036557600080610362616808565b50505b5035610e1b565b60405190815260200160405180910390f35b610386610e31565b005b61036c610eaf565b61036c600480360360208110156103af576000806103ac616808565b50505b50356001600160a01b0316610ebc565b61036c610fd9565b61036c610fe3565b610386600480360360e08110156103ee576000806103eb616808565b50505b6001600160a01b03823581169260208101358216926040820135909216916060820135919081019060a081016080820135600160201b81111561043957600080610436616808565b50505b82018360208201111561045457600080610451616808565b50505b803590602001918460018302840111600160201b8311171561047e5760008061047b616808565b50505b91908080601f01602080910402602001604051908101604052818152929190602084018383808284376000920191909152509295949360208101935035915050600160201b8111156104d8576000806104d5616808565b50505b8201836020820111156104f3576000806104f0616808565b50505b803590602001918460018302840111600160201b8311171561051d5760008061051a616808565b50505b91908080601f01602080910402602001604051908101604052818152929190602084018383808284376000920191909152509295505050903560ff16915061104f9050565b610386600480360360208110156105815760008061057e616808565b50505b50356001600160a01b0316611150565b610332600480360360608110156105b0576000806105ad616808565b50505b506001600160a01b03813581169160208101359091169060400135611386565b61036c600480360360408110156105ef576000806105ec616808565b50505b506001600160a01b038135169060200135611455565b61060d61146b565b6040516001600160a01b03909116815260200160405180910390f35b61063161148a565b60405160ff909116815260200160405180910390f35b61036c6004803603602081101561066657600080610663616808565b50505b50356001600160a01b03166114a3565b61036c611564565b61036c6004803603602081101561069d5760008061069a616808565b50505b5035611573565b61036c600480360360208110156106c3576000806106c0616808565b50505b50356001600160a01b031661157e565b61036c611764565b610386600480360360208110156106fa576000806106f7616808565b50505b810190602081018135600160201b81111561071d5760008061071a616808565b50505b82018360208201111561073857600080610735616808565b50505b803590602001918460018302840111600160201b831117156107625760008061075f616808565b50505b91908080601f016020809104026020016040519081016040528181529291906020840183838082843760009201919091525092955061176e945050505050565b61060d6117ed565b61060d6117f9565b61036c600480360360208110156107d1576000806107ce616808565b50505b5035611805565b61036c6118d1565b61060d6118db565b61036c6004803603602081101561080757600080610804616808565b50505b50356001600160a01b03166118e7565b61036c611907565b6103866004803603602081101561083e5760008061083b616808565b50505b50356001600160a01b0316611a22565b61036c6004803603602081101561086d5760008061086a616808565b50505b5035611b4b565b61036c611b56565b610286611b60565b61036c600480360360208110156108a3576000806108a0616808565b50505b50356001600160a01b0316611c02565b610386600480360360c08110156108d2576000806108cf616808565b50505b6001600160a01b03823581169260208101359091169160408201359190810190608081016060820135600160201b81111561091557600080610912616808565b50505b8201836020820111156109305760008061092d616808565b50505b803590602001918460018302840111600160201b8311171561095a57600080610957616808565b50505b91908080601f01602080910402602001604051908101604052818152929190602084018383808284376000920191909152509295949360208101935035915050600160201b8111156109b4576000806109b1616808565b50505b8201836020820111156109cf576000806109cc616808565b50505b803590602001918460018302840111600160201b831117156109f9576000806109f6616808565b50505b91908080601f01602080910402602001604051908101604052818152929190602084018383808284376000920191909152509295505050903560ff169150611c6e9050565b61036c60048036036020811015610a5d57600080610a5a616808565b50505b5035611f12565b61036c611f1e565b61033260048036036040811015610a8b57600080610a88616808565b50505b506001600160a01b03813516906020013561232c565b61036c612402565b61036c61240c565b61036c60048036036060811015610ad057600080610acd616808565b50505b506001600160a01b0381358116916020810135909116906040013561250c565b61036c60048036036020811015610b0f57600080610b0c616808565b50505b50356001600160a01b03166125b2565b61036c61268d565b610b5660048036036020811015610b4657600080610b43616808565b50505b50356001600160a01b031661277b565b6040518085815260200184815260200183815260200182815260200194505050505060405180910390f35b61036c60048036036020811015610ba057600080610b9d616808565b50505b5035612819565b61036c60048036036020811015610bc657600080610bc3616808565b50505b5035612824565b61036c60048036036040811015610bec57600080610be9616808565b50505b506001600160a01b038135811691602001351661282f565b61036c612868565b61036c60048036036020811015610c2b57600080610c28616808565b50505b50356001600160a01b0316612a5c565b61060d612a96565b61036c60048036036060811015610c6257600080610c5f616808565b50505b506001600160a01b03813581169160208101359160409091013516612aa2565b61060d612aba565b61036c612ac6565b61036c60048036036020811015610cb157600080610cae616808565b50505b5035612b4c565b610332612bff565b600180610ccb616873565b600181600116156101000203166002900480601f016020809104026020016040519081016040528181529190602083018280610d05616873565b60018160011615610100020316600290048015610d715780601f10610d3f576101008083610d31616873565b040283529160200191610d71565b820191906000526020600020905b81610d56616873565b81529060010190602001808311610d4d57829003601f168201915b505050505081565b6000805a610d856168ce565b6001600160a01b0381166000908152600f6020529091508390604090206001600160a01b0386166000908152602091909152604090208190610dc5616914565b505050836001600160a01b0316816001600160a01b03167f8c5be1e5ebec7d5bd14f71427d1e84f3dd0314c0f7b2291e5b200ac8c7c3b9258560405190815260200160405180910390a360019150505b92915050565b600080610e2783612c04565b509150505b919050565b60016003610e3d616873565b906101000a90046001600160a01b03166001600160a01b03165a610e5f6168ce565b6001600160a01b031614610ead5760405162461bcd60e51b815260040180806020018281038252602d815260200180616ded602d913960400191505060405180910390610eaa616808565b50505b565b6008610eb9616873565b81565b60008080610ec8616873565b906101000a900460ff16610f185760405162461bcd60e51b815260206004820152600a6024820152691c994b595b9d195c995960b21b604482015260640160405180910390610f15616808565b50505b600080600181610f26616873565b8160ff02191690831515021790610f3b616914565b5060009150610f479050565b610f4f611f1e565b14610fa25760405162461bcd60e51b81526020600482015260166024820152751858d8dc9d59481a5b9d195c995cdd0819985a5b195960521b604482015260640160405180910390610f9f616808565b50505b610fab82611c02565b90505b600160008181610fbc616873565b8160ff02191690831515021790610fd1616914565b505050919050565b600d610eb9616873565b6000806000610ff0612d08565b9092509050600082600381111561100357fe5b146110485760405162461bcd60e51b8152600401808060200182810382526035815260200180616f5a6035913960400191505060405180910390611045616808565b50505b9150505b90565b61105d868686868686611c6e565b86601160018161106b616873565b816001600160a01b0302191690836001600160a01b031602179061108d616914565b505050601160009061109d616873565b906101000a90046001600160a01b03166001600160a01b03166318160ddd6040518163ffffffff1660e01b815260040160206040518083038186806110e0616962565b1580156110f5576000806110f2616808565b50505b505a6110ff6169ae565b505050505015801561111e573d6000803e3d600061111b616808565b50505b505050506040513d602081101561113d5760008061113a616808565b50505b8101908080515050505050505050505050565b6000601161115c616873565b906101000a90046001600160a01b03166001600160a01b0316816001600160a01b031614156111c55760405162461bcd60e51b8152600401808060200182810382526032815260200180616d3c60329139604001915050604051809103906111c2616808565b50505b6000816001600160a01b03166370a082315a63996d79a5598160e01b8152602081600483336000905af158601d01573d60011458600c01573d6000803e3d621234565260ea61109c528051925060005b604081101561122c57600082820152602001611215565b5050506040516001600160e01b031960e084901b1681526001600160a01b0390911660048201526024016020604051808303818680611269616962565b15801561127e5760008061127b616808565b50505b505a6112886169ae565b50505050501580156112a7573d6000803e3d60006112a4616808565b50505b505050506040513d60208110156112c6576000806112c3616808565b50505b810190808051935050506001600160a01b038316905063a9059cbb600160036112ed616873565b906101000a90046001600160a01b0316836040516001600160e01b031960e085901b1681526001600160a01b03909216600483015260248201526044016000604051808303816000878061133f616962565b15801561135457600080611351616808565b50505b505a61135e616a5e565b50505050505015801561137e573d6000803e3d600061137b616808565b50505b505050505050565b60008080611392616873565b906101000a900460ff166113e25760405162461bcd60e51b815260206004820152600a6024820152691c994b595b9d195c995960b21b6044820152606401604051809103906113df616808565b50505b6000806001816113f0616873565b8160ff02191690831515021790611405616914565b50600091506114119050565b6114255a61141d6168ce565b868686612dd3565b149050600160008181611436616873565b8160ff0219169083151502179061144b616914565b5050509392505050565b6000806114628484613170565b50949350505050565b60006004611477616873565b906101000a90046001600160a01b031681565b60006003611496616873565b906101000a900460ff1681565b60006114ad616b0e565b60405180602001604052806114c061268d565b90526001600160a01b0384166000908152600e602052909150806114ef83604083206114ea616873565b61326e565b9092509050600082600381111561150257fe5b1461155c5760405162461bcd60e51b815260206004820152601f60248201527f62616c616e636520636f756c64206e6f742062652063616c63756c6174656400604482015260640160405180910390611559616808565b50505b949350505050565b600061156e6132c2565b905090565b6000610e15826133f0565b60006001600361158c616873565b906101000a90046001600160a01b03166001600160a01b03165a6115ae6168ce565b6001600160a01b0316146115cf576115c86001603f6134b5565b9050610e2c565b60008060056115dc616873565b906101000a90046001600160a01b03169050826001600160a01b0316627e3dd26040518163ffffffff1660e01b81526004016020604051808303818680611621616962565b15801561163657600080611633616808565b50505b505a6116406169ae565b505050505015801561165f573d6000803e3d600061165c616808565b50505b505050506040513d602081101561167e5760008061167b616808565b50505b81019080805192506116e19150505760405162461bcd60e51b815260206004820152601c60248201527b6d61726b6572206d6574686f642072657475726e65642066616c736560201b6044820152606401604051809103906116de616808565b50505b8260056001816116ef616873565b816001600160a01b0302191690836001600160a01b0316021790611711616914565b5050507f7ac369dbd14fa5ea3f473ed67cc9d598964a77501540ba6751eb0b3decf5870d81846040516001600160a01b039283168152911660208201526040908101905180910390a160005b9392505050565b600b610eb9616873565b6001600361177a616873565b906101000a90046001600160a01b03166001600160a01b03165a61179c6168ce565b6001600160a01b0316146117ea5760405162461bcd60e51b815260040180806020018281038252602d81526020018061700f602d9139604001915050604051809103906117e7616808565b50505b50565b60006012611477616873565b60006005611477616873565b60008080611811616873565b906101000a900460ff166118615760405162461bcd60e51b815260206004820152600a6024820152691c994b595b9d195c995960b21b60448201526064016040518091039061185e616808565b50505b60008060018161186f616873565b8160ff02191690831515021790611884616914565b5050506000611891611f1e565b905080156118b7576118af8160108111156118a857fe5b60306134b5565b915050610fae565b6118c08361350f565b915050600160008181610fbc616873565b6009610eb9616873565b60006011611477616873565b6001600160a01b0381166000908152600e60205260408120610e15616873565b60008080611913616873565b906101000a900460ff166119635760405162461bcd60e51b815260206004820152600a6024820152691c994b595b9d195c995960b21b604482015260640160405180910390611960616808565b50505b600080600181611971616873565b8160ff02191690831515021790611986616914565b50600091506119929050565b61199a611f1e565b146119ed5760405162461bcd60e51b81526020600482015260166024820152751858d8dc9d59481a5b9d195c995cdd0819985a5b195960521b6044820152606401604051809103906119ea616808565b50505b600b6119f7616873565b9050600160008181611a07616873565b8160ff02191690831515021790611a1c616914565b50505090565b60016003611a2e616873565b906101000a90046001600160a01b03166001600160a01b03165a611a506168ce565b6001600160a01b031614611a9e5760405162461bcd60e51b815260040180806020018281038252602d815260200180616d9e602d913960400191505060405180910390611a9b616808565b50505b60006011611aaa616873565b906101000a90046001600160a01b03166001600160a01b0316635c19a95c826040516001600160e01b031960e084901b1681526001600160a01b03909116600482015260240160006040518083038160008780611b05616962565b158015611b1a57600080611b17616808565b50505b505a611b24616a5e565b505050505050158015611b44573d6000803e3d6000611b41616808565b50505b5050505050565b6000610e15826136c4565b600c610eb9616873565b600280611b6b616873565b600181600116156101000203166002900480601f016020809104026020016040519081016040528181529190602083018280611ba5616873565b60018160011615610100020316600290048015610d715780601f10611bd1576101008083610d31616873565b820191906000526020600020905b81611be8616873565b81529060010190602001808311611bdf5750859350505050565b6000806000611c1084613782565b90925090506000826003811115611c2357fe5b1461175d5760405162461bcd60e51b8152600401808060200182810382526037815260200180616e456037913960400191505060405180910390611c65616808565b50509392505050565b60016003611c7a616873565b906101000a90046001600160a01b03166001600160a01b03165a611c9c6168ce565b6001600160a01b031614611cea5760405162461bcd60e51b8152600401808060200182810382526024815260200180616cd56024913960400191505060405180910390611ce7616808565b50505b6009611cf4616873565b158015611d085750600a611d06616873565b155b611d4c5760405162461bcd60e51b8152600401808060200182810382526023815260200180616cf96023913960400191505060405180910390611d49616808565b50505b83806007611d58616914565b50505060006007611d67616873565b11611dac5760405162461bcd60e51b8152600401808060200182810382526030815260200180616d6e6030913960400191505060405180910390611da9616808565b50505b6000611db78761157e565b90508015611e115760405162461bcd60e51b815260206004820152601a6024820152791cd95d1d1a5b99c818dbdb5c1d1c9bdb1b195c8819985a5b195960321b604482015260640160405180910390611e0e616808565b50505b611e1961384e565b806009611e24616914565b505050670de0b6b3a7640000600a8190611e3c616914565b505050611e4886613859565b90508015611e905760405162461bcd60e51b8152600401808060200182810382526022815260200180616dcb6022913960400191505060405180910390611e8d616808565b50505b6001848051611ea3929160200190616b1f565b506002838051611eb7929160200190616b1f565b50816003600181611ec6616873565b8160ff021916908360ff16021790611edc616914565b50505060016000806101000a81611ef1616873565b8160ff02191690831515021790611f06616914565b50505050505050505050565b600080610e2783613a59565b600080611f2961384e565b905060006009611f37616873565b905081811415611f4c5760009250505061104c565b6000611f566132c2565b90506000600b611f64616873565b90506000600c611f72616873565b90506000600a611f80616873565b90506000806006611f8f616873565b906101000a90046001600160a01b03166001600160a01b03166315f240538686866040516001600160e01b031960e086901b1681526004810193909352602483019190915260448201526064016020604051808303818680611fef616962565b15801561200457600080612001616808565b50505b505a61200e6169ae565b505050505015801561202d573d6000803e3d600061202a616808565b50505b505050506040513d602081101561204c57600080612049616808565b50505b8101908080519350505065048c2739500082111590506120ba5760405162461bcd60e51b815260206004820152601c60248201527b0c4dee4e4deee40e4c2e8ca40d2e640c2c4e6eae4c8d8f240d0d2ced60231b6044820152606401604051809103906120b7616808565b50505b6000806120c78989613b16565b909250905060008260038111156120da57fe5b146121345760405162461bcd60e51b815260206004820152601f60248201527f636f756c64206e6f742063616c63756c61746520626c6f636b2064656c746100604482015260640160405180910390612131616808565b50505b61213c616b0e565b6000806000806121586040516020810160405289815287613b39565b9097509450600087600381111561216b57fe5b1461219d576121886009600689600381111561218357fe5b613b9f565b9e50505050505050505050505050505061104c565b6121a7858c61326e565b909750935060008760038111156121ba57fe5b146121d2576121886009600189600381111561218357fe5b6121dc848c613bf8565b909750925060008760038111156121ef57fe5b14612207576121886009600489600381111561218357fe5b6122286040518060200160405280600861221f616873565b9052858c613c1e565b9097509150600087600381111561223b57fe5b14612253576121886009600589600381111561218357fe5b61225e858a8b613c1e565b9097509050600087600381111561227157fe5b14612289576121886009600389600381111561218357fe5b8d806009612295616914565b50505080600a81906122a5616914565b50505082600b81906122b5616914565b50505081600c81906122c5616914565b5050507f4dec04e750ca11537cabcd8a9eab06494de08da3735bc8871cd41250e190bc048c8583866040518085815260200184815260200183815260200182815260200194505050505060405180910390a160009e50505050505050505050505050505090565b60008080612338616873565b906101000a900460ff166123885760405162461bcd60e51b815260206004820152600a6024820152691c994b595b9d195c995960b21b604482015260640160405180910390612385616808565b50505b600080600181612396616873565b8160ff021916908315150217906123ab616914565b50600091506123b79050565b6123d35a6123c36168ce565b5a6123cc6168ce565b8686612dd3565b1490506001600081816123e4616873565b8160ff021916908315150217906123f9616914565b50505092915050565b600a610eb9616873565b6000806006612419616873565b906101000a90046001600160a01b03166001600160a01b031663b816881661243f6132c2565b600b612449616873565b600c612453616873565b600861245d616873565b6040516001600160e01b031960e087901b168152600481019490945260248401929092526044830152606482015260840160206040518083038186806124a1616962565b1580156124b6576000806124b3616808565b50505b505a6124c06169ae565b50505050501580156124df573d6000803e3d60006124dc616808565b50505b505050506040513d60208110156124fe576000806124fb616808565b50505b810190808051935050505090565b60008080612518616873565b906101000a900460ff166125685760405162461bcd60e51b815260206004820152600a6024820152691c994b595b9d195c995960b21b604482015260640160405180910390612565616808565b50505b600080600181612576616873565b8160ff0219169083151502179061258b616914565b5050506125a25a61259a6168ce565b858585613c7a565b9050600160008181611436616873565b6000600160036125c0616873565b906101000a90046001600160a01b03166001600160a01b03165a6125e26168ce565b6001600160a01b0316146125fc576115c8600160456134b5565b6000806004612609616873565b906101000a90046001600160a01b0316905082600460006101000a8161262d616873565b816001600160a01b0302191690836001600160a01b031602179061264f616914565b505050600080516020616e7c83398151915281846040516001600160a01b039283168152911660208201526040908101905180910390a1600061175d565b60008080612699616873565b906101000a900460ff166126e95760405162461bcd60e51b815260206004820152600a6024820152691c994b595b9d195c995960b21b6044820152606401604051809103906126e6616808565b50505b6000806001816126f7616873565b8160ff0219169083151502179061270c616914565b50600091506127189050565b612720611f1e565b146127735760405162461bcd60e51b81526020600482015260166024820152751858d8dc9d59481a5b9d195c995cdd0819985a5b195960521b604482015260640160405180910390612770616808565b50505b6119f7610fe3565b6001600160a01b0381166000908152600e602052808080806040812061279f616873565b905060008060006127af89613782565b9350905060008160038111156127c157fe5b146127df5760095b9750600096508695508594506128129350505050565b6127e7612d08565b9250905060008160038111156127f957fe5b146128055760096127c9565b5060009650919450925090505b9193509193565b6000610e1582613f4b565b6000610e1582614007565b6001600160a01b0382166000908152600f602052604081206001600160a01b03831660009081526020919091526040902061175d616873565b6000806004612875616873565b906101000a90046001600160a01b03166001600160a01b03165a6128976168ce565b6001600160a01b03161415806128be575060005a6128b36168ce565b6001600160a01b0316145b156128d6576128cf600160006134b5565b905061104c565b6000600160036128e4616873565b906101000a90046001600160a01b0316905060006004600090612905616873565b906101000a90046001600160a01b031690506004600090612924616873565b906101000a90046001600160a01b0316600360016101000a81612945616873565b816001600160a01b0302191690836001600160a01b0316021790612967616914565b5050506000600460006101000a8161297d616873565b816001600160a01b0302191690836001600160a01b031602179061299f616914565b5050507ff9ffabca9c8276e99321725bcb43fb076a6c66a54b7f21c4e8146d8519b417dc8260036001906129d1616873565b906101000a90046001600160a01b03166040516001600160a01b039283168152911660208201526040908101905180910390a1600080516020616e7c8339815191528160006004612a20616873565b906101000a90046001600160a01b03166040516001600160a01b039283168152911660208201526040908101905180910390a160009250505090565b600080612a67611f1e565b90508015612a8d57612a85816010811115612a7e57fe5b60406134b5565b915050610e2c565b61175d83613859565b60006006611477616873565b600080612ab08585856140be565b5095945050505050565b60016003611477616873565b6000806006612ad3616873565b906101000a90046001600160a01b03166001600160a01b03166315f24053612af96132c2565b600b612b03616873565b600c612b0d616873565b6040516001600160e01b031960e086901b16815260048101939093526024830191909152604482015260640160206040518083038186806124a1616962565b60008080612b58616873565b906101000a900460ff16612ba85760405162461bcd60e51b815260206004820152600a6024820152691c994b595b9d195c995960b21b604482015260640160405180910390612ba5616808565b50505b600080600181612bb6616873565b8160ff02191690831515021790612bcb616914565b5050506000612bd8611f1e565b90508015612bf6576118af816010811115612bef57fe5b60466134b5565b6118c083614282565b600181565b6000808080612c11616873565b906101000a900460ff16612c615760405162461bcd60e51b815260206004820152600a6024820152691c994b595b9d195c995960b21b604482015260640160405180910390612c5e616808565b50505b600080600181612c6f616873565b8160ff02191690831515021790612c84616914565b5050506000612c91611f1e565b90508015612cbc57612caf816010811115612ca857fe5b60366134b5565b925060009150612cdd9050565b612cd75a612cc86168ce565b5a612cd16168ce565b86614369565b92509250505b600160008181612ceb616873565b8160ff02191690831515021790612d00616914565b505050915091565b6000806000600d612d17616873565b905080612d345760006007612d2a616873565b9250925050612dcf565b6000612d3e6132c2565b90506000612d4a616b0e565b6000612d6984600b612d5a616873565b600c612d64616873565b6147d7565b935090506000816003811115612d7b57fe5b14612d9057955060009450612dcf9350505050565b612d9a8386614815565b925090506000816003811115612dac57fe5b14612dc157955060009450612dcf9350505050565b600082519650965050505050505b9091565b600080806005612de1616873565b906101000a90046001600160a01b03166001600160a01b031663bdcdc2585a63996d79a5598160e01b8152602081600483336000905af158601d01573d60011458600c01573d6000803e3d621234565260ea61109c528051925060005b6040811015612e5557600082820152602001612e3e565b5050508787876040516001600160e01b031960e087901b1681526001600160a01b039485166004820152928416602484015292166044820152606481019190915260840160206040518083038160008780612eae616962565b158015612ec357600080612ec0616808565b50505b505a612ecd616a5e565b505050505050158015612eed573d6000803e3d6000612eea616808565b50505b505050506040513d6020811015612f0c57600080612f09616808565b50505b81019080805193505082159150612f34905057612f2c6003604a83613b9f565b91505061155c565b836001600160a01b0316856001600160a01b03161415612f5a57612f2c6002604b6134b5565b60006001600160a01b038781169087161415612f795750600019612fb5565b6001600160a01b0386166000908152600f602052604090206001600160a01b038816600090815260209190915260409020612fb2616873565b90505b600080600080612fc58589613b16565b90945092506000846003811115612fd857fe5b14612ff657612fe96009604b6134b5565b965050505050505061155c565b6001600160a01b038a166000908152600e602052613020906040902061301a616873565b89613b16565b9094509150600084600381111561303357fe5b1461304457612fe96009604c6134b5565b6001600160a01b0389166000908152600e60205261306e9060409020613068616873565b89613bf8565b9094509050600084600381111561308157fe5b1461309257612fe96009604d6134b5565b6001600160a01b038a166000908152600e60205282906040902081906130b6616914565b5050506001600160a01b0389166000908152600e60205281906040902081906130dd616914565b505050600019851461312a576001600160a01b038a166000908152600f6020528390604090206001600160a01b038d166000908152602091909152604090208190613126616914565b5050505b886001600160a01b03168a6001600160a01b0316600080516020616ed68339815191528a60405190815260200160405180910390a35060009a9950505050505050505050565b600080808061317d616873565b906101000a900460ff166131cd5760405162461bcd60e51b815260206004820152600a6024820152691c994b595b9d195c995960b21b6044820152606401604051809103906131ca616808565b50505b6000806001816131db616873565b8160ff021916908315150217906131f0616914565b50505060006131fd611f1e565b905080156132285761321b81601081111561321457fe5b60356134b5565b9250600091506132419050565b61323b5a6132346168ce565b8686614369565b92509250505b60016000818161324f616873565b8160ff02191690831515021790613264616914565b5050509250929050565b600080600061327b616b0e565b6132858686613b39565b9092509050600082600381111561329857fe5b146132a957509150600090506132bb565b60006132b4826148c7565b9350935050505b9250929050565b6000808060116132d0616873565b906101000a90046001600160a01b03169050806001600160a01b03166370a082315a63996d79a5598160e01b8152602081600483336000905af158601d01573d60011458600c01573d6000803e3d621234565260ea61109c528051925060005b604081101561334757600082820152602001613330565b5050506040516001600160e01b031960e084901b1681526001600160a01b0390911660048201526024016020604051808303818680613384616962565b15801561339957600080613396616808565b50505b505a6133a36169ae565b50505050501580156133c2573d6000803e3d60006133bf616808565b50505b505050506040513d60208110156133e1576000806133de616808565b50505b81019080805194505050505090565b600080806133fc616873565b906101000a900460ff1661344c5760405162461bcd60e51b815260206004820152600a6024820152691c994b595b9d195c995960b21b604482015260640160405180910390613449616808565b50505b60008060018161345a616873565b8160ff0219169083151502179061346f616914565b505050600061347c611f1e565b9050801561349a576118af81601081111561349357fe5b604e6134b5565b6134a3836148e2565b50915050600160008181610fbc616873565b6000600080516020616d1c8339815191528360108111156134d257fe5b8360508111156134de57fe5b600060405180848152602001838152602001828152602001935050505060405180910390a182601081111561175d57fe5b6000806001600361351e616873565b906101000a90046001600160a01b03166001600160a01b03165a6135406168ce565b6001600160a01b03161461355a57612a85600160316134b5565b61356261384e565b600961356c616873565b1461357d57612a85600a60336134b5565b826135866132c2565b101561359857612a85600e60326134b5565b600c6135a2616873565b8311156135b557612a85600260346134b5565b82600c6135c0616873565b039050600c6135cd616873565b8111156136145760405162461bcd60e51b8152600401808060200182810382526024815260200180616feb6024913960400191505060405180910390613611616808565b50505b8080600c613620616914565b5050506136496003600190613633616873565b906101000a90046001600160a01b031684614a1a565b7f3bad0c59cf2f06e7314077049f48a93578cd16f5ef92329f1dab1420a99c177e60016003613676616873565b906101000a90046001600160a01b0316848360405180846001600160a01b03166001600160a01b03168152602001838152602001828152602001935050505060405180910390a1600061175d565b600080806136d0616873565b906101000a900460ff166137205760405162461bcd60e51b815260206004820152600a6024820152691c994b595b9d195c995960b21b60448201526064016040518091039061371d616808565b50505b60008060018161372e616873565b8160ff02191690831515021790613743616914565b5050506000613750611f1e565b9050801561376e576118af81601081111561376757fe5b60276134b5565b6118c05a61377a6168ce565b600085614b63565b6001600160a01b038116600090815260106020528080808080604081209050806137aa616873565b6137bf57506000945084935061384992505050565b6137da816137cb616873565b600a6137d5616873565b615213565b909450925060008460038111156137ed57fe5b14613802575091935060009250613849915050565b6138178382600101613812616873565b615252565b9094509150600084600381111561382a57fe5b1461383f575091935060009250613849915050565b5060009450925050505b915091565b60005a61156e616bbf565b60008060016003613868616873565b906101000a90046001600160a01b03166001600160a01b03165a61388a6168ce565b6001600160a01b0316146138a457612a85600160426134b5565b6138ac61384e565b60096138b6616873565b146138c757612a85600a60416134b5565b600060066138d3616873565b906101000a90046001600160a01b03169050826001600160a01b0316632191f92a6040518163ffffffff1660e01b81526004016020604051808303818680613919616962565b15801561392e5760008061392b616808565b50505b505a6139386169ae565b5050505050158015613957573d6000803e3d6000613954616808565b50505b505050506040513d602081101561397657600080613973616808565b50505b81019080805192506139d99150505760405162461bcd60e51b815260206004820152601c60248201527b6d61726b6572206d6574686f642072657475726e65642066616c736560201b6044820152606401604051809103906139d6616808565b50505b8260066001816139e7616873565b816001600160a01b0302191690836001600160a01b0316021790613a09616914565b5050507fedffc32e068c7c95dfd4bdfd5c4d939a084d6b11c4199eac8436ed234d72f92681846040516001600160a01b039283168152911660208201526040908101905180910390a1600061175d565b6000808080613a66616873565b906101000a900460ff16613ab65760405162461bcd60e51b815260206004820152600a6024820152691c994b595b9d195c995960b21b604482015260640160405180910390613ab3616808565b50505b600080600181613ac4616873565b8160ff02191690831515021790613ad9616914565b5050506000613ae6611f1e565b90508015613b0457612caf816010811115613afd57fe5b601e6134b5565b612cd75a613b106168ce565b8561527d565b600080838311613b2d5750600090508183036132bb565b506003905060006132bb565b6000613b43616b0e565b600080613b51865186615213565b90925090506000826003811115613b6457fe5b14613b855781604051602081016040526000815290945092506132bb915050565b600060405160208101604052918252969095509350505050565b6000600080516020616d1c833981519152846010811115613bbc57fe5b846050811115613bc857fe5b8460405180848152602001838152602001828152602001935050505060405180910390a183601081111561155c57fe5b600080838301848110613c10576000925090506132bb565b5060029150600090506132bb565b6000806000613c2b616b0e565b613c358787613b39565b90925090506000826003811115613c4857fe5b14613c595750915060009050613c72565b613c6b613c65826148c7565b86613bf8565b9350935050505b935093915050565b600080806005613c88616873565b906101000a90046001600160a01b03166001600160a01b031663d02f73515a63996d79a5598160e01b8152602081600483336000905af158601d01573d60011458600c01573d6000803e3d621234565260ea61109c528051925060005b6040811015613cfc57600082820152602001613ce5565b505050888888886040516001600160e01b031960e088901b1681526001600160a01b039586166004820152938516602485015291841660448401529092166064820152608481019190915260a40160206040518083038160008780613d5f616962565b158015613d7457600080613d71616808565b50505b505a613d7e616a5e565b505050505050158015613d9e573d6000803e3d6000613d9b616808565b50505b505050506040513d6020811015613dbd57600080613dba616808565b50505b81019080805193505082159150613ddd905057612f2c6003601b83613b9f565b846001600160a01b0316846001600160a01b03161415613e0357612f2c6006601c6134b5565b6001600160a01b0384166000908152600e6020528080613e2e60408220613e28616873565b87613b16565b90935091506000836003811115613e4157fe5b14613e6457613e596009601a85600381111561218357fe5b94505050505061155c565b6001600160a01b0388166000908152600e602052613e8e9060409020613e88616873565b87613bf8565b90935090506000836003811115613ea157fe5b14613eb957613e596009601985600381111561218357fe5b6001600160a01b0387166000908152600e6020528290604090208190613edd616914565b5050506001600160a01b0388166000908152600e6020528190604090208190613f04616914565b505050876001600160a01b0316876001600160a01b0316600080516020616ed68339815191528860405190815260200160405180910390a360009998505050505050505050565b60008080613f57616873565b906101000a900460ff16613fa75760405162461bcd60e51b815260206004820152600a6024820152691c994b595b9d195c995960b21b604482015260640160405180910390613fa4616808565b50505b600080600181613fb5616873565b8160ff02191690831515021790613fca616914565b5050506000613fd7611f1e565b90508015613ff5576118af816010811115613fee57fe5b60086134b5565b6118c05a6140016168ce565b846157ad565b60008080614013616873565b906101000a900460ff166140635760405162461bcd60e51b815260206004820152600a6024820152691c994b595b9d195c995960b21b604482015260640160405180910390614060616808565b50505b600080600181614071616873565b8160ff02191690831515021790614086616914565b5050506000614093611f1e565b905080156140aa576118af81601081111561376757fe5b6118c05a6140b66168ce565b846000614b63565b60008080806140cb616873565b906101000a900460ff1661411b5760405162461bcd60e51b815260206004820152600a6024820152691c994b595b9d195c995960b21b604482015260640160405180910390614118616808565b50505b600080600181614129616873565b8160ff0219169083151502179061413e616914565b505050600061414b611f1e565b905080156141765761416981601081111561416257fe5b600f6134b5565b9250600091506142549050565b836001600160a01b031663a6afed956040518163ffffffff1660e01b8152600401602060405180830381600087806141ac616962565b1580156141c1576000806141be616808565b50505b505a6141cb616a5e565b5050505050501580156141eb573d6000803e3d60006141e8616808565b50505b505050506040513d602081101561420a57600080614207616808565b50505b81019080805193506000925061421e915050565b811461423a5761416981601081111561423357fe5b60106134b5565b61424e5a6142466168ce565b878787615b50565b92509250505b600160008181614262616873565b8160ff02191690831515021790614277616914565b505050935093915050565b600060016003614290616873565b906101000a90046001600160a01b03166001600160a01b03165a6142b26168ce565b6001600160a01b0316146142cc576115c8600160476134b5565b6142d461384e565b60096142de616873565b146142ef576115c8600a60486134b5565b670de0b6b3a764000082111561430b576115c8600260496134b5565b60006008614317616873565b905082806008614325616914565b5050507faaa68312e2ea9d50e16af5068410ab56e1a1fd06037b1a35664812c30f821460818460405191825260208201526040908101905180910390a1600061175d565b60008080806005614378616873565b906101000a90046001600160a01b03166001600160a01b03166324008a625a63996d79a5598160e01b8152602081600483336000905af158601d01573d60011458600c01573d6000803e3d621234565260ea61109c528051925060005b60408110156143ec576000828201526020016143d5565b5050508888886040516001600160e01b031960e087901b1681526001600160a01b039485166004820152928416602484015292166044820152606481019190915260840160206040518083038160008780614445616962565b15801561445a57600080614457616808565b50505b505a614464616a5e565b505050505050158015614484573d6000803e3d6000614481616808565b50505b505050506040513d60208110156144a3576000806144a0616808565b50505b810190808051935050821591506144d09050576144c36003603883613b9f565b925060009150613c729050565b6144d861384e565b60096144e2616873565b146144f3576144c3600a60396134b5565b6144fb616c05565b6001600160a01b038616600090815260106020526040902060010161451e616873565b606082015261452c86613782565b608083018190526020830182600381111561454357fe5b600381111561454e57fe5b905250600090508160200151600381111561456557fe5b1461458f57614581600960378360200151600381111561218357fe5b935060009250613c72915050565b6000198514156145a857806080015160408201526145b0565b604081018590525b6145be878260400151616337565b60e08201526145d560808201518260e00151613b16565b60a08301819052602083018260038111156145ec57fe5b60038111156145f757fe5b905250600090508160200151600381111561460e57fe5b146146535760405162461bcd60e51b815260040180806020018281038252603a815260200180616e9c603a913960400191505060405180910390614650616808565b50505b61466a600b614660616873565b8260e00151613b16565b60c083018190526020830182600381111561468157fe5b600381111561468c57fe5b90525060009050816020015160038111156146a357fe5b146146e85760405162461bcd60e51b8152600401808060200182810382526031815260200180616ef660319139604001915050604051809103906146e5616808565b50505b8060a001516001600160a01b0387166000908152601060205260409020819061470f616914565b505050600a61471c616873565b6001600160a01b03871660009081526010602052604090206001018190614741616914565b5050508060c0015180600b614754616914565b5050507f1a2a22cb034d26d1854bdc6666a5b91fe25efbbb5dcad3b0355478d6f5c362a187878360e001518460a001518560c001516040516001600160a01b0395861681529390941660208401526040808401929092526060830152608082019290925260a001905180910390a160008160e00151935093505050935093915050565b6000806000806147e78787613bf8565b909250905060008260038111156147fa57fe5b1461480b5750915060009050613c72565b613c6b8186613b16565b600061481f616b0e565b60008061483486670de0b6b3a7640000615213565b9092509050600082600381111561484757fe5b146148685781604051602081016040526000815290945092506132bb915050565b6000806148758388615252565b9092509050600082600381111561488857fe5b146148ab5781604051602081016040526000815290965094506132bb9350505050565b6000604051602081016040529182529890975095505050505050565b6000670de0b6b3a76400008251816148db57fe5b0492915050565b6000806000806148f061384e565b60096148fa616873565b146149165761490b600a604f6134b5565b935091506138499050565b6149285a6149226168ce565b86616337565b905080600c614935616873565b019150600c614942616873565b82101561499e5760405162461bcd60e51b815260206004820181905260248201527f61646420726573657276657320756e6578706563746564206f766572666c6f7760448201526064016040518091039061499b616808565b50505b8180600c6149aa616914565b5050507fa91e67c5ea634cd43a12c5a482724b03de01e85ca68702a53d0c2f45cb7c1dc55a6149d76168ce565b828460405180846001600160a01b03166001600160a01b03168152602001838152602001828152602001935050505060405180910390a160009350915050915091565b6000806011614a27616873565b906101000a90046001600160a01b03169050806001600160a01b031663a9059cbb84846040516001600160e01b031960e085901b1681526001600160a01b039092166004830152602482015260440160006040518083038160008780614a8b616962565b158015614aa057600080614a9d616808565b50505b505a614aaa616a5e565b505050505050158015614aca573d6000803e3d6000614ac7616808565b50505b5050505060003d60008114614af35760208114614afd57600080614aec616808565b5050614b09565b6000199150614b09565b60206000803e60005191505b5080614b5d5760405162461bcd60e51b81526020600482015260196024820152781513d2d15397d514905394d1915497d3d55517d19052531151603a1b60448201526064016040518091039061137e616808565b50505050565b6000821580614b70575081155b614bb45760405162461bcd60e51b8152600401808060200182810382526034815260200180616fb76034913960400191505060405180910390614bb1616808565b50505b614bbc616c4a565b614bc4612d08565b6040830181905260208301826003811115614bdb57fe5b6003811115614be657fe5b9052506000905081602001516003811115614bfd57fe5b14614c2157614c196009602b8360200151600381111561218357fe5b91505061175d565b8315614ca35760608101849052614c496040518060200160405280836040015190528561326e565b6080830181905260208301826003811115614c6057fe5b6003811115614c6b57fe5b9052506000905081602001516003811115614c8257fe5b14614c9e57614c19600960298360200151600381111561218357fe5b614d1b565b614cbe83604051806020016040528084604001519052616798565b6060830181905260208301826003811115614cd557fe5b6003811115614ce057fe5b9052506000905081602001516003811115614cf757fe5b14614d1357614c196009602a8360200151600381111561218357fe5b608081018390525b6000806005614d28616873565b906101000a90046001600160a01b03166001600160a01b031663eabe7d915a63996d79a5598160e01b8152602081600483336000905af158601d01573d60011458600c01573d6000803e3d621234565260ea61109c528051925060005b6040811015614d9c57600082820152602001614d85565b5050508885606001516040516001600160e01b031960e086901b1681526001600160a01b039384166004820152919092166024820152604481019190915260640160206040518083038160008780614df2616962565b158015614e0757600080614e04616808565b50505b505a614e11616a5e565b505050505050158015614e31573d6000803e3d6000614e2e616808565b50505b505050506040513d6020811015614e5057600080614e4d616808565b50505b81019080805193505082159150614e79905057614e706003602883613b9f565b9250505061175d565b614e8161384e565b6009614e8b616873565b14614e9c57614e70600a602c6134b5565b614eb3600d614ea9616873565b8360600151613b16565b60a0840181905260208401826003811115614eca57fe5b6003811115614ed557fe5b9052506000905082602001516003811115614eec57fe5b14614f0857614e706009602e8460200151600381111561218357fe5b6001600160a01b0386166000908152600e602052614f2c9060409020614ea9616873565b60c0840181905260208401826003811115614f4357fe5b6003811115614f4e57fe5b9052506000905082602001516003811115614f6557fe5b14614f8157614e706009602d8460200151600381111561218357fe5b8160800151614f8e6132c2565b1015614fa057614e70600e602f6134b5565b614fae868360800151614a1a565b8160a0015180600d614fbe616914565b5050508160c001516001600160a01b0387166000908152600e602052604090208190614fe8616914565b5050505a63996d79a5598160e01b8152602081600483336000905af158601d01573d60011458600c01573d6000803e3d621234565260ea61109c528051925060005b60408110156150415760008282015260200161502a565b5050506001600160a01b0316866001600160a01b0316600080516020616ed6833981519152846060015160405190815260200160405180910390a37fe5b754fb1abb7f01b499791d0b820ae3b6af3424ac1c59768edb53f4ec31a929868360800151846060015160405180846001600160a01b03166001600160a01b03168152602001838152602001828152602001935050505060405180910390a1600060056150e9616873565b906101000a90046001600160a01b03166001600160a01b03166351dff9895a63996d79a5598160e01b8152602081600483336000905af158601d01573d60011458600c01573d6000803e3d621234565260ea61109c528051925060005b604081101561515d57600082820152602001615146565b50505088856080015186606001516040516001600160e01b031960e087901b1681526001600160a01b03948516600482015292909316602483015260448201526064810191909152608401600060405180830381600087806151bd616962565b1580156151d2576000806151cf616808565b50505b505a6151dc616a5e565b5050505050501580156151fc573d6000803e3d60006151f9616808565b50505b5060009250615209915050565b9695505050505050565b60008083615226575060009050806132bb565b8383028385828161523357fe5b0414615247575060029150600090506132bb565b6000925090506132bb565b6000808261526657506001905060006132bb565b600083858161527157fe5b04915091509250929050565b6000808080600561528c616873565b906101000a90046001600160a01b03166001600160a01b0316634ef4c3e15a63996d79a5598160e01b8152602081600483336000905af158601d01573d60011458600c01573d6000803e3d621234565260ea61109c528051925060005b6040811015615300576000828201526020016152e9565b50505087876040516001600160e01b031960e086901b1681526001600160a01b039384166004820152919092166024820152604481019190915260640160206040518083038160008780615352616962565b15801561536757600080615364616808565b50505b505a615371616a5e565b505050505050158015615391573d6000803e3d600061538e616808565b50505b505050506040513d60208110156153b0576000806153ad616808565b50505b810190808051935050821591506153dd9050576153d06003601f83613b9f565b9250600091506132bb9050565b6153e561384e565b60096153ef616873565b14615400576153d0600a60226134b5565b615408616c4a565b615410612d08565b604083018190526020830182600381111561542757fe5b600381111561543257fe5b905250600090508160200151600381111561544957fe5b1461547357615465600960218360200151600381111561218357fe5b9350600092506132bb915050565b61547d8686616337565b60c082019081526154a09051604051806020016040528084604001519052616798565b60608301819052602083018260038111156154b757fe5b60038111156154c257fe5b90525060009050816020015160038111156154d957fe5b146155335760405162461bcd60e51b815260206004820181905260248201527f4d494e545f45584348414e47455f43414c43554c4154494f4e5f4641494c4544604482015260640160405180910390615530616808565b50505b61554a600d615540616873565b8260600151613bf8565b608083018190526020830182600381111561556157fe5b600381111561556c57fe5b905250600090508160200151600381111561558357fe5b146155c85760405162461bcd60e51b8152600401808060200182810382526028815260200180616f8f60289139604001915050604051809103906155c5616808565b50505b6001600160a01b0386166000908152600e6020526155ec9060409020615540616873565b60a083018190526020830182600381111561560357fe5b600381111561560e57fe5b905250600090508160200151600381111561562557fe5b1461566a5760405162461bcd60e51b815260040180806020018281038252602b815260200180616e1a602b913960400191505060405180910390615667616808565b50505b806080015180600d61567a616914565b5050508060a001516001600160a01b0387166000908152600e6020526040902081906156a4616914565b5050507f4c209b5fc8ad50758f13e2e1088ba56a560dff690a1c6fef26394f4c03821c4f868260c00151836060015160405180846001600160a01b03166001600160a01b03168152602001838152602001828152602001935050505060405180910390a1856001600160a01b03165a63996d79a5598160e01b8152602081600483336000905af158601d01573d60011458600c01573d6000803e3d621234565260ea61109c528051925060005b604081101561576857600082820152602001615751565b5050506001600160a01b0316600080516020616ed6833981519152836060015160405190815260200160405180910390a360008160c001519350935050509250929050565b6000808060056157bb616873565b906101000a90046001600160a01b03166001600160a01b031663da3d454c5a63996d79a5598160e01b8152602081600483336000905af158601d01573d60011458600c01573d6000803e3d621234565260ea61109c528051925060005b604081101561582f57600082820152602001615818565b50505086866040516001600160e01b031960e086901b1681526001600160a01b039384166004820152919092166024820152604481019190915260640160206040518083038160008780615881616962565b15801561589657600080615893616808565b50505b505a6158a0616a5e565b5050505050501580156158c0573d6000803e3d60006158bd616808565b50505b505050506040513d60208110156158df576000806158dc616808565b50505b810190808051935050821591506159079050576158ff6003600e83613b9f565b915050610e15565b61590f61384e565b6009615919616873565b14615929576158ff600a806134b5565b826159326132c2565b1015615944576158ff600e60096134b5565b61594c616c87565b61595585613782565b602083018190528282600381111561596957fe5b600381111561597457fe5b905250600090508151600381111561598857fe5b146159aa576159a1600960078351600381111561218357fe5b92505050610e15565b6159b8816020015185613bf8565b60408301819052828260038111156159cc57fe5b60038111156159d757fe5b90525060009050815160038111156159eb57fe5b14615a04576159a16009600c8351600381111561218357fe5b615a17600b615a11616873565b85613bf8565b6060830181905282826003811115615a2b57fe5b6003811115615a3657fe5b9052506000905081516003811115615a4a57fe5b14615a63576159a16009600b8351600381111561218357fe5b615a6d8585614a1a565b80604001516001600160a01b03861660009081526010602052604090208190615a94616914565b505050600a615aa1616873565b6001600160a01b03861660009081526010602052604090206001018190615ac6616914565b505050806060015180600b615ad9616914565b5050507f13ed6866d4e1ee6da46f845c46d7e54120883d75c5ea9a2dacc1c4ca8984ab8085858360400151846060015160405180856001600160a01b03166001600160a01b0316815260200184815260200183815260200182815260200194505050505060405180910390a1600095945050505050565b60008080806005615b5f616873565b906101000a90046001600160a01b03166001600160a01b0316635fc7e71e5a63996d79a5598160e01b8152602081600483336000905af158601d01573d60011458600c01573d6000803e3d621234565260ea61109c528051925060005b6040811015615bd357600082820152602001615bbc565b505050868a8a8a6040516001600160e01b031960e088901b1681526001600160a01b039586166004820152938516602485015291841660448401529092166064820152608481019190915260a40160206040518083038160008780615c36616962565b158015615c4b57600080615c48616808565b50505b505a615c55616a5e565b505050505050158015615c75573d6000803e3d6000615c72616808565b50505b505050506040513d6020811015615c9457600080615c91616808565b50505b81019080805193505082159150615cc1905057615cb46003601283613b9f565b92506000915061632e9050565b615cc961384e565b6009615cd3616873565b14615ce457615cb4600a60166134b5565b615cec61384e565b846001600160a01b0316636c540baf6040518163ffffffff1660e01b81526004016020604051808303818680615d20616962565b158015615d3557600080615d32616808565b50505b505a615d3f6169ae565b5050505050158015615d5e573d6000803e3d6000615d5b616808565b50505b505050506040513d6020811015615d7d57600080615d7a616808565b50505b810190808051939093149250615d9c91505057615cb4600a60116134b5565b866001600160a01b0316866001600160a01b03161415615dc257615cb4600660176134b5565b84615dd357615cb4600760156134b5565b600019851415615de957615cb4600760146134b5565b600080615df7898989614369565b90925090508115615e2757615e18826010811115615e1157fe5b60186134b5565b94506000935061632e92505050565b600080806005615e35616873565b906101000a90046001600160a01b03166001600160a01b031663c488847b5a63996d79a5598160e01b8152602081600483336000905af158601d01573d60011458600c01573d6000803e3d621234565260ea61109c528051925060005b6040811015615ea957600082820152602001615e92565b5050508a866040516001600160e01b031960e086901b1681526001600160a01b039384166004820152919092166024820152604481019190915260640160408051808303818680615ef8616962565b158015615f0d57600080615f0a616808565b50505b505a615f176169ae565b5050505050158015615f36573d6000803e3d6000615f33616808565b50505b505050506040513d6040811015615f5557600080615f52616808565b50505b810190808051929190602001805193955092935060009250615f75915050565b8214615fbb5760405162461bcd60e51b8152600401808060200182810382526033815260200180616f276033913960400191505060405180910390615fb8616808565b50505b80886001600160a01b03166370a082318c6040516001600160e01b031960e084901b1681526001600160a01b0390911660048201526024016020604051808303818680616006616962565b15801561601b57600080616018616808565b50505b505a6160256169ae565b5050505050158015616044573d6000803e3d6000616041616808565b50505b505050506040513d602081101561606357600080616060616808565b50505b810190808051939093101592506160c79150505760405162461bcd60e51b815260206004820152601860248201527709892a2aa928882a88abea68a92b48abea89e9ebe9aaa86960431b6044820152606401604051809103906160c4616808565b50505b60005a63996d79a5598160e01b8152602081600483336000905af158601d01573d60011458600c01573d6000803e3d621234565260ea61109c528051925060005b604081101561611f57600082820152602001616108565b5050506001600160a01b0316896001600160a01b031614156161a65761619f5a63996d79a5598160e01b8152602081600483336000905af158601d01573d60011458600c01573d6000803e3d621234565260ea61109c528051925060005b60408110156161945760008282015260200161617d565b5050508d8d85613c7a565b905061626f565b886001600160a01b031663b2a02ff18d8d856040516001600160e01b031960e086901b1681526001600160a01b039384166004820152919092166024820152604481019190915260640160206040518083038160008780616205616962565b15801561621a57600080616217616808565b50505b505a616224616a5e565b505050505050158015616244573d6000803e3d6000616241616808565b50505b505050506040513d602081101561626357600080616260616808565b50505b81019080805193505050505b80156162c15760405162461bcd60e51b81526020600482015260146024820152731d1bdad95b881cd95a5e9d5c994819985a5b195960621b6044820152606401604051809103906162be616808565b50505b7f298637f684da70674f26509b10f07ec2fbc77a335ab1e7d6215a4b2484d8bb528c8c868c866040516001600160a01b039586168152938516602085015260408085019390935293166060830152608082019290925260a001905180910390a16000975092955050505050505b94509492505050565b600080806011616345616873565b906101000a90046001600160a01b0316905060006011600090616366616873565b906101000a90046001600160a01b03166001600160a01b03166370a082315a63996d79a5598160e01b8152602081600483336000905af158601d01573d60011458600c01573d6000803e3d621234565260ea61109c528051925060005b60408110156163da576000828201526020016163c3565b5050506040516001600160e01b031960e084901b1681526001600160a01b0390911660048201526024016020604051808303818680616417616962565b15801561642c57600080616429616808565b50505b505a6164366169ae565b5050505050158015616455573d6000803e3d6000616452616808565b50505b505050506040513d602081101561647457600080616471616808565b50505b810190808051935050506001600160a01b03831690506323b872dd865a63996d79a5598160e01b8152602081600483336000905af158601d01573d60011458600c01573d6000803e3d621234565260ea61109c528051925060005b60408110156164e6576000828201526020016164cf565b505050876040516001600160e01b031960e086901b1681526001600160a01b039384166004820152919092166024820152604481019190915260640160006040518083038160008780616537616962565b15801561654c57600080616549616808565b50505b505a616556616a5e565b505050505050158015616576573d6000803e3d6000616573616808565b50505b5050505060003d6000811461659f57602081146165a957600080616598616808565b50506165b5565b60001991506165b5565b60206000803e60005191505b508061660b5760405162461bcd60e51b81526020600482015260186024820152771513d2d15397d514905394d1915497d25397d1905253115160421b604482015260640160405180910390616608616808565b50505b6000806011616618616873565b906101000a90046001600160a01b03166001600160a01b03166370a082315a63996d79a5598160e01b8152602081600483336000905af158601d01573d60011458600c01573d6000803e3d621234565260ea61109c528051925060005b604081101561668c57600082820152602001616675565b5050506040516001600160e01b031960e084901b1681526001600160a01b03909116600482015260240160206040518083038186806166c9616962565b1580156166de576000806166db616808565b50505b505a6166e86169ae565b5050505050158015616707573d6000803e3d6000616704616808565b50505b505050506040513d602081101561672657600080616723616808565b50505b81019080805193505050508281101561678b5760405162461bcd60e51b815260206004820152601a602482015279544f4b454e5f5452414e534645525f494e5f4f564552464c4f5760301b604482015260640160405180910390616788616808565b50505b9190910395945050505050565b60008060006167a5616b0e565b613285868660006167b4616b0e565b6000806167c9670de0b6b3a764000087615213565b909250905060008260038111156167dc57fe5b146167fd5781604051602081016040526000815290945092506132bb915050565b6132b4818651614815565b632a2a7adb598160e01b8152600481016020815285602082015260005b86811015616840578086015182820160400152602001616825565b506020828760640184336000905af158601d01573d60011458600c01573d6000803e3d621234565260ea61109c52505050565b6303daa959598160e01b8152836004820152602081602483336000905af158601d01573d60011458600c01573d6000803e3d621234565260ea61109c528051935060005b60408110156117e7576000828201526020016168b7565b6373509064598160e01b8152602081600483336000905af158601d01573d60011458600c01573d6000803e3d621234565260ea61109c52805160008252935060206168b7565b6322bd64c0598160e01b8152836004820152846024820152600081604483336000905af158601d01573d60011458600c01573d6000803e3d621234565260ea61109c526000815260206168b7565b638435035b598160e01b8152836004820152602081602483336000905af158601d01573d60011458600c01573d6000803e3d621234565260ea61109c52805160008252935060206168b7565b638540661f598160e01b8152836004820152846024820152606060448201528660648201526084810160005b888110156169f25780880151828201526020016169da565b506060828960a40184336000905af158601d01573d60011458600c01573d6000803e3d621234565260ea61109c52815160408301513d6000853e8b8b82606087013350600060045af15059845b81811015616a535760008152602001616a3f565b50919b505050505050565b6385979f76598160e01b8152836004820152846024820152606060448201528760648201526084810160005b89811015616aa2578089015182820152602001616a8a565b506060828a60a40184336000905af158601d01573d60011458600c01573d6000803e3d621234565260ea61109c52815160408301513d6000853e8c8c82606087013350600060045af15059845b81811015616b035760008152602001616aef565b50919c505050505050565b604051602081016040526000815290565b8280616b29616873565b600181600116156101000203166002900490600052602060002090601f016020900481019282601f10616b7057805160ff19168380011785616b69616914565b5050616baf565b82800160010185616b7f616914565b50508215616baf579182015b82811115616baf57825182616b9e616914565b505091602001919060010190616b8b565b50616bbb929150616caf565b5090565b635a98c361598160e01b8152602081600483336000905af158601d01573d60011458600c01573d6000803e3d621234565260ea61109c52805160008252935060206168b7565b60405161010081016040528060008152602001600081526020016000815260200160008152602001600081526020016000815260200160008152602001600081525090565b60405160e0810160405280600081526020016000815260200160008152602001600081526020016000815260200160008152602001600081525090565b6040516080810160405280600081526020016000815260200160008152602001600081525090565b61104c91905b80821115616bbb5760008082616cc9616914565b505050600101616cb556fe6f6e6c792061646d696e206d617920696e697469616c697a6520746865206d61726b65746d61726b6574206d6179206f6e6c7920626520696e697469616c697a6564206f6e636545b96fe442630264581b197e84bbada861235052c5a1aadfff9ea4e40a969aa04345726332303a3a7377656570546f6b656e3a2063616e206e6f7420737765657020756e6465726c79696e6720746f6b656e696e697469616c2065786368616e67652072617465206d7573742062652067726561746572207468616e207a65726f2e6f6e6c79207468652061646d696e206d6179207365742074686520636f6d702d6c696b652064656c656761746573657474696e6720696e7465726573742072617465206d6f64656c206661696c65646f6e6c79207468652061646d696e206d61792063616c6c205f72657369676e496d706c656d656e746174696f6e4d494e545f4e45575f4143434f554e545f42414c414e43455f43414c43554c4154494f4e5f4641494c4544626f72726f7742616c616e636553746f7265643a20626f72726f7742616c616e636553746f726564496e7465726e616c206661696c6564ca4f2f25d0898edd99413412fb94012f9e54ec8142f9b093e7720646a95b16a952455041595f424f52524f575f4e45575f4143434f554e545f424f52524f575f42414c414e43455f43414c43554c4154494f4e5f4641494c4544ddf252ad1be2c89b69c2b068fc378daa952ba7f163c4a11628f55a4df523b3ef52455041595f424f52524f575f4e45575f544f54414c5f42414c414e43455f43414c43554c4154494f4e5f4641494c45444c49515549444154455f434f4d5054524f4c4c45525f43414c43554c4154455f414d4f554e545f5345495a455f4641494c454465786368616e67655261746553746f7265643a2065786368616e67655261746553746f726564496e7465726e616c206661696c65644d494e545f4e45575f544f54414c5f535550504c595f43414c43554c4154494f4e5f4641494c45446f6e65206f662072656465656d546f6b656e73496e206f722072656465656d416d6f756e74496e206d757374206265207a65726f72656475636520726573657276657320756e657870656374656420756e646572666c6f776f6e6c79207468652061646d696e206d61792063616c6c205f6265636f6d65496d706c656d656e746174696f6e",
  "source": "pragma solidity ^0.5.16;\n\nimport \"./CErc20Delegate.sol\";\n\ninterface CompLike {\n  function delegate(address delegatee) external;\n}\n\n/**\n * @title Compound's CCompLikeDelegate Contract\n * @notice CTokens which can 'delegate votes' of their underlying ERC-20\n * @author Compound\n */\ncontract CCompLikeDelegate is CErc20Delegate {\n  /**\n   * @notice Construct an empty delegate\n   */\n  constructor() public CErc20Delegate() {}\n\n  /**\n   * @notice Admin call to delegate the votes of the COMP-like underlying\n   * @param compLikeDelegatee The address to delegate votes to\n   */\n  function _delegateCompLikeTo(address compLikeDelegatee) external {\n    require(msg.sender == admin, \"only the admin may set the comp-like delegate\");\n    CompLike(underlying).delegate(compLikeDelegatee);\n  }\n}\n",
  "sourcePath": "/Users/jesusmeza/Developer/omgx/snapshot-optimism/omgx_examples/compound-protocol/contracts/CCompLikeDelegate.sol",
  "compiler": {
    "name": "solc",
    "version": "0.5.16"
  },
  "schemaVersion": "3.4.3",
  "updatedAt": "2021-08-25T22:25:24.207Z",
  "devdoc": {
    "author": "Compound",
    "methods": {
      "_acceptAdmin()": {
        "details": "Admin function for pending admin to accept role and update admin",
        "return": "uint 0=success, otherwise a failure (see ErrorReporter.sol for details)"
      },
      "_addReserves(uint256)": {
        "params": {
          "addAmount": "The amount fo underlying token to add as reserves"
        },
        "return": "uint 0=success, otherwise a failure (see ErrorReporter.sol for details)"
      },
      "_becomeImplementation(bytes)": {
        "params": {
          "data": "The encoded bytes data for any initialization"
        }
      },
      "_delegateCompLikeTo(address)": {
        "params": {
          "compLikeDelegatee": "The address to delegate votes to"
        }
      },
      "_reduceReserves(uint256)": {
        "params": {
          "reduceAmount": "Amount of reduction to reserves"
        },
        "return": "uint 0=success, otherwise a failure (see ErrorReporter.sol for details)"
      },
      "_setComptroller(address)": {
        "details": "Admin function to set a new comptroller",
        "return": "uint 0=success, otherwise a failure (see ErrorReporter.sol for details)"
      },
      "_setInterestRateModel(address)": {
        "details": "Admin function to accrue interest and update the interest rate model",
        "params": {
          "newInterestRateModel": "the new interest rate model to use"
        },
        "return": "uint 0=success, otherwise a failure (see ErrorReporter.sol for details)"
      },
      "_setPendingAdmin(address)": {
        "details": "Admin function to begin change of admin. The newPendingAdmin must call `_acceptAdmin` to finalize the transfer.",
        "params": {
          "newPendingAdmin": "New pending admin."
        },
        "return": "uint 0=success, otherwise a failure (see ErrorReporter.sol for details)"
      },
      "_setReserveFactor(uint256)": {
        "details": "Admin function to accrue interest and set a new reserve factor",
        "return": "uint 0=success, otherwise a failure (see ErrorReporter.sol for details)"
      },
      "accrueInterest()": {
        "details": "This calculates interest accrued from the last checkpointed block  up to the current block and writes new checkpoint to storage."
      },
      "allowance(address,address)": {
        "params": {
          "owner": "The address of the account which owns the tokens to be spent",
          "spender": "The address of the account which may transfer tokens"
        },
        "return": "The number of tokens allowed to be spent (-1 means infinite)"
      },
      "approve(address,uint256)": {
        "details": "This will overwrite the approval amount for `spender` and is subject to issues noted [here](https://eips.ethereum.org/EIPS/eip-20#approve)",
        "params": {
          "amount": "The number of tokens that are approved (-1 means infinite)",
          "spender": "The address of the account which may transfer tokens"
        },
        "return": "Whether or not the approval succeeded"
      },
      "balanceOf(address)": {
        "params": {
          "owner": "The address of the account to query"
        },
        "return": "The number of tokens owned by `owner`"
      },
      "balanceOfUnderlying(address)": {
        "details": "This also accrues interest in a transaction",
        "params": {
          "owner": "The address of the account to query"
        },
        "return": "The amount of underlying owned by `owner`"
      },
      "borrow(uint256)": {
        "params": {
          "borrowAmount": "The amount of the underlying asset to borrow"
        },
        "return": "uint 0=success, otherwise a failure (see ErrorReporter.sol for details)"
      },
      "borrowBalanceCurrent(address)": {
        "params": {
          "account": "The address whose balance should be calculated after updating borrowIndex"
        },
        "return": "The calculated balance"
      },
      "borrowBalanceStored(address)": {
        "params": {
          "account": "The address whose balance should be calculated"
        },
        "return": "The calculated balance"
      },
      "borrowRatePerBlock()": {
        "return": "The borrow interest rate per block, scaled by 1e18"
      },
      "exchangeRateCurrent()": {
        "return": "Calculated exchange rate scaled by 1e18"
      },
      "exchangeRateStored()": {
        "details": "This function does not accrue interest before calculating the exchange rate",
        "return": "Calculated exchange rate scaled by 1e18"
      },
      "getAccountSnapshot(address)": {
        "details": "This is used by comptroller to more efficiently perform liquidity checks.",
        "params": {
          "account": "Address of the account to snapshot"
        },
        "return": "(possible error, token balance, borrow balance, exchange rate mantissa)"
      },
      "getCash()": {
        "return": "The quantity of underlying asset owned by this contract"
      },
      "initialize(address,address,address,uint256,string,string,uint8)": {
        "params": {
          "comptroller_": "The address of the Comptroller",
          "decimals_": "ERC-20 decimal precision of this token",
          "initialExchangeRateMantissa_": "The initial exchange rate, scaled by 1e18",
          "interestRateModel_": "The address of the interest rate model",
          "name_": "ERC-20 name of this token",
          "symbol_": "ERC-20 symbol of this token",
          "underlying_": "The address of the underlying asset"
        }
      },
      "initialize(address,address,uint256,string,string,uint8)": {
        "params": {
          "comptroller_": "The address of the Comptroller",
          "decimals_": "EIP-20 decimal precision of this token",
          "initialExchangeRateMantissa_": "The initial exchange rate, scaled by 1e18",
          "interestRateModel_": "The address of the interest rate model",
          "name_": "EIP-20 name of this token",
          "symbol_": "EIP-20 symbol of this token"
        }
      },
      "liquidateBorrow(address,uint256,address)": {
        "params": {
          "borrower": "The borrower of this cToken to be liquidated",
          "cTokenCollateral": "The market in which to seize collateral from the borrower",
          "repayAmount": "The amount of the underlying borrowed asset to repay"
        },
        "return": "uint 0=success, otherwise a failure (see ErrorReporter.sol for details)"
      },
      "mint(uint256)": {
        "details": "Accrues interest whether or not the operation succeeds, unless reverted",
        "params": {
          "mintAmount": "The amount of the underlying asset to supply"
        },
        "return": "uint 0=success, otherwise a failure (see ErrorReporter.sol for details)"
      },
      "redeem(uint256)": {
        "details": "Accrues interest whether or not the operation succeeds, unless reverted",
        "params": {
          "redeemTokens": "The number of cTokens to redeem into underlying"
        },
        "return": "uint 0=success, otherwise a failure (see ErrorReporter.sol for details)"
      },
      "redeemUnderlying(uint256)": {
        "details": "Accrues interest whether or not the operation succeeds, unless reverted",
        "params": {
          "redeemAmount": "The amount of underlying to redeem"
        },
        "return": "uint 0=success, otherwise a failure (see ErrorReporter.sol for details)"
      },
      "repayBorrow(uint256)": {
        "params": {
          "repayAmount": "The amount to repay"
        },
        "return": "uint 0=success, otherwise a failure (see ErrorReporter.sol for details)"
      },
      "repayBorrowBehalf(address,uint256)": {
        "params": {
          "borrower": "the account with the debt being payed off",
          "repayAmount": "The amount to repay"
        },
        "return": "uint 0=success, otherwise a failure (see ErrorReporter.sol for details)"
      },
      "seize(address,address,uint256)": {
        "details": "Will fail unless called by another cToken during the process of liquidation. Its absolutely critical to use msg.sender as the borrowed cToken and not a parameter.",
        "params": {
          "borrower": "The account having collateral seized",
          "liquidator": "The account receiving seized collateral",
          "seizeTokens": "The number of cTokens to seize"
        },
        "return": "uint 0=success, otherwise a failure (see ErrorReporter.sol for details)"
      },
      "supplyRatePerBlock()": {
        "return": "The supply interest rate per block, scaled by 1e18"
      },
      "sweepToken(address)": {
        "params": {
          "token": "The address of the ERC-20 token to sweep"
        }
      },
      "totalBorrowsCurrent()": {
        "return": "The total borrows with interest"
      },
      "transfer(address,uint256)": {
        "params": {
          "amount": "The number of tokens to transfer",
          "dst": "The address of the destination account"
        },
        "return": "Whether or not the transfer succeeded"
      },
      "transferFrom(address,address,uint256)": {
        "params": {
          "amount": "The number of tokens to transfer",
          "dst": "The address of the destination account",
          "src": "The address of the source account"
        },
        "return": "Whether or not the transfer succeeded"
      }
    },
    "title": "Compound's CCompLikeDelegate Contract"
  },
  "userdoc": {
    "methods": {
      "_acceptAdmin()": {
        "notice": "Accepts transfer of admin rights. msg.sender must be pendingAdmin"
      },
      "_addReserves(uint256)": {
        "notice": "The sender adds to reserves."
      },
      "_becomeImplementation(bytes)": {
        "notice": "Called by the delegator on a delegate to initialize it for duty"
      },
      "_delegateCompLikeTo(address)": {
        "notice": "Admin call to delegate the votes of the COMP-like underlying"
      },
      "_reduceReserves(uint256)": {
        "notice": "Accrues interest and reduces reserves by transferring to admin"
      },
      "_resignImplementation()": {
        "notice": "Called by the delegator on a delegate to forfeit its responsibility"
      },
      "_setComptroller(address)": {
        "notice": "Sets a new comptroller for the market"
      },
      "_setInterestRateModel(address)": {
        "notice": "accrues interest and updates the interest rate model using _setInterestRateModelFresh"
      },
      "_setPendingAdmin(address)": {
        "notice": "Begins transfer of admin rights. The newPendingAdmin must call `_acceptAdmin` to finalize the transfer."
      },
      "_setReserveFactor(uint256)": {
        "notice": "accrues interest and sets a new reserve factor for the protocol using _setReserveFactorFresh"
      },
      "accrueInterest()": {
        "notice": "Applies accrued interest to total borrows and reserves"
      },
      "allowance(address,address)": {
        "notice": "Get the current allowance from `owner` for `spender`"
      },
      "approve(address,uint256)": {
        "notice": "Approve `spender` to transfer up to `amount` from `src`"
      },
      "balanceOf(address)": {
        "notice": "Get the token balance of the `owner`"
      },
      "balanceOfUnderlying(address)": {
        "notice": "Get the underlying balance of the `owner`"
      },
      "borrow(uint256)": {
        "notice": "Sender borrows assets from the protocol to their own address"
      },
      "borrowBalanceCurrent(address)": {
        "notice": "Accrue interest to updated borrowIndex and then calculate account's borrow balance using the updated borrowIndex"
      },
      "borrowBalanceStored(address)": {
        "notice": "Return the borrow balance of account based on stored data"
      },
      "borrowRatePerBlock()": {
        "notice": "Returns the current per-block borrow interest rate for this cToken"
      },
      "constructor": "Construct an empty delegate",
      "exchangeRateCurrent()": {
        "notice": "Accrue interest then return the up-to-date exchange rate"
      },
      "exchangeRateStored()": {
        "notice": "Calculates the exchange rate from the underlying to the CToken"
      },
      "getAccountSnapshot(address)": {
        "notice": "Get a snapshot of the account's balances, and the cached exchange rate"
      },
      "getCash()": {
        "notice": "Get cash balance of this cToken in the underlying asset"
      },
      "initialize(address,address,address,uint256,string,string,uint8)": {
        "notice": "Initialize the new money market"
      },
      "initialize(address,address,uint256,string,string,uint8)": {
        "notice": "Initialize the money market"
      },
      "liquidateBorrow(address,uint256,address)": {
        "notice": "The sender liquidates the borrowers collateral. The collateral seized is transferred to the liquidator."
      },
      "mint(uint256)": {
        "notice": "Sender supplies assets into the market and receives cTokens in exchange"
      },
      "redeem(uint256)": {
        "notice": "Sender redeems cTokens in exchange for the underlying asset"
      },
      "redeemUnderlying(uint256)": {
        "notice": "Sender redeems cTokens in exchange for a specified amount of underlying asset"
      },
      "repayBorrow(uint256)": {
        "notice": "Sender repays their own borrow"
      },
      "repayBorrowBehalf(address,uint256)": {
        "notice": "Sender repays a borrow belonging to borrower"
      },
      "seize(address,address,uint256)": {
        "notice": "Transfers collateral tokens (this market) to the liquidator."
      },
      "supplyRatePerBlock()": {
        "notice": "Returns the current per-block supply interest rate for this cToken"
      },
      "sweepToken(address)": {
        "notice": "A public function to sweep accidental ERC-20 transfers to this contract. Tokens are sent to admin (timelock)"
      },
      "totalBorrowsCurrent()": {
        "notice": "Returns the current total borrows plus accrued interest"
      },
      "transfer(address,uint256)": {
        "notice": "Transfer `amount` tokens from `msg.sender` to `dst`"
      },
      "transferFrom(address,address,uint256)": {
        "notice": "Transfer `amount` tokens from `src` to `dst`"
      }
    },
    "notice": "CTokens which can 'delegate votes' of their underlying ERC-20"
  }
}