{
  "contractName": "CDaiDelegate",
  "abi": [
    {
      "anonymous": false,
      "inputs": [
        {
          "indexed": false,
          "internalType": "uint256",
          "name": "cashPrior",
          "type": "uint256"
        },
        {
          "indexed": false,
          "internalType": "uint256",
          "name": "interestAccumulated",
          "type": "uint256"
        },
        {
          "indexed": false,
          "internalType": "uint256",
          "name": "borrowIndex",
          "type": "uint256"
        },
        {
          "indexed": false,
          "internalType": "uint256",
          "name": "totalBorrows",
          "type": "uint256"
        }
      ],
      "name": "AccrueInterest",
      "type": "event"
    },
    {
      "anonymous": false,
      "inputs": [
        {
          "indexed": true,
          "internalType": "address",
          "name": "owner",
          "type": "address"
        },
        {
          "indexed": true,
          "internalType": "address",
          "name": "spender",
          "type": "address"
        },
        {
          "indexed": false,
          "internalType": "uint256",
          "name": "amount",
          "type": "uint256"
        }
      ],
      "name": "Approval",
      "type": "event"
    },
    {
      "anonymous": false,
      "inputs": [
        {
          "indexed": false,
          "internalType": "address",
          "name": "borrower",
          "type": "address"
        },
        {
          "indexed": false,
          "internalType": "uint256",
          "name": "borrowAmount",
          "type": "uint256"
        },
        {
          "indexed": false,
          "internalType": "uint256",
          "name": "accountBorrows",
          "type": "uint256"
        },
        {
          "indexed": false,
          "internalType": "uint256",
          "name": "totalBorrows",
          "type": "uint256"
        }
      ],
      "name": "Borrow",
      "type": "event"
    },
    {
      "anonymous": false,
      "inputs": [
        {
          "indexed": false,
          "internalType": "uint256",
          "name": "error",
          "type": "uint256"
        },
        {
          "indexed": false,
          "internalType": "uint256",
          "name": "info",
          "type": "uint256"
        },
        {
          "indexed": false,
          "internalType": "uint256",
          "name": "detail",
          "type": "uint256"
        }
      ],
      "name": "Failure",
      "type": "event"
    },
    {
      "anonymous": false,
      "inputs": [
        {
          "indexed": false,
          "internalType": "address",
          "name": "liquidator",
          "type": "address"
        },
        {
          "indexed": false,
          "internalType": "address",
          "name": "borrower",
          "type": "address"
        },
        {
          "indexed": false,
          "internalType": "uint256",
          "name": "repayAmount",
          "type": "uint256"
        },
        {
          "indexed": false,
          "internalType": "address",
          "name": "cTokenCollateral",
          "type": "address"
        },
        {
          "indexed": false,
          "internalType": "uint256",
          "name": "seizeTokens",
          "type": "uint256"
        }
      ],
      "name": "LiquidateBorrow",
      "type": "event"
    },
    {
      "anonymous": false,
      "inputs": [
        {
          "indexed": false,
          "internalType": "address",
          "name": "minter",
          "type": "address"
        },
        {
          "indexed": false,
          "internalType": "uint256",
          "name": "mintAmount",
          "type": "uint256"
        },
        {
          "indexed": false,
          "internalType": "uint256",
          "name": "mintTokens",
          "type": "uint256"
        }
      ],
      "name": "Mint",
      "type": "event"
    },
    {
      "anonymous": false,
      "inputs": [
        {
          "indexed": false,
          "internalType": "address",
          "name": "oldAdmin",
          "type": "address"
        },
        {
          "indexed": false,
          "internalType": "address",
          "name": "newAdmin",
          "type": "address"
        }
      ],
      "name": "NewAdmin",
      "type": "event"
    },
    {
      "anonymous": false,
      "inputs": [
        {
          "indexed": false,
          "internalType": "contract ComptrollerInterface",
          "name": "oldComptroller",
          "type": "address"
        },
        {
          "indexed": false,
          "internalType": "contract ComptrollerInterface",
          "name": "newComptroller",
          "type": "address"
        }
      ],
      "name": "NewComptroller",
      "type": "event"
    },
    {
      "anonymous": false,
      "inputs": [
        {
          "indexed": false,
          "internalType": "contract InterestRateModel",
          "name": "oldInterestRateModel",
          "type": "address"
        },
        {
          "indexed": false,
          "internalType": "contract InterestRateModel",
          "name": "newInterestRateModel",
          "type": "address"
        }
      ],
      "name": "NewMarketInterestRateModel",
      "type": "event"
    },
    {
      "anonymous": false,
      "inputs": [
        {
          "indexed": false,
          "internalType": "address",
          "name": "oldPendingAdmin",
          "type": "address"
        },
        {
          "indexed": false,
          "internalType": "address",
          "name": "newPendingAdmin",
          "type": "address"
        }
      ],
      "name": "NewPendingAdmin",
      "type": "event"
    },
    {
      "anonymous": false,
      "inputs": [
        {
          "indexed": false,
          "internalType": "uint256",
          "name": "oldReserveFactorMantissa",
          "type": "uint256"
        },
        {
          "indexed": false,
          "internalType": "uint256",
          "name": "newReserveFactorMantissa",
          "type": "uint256"
        }
      ],
      "name": "NewReserveFactor",
      "type": "event"
    },
    {
      "anonymous": false,
      "inputs": [
        {
          "indexed": false,
          "internalType": "address",
          "name": "redeemer",
          "type": "address"
        },
        {
          "indexed": false,
          "internalType": "uint256",
          "name": "redeemAmount",
          "type": "uint256"
        },
        {
          "indexed": false,
          "internalType": "uint256",
          "name": "redeemTokens",
          "type": "uint256"
        }
      ],
      "name": "Redeem",
      "type": "event"
    },
    {
      "anonymous": false,
      "inputs": [
        {
          "indexed": false,
          "internalType": "address",
          "name": "payer",
          "type": "address"
        },
        {
          "indexed": false,
          "internalType": "address",
          "name": "borrower",
          "type": "address"
        },
        {
          "indexed": false,
          "internalType": "uint256",
          "name": "repayAmount",
          "type": "uint256"
        },
        {
          "indexed": false,
          "internalType": "uint256",
          "name": "accountBorrows",
          "type": "uint256"
        },
        {
          "indexed": false,
          "internalType": "uint256",
          "name": "totalBorrows",
          "type": "uint256"
        }
      ],
      "name": "RepayBorrow",
      "type": "event"
    },
    {
      "anonymous": false,
      "inputs": [
        {
          "indexed": false,
          "internalType": "address",
          "name": "benefactor",
          "type": "address"
        },
        {
          "indexed": false,
          "internalType": "uint256",
          "name": "addAmount",
          "type": "uint256"
        },
        {
          "indexed": false,
          "internalType": "uint256",
          "name": "newTotalReserves",
          "type": "uint256"
        }
      ],
      "name": "ReservesAdded",
      "type": "event"
    },
    {
      "anonymous": false,
      "inputs": [
        {
          "indexed": false,
          "internalType": "address",
          "name": "admin",
          "type": "address"
        },
        {
          "indexed": false,
          "internalType": "uint256",
          "name": "reduceAmount",
          "type": "uint256"
        },
        {
          "indexed": false,
          "internalType": "uint256",
          "name": "newTotalReserves",
          "type": "uint256"
        }
      ],
      "name": "ReservesReduced",
      "type": "event"
    },
    {
      "anonymous": false,
      "inputs": [
        {
          "indexed": true,
          "internalType": "address",
          "name": "from",
          "type": "address"
        },
        {
          "indexed": true,
          "internalType": "address",
          "name": "to",
          "type": "address"
        },
        {
          "indexed": false,
          "internalType": "uint256",
          "name": "amount",
          "type": "uint256"
        }
      ],
      "name": "Transfer",
      "type": "event"
    },
    {
      "constant": false,
      "inputs": [],
      "name": "_acceptAdmin",
      "outputs": [
        {
          "internalType": "uint256",
          "name": "",
          "type": "uint256"
        }
      ],
      "payable": false,
      "stateMutability": "nonpayable",
      "type": "function"
    },
    {
      "constant": false,
      "inputs": [
        {
          "internalType": "uint256",
          "name": "addAmount",
          "type": "uint256"
        }
      ],
      "name": "_addReserves",
      "outputs": [
        {
          "internalType": "uint256",
          "name": "",
          "type": "uint256"
        }
      ],
      "payable": false,
      "stateMutability": "nonpayable",
      "type": "function"
    },
    {
      "constant": false,
      "inputs": [
        {
          "internalType": "uint256",
          "name": "reduceAmount",
          "type": "uint256"
        }
      ],
      "name": "_reduceReserves",
      "outputs": [
        {
          "internalType": "uint256",
          "name": "",
          "type": "uint256"
        }
      ],
      "payable": false,
      "stateMutability": "nonpayable",
      "type": "function"
    },
    {
      "constant": false,
      "inputs": [
        {
          "internalType": "contract ComptrollerInterface",
          "name": "newComptroller",
          "type": "address"
        }
      ],
      "name": "_setComptroller",
      "outputs": [
        {
          "internalType": "uint256",
          "name": "",
          "type": "uint256"
        }
      ],
      "payable": false,
      "stateMutability": "nonpayable",
      "type": "function"
    },
    {
      "constant": false,
      "inputs": [
        {
          "internalType": "contract InterestRateModel",
          "name": "newInterestRateModel",
          "type": "address"
        }
      ],
      "name": "_setInterestRateModel",
      "outputs": [
        {
          "internalType": "uint256",
          "name": "",
          "type": "uint256"
        }
      ],
      "payable": false,
      "stateMutability": "nonpayable",
      "type": "function"
    },
    {
      "constant": false,
      "inputs": [
        {
          "internalType": "address payable",
          "name": "newPendingAdmin",
          "type": "address"
        }
      ],
      "name": "_setPendingAdmin",
      "outputs": [
        {
          "internalType": "uint256",
          "name": "",
          "type": "uint256"
        }
      ],
      "payable": false,
      "stateMutability": "nonpayable",
      "type": "function"
    },
    {
      "constant": false,
      "inputs": [
        {
          "internalType": "uint256",
          "name": "newReserveFactorMantissa",
          "type": "uint256"
        }
      ],
      "name": "_setReserveFactor",
      "outputs": [
        {
          "internalType": "uint256",
          "name": "",
          "type": "uint256"
        }
      ],
      "payable": false,
      "stateMutability": "nonpayable",
      "type": "function"
    },
    {
      "constant": true,
      "inputs": [],
      "name": "accrualBlockNumber",
      "outputs": [
        {
          "internalType": "uint256",
          "name": "",
          "type": "uint256"
        }
      ],
      "payable": false,
      "stateMutability": "view",
      "type": "function"
    },
    {
      "constant": true,
      "inputs": [],
      "name": "admin",
      "outputs": [
        {
          "internalType": "address payable",
          "name": "",
          "type": "address"
        }
      ],
      "payable": false,
      "stateMutability": "view",
      "type": "function"
    },
    {
      "constant": true,
      "inputs": [
        {
          "internalType": "address",
          "name": "owner",
          "type": "address"
        },
        {
          "internalType": "address",
          "name": "spender",
          "type": "address"
        }
      ],
      "name": "allowance",
      "outputs": [
        {
          "internalType": "uint256",
          "name": "",
          "type": "uint256"
        }
      ],
      "payable": false,
      "stateMutability": "view",
      "type": "function"
    },
    {
      "constant": false,
      "inputs": [
        {
          "internalType": "address",
          "name": "spender",
          "type": "address"
        },
        {
          "internalType": "uint256",
          "name": "amount",
          "type": "uint256"
        }
      ],
      "name": "approve",
      "outputs": [
        {
          "internalType": "bool",
          "name": "",
          "type": "bool"
        }
      ],
      "payable": false,
      "stateMutability": "nonpayable",
      "type": "function"
    },
    {
      "constant": true,
      "inputs": [
        {
          "internalType": "address",
          "name": "owner",
          "type": "address"
        }
      ],
      "name": "balanceOf",
      "outputs": [
        {
          "internalType": "uint256",
          "name": "",
          "type": "uint256"
        }
      ],
      "payable": false,
      "stateMutability": "view",
      "type": "function"
    },
    {
      "constant": false,
      "inputs": [
        {
          "internalType": "address",
          "name": "owner",
          "type": "address"
        }
      ],
      "name": "balanceOfUnderlying",
      "outputs": [
        {
          "internalType": "uint256",
          "name": "",
          "type": "uint256"
        }
      ],
      "payable": false,
      "stateMutability": "nonpayable",
      "type": "function"
    },
    {
      "constant": false,
      "inputs": [
        {
          "internalType": "uint256",
          "name": "borrowAmount",
          "type": "uint256"
        }
      ],
      "name": "borrow",
      "outputs": [
        {
          "internalType": "uint256",
          "name": "",
          "type": "uint256"
        }
      ],
      "payable": false,
      "stateMutability": "nonpayable",
      "type": "function"
    },
    {
      "constant": false,
      "inputs": [
        {
          "internalType": "address",
          "name": "account",
          "type": "address"
        }
      ],
      "name": "borrowBalanceCurrent",
      "outputs": [
        {
          "internalType": "uint256",
          "name": "",
          "type": "uint256"
        }
      ],
      "payable": false,
      "stateMutability": "nonpayable",
      "type": "function"
    },
    {
      "constant": true,
      "inputs": [
        {
          "internalType": "address",
          "name": "account",
          "type": "address"
        }
      ],
      "name": "borrowBalanceStored",
      "outputs": [
        {
          "internalType": "uint256",
          "name": "",
          "type": "uint256"
        }
      ],
      "payable": false,
      "stateMutability": "view",
      "type": "function"
    },
    {
      "constant": true,
      "inputs": [],
      "name": "borrowIndex",
      "outputs": [
        {
          "internalType": "uint256",
          "name": "",
          "type": "uint256"
        }
      ],
      "payable": false,
      "stateMutability": "view",
      "type": "function"
    },
    {
      "constant": true,
      "inputs": [],
      "name": "borrowRatePerBlock",
      "outputs": [
        {
          "internalType": "uint256",
          "name": "",
          "type": "uint256"
        }
      ],
      "payable": false,
      "stateMutability": "view",
      "type": "function"
    },
    {
      "constant": true,
      "inputs": [],
      "name": "comptroller",
      "outputs": [
        {
          "internalType": "contract ComptrollerInterface",
          "name": "",
          "type": "address"
        }
      ],
      "payable": false,
      "stateMutability": "view",
      "type": "function"
    },
    {
      "constant": true,
      "inputs": [],
      "name": "daiJoinAddress",
      "outputs": [
        {
          "internalType": "address",
          "name": "",
          "type": "address"
        }
      ],
      "payable": false,
      "stateMutability": "view",
      "type": "function"
    },
    {
      "constant": true,
      "inputs": [],
      "name": "decimals",
      "outputs": [
        {
          "internalType": "uint8",
          "name": "",
          "type": "uint8"
        }
      ],
      "payable": false,
      "stateMutability": "view",
      "type": "function"
    },
    {
      "constant": false,
      "inputs": [],
      "name": "exchangeRateCurrent",
      "outputs": [
        {
          "internalType": "uint256",
          "name": "",
          "type": "uint256"
        }
      ],
      "payable": false,
      "stateMutability": "nonpayable",
      "type": "function"
    },
    {
      "constant": true,
      "inputs": [],
      "name": "exchangeRateStored",
      "outputs": [
        {
          "internalType": "uint256",
          "name": "",
          "type": "uint256"
        }
      ],
      "payable": false,
      "stateMutability": "view",
      "type": "function"
    },
    {
      "constant": true,
      "inputs": [
        {
          "internalType": "address",
          "name": "account",
          "type": "address"
        }
      ],
      "name": "getAccountSnapshot",
      "outputs": [
        {
          "internalType": "uint256",
          "name": "",
          "type": "uint256"
        },
        {
          "internalType": "uint256",
          "name": "",
          "type": "uint256"
        },
        {
          "internalType": "uint256",
          "name": "",
          "type": "uint256"
        },
        {
          "internalType": "uint256",
          "name": "",
          "type": "uint256"
        }
      ],
      "payable": false,
      "stateMutability": "view",
      "type": "function"
    },
    {
      "constant": true,
      "inputs": [],
      "name": "getCash",
      "outputs": [
        {
          "internalType": "uint256",
          "name": "",
          "type": "uint256"
        }
      ],
      "payable": false,
      "stateMutability": "view",
      "type": "function"
    },
    {
      "constant": true,
      "inputs": [],
      "name": "implementation",
      "outputs": [
        {
          "internalType": "address",
          "name": "",
          "type": "address"
        }
      ],
      "payable": false,
      "stateMutability": "view",
      "type": "function"
    },
    {
      "constant": false,
      "inputs": [
        {
          "internalType": "address",
          "name": "underlying_",
          "type": "address"
        },
        {
          "internalType": "contract ComptrollerInterface",
          "name": "comptroller_",
          "type": "address"
        },
        {
          "internalType": "contract InterestRateModel",
          "name": "interestRateModel_",
          "type": "address"
        },
        {
          "internalType": "uint256",
          "name": "initialExchangeRateMantissa_",
          "type": "uint256"
        },
        {
          "internalType": "string",
          "name": "name_",
          "type": "string"
        },
        {
          "internalType": "string",
          "name": "symbol_",
          "type": "string"
        },
        {
          "internalType": "uint8",
          "name": "decimals_",
          "type": "uint8"
        }
      ],
      "name": "initialize",
      "outputs": [],
      "payable": false,
      "stateMutability": "nonpayable",
      "type": "function"
    },
    {
      "constant": false,
      "inputs": [
        {
          "internalType": "contract ComptrollerInterface",
          "name": "comptroller_",
          "type": "address"
        },
        {
          "internalType": "contract InterestRateModel",
          "name": "interestRateModel_",
          "type": "address"
        },
        {
          "internalType": "uint256",
          "name": "initialExchangeRateMantissa_",
          "type": "uint256"
        },
        {
          "internalType": "string",
          "name": "name_",
          "type": "string"
        },
        {
          "internalType": "string",
          "name": "symbol_",
          "type": "string"
        },
        {
          "internalType": "uint8",
          "name": "decimals_",
          "type": "uint8"
        }
      ],
      "name": "initialize",
      "outputs": [],
      "payable": false,
      "stateMutability": "nonpayable",
      "type": "function"
    },
    {
      "constant": true,
      "inputs": [],
      "name": "interestRateModel",
      "outputs": [
        {
          "internalType": "contract InterestRateModel",
          "name": "",
          "type": "address"
        }
      ],
      "payable": false,
      "stateMutability": "view",
      "type": "function"
    },
    {
      "constant": true,
      "inputs": [],
      "name": "isCToken",
      "outputs": [
        {
          "internalType": "bool",
          "name": "",
          "type": "bool"
        }
      ],
      "payable": false,
      "stateMutability": "view",
      "type": "function"
    },
    {
      "constant": false,
      "inputs": [
        {
          "internalType": "address",
          "name": "borrower",
          "type": "address"
        },
        {
          "internalType": "uint256",
          "name": "repayAmount",
          "type": "uint256"
        },
        {
          "internalType": "contract CTokenInterface",
          "name": "cTokenCollateral",
          "type": "address"
        }
      ],
      "name": "liquidateBorrow",
      "outputs": [
        {
          "internalType": "uint256",
          "name": "",
          "type": "uint256"
        }
      ],
      "payable": false,
      "stateMutability": "nonpayable",
      "type": "function"
    },
    {
      "constant": false,
      "inputs": [
        {
          "internalType": "uint256",
          "name": "mintAmount",
          "type": "uint256"
        }
      ],
      "name": "mint",
      "outputs": [
        {
          "internalType": "uint256",
          "name": "",
          "type": "uint256"
        }
      ],
      "payable": false,
      "stateMutability": "nonpayable",
      "type": "function"
    },
    {
      "constant": true,
      "inputs": [],
      "name": "name",
      "outputs": [
        {
          "internalType": "string",
          "name": "",
          "type": "string"
        }
      ],
      "payable": false,
      "stateMutability": "view",
      "type": "function"
    },
    {
      "constant": true,
      "inputs": [],
      "name": "pendingAdmin",
      "outputs": [
        {
          "internalType": "address payable",
          "name": "",
          "type": "address"
        }
      ],
      "payable": false,
      "stateMutability": "view",
      "type": "function"
    },
    {
      "constant": true,
      "inputs": [],
      "name": "potAddress",
      "outputs": [
        {
          "internalType": "address",
          "name": "",
          "type": "address"
        }
      ],
      "payable": false,
      "stateMutability": "view",
      "type": "function"
    },
    {
      "constant": false,
      "inputs": [
        {
          "internalType": "uint256",
          "name": "redeemTokens",
          "type": "uint256"
        }
      ],
      "name": "redeem",
      "outputs": [
        {
          "internalType": "uint256",
          "name": "",
          "type": "uint256"
        }
      ],
      "payable": false,
      "stateMutability": "nonpayable",
      "type": "function"
    },
    {
      "constant": false,
      "inputs": [
        {
          "internalType": "uint256",
          "name": "redeemAmount",
          "type": "uint256"
        }
      ],
      "name": "redeemUnderlying",
      "outputs": [
        {
          "internalType": "uint256",
          "name": "",
          "type": "uint256"
        }
      ],
      "payable": false,
      "stateMutability": "nonpayable",
      "type": "function"
    },
    {
      "constant": false,
      "inputs": [
        {
          "internalType": "uint256",
          "name": "repayAmount",
          "type": "uint256"
        }
      ],
      "name": "repayBorrow",
      "outputs": [
        {
          "internalType": "uint256",
          "name": "",
          "type": "uint256"
        }
      ],
      "payable": false,
      "stateMutability": "nonpayable",
      "type": "function"
    },
    {
      "constant": false,
      "inputs": [
        {
          "internalType": "address",
          "name": "borrower",
          "type": "address"
        },
        {
          "internalType": "uint256",
          "name": "repayAmount",
          "type": "uint256"
        }
      ],
      "name": "repayBorrowBehalf",
      "outputs": [
        {
          "internalType": "uint256",
          "name": "",
          "type": "uint256"
        }
      ],
      "payable": false,
      "stateMutability": "nonpayable",
      "type": "function"
    },
    {
      "constant": true,
      "inputs": [],
      "name": "reserveFactorMantissa",
      "outputs": [
        {
          "internalType": "uint256",
          "name": "",
          "type": "uint256"
        }
      ],
      "payable": false,
      "stateMutability": "view",
      "type": "function"
    },
    {
      "constant": false,
      "inputs": [
        {
          "internalType": "address",
          "name": "liquidator",
          "type": "address"
        },
        {
          "internalType": "address",
          "name": "borrower",
          "type": "address"
        },
        {
          "internalType": "uint256",
          "name": "seizeTokens",
          "type": "uint256"
        }
      ],
      "name": "seize",
      "outputs": [
        {
          "internalType": "uint256",
          "name": "",
          "type": "uint256"
        }
      ],
      "payable": false,
      "stateMutability": "nonpayable",
      "type": "function"
    },
    {
      "constant": true,
      "inputs": [],
      "name": "supplyRatePerBlock",
      "outputs": [
        {
          "internalType": "uint256",
          "name": "",
          "type": "uint256"
        }
      ],
      "payable": false,
      "stateMutability": "view",
      "type": "function"
    },
    {
      "constant": false,
      "inputs": [
        {
          "internalType": "contract EIP20NonStandardInterface",
          "name": "token",
          "type": "address"
        }
      ],
      "name": "sweepToken",
      "outputs": [],
      "payable": false,
      "stateMutability": "nonpayable",
      "type": "function"
    },
    {
      "constant": true,
      "inputs": [],
      "name": "symbol",
      "outputs": [
        {
          "internalType": "string",
          "name": "",
          "type": "string"
        }
      ],
      "payable": false,
      "stateMutability": "view",
      "type": "function"
    },
    {
      "constant": true,
      "inputs": [],
      "name": "totalBorrows",
      "outputs": [
        {
          "internalType": "uint256",
          "name": "",
          "type": "uint256"
        }
      ],
      "payable": false,
      "stateMutability": "view",
      "type": "function"
    },
    {
      "constant": false,
      "inputs": [],
      "name": "totalBorrowsCurrent",
      "outputs": [
        {
          "internalType": "uint256",
          "name": "",
          "type": "uint256"
        }
      ],
      "payable": false,
      "stateMutability": "nonpayable",
      "type": "function"
    },
    {
      "constant": true,
      "inputs": [],
      "name": "totalReserves",
      "outputs": [
        {
          "internalType": "uint256",
          "name": "",
          "type": "uint256"
        }
      ],
      "payable": false,
      "stateMutability": "view",
      "type": "function"
    },
    {
      "constant": true,
      "inputs": [],
      "name": "totalSupply",
      "outputs": [
        {
          "internalType": "uint256",
          "name": "",
          "type": "uint256"
        }
      ],
      "payable": false,
      "stateMutability": "view",
      "type": "function"
    },
    {
      "constant": false,
      "inputs": [
        {
          "internalType": "address",
          "name": "dst",
          "type": "address"
        },
        {
          "internalType": "uint256",
          "name": "amount",
          "type": "uint256"
        }
      ],
      "name": "transfer",
      "outputs": [
        {
          "internalType": "bool",
          "name": "",
          "type": "bool"
        }
      ],
      "payable": false,
      "stateMutability": "nonpayable",
      "type": "function"
    },
    {
      "constant": false,
      "inputs": [
        {
          "internalType": "address",
          "name": "src",
          "type": "address"
        },
        {
          "internalType": "address",
          "name": "dst",
          "type": "address"
        },
        {
          "internalType": "uint256",
          "name": "amount",
          "type": "uint256"
        }
      ],
      "name": "transferFrom",
      "outputs": [
        {
          "internalType": "bool",
          "name": "",
          "type": "bool"
        }
      ],
      "payable": false,
      "stateMutability": "nonpayable",
      "type": "function"
    },
    {
      "constant": true,
      "inputs": [],
      "name": "underlying",
      "outputs": [
        {
          "internalType": "address",
          "name": "",
          "type": "address"
        }
      ],
      "payable": false,
      "stateMutability": "view",
      "type": "function"
    },
    {
      "constant": true,
      "inputs": [],
      "name": "vatAddress",
      "outputs": [
        {
          "internalType": "address",
          "name": "",
          "type": "address"
        }
      ],
      "payable": false,
      "stateMutability": "view",
      "type": "function"
    },
    {
      "constant": false,
      "inputs": [
        {
          "internalType": "bytes",
          "name": "data",
          "type": "bytes"
        }
      ],
      "name": "_becomeImplementation",
      "outputs": [],
      "payable": false,
      "stateMutability": "nonpayable",
      "type": "function"
    },
    {
      "constant": false,
      "inputs": [],
      "name": "_resignImplementation",
      "outputs": [],
      "payable": false,
      "stateMutability": "nonpayable",
      "type": "function"
    },
    {
      "constant": false,
      "inputs": [],
      "name": "accrueInterest",
      "outputs": [
        {
          "internalType": "uint256",
          "name": "",
          "type": "uint256"
        }
      ],
      "payable": false,
      "stateMutability": "nonpayable",
      "type": "function"
    }
  ],
  "bytecode": "0x6080604052617e68806100136000396000f3fe608060405234801561001957600080610016617618565b50505b50600436106102865760003560e01c806306fdde0314610294578063095ea7b3146103135780630e7527021461035c578063153ab50514610394578063173b99041461039e57806317bfdfbc146103a657806318160ddd146103d5578063182df0f5146103dd5780631a31d465146103e55780631be195601461057857806323b872dd146105a75780632608f818146105e6578063267822471461061b578063313ce5671461063f5780633af9e6691461065d5780633b1d21a21461068c5780633e941010146106945780634576b5db146106ba57806347bd3718146106e957806356e67728146106f15780635c60da1b146107b85780635fe3b567146107c0578063601a0bf1146107c857806366ced602146107ee5780636c540baf146107f65780636f307dc3146107fe57806370a082311461080657806373acee9814610835578063852a12e31461083d5780638a8df2e6146108635780638d925ccd1461086b5780638f840ddd1461087357806395d89b411461087b57806395dd91931461088357806399d8c1b4146108b2578063a0712d6814610a3d578063a6afed9514610a63578063a9059cbb14610a6b578063aa5af0fd14610aa0578063ae9d70b014610aa8578063b2a02ff114610ab0578063b71d1a0c14610aef578063bd6d894d14610b1e578063c37f68e214610b26578063c5ebeaec14610b80578063db006a7514610ba6578063dd62ed3e14610bcc578063e9c714f214610c03578063f2b3abbd14610c0b578063f3fdb15a14610c3a578063f5e3c46214610c42578063f851a44014610c81578063f8f9da2814610c89578063fca7820b14610c91578063fe9c44ae14610cb7575b600080610291617618565b50505b61029c610cbf565b60405160208082528190810183818151815260200191508051906020019080838360005b838110156102d85780820151838201526020016102c0565b50505050905090810190601f1680156103055780820380516001836020036101000a031916815260200191505b509250505060405180910390f35b610348600480360360408110156103325760008061032f617618565b50505b506001600160a01b038135169060200135610d78565b604051901515815260200160405180910390f35b6103826004803603602081101561037b57600080610378617618565b50505b5035610e1a565b60405190815260200160405180910390f35b61039c610e30565b005b610382611355565b610382600480360360208110156103c5576000806103c2617618565b50505b50356001600160a01b0316611362565b61038261147f565b610382611489565b61039c600480360360e081101561040457600080610401617618565b50505b6001600160a01b03823581169260208101358216926040820135909216916060820135919081019060a081016080820135600160201b81111561044f5760008061044c617618565b50505b82018360208201111561046a57600080610467617618565b50505b803590602001918460018302840111600160201b8311171561049457600080610491617618565b50505b91908080601f01602080910402602001604051908101604052818152929190602084018383808284376000920191909152509295949360208101935035915050600160201b8111156104ee576000806104eb617618565b50505b82018360208201111561050957600080610506617618565b50505b803590602001918460018302840111600160201b8311171561053357600080610530617618565b50505b91908080601f01602080910402602001604051908101604052818152929190602084018383808284376000920191909152509295505050903560ff1691506114f59050565b61039c6004803603602081101561059757600080610594617618565b50505b50356001600160a01b03166115f6565b610348600480360360608110156105c6576000806105c3617618565b50505b506001600160a01b0381358116916020810135909116906040013561182c565b6103826004803603604081101561060557600080610602617618565b50505b506001600160a01b0381351690602001356118fb565b610623611911565b6040516001600160a01b03909116815260200160405180910390f35b610647611930565b60405160ff909116815260200160405180910390f35b6103826004803603602081101561067c57600080610679617618565b50505b50356001600160a01b0316611949565b610382611a0a565b610382600480360360208110156106b3576000806106b0617618565b50505b5035611a19565b610382600480360360208110156106d9576000806106d6617618565b50505b50356001600160a01b0316611a24565b610382611c0a565b61039c600480360360208110156107105760008061070d617618565b50505b810190602081018135600160201b81111561073357600080610730617618565b50505b82018360208201111561074e5760008061074b617618565b50505b803590602001918460018302840111600160201b8311171561077857600080610775617618565b50505b91908080601f0160208091040260200160405190810160405281815292919060208401838380828437600092019190915250929550611c14945050505050565b610623611cd9565b610623611ce5565b610382600480360360208110156107e7576000806107e4617618565b50505b5035611cf1565b610623611dbd565b610382611dc9565b610623611dd3565b6103826004803603602081101561082557600080610822617618565b50505b50356001600160a01b0316611ddf565b610382611dff565b6103826004803603602081101561085c57600080610859617618565b50505b5035611f1a565b610623611f25565b610623611f31565b610382611f3d565b61029c611f47565b610382600480360360208110156108a25760008061089f617618565b50505b50356001600160a01b0316611fe9565b61039c600480360360c08110156108d1576000806108ce617618565b50505b6001600160a01b03823581169260208101359091169160408201359190810190608081016060820135600160201b81111561091457600080610911617618565b50505b82018360208201111561092f5760008061092c617618565b50505b803590602001918460018302840111600160201b8311171561095957600080610956617618565b50505b91908080601f01602080910402602001604051908101604052818152929190602084018383808284376000920191909152509295949360208101935035915050600160201b8111156109b3576000806109b0617618565b50505b8201836020820111156109ce576000806109cb617618565b50505b803590602001918460018302840111600160201b831117156109f8576000806109f5617618565b50505b91908080601f01602080910402602001604051908101604052818152929190602084018383808284376000920191909152509295505050903560ff1691506120559050565b61038260048036036020811015610a5c57600080610a59617618565b50505b50356122f9565b610382612305565b61034860048036036040811015610a8a57600080610a87617618565b50505b506001600160a01b0381351690602001356123c9565b61038261249f565b6103826124a9565b61038260048036036060811015610acf57600080610acc617618565b50505b506001600160a01b038135811691602081013590911690604001356125a9565b61038260048036036020811015610b0e57600080610b0b617618565b50505b50356001600160a01b031661264f565b61038261272a565b610b5560048036036020811015610b4557600080610b42617618565b50505b50356001600160a01b0316612818565b6040518085815260200184815260200183815260200182815260200194505050505060405180910390f35b61038260048036036020811015610b9f57600080610b9c617618565b50505b50356128b6565b61038260048036036020811015610bc557600080610bc2617618565b50505b50356128c1565b61038260048036036040811015610beb57600080610be8617618565b50505b506001600160a01b03813581169160200135166128cc565b610382612905565b61038260048036036020811015610c2a57600080610c27617618565b50505b50356001600160a01b0316612af9565b610623612b33565b61038260048036036060811015610c6157600080610c5e617618565b50505b506001600160a01b03813581169160208101359160409091013516612b3f565b610623612b57565b610382612b63565b61038260048036036020811015610cb057600080610cad617618565b50505b5035612be9565b610348612c9c565b600180610cca617683565b600181600116156101000203166002900480601f016020809104026020016040519081016040528181529190602083018280610d04617683565b60018160011615610100020316600290048015610d705780601f10610d3e576101008083610d30617683565b040283529160200191610d70565b820191906000526020600020905b81610d55617683565b81529060010190602001808311610d4c57829003601f168201915b505050505081565b6000805a610d846176de565b6001600160a01b0381166000908152600f6020529091508390604090206001600160a01b0386166000908152602091909152604090208190610dc4617724565b505050836001600160a01b0316816001600160a01b03167f8c5be1e5ebec7d5bd14f71427d1e84f3dd0314c0f7b2291e5b200ac8c7c3b9258560405190815260200160405180910390a360019150505b92915050565b600080610e2683612ca1565b509150505b919050565b60016003610e3c617683565b906101000a90046001600160a01b03166001600160a01b03165a610e5e6176de565b6001600160a01b031614610eac5760405162461bcd60e51b815260040180806020018281038252602d815260200180617c00602d913960400191505060405180910390610ea9617618565b50505b6000806013610eb9617683565b906101000a90046001600160a01b0316905060006014600090610eda617683565b906101000a90046001600160a01b0316905060006015600090610efb617683565b906101000a90046001600160a01b03169050816001600160a01b0316639f678cca6040518163ffffffff1660e01b815260040160206040518083038160008780610f43617772565b158015610f5857600080610f55617618565b50505b505a610f626177be565b505050505050158015610f82573d6000803e3d6000610f7f617618565b50505b505050506040513d6020811015610fa157600080610f9e617618565b50505b810190808051506000925050506001600160a01b038316630bebac865a63996d79a5598160e01b8152602081600483336000905af158600e01573d6000803e3d6000fd5b3d6001141558600a015760016000f35b8051925060005b604081101561101357600082820152602001610ffc565b5050506040516001600160e01b031960e084901b1681526001600160a01b0390911660048201526024016020604051808303818680611050617772565b15801561106557600080611062617618565b50505b505a61106f61786e565b505050505015801561108e573d6000803e3d600061108b617618565b50505b505050506040513d60208110156110ad576000806110aa617618565b50505b810190808051935050506001600160a01b0384169050637f8661a1826040516001600160e01b031960e084901b1681526004810191909152602401600060405180830381600087806110fd617772565b1580156111125760008061110f617618565b50505b505a61111c6177be565b50505050505015801561113c573d6000803e3d6000611139617618565b50505b505050506000826001600160a01b0316636c25b3465a63996d79a5598160e01b8152602081600483336000905af158600e01573d6000803e3d6000fd5b3d6001141558600a015760016000f35b8051925060005b60408110156111a757600082820152602001611190565b5050506040516001600160e01b031960e084901b1681526001600160a01b03909116600482015260240160206040518083038186806111e4617772565b1580156111f9576000806111f6617618565b50505b505a61120361786e565b5050505050158015611222573d6000803e3d600061121f617618565b50505b505050506040513d60208110156112415760008061123e617618565b50505b810190808051935050506001600160a01b038616905063ef693bed5a63996d79a5598160e01b8152602081600483336000905af158600e01573d6000803e3d6000fd5b3d6001141558600a015760016000f35b8051925060005b60408110156112b25760008282015260200161129b565b505050676765c793fa10079d601b1b84816112c957fe5b046040516001600160e01b031960e085901b1681526001600160a01b03909216600483015260248201526044016000604051808303816000878061130b617772565b1580156113205760008061131d617618565b50505b505a61132a6177be565b50505050505015801561134a573d6000803e3d6000611347617618565b50505b505050505050505050565b600861135f617683565b81565b6000808061136e617683565b906101000a900460ff166113be5760405162461bcd60e51b815260206004820152600a6024820152691c994b595b9d195c995960b21b6044820152606401604051809103906113bb617618565b50505b6000806001816113cc617683565b8160ff021916908315150217906113e1617724565b50600091506113ed9050565b6113f5612305565b146114485760405162461bcd60e51b81526020600482015260166024820152751858d8dc9d59481a5b9d195c995cdd0819985a5b195960521b604482015260640160405180910390611445617618565b50505b61145182611fe9565b90505b600160008181611462617683565b8160ff02191690831515021790611477617724565b505050919050565b600d61135f617683565b6000806000611496612da5565b909250905060008260038111156114a957fe5b146114ee5760405162461bcd60e51b8152600401808060200182810382526035815260200180617db360359139604001915050604051809103906114eb617618565b50505b9150505b90565b611503868686868686612055565b866011600181611511617683565b816001600160a01b0302191690836001600160a01b0316021790611533617724565b5050506011600090611543617683565b906101000a90046001600160a01b03166001600160a01b03166318160ddd6040518163ffffffff1660e01b81526004016020604051808303818680611586617772565b15801561159b57600080611598617618565b50505b505a6115a561786e565b50505050501580156115c4573d6000803e3d60006115c1617618565b50505b505050506040513d60208110156115e3576000806115e0617618565b50505b8101908080515050505050505050505050565b60006011611602617683565b906101000a90046001600160a01b03166001600160a01b0316816001600160a01b0316141561166b5760405162461bcd60e51b8152600401808060200182810382526032815260200180617b4c6032913960400191505060405180910390611668617618565b50505b6000816001600160a01b03166370a082315a63996d79a5598160e01b8152602081600483336000905af158600e01573d6000803e3d6000fd5b3d6001141558600a015760016000f35b8051925060005b60408110156116d2576000828201526020016116bb565b5050506040516001600160e01b031960e084901b1681526001600160a01b039091166004820152602401602060405180830381868061170f617772565b15801561172457600080611721617618565b50505b505a61172e61786e565b505050505015801561174d573d6000803e3d600061174a617618565b50505b505050506040513d602081101561176c57600080611769617618565b50505b810190808051935050506001600160a01b038316905063a9059cbb60016003611793617683565b906101000a90046001600160a01b0316836040516001600160e01b031960e085901b1681526001600160a01b0390921660048301526024820152604401600060405180830381600087806117e5617772565b1580156117fa576000806117f7617618565b50505b505a6118046177be565b505050505050158015611824573d6000803e3d6000611821617618565b50505b505050505050565b60008080611838617683565b906101000a900460ff166118885760405162461bcd60e51b815260206004820152600a6024820152691c994b595b9d195c995960b21b604482015260640160405180910390611885617618565b50505b600080600181611896617683565b8160ff021916908315150217906118ab617724565b50600091506118b79050565b6118cb5a6118c36176de565b868686612e70565b1490506001600081816118dc617683565b8160ff021916908315150217906118f1617724565b5050509392505050565b600080611908848461320d565b50949350505050565b6000600461191d617683565b906101000a90046001600160a01b031681565b6000600361193c617683565b906101000a900460ff1681565b600061195361791e565b604051806020016040528061196661272a565b90526001600160a01b0384166000908152600e602052909150806119958360408320611990617683565b61330b565b909250905060008260038111156119a857fe5b14611a025760405162461bcd60e51b815260206004820152601f60248201527f62616c616e636520636f756c64206e6f742062652063616c63756c61746564006044820152606401604051809103906119ff617618565b50505b949350505050565b6000611a1461335f565b905090565b6000610e148261354e565b600060016003611a32617683565b906101000a90046001600160a01b03166001600160a01b03165a611a546176de565b6001600160a01b031614611a7557611a6e6001603f613613565b9050610e2b565b6000806005611a82617683565b906101000a90046001600160a01b03169050826001600160a01b0316627e3dd26040518163ffffffff1660e01b81526004016020604051808303818680611ac7617772565b158015611adc57600080611ad9617618565b50505b505a611ae661786e565b5050505050158015611b05573d6000803e3d6000611b02617618565b50505b505050506040513d6020811015611b2457600080611b21617618565b50505b8101908080519250611b879150505760405162461bcd60e51b815260206004820152601c60248201527b6d61726b6572206d6574686f642072657475726e65642066616c736560201b604482015260640160405180910390611b84617618565b50505b826005600181611b95617683565b816001600160a01b0302191690836001600160a01b0316021790611bb7617724565b5050507f7ac369dbd14fa5ea3f473ed67cc9d598964a77501540ba6751eb0b3decf5870d81846040516001600160a01b039283168152911660208201526040908101905180910390a160005b9392505050565b600b61135f617683565b60016003611c20617683565b906101000a90046001600160a01b03166001600160a01b03165a611c426176de565b6001600160a01b031614611c905760405162461bcd60e51b8152600401808060200182810382526030815260200180617b7e6030913960400191505060405180910390611c8d617618565b50505b6000806020830183516040811015611cb057600080611cad617618565b50505b8101908080519291906020018051939550929350611cd4925084915083905061366d565b505050565b6000601261191d617683565b6000600561191d617683565b60008080611cfd617683565b906101000a900460ff16611d4d5760405162461bcd60e51b815260206004820152600a6024820152691c994b595b9d195c995960b21b604482015260640160405180910390611d4a617618565b50505b600080600181611d5b617683565b8160ff02191690831515021790611d70617724565b5050506000611d7d612305565b90508015611da357611d9b816010811115611d9457fe5b6030613613565b915050611454565b611dac83613bde565b915050600160008181611462617683565b6000601461191d617683565b600961135f617683565b6000601161191d617683565b6001600160a01b0381166000908152600e60205260408120610e14617683565b60008080611e0b617683565b906101000a900460ff16611e5b5760405162461bcd60e51b815260206004820152600a6024820152691c994b595b9d195c995960b21b604482015260640160405180910390611e58617618565b50505b600080600181611e69617683565b8160ff02191690831515021790611e7e617724565b5060009150611e8a9050565b611e92612305565b14611ee55760405162461bcd60e51b81526020600482015260166024820152751858d8dc9d59481a5b9d195c995cdd0819985a5b195960521b604482015260640160405180910390611ee2617618565b50505b600b611eef617683565b9050600160008181611eff617683565b8160ff02191690831515021790611f14617724565b50505090565b6000610e1482613d93565b6000601361191d617683565b6000601561191d617683565b600c61135f617683565b600280611f52617683565b600181600116156101000203166002900480601f016020809104026020016040519081016040528181529190602083018280611f8c617683565b60018160011615610100020316600290048015610d705780601f10611fb8576101008083610d30617683565b820191906000526020600020905b81611fcf617683565b81529060010190602001808311611fc65750859350505050565b6000806000611ff784613e51565b9092509050600082600381111561200a57fe5b14611c035760405162461bcd60e51b8152600401808060200182810382526037815260200180617c58603791396040019150506040518091039061204c617618565b50509392505050565b60016003612061617683565b906101000a90046001600160a01b03166001600160a01b03165a6120836176de565b6001600160a01b0316146120d15760405162461bcd60e51b8152600401808060200182810382526024815260200180617ae560249139604001915050604051809103906120ce617618565b50505b60096120db617683565b1580156120ef5750600a6120ed617683565b155b6121335760405162461bcd60e51b8152600401808060200182810382526023815260200180617b096023913960400191505060405180910390612130617618565b50505b8380600761213f617724565b5050506000600761214e617683565b116121935760405162461bcd60e51b8152600401808060200182810382526030815260200180617bae6030913960400191505060405180910390612190617618565b50505b600061219e87611a24565b905080156121f85760405162461bcd60e51b815260206004820152601a6024820152791cd95d1d1a5b99c818dbdb5c1d1c9bdb1b195c8819985a5b195960321b6044820152606401604051809103906121f5617618565b50505b612200613f1d565b80600961220b617724565b505050670de0b6b3a7640000600a8190612223617724565b50505061222f86613f28565b905080156122775760405162461bcd60e51b8152600401808060200182810382526022815260200180617bde6022913960400191505060405180910390612274617618565b50505b600184805161228a92916020019061792f565b50600283805161229e92916020019061792f565b508160036001816122ad617683565b8160ff021916908360ff160217906122c3617724565b50505060016000806101000a816122d8617683565b8160ff021916908315150217906122ed617724565b50505050505050505050565b600080610e2683614128565b6000806014612312617683565b906101000a90046001600160a01b03166001600160a01b0316639f678cca6040518163ffffffff1660e01b815260040160206040518083038160008780612357617772565b15801561236c57600080612369617618565b50505b505a6123766177be565b505050505050158015612396573d6000803e3d6000612393617618565b50505b505050506040513d60208110156123b5576000806123b2617618565b50505b81019080805150611a1492506141e5915050565b600080806123d5617683565b906101000a900460ff166124255760405162461bcd60e51b815260206004820152600a6024820152691c994b595b9d195c995960b21b604482015260640160405180910390612422617618565b50505b600080600181612433617683565b8160ff02191690831515021790612448617724565b50600091506124549050565b6124705a6124606176de565b5a6124696176de565b8686612e70565b149050600160008181612481617683565b8160ff02191690831515021790612496617724565b50505092915050565b600a61135f617683565b60008060066124b6617683565b906101000a90046001600160a01b03166001600160a01b031663b81688166124dc61335f565b600b6124e6617683565b600c6124f0617683565b60086124fa617683565b6040516001600160e01b031960e087901b1681526004810194909452602484019290925260448301526064820152608401602060405180830381868061253e617772565b15801561255357600080612550617618565b50505b505a61255d61786e565b505050505015801561257c573d6000803e3d6000612579617618565b50505b505050506040513d602081101561259b57600080612598617618565b50505b810190808051935050505090565b600080806125b5617683565b906101000a900460ff166126055760405162461bcd60e51b815260206004820152600a6024820152691c994b595b9d195c995960b21b604482015260640160405180910390612602617618565b50505b600080600181612613617683565b8160ff02191690831515021790612628617724565b50505061263f5a6126376176de565b8585856145f3565b90506001600081816118dc617683565b60006001600361265d617683565b906101000a90046001600160a01b03166001600160a01b03165a61267f6176de565b6001600160a01b03161461269957611a6e60016045613613565b60008060046126a6617683565b906101000a90046001600160a01b0316905082600460006101000a816126ca617683565b816001600160a01b0302191690836001600160a01b03160217906126ec617724565b505050600080516020617c8f83398151915281846040516001600160a01b039283168152911660208201526040908101905180910390a16000611c03565b60008080612736617683565b906101000a900460ff166127865760405162461bcd60e51b815260206004820152600a6024820152691c994b595b9d195c995960b21b604482015260640160405180910390612783617618565b50505b600080600181612794617683565b8160ff021916908315150217906127a9617724565b50600091506127b59050565b6127bd612305565b146128105760405162461bcd60e51b81526020600482015260166024820152751858d8dc9d59481a5b9d195c995cdd0819985a5b195960521b60448201526064016040518091039061280d617618565b50505b611eef611489565b6001600160a01b0381166000908152600e602052808080806040812061283c617683565b9050600080600061284c89613e51565b93509050600081600381111561285e57fe5b1461287c5760095b9750600096508695508594506128af9350505050565b612884612da5565b92509050600081600381111561289657fe5b146128a2576009612866565b5060009650919450925090505b9193509193565b6000610e14826148c4565b6000610e1482614980565b6001600160a01b0382166000908152600f602052604081206001600160a01b038316600090815260209190915260409020611c03617683565b6000806004612912617683565b906101000a90046001600160a01b03166001600160a01b03165a6129346176de565b6001600160a01b031614158061295b575060005a6129506176de565b6001600160a01b0316145b156129735761296c60016000613613565b90506114f2565b600060016003612981617683565b906101000a90046001600160a01b03169050600060046000906129a2617683565b906101000a90046001600160a01b0316905060046000906129c1617683565b906101000a90046001600160a01b0316600360016101000a816129e2617683565b816001600160a01b0302191690836001600160a01b0316021790612a04617724565b5050506000600460006101000a81612a1a617683565b816001600160a01b0302191690836001600160a01b0316021790612a3c617724565b5050507ff9ffabca9c8276e99321725bcb43fb076a6c66a54b7f21c4e8146d8519b417dc826003600190612a6e617683565b906101000a90046001600160a01b03166040516001600160a01b039283168152911660208201526040908101905180910390a1600080516020617c8f8339815191528160006004612abd617683565b906101000a90046001600160a01b03166040516001600160a01b039283168152911660208201526040908101905180910390a160009250505090565b600080612b04612305565b90508015612b2a57612b22816010811115612b1b57fe5b6040613613565b915050610e2b565b611c0383613f28565b6000600661191d617683565b600080612b4d858585614a37565b5095945050505050565b6001600361191d617683565b6000806006612b70617683565b906101000a90046001600160a01b03166001600160a01b03166315f24053612b9661335f565b600b612ba0617683565b600c612baa617683565b6040516001600160e01b031960e086901b168152600481019390935260248301919091526044820152606401602060405180830381868061253e617772565b60008080612bf5617683565b906101000a900460ff16612c455760405162461bcd60e51b815260206004820152600a6024820152691c994b595b9d195c995960b21b604482015260640160405180910390612c42617618565b50505b600080600181612c53617683565b8160ff02191690831515021790612c68617724565b5050506000612c75612305565b90508015612c9357611d9b816010811115612c8c57fe5b6046613613565b611dac83614bfb565b600181565b6000808080612cae617683565b906101000a900460ff16612cfe5760405162461bcd60e51b815260206004820152600a6024820152691c994b595b9d195c995960b21b604482015260640160405180910390612cfb617618565b50505b600080600181612d0c617683565b8160ff02191690831515021790612d21617724565b5050506000612d2e612305565b90508015612d5957612d4c816010811115612d4557fe5b6036613613565b925060009150612d7a9050565b612d745a612d656176de565b5a612d6e6176de565b86614ce2565b92509250505b600160008181612d88617683565b8160ff02191690831515021790612d9d617724565b505050915091565b6000806000600d612db4617683565b905080612dd15760006007612dc7617683565b9250925050612e6c565b6000612ddb61335f565b90506000612de761791e565b6000612e0684600b612df7617683565b600c612e01617683565b615151565b935090506000816003811115612e1857fe5b14612e2d57955060009450612e6c9350505050565b612e37838661519d565b925090506000816003811115612e4957fe5b14612e5e57955060009450612e6c9350505050565b600082519650965050505050505b9091565b600080806005612e7e617683565b906101000a90046001600160a01b03166001600160a01b031663bdcdc2585a63996d79a5598160e01b8152602081600483336000905af158600e01573d6000803e3d6000fd5b3d6001141558600a015760016000f35b8051925060005b6040811015612ef257600082820152602001612edb565b5050508787876040516001600160e01b031960e087901b1681526001600160a01b039485166004820152928416602484015292166044820152606481019190915260840160206040518083038160008780612f4b617772565b158015612f6057600080612f5d617618565b50505b505a612f6a6177be565b505050505050158015612f8a573d6000803e3d6000612f87617618565b50505b505050506040513d6020811015612fa957600080612fa6617618565b50505b81019080805193505082159150612fd1905057612fc96003604a8361524f565b915050611a02565b836001600160a01b0316856001600160a01b03161415612ff757612fc96002604b613613565b60006001600160a01b0387811690871614156130165750600019613052565b6001600160a01b0386166000908152600f602052604090206001600160a01b03881660009081526020919091526040902061304f617683565b90505b60008060008061306285896152a8565b9094509250600084600381111561307557fe5b14613093576130866009604b613613565b9650505050505050611a02565b6001600160a01b038a166000908152600e6020526130bd90604090206130b7617683565b896152a8565b909450915060008460038111156130d057fe5b146130e1576130866009604c613613565b6001600160a01b0389166000908152600e60205261310b9060409020613105617683565b896152cb565b9094509050600084600381111561311e57fe5b1461312f576130866009604d613613565b6001600160a01b038a166000908152600e6020528290604090208190613153617724565b5050506001600160a01b0389166000908152600e602052819060409020819061317a617724565b50505060001985146131c7576001600160a01b038a166000908152600f6020528390604090206001600160a01b038d1660009081526020919091526040902081906131c3617724565b5050505b886001600160a01b03168a6001600160a01b0316600080516020617d0b8339815191528a60405190815260200160405180910390a35060009a9950505050505050505050565b600080808061321a617683565b906101000a900460ff1661326a5760405162461bcd60e51b815260206004820152600a6024820152691c994b595b9d195c995960b21b604482015260640160405180910390613267617618565b50505b600080600181613278617683565b8160ff0219169083151502179061328d617724565b505050600061329a612305565b905080156132c5576132b88160108111156132b157fe5b6035613613565b9250600091506132de9050565b6132d85a6132d16176de565b8686614ce2565b92509250505b6001600081816132ec617683565b8160ff02191690831515021790613301617724565b5050509250929050565b600080600061331861791e565b61332286866152f1565b9092509050600082600381111561333557fe5b146133465750915060009050613358565b600061335182615357565b9350935050505b9250929050565b60008080601461336d617683565b906101000a90046001600160a01b031690506000816001600160a01b0316630bebac865a63996d79a5598160e01b8152602081600483336000905af158600e01573d6000803e3d6000fd5b3d6001141558600a015760016000f35b8051925060005b60408110156133e6576000828201526020016133cf565b5050506040516001600160e01b031960e084901b1681526001600160a01b0390911660048201526024016020604051808303818680613423617772565b15801561343857600080613435617618565b50505b505a61344261786e565b5050505050158015613461573d6000803e3d600061345e617618565b50505b505050506040513d60208110156134805760008061347d617618565b50505b8101908080519350676765c793fa10079d601b1b925061353f9150506001600160a01b03841663c92aecc46040518163ffffffff1660e01b815260040160206040518083038186806134d0617772565b1580156134e5576000806134e2617618565b50505b505a6134ef61786e565b505050505015801561350e573d6000803e3d600061350b617618565b50505b505050506040513d602081101561352d5760008061352a617618565b50505b81019080805192508591506153729050565b8161354657fe5b049250505090565b6000808061355a617683565b906101000a900460ff166135aa5760405162461bcd60e51b815260206004820152600a6024820152691c994b595b9d195c995960b21b6044820152606401604051809103906135a7617618565b50505b6000806001816135b8617683565b8160ff021916908315150217906135cd617724565b50505060006135da612305565b905080156135f857611d9b8160108111156135f157fe5b604e613613565b613601836153da565b50915050600160008181611462617683565b6000600080516020617b2c83398151915283601081111561363057fe5b83605081111561363c57fe5b600060405180848152602001838152602001828152602001935050505060405180910390a1826010811115611c0357fe5b818160006001600160a01b03831663f4b9fa756040518163ffffffff1660e01b8152600401602060405180830381600087806136a7617772565b1580156136bc576000806136b9617618565b50505b505a6136c66177be565b5050505050501580156136e6573d6000803e3d60006136e3617618565b50505b505050506040513d602081101561370557600080613702617618565b50505b81019080805193506000925050506001600160a01b0384166336569e776040518163ffffffff1660e01b815260040160206040518083038160008780613749617772565b15801561375e5760008061375b617618565b50505b505a6137686177be565b505050505050158015613788573d6000803e3d6000613785617618565b50505b505050506040513d60208110156137a7576000806137a4617618565b50505b810190808051935060009250601191506137c19050617683565b906101000a90046001600160a01b03166001600160a01b0316826001600160a01b0316146138295760405162461bcd60e51b8152600401808060200182810382526022815260200180617caf6022913960400191505060405180910390613826617618565b50505b856013600181613837617683565b816001600160a01b0302191690836001600160a01b0316021790613859617724565b50505084601460006101000a8161386e617683565b816001600160a01b0302191690836001600160a01b0316021790613890617724565b50505080601560006101000a816138a5617683565b816001600160a01b0302191690836001600160a01b03160217906138c7617724565b505050816001600160a01b031663095ea7b360136000906138e6617683565b906101000a90046001600160a01b03166000196040516001600160e01b031960e085901b1681526001600160a01b03909216600483015260248201526044016000604051808303816000878061393a617772565b15801561394f5760008061394c617618565b50505b505a6139596177be565b505050505050158015613979573d6000803e3d6000613976617618565b50505b50505050806001600160a01b031663a3b22fc46014600090613999617683565b906101000a90046001600160a01b03166040516001600160e01b031960e084901b1681526001600160a01b039091166004820152602401600060405180830381600087806139e5617772565b1580156139fa576000806139f7617618565b50505b505a613a046177be565b505050505050158015613a24573d6000803e3d6000613a21617618565b50505b50505050806001600160a01b031663a3b22fc46013600090613a44617683565b906101000a90046001600160a01b03166040516001600160e01b031960e084901b1681526001600160a01b03909116600482015260240160006040518083038160008780613a90617772565b158015613aa557600080613aa2617618565b50505b505a613aaf6177be565b505050505050158015613acf573d6000803e3d6000613acc617618565b50505b50505050826001600160a01b0316639f678cca6040518163ffffffff1660e01b815260040160206040518083038160008780613b09617772565b158015613b1e57600080613b1b617618565b50505b505a613b286177be565b505050505050158015613b48573d6000803e3d6000613b45617618565b50505b505050506040513d6020811015613b6757600080613b64617618565b50505b81019080805150613bd5925050505a63996d79a5598160e01b8152602081600483336000905af158600e01573d6000803e3d6000fd5b3d6001141558600a015760016000f35b8051925060005b6040811015613bcb57600082820152602001613bb4565b5050506000615512565b50505050505050565b60008060016003613bed617683565b906101000a90046001600160a01b03166001600160a01b03165a613c0f6176de565b6001600160a01b031614613c2957612b2260016031613613565b613c31613f1d565b6009613c3b617683565b14613c4c57612b22600a6033613613565b82613c5561335f565b1015613c6757612b22600e6032613613565b600c613c71617683565b831115613c8457612b2260026034613613565b82600c613c8f617683565b039050600c613c9c617683565b811115613ce35760405162461bcd60e51b8152600401808060200182810382526024815260200180617e446024913960400191505060405180910390613ce0617618565b50505b8080600c613cef617724565b505050613d186003600190613d02617683565b906101000a90046001600160a01b031684615b5a565b7f3bad0c59cf2f06e7314077049f48a93578cd16f5ef92329f1dab1420a99c177e60016003613d45617683565b906101000a90046001600160a01b0316848360405180846001600160a01b03166001600160a01b03168152602001838152602001828152602001935050505060405180910390a16000611c03565b60008080613d9f617683565b906101000a900460ff16613def5760405162461bcd60e51b815260206004820152600a6024820152691c994b595b9d195c995960b21b604482015260640160405180910390613dec617618565b50505b600080600181613dfd617683565b8160ff02191690831515021790613e12617724565b5050506000613e1f612305565b90508015613e3d57611d9b816010811115613e3657fe5b6027613613565b611dac5a613e496176de565b600085615d3b565b6001600160a01b03811660009081526010602052808080808060408120905080613e79617683565b613e8e575060009450849350613f1892505050565b613ea981613e9a617683565b600a613ea4617683565b6163eb565b90945092506000846003811115613ebc57fe5b14613ed1575091935060009250613f18915050565b613ee68382600101613ee1617683565b61642a565b90945091506000846003811115613ef957fe5b14613f0e575091935060009250613f18915050565b5060009450925050505b915091565b60005a611a146179cf565b60008060016003613f37617683565b906101000a90046001600160a01b03166001600160a01b03165a613f596176de565b6001600160a01b031614613f7357612b2260016042613613565b613f7b613f1d565b6009613f85617683565b14613f9657612b22600a6041613613565b60006006613fa2617683565b906101000a90046001600160a01b03169050826001600160a01b0316632191f92a6040518163ffffffff1660e01b81526004016020604051808303818680613fe8617772565b158015613ffd57600080613ffa617618565b50505b505a61400761786e565b5050505050158015614026573d6000803e3d6000614023617618565b50505b505050506040513d602081101561404557600080614042617618565b50505b81019080805192506140a89150505760405162461bcd60e51b815260206004820152601c60248201527b6d61726b6572206d6574686f642072657475726e65642066616c736560201b6044820152606401604051809103906140a5617618565b50505b8260066001816140b6617683565b816001600160a01b0302191690836001600160a01b03160217906140d8617724565b5050507fedffc32e068c7c95dfd4bdfd5c4d939a084d6b11c4199eac8436ed234d72f92681846040516001600160a01b039283168152911660208201526040908101905180910390a16000611c03565b6000808080614135617683565b906101000a900460ff166141855760405162461bcd60e51b815260206004820152600a6024820152691c994b595b9d195c995960b21b604482015260640160405180910390614182617618565b50505b600080600181614193617683565b8160ff021916908315150217906141a8617724565b50505060006141b5612305565b905080156141d357612d4c8160108111156141cc57fe5b601e613613565b612d745a6141df6176de565b85616455565b6000806141f0613f1d565b9050600060096141fe617683565b905081811415614213576000925050506114f2565b600061421d61335f565b90506000600b61422b617683565b90506000600c614239617683565b90506000600a614247617683565b90506000806006614256617683565b906101000a90046001600160a01b03166001600160a01b03166315f240538686866040516001600160e01b031960e086901b16815260048101939093526024830191909152604482015260640160206040518083038186806142b6617772565b1580156142cb576000806142c8617618565b50505b505a6142d561786e565b50505050501580156142f4573d6000803e3d60006142f1617618565b50505b505050506040513d602081101561431357600080614310617618565b50505b8101908080519350505065048c2739500082111590506143815760405162461bcd60e51b815260206004820152601c60248201527b0c4dee4e4deee40e4c2e8ca40d2e640c2c4e6eae4c8d8f240d0d2ced60231b60448201526064016040518091039061437e617618565b50505b60008061438e89896152a8565b909250905060008260038111156143a157fe5b146143fb5760405162461bcd60e51b815260206004820152601f60248201527f636f756c64206e6f742063616c63756c61746520626c6f636b2064656c7461006044820152606401604051809103906143f8617618565b50505b61440361791e565b60008060008061441f60405160208101604052898152876152f1565b9097509450600087600381111561443257fe5b146144645761444f6009600689600381111561444a57fe5b61524f565b9e5050505050505050505050505050506114f2565b61446e858c61330b565b9097509350600087600381111561448157fe5b146144995761444f6009600189600381111561444a57fe5b6144a3848c6152cb565b909750925060008760038111156144b657fe5b146144ce5761444f6009600489600381111561444a57fe5b6144ef604051806020016040528060086144e6617683565b9052858c616985565b9097509150600087600381111561450257fe5b1461451a5761444f6009600589600381111561444a57fe5b614525858a8b616985565b9097509050600087600381111561453857fe5b146145505761444f6009600389600381111561444a57fe5b8d80600961455c617724565b50505080600a819061456c617724565b50505082600b819061457c617724565b50505081600c819061458c617724565b5050507f4dec04e750ca11537cabcd8a9eab06494de08da3735bc8871cd41250e190bc048c8583866040518085815260200184815260200183815260200182815260200194505050505060405180910390a160009e50505050505050505050505050505090565b600080806005614601617683565b906101000a90046001600160a01b03166001600160a01b031663d02f73515a63996d79a5598160e01b8152602081600483336000905af158600e01573d6000803e3d6000fd5b3d6001141558600a015760016000f35b8051925060005b60408110156146755760008282015260200161465e565b505050888888886040516001600160e01b031960e088901b1681526001600160a01b039586166004820152938516602485015291841660448401529092166064820152608481019190915260a401602060405180830381600087806146d8617772565b1580156146ed576000806146ea617618565b50505b505a6146f76177be565b505050505050158015614717573d6000803e3d6000614714617618565b50505b505050506040513d602081101561473657600080614733617618565b50505b81019080805193505082159150614756905057612fc96003601b8361524f565b846001600160a01b0316846001600160a01b0316141561477c57612fc96006601c613613565b6001600160a01b0384166000908152600e60205280806147a7604082206147a1617683565b876152a8565b909350915060008360038111156147ba57fe5b146147dd576147d26009601a85600381111561444a57fe5b945050505050611a02565b6001600160a01b0388166000908152600e6020526148079060409020614801617683565b876152cb565b9093509050600083600381111561481a57fe5b14614832576147d26009601985600381111561444a57fe5b6001600160a01b0387166000908152600e6020528290604090208190614856617724565b5050506001600160a01b0388166000908152600e602052819060409020819061487d617724565b505050876001600160a01b0316876001600160a01b0316600080516020617d0b8339815191528860405190815260200160405180910390a360009998505050505050505050565b600080806148d0617683565b906101000a900460ff166149205760405162461bcd60e51b815260206004820152600a6024820152691c994b595b9d195c995960b21b60448201526064016040518091039061491d617618565b50505b60008060018161492e617683565b8160ff02191690831515021790614943617724565b5050506000614950612305565b9050801561496e57611d9b81601081111561496757fe5b6008613613565b611dac5a61497a6176de565b846169d2565b6000808061498c617683565b906101000a900460ff166149dc5760405162461bcd60e51b815260206004820152600a6024820152691c994b595b9d195c995960b21b6044820152606401604051809103906149d9617618565b50505b6000806001816149ea617683565b8160ff021916908315150217906149ff617724565b5050506000614a0c612305565b90508015614a2357611d9b816010811115613e3657fe5b611dac5a614a2f6176de565b846000615d3b565b6000808080614a44617683565b906101000a900460ff16614a945760405162461bcd60e51b815260206004820152600a6024820152691c994b595b9d195c995960b21b604482015260640160405180910390614a91617618565b50505b600080600181614aa2617683565b8160ff02191690831515021790614ab7617724565b5050506000614ac4612305565b90508015614aef57614ae2816010811115614adb57fe5b600f613613565b925060009150614bcd9050565b836001600160a01b031663a6afed956040518163ffffffff1660e01b815260040160206040518083038160008780614b25617772565b158015614b3a57600080614b37617618565b50505b505a614b446177be565b505050505050158015614b64573d6000803e3d6000614b61617618565b50505b505050506040513d6020811015614b8357600080614b80617618565b50505b810190808051935060009250614b97915050565b8114614bb357614ae2816010811115614bac57fe5b6010613613565b614bc75a614bbf6176de565b878787616d75565b92509250505b600160008181614bdb617683565b8160ff02191690831515021790614bf0617724565b505050935093915050565b600060016003614c09617683565b906101000a90046001600160a01b03166001600160a01b03165a614c2b6176de565b6001600160a01b031614614c4557611a6e60016047613613565b614c4d613f1d565b6009614c57617683565b14614c6857611a6e600a6048613613565b670de0b6b3a7640000821115614c8457611a6e60026049613613565b60006008614c90617683565b905082806008614c9e617724565b5050507faaa68312e2ea9d50e16af5068410ab56e1a1fd06037b1a35664812c30f821460818460405191825260208201526040908101905180910390a16000611c03565b60008080806005614cf1617683565b906101000a90046001600160a01b03166001600160a01b03166324008a625a63996d79a5598160e01b8152602081600483336000905af158600e01573d6000803e3d6000fd5b3d6001141558600a015760016000f35b8051925060005b6040811015614d6557600082820152602001614d4e565b5050508888886040516001600160e01b031960e087901b1681526001600160a01b039485166004820152928416602484015292166044820152606481019190915260840160206040518083038160008780614dbe617772565b158015614dd357600080614dd0617618565b50505b505a614ddd6177be565b505050505050158015614dfd573d6000803e3d6000614dfa617618565b50505b505050506040513d6020811015614e1c57600080614e19617618565b50505b81019080805193505082159150614e49905057614e3c600360388361524f565b9250600091506151499050565b614e51613f1d565b6009614e5b617683565b14614e6c57614e3c600a6039613613565b614e74617a15565b6001600160a01b0386166000908152601060205260409020600101614e97617683565b6060820152614ea586613e51565b6080830181905260208301826003811115614ebc57fe5b6003811115614ec757fe5b9052506000905081602001516003811115614ede57fe5b14614f0857614efa600960378360200151600381111561444a57fe5b935060009250615149915050565b600019851415614f215780608001516040820152614f29565b604081018590525b614f37878260400151615512565b60e0820152614f4e60808201518260e001516152a8565b60a0830181905260208301826003811115614f6557fe5b6003811115614f7057fe5b9052506000905081602001516003811115614f8757fe5b14614fcc5760405162461bcd60e51b815260040180806020018281038252603a815260200180617cd1603a913960400191505060405180910390614fc9617618565b50505b614fe3600b614fd9617683565b8260e001516152a8565b60c0830181905260208301826003811115614ffa57fe5b600381111561500557fe5b905250600090508160200151600381111561501c57fe5b146150615760405162461bcd60e51b8152600401808060200182810382526031815260200180617d2b603191396040019150506040518091039061505e617618565b50505b8060a001516001600160a01b03871660009081526010602052604090208190615088617724565b505050600a615095617683565b6001600160a01b038716600090815260106020526040902060010181906150ba617724565b5050508060c0015180600b6150cd617724565b5050507f1a2a22cb034d26d1854bdc6666a5b91fe25efbbb5dcad3b0355478d6f5c362a187878360e001518460a001518560c001516040516001600160a01b0395861681529390941660208401526040808401929092526060830152608082019290925260a001905180910390a160008160e001519350935050505b935093915050565b60008060008061516187876152cb565b9092509050600082600381111561517457fe5b146151855750915060009050615149565b61518f81866152a8565b935093505050935093915050565b60006151a761791e565b6000806151bc86670de0b6b3a76400006163eb565b909250905060008260038111156151cf57fe5b146151f0578160405160208101604052600081529094509250613358915050565b6000806151fd838861642a565b9092509050600082600381111561521057fe5b146152335781604051602081016040526000815290965094506133589350505050565b6000604051602081016040529182529890975095505050505050565b6000600080516020617b2c83398151915284601081111561526c57fe5b84605081111561527857fe5b8460405180848152602001838152602001828152602001935050505060405180910390a1836010811115611a0257fe5b6000808383116152bf575060009050818303613358565b50600390506000613358565b6000808383018481106152e357600092509050613358565b506002915060009050613358565b60006152fb61791e565b6000806153098651866163eb565b9092509050600082600381111561531c57fe5b1461533d578160405160208101604052600081529094509250613358915050565b600060405160208101604052918252969095509350505050565b6000670de0b6b3a764000082518161536b57fe5b0492915050565b600081158061538d5750508082028282828161538a57fe5b04145b610e145760405162461bcd60e51b815260206004820152600c60248201526b6d756c2d6f766572666c6f7760a01b6044820152606401604051809103906153d2617618565b505092915050565b6000806000806153e8613f1d565b60096153f2617683565b1461540e57615403600a604f613613565b93509150613f189050565b6154205a61541a6176de565b86615512565b905080600c61542d617683565b019150600c61543a617683565b8210156154965760405162461bcd60e51b815260206004820181905260248201527f61646420726573657276657320756e6578706563746564206f766572666c6f77604482015260640160405180910390615493617618565b50505b8180600c6154a2617724565b5050507fa91e67c5ea634cd43a12c5a482724b03de01e85ca68702a53d0c2f45cb7c1dc55a6154cf6176de565b828460405180846001600160a01b03166001600160a01b03168152602001838152602001828152602001935050505060405180910390a160009350915050915091565b600080806011615520617683565b906101000a90046001600160a01b03169050806001600160a01b03166323b872dd855a63996d79a5598160e01b8152602081600483336000905af158600e01573d6000803e3d6000fd5b3d6001141558600a015760016000f35b8051925060005b604081101561559857600082820152602001615581565b505050866040516001600160e01b031960e086901b1681526001600160a01b0393841660048201529190921660248201526044810191909152606401602060405180830381600087806155e9617772565b1580156155fe576000806155fb617618565b50505b505a6156086177be565b505050505050158015615628573d6000803e3d6000615625617618565b50505b505050506040513d602081101561564757600080615644617618565b50505b81019080805192506156969150505760405162461bcd60e51b8152600401808060200182810382526024815260200180617d8f6024913960400191505060405180910390615693617618565b50505b60008060136156a3617683565b906101000a90046001600160a01b03169050600060116000906156c4617683565b906101000a90046001600160a01b03169050600060146000906156e5617683565b906101000a90046001600160a01b0316905060006015600090615706617683565b906101000a90046001600160a01b03169050836001600160a01b0316633b4da69f5a63996d79a5598160e01b8152602081600483336000905af158600e01573d6000803e3d6000fd5b3d6001141558600a015760016000f35b8051925060005b604081101561577d57600082820152602001615766565b505050856001600160a01b03166370a082315a63996d79a5598160e01b8152602081600483336000905af158600e01573d6000803e3d6000fd5b3d6001141558600a015760016000f35b8051925060005b60408110156157e5576000828201526020016157ce565b5050506040516001600160e01b031960e084901b1681526001600160a01b0390911660048201526024016020604051808303818680615822617772565b15801561583757600080615834617618565b50505b505a61584161786e565b5050505050158015615860573d6000803e3d600061585d617618565b50505b505050506040513d602081101561587f5760008061587c617618565b50505b81019080805192506040915050516001600160e01b031960e085901b1681526001600160a01b0390921660048301526024820152604401600060405180830381600087806158cb617772565b1580156158e0576000806158dd617618565b50505b505a6158ea6177be565b50505050505015801561590a573d6000803e3d6000615907617618565b50505b505050506000816001600160a01b0316636c25b3465a63996d79a5598160e01b8152602081600483336000905af158600e01573d6000803e3d6000fd5b3d6001141558600a015760016000f35b8051925060005b60408110156159755760008282015260200161595e565b5050506040516001600160e01b031960e084901b1681526001600160a01b03909116600482015260240160206040518083038186806159b2617772565b1580156159c7576000806159c4617618565b50505b505a6159d161786e565b50505050501580156159f0573d6000803e3d60006159ed617618565b50505b505050506040513d6020811015615a0f57600080615a0c617618565b50505b81019080805193506000925050506001600160a01b03841663c92aecc46040518163ffffffff1660e01b81526004016020604051808303818680615a51617772565b158015615a6657600080615a63617618565b50505b505a615a7061786e565b5050505050158015615a8f573d6000803e3d6000615a8c617618565b50505b505050506040513d6020811015615aae57600080615aab617618565b50505b8101908080519250849150829050615ac257fe5b049050836001600160a01b031663049878f3826040516001600160e01b031960e084901b168152600481019190915260240160006040518083038160008780615b09617772565b158015615b1e57600080615b1b617618565b50505b505a615b286177be565b505050505050158015615b48573d6000803e3d6000615b45617618565b50505b509a9c9b505050505050505050505050565b6000806013615b67617683565b906101000a90046001600160a01b0316905060006014600090615b88617683565b906101000a90046001600160a01b031690506000615c60826001600160a01b031663c92aecc46040518163ffffffff1660e01b81526004016020604051808303818680615bd3617772565b158015615be857600080615be5617618565b50505b505a615bf261786e565b5050505050158015615c11573d6000803e3d6000615c0e617618565b50505b505050506040513d6020811015615c3057600080615c2d617618565b50505b8101908080519250615c519150879050676765c793fa10079d601b1b615372565b81615c5857fe5b04600161755c565b9050816001600160a01b0316637f8661a1826040516001600160e01b031960e084901b168152600481019190915260240160006040518083038160008780615ca6617772565b158015615cbb57600080615cb8617618565b50505b505a615cc56177be565b505050505050158015615ce5573d6000803e3d6000615ce2617618565b50505b50505050826001600160a01b031663ef693bed86866040516001600160e01b031960e085901b1681526001600160a01b03909216600483015260248201526044016000604051808303816000878061130b617772565b6000821580615d48575081155b615d8c5760405162461bcd60e51b8152600401808060200182810382526034815260200180617e106034913960400191505060405180910390615d89617618565b50505b615d94617a5a565b615d9c612da5565b6040830181905260208301826003811115615db357fe5b6003811115615dbe57fe5b9052506000905081602001516003811115615dd557fe5b14615df957615df16009602b8360200151600381111561444a57fe5b915050611c03565b8315615e7b5760608101849052615e216040518060200160405280836040015190528561330b565b6080830181905260208301826003811115615e3857fe5b6003811115615e4357fe5b9052506000905081602001516003811115615e5a57fe5b14615e7657615df1600960298360200151600381111561444a57fe5b615ef3565b615e96836040518060200160405280846040015190526175a8565b6060830181905260208301826003811115615ead57fe5b6003811115615eb857fe5b9052506000905081602001516003811115615ecf57fe5b14615eeb57615df16009602a8360200151600381111561444a57fe5b608081018390525b6000806005615f00617683565b906101000a90046001600160a01b03166001600160a01b031663eabe7d915a63996d79a5598160e01b8152602081600483336000905af158600e01573d6000803e3d6000fd5b3d6001141558600a015760016000f35b8051925060005b6040811015615f7457600082820152602001615f5d565b5050508885606001516040516001600160e01b031960e086901b1681526001600160a01b039384166004820152919092166024820152604481019190915260640160206040518083038160008780615fca617772565b158015615fdf57600080615fdc617618565b50505b505a615fe96177be565b505050505050158015616009573d6000803e3d6000616006617618565b50505b505050506040513d602081101561602857600080616025617618565b50505b81019080805193505082159150616051905057616048600360288361524f565b92505050611c03565b616059613f1d565b6009616063617683565b1461607457616048600a602c613613565b61608b600d616081617683565b83606001516152a8565b60a08401819052602084018260038111156160a257fe5b60038111156160ad57fe5b90525060009050826020015160038111156160c457fe5b146160e0576160486009602e8460200151600381111561444a57fe5b6001600160a01b0386166000908152600e6020526161049060409020616081617683565b60c084018190526020840182600381111561611b57fe5b600381111561612657fe5b905250600090508260200151600381111561613d57fe5b14616159576160486009602d8460200151600381111561444a57fe5b816080015161616661335f565b101561617857616048600e602f613613565b616186868360800151615b5a565b8160a0015180600d616196617724565b5050508160c001516001600160a01b0387166000908152600e6020526040902081906161c0617724565b5050505a63996d79a5598160e01b8152602081600483336000905af158600e01573d6000803e3d6000fd5b3d6001141558600a015760016000f35b8051925060005b604081101561621957600082820152602001616202565b5050506001600160a01b0316866001600160a01b0316600080516020617d0b833981519152846060015160405190815260200160405180910390a37fe5b754fb1abb7f01b499791d0b820ae3b6af3424ac1c59768edb53f4ec31a929868360800151846060015160405180846001600160a01b03166001600160a01b03168152602001838152602001828152602001935050505060405180910390a1600060056162c1617683565b906101000a90046001600160a01b03166001600160a01b03166351dff9895a63996d79a5598160e01b8152602081600483336000905af158600e01573d6000803e3d6000fd5b3d6001141558600a015760016000f35b8051925060005b60408110156163355760008282015260200161631e565b50505088856080015186606001516040516001600160e01b031960e087901b1681526001600160a01b0394851660048201529290931660248301526044820152606481019190915260840160006040518083038160008780616395617772565b1580156163aa576000806163a7617618565b50505b505a6163b46177be565b5050505050501580156163d4573d6000803e3d60006163d1617618565b50505b50600092506163e1915050565b9695505050505050565b600080836163fe57506000905080613358565b8383028385828161640b57fe5b041461641f57506002915060009050613358565b600092509050613358565b6000808261643e5750600190506000613358565b600083858161644957fe5b04915091509250929050565b60008080806005616464617683565b906101000a90046001600160a01b03166001600160a01b0316634ef4c3e15a63996d79a5598160e01b8152602081600483336000905af158600e01573d6000803e3d6000fd5b3d6001141558600a015760016000f35b8051925060005b60408110156164d8576000828201526020016164c1565b50505087876040516001600160e01b031960e086901b1681526001600160a01b03938416600482015291909216602482015260448101919091526064016020604051808303816000878061652a617772565b15801561653f5760008061653c617618565b50505b505a6165496177be565b505050505050158015616569573d6000803e3d6000616566617618565b50505b505050506040513d602081101561658857600080616585617618565b50505b810190808051935050821591506165b59050576165a86003601f8361524f565b9250600091506133589050565b6165bd613f1d565b60096165c7617683565b146165d8576165a8600a6022613613565b6165e0617a5a565b6165e8612da5565b60408301819052602083018260038111156165ff57fe5b600381111561660a57fe5b905250600090508160200151600381111561662157fe5b1461664b5761663d600960218360200151600381111561444a57fe5b935060009250613358915050565b6166558686615512565b60c0820190815261667890516040518060200160405280846040015190526175a8565b606083018190526020830182600381111561668f57fe5b600381111561669a57fe5b90525060009050816020015160038111156166b157fe5b1461670b5760405162461bcd60e51b815260206004820181905260248201527f4d494e545f45584348414e47455f43414c43554c4154494f4e5f4641494c4544604482015260640160405180910390616708617618565b50505b616722600d616718617683565b82606001516152cb565b608083018190526020830182600381111561673957fe5b600381111561674457fe5b905250600090508160200151600381111561675b57fe5b146167a05760405162461bcd60e51b8152600401808060200182810382526028815260200180617de8602891396040019150506040518091039061679d617618565b50505b6001600160a01b0386166000908152600e6020526167c49060409020616718617683565b60a08301819052602083018260038111156167db57fe5b60038111156167e657fe5b90525060009050816020015160038111156167fd57fe5b146168425760405162461bcd60e51b815260040180806020018281038252602b815260200180617c2d602b91396040019150506040518091039061683f617618565b50505b806080015180600d616852617724565b5050508060a001516001600160a01b0387166000908152600e60205260409020819061687c617724565b5050507f4c209b5fc8ad50758f13e2e1088ba56a560dff690a1c6fef26394f4c03821c4f868260c00151836060015160405180846001600160a01b03166001600160a01b03168152602001838152602001828152602001935050505060405180910390a1856001600160a01b03165a63996d79a5598160e01b8152602081600483336000905af158600e01573d6000803e3d6000fd5b3d6001141558600a015760016000f35b8051925060005b604081101561694057600082820152602001616929565b5050506001600160a01b0316600080516020617d0b833981519152836060015160405190815260200160405180910390a360008160c001519350935050509250929050565b600080600061699261791e565b61699c87876152f1565b909250905060008260038111156169af57fe5b146169c05750915060009050615149565b61518f6169cc82615357565b866152cb565b6000808060056169e0617683565b906101000a90046001600160a01b03166001600160a01b031663da3d454c5a63996d79a5598160e01b8152602081600483336000905af158600e01573d6000803e3d6000fd5b3d6001141558600a015760016000f35b8051925060005b6040811015616a5457600082820152602001616a3d565b50505086866040516001600160e01b031960e086901b1681526001600160a01b039384166004820152919092166024820152604481019190915260640160206040518083038160008780616aa6617772565b158015616abb57600080616ab8617618565b50505b505a616ac56177be565b505050505050158015616ae5573d6000803e3d6000616ae2617618565b50505b505050506040513d6020811015616b0457600080616b01617618565b50505b81019080805193505082159150616b2c905057616b246003600e8361524f565b915050610e14565b616b34613f1d565b6009616b3e617683565b14616b4e57616b24600a80613613565b82616b5761335f565b1015616b6957616b24600e6009613613565b616b71617a97565b616b7a85613e51565b6020830181905282826003811115616b8e57fe5b6003811115616b9957fe5b9052506000905081516003811115616bad57fe5b14616bcf57616bc6600960078351600381111561444a57fe5b92505050610e14565b616bdd8160200151856152cb565b6040830181905282826003811115616bf157fe5b6003811115616bfc57fe5b9052506000905081516003811115616c1057fe5b14616c2957616bc66009600c8351600381111561444a57fe5b616c3c600b616c36617683565b856152cb565b6060830181905282826003811115616c5057fe5b6003811115616c5b57fe5b9052506000905081516003811115616c6f57fe5b14616c8857616bc66009600b8351600381111561444a57fe5b616c928585615b5a565b80604001516001600160a01b03861660009081526010602052604090208190616cb9617724565b505050600a616cc6617683565b6001600160a01b03861660009081526010602052604090206001018190616ceb617724565b505050806060015180600b616cfe617724565b5050507f13ed6866d4e1ee6da46f845c46d7e54120883d75c5ea9a2dacc1c4ca8984ab8085858360400151846060015160405180856001600160a01b03166001600160a01b0316815260200184815260200183815260200182815260200194505050505060405180910390a1600095945050505050565b60008080806005616d84617683565b906101000a90046001600160a01b03166001600160a01b0316635fc7e71e5a63996d79a5598160e01b8152602081600483336000905af158600e01573d6000803e3d6000fd5b3d6001141558600a015760016000f35b8051925060005b6040811015616df857600082820152602001616de1565b505050868a8a8a6040516001600160e01b031960e088901b1681526001600160a01b039586166004820152938516602485015291841660448401529092166064820152608481019190915260a40160206040518083038160008780616e5b617772565b158015616e7057600080616e6d617618565b50505b505a616e7a6177be565b505050505050158015616e9a573d6000803e3d6000616e97617618565b50505b505050506040513d6020811015616eb957600080616eb6617618565b50505b81019080805193505082159150616ee6905057616ed9600360128361524f565b9250600091506175539050565b616eee613f1d565b6009616ef8617683565b14616f0957616ed9600a6016613613565b616f11613f1d565b846001600160a01b0316636c540baf6040518163ffffffff1660e01b81526004016020604051808303818680616f45617772565b158015616f5a57600080616f57617618565b50505b505a616f6461786e565b5050505050158015616f83573d6000803e3d6000616f80617618565b50505b505050506040513d6020811015616fa257600080616f9f617618565b50505b810190808051939093149250616fc191505057616ed9600a6011613613565b866001600160a01b0316866001600160a01b03161415616fe757616ed960066017613613565b84616ff857616ed960076015613613565b60001985141561700e57616ed960076014613613565b60008061701c898989614ce2565b9092509050811561704c5761703d82601081111561703657fe5b6018613613565b94506000935061755392505050565b60008080600561705a617683565b906101000a90046001600160a01b03166001600160a01b031663c488847b5a63996d79a5598160e01b8152602081600483336000905af158600e01573d6000803e3d6000fd5b3d6001141558600a015760016000f35b8051925060005b60408110156170ce576000828201526020016170b7565b5050508a866040516001600160e01b031960e086901b1681526001600160a01b03938416600482015291909216602482015260448101919091526064016040805180830381868061711d617772565b1580156171325760008061712f617618565b50505b505a61713c61786e565b505050505015801561715b573d6000803e3d6000617158617618565b50505b505050506040513d604081101561717a57600080617177617618565b50505b81019080805192919060200180519395509293506000925061719a915050565b82146171e05760405162461bcd60e51b8152600401808060200182810382526033815260200180617d5c60339139604001915050604051809103906171dd617618565b50505b80886001600160a01b03166370a082318c6040516001600160e01b031960e084901b1681526001600160a01b039091166004820152602401602060405180830381868061722b617772565b1580156172405760008061723d617618565b50505b505a61724a61786e565b5050505050158015617269573d6000803e3d6000617266617618565b50505b505050506040513d602081101561728857600080617285617618565b50505b810190808051939093101592506172ec9150505760405162461bcd60e51b815260206004820152601860248201527709892a2aa928882a88abea68a92b48abea89e9ebe9aaa86960431b6044820152606401604051809103906172e9617618565b50505b60005a63996d79a5598160e01b8152602081600483336000905af158600e01573d6000803e3d6000fd5b3d6001141558600a015760016000f35b8051925060005b60408110156173445760008282015260200161732d565b5050506001600160a01b0316896001600160a01b031614156173cb576173c45a63996d79a5598160e01b8152602081600483336000905af158600e01573d6000803e3d6000fd5b3d6001141558600a015760016000f35b8051925060005b60408110156173b9576000828201526020016173a2565b5050508d8d856145f3565b9050617494565b886001600160a01b031663b2a02ff18d8d856040516001600160e01b031960e086901b1681526001600160a01b03938416600482015291909216602482015260448101919091526064016020604051808303816000878061742a617772565b15801561743f5760008061743c617618565b50505b505a6174496177be565b505050505050158015617469573d6000803e3d6000617466617618565b50505b505050506040513d602081101561748857600080617485617618565b50505b81019080805193505050505b80156174e65760405162461bcd60e51b81526020600482015260146024820152731d1bdad95b881cd95a5e9d5c994819985a5b195960621b6044820152606401604051809103906174e3617618565b50505b7f298637f684da70674f26509b10f07ec2fbc77a335ab1e7d6215a4b2484d8bb528c8c868c866040516001600160a01b039586168152938516602085015260408085019390935293166060830152608082019290925260a001905180910390a16000975092955050505050505b94509492505050565b80820182811015610e145760405162461bcd60e51b815260206004820152600c60248201526b6164642d6f766572666c6f7760a01b6044820152606401604051809103906153d2617618565b60008060006175b561791e565b613322868660006175c461791e565b6000806175d9670de0b6b3a7640000876163eb565b909250905060008260038111156175ec57fe5b1461760d578160405160208101604052600081529094509250613358915050565b61335181865161519d565b632a2a7adb598160e01b8152600481016020815285602082015260005b86811015617650578086015182820160400152602001617635565b506020828760640184336000905af158600e01573d6000803e3d6000fd5b3d6001141558600a015760016000f35b505050565b6303daa959598160e01b8152836004820152602081602483336000905af158600e01573d6000803e3d6000fd5b3d6001141558600a015760016000f35b8051935060005b6040811015611cd4576000828201526020016176c7565b6373509064598160e01b8152602081600483336000905af158600e01573d6000803e3d6000fd5b3d6001141558600a015760016000f35b805160008252935060206176c7565b6322bd64c0598160e01b8152836004820152846024820152600081604483336000905af158600e01573d6000803e3d6000fd5b3d6001141558600a015760016000f35b6000815260206176c7565b638435035b598160e01b8152836004820152602081602483336000905af158600e01573d6000803e3d6000fd5b3d6001141558600a015760016000f35b805160008252935060206176c7565b6385979f76598160e01b8152836004820152846024820152606060448201528760648201526084810160005b898110156178025780890151828201526020016177ea565b506060828a60a40184336000905af158600e01573d6000803e3d6000fd5b3d6001141558600a015760016000f35b815160408301513d6000853e8c8c82606087013350600060045af15059845b81811015617863576000815260200161784f565b50919c505050505050565b638540661f598160e01b8152836004820152846024820152606060448201528660648201526084810160005b888110156178b257808801518282015260200161789a565b506060828960a40184336000905af158600e01573d6000803e3d6000fd5b3d6001141558600a015760016000f35b815160408301513d6000853e8b8b82606087013350600060045af15059845b8181101561791357600081526020016178ff565b50919b505050505050565b604051602081016040526000815290565b8280617939617683565b600181600116156101000203166002900490600052602060002090601f016020900481019282601f1061798057805160ff19168380011785617979617724565b50506179bf565b8280016001018561798f617724565b505082156179bf579182015b828111156179bf578251826179ae617724565b50509160200191906001019061799b565b506179cb929150617abf565b5090565b635a98c361598160e01b8152602081600483336000905af158600e01573d6000803e3d6000fd5b3d6001141558600a015760016000f35b805160008252935060206176c7565b60405161010081016040528060008152602001600081526020016000815260200160008152602001600081526020016000815260200160008152602001600081525090565b60405160e0810160405280600081526020016000815260200160008152602001600081526020016000815260200160008152602001600081525090565b6040516080810160405280600081526020016000815260200160008152602001600081525090565b6114f291905b808211156179cb5760008082617ad9617724565b505050600101617ac556fe6f6e6c792061646d696e206d617920696e697469616c697a6520746865206d61726b65746d61726b6574206d6179206f6e6c7920626520696e697469616c697a6564206f6e636545b96fe442630264581b197e84bbada861235052c5a1aadfff9ea4e40a969aa04345726332303a3a7377656570546f6b656e3a2063616e206e6f7420737765657020756e6465726c79696e6720746f6b656e6f6e6c79207468652061646d696e206d617920696e697469616c697a652074686520696d706c656d656e746174696f6e696e697469616c2065786368616e67652072617465206d7573742062652067726561746572207468616e207a65726f2e73657474696e6720696e7465726573742072617465206d6f64656c206661696c65646f6e6c79207468652061646d696e206d6179206162616e646f6e2074686520696d706c656d656e746174696f6e4d494e545f4e45575f4143434f554e545f42414c414e43455f43414c43554c4154494f4e5f4641494c4544626f72726f7742616c616e636553746f7265643a20626f72726f7742616c616e636553746f726564496e7465726e616c206661696c6564ca4f2f25d0898edd99413412fb94012f9e54ec8142f9b093e7720646a95b16a9444149206d757374206265207468652073616d6520617320756e6465726c79696e6752455041595f424f52524f575f4e45575f4143434f554e545f424f52524f575f42414c414e43455f43414c43554c4154494f4e5f4641494c4544ddf252ad1be2c89b69c2b068fc378daa952ba7f163c4a11628f55a4df523b3ef52455041595f424f52524f575f4e45575f544f54414c5f42414c414e43455f43414c43554c4154494f4e5f4641494c45444c49515549444154455f434f4d5054524f4c4c45525f43414c43554c4154455f414d4f554e545f5345495a455f4641494c4544756e6578706563746564204549502d3230207472616e7366657220696e2072657475726e65786368616e67655261746553746f7265643a2065786368616e67655261746553746f726564496e7465726e616c206661696c65644d494e545f4e45575f544f54414c5f535550504c595f43414c43554c4154494f4e5f4641494c45446f6e65206f662072656465656d546f6b656e73496e206f722072656465656d416d6f756e74496e206d757374206265207a65726f72656475636520726573657276657320756e657870656374656420756e646572666c6f77",
  "deployedBytecode": "0x608060405234801561001957600080610016617618565b50505b50600436106102865760003560e01c806306fdde0314610294578063095ea7b3146103135780630e7527021461035c578063153ab50514610394578063173b99041461039e57806317bfdfbc146103a657806318160ddd146103d5578063182df0f5146103dd5780631a31d465146103e55780631be195601461057857806323b872dd146105a75780632608f818146105e6578063267822471461061b578063313ce5671461063f5780633af9e6691461065d5780633b1d21a21461068c5780633e941010146106945780634576b5db146106ba57806347bd3718146106e957806356e67728146106f15780635c60da1b146107b85780635fe3b567146107c0578063601a0bf1146107c857806366ced602146107ee5780636c540baf146107f65780636f307dc3146107fe57806370a082311461080657806373acee9814610835578063852a12e31461083d5780638a8df2e6146108635780638d925ccd1461086b5780638f840ddd1461087357806395d89b411461087b57806395dd91931461088357806399d8c1b4146108b2578063a0712d6814610a3d578063a6afed9514610a63578063a9059cbb14610a6b578063aa5af0fd14610aa0578063ae9d70b014610aa8578063b2a02ff114610ab0578063b71d1a0c14610aef578063bd6d894d14610b1e578063c37f68e214610b26578063c5ebeaec14610b80578063db006a7514610ba6578063dd62ed3e14610bcc578063e9c714f214610c03578063f2b3abbd14610c0b578063f3fdb15a14610c3a578063f5e3c46214610c42578063f851a44014610c81578063f8f9da2814610c89578063fca7820b14610c91578063fe9c44ae14610cb7575b600080610291617618565b50505b61029c610cbf565b60405160208082528190810183818151815260200191508051906020019080838360005b838110156102d85780820151838201526020016102c0565b50505050905090810190601f1680156103055780820380516001836020036101000a031916815260200191505b509250505060405180910390f35b610348600480360360408110156103325760008061032f617618565b50505b506001600160a01b038135169060200135610d78565b604051901515815260200160405180910390f35b6103826004803603602081101561037b57600080610378617618565b50505b5035610e1a565b60405190815260200160405180910390f35b61039c610e30565b005b610382611355565b610382600480360360208110156103c5576000806103c2617618565b50505b50356001600160a01b0316611362565b61038261147f565b610382611489565b61039c600480360360e081101561040457600080610401617618565b50505b6001600160a01b03823581169260208101358216926040820135909216916060820135919081019060a081016080820135600160201b81111561044f5760008061044c617618565b50505b82018360208201111561046a57600080610467617618565b50505b803590602001918460018302840111600160201b8311171561049457600080610491617618565b50505b91908080601f01602080910402602001604051908101604052818152929190602084018383808284376000920191909152509295949360208101935035915050600160201b8111156104ee576000806104eb617618565b50505b82018360208201111561050957600080610506617618565b50505b803590602001918460018302840111600160201b8311171561053357600080610530617618565b50505b91908080601f01602080910402602001604051908101604052818152929190602084018383808284376000920191909152509295505050903560ff1691506114f59050565b61039c6004803603602081101561059757600080610594617618565b50505b50356001600160a01b03166115f6565b610348600480360360608110156105c6576000806105c3617618565b50505b506001600160a01b0381358116916020810135909116906040013561182c565b6103826004803603604081101561060557600080610602617618565b50505b506001600160a01b0381351690602001356118fb565b610623611911565b6040516001600160a01b03909116815260200160405180910390f35b610647611930565b60405160ff909116815260200160405180910390f35b6103826004803603602081101561067c57600080610679617618565b50505b50356001600160a01b0316611949565b610382611a0a565b610382600480360360208110156106b3576000806106b0617618565b50505b5035611a19565b610382600480360360208110156106d9576000806106d6617618565b50505b50356001600160a01b0316611a24565b610382611c0a565b61039c600480360360208110156107105760008061070d617618565b50505b810190602081018135600160201b81111561073357600080610730617618565b50505b82018360208201111561074e5760008061074b617618565b50505b803590602001918460018302840111600160201b8311171561077857600080610775617618565b50505b91908080601f0160208091040260200160405190810160405281815292919060208401838380828437600092019190915250929550611c14945050505050565b610623611cd9565b610623611ce5565b610382600480360360208110156107e7576000806107e4617618565b50505b5035611cf1565b610623611dbd565b610382611dc9565b610623611dd3565b6103826004803603602081101561082557600080610822617618565b50505b50356001600160a01b0316611ddf565b610382611dff565b6103826004803603602081101561085c57600080610859617618565b50505b5035611f1a565b610623611f25565b610623611f31565b610382611f3d565b61029c611f47565b610382600480360360208110156108a25760008061089f617618565b50505b50356001600160a01b0316611fe9565b61039c600480360360c08110156108d1576000806108ce617618565b50505b6001600160a01b03823581169260208101359091169160408201359190810190608081016060820135600160201b81111561091457600080610911617618565b50505b82018360208201111561092f5760008061092c617618565b50505b803590602001918460018302840111600160201b8311171561095957600080610956617618565b50505b91908080601f01602080910402602001604051908101604052818152929190602084018383808284376000920191909152509295949360208101935035915050600160201b8111156109b3576000806109b0617618565b50505b8201836020820111156109ce576000806109cb617618565b50505b803590602001918460018302840111600160201b831117156109f8576000806109f5617618565b50505b91908080601f01602080910402602001604051908101604052818152929190602084018383808284376000920191909152509295505050903560ff1691506120559050565b61038260048036036020811015610a5c57600080610a59617618565b50505b50356122f9565b610382612305565b61034860048036036040811015610a8a57600080610a87617618565b50505b506001600160a01b0381351690602001356123c9565b61038261249f565b6103826124a9565b61038260048036036060811015610acf57600080610acc617618565b50505b506001600160a01b038135811691602081013590911690604001356125a9565b61038260048036036020811015610b0e57600080610b0b617618565b50505b50356001600160a01b031661264f565b61038261272a565b610b5560048036036020811015610b4557600080610b42617618565b50505b50356001600160a01b0316612818565b6040518085815260200184815260200183815260200182815260200194505050505060405180910390f35b61038260048036036020811015610b9f57600080610b9c617618565b50505b50356128b6565b61038260048036036020811015610bc557600080610bc2617618565b50505b50356128c1565b61038260048036036040811015610beb57600080610be8617618565b50505b506001600160a01b03813581169160200135166128cc565b610382612905565b61038260048036036020811015610c2a57600080610c27617618565b50505b50356001600160a01b0316612af9565b610623612b33565b61038260048036036060811015610c6157600080610c5e617618565b50505b506001600160a01b03813581169160208101359160409091013516612b3f565b610623612b57565b610382612b63565b61038260048036036020811015610cb057600080610cad617618565b50505b5035612be9565b610348612c9c565b600180610cca617683565b600181600116156101000203166002900480601f016020809104026020016040519081016040528181529190602083018280610d04617683565b60018160011615610100020316600290048015610d705780601f10610d3e576101008083610d30617683565b040283529160200191610d70565b820191906000526020600020905b81610d55617683565b81529060010190602001808311610d4c57829003601f168201915b505050505081565b6000805a610d846176de565b6001600160a01b0381166000908152600f6020529091508390604090206001600160a01b0386166000908152602091909152604090208190610dc4617724565b505050836001600160a01b0316816001600160a01b03167f8c5be1e5ebec7d5bd14f71427d1e84f3dd0314c0f7b2291e5b200ac8c7c3b9258560405190815260200160405180910390a360019150505b92915050565b600080610e2683612ca1565b509150505b919050565b60016003610e3c617683565b906101000a90046001600160a01b03166001600160a01b03165a610e5e6176de565b6001600160a01b031614610eac5760405162461bcd60e51b815260040180806020018281038252602d815260200180617c00602d913960400191505060405180910390610ea9617618565b50505b6000806013610eb9617683565b906101000a90046001600160a01b0316905060006014600090610eda617683565b906101000a90046001600160a01b0316905060006015600090610efb617683565b906101000a90046001600160a01b03169050816001600160a01b0316639f678cca6040518163ffffffff1660e01b815260040160206040518083038160008780610f43617772565b158015610f5857600080610f55617618565b50505b505a610f626177be565b505050505050158015610f82573d6000803e3d6000610f7f617618565b50505b505050506040513d6020811015610fa157600080610f9e617618565b50505b810190808051506000925050506001600160a01b038316630bebac865a63996d79a5598160e01b8152602081600483336000905af158601d01573d60011458600c01573d6000803e3d621234565260ea61109c528051925060005b604081101561101357600082820152602001610ffc565b5050506040516001600160e01b031960e084901b1681526001600160a01b0390911660048201526024016020604051808303818680611050617772565b15801561106557600080611062617618565b50505b505a61106f61786e565b505050505015801561108e573d6000803e3d600061108b617618565b50505b505050506040513d60208110156110ad576000806110aa617618565b50505b810190808051935050506001600160a01b0384169050637f8661a1826040516001600160e01b031960e084901b1681526004810191909152602401600060405180830381600087806110fd617772565b1580156111125760008061110f617618565b50505b505a61111c6177be565b50505050505015801561113c573d6000803e3d6000611139617618565b50505b505050506000826001600160a01b0316636c25b3465a63996d79a5598160e01b8152602081600483336000905af158601d01573d60011458600c01573d6000803e3d621234565260ea61109c528051925060005b60408110156111a757600082820152602001611190565b5050506040516001600160e01b031960e084901b1681526001600160a01b03909116600482015260240160206040518083038186806111e4617772565b1580156111f9576000806111f6617618565b50505b505a61120361786e565b5050505050158015611222573d6000803e3d600061121f617618565b50505b505050506040513d60208110156112415760008061123e617618565b50505b810190808051935050506001600160a01b038616905063ef693bed5a63996d79a5598160e01b8152602081600483336000905af158601d01573d60011458600c01573d6000803e3d621234565260ea61109c528051925060005b60408110156112b25760008282015260200161129b565b505050676765c793fa10079d601b1b84816112c957fe5b046040516001600160e01b031960e085901b1681526001600160a01b03909216600483015260248201526044016000604051808303816000878061130b617772565b1580156113205760008061131d617618565b50505b505a61132a6177be565b50505050505015801561134a573d6000803e3d6000611347617618565b50505b505050505050505050565b600861135f617683565b81565b6000808061136e617683565b906101000a900460ff166113be5760405162461bcd60e51b815260206004820152600a6024820152691c994b595b9d195c995960b21b6044820152606401604051809103906113bb617618565b50505b6000806001816113cc617683565b8160ff021916908315150217906113e1617724565b50600091506113ed9050565b6113f5612305565b146114485760405162461bcd60e51b81526020600482015260166024820152751858d8dc9d59481a5b9d195c995cdd0819985a5b195960521b604482015260640160405180910390611445617618565b50505b61145182611fe9565b90505b600160008181611462617683565b8160ff02191690831515021790611477617724565b505050919050565b600d61135f617683565b6000806000611496612da5565b909250905060008260038111156114a957fe5b146114ee5760405162461bcd60e51b8152600401808060200182810382526035815260200180617db360359139604001915050604051809103906114eb617618565b50505b9150505b90565b611503868686868686612055565b866011600181611511617683565b816001600160a01b0302191690836001600160a01b0316021790611533617724565b5050506011600090611543617683565b906101000a90046001600160a01b03166001600160a01b03166318160ddd6040518163ffffffff1660e01b81526004016020604051808303818680611586617772565b15801561159b57600080611598617618565b50505b505a6115a561786e565b50505050501580156115c4573d6000803e3d60006115c1617618565b50505b505050506040513d60208110156115e3576000806115e0617618565b50505b8101908080515050505050505050505050565b60006011611602617683565b906101000a90046001600160a01b03166001600160a01b0316816001600160a01b0316141561166b5760405162461bcd60e51b8152600401808060200182810382526032815260200180617b4c6032913960400191505060405180910390611668617618565b50505b6000816001600160a01b03166370a082315a63996d79a5598160e01b8152602081600483336000905af158601d01573d60011458600c01573d6000803e3d621234565260ea61109c528051925060005b60408110156116d2576000828201526020016116bb565b5050506040516001600160e01b031960e084901b1681526001600160a01b039091166004820152602401602060405180830381868061170f617772565b15801561172457600080611721617618565b50505b505a61172e61786e565b505050505015801561174d573d6000803e3d600061174a617618565b50505b505050506040513d602081101561176c57600080611769617618565b50505b810190808051935050506001600160a01b038316905063a9059cbb60016003611793617683565b906101000a90046001600160a01b0316836040516001600160e01b031960e085901b1681526001600160a01b0390921660048301526024820152604401600060405180830381600087806117e5617772565b1580156117fa576000806117f7617618565b50505b505a6118046177be565b505050505050158015611824573d6000803e3d6000611821617618565b50505b505050505050565b60008080611838617683565b906101000a900460ff166118885760405162461bcd60e51b815260206004820152600a6024820152691c994b595b9d195c995960b21b604482015260640160405180910390611885617618565b50505b600080600181611896617683565b8160ff021916908315150217906118ab617724565b50600091506118b79050565b6118cb5a6118c36176de565b868686612e70565b1490506001600081816118dc617683565b8160ff021916908315150217906118f1617724565b5050509392505050565b600080611908848461320d565b50949350505050565b6000600461191d617683565b906101000a90046001600160a01b031681565b6000600361193c617683565b906101000a900460ff1681565b600061195361791e565b604051806020016040528061196661272a565b90526001600160a01b0384166000908152600e602052909150806119958360408320611990617683565b61330b565b909250905060008260038111156119a857fe5b14611a025760405162461bcd60e51b815260206004820152601f60248201527f62616c616e636520636f756c64206e6f742062652063616c63756c61746564006044820152606401604051809103906119ff617618565b50505b949350505050565b6000611a1461335f565b905090565b6000610e148261354e565b600060016003611a32617683565b906101000a90046001600160a01b03166001600160a01b03165a611a546176de565b6001600160a01b031614611a7557611a6e6001603f613613565b9050610e2b565b6000806005611a82617683565b906101000a90046001600160a01b03169050826001600160a01b0316627e3dd26040518163ffffffff1660e01b81526004016020604051808303818680611ac7617772565b158015611adc57600080611ad9617618565b50505b505a611ae661786e565b5050505050158015611b05573d6000803e3d6000611b02617618565b50505b505050506040513d6020811015611b2457600080611b21617618565b50505b8101908080519250611b879150505760405162461bcd60e51b815260206004820152601c60248201527b6d61726b6572206d6574686f642072657475726e65642066616c736560201b604482015260640160405180910390611b84617618565b50505b826005600181611b95617683565b816001600160a01b0302191690836001600160a01b0316021790611bb7617724565b5050507f7ac369dbd14fa5ea3f473ed67cc9d598964a77501540ba6751eb0b3decf5870d81846040516001600160a01b039283168152911660208201526040908101905180910390a160005b9392505050565b600b61135f617683565b60016003611c20617683565b906101000a90046001600160a01b03166001600160a01b03165a611c426176de565b6001600160a01b031614611c905760405162461bcd60e51b8152600401808060200182810382526030815260200180617b7e6030913960400191505060405180910390611c8d617618565b50505b6000806020830183516040811015611cb057600080611cad617618565b50505b8101908080519291906020018051939550929350611cd4925084915083905061366d565b505050565b6000601261191d617683565b6000600561191d617683565b60008080611cfd617683565b906101000a900460ff16611d4d5760405162461bcd60e51b815260206004820152600a6024820152691c994b595b9d195c995960b21b604482015260640160405180910390611d4a617618565b50505b600080600181611d5b617683565b8160ff02191690831515021790611d70617724565b5050506000611d7d612305565b90508015611da357611d9b816010811115611d9457fe5b6030613613565b915050611454565b611dac83613bde565b915050600160008181611462617683565b6000601461191d617683565b600961135f617683565b6000601161191d617683565b6001600160a01b0381166000908152600e60205260408120610e14617683565b60008080611e0b617683565b906101000a900460ff16611e5b5760405162461bcd60e51b815260206004820152600a6024820152691c994b595b9d195c995960b21b604482015260640160405180910390611e58617618565b50505b600080600181611e69617683565b8160ff02191690831515021790611e7e617724565b5060009150611e8a9050565b611e92612305565b14611ee55760405162461bcd60e51b81526020600482015260166024820152751858d8dc9d59481a5b9d195c995cdd0819985a5b195960521b604482015260640160405180910390611ee2617618565b50505b600b611eef617683565b9050600160008181611eff617683565b8160ff02191690831515021790611f14617724565b50505090565b6000610e1482613d93565b6000601361191d617683565b6000601561191d617683565b600c61135f617683565b600280611f52617683565b600181600116156101000203166002900480601f016020809104026020016040519081016040528181529190602083018280611f8c617683565b60018160011615610100020316600290048015610d705780601f10611fb8576101008083610d30617683565b820191906000526020600020905b81611fcf617683565b81529060010190602001808311611fc65750859350505050565b6000806000611ff784613e51565b9092509050600082600381111561200a57fe5b14611c035760405162461bcd60e51b8152600401808060200182810382526037815260200180617c58603791396040019150506040518091039061204c617618565b50509392505050565b60016003612061617683565b906101000a90046001600160a01b03166001600160a01b03165a6120836176de565b6001600160a01b0316146120d15760405162461bcd60e51b8152600401808060200182810382526024815260200180617ae560249139604001915050604051809103906120ce617618565b50505b60096120db617683565b1580156120ef5750600a6120ed617683565b155b6121335760405162461bcd60e51b8152600401808060200182810382526023815260200180617b096023913960400191505060405180910390612130617618565b50505b8380600761213f617724565b5050506000600761214e617683565b116121935760405162461bcd60e51b8152600401808060200182810382526030815260200180617bae6030913960400191505060405180910390612190617618565b50505b600061219e87611a24565b905080156121f85760405162461bcd60e51b815260206004820152601a6024820152791cd95d1d1a5b99c818dbdb5c1d1c9bdb1b195c8819985a5b195960321b6044820152606401604051809103906121f5617618565b50505b612200613f1d565b80600961220b617724565b505050670de0b6b3a7640000600a8190612223617724565b50505061222f86613f28565b905080156122775760405162461bcd60e51b8152600401808060200182810382526022815260200180617bde6022913960400191505060405180910390612274617618565b50505b600184805161228a92916020019061792f565b50600283805161229e92916020019061792f565b508160036001816122ad617683565b8160ff021916908360ff160217906122c3617724565b50505060016000806101000a816122d8617683565b8160ff021916908315150217906122ed617724565b50505050505050505050565b600080610e2683614128565b6000806014612312617683565b906101000a90046001600160a01b03166001600160a01b0316639f678cca6040518163ffffffff1660e01b815260040160206040518083038160008780612357617772565b15801561236c57600080612369617618565b50505b505a6123766177be565b505050505050158015612396573d6000803e3d6000612393617618565b50505b505050506040513d60208110156123b5576000806123b2617618565b50505b81019080805150611a1492506141e5915050565b600080806123d5617683565b906101000a900460ff166124255760405162461bcd60e51b815260206004820152600a6024820152691c994b595b9d195c995960b21b604482015260640160405180910390612422617618565b50505b600080600181612433617683565b8160ff02191690831515021790612448617724565b50600091506124549050565b6124705a6124606176de565b5a6124696176de565b8686612e70565b149050600160008181612481617683565b8160ff02191690831515021790612496617724565b50505092915050565b600a61135f617683565b60008060066124b6617683565b906101000a90046001600160a01b03166001600160a01b031663b81688166124dc61335f565b600b6124e6617683565b600c6124f0617683565b60086124fa617683565b6040516001600160e01b031960e087901b1681526004810194909452602484019290925260448301526064820152608401602060405180830381868061253e617772565b15801561255357600080612550617618565b50505b505a61255d61786e565b505050505015801561257c573d6000803e3d6000612579617618565b50505b505050506040513d602081101561259b57600080612598617618565b50505b810190808051935050505090565b600080806125b5617683565b906101000a900460ff166126055760405162461bcd60e51b815260206004820152600a6024820152691c994b595b9d195c995960b21b604482015260640160405180910390612602617618565b50505b600080600181612613617683565b8160ff02191690831515021790612628617724565b50505061263f5a6126376176de565b8585856145f3565b90506001600081816118dc617683565b60006001600361265d617683565b906101000a90046001600160a01b03166001600160a01b03165a61267f6176de565b6001600160a01b03161461269957611a6e60016045613613565b60008060046126a6617683565b906101000a90046001600160a01b0316905082600460006101000a816126ca617683565b816001600160a01b0302191690836001600160a01b03160217906126ec617724565b505050600080516020617c8f83398151915281846040516001600160a01b039283168152911660208201526040908101905180910390a16000611c03565b60008080612736617683565b906101000a900460ff166127865760405162461bcd60e51b815260206004820152600a6024820152691c994b595b9d195c995960b21b604482015260640160405180910390612783617618565b50505b600080600181612794617683565b8160ff021916908315150217906127a9617724565b50600091506127b59050565b6127bd612305565b146128105760405162461bcd60e51b81526020600482015260166024820152751858d8dc9d59481a5b9d195c995cdd0819985a5b195960521b60448201526064016040518091039061280d617618565b50505b611eef611489565b6001600160a01b0381166000908152600e602052808080806040812061283c617683565b9050600080600061284c89613e51565b93509050600081600381111561285e57fe5b1461287c5760095b9750600096508695508594506128af9350505050565b612884612da5565b92509050600081600381111561289657fe5b146128a2576009612866565b5060009650919450925090505b9193509193565b6000610e14826148c4565b6000610e1482614980565b6001600160a01b0382166000908152600f602052604081206001600160a01b038316600090815260209190915260409020611c03617683565b6000806004612912617683565b906101000a90046001600160a01b03166001600160a01b03165a6129346176de565b6001600160a01b031614158061295b575060005a6129506176de565b6001600160a01b0316145b156129735761296c60016000613613565b90506114f2565b600060016003612981617683565b906101000a90046001600160a01b03169050600060046000906129a2617683565b906101000a90046001600160a01b0316905060046000906129c1617683565b906101000a90046001600160a01b0316600360016101000a816129e2617683565b816001600160a01b0302191690836001600160a01b0316021790612a04617724565b5050506000600460006101000a81612a1a617683565b816001600160a01b0302191690836001600160a01b0316021790612a3c617724565b5050507ff9ffabca9c8276e99321725bcb43fb076a6c66a54b7f21c4e8146d8519b417dc826003600190612a6e617683565b906101000a90046001600160a01b03166040516001600160a01b039283168152911660208201526040908101905180910390a1600080516020617c8f8339815191528160006004612abd617683565b906101000a90046001600160a01b03166040516001600160a01b039283168152911660208201526040908101905180910390a160009250505090565b600080612b04612305565b90508015612b2a57612b22816010811115612b1b57fe5b6040613613565b915050610e2b565b611c0383613f28565b6000600661191d617683565b600080612b4d858585614a37565b5095945050505050565b6001600361191d617683565b6000806006612b70617683565b906101000a90046001600160a01b03166001600160a01b03166315f24053612b9661335f565b600b612ba0617683565b600c612baa617683565b6040516001600160e01b031960e086901b168152600481019390935260248301919091526044820152606401602060405180830381868061253e617772565b60008080612bf5617683565b906101000a900460ff16612c455760405162461bcd60e51b815260206004820152600a6024820152691c994b595b9d195c995960b21b604482015260640160405180910390612c42617618565b50505b600080600181612c53617683565b8160ff02191690831515021790612c68617724565b5050506000612c75612305565b90508015612c9357611d9b816010811115612c8c57fe5b6046613613565b611dac83614bfb565b600181565b6000808080612cae617683565b906101000a900460ff16612cfe5760405162461bcd60e51b815260206004820152600a6024820152691c994b595b9d195c995960b21b604482015260640160405180910390612cfb617618565b50505b600080600181612d0c617683565b8160ff02191690831515021790612d21617724565b5050506000612d2e612305565b90508015612d5957612d4c816010811115612d4557fe5b6036613613565b925060009150612d7a9050565b612d745a612d656176de565b5a612d6e6176de565b86614ce2565b92509250505b600160008181612d88617683565b8160ff02191690831515021790612d9d617724565b505050915091565b6000806000600d612db4617683565b905080612dd15760006007612dc7617683565b9250925050612e6c565b6000612ddb61335f565b90506000612de761791e565b6000612e0684600b612df7617683565b600c612e01617683565b615151565b935090506000816003811115612e1857fe5b14612e2d57955060009450612e6c9350505050565b612e37838661519d565b925090506000816003811115612e4957fe5b14612e5e57955060009450612e6c9350505050565b600082519650965050505050505b9091565b600080806005612e7e617683565b906101000a90046001600160a01b03166001600160a01b031663bdcdc2585a63996d79a5598160e01b8152602081600483336000905af158601d01573d60011458600c01573d6000803e3d621234565260ea61109c528051925060005b6040811015612ef257600082820152602001612edb565b5050508787876040516001600160e01b031960e087901b1681526001600160a01b039485166004820152928416602484015292166044820152606481019190915260840160206040518083038160008780612f4b617772565b158015612f6057600080612f5d617618565b50505b505a612f6a6177be565b505050505050158015612f8a573d6000803e3d6000612f87617618565b50505b505050506040513d6020811015612fa957600080612fa6617618565b50505b81019080805193505082159150612fd1905057612fc96003604a8361524f565b915050611a02565b836001600160a01b0316856001600160a01b03161415612ff757612fc96002604b613613565b60006001600160a01b0387811690871614156130165750600019613052565b6001600160a01b0386166000908152600f602052604090206001600160a01b03881660009081526020919091526040902061304f617683565b90505b60008060008061306285896152a8565b9094509250600084600381111561307557fe5b14613093576130866009604b613613565b9650505050505050611a02565b6001600160a01b038a166000908152600e6020526130bd90604090206130b7617683565b896152a8565b909450915060008460038111156130d057fe5b146130e1576130866009604c613613565b6001600160a01b0389166000908152600e60205261310b9060409020613105617683565b896152cb565b9094509050600084600381111561311e57fe5b1461312f576130866009604d613613565b6001600160a01b038a166000908152600e6020528290604090208190613153617724565b5050506001600160a01b0389166000908152600e602052819060409020819061317a617724565b50505060001985146131c7576001600160a01b038a166000908152600f6020528390604090206001600160a01b038d1660009081526020919091526040902081906131c3617724565b5050505b886001600160a01b03168a6001600160a01b0316600080516020617d0b8339815191528a60405190815260200160405180910390a35060009a9950505050505050505050565b600080808061321a617683565b906101000a900460ff1661326a5760405162461bcd60e51b815260206004820152600a6024820152691c994b595b9d195c995960b21b604482015260640160405180910390613267617618565b50505b600080600181613278617683565b8160ff0219169083151502179061328d617724565b505050600061329a612305565b905080156132c5576132b88160108111156132b157fe5b6035613613565b9250600091506132de9050565b6132d85a6132d16176de565b8686614ce2565b92509250505b6001600081816132ec617683565b8160ff02191690831515021790613301617724565b5050509250929050565b600080600061331861791e565b61332286866152f1565b9092509050600082600381111561333557fe5b146133465750915060009050613358565b600061335182615357565b9350935050505b9250929050565b60008080601461336d617683565b906101000a90046001600160a01b031690506000816001600160a01b0316630bebac865a63996d79a5598160e01b8152602081600483336000905af158601d01573d60011458600c01573d6000803e3d621234565260ea61109c528051925060005b60408110156133e6576000828201526020016133cf565b5050506040516001600160e01b031960e084901b1681526001600160a01b0390911660048201526024016020604051808303818680613423617772565b15801561343857600080613435617618565b50505b505a61344261786e565b5050505050158015613461573d6000803e3d600061345e617618565b50505b505050506040513d60208110156134805760008061347d617618565b50505b8101908080519350676765c793fa10079d601b1b925061353f9150506001600160a01b03841663c92aecc46040518163ffffffff1660e01b815260040160206040518083038186806134d0617772565b1580156134e5576000806134e2617618565b50505b505a6134ef61786e565b505050505015801561350e573d6000803e3d600061350b617618565b50505b505050506040513d602081101561352d5760008061352a617618565b50505b81019080805192508591506153729050565b8161354657fe5b049250505090565b6000808061355a617683565b906101000a900460ff166135aa5760405162461bcd60e51b815260206004820152600a6024820152691c994b595b9d195c995960b21b6044820152606401604051809103906135a7617618565b50505b6000806001816135b8617683565b8160ff021916908315150217906135cd617724565b50505060006135da612305565b905080156135f857611d9b8160108111156135f157fe5b604e613613565b613601836153da565b50915050600160008181611462617683565b6000600080516020617b2c83398151915283601081111561363057fe5b83605081111561363c57fe5b600060405180848152602001838152602001828152602001935050505060405180910390a1826010811115611c0357fe5b818160006001600160a01b03831663f4b9fa756040518163ffffffff1660e01b8152600401602060405180830381600087806136a7617772565b1580156136bc576000806136b9617618565b50505b505a6136c66177be565b5050505050501580156136e6573d6000803e3d60006136e3617618565b50505b505050506040513d602081101561370557600080613702617618565b50505b81019080805193506000925050506001600160a01b0384166336569e776040518163ffffffff1660e01b815260040160206040518083038160008780613749617772565b15801561375e5760008061375b617618565b50505b505a6137686177be565b505050505050158015613788573d6000803e3d6000613785617618565b50505b505050506040513d60208110156137a7576000806137a4617618565b50505b810190808051935060009250601191506137c19050617683565b906101000a90046001600160a01b03166001600160a01b0316826001600160a01b0316146138295760405162461bcd60e51b8152600401808060200182810382526022815260200180617caf6022913960400191505060405180910390613826617618565b50505b856013600181613837617683565b816001600160a01b0302191690836001600160a01b0316021790613859617724565b50505084601460006101000a8161386e617683565b816001600160a01b0302191690836001600160a01b0316021790613890617724565b50505080601560006101000a816138a5617683565b816001600160a01b0302191690836001600160a01b03160217906138c7617724565b505050816001600160a01b031663095ea7b360136000906138e6617683565b906101000a90046001600160a01b03166000196040516001600160e01b031960e085901b1681526001600160a01b03909216600483015260248201526044016000604051808303816000878061393a617772565b15801561394f5760008061394c617618565b50505b505a6139596177be565b505050505050158015613979573d6000803e3d6000613976617618565b50505b50505050806001600160a01b031663a3b22fc46014600090613999617683565b906101000a90046001600160a01b03166040516001600160e01b031960e084901b1681526001600160a01b039091166004820152602401600060405180830381600087806139e5617772565b1580156139fa576000806139f7617618565b50505b505a613a046177be565b505050505050158015613a24573d6000803e3d6000613a21617618565b50505b50505050806001600160a01b031663a3b22fc46013600090613a44617683565b906101000a90046001600160a01b03166040516001600160e01b031960e084901b1681526001600160a01b03909116600482015260240160006040518083038160008780613a90617772565b158015613aa557600080613aa2617618565b50505b505a613aaf6177be565b505050505050158015613acf573d6000803e3d6000613acc617618565b50505b50505050826001600160a01b0316639f678cca6040518163ffffffff1660e01b815260040160206040518083038160008780613b09617772565b158015613b1e57600080613b1b617618565b50505b505a613b286177be565b505050505050158015613b48573d6000803e3d6000613b45617618565b50505b505050506040513d6020811015613b6757600080613b64617618565b50505b81019080805150613bd5925050505a63996d79a5598160e01b8152602081600483336000905af158601d01573d60011458600c01573d6000803e3d621234565260ea61109c528051925060005b6040811015613bcb57600082820152602001613bb4565b5050506000615512565b50505050505050565b60008060016003613bed617683565b906101000a90046001600160a01b03166001600160a01b03165a613c0f6176de565b6001600160a01b031614613c2957612b2260016031613613565b613c31613f1d565b6009613c3b617683565b14613c4c57612b22600a6033613613565b82613c5561335f565b1015613c6757612b22600e6032613613565b600c613c71617683565b831115613c8457612b2260026034613613565b82600c613c8f617683565b039050600c613c9c617683565b811115613ce35760405162461bcd60e51b8152600401808060200182810382526024815260200180617e446024913960400191505060405180910390613ce0617618565b50505b8080600c613cef617724565b505050613d186003600190613d02617683565b906101000a90046001600160a01b031684615b5a565b7f3bad0c59cf2f06e7314077049f48a93578cd16f5ef92329f1dab1420a99c177e60016003613d45617683565b906101000a90046001600160a01b0316848360405180846001600160a01b03166001600160a01b03168152602001838152602001828152602001935050505060405180910390a16000611c03565b60008080613d9f617683565b906101000a900460ff16613def5760405162461bcd60e51b815260206004820152600a6024820152691c994b595b9d195c995960b21b604482015260640160405180910390613dec617618565b50505b600080600181613dfd617683565b8160ff02191690831515021790613e12617724565b5050506000613e1f612305565b90508015613e3d57611d9b816010811115613e3657fe5b6027613613565b611dac5a613e496176de565b600085615d3b565b6001600160a01b03811660009081526010602052808080808060408120905080613e79617683565b613e8e575060009450849350613f1892505050565b613ea981613e9a617683565b600a613ea4617683565b6163eb565b90945092506000846003811115613ebc57fe5b14613ed1575091935060009250613f18915050565b613ee68382600101613ee1617683565b61642a565b90945091506000846003811115613ef957fe5b14613f0e575091935060009250613f18915050565b5060009450925050505b915091565b60005a611a146179cf565b60008060016003613f37617683565b906101000a90046001600160a01b03166001600160a01b03165a613f596176de565b6001600160a01b031614613f7357612b2260016042613613565b613f7b613f1d565b6009613f85617683565b14613f9657612b22600a6041613613565b60006006613fa2617683565b906101000a90046001600160a01b03169050826001600160a01b0316632191f92a6040518163ffffffff1660e01b81526004016020604051808303818680613fe8617772565b158015613ffd57600080613ffa617618565b50505b505a61400761786e565b5050505050158015614026573d6000803e3d6000614023617618565b50505b505050506040513d602081101561404557600080614042617618565b50505b81019080805192506140a89150505760405162461bcd60e51b815260206004820152601c60248201527b6d61726b6572206d6574686f642072657475726e65642066616c736560201b6044820152606401604051809103906140a5617618565b50505b8260066001816140b6617683565b816001600160a01b0302191690836001600160a01b03160217906140d8617724565b5050507fedffc32e068c7c95dfd4bdfd5c4d939a084d6b11c4199eac8436ed234d72f92681846040516001600160a01b039283168152911660208201526040908101905180910390a16000611c03565b6000808080614135617683565b906101000a900460ff166141855760405162461bcd60e51b815260206004820152600a6024820152691c994b595b9d195c995960b21b604482015260640160405180910390614182617618565b50505b600080600181614193617683565b8160ff021916908315150217906141a8617724565b50505060006141b5612305565b905080156141d357612d4c8160108111156141cc57fe5b601e613613565b612d745a6141df6176de565b85616455565b6000806141f0613f1d565b9050600060096141fe617683565b905081811415614213576000925050506114f2565b600061421d61335f565b90506000600b61422b617683565b90506000600c614239617683565b90506000600a614247617683565b90506000806006614256617683565b906101000a90046001600160a01b03166001600160a01b03166315f240538686866040516001600160e01b031960e086901b16815260048101939093526024830191909152604482015260640160206040518083038186806142b6617772565b1580156142cb576000806142c8617618565b50505b505a6142d561786e565b50505050501580156142f4573d6000803e3d60006142f1617618565b50505b505050506040513d602081101561431357600080614310617618565b50505b8101908080519350505065048c2739500082111590506143815760405162461bcd60e51b815260206004820152601c60248201527b0c4dee4e4deee40e4c2e8ca40d2e640c2c4e6eae4c8d8f240d0d2ced60231b60448201526064016040518091039061437e617618565b50505b60008061438e89896152a8565b909250905060008260038111156143a157fe5b146143fb5760405162461bcd60e51b815260206004820152601f60248201527f636f756c64206e6f742063616c63756c61746520626c6f636b2064656c7461006044820152606401604051809103906143f8617618565b50505b61440361791e565b60008060008061441f60405160208101604052898152876152f1565b9097509450600087600381111561443257fe5b146144645761444f6009600689600381111561444a57fe5b61524f565b9e5050505050505050505050505050506114f2565b61446e858c61330b565b9097509350600087600381111561448157fe5b146144995761444f6009600189600381111561444a57fe5b6144a3848c6152cb565b909750925060008760038111156144b657fe5b146144ce5761444f6009600489600381111561444a57fe5b6144ef604051806020016040528060086144e6617683565b9052858c616985565b9097509150600087600381111561450257fe5b1461451a5761444f6009600589600381111561444a57fe5b614525858a8b616985565b9097509050600087600381111561453857fe5b146145505761444f6009600389600381111561444a57fe5b8d80600961455c617724565b50505080600a819061456c617724565b50505082600b819061457c617724565b50505081600c819061458c617724565b5050507f4dec04e750ca11537cabcd8a9eab06494de08da3735bc8871cd41250e190bc048c8583866040518085815260200184815260200183815260200182815260200194505050505060405180910390a160009e50505050505050505050505050505090565b600080806005614601617683565b906101000a90046001600160a01b03166001600160a01b031663d02f73515a63996d79a5598160e01b8152602081600483336000905af158601d01573d60011458600c01573d6000803e3d621234565260ea61109c528051925060005b60408110156146755760008282015260200161465e565b505050888888886040516001600160e01b031960e088901b1681526001600160a01b039586166004820152938516602485015291841660448401529092166064820152608481019190915260a401602060405180830381600087806146d8617772565b1580156146ed576000806146ea617618565b50505b505a6146f76177be565b505050505050158015614717573d6000803e3d6000614714617618565b50505b505050506040513d602081101561473657600080614733617618565b50505b81019080805193505082159150614756905057612fc96003601b8361524f565b846001600160a01b0316846001600160a01b0316141561477c57612fc96006601c613613565b6001600160a01b0384166000908152600e60205280806147a7604082206147a1617683565b876152a8565b909350915060008360038111156147ba57fe5b146147dd576147d26009601a85600381111561444a57fe5b945050505050611a02565b6001600160a01b0388166000908152600e6020526148079060409020614801617683565b876152cb565b9093509050600083600381111561481a57fe5b14614832576147d26009601985600381111561444a57fe5b6001600160a01b0387166000908152600e6020528290604090208190614856617724565b5050506001600160a01b0388166000908152600e602052819060409020819061487d617724565b505050876001600160a01b0316876001600160a01b0316600080516020617d0b8339815191528860405190815260200160405180910390a360009998505050505050505050565b600080806148d0617683565b906101000a900460ff166149205760405162461bcd60e51b815260206004820152600a6024820152691c994b595b9d195c995960b21b60448201526064016040518091039061491d617618565b50505b60008060018161492e617683565b8160ff02191690831515021790614943617724565b5050506000614950612305565b9050801561496e57611d9b81601081111561496757fe5b6008613613565b611dac5a61497a6176de565b846169d2565b6000808061498c617683565b906101000a900460ff166149dc5760405162461bcd60e51b815260206004820152600a6024820152691c994b595b9d195c995960b21b6044820152606401604051809103906149d9617618565b50505b6000806001816149ea617683565b8160ff021916908315150217906149ff617724565b5050506000614a0c612305565b90508015614a2357611d9b816010811115613e3657fe5b611dac5a614a2f6176de565b846000615d3b565b6000808080614a44617683565b906101000a900460ff16614a945760405162461bcd60e51b815260206004820152600a6024820152691c994b595b9d195c995960b21b604482015260640160405180910390614a91617618565b50505b600080600181614aa2617683565b8160ff02191690831515021790614ab7617724565b5050506000614ac4612305565b90508015614aef57614ae2816010811115614adb57fe5b600f613613565b925060009150614bcd9050565b836001600160a01b031663a6afed956040518163ffffffff1660e01b815260040160206040518083038160008780614b25617772565b158015614b3a57600080614b37617618565b50505b505a614b446177be565b505050505050158015614b64573d6000803e3d6000614b61617618565b50505b505050506040513d6020811015614b8357600080614b80617618565b50505b810190808051935060009250614b97915050565b8114614bb357614ae2816010811115614bac57fe5b6010613613565b614bc75a614bbf6176de565b878787616d75565b92509250505b600160008181614bdb617683565b8160ff02191690831515021790614bf0617724565b505050935093915050565b600060016003614c09617683565b906101000a90046001600160a01b03166001600160a01b03165a614c2b6176de565b6001600160a01b031614614c4557611a6e60016047613613565b614c4d613f1d565b6009614c57617683565b14614c6857611a6e600a6048613613565b670de0b6b3a7640000821115614c8457611a6e60026049613613565b60006008614c90617683565b905082806008614c9e617724565b5050507faaa68312e2ea9d50e16af5068410ab56e1a1fd06037b1a35664812c30f821460818460405191825260208201526040908101905180910390a16000611c03565b60008080806005614cf1617683565b906101000a90046001600160a01b03166001600160a01b03166324008a625a63996d79a5598160e01b8152602081600483336000905af158601d01573d60011458600c01573d6000803e3d621234565260ea61109c528051925060005b6040811015614d6557600082820152602001614d4e565b5050508888886040516001600160e01b031960e087901b1681526001600160a01b039485166004820152928416602484015292166044820152606481019190915260840160206040518083038160008780614dbe617772565b158015614dd357600080614dd0617618565b50505b505a614ddd6177be565b505050505050158015614dfd573d6000803e3d6000614dfa617618565b50505b505050506040513d6020811015614e1c57600080614e19617618565b50505b81019080805193505082159150614e49905057614e3c600360388361524f565b9250600091506151499050565b614e51613f1d565b6009614e5b617683565b14614e6c57614e3c600a6039613613565b614e74617a15565b6001600160a01b0386166000908152601060205260409020600101614e97617683565b6060820152614ea586613e51565b6080830181905260208301826003811115614ebc57fe5b6003811115614ec757fe5b9052506000905081602001516003811115614ede57fe5b14614f0857614efa600960378360200151600381111561444a57fe5b935060009250615149915050565b600019851415614f215780608001516040820152614f29565b604081018590525b614f37878260400151615512565b60e0820152614f4e60808201518260e001516152a8565b60a0830181905260208301826003811115614f6557fe5b6003811115614f7057fe5b9052506000905081602001516003811115614f8757fe5b14614fcc5760405162461bcd60e51b815260040180806020018281038252603a815260200180617cd1603a913960400191505060405180910390614fc9617618565b50505b614fe3600b614fd9617683565b8260e001516152a8565b60c0830181905260208301826003811115614ffa57fe5b600381111561500557fe5b905250600090508160200151600381111561501c57fe5b146150615760405162461bcd60e51b8152600401808060200182810382526031815260200180617d2b603191396040019150506040518091039061505e617618565b50505b8060a001516001600160a01b03871660009081526010602052604090208190615088617724565b505050600a615095617683565b6001600160a01b038716600090815260106020526040902060010181906150ba617724565b5050508060c0015180600b6150cd617724565b5050507f1a2a22cb034d26d1854bdc6666a5b91fe25efbbb5dcad3b0355478d6f5c362a187878360e001518460a001518560c001516040516001600160a01b0395861681529390941660208401526040808401929092526060830152608082019290925260a001905180910390a160008160e001519350935050505b935093915050565b60008060008061516187876152cb565b9092509050600082600381111561517457fe5b146151855750915060009050615149565b61518f81866152a8565b935093505050935093915050565b60006151a761791e565b6000806151bc86670de0b6b3a76400006163eb565b909250905060008260038111156151cf57fe5b146151f0578160405160208101604052600081529094509250613358915050565b6000806151fd838861642a565b9092509050600082600381111561521057fe5b146152335781604051602081016040526000815290965094506133589350505050565b6000604051602081016040529182529890975095505050505050565b6000600080516020617b2c83398151915284601081111561526c57fe5b84605081111561527857fe5b8460405180848152602001838152602001828152602001935050505060405180910390a1836010811115611a0257fe5b6000808383116152bf575060009050818303613358565b50600390506000613358565b6000808383018481106152e357600092509050613358565b506002915060009050613358565b60006152fb61791e565b6000806153098651866163eb565b9092509050600082600381111561531c57fe5b1461533d578160405160208101604052600081529094509250613358915050565b600060405160208101604052918252969095509350505050565b6000670de0b6b3a764000082518161536b57fe5b0492915050565b600081158061538d5750508082028282828161538a57fe5b04145b610e145760405162461bcd60e51b815260206004820152600c60248201526b6d756c2d6f766572666c6f7760a01b6044820152606401604051809103906153d2617618565b505092915050565b6000806000806153e8613f1d565b60096153f2617683565b1461540e57615403600a604f613613565b93509150613f189050565b6154205a61541a6176de565b86615512565b905080600c61542d617683565b019150600c61543a617683565b8210156154965760405162461bcd60e51b815260206004820181905260248201527f61646420726573657276657320756e6578706563746564206f766572666c6f77604482015260640160405180910390615493617618565b50505b8180600c6154a2617724565b5050507fa91e67c5ea634cd43a12c5a482724b03de01e85ca68702a53d0c2f45cb7c1dc55a6154cf6176de565b828460405180846001600160a01b03166001600160a01b03168152602001838152602001828152602001935050505060405180910390a160009350915050915091565b600080806011615520617683565b906101000a90046001600160a01b03169050806001600160a01b03166323b872dd855a63996d79a5598160e01b8152602081600483336000905af158601d01573d60011458600c01573d6000803e3d621234565260ea61109c528051925060005b604081101561559857600082820152602001615581565b505050866040516001600160e01b031960e086901b1681526001600160a01b0393841660048201529190921660248201526044810191909152606401602060405180830381600087806155e9617772565b1580156155fe576000806155fb617618565b50505b505a6156086177be565b505050505050158015615628573d6000803e3d6000615625617618565b50505b505050506040513d602081101561564757600080615644617618565b50505b81019080805192506156969150505760405162461bcd60e51b8152600401808060200182810382526024815260200180617d8f6024913960400191505060405180910390615693617618565b50505b60008060136156a3617683565b906101000a90046001600160a01b03169050600060116000906156c4617683565b906101000a90046001600160a01b03169050600060146000906156e5617683565b906101000a90046001600160a01b0316905060006015600090615706617683565b906101000a90046001600160a01b03169050836001600160a01b0316633b4da69f5a63996d79a5598160e01b8152602081600483336000905af158601d01573d60011458600c01573d6000803e3d621234565260ea61109c528051925060005b604081101561577d57600082820152602001615766565b505050856001600160a01b03166370a082315a63996d79a5598160e01b8152602081600483336000905af158601d01573d60011458600c01573d6000803e3d621234565260ea61109c528051925060005b60408110156157e5576000828201526020016157ce565b5050506040516001600160e01b031960e084901b1681526001600160a01b0390911660048201526024016020604051808303818680615822617772565b15801561583757600080615834617618565b50505b505a61584161786e565b5050505050158015615860573d6000803e3d600061585d617618565b50505b505050506040513d602081101561587f5760008061587c617618565b50505b81019080805192506040915050516001600160e01b031960e085901b1681526001600160a01b0390921660048301526024820152604401600060405180830381600087806158cb617772565b1580156158e0576000806158dd617618565b50505b505a6158ea6177be565b50505050505015801561590a573d6000803e3d6000615907617618565b50505b505050506000816001600160a01b0316636c25b3465a63996d79a5598160e01b8152602081600483336000905af158601d01573d60011458600c01573d6000803e3d621234565260ea61109c528051925060005b60408110156159755760008282015260200161595e565b5050506040516001600160e01b031960e084901b1681526001600160a01b03909116600482015260240160206040518083038186806159b2617772565b1580156159c7576000806159c4617618565b50505b505a6159d161786e565b50505050501580156159f0573d6000803e3d60006159ed617618565b50505b505050506040513d6020811015615a0f57600080615a0c617618565b50505b81019080805193506000925050506001600160a01b03841663c92aecc46040518163ffffffff1660e01b81526004016020604051808303818680615a51617772565b158015615a6657600080615a63617618565b50505b505a615a7061786e565b5050505050158015615a8f573d6000803e3d6000615a8c617618565b50505b505050506040513d6020811015615aae57600080615aab617618565b50505b8101908080519250849150829050615ac257fe5b049050836001600160a01b031663049878f3826040516001600160e01b031960e084901b168152600481019190915260240160006040518083038160008780615b09617772565b158015615b1e57600080615b1b617618565b50505b505a615b286177be565b505050505050158015615b48573d6000803e3d6000615b45617618565b50505b509a9c9b505050505050505050505050565b6000806013615b67617683565b906101000a90046001600160a01b0316905060006014600090615b88617683565b906101000a90046001600160a01b031690506000615c60826001600160a01b031663c92aecc46040518163ffffffff1660e01b81526004016020604051808303818680615bd3617772565b158015615be857600080615be5617618565b50505b505a615bf261786e565b5050505050158015615c11573d6000803e3d6000615c0e617618565b50505b505050506040513d6020811015615c3057600080615c2d617618565b50505b8101908080519250615c519150879050676765c793fa10079d601b1b615372565b81615c5857fe5b04600161755c565b9050816001600160a01b0316637f8661a1826040516001600160e01b031960e084901b168152600481019190915260240160006040518083038160008780615ca6617772565b158015615cbb57600080615cb8617618565b50505b505a615cc56177be565b505050505050158015615ce5573d6000803e3d6000615ce2617618565b50505b50505050826001600160a01b031663ef693bed86866040516001600160e01b031960e085901b1681526001600160a01b03909216600483015260248201526044016000604051808303816000878061130b617772565b6000821580615d48575081155b615d8c5760405162461bcd60e51b8152600401808060200182810382526034815260200180617e106034913960400191505060405180910390615d89617618565b50505b615d94617a5a565b615d9c612da5565b6040830181905260208301826003811115615db357fe5b6003811115615dbe57fe5b9052506000905081602001516003811115615dd557fe5b14615df957615df16009602b8360200151600381111561444a57fe5b915050611c03565b8315615e7b5760608101849052615e216040518060200160405280836040015190528561330b565b6080830181905260208301826003811115615e3857fe5b6003811115615e4357fe5b9052506000905081602001516003811115615e5a57fe5b14615e7657615df1600960298360200151600381111561444a57fe5b615ef3565b615e96836040518060200160405280846040015190526175a8565b6060830181905260208301826003811115615ead57fe5b6003811115615eb857fe5b9052506000905081602001516003811115615ecf57fe5b14615eeb57615df16009602a8360200151600381111561444a57fe5b608081018390525b6000806005615f00617683565b906101000a90046001600160a01b03166001600160a01b031663eabe7d915a63996d79a5598160e01b8152602081600483336000905af158601d01573d60011458600c01573d6000803e3d621234565260ea61109c528051925060005b6040811015615f7457600082820152602001615f5d565b5050508885606001516040516001600160e01b031960e086901b1681526001600160a01b039384166004820152919092166024820152604481019190915260640160206040518083038160008780615fca617772565b158015615fdf57600080615fdc617618565b50505b505a615fe96177be565b505050505050158015616009573d6000803e3d6000616006617618565b50505b505050506040513d602081101561602857600080616025617618565b50505b81019080805193505082159150616051905057616048600360288361524f565b92505050611c03565b616059613f1d565b6009616063617683565b1461607457616048600a602c613613565b61608b600d616081617683565b83606001516152a8565b60a08401819052602084018260038111156160a257fe5b60038111156160ad57fe5b90525060009050826020015160038111156160c457fe5b146160e0576160486009602e8460200151600381111561444a57fe5b6001600160a01b0386166000908152600e6020526161049060409020616081617683565b60c084018190526020840182600381111561611b57fe5b600381111561612657fe5b905250600090508260200151600381111561613d57fe5b14616159576160486009602d8460200151600381111561444a57fe5b816080015161616661335f565b101561617857616048600e602f613613565b616186868360800151615b5a565b8160a0015180600d616196617724565b5050508160c001516001600160a01b0387166000908152600e6020526040902081906161c0617724565b5050505a63996d79a5598160e01b8152602081600483336000905af158601d01573d60011458600c01573d6000803e3d621234565260ea61109c528051925060005b604081101561621957600082820152602001616202565b5050506001600160a01b0316866001600160a01b0316600080516020617d0b833981519152846060015160405190815260200160405180910390a37fe5b754fb1abb7f01b499791d0b820ae3b6af3424ac1c59768edb53f4ec31a929868360800151846060015160405180846001600160a01b03166001600160a01b03168152602001838152602001828152602001935050505060405180910390a1600060056162c1617683565b906101000a90046001600160a01b03166001600160a01b03166351dff9895a63996d79a5598160e01b8152602081600483336000905af158601d01573d60011458600c01573d6000803e3d621234565260ea61109c528051925060005b60408110156163355760008282015260200161631e565b50505088856080015186606001516040516001600160e01b031960e087901b1681526001600160a01b0394851660048201529290931660248301526044820152606481019190915260840160006040518083038160008780616395617772565b1580156163aa576000806163a7617618565b50505b505a6163b46177be565b5050505050501580156163d4573d6000803e3d60006163d1617618565b50505b50600092506163e1915050565b9695505050505050565b600080836163fe57506000905080613358565b8383028385828161640b57fe5b041461641f57506002915060009050613358565b600092509050613358565b6000808261643e5750600190506000613358565b600083858161644957fe5b04915091509250929050565b60008080806005616464617683565b906101000a90046001600160a01b03166001600160a01b0316634ef4c3e15a63996d79a5598160e01b8152602081600483336000905af158601d01573d60011458600c01573d6000803e3d621234565260ea61109c528051925060005b60408110156164d8576000828201526020016164c1565b50505087876040516001600160e01b031960e086901b1681526001600160a01b03938416600482015291909216602482015260448101919091526064016020604051808303816000878061652a617772565b15801561653f5760008061653c617618565b50505b505a6165496177be565b505050505050158015616569573d6000803e3d6000616566617618565b50505b505050506040513d602081101561658857600080616585617618565b50505b810190808051935050821591506165b59050576165a86003601f8361524f565b9250600091506133589050565b6165bd613f1d565b60096165c7617683565b146165d8576165a8600a6022613613565b6165e0617a5a565b6165e8612da5565b60408301819052602083018260038111156165ff57fe5b600381111561660a57fe5b905250600090508160200151600381111561662157fe5b1461664b5761663d600960218360200151600381111561444a57fe5b935060009250613358915050565b6166558686615512565b60c0820190815261667890516040518060200160405280846040015190526175a8565b606083018190526020830182600381111561668f57fe5b600381111561669a57fe5b90525060009050816020015160038111156166b157fe5b1461670b5760405162461bcd60e51b815260206004820181905260248201527f4d494e545f45584348414e47455f43414c43554c4154494f4e5f4641494c4544604482015260640160405180910390616708617618565b50505b616722600d616718617683565b82606001516152cb565b608083018190526020830182600381111561673957fe5b600381111561674457fe5b905250600090508160200151600381111561675b57fe5b146167a05760405162461bcd60e51b8152600401808060200182810382526028815260200180617de8602891396040019150506040518091039061679d617618565b50505b6001600160a01b0386166000908152600e6020526167c49060409020616718617683565b60a08301819052602083018260038111156167db57fe5b60038111156167e657fe5b90525060009050816020015160038111156167fd57fe5b146168425760405162461bcd60e51b815260040180806020018281038252602b815260200180617c2d602b91396040019150506040518091039061683f617618565b50505b806080015180600d616852617724565b5050508060a001516001600160a01b0387166000908152600e60205260409020819061687c617724565b5050507f4c209b5fc8ad50758f13e2e1088ba56a560dff690a1c6fef26394f4c03821c4f868260c00151836060015160405180846001600160a01b03166001600160a01b03168152602001838152602001828152602001935050505060405180910390a1856001600160a01b03165a63996d79a5598160e01b8152602081600483336000905af158601d01573d60011458600c01573d6000803e3d621234565260ea61109c528051925060005b604081101561694057600082820152602001616929565b5050506001600160a01b0316600080516020617d0b833981519152836060015160405190815260200160405180910390a360008160c001519350935050509250929050565b600080600061699261791e565b61699c87876152f1565b909250905060008260038111156169af57fe5b146169c05750915060009050615149565b61518f6169cc82615357565b866152cb565b6000808060056169e0617683565b906101000a90046001600160a01b03166001600160a01b031663da3d454c5a63996d79a5598160e01b8152602081600483336000905af158601d01573d60011458600c01573d6000803e3d621234565260ea61109c528051925060005b6040811015616a5457600082820152602001616a3d565b50505086866040516001600160e01b031960e086901b1681526001600160a01b039384166004820152919092166024820152604481019190915260640160206040518083038160008780616aa6617772565b158015616abb57600080616ab8617618565b50505b505a616ac56177be565b505050505050158015616ae5573d6000803e3d6000616ae2617618565b50505b505050506040513d6020811015616b0457600080616b01617618565b50505b81019080805193505082159150616b2c905057616b246003600e8361524f565b915050610e14565b616b34613f1d565b6009616b3e617683565b14616b4e57616b24600a80613613565b82616b5761335f565b1015616b6957616b24600e6009613613565b616b71617a97565b616b7a85613e51565b6020830181905282826003811115616b8e57fe5b6003811115616b9957fe5b9052506000905081516003811115616bad57fe5b14616bcf57616bc6600960078351600381111561444a57fe5b92505050610e14565b616bdd8160200151856152cb565b6040830181905282826003811115616bf157fe5b6003811115616bfc57fe5b9052506000905081516003811115616c1057fe5b14616c2957616bc66009600c8351600381111561444a57fe5b616c3c600b616c36617683565b856152cb565b6060830181905282826003811115616c5057fe5b6003811115616c5b57fe5b9052506000905081516003811115616c6f57fe5b14616c8857616bc66009600b8351600381111561444a57fe5b616c928585615b5a565b80604001516001600160a01b03861660009081526010602052604090208190616cb9617724565b505050600a616cc6617683565b6001600160a01b03861660009081526010602052604090206001018190616ceb617724565b505050806060015180600b616cfe617724565b5050507f13ed6866d4e1ee6da46f845c46d7e54120883d75c5ea9a2dacc1c4ca8984ab8085858360400151846060015160405180856001600160a01b03166001600160a01b0316815260200184815260200183815260200182815260200194505050505060405180910390a1600095945050505050565b60008080806005616d84617683565b906101000a90046001600160a01b03166001600160a01b0316635fc7e71e5a63996d79a5598160e01b8152602081600483336000905af158601d01573d60011458600c01573d6000803e3d621234565260ea61109c528051925060005b6040811015616df857600082820152602001616de1565b505050868a8a8a6040516001600160e01b031960e088901b1681526001600160a01b039586166004820152938516602485015291841660448401529092166064820152608481019190915260a40160206040518083038160008780616e5b617772565b158015616e7057600080616e6d617618565b50505b505a616e7a6177be565b505050505050158015616e9a573d6000803e3d6000616e97617618565b50505b505050506040513d6020811015616eb957600080616eb6617618565b50505b81019080805193505082159150616ee6905057616ed9600360128361524f565b9250600091506175539050565b616eee613f1d565b6009616ef8617683565b14616f0957616ed9600a6016613613565b616f11613f1d565b846001600160a01b0316636c540baf6040518163ffffffff1660e01b81526004016020604051808303818680616f45617772565b158015616f5a57600080616f57617618565b50505b505a616f6461786e565b5050505050158015616f83573d6000803e3d6000616f80617618565b50505b505050506040513d6020811015616fa257600080616f9f617618565b50505b810190808051939093149250616fc191505057616ed9600a6011613613565b866001600160a01b0316866001600160a01b03161415616fe757616ed960066017613613565b84616ff857616ed960076015613613565b60001985141561700e57616ed960076014613613565b60008061701c898989614ce2565b9092509050811561704c5761703d82601081111561703657fe5b6018613613565b94506000935061755392505050565b60008080600561705a617683565b906101000a90046001600160a01b03166001600160a01b031663c488847b5a63996d79a5598160e01b8152602081600483336000905af158601d01573d60011458600c01573d6000803e3d621234565260ea61109c528051925060005b60408110156170ce576000828201526020016170b7565b5050508a866040516001600160e01b031960e086901b1681526001600160a01b03938416600482015291909216602482015260448101919091526064016040805180830381868061711d617772565b1580156171325760008061712f617618565b50505b505a61713c61786e565b505050505015801561715b573d6000803e3d6000617158617618565b50505b505050506040513d604081101561717a57600080617177617618565b50505b81019080805192919060200180519395509293506000925061719a915050565b82146171e05760405162461bcd60e51b8152600401808060200182810382526033815260200180617d5c60339139604001915050604051809103906171dd617618565b50505b80886001600160a01b03166370a082318c6040516001600160e01b031960e084901b1681526001600160a01b039091166004820152602401602060405180830381868061722b617772565b1580156172405760008061723d617618565b50505b505a61724a61786e565b5050505050158015617269573d6000803e3d6000617266617618565b50505b505050506040513d602081101561728857600080617285617618565b50505b810190808051939093101592506172ec9150505760405162461bcd60e51b815260206004820152601860248201527709892a2aa928882a88abea68a92b48abea89e9ebe9aaa86960431b6044820152606401604051809103906172e9617618565b50505b60005a63996d79a5598160e01b8152602081600483336000905af158601d01573d60011458600c01573d6000803e3d621234565260ea61109c528051925060005b60408110156173445760008282015260200161732d565b5050506001600160a01b0316896001600160a01b031614156173cb576173c45a63996d79a5598160e01b8152602081600483336000905af158601d01573d60011458600c01573d6000803e3d621234565260ea61109c528051925060005b60408110156173b9576000828201526020016173a2565b5050508d8d856145f3565b9050617494565b886001600160a01b031663b2a02ff18d8d856040516001600160e01b031960e086901b1681526001600160a01b03938416600482015291909216602482015260448101919091526064016020604051808303816000878061742a617772565b15801561743f5760008061743c617618565b50505b505a6174496177be565b505050505050158015617469573d6000803e3d6000617466617618565b50505b505050506040513d602081101561748857600080617485617618565b50505b81019080805193505050505b80156174e65760405162461bcd60e51b81526020600482015260146024820152731d1bdad95b881cd95a5e9d5c994819985a5b195960621b6044820152606401604051809103906174e3617618565b50505b7f298637f684da70674f26509b10f07ec2fbc77a335ab1e7d6215a4b2484d8bb528c8c868c866040516001600160a01b039586168152938516602085015260408085019390935293166060830152608082019290925260a001905180910390a16000975092955050505050505b94509492505050565b80820182811015610e145760405162461bcd60e51b815260206004820152600c60248201526b6164642d6f766572666c6f7760a01b6044820152606401604051809103906153d2617618565b60008060006175b561791e565b613322868660006175c461791e565b6000806175d9670de0b6b3a7640000876163eb565b909250905060008260038111156175ec57fe5b1461760d578160405160208101604052600081529094509250613358915050565b61335181865161519d565b632a2a7adb598160e01b8152600481016020815285602082015260005b86811015617650578086015182820160400152602001617635565b506020828760640184336000905af158601d01573d60011458600c01573d6000803e3d621234565260ea61109c52505050565b6303daa959598160e01b8152836004820152602081602483336000905af158601d01573d60011458600c01573d6000803e3d621234565260ea61109c528051935060005b6040811015611cd4576000828201526020016176c7565b6373509064598160e01b8152602081600483336000905af158601d01573d60011458600c01573d6000803e3d621234565260ea61109c52805160008252935060206176c7565b6322bd64c0598160e01b8152836004820152846024820152600081604483336000905af158601d01573d60011458600c01573d6000803e3d621234565260ea61109c526000815260206176c7565b638435035b598160e01b8152836004820152602081602483336000905af158601d01573d60011458600c01573d6000803e3d621234565260ea61109c52805160008252935060206176c7565b6385979f76598160e01b8152836004820152846024820152606060448201528760648201526084810160005b898110156178025780890151828201526020016177ea565b506060828a60a40184336000905af158601d01573d60011458600c01573d6000803e3d621234565260ea61109c52815160408301513d6000853e8c8c82606087013350600060045af15059845b81811015617863576000815260200161784f565b50919c505050505050565b638540661f598160e01b8152836004820152846024820152606060448201528660648201526084810160005b888110156178b257808801518282015260200161789a565b506060828960a40184336000905af158601d01573d60011458600c01573d6000803e3d621234565260ea61109c52815160408301513d6000853e8b8b82606087013350600060045af15059845b8181101561791357600081526020016178ff565b50919b505050505050565b604051602081016040526000815290565b8280617939617683565b600181600116156101000203166002900490600052602060002090601f016020900481019282601f1061798057805160ff19168380011785617979617724565b50506179bf565b8280016001018561798f617724565b505082156179bf579182015b828111156179bf578251826179ae617724565b50509160200191906001019061799b565b506179cb929150617abf565b5090565b635a98c361598160e01b8152602081600483336000905af158601d01573d60011458600c01573d6000803e3d621234565260ea61109c52805160008252935060206176c7565b60405161010081016040528060008152602001600081526020016000815260200160008152602001600081526020016000815260200160008152602001600081525090565b60405160e0810160405280600081526020016000815260200160008152602001600081526020016000815260200160008152602001600081525090565b6040516080810160405280600081526020016000815260200160008152602001600081525090565b6114f291905b808211156179cb5760008082617ad9617724565b505050600101617ac556fe6f6e6c792061646d696e206d617920696e697469616c697a6520746865206d61726b65746d61726b6574206d6179206f6e6c7920626520696e697469616c697a6564206f6e636545b96fe442630264581b197e84bbada861235052c5a1aadfff9ea4e40a969aa04345726332303a3a7377656570546f6b656e3a2063616e206e6f7420737765657020756e6465726c79696e6720746f6b656e6f6e6c79207468652061646d696e206d617920696e697469616c697a652074686520696d706c656d656e746174696f6e696e697469616c2065786368616e67652072617465206d7573742062652067726561746572207468616e207a65726f2e73657474696e6720696e7465726573742072617465206d6f64656c206661696c65646f6e6c79207468652061646d696e206d6179206162616e646f6e2074686520696d706c656d656e746174696f6e4d494e545f4e45575f4143434f554e545f42414c414e43455f43414c43554c4154494f4e5f4641494c4544626f72726f7742616c616e636553746f7265643a20626f72726f7742616c616e636553746f726564496e7465726e616c206661696c6564ca4f2f25d0898edd99413412fb94012f9e54ec8142f9b093e7720646a95b16a9444149206d757374206265207468652073616d6520617320756e6465726c79696e6752455041595f424f52524f575f4e45575f4143434f554e545f424f52524f575f42414c414e43455f43414c43554c4154494f4e5f4641494c4544ddf252ad1be2c89b69c2b068fc378daa952ba7f163c4a11628f55a4df523b3ef52455041595f424f52524f575f4e45575f544f54414c5f42414c414e43455f43414c43554c4154494f4e5f4641494c45444c49515549444154455f434f4d5054524f4c4c45525f43414c43554c4154455f414d4f554e545f5345495a455f4641494c4544756e6578706563746564204549502d3230207472616e7366657220696e2072657475726e65786368616e67655261746553746f7265643a2065786368616e67655261746553746f726564496e7465726e616c206661696c65644d494e545f4e45575f544f54414c5f535550504c595f43414c43554c4154494f4e5f4641494c45446f6e65206f662072656465656d546f6b656e73496e206f722072656465656d416d6f756e74496e206d757374206265207a65726f72656475636520726573657276657320756e657870656374656420756e646572666c6f77",
  "source": "pragma solidity ^0.5.16;\n\nimport \"./CErc20Delegate.sol\";\n\n/**\n * @title Compound's CDai Contract\n * @notice CToken which wraps Multi-Collateral DAI\n * @author Compound\n */\ncontract CDaiDelegate is CErc20Delegate {\n    /**\n     * @notice DAI adapter address\n     */\n    address public daiJoinAddress;\n\n    /**\n     * @notice DAI Savings Rate (DSR) pot address\n     */\n    address public potAddress;\n\n    /**\n     * @notice DAI vat address\n     */\n    address public vatAddress;\n\n    /**\n     * @notice Delegate interface to become the implementation\n     * @param data The encoded arguments for becoming\n     */\n    function _becomeImplementation(bytes memory data) public {\n        require(msg.sender == admin, \"only the admin may initialize the implementation\");\n\n        (address daiJoinAddress_, address potAddress_) = abi.decode(data, (address, address));\n        return _becomeImplementation(daiJoinAddress_, potAddress_);\n    }\n\n    /**\n     * @notice Explicit interface to become the implementation\n     * @param daiJoinAddress_ DAI adapter address\n     * @param potAddress_ DAI Savings Rate (DSR) pot address\n     */\n    function _becomeImplementation(address daiJoinAddress_, address potAddress_) internal {\n        // Get dai and vat and sanity check the underlying\n        DaiJoinLike daiJoin = DaiJoinLike(daiJoinAddress_);\n        PotLike pot = PotLike(potAddress_);\n        GemLike dai = daiJoin.dai();\n        VatLike vat = daiJoin.vat();\n        require(address(dai) == underlying, \"DAI must be the same as underlying\");\n\n        // Remember the relevant addresses\n        daiJoinAddress = daiJoinAddress_;\n        potAddress = potAddress_;\n        vatAddress = address(vat);\n\n        // Approve moving our DAI into the vat through daiJoin\n        dai.approve(daiJoinAddress, uint(-1));\n\n        // Approve the pot to transfer our funds within the vat\n        vat.hope(potAddress);\n        vat.hope(daiJoinAddress);\n\n        // Accumulate DSR interest -- must do this in order to doTransferIn\n        pot.drip();\n\n        // Transfer all cash in (doTransferIn does this regardless of amount)\n        doTransferIn(address(this), 0);\n    }\n\n    /**\n     * @notice Delegate interface to resign the implementation\n     */\n    function _resignImplementation() public {\n        require(msg.sender == admin, \"only the admin may abandon the implementation\");\n\n        // Transfer all cash out of the DSR - note that this relies on self-transfer\n        DaiJoinLike daiJoin = DaiJoinLike(daiJoinAddress);\n        PotLike pot = PotLike(potAddress);\n        VatLike vat = VatLike(vatAddress);\n\n        // Accumulate interest\n        pot.drip();\n\n        // Calculate the total amount in the pot, and move it out\n        uint pie = pot.pie(address(this));\n        pot.exit(pie);\n\n        // Checks the actual balance of DAI in the vat after the pot exit\n        uint bal = vat.dai(address(this));\n\n        // Remove our whole balance\n        daiJoin.exit(address(this), bal / RAY);\n    }\n\n    /*** CToken Overrides ***/\n\n    /**\n      * @notice Accrues DSR then applies accrued interest to total borrows and reserves\n      * @dev This calculates interest accrued from the last checkpointed block\n      *      up to the current block and writes new checkpoint to storage.\n      */\n    function accrueInterest() public returns (uint) {\n        // Accumulate DSR interest\n        PotLike(potAddress).drip();\n\n        // Accumulate CToken interest\n        return super.accrueInterest();\n    }\n\n    /*** Safe Token ***/\n\n    /**\n     * @notice Gets balance of this contract in terms of the underlying\n     * @dev This excludes the value of the current message, if any\n     * @return The quantity of underlying tokens owned by this contract\n     */\n    function getCashPrior() internal view returns (uint) {\n        PotLike pot = PotLike(potAddress);\n        uint pie = pot.pie(address(this));\n        return mul(pot.chi(), pie) / RAY;\n    }\n\n    /**\n     * @notice Transfer the underlying to this contract and sweep into DSR pot\n     * @param from Address to transfer funds from\n     * @param amount Amount of underlying to transfer\n     * @return The actual amount that is transferred\n     */\n    function doTransferIn(address from, uint amount) internal returns (uint) {\n        // Perform the EIP-20 transfer in\n        EIP20Interface token = EIP20Interface(underlying);\n        require(token.transferFrom(from, address(this), amount), \"unexpected EIP-20 transfer in return\");\n\n        DaiJoinLike daiJoin = DaiJoinLike(daiJoinAddress);\n        GemLike dai = GemLike(underlying);\n        PotLike pot = PotLike(potAddress);\n        VatLike vat = VatLike(vatAddress);\n\n        // Convert all our DAI to internal DAI in the vat\n        daiJoin.join(address(this), dai.balanceOf(address(this)));\n\n        // Checks the actual balance of DAI in the vat after the join\n        uint bal = vat.dai(address(this));\n\n        // Calculate the percentage increase to th pot for the entire vat, and move it in\n        // Note: We may leave a tiny bit of DAI in the vat...but we do the whole thing every time\n        uint pie = bal / pot.chi();\n        pot.join(pie);\n\n        return amount;\n    }\n\n    /**\n     * @notice Transfer the underlying from this contract, after sweeping out of DSR pot\n     * @param to Address to transfer funds to\n     * @param amount Amount of underlying to transfer\n     */\n    function doTransferOut(address payable to, uint amount) internal {\n        DaiJoinLike daiJoin = DaiJoinLike(daiJoinAddress);\n        PotLike pot = PotLike(potAddress);\n\n        // Calculate the percentage decrease from the pot, and move that much out\n        // Note: Use a slightly larger pie size to ensure that we get at least amount in the vat\n        uint pie = add(mul(amount, RAY) / pot.chi(), 1);\n        pot.exit(pie);\n\n        daiJoin.exit(to, amount);\n    }\n\n    /*** Maker Internals ***/\n\n    uint256 constant RAY = 10 ** 27;\n\n    function add(uint x, uint y) internal pure returns (uint z) {\n        require((z = x + y) >= x, \"add-overflow\");\n    }\n\n    function mul(uint x, uint y) internal pure returns (uint z) {\n        require(y == 0 || (z = x * y) / y == x, \"mul-overflow\");\n    }\n}\n\n/*** Maker Interfaces ***/\n\ninterface PotLike {\n    function chi() external view returns (uint);\n    function pie(address) external view returns (uint);\n    function drip() external returns (uint);\n    function join(uint) external;\n    function exit(uint) external;\n}\n\ninterface GemLike {\n    function approve(address, uint) external;\n    function balanceOf(address) external view returns (uint);\n    function transferFrom(address, address, uint) external returns (bool);\n}\n\ninterface VatLike {\n    function dai(address) external view returns (uint);\n    function hope(address) external;\n}\n\ninterface DaiJoinLike {\n    function vat() external returns (VatLike);\n    function dai() external returns (GemLike);\n    function join(address, uint) external payable;\n    function exit(address, uint) external;\n}\n",
  "sourcePath": "/Users/jesusmeza/Developer/omgx/snapshot-optimism/omgx_examples/compound-protocol/contracts/CDaiDelegate.sol",
  "compiler": {
    "name": "solc",
    "version": "0.5.16"
  },
  "schemaVersion": "3.4.3",
  "updatedAt": "2021-08-25T22:25:24.219Z",
  "devdoc": {
    "author": "Compound",
    "methods": {
      "_acceptAdmin()": {
        "details": "Admin function for pending admin to accept role and update admin",
        "return": "uint 0=success, otherwise a failure (see ErrorReporter.sol for details)"
      },
      "_addReserves(uint256)": {
        "params": {
          "addAmount": "The amount fo underlying token to add as reserves"
        },
        "return": "uint 0=success, otherwise a failure (see ErrorReporter.sol for details)"
      },
      "_becomeImplementation(bytes)": {
        "params": {
          "data": "The encoded arguments for becoming"
        }
      },
      "_reduceReserves(uint256)": {
        "params": {
          "reduceAmount": "Amount of reduction to reserves"
        },
        "return": "uint 0=success, otherwise a failure (see ErrorReporter.sol for details)"
      },
      "_setComptroller(address)": {
        "details": "Admin function to set a new comptroller",
        "return": "uint 0=success, otherwise a failure (see ErrorReporter.sol for details)"
      },
      "_setInterestRateModel(address)": {
        "details": "Admin function to accrue interest and update the interest rate model",
        "params": {
          "newInterestRateModel": "the new interest rate model to use"
        },
        "return": "uint 0=success, otherwise a failure (see ErrorReporter.sol for details)"
      },
      "_setPendingAdmin(address)": {
        "details": "Admin function to begin change of admin. The newPendingAdmin must call `_acceptAdmin` to finalize the transfer.",
        "params": {
          "newPendingAdmin": "New pending admin."
        },
        "return": "uint 0=success, otherwise a failure (see ErrorReporter.sol for details)"
      },
      "_setReserveFactor(uint256)": {
        "details": "Admin function to accrue interest and set a new reserve factor",
        "return": "uint 0=success, otherwise a failure (see ErrorReporter.sol for details)"
      },
      "accrueInterest()": {
        "details": "This calculates interest accrued from the last checkpointed block     up to the current block and writes new checkpoint to storage."
      },
      "allowance(address,address)": {
        "params": {
          "owner": "The address of the account which owns the tokens to be spent",
          "spender": "The address of the account which may transfer tokens"
        },
        "return": "The number of tokens allowed to be spent (-1 means infinite)"
      },
      "approve(address,uint256)": {
        "details": "This will overwrite the approval amount for `spender` and is subject to issues noted [here](https://eips.ethereum.org/EIPS/eip-20#approve)",
        "params": {
          "amount": "The number of tokens that are approved (-1 means infinite)",
          "spender": "The address of the account which may transfer tokens"
        },
        "return": "Whether or not the approval succeeded"
      },
      "balanceOf(address)": {
        "params": {
          "owner": "The address of the account to query"
        },
        "return": "The number of tokens owned by `owner`"
      },
      "balanceOfUnderlying(address)": {
        "details": "This also accrues interest in a transaction",
        "params": {
          "owner": "The address of the account to query"
        },
        "return": "The amount of underlying owned by `owner`"
      },
      "borrow(uint256)": {
        "params": {
          "borrowAmount": "The amount of the underlying asset to borrow"
        },
        "return": "uint 0=success, otherwise a failure (see ErrorReporter.sol for details)"
      },
      "borrowBalanceCurrent(address)": {
        "params": {
          "account": "The address whose balance should be calculated after updating borrowIndex"
        },
        "return": "The calculated balance"
      },
      "borrowBalanceStored(address)": {
        "params": {
          "account": "The address whose balance should be calculated"
        },
        "return": "The calculated balance"
      },
      "borrowRatePerBlock()": {
        "return": "The borrow interest rate per block, scaled by 1e18"
      },
      "exchangeRateCurrent()": {
        "return": "Calculated exchange rate scaled by 1e18"
      },
      "exchangeRateStored()": {
        "details": "This function does not accrue interest before calculating the exchange rate",
        "return": "Calculated exchange rate scaled by 1e18"
      },
      "getAccountSnapshot(address)": {
        "details": "This is used by comptroller to more efficiently perform liquidity checks.",
        "params": {
          "account": "Address of the account to snapshot"
        },
        "return": "(possible error, token balance, borrow balance, exchange rate mantissa)"
      },
      "getCash()": {
        "return": "The quantity of underlying asset owned by this contract"
      },
      "initialize(address,address,address,uint256,string,string,uint8)": {
        "params": {
          "comptroller_": "The address of the Comptroller",
          "decimals_": "ERC-20 decimal precision of this token",
          "initialExchangeRateMantissa_": "The initial exchange rate, scaled by 1e18",
          "interestRateModel_": "The address of the interest rate model",
          "name_": "ERC-20 name of this token",
          "symbol_": "ERC-20 symbol of this token",
          "underlying_": "The address of the underlying asset"
        }
      },
      "initialize(address,address,uint256,string,string,uint8)": {
        "params": {
          "comptroller_": "The address of the Comptroller",
          "decimals_": "EIP-20 decimal precision of this token",
          "initialExchangeRateMantissa_": "The initial exchange rate, scaled by 1e18",
          "interestRateModel_": "The address of the interest rate model",
          "name_": "EIP-20 name of this token",
          "symbol_": "EIP-20 symbol of this token"
        }
      },
      "liquidateBorrow(address,uint256,address)": {
        "params": {
          "borrower": "The borrower of this cToken to be liquidated",
          "cTokenCollateral": "The market in which to seize collateral from the borrower",
          "repayAmount": "The amount of the underlying borrowed asset to repay"
        },
        "return": "uint 0=success, otherwise a failure (see ErrorReporter.sol for details)"
      },
      "mint(uint256)": {
        "details": "Accrues interest whether or not the operation succeeds, unless reverted",
        "params": {
          "mintAmount": "The amount of the underlying asset to supply"
        },
        "return": "uint 0=success, otherwise a failure (see ErrorReporter.sol for details)"
      },
      "redeem(uint256)": {
        "details": "Accrues interest whether or not the operation succeeds, unless reverted",
        "params": {
          "redeemTokens": "The number of cTokens to redeem into underlying"
        },
        "return": "uint 0=success, otherwise a failure (see ErrorReporter.sol for details)"
      },
      "redeemUnderlying(uint256)": {
        "details": "Accrues interest whether or not the operation succeeds, unless reverted",
        "params": {
          "redeemAmount": "The amount of underlying to redeem"
        },
        "return": "uint 0=success, otherwise a failure (see ErrorReporter.sol for details)"
      },
      "repayBorrow(uint256)": {
        "params": {
          "repayAmount": "The amount to repay"
        },
        "return": "uint 0=success, otherwise a failure (see ErrorReporter.sol for details)"
      },
      "repayBorrowBehalf(address,uint256)": {
        "params": {
          "borrower": "the account with the debt being payed off",
          "repayAmount": "The amount to repay"
        },
        "return": "uint 0=success, otherwise a failure (see ErrorReporter.sol for details)"
      },
      "seize(address,address,uint256)": {
        "details": "Will fail unless called by another cToken during the process of liquidation. Its absolutely critical to use msg.sender as the borrowed cToken and not a parameter.",
        "params": {
          "borrower": "The account having collateral seized",
          "liquidator": "The account receiving seized collateral",
          "seizeTokens": "The number of cTokens to seize"
        },
        "return": "uint 0=success, otherwise a failure (see ErrorReporter.sol for details)"
      },
      "supplyRatePerBlock()": {
        "return": "The supply interest rate per block, scaled by 1e18"
      },
      "sweepToken(address)": {
        "params": {
          "token": "The address of the ERC-20 token to sweep"
        }
      },
      "totalBorrowsCurrent()": {
        "return": "The total borrows with interest"
      },
      "transfer(address,uint256)": {
        "params": {
          "amount": "The number of tokens to transfer",
          "dst": "The address of the destination account"
        },
        "return": "Whether or not the transfer succeeded"
      },
      "transferFrom(address,address,uint256)": {
        "params": {
          "amount": "The number of tokens to transfer",
          "dst": "The address of the destination account",
          "src": "The address of the source account"
        },
        "return": "Whether or not the transfer succeeded"
      }
    },
    "title": "Compound's CDai Contract"
  },
  "userdoc": {
    "methods": {
      "_acceptAdmin()": {
        "notice": "Accepts transfer of admin rights. msg.sender must be pendingAdmin"
      },
      "_addReserves(uint256)": {
        "notice": "The sender adds to reserves."
      },
      "_becomeImplementation(bytes)": {
        "notice": "Delegate interface to become the implementation"
      },
      "_reduceReserves(uint256)": {
        "notice": "Accrues interest and reduces reserves by transferring to admin"
      },
      "_resignImplementation()": {
        "notice": "Delegate interface to resign the implementation"
      },
      "_setComptroller(address)": {
        "notice": "Sets a new comptroller for the market"
      },
      "_setInterestRateModel(address)": {
        "notice": "accrues interest and updates the interest rate model using _setInterestRateModelFresh"
      },
      "_setPendingAdmin(address)": {
        "notice": "Begins transfer of admin rights. The newPendingAdmin must call `_acceptAdmin` to finalize the transfer."
      },
      "_setReserveFactor(uint256)": {
        "notice": "accrues interest and sets a new reserve factor for the protocol using _setReserveFactorFresh"
      },
      "accrueInterest()": {
        "notice": "Accrues DSR then applies accrued interest to total borrows and reserves"
      },
      "allowance(address,address)": {
        "notice": "Get the current allowance from `owner` for `spender`"
      },
      "approve(address,uint256)": {
        "notice": "Approve `spender` to transfer up to `amount` from `src`"
      },
      "balanceOf(address)": {
        "notice": "Get the token balance of the `owner`"
      },
      "balanceOfUnderlying(address)": {
        "notice": "Get the underlying balance of the `owner`"
      },
      "borrow(uint256)": {
        "notice": "Sender borrows assets from the protocol to their own address"
      },
      "borrowBalanceCurrent(address)": {
        "notice": "Accrue interest to updated borrowIndex and then calculate account's borrow balance using the updated borrowIndex"
      },
      "borrowBalanceStored(address)": {
        "notice": "Return the borrow balance of account based on stored data"
      },
      "borrowRatePerBlock()": {
        "notice": "Returns the current per-block borrow interest rate for this cToken"
      },
      "exchangeRateCurrent()": {
        "notice": "Accrue interest then return the up-to-date exchange rate"
      },
      "exchangeRateStored()": {
        "notice": "Calculates the exchange rate from the underlying to the CToken"
      },
      "getAccountSnapshot(address)": {
        "notice": "Get a snapshot of the account's balances, and the cached exchange rate"
      },
      "getCash()": {
        "notice": "Get cash balance of this cToken in the underlying asset"
      },
      "initialize(address,address,address,uint256,string,string,uint8)": {
        "notice": "Initialize the new money market"
      },
      "initialize(address,address,uint256,string,string,uint8)": {
        "notice": "Initialize the money market"
      },
      "liquidateBorrow(address,uint256,address)": {
        "notice": "The sender liquidates the borrowers collateral. The collateral seized is transferred to the liquidator."
      },
      "mint(uint256)": {
        "notice": "Sender supplies assets into the market and receives cTokens in exchange"
      },
      "redeem(uint256)": {
        "notice": "Sender redeems cTokens in exchange for the underlying asset"
      },
      "redeemUnderlying(uint256)": {
        "notice": "Sender redeems cTokens in exchange for a specified amount of underlying asset"
      },
      "repayBorrow(uint256)": {
        "notice": "Sender repays their own borrow"
      },
      "repayBorrowBehalf(address,uint256)": {
        "notice": "Sender repays a borrow belonging to borrower"
      },
      "seize(address,address,uint256)": {
        "notice": "Transfers collateral tokens (this market) to the liquidator."
      },
      "supplyRatePerBlock()": {
        "notice": "Returns the current per-block supply interest rate for this cToken"
      },
      "sweepToken(address)": {
        "notice": "A public function to sweep accidental ERC-20 transfers to this contract. Tokens are sent to admin (timelock)"
      },
      "totalBorrowsCurrent()": {
        "notice": "Returns the current total borrows plus accrued interest"
      },
      "transfer(address,uint256)": {
        "notice": "Transfer `amount` tokens from `msg.sender` to `dst`"
      },
      "transferFrom(address,address,uint256)": {
        "notice": "Transfer `amount` tokens from `src` to `dst`"
      }
    },
    "notice": "CToken which wraps Multi-Collateral DAI"
  }
}