{
  "contractName": "CErc20Delegate",
  "abi": [
    {
      "inputs": [],
      "payable": false,
      "stateMutability": "nonpayable",
      "type": "constructor"
    },
    {
      "anonymous": false,
      "inputs": [
        {
          "indexed": false,
          "internalType": "uint256",
          "name": "cashPrior",
          "type": "uint256"
        },
        {
          "indexed": false,
          "internalType": "uint256",
          "name": "interestAccumulated",
          "type": "uint256"
        },
        {
          "indexed": false,
          "internalType": "uint256",
          "name": "borrowIndex",
          "type": "uint256"
        },
        {
          "indexed": false,
          "internalType": "uint256",
          "name": "totalBorrows",
          "type": "uint256"
        }
      ],
      "name": "AccrueInterest",
      "type": "event"
    },
    {
      "anonymous": false,
      "inputs": [
        {
          "indexed": true,
          "internalType": "address",
          "name": "owner",
          "type": "address"
        },
        {
          "indexed": true,
          "internalType": "address",
          "name": "spender",
          "type": "address"
        },
        {
          "indexed": false,
          "internalType": "uint256",
          "name": "amount",
          "type": "uint256"
        }
      ],
      "name": "Approval",
      "type": "event"
    },
    {
      "anonymous": false,
      "inputs": [
        {
          "indexed": false,
          "internalType": "address",
          "name": "borrower",
          "type": "address"
        },
        {
          "indexed": false,
          "internalType": "uint256",
          "name": "borrowAmount",
          "type": "uint256"
        },
        {
          "indexed": false,
          "internalType": "uint256",
          "name": "accountBorrows",
          "type": "uint256"
        },
        {
          "indexed": false,
          "internalType": "uint256",
          "name": "totalBorrows",
          "type": "uint256"
        }
      ],
      "name": "Borrow",
      "type": "event"
    },
    {
      "anonymous": false,
      "inputs": [
        {
          "indexed": false,
          "internalType": "uint256",
          "name": "error",
          "type": "uint256"
        },
        {
          "indexed": false,
          "internalType": "uint256",
          "name": "info",
          "type": "uint256"
        },
        {
          "indexed": false,
          "internalType": "uint256",
          "name": "detail",
          "type": "uint256"
        }
      ],
      "name": "Failure",
      "type": "event"
    },
    {
      "anonymous": false,
      "inputs": [
        {
          "indexed": false,
          "internalType": "address",
          "name": "liquidator",
          "type": "address"
        },
        {
          "indexed": false,
          "internalType": "address",
          "name": "borrower",
          "type": "address"
        },
        {
          "indexed": false,
          "internalType": "uint256",
          "name": "repayAmount",
          "type": "uint256"
        },
        {
          "indexed": false,
          "internalType": "address",
          "name": "cTokenCollateral",
          "type": "address"
        },
        {
          "indexed": false,
          "internalType": "uint256",
          "name": "seizeTokens",
          "type": "uint256"
        }
      ],
      "name": "LiquidateBorrow",
      "type": "event"
    },
    {
      "anonymous": false,
      "inputs": [
        {
          "indexed": false,
          "internalType": "address",
          "name": "minter",
          "type": "address"
        },
        {
          "indexed": false,
          "internalType": "uint256",
          "name": "mintAmount",
          "type": "uint256"
        },
        {
          "indexed": false,
          "internalType": "uint256",
          "name": "mintTokens",
          "type": "uint256"
        }
      ],
      "name": "Mint",
      "type": "event"
    },
    {
      "anonymous": false,
      "inputs": [
        {
          "indexed": false,
          "internalType": "address",
          "name": "oldAdmin",
          "type": "address"
        },
        {
          "indexed": false,
          "internalType": "address",
          "name": "newAdmin",
          "type": "address"
        }
      ],
      "name": "NewAdmin",
      "type": "event"
    },
    {
      "anonymous": false,
      "inputs": [
        {
          "indexed": false,
          "internalType": "contract ComptrollerInterface",
          "name": "oldComptroller",
          "type": "address"
        },
        {
          "indexed": false,
          "internalType": "contract ComptrollerInterface",
          "name": "newComptroller",
          "type": "address"
        }
      ],
      "name": "NewComptroller",
      "type": "event"
    },
    {
      "anonymous": false,
      "inputs": [
        {
          "indexed": false,
          "internalType": "contract InterestRateModel",
          "name": "oldInterestRateModel",
          "type": "address"
        },
        {
          "indexed": false,
          "internalType": "contract InterestRateModel",
          "name": "newInterestRateModel",
          "type": "address"
        }
      ],
      "name": "NewMarketInterestRateModel",
      "type": "event"
    },
    {
      "anonymous": false,
      "inputs": [
        {
          "indexed": false,
          "internalType": "address",
          "name": "oldPendingAdmin",
          "type": "address"
        },
        {
          "indexed": false,
          "internalType": "address",
          "name": "newPendingAdmin",
          "type": "address"
        }
      ],
      "name": "NewPendingAdmin",
      "type": "event"
    },
    {
      "anonymous": false,
      "inputs": [
        {
          "indexed": false,
          "internalType": "uint256",
          "name": "oldReserveFactorMantissa",
          "type": "uint256"
        },
        {
          "indexed": false,
          "internalType": "uint256",
          "name": "newReserveFactorMantissa",
          "type": "uint256"
        }
      ],
      "name": "NewReserveFactor",
      "type": "event"
    },
    {
      "anonymous": false,
      "inputs": [
        {
          "indexed": false,
          "internalType": "address",
          "name": "redeemer",
          "type": "address"
        },
        {
          "indexed": false,
          "internalType": "uint256",
          "name": "redeemAmount",
          "type": "uint256"
        },
        {
          "indexed": false,
          "internalType": "uint256",
          "name": "redeemTokens",
          "type": "uint256"
        }
      ],
      "name": "Redeem",
      "type": "event"
    },
    {
      "anonymous": false,
      "inputs": [
        {
          "indexed": false,
          "internalType": "address",
          "name": "payer",
          "type": "address"
        },
        {
          "indexed": false,
          "internalType": "address",
          "name": "borrower",
          "type": "address"
        },
        {
          "indexed": false,
          "internalType": "uint256",
          "name": "repayAmount",
          "type": "uint256"
        },
        {
          "indexed": false,
          "internalType": "uint256",
          "name": "accountBorrows",
          "type": "uint256"
        },
        {
          "indexed": false,
          "internalType": "uint256",
          "name": "totalBorrows",
          "type": "uint256"
        }
      ],
      "name": "RepayBorrow",
      "type": "event"
    },
    {
      "anonymous": false,
      "inputs": [
        {
          "indexed": false,
          "internalType": "address",
          "name": "benefactor",
          "type": "address"
        },
        {
          "indexed": false,
          "internalType": "uint256",
          "name": "addAmount",
          "type": "uint256"
        },
        {
          "indexed": false,
          "internalType": "uint256",
          "name": "newTotalReserves",
          "type": "uint256"
        }
      ],
      "name": "ReservesAdded",
      "type": "event"
    },
    {
      "anonymous": false,
      "inputs": [
        {
          "indexed": false,
          "internalType": "address",
          "name": "admin",
          "type": "address"
        },
        {
          "indexed": false,
          "internalType": "uint256",
          "name": "reduceAmount",
          "type": "uint256"
        },
        {
          "indexed": false,
          "internalType": "uint256",
          "name": "newTotalReserves",
          "type": "uint256"
        }
      ],
      "name": "ReservesReduced",
      "type": "event"
    },
    {
      "anonymous": false,
      "inputs": [
        {
          "indexed": true,
          "internalType": "address",
          "name": "from",
          "type": "address"
        },
        {
          "indexed": true,
          "internalType": "address",
          "name": "to",
          "type": "address"
        },
        {
          "indexed": false,
          "internalType": "uint256",
          "name": "amount",
          "type": "uint256"
        }
      ],
      "name": "Transfer",
      "type": "event"
    },
    {
      "constant": false,
      "inputs": [],
      "name": "_acceptAdmin",
      "outputs": [
        {
          "internalType": "uint256",
          "name": "",
          "type": "uint256"
        }
      ],
      "payable": false,
      "stateMutability": "nonpayable",
      "type": "function"
    },
    {
      "constant": false,
      "inputs": [
        {
          "internalType": "uint256",
          "name": "addAmount",
          "type": "uint256"
        }
      ],
      "name": "_addReserves",
      "outputs": [
        {
          "internalType": "uint256",
          "name": "",
          "type": "uint256"
        }
      ],
      "payable": false,
      "stateMutability": "nonpayable",
      "type": "function"
    },
    {
      "constant": false,
      "inputs": [
        {
          "internalType": "uint256",
          "name": "reduceAmount",
          "type": "uint256"
        }
      ],
      "name": "_reduceReserves",
      "outputs": [
        {
          "internalType": "uint256",
          "name": "",
          "type": "uint256"
        }
      ],
      "payable": false,
      "stateMutability": "nonpayable",
      "type": "function"
    },
    {
      "constant": false,
      "inputs": [
        {
          "internalType": "contract ComptrollerInterface",
          "name": "newComptroller",
          "type": "address"
        }
      ],
      "name": "_setComptroller",
      "outputs": [
        {
          "internalType": "uint256",
          "name": "",
          "type": "uint256"
        }
      ],
      "payable": false,
      "stateMutability": "nonpayable",
      "type": "function"
    },
    {
      "constant": false,
      "inputs": [
        {
          "internalType": "contract InterestRateModel",
          "name": "newInterestRateModel",
          "type": "address"
        }
      ],
      "name": "_setInterestRateModel",
      "outputs": [
        {
          "internalType": "uint256",
          "name": "",
          "type": "uint256"
        }
      ],
      "payable": false,
      "stateMutability": "nonpayable",
      "type": "function"
    },
    {
      "constant": false,
      "inputs": [
        {
          "internalType": "address payable",
          "name": "newPendingAdmin",
          "type": "address"
        }
      ],
      "name": "_setPendingAdmin",
      "outputs": [
        {
          "internalType": "uint256",
          "name": "",
          "type": "uint256"
        }
      ],
      "payable": false,
      "stateMutability": "nonpayable",
      "type": "function"
    },
    {
      "constant": false,
      "inputs": [
        {
          "internalType": "uint256",
          "name": "newReserveFactorMantissa",
          "type": "uint256"
        }
      ],
      "name": "_setReserveFactor",
      "outputs": [
        {
          "internalType": "uint256",
          "name": "",
          "type": "uint256"
        }
      ],
      "payable": false,
      "stateMutability": "nonpayable",
      "type": "function"
    },
    {
      "constant": true,
      "inputs": [],
      "name": "accrualBlockNumber",
      "outputs": [
        {
          "internalType": "uint256",
          "name": "",
          "type": "uint256"
        }
      ],
      "payable": false,
      "stateMutability": "view",
      "type": "function"
    },
    {
      "constant": false,
      "inputs": [],
      "name": "accrueInterest",
      "outputs": [
        {
          "internalType": "uint256",
          "name": "",
          "type": "uint256"
        }
      ],
      "payable": false,
      "stateMutability": "nonpayable",
      "type": "function"
    },
    {
      "constant": true,
      "inputs": [],
      "name": "admin",
      "outputs": [
        {
          "internalType": "address payable",
          "name": "",
          "type": "address"
        }
      ],
      "payable": false,
      "stateMutability": "view",
      "type": "function"
    },
    {
      "constant": true,
      "inputs": [
        {
          "internalType": "address",
          "name": "owner",
          "type": "address"
        },
        {
          "internalType": "address",
          "name": "spender",
          "type": "address"
        }
      ],
      "name": "allowance",
      "outputs": [
        {
          "internalType": "uint256",
          "name": "",
          "type": "uint256"
        }
      ],
      "payable": false,
      "stateMutability": "view",
      "type": "function"
    },
    {
      "constant": false,
      "inputs": [
        {
          "internalType": "address",
          "name": "spender",
          "type": "address"
        },
        {
          "internalType": "uint256",
          "name": "amount",
          "type": "uint256"
        }
      ],
      "name": "approve",
      "outputs": [
        {
          "internalType": "bool",
          "name": "",
          "type": "bool"
        }
      ],
      "payable": false,
      "stateMutability": "nonpayable",
      "type": "function"
    },
    {
      "constant": true,
      "inputs": [
        {
          "internalType": "address",
          "name": "owner",
          "type": "address"
        }
      ],
      "name": "balanceOf",
      "outputs": [
        {
          "internalType": "uint256",
          "name": "",
          "type": "uint256"
        }
      ],
      "payable": false,
      "stateMutability": "view",
      "type": "function"
    },
    {
      "constant": false,
      "inputs": [
        {
          "internalType": "address",
          "name": "owner",
          "type": "address"
        }
      ],
      "name": "balanceOfUnderlying",
      "outputs": [
        {
          "internalType": "uint256",
          "name": "",
          "type": "uint256"
        }
      ],
      "payable": false,
      "stateMutability": "nonpayable",
      "type": "function"
    },
    {
      "constant": false,
      "inputs": [
        {
          "internalType": "uint256",
          "name": "borrowAmount",
          "type": "uint256"
        }
      ],
      "name": "borrow",
      "outputs": [
        {
          "internalType": "uint256",
          "name": "",
          "type": "uint256"
        }
      ],
      "payable": false,
      "stateMutability": "nonpayable",
      "type": "function"
    },
    {
      "constant": false,
      "inputs": [
        {
          "internalType": "address",
          "name": "account",
          "type": "address"
        }
      ],
      "name": "borrowBalanceCurrent",
      "outputs": [
        {
          "internalType": "uint256",
          "name": "",
          "type": "uint256"
        }
      ],
      "payable": false,
      "stateMutability": "nonpayable",
      "type": "function"
    },
    {
      "constant": true,
      "inputs": [
        {
          "internalType": "address",
          "name": "account",
          "type": "address"
        }
      ],
      "name": "borrowBalanceStored",
      "outputs": [
        {
          "internalType": "uint256",
          "name": "",
          "type": "uint256"
        }
      ],
      "payable": false,
      "stateMutability": "view",
      "type": "function"
    },
    {
      "constant": true,
      "inputs": [],
      "name": "borrowIndex",
      "outputs": [
        {
          "internalType": "uint256",
          "name": "",
          "type": "uint256"
        }
      ],
      "payable": false,
      "stateMutability": "view",
      "type": "function"
    },
    {
      "constant": true,
      "inputs": [],
      "name": "borrowRatePerBlock",
      "outputs": [
        {
          "internalType": "uint256",
          "name": "",
          "type": "uint256"
        }
      ],
      "payable": false,
      "stateMutability": "view",
      "type": "function"
    },
    {
      "constant": true,
      "inputs": [],
      "name": "comptroller",
      "outputs": [
        {
          "internalType": "contract ComptrollerInterface",
          "name": "",
          "type": "address"
        }
      ],
      "payable": false,
      "stateMutability": "view",
      "type": "function"
    },
    {
      "constant": true,
      "inputs": [],
      "name": "decimals",
      "outputs": [
        {
          "internalType": "uint8",
          "name": "",
          "type": "uint8"
        }
      ],
      "payable": false,
      "stateMutability": "view",
      "type": "function"
    },
    {
      "constant": false,
      "inputs": [],
      "name": "exchangeRateCurrent",
      "outputs": [
        {
          "internalType": "uint256",
          "name": "",
          "type": "uint256"
        }
      ],
      "payable": false,
      "stateMutability": "nonpayable",
      "type": "function"
    },
    {
      "constant": true,
      "inputs": [],
      "name": "exchangeRateStored",
      "outputs": [
        {
          "internalType": "uint256",
          "name": "",
          "type": "uint256"
        }
      ],
      "payable": false,
      "stateMutability": "view",
      "type": "function"
    },
    {
      "constant": true,
      "inputs": [
        {
          "internalType": "address",
          "name": "account",
          "type": "address"
        }
      ],
      "name": "getAccountSnapshot",
      "outputs": [
        {
          "internalType": "uint256",
          "name": "",
          "type": "uint256"
        },
        {
          "internalType": "uint256",
          "name": "",
          "type": "uint256"
        },
        {
          "internalType": "uint256",
          "name": "",
          "type": "uint256"
        },
        {
          "internalType": "uint256",
          "name": "",
          "type": "uint256"
        }
      ],
      "payable": false,
      "stateMutability": "view",
      "type": "function"
    },
    {
      "constant": true,
      "inputs": [],
      "name": "getCash",
      "outputs": [
        {
          "internalType": "uint256",
          "name": "",
          "type": "uint256"
        }
      ],
      "payable": false,
      "stateMutability": "view",
      "type": "function"
    },
    {
      "constant": true,
      "inputs": [],
      "name": "implementation",
      "outputs": [
        {
          "internalType": "address",
          "name": "",
          "type": "address"
        }
      ],
      "payable": false,
      "stateMutability": "view",
      "type": "function"
    },
    {
      "constant": false,
      "inputs": [
        {
          "internalType": "address",
          "name": "underlying_",
          "type": "address"
        },
        {
          "internalType": "contract ComptrollerInterface",
          "name": "comptroller_",
          "type": "address"
        },
        {
          "internalType": "contract InterestRateModel",
          "name": "interestRateModel_",
          "type": "address"
        },
        {
          "internalType": "uint256",
          "name": "initialExchangeRateMantissa_",
          "type": "uint256"
        },
        {
          "internalType": "string",
          "name": "name_",
          "type": "string"
        },
        {
          "internalType": "string",
          "name": "symbol_",
          "type": "string"
        },
        {
          "internalType": "uint8",
          "name": "decimals_",
          "type": "uint8"
        }
      ],
      "name": "initialize",
      "outputs": [],
      "payable": false,
      "stateMutability": "nonpayable",
      "type": "function"
    },
    {
      "constant": false,
      "inputs": [
        {
          "internalType": "contract ComptrollerInterface",
          "name": "comptroller_",
          "type": "address"
        },
        {
          "internalType": "contract InterestRateModel",
          "name": "interestRateModel_",
          "type": "address"
        },
        {
          "internalType": "uint256",
          "name": "initialExchangeRateMantissa_",
          "type": "uint256"
        },
        {
          "internalType": "string",
          "name": "name_",
          "type": "string"
        },
        {
          "internalType": "string",
          "name": "symbol_",
          "type": "string"
        },
        {
          "internalType": "uint8",
          "name": "decimals_",
          "type": "uint8"
        }
      ],
      "name": "initialize",
      "outputs": [],
      "payable": false,
      "stateMutability": "nonpayable",
      "type": "function"
    },
    {
      "constant": true,
      "inputs": [],
      "name": "interestRateModel",
      "outputs": [
        {
          "internalType": "contract InterestRateModel",
          "name": "",
          "type": "address"
        }
      ],
      "payable": false,
      "stateMutability": "view",
      "type": "function"
    },
    {
      "constant": true,
      "inputs": [],
      "name": "isCToken",
      "outputs": [
        {
          "internalType": "bool",
          "name": "",
          "type": "bool"
        }
      ],
      "payable": false,
      "stateMutability": "view",
      "type": "function"
    },
    {
      "constant": false,
      "inputs": [
        {
          "internalType": "address",
          "name": "borrower",
          "type": "address"
        },
        {
          "internalType": "uint256",
          "name": "repayAmount",
          "type": "uint256"
        },
        {
          "internalType": "contract CTokenInterface",
          "name": "cTokenCollateral",
          "type": "address"
        }
      ],
      "name": "liquidateBorrow",
      "outputs": [
        {
          "internalType": "uint256",
          "name": "",
          "type": "uint256"
        }
      ],
      "payable": false,
      "stateMutability": "nonpayable",
      "type": "function"
    },
    {
      "constant": false,
      "inputs": [
        {
          "internalType": "uint256",
          "name": "mintAmount",
          "type": "uint256"
        }
      ],
      "name": "mint",
      "outputs": [
        {
          "internalType": "uint256",
          "name": "",
          "type": "uint256"
        }
      ],
      "payable": false,
      "stateMutability": "nonpayable",
      "type": "function"
    },
    {
      "constant": true,
      "inputs": [],
      "name": "name",
      "outputs": [
        {
          "internalType": "string",
          "name": "",
          "type": "string"
        }
      ],
      "payable": false,
      "stateMutability": "view",
      "type": "function"
    },
    {
      "constant": true,
      "inputs": [],
      "name": "pendingAdmin",
      "outputs": [
        {
          "internalType": "address payable",
          "name": "",
          "type": "address"
        }
      ],
      "payable": false,
      "stateMutability": "view",
      "type": "function"
    },
    {
      "constant": false,
      "inputs": [
        {
          "internalType": "uint256",
          "name": "redeemTokens",
          "type": "uint256"
        }
      ],
      "name": "redeem",
      "outputs": [
        {
          "internalType": "uint256",
          "name": "",
          "type": "uint256"
        }
      ],
      "payable": false,
      "stateMutability": "nonpayable",
      "type": "function"
    },
    {
      "constant": false,
      "inputs": [
        {
          "internalType": "uint256",
          "name": "redeemAmount",
          "type": "uint256"
        }
      ],
      "name": "redeemUnderlying",
      "outputs": [
        {
          "internalType": "uint256",
          "name": "",
          "type": "uint256"
        }
      ],
      "payable": false,
      "stateMutability": "nonpayable",
      "type": "function"
    },
    {
      "constant": false,
      "inputs": [
        {
          "internalType": "uint256",
          "name": "repayAmount",
          "type": "uint256"
        }
      ],
      "name": "repayBorrow",
      "outputs": [
        {
          "internalType": "uint256",
          "name": "",
          "type": "uint256"
        }
      ],
      "payable": false,
      "stateMutability": "nonpayable",
      "type": "function"
    },
    {
      "constant": false,
      "inputs": [
        {
          "internalType": "address",
          "name": "borrower",
          "type": "address"
        },
        {
          "internalType": "uint256",
          "name": "repayAmount",
          "type": "uint256"
        }
      ],
      "name": "repayBorrowBehalf",
      "outputs": [
        {
          "internalType": "uint256",
          "name": "",
          "type": "uint256"
        }
      ],
      "payable": false,
      "stateMutability": "nonpayable",
      "type": "function"
    },
    {
      "constant": true,
      "inputs": [],
      "name": "reserveFactorMantissa",
      "outputs": [
        {
          "internalType": "uint256",
          "name": "",
          "type": "uint256"
        }
      ],
      "payable": false,
      "stateMutability": "view",
      "type": "function"
    },
    {
      "constant": false,
      "inputs": [
        {
          "internalType": "address",
          "name": "liquidator",
          "type": "address"
        },
        {
          "internalType": "address",
          "name": "borrower",
          "type": "address"
        },
        {
          "internalType": "uint256",
          "name": "seizeTokens",
          "type": "uint256"
        }
      ],
      "name": "seize",
      "outputs": [
        {
          "internalType": "uint256",
          "name": "",
          "type": "uint256"
        }
      ],
      "payable": false,
      "stateMutability": "nonpayable",
      "type": "function"
    },
    {
      "constant": true,
      "inputs": [],
      "name": "supplyRatePerBlock",
      "outputs": [
        {
          "internalType": "uint256",
          "name": "",
          "type": "uint256"
        }
      ],
      "payable": false,
      "stateMutability": "view",
      "type": "function"
    },
    {
      "constant": false,
      "inputs": [
        {
          "internalType": "contract EIP20NonStandardInterface",
          "name": "token",
          "type": "address"
        }
      ],
      "name": "sweepToken",
      "outputs": [],
      "payable": false,
      "stateMutability": "nonpayable",
      "type": "function"
    },
    {
      "constant": true,
      "inputs": [],
      "name": "symbol",
      "outputs": [
        {
          "internalType": "string",
          "name": "",
          "type": "string"
        }
      ],
      "payable": false,
      "stateMutability": "view",
      "type": "function"
    },
    {
      "constant": true,
      "inputs": [],
      "name": "totalBorrows",
      "outputs": [
        {
          "internalType": "uint256",
          "name": "",
          "type": "uint256"
        }
      ],
      "payable": false,
      "stateMutability": "view",
      "type": "function"
    },
    {
      "constant": false,
      "inputs": [],
      "name": "totalBorrowsCurrent",
      "outputs": [
        {
          "internalType": "uint256",
          "name": "",
          "type": "uint256"
        }
      ],
      "payable": false,
      "stateMutability": "nonpayable",
      "type": "function"
    },
    {
      "constant": true,
      "inputs": [],
      "name": "totalReserves",
      "outputs": [
        {
          "internalType": "uint256",
          "name": "",
          "type": "uint256"
        }
      ],
      "payable": false,
      "stateMutability": "view",
      "type": "function"
    },
    {
      "constant": true,
      "inputs": [],
      "name": "totalSupply",
      "outputs": [
        {
          "internalType": "uint256",
          "name": "",
          "type": "uint256"
        }
      ],
      "payable": false,
      "stateMutability": "view",
      "type": "function"
    },
    {
      "constant": false,
      "inputs": [
        {
          "internalType": "address",
          "name": "dst",
          "type": "address"
        },
        {
          "internalType": "uint256",
          "name": "amount",
          "type": "uint256"
        }
      ],
      "name": "transfer",
      "outputs": [
        {
          "internalType": "bool",
          "name": "",
          "type": "bool"
        }
      ],
      "payable": false,
      "stateMutability": "nonpayable",
      "type": "function"
    },
    {
      "constant": false,
      "inputs": [
        {
          "internalType": "address",
          "name": "src",
          "type": "address"
        },
        {
          "internalType": "address",
          "name": "dst",
          "type": "address"
        },
        {
          "internalType": "uint256",
          "name": "amount",
          "type": "uint256"
        }
      ],
      "name": "transferFrom",
      "outputs": [
        {
          "internalType": "bool",
          "name": "",
          "type": "bool"
        }
      ],
      "payable": false,
      "stateMutability": "nonpayable",
      "type": "function"
    },
    {
      "constant": true,
      "inputs": [],
      "name": "underlying",
      "outputs": [
        {
          "internalType": "address",
          "name": "",
          "type": "address"
        }
      ],
      "payable": false,
      "stateMutability": "view",
      "type": "function"
    },
    {
      "constant": false,
      "inputs": [
        {
          "internalType": "bytes",
          "name": "data",
          "type": "bytes"
        }
      ],
      "name": "_becomeImplementation",
      "outputs": [],
      "payable": false,
      "stateMutability": "nonpayable",
      "type": "function"
    },
    {
      "constant": false,
      "inputs": [],
      "name": "_resignImplementation",
      "outputs": [],
      "payable": false,
      "stateMutability": "nonpayable",
      "type": "function"
    }
  ],
  "bytecode": "0x60806040523480156200001c576000806200001962000023565b50505b5062000090565b632a2a7adb598160e01b8152600481016020815285602082015260005b868110156200005d57808601518282016040015260200162000040565b506020828760640184336000905af158600e01573d6000803e3d6000fd5b3d6001141558600a015760016000f35b505050565b616eac80620000a06000396000f3fe6080604052348015610019576000806100166166a5565b50505b50600436106102655760003560e01c806306fdde0314610273578063095ea7b3146102f25780630e7527021461033b578063153ab50514610373578063173b99041461037d57806317bfdfbc1461038557806318160ddd146103b4578063182df0f5146103bc5780631a31d465146103c45780631be195601461055757806323b872dd146105865780632608f818146105c557806326782247146105fa578063313ce5671461061e5780633af9e6691461063c5780633b1d21a21461066b5780633e941010146106735780634576b5db1461069957806347bd3718146106c857806356e67728146106d05780635c60da1b146107975780635fe3b5671461079f578063601a0bf1146107a75780636c540baf146107cd5780636f307dc3146107d557806370a08231146107dd57806373acee981461080c578063852a12e3146108145780638f840ddd1461083a57806395d89b411461084257806395dd91931461084a57806399d8c1b414610879578063a0712d6814610a04578063a6afed9514610a2a578063a9059cbb14610a32578063aa5af0fd14610a67578063ae9d70b014610a6f578063b2a02ff114610a77578063b71d1a0c14610ab6578063bd6d894d14610ae5578063c37f68e214610aed578063c5ebeaec14610b47578063db006a7514610b6d578063dd62ed3e14610b93578063e9c714f214610bca578063f2b3abbd14610bd2578063f3fdb15a14610c01578063f5e3c46214610c09578063f851a44014610c48578063f8f9da2814610c50578063fca7820b14610c58578063fe9c44ae14610c7e575b6000806102706166a5565b50505b61027b610c86565b60405160208082528190810183818151815260200191508051906020019080838360005b838110156102b757808201518382015260200161029f565b50505050905090810190601f1680156102e45780820380516001836020036101000a031916815260200191505b509250505060405180910390f35b610327600480360360408110156103115760008061030e6166a5565b50505b506001600160a01b038135169060200135610d3f565b604051901515815260200160405180910390f35b6103616004803603602081101561035a576000806103576166a5565b50505b5035610de1565b60405190815260200160405180910390f35b61037b610df7565b005b610361610e75565b610361600480360360208110156103a4576000806103a16166a5565b50505b50356001600160a01b0316610e82565b610361610f9f565b610361610fa9565b61037b600480360360e08110156103e3576000806103e06166a5565b50505b6001600160a01b03823581169260208101358216926040820135909216916060820135919081019060a081016080820135600160201b81111561042e5760008061042b6166a5565b50505b820183602082011115610449576000806104466166a5565b50505b803590602001918460018302840111600160201b83111715610473576000806104706166a5565b50505b91908080601f01602080910402602001604051908101604052818152929190602084018383808284376000920191909152509295949360208101935035915050600160201b8111156104cd576000806104ca6166a5565b50505b8201836020820111156104e8576000806104e56166a5565b50505b803590602001918460018302840111600160201b831117156105125760008061050f6166a5565b50505b91908080601f01602080910402602001604051908101604052818152929190602084018383808284376000920191909152509295505050903560ff1691506110159050565b61037b60048036036020811015610576576000806105736166a5565b50505b50356001600160a01b0316611116565b610327600480360360608110156105a5576000806105a26166a5565b50505b506001600160a01b0381358116916020810135909116906040013561134c565b610361600480360360408110156105e4576000806105e16166a5565b50505b506001600160a01b03813516906020013561141b565b610602611431565b6040516001600160a01b03909116815260200160405180910390f35b610626611450565b60405160ff909116815260200160405180910390f35b6103616004803603602081101561065b576000806106586166a5565b50505b50356001600160a01b0316611469565b61036161152a565b610361600480360360208110156106925760008061068f6166a5565b50505b5035611539565b610361600480360360208110156106b8576000806106b56166a5565b50505b50356001600160a01b0316611544565b61036161172a565b61037b600480360360208110156106ef576000806106ec6166a5565b50505b810190602081018135600160201b8111156107125760008061070f6166a5565b50505b82018360208201111561072d5760008061072a6166a5565b50505b803590602001918460018302840111600160201b83111715610757576000806107546166a5565b50505b91908080601f0160208091040260200160405190810160405281815292919060208401838380828437600092019190915250929550611734945050505050565b6106026117b3565b6106026117bf565b610361600480360360208110156107c6576000806107c36166a5565b50505b50356117cb565b610361611897565b6106026118a1565b610361600480360360208110156107fc576000806107f96166a5565b50505b50356001600160a01b03166118ad565b6103616118cd565b61036160048036036020811015610833576000806108306166a5565b50505b50356119e8565b6103616119f3565b61027b6119fd565b61036160048036036020811015610869576000806108666166a5565b50505b50356001600160a01b0316611a9f565b61037b600480360360c0811015610898576000806108956166a5565b50505b6001600160a01b03823581169260208101359091169160408201359190810190608081016060820135600160201b8111156108db576000806108d86166a5565b50505b8201836020820111156108f6576000806108f36166a5565b50505b803590602001918460018302840111600160201b831117156109205760008061091d6166a5565b50505b91908080601f01602080910402602001604051908101604052818152929190602084018383808284376000920191909152509295949360208101935035915050600160201b81111561097a576000806109776166a5565b50505b820183602082011115610995576000806109926166a5565b50505b803590602001918460018302840111600160201b831117156109bf576000806109bc6166a5565b50505b91908080601f01602080910402602001604051908101604052818152929190602084018383808284376000920191909152509295505050903560ff169150611b0b9050565b61036160048036036020811015610a2357600080610a206166a5565b50505b5035611daf565b610361611dbb565b61032760048036036040811015610a5157600080610a4e6166a5565b50505b506001600160a01b0381351690602001356121c9565b61036161229f565b6103616122a9565b61036160048036036060811015610a9657600080610a936166a5565b50505b506001600160a01b038135811691602081013590911690604001356123a9565b61036160048036036020811015610ad557600080610ad26166a5565b50505b50356001600160a01b031661244f565b61036161252a565b610b1c60048036036020811015610b0c57600080610b096166a5565b50505b50356001600160a01b0316612618565b6040518085815260200184815260200183815260200182815260200194505050505060405180910390f35b61036160048036036020811015610b6657600080610b636166a5565b50505b50356126b6565b61036160048036036020811015610b8c57600080610b896166a5565b50505b50356126c1565b61036160048036036040811015610bb257600080610baf6166a5565b50505b506001600160a01b03813581169160200135166126cc565b610361612705565b61036160048036036020811015610bf157600080610bee6166a5565b50505b50356001600160a01b03166128f9565b610602612933565b61036160048036036060811015610c2857600080610c256166a5565b50505b506001600160a01b0381358116916020810135916040909101351661293f565b610602612957565b610361612963565b61036160048036036020811015610c7757600080610c746166a5565b50505b50356129e9565b610327612a9c565b600180610c91616710565b600181600116156101000203166002900480601f016020809104026020016040519081016040528181529190602083018280610ccb616710565b60018160011615610100020316600290048015610d375780601f10610d05576101008083610cf7616710565b040283529160200191610d37565b820191906000526020600020905b81610d1c616710565b81529060010190602001808311610d1357829003601f168201915b505050505081565b6000805a610d4b61676b565b6001600160a01b0381166000908152600f6020529091508390604090206001600160a01b0386166000908152602091909152604090208190610d8b6167b1565b505050836001600160a01b0316816001600160a01b03167f8c5be1e5ebec7d5bd14f71427d1e84f3dd0314c0f7b2291e5b200ac8c7c3b9258560405190815260200160405180910390a360019150505b92915050565b600080610ded83612aa1565b509150505b919050565b60016003610e03616710565b906101000a90046001600160a01b03166001600160a01b03165a610e2561676b565b6001600160a01b031614610e735760405162461bcd60e51b815260040180806020018281038252602d815260200180616c5d602d913960400191505060405180910390610e706166a5565b50505b565b6008610e7f616710565b81565b60008080610e8e616710565b906101000a900460ff16610ede5760405162461bcd60e51b815260206004820152600a6024820152691c994b595b9d195c995960b21b604482015260640160405180910390610edb6166a5565b50505b600080600181610eec616710565b8160ff02191690831515021790610f016167b1565b5060009150610f0d9050565b610f15611dbb565b14610f685760405162461bcd60e51b81526020600482015260166024820152751858d8dc9d59481a5b9d195c995cdd0819985a5b195960521b604482015260640160405180910390610f656166a5565b50505b610f7182611a9f565b90505b600160008181610f82616710565b8160ff02191690831515021790610f976167b1565b505050919050565b600d610e7f616710565b6000806000610fb6612ba5565b90925090506000826003811115610fc957fe5b1461100e5760405162461bcd60e51b8152600401808060200182810382526035815260200180616dca603591396040019150506040518091039061100b6166a5565b50505b9150505b90565b611023868686868686611b0b565b866011600181611031616710565b816001600160a01b0302191690836001600160a01b03160217906110536167b1565b5050506011600090611063616710565b906101000a90046001600160a01b03166001600160a01b03166318160ddd6040518163ffffffff1660e01b815260040160206040518083038186806110a66167ff565b1580156110bb576000806110b86166a5565b50505b505a6110c561684b565b50505050501580156110e4573d6000803e3d60006110e16166a5565b50505b505050506040513d6020811015611103576000806111006166a5565b50505b8101908080515050505050505050505050565b60006011611122616710565b906101000a90046001600160a01b03166001600160a01b0316816001600160a01b0316141561118b5760405162461bcd60e51b8152600401808060200182810382526032815260200180616bd960329139604001915050604051809103906111886166a5565b50505b6000816001600160a01b03166370a082315a63996d79a5598160e01b8152602081600483336000905af158600e01573d6000803e3d6000fd5b3d6001141558600a015760016000f35b8051925060005b60408110156111f2576000828201526020016111db565b5050506040516001600160e01b031960e084901b1681526001600160a01b039091166004820152602401602060405180830381868061122f6167ff565b158015611244576000806112416166a5565b50505b505a61124e61684b565b505050505015801561126d573d6000803e3d600061126a6166a5565b50505b505050506040513d602081101561128c576000806112896166a5565b50505b810190808051935050506001600160a01b038316905063a9059cbb600160036112b3616710565b906101000a90046001600160a01b0316836040516001600160e01b031960e085901b1681526001600160a01b0390921660048301526024820152604401600060405180830381600087806113056167ff565b15801561131a576000806113176166a5565b50505b505a6113246168fb565b505050505050158015611344573d6000803e3d60006113416166a5565b50505b505050505050565b60008080611358616710565b906101000a900460ff166113a85760405162461bcd60e51b815260206004820152600a6024820152691c994b595b9d195c995960b21b6044820152606401604051809103906113a56166a5565b50505b6000806001816113b6616710565b8160ff021916908315150217906113cb6167b1565b50600091506113d79050565b6113eb5a6113e361676b565b868686612c70565b1490506001600081816113fc616710565b8160ff021916908315150217906114116167b1565b5050509392505050565b600080611428848461300d565b50949350505050565b6000600461143d616710565b906101000a90046001600160a01b031681565b6000600361145c616710565b906101000a900460ff1681565b60006114736169ab565b604051806020016040528061148661252a565b90526001600160a01b0384166000908152600e602052909150806114b583604083206114b0616710565b61310b565b909250905060008260038111156114c857fe5b146115225760405162461bcd60e51b815260206004820152601f60248201527f62616c616e636520636f756c64206e6f742062652063616c63756c617465640060448201526064016040518091039061151f6166a5565b50505b949350505050565b600061153461315f565b905090565b6000610ddb8261328d565b600060016003611552616710565b906101000a90046001600160a01b03166001600160a01b03165a61157461676b565b6001600160a01b0316146115955761158e6001603f613352565b9050610df2565b60008060056115a2616710565b906101000a90046001600160a01b03169050826001600160a01b0316627e3dd26040518163ffffffff1660e01b815260040160206040518083038186806115e76167ff565b1580156115fc576000806115f96166a5565b50505b505a61160661684b565b5050505050158015611625573d6000803e3d60006116226166a5565b50505b505050506040513d6020811015611644576000806116416166a5565b50505b81019080805192506116a79150505760405162461bcd60e51b815260206004820152601c60248201527b6d61726b6572206d6574686f642072657475726e65642066616c736560201b6044820152606401604051809103906116a46166a5565b50505b8260056001816116b5616710565b816001600160a01b0302191690836001600160a01b03160217906116d76167b1565b5050507f7ac369dbd14fa5ea3f473ed67cc9d598964a77501540ba6751eb0b3decf5870d81846040516001600160a01b039283168152911660208201526040908101905180910390a160005b9392505050565b600b610e7f616710565b60016003611740616710565b906101000a90046001600160a01b03166001600160a01b03165a61176261676b565b6001600160a01b0316146117b05760405162461bcd60e51b815260040180806020018281038252602d815260200180616e7f602d9139604001915050604051809103906117ad6166a5565b50505b50565b6000601261143d616710565b6000600561143d616710565b600080806117d7616710565b906101000a900460ff166118275760405162461bcd60e51b815260206004820152600a6024820152691c994b595b9d195c995960b21b6044820152606401604051809103906118246166a5565b50505b600080600181611835616710565b8160ff0219169083151502179061184a6167b1565b5050506000611857611dbb565b9050801561187d5761187581601081111561186e57fe5b6030613352565b915050610f74565b611886836133ac565b915050600160008181610f82616710565b6009610e7f616710565b6000601161143d616710565b6001600160a01b0381166000908152600e60205260408120610ddb616710565b600080806118d9616710565b906101000a900460ff166119295760405162461bcd60e51b815260206004820152600a6024820152691c994b595b9d195c995960b21b6044820152606401604051809103906119266166a5565b50505b600080600181611937616710565b8160ff0219169083151502179061194c6167b1565b50600091506119589050565b611960611dbb565b146119b35760405162461bcd60e51b81526020600482015260166024820152751858d8dc9d59481a5b9d195c995cdd0819985a5b195960521b6044820152606401604051809103906119b06166a5565b50505b600b6119bd616710565b90506001600081816119cd616710565b8160ff021916908315150217906119e26167b1565b50505090565b6000610ddb82613561565b600c610e7f616710565b600280611a08616710565b600181600116156101000203166002900480601f016020809104026020016040519081016040528181529190602083018280611a42616710565b60018160011615610100020316600290048015610d375780601f10611a6e576101008083610cf7616710565b820191906000526020600020905b81611a85616710565b81529060010190602001808311611a7c5750859350505050565b6000806000611aad8461361f565b90925090506000826003811115611ac057fe5b146117235760405162461bcd60e51b8152600401808060200182810382526037815260200180616cb56037913960400191505060405180910390611b026166a5565b50509392505050565b60016003611b17616710565b906101000a90046001600160a01b03166001600160a01b03165a611b3961676b565b6001600160a01b031614611b875760405162461bcd60e51b8152600401808060200182810382526024815260200180616b726024913960400191505060405180910390611b846166a5565b50505b6009611b91616710565b158015611ba55750600a611ba3616710565b155b611be95760405162461bcd60e51b8152600401808060200182810382526023815260200180616b966023913960400191505060405180910390611be66166a5565b50505b83806007611bf56167b1565b50505060006007611c04616710565b11611c495760405162461bcd60e51b8152600401808060200182810382526030815260200180616c0b6030913960400191505060405180910390611c466166a5565b50505b6000611c5487611544565b90508015611cae5760405162461bcd60e51b815260206004820152601a6024820152791cd95d1d1a5b99c818dbdb5c1d1c9bdb1b195c8819985a5b195960321b604482015260640160405180910390611cab6166a5565b50505b611cb66136eb565b806009611cc16167b1565b505050670de0b6b3a7640000600a8190611cd96167b1565b505050611ce5866136f6565b90508015611d2d5760405162461bcd60e51b8152600401808060200182810382526022815260200180616c3b6022913960400191505060405180910390611d2a6166a5565b50505b6001848051611d409291602001906169bc565b506002838051611d549291602001906169bc565b50816003600181611d63616710565b8160ff021916908360ff16021790611d796167b1565b50505060016000806101000a81611d8e616710565b8160ff02191690831515021790611da36167b1565b50505050505050505050565b600080610ded836138f6565b600080611dc66136eb565b905060006009611dd4616710565b905081811415611de957600092505050611012565b6000611df361315f565b90506000600b611e01616710565b90506000600c611e0f616710565b90506000600a611e1d616710565b90506000806006611e2c616710565b906101000a90046001600160a01b03166001600160a01b03166315f240538686866040516001600160e01b031960e086901b1681526004810193909352602483019190915260448201526064016020604051808303818680611e8c6167ff565b158015611ea157600080611e9e6166a5565b50505b505a611eab61684b565b5050505050158015611eca573d6000803e3d6000611ec76166a5565b50505b505050506040513d6020811015611ee957600080611ee66166a5565b50505b8101908080519350505065048c273950008211159050611f575760405162461bcd60e51b815260206004820152601c60248201527b0c4dee4e4deee40e4c2e8ca40d2e640c2c4e6eae4c8d8f240d0d2ced60231b604482015260640160405180910390611f546166a5565b50505b600080611f6489896139b3565b90925090506000826003811115611f7757fe5b14611fd15760405162461bcd60e51b815260206004820152601f60248201527f636f756c64206e6f742063616c63756c61746520626c6f636b2064656c746100604482015260640160405180910390611fce6166a5565b50505b611fd96169ab565b600080600080611ff560405160208101604052898152876139d6565b9097509450600087600381111561200857fe5b1461203a576120256009600689600381111561202057fe5b613a3c565b9e505050505050505050505050505050611012565b612044858c61310b565b9097509350600087600381111561205757fe5b1461206f576120256009600189600381111561202057fe5b612079848c613a95565b9097509250600087600381111561208c57fe5b146120a4576120256009600489600381111561202057fe5b6120c5604051806020016040528060086120bc616710565b9052858c613abb565b909750915060008760038111156120d857fe5b146120f0576120256009600589600381111561202057fe5b6120fb858a8b613abb565b9097509050600087600381111561210e57fe5b14612126576120256009600389600381111561202057fe5b8d8060096121326167b1565b50505080600a81906121426167b1565b50505082600b81906121526167b1565b50505081600c81906121626167b1565b5050507f4dec04e750ca11537cabcd8a9eab06494de08da3735bc8871cd41250e190bc048c8583866040518085815260200184815260200183815260200182815260200194505050505060405180910390a160009e50505050505050505050505050505090565b600080806121d5616710565b906101000a900460ff166122255760405162461bcd60e51b815260206004820152600a6024820152691c994b595b9d195c995960b21b6044820152606401604051809103906122226166a5565b50505b600080600181612233616710565b8160ff021916908315150217906122486167b1565b50600091506122549050565b6122705a61226061676b565b5a61226961676b565b8686612c70565b149050600160008181612281616710565b8160ff021916908315150217906122966167b1565b50505092915050565b600a610e7f616710565b60008060066122b6616710565b906101000a90046001600160a01b03166001600160a01b031663b81688166122dc61315f565b600b6122e6616710565b600c6122f0616710565b60086122fa616710565b6040516001600160e01b031960e087901b1681526004810194909452602484019290925260448301526064820152608401602060405180830381868061233e6167ff565b158015612353576000806123506166a5565b50505b505a61235d61684b565b505050505015801561237c573d6000803e3d60006123796166a5565b50505b505050506040513d602081101561239b576000806123986166a5565b50505b810190808051935050505090565b600080806123b5616710565b906101000a900460ff166124055760405162461bcd60e51b815260206004820152600a6024820152691c994b595b9d195c995960b21b6044820152606401604051809103906124026166a5565b50505b600080600181612413616710565b8160ff021916908315150217906124286167b1565b50505061243f5a61243761676b565b858585613b17565b90506001600081816113fc616710565b60006001600361245d616710565b906101000a90046001600160a01b03166001600160a01b03165a61247f61676b565b6001600160a01b0316146124995761158e60016045613352565b60008060046124a6616710565b906101000a90046001600160a01b0316905082600460006101000a816124ca616710565b816001600160a01b0302191690836001600160a01b03160217906124ec6167b1565b505050600080516020616cec83398151915281846040516001600160a01b039283168152911660208201526040908101905180910390a16000611723565b60008080612536616710565b906101000a900460ff166125865760405162461bcd60e51b815260206004820152600a6024820152691c994b595b9d195c995960b21b6044820152606401604051809103906125836166a5565b50505b600080600181612594616710565b8160ff021916908315150217906125a96167b1565b50600091506125b59050565b6125bd611dbb565b146126105760405162461bcd60e51b81526020600482015260166024820152751858d8dc9d59481a5b9d195c995cdd0819985a5b195960521b60448201526064016040518091039061260d6166a5565b50505b6119bd610fa9565b6001600160a01b0381166000908152600e602052808080806040812061263c616710565b9050600080600061264c8961361f565b93509050600081600381111561265e57fe5b1461267c5760095b9750600096508695508594506126af9350505050565b612684612ba5565b92509050600081600381111561269657fe5b146126a2576009612666565b5060009650919450925090505b9193509193565b6000610ddb82613de8565b6000610ddb82613ea4565b6001600160a01b0382166000908152600f602052604081206001600160a01b038316600090815260209190915260409020611723616710565b6000806004612712616710565b906101000a90046001600160a01b03166001600160a01b03165a61273461676b565b6001600160a01b031614158061275b575060005a61275061676b565b6001600160a01b0316145b156127735761276c60016000613352565b9050611012565b600060016003612781616710565b906101000a90046001600160a01b03169050600060046000906127a2616710565b906101000a90046001600160a01b0316905060046000906127c1616710565b906101000a90046001600160a01b0316600360016101000a816127e2616710565b816001600160a01b0302191690836001600160a01b03160217906128046167b1565b5050506000600460006101000a8161281a616710565b816001600160a01b0302191690836001600160a01b031602179061283c6167b1565b5050507ff9ffabca9c8276e99321725bcb43fb076a6c66a54b7f21c4e8146d8519b417dc82600360019061286e616710565b906101000a90046001600160a01b03166040516001600160a01b039283168152911660208201526040908101905180910390a1600080516020616cec83398151915281600060046128bd616710565b906101000a90046001600160a01b03166040516001600160a01b039283168152911660208201526040908101905180910390a160009250505090565b600080612904611dbb565b9050801561292a5761292281601081111561291b57fe5b6040613352565b915050610df2565b611723836136f6565b6000600661143d616710565b60008061294d858585613f5b565b5095945050505050565b6001600361143d616710565b6000806006612970616710565b906101000a90046001600160a01b03166001600160a01b03166315f2405361299661315f565b600b6129a0616710565b600c6129aa616710565b6040516001600160e01b031960e086901b168152600481019390935260248301919091526044820152606401602060405180830381868061233e6167ff565b600080806129f5616710565b906101000a900460ff16612a455760405162461bcd60e51b815260206004820152600a6024820152691c994b595b9d195c995960b21b604482015260640160405180910390612a426166a5565b50505b600080600181612a53616710565b8160ff02191690831515021790612a686167b1565b5050506000612a75611dbb565b90508015612a9357611875816010811115612a8c57fe5b6046613352565b6118868361411f565b600181565b6000808080612aae616710565b906101000a900460ff16612afe5760405162461bcd60e51b815260206004820152600a6024820152691c994b595b9d195c995960b21b604482015260640160405180910390612afb6166a5565b50505b600080600181612b0c616710565b8160ff02191690831515021790612b216167b1565b5050506000612b2e611dbb565b90508015612b5957612b4c816010811115612b4557fe5b6036613352565b925060009150612b7a9050565b612b745a612b6561676b565b5a612b6e61676b565b86614206565b92509250505b600160008181612b88616710565b8160ff02191690831515021790612b9d6167b1565b505050915091565b6000806000600d612bb4616710565b905080612bd15760006007612bc7616710565b9250925050612c6c565b6000612bdb61315f565b90506000612be76169ab565b6000612c0684600b612bf7616710565b600c612c01616710565b614674565b935090506000816003811115612c1857fe5b14612c2d57955060009450612c6c9350505050565b612c3783866146b2565b925090506000816003811115612c4957fe5b14612c5e57955060009450612c6c9350505050565b600082519650965050505050505b9091565b600080806005612c7e616710565b906101000a90046001600160a01b03166001600160a01b031663bdcdc2585a63996d79a5598160e01b8152602081600483336000905af158600e01573d6000803e3d6000fd5b3d6001141558600a015760016000f35b8051925060005b6040811015612cf257600082820152602001612cdb565b5050508787876040516001600160e01b031960e087901b1681526001600160a01b039485166004820152928416602484015292166044820152606481019190915260840160206040518083038160008780612d4b6167ff565b158015612d6057600080612d5d6166a5565b50505b505a612d6a6168fb565b505050505050158015612d8a573d6000803e3d6000612d876166a5565b50505b505050506040513d6020811015612da957600080612da66166a5565b50505b81019080805193505082159150612dd1905057612dc96003604a83613a3c565b915050611522565b836001600160a01b0316856001600160a01b03161415612df757612dc96002604b613352565b60006001600160a01b038781169087161415612e165750600019612e52565b6001600160a01b0386166000908152600f602052604090206001600160a01b038816600090815260209190915260409020612e4f616710565b90505b600080600080612e6285896139b3565b90945092506000846003811115612e7557fe5b14612e9357612e866009604b613352565b9650505050505050611522565b6001600160a01b038a166000908152600e602052612ebd9060409020612eb7616710565b896139b3565b90945091506000846003811115612ed057fe5b14612ee157612e866009604c613352565b6001600160a01b0389166000908152600e602052612f0b9060409020612f05616710565b89613a95565b90945090506000846003811115612f1e57fe5b14612f2f57612e866009604d613352565b6001600160a01b038a166000908152600e6020528290604090208190612f536167b1565b5050506001600160a01b0389166000908152600e6020528190604090208190612f7a6167b1565b5050506000198514612fc7576001600160a01b038a166000908152600f6020528390604090206001600160a01b038d166000908152602091909152604090208190612fc36167b1565b5050505b886001600160a01b03168a6001600160a01b0316600080516020616d468339815191528a60405190815260200160405180910390a35060009a9950505050505050505050565b600080808061301a616710565b906101000a900460ff1661306a5760405162461bcd60e51b815260206004820152600a6024820152691c994b595b9d195c995960b21b6044820152606401604051809103906130676166a5565b50505b600080600181613078616710565b8160ff0219169083151502179061308d6167b1565b505050600061309a611dbb565b905080156130c5576130b88160108111156130b157fe5b6035613352565b9250600091506130de9050565b6130d85a6130d161676b565b8686614206565b92509250505b6001600081816130ec616710565b8160ff021916908315150217906131016167b1565b5050509250929050565b60008060006131186169ab565b61312286866139d6565b9092509050600082600381111561313557fe5b146131465750915060009050613158565b600061315182614764565b9350935050505b9250929050565b60008080601161316d616710565b906101000a90046001600160a01b03169050806001600160a01b03166370a082315a63996d79a5598160e01b8152602081600483336000905af158600e01573d6000803e3d6000fd5b3d6001141558600a015760016000f35b8051925060005b60408110156131e4576000828201526020016131cd565b5050506040516001600160e01b031960e084901b1681526001600160a01b03909116600482015260240160206040518083038186806132216167ff565b158015613236576000806132336166a5565b50505b505a61324061684b565b505050505015801561325f573d6000803e3d600061325c6166a5565b50505b505050506040513d602081101561327e5760008061327b6166a5565b50505b81019080805194505050505090565b60008080613299616710565b906101000a900460ff166132e95760405162461bcd60e51b815260206004820152600a6024820152691c994b595b9d195c995960b21b6044820152606401604051809103906132e66166a5565b50505b6000806001816132f7616710565b8160ff0219169083151502179061330c6167b1565b5050506000613319611dbb565b905080156133375761187581601081111561333057fe5b604e613352565b6133408361477f565b50915050600160008181610f82616710565b6000600080516020616bb983398151915283601081111561336f57fe5b83605081111561337b57fe5b600060405180848152602001838152602001828152602001935050505060405180910390a182601081111561172357fe5b600080600160036133bb616710565b906101000a90046001600160a01b03166001600160a01b03165a6133dd61676b565b6001600160a01b0316146133f75761292260016031613352565b6133ff6136eb565b6009613409616710565b1461341a57612922600a6033613352565b8261342361315f565b101561343557612922600e6032613352565b600c61343f616710565b8311156134525761292260026034613352565b82600c61345d616710565b039050600c61346a616710565b8111156134b15760405162461bcd60e51b8152600401808060200182810382526024815260200180616e5b60249139604001915050604051809103906134ae6166a5565b50505b8080600c6134bd6167b1565b5050506134e660036001906134d0616710565b906101000a90046001600160a01b0316846148b7565b7f3bad0c59cf2f06e7314077049f48a93578cd16f5ef92329f1dab1420a99c177e60016003613513616710565b906101000a90046001600160a01b0316848360405180846001600160a01b03166001600160a01b03168152602001838152602001828152602001935050505060405180910390a16000611723565b6000808061356d616710565b906101000a900460ff166135bd5760405162461bcd60e51b815260206004820152600a6024820152691c994b595b9d195c995960b21b6044820152606401604051809103906135ba6166a5565b50505b6000806001816135cb616710565b8160ff021916908315150217906135e06167b1565b50505060006135ed611dbb565b9050801561360b5761187581601081111561360457fe5b6027613352565b6118865a61361761676b565b600085614a00565b6001600160a01b03811660009081526010602052808080808060408120905080613647616710565b61365c5750600094508493506136e692505050565b61367781613668616710565b600a613672616710565b6150b0565b9094509250600084600381111561368a57fe5b1461369f5750919350600092506136e6915050565b6136b483826001016136af616710565b6150ef565b909450915060008460038111156136c757fe5b146136dc5750919350600092506136e6915050565b5060009450925050505b915091565b60005a611534616a5c565b60008060016003613705616710565b906101000a90046001600160a01b03166001600160a01b03165a61372761676b565b6001600160a01b0316146137415761292260016042613352565b6137496136eb565b6009613753616710565b1461376457612922600a6041613352565b60006006613770616710565b906101000a90046001600160a01b03169050826001600160a01b0316632191f92a6040518163ffffffff1660e01b815260040160206040518083038186806137b66167ff565b1580156137cb576000806137c86166a5565b50505b505a6137d561684b565b50505050501580156137f4573d6000803e3d60006137f16166a5565b50505b505050506040513d6020811015613813576000806138106166a5565b50505b81019080805192506138769150505760405162461bcd60e51b815260206004820152601c60248201527b6d61726b6572206d6574686f642072657475726e65642066616c736560201b6044820152606401604051809103906138736166a5565b50505b826006600181613884616710565b816001600160a01b0302191690836001600160a01b03160217906138a66167b1565b5050507fedffc32e068c7c95dfd4bdfd5c4d939a084d6b11c4199eac8436ed234d72f92681846040516001600160a01b039283168152911660208201526040908101905180910390a16000611723565b6000808080613903616710565b906101000a900460ff166139535760405162461bcd60e51b815260206004820152600a6024820152691c994b595b9d195c995960b21b6044820152606401604051809103906139506166a5565b50505b600080600181613961616710565b8160ff021916908315150217906139766167b1565b5050506000613983611dbb565b905080156139a157612b4c81601081111561399a57fe5b601e613352565b612b745a6139ad61676b565b8561511a565b6000808383116139ca575060009050818303613158565b50600390506000613158565b60006139e06169ab565b6000806139ee8651866150b0565b90925090506000826003811115613a0157fe5b14613a22578160405160208101604052600081529094509250613158915050565b600060405160208101604052918252969095509350505050565b6000600080516020616bb9833981519152846010811115613a5957fe5b846050811115613a6557fe5b8460405180848152602001838152602001828152602001935050505060405180910390a183601081111561152257fe5b600080838301848110613aad57600092509050613158565b506002915060009050613158565b6000806000613ac86169ab565b613ad287876139d6565b90925090506000826003811115613ae557fe5b14613af65750915060009050613b0f565b613b08613b0282614764565b86613a95565b9350935050505b935093915050565b600080806005613b25616710565b906101000a90046001600160a01b03166001600160a01b031663d02f73515a63996d79a5598160e01b8152602081600483336000905af158600e01573d6000803e3d6000fd5b3d6001141558600a015760016000f35b8051925060005b6040811015613b9957600082820152602001613b82565b505050888888886040516001600160e01b031960e088901b1681526001600160a01b039586166004820152938516602485015291841660448401529092166064820152608481019190915260a40160206040518083038160008780613bfc6167ff565b158015613c1157600080613c0e6166a5565b50505b505a613c1b6168fb565b505050505050158015613c3b573d6000803e3d6000613c386166a5565b50505b505050506040513d6020811015613c5a57600080613c576166a5565b50505b81019080805193505082159150613c7a905057612dc96003601b83613a3c565b846001600160a01b0316846001600160a01b03161415613ca057612dc96006601c613352565b6001600160a01b0384166000908152600e6020528080613ccb60408220613cc5616710565b876139b3565b90935091506000836003811115613cde57fe5b14613d0157613cf66009601a85600381111561202057fe5b945050505050611522565b6001600160a01b0388166000908152600e602052613d2b9060409020613d25616710565b87613a95565b90935090506000836003811115613d3e57fe5b14613d5657613cf66009601985600381111561202057fe5b6001600160a01b0387166000908152600e6020528290604090208190613d7a6167b1565b5050506001600160a01b0388166000908152600e6020528190604090208190613da16167b1565b505050876001600160a01b0316876001600160a01b0316600080516020616d468339815191528860405190815260200160405180910390a360009998505050505050505050565b60008080613df4616710565b906101000a900460ff16613e445760405162461bcd60e51b815260206004820152600a6024820152691c994b595b9d195c995960b21b604482015260640160405180910390613e416166a5565b50505b600080600181613e52616710565b8160ff02191690831515021790613e676167b1565b5050506000613e74611dbb565b90508015613e9257611875816010811115613e8b57fe5b6008613352565b6118865a613e9e61676b565b8461564a565b60008080613eb0616710565b906101000a900460ff16613f005760405162461bcd60e51b815260206004820152600a6024820152691c994b595b9d195c995960b21b604482015260640160405180910390613efd6166a5565b50505b600080600181613f0e616710565b8160ff02191690831515021790613f236167b1565b5050506000613f30611dbb565b90508015613f475761187581601081111561360457fe5b6118865a613f5361676b565b846000614a00565b6000808080613f68616710565b906101000a900460ff16613fb85760405162461bcd60e51b815260206004820152600a6024820152691c994b595b9d195c995960b21b604482015260640160405180910390613fb56166a5565b50505b600080600181613fc6616710565b8160ff02191690831515021790613fdb6167b1565b5050506000613fe8611dbb565b9050801561401357614006816010811115613fff57fe5b600f613352565b9250600091506140f19050565b836001600160a01b031663a6afed956040518163ffffffff1660e01b8152600401602060405180830381600087806140496167ff565b15801561405e5760008061405b6166a5565b50505b505a6140686168fb565b505050505050158015614088573d6000803e3d60006140856166a5565b50505b505050506040513d60208110156140a7576000806140a46166a5565b50505b8101908080519350600092506140bb915050565b81146140d7576140068160108111156140d057fe5b6010613352565b6140eb5a6140e361676b565b8787876159ed565b92509250505b6001600081816140ff616710565b8160ff021916908315150217906141146167b1565b505050935093915050565b60006001600361412d616710565b906101000a90046001600160a01b03166001600160a01b03165a61414f61676b565b6001600160a01b0316146141695761158e60016047613352565b6141716136eb565b600961417b616710565b1461418c5761158e600a6048613352565b670de0b6b3a76400008211156141a85761158e60026049613352565b600060086141b4616710565b9050828060086141c26167b1565b5050507faaa68312e2ea9d50e16af5068410ab56e1a1fd06037b1a35664812c30f821460818460405191825260208201526040908101905180910390a16000611723565b60008080806005614215616710565b906101000a90046001600160a01b03166001600160a01b03166324008a625a63996d79a5598160e01b8152602081600483336000905af158600e01573d6000803e3d6000fd5b3d6001141558600a015760016000f35b8051925060005b604081101561428957600082820152602001614272565b5050508888886040516001600160e01b031960e087901b1681526001600160a01b0394851660048201529284166024840152921660448201526064810191909152608401602060405180830381600087806142e26167ff565b1580156142f7576000806142f46166a5565b50505b505a6143016168fb565b505050505050158015614321573d6000803e3d600061431e6166a5565b50505b505050506040513d60208110156143405760008061433d6166a5565b50505b8101908080519350508215915061436d9050576143606003603883613a3c565b925060009150613b0f9050565b6143756136eb565b600961437f616710565b1461439057614360600a6039613352565b614398616aa2565b6001600160a01b03861660009081526010602052604090206001016143bb616710565b60608201526143c98661361f565b60808301819052602083018260038111156143e057fe5b60038111156143eb57fe5b905250600090508160200151600381111561440257fe5b1461442c5761441e600960378360200151600381111561202057fe5b935060009250613b0f915050565b600019851415614445578060800151604082015261444d565b604081018590525b61445b8782604001516161d4565b60e082015261447260808201518260e001516139b3565b60a083018190526020830182600381111561448957fe5b600381111561449457fe5b90525060009050816020015160038111156144ab57fe5b146144f05760405162461bcd60e51b815260040180806020018281038252603a815260200180616d0c603a9139604001915050604051809103906144ed6166a5565b50505b614507600b6144fd616710565b8260e001516139b3565b60c083018190526020830182600381111561451e57fe5b600381111561452957fe5b905250600090508160200151600381111561454057fe5b146145855760405162461bcd60e51b8152600401808060200182810382526031815260200180616d6660319139604001915050604051809103906145826166a5565b50505b8060a001516001600160a01b038716600090815260106020526040902081906145ac6167b1565b505050600a6145b9616710565b6001600160a01b038716600090815260106020526040902060010181906145de6167b1565b5050508060c0015180600b6145f16167b1565b5050507f1a2a22cb034d26d1854bdc6666a5b91fe25efbbb5dcad3b0355478d6f5c362a187878360e001518460a001518560c001516040516001600160a01b0395861681529390941660208401526040808401929092526060830152608082019290925260a001905180910390a160008160e00151935093505050935093915050565b6000806000806146848787613a95565b9092509050600082600381111561469757fe5b146146a85750915060009050613b0f565b613b0881866139b3565b60006146bc6169ab565b6000806146d186670de0b6b3a76400006150b0565b909250905060008260038111156146e457fe5b14614705578160405160208101604052600081529094509250613158915050565b60008061471283886150ef565b9092509050600082600381111561472557fe5b146147485781604051602081016040526000815290965094506131589350505050565b6000604051602081016040529182529890975095505050505050565b6000670de0b6b3a764000082518161477857fe5b0492915050565b60008060008061478d6136eb565b6009614797616710565b146147b3576147a8600a604f613352565b935091506136e69050565b6147c55a6147bf61676b565b866161d4565b905080600c6147d2616710565b019150600c6147df616710565b82101561483b5760405162461bcd60e51b815260206004820181905260248201527f61646420726573657276657320756e6578706563746564206f766572666c6f776044820152606401604051809103906148386166a5565b50505b8180600c6148476167b1565b5050507fa91e67c5ea634cd43a12c5a482724b03de01e85ca68702a53d0c2f45cb7c1dc55a61487461676b565b828460405180846001600160a01b03166001600160a01b03168152602001838152602001828152602001935050505060405180910390a160009350915050915091565b60008060116148c4616710565b906101000a90046001600160a01b03169050806001600160a01b031663a9059cbb84846040516001600160e01b031960e085901b1681526001600160a01b0390921660048301526024820152604401600060405180830381600087806149286167ff565b15801561493d5760008061493a6166a5565b50505b505a6149476168fb565b505050505050158015614967573d6000803e3d60006149646166a5565b50505b5050505060003d60008114614990576020811461499a576000806149896166a5565b50506149a6565b60001991506149a6565b60206000803e60005191505b50806149fa5760405162461bcd60e51b81526020600482015260196024820152781513d2d15397d514905394d1915497d3d55517d19052531151603a1b6044820152606401604051809103906113446166a5565b50505050565b6000821580614a0d575081155b614a515760405162461bcd60e51b8152600401808060200182810382526034815260200180616e276034913960400191505060405180910390614a4e6166a5565b50505b614a59616ae7565b614a61612ba5565b6040830181905260208301826003811115614a7857fe5b6003811115614a8357fe5b9052506000905081602001516003811115614a9a57fe5b14614abe57614ab66009602b8360200151600381111561202057fe5b915050611723565b8315614b405760608101849052614ae66040518060200160405280836040015190528561310b565b6080830181905260208301826003811115614afd57fe5b6003811115614b0857fe5b9052506000905081602001516003811115614b1f57fe5b14614b3b57614ab6600960298360200151600381111561202057fe5b614bb8565b614b5b83604051806020016040528084604001519052616635565b6060830181905260208301826003811115614b7257fe5b6003811115614b7d57fe5b9052506000905081602001516003811115614b9457fe5b14614bb057614ab66009602a8360200151600381111561202057fe5b608081018390525b6000806005614bc5616710565b906101000a90046001600160a01b03166001600160a01b031663eabe7d915a63996d79a5598160e01b8152602081600483336000905af158600e01573d6000803e3d6000fd5b3d6001141558600a015760016000f35b8051925060005b6040811015614c3957600082820152602001614c22565b5050508885606001516040516001600160e01b031960e086901b1681526001600160a01b039384166004820152919092166024820152604481019190915260640160206040518083038160008780614c8f6167ff565b158015614ca457600080614ca16166a5565b50505b505a614cae6168fb565b505050505050158015614cce573d6000803e3d6000614ccb6166a5565b50505b505050506040513d6020811015614ced57600080614cea6166a5565b50505b81019080805193505082159150614d16905057614d0d6003602883613a3c565b92505050611723565b614d1e6136eb565b6009614d28616710565b14614d3957614d0d600a602c613352565b614d50600d614d46616710565b83606001516139b3565b60a0840181905260208401826003811115614d6757fe5b6003811115614d7257fe5b9052506000905082602001516003811115614d8957fe5b14614da557614d0d6009602e8460200151600381111561202057fe5b6001600160a01b0386166000908152600e602052614dc99060409020614d46616710565b60c0840181905260208401826003811115614de057fe5b6003811115614deb57fe5b9052506000905082602001516003811115614e0257fe5b14614e1e57614d0d6009602d8460200151600381111561202057fe5b8160800151614e2b61315f565b1015614e3d57614d0d600e602f613352565b614e4b8683608001516148b7565b8160a0015180600d614e5b6167b1565b5050508160c001516001600160a01b0387166000908152600e602052604090208190614e856167b1565b5050505a63996d79a5598160e01b8152602081600483336000905af158600e01573d6000803e3d6000fd5b3d6001141558600a015760016000f35b8051925060005b6040811015614ede57600082820152602001614ec7565b5050506001600160a01b0316866001600160a01b0316600080516020616d46833981519152846060015160405190815260200160405180910390a37fe5b754fb1abb7f01b499791d0b820ae3b6af3424ac1c59768edb53f4ec31a929868360800151846060015160405180846001600160a01b03166001600160a01b03168152602001838152602001828152602001935050505060405180910390a160006005614f86616710565b906101000a90046001600160a01b03166001600160a01b03166351dff9895a63996d79a5598160e01b8152602081600483336000905af158600e01573d6000803e3d6000fd5b3d6001141558600a015760016000f35b8051925060005b6040811015614ffa57600082820152602001614fe3565b50505088856080015186606001516040516001600160e01b031960e087901b1681526001600160a01b039485166004820152929093166024830152604482015260648101919091526084016000604051808303816000878061505a6167ff565b15801561506f5760008061506c6166a5565b50505b505a6150796168fb565b505050505050158015615099573d6000803e3d60006150966166a5565b50505b50600092506150a6915050565b9695505050505050565b600080836150c357506000905080613158565b838302838582816150d057fe5b04146150e457506002915060009050613158565b600092509050613158565b600080826151035750600190506000613158565b600083858161510e57fe5b04915091509250929050565b60008080806005615129616710565b906101000a90046001600160a01b03166001600160a01b0316634ef4c3e15a63996d79a5598160e01b8152602081600483336000905af158600e01573d6000803e3d6000fd5b3d6001141558600a015760016000f35b8051925060005b604081101561519d57600082820152602001615186565b50505087876040516001600160e01b031960e086901b1681526001600160a01b0393841660048201529190921660248201526044810191909152606401602060405180830381600087806151ef6167ff565b158015615204576000806152016166a5565b50505b505a61520e6168fb565b50505050505015801561522e573d6000803e3d600061522b6166a5565b50505b505050506040513d602081101561524d5760008061524a6166a5565b50505b8101908080519350508215915061527a90505761526d6003601f83613a3c565b9250600091506131589050565b6152826136eb565b600961528c616710565b1461529d5761526d600a6022613352565b6152a5616ae7565b6152ad612ba5565b60408301819052602083018260038111156152c457fe5b60038111156152cf57fe5b90525060009050816020015160038111156152e657fe5b1461531057615302600960218360200151600381111561202057fe5b935060009250613158915050565b61531a86866161d4565b60c0820190815261533d9051604051806020016040528084604001519052616635565b606083018190526020830182600381111561535457fe5b600381111561535f57fe5b905250600090508160200151600381111561537657fe5b146153d05760405162461bcd60e51b815260206004820181905260248201527f4d494e545f45584348414e47455f43414c43554c4154494f4e5f4641494c45446044820152606401604051809103906153cd6166a5565b50505b6153e7600d6153dd616710565b8260600151613a95565b60808301819052602083018260038111156153fe57fe5b600381111561540957fe5b905250600090508160200151600381111561542057fe5b146154655760405162461bcd60e51b8152600401808060200182810382526028815260200180616dff60289139604001915050604051809103906154626166a5565b50505b6001600160a01b0386166000908152600e60205261548990604090206153dd616710565b60a08301819052602083018260038111156154a057fe5b60038111156154ab57fe5b90525060009050816020015160038111156154c257fe5b146155075760405162461bcd60e51b815260040180806020018281038252602b815260200180616c8a602b9139604001915050604051809103906155046166a5565b50505b806080015180600d6155176167b1565b5050508060a001516001600160a01b0387166000908152600e6020526040902081906155416167b1565b5050507f4c209b5fc8ad50758f13e2e1088ba56a560dff690a1c6fef26394f4c03821c4f868260c00151836060015160405180846001600160a01b03166001600160a01b03168152602001838152602001828152602001935050505060405180910390a1856001600160a01b03165a63996d79a5598160e01b8152602081600483336000905af158600e01573d6000803e3d6000fd5b3d6001141558600a015760016000f35b8051925060005b6040811015615605576000828201526020016155ee565b5050506001600160a01b0316600080516020616d46833981519152836060015160405190815260200160405180910390a360008160c001519350935050509250929050565b600080806005615658616710565b906101000a90046001600160a01b03166001600160a01b031663da3d454c5a63996d79a5598160e01b8152602081600483336000905af158600e01573d6000803e3d6000fd5b3d6001141558600a015760016000f35b8051925060005b60408110156156cc576000828201526020016156b5565b50505086866040516001600160e01b031960e086901b1681526001600160a01b03938416600482015291909216602482015260448101919091526064016020604051808303816000878061571e6167ff565b158015615733576000806157306166a5565b50505b505a61573d6168fb565b50505050505015801561575d573d6000803e3d600061575a6166a5565b50505b505050506040513d602081101561577c576000806157796166a5565b50505b810190808051935050821591506157a490505761579c6003600e83613a3c565b915050610ddb565b6157ac6136eb565b60096157b6616710565b146157c65761579c600a80613352565b826157cf61315f565b10156157e15761579c600e6009613352565b6157e9616b24565b6157f28561361f565b602083018190528282600381111561580657fe5b600381111561581157fe5b905250600090508151600381111561582557fe5b146158475761583e600960078351600381111561202057fe5b92505050610ddb565b615855816020015185613a95565b604083018190528282600381111561586957fe5b600381111561587457fe5b905250600090508151600381111561588857fe5b146158a15761583e6009600c8351600381111561202057fe5b6158b4600b6158ae616710565b85613a95565b60608301819052828260038111156158c857fe5b60038111156158d357fe5b90525060009050815160038111156158e757fe5b146159005761583e6009600b8351600381111561202057fe5b61590a85856148b7565b80604001516001600160a01b038616600090815260106020526040902081906159316167b1565b505050600a61593e616710565b6001600160a01b038616600090815260106020526040902060010181906159636167b1565b505050806060015180600b6159766167b1565b5050507f13ed6866d4e1ee6da46f845c46d7e54120883d75c5ea9a2dacc1c4ca8984ab8085858360400151846060015160405180856001600160a01b03166001600160a01b0316815260200184815260200183815260200182815260200194505050505060405180910390a1600095945050505050565b600080808060056159fc616710565b906101000a90046001600160a01b03166001600160a01b0316635fc7e71e5a63996d79a5598160e01b8152602081600483336000905af158600e01573d6000803e3d6000fd5b3d6001141558600a015760016000f35b8051925060005b6040811015615a7057600082820152602001615a59565b505050868a8a8a6040516001600160e01b031960e088901b1681526001600160a01b039586166004820152938516602485015291841660448401529092166064820152608481019190915260a40160206040518083038160008780615ad36167ff565b158015615ae857600080615ae56166a5565b50505b505a615af26168fb565b505050505050158015615b12573d6000803e3d6000615b0f6166a5565b50505b505050506040513d6020811015615b3157600080615b2e6166a5565b50505b81019080805193505082159150615b5e905057615b516003601283613a3c565b9250600091506161cb9050565b615b666136eb565b6009615b70616710565b14615b8157615b51600a6016613352565b615b896136eb565b846001600160a01b0316636c540baf6040518163ffffffff1660e01b81526004016020604051808303818680615bbd6167ff565b158015615bd257600080615bcf6166a5565b50505b505a615bdc61684b565b5050505050158015615bfb573d6000803e3d6000615bf86166a5565b50505b505050506040513d6020811015615c1a57600080615c176166a5565b50505b810190808051939093149250615c3991505057615b51600a6011613352565b866001600160a01b0316866001600160a01b03161415615c5f57615b5160066017613352565b84615c7057615b5160076015613352565b600019851415615c8657615b5160076014613352565b600080615c94898989614206565b90925090508115615cc457615cb5826010811115615cae57fe5b6018613352565b9450600093506161cb92505050565b600080806005615cd2616710565b906101000a90046001600160a01b03166001600160a01b031663c488847b5a63996d79a5598160e01b8152602081600483336000905af158600e01573d6000803e3d6000fd5b3d6001141558600a015760016000f35b8051925060005b6040811015615d4657600082820152602001615d2f565b5050508a866040516001600160e01b031960e086901b1681526001600160a01b039384166004820152919092166024820152604481019190915260640160408051808303818680615d956167ff565b158015615daa57600080615da76166a5565b50505b505a615db461684b565b5050505050158015615dd3573d6000803e3d6000615dd06166a5565b50505b505050506040513d6040811015615df257600080615def6166a5565b50505b810190808051929190602001805193955092935060009250615e12915050565b8214615e585760405162461bcd60e51b8152600401808060200182810382526033815260200180616d976033913960400191505060405180910390615e556166a5565b50505b80886001600160a01b03166370a082318c6040516001600160e01b031960e084901b1681526001600160a01b0390911660048201526024016020604051808303818680615ea36167ff565b158015615eb857600080615eb56166a5565b50505b505a615ec261684b565b5050505050158015615ee1573d6000803e3d6000615ede6166a5565b50505b505050506040513d6020811015615f0057600080615efd6166a5565b50505b81019080805193909310159250615f649150505760405162461bcd60e51b815260206004820152601860248201527709892a2aa928882a88abea68a92b48abea89e9ebe9aaa86960431b604482015260640160405180910390615f616166a5565b50505b60005a63996d79a5598160e01b8152602081600483336000905af158600e01573d6000803e3d6000fd5b3d6001141558600a015760016000f35b8051925060005b6040811015615fbc57600082820152602001615fa5565b5050506001600160a01b0316896001600160a01b031614156160435761603c5a63996d79a5598160e01b8152602081600483336000905af158600e01573d6000803e3d6000fd5b3d6001141558600a015760016000f35b8051925060005b60408110156160315760008282015260200161601a565b5050508d8d85613b17565b905061610c565b886001600160a01b031663b2a02ff18d8d856040516001600160e01b031960e086901b1681526001600160a01b0393841660048201529190921660248201526044810191909152606401602060405180830381600087806160a26167ff565b1580156160b7576000806160b46166a5565b50505b505a6160c16168fb565b5050505050501580156160e1573d6000803e3d60006160de6166a5565b50505b505050506040513d6020811015616100576000806160fd6166a5565b50505b81019080805193505050505b801561615e5760405162461bcd60e51b81526020600482015260146024820152731d1bdad95b881cd95a5e9d5c994819985a5b195960621b60448201526064016040518091039061615b6166a5565b50505b7f298637f684da70674f26509b10f07ec2fbc77a335ab1e7d6215a4b2484d8bb528c8c868c866040516001600160a01b039586168152938516602085015260408085019390935293166060830152608082019290925260a001905180910390a16000975092955050505050505b94509492505050565b6000808060116161e2616710565b906101000a90046001600160a01b0316905060006011600090616203616710565b906101000a90046001600160a01b03166001600160a01b03166370a082315a63996d79a5598160e01b8152602081600483336000905af158600e01573d6000803e3d6000fd5b3d6001141558600a015760016000f35b8051925060005b604081101561627757600082820152602001616260565b5050506040516001600160e01b031960e084901b1681526001600160a01b03909116600482015260240160206040518083038186806162b46167ff565b1580156162c9576000806162c66166a5565b50505b505a6162d361684b565b50505050501580156162f2573d6000803e3d60006162ef6166a5565b50505b505050506040513d60208110156163115760008061630e6166a5565b50505b810190808051935050506001600160a01b03831690506323b872dd865a63996d79a5598160e01b8152602081600483336000905af158600e01573d6000803e3d6000fd5b3d6001141558600a015760016000f35b8051925060005b60408110156163835760008282015260200161636c565b505050876040516001600160e01b031960e086901b1681526001600160a01b0393841660048201529190921660248201526044810191909152606401600060405180830381600087806163d46167ff565b1580156163e9576000806163e66166a5565b50505b505a6163f36168fb565b505050505050158015616413573d6000803e3d60006164106166a5565b50505b5050505060003d6000811461643c5760208114616446576000806164356166a5565b5050616452565b6000199150616452565b60206000803e60005191505b50806164a85760405162461bcd60e51b81526020600482015260186024820152771513d2d15397d514905394d1915497d25397d1905253115160421b6044820152606401604051809103906164a56166a5565b50505b60008060116164b5616710565b906101000a90046001600160a01b03166001600160a01b03166370a082315a63996d79a5598160e01b8152602081600483336000905af158600e01573d6000803e3d6000fd5b3d6001141558600a015760016000f35b8051925060005b604081101561652957600082820152602001616512565b5050506040516001600160e01b031960e084901b1681526001600160a01b03909116600482015260240160206040518083038186806165666167ff565b15801561657b576000806165786166a5565b50505b505a61658561684b565b50505050501580156165a4573d6000803e3d60006165a16166a5565b50505b505050506040513d60208110156165c3576000806165c06166a5565b50505b8101908080519350505050828110156166285760405162461bcd60e51b815260206004820152601a602482015279544f4b454e5f5452414e534645525f494e5f4f564552464c4f5760301b6044820152606401604051809103906166256166a5565b50505b9190910395945050505050565b60008060006166426169ab565b613122868660006166516169ab565b600080616666670de0b6b3a7640000876150b0565b9092509050600082600381111561667957fe5b1461669a578160405160208101604052600081529094509250613158915050565b6131518186516146b2565b632a2a7adb598160e01b8152600481016020815285602082015260005b868110156166dd5780860151828201604001526020016166c2565b506020828760640184336000905af158600e01573d6000803e3d6000fd5b3d6001141558600a015760016000f35b505050565b6303daa959598160e01b8152836004820152602081602483336000905af158600e01573d6000803e3d6000fd5b3d6001141558600a015760016000f35b8051935060005b60408110156117ad57600082820152602001616754565b6373509064598160e01b8152602081600483336000905af158600e01573d6000803e3d6000fd5b3d6001141558600a015760016000f35b80516000825293506020616754565b6322bd64c0598160e01b8152836004820152846024820152600081604483336000905af158600e01573d6000803e3d6000fd5b3d6001141558600a015760016000f35b600081526020616754565b638435035b598160e01b8152836004820152602081602483336000905af158600e01573d6000803e3d6000fd5b3d6001141558600a015760016000f35b80516000825293506020616754565b638540661f598160e01b8152836004820152846024820152606060448201528660648201526084810160005b8881101561688f578088015182820152602001616877565b506060828960a40184336000905af158600e01573d6000803e3d6000fd5b3d6001141558600a015760016000f35b815160408301513d6000853e8b8b82606087013350600060045af15059845b818110156168f057600081526020016168dc565b50919b505050505050565b6385979f76598160e01b8152836004820152846024820152606060448201528760648201526084810160005b8981101561693f578089015182820152602001616927565b506060828a60a40184336000905af158600e01573d6000803e3d6000fd5b3d6001141558600a015760016000f35b815160408301513d6000853e8c8c82606087013350600060045af15059845b818110156169a0576000815260200161698c565b50919c505050505050565b604051602081016040526000815290565b82806169c6616710565b600181600116156101000203166002900490600052602060002090601f016020900481019282601f10616a0d57805160ff19168380011785616a066167b1565b5050616a4c565b82800160010185616a1c6167b1565b50508215616a4c579182015b82811115616a4c57825182616a3b6167b1565b505091602001919060010190616a28565b50616a58929150616b4c565b5090565b635a98c361598160e01b8152602081600483336000905af158600e01573d6000803e3d6000fd5b3d6001141558600a015760016000f35b80516000825293506020616754565b60405161010081016040528060008152602001600081526020016000815260200160008152602001600081526020016000815260200160008152602001600081525090565b60405160e0810160405280600081526020016000815260200160008152602001600081526020016000815260200160008152602001600081525090565b6040516080810160405280600081526020016000815260200160008152602001600081525090565b61101291905b80821115616a585760008082616b666167b1565b505050600101616b5256fe6f6e6c792061646d696e206d617920696e697469616c697a6520746865206d61726b65746d61726b6574206d6179206f6e6c7920626520696e697469616c697a6564206f6e636545b96fe442630264581b197e84bbada861235052c5a1aadfff9ea4e40a969aa04345726332303a3a7377656570546f6b656e3a2063616e206e6f7420737765657020756e6465726c79696e6720746f6b656e696e697469616c2065786368616e67652072617465206d7573742062652067726561746572207468616e207a65726f2e73657474696e6720696e7465726573742072617465206d6f64656c206661696c65646f6e6c79207468652061646d696e206d61792063616c6c205f72657369676e496d706c656d656e746174696f6e4d494e545f4e45575f4143434f554e545f42414c414e43455f43414c43554c4154494f4e5f4641494c4544626f72726f7742616c616e636553746f7265643a20626f72726f7742616c616e636553746f726564496e7465726e616c206661696c6564ca4f2f25d0898edd99413412fb94012f9e54ec8142f9b093e7720646a95b16a952455041595f424f52524f575f4e45575f4143434f554e545f424f52524f575f42414c414e43455f43414c43554c4154494f4e5f4641494c4544ddf252ad1be2c89b69c2b068fc378daa952ba7f163c4a11628f55a4df523b3ef52455041595f424f52524f575f4e45575f544f54414c5f42414c414e43455f43414c43554c4154494f4e5f4641494c45444c49515549444154455f434f4d5054524f4c4c45525f43414c43554c4154455f414d4f554e545f5345495a455f4641494c454465786368616e67655261746553746f7265643a2065786368616e67655261746553746f726564496e7465726e616c206661696c65644d494e545f4e45575f544f54414c5f535550504c595f43414c43554c4154494f4e5f4641494c45446f6e65206f662072656465656d546f6b656e73496e206f722072656465656d416d6f756e74496e206d757374206265207a65726f72656475636520726573657276657320756e657870656374656420756e646572666c6f776f6e6c79207468652061646d696e206d61792063616c6c205f6265636f6d65496d706c656d656e746174696f6e",
  "deployedBytecode": "0x6080604052348015610019576000806100166166a5565b50505b50600436106102655760003560e01c806306fdde0314610273578063095ea7b3146102f25780630e7527021461033b578063153ab50514610373578063173b99041461037d57806317bfdfbc1461038557806318160ddd146103b4578063182df0f5146103bc5780631a31d465146103c45780631be195601461055757806323b872dd146105865780632608f818146105c557806326782247146105fa578063313ce5671461061e5780633af9e6691461063c5780633b1d21a21461066b5780633e941010146106735780634576b5db1461069957806347bd3718146106c857806356e67728146106d05780635c60da1b146107975780635fe3b5671461079f578063601a0bf1146107a75780636c540baf146107cd5780636f307dc3146107d557806370a08231146107dd57806373acee981461080c578063852a12e3146108145780638f840ddd1461083a57806395d89b411461084257806395dd91931461084a57806399d8c1b414610879578063a0712d6814610a04578063a6afed9514610a2a578063a9059cbb14610a32578063aa5af0fd14610a67578063ae9d70b014610a6f578063b2a02ff114610a77578063b71d1a0c14610ab6578063bd6d894d14610ae5578063c37f68e214610aed578063c5ebeaec14610b47578063db006a7514610b6d578063dd62ed3e14610b93578063e9c714f214610bca578063f2b3abbd14610bd2578063f3fdb15a14610c01578063f5e3c46214610c09578063f851a44014610c48578063f8f9da2814610c50578063fca7820b14610c58578063fe9c44ae14610c7e575b6000806102706166a5565b50505b61027b610c86565b60405160208082528190810183818151815260200191508051906020019080838360005b838110156102b757808201518382015260200161029f565b50505050905090810190601f1680156102e45780820380516001836020036101000a031916815260200191505b509250505060405180910390f35b610327600480360360408110156103115760008061030e6166a5565b50505b506001600160a01b038135169060200135610d3f565b604051901515815260200160405180910390f35b6103616004803603602081101561035a576000806103576166a5565b50505b5035610de1565b60405190815260200160405180910390f35b61037b610df7565b005b610361610e75565b610361600480360360208110156103a4576000806103a16166a5565b50505b50356001600160a01b0316610e82565b610361610f9f565b610361610fa9565b61037b600480360360e08110156103e3576000806103e06166a5565b50505b6001600160a01b03823581169260208101358216926040820135909216916060820135919081019060a081016080820135600160201b81111561042e5760008061042b6166a5565b50505b820183602082011115610449576000806104466166a5565b50505b803590602001918460018302840111600160201b83111715610473576000806104706166a5565b50505b91908080601f01602080910402602001604051908101604052818152929190602084018383808284376000920191909152509295949360208101935035915050600160201b8111156104cd576000806104ca6166a5565b50505b8201836020820111156104e8576000806104e56166a5565b50505b803590602001918460018302840111600160201b831117156105125760008061050f6166a5565b50505b91908080601f01602080910402602001604051908101604052818152929190602084018383808284376000920191909152509295505050903560ff1691506110159050565b61037b60048036036020811015610576576000806105736166a5565b50505b50356001600160a01b0316611116565b610327600480360360608110156105a5576000806105a26166a5565b50505b506001600160a01b0381358116916020810135909116906040013561134c565b610361600480360360408110156105e4576000806105e16166a5565b50505b506001600160a01b03813516906020013561141b565b610602611431565b6040516001600160a01b03909116815260200160405180910390f35b610626611450565b60405160ff909116815260200160405180910390f35b6103616004803603602081101561065b576000806106586166a5565b50505b50356001600160a01b0316611469565b61036161152a565b610361600480360360208110156106925760008061068f6166a5565b50505b5035611539565b610361600480360360208110156106b8576000806106b56166a5565b50505b50356001600160a01b0316611544565b61036161172a565b61037b600480360360208110156106ef576000806106ec6166a5565b50505b810190602081018135600160201b8111156107125760008061070f6166a5565b50505b82018360208201111561072d5760008061072a6166a5565b50505b803590602001918460018302840111600160201b83111715610757576000806107546166a5565b50505b91908080601f0160208091040260200160405190810160405281815292919060208401838380828437600092019190915250929550611734945050505050565b6106026117b3565b6106026117bf565b610361600480360360208110156107c6576000806107c36166a5565b50505b50356117cb565b610361611897565b6106026118a1565b610361600480360360208110156107fc576000806107f96166a5565b50505b50356001600160a01b03166118ad565b6103616118cd565b61036160048036036020811015610833576000806108306166a5565b50505b50356119e8565b6103616119f3565b61027b6119fd565b61036160048036036020811015610869576000806108666166a5565b50505b50356001600160a01b0316611a9f565b61037b600480360360c0811015610898576000806108956166a5565b50505b6001600160a01b03823581169260208101359091169160408201359190810190608081016060820135600160201b8111156108db576000806108d86166a5565b50505b8201836020820111156108f6576000806108f36166a5565b50505b803590602001918460018302840111600160201b831117156109205760008061091d6166a5565b50505b91908080601f01602080910402602001604051908101604052818152929190602084018383808284376000920191909152509295949360208101935035915050600160201b81111561097a576000806109776166a5565b50505b820183602082011115610995576000806109926166a5565b50505b803590602001918460018302840111600160201b831117156109bf576000806109bc6166a5565b50505b91908080601f01602080910402602001604051908101604052818152929190602084018383808284376000920191909152509295505050903560ff169150611b0b9050565b61036160048036036020811015610a2357600080610a206166a5565b50505b5035611daf565b610361611dbb565b61032760048036036040811015610a5157600080610a4e6166a5565b50505b506001600160a01b0381351690602001356121c9565b61036161229f565b6103616122a9565b61036160048036036060811015610a9657600080610a936166a5565b50505b506001600160a01b038135811691602081013590911690604001356123a9565b61036160048036036020811015610ad557600080610ad26166a5565b50505b50356001600160a01b031661244f565b61036161252a565b610b1c60048036036020811015610b0c57600080610b096166a5565b50505b50356001600160a01b0316612618565b6040518085815260200184815260200183815260200182815260200194505050505060405180910390f35b61036160048036036020811015610b6657600080610b636166a5565b50505b50356126b6565b61036160048036036020811015610b8c57600080610b896166a5565b50505b50356126c1565b61036160048036036040811015610bb257600080610baf6166a5565b50505b506001600160a01b03813581169160200135166126cc565b610361612705565b61036160048036036020811015610bf157600080610bee6166a5565b50505b50356001600160a01b03166128f9565b610602612933565b61036160048036036060811015610c2857600080610c256166a5565b50505b506001600160a01b0381358116916020810135916040909101351661293f565b610602612957565b610361612963565b61036160048036036020811015610c7757600080610c746166a5565b50505b50356129e9565b610327612a9c565b600180610c91616710565b600181600116156101000203166002900480601f016020809104026020016040519081016040528181529190602083018280610ccb616710565b60018160011615610100020316600290048015610d375780601f10610d05576101008083610cf7616710565b040283529160200191610d37565b820191906000526020600020905b81610d1c616710565b81529060010190602001808311610d1357829003601f168201915b505050505081565b6000805a610d4b61676b565b6001600160a01b0381166000908152600f6020529091508390604090206001600160a01b0386166000908152602091909152604090208190610d8b6167b1565b505050836001600160a01b0316816001600160a01b03167f8c5be1e5ebec7d5bd14f71427d1e84f3dd0314c0f7b2291e5b200ac8c7c3b9258560405190815260200160405180910390a360019150505b92915050565b600080610ded83612aa1565b509150505b919050565b60016003610e03616710565b906101000a90046001600160a01b03166001600160a01b03165a610e2561676b565b6001600160a01b031614610e735760405162461bcd60e51b815260040180806020018281038252602d815260200180616c5d602d913960400191505060405180910390610e706166a5565b50505b565b6008610e7f616710565b81565b60008080610e8e616710565b906101000a900460ff16610ede5760405162461bcd60e51b815260206004820152600a6024820152691c994b595b9d195c995960b21b604482015260640160405180910390610edb6166a5565b50505b600080600181610eec616710565b8160ff02191690831515021790610f016167b1565b5060009150610f0d9050565b610f15611dbb565b14610f685760405162461bcd60e51b81526020600482015260166024820152751858d8dc9d59481a5b9d195c995cdd0819985a5b195960521b604482015260640160405180910390610f656166a5565b50505b610f7182611a9f565b90505b600160008181610f82616710565b8160ff02191690831515021790610f976167b1565b505050919050565b600d610e7f616710565b6000806000610fb6612ba5565b90925090506000826003811115610fc957fe5b1461100e5760405162461bcd60e51b8152600401808060200182810382526035815260200180616dca603591396040019150506040518091039061100b6166a5565b50505b9150505b90565b611023868686868686611b0b565b866011600181611031616710565b816001600160a01b0302191690836001600160a01b03160217906110536167b1565b5050506011600090611063616710565b906101000a90046001600160a01b03166001600160a01b03166318160ddd6040518163ffffffff1660e01b815260040160206040518083038186806110a66167ff565b1580156110bb576000806110b86166a5565b50505b505a6110c561684b565b50505050501580156110e4573d6000803e3d60006110e16166a5565b50505b505050506040513d6020811015611103576000806111006166a5565b50505b8101908080515050505050505050505050565b60006011611122616710565b906101000a90046001600160a01b03166001600160a01b0316816001600160a01b0316141561118b5760405162461bcd60e51b8152600401808060200182810382526032815260200180616bd960329139604001915050604051809103906111886166a5565b50505b6000816001600160a01b03166370a082315a63996d79a5598160e01b8152602081600483336000905af158601d01573d60011458600c01573d6000803e3d621234565260ea61109c528051925060005b60408110156111f2576000828201526020016111db565b5050506040516001600160e01b031960e084901b1681526001600160a01b039091166004820152602401602060405180830381868061122f6167ff565b158015611244576000806112416166a5565b50505b505a61124e61684b565b505050505015801561126d573d6000803e3d600061126a6166a5565b50505b505050506040513d602081101561128c576000806112896166a5565b50505b810190808051935050506001600160a01b038316905063a9059cbb600160036112b3616710565b906101000a90046001600160a01b0316836040516001600160e01b031960e085901b1681526001600160a01b0390921660048301526024820152604401600060405180830381600087806113056167ff565b15801561131a576000806113176166a5565b50505b505a6113246168fb565b505050505050158015611344573d6000803e3d60006113416166a5565b50505b505050505050565b60008080611358616710565b906101000a900460ff166113a85760405162461bcd60e51b815260206004820152600a6024820152691c994b595b9d195c995960b21b6044820152606401604051809103906113a56166a5565b50505b6000806001816113b6616710565b8160ff021916908315150217906113cb6167b1565b50600091506113d79050565b6113eb5a6113e361676b565b868686612c70565b1490506001600081816113fc616710565b8160ff021916908315150217906114116167b1565b5050509392505050565b600080611428848461300d565b50949350505050565b6000600461143d616710565b906101000a90046001600160a01b031681565b6000600361145c616710565b906101000a900460ff1681565b60006114736169ab565b604051806020016040528061148661252a565b90526001600160a01b0384166000908152600e602052909150806114b583604083206114b0616710565b61310b565b909250905060008260038111156114c857fe5b146115225760405162461bcd60e51b815260206004820152601f60248201527f62616c616e636520636f756c64206e6f742062652063616c63756c617465640060448201526064016040518091039061151f6166a5565b50505b949350505050565b600061153461315f565b905090565b6000610ddb8261328d565b600060016003611552616710565b906101000a90046001600160a01b03166001600160a01b03165a61157461676b565b6001600160a01b0316146115955761158e6001603f613352565b9050610df2565b60008060056115a2616710565b906101000a90046001600160a01b03169050826001600160a01b0316627e3dd26040518163ffffffff1660e01b815260040160206040518083038186806115e76167ff565b1580156115fc576000806115f96166a5565b50505b505a61160661684b565b5050505050158015611625573d6000803e3d60006116226166a5565b50505b505050506040513d6020811015611644576000806116416166a5565b50505b81019080805192506116a79150505760405162461bcd60e51b815260206004820152601c60248201527b6d61726b6572206d6574686f642072657475726e65642066616c736560201b6044820152606401604051809103906116a46166a5565b50505b8260056001816116b5616710565b816001600160a01b0302191690836001600160a01b03160217906116d76167b1565b5050507f7ac369dbd14fa5ea3f473ed67cc9d598964a77501540ba6751eb0b3decf5870d81846040516001600160a01b039283168152911660208201526040908101905180910390a160005b9392505050565b600b610e7f616710565b60016003611740616710565b906101000a90046001600160a01b03166001600160a01b03165a61176261676b565b6001600160a01b0316146117b05760405162461bcd60e51b815260040180806020018281038252602d815260200180616e7f602d9139604001915050604051809103906117ad6166a5565b50505b50565b6000601261143d616710565b6000600561143d616710565b600080806117d7616710565b906101000a900460ff166118275760405162461bcd60e51b815260206004820152600a6024820152691c994b595b9d195c995960b21b6044820152606401604051809103906118246166a5565b50505b600080600181611835616710565b8160ff0219169083151502179061184a6167b1565b5050506000611857611dbb565b9050801561187d5761187581601081111561186e57fe5b6030613352565b915050610f74565b611886836133ac565b915050600160008181610f82616710565b6009610e7f616710565b6000601161143d616710565b6001600160a01b0381166000908152600e60205260408120610ddb616710565b600080806118d9616710565b906101000a900460ff166119295760405162461bcd60e51b815260206004820152600a6024820152691c994b595b9d195c995960b21b6044820152606401604051809103906119266166a5565b50505b600080600181611937616710565b8160ff0219169083151502179061194c6167b1565b50600091506119589050565b611960611dbb565b146119b35760405162461bcd60e51b81526020600482015260166024820152751858d8dc9d59481a5b9d195c995cdd0819985a5b195960521b6044820152606401604051809103906119b06166a5565b50505b600b6119bd616710565b90506001600081816119cd616710565b8160ff021916908315150217906119e26167b1565b50505090565b6000610ddb82613561565b600c610e7f616710565b600280611a08616710565b600181600116156101000203166002900480601f016020809104026020016040519081016040528181529190602083018280611a42616710565b60018160011615610100020316600290048015610d375780601f10611a6e576101008083610cf7616710565b820191906000526020600020905b81611a85616710565b81529060010190602001808311611a7c5750859350505050565b6000806000611aad8461361f565b90925090506000826003811115611ac057fe5b146117235760405162461bcd60e51b8152600401808060200182810382526037815260200180616cb56037913960400191505060405180910390611b026166a5565b50509392505050565b60016003611b17616710565b906101000a90046001600160a01b03166001600160a01b03165a611b3961676b565b6001600160a01b031614611b875760405162461bcd60e51b8152600401808060200182810382526024815260200180616b726024913960400191505060405180910390611b846166a5565b50505b6009611b91616710565b158015611ba55750600a611ba3616710565b155b611be95760405162461bcd60e51b8152600401808060200182810382526023815260200180616b966023913960400191505060405180910390611be66166a5565b50505b83806007611bf56167b1565b50505060006007611c04616710565b11611c495760405162461bcd60e51b8152600401808060200182810382526030815260200180616c0b6030913960400191505060405180910390611c466166a5565b50505b6000611c5487611544565b90508015611cae5760405162461bcd60e51b815260206004820152601a6024820152791cd95d1d1a5b99c818dbdb5c1d1c9bdb1b195c8819985a5b195960321b604482015260640160405180910390611cab6166a5565b50505b611cb66136eb565b806009611cc16167b1565b505050670de0b6b3a7640000600a8190611cd96167b1565b505050611ce5866136f6565b90508015611d2d5760405162461bcd60e51b8152600401808060200182810382526022815260200180616c3b6022913960400191505060405180910390611d2a6166a5565b50505b6001848051611d409291602001906169bc565b506002838051611d549291602001906169bc565b50816003600181611d63616710565b8160ff021916908360ff16021790611d796167b1565b50505060016000806101000a81611d8e616710565b8160ff02191690831515021790611da36167b1565b50505050505050505050565b600080610ded836138f6565b600080611dc66136eb565b905060006009611dd4616710565b905081811415611de957600092505050611012565b6000611df361315f565b90506000600b611e01616710565b90506000600c611e0f616710565b90506000600a611e1d616710565b90506000806006611e2c616710565b906101000a90046001600160a01b03166001600160a01b03166315f240538686866040516001600160e01b031960e086901b1681526004810193909352602483019190915260448201526064016020604051808303818680611e8c6167ff565b158015611ea157600080611e9e6166a5565b50505b505a611eab61684b565b5050505050158015611eca573d6000803e3d6000611ec76166a5565b50505b505050506040513d6020811015611ee957600080611ee66166a5565b50505b8101908080519350505065048c273950008211159050611f575760405162461bcd60e51b815260206004820152601c60248201527b0c4dee4e4deee40e4c2e8ca40d2e640c2c4e6eae4c8d8f240d0d2ced60231b604482015260640160405180910390611f546166a5565b50505b600080611f6489896139b3565b90925090506000826003811115611f7757fe5b14611fd15760405162461bcd60e51b815260206004820152601f60248201527f636f756c64206e6f742063616c63756c61746520626c6f636b2064656c746100604482015260640160405180910390611fce6166a5565b50505b611fd96169ab565b600080600080611ff560405160208101604052898152876139d6565b9097509450600087600381111561200857fe5b1461203a576120256009600689600381111561202057fe5b613a3c565b9e505050505050505050505050505050611012565b612044858c61310b565b9097509350600087600381111561205757fe5b1461206f576120256009600189600381111561202057fe5b612079848c613a95565b9097509250600087600381111561208c57fe5b146120a4576120256009600489600381111561202057fe5b6120c5604051806020016040528060086120bc616710565b9052858c613abb565b909750915060008760038111156120d857fe5b146120f0576120256009600589600381111561202057fe5b6120fb858a8b613abb565b9097509050600087600381111561210e57fe5b14612126576120256009600389600381111561202057fe5b8d8060096121326167b1565b50505080600a81906121426167b1565b50505082600b81906121526167b1565b50505081600c81906121626167b1565b5050507f4dec04e750ca11537cabcd8a9eab06494de08da3735bc8871cd41250e190bc048c8583866040518085815260200184815260200183815260200182815260200194505050505060405180910390a160009e50505050505050505050505050505090565b600080806121d5616710565b906101000a900460ff166122255760405162461bcd60e51b815260206004820152600a6024820152691c994b595b9d195c995960b21b6044820152606401604051809103906122226166a5565b50505b600080600181612233616710565b8160ff021916908315150217906122486167b1565b50600091506122549050565b6122705a61226061676b565b5a61226961676b565b8686612c70565b149050600160008181612281616710565b8160ff021916908315150217906122966167b1565b50505092915050565b600a610e7f616710565b60008060066122b6616710565b906101000a90046001600160a01b03166001600160a01b031663b81688166122dc61315f565b600b6122e6616710565b600c6122f0616710565b60086122fa616710565b6040516001600160e01b031960e087901b1681526004810194909452602484019290925260448301526064820152608401602060405180830381868061233e6167ff565b158015612353576000806123506166a5565b50505b505a61235d61684b565b505050505015801561237c573d6000803e3d60006123796166a5565b50505b505050506040513d602081101561239b576000806123986166a5565b50505b810190808051935050505090565b600080806123b5616710565b906101000a900460ff166124055760405162461bcd60e51b815260206004820152600a6024820152691c994b595b9d195c995960b21b6044820152606401604051809103906124026166a5565b50505b600080600181612413616710565b8160ff021916908315150217906124286167b1565b50505061243f5a61243761676b565b858585613b17565b90506001600081816113fc616710565b60006001600361245d616710565b906101000a90046001600160a01b03166001600160a01b03165a61247f61676b565b6001600160a01b0316146124995761158e60016045613352565b60008060046124a6616710565b906101000a90046001600160a01b0316905082600460006101000a816124ca616710565b816001600160a01b0302191690836001600160a01b03160217906124ec6167b1565b505050600080516020616cec83398151915281846040516001600160a01b039283168152911660208201526040908101905180910390a16000611723565b60008080612536616710565b906101000a900460ff166125865760405162461bcd60e51b815260206004820152600a6024820152691c994b595b9d195c995960b21b6044820152606401604051809103906125836166a5565b50505b600080600181612594616710565b8160ff021916908315150217906125a96167b1565b50600091506125b59050565b6125bd611dbb565b146126105760405162461bcd60e51b81526020600482015260166024820152751858d8dc9d59481a5b9d195c995cdd0819985a5b195960521b60448201526064016040518091039061260d6166a5565b50505b6119bd610fa9565b6001600160a01b0381166000908152600e602052808080806040812061263c616710565b9050600080600061264c8961361f565b93509050600081600381111561265e57fe5b1461267c5760095b9750600096508695508594506126af9350505050565b612684612ba5565b92509050600081600381111561269657fe5b146126a2576009612666565b5060009650919450925090505b9193509193565b6000610ddb82613de8565b6000610ddb82613ea4565b6001600160a01b0382166000908152600f602052604081206001600160a01b038316600090815260209190915260409020611723616710565b6000806004612712616710565b906101000a90046001600160a01b03166001600160a01b03165a61273461676b565b6001600160a01b031614158061275b575060005a61275061676b565b6001600160a01b0316145b156127735761276c60016000613352565b9050611012565b600060016003612781616710565b906101000a90046001600160a01b03169050600060046000906127a2616710565b906101000a90046001600160a01b0316905060046000906127c1616710565b906101000a90046001600160a01b0316600360016101000a816127e2616710565b816001600160a01b0302191690836001600160a01b03160217906128046167b1565b5050506000600460006101000a8161281a616710565b816001600160a01b0302191690836001600160a01b031602179061283c6167b1565b5050507ff9ffabca9c8276e99321725bcb43fb076a6c66a54b7f21c4e8146d8519b417dc82600360019061286e616710565b906101000a90046001600160a01b03166040516001600160a01b039283168152911660208201526040908101905180910390a1600080516020616cec83398151915281600060046128bd616710565b906101000a90046001600160a01b03166040516001600160a01b039283168152911660208201526040908101905180910390a160009250505090565b600080612904611dbb565b9050801561292a5761292281601081111561291b57fe5b6040613352565b915050610df2565b611723836136f6565b6000600661143d616710565b60008061294d858585613f5b565b5095945050505050565b6001600361143d616710565b6000806006612970616710565b906101000a90046001600160a01b03166001600160a01b03166315f2405361299661315f565b600b6129a0616710565b600c6129aa616710565b6040516001600160e01b031960e086901b168152600481019390935260248301919091526044820152606401602060405180830381868061233e6167ff565b600080806129f5616710565b906101000a900460ff16612a455760405162461bcd60e51b815260206004820152600a6024820152691c994b595b9d195c995960b21b604482015260640160405180910390612a426166a5565b50505b600080600181612a53616710565b8160ff02191690831515021790612a686167b1565b5050506000612a75611dbb565b90508015612a9357611875816010811115612a8c57fe5b6046613352565b6118868361411f565b600181565b6000808080612aae616710565b906101000a900460ff16612afe5760405162461bcd60e51b815260206004820152600a6024820152691c994b595b9d195c995960b21b604482015260640160405180910390612afb6166a5565b50505b600080600181612b0c616710565b8160ff02191690831515021790612b216167b1565b5050506000612b2e611dbb565b90508015612b5957612b4c816010811115612b4557fe5b6036613352565b925060009150612b7a9050565b612b745a612b6561676b565b5a612b6e61676b565b86614206565b92509250505b600160008181612b88616710565b8160ff02191690831515021790612b9d6167b1565b505050915091565b6000806000600d612bb4616710565b905080612bd15760006007612bc7616710565b9250925050612c6c565b6000612bdb61315f565b90506000612be76169ab565b6000612c0684600b612bf7616710565b600c612c01616710565b614674565b935090506000816003811115612c1857fe5b14612c2d57955060009450612c6c9350505050565b612c3783866146b2565b925090506000816003811115612c4957fe5b14612c5e57955060009450612c6c9350505050565b600082519650965050505050505b9091565b600080806005612c7e616710565b906101000a90046001600160a01b03166001600160a01b031663bdcdc2585a63996d79a5598160e01b8152602081600483336000905af158601d01573d60011458600c01573d6000803e3d621234565260ea61109c528051925060005b6040811015612cf257600082820152602001612cdb565b5050508787876040516001600160e01b031960e087901b1681526001600160a01b039485166004820152928416602484015292166044820152606481019190915260840160206040518083038160008780612d4b6167ff565b158015612d6057600080612d5d6166a5565b50505b505a612d6a6168fb565b505050505050158015612d8a573d6000803e3d6000612d876166a5565b50505b505050506040513d6020811015612da957600080612da66166a5565b50505b81019080805193505082159150612dd1905057612dc96003604a83613a3c565b915050611522565b836001600160a01b0316856001600160a01b03161415612df757612dc96002604b613352565b60006001600160a01b038781169087161415612e165750600019612e52565b6001600160a01b0386166000908152600f602052604090206001600160a01b038816600090815260209190915260409020612e4f616710565b90505b600080600080612e6285896139b3565b90945092506000846003811115612e7557fe5b14612e9357612e866009604b613352565b9650505050505050611522565b6001600160a01b038a166000908152600e602052612ebd9060409020612eb7616710565b896139b3565b90945091506000846003811115612ed057fe5b14612ee157612e866009604c613352565b6001600160a01b0389166000908152600e602052612f0b9060409020612f05616710565b89613a95565b90945090506000846003811115612f1e57fe5b14612f2f57612e866009604d613352565b6001600160a01b038a166000908152600e6020528290604090208190612f536167b1565b5050506001600160a01b0389166000908152600e6020528190604090208190612f7a6167b1565b5050506000198514612fc7576001600160a01b038a166000908152600f6020528390604090206001600160a01b038d166000908152602091909152604090208190612fc36167b1565b5050505b886001600160a01b03168a6001600160a01b0316600080516020616d468339815191528a60405190815260200160405180910390a35060009a9950505050505050505050565b600080808061301a616710565b906101000a900460ff1661306a5760405162461bcd60e51b815260206004820152600a6024820152691c994b595b9d195c995960b21b6044820152606401604051809103906130676166a5565b50505b600080600181613078616710565b8160ff0219169083151502179061308d6167b1565b505050600061309a611dbb565b905080156130c5576130b88160108111156130b157fe5b6035613352565b9250600091506130de9050565b6130d85a6130d161676b565b8686614206565b92509250505b6001600081816130ec616710565b8160ff021916908315150217906131016167b1565b5050509250929050565b60008060006131186169ab565b61312286866139d6565b9092509050600082600381111561313557fe5b146131465750915060009050613158565b600061315182614764565b9350935050505b9250929050565b60008080601161316d616710565b906101000a90046001600160a01b03169050806001600160a01b03166370a082315a63996d79a5598160e01b8152602081600483336000905af158601d01573d60011458600c01573d6000803e3d621234565260ea61109c528051925060005b60408110156131e4576000828201526020016131cd565b5050506040516001600160e01b031960e084901b1681526001600160a01b03909116600482015260240160206040518083038186806132216167ff565b158015613236576000806132336166a5565b50505b505a61324061684b565b505050505015801561325f573d6000803e3d600061325c6166a5565b50505b505050506040513d602081101561327e5760008061327b6166a5565b50505b81019080805194505050505090565b60008080613299616710565b906101000a900460ff166132e95760405162461bcd60e51b815260206004820152600a6024820152691c994b595b9d195c995960b21b6044820152606401604051809103906132e66166a5565b50505b6000806001816132f7616710565b8160ff0219169083151502179061330c6167b1565b5050506000613319611dbb565b905080156133375761187581601081111561333057fe5b604e613352565b6133408361477f565b50915050600160008181610f82616710565b6000600080516020616bb983398151915283601081111561336f57fe5b83605081111561337b57fe5b600060405180848152602001838152602001828152602001935050505060405180910390a182601081111561172357fe5b600080600160036133bb616710565b906101000a90046001600160a01b03166001600160a01b03165a6133dd61676b565b6001600160a01b0316146133f75761292260016031613352565b6133ff6136eb565b6009613409616710565b1461341a57612922600a6033613352565b8261342361315f565b101561343557612922600e6032613352565b600c61343f616710565b8311156134525761292260026034613352565b82600c61345d616710565b039050600c61346a616710565b8111156134b15760405162461bcd60e51b8152600401808060200182810382526024815260200180616e5b60249139604001915050604051809103906134ae6166a5565b50505b8080600c6134bd6167b1565b5050506134e660036001906134d0616710565b906101000a90046001600160a01b0316846148b7565b7f3bad0c59cf2f06e7314077049f48a93578cd16f5ef92329f1dab1420a99c177e60016003613513616710565b906101000a90046001600160a01b0316848360405180846001600160a01b03166001600160a01b03168152602001838152602001828152602001935050505060405180910390a16000611723565b6000808061356d616710565b906101000a900460ff166135bd5760405162461bcd60e51b815260206004820152600a6024820152691c994b595b9d195c995960b21b6044820152606401604051809103906135ba6166a5565b50505b6000806001816135cb616710565b8160ff021916908315150217906135e06167b1565b50505060006135ed611dbb565b9050801561360b5761187581601081111561360457fe5b6027613352565b6118865a61361761676b565b600085614a00565b6001600160a01b03811660009081526010602052808080808060408120905080613647616710565b61365c5750600094508493506136e692505050565b61367781613668616710565b600a613672616710565b6150b0565b9094509250600084600381111561368a57fe5b1461369f5750919350600092506136e6915050565b6136b483826001016136af616710565b6150ef565b909450915060008460038111156136c757fe5b146136dc5750919350600092506136e6915050565b5060009450925050505b915091565b60005a611534616a5c565b60008060016003613705616710565b906101000a90046001600160a01b03166001600160a01b03165a61372761676b565b6001600160a01b0316146137415761292260016042613352565b6137496136eb565b6009613753616710565b1461376457612922600a6041613352565b60006006613770616710565b906101000a90046001600160a01b03169050826001600160a01b0316632191f92a6040518163ffffffff1660e01b815260040160206040518083038186806137b66167ff565b1580156137cb576000806137c86166a5565b50505b505a6137d561684b565b50505050501580156137f4573d6000803e3d60006137f16166a5565b50505b505050506040513d6020811015613813576000806138106166a5565b50505b81019080805192506138769150505760405162461bcd60e51b815260206004820152601c60248201527b6d61726b6572206d6574686f642072657475726e65642066616c736560201b6044820152606401604051809103906138736166a5565b50505b826006600181613884616710565b816001600160a01b0302191690836001600160a01b03160217906138a66167b1565b5050507fedffc32e068c7c95dfd4bdfd5c4d939a084d6b11c4199eac8436ed234d72f92681846040516001600160a01b039283168152911660208201526040908101905180910390a16000611723565b6000808080613903616710565b906101000a900460ff166139535760405162461bcd60e51b815260206004820152600a6024820152691c994b595b9d195c995960b21b6044820152606401604051809103906139506166a5565b50505b600080600181613961616710565b8160ff021916908315150217906139766167b1565b5050506000613983611dbb565b905080156139a157612b4c81601081111561399a57fe5b601e613352565b612b745a6139ad61676b565b8561511a565b6000808383116139ca575060009050818303613158565b50600390506000613158565b60006139e06169ab565b6000806139ee8651866150b0565b90925090506000826003811115613a0157fe5b14613a22578160405160208101604052600081529094509250613158915050565b600060405160208101604052918252969095509350505050565b6000600080516020616bb9833981519152846010811115613a5957fe5b846050811115613a6557fe5b8460405180848152602001838152602001828152602001935050505060405180910390a183601081111561152257fe5b600080838301848110613aad57600092509050613158565b506002915060009050613158565b6000806000613ac86169ab565b613ad287876139d6565b90925090506000826003811115613ae557fe5b14613af65750915060009050613b0f565b613b08613b0282614764565b86613a95565b9350935050505b935093915050565b600080806005613b25616710565b906101000a90046001600160a01b03166001600160a01b031663d02f73515a63996d79a5598160e01b8152602081600483336000905af158601d01573d60011458600c01573d6000803e3d621234565260ea61109c528051925060005b6040811015613b9957600082820152602001613b82565b505050888888886040516001600160e01b031960e088901b1681526001600160a01b039586166004820152938516602485015291841660448401529092166064820152608481019190915260a40160206040518083038160008780613bfc6167ff565b158015613c1157600080613c0e6166a5565b50505b505a613c1b6168fb565b505050505050158015613c3b573d6000803e3d6000613c386166a5565b50505b505050506040513d6020811015613c5a57600080613c576166a5565b50505b81019080805193505082159150613c7a905057612dc96003601b83613a3c565b846001600160a01b0316846001600160a01b03161415613ca057612dc96006601c613352565b6001600160a01b0384166000908152600e6020528080613ccb60408220613cc5616710565b876139b3565b90935091506000836003811115613cde57fe5b14613d0157613cf66009601a85600381111561202057fe5b945050505050611522565b6001600160a01b0388166000908152600e602052613d2b9060409020613d25616710565b87613a95565b90935090506000836003811115613d3e57fe5b14613d5657613cf66009601985600381111561202057fe5b6001600160a01b0387166000908152600e6020528290604090208190613d7a6167b1565b5050506001600160a01b0388166000908152600e6020528190604090208190613da16167b1565b505050876001600160a01b0316876001600160a01b0316600080516020616d468339815191528860405190815260200160405180910390a360009998505050505050505050565b60008080613df4616710565b906101000a900460ff16613e445760405162461bcd60e51b815260206004820152600a6024820152691c994b595b9d195c995960b21b604482015260640160405180910390613e416166a5565b50505b600080600181613e52616710565b8160ff02191690831515021790613e676167b1565b5050506000613e74611dbb565b90508015613e9257611875816010811115613e8b57fe5b6008613352565b6118865a613e9e61676b565b8461564a565b60008080613eb0616710565b906101000a900460ff16613f005760405162461bcd60e51b815260206004820152600a6024820152691c994b595b9d195c995960b21b604482015260640160405180910390613efd6166a5565b50505b600080600181613f0e616710565b8160ff02191690831515021790613f236167b1565b5050506000613f30611dbb565b90508015613f475761187581601081111561360457fe5b6118865a613f5361676b565b846000614a00565b6000808080613f68616710565b906101000a900460ff16613fb85760405162461bcd60e51b815260206004820152600a6024820152691c994b595b9d195c995960b21b604482015260640160405180910390613fb56166a5565b50505b600080600181613fc6616710565b8160ff02191690831515021790613fdb6167b1565b5050506000613fe8611dbb565b9050801561401357614006816010811115613fff57fe5b600f613352565b9250600091506140f19050565b836001600160a01b031663a6afed956040518163ffffffff1660e01b8152600401602060405180830381600087806140496167ff565b15801561405e5760008061405b6166a5565b50505b505a6140686168fb565b505050505050158015614088573d6000803e3d60006140856166a5565b50505b505050506040513d60208110156140a7576000806140a46166a5565b50505b8101908080519350600092506140bb915050565b81146140d7576140068160108111156140d057fe5b6010613352565b6140eb5a6140e361676b565b8787876159ed565b92509250505b6001600081816140ff616710565b8160ff021916908315150217906141146167b1565b505050935093915050565b60006001600361412d616710565b906101000a90046001600160a01b03166001600160a01b03165a61414f61676b565b6001600160a01b0316146141695761158e60016047613352565b6141716136eb565b600961417b616710565b1461418c5761158e600a6048613352565b670de0b6b3a76400008211156141a85761158e60026049613352565b600060086141b4616710565b9050828060086141c26167b1565b5050507faaa68312e2ea9d50e16af5068410ab56e1a1fd06037b1a35664812c30f821460818460405191825260208201526040908101905180910390a16000611723565b60008080806005614215616710565b906101000a90046001600160a01b03166001600160a01b03166324008a625a63996d79a5598160e01b8152602081600483336000905af158601d01573d60011458600c01573d6000803e3d621234565260ea61109c528051925060005b604081101561428957600082820152602001614272565b5050508888886040516001600160e01b031960e087901b1681526001600160a01b0394851660048201529284166024840152921660448201526064810191909152608401602060405180830381600087806142e26167ff565b1580156142f7576000806142f46166a5565b50505b505a6143016168fb565b505050505050158015614321573d6000803e3d600061431e6166a5565b50505b505050506040513d60208110156143405760008061433d6166a5565b50505b8101908080519350508215915061436d9050576143606003603883613a3c565b925060009150613b0f9050565b6143756136eb565b600961437f616710565b1461439057614360600a6039613352565b614398616aa2565b6001600160a01b03861660009081526010602052604090206001016143bb616710565b60608201526143c98661361f565b60808301819052602083018260038111156143e057fe5b60038111156143eb57fe5b905250600090508160200151600381111561440257fe5b1461442c5761441e600960378360200151600381111561202057fe5b935060009250613b0f915050565b600019851415614445578060800151604082015261444d565b604081018590525b61445b8782604001516161d4565b60e082015261447260808201518260e001516139b3565b60a083018190526020830182600381111561448957fe5b600381111561449457fe5b90525060009050816020015160038111156144ab57fe5b146144f05760405162461bcd60e51b815260040180806020018281038252603a815260200180616d0c603a9139604001915050604051809103906144ed6166a5565b50505b614507600b6144fd616710565b8260e001516139b3565b60c083018190526020830182600381111561451e57fe5b600381111561452957fe5b905250600090508160200151600381111561454057fe5b146145855760405162461bcd60e51b8152600401808060200182810382526031815260200180616d6660319139604001915050604051809103906145826166a5565b50505b8060a001516001600160a01b038716600090815260106020526040902081906145ac6167b1565b505050600a6145b9616710565b6001600160a01b038716600090815260106020526040902060010181906145de6167b1565b5050508060c0015180600b6145f16167b1565b5050507f1a2a22cb034d26d1854bdc6666a5b91fe25efbbb5dcad3b0355478d6f5c362a187878360e001518460a001518560c001516040516001600160a01b0395861681529390941660208401526040808401929092526060830152608082019290925260a001905180910390a160008160e00151935093505050935093915050565b6000806000806146848787613a95565b9092509050600082600381111561469757fe5b146146a85750915060009050613b0f565b613b0881866139b3565b60006146bc6169ab565b6000806146d186670de0b6b3a76400006150b0565b909250905060008260038111156146e457fe5b14614705578160405160208101604052600081529094509250613158915050565b60008061471283886150ef565b9092509050600082600381111561472557fe5b146147485781604051602081016040526000815290965094506131589350505050565b6000604051602081016040529182529890975095505050505050565b6000670de0b6b3a764000082518161477857fe5b0492915050565b60008060008061478d6136eb565b6009614797616710565b146147b3576147a8600a604f613352565b935091506136e69050565b6147c55a6147bf61676b565b866161d4565b905080600c6147d2616710565b019150600c6147df616710565b82101561483b5760405162461bcd60e51b815260206004820181905260248201527f61646420726573657276657320756e6578706563746564206f766572666c6f776044820152606401604051809103906148386166a5565b50505b8180600c6148476167b1565b5050507fa91e67c5ea634cd43a12c5a482724b03de01e85ca68702a53d0c2f45cb7c1dc55a61487461676b565b828460405180846001600160a01b03166001600160a01b03168152602001838152602001828152602001935050505060405180910390a160009350915050915091565b60008060116148c4616710565b906101000a90046001600160a01b03169050806001600160a01b031663a9059cbb84846040516001600160e01b031960e085901b1681526001600160a01b0390921660048301526024820152604401600060405180830381600087806149286167ff565b15801561493d5760008061493a6166a5565b50505b505a6149476168fb565b505050505050158015614967573d6000803e3d60006149646166a5565b50505b5050505060003d60008114614990576020811461499a576000806149896166a5565b50506149a6565b60001991506149a6565b60206000803e60005191505b50806149fa5760405162461bcd60e51b81526020600482015260196024820152781513d2d15397d514905394d1915497d3d55517d19052531151603a1b6044820152606401604051809103906113446166a5565b50505050565b6000821580614a0d575081155b614a515760405162461bcd60e51b8152600401808060200182810382526034815260200180616e276034913960400191505060405180910390614a4e6166a5565b50505b614a59616ae7565b614a61612ba5565b6040830181905260208301826003811115614a7857fe5b6003811115614a8357fe5b9052506000905081602001516003811115614a9a57fe5b14614abe57614ab66009602b8360200151600381111561202057fe5b915050611723565b8315614b405760608101849052614ae66040518060200160405280836040015190528561310b565b6080830181905260208301826003811115614afd57fe5b6003811115614b0857fe5b9052506000905081602001516003811115614b1f57fe5b14614b3b57614ab6600960298360200151600381111561202057fe5b614bb8565b614b5b83604051806020016040528084604001519052616635565b6060830181905260208301826003811115614b7257fe5b6003811115614b7d57fe5b9052506000905081602001516003811115614b9457fe5b14614bb057614ab66009602a8360200151600381111561202057fe5b608081018390525b6000806005614bc5616710565b906101000a90046001600160a01b03166001600160a01b031663eabe7d915a63996d79a5598160e01b8152602081600483336000905af158601d01573d60011458600c01573d6000803e3d621234565260ea61109c528051925060005b6040811015614c3957600082820152602001614c22565b5050508885606001516040516001600160e01b031960e086901b1681526001600160a01b039384166004820152919092166024820152604481019190915260640160206040518083038160008780614c8f6167ff565b158015614ca457600080614ca16166a5565b50505b505a614cae6168fb565b505050505050158015614cce573d6000803e3d6000614ccb6166a5565b50505b505050506040513d6020811015614ced57600080614cea6166a5565b50505b81019080805193505082159150614d16905057614d0d6003602883613a3c565b92505050611723565b614d1e6136eb565b6009614d28616710565b14614d3957614d0d600a602c613352565b614d50600d614d46616710565b83606001516139b3565b60a0840181905260208401826003811115614d6757fe5b6003811115614d7257fe5b9052506000905082602001516003811115614d8957fe5b14614da557614d0d6009602e8460200151600381111561202057fe5b6001600160a01b0386166000908152600e602052614dc99060409020614d46616710565b60c0840181905260208401826003811115614de057fe5b6003811115614deb57fe5b9052506000905082602001516003811115614e0257fe5b14614e1e57614d0d6009602d8460200151600381111561202057fe5b8160800151614e2b61315f565b1015614e3d57614d0d600e602f613352565b614e4b8683608001516148b7565b8160a0015180600d614e5b6167b1565b5050508160c001516001600160a01b0387166000908152600e602052604090208190614e856167b1565b5050505a63996d79a5598160e01b8152602081600483336000905af158601d01573d60011458600c01573d6000803e3d621234565260ea61109c528051925060005b6040811015614ede57600082820152602001614ec7565b5050506001600160a01b0316866001600160a01b0316600080516020616d46833981519152846060015160405190815260200160405180910390a37fe5b754fb1abb7f01b499791d0b820ae3b6af3424ac1c59768edb53f4ec31a929868360800151846060015160405180846001600160a01b03166001600160a01b03168152602001838152602001828152602001935050505060405180910390a160006005614f86616710565b906101000a90046001600160a01b03166001600160a01b03166351dff9895a63996d79a5598160e01b8152602081600483336000905af158601d01573d60011458600c01573d6000803e3d621234565260ea61109c528051925060005b6040811015614ffa57600082820152602001614fe3565b50505088856080015186606001516040516001600160e01b031960e087901b1681526001600160a01b039485166004820152929093166024830152604482015260648101919091526084016000604051808303816000878061505a6167ff565b15801561506f5760008061506c6166a5565b50505b505a6150796168fb565b505050505050158015615099573d6000803e3d60006150966166a5565b50505b50600092506150a6915050565b9695505050505050565b600080836150c357506000905080613158565b838302838582816150d057fe5b04146150e457506002915060009050613158565b600092509050613158565b600080826151035750600190506000613158565b600083858161510e57fe5b04915091509250929050565b60008080806005615129616710565b906101000a90046001600160a01b03166001600160a01b0316634ef4c3e15a63996d79a5598160e01b8152602081600483336000905af158601d01573d60011458600c01573d6000803e3d621234565260ea61109c528051925060005b604081101561519d57600082820152602001615186565b50505087876040516001600160e01b031960e086901b1681526001600160a01b0393841660048201529190921660248201526044810191909152606401602060405180830381600087806151ef6167ff565b158015615204576000806152016166a5565b50505b505a61520e6168fb565b50505050505015801561522e573d6000803e3d600061522b6166a5565b50505b505050506040513d602081101561524d5760008061524a6166a5565b50505b8101908080519350508215915061527a90505761526d6003601f83613a3c565b9250600091506131589050565b6152826136eb565b600961528c616710565b1461529d5761526d600a6022613352565b6152a5616ae7565b6152ad612ba5565b60408301819052602083018260038111156152c457fe5b60038111156152cf57fe5b90525060009050816020015160038111156152e657fe5b1461531057615302600960218360200151600381111561202057fe5b935060009250613158915050565b61531a86866161d4565b60c0820190815261533d9051604051806020016040528084604001519052616635565b606083018190526020830182600381111561535457fe5b600381111561535f57fe5b905250600090508160200151600381111561537657fe5b146153d05760405162461bcd60e51b815260206004820181905260248201527f4d494e545f45584348414e47455f43414c43554c4154494f4e5f4641494c45446044820152606401604051809103906153cd6166a5565b50505b6153e7600d6153dd616710565b8260600151613a95565b60808301819052602083018260038111156153fe57fe5b600381111561540957fe5b905250600090508160200151600381111561542057fe5b146154655760405162461bcd60e51b8152600401808060200182810382526028815260200180616dff60289139604001915050604051809103906154626166a5565b50505b6001600160a01b0386166000908152600e60205261548990604090206153dd616710565b60a08301819052602083018260038111156154a057fe5b60038111156154ab57fe5b90525060009050816020015160038111156154c257fe5b146155075760405162461bcd60e51b815260040180806020018281038252602b815260200180616c8a602b9139604001915050604051809103906155046166a5565b50505b806080015180600d6155176167b1565b5050508060a001516001600160a01b0387166000908152600e6020526040902081906155416167b1565b5050507f4c209b5fc8ad50758f13e2e1088ba56a560dff690a1c6fef26394f4c03821c4f868260c00151836060015160405180846001600160a01b03166001600160a01b03168152602001838152602001828152602001935050505060405180910390a1856001600160a01b03165a63996d79a5598160e01b8152602081600483336000905af158601d01573d60011458600c01573d6000803e3d621234565260ea61109c528051925060005b6040811015615605576000828201526020016155ee565b5050506001600160a01b0316600080516020616d46833981519152836060015160405190815260200160405180910390a360008160c001519350935050509250929050565b600080806005615658616710565b906101000a90046001600160a01b03166001600160a01b031663da3d454c5a63996d79a5598160e01b8152602081600483336000905af158601d01573d60011458600c01573d6000803e3d621234565260ea61109c528051925060005b60408110156156cc576000828201526020016156b5565b50505086866040516001600160e01b031960e086901b1681526001600160a01b03938416600482015291909216602482015260448101919091526064016020604051808303816000878061571e6167ff565b158015615733576000806157306166a5565b50505b505a61573d6168fb565b50505050505015801561575d573d6000803e3d600061575a6166a5565b50505b505050506040513d602081101561577c576000806157796166a5565b50505b810190808051935050821591506157a490505761579c6003600e83613a3c565b915050610ddb565b6157ac6136eb565b60096157b6616710565b146157c65761579c600a80613352565b826157cf61315f565b10156157e15761579c600e6009613352565b6157e9616b24565b6157f28561361f565b602083018190528282600381111561580657fe5b600381111561581157fe5b905250600090508151600381111561582557fe5b146158475761583e600960078351600381111561202057fe5b92505050610ddb565b615855816020015185613a95565b604083018190528282600381111561586957fe5b600381111561587457fe5b905250600090508151600381111561588857fe5b146158a15761583e6009600c8351600381111561202057fe5b6158b4600b6158ae616710565b85613a95565b60608301819052828260038111156158c857fe5b60038111156158d357fe5b90525060009050815160038111156158e757fe5b146159005761583e6009600b8351600381111561202057fe5b61590a85856148b7565b80604001516001600160a01b038616600090815260106020526040902081906159316167b1565b505050600a61593e616710565b6001600160a01b038616600090815260106020526040902060010181906159636167b1565b505050806060015180600b6159766167b1565b5050507f13ed6866d4e1ee6da46f845c46d7e54120883d75c5ea9a2dacc1c4ca8984ab8085858360400151846060015160405180856001600160a01b03166001600160a01b0316815260200184815260200183815260200182815260200194505050505060405180910390a1600095945050505050565b600080808060056159fc616710565b906101000a90046001600160a01b03166001600160a01b0316635fc7e71e5a63996d79a5598160e01b8152602081600483336000905af158601d01573d60011458600c01573d6000803e3d621234565260ea61109c528051925060005b6040811015615a7057600082820152602001615a59565b505050868a8a8a6040516001600160e01b031960e088901b1681526001600160a01b039586166004820152938516602485015291841660448401529092166064820152608481019190915260a40160206040518083038160008780615ad36167ff565b158015615ae857600080615ae56166a5565b50505b505a615af26168fb565b505050505050158015615b12573d6000803e3d6000615b0f6166a5565b50505b505050506040513d6020811015615b3157600080615b2e6166a5565b50505b81019080805193505082159150615b5e905057615b516003601283613a3c565b9250600091506161cb9050565b615b666136eb565b6009615b70616710565b14615b8157615b51600a6016613352565b615b896136eb565b846001600160a01b0316636c540baf6040518163ffffffff1660e01b81526004016020604051808303818680615bbd6167ff565b158015615bd257600080615bcf6166a5565b50505b505a615bdc61684b565b5050505050158015615bfb573d6000803e3d6000615bf86166a5565b50505b505050506040513d6020811015615c1a57600080615c176166a5565b50505b810190808051939093149250615c3991505057615b51600a6011613352565b866001600160a01b0316866001600160a01b03161415615c5f57615b5160066017613352565b84615c7057615b5160076015613352565b600019851415615c8657615b5160076014613352565b600080615c94898989614206565b90925090508115615cc457615cb5826010811115615cae57fe5b6018613352565b9450600093506161cb92505050565b600080806005615cd2616710565b906101000a90046001600160a01b03166001600160a01b031663c488847b5a63996d79a5598160e01b8152602081600483336000905af158601d01573d60011458600c01573d6000803e3d621234565260ea61109c528051925060005b6040811015615d4657600082820152602001615d2f565b5050508a866040516001600160e01b031960e086901b1681526001600160a01b039384166004820152919092166024820152604481019190915260640160408051808303818680615d956167ff565b158015615daa57600080615da76166a5565b50505b505a615db461684b565b5050505050158015615dd3573d6000803e3d6000615dd06166a5565b50505b505050506040513d6040811015615df257600080615def6166a5565b50505b810190808051929190602001805193955092935060009250615e12915050565b8214615e585760405162461bcd60e51b8152600401808060200182810382526033815260200180616d976033913960400191505060405180910390615e556166a5565b50505b80886001600160a01b03166370a082318c6040516001600160e01b031960e084901b1681526001600160a01b0390911660048201526024016020604051808303818680615ea36167ff565b158015615eb857600080615eb56166a5565b50505b505a615ec261684b565b5050505050158015615ee1573d6000803e3d6000615ede6166a5565b50505b505050506040513d6020811015615f0057600080615efd6166a5565b50505b81019080805193909310159250615f649150505760405162461bcd60e51b815260206004820152601860248201527709892a2aa928882a88abea68a92b48abea89e9ebe9aaa86960431b604482015260640160405180910390615f616166a5565b50505b60005a63996d79a5598160e01b8152602081600483336000905af158601d01573d60011458600c01573d6000803e3d621234565260ea61109c528051925060005b6040811015615fbc57600082820152602001615fa5565b5050506001600160a01b0316896001600160a01b031614156160435761603c5a63996d79a5598160e01b8152602081600483336000905af158601d01573d60011458600c01573d6000803e3d621234565260ea61109c528051925060005b60408110156160315760008282015260200161601a565b5050508d8d85613b17565b905061610c565b886001600160a01b031663b2a02ff18d8d856040516001600160e01b031960e086901b1681526001600160a01b0393841660048201529190921660248201526044810191909152606401602060405180830381600087806160a26167ff565b1580156160b7576000806160b46166a5565b50505b505a6160c16168fb565b5050505050501580156160e1573d6000803e3d60006160de6166a5565b50505b505050506040513d6020811015616100576000806160fd6166a5565b50505b81019080805193505050505b801561615e5760405162461bcd60e51b81526020600482015260146024820152731d1bdad95b881cd95a5e9d5c994819985a5b195960621b60448201526064016040518091039061615b6166a5565b50505b7f298637f684da70674f26509b10f07ec2fbc77a335ab1e7d6215a4b2484d8bb528c8c868c866040516001600160a01b039586168152938516602085015260408085019390935293166060830152608082019290925260a001905180910390a16000975092955050505050505b94509492505050565b6000808060116161e2616710565b906101000a90046001600160a01b0316905060006011600090616203616710565b906101000a90046001600160a01b03166001600160a01b03166370a082315a63996d79a5598160e01b8152602081600483336000905af158601d01573d60011458600c01573d6000803e3d621234565260ea61109c528051925060005b604081101561627757600082820152602001616260565b5050506040516001600160e01b031960e084901b1681526001600160a01b03909116600482015260240160206040518083038186806162b46167ff565b1580156162c9576000806162c66166a5565b50505b505a6162d361684b565b50505050501580156162f2573d6000803e3d60006162ef6166a5565b50505b505050506040513d60208110156163115760008061630e6166a5565b50505b810190808051935050506001600160a01b03831690506323b872dd865a63996d79a5598160e01b8152602081600483336000905af158601d01573d60011458600c01573d6000803e3d621234565260ea61109c528051925060005b60408110156163835760008282015260200161636c565b505050876040516001600160e01b031960e086901b1681526001600160a01b0393841660048201529190921660248201526044810191909152606401600060405180830381600087806163d46167ff565b1580156163e9576000806163e66166a5565b50505b505a6163f36168fb565b505050505050158015616413573d6000803e3d60006164106166a5565b50505b5050505060003d6000811461643c5760208114616446576000806164356166a5565b5050616452565b6000199150616452565b60206000803e60005191505b50806164a85760405162461bcd60e51b81526020600482015260186024820152771513d2d15397d514905394d1915497d25397d1905253115160421b6044820152606401604051809103906164a56166a5565b50505b60008060116164b5616710565b906101000a90046001600160a01b03166001600160a01b03166370a082315a63996d79a5598160e01b8152602081600483336000905af158601d01573d60011458600c01573d6000803e3d621234565260ea61109c528051925060005b604081101561652957600082820152602001616512565b5050506040516001600160e01b031960e084901b1681526001600160a01b03909116600482015260240160206040518083038186806165666167ff565b15801561657b576000806165786166a5565b50505b505a61658561684b565b50505050501580156165a4573d6000803e3d60006165a16166a5565b50505b505050506040513d60208110156165c3576000806165c06166a5565b50505b8101908080519350505050828110156166285760405162461bcd60e51b815260206004820152601a602482015279544f4b454e5f5452414e534645525f494e5f4f564552464c4f5760301b6044820152606401604051809103906166256166a5565b50505b9190910395945050505050565b60008060006166426169ab565b613122868660006166516169ab565b600080616666670de0b6b3a7640000876150b0565b9092509050600082600381111561667957fe5b1461669a578160405160208101604052600081529094509250613158915050565b6131518186516146b2565b632a2a7adb598160e01b8152600481016020815285602082015260005b868110156166dd5780860151828201604001526020016166c2565b506020828760640184336000905af158601d01573d60011458600c01573d6000803e3d621234565260ea61109c52505050565b6303daa959598160e01b8152836004820152602081602483336000905af158601d01573d60011458600c01573d6000803e3d621234565260ea61109c528051935060005b60408110156117ad57600082820152602001616754565b6373509064598160e01b8152602081600483336000905af158601d01573d60011458600c01573d6000803e3d621234565260ea61109c5280516000825293506020616754565b6322bd64c0598160e01b8152836004820152846024820152600081604483336000905af158601d01573d60011458600c01573d6000803e3d621234565260ea61109c52600081526020616754565b638435035b598160e01b8152836004820152602081602483336000905af158601d01573d60011458600c01573d6000803e3d621234565260ea61109c5280516000825293506020616754565b638540661f598160e01b8152836004820152846024820152606060448201528660648201526084810160005b8881101561688f578088015182820152602001616877565b506060828960a40184336000905af158601d01573d60011458600c01573d6000803e3d621234565260ea61109c52815160408301513d6000853e8b8b82606087013350600060045af15059845b818110156168f057600081526020016168dc565b50919b505050505050565b6385979f76598160e01b8152836004820152846024820152606060448201528760648201526084810160005b8981101561693f578089015182820152602001616927565b506060828a60a40184336000905af158601d01573d60011458600c01573d6000803e3d621234565260ea61109c52815160408301513d6000853e8c8c82606087013350600060045af15059845b818110156169a0576000815260200161698c565b50919c505050505050565b604051602081016040526000815290565b82806169c6616710565b600181600116156101000203166002900490600052602060002090601f016020900481019282601f10616a0d57805160ff19168380011785616a066167b1565b5050616a4c565b82800160010185616a1c6167b1565b50508215616a4c579182015b82811115616a4c57825182616a3b6167b1565b505091602001919060010190616a28565b50616a58929150616b4c565b5090565b635a98c361598160e01b8152602081600483336000905af158601d01573d60011458600c01573d6000803e3d621234565260ea61109c5280516000825293506020616754565b60405161010081016040528060008152602001600081526020016000815260200160008152602001600081526020016000815260200160008152602001600081525090565b60405160e0810160405280600081526020016000815260200160008152602001600081526020016000815260200160008152602001600081525090565b6040516080810160405280600081526020016000815260200160008152602001600081525090565b61101291905b80821115616a585760008082616b666167b1565b505050600101616b5256fe6f6e6c792061646d696e206d617920696e697469616c697a6520746865206d61726b65746d61726b6574206d6179206f6e6c7920626520696e697469616c697a6564206f6e636545b96fe442630264581b197e84bbada861235052c5a1aadfff9ea4e40a969aa04345726332303a3a7377656570546f6b656e3a2063616e206e6f7420737765657020756e6465726c79696e6720746f6b656e696e697469616c2065786368616e67652072617465206d7573742062652067726561746572207468616e207a65726f2e73657474696e6720696e7465726573742072617465206d6f64656c206661696c65646f6e6c79207468652061646d696e206d61792063616c6c205f72657369676e496d706c656d656e746174696f6e4d494e545f4e45575f4143434f554e545f42414c414e43455f43414c43554c4154494f4e5f4641494c4544626f72726f7742616c616e636553746f7265643a20626f72726f7742616c616e636553746f726564496e7465726e616c206661696c6564ca4f2f25d0898edd99413412fb94012f9e54ec8142f9b093e7720646a95b16a952455041595f424f52524f575f4e45575f4143434f554e545f424f52524f575f42414c414e43455f43414c43554c4154494f4e5f4641494c4544ddf252ad1be2c89b69c2b068fc378daa952ba7f163c4a11628f55a4df523b3ef52455041595f424f52524f575f4e45575f544f54414c5f42414c414e43455f43414c43554c4154494f4e5f4641494c45444c49515549444154455f434f4d5054524f4c4c45525f43414c43554c4154455f414d4f554e545f5345495a455f4641494c454465786368616e67655261746553746f7265643a2065786368616e67655261746553746f726564496e7465726e616c206661696c65644d494e545f4e45575f544f54414c5f535550504c595f43414c43554c4154494f4e5f4641494c45446f6e65206f662072656465656d546f6b656e73496e206f722072656465656d416d6f756e74496e206d757374206265207a65726f72656475636520726573657276657320756e657870656374656420756e646572666c6f776f6e6c79207468652061646d696e206d61792063616c6c205f6265636f6d65496d706c656d656e746174696f6e",
  "source": "pragma solidity ^0.5.16;\n\nimport \"./CErc20.sol\";\n\n/**\n * @title Compound's CErc20Delegate Contract\n * @notice CTokens which wrap an EIP-20 underlying and are delegated to\n * @author Compound\n */\ncontract CErc20Delegate is CErc20, CDelegateInterface {\n    /**\n     * @notice Construct an empty delegate\n     */\n    constructor() public {}\n\n    /**\n     * @notice Called by the delegator on a delegate to initialize it for duty\n     * @param data The encoded bytes data for any initialization\n     */\n    function _becomeImplementation(bytes memory data) public {\n        // Shh -- currently unused\n        data;\n\n        // Shh -- we don't ever want this hook to be marked pure\n        if (false) {\n            implementation = address(0);\n        }\n\n        require(msg.sender == admin, \"only the admin may call _becomeImplementation\");\n    }\n\n    /**\n     * @notice Called by the delegator on a delegate to forfeit its responsibility\n     */\n    function _resignImplementation() public {\n        // Shh -- we don't ever want this hook to be marked pure\n        if (false) {\n            implementation = address(0);\n        }\n\n        require(msg.sender == admin, \"only the admin may call _resignImplementation\");\n    }\n}\n",
  "sourcePath": "/Users/jesusmeza/Developer/omgx/snapshot-optimism/omgx_examples/compound-protocol/contracts/CErc20Delegate.sol",
  "compiler": {
    "name": "solc",
    "version": "0.5.16"
  },
  "schemaVersion": "3.4.3",
  "updatedAt": "2021-08-25T22:25:24.251Z",
  "devdoc": {
    "author": "Compound",
    "methods": {
      "_acceptAdmin()": {
        "details": "Admin function for pending admin to accept role and update admin",
        "return": "uint 0=success, otherwise a failure (see ErrorReporter.sol for details)"
      },
      "_addReserves(uint256)": {
        "params": {
          "addAmount": "The amount fo underlying token to add as reserves"
        },
        "return": "uint 0=success, otherwise a failure (see ErrorReporter.sol for details)"
      },
      "_becomeImplementation(bytes)": {
        "params": {
          "data": "The encoded bytes data for any initialization"
        }
      },
      "_reduceReserves(uint256)": {
        "params": {
          "reduceAmount": "Amount of reduction to reserves"
        },
        "return": "uint 0=success, otherwise a failure (see ErrorReporter.sol for details)"
      },
      "_setComptroller(address)": {
        "details": "Admin function to set a new comptroller",
        "return": "uint 0=success, otherwise a failure (see ErrorReporter.sol for details)"
      },
      "_setInterestRateModel(address)": {
        "details": "Admin function to accrue interest and update the interest rate model",
        "params": {
          "newInterestRateModel": "the new interest rate model to use"
        },
        "return": "uint 0=success, otherwise a failure (see ErrorReporter.sol for details)"
      },
      "_setPendingAdmin(address)": {
        "details": "Admin function to begin change of admin. The newPendingAdmin must call `_acceptAdmin` to finalize the transfer.",
        "params": {
          "newPendingAdmin": "New pending admin."
        },
        "return": "uint 0=success, otherwise a failure (see ErrorReporter.sol for details)"
      },
      "_setReserveFactor(uint256)": {
        "details": "Admin function to accrue interest and set a new reserve factor",
        "return": "uint 0=success, otherwise a failure (see ErrorReporter.sol for details)"
      },
      "accrueInterest()": {
        "details": "This calculates interest accrued from the last checkpointed block  up to the current block and writes new checkpoint to storage."
      },
      "allowance(address,address)": {
        "params": {
          "owner": "The address of the account which owns the tokens to be spent",
          "spender": "The address of the account which may transfer tokens"
        },
        "return": "The number of tokens allowed to be spent (-1 means infinite)"
      },
      "approve(address,uint256)": {
        "details": "This will overwrite the approval amount for `spender` and is subject to issues noted [here](https://eips.ethereum.org/EIPS/eip-20#approve)",
        "params": {
          "amount": "The number of tokens that are approved (-1 means infinite)",
          "spender": "The address of the account which may transfer tokens"
        },
        "return": "Whether or not the approval succeeded"
      },
      "balanceOf(address)": {
        "params": {
          "owner": "The address of the account to query"
        },
        "return": "The number of tokens owned by `owner`"
      },
      "balanceOfUnderlying(address)": {
        "details": "This also accrues interest in a transaction",
        "params": {
          "owner": "The address of the account to query"
        },
        "return": "The amount of underlying owned by `owner`"
      },
      "borrow(uint256)": {
        "params": {
          "borrowAmount": "The amount of the underlying asset to borrow"
        },
        "return": "uint 0=success, otherwise a failure (see ErrorReporter.sol for details)"
      },
      "borrowBalanceCurrent(address)": {
        "params": {
          "account": "The address whose balance should be calculated after updating borrowIndex"
        },
        "return": "The calculated balance"
      },
      "borrowBalanceStored(address)": {
        "params": {
          "account": "The address whose balance should be calculated"
        },
        "return": "The calculated balance"
      },
      "borrowRatePerBlock()": {
        "return": "The borrow interest rate per block, scaled by 1e18"
      },
      "exchangeRateCurrent()": {
        "return": "Calculated exchange rate scaled by 1e18"
      },
      "exchangeRateStored()": {
        "details": "This function does not accrue interest before calculating the exchange rate",
        "return": "Calculated exchange rate scaled by 1e18"
      },
      "getAccountSnapshot(address)": {
        "details": "This is used by comptroller to more efficiently perform liquidity checks.",
        "params": {
          "account": "Address of the account to snapshot"
        },
        "return": "(possible error, token balance, borrow balance, exchange rate mantissa)"
      },
      "getCash()": {
        "return": "The quantity of underlying asset owned by this contract"
      },
      "initialize(address,address,address,uint256,string,string,uint8)": {
        "params": {
          "comptroller_": "The address of the Comptroller",
          "decimals_": "ERC-20 decimal precision of this token",
          "initialExchangeRateMantissa_": "The initial exchange rate, scaled by 1e18",
          "interestRateModel_": "The address of the interest rate model",
          "name_": "ERC-20 name of this token",
          "symbol_": "ERC-20 symbol of this token",
          "underlying_": "The address of the underlying asset"
        }
      },
      "initialize(address,address,uint256,string,string,uint8)": {
        "params": {
          "comptroller_": "The address of the Comptroller",
          "decimals_": "EIP-20 decimal precision of this token",
          "initialExchangeRateMantissa_": "The initial exchange rate, scaled by 1e18",
          "interestRateModel_": "The address of the interest rate model",
          "name_": "EIP-20 name of this token",
          "symbol_": "EIP-20 symbol of this token"
        }
      },
      "liquidateBorrow(address,uint256,address)": {
        "params": {
          "borrower": "The borrower of this cToken to be liquidated",
          "cTokenCollateral": "The market in which to seize collateral from the borrower",
          "repayAmount": "The amount of the underlying borrowed asset to repay"
        },
        "return": "uint 0=success, otherwise a failure (see ErrorReporter.sol for details)"
      },
      "mint(uint256)": {
        "details": "Accrues interest whether or not the operation succeeds, unless reverted",
        "params": {
          "mintAmount": "The amount of the underlying asset to supply"
        },
        "return": "uint 0=success, otherwise a failure (see ErrorReporter.sol for details)"
      },
      "redeem(uint256)": {
        "details": "Accrues interest whether or not the operation succeeds, unless reverted",
        "params": {
          "redeemTokens": "The number of cTokens to redeem into underlying"
        },
        "return": "uint 0=success, otherwise a failure (see ErrorReporter.sol for details)"
      },
      "redeemUnderlying(uint256)": {
        "details": "Accrues interest whether or not the operation succeeds, unless reverted",
        "params": {
          "redeemAmount": "The amount of underlying to redeem"
        },
        "return": "uint 0=success, otherwise a failure (see ErrorReporter.sol for details)"
      },
      "repayBorrow(uint256)": {
        "params": {
          "repayAmount": "The amount to repay"
        },
        "return": "uint 0=success, otherwise a failure (see ErrorReporter.sol for details)"
      },
      "repayBorrowBehalf(address,uint256)": {
        "params": {
          "borrower": "the account with the debt being payed off",
          "repayAmount": "The amount to repay"
        },
        "return": "uint 0=success, otherwise a failure (see ErrorReporter.sol for details)"
      },
      "seize(address,address,uint256)": {
        "details": "Will fail unless called by another cToken during the process of liquidation. Its absolutely critical to use msg.sender as the borrowed cToken and not a parameter.",
        "params": {
          "borrower": "The account having collateral seized",
          "liquidator": "The account receiving seized collateral",
          "seizeTokens": "The number of cTokens to seize"
        },
        "return": "uint 0=success, otherwise a failure (see ErrorReporter.sol for details)"
      },
      "supplyRatePerBlock()": {
        "return": "The supply interest rate per block, scaled by 1e18"
      },
      "sweepToken(address)": {
        "params": {
          "token": "The address of the ERC-20 token to sweep"
        }
      },
      "totalBorrowsCurrent()": {
        "return": "The total borrows with interest"
      },
      "transfer(address,uint256)": {
        "params": {
          "amount": "The number of tokens to transfer",
          "dst": "The address of the destination account"
        },
        "return": "Whether or not the transfer succeeded"
      },
      "transferFrom(address,address,uint256)": {
        "params": {
          "amount": "The number of tokens to transfer",
          "dst": "The address of the destination account",
          "src": "The address of the source account"
        },
        "return": "Whether or not the transfer succeeded"
      }
    },
    "title": "Compound's CErc20Delegate Contract"
  },
  "userdoc": {
    "methods": {
      "_acceptAdmin()": {
        "notice": "Accepts transfer of admin rights. msg.sender must be pendingAdmin"
      },
      "_addReserves(uint256)": {
        "notice": "The sender adds to reserves."
      },
      "_becomeImplementation(bytes)": {
        "notice": "Called by the delegator on a delegate to initialize it for duty"
      },
      "_reduceReserves(uint256)": {
        "notice": "Accrues interest and reduces reserves by transferring to admin"
      },
      "_resignImplementation()": {
        "notice": "Called by the delegator on a delegate to forfeit its responsibility"
      },
      "_setComptroller(address)": {
        "notice": "Sets a new comptroller for the market"
      },
      "_setInterestRateModel(address)": {
        "notice": "accrues interest and updates the interest rate model using _setInterestRateModelFresh"
      },
      "_setPendingAdmin(address)": {
        "notice": "Begins transfer of admin rights. The newPendingAdmin must call `_acceptAdmin` to finalize the transfer."
      },
      "_setReserveFactor(uint256)": {
        "notice": "accrues interest and sets a new reserve factor for the protocol using _setReserveFactorFresh"
      },
      "accrueInterest()": {
        "notice": "Applies accrued interest to total borrows and reserves"
      },
      "allowance(address,address)": {
        "notice": "Get the current allowance from `owner` for `spender`"
      },
      "approve(address,uint256)": {
        "notice": "Approve `spender` to transfer up to `amount` from `src`"
      },
      "balanceOf(address)": {
        "notice": "Get the token balance of the `owner`"
      },
      "balanceOfUnderlying(address)": {
        "notice": "Get the underlying balance of the `owner`"
      },
      "borrow(uint256)": {
        "notice": "Sender borrows assets from the protocol to their own address"
      },
      "borrowBalanceCurrent(address)": {
        "notice": "Accrue interest to updated borrowIndex and then calculate account's borrow balance using the updated borrowIndex"
      },
      "borrowBalanceStored(address)": {
        "notice": "Return the borrow balance of account based on stored data"
      },
      "borrowRatePerBlock()": {
        "notice": "Returns the current per-block borrow interest rate for this cToken"
      },
      "constructor": "Construct an empty delegate",
      "exchangeRateCurrent()": {
        "notice": "Accrue interest then return the up-to-date exchange rate"
      },
      "exchangeRateStored()": {
        "notice": "Calculates the exchange rate from the underlying to the CToken"
      },
      "getAccountSnapshot(address)": {
        "notice": "Get a snapshot of the account's balances, and the cached exchange rate"
      },
      "getCash()": {
        "notice": "Get cash balance of this cToken in the underlying asset"
      },
      "initialize(address,address,address,uint256,string,string,uint8)": {
        "notice": "Initialize the new money market"
      },
      "initialize(address,address,uint256,string,string,uint8)": {
        "notice": "Initialize the money market"
      },
      "liquidateBorrow(address,uint256,address)": {
        "notice": "The sender liquidates the borrowers collateral. The collateral seized is transferred to the liquidator."
      },
      "mint(uint256)": {
        "notice": "Sender supplies assets into the market and receives cTokens in exchange"
      },
      "redeem(uint256)": {
        "notice": "Sender redeems cTokens in exchange for the underlying asset"
      },
      "redeemUnderlying(uint256)": {
        "notice": "Sender redeems cTokens in exchange for a specified amount of underlying asset"
      },
      "repayBorrow(uint256)": {
        "notice": "Sender repays their own borrow"
      },
      "repayBorrowBehalf(address,uint256)": {
        "notice": "Sender repays a borrow belonging to borrower"
      },
      "seize(address,address,uint256)": {
        "notice": "Transfers collateral tokens (this market) to the liquidator."
      },
      "supplyRatePerBlock()": {
        "notice": "Returns the current per-block supply interest rate for this cToken"
      },
      "sweepToken(address)": {
        "notice": "A public function to sweep accidental ERC-20 transfers to this contract. Tokens are sent to admin (timelock)"
      },
      "totalBorrowsCurrent()": {
        "notice": "Returns the current total borrows plus accrued interest"
      },
      "transfer(address,uint256)": {
        "notice": "Transfer `amount` tokens from `msg.sender` to `dst`"
      },
      "transferFrom(address,address,uint256)": {
        "notice": "Transfer `amount` tokens from `src` to `dst`"
      }
    },
    "notice": "CTokens which wrap an EIP-20 underlying and are delegated to"
  }
}