{
  "contractName": "CErc20Delegator",
  "abi": [
    {
      "inputs": [
        {
          "internalType": "address",
          "name": "underlying_",
          "type": "address"
        },
        {
          "internalType": "contract ComptrollerInterface",
          "name": "comptroller_",
          "type": "address"
        },
        {
          "internalType": "contract InterestRateModel",
          "name": "interestRateModel_",
          "type": "address"
        },
        {
          "internalType": "uint256",
          "name": "initialExchangeRateMantissa_",
          "type": "uint256"
        },
        {
          "internalType": "string",
          "name": "name_",
          "type": "string"
        },
        {
          "internalType": "string",
          "name": "symbol_",
          "type": "string"
        },
        {
          "internalType": "uint8",
          "name": "decimals_",
          "type": "uint8"
        },
        {
          "internalType": "address payable",
          "name": "admin_",
          "type": "address"
        },
        {
          "internalType": "address",
          "name": "implementation_",
          "type": "address"
        },
        {
          "internalType": "bytes",
          "name": "becomeImplementationData",
          "type": "bytes"
        }
      ],
      "payable": false,
      "stateMutability": "nonpayable",
      "type": "constructor"
    },
    {
      "anonymous": false,
      "inputs": [
        {
          "indexed": false,
          "internalType": "uint256",
          "name": "cashPrior",
          "type": "uint256"
        },
        {
          "indexed": false,
          "internalType": "uint256",
          "name": "interestAccumulated",
          "type": "uint256"
        },
        {
          "indexed": false,
          "internalType": "uint256",
          "name": "borrowIndex",
          "type": "uint256"
        },
        {
          "indexed": false,
          "internalType": "uint256",
          "name": "totalBorrows",
          "type": "uint256"
        }
      ],
      "name": "AccrueInterest",
      "type": "event"
    },
    {
      "anonymous": false,
      "inputs": [
        {
          "indexed": true,
          "internalType": "address",
          "name": "owner",
          "type": "address"
        },
        {
          "indexed": true,
          "internalType": "address",
          "name": "spender",
          "type": "address"
        },
        {
          "indexed": false,
          "internalType": "uint256",
          "name": "amount",
          "type": "uint256"
        }
      ],
      "name": "Approval",
      "type": "event"
    },
    {
      "anonymous": false,
      "inputs": [
        {
          "indexed": false,
          "internalType": "address",
          "name": "borrower",
          "type": "address"
        },
        {
          "indexed": false,
          "internalType": "uint256",
          "name": "borrowAmount",
          "type": "uint256"
        },
        {
          "indexed": false,
          "internalType": "uint256",
          "name": "accountBorrows",
          "type": "uint256"
        },
        {
          "indexed": false,
          "internalType": "uint256",
          "name": "totalBorrows",
          "type": "uint256"
        }
      ],
      "name": "Borrow",
      "type": "event"
    },
    {
      "anonymous": false,
      "inputs": [
        {
          "indexed": false,
          "internalType": "uint256",
          "name": "error",
          "type": "uint256"
        },
        {
          "indexed": false,
          "internalType": "uint256",
          "name": "info",
          "type": "uint256"
        },
        {
          "indexed": false,
          "internalType": "uint256",
          "name": "detail",
          "type": "uint256"
        }
      ],
      "name": "Failure",
      "type": "event"
    },
    {
      "anonymous": false,
      "inputs": [
        {
          "indexed": false,
          "internalType": "address",
          "name": "liquidator",
          "type": "address"
        },
        {
          "indexed": false,
          "internalType": "address",
          "name": "borrower",
          "type": "address"
        },
        {
          "indexed": false,
          "internalType": "uint256",
          "name": "repayAmount",
          "type": "uint256"
        },
        {
          "indexed": false,
          "internalType": "address",
          "name": "cTokenCollateral",
          "type": "address"
        },
        {
          "indexed": false,
          "internalType": "uint256",
          "name": "seizeTokens",
          "type": "uint256"
        }
      ],
      "name": "LiquidateBorrow",
      "type": "event"
    },
    {
      "anonymous": false,
      "inputs": [
        {
          "indexed": false,
          "internalType": "address",
          "name": "minter",
          "type": "address"
        },
        {
          "indexed": false,
          "internalType": "uint256",
          "name": "mintAmount",
          "type": "uint256"
        },
        {
          "indexed": false,
          "internalType": "uint256",
          "name": "mintTokens",
          "type": "uint256"
        }
      ],
      "name": "Mint",
      "type": "event"
    },
    {
      "anonymous": false,
      "inputs": [
        {
          "indexed": false,
          "internalType": "address",
          "name": "oldAdmin",
          "type": "address"
        },
        {
          "indexed": false,
          "internalType": "address",
          "name": "newAdmin",
          "type": "address"
        }
      ],
      "name": "NewAdmin",
      "type": "event"
    },
    {
      "anonymous": false,
      "inputs": [
        {
          "indexed": false,
          "internalType": "contract ComptrollerInterface",
          "name": "oldComptroller",
          "type": "address"
        },
        {
          "indexed": false,
          "internalType": "contract ComptrollerInterface",
          "name": "newComptroller",
          "type": "address"
        }
      ],
      "name": "NewComptroller",
      "type": "event"
    },
    {
      "anonymous": false,
      "inputs": [
        {
          "indexed": false,
          "internalType": "address",
          "name": "oldImplementation",
          "type": "address"
        },
        {
          "indexed": false,
          "internalType": "address",
          "name": "newImplementation",
          "type": "address"
        }
      ],
      "name": "NewImplementation",
      "type": "event"
    },
    {
      "anonymous": false,
      "inputs": [
        {
          "indexed": false,
          "internalType": "contract InterestRateModel",
          "name": "oldInterestRateModel",
          "type": "address"
        },
        {
          "indexed": false,
          "internalType": "contract InterestRateModel",
          "name": "newInterestRateModel",
          "type": "address"
        }
      ],
      "name": "NewMarketInterestRateModel",
      "type": "event"
    },
    {
      "anonymous": false,
      "inputs": [
        {
          "indexed": false,
          "internalType": "address",
          "name": "oldPendingAdmin",
          "type": "address"
        },
        {
          "indexed": false,
          "internalType": "address",
          "name": "newPendingAdmin",
          "type": "address"
        }
      ],
      "name": "NewPendingAdmin",
      "type": "event"
    },
    {
      "anonymous": false,
      "inputs": [
        {
          "indexed": false,
          "internalType": "uint256",
          "name": "oldReserveFactorMantissa",
          "type": "uint256"
        },
        {
          "indexed": false,
          "internalType": "uint256",
          "name": "newReserveFactorMantissa",
          "type": "uint256"
        }
      ],
      "name": "NewReserveFactor",
      "type": "event"
    },
    {
      "anonymous": false,
      "inputs": [
        {
          "indexed": false,
          "internalType": "address",
          "name": "redeemer",
          "type": "address"
        },
        {
          "indexed": false,
          "internalType": "uint256",
          "name": "redeemAmount",
          "type": "uint256"
        },
        {
          "indexed": false,
          "internalType": "uint256",
          "name": "redeemTokens",
          "type": "uint256"
        }
      ],
      "name": "Redeem",
      "type": "event"
    },
    {
      "anonymous": false,
      "inputs": [
        {
          "indexed": false,
          "internalType": "address",
          "name": "payer",
          "type": "address"
        },
        {
          "indexed": false,
          "internalType": "address",
          "name": "borrower",
          "type": "address"
        },
        {
          "indexed": false,
          "internalType": "uint256",
          "name": "repayAmount",
          "type": "uint256"
        },
        {
          "indexed": false,
          "internalType": "uint256",
          "name": "accountBorrows",
          "type": "uint256"
        },
        {
          "indexed": false,
          "internalType": "uint256",
          "name": "totalBorrows",
          "type": "uint256"
        }
      ],
      "name": "RepayBorrow",
      "type": "event"
    },
    {
      "anonymous": false,
      "inputs": [
        {
          "indexed": false,
          "internalType": "address",
          "name": "benefactor",
          "type": "address"
        },
        {
          "indexed": false,
          "internalType": "uint256",
          "name": "addAmount",
          "type": "uint256"
        },
        {
          "indexed": false,
          "internalType": "uint256",
          "name": "newTotalReserves",
          "type": "uint256"
        }
      ],
      "name": "ReservesAdded",
      "type": "event"
    },
    {
      "anonymous": false,
      "inputs": [
        {
          "indexed": false,
          "internalType": "address",
          "name": "admin",
          "type": "address"
        },
        {
          "indexed": false,
          "internalType": "uint256",
          "name": "reduceAmount",
          "type": "uint256"
        },
        {
          "indexed": false,
          "internalType": "uint256",
          "name": "newTotalReserves",
          "type": "uint256"
        }
      ],
      "name": "ReservesReduced",
      "type": "event"
    },
    {
      "anonymous": false,
      "inputs": [
        {
          "indexed": true,
          "internalType": "address",
          "name": "from",
          "type": "address"
        },
        {
          "indexed": true,
          "internalType": "address",
          "name": "to",
          "type": "address"
        },
        {
          "indexed": false,
          "internalType": "uint256",
          "name": "amount",
          "type": "uint256"
        }
      ],
      "name": "Transfer",
      "type": "event"
    },
    {
      "payable": true,
      "stateMutability": "payable",
      "type": "fallback"
    },
    {
      "constant": true,
      "inputs": [],
      "name": "accrualBlockNumber",
      "outputs": [
        {
          "internalType": "uint256",
          "name": "",
          "type": "uint256"
        }
      ],
      "payable": false,
      "stateMutability": "view",
      "type": "function"
    },
    {
      "constant": true,
      "inputs": [],
      "name": "admin",
      "outputs": [
        {
          "internalType": "address payable",
          "name": "",
          "type": "address"
        }
      ],
      "payable": false,
      "stateMutability": "view",
      "type": "function"
    },
    {
      "constant": true,
      "inputs": [],
      "name": "borrowIndex",
      "outputs": [
        {
          "internalType": "uint256",
          "name": "",
          "type": "uint256"
        }
      ],
      "payable": false,
      "stateMutability": "view",
      "type": "function"
    },
    {
      "constant": true,
      "inputs": [],
      "name": "comptroller",
      "outputs": [
        {
          "internalType": "contract ComptrollerInterface",
          "name": "",
          "type": "address"
        }
      ],
      "payable": false,
      "stateMutability": "view",
      "type": "function"
    },
    {
      "constant": true,
      "inputs": [],
      "name": "decimals",
      "outputs": [
        {
          "internalType": "uint8",
          "name": "",
          "type": "uint8"
        }
      ],
      "payable": false,
      "stateMutability": "view",
      "type": "function"
    },
    {
      "constant": true,
      "inputs": [],
      "name": "implementation",
      "outputs": [
        {
          "internalType": "address",
          "name": "",
          "type": "address"
        }
      ],
      "payable": false,
      "stateMutability": "view",
      "type": "function"
    },
    {
      "constant": true,
      "inputs": [],
      "name": "interestRateModel",
      "outputs": [
        {
          "internalType": "contract InterestRateModel",
          "name": "",
          "type": "address"
        }
      ],
      "payable": false,
      "stateMutability": "view",
      "type": "function"
    },
    {
      "constant": true,
      "inputs": [],
      "name": "isCToken",
      "outputs": [
        {
          "internalType": "bool",
          "name": "",
          "type": "bool"
        }
      ],
      "payable": false,
      "stateMutability": "view",
      "type": "function"
    },
    {
      "constant": true,
      "inputs": [],
      "name": "name",
      "outputs": [
        {
          "internalType": "string",
          "name": "",
          "type": "string"
        }
      ],
      "payable": false,
      "stateMutability": "view",
      "type": "function"
    },
    {
      "constant": true,
      "inputs": [],
      "name": "pendingAdmin",
      "outputs": [
        {
          "internalType": "address payable",
          "name": "",
          "type": "address"
        }
      ],
      "payable": false,
      "stateMutability": "view",
      "type": "function"
    },
    {
      "constant": true,
      "inputs": [],
      "name": "reserveFactorMantissa",
      "outputs": [
        {
          "internalType": "uint256",
          "name": "",
          "type": "uint256"
        }
      ],
      "payable": false,
      "stateMutability": "view",
      "type": "function"
    },
    {
      "constant": true,
      "inputs": [],
      "name": "symbol",
      "outputs": [
        {
          "internalType": "string",
          "name": "",
          "type": "string"
        }
      ],
      "payable": false,
      "stateMutability": "view",
      "type": "function"
    },
    {
      "constant": true,
      "inputs": [],
      "name": "totalBorrows",
      "outputs": [
        {
          "internalType": "uint256",
          "name": "",
          "type": "uint256"
        }
      ],
      "payable": false,
      "stateMutability": "view",
      "type": "function"
    },
    {
      "constant": true,
      "inputs": [],
      "name": "totalReserves",
      "outputs": [
        {
          "internalType": "uint256",
          "name": "",
          "type": "uint256"
        }
      ],
      "payable": false,
      "stateMutability": "view",
      "type": "function"
    },
    {
      "constant": true,
      "inputs": [],
      "name": "totalSupply",
      "outputs": [
        {
          "internalType": "uint256",
          "name": "",
          "type": "uint256"
        }
      ],
      "payable": false,
      "stateMutability": "view",
      "type": "function"
    },
    {
      "constant": true,
      "inputs": [],
      "name": "underlying",
      "outputs": [
        {
          "internalType": "address",
          "name": "",
          "type": "address"
        }
      ],
      "payable": false,
      "stateMutability": "view",
      "type": "function"
    },
    {
      "constant": false,
      "inputs": [
        {
          "internalType": "address",
          "name": "implementation_",
          "type": "address"
        },
        {
          "internalType": "bool",
          "name": "allowResign",
          "type": "bool"
        },
        {
          "internalType": "bytes",
          "name": "becomeImplementationData",
          "type": "bytes"
        }
      ],
      "name": "_setImplementation",
      "outputs": [],
      "payable": false,
      "stateMutability": "nonpayable",
      "type": "function"
    },
    {
      "constant": false,
      "inputs": [
        {
          "internalType": "uint256",
          "name": "mintAmount",
          "type": "uint256"
        }
      ],
      "name": "mint",
      "outputs": [
        {
          "internalType": "uint256",
          "name": "",
          "type": "uint256"
        }
      ],
      "payable": false,
      "stateMutability": "nonpayable",
      "type": "function"
    },
    {
      "constant": false,
      "inputs": [
        {
          "internalType": "uint256",
          "name": "redeemTokens",
          "type": "uint256"
        }
      ],
      "name": "redeem",
      "outputs": [
        {
          "internalType": "uint256",
          "name": "",
          "type": "uint256"
        }
      ],
      "payable": false,
      "stateMutability": "nonpayable",
      "type": "function"
    },
    {
      "constant": false,
      "inputs": [
        {
          "internalType": "uint256",
          "name": "redeemAmount",
          "type": "uint256"
        }
      ],
      "name": "redeemUnderlying",
      "outputs": [
        {
          "internalType": "uint256",
          "name": "",
          "type": "uint256"
        }
      ],
      "payable": false,
      "stateMutability": "nonpayable",
      "type": "function"
    },
    {
      "constant": false,
      "inputs": [
        {
          "internalType": "uint256",
          "name": "borrowAmount",
          "type": "uint256"
        }
      ],
      "name": "borrow",
      "outputs": [
        {
          "internalType": "uint256",
          "name": "",
          "type": "uint256"
        }
      ],
      "payable": false,
      "stateMutability": "nonpayable",
      "type": "function"
    },
    {
      "constant": false,
      "inputs": [
        {
          "internalType": "uint256",
          "name": "repayAmount",
          "type": "uint256"
        }
      ],
      "name": "repayBorrow",
      "outputs": [
        {
          "internalType": "uint256",
          "name": "",
          "type": "uint256"
        }
      ],
      "payable": false,
      "stateMutability": "nonpayable",
      "type": "function"
    },
    {
      "constant": false,
      "inputs": [
        {
          "internalType": "address",
          "name": "borrower",
          "type": "address"
        },
        {
          "internalType": "uint256",
          "name": "repayAmount",
          "type": "uint256"
        }
      ],
      "name": "repayBorrowBehalf",
      "outputs": [
        {
          "internalType": "uint256",
          "name": "",
          "type": "uint256"
        }
      ],
      "payable": false,
      "stateMutability": "nonpayable",
      "type": "function"
    },
    {
      "constant": false,
      "inputs": [
        {
          "internalType": "address",
          "name": "borrower",
          "type": "address"
        },
        {
          "internalType": "uint256",
          "name": "repayAmount",
          "type": "uint256"
        },
        {
          "internalType": "contract CTokenInterface",
          "name": "cTokenCollateral",
          "type": "address"
        }
      ],
      "name": "liquidateBorrow",
      "outputs": [
        {
          "internalType": "uint256",
          "name": "",
          "type": "uint256"
        }
      ],
      "payable": false,
      "stateMutability": "nonpayable",
      "type": "function"
    },
    {
      "constant": false,
      "inputs": [
        {
          "internalType": "address",
          "name": "dst",
          "type": "address"
        },
        {
          "internalType": "uint256",
          "name": "amount",
          "type": "uint256"
        }
      ],
      "name": "transfer",
      "outputs": [
        {
          "internalType": "bool",
          "name": "",
          "type": "bool"
        }
      ],
      "payable": false,
      "stateMutability": "nonpayable",
      "type": "function"
    },
    {
      "constant": false,
      "inputs": [
        {
          "internalType": "address",
          "name": "src",
          "type": "address"
        },
        {
          "internalType": "address",
          "name": "dst",
          "type": "address"
        },
        {
          "internalType": "uint256",
          "name": "amount",
          "type": "uint256"
        }
      ],
      "name": "transferFrom",
      "outputs": [
        {
          "internalType": "bool",
          "name": "",
          "type": "bool"
        }
      ],
      "payable": false,
      "stateMutability": "nonpayable",
      "type": "function"
    },
    {
      "constant": false,
      "inputs": [
        {
          "internalType": "address",
          "name": "spender",
          "type": "address"
        },
        {
          "internalType": "uint256",
          "name": "amount",
          "type": "uint256"
        }
      ],
      "name": "approve",
      "outputs": [
        {
          "internalType": "bool",
          "name": "",
          "type": "bool"
        }
      ],
      "payable": false,
      "stateMutability": "nonpayable",
      "type": "function"
    },
    {
      "constant": true,
      "inputs": [
        {
          "internalType": "address",
          "name": "owner",
          "type": "address"
        },
        {
          "internalType": "address",
          "name": "spender",
          "type": "address"
        }
      ],
      "name": "allowance",
      "outputs": [
        {
          "internalType": "uint256",
          "name": "",
          "type": "uint256"
        }
      ],
      "payable": false,
      "stateMutability": "view",
      "type": "function"
    },
    {
      "constant": true,
      "inputs": [
        {
          "internalType": "address",
          "name": "owner",
          "type": "address"
        }
      ],
      "name": "balanceOf",
      "outputs": [
        {
          "internalType": "uint256",
          "name": "",
          "type": "uint256"
        }
      ],
      "payable": false,
      "stateMutability": "view",
      "type": "function"
    },
    {
      "constant": false,
      "inputs": [
        {
          "internalType": "address",
          "name": "owner",
          "type": "address"
        }
      ],
      "name": "balanceOfUnderlying",
      "outputs": [
        {
          "internalType": "uint256",
          "name": "",
          "type": "uint256"
        }
      ],
      "payable": false,
      "stateMutability": "nonpayable",
      "type": "function"
    },
    {
      "constant": true,
      "inputs": [
        {
          "internalType": "address",
          "name": "account",
          "type": "address"
        }
      ],
      "name": "getAccountSnapshot",
      "outputs": [
        {
          "internalType": "uint256",
          "name": "",
          "type": "uint256"
        },
        {
          "internalType": "uint256",
          "name": "",
          "type": "uint256"
        },
        {
          "internalType": "uint256",
          "name": "",
          "type": "uint256"
        },
        {
          "internalType": "uint256",
          "name": "",
          "type": "uint256"
        }
      ],
      "payable": false,
      "stateMutability": "view",
      "type": "function"
    },
    {
      "constant": true,
      "inputs": [],
      "name": "borrowRatePerBlock",
      "outputs": [
        {
          "internalType": "uint256",
          "name": "",
          "type": "uint256"
        }
      ],
      "payable": false,
      "stateMutability": "view",
      "type": "function"
    },
    {
      "constant": true,
      "inputs": [],
      "name": "supplyRatePerBlock",
      "outputs": [
        {
          "internalType": "uint256",
          "name": "",
          "type": "uint256"
        }
      ],
      "payable": false,
      "stateMutability": "view",
      "type": "function"
    },
    {
      "constant": false,
      "inputs": [],
      "name": "totalBorrowsCurrent",
      "outputs": [
        {
          "internalType": "uint256",
          "name": "",
          "type": "uint256"
        }
      ],
      "payable": false,
      "stateMutability": "nonpayable",
      "type": "function"
    },
    {
      "constant": false,
      "inputs": [
        {
          "internalType": "address",
          "name": "account",
          "type": "address"
        }
      ],
      "name": "borrowBalanceCurrent",
      "outputs": [
        {
          "internalType": "uint256",
          "name": "",
          "type": "uint256"
        }
      ],
      "payable": false,
      "stateMutability": "nonpayable",
      "type": "function"
    },
    {
      "constant": true,
      "inputs": [
        {
          "internalType": "address",
          "name": "account",
          "type": "address"
        }
      ],
      "name": "borrowBalanceStored",
      "outputs": [
        {
          "internalType": "uint256",
          "name": "",
          "type": "uint256"
        }
      ],
      "payable": false,
      "stateMutability": "view",
      "type": "function"
    },
    {
      "constant": false,
      "inputs": [],
      "name": "exchangeRateCurrent",
      "outputs": [
        {
          "internalType": "uint256",
          "name": "",
          "type": "uint256"
        }
      ],
      "payable": false,
      "stateMutability": "nonpayable",
      "type": "function"
    },
    {
      "constant": true,
      "inputs": [],
      "name": "exchangeRateStored",
      "outputs": [
        {
          "internalType": "uint256",
          "name": "",
          "type": "uint256"
        }
      ],
      "payable": false,
      "stateMutability": "view",
      "type": "function"
    },
    {
      "constant": true,
      "inputs": [],
      "name": "getCash",
      "outputs": [
        {
          "internalType": "uint256",
          "name": "",
          "type": "uint256"
        }
      ],
      "payable": false,
      "stateMutability": "view",
      "type": "function"
    },
    {
      "constant": false,
      "inputs": [],
      "name": "accrueInterest",
      "outputs": [
        {
          "internalType": "uint256",
          "name": "",
          "type": "uint256"
        }
      ],
      "payable": false,
      "stateMutability": "nonpayable",
      "type": "function"
    },
    {
      "constant": false,
      "inputs": [
        {
          "internalType": "address",
          "name": "liquidator",
          "type": "address"
        },
        {
          "internalType": "address",
          "name": "borrower",
          "type": "address"
        },
        {
          "internalType": "uint256",
          "name": "seizeTokens",
          "type": "uint256"
        }
      ],
      "name": "seize",
      "outputs": [
        {
          "internalType": "uint256",
          "name": "",
          "type": "uint256"
        }
      ],
      "payable": false,
      "stateMutability": "nonpayable",
      "type": "function"
    },
    {
      "constant": false,
      "inputs": [
        {
          "internalType": "contract EIP20NonStandardInterface",
          "name": "token",
          "type": "address"
        }
      ],
      "name": "sweepToken",
      "outputs": [],
      "payable": false,
      "stateMutability": "nonpayable",
      "type": "function"
    },
    {
      "constant": false,
      "inputs": [
        {
          "internalType": "address payable",
          "name": "newPendingAdmin",
          "type": "address"
        }
      ],
      "name": "_setPendingAdmin",
      "outputs": [
        {
          "internalType": "uint256",
          "name": "",
          "type": "uint256"
        }
      ],
      "payable": false,
      "stateMutability": "nonpayable",
      "type": "function"
    },
    {
      "constant": false,
      "inputs": [
        {
          "internalType": "contract ComptrollerInterface",
          "name": "newComptroller",
          "type": "address"
        }
      ],
      "name": "_setComptroller",
      "outputs": [
        {
          "internalType": "uint256",
          "name": "",
          "type": "uint256"
        }
      ],
      "payable": false,
      "stateMutability": "nonpayable",
      "type": "function"
    },
    {
      "constant": false,
      "inputs": [
        {
          "internalType": "uint256",
          "name": "newReserveFactorMantissa",
          "type": "uint256"
        }
      ],
      "name": "_setReserveFactor",
      "outputs": [
        {
          "internalType": "uint256",
          "name": "",
          "type": "uint256"
        }
      ],
      "payable": false,
      "stateMutability": "nonpayable",
      "type": "function"
    },
    {
      "constant": false,
      "inputs": [],
      "name": "_acceptAdmin",
      "outputs": [
        {
          "internalType": "uint256",
          "name": "",
          "type": "uint256"
        }
      ],
      "payable": false,
      "stateMutability": "nonpayable",
      "type": "function"
    },
    {
      "constant": false,
      "inputs": [
        {
          "internalType": "uint256",
          "name": "addAmount",
          "type": "uint256"
        }
      ],
      "name": "_addReserves",
      "outputs": [
        {
          "internalType": "uint256",
          "name": "",
          "type": "uint256"
        }
      ],
      "payable": false,
      "stateMutability": "nonpayable",
      "type": "function"
    },
    {
      "constant": false,
      "inputs": [
        {
          "internalType": "uint256",
          "name": "reduceAmount",
          "type": "uint256"
        }
      ],
      "name": "_reduceReserves",
      "outputs": [
        {
          "internalType": "uint256",
          "name": "",
          "type": "uint256"
        }
      ],
      "payable": false,
      "stateMutability": "nonpayable",
      "type": "function"
    },
    {
      "constant": false,
      "inputs": [
        {
          "internalType": "contract InterestRateModel",
          "name": "newInterestRateModel",
          "type": "address"
        }
      ],
      "name": "_setInterestRateModel",
      "outputs": [
        {
          "internalType": "uint256",
          "name": "",
          "type": "uint256"
        }
      ],
      "payable": false,
      "stateMutability": "nonpayable",
      "type": "function"
    },
    {
      "constant": false,
      "inputs": [
        {
          "internalType": "bytes",
          "name": "data",
          "type": "bytes"
        }
      ],
      "name": "delegateToImplementation",
      "outputs": [
        {
          "internalType": "bytes",
          "name": "",
          "type": "bytes"
        }
      ],
      "payable": false,
      "stateMutability": "nonpayable",
      "type": "function"
    },
    {
      "constant": true,
      "inputs": [
        {
          "internalType": "bytes",
          "name": "data",
          "type": "bytes"
        }
      ],
      "name": "delegateToViewImplementation",
      "outputs": [
        {
          "internalType": "bytes",
          "name": "",
          "type": "bytes"
        }
      ],
      "payable": false,
      "stateMutability": "view",
      "type": "function"
    }
  ],
  "bytecode": "0x60806040523480156200001c57600080620000196200085c565b50505b50604051620030613803806200306183398181016040526101408110156200004e576000806200004b6200085c565b50505b810190808051929190602001805192919060200180519291906020018051929190602001805160405193929190846401000000008211156200009a57600080620000976200085c565b50505b908301906020820185811115620000bb57600080620000b86200085c565b50505b8251640100000000811182820188101715620000e157600080620000de6200085c565b50505b825250602001908051906020019080838360005b838110156200010f578082015183820152602001620000f5565b50505050905090810190601f1680156200013d5780820380516001836020036101000a031916815260200191505b50604052602001805160405193929190846401000000008211156200016c57600080620001696200085c565b50505b9083019060208201858111156200018d576000806200018a6200085c565b50505b8251640100000000811182820188101715620001b357600080620001b06200085c565b50505b825250602001908051906020019080838360005b83811015620001e1578082015183820152602001620001c7565b50505050905090810190601f1680156200020f5780820380516001836020036101000a031916815260200191505b50604052602001805192919060200180519291906020018051929190602001805160405193929190846401000000008211156200025657600080620002536200085c565b50505b9083019060208201858111156200027757600080620002746200085c565b50505b82516401000000008111828201881017156200029d576000806200029a6200085c565b50505b825250602001908051906020019080838360005b83811015620002cb578082015183820152602001620002b1565b50505050905090810190601f168015620002f95780820380516001836020036101000a031916815260200191505b506040525050505a6200030b620008c9565b6003610100816200031b62000925565b816001600160a01b0302191690836001600160a01b03160217906200033f62000972565b505050620004a0828b8b8b8b8b8b8b6040516001600160a01b0380891660248301908152888216604484015290871660648301526084820186905260ff831660e483015260e060a48301908152909160c48101906101040186818151815260200191508051906020019080838360005b83811015620003c9578082015183820152602001620003af565b50505050905090810190601f168015620003f75780820380516001836020036101000a031916815260200191505b50838103825285818151815260200191508051906020019080838360005b838110156200042f57808201518382015260200162000415565b50505050905090810190601f1680156200045d5780820380516001836020036101000a031916815260200191505b509950505050505050505050604051601f19818303018152604091909152631a31d46560e01b6020820180516001600160e01b0390811690921790526200050016565b50620004b8826000836001600160e01b03620005e016565b82600361010081620004c962000925565b816001600160a01b0302191690836001600160a01b0316021790620004ed62000972565b5050505050505050505050505062000a75565b606060006060846001600160a01b0316846040518082805190602001908083835b60208310620005425780518252601f19909201916020918201910162000521565b6001836020036101000a038019825116818451168082178552505050505050905001915050600060405180830381855a6200057c620009c1565b50505050509150503d8060008114620005b2576040513d603f01601f191681016040523d815291503d6000602084013e620005b7565b606091505b50915091506000821415620005d8573d60208201620005d56200085c565b50505b949350505050565b60016003620005ee62000925565b906101000a90046001600160a01b03166001600160a01b03165a62000612620008c9565b6001600160a01b031614620006645760405162461bcd60e51b8152600401808060200182810382526039815260200180620030286039913960400191505060405180910390620006616200085c565b50505b8115620006ae57620006ac604051602401604051601f1981830301815260409190915263153ab50560e01b6020820180516001600160e01b0390811690921790526200082516565b505b6000806012620006bd62000925565b906101000a90046001600160a01b0316905083601260006101000a81620006e362000925565b816001600160a01b0302191690836001600160a01b03160217906200070762000972565b505050620007bb826040516024018080602001828103825283818151815260200191508051906020019080838360005b838110156200075157808201518382015260200162000737565b50505050905090810190601f1680156200077f5780820380516001836020036101000a031916815260200191505b5092505050604051601f19818303018152604091909152630adccee560e31b6020820180516001600160e01b0390811690921790526200082516565b507fd604de94d45953f9138079ec1b82d533cb2160c906d1076d1f7ed54befbca97a8160006012620007ec62000925565b906101000a90046001600160a01b03166040516001600160a01b039283168152911660208201526040908101905180910390a150505050565b606062000856600060126200083962000925565b906101000a90046001600160a01b0316836200050060201b60201c565b92915050565b632a2a7adb598160e01b8152600481016020815285602082015260005b868110156200089657808601518282016040015260200162000879565b506020828760640184336000905af158600e01573d6000803e3d6000fd5b3d6001141558600a015760016000f35b505050565b6373509064598160e01b8152602081600483336000905af158600e01573d6000803e3d6000fd5b3d6001141558600a015760016000f35b8051935060005b6040811015620009205760008282015260200162000907565b505050565b6303daa959598160e01b8152836004820152602081602483336000905af158600e01573d6000803e3d6000fd5b3d6001141558600a015760016000f35b8051600082529350602062000907565b6322bd64c0598160e01b8152836004820152846024820152600081604483336000905af158600e01573d6000803e3d6000fd5b3d6001141558600a015760016000f35b60008152602062000907565b63ffe73914598160e01b8152836004820152846024820152606060448201528660648201526084810160005b8881101562000a07578088015182820152602001620009ed565b506060828960a40184336000905af158600e01573d6000803e3d6000fd5b3d6001141558600a015760016000f35b815160408301513d6000853e8b8b82606087013350600060045af15059845b8181101562000a6a576000815260200162000a54565b50919b505050505050565b6125a38062000a856000396000f3fe6080604052600436106102445760003560e01c806306fdde031461033c5780630933c1ed146103d1578063095ea7b3146104ae5780630e7527021461050d578063173b99041461055b57806317bfdfbc1461057957806318160ddd146105be578063182df0f5146105dc5780631be19560146105fa57806323b872dd146106415780632608f8181461069657806326782247146106e1578063313ce5671461071b5780633af9e6691461074f5780633b1d21a2146107945780633e941010146107b25780634487152f146107ee5780634576b5db146108cb57806347bd371814610910578063555bcc401461092e5780635c60da1b14610a225780635fe3b56714610a40578063601a0bf114610a5e5780636c540baf14610a9a5780636f307dc314610ab857806370a0823114610ad657806373acee9814610b1b578063852a12e314610b395780638f840ddd14610b7557806395d89b4114610b9357806395dd919314610bb1578063a0712d6814610bf6578063a6afed9514610c32578063a9059cbb14610c50578063aa5af0fd14610c9b578063ae9d70b014610cb9578063b2a02ff114610cd7578063b71d1a0c14610d2c578063bd6d894d14610d71578063c37f68e214610d8f578063c5ebeaec14610dff578063db006a7514610e3b578063dd62ed3e14610e77578063e9c714f214610ec4578063f2b3abbd14610ee2578063f3fdb15a14610f27578063f5e3c46214610f45578063f851a44014610f9a578063f8f9da2814610fb8578063fca7820b14610fd6578063fe9c44ae14611012575b341561028a5760405162461bcd60e51b815260040180806020018281038252603781526020018061253360379139604001915050604051809103906102876122e0565b50505b600080601261029761234b565b906101000a90046001600160a01b03166001600160a01b0316600036604051808383808284378083019250505092505050600060405180830381855a6102db6123ab565b50505050509150503d806000811461030f576040513d603f01601f191681016040523d815291503d6000602084013e610314565b606091505b505090506040513d6000823e81801561032b573d82f35b3d826103356122e0565b5050505050005b3480156103515760008061034e6122e0565b50505b5061035a611030565b60405160208082528190810183818151815260200191508051906020019080838360005b8381101561039657808201518382015260200161037e565b50505050905090810190601f1680156103c35780820380516001836020036101000a031916815260200191505b509250505060405180910390f35b3480156103e6576000806103e36122e0565b50505b5061035a60048036036020811015610406576000806104036122e0565b50505b810190602081018135600160201b811115610429576000806104266122e0565b50505b820183602082011115610444576000806104416122e0565b50505b803590602001918460018302840111600160201b8311171561046e5760008061046b6122e0565b50505b91908080601f01602080910402602001604051908101604052818152929190602084018383808284376000920191909152509295506110e9945050505050565b3480156104c3576000806104c06122e0565b50505b506104f9600480360360408110156104e3576000806104e06122e0565b50505b506001600160a01b038135169060200135611116565b604051901515815260200160405180910390f35b3480156105225760008061051f6122e0565b50505b50610549600480360360208110156105425760008061053f6122e0565b50505b503561119d565b60405190815260200160405180910390f35b3480156105705760008061056d6122e0565b50505b50610549611215565b34801561058e5760008061058b6122e0565b50505b50610549600480360360208110156105ae576000806105ab6122e0565b50505b50356001600160a01b0316611222565b3480156105d3576000806105d06122e0565b50505b50610549611273565b3480156105f1576000806105ee6122e0565b50505b5061054961127d565b34801561060f5760008061060c6122e0565b50505b5061063f6004803603602081101561062f5760008061062c6122e0565b50505b50356001600160a01b03166112eb565b005b348015610656576000806106536122e0565b50505b506104f960048036036060811015610676576000806106736122e0565b50505b506001600160a01b0381358116916020810135909116906040013561133b565b3480156106ab576000806106a86122e0565b50505b50610549600480360360408110156106cb576000806106c86122e0565b50505b506001600160a01b0381351690602001356113d0565b3480156106f6576000806106f36122e0565b50505b506106ff611427565b6040516001600160a01b03909116815260200160405180910390f35b3480156107305760008061072d6122e0565b50505b50610739611446565b60405160ff909116815260200160405180910390f35b348015610764576000806107616122e0565b50505b5061054960048036036020811015610784576000806107816122e0565b50505b50356001600160a01b031661145f565b3480156107a9576000806107a66122e0565b50505b506105496114b0565b3480156107c7576000806107c46122e0565b50505b50610549600480360360208110156107e7576000806107e46122e0565b50505b50356114f0565b348015610803576000806108006122e0565b50505b5061035a60048036036020811015610823576000806108206122e0565b50505b810190602081018135600160201b811115610846576000806108436122e0565b50505b8201836020820111156108615760008061085e6122e0565b50505b803590602001918460018302840111600160201b8311171561088b576000806108886122e0565b50505b91908080601f0160208091040260200160405190810160405281815292919060208401838380828437600092019190915250929550611539945050505050565b3480156108e0576000806108dd6122e0565b50505b5061054960048036036020811015610900576000806108fd6122e0565b50505b50356001600160a01b03166117ee565b348015610925576000806109226122e0565b50505b5061054961183f565b348015610943576000806109406122e0565b50505b5061063f60048036036060811015610963576000806109606122e0565b50505b6001600160a01b03823516916020810135151591810190606081016040820135600160201b81111561099d5760008061099a6122e0565b50505b8201836020820111156109b8576000806109b56122e0565b50505b803590602001918460018302840111600160201b831117156109e2576000806109df6122e0565b50505b91908080601f0160208091040260200160405190810160405281815292919060208401838380828437600092019190915250929550611849945050505050565b348015610a3757600080610a346122e0565b50505b506106ff611a70565b348015610a5557600080610a526122e0565b50505b506106ff611a7c565b348015610a7357600080610a706122e0565b50505b5061054960048036036020811015610a9357600080610a906122e0565b50505b5035611a88565b348015610aaf57600080610aac6122e0565b50505b50610549611ad1565b348015610acd57600080610aca6122e0565b50505b506106ff611adb565b348015610aeb57600080610ae86122e0565b50505b5061054960048036036020811015610b0b57600080610b086122e0565b50505b50356001600160a01b0316611ae7565b348015610b3057600080610b2d6122e0565b50505b50610549611b38565b348015610b4e57600080610b4b6122e0565b50505b5061054960048036036020811015610b6e57600080610b6b6122e0565b50505b5035611b78565b348015610b8a57600080610b876122e0565b50505b50610549611bc1565b348015610ba857600080610ba56122e0565b50505b5061035a611bcb565b348015610bc657600080610bc36122e0565b50505b5061054960048036036020811015610be657600080610be36122e0565b50505b50356001600160a01b0316611c6d565b348015610c0b57600080610c086122e0565b50505b5061054960048036036020811015610c2b57600080610c286122e0565b50505b5035611cbe565b348015610c4757600080610c446122e0565b50505b50610549611d07565b348015610c6557600080610c626122e0565b50505b506104f960048036036040811015610c8557600080610c826122e0565b50505b506001600160a01b038135169060200135611d47565b348015610cb057600080610cad6122e0565b50505b50610549611d9e565b348015610cce57600080610ccb6122e0565b50505b50610549611da8565b348015610cec57600080610ce96122e0565b50505b5061054960048036036060811015610d0c57600080610d096122e0565b50505b506001600160a01b03813581169160208101359091169060400135611de8565b348015610d4157600080610d3e6122e0565b50505b5061054960048036036020811015610d6157600080610d5e6122e0565b50505b50356001600160a01b0316611e4c565b348015610d8657600080610d836122e0565b50505b50610549611e9d565b348015610da457600080610da16122e0565b50505b50610dd460048036036020811015610dc457600080610dc16122e0565b50505b50356001600160a01b0316611edd565b6040518085815260200184815260200183815260200182815260200194505050505060405180910390f35b348015610e1457600080610e116122e0565b50505b5061054960048036036020811015610e3457600080610e316122e0565b50505b5035611f84565b348015610e5057600080610e4d6122e0565b50505b5061054960048036036020811015610e7057600080610e6d6122e0565b50505b5035611fcd565b348015610e8c57600080610e896122e0565b50505b5061054960048036036040811015610eac57600080610ea96122e0565b50505b506001600160a01b0381358116916020013516612016565b348015610ed957600080610ed66122e0565b50505b5061054961206f565b348015610ef757600080610ef46122e0565b50505b5061054960048036036020811015610f1757600080610f146122e0565b50505b50356001600160a01b03166120af565b348015610f3c57600080610f396122e0565b50505b506106ff612100565b348015610f5a57600080610f576122e0565b50505b5061054960048036036060811015610f7a57600080610f776122e0565b50505b506001600160a01b0381358116916020810135916040909101351661210c565b348015610faf57600080610fac6122e0565b50505b506106ff61216f565b348015610fcd57600080610fca6122e0565b50505b5061054961217b565b348015610feb57600080610fe86122e0565b50505b506105496004803603602081101561100b576000806110086122e0565b50505b50356121bb565b348015611027576000806110246122e0565b50505b506104f9612204565b60018061103b61234b565b600181600116156101000203166002900480601f01602080910402602001604051908101604052818152919060208301828061107561234b565b600181600116156101000203166002900480156110e15780601f106110af5761010080836110a161234b565b0402835291602001916110e1565b820191906000526020600020905b816110c661234b565b815290600101906020018083116110bd57829003601f168201915b505050505081565b6060611110600060126110fa61234b565b906101000a90046001600160a01b031683612209565b92915050565b6000606061116d84846040516001600160a01b0390921660248301526044820152606401604051601f1981830301815260409190915263095ea7b360e01b6020820180516001600160e01b031690911790526110e9565b9050602081018151602081101561118c576000806111896122e0565b50505b810190808051979650505050505050565b600060606111e6836040516024810191909152604401604051601f1981830301815260409190915263073a938160e11b6020820180516001600160e01b031690911790526110e9565b90506020810181516020811015611205576000806112026122e0565b50505b8101908080519695505050505050565b600861121f61234b565b81565b600060606111e6836040516001600160a01b039091166024820152604401604051601f198183030181526040919091526305eff7ef60e21b6020820180516001600160e01b031690911790526110e9565b600d61121f61234b565b600060606112bd604051602401604051601f1981830301815260409190915263182df0f560e01b6020820180516001600160e01b03169091179052611539565b905060208101815160208110156112dc576000806112d96122e0565b50505b81019080805194505050505090565b611337816040516001600160a01b039091166024820152604401604051601f1981830301815260409190915262df0cab60e51b6020820180516001600160e01b031690911790526110e9565b5050565b6000606061139f8585856040516001600160a01b0393841660248201529190921660448201526064810191909152608401604051601f198183030181526040919091526323b872dd60e01b6020820180516001600160e01b031690911790526110e9565b905060208101815160208110156113be576000806113bb6122e0565b50505b81019080805198975050505050505050565b6000606061116d84846040516001600160a01b0390921660248301526044820152606401604051601f198183030181526040919091526304c11f0360e31b6020820180516001600160e01b031690911790526110e9565b6000600461143361234b565b906101000a90046001600160a01b031681565b6000600361145261234b565b906101000a900460ff1681565b600060606111e6836040516001600160a01b039091166024820152604401604051601f19818303018152604091909152633af9e66960e01b6020820180516001600160e01b031690911790526110e9565b600060606112bd604051602401604051601f19818303018152604091909152631d8e90d160e11b6020820180516001600160e01b03169091179052611539565b600060606111e6836040516024810191909152604401604051601f198183030181526040919091526303e9410160e41b6020820180516001600160e01b031690911790526110e9565b6060600060605a63996d79a5598160e01b8152602081600483336000905af158600e01573d6000803e3d6000fd5b3d6001141558600a015760016000f35b8051925060005b60408110156115955760008282015260200161157e565b5050506001600160a01b0316846040516024018080602001828103825283818151815260200191508051906020019080838360005b838110156115e25780820151838201526020016115ca565b50505050905090810190601f16801561160f5780820380516001836020036101000a031916815260200191505b5092505050604051601f19818303018152604091909152630933c1ed60e01b6020820180516001600160e01b031690911790526040518082805190602001908083835b602083106116715780518252601f199092019160209182019101611652565b6001836020036101000a038019825116818451168082178552505050505050905001915050600060405180830381855a6116a961245b565b50505050509150503d80600081146116dd576040513d603f01601f191681016040523d815291503d6000602084013e6116e2565b606091505b50915091506000821415611700573d602082016116fd6122e0565b50505b602081018151602081101561171d5760008061171a6122e0565b50505b8101908080516040519392919084600160201b821115611745576000806117426122e0565b50505b908301906020820185811115611763576000806117606122e0565b50505b8251600160201b811182820188101715611785576000806117826122e0565b50505b825250602001908051906020019080838360005b838110156117b1578082015183820152602001611799565b50505050905090810190601f1680156117de5780820380516001836020036101000a031916815260200191505b5060405250505092505050919050565b600060606111e6836040516001600160a01b039091166024820152604401604051601f19818303018152604091909152634576b5db60e01b6020820180516001600160e01b031690911790526110e9565b600b61121f61234b565b6001600361185561234b565b906101000a90046001600160a01b03166001600160a01b03165a61187761249e565b6001600160a01b0316146118c55760405162461bcd60e51b815260040180806020018281038252603981526020018061256a60399139604001915050604051809103906118c26122e0565b50505b811561190957611907604051602401604051601f1981830301815260409190915263153ab50560e01b6020820180516001600160e01b031690911790526110e9565b505b600080601261191661234b565b906101000a90046001600160a01b0316905083601260006101000a8161193a61234b565b816001600160a01b0302191690836001600160a01b031602179061195c6124e4565b505050611a08826040516024018080602001828103825283818151815260200191508051906020019080838360005b838110156119a357808201518382015260200161198b565b50505050905090810190601f1680156119d05780820380516001836020036101000a031916815260200191505b5092505050604051601f19818303018152604091909152630adccee560e31b6020820180516001600160e01b031690911790526110e9565b507fd604de94d45953f9138079ec1b82d533cb2160c906d1076d1f7ed54befbca97a8160006012611a3761234b565b906101000a90046001600160a01b03166040516001600160a01b039283168152911660208201526040908101905180910390a150505050565b6000601261143361234b565b6000600561143361234b565b600060606111e6836040516024810191909152604401604051601f1981830301815260409190915263601a0bf160e01b6020820180516001600160e01b031690911790526110e9565b600961121f61234b565b6000601161143361234b565b600060606111e6836040516001600160a01b039091166024820152604401604051601f198183030181526040919091526370a0823160e01b6020820180516001600160e01b03169091179052611539565b600060606112bd604051602401604051601f19818303018152604091909152630e759dd360e31b6020820180516001600160e01b031690911790526110e9565b600060606111e6836040516024810191909152604401604051601f1981830301815260409190915263852a12e360e01b6020820180516001600160e01b031690911790526110e9565b600c61121f61234b565b600280611bd661234b565b600181600116156101000203166002900480601f016020809104026020016040519081016040528181529190602083018280611c1061234b565b600181600116156101000203166002900480156110e15780601f10611c3c5761010080836110a161234b565b820191906000526020600020905b81611c5361234b565b81529060010190602001808311611c4a5750859350505050565b600060606111e6836040516001600160a01b039091166024820152604401604051601f198183030181526040919091526395dd919360e01b6020820180516001600160e01b03169091179052611539565b600060606111e6836040516024810191909152604401604051601f1981830301815260409190915263140e25ad60e31b6020820180516001600160e01b031690911790526110e9565b600060606112bd604051602401604051601f1981830301815260409190915263a6afed9560e01b6020820180516001600160e01b031690911790526110e9565b6000606061116d84846040516001600160a01b0390921660248301526044820152606401604051601f1981830301815260409190915263a9059cbb60e01b6020820180516001600160e01b031690911790526110e9565b600a61121f61234b565b600060606112bd604051602401604051601f19818303018152604091909152630ae9d70b60e41b6020820180516001600160e01b03169091179052611539565b6000606061139f8585856040516001600160a01b0393841660248201529190921660448201526064810191909152608401604051601f1981830301815260409190915263b2a02ff160e01b6020820180516001600160e01b031690911790526110e9565b600060606111e6836040516001600160a01b039091166024820152604401604051601f19818303018152604091909152632dc7468360e21b6020820180516001600160e01b031690911790526110e9565b600060606112bd604051602401604051601f1981830301815260409190915263bd6d894d60e01b6020820180516001600160e01b031690911790526110e9565b6000806000806060611f32866040516001600160a01b039091166024820152604401604051601f198183030181526040919091526361bfb47160e11b6020820180516001600160e01b03169091179052611539565b90506020810181516080811015611f5157600080611f4e6122e0565b50505b810190808051929190602001805192919060200180519291906020018051959c949b509299509397509195505050505050565b600060606111e6836040516024810191909152604401604051601f1981830301815260409190915263317afabb60e21b6020820180516001600160e01b031690911790526110e9565b600060606111e6836040516024810191909152604401604051601f1981830301815260409190915263db006a7560e01b6020820180516001600160e01b031690911790526110e9565b6000606061116d84846040516001600160a01b03928316602482015291166044820152606401604051601f19818303018152604091909152636eb1769f60e11b6020820180516001600160e01b03169091179052611539565b600060606112bd604051602401604051601f198183030181526040919091526374e38a7960e11b6020820180516001600160e01b031690911790526110e9565b600060606111e6836040516001600160a01b039091166024820152604401604051601f1981830301815260409190915263f2b3abbd60e01b6020820180516001600160e01b031690911790526110e9565b6000600661143361234b565b6000606061139f8585856040516001600160a01b03938416602482015260448101929092529091166064820152608401604051601f19818303018152604091909152637af1e23160e11b6020820180516001600160e01b031690911790526110e9565b6001600361143361234b565b600060606112bd604051602401604051601f19818303018152604091909152631f1f3b4560e31b6020820180516001600160e01b03169091179052611539565b600060606111e6836040516024810191909152604401604051601f1981830301815260409190915263fca7820b60e01b6020820180516001600160e01b031690911790526110e9565b600181565b606060006060846001600160a01b0316846040518082805190602001908083835b602083106122495780518252601f19909201916020918201910161222a565b6001836020036101000a038019825116818451168082178552505050505050905001915050600060405180830381855a6122816123ab565b50505050509150503d80600081146122b5576040513d603f01601f191681016040523d815291503d6000602084013e6122ba565b606091505b509150915060008214156122d8573d602082016122d56122e0565b50505b949350505050565b632a2a7adb598160e01b8152600481016020815285602082015260005b868110156123185780860151828201604001526020016122fd565b506020828760640184336000905af158600e01573d6000803e3d6000fd5b3d6001141558600a015760016000f35b505050565b6303daa959598160e01b8152836004820152602081602483336000905af158600e01573d6000803e3d6000fd5b3d6001141558600a015760016000f35b8051935060005b60408110156123a65760008282015260200161238f565b505050565b63ffe73914598160e01b8152836004820152846024820152606060448201528660648201526084810160005b888110156123ef5780880151828201526020016123d7565b506060828960a40184336000905af158600e01573d6000803e3d6000fd5b3d6001141558600a015760016000f35b815160408301513d6000853e8b8b82606087013350600060045af15059845b81811015612450576000815260200161243c565b50919b505050505050565b638540661f598160e01b815283600482015284602482015260606044820152866064820152608481016000888110156123ef5780880151828201526020016123d7565b6373509064598160e01b8152602081600483336000905af158600e01573d6000803e3d6000fd5b3d6001141558600a015760016000f35b8051600082529350602061238f565b6322bd64c0598160e01b8152836004820152846024820152600081604483336000905af158600e01573d6000803e3d6000fd5b3d6001141558600a015760016000f35b60008152602061238f56fe43457263323044656c656761746f723a66616c6c6261636b3a2063616e6e6f742073656e642076616c756520746f2066616c6c6261636b43457263323044656c656761746f723a3a5f736574496d706c656d656e746174696f6e3a2043616c6c6572206d7573742062652061646d696e43457263323044656c656761746f723a3a5f736574496d706c656d656e746174696f6e3a2043616c6c6572206d7573742062652061646d696e",
  "deployedBytecode": "0x6080604052600436106102445760003560e01c806306fdde031461033c5780630933c1ed146103d1578063095ea7b3146104ae5780630e7527021461050d578063173b99041461055b57806317bfdfbc1461057957806318160ddd146105be578063182df0f5146105dc5780631be19560146105fa57806323b872dd146106415780632608f8181461069657806326782247146106e1578063313ce5671461071b5780633af9e6691461074f5780633b1d21a2146107945780633e941010146107b25780634487152f146107ee5780634576b5db146108cb57806347bd371814610910578063555bcc401461092e5780635c60da1b14610a225780635fe3b56714610a40578063601a0bf114610a5e5780636c540baf14610a9a5780636f307dc314610ab857806370a0823114610ad657806373acee9814610b1b578063852a12e314610b395780638f840ddd14610b7557806395d89b4114610b9357806395dd919314610bb1578063a0712d6814610bf6578063a6afed9514610c32578063a9059cbb14610c50578063aa5af0fd14610c9b578063ae9d70b014610cb9578063b2a02ff114610cd7578063b71d1a0c14610d2c578063bd6d894d14610d71578063c37f68e214610d8f578063c5ebeaec14610dff578063db006a7514610e3b578063dd62ed3e14610e77578063e9c714f214610ec4578063f2b3abbd14610ee2578063f3fdb15a14610f27578063f5e3c46214610f45578063f851a44014610f9a578063f8f9da2814610fb8578063fca7820b14610fd6578063fe9c44ae14611012575b341561028a5760405162461bcd60e51b815260040180806020018281038252603781526020018061253360379139604001915050604051809103906102876122e0565b50505b600080601261029761234b565b906101000a90046001600160a01b03166001600160a01b0316600036604051808383808284378083019250505092505050600060405180830381855a6102db6123ab565b50505050509150503d806000811461030f576040513d603f01601f191681016040523d815291503d6000602084013e610314565b606091505b505090506040513d6000823e81801561032b573d82f35b3d826103356122e0565b5050505050005b3480156103515760008061034e6122e0565b50505b5061035a611030565b60405160208082528190810183818151815260200191508051906020019080838360005b8381101561039657808201518382015260200161037e565b50505050905090810190601f1680156103c35780820380516001836020036101000a031916815260200191505b509250505060405180910390f35b3480156103e6576000806103e36122e0565b50505b5061035a60048036036020811015610406576000806104036122e0565b50505b810190602081018135600160201b811115610429576000806104266122e0565b50505b820183602082011115610444576000806104416122e0565b50505b803590602001918460018302840111600160201b8311171561046e5760008061046b6122e0565b50505b91908080601f01602080910402602001604051908101604052818152929190602084018383808284376000920191909152509295506110e9945050505050565b3480156104c3576000806104c06122e0565b50505b506104f9600480360360408110156104e3576000806104e06122e0565b50505b506001600160a01b038135169060200135611116565b604051901515815260200160405180910390f35b3480156105225760008061051f6122e0565b50505b50610549600480360360208110156105425760008061053f6122e0565b50505b503561119d565b60405190815260200160405180910390f35b3480156105705760008061056d6122e0565b50505b50610549611215565b34801561058e5760008061058b6122e0565b50505b50610549600480360360208110156105ae576000806105ab6122e0565b50505b50356001600160a01b0316611222565b3480156105d3576000806105d06122e0565b50505b50610549611273565b3480156105f1576000806105ee6122e0565b50505b5061054961127d565b34801561060f5760008061060c6122e0565b50505b5061063f6004803603602081101561062f5760008061062c6122e0565b50505b50356001600160a01b03166112eb565b005b348015610656576000806106536122e0565b50505b506104f960048036036060811015610676576000806106736122e0565b50505b506001600160a01b0381358116916020810135909116906040013561133b565b3480156106ab576000806106a86122e0565b50505b50610549600480360360408110156106cb576000806106c86122e0565b50505b506001600160a01b0381351690602001356113d0565b3480156106f6576000806106f36122e0565b50505b506106ff611427565b6040516001600160a01b03909116815260200160405180910390f35b3480156107305760008061072d6122e0565b50505b50610739611446565b60405160ff909116815260200160405180910390f35b348015610764576000806107616122e0565b50505b5061054960048036036020811015610784576000806107816122e0565b50505b50356001600160a01b031661145f565b3480156107a9576000806107a66122e0565b50505b506105496114b0565b3480156107c7576000806107c46122e0565b50505b50610549600480360360208110156107e7576000806107e46122e0565b50505b50356114f0565b348015610803576000806108006122e0565b50505b5061035a60048036036020811015610823576000806108206122e0565b50505b810190602081018135600160201b811115610846576000806108436122e0565b50505b8201836020820111156108615760008061085e6122e0565b50505b803590602001918460018302840111600160201b8311171561088b576000806108886122e0565b50505b91908080601f0160208091040260200160405190810160405281815292919060208401838380828437600092019190915250929550611539945050505050565b3480156108e0576000806108dd6122e0565b50505b5061054960048036036020811015610900576000806108fd6122e0565b50505b50356001600160a01b03166117ee565b348015610925576000806109226122e0565b50505b5061054961183f565b348015610943576000806109406122e0565b50505b5061063f60048036036060811015610963576000806109606122e0565b50505b6001600160a01b03823516916020810135151591810190606081016040820135600160201b81111561099d5760008061099a6122e0565b50505b8201836020820111156109b8576000806109b56122e0565b50505b803590602001918460018302840111600160201b831117156109e2576000806109df6122e0565b50505b91908080601f0160208091040260200160405190810160405281815292919060208401838380828437600092019190915250929550611849945050505050565b348015610a3757600080610a346122e0565b50505b506106ff611a70565b348015610a5557600080610a526122e0565b50505b506106ff611a7c565b348015610a7357600080610a706122e0565b50505b5061054960048036036020811015610a9357600080610a906122e0565b50505b5035611a88565b348015610aaf57600080610aac6122e0565b50505b50610549611ad1565b348015610acd57600080610aca6122e0565b50505b506106ff611adb565b348015610aeb57600080610ae86122e0565b50505b5061054960048036036020811015610b0b57600080610b086122e0565b50505b50356001600160a01b0316611ae7565b348015610b3057600080610b2d6122e0565b50505b50610549611b38565b348015610b4e57600080610b4b6122e0565b50505b5061054960048036036020811015610b6e57600080610b6b6122e0565b50505b5035611b78565b348015610b8a57600080610b876122e0565b50505b50610549611bc1565b348015610ba857600080610ba56122e0565b50505b5061035a611bcb565b348015610bc657600080610bc36122e0565b50505b5061054960048036036020811015610be657600080610be36122e0565b50505b50356001600160a01b0316611c6d565b348015610c0b57600080610c086122e0565b50505b5061054960048036036020811015610c2b57600080610c286122e0565b50505b5035611cbe565b348015610c4757600080610c446122e0565b50505b50610549611d07565b348015610c6557600080610c626122e0565b50505b506104f960048036036040811015610c8557600080610c826122e0565b50505b506001600160a01b038135169060200135611d47565b348015610cb057600080610cad6122e0565b50505b50610549611d9e565b348015610cce57600080610ccb6122e0565b50505b50610549611da8565b348015610cec57600080610ce96122e0565b50505b5061054960048036036060811015610d0c57600080610d096122e0565b50505b506001600160a01b03813581169160208101359091169060400135611de8565b348015610d4157600080610d3e6122e0565b50505b5061054960048036036020811015610d6157600080610d5e6122e0565b50505b50356001600160a01b0316611e4c565b348015610d8657600080610d836122e0565b50505b50610549611e9d565b348015610da457600080610da16122e0565b50505b50610dd460048036036020811015610dc457600080610dc16122e0565b50505b50356001600160a01b0316611edd565b6040518085815260200184815260200183815260200182815260200194505050505060405180910390f35b348015610e1457600080610e116122e0565b50505b5061054960048036036020811015610e3457600080610e316122e0565b50505b5035611f84565b348015610e5057600080610e4d6122e0565b50505b5061054960048036036020811015610e7057600080610e6d6122e0565b50505b5035611fcd565b348015610e8c57600080610e896122e0565b50505b5061054960048036036040811015610eac57600080610ea96122e0565b50505b506001600160a01b0381358116916020013516612016565b348015610ed957600080610ed66122e0565b50505b5061054961206f565b348015610ef757600080610ef46122e0565b50505b5061054960048036036020811015610f1757600080610f146122e0565b50505b50356001600160a01b03166120af565b348015610f3c57600080610f396122e0565b50505b506106ff612100565b348015610f5a57600080610f576122e0565b50505b5061054960048036036060811015610f7a57600080610f776122e0565b50505b506001600160a01b0381358116916020810135916040909101351661210c565b348015610faf57600080610fac6122e0565b50505b506106ff61216f565b348015610fcd57600080610fca6122e0565b50505b5061054961217b565b348015610feb57600080610fe86122e0565b50505b506105496004803603602081101561100b576000806110086122e0565b50505b50356121bb565b348015611027576000806110246122e0565b50505b506104f9612204565b60018061103b61234b565b600181600116156101000203166002900480601f01602080910402602001604051908101604052818152919060208301828061107561234b565b600181600116156101000203166002900480156110e15780601f106110af5761010080836110a161234b565b0402835291602001916110e1565b820191906000526020600020905b816110c661234b565b815290600101906020018083116110bd57829003601f168201915b505050505081565b6060611110600060126110fa61234b565b906101000a90046001600160a01b031683612209565b92915050565b6000606061116d84846040516001600160a01b0390921660248301526044820152606401604051601f1981830301815260409190915263095ea7b360e01b6020820180516001600160e01b031690911790526110e9565b9050602081018151602081101561118c576000806111896122e0565b50505b810190808051979650505050505050565b600060606111e6836040516024810191909152604401604051601f1981830301815260409190915263073a938160e11b6020820180516001600160e01b031690911790526110e9565b90506020810181516020811015611205576000806112026122e0565b50505b8101908080519695505050505050565b600861121f61234b565b81565b600060606111e6836040516001600160a01b039091166024820152604401604051601f198183030181526040919091526305eff7ef60e21b6020820180516001600160e01b031690911790526110e9565b600d61121f61234b565b600060606112bd604051602401604051601f1981830301815260409190915263182df0f560e01b6020820180516001600160e01b03169091179052611539565b905060208101815160208110156112dc576000806112d96122e0565b50505b81019080805194505050505090565b611337816040516001600160a01b039091166024820152604401604051601f1981830301815260409190915262df0cab60e51b6020820180516001600160e01b031690911790526110e9565b5050565b6000606061139f8585856040516001600160a01b0393841660248201529190921660448201526064810191909152608401604051601f198183030181526040919091526323b872dd60e01b6020820180516001600160e01b031690911790526110e9565b905060208101815160208110156113be576000806113bb6122e0565b50505b81019080805198975050505050505050565b6000606061116d84846040516001600160a01b0390921660248301526044820152606401604051601f198183030181526040919091526304c11f0360e31b6020820180516001600160e01b031690911790526110e9565b6000600461143361234b565b906101000a90046001600160a01b031681565b6000600361145261234b565b906101000a900460ff1681565b600060606111e6836040516001600160a01b039091166024820152604401604051601f19818303018152604091909152633af9e66960e01b6020820180516001600160e01b031690911790526110e9565b600060606112bd604051602401604051601f19818303018152604091909152631d8e90d160e11b6020820180516001600160e01b03169091179052611539565b600060606111e6836040516024810191909152604401604051601f198183030181526040919091526303e9410160e41b6020820180516001600160e01b031690911790526110e9565b6060600060605a63996d79a5598160e01b8152602081600483336000905af158601d01573d60011458600c01573d6000803e3d621234565260ea61109c528051925060005b60408110156115955760008282015260200161157e565b5050506001600160a01b0316846040516024018080602001828103825283818151815260200191508051906020019080838360005b838110156115e25780820151838201526020016115ca565b50505050905090810190601f16801561160f5780820380516001836020036101000a031916815260200191505b5092505050604051601f19818303018152604091909152630933c1ed60e01b6020820180516001600160e01b031690911790526040518082805190602001908083835b602083106116715780518252601f199092019160209182019101611652565b6001836020036101000a038019825116818451168082178552505050505050905001915050600060405180830381855a6116a961245b565b50505050509150503d80600081146116dd576040513d603f01601f191681016040523d815291503d6000602084013e6116e2565b606091505b50915091506000821415611700573d602082016116fd6122e0565b50505b602081018151602081101561171d5760008061171a6122e0565b50505b8101908080516040519392919084600160201b821115611745576000806117426122e0565b50505b908301906020820185811115611763576000806117606122e0565b50505b8251600160201b811182820188101715611785576000806117826122e0565b50505b825250602001908051906020019080838360005b838110156117b1578082015183820152602001611799565b50505050905090810190601f1680156117de5780820380516001836020036101000a031916815260200191505b5060405250505092505050919050565b600060606111e6836040516001600160a01b039091166024820152604401604051601f19818303018152604091909152634576b5db60e01b6020820180516001600160e01b031690911790526110e9565b600b61121f61234b565b6001600361185561234b565b906101000a90046001600160a01b03166001600160a01b03165a61187761249e565b6001600160a01b0316146118c55760405162461bcd60e51b815260040180806020018281038252603981526020018061256a60399139604001915050604051809103906118c26122e0565b50505b811561190957611907604051602401604051601f1981830301815260409190915263153ab50560e01b6020820180516001600160e01b031690911790526110e9565b505b600080601261191661234b565b906101000a90046001600160a01b0316905083601260006101000a8161193a61234b565b816001600160a01b0302191690836001600160a01b031602179061195c6124e4565b505050611a08826040516024018080602001828103825283818151815260200191508051906020019080838360005b838110156119a357808201518382015260200161198b565b50505050905090810190601f1680156119d05780820380516001836020036101000a031916815260200191505b5092505050604051601f19818303018152604091909152630adccee560e31b6020820180516001600160e01b031690911790526110e9565b507fd604de94d45953f9138079ec1b82d533cb2160c906d1076d1f7ed54befbca97a8160006012611a3761234b565b906101000a90046001600160a01b03166040516001600160a01b039283168152911660208201526040908101905180910390a150505050565b6000601261143361234b565b6000600561143361234b565b600060606111e6836040516024810191909152604401604051601f1981830301815260409190915263601a0bf160e01b6020820180516001600160e01b031690911790526110e9565b600961121f61234b565b6000601161143361234b565b600060606111e6836040516001600160a01b039091166024820152604401604051601f198183030181526040919091526370a0823160e01b6020820180516001600160e01b03169091179052611539565b600060606112bd604051602401604051601f19818303018152604091909152630e759dd360e31b6020820180516001600160e01b031690911790526110e9565b600060606111e6836040516024810191909152604401604051601f1981830301815260409190915263852a12e360e01b6020820180516001600160e01b031690911790526110e9565b600c61121f61234b565b600280611bd661234b565b600181600116156101000203166002900480601f016020809104026020016040519081016040528181529190602083018280611c1061234b565b600181600116156101000203166002900480156110e15780601f10611c3c5761010080836110a161234b565b820191906000526020600020905b81611c5361234b565b81529060010190602001808311611c4a5750859350505050565b600060606111e6836040516001600160a01b039091166024820152604401604051601f198183030181526040919091526395dd919360e01b6020820180516001600160e01b03169091179052611539565b600060606111e6836040516024810191909152604401604051601f1981830301815260409190915263140e25ad60e31b6020820180516001600160e01b031690911790526110e9565b600060606112bd604051602401604051601f1981830301815260409190915263a6afed9560e01b6020820180516001600160e01b031690911790526110e9565b6000606061116d84846040516001600160a01b0390921660248301526044820152606401604051601f1981830301815260409190915263a9059cbb60e01b6020820180516001600160e01b031690911790526110e9565b600a61121f61234b565b600060606112bd604051602401604051601f19818303018152604091909152630ae9d70b60e41b6020820180516001600160e01b03169091179052611539565b6000606061139f8585856040516001600160a01b0393841660248201529190921660448201526064810191909152608401604051601f1981830301815260409190915263b2a02ff160e01b6020820180516001600160e01b031690911790526110e9565b600060606111e6836040516001600160a01b039091166024820152604401604051601f19818303018152604091909152632dc7468360e21b6020820180516001600160e01b031690911790526110e9565b600060606112bd604051602401604051601f1981830301815260409190915263bd6d894d60e01b6020820180516001600160e01b031690911790526110e9565b6000806000806060611f32866040516001600160a01b039091166024820152604401604051601f198183030181526040919091526361bfb47160e11b6020820180516001600160e01b03169091179052611539565b90506020810181516080811015611f5157600080611f4e6122e0565b50505b810190808051929190602001805192919060200180519291906020018051959c949b509299509397509195505050505050565b600060606111e6836040516024810191909152604401604051601f1981830301815260409190915263317afabb60e21b6020820180516001600160e01b031690911790526110e9565b600060606111e6836040516024810191909152604401604051601f1981830301815260409190915263db006a7560e01b6020820180516001600160e01b031690911790526110e9565b6000606061116d84846040516001600160a01b03928316602482015291166044820152606401604051601f19818303018152604091909152636eb1769f60e11b6020820180516001600160e01b03169091179052611539565b600060606112bd604051602401604051601f198183030181526040919091526374e38a7960e11b6020820180516001600160e01b031690911790526110e9565b600060606111e6836040516001600160a01b039091166024820152604401604051601f1981830301815260409190915263f2b3abbd60e01b6020820180516001600160e01b031690911790526110e9565b6000600661143361234b565b6000606061139f8585856040516001600160a01b03938416602482015260448101929092529091166064820152608401604051601f19818303018152604091909152637af1e23160e11b6020820180516001600160e01b031690911790526110e9565b6001600361143361234b565b600060606112bd604051602401604051601f19818303018152604091909152631f1f3b4560e31b6020820180516001600160e01b03169091179052611539565b600060606111e6836040516024810191909152604401604051601f1981830301815260409190915263fca7820b60e01b6020820180516001600160e01b031690911790526110e9565b600181565b606060006060846001600160a01b0316846040518082805190602001908083835b602083106122495780518252601f19909201916020918201910161222a565b6001836020036101000a038019825116818451168082178552505050505050905001915050600060405180830381855a6122816123ab565b50505050509150503d80600081146122b5576040513d603f01601f191681016040523d815291503d6000602084013e6122ba565b606091505b509150915060008214156122d8573d602082016122d56122e0565b50505b949350505050565b632a2a7adb598160e01b8152600481016020815285602082015260005b868110156123185780860151828201604001526020016122fd565b506020828760640184336000905af158601d01573d60011458600c01573d6000803e3d621234565260ea61109c52505050565b6303daa959598160e01b8152836004820152602081602483336000905af158601d01573d60011458600c01573d6000803e3d621234565260ea61109c528051935060005b60408110156123a65760008282015260200161238f565b505050565b63ffe73914598160e01b8152836004820152846024820152606060448201528660648201526084810160005b888110156123ef5780880151828201526020016123d7565b506060828960a40184336000905af158601d01573d60011458600c01573d6000803e3d621234565260ea61109c52815160408301513d6000853e8b8b82606087013350600060045af15059845b81811015612450576000815260200161243c565b50919b505050505050565b638540661f598160e01b815283600482015284602482015260606044820152866064820152608481016000888110156123ef5780880151828201526020016123d7565b6373509064598160e01b8152602081600483336000905af158601d01573d60011458600c01573d6000803e3d621234565260ea61109c528051600082529350602061238f565b6322bd64c0598160e01b8152836004820152846024820152600081604483336000905af158601d01573d60011458600c01573d6000803e3d621234565260ea61109c5260008152602061238f56fe43457263323044656c656761746f723a66616c6c6261636b3a2063616e6e6f742073656e642076616c756520746f2066616c6c6261636b43457263323044656c656761746f723a3a5f736574496d706c656d656e746174696f6e3a2043616c6c6572206d7573742062652061646d696e",
  "source": "pragma solidity ^0.5.16;\n\nimport \"./CTokenInterfaces.sol\";\n\n/**\n * @title Compound's CErc20Delegator Contract\n * @notice CTokens which wrap an EIP-20 underlying and delegate to an implementation\n * @author Compound\n */\ncontract CErc20Delegator is CTokenInterface, CErc20Interface, CDelegatorInterface {\n    /**\n     * @notice Construct a new money market\n     * @param underlying_ The address of the underlying asset\n     * @param comptroller_ The address of the Comptroller\n     * @param interestRateModel_ The address of the interest rate model\n     * @param initialExchangeRateMantissa_ The initial exchange rate, scaled by 1e18\n     * @param name_ ERC-20 name of this token\n     * @param symbol_ ERC-20 symbol of this token\n     * @param decimals_ ERC-20 decimal precision of this token\n     * @param admin_ Address of the administrator of this token\n     * @param implementation_ The address of the implementation the contract delegates to\n     * @param becomeImplementationData The encoded args for becomeImplementation\n     */\n    constructor(address underlying_,\n                ComptrollerInterface comptroller_,\n                InterestRateModel interestRateModel_,\n                uint initialExchangeRateMantissa_,\n                string memory name_,\n                string memory symbol_,\n                uint8 decimals_,\n                address payable admin_,\n                address implementation_,\n                bytes memory becomeImplementationData) public {\n        // Creator of the contract is admin during initialization\n        admin = msg.sender;\n\n        // First delegate gets to initialize the delegator (i.e. storage contract)\n        delegateTo(implementation_, abi.encodeWithSignature(\"initialize(address,address,address,uint256,string,string,uint8)\",\n                                                            underlying_,\n                                                            comptroller_,\n                                                            interestRateModel_,\n                                                            initialExchangeRateMantissa_,\n                                                            name_,\n                                                            symbol_,\n                                                            decimals_));\n\n        // New implementations always get set via the settor (post-initialize)\n        _setImplementation(implementation_, false, becomeImplementationData);\n\n        // Set the proper admin now that initialization is done\n        admin = admin_;\n    }\n\n    /**\n     * @notice Called by the admin to update the implementation of the delegator\n     * @param implementation_ The address of the new implementation for delegation\n     * @param allowResign Flag to indicate whether to call _resignImplementation on the old implementation\n     * @param becomeImplementationData The encoded bytes data to be passed to _becomeImplementation\n     */\n    function _setImplementation(address implementation_, bool allowResign, bytes memory becomeImplementationData) public {\n        require(msg.sender == admin, \"CErc20Delegator::_setImplementation: Caller must be admin\");\n\n        if (allowResign) {\n            delegateToImplementation(abi.encodeWithSignature(\"_resignImplementation()\"));\n        }\n\n        address oldImplementation = implementation;\n        implementation = implementation_;\n\n        delegateToImplementation(abi.encodeWithSignature(\"_becomeImplementation(bytes)\", becomeImplementationData));\n\n        emit NewImplementation(oldImplementation, implementation);\n    }\n\n    /**\n     * @notice Sender supplies assets into the market and receives cTokens in exchange\n     * @dev Accrues interest whether or not the operation succeeds, unless reverted\n     * @param mintAmount The amount of the underlying asset to supply\n     * @return uint 0=success, otherwise a failure (see ErrorReporter.sol for details)\n     */\n    function mint(uint mintAmount) external returns (uint) {\n        bytes memory data = delegateToImplementation(abi.encodeWithSignature(\"mint(uint256)\", mintAmount));\n        return abi.decode(data, (uint));\n    }\n\n    /**\n     * @notice Sender redeems cTokens in exchange for the underlying asset\n     * @dev Accrues interest whether or not the operation succeeds, unless reverted\n     * @param redeemTokens The number of cTokens to redeem into underlying\n     * @return uint 0=success, otherwise a failure (see ErrorReporter.sol for details)\n     */\n    function redeem(uint redeemTokens) external returns (uint) {\n        bytes memory data = delegateToImplementation(abi.encodeWithSignature(\"redeem(uint256)\", redeemTokens));\n        return abi.decode(data, (uint));\n    }\n\n    /**\n     * @notice Sender redeems cTokens in exchange for a specified amount of underlying asset\n     * @dev Accrues interest whether or not the operation succeeds, unless reverted\n     * @param redeemAmount The amount of underlying to redeem\n     * @return uint 0=success, otherwise a failure (see ErrorReporter.sol for details)\n     */\n    function redeemUnderlying(uint redeemAmount) external returns (uint) {\n        bytes memory data = delegateToImplementation(abi.encodeWithSignature(\"redeemUnderlying(uint256)\", redeemAmount));\n        return abi.decode(data, (uint));\n    }\n\n    /**\n      * @notice Sender borrows assets from the protocol to their own address\n      * @param borrowAmount The amount of the underlying asset to borrow\n      * @return uint 0=success, otherwise a failure (see ErrorReporter.sol for details)\n      */\n    function borrow(uint borrowAmount) external returns (uint) {\n        bytes memory data = delegateToImplementation(abi.encodeWithSignature(\"borrow(uint256)\", borrowAmount));\n        return abi.decode(data, (uint));\n    }\n\n    /**\n     * @notice Sender repays their own borrow\n     * @param repayAmount The amount to repay\n     * @return uint 0=success, otherwise a failure (see ErrorReporter.sol for details)\n     */\n    function repayBorrow(uint repayAmount) external returns (uint) {\n        bytes memory data = delegateToImplementation(abi.encodeWithSignature(\"repayBorrow(uint256)\", repayAmount));\n        return abi.decode(data, (uint));\n    }\n\n    /**\n     * @notice Sender repays a borrow belonging to borrower\n     * @param borrower the account with the debt being payed off\n     * @param repayAmount The amount to repay\n     * @return uint 0=success, otherwise a failure (see ErrorReporter.sol for details)\n     */\n    function repayBorrowBehalf(address borrower, uint repayAmount) external returns (uint) {\n        bytes memory data = delegateToImplementation(abi.encodeWithSignature(\"repayBorrowBehalf(address,uint256)\", borrower, repayAmount));\n        return abi.decode(data, (uint));\n    }\n\n    /**\n     * @notice The sender liquidates the borrowers collateral.\n     *  The collateral seized is transferred to the liquidator.\n     * @param borrower The borrower of this cToken to be liquidated\n     * @param cTokenCollateral The market in which to seize collateral from the borrower\n     * @param repayAmount The amount of the underlying borrowed asset to repay\n     * @return uint 0=success, otherwise a failure (see ErrorReporter.sol for details)\n     */\n    function liquidateBorrow(address borrower, uint repayAmount, CTokenInterface cTokenCollateral) external returns (uint) {\n        bytes memory data = delegateToImplementation(abi.encodeWithSignature(\"liquidateBorrow(address,uint256,address)\", borrower, repayAmount, cTokenCollateral));\n        return abi.decode(data, (uint));\n    }\n\n    /**\n     * @notice Transfer `amount` tokens from `msg.sender` to `dst`\n     * @param dst The address of the destination account\n     * @param amount The number of tokens to transfer\n     * @return Whether or not the transfer succeeded\n     */\n    function transfer(address dst, uint amount) external returns (bool) {\n        bytes memory data = delegateToImplementation(abi.encodeWithSignature(\"transfer(address,uint256)\", dst, amount));\n        return abi.decode(data, (bool));\n    }\n\n    /**\n     * @notice Transfer `amount` tokens from `src` to `dst`\n     * @param src The address of the source account\n     * @param dst The address of the destination account\n     * @param amount The number of tokens to transfer\n     * @return Whether or not the transfer succeeded\n     */\n    function transferFrom(address src, address dst, uint256 amount) external returns (bool) {\n        bytes memory data = delegateToImplementation(abi.encodeWithSignature(\"transferFrom(address,address,uint256)\", src, dst, amount));\n        return abi.decode(data, (bool));\n    }\n\n    /**\n     * @notice Approve `spender` to transfer up to `amount` from `src`\n     * @dev This will overwrite the approval amount for `spender`\n     *  and is subject to issues noted [here](https://eips.ethereum.org/EIPS/eip-20#approve)\n     * @param spender The address of the account which may transfer tokens\n     * @param amount The number of tokens that are approved (-1 means infinite)\n     * @return Whether or not the approval succeeded\n     */\n    function approve(address spender, uint256 amount) external returns (bool) {\n        bytes memory data = delegateToImplementation(abi.encodeWithSignature(\"approve(address,uint256)\", spender, amount));\n        return abi.decode(data, (bool));\n    }\n\n    /**\n     * @notice Get the current allowance from `owner` for `spender`\n     * @param owner The address of the account which owns the tokens to be spent\n     * @param spender The address of the account which may transfer tokens\n     * @return The number of tokens allowed to be spent (-1 means infinite)\n     */\n    function allowance(address owner, address spender) external view returns (uint) {\n        bytes memory data = delegateToViewImplementation(abi.encodeWithSignature(\"allowance(address,address)\", owner, spender));\n        return abi.decode(data, (uint));\n    }\n\n    /**\n     * @notice Get the token balance of the `owner`\n     * @param owner The address of the account to query\n     * @return The number of tokens owned by `owner`\n     */\n    function balanceOf(address owner) external view returns (uint) {\n        bytes memory data = delegateToViewImplementation(abi.encodeWithSignature(\"balanceOf(address)\", owner));\n        return abi.decode(data, (uint));\n    }\n\n    /**\n     * @notice Get the underlying balance of the `owner`\n     * @dev This also accrues interest in a transaction\n     * @param owner The address of the account to query\n     * @return The amount of underlying owned by `owner`\n     */\n    function balanceOfUnderlying(address owner) external returns (uint) {\n        bytes memory data = delegateToImplementation(abi.encodeWithSignature(\"balanceOfUnderlying(address)\", owner));\n        return abi.decode(data, (uint));\n    }\n\n    /**\n     * @notice Get a snapshot of the account's balances, and the cached exchange rate\n     * @dev This is used by comptroller to more efficiently perform liquidity checks.\n     * @param account Address of the account to snapshot\n     * @return (possible error, token balance, borrow balance, exchange rate mantissa)\n     */\n    function getAccountSnapshot(address account) external view returns (uint, uint, uint, uint) {\n        bytes memory data = delegateToViewImplementation(abi.encodeWithSignature(\"getAccountSnapshot(address)\", account));\n        return abi.decode(data, (uint, uint, uint, uint));\n    }\n\n    /**\n     * @notice Returns the current per-block borrow interest rate for this cToken\n     * @return The borrow interest rate per block, scaled by 1e18\n     */\n    function borrowRatePerBlock() external view returns (uint) {\n        bytes memory data = delegateToViewImplementation(abi.encodeWithSignature(\"borrowRatePerBlock()\"));\n        return abi.decode(data, (uint));\n    }\n\n    /**\n     * @notice Returns the current per-block supply interest rate for this cToken\n     * @return The supply interest rate per block, scaled by 1e18\n     */\n    function supplyRatePerBlock() external view returns (uint) {\n        bytes memory data = delegateToViewImplementation(abi.encodeWithSignature(\"supplyRatePerBlock()\"));\n        return abi.decode(data, (uint));\n    }\n\n    /**\n     * @notice Returns the current total borrows plus accrued interest\n     * @return The total borrows with interest\n     */\n    function totalBorrowsCurrent() external returns (uint) {\n        bytes memory data = delegateToImplementation(abi.encodeWithSignature(\"totalBorrowsCurrent()\"));\n        return abi.decode(data, (uint));\n    }\n\n    /**\n     * @notice Accrue interest to updated borrowIndex and then calculate account's borrow balance using the updated borrowIndex\n     * @param account The address whose balance should be calculated after updating borrowIndex\n     * @return The calculated balance\n     */\n    function borrowBalanceCurrent(address account) external returns (uint) {\n        bytes memory data = delegateToImplementation(abi.encodeWithSignature(\"borrowBalanceCurrent(address)\", account));\n        return abi.decode(data, (uint));\n    }\n\n    /**\n     * @notice Return the borrow balance of account based on stored data\n     * @param account The address whose balance should be calculated\n     * @return The calculated balance\n     */\n    function borrowBalanceStored(address account) public view returns (uint) {\n        bytes memory data = delegateToViewImplementation(abi.encodeWithSignature(\"borrowBalanceStored(address)\", account));\n        return abi.decode(data, (uint));\n    }\n\n   /**\n     * @notice Accrue interest then return the up-to-date exchange rate\n     * @return Calculated exchange rate scaled by 1e18\n     */\n    function exchangeRateCurrent() public returns (uint) {\n        bytes memory data = delegateToImplementation(abi.encodeWithSignature(\"exchangeRateCurrent()\"));\n        return abi.decode(data, (uint));\n    }\n\n    /**\n     * @notice Calculates the exchange rate from the underlying to the CToken\n     * @dev This function does not accrue interest before calculating the exchange rate\n     * @return Calculated exchange rate scaled by 1e18\n     */\n    function exchangeRateStored() public view returns (uint) {\n        bytes memory data = delegateToViewImplementation(abi.encodeWithSignature(\"exchangeRateStored()\"));\n        return abi.decode(data, (uint));\n    }\n\n    /**\n     * @notice Get cash balance of this cToken in the underlying asset\n     * @return The quantity of underlying asset owned by this contract\n     */\n    function getCash() external view returns (uint) {\n        bytes memory data = delegateToViewImplementation(abi.encodeWithSignature(\"getCash()\"));\n        return abi.decode(data, (uint));\n    }\n\n    /**\n      * @notice Applies accrued interest to total borrows and reserves.\n      * @dev This calculates interest accrued from the last checkpointed block\n      *      up to the current block and writes new checkpoint to storage.\n      */\n    function accrueInterest() public returns (uint) {\n        bytes memory data = delegateToImplementation(abi.encodeWithSignature(\"accrueInterest()\"));\n        return abi.decode(data, (uint));\n    }\n\n    /**\n     * @notice Transfers collateral tokens (this market) to the liquidator.\n     * @dev Will fail unless called by another cToken during the process of liquidation.\n     *  Its absolutely critical to use msg.sender as the borrowed cToken and not a parameter.\n     * @param liquidator The account receiving seized collateral\n     * @param borrower The account having collateral seized\n     * @param seizeTokens The number of cTokens to seize\n     * @return uint 0=success, otherwise a failure (see ErrorReporter.sol for details)\n     */\n    function seize(address liquidator, address borrower, uint seizeTokens) external returns (uint) {\n        bytes memory data = delegateToImplementation(abi.encodeWithSignature(\"seize(address,address,uint256)\", liquidator, borrower, seizeTokens));\n        return abi.decode(data, (uint));\n    }\n\n    /**\n     * @notice A public function to sweep accidental ERC-20 transfers to this contract. Tokens are sent to admin (timelock)\n     * @param token The address of the ERC-20 token to sweep\n     */\n    function sweepToken(EIP20NonStandardInterface token) external {\n        delegateToImplementation(abi.encodeWithSignature(\"sweepToken(address)\", token));\n    }\n\n\n    /*** Admin Functions ***/\n\n    /**\n      * @notice Begins transfer of admin rights. The newPendingAdmin must call `_acceptAdmin` to finalize the transfer.\n      * @dev Admin function to begin change of admin. The newPendingAdmin must call `_acceptAdmin` to finalize the transfer.\n      * @param newPendingAdmin New pending admin.\n      * @return uint 0=success, otherwise a failure (see ErrorReporter.sol for details)\n      */\n    function _setPendingAdmin(address payable newPendingAdmin) external returns (uint) {\n        bytes memory data = delegateToImplementation(abi.encodeWithSignature(\"_setPendingAdmin(address)\", newPendingAdmin));\n        return abi.decode(data, (uint));\n    }\n\n    /**\n      * @notice Sets a new comptroller for the market\n      * @dev Admin function to set a new comptroller\n      * @return uint 0=success, otherwise a failure (see ErrorReporter.sol for details)\n      */\n    function _setComptroller(ComptrollerInterface newComptroller) public returns (uint) {\n        bytes memory data = delegateToImplementation(abi.encodeWithSignature(\"_setComptroller(address)\", newComptroller));\n        return abi.decode(data, (uint));\n    }\n\n    /**\n      * @notice accrues interest and sets a new reserve factor for the protocol using _setReserveFactorFresh\n      * @dev Admin function to accrue interest and set a new reserve factor\n      * @return uint 0=success, otherwise a failure (see ErrorReporter.sol for details)\n      */\n    function _setReserveFactor(uint newReserveFactorMantissa) external returns (uint) {\n        bytes memory data = delegateToImplementation(abi.encodeWithSignature(\"_setReserveFactor(uint256)\", newReserveFactorMantissa));\n        return abi.decode(data, (uint));\n    }\n\n    /**\n      * @notice Accepts transfer of admin rights. msg.sender must be pendingAdmin\n      * @dev Admin function for pending admin to accept role and update admin\n      * @return uint 0=success, otherwise a failure (see ErrorReporter.sol for details)\n      */\n    function _acceptAdmin() external returns (uint) {\n        bytes memory data = delegateToImplementation(abi.encodeWithSignature(\"_acceptAdmin()\"));\n        return abi.decode(data, (uint));\n    }\n\n    /**\n     * @notice Accrues interest and adds reserves by transferring from admin\n     * @param addAmount Amount of reserves to add\n     * @return uint 0=success, otherwise a failure (see ErrorReporter.sol for details)\n     */\n    function _addReserves(uint addAmount) external returns (uint) {\n        bytes memory data = delegateToImplementation(abi.encodeWithSignature(\"_addReserves(uint256)\", addAmount));\n        return abi.decode(data, (uint));\n    }\n\n    /**\n     * @notice Accrues interest and reduces reserves by transferring to admin\n     * @param reduceAmount Amount of reduction to reserves\n     * @return uint 0=success, otherwise a failure (see ErrorReporter.sol for details)\n     */\n    function _reduceReserves(uint reduceAmount) external returns (uint) {\n        bytes memory data = delegateToImplementation(abi.encodeWithSignature(\"_reduceReserves(uint256)\", reduceAmount));\n        return abi.decode(data, (uint));\n    }\n\n    /**\n     * @notice Accrues interest and updates the interest rate model using _setInterestRateModelFresh\n     * @dev Admin function to accrue interest and update the interest rate model\n     * @param newInterestRateModel the new interest rate model to use\n     * @return uint 0=success, otherwise a failure (see ErrorReporter.sol for details)\n     */\n    function _setInterestRateModel(InterestRateModel newInterestRateModel) public returns (uint) {\n        bytes memory data = delegateToImplementation(abi.encodeWithSignature(\"_setInterestRateModel(address)\", newInterestRateModel));\n        return abi.decode(data, (uint));\n    }\n\n    /**\n     * @notice Internal method to delegate execution to another contract\n     * @dev It returns to the external caller whatever the implementation returns or forwards reverts\n     * @param callee The contract to delegatecall\n     * @param data The raw data to delegatecall\n     * @return The returned bytes from the delegatecall\n     */\n    function delegateTo(address callee, bytes memory data) internal returns (bytes memory) {\n        (bool success, bytes memory returnData) = callee.delegatecall(data);\n        assembly {\n            if eq(success, 0) {\n                revert(add(returnData, 0x20), returndatasize)\n            }\n        }\n        return returnData;\n    }\n\n    /**\n     * @notice Delegates execution to the implementation contract\n     * @dev It returns to the external caller whatever the implementation returns or forwards reverts\n     * @param data The raw data to delegatecall\n     * @return The returned bytes from the delegatecall\n     */\n    function delegateToImplementation(bytes memory data) public returns (bytes memory) {\n        return delegateTo(implementation, data);\n    }\n\n    /**\n     * @notice Delegates execution to an implementation contract\n     * @dev It returns to the external caller whatever the implementation returns or forwards reverts\n     *  There are an additional 2 prefix uints from the wrapper returndata, which we ignore since we make an extra hop.\n     * @param data The raw data to delegatecall\n     * @return The returned bytes from the delegatecall\n     */\n    function delegateToViewImplementation(bytes memory data) public view returns (bytes memory) {\n        (bool success, bytes memory returnData) = address(this).staticcall(abi.encodeWithSignature(\"delegateToImplementation(bytes)\", data));\n        assembly {\n            if eq(success, 0) {\n                revert(add(returnData, 0x20), returndatasize)\n            }\n        }\n        return abi.decode(returnData, (bytes));\n    }\n\n    /**\n     * @notice Delegates execution to an implementation contract\n     * @dev It returns to the external caller whatever the implementation returns or forwards reverts\n     */\n    function () external payable {\n        require(msg.value == 0,\"CErc20Delegator:fallback: cannot send value to fallback\");\n\n        // delegate all other functions to current implementation\n        (bool success, ) = implementation.delegatecall(msg.data);\n\n        assembly {\n            let free_mem_ptr := mload(0x40)\n            returndatacopy(free_mem_ptr, 0, returndatasize)\n\n            switch success\n            case 0 { revert(free_mem_ptr, returndatasize) }\n            default { return(free_mem_ptr, returndatasize) }\n        }\n    }\n}\n",
  "sourcePath": "/Users/jesusmeza/Developer/omgx/snapshot-optimism/omgx_examples/compound-protocol/contracts/CErc20Delegator.sol",
  "compiler": {
    "name": "solc",
    "version": "0.5.16"
  },
  "schemaVersion": "3.4.3",
  "updatedAt": "2021-08-25T22:25:24.253Z",
  "devdoc": {
    "author": "Compound",
    "methods": {
      "_acceptAdmin()": {
        "details": "Admin function for pending admin to accept role and update admin",
        "return": "uint 0=success, otherwise a failure (see ErrorReporter.sol for details)"
      },
      "_addReserves(uint256)": {
        "params": {
          "addAmount": "Amount of reserves to add"
        },
        "return": "uint 0=success, otherwise a failure (see ErrorReporter.sol for details)"
      },
      "_reduceReserves(uint256)": {
        "params": {
          "reduceAmount": "Amount of reduction to reserves"
        },
        "return": "uint 0=success, otherwise a failure (see ErrorReporter.sol for details)"
      },
      "_setComptroller(address)": {
        "details": "Admin function to set a new comptroller",
        "return": "uint 0=success, otherwise a failure (see ErrorReporter.sol for details)"
      },
      "_setImplementation(address,bool,bytes)": {
        "params": {
          "allowResign": "Flag to indicate whether to call _resignImplementation on the old implementation",
          "becomeImplementationData": "The encoded bytes data to be passed to _becomeImplementation",
          "implementation_": "The address of the new implementation for delegation"
        }
      },
      "_setInterestRateModel(address)": {
        "details": "Admin function to accrue interest and update the interest rate model",
        "params": {
          "newInterestRateModel": "the new interest rate model to use"
        },
        "return": "uint 0=success, otherwise a failure (see ErrorReporter.sol for details)"
      },
      "_setPendingAdmin(address)": {
        "details": "Admin function to begin change of admin. The newPendingAdmin must call `_acceptAdmin` to finalize the transfer.",
        "params": {
          "newPendingAdmin": "New pending admin."
        },
        "return": "uint 0=success, otherwise a failure (see ErrorReporter.sol for details)"
      },
      "_setReserveFactor(uint256)": {
        "details": "Admin function to accrue interest and set a new reserve factor",
        "return": "uint 0=success, otherwise a failure (see ErrorReporter.sol for details)"
      },
      "accrueInterest()": {
        "details": "This calculates interest accrued from the last checkpointed block     up to the current block and writes new checkpoint to storage."
      },
      "allowance(address,address)": {
        "params": {
          "owner": "The address of the account which owns the tokens to be spent",
          "spender": "The address of the account which may transfer tokens"
        },
        "return": "The number of tokens allowed to be spent (-1 means infinite)"
      },
      "approve(address,uint256)": {
        "details": "This will overwrite the approval amount for `spender` and is subject to issues noted [here](https://eips.ethereum.org/EIPS/eip-20#approve)",
        "params": {
          "amount": "The number of tokens that are approved (-1 means infinite)",
          "spender": "The address of the account which may transfer tokens"
        },
        "return": "Whether or not the approval succeeded"
      },
      "balanceOf(address)": {
        "params": {
          "owner": "The address of the account to query"
        },
        "return": "The number of tokens owned by `owner`"
      },
      "balanceOfUnderlying(address)": {
        "details": "This also accrues interest in a transaction",
        "params": {
          "owner": "The address of the account to query"
        },
        "return": "The amount of underlying owned by `owner`"
      },
      "borrow(uint256)": {
        "params": {
          "borrowAmount": "The amount of the underlying asset to borrow"
        },
        "return": "uint 0=success, otherwise a failure (see ErrorReporter.sol for details)"
      },
      "borrowBalanceCurrent(address)": {
        "params": {
          "account": "The address whose balance should be calculated after updating borrowIndex"
        },
        "return": "The calculated balance"
      },
      "borrowBalanceStored(address)": {
        "params": {
          "account": "The address whose balance should be calculated"
        },
        "return": "The calculated balance"
      },
      "borrowRatePerBlock()": {
        "return": "The borrow interest rate per block, scaled by 1e18"
      },
      "constructor": {
        "params": {
          "admin_": "Address of the administrator of this token",
          "becomeImplementationData": "The encoded args for becomeImplementation",
          "comptroller_": "The address of the Comptroller",
          "decimals_": "ERC-20 decimal precision of this token",
          "implementation_": "The address of the implementation the contract delegates to",
          "initialExchangeRateMantissa_": "The initial exchange rate, scaled by 1e18",
          "interestRateModel_": "The address of the interest rate model",
          "name_": "ERC-20 name of this token",
          "symbol_": "ERC-20 symbol of this token",
          "underlying_": "The address of the underlying asset"
        }
      },
      "delegateToImplementation(bytes)": {
        "details": "It returns to the external caller whatever the implementation returns or forwards reverts",
        "params": {
          "data": "The raw data to delegatecall"
        },
        "return": "The returned bytes from the delegatecall"
      },
      "delegateToViewImplementation(bytes)": {
        "details": "It returns to the external caller whatever the implementation returns or forwards reverts There are an additional 2 prefix uints from the wrapper returndata, which we ignore since we make an extra hop.",
        "params": {
          "data": "The raw data to delegatecall"
        },
        "return": "The returned bytes from the delegatecall"
      },
      "exchangeRateCurrent()": {
        "return": "Calculated exchange rate scaled by 1e18"
      },
      "exchangeRateStored()": {
        "details": "This function does not accrue interest before calculating the exchange rate",
        "return": "Calculated exchange rate scaled by 1e18"
      },
      "getAccountSnapshot(address)": {
        "details": "This is used by comptroller to more efficiently perform liquidity checks.",
        "params": {
          "account": "Address of the account to snapshot"
        },
        "return": "(possible error, token balance, borrow balance, exchange rate mantissa)"
      },
      "getCash()": {
        "return": "The quantity of underlying asset owned by this contract"
      },
      "liquidateBorrow(address,uint256,address)": {
        "params": {
          "borrower": "The borrower of this cToken to be liquidated",
          "cTokenCollateral": "The market in which to seize collateral from the borrower",
          "repayAmount": "The amount of the underlying borrowed asset to repay"
        },
        "return": "uint 0=success, otherwise a failure (see ErrorReporter.sol for details)"
      },
      "mint(uint256)": {
        "details": "Accrues interest whether or not the operation succeeds, unless reverted",
        "params": {
          "mintAmount": "The amount of the underlying asset to supply"
        },
        "return": "uint 0=success, otherwise a failure (see ErrorReporter.sol for details)"
      },
      "redeem(uint256)": {
        "details": "Accrues interest whether or not the operation succeeds, unless reverted",
        "params": {
          "redeemTokens": "The number of cTokens to redeem into underlying"
        },
        "return": "uint 0=success, otherwise a failure (see ErrorReporter.sol for details)"
      },
      "redeemUnderlying(uint256)": {
        "details": "Accrues interest whether or not the operation succeeds, unless reverted",
        "params": {
          "redeemAmount": "The amount of underlying to redeem"
        },
        "return": "uint 0=success, otherwise a failure (see ErrorReporter.sol for details)"
      },
      "repayBorrow(uint256)": {
        "params": {
          "repayAmount": "The amount to repay"
        },
        "return": "uint 0=success, otherwise a failure (see ErrorReporter.sol for details)"
      },
      "repayBorrowBehalf(address,uint256)": {
        "params": {
          "borrower": "the account with the debt being payed off",
          "repayAmount": "The amount to repay"
        },
        "return": "uint 0=success, otherwise a failure (see ErrorReporter.sol for details)"
      },
      "seize(address,address,uint256)": {
        "details": "Will fail unless called by another cToken during the process of liquidation. Its absolutely critical to use msg.sender as the borrowed cToken and not a parameter.",
        "params": {
          "borrower": "The account having collateral seized",
          "liquidator": "The account receiving seized collateral",
          "seizeTokens": "The number of cTokens to seize"
        },
        "return": "uint 0=success, otherwise a failure (see ErrorReporter.sol for details)"
      },
      "supplyRatePerBlock()": {
        "return": "The supply interest rate per block, scaled by 1e18"
      },
      "sweepToken(address)": {
        "params": {
          "token": "The address of the ERC-20 token to sweep"
        }
      },
      "totalBorrowsCurrent()": {
        "return": "The total borrows with interest"
      },
      "transfer(address,uint256)": {
        "params": {
          "amount": "The number of tokens to transfer",
          "dst": "The address of the destination account"
        },
        "return": "Whether or not the transfer succeeded"
      },
      "transferFrom(address,address,uint256)": {
        "params": {
          "amount": "The number of tokens to transfer",
          "dst": "The address of the destination account",
          "src": "The address of the source account"
        },
        "return": "Whether or not the transfer succeeded"
      }
    },
    "title": "Compound's CErc20Delegator Contract"
  },
  "userdoc": {
    "methods": {
      "_acceptAdmin()": {
        "notice": "Accepts transfer of admin rights. msg.sender must be pendingAdmin"
      },
      "_addReserves(uint256)": {
        "notice": "Accrues interest and adds reserves by transferring from admin"
      },
      "_reduceReserves(uint256)": {
        "notice": "Accrues interest and reduces reserves by transferring to admin"
      },
      "_setComptroller(address)": {
        "notice": "Sets a new comptroller for the market"
      },
      "_setImplementation(address,bool,bytes)": {
        "notice": "Called by the admin to update the implementation of the delegator"
      },
      "_setInterestRateModel(address)": {
        "notice": "Accrues interest and updates the interest rate model using _setInterestRateModelFresh"
      },
      "_setPendingAdmin(address)": {
        "notice": "Begins transfer of admin rights. The newPendingAdmin must call `_acceptAdmin` to finalize the transfer."
      },
      "_setReserveFactor(uint256)": {
        "notice": "accrues interest and sets a new reserve factor for the protocol using _setReserveFactorFresh"
      },
      "accrueInterest()": {
        "notice": "Applies accrued interest to total borrows and reserves."
      },
      "allowance(address,address)": {
        "notice": "Get the current allowance from `owner` for `spender`"
      },
      "approve(address,uint256)": {
        "notice": "Approve `spender` to transfer up to `amount` from `src`"
      },
      "balanceOf(address)": {
        "notice": "Get the token balance of the `owner`"
      },
      "balanceOfUnderlying(address)": {
        "notice": "Get the underlying balance of the `owner`"
      },
      "borrow(uint256)": {
        "notice": "Sender borrows assets from the protocol to their own address"
      },
      "borrowBalanceCurrent(address)": {
        "notice": "Accrue interest to updated borrowIndex and then calculate account's borrow balance using the updated borrowIndex"
      },
      "borrowBalanceStored(address)": {
        "notice": "Return the borrow balance of account based on stored data"
      },
      "borrowRatePerBlock()": {
        "notice": "Returns the current per-block borrow interest rate for this cToken"
      },
      "constructor": "Construct a new money market",
      "delegateToImplementation(bytes)": {
        "notice": "Delegates execution to the implementation contract"
      },
      "delegateToViewImplementation(bytes)": {
        "notice": "Delegates execution to an implementation contract"
      },
      "exchangeRateCurrent()": {
        "notice": "Accrue interest then return the up-to-date exchange rate"
      },
      "exchangeRateStored()": {
        "notice": "Calculates the exchange rate from the underlying to the CToken"
      },
      "getAccountSnapshot(address)": {
        "notice": "Get a snapshot of the account's balances, and the cached exchange rate"
      },
      "getCash()": {
        "notice": "Get cash balance of this cToken in the underlying asset"
      },
      "liquidateBorrow(address,uint256,address)": {
        "notice": "The sender liquidates the borrowers collateral. The collateral seized is transferred to the liquidator."
      },
      "mint(uint256)": {
        "notice": "Sender supplies assets into the market and receives cTokens in exchange"
      },
      "redeem(uint256)": {
        "notice": "Sender redeems cTokens in exchange for the underlying asset"
      },
      "redeemUnderlying(uint256)": {
        "notice": "Sender redeems cTokens in exchange for a specified amount of underlying asset"
      },
      "repayBorrow(uint256)": {
        "notice": "Sender repays their own borrow"
      },
      "repayBorrowBehalf(address,uint256)": {
        "notice": "Sender repays a borrow belonging to borrower"
      },
      "seize(address,address,uint256)": {
        "notice": "Transfers collateral tokens (this market) to the liquidator."
      },
      "supplyRatePerBlock()": {
        "notice": "Returns the current per-block supply interest rate for this cToken"
      },
      "sweepToken(address)": {
        "notice": "A public function to sweep accidental ERC-20 transfers to this contract. Tokens are sent to admin (timelock)"
      },
      "totalBorrowsCurrent()": {
        "notice": "Returns the current total borrows plus accrued interest"
      },
      "transfer(address,uint256)": {
        "notice": "Transfer `amount` tokens from `msg.sender` to `dst`"
      },
      "transferFrom(address,address,uint256)": {
        "notice": "Transfer `amount` tokens from `src` to `dst`"
      }
    },
    "notice": "CTokens which wrap an EIP-20 underlying and delegate to an implementation"
  }
}