{
  "contractName": "CErc20Immutable",
  "abi": [
    {
      "inputs": [
        {
          "internalType": "address",
          "name": "underlying_",
          "type": "address"
        },
        {
          "internalType": "contract ComptrollerInterface",
          "name": "comptroller_",
          "type": "address"
        },
        {
          "internalType": "contract InterestRateModel",
          "name": "interestRateModel_",
          "type": "address"
        },
        {
          "internalType": "uint256",
          "name": "initialExchangeRateMantissa_",
          "type": "uint256"
        },
        {
          "internalType": "string",
          "name": "name_",
          "type": "string"
        },
        {
          "internalType": "string",
          "name": "symbol_",
          "type": "string"
        },
        {
          "internalType": "uint8",
          "name": "decimals_",
          "type": "uint8"
        },
        {
          "internalType": "address payable",
          "name": "admin_",
          "type": "address"
        }
      ],
      "payable": false,
      "stateMutability": "nonpayable",
      "type": "constructor"
    },
    {
      "anonymous": false,
      "inputs": [
        {
          "indexed": false,
          "internalType": "uint256",
          "name": "cashPrior",
          "type": "uint256"
        },
        {
          "indexed": false,
          "internalType": "uint256",
          "name": "interestAccumulated",
          "type": "uint256"
        },
        {
          "indexed": false,
          "internalType": "uint256",
          "name": "borrowIndex",
          "type": "uint256"
        },
        {
          "indexed": false,
          "internalType": "uint256",
          "name": "totalBorrows",
          "type": "uint256"
        }
      ],
      "name": "AccrueInterest",
      "type": "event"
    },
    {
      "anonymous": false,
      "inputs": [
        {
          "indexed": true,
          "internalType": "address",
          "name": "owner",
          "type": "address"
        },
        {
          "indexed": true,
          "internalType": "address",
          "name": "spender",
          "type": "address"
        },
        {
          "indexed": false,
          "internalType": "uint256",
          "name": "amount",
          "type": "uint256"
        }
      ],
      "name": "Approval",
      "type": "event"
    },
    {
      "anonymous": false,
      "inputs": [
        {
          "indexed": false,
          "internalType": "address",
          "name": "borrower",
          "type": "address"
        },
        {
          "indexed": false,
          "internalType": "uint256",
          "name": "borrowAmount",
          "type": "uint256"
        },
        {
          "indexed": false,
          "internalType": "uint256",
          "name": "accountBorrows",
          "type": "uint256"
        },
        {
          "indexed": false,
          "internalType": "uint256",
          "name": "totalBorrows",
          "type": "uint256"
        }
      ],
      "name": "Borrow",
      "type": "event"
    },
    {
      "anonymous": false,
      "inputs": [
        {
          "indexed": false,
          "internalType": "uint256",
          "name": "error",
          "type": "uint256"
        },
        {
          "indexed": false,
          "internalType": "uint256",
          "name": "info",
          "type": "uint256"
        },
        {
          "indexed": false,
          "internalType": "uint256",
          "name": "detail",
          "type": "uint256"
        }
      ],
      "name": "Failure",
      "type": "event"
    },
    {
      "anonymous": false,
      "inputs": [
        {
          "indexed": false,
          "internalType": "address",
          "name": "liquidator",
          "type": "address"
        },
        {
          "indexed": false,
          "internalType": "address",
          "name": "borrower",
          "type": "address"
        },
        {
          "indexed": false,
          "internalType": "uint256",
          "name": "repayAmount",
          "type": "uint256"
        },
        {
          "indexed": false,
          "internalType": "address",
          "name": "cTokenCollateral",
          "type": "address"
        },
        {
          "indexed": false,
          "internalType": "uint256",
          "name": "seizeTokens",
          "type": "uint256"
        }
      ],
      "name": "LiquidateBorrow",
      "type": "event"
    },
    {
      "anonymous": false,
      "inputs": [
        {
          "indexed": false,
          "internalType": "address",
          "name": "minter",
          "type": "address"
        },
        {
          "indexed": false,
          "internalType": "uint256",
          "name": "mintAmount",
          "type": "uint256"
        },
        {
          "indexed": false,
          "internalType": "uint256",
          "name": "mintTokens",
          "type": "uint256"
        }
      ],
      "name": "Mint",
      "type": "event"
    },
    {
      "anonymous": false,
      "inputs": [
        {
          "indexed": false,
          "internalType": "address",
          "name": "oldAdmin",
          "type": "address"
        },
        {
          "indexed": false,
          "internalType": "address",
          "name": "newAdmin",
          "type": "address"
        }
      ],
      "name": "NewAdmin",
      "type": "event"
    },
    {
      "anonymous": false,
      "inputs": [
        {
          "indexed": false,
          "internalType": "contract ComptrollerInterface",
          "name": "oldComptroller",
          "type": "address"
        },
        {
          "indexed": false,
          "internalType": "contract ComptrollerInterface",
          "name": "newComptroller",
          "type": "address"
        }
      ],
      "name": "NewComptroller",
      "type": "event"
    },
    {
      "anonymous": false,
      "inputs": [
        {
          "indexed": false,
          "internalType": "contract InterestRateModel",
          "name": "oldInterestRateModel",
          "type": "address"
        },
        {
          "indexed": false,
          "internalType": "contract InterestRateModel",
          "name": "newInterestRateModel",
          "type": "address"
        }
      ],
      "name": "NewMarketInterestRateModel",
      "type": "event"
    },
    {
      "anonymous": false,
      "inputs": [
        {
          "indexed": false,
          "internalType": "address",
          "name": "oldPendingAdmin",
          "type": "address"
        },
        {
          "indexed": false,
          "internalType": "address",
          "name": "newPendingAdmin",
          "type": "address"
        }
      ],
      "name": "NewPendingAdmin",
      "type": "event"
    },
    {
      "anonymous": false,
      "inputs": [
        {
          "indexed": false,
          "internalType": "uint256",
          "name": "oldReserveFactorMantissa",
          "type": "uint256"
        },
        {
          "indexed": false,
          "internalType": "uint256",
          "name": "newReserveFactorMantissa",
          "type": "uint256"
        }
      ],
      "name": "NewReserveFactor",
      "type": "event"
    },
    {
      "anonymous": false,
      "inputs": [
        {
          "indexed": false,
          "internalType": "address",
          "name": "redeemer",
          "type": "address"
        },
        {
          "indexed": false,
          "internalType": "uint256",
          "name": "redeemAmount",
          "type": "uint256"
        },
        {
          "indexed": false,
          "internalType": "uint256",
          "name": "redeemTokens",
          "type": "uint256"
        }
      ],
      "name": "Redeem",
      "type": "event"
    },
    {
      "anonymous": false,
      "inputs": [
        {
          "indexed": false,
          "internalType": "address",
          "name": "payer",
          "type": "address"
        },
        {
          "indexed": false,
          "internalType": "address",
          "name": "borrower",
          "type": "address"
        },
        {
          "indexed": false,
          "internalType": "uint256",
          "name": "repayAmount",
          "type": "uint256"
        },
        {
          "indexed": false,
          "internalType": "uint256",
          "name": "accountBorrows",
          "type": "uint256"
        },
        {
          "indexed": false,
          "internalType": "uint256",
          "name": "totalBorrows",
          "type": "uint256"
        }
      ],
      "name": "RepayBorrow",
      "type": "event"
    },
    {
      "anonymous": false,
      "inputs": [
        {
          "indexed": false,
          "internalType": "address",
          "name": "benefactor",
          "type": "address"
        },
        {
          "indexed": false,
          "internalType": "uint256",
          "name": "addAmount",
          "type": "uint256"
        },
        {
          "indexed": false,
          "internalType": "uint256",
          "name": "newTotalReserves",
          "type": "uint256"
        }
      ],
      "name": "ReservesAdded",
      "type": "event"
    },
    {
      "anonymous": false,
      "inputs": [
        {
          "indexed": false,
          "internalType": "address",
          "name": "admin",
          "type": "address"
        },
        {
          "indexed": false,
          "internalType": "uint256",
          "name": "reduceAmount",
          "type": "uint256"
        },
        {
          "indexed": false,
          "internalType": "uint256",
          "name": "newTotalReserves",
          "type": "uint256"
        }
      ],
      "name": "ReservesReduced",
      "type": "event"
    },
    {
      "anonymous": false,
      "inputs": [
        {
          "indexed": true,
          "internalType": "address",
          "name": "from",
          "type": "address"
        },
        {
          "indexed": true,
          "internalType": "address",
          "name": "to",
          "type": "address"
        },
        {
          "indexed": false,
          "internalType": "uint256",
          "name": "amount",
          "type": "uint256"
        }
      ],
      "name": "Transfer",
      "type": "event"
    },
    {
      "constant": false,
      "inputs": [],
      "name": "_acceptAdmin",
      "outputs": [
        {
          "internalType": "uint256",
          "name": "",
          "type": "uint256"
        }
      ],
      "payable": false,
      "stateMutability": "nonpayable",
      "type": "function"
    },
    {
      "constant": false,
      "inputs": [
        {
          "internalType": "uint256",
          "name": "addAmount",
          "type": "uint256"
        }
      ],
      "name": "_addReserves",
      "outputs": [
        {
          "internalType": "uint256",
          "name": "",
          "type": "uint256"
        }
      ],
      "payable": false,
      "stateMutability": "nonpayable",
      "type": "function"
    },
    {
      "constant": false,
      "inputs": [
        {
          "internalType": "uint256",
          "name": "reduceAmount",
          "type": "uint256"
        }
      ],
      "name": "_reduceReserves",
      "outputs": [
        {
          "internalType": "uint256",
          "name": "",
          "type": "uint256"
        }
      ],
      "payable": false,
      "stateMutability": "nonpayable",
      "type": "function"
    },
    {
      "constant": false,
      "inputs": [
        {
          "internalType": "contract ComptrollerInterface",
          "name": "newComptroller",
          "type": "address"
        }
      ],
      "name": "_setComptroller",
      "outputs": [
        {
          "internalType": "uint256",
          "name": "",
          "type": "uint256"
        }
      ],
      "payable": false,
      "stateMutability": "nonpayable",
      "type": "function"
    },
    {
      "constant": false,
      "inputs": [
        {
          "internalType": "contract InterestRateModel",
          "name": "newInterestRateModel",
          "type": "address"
        }
      ],
      "name": "_setInterestRateModel",
      "outputs": [
        {
          "internalType": "uint256",
          "name": "",
          "type": "uint256"
        }
      ],
      "payable": false,
      "stateMutability": "nonpayable",
      "type": "function"
    },
    {
      "constant": false,
      "inputs": [
        {
          "internalType": "address payable",
          "name": "newPendingAdmin",
          "type": "address"
        }
      ],
      "name": "_setPendingAdmin",
      "outputs": [
        {
          "internalType": "uint256",
          "name": "",
          "type": "uint256"
        }
      ],
      "payable": false,
      "stateMutability": "nonpayable",
      "type": "function"
    },
    {
      "constant": false,
      "inputs": [
        {
          "internalType": "uint256",
          "name": "newReserveFactorMantissa",
          "type": "uint256"
        }
      ],
      "name": "_setReserveFactor",
      "outputs": [
        {
          "internalType": "uint256",
          "name": "",
          "type": "uint256"
        }
      ],
      "payable": false,
      "stateMutability": "nonpayable",
      "type": "function"
    },
    {
      "constant": true,
      "inputs": [],
      "name": "accrualBlockNumber",
      "outputs": [
        {
          "internalType": "uint256",
          "name": "",
          "type": "uint256"
        }
      ],
      "payable": false,
      "stateMutability": "view",
      "type": "function"
    },
    {
      "constant": false,
      "inputs": [],
      "name": "accrueInterest",
      "outputs": [
        {
          "internalType": "uint256",
          "name": "",
          "type": "uint256"
        }
      ],
      "payable": false,
      "stateMutability": "nonpayable",
      "type": "function"
    },
    {
      "constant": true,
      "inputs": [],
      "name": "admin",
      "outputs": [
        {
          "internalType": "address payable",
          "name": "",
          "type": "address"
        }
      ],
      "payable": false,
      "stateMutability": "view",
      "type": "function"
    },
    {
      "constant": true,
      "inputs": [
        {
          "internalType": "address",
          "name": "owner",
          "type": "address"
        },
        {
          "internalType": "address",
          "name": "spender",
          "type": "address"
        }
      ],
      "name": "allowance",
      "outputs": [
        {
          "internalType": "uint256",
          "name": "",
          "type": "uint256"
        }
      ],
      "payable": false,
      "stateMutability": "view",
      "type": "function"
    },
    {
      "constant": false,
      "inputs": [
        {
          "internalType": "address",
          "name": "spender",
          "type": "address"
        },
        {
          "internalType": "uint256",
          "name": "amount",
          "type": "uint256"
        }
      ],
      "name": "approve",
      "outputs": [
        {
          "internalType": "bool",
          "name": "",
          "type": "bool"
        }
      ],
      "payable": false,
      "stateMutability": "nonpayable",
      "type": "function"
    },
    {
      "constant": true,
      "inputs": [
        {
          "internalType": "address",
          "name": "owner",
          "type": "address"
        }
      ],
      "name": "balanceOf",
      "outputs": [
        {
          "internalType": "uint256",
          "name": "",
          "type": "uint256"
        }
      ],
      "payable": false,
      "stateMutability": "view",
      "type": "function"
    },
    {
      "constant": false,
      "inputs": [
        {
          "internalType": "address",
          "name": "owner",
          "type": "address"
        }
      ],
      "name": "balanceOfUnderlying",
      "outputs": [
        {
          "internalType": "uint256",
          "name": "",
          "type": "uint256"
        }
      ],
      "payable": false,
      "stateMutability": "nonpayable",
      "type": "function"
    },
    {
      "constant": false,
      "inputs": [
        {
          "internalType": "uint256",
          "name": "borrowAmount",
          "type": "uint256"
        }
      ],
      "name": "borrow",
      "outputs": [
        {
          "internalType": "uint256",
          "name": "",
          "type": "uint256"
        }
      ],
      "payable": false,
      "stateMutability": "nonpayable",
      "type": "function"
    },
    {
      "constant": false,
      "inputs": [
        {
          "internalType": "address",
          "name": "account",
          "type": "address"
        }
      ],
      "name": "borrowBalanceCurrent",
      "outputs": [
        {
          "internalType": "uint256",
          "name": "",
          "type": "uint256"
        }
      ],
      "payable": false,
      "stateMutability": "nonpayable",
      "type": "function"
    },
    {
      "constant": true,
      "inputs": [
        {
          "internalType": "address",
          "name": "account",
          "type": "address"
        }
      ],
      "name": "borrowBalanceStored",
      "outputs": [
        {
          "internalType": "uint256",
          "name": "",
          "type": "uint256"
        }
      ],
      "payable": false,
      "stateMutability": "view",
      "type": "function"
    },
    {
      "constant": true,
      "inputs": [],
      "name": "borrowIndex",
      "outputs": [
        {
          "internalType": "uint256",
          "name": "",
          "type": "uint256"
        }
      ],
      "payable": false,
      "stateMutability": "view",
      "type": "function"
    },
    {
      "constant": true,
      "inputs": [],
      "name": "borrowRatePerBlock",
      "outputs": [
        {
          "internalType": "uint256",
          "name": "",
          "type": "uint256"
        }
      ],
      "payable": false,
      "stateMutability": "view",
      "type": "function"
    },
    {
      "constant": true,
      "inputs": [],
      "name": "comptroller",
      "outputs": [
        {
          "internalType": "contract ComptrollerInterface",
          "name": "",
          "type": "address"
        }
      ],
      "payable": false,
      "stateMutability": "view",
      "type": "function"
    },
    {
      "constant": true,
      "inputs": [],
      "name": "decimals",
      "outputs": [
        {
          "internalType": "uint8",
          "name": "",
          "type": "uint8"
        }
      ],
      "payable": false,
      "stateMutability": "view",
      "type": "function"
    },
    {
      "constant": false,
      "inputs": [],
      "name": "exchangeRateCurrent",
      "outputs": [
        {
          "internalType": "uint256",
          "name": "",
          "type": "uint256"
        }
      ],
      "payable": false,
      "stateMutability": "nonpayable",
      "type": "function"
    },
    {
      "constant": true,
      "inputs": [],
      "name": "exchangeRateStored",
      "outputs": [
        {
          "internalType": "uint256",
          "name": "",
          "type": "uint256"
        }
      ],
      "payable": false,
      "stateMutability": "view",
      "type": "function"
    },
    {
      "constant": true,
      "inputs": [
        {
          "internalType": "address",
          "name": "account",
          "type": "address"
        }
      ],
      "name": "getAccountSnapshot",
      "outputs": [
        {
          "internalType": "uint256",
          "name": "",
          "type": "uint256"
        },
        {
          "internalType": "uint256",
          "name": "",
          "type": "uint256"
        },
        {
          "internalType": "uint256",
          "name": "",
          "type": "uint256"
        },
        {
          "internalType": "uint256",
          "name": "",
          "type": "uint256"
        }
      ],
      "payable": false,
      "stateMutability": "view",
      "type": "function"
    },
    {
      "constant": true,
      "inputs": [],
      "name": "getCash",
      "outputs": [
        {
          "internalType": "uint256",
          "name": "",
          "type": "uint256"
        }
      ],
      "payable": false,
      "stateMutability": "view",
      "type": "function"
    },
    {
      "constant": false,
      "inputs": [
        {
          "internalType": "address",
          "name": "underlying_",
          "type": "address"
        },
        {
          "internalType": "contract ComptrollerInterface",
          "name": "comptroller_",
          "type": "address"
        },
        {
          "internalType": "contract InterestRateModel",
          "name": "interestRateModel_",
          "type": "address"
        },
        {
          "internalType": "uint256",
          "name": "initialExchangeRateMantissa_",
          "type": "uint256"
        },
        {
          "internalType": "string",
          "name": "name_",
          "type": "string"
        },
        {
          "internalType": "string",
          "name": "symbol_",
          "type": "string"
        },
        {
          "internalType": "uint8",
          "name": "decimals_",
          "type": "uint8"
        }
      ],
      "name": "initialize",
      "outputs": [],
      "payable": false,
      "stateMutability": "nonpayable",
      "type": "function"
    },
    {
      "constant": false,
      "inputs": [
        {
          "internalType": "contract ComptrollerInterface",
          "name": "comptroller_",
          "type": "address"
        },
        {
          "internalType": "contract InterestRateModel",
          "name": "interestRateModel_",
          "type": "address"
        },
        {
          "internalType": "uint256",
          "name": "initialExchangeRateMantissa_",
          "type": "uint256"
        },
        {
          "internalType": "string",
          "name": "name_",
          "type": "string"
        },
        {
          "internalType": "string",
          "name": "symbol_",
          "type": "string"
        },
        {
          "internalType": "uint8",
          "name": "decimals_",
          "type": "uint8"
        }
      ],
      "name": "initialize",
      "outputs": [],
      "payable": false,
      "stateMutability": "nonpayable",
      "type": "function"
    },
    {
      "constant": true,
      "inputs": [],
      "name": "interestRateModel",
      "outputs": [
        {
          "internalType": "contract InterestRateModel",
          "name": "",
          "type": "address"
        }
      ],
      "payable": false,
      "stateMutability": "view",
      "type": "function"
    },
    {
      "constant": true,
      "inputs": [],
      "name": "isCToken",
      "outputs": [
        {
          "internalType": "bool",
          "name": "",
          "type": "bool"
        }
      ],
      "payable": false,
      "stateMutability": "view",
      "type": "function"
    },
    {
      "constant": false,
      "inputs": [
        {
          "internalType": "address",
          "name": "borrower",
          "type": "address"
        },
        {
          "internalType": "uint256",
          "name": "repayAmount",
          "type": "uint256"
        },
        {
          "internalType": "contract CTokenInterface",
          "name": "cTokenCollateral",
          "type": "address"
        }
      ],
      "name": "liquidateBorrow",
      "outputs": [
        {
          "internalType": "uint256",
          "name": "",
          "type": "uint256"
        }
      ],
      "payable": false,
      "stateMutability": "nonpayable",
      "type": "function"
    },
    {
      "constant": false,
      "inputs": [
        {
          "internalType": "uint256",
          "name": "mintAmount",
          "type": "uint256"
        }
      ],
      "name": "mint",
      "outputs": [
        {
          "internalType": "uint256",
          "name": "",
          "type": "uint256"
        }
      ],
      "payable": false,
      "stateMutability": "nonpayable",
      "type": "function"
    },
    {
      "constant": true,
      "inputs": [],
      "name": "name",
      "outputs": [
        {
          "internalType": "string",
          "name": "",
          "type": "string"
        }
      ],
      "payable": false,
      "stateMutability": "view",
      "type": "function"
    },
    {
      "constant": true,
      "inputs": [],
      "name": "pendingAdmin",
      "outputs": [
        {
          "internalType": "address payable",
          "name": "",
          "type": "address"
        }
      ],
      "payable": false,
      "stateMutability": "view",
      "type": "function"
    },
    {
      "constant": false,
      "inputs": [
        {
          "internalType": "uint256",
          "name": "redeemTokens",
          "type": "uint256"
        }
      ],
      "name": "redeem",
      "outputs": [
        {
          "internalType": "uint256",
          "name": "",
          "type": "uint256"
        }
      ],
      "payable": false,
      "stateMutability": "nonpayable",
      "type": "function"
    },
    {
      "constant": false,
      "inputs": [
        {
          "internalType": "uint256",
          "name": "redeemAmount",
          "type": "uint256"
        }
      ],
      "name": "redeemUnderlying",
      "outputs": [
        {
          "internalType": "uint256",
          "name": "",
          "type": "uint256"
        }
      ],
      "payable": false,
      "stateMutability": "nonpayable",
      "type": "function"
    },
    {
      "constant": false,
      "inputs": [
        {
          "internalType": "uint256",
          "name": "repayAmount",
          "type": "uint256"
        }
      ],
      "name": "repayBorrow",
      "outputs": [
        {
          "internalType": "uint256",
          "name": "",
          "type": "uint256"
        }
      ],
      "payable": false,
      "stateMutability": "nonpayable",
      "type": "function"
    },
    {
      "constant": false,
      "inputs": [
        {
          "internalType": "address",
          "name": "borrower",
          "type": "address"
        },
        {
          "internalType": "uint256",
          "name": "repayAmount",
          "type": "uint256"
        }
      ],
      "name": "repayBorrowBehalf",
      "outputs": [
        {
          "internalType": "uint256",
          "name": "",
          "type": "uint256"
        }
      ],
      "payable": false,
      "stateMutability": "nonpayable",
      "type": "function"
    },
    {
      "constant": true,
      "inputs": [],
      "name": "reserveFactorMantissa",
      "outputs": [
        {
          "internalType": "uint256",
          "name": "",
          "type": "uint256"
        }
      ],
      "payable": false,
      "stateMutability": "view",
      "type": "function"
    },
    {
      "constant": false,
      "inputs": [
        {
          "internalType": "address",
          "name": "liquidator",
          "type": "address"
        },
        {
          "internalType": "address",
          "name": "borrower",
          "type": "address"
        },
        {
          "internalType": "uint256",
          "name": "seizeTokens",
          "type": "uint256"
        }
      ],
      "name": "seize",
      "outputs": [
        {
          "internalType": "uint256",
          "name": "",
          "type": "uint256"
        }
      ],
      "payable": false,
      "stateMutability": "nonpayable",
      "type": "function"
    },
    {
      "constant": true,
      "inputs": [],
      "name": "supplyRatePerBlock",
      "outputs": [
        {
          "internalType": "uint256",
          "name": "",
          "type": "uint256"
        }
      ],
      "payable": false,
      "stateMutability": "view",
      "type": "function"
    },
    {
      "constant": false,
      "inputs": [
        {
          "internalType": "contract EIP20NonStandardInterface",
          "name": "token",
          "type": "address"
        }
      ],
      "name": "sweepToken",
      "outputs": [],
      "payable": false,
      "stateMutability": "nonpayable",
      "type": "function"
    },
    {
      "constant": true,
      "inputs": [],
      "name": "symbol",
      "outputs": [
        {
          "internalType": "string",
          "name": "",
          "type": "string"
        }
      ],
      "payable": false,
      "stateMutability": "view",
      "type": "function"
    },
    {
      "constant": true,
      "inputs": [],
      "name": "totalBorrows",
      "outputs": [
        {
          "internalType": "uint256",
          "name": "",
          "type": "uint256"
        }
      ],
      "payable": false,
      "stateMutability": "view",
      "type": "function"
    },
    {
      "constant": false,
      "inputs": [],
      "name": "totalBorrowsCurrent",
      "outputs": [
        {
          "internalType": "uint256",
          "name": "",
          "type": "uint256"
        }
      ],
      "payable": false,
      "stateMutability": "nonpayable",
      "type": "function"
    },
    {
      "constant": true,
      "inputs": [],
      "name": "totalReserves",
      "outputs": [
        {
          "internalType": "uint256",
          "name": "",
          "type": "uint256"
        }
      ],
      "payable": false,
      "stateMutability": "view",
      "type": "function"
    },
    {
      "constant": true,
      "inputs": [],
      "name": "totalSupply",
      "outputs": [
        {
          "internalType": "uint256",
          "name": "",
          "type": "uint256"
        }
      ],
      "payable": false,
      "stateMutability": "view",
      "type": "function"
    },
    {
      "constant": false,
      "inputs": [
        {
          "internalType": "address",
          "name": "dst",
          "type": "address"
        },
        {
          "internalType": "uint256",
          "name": "amount",
          "type": "uint256"
        }
      ],
      "name": "transfer",
      "outputs": [
        {
          "internalType": "bool",
          "name": "",
          "type": "bool"
        }
      ],
      "payable": false,
      "stateMutability": "nonpayable",
      "type": "function"
    },
    {
      "constant": false,
      "inputs": [
        {
          "internalType": "address",
          "name": "src",
          "type": "address"
        },
        {
          "internalType": "address",
          "name": "dst",
          "type": "address"
        },
        {
          "internalType": "uint256",
          "name": "amount",
          "type": "uint256"
        }
      ],
      "name": "transferFrom",
      "outputs": [
        {
          "internalType": "bool",
          "name": "",
          "type": "bool"
        }
      ],
      "payable": false,
      "stateMutability": "nonpayable",
      "type": "function"
    },
    {
      "constant": true,
      "inputs": [],
      "name": "underlying",
      "outputs": [
        {
          "internalType": "address",
          "name": "",
          "type": "address"
        }
      ],
      "payable": false,
      "stateMutability": "view",
      "type": "function"
    }
  ],
  "bytecode": "0x60806040523480156200001c576000806200001962000bbc565b50505b5060405162007c4138038062007c4183398181016040526101008110156200004e576000806200004b62000bbc565b50505b810190808051929190602001805192919060200180519291906020018051929190602001805160405193929190846401000000008211156200009a576000806200009762000bbc565b50505b908301906020820185811115620000bb57600080620000b862000bbc565b50505b8251640100000000811182820188101715620000e157600080620000de62000bbc565b50505b825250602001908051906020019080838360005b838110156200010f578082015183820152602001620000f5565b50505050905090810190601f1680156200013d5780820380516001836020036101000a031916815260200191505b50604052602001805160405193929190846401000000008211156200016c576000806200016962000bbc565b50505b9083019060208201858111156200018d576000806200018a62000bbc565b50505b8251640100000000811182820188101715620001b357600080620001b062000bbc565b50505b825250602001908051906020019080838360005b83811015620001e1578082015183820152602001620001c7565b50505050905090810190601f1680156200020f5780820380516001836020036101000a031916815260200191505b5060405260200180519291906020018051925050505a6200022f62000c29565b6003610100816200023f62000c85565b816001600160a01b0302191690836001600160a01b03160217906200026362000cd2565b5050506200027d88888888888888620002c360201b60201c565b806003610100816200028e62000c85565b816001600160a01b0302191690836001600160a01b0316021790620002b262000cd2565b505050505050505050505062000f42565b620002de868686868686620003e460201b6200190a1760201c565b866011600181620002ee62000c85565b816001600160a01b0302191690836001600160a01b03160217906200031262000cd2565b50505060116000906200032462000c85565b906101000a90046001600160a01b03166001600160a01b03166318160ddd6040518163ffffffff1660e01b815260040160206040518083038186806200036962000d21565b15801562000381576000806200037e62000bbc565b50505b505a6200038d62000d6e565b5050505050158015620003af573d6000803e3d6000620003ac62000bbc565b50505b505050506040513d6020811015620003d157600080620003ce62000bbc565b50505b8101908080515050505050505050505050565b60016003620003f262000c85565b906101000a90046001600160a01b03166001600160a01b03165a6200041662000c29565b6001600160a01b031614620004685760405162461bcd60e51b815260040180806020018281038252602481526020018062007ba860249139604001915050604051809103906200046562000bbc565b50505b60096200047462000c85565b1580156200048b5750600a6200048962000c85565b155b620004d35760405162461bcd60e51b815260040180806020018281038252602381526020018062007bcc6023913960400191505060405180910390620004d062000bbc565b50505b83806007620004e162000cd2565b50505060006007620004f262000c85565b116200053b5760405162461bcd60e51b815260040180806020018281038252603081526020018062007bef60309139604001915050604051809103906200053862000bbc565b50505b600062000551876001600160e01b03620006d916565b90508015620005b15760405162461bcd60e51b815260206004820152601a60248201527f73657474696e6720636f6d7074726f6c6c6572206661696c6564000000000000604482015260640160405180910390620005ae62000bbc565b50505b620005c46001600160e01b03620008e916565b806009620005d162000cd2565b505050670de0b6b3a7640000600a8190620005eb62000cd2565b505050620005ff86620008fc60201b60201c565b905080156200064b5760405162461bcd60e51b815260040180806020018281038252602281526020018062007c1f60229139604001915050604051809103906200064862000bbc565b50505b60018480516200066092916020019062000e22565b5060028380516200067692916020019062000e22565b508160036001816200068762000c85565b8160ff021916908360ff160217906200069f62000cd2565b50505060016000806101000a81620006b662000c85565b8160ff02191690831515021790620006cd62000cd2565b50505050505050505050565b600060016003620006e962000c85565b906101000a90046001600160a01b03166001600160a01b03165a6200070d62000c29565b6001600160a01b0316146200073b57620007336001603f6001600160e01b0362000b4616565b9050620008e4565b60008060056200074a62000c85565b906101000a90046001600160a01b03169050826001600160a01b0316627e3dd26040518163ffffffff1660e01b815260040160206040518083038186806200079162000d21565b158015620007a957600080620007a662000bbc565b50505b505a620007b562000d6e565b5050505050158015620007d7573d6000803e3d6000620007d462000bbc565b50505b505050506040513d6020811015620007f957600080620007f662000bbc565b50505b8101908080519250620008609150505760405162461bcd60e51b815260206004820152601c60248201527f6d61726b6572206d6574686f642072657475726e65642066616c7365000000006044820152606401604051809103906200085d62000bbc565b50505b8260056001816200087062000c85565b816001600160a01b0302191690836001600160a01b03160217906200089462000cd2565b5050507f7ac369dbd14fa5ea3f473ed67cc9d598964a77501540ba6751eb0b3decf5870d81846040516001600160a01b039283168152911660208201526040908101905180910390a160005b9150505b919050565b60005a620008f662000ed1565b90505b90565b600080600160036200090d62000c85565b906101000a90046001600160a01b03166001600160a01b03165a6200093162000c29565b6001600160a01b031614620009605762000957600160426001600160e01b0362000b4616565b915050620008e4565b620009736001600160e01b03620008e916565b60096200097f62000c85565b146200099c5762000957600a60416001600160e01b0362000b4616565b60006006620009aa62000c85565b906101000a90046001600160a01b03169050826001600160a01b0316632191f92a6040518163ffffffff1660e01b81526004016020604051808303818680620009f262000d21565b15801562000a0a5760008062000a0762000bbc565b50505b505a62000a1662000d6e565b505050505015801562000a38573d6000803e3d600062000a3562000bbc565b50505b505050506040513d602081101562000a5a5760008062000a5762000bbc565b50505b810190808051925062000ac19150505760405162461bcd60e51b815260206004820152601c60248201527f6d61726b6572206d6574686f642072657475726e65642066616c73650000000060448201526064016040518091039062000abe62000bbc565b50505b82600660018162000ad162000c85565b816001600160a01b0302191690836001600160a01b031602179062000af562000cd2565b5050507fedffc32e068c7c95dfd4bdfd5c4d939a084d6b11c4199eac8436ed234d72f92681846040516001600160a01b039283168152911660208201526040908101905180910390a16000620008e0565b60007f45b96fe442630264581b197e84bbada861235052c5a1aadfff9ea4e40a969aa083601081111562000b7657fe5b83605081111562000b8357fe5b600060405180848152602001838152602001828152602001935050505060405180910390a182601081111562000bb557fe5b9392505050565b632a2a7adb598160e01b8152600481016020815285602082015260005b8681101562000bf657808601518282016040015260200162000bd9565b506020828760640184336000905af158600e01573d6000803e3d6000fd5b3d6001141558600a015760016000f35b505050565b6373509064598160e01b8152602081600483336000905af158600e01573d6000803e3d6000fd5b3d6001141558600a015760016000f35b8051935060005b604081101562000c805760008282015260200162000c67565b505050565b6303daa959598160e01b8152836004820152602081602483336000905af158600e01573d6000803e3d6000fd5b3d6001141558600a015760016000f35b8051600082529350602062000c67565b6322bd64c0598160e01b8152836004820152846024820152600081604483336000905af158600e01573d6000803e3d6000fd5b3d6001141558600a015760016000f35b60008152602062000c67565b638435035b598160e01b8152836004820152602081602483336000905af158600e01573d6000803e3d6000fd5b3d6001141558600a015760016000f35b8051600082529350602062000c67565b638540661f598160e01b8152836004820152846024820152606060448201528660648201526084810160005b8881101562000db457808801518282015260200162000d9a565b506060828960a40184336000905af158600e01573d6000803e3d6000fd5b3d6001141558600a015760016000f35b815160408301513d6000853e8b8b82606087013350600060045af15059845b8181101562000e17576000815260200162000e01565b50919b505050505050565b828062000e2e62000c85565b600181600116156101000203166002900490600052602060002090601f016020900481019282601f1062000e7957805160ff1916838001178562000e7162000cd2565b505062000ebf565b8280016001018562000e8a62000cd2565b5050821562000ebf579182015b8281111562000ebf5782518262000ead62000cd2565b50509160200191906001019062000e97565b5062000ecd92915062000f18565b5090565b635a98c361598160e01b8152602081600483336000905af158600e01573d6000803e3d6000fd5b3d6001141558600a015760016000f35b8051600082529350602062000c67565b620008f991905b8082111562000ecd576000808262000f3662000cd2565b50505060010162000f1f565b616c568062000f526000396000f3fe6080604052348015610019576000806100166164a4565b50505b50600436106102445760003560e01c806306fdde0314610252578063095ea7b3146102d15780630e7527021461031a578063173b99041461035257806317bfdfbc1461035a57806318160ddd14610389578063182df0f5146103915780631a31d465146103995780631be195601461052e57806323b872dd1461055d5780632608f8181461059c57806326782247146105d1578063313ce567146105f55780633af9e669146106135780633b1d21a2146106425780633e9410101461064a5780634576b5db1461067057806347bd37181461069f5780635fe3b567146106a7578063601a0bf1146106af5780636c540baf146106d55780636f307dc3146106dd57806370a08231146106e557806373acee9814610714578063852a12e31461071c5780638f840ddd1461074257806395d89b411461074a57806395dd91931461075257806399d8c1b414610781578063a0712d681461090c578063a6afed9514610932578063a9059cbb1461093a578063aa5af0fd1461096f578063ae9d70b014610977578063b2a02ff11461097f578063b71d1a0c146109be578063bd6d894d146109ed578063c37f68e2146109f5578063c5ebeaec14610a4f578063db006a7514610a75578063dd62ed3e14610a9b578063e9c714f214610ad2578063f2b3abbd14610ada578063f3fdb15a14610b09578063f5e3c46214610b11578063f851a44014610b50578063f8f9da2814610b58578063fca7820b14610b60578063fe9c44ae14610b86575b60008061024f6164a4565b50505b61025a610b8e565b60405160208082528190810183818151815260200191508051906020019080838360005b8381101561029657808201518382015260200161027e565b50505050905090810190601f1680156102c35780820380516001836020036101000a031916815260200191505b509250505060405180910390f35b610306600480360360408110156102f0576000806102ed6164a4565b50505b506001600160a01b038135169060200135610c47565b604051901515815260200160405180910390f35b61034060048036036020811015610339576000806103366164a4565b50505b5035610ce9565b60405190815260200160405180910390f35b610340610cff565b61034060048036036020811015610379576000806103766164a4565b50505b50356001600160a01b0316610d0c565b610340610e29565b610340610e33565b61052c600480360360e08110156103b8576000806103b56164a4565b50505b6001600160a01b03823581169260208101358216926040820135909216916060820135919081019060a081016080820135600160201b811115610403576000806104006164a4565b50505b82018360208201111561041e5760008061041b6164a4565b50505b803590602001918460018302840111600160201b83111715610448576000806104456164a4565b50505b91908080601f01602080910402602001604051908101604052818152929190602084018383808284376000920191909152509295949360208101935035915050600160201b8111156104a25760008061049f6164a4565b50505b8201836020820111156104bd576000806104ba6164a4565b50505b803590602001918460018302840111600160201b831117156104e7576000806104e46164a4565b50505b91908080601f01602080910402602001604051908101604052818152929190602084018383808284376000920191909152509295505050903560ff169150610e9f9050565b005b61052c6004803603602081101561054d5760008061054a6164a4565b50505b50356001600160a01b0316610fa0565b6103066004803603606081101561057c576000806105796164a4565b50505b506001600160a01b038135811691602081013590911690604001356111d6565b610340600480360360408110156105bb576000806105b86164a4565b50505b506001600160a01b0381351690602001356112a5565b6105d96112bb565b6040516001600160a01b03909116815260200160405180910390f35b6105fd6112da565b60405160ff909116815260200160405180910390f35b610340600480360360208110156106325760008061062f6164a4565b50505b50356001600160a01b03166112f3565b6103406113b4565b61034060048036036020811015610669576000806106666164a4565b50505b50356113c3565b6103406004803603602081101561068f5760008061068c6164a4565b50505b50356001600160a01b03166113ce565b6103406115b4565b6105d96115be565b610340600480360360208110156106ce576000806106cb6164a4565b50505b50356115ca565b610340611696565b6105d96116a0565b61034060048036036020811015610704576000806107016164a4565b50505b50356001600160a01b03166116ac565b6103406116cc565b6103406004803603602081101561073b576000806107386164a4565b50505b50356117e7565b6103406117f2565b61025a6117fc565b610340600480360360208110156107715760008061076e6164a4565b50505b50356001600160a01b031661189e565b61052c600480360360c08110156107a05760008061079d6164a4565b50505b6001600160a01b03823581169260208101359091169160408201359190810190608081016060820135600160201b8111156107e3576000806107e06164a4565b50505b8201836020820111156107fe576000806107fb6164a4565b50505b803590602001918460018302840111600160201b83111715610828576000806108256164a4565b50505b91908080601f01602080910402602001604051908101604052818152929190602084018383808284376000920191909152509295949360208101935035915050600160201b8111156108825760008061087f6164a4565b50505b82018360208201111561089d5760008061089a6164a4565b50505b803590602001918460018302840111600160201b831117156108c7576000806108c46164a4565b50505b91908080601f01602080910402602001604051908101604052818152929190602084018383808284376000920191909152509295505050903560ff16915061190a9050565b6103406004803603602081101561092b576000806109286164a4565b50505b5035611bae565b610340611bba565b61030660048036036040811015610959576000806109566164a4565b50505b506001600160a01b038135169060200135611fc8565b61034061209e565b6103406120a8565b6103406004803603606081101561099e5760008061099b6164a4565b50505b506001600160a01b038135811691602081013590911690604001356121a8565b610340600480360360208110156109dd576000806109da6164a4565b50505b50356001600160a01b031661224e565b610340612329565b610a2460048036036020811015610a1457600080610a116164a4565b50505b50356001600160a01b0316612417565b6040518085815260200184815260200183815260200182815260200194505050505060405180910390f35b61034060048036036020811015610a6e57600080610a6b6164a4565b50505b50356124b5565b61034060048036036020811015610a9457600080610a916164a4565b50505b50356124c0565b61034060048036036040811015610aba57600080610ab76164a4565b50505b506001600160a01b03813581169160200135166124cb565b610340612504565b61034060048036036020811015610af957600080610af66164a4565b50505b50356001600160a01b03166126f8565b6105d9612732565b61034060048036036060811015610b3057600080610b2d6164a4565b50505b506001600160a01b0381358116916020810135916040909101351661273e565b6105d9612756565b610340612762565b61034060048036036020811015610b7f57600080610b7c6164a4565b50505b50356127e8565b61030661289b565b600180610b9961650f565b600181600116156101000203166002900480601f016020809104026020016040519081016040528181529190602083018280610bd361650f565b60018160011615610100020316600290048015610c3f5780601f10610c0d576101008083610bff61650f565b040283529160200191610c3f565b820191906000526020600020905b81610c2461650f565b81529060010190602001808311610c1b57829003601f168201915b505050505081565b6000805a610c5361656f565b6001600160a01b0381166000908152600f6020529091508390604090206001600160a01b0386166000908152602091909152604090208190610c936165b5565b505050836001600160a01b0316816001600160a01b03167f8c5be1e5ebec7d5bd14f71427d1e84f3dd0314c0f7b2291e5b200ac8c7c3b9258560405190815260200160405180910390a360019150505b92915050565b600080610cf5836128a0565b509150505b919050565b6008610d0961650f565b81565b60008080610d1861650f565b906101000a900460ff16610d685760405162461bcd60e51b815260206004820152600a6024820152691c994b595b9d195c995960b21b604482015260640160405180910390610d656164a4565b50505b600080600181610d7661650f565b8160ff02191690831515021790610d8b6165b5565b5060009150610d979050565b610d9f611bba565b14610df25760405162461bcd60e51b81526020600482015260166024820152751858d8dc9d59481a5b9d195c995cdd0819985a5b195960521b604482015260640160405180910390610def6164a4565b50505b610dfb8261189e565b90505b600160008181610e0c61650f565b8160ff02191690831515021790610e216165b5565b505050919050565b600d610d0961650f565b6000806000610e406129a4565b90925090506000826003811115610e5357fe5b14610e985760405162461bcd60e51b8152600401808060200182810382526035815260200180616ba16035913960400191505060405180910390610e956164a4565b50505b9150505b90565b610ead86868686868661190a565b866011600181610ebb61650f565b816001600160a01b0302191690836001600160a01b0316021790610edd6165b5565b5050506011600090610eed61650f565b906101000a90046001600160a01b03166001600160a01b03166318160ddd6040518163ffffffff1660e01b81526004016020604051808303818680610f30616603565b158015610f4557600080610f426164a4565b50505b505a610f4f61664f565b5050505050158015610f6e573d6000803e3d6000610f6b6164a4565b50505b505050506040513d6020811015610f8d57600080610f8a6164a4565b50505b8101908080515050505050505050505050565b60006011610fac61650f565b906101000a90046001600160a01b03166001600160a01b0316816001600160a01b031614156110155760405162461bcd60e51b81526004018080602001828103825260328152602001806169dd60329139604001915050604051809103906110126164a4565b50505b6000816001600160a01b03166370a082315a63996d79a5598160e01b8152602081600483336000905af158600e01573d6000803e3d6000fd5b3d6001141558600a015760016000f35b8051925060005b604081101561107c57600082820152602001611065565b5050506040516001600160e01b031960e084901b1681526001600160a01b03909116600482015260240160206040518083038186806110b9616603565b1580156110ce576000806110cb6164a4565b50505b505a6110d861664f565b50505050501580156110f7573d6000803e3d60006110f46164a4565b50505b505050506040513d6020811015611116576000806111136164a4565b50505b810190808051935050506001600160a01b038316905063a9059cbb6001600361113d61650f565b906101000a90046001600160a01b0316836040516001600160e01b031960e085901b1681526001600160a01b03909216600483015260248201526044016000604051808303816000878061118f616603565b1580156111a4576000806111a16164a4565b50505b505a6111ae6166ff565b5050505050501580156111ce573d6000803e3d60006111cb6164a4565b50505b505050505050565b600080806111e261650f565b906101000a900460ff166112325760405162461bcd60e51b815260206004820152600a6024820152691c994b595b9d195c995960b21b60448201526064016040518091039061122f6164a4565b50505b60008060018161124061650f565b8160ff021916908315150217906112556165b5565b50600091506112619050565b6112755a61126d61656f565b868686612a6f565b14905060016000818161128661650f565b8160ff0219169083151502179061129b6165b5565b5050509392505050565b6000806112b28484612e0c565b50949350505050565b600060046112c761650f565b906101000a90046001600160a01b031681565b600060036112e661650f565b906101000a900460ff1681565b60006112fd6167af565b6040518060200160405280611310612329565b90526001600160a01b0384166000908152600e6020529091508061133f836040832061133a61650f565b612f0a565b9092509050600082600381111561135257fe5b146113ac5760405162461bcd60e51b815260206004820152601f60248201527f62616c616e636520636f756c64206e6f742062652063616c63756c61746564006044820152606401604051809103906113a96164a4565b50505b949350505050565b60006113be612f5e565b905090565b6000610ce38261308c565b6000600160036113dc61650f565b906101000a90046001600160a01b03166001600160a01b03165a6113fe61656f565b6001600160a01b03161461141f576114186001603f613151565b9050610cfa565b600080600561142c61650f565b906101000a90046001600160a01b03169050826001600160a01b0316627e3dd26040518163ffffffff1660e01b81526004016020604051808303818680611471616603565b158015611486576000806114836164a4565b50505b505a61149061664f565b50505050501580156114af573d6000803e3d60006114ac6164a4565b50505b505050506040513d60208110156114ce576000806114cb6164a4565b50505b81019080805192506115319150505760405162461bcd60e51b815260206004820152601c60248201527b6d61726b6572206d6574686f642072657475726e65642066616c736560201b60448201526064016040518091039061152e6164a4565b50505b82600560018161153f61650f565b816001600160a01b0302191690836001600160a01b03160217906115616165b5565b5050507f7ac369dbd14fa5ea3f473ed67cc9d598964a77501540ba6751eb0b3decf5870d81846040516001600160a01b039283168152911660208201526040908101905180910390a160005b9392505050565b600b610d0961650f565b600060056112c761650f565b600080806115d661650f565b906101000a900460ff166116265760405162461bcd60e51b815260206004820152600a6024820152691c994b595b9d195c995960b21b6044820152606401604051809103906116236164a4565b50505b60008060018161163461650f565b8160ff021916908315150217906116496165b5565b5050506000611656611bba565b9050801561167c5761167481601081111561166d57fe5b6030613151565b915050610dfe565b611685836131ab565b915050600160008181610e0c61650f565b6009610d0961650f565b600060116112c761650f565b6001600160a01b0381166000908152600e60205260408120610ce361650f565b600080806116d861650f565b906101000a900460ff166117285760405162461bcd60e51b815260206004820152600a6024820152691c994b595b9d195c995960b21b6044820152606401604051809103906117256164a4565b50505b60008060018161173661650f565b8160ff0219169083151502179061174b6165b5565b50600091506117579050565b61175f611bba565b146117b25760405162461bcd60e51b81526020600482015260166024820152751858d8dc9d59481a5b9d195c995cdd0819985a5b195960521b6044820152606401604051809103906117af6164a4565b50505b600b6117bc61650f565b90506001600081816117cc61650f565b8160ff021916908315150217906117e16165b5565b50505090565b6000610ce382613360565b600c610d0961650f565b60028061180761650f565b600181600116156101000203166002900480601f01602080910402602001604051908101604052818152919060208301828061184161650f565b60018160011615610100020316600290048015610c3f5780601f1061186d576101008083610bff61650f565b820191906000526020600020905b8161188461650f565b8152906001019060200180831161187b5750859350505050565b60008060006118ac8461341e565b909250905060008260038111156118bf57fe5b146115ad5760405162461bcd60e51b8152600401808060200182810382526037815260200180616a8c60379139604001915050604051809103906119016164a4565b50509392505050565b6001600361191661650f565b906101000a90046001600160a01b03166001600160a01b03165a61193861656f565b6001600160a01b0316146119865760405162461bcd60e51b815260040180806020018281038252602481526020018061697660249139604001915050604051809103906119836164a4565b50505b600961199061650f565b1580156119a45750600a6119a261650f565b155b6119e85760405162461bcd60e51b815260040180806020018281038252602381526020018061699a60239139604001915050604051809103906119e56164a4565b50505b838060076119f46165b5565b50505060006007611a0361650f565b11611a485760405162461bcd60e51b8152600401808060200182810382526030815260200180616a0f6030913960400191505060405180910390611a456164a4565b50505b6000611a53876113ce565b90508015611aad5760405162461bcd60e51b815260206004820152601a6024820152791cd95d1d1a5b99c818dbdb5c1d1c9bdb1b195c8819985a5b195960321b604482015260640160405180910390611aaa6164a4565b50505b611ab56134ea565b806009611ac06165b5565b505050670de0b6b3a7640000600a8190611ad86165b5565b505050611ae4866134f5565b90508015611b2c5760405162461bcd60e51b8152600401808060200182810382526022815260200180616a3f6022913960400191505060405180910390611b296164a4565b50505b6001848051611b3f9291602001906167c0565b506002838051611b539291602001906167c0565b50816003600181611b6261650f565b8160ff021916908360ff16021790611b786165b5565b50505060016000806101000a81611b8d61650f565b8160ff02191690831515021790611ba26165b5565b50505050505050505050565b600080610cf5836136f5565b600080611bc56134ea565b905060006009611bd361650f565b905081811415611be857600092505050610e9c565b6000611bf2612f5e565b90506000600b611c0061650f565b90506000600c611c0e61650f565b90506000600a611c1c61650f565b90506000806006611c2b61650f565b906101000a90046001600160a01b03166001600160a01b03166315f240538686866040516001600160e01b031960e086901b1681526004810193909352602483019190915260448201526064016020604051808303818680611c8b616603565b158015611ca057600080611c9d6164a4565b50505b505a611caa61664f565b5050505050158015611cc9573d6000803e3d6000611cc66164a4565b50505b505050506040513d6020811015611ce857600080611ce56164a4565b50505b8101908080519350505065048c273950008211159050611d565760405162461bcd60e51b815260206004820152601c60248201527b0c4dee4e4deee40e4c2e8ca40d2e640c2c4e6eae4c8d8f240d0d2ced60231b604482015260640160405180910390611d536164a4565b50505b600080611d6389896137b2565b90925090506000826003811115611d7657fe5b14611dd05760405162461bcd60e51b815260206004820152601f60248201527f636f756c64206e6f742063616c63756c61746520626c6f636b2064656c746100604482015260640160405180910390611dcd6164a4565b50505b611dd86167af565b600080600080611df460405160208101604052898152876137d5565b90975094506000876003811115611e0757fe5b14611e3957611e2460096006896003811115611e1f57fe5b61383b565b9e505050505050505050505050505050610e9c565b611e43858c612f0a565b90975093506000876003811115611e5657fe5b14611e6e57611e2460096001896003811115611e1f57fe5b611e78848c613894565b90975092506000876003811115611e8b57fe5b14611ea357611e2460096004896003811115611e1f57fe5b611ec460405180602001604052806008611ebb61650f565b9052858c6138ba565b90975091506000876003811115611ed757fe5b14611eef57611e2460096005896003811115611e1f57fe5b611efa858a8b6138ba565b90975090506000876003811115611f0d57fe5b14611f2557611e2460096003896003811115611e1f57fe5b8d806009611f316165b5565b50505080600a8190611f416165b5565b50505082600b8190611f516165b5565b50505081600c8190611f616165b5565b5050507f4dec04e750ca11537cabcd8a9eab06494de08da3735bc8871cd41250e190bc048c8583866040518085815260200184815260200183815260200182815260200194505050505060405180910390a160009e50505050505050505050505050505090565b60008080611fd461650f565b906101000a900460ff166120245760405162461bcd60e51b815260206004820152600a6024820152691c994b595b9d195c995960b21b6044820152606401604051809103906120216164a4565b50505b60008060018161203261650f565b8160ff021916908315150217906120476165b5565b50600091506120539050565b61206f5a61205f61656f565b5a61206861656f565b8686612a6f565b14905060016000818161208061650f565b8160ff021916908315150217906120956165b5565b50505092915050565b600a610d0961650f565b60008060066120b561650f565b906101000a90046001600160a01b03166001600160a01b031663b81688166120db612f5e565b600b6120e561650f565b600c6120ef61650f565b60086120f961650f565b6040516001600160e01b031960e087901b1681526004810194909452602484019290925260448301526064820152608401602060405180830381868061213d616603565b1580156121525760008061214f6164a4565b50505b505a61215c61664f565b505050505015801561217b573d6000803e3d60006121786164a4565b50505b505050506040513d602081101561219a576000806121976164a4565b50505b810190808051935050505090565b600080806121b461650f565b906101000a900460ff166122045760405162461bcd60e51b815260206004820152600a6024820152691c994b595b9d195c995960b21b6044820152606401604051809103906122016164a4565b50505b60008060018161221261650f565b8160ff021916908315150217906122276165b5565b50505061223e5a61223661656f565b858585613916565b905060016000818161128661650f565b60006001600361225c61650f565b906101000a90046001600160a01b03166001600160a01b03165a61227e61656f565b6001600160a01b0316146122985761141860016045613151565b60008060046122a561650f565b906101000a90046001600160a01b0316905082600460006101000a816122c961650f565b816001600160a01b0302191690836001600160a01b03160217906122eb6165b5565b505050600080516020616ac383398151915281846040516001600160a01b039283168152911660208201526040908101905180910390a160006115ad565b6000808061233561650f565b906101000a900460ff166123855760405162461bcd60e51b815260206004820152600a6024820152691c994b595b9d195c995960b21b6044820152606401604051809103906123826164a4565b50505b60008060018161239361650f565b8160ff021916908315150217906123a86165b5565b50600091506123b49050565b6123bc611bba565b1461240f5760405162461bcd60e51b81526020600482015260166024820152751858d8dc9d59481a5b9d195c995cdd0819985a5b195960521b60448201526064016040518091039061240c6164a4565b50505b6117bc610e33565b6001600160a01b0381166000908152600e602052808080806040812061243b61650f565b9050600080600061244b8961341e565b93509050600081600381111561245d57fe5b1461247b5760095b9750600096508695508594506124ae9350505050565b6124836129a4565b92509050600081600381111561249557fe5b146124a1576009612465565b5060009650919450925090505b9193509193565b6000610ce382613be7565b6000610ce382613ca3565b6001600160a01b0382166000908152600f602052604081206001600160a01b0383166000908152602091909152604090206115ad61650f565b600080600461251161650f565b906101000a90046001600160a01b03166001600160a01b03165a61253361656f565b6001600160a01b031614158061255a575060005a61254f61656f565b6001600160a01b0316145b156125725761256b60016000613151565b9050610e9c565b60006001600361258061650f565b906101000a90046001600160a01b03169050600060046000906125a161650f565b906101000a90046001600160a01b0316905060046000906125c061650f565b906101000a90046001600160a01b0316600360016101000a816125e161650f565b816001600160a01b0302191690836001600160a01b03160217906126036165b5565b5050506000600460006101000a8161261961650f565b816001600160a01b0302191690836001600160a01b031602179061263b6165b5565b5050507ff9ffabca9c8276e99321725bcb43fb076a6c66a54b7f21c4e8146d8519b417dc82600360019061266d61650f565b906101000a90046001600160a01b03166040516001600160a01b039283168152911660208201526040908101905180910390a1600080516020616ac383398151915281600060046126bc61650f565b906101000a90046001600160a01b03166040516001600160a01b039283168152911660208201526040908101905180910390a160009250505090565b600080612703611bba565b905080156127295761272181601081111561271a57fe5b6040613151565b915050610cfa565b6115ad836134f5565b600060066112c761650f565b60008061274c858585613d5a565b5095945050505050565b600160036112c761650f565b600080600661276f61650f565b906101000a90046001600160a01b03166001600160a01b03166315f24053612795612f5e565b600b61279f61650f565b600c6127a961650f565b6040516001600160e01b031960e086901b168152600481019390935260248301919091526044820152606401602060405180830381868061213d616603565b600080806127f461650f565b906101000a900460ff166128445760405162461bcd60e51b815260206004820152600a6024820152691c994b595b9d195c995960b21b6044820152606401604051809103906128416164a4565b50505b60008060018161285261650f565b8160ff021916908315150217906128676165b5565b5050506000612874611bba565b905080156128925761167481601081111561288b57fe5b6046613151565b61168583613f1e565b600181565b60008080806128ad61650f565b906101000a900460ff166128fd5760405162461bcd60e51b815260206004820152600a6024820152691c994b595b9d195c995960b21b6044820152606401604051809103906128fa6164a4565b50505b60008060018161290b61650f565b8160ff021916908315150217906129206165b5565b505050600061292d611bba565b905080156129585761294b81601081111561294457fe5b6036613151565b9250600091506129799050565b6129735a61296461656f565b5a61296d61656f565b86614005565b92509250505b60016000818161298761650f565b8160ff0219169083151502179061299c6165b5565b505050915091565b6000806000600d6129b361650f565b9050806129d057600060076129c661650f565b9250925050612a6b565b60006129da612f5e565b905060006129e66167af565b6000612a0584600b6129f661650f565b600c612a0061650f565b614473565b935090506000816003811115612a1757fe5b14612a2c57955060009450612a6b9350505050565b612a3683866144b1565b925090506000816003811115612a4857fe5b14612a5d57955060009450612a6b9350505050565b600082519650965050505050505b9091565b600080806005612a7d61650f565b906101000a90046001600160a01b03166001600160a01b031663bdcdc2585a63996d79a5598160e01b8152602081600483336000905af158600e01573d6000803e3d6000fd5b3d6001141558600a015760016000f35b8051925060005b6040811015612af157600082820152602001612ada565b5050508787876040516001600160e01b031960e087901b1681526001600160a01b039485166004820152928416602484015292166044820152606481019190915260840160206040518083038160008780612b4a616603565b158015612b5f57600080612b5c6164a4565b50505b505a612b696166ff565b505050505050158015612b89573d6000803e3d6000612b866164a4565b50505b505050506040513d6020811015612ba857600080612ba56164a4565b50505b81019080805193505082159150612bd0905057612bc86003604a8361383b565b9150506113ac565b836001600160a01b0316856001600160a01b03161415612bf657612bc86002604b613151565b60006001600160a01b038781169087161415612c155750600019612c51565b6001600160a01b0386166000908152600f602052604090206001600160a01b038816600090815260209190915260409020612c4e61650f565b90505b600080600080612c6185896137b2565b90945092506000846003811115612c7457fe5b14612c9257612c856009604b613151565b96505050505050506113ac565b6001600160a01b038a166000908152600e602052612cbc9060409020612cb661650f565b896137b2565b90945091506000846003811115612ccf57fe5b14612ce057612c856009604c613151565b6001600160a01b0389166000908152600e602052612d0a9060409020612d0461650f565b89613894565b90945090506000846003811115612d1d57fe5b14612d2e57612c856009604d613151565b6001600160a01b038a166000908152600e6020528290604090208190612d526165b5565b5050506001600160a01b0389166000908152600e6020528190604090208190612d796165b5565b5050506000198514612dc6576001600160a01b038a166000908152600f6020528390604090206001600160a01b038d166000908152602091909152604090208190612dc26165b5565b5050505b886001600160a01b03168a6001600160a01b0316600080516020616b1d8339815191528a60405190815260200160405180910390a35060009a9950505050505050505050565b6000808080612e1961650f565b906101000a900460ff16612e695760405162461bcd60e51b815260206004820152600a6024820152691c994b595b9d195c995960b21b604482015260640160405180910390612e666164a4565b50505b600080600181612e7761650f565b8160ff02191690831515021790612e8c6165b5565b5050506000612e99611bba565b90508015612ec457612eb7816010811115612eb057fe5b6035613151565b925060009150612edd9050565b612ed75a612ed061656f565b8686614005565b92509250505b600160008181612eeb61650f565b8160ff02191690831515021790612f006165b5565b5050509250929050565b6000806000612f176167af565b612f2186866137d5565b90925090506000826003811115612f3457fe5b14612f455750915060009050612f57565b6000612f5082614563565b9350935050505b9250929050565b600080806011612f6c61650f565b906101000a90046001600160a01b03169050806001600160a01b03166370a082315a63996d79a5598160e01b8152602081600483336000905af158600e01573d6000803e3d6000fd5b3d6001141558600a015760016000f35b8051925060005b6040811015612fe357600082820152602001612fcc565b5050506040516001600160e01b031960e084901b1681526001600160a01b0390911660048201526024016020604051808303818680613020616603565b158015613035576000806130326164a4565b50505b505a61303f61664f565b505050505015801561305e573d6000803e3d600061305b6164a4565b50505b505050506040513d602081101561307d5760008061307a6164a4565b50505b81019080805194505050505090565b6000808061309861650f565b906101000a900460ff166130e85760405162461bcd60e51b815260206004820152600a6024820152691c994b595b9d195c995960b21b6044820152606401604051809103906130e56164a4565b50505b6000806001816130f661650f565b8160ff0219169083151502179061310b6165b5565b5050506000613118611bba565b905080156131365761167481601081111561312f57fe5b604e613151565b61313f8361457e565b50915050600160008181610e0c61650f565b60006000805160206169bd83398151915283601081111561316e57fe5b83605081111561317a57fe5b600060405180848152602001838152602001828152602001935050505060405180910390a18260108111156115ad57fe5b600080600160036131ba61650f565b906101000a90046001600160a01b03166001600160a01b03165a6131dc61656f565b6001600160a01b0316146131f65761272160016031613151565b6131fe6134ea565b600961320861650f565b1461321957612721600a6033613151565b82613222612f5e565b101561323457612721600e6032613151565b600c61323e61650f565b8311156132515761272160026034613151565b82600c61325c61650f565b039050600c61326961650f565b8111156132b05760405162461bcd60e51b8152600401808060200182810382526024815260200180616c3260249139604001915050604051809103906132ad6164a4565b50505b8080600c6132bc6165b5565b5050506132e560036001906132cf61650f565b906101000a90046001600160a01b0316846146b6565b7f3bad0c59cf2f06e7314077049f48a93578cd16f5ef92329f1dab1420a99c177e6001600361331261650f565b906101000a90046001600160a01b0316848360405180846001600160a01b03166001600160a01b03168152602001838152602001828152602001935050505060405180910390a160006115ad565b6000808061336c61650f565b906101000a900460ff166133bc5760405162461bcd60e51b815260206004820152600a6024820152691c994b595b9d195c995960b21b6044820152606401604051809103906133b96164a4565b50505b6000806001816133ca61650f565b8160ff021916908315150217906133df6165b5565b50505060006133ec611bba565b9050801561340a5761167481601081111561340357fe5b6027613151565b6116855a61341661656f565b6000856147ff565b6001600160a01b0381166000908152601060205280808080806040812090508061344661650f565b61345b5750600094508493506134e592505050565b6134768161346761650f565b600a61347161650f565b614eaf565b9094509250600084600381111561348957fe5b1461349e5750919350600092506134e5915050565b6134b383826001016134ae61650f565b614eee565b909450915060008460038111156134c657fe5b146134db5750919350600092506134e5915050565b5060009450925050505b915091565b60005a6113be616860565b6000806001600361350461650f565b906101000a90046001600160a01b03166001600160a01b03165a61352661656f565b6001600160a01b0316146135405761272160016042613151565b6135486134ea565b600961355261650f565b1461356357612721600a6041613151565b6000600661356f61650f565b906101000a90046001600160a01b03169050826001600160a01b0316632191f92a6040518163ffffffff1660e01b815260040160206040518083038186806135b5616603565b1580156135ca576000806135c76164a4565b50505b505a6135d461664f565b50505050501580156135f3573d6000803e3d60006135f06164a4565b50505b505050506040513d60208110156136125760008061360f6164a4565b50505b81019080805192506136759150505760405162461bcd60e51b815260206004820152601c60248201527b6d61726b6572206d6574686f642072657475726e65642066616c736560201b6044820152606401604051809103906136726164a4565b50505b82600660018161368361650f565b816001600160a01b0302191690836001600160a01b03160217906136a56165b5565b5050507fedffc32e068c7c95dfd4bdfd5c4d939a084d6b11c4199eac8436ed234d72f92681846040516001600160a01b039283168152911660208201526040908101905180910390a160006115ad565b600080808061370261650f565b906101000a900460ff166137525760405162461bcd60e51b815260206004820152600a6024820152691c994b595b9d195c995960b21b60448201526064016040518091039061374f6164a4565b50505b60008060018161376061650f565b8160ff021916908315150217906137756165b5565b5050506000613782611bba565b905080156137a05761294b81601081111561379957fe5b601e613151565b6129735a6137ac61656f565b85614f19565b6000808383116137c9575060009050818303612f57565b50600390506000612f57565b60006137df6167af565b6000806137ed865186614eaf565b9092509050600082600381111561380057fe5b14613821578160405160208101604052600081529094509250612f57915050565b600060405160208101604052918252969095509350505050565b60006000805160206169bd83398151915284601081111561385857fe5b84605081111561386457fe5b8460405180848152602001838152602001828152602001935050505060405180910390a18360108111156113ac57fe5b6000808383018481106138ac57600092509050612f57565b506002915060009050612f57565b60008060006138c76167af565b6138d187876137d5565b909250905060008260038111156138e457fe5b146138f5575091506000905061390e565b61390761390182614563565b86613894565b9350935050505b935093915050565b60008080600561392461650f565b906101000a90046001600160a01b03166001600160a01b031663d02f73515a63996d79a5598160e01b8152602081600483336000905af158600e01573d6000803e3d6000fd5b3d6001141558600a015760016000f35b8051925060005b604081101561399857600082820152602001613981565b505050888888886040516001600160e01b031960e088901b1681526001600160a01b039586166004820152938516602485015291841660448401529092166064820152608481019190915260a401602060405180830381600087806139fb616603565b158015613a1057600080613a0d6164a4565b50505b505a613a1a6166ff565b505050505050158015613a3a573d6000803e3d6000613a376164a4565b50505b505050506040513d6020811015613a5957600080613a566164a4565b50505b81019080805193505082159150613a79905057612bc86003601b8361383b565b846001600160a01b0316846001600160a01b03161415613a9f57612bc86006601c613151565b6001600160a01b0384166000908152600e6020528080613aca60408220613ac461650f565b876137b2565b90935091506000836003811115613add57fe5b14613b0057613af56009601a856003811115611e1f57fe5b9450505050506113ac565b6001600160a01b0388166000908152600e602052613b2a9060409020613b2461650f565b87613894565b90935090506000836003811115613b3d57fe5b14613b5557613af560096019856003811115611e1f57fe5b6001600160a01b0387166000908152600e6020528290604090208190613b796165b5565b5050506001600160a01b0388166000908152600e6020528190604090208190613ba06165b5565b505050876001600160a01b0316876001600160a01b0316600080516020616b1d8339815191528860405190815260200160405180910390a360009998505050505050505050565b60008080613bf361650f565b906101000a900460ff16613c435760405162461bcd60e51b815260206004820152600a6024820152691c994b595b9d195c995960b21b604482015260640160405180910390613c406164a4565b50505b600080600181613c5161650f565b8160ff02191690831515021790613c666165b5565b5050506000613c73611bba565b90508015613c9157611674816010811115613c8a57fe5b6008613151565b6116855a613c9d61656f565b84615449565b60008080613caf61650f565b906101000a900460ff16613cff5760405162461bcd60e51b815260206004820152600a6024820152691c994b595b9d195c995960b21b604482015260640160405180910390613cfc6164a4565b50505b600080600181613d0d61650f565b8160ff02191690831515021790613d226165b5565b5050506000613d2f611bba565b90508015613d465761167481601081111561340357fe5b6116855a613d5261656f565b8460006147ff565b6000808080613d6761650f565b906101000a900460ff16613db75760405162461bcd60e51b815260206004820152600a6024820152691c994b595b9d195c995960b21b604482015260640160405180910390613db46164a4565b50505b600080600181613dc561650f565b8160ff02191690831515021790613dda6165b5565b5050506000613de7611bba565b90508015613e1257613e05816010811115613dfe57fe5b600f613151565b925060009150613ef09050565b836001600160a01b031663a6afed956040518163ffffffff1660e01b815260040160206040518083038160008780613e48616603565b158015613e5d57600080613e5a6164a4565b50505b505a613e676166ff565b505050505050158015613e87573d6000803e3d6000613e846164a4565b50505b505050506040513d6020811015613ea657600080613ea36164a4565b50505b810190808051935060009250613eba915050565b8114613ed657613e05816010811115613ecf57fe5b6010613151565b613eea5a613ee261656f565b8787876157ec565b92509250505b600160008181613efe61650f565b8160ff02191690831515021790613f136165b5565b505050935093915050565b600060016003613f2c61650f565b906101000a90046001600160a01b03166001600160a01b03165a613f4e61656f565b6001600160a01b031614613f685761141860016047613151565b613f706134ea565b6009613f7a61650f565b14613f8b57611418600a6048613151565b670de0b6b3a7640000821115613fa75761141860026049613151565b60006008613fb361650f565b905082806008613fc16165b5565b5050507faaa68312e2ea9d50e16af5068410ab56e1a1fd06037b1a35664812c30f821460818460405191825260208201526040908101905180910390a160006115ad565b6000808080600561401461650f565b906101000a90046001600160a01b03166001600160a01b03166324008a625a63996d79a5598160e01b8152602081600483336000905af158600e01573d6000803e3d6000fd5b3d6001141558600a015760016000f35b8051925060005b604081101561408857600082820152602001614071565b5050508888886040516001600160e01b031960e087901b1681526001600160a01b0394851660048201529284166024840152921660448201526064810191909152608401602060405180830381600087806140e1616603565b1580156140f6576000806140f36164a4565b50505b505a6141006166ff565b505050505050158015614120573d6000803e3d600061411d6164a4565b50505b505050506040513d602081101561413f5760008061413c6164a4565b50505b8101908080519350508215915061416c90505761415f600360388361383b565b92506000915061390e9050565b6141746134ea565b600961417e61650f565b1461418f5761415f600a6039613151565b6141976168a6565b6001600160a01b03861660009081526010602052604090206001016141ba61650f565b60608201526141c88661341e565b60808301819052602083018260038111156141df57fe5b60038111156141ea57fe5b905250600090508160200151600381111561420157fe5b1461422b5761421d6009603783602001516003811115611e1f57fe5b93506000925061390e915050565b600019851415614244578060800151604082015261424c565b604081018590525b61425a878260400151615fd3565b60e082015261427160808201518260e001516137b2565b60a083018190526020830182600381111561428857fe5b600381111561429357fe5b90525060009050816020015160038111156142aa57fe5b146142ef5760405162461bcd60e51b815260040180806020018281038252603a815260200180616ae3603a9139604001915050604051809103906142ec6164a4565b50505b614306600b6142fc61650f565b8260e001516137b2565b60c083018190526020830182600381111561431d57fe5b600381111561432857fe5b905250600090508160200151600381111561433f57fe5b146143845760405162461bcd60e51b8152600401808060200182810382526031815260200180616b3d60319139604001915050604051809103906143816164a4565b50505b8060a001516001600160a01b038716600090815260106020526040902081906143ab6165b5565b505050600a6143b861650f565b6001600160a01b038716600090815260106020526040902060010181906143dd6165b5565b5050508060c0015180600b6143f06165b5565b5050507f1a2a22cb034d26d1854bdc6666a5b91fe25efbbb5dcad3b0355478d6f5c362a187878360e001518460a001518560c001516040516001600160a01b0395861681529390941660208401526040808401929092526060830152608082019290925260a001905180910390a160008160e00151935093505050935093915050565b6000806000806144838787613894565b9092509050600082600381111561449657fe5b146144a7575091506000905061390e565b61390781866137b2565b60006144bb6167af565b6000806144d086670de0b6b3a7640000614eaf565b909250905060008260038111156144e357fe5b14614504578160405160208101604052600081529094509250612f57915050565b6000806145118388614eee565b9092509050600082600381111561452457fe5b14614547578160405160208101604052600081529096509450612f579350505050565b6000604051602081016040529182529890975095505050505050565b6000670de0b6b3a764000082518161457757fe5b0492915050565b60008060008061458c6134ea565b600961459661650f565b146145b2576145a7600a604f613151565b935091506134e59050565b6145c45a6145be61656f565b86615fd3565b905080600c6145d161650f565b019150600c6145de61650f565b82101561463a5760405162461bcd60e51b815260206004820181905260248201527f61646420726573657276657320756e6578706563746564206f766572666c6f776044820152606401604051809103906146376164a4565b50505b8180600c6146466165b5565b5050507fa91e67c5ea634cd43a12c5a482724b03de01e85ca68702a53d0c2f45cb7c1dc55a61467361656f565b828460405180846001600160a01b03166001600160a01b03168152602001838152602001828152602001935050505060405180910390a160009350915050915091565b60008060116146c361650f565b906101000a90046001600160a01b03169050806001600160a01b031663a9059cbb84846040516001600160e01b031960e085901b1681526001600160a01b039092166004830152602482015260440160006040518083038160008780614727616603565b15801561473c576000806147396164a4565b50505b505a6147466166ff565b505050505050158015614766573d6000803e3d60006147636164a4565b50505b5050505060003d6000811461478f5760208114614799576000806147886164a4565b50506147a5565b60001991506147a5565b60206000803e60005191505b50806147f95760405162461bcd60e51b81526020600482015260196024820152781513d2d15397d514905394d1915497d3d55517d19052531151603a1b6044820152606401604051809103906111ce6164a4565b50505050565b600082158061480c575081155b6148505760405162461bcd60e51b8152600401808060200182810382526034815260200180616bfe603491396040019150506040518091039061484d6164a4565b50505b6148586168eb565b6148606129a4565b604083018190526020830182600381111561487757fe5b600381111561488257fe5b905250600090508160200151600381111561489957fe5b146148bd576148b56009602b83602001516003811115611e1f57fe5b9150506115ad565b831561493f57606081018490526148e560405180602001604052808360400151905285612f0a565b60808301819052602083018260038111156148fc57fe5b600381111561490757fe5b905250600090508160200151600381111561491e57fe5b1461493a576148b56009602983602001516003811115611e1f57fe5b6149b7565b61495a83604051806020016040528084604001519052616434565b606083018190526020830182600381111561497157fe5b600381111561497c57fe5b905250600090508160200151600381111561499357fe5b146149af576148b56009602a83602001516003811115611e1f57fe5b608081018390525b60008060056149c461650f565b906101000a90046001600160a01b03166001600160a01b031663eabe7d915a63996d79a5598160e01b8152602081600483336000905af158600e01573d6000803e3d6000fd5b3d6001141558600a015760016000f35b8051925060005b6040811015614a3857600082820152602001614a21565b5050508885606001516040516001600160e01b031960e086901b1681526001600160a01b039384166004820152919092166024820152604481019190915260640160206040518083038160008780614a8e616603565b158015614aa357600080614aa06164a4565b50505b505a614aad6166ff565b505050505050158015614acd573d6000803e3d6000614aca6164a4565b50505b505050506040513d6020811015614aec57600080614ae96164a4565b50505b81019080805193505082159150614b15905057614b0c600360288361383b565b925050506115ad565b614b1d6134ea565b6009614b2761650f565b14614b3857614b0c600a602c613151565b614b4f600d614b4561650f565b83606001516137b2565b60a0840181905260208401826003811115614b6657fe5b6003811115614b7157fe5b9052506000905082602001516003811115614b8857fe5b14614ba457614b0c6009602e84602001516003811115611e1f57fe5b6001600160a01b0386166000908152600e602052614bc89060409020614b4561650f565b60c0840181905260208401826003811115614bdf57fe5b6003811115614bea57fe5b9052506000905082602001516003811115614c0157fe5b14614c1d57614b0c6009602d84602001516003811115611e1f57fe5b8160800151614c2a612f5e565b1015614c3c57614b0c600e602f613151565b614c4a8683608001516146b6565b8160a0015180600d614c5a6165b5565b5050508160c001516001600160a01b0387166000908152600e602052604090208190614c846165b5565b5050505a63996d79a5598160e01b8152602081600483336000905af158600e01573d6000803e3d6000fd5b3d6001141558600a015760016000f35b8051925060005b6040811015614cdd57600082820152602001614cc6565b5050506001600160a01b0316866001600160a01b0316600080516020616b1d833981519152846060015160405190815260200160405180910390a37fe5b754fb1abb7f01b499791d0b820ae3b6af3424ac1c59768edb53f4ec31a929868360800151846060015160405180846001600160a01b03166001600160a01b03168152602001838152602001828152602001935050505060405180910390a160006005614d8561650f565b906101000a90046001600160a01b03166001600160a01b03166351dff9895a63996d79a5598160e01b8152602081600483336000905af158600e01573d6000803e3d6000fd5b3d6001141558600a015760016000f35b8051925060005b6040811015614df957600082820152602001614de2565b50505088856080015186606001516040516001600160e01b031960e087901b1681526001600160a01b0394851660048201529290931660248301526044820152606481019190915260840160006040518083038160008780614e59616603565b158015614e6e57600080614e6b6164a4565b50505b505a614e786166ff565b505050505050158015614e98573d6000803e3d6000614e956164a4565b50505b5060009250614ea5915050565b9695505050505050565b60008083614ec257506000905080612f57565b83830283858281614ecf57fe5b0414614ee357506002915060009050612f57565b600092509050612f57565b60008082614f025750600190506000612f57565b6000838581614f0d57fe5b04915091509250929050565b60008080806005614f2861650f565b906101000a90046001600160a01b03166001600160a01b0316634ef4c3e15a63996d79a5598160e01b8152602081600483336000905af158600e01573d6000803e3d6000fd5b3d6001141558600a015760016000f35b8051925060005b6040811015614f9c57600082820152602001614f85565b50505087876040516001600160e01b031960e086901b1681526001600160a01b039384166004820152919092166024820152604481019190915260640160206040518083038160008780614fee616603565b158015615003576000806150006164a4565b50505b505a61500d6166ff565b50505050505015801561502d573d6000803e3d600061502a6164a4565b50505b505050506040513d602081101561504c576000806150496164a4565b50505b8101908080519350508215915061507990505761506c6003601f8361383b565b925060009150612f579050565b6150816134ea565b600961508b61650f565b1461509c5761506c600a6022613151565b6150a46168eb565b6150ac6129a4565b60408301819052602083018260038111156150c357fe5b60038111156150ce57fe5b90525060009050816020015160038111156150e557fe5b1461510f576151016009602183602001516003811115611e1f57fe5b935060009250612f57915050565b6151198686615fd3565b60c0820190815261513c9051604051806020016040528084604001519052616434565b606083018190526020830182600381111561515357fe5b600381111561515e57fe5b905250600090508160200151600381111561517557fe5b146151cf5760405162461bcd60e51b815260206004820181905260248201527f4d494e545f45584348414e47455f43414c43554c4154494f4e5f4641494c45446044820152606401604051809103906151cc6164a4565b50505b6151e6600d6151dc61650f565b8260600151613894565b60808301819052602083018260038111156151fd57fe5b600381111561520857fe5b905250600090508160200151600381111561521f57fe5b146152645760405162461bcd60e51b8152600401808060200182810382526028815260200180616bd660289139604001915050604051809103906152616164a4565b50505b6001600160a01b0386166000908152600e60205261528890604090206151dc61650f565b60a083018190526020830182600381111561529f57fe5b60038111156152aa57fe5b90525060009050816020015160038111156152c157fe5b146153065760405162461bcd60e51b815260040180806020018281038252602b815260200180616a61602b9139604001915050604051809103906153036164a4565b50505b806080015180600d6153166165b5565b5050508060a001516001600160a01b0387166000908152600e6020526040902081906153406165b5565b5050507f4c209b5fc8ad50758f13e2e1088ba56a560dff690a1c6fef26394f4c03821c4f868260c00151836060015160405180846001600160a01b03166001600160a01b03168152602001838152602001828152602001935050505060405180910390a1856001600160a01b03165a63996d79a5598160e01b8152602081600483336000905af158600e01573d6000803e3d6000fd5b3d6001141558600a015760016000f35b8051925060005b6040811015615404576000828201526020016153ed565b5050506001600160a01b0316600080516020616b1d833981519152836060015160405190815260200160405180910390a360008160c001519350935050509250929050565b60008080600561545761650f565b906101000a90046001600160a01b03166001600160a01b031663da3d454c5a63996d79a5598160e01b8152602081600483336000905af158600e01573d6000803e3d6000fd5b3d6001141558600a015760016000f35b8051925060005b60408110156154cb576000828201526020016154b4565b50505086866040516001600160e01b031960e086901b1681526001600160a01b03938416600482015291909216602482015260448101919091526064016020604051808303816000878061551d616603565b1580156155325760008061552f6164a4565b50505b505a61553c6166ff565b50505050505015801561555c573d6000803e3d60006155596164a4565b50505b505050506040513d602081101561557b576000806155786164a4565b50505b810190808051935050821591506155a390505761559b6003600e8361383b565b915050610ce3565b6155ab6134ea565b60096155b561650f565b146155c55761559b600a80613151565b826155ce612f5e565b10156155e05761559b600e6009613151565b6155e8616928565b6155f18561341e565b602083018190528282600381111561560557fe5b600381111561561057fe5b905250600090508151600381111561562457fe5b146156465761563d6009600783516003811115611e1f57fe5b92505050610ce3565b615654816020015185613894565b604083018190528282600381111561566857fe5b600381111561567357fe5b905250600090508151600381111561568757fe5b146156a05761563d6009600c83516003811115611e1f57fe5b6156b3600b6156ad61650f565b85613894565b60608301819052828260038111156156c757fe5b60038111156156d257fe5b90525060009050815160038111156156e657fe5b146156ff5761563d6009600b83516003811115611e1f57fe5b61570985856146b6565b80604001516001600160a01b038616600090815260106020526040902081906157306165b5565b505050600a61573d61650f565b6001600160a01b038616600090815260106020526040902060010181906157626165b5565b505050806060015180600b6157756165b5565b5050507f13ed6866d4e1ee6da46f845c46d7e54120883d75c5ea9a2dacc1c4ca8984ab8085858360400151846060015160405180856001600160a01b03166001600160a01b0316815260200184815260200183815260200182815260200194505050505060405180910390a1600095945050505050565b600080808060056157fb61650f565b906101000a90046001600160a01b03166001600160a01b0316635fc7e71e5a63996d79a5598160e01b8152602081600483336000905af158600e01573d6000803e3d6000fd5b3d6001141558600a015760016000f35b8051925060005b604081101561586f57600082820152602001615858565b505050868a8a8a6040516001600160e01b031960e088901b1681526001600160a01b039586166004820152938516602485015291841660448401529092166064820152608481019190915260a401602060405180830381600087806158d2616603565b1580156158e7576000806158e46164a4565b50505b505a6158f16166ff565b505050505050158015615911573d6000803e3d600061590e6164a4565b50505b505050506040513d60208110156159305760008061592d6164a4565b50505b8101908080519350508215915061595d905057615950600360128361383b565b925060009150615fca9050565b6159656134ea565b600961596f61650f565b1461598057615950600a6016613151565b6159886134ea565b846001600160a01b0316636c540baf6040518163ffffffff1660e01b815260040160206040518083038186806159bc616603565b1580156159d1576000806159ce6164a4565b50505b505a6159db61664f565b50505050501580156159fa573d6000803e3d60006159f76164a4565b50505b505050506040513d6020811015615a1957600080615a166164a4565b50505b810190808051939093149250615a3891505057615950600a6011613151565b866001600160a01b0316866001600160a01b03161415615a5e5761595060066017613151565b84615a6f5761595060076015613151565b600019851415615a855761595060076014613151565b600080615a93898989614005565b90925090508115615ac357615ab4826010811115615aad57fe5b6018613151565b945060009350615fca92505050565b600080806005615ad161650f565b906101000a90046001600160a01b03166001600160a01b031663c488847b5a63996d79a5598160e01b8152602081600483336000905af158600e01573d6000803e3d6000fd5b3d6001141558600a015760016000f35b8051925060005b6040811015615b4557600082820152602001615b2e565b5050508a866040516001600160e01b031960e086901b1681526001600160a01b039384166004820152919092166024820152604481019190915260640160408051808303818680615b94616603565b158015615ba957600080615ba66164a4565b50505b505a615bb361664f565b5050505050158015615bd2573d6000803e3d6000615bcf6164a4565b50505b505050506040513d6040811015615bf157600080615bee6164a4565b50505b810190808051929190602001805193955092935060009250615c11915050565b8214615c575760405162461bcd60e51b8152600401808060200182810382526033815260200180616b6e6033913960400191505060405180910390615c546164a4565b50505b80886001600160a01b03166370a082318c6040516001600160e01b031960e084901b1681526001600160a01b0390911660048201526024016020604051808303818680615ca2616603565b158015615cb757600080615cb46164a4565b50505b505a615cc161664f565b5050505050158015615ce0573d6000803e3d6000615cdd6164a4565b50505b505050506040513d6020811015615cff57600080615cfc6164a4565b50505b81019080805193909310159250615d639150505760405162461bcd60e51b815260206004820152601860248201527709892a2aa928882a88abea68a92b48abea89e9ebe9aaa86960431b604482015260640160405180910390615d606164a4565b50505b60005a63996d79a5598160e01b8152602081600483336000905af158600e01573d6000803e3d6000fd5b3d6001141558600a015760016000f35b8051925060005b6040811015615dbb57600082820152602001615da4565b5050506001600160a01b0316896001600160a01b03161415615e4257615e3b5a63996d79a5598160e01b8152602081600483336000905af158600e01573d6000803e3d6000fd5b3d6001141558600a015760016000f35b8051925060005b6040811015615e3057600082820152602001615e19565b5050508d8d85613916565b9050615f0b565b886001600160a01b031663b2a02ff18d8d856040516001600160e01b031960e086901b1681526001600160a01b039384166004820152919092166024820152604481019190915260640160206040518083038160008780615ea1616603565b158015615eb657600080615eb36164a4565b50505b505a615ec06166ff565b505050505050158015615ee0573d6000803e3d6000615edd6164a4565b50505b505050506040513d6020811015615eff57600080615efc6164a4565b50505b81019080805193505050505b8015615f5d5760405162461bcd60e51b81526020600482015260146024820152731d1bdad95b881cd95a5e9d5c994819985a5b195960621b604482015260640160405180910390615f5a6164a4565b50505b7f298637f684da70674f26509b10f07ec2fbc77a335ab1e7d6215a4b2484d8bb528c8c868c866040516001600160a01b039586168152938516602085015260408085019390935293166060830152608082019290925260a001905180910390a16000975092955050505050505b94509492505050565b600080806011615fe161650f565b906101000a90046001600160a01b031690506000601160009061600261650f565b906101000a90046001600160a01b03166001600160a01b03166370a082315a63996d79a5598160e01b8152602081600483336000905af158600e01573d6000803e3d6000fd5b3d6001141558600a015760016000f35b8051925060005b60408110156160765760008282015260200161605f565b5050506040516001600160e01b031960e084901b1681526001600160a01b03909116600482015260240160206040518083038186806160b3616603565b1580156160c8576000806160c56164a4565b50505b505a6160d261664f565b50505050501580156160f1573d6000803e3d60006160ee6164a4565b50505b505050506040513d60208110156161105760008061610d6164a4565b50505b810190808051935050506001600160a01b03831690506323b872dd865a63996d79a5598160e01b8152602081600483336000905af158600e01573d6000803e3d6000fd5b3d6001141558600a015760016000f35b8051925060005b60408110156161825760008282015260200161616b565b505050876040516001600160e01b031960e086901b1681526001600160a01b0393841660048201529190921660248201526044810191909152606401600060405180830381600087806161d3616603565b1580156161e8576000806161e56164a4565b50505b505a6161f26166ff565b505050505050158015616212573d6000803e3d600061620f6164a4565b50505b5050505060003d6000811461623b5760208114616245576000806162346164a4565b5050616251565b6000199150616251565b60206000803e60005191505b50806162a75760405162461bcd60e51b81526020600482015260186024820152771513d2d15397d514905394d1915497d25397d1905253115160421b6044820152606401604051809103906162a46164a4565b50505b60008060116162b461650f565b906101000a90046001600160a01b03166001600160a01b03166370a082315a63996d79a5598160e01b8152602081600483336000905af158600e01573d6000803e3d6000fd5b3d6001141558600a015760016000f35b8051925060005b604081101561632857600082820152602001616311565b5050506040516001600160e01b031960e084901b1681526001600160a01b0390911660048201526024016020604051808303818680616365616603565b15801561637a576000806163776164a4565b50505b505a61638461664f565b50505050501580156163a3573d6000803e3d60006163a06164a4565b50505b505050506040513d60208110156163c2576000806163bf6164a4565b50505b8101908080519350505050828110156164275760405162461bcd60e51b815260206004820152601a602482015279544f4b454e5f5452414e534645525f494e5f4f564552464c4f5760301b6044820152606401604051809103906164246164a4565b50505b9190910395945050505050565b60008060006164416167af565b612f21868660006164506167af565b600080616465670de0b6b3a764000087614eaf565b9092509050600082600381111561647857fe5b14616499578160405160208101604052600081529094509250612f57915050565b612f508186516144b1565b632a2a7adb598160e01b8152600481016020815285602082015260005b868110156164dc5780860151828201604001526020016164c1565b506020828760640184336000905af158600e01573d6000803e3d6000fd5b3d6001141558600a015760016000f35b505050565b6303daa959598160e01b8152836004820152602081602483336000905af158600e01573d6000803e3d6000fd5b3d6001141558600a015760016000f35b8051935060005b604081101561656a57600082820152602001616553565b505050565b6373509064598160e01b8152602081600483336000905af158600e01573d6000803e3d6000fd5b3d6001141558600a015760016000f35b80516000825293506020616553565b6322bd64c0598160e01b8152836004820152846024820152600081604483336000905af158600e01573d6000803e3d6000fd5b3d6001141558600a015760016000f35b600081526020616553565b638435035b598160e01b8152836004820152602081602483336000905af158600e01573d6000803e3d6000fd5b3d6001141558600a015760016000f35b80516000825293506020616553565b638540661f598160e01b8152836004820152846024820152606060448201528660648201526084810160005b8881101561669357808801518282015260200161667b565b506060828960a40184336000905af158600e01573d6000803e3d6000fd5b3d6001141558600a015760016000f35b815160408301513d6000853e8b8b82606087013350600060045af15059845b818110156166f457600081526020016166e0565b50919b505050505050565b6385979f76598160e01b8152836004820152846024820152606060448201528760648201526084810160005b8981101561674357808901518282015260200161672b565b506060828a60a40184336000905af158600e01573d6000803e3d6000fd5b3d6001141558600a015760016000f35b815160408301513d6000853e8c8c82606087013350600060045af15059845b818110156167a45760008152602001616790565b50919c505050505050565b604051602081016040526000815290565b82806167ca61650f565b600181600116156101000203166002900490600052602060002090601f016020900481019282601f1061681157805160ff1916838001178561680a6165b5565b5050616850565b828001600101856168206165b5565b50508215616850579182015b828111156168505782518261683f6165b5565b50509160200191906001019061682c565b5061685c929150616950565b5090565b635a98c361598160e01b8152602081600483336000905af158600e01573d6000803e3d6000fd5b3d6001141558600a015760016000f35b80516000825293506020616553565b60405161010081016040528060008152602001600081526020016000815260200160008152602001600081526020016000815260200160008152602001600081525090565b60405160e0810160405280600081526020016000815260200160008152602001600081526020016000815260200160008152602001600081525090565b6040516080810160405280600081526020016000815260200160008152602001600081525090565b610e9c91905b8082111561685c576000808261696a6165b5565b50505060010161695656fe6f6e6c792061646d696e206d617920696e697469616c697a6520746865206d61726b65746d61726b6574206d6179206f6e6c7920626520696e697469616c697a6564206f6e636545b96fe442630264581b197e84bbada861235052c5a1aadfff9ea4e40a969aa04345726332303a3a7377656570546f6b656e3a2063616e206e6f7420737765657020756e6465726c79696e6720746f6b656e696e697469616c2065786368616e67652072617465206d7573742062652067726561746572207468616e207a65726f2e73657474696e6720696e7465726573742072617465206d6f64656c206661696c65644d494e545f4e45575f4143434f554e545f42414c414e43455f43414c43554c4154494f4e5f4641494c4544626f72726f7742616c616e636553746f7265643a20626f72726f7742616c616e636553746f726564496e7465726e616c206661696c6564ca4f2f25d0898edd99413412fb94012f9e54ec8142f9b093e7720646a95b16a952455041595f424f52524f575f4e45575f4143434f554e545f424f52524f575f42414c414e43455f43414c43554c4154494f4e5f4641494c4544ddf252ad1be2c89b69c2b068fc378daa952ba7f163c4a11628f55a4df523b3ef52455041595f424f52524f575f4e45575f544f54414c5f42414c414e43455f43414c43554c4154494f4e5f4641494c45444c49515549444154455f434f4d5054524f4c4c45525f43414c43554c4154455f414d4f554e545f5345495a455f4641494c454465786368616e67655261746553746f7265643a2065786368616e67655261746553746f726564496e7465726e616c206661696c65644d494e545f4e45575f544f54414c5f535550504c595f43414c43554c4154494f4e5f4641494c45446f6e65206f662072656465656d546f6b656e73496e206f722072656465656d416d6f756e74496e206d757374206265207a65726f72656475636520726573657276657320756e657870656374656420756e646572666c6f776f6e6c792061646d696e206d617920696e697469616c697a6520746865206d61726b65746d61726b6574206d6179206f6e6c7920626520696e697469616c697a6564206f6e6365696e697469616c2065786368616e67652072617465206d7573742062652067726561746572207468616e207a65726f2e73657474696e6720696e7465726573742072617465206d6f64656c206661696c6564",
  "deployedBytecode": "0x6080604052348015610019576000806100166164a4565b50505b50600436106102445760003560e01c806306fdde0314610252578063095ea7b3146102d15780630e7527021461031a578063173b99041461035257806317bfdfbc1461035a57806318160ddd14610389578063182df0f5146103915780631a31d465146103995780631be195601461052e57806323b872dd1461055d5780632608f8181461059c57806326782247146105d1578063313ce567146105f55780633af9e669146106135780633b1d21a2146106425780633e9410101461064a5780634576b5db1461067057806347bd37181461069f5780635fe3b567146106a7578063601a0bf1146106af5780636c540baf146106d55780636f307dc3146106dd57806370a08231146106e557806373acee9814610714578063852a12e31461071c5780638f840ddd1461074257806395d89b411461074a57806395dd91931461075257806399d8c1b414610781578063a0712d681461090c578063a6afed9514610932578063a9059cbb1461093a578063aa5af0fd1461096f578063ae9d70b014610977578063b2a02ff11461097f578063b71d1a0c146109be578063bd6d894d146109ed578063c37f68e2146109f5578063c5ebeaec14610a4f578063db006a7514610a75578063dd62ed3e14610a9b578063e9c714f214610ad2578063f2b3abbd14610ada578063f3fdb15a14610b09578063f5e3c46214610b11578063f851a44014610b50578063f8f9da2814610b58578063fca7820b14610b60578063fe9c44ae14610b86575b60008061024f6164a4565b50505b61025a610b8e565b60405160208082528190810183818151815260200191508051906020019080838360005b8381101561029657808201518382015260200161027e565b50505050905090810190601f1680156102c35780820380516001836020036101000a031916815260200191505b509250505060405180910390f35b610306600480360360408110156102f0576000806102ed6164a4565b50505b506001600160a01b038135169060200135610c47565b604051901515815260200160405180910390f35b61034060048036036020811015610339576000806103366164a4565b50505b5035610ce9565b60405190815260200160405180910390f35b610340610cff565b61034060048036036020811015610379576000806103766164a4565b50505b50356001600160a01b0316610d0c565b610340610e29565b610340610e33565b61052c600480360360e08110156103b8576000806103b56164a4565b50505b6001600160a01b03823581169260208101358216926040820135909216916060820135919081019060a081016080820135600160201b811115610403576000806104006164a4565b50505b82018360208201111561041e5760008061041b6164a4565b50505b803590602001918460018302840111600160201b83111715610448576000806104456164a4565b50505b91908080601f01602080910402602001604051908101604052818152929190602084018383808284376000920191909152509295949360208101935035915050600160201b8111156104a25760008061049f6164a4565b50505b8201836020820111156104bd576000806104ba6164a4565b50505b803590602001918460018302840111600160201b831117156104e7576000806104e46164a4565b50505b91908080601f01602080910402602001604051908101604052818152929190602084018383808284376000920191909152509295505050903560ff169150610e9f9050565b005b61052c6004803603602081101561054d5760008061054a6164a4565b50505b50356001600160a01b0316610fa0565b6103066004803603606081101561057c576000806105796164a4565b50505b506001600160a01b038135811691602081013590911690604001356111d6565b610340600480360360408110156105bb576000806105b86164a4565b50505b506001600160a01b0381351690602001356112a5565b6105d96112bb565b6040516001600160a01b03909116815260200160405180910390f35b6105fd6112da565b60405160ff909116815260200160405180910390f35b610340600480360360208110156106325760008061062f6164a4565b50505b50356001600160a01b03166112f3565b6103406113b4565b61034060048036036020811015610669576000806106666164a4565b50505b50356113c3565b6103406004803603602081101561068f5760008061068c6164a4565b50505b50356001600160a01b03166113ce565b6103406115b4565b6105d96115be565b610340600480360360208110156106ce576000806106cb6164a4565b50505b50356115ca565b610340611696565b6105d96116a0565b61034060048036036020811015610704576000806107016164a4565b50505b50356001600160a01b03166116ac565b6103406116cc565b6103406004803603602081101561073b576000806107386164a4565b50505b50356117e7565b6103406117f2565b61025a6117fc565b610340600480360360208110156107715760008061076e6164a4565b50505b50356001600160a01b031661189e565b61052c600480360360c08110156107a05760008061079d6164a4565b50505b6001600160a01b03823581169260208101359091169160408201359190810190608081016060820135600160201b8111156107e3576000806107e06164a4565b50505b8201836020820111156107fe576000806107fb6164a4565b50505b803590602001918460018302840111600160201b83111715610828576000806108256164a4565b50505b91908080601f01602080910402602001604051908101604052818152929190602084018383808284376000920191909152509295949360208101935035915050600160201b8111156108825760008061087f6164a4565b50505b82018360208201111561089d5760008061089a6164a4565b50505b803590602001918460018302840111600160201b831117156108c7576000806108c46164a4565b50505b91908080601f01602080910402602001604051908101604052818152929190602084018383808284376000920191909152509295505050903560ff16915061190a9050565b6103406004803603602081101561092b576000806109286164a4565b50505b5035611bae565b610340611bba565b61030660048036036040811015610959576000806109566164a4565b50505b506001600160a01b038135169060200135611fc8565b61034061209e565b6103406120a8565b6103406004803603606081101561099e5760008061099b6164a4565b50505b506001600160a01b038135811691602081013590911690604001356121a8565b610340600480360360208110156109dd576000806109da6164a4565b50505b50356001600160a01b031661224e565b610340612329565b610a2460048036036020811015610a1457600080610a116164a4565b50505b50356001600160a01b0316612417565b6040518085815260200184815260200183815260200182815260200194505050505060405180910390f35b61034060048036036020811015610a6e57600080610a6b6164a4565b50505b50356124b5565b61034060048036036020811015610a9457600080610a916164a4565b50505b50356124c0565b61034060048036036040811015610aba57600080610ab76164a4565b50505b506001600160a01b03813581169160200135166124cb565b610340612504565b61034060048036036020811015610af957600080610af66164a4565b50505b50356001600160a01b03166126f8565b6105d9612732565b61034060048036036060811015610b3057600080610b2d6164a4565b50505b506001600160a01b0381358116916020810135916040909101351661273e565b6105d9612756565b610340612762565b61034060048036036020811015610b7f57600080610b7c6164a4565b50505b50356127e8565b61030661289b565b600180610b9961650f565b600181600116156101000203166002900480601f016020809104026020016040519081016040528181529190602083018280610bd361650f565b60018160011615610100020316600290048015610c3f5780601f10610c0d576101008083610bff61650f565b040283529160200191610c3f565b820191906000526020600020905b81610c2461650f565b81529060010190602001808311610c1b57829003601f168201915b505050505081565b6000805a610c5361656f565b6001600160a01b0381166000908152600f6020529091508390604090206001600160a01b0386166000908152602091909152604090208190610c936165b5565b505050836001600160a01b0316816001600160a01b03167f8c5be1e5ebec7d5bd14f71427d1e84f3dd0314c0f7b2291e5b200ac8c7c3b9258560405190815260200160405180910390a360019150505b92915050565b600080610cf5836128a0565b509150505b919050565b6008610d0961650f565b81565b60008080610d1861650f565b906101000a900460ff16610d685760405162461bcd60e51b815260206004820152600a6024820152691c994b595b9d195c995960b21b604482015260640160405180910390610d656164a4565b50505b600080600181610d7661650f565b8160ff02191690831515021790610d8b6165b5565b5060009150610d979050565b610d9f611bba565b14610df25760405162461bcd60e51b81526020600482015260166024820152751858d8dc9d59481a5b9d195c995cdd0819985a5b195960521b604482015260640160405180910390610def6164a4565b50505b610dfb8261189e565b90505b600160008181610e0c61650f565b8160ff02191690831515021790610e216165b5565b505050919050565b600d610d0961650f565b6000806000610e406129a4565b90925090506000826003811115610e5357fe5b14610e985760405162461bcd60e51b8152600401808060200182810382526035815260200180616ba16035913960400191505060405180910390610e956164a4565b50505b9150505b90565b610ead86868686868661190a565b866011600181610ebb61650f565b816001600160a01b0302191690836001600160a01b0316021790610edd6165b5565b5050506011600090610eed61650f565b906101000a90046001600160a01b03166001600160a01b03166318160ddd6040518163ffffffff1660e01b81526004016020604051808303818680610f30616603565b158015610f4557600080610f426164a4565b50505b505a610f4f61664f565b5050505050158015610f6e573d6000803e3d6000610f6b6164a4565b50505b505050506040513d6020811015610f8d57600080610f8a6164a4565b50505b8101908080515050505050505050505050565b60006011610fac61650f565b906101000a90046001600160a01b03166001600160a01b0316816001600160a01b031614156110155760405162461bcd60e51b81526004018080602001828103825260328152602001806169dd60329139604001915050604051809103906110126164a4565b50505b6000816001600160a01b03166370a082315a63996d79a5598160e01b8152602081600483336000905af158601d01573d60011458600c01573d6000803e3d621234565260ea61109c528051925060005b604081101561107c57600082820152602001611065565b5050506040516001600160e01b031960e084901b1681526001600160a01b03909116600482015260240160206040518083038186806110b9616603565b1580156110ce576000806110cb6164a4565b50505b505a6110d861664f565b50505050501580156110f7573d6000803e3d60006110f46164a4565b50505b505050506040513d6020811015611116576000806111136164a4565b50505b810190808051935050506001600160a01b038316905063a9059cbb6001600361113d61650f565b906101000a90046001600160a01b0316836040516001600160e01b031960e085901b1681526001600160a01b03909216600483015260248201526044016000604051808303816000878061118f616603565b1580156111a4576000806111a16164a4565b50505b505a6111ae6166ff565b5050505050501580156111ce573d6000803e3d60006111cb6164a4565b50505b505050505050565b600080806111e261650f565b906101000a900460ff166112325760405162461bcd60e51b815260206004820152600a6024820152691c994b595b9d195c995960b21b60448201526064016040518091039061122f6164a4565b50505b60008060018161124061650f565b8160ff021916908315150217906112556165b5565b50600091506112619050565b6112755a61126d61656f565b868686612a6f565b14905060016000818161128661650f565b8160ff0219169083151502179061129b6165b5565b5050509392505050565b6000806112b28484612e0c565b50949350505050565b600060046112c761650f565b906101000a90046001600160a01b031681565b600060036112e661650f565b906101000a900460ff1681565b60006112fd6167af565b6040518060200160405280611310612329565b90526001600160a01b0384166000908152600e6020529091508061133f836040832061133a61650f565b612f0a565b9092509050600082600381111561135257fe5b146113ac5760405162461bcd60e51b815260206004820152601f60248201527f62616c616e636520636f756c64206e6f742062652063616c63756c61746564006044820152606401604051809103906113a96164a4565b50505b949350505050565b60006113be612f5e565b905090565b6000610ce38261308c565b6000600160036113dc61650f565b906101000a90046001600160a01b03166001600160a01b03165a6113fe61656f565b6001600160a01b03161461141f576114186001603f613151565b9050610cfa565b600080600561142c61650f565b906101000a90046001600160a01b03169050826001600160a01b0316627e3dd26040518163ffffffff1660e01b81526004016020604051808303818680611471616603565b158015611486576000806114836164a4565b50505b505a61149061664f565b50505050501580156114af573d6000803e3d60006114ac6164a4565b50505b505050506040513d60208110156114ce576000806114cb6164a4565b50505b81019080805192506115319150505760405162461bcd60e51b815260206004820152601c60248201527b6d61726b6572206d6574686f642072657475726e65642066616c736560201b60448201526064016040518091039061152e6164a4565b50505b82600560018161153f61650f565b816001600160a01b0302191690836001600160a01b03160217906115616165b5565b5050507f7ac369dbd14fa5ea3f473ed67cc9d598964a77501540ba6751eb0b3decf5870d81846040516001600160a01b039283168152911660208201526040908101905180910390a160005b9392505050565b600b610d0961650f565b600060056112c761650f565b600080806115d661650f565b906101000a900460ff166116265760405162461bcd60e51b815260206004820152600a6024820152691c994b595b9d195c995960b21b6044820152606401604051809103906116236164a4565b50505b60008060018161163461650f565b8160ff021916908315150217906116496165b5565b5050506000611656611bba565b9050801561167c5761167481601081111561166d57fe5b6030613151565b915050610dfe565b611685836131ab565b915050600160008181610e0c61650f565b6009610d0961650f565b600060116112c761650f565b6001600160a01b0381166000908152600e60205260408120610ce361650f565b600080806116d861650f565b906101000a900460ff166117285760405162461bcd60e51b815260206004820152600a6024820152691c994b595b9d195c995960b21b6044820152606401604051809103906117256164a4565b50505b60008060018161173661650f565b8160ff0219169083151502179061174b6165b5565b50600091506117579050565b61175f611bba565b146117b25760405162461bcd60e51b81526020600482015260166024820152751858d8dc9d59481a5b9d195c995cdd0819985a5b195960521b6044820152606401604051809103906117af6164a4565b50505b600b6117bc61650f565b90506001600081816117cc61650f565b8160ff021916908315150217906117e16165b5565b50505090565b6000610ce382613360565b600c610d0961650f565b60028061180761650f565b600181600116156101000203166002900480601f01602080910402602001604051908101604052818152919060208301828061184161650f565b60018160011615610100020316600290048015610c3f5780601f1061186d576101008083610bff61650f565b820191906000526020600020905b8161188461650f565b8152906001019060200180831161187b5750859350505050565b60008060006118ac8461341e565b909250905060008260038111156118bf57fe5b146115ad5760405162461bcd60e51b8152600401808060200182810382526037815260200180616a8c60379139604001915050604051809103906119016164a4565b50509392505050565b6001600361191661650f565b906101000a90046001600160a01b03166001600160a01b03165a61193861656f565b6001600160a01b0316146119865760405162461bcd60e51b815260040180806020018281038252602481526020018061697660249139604001915050604051809103906119836164a4565b50505b600961199061650f565b1580156119a45750600a6119a261650f565b155b6119e85760405162461bcd60e51b815260040180806020018281038252602381526020018061699a60239139604001915050604051809103906119e56164a4565b50505b838060076119f46165b5565b50505060006007611a0361650f565b11611a485760405162461bcd60e51b8152600401808060200182810382526030815260200180616a0f6030913960400191505060405180910390611a456164a4565b50505b6000611a53876113ce565b90508015611aad5760405162461bcd60e51b815260206004820152601a6024820152791cd95d1d1a5b99c818dbdb5c1d1c9bdb1b195c8819985a5b195960321b604482015260640160405180910390611aaa6164a4565b50505b611ab56134ea565b806009611ac06165b5565b505050670de0b6b3a7640000600a8190611ad86165b5565b505050611ae4866134f5565b90508015611b2c5760405162461bcd60e51b8152600401808060200182810382526022815260200180616a3f6022913960400191505060405180910390611b296164a4565b50505b6001848051611b3f9291602001906167c0565b506002838051611b539291602001906167c0565b50816003600181611b6261650f565b8160ff021916908360ff16021790611b786165b5565b50505060016000806101000a81611b8d61650f565b8160ff02191690831515021790611ba26165b5565b50505050505050505050565b600080610cf5836136f5565b600080611bc56134ea565b905060006009611bd361650f565b905081811415611be857600092505050610e9c565b6000611bf2612f5e565b90506000600b611c0061650f565b90506000600c611c0e61650f565b90506000600a611c1c61650f565b90506000806006611c2b61650f565b906101000a90046001600160a01b03166001600160a01b03166315f240538686866040516001600160e01b031960e086901b1681526004810193909352602483019190915260448201526064016020604051808303818680611c8b616603565b158015611ca057600080611c9d6164a4565b50505b505a611caa61664f565b5050505050158015611cc9573d6000803e3d6000611cc66164a4565b50505b505050506040513d6020811015611ce857600080611ce56164a4565b50505b8101908080519350505065048c273950008211159050611d565760405162461bcd60e51b815260206004820152601c60248201527b0c4dee4e4deee40e4c2e8ca40d2e640c2c4e6eae4c8d8f240d0d2ced60231b604482015260640160405180910390611d536164a4565b50505b600080611d6389896137b2565b90925090506000826003811115611d7657fe5b14611dd05760405162461bcd60e51b815260206004820152601f60248201527f636f756c64206e6f742063616c63756c61746520626c6f636b2064656c746100604482015260640160405180910390611dcd6164a4565b50505b611dd86167af565b600080600080611df460405160208101604052898152876137d5565b90975094506000876003811115611e0757fe5b14611e3957611e2460096006896003811115611e1f57fe5b61383b565b9e505050505050505050505050505050610e9c565b611e43858c612f0a565b90975093506000876003811115611e5657fe5b14611e6e57611e2460096001896003811115611e1f57fe5b611e78848c613894565b90975092506000876003811115611e8b57fe5b14611ea357611e2460096004896003811115611e1f57fe5b611ec460405180602001604052806008611ebb61650f565b9052858c6138ba565b90975091506000876003811115611ed757fe5b14611eef57611e2460096005896003811115611e1f57fe5b611efa858a8b6138ba565b90975090506000876003811115611f0d57fe5b14611f2557611e2460096003896003811115611e1f57fe5b8d806009611f316165b5565b50505080600a8190611f416165b5565b50505082600b8190611f516165b5565b50505081600c8190611f616165b5565b5050507f4dec04e750ca11537cabcd8a9eab06494de08da3735bc8871cd41250e190bc048c8583866040518085815260200184815260200183815260200182815260200194505050505060405180910390a160009e50505050505050505050505050505090565b60008080611fd461650f565b906101000a900460ff166120245760405162461bcd60e51b815260206004820152600a6024820152691c994b595b9d195c995960b21b6044820152606401604051809103906120216164a4565b50505b60008060018161203261650f565b8160ff021916908315150217906120476165b5565b50600091506120539050565b61206f5a61205f61656f565b5a61206861656f565b8686612a6f565b14905060016000818161208061650f565b8160ff021916908315150217906120956165b5565b50505092915050565b600a610d0961650f565b60008060066120b561650f565b906101000a90046001600160a01b03166001600160a01b031663b81688166120db612f5e565b600b6120e561650f565b600c6120ef61650f565b60086120f961650f565b6040516001600160e01b031960e087901b1681526004810194909452602484019290925260448301526064820152608401602060405180830381868061213d616603565b1580156121525760008061214f6164a4565b50505b505a61215c61664f565b505050505015801561217b573d6000803e3d60006121786164a4565b50505b505050506040513d602081101561219a576000806121976164a4565b50505b810190808051935050505090565b600080806121b461650f565b906101000a900460ff166122045760405162461bcd60e51b815260206004820152600a6024820152691c994b595b9d195c995960b21b6044820152606401604051809103906122016164a4565b50505b60008060018161221261650f565b8160ff021916908315150217906122276165b5565b50505061223e5a61223661656f565b858585613916565b905060016000818161128661650f565b60006001600361225c61650f565b906101000a90046001600160a01b03166001600160a01b03165a61227e61656f565b6001600160a01b0316146122985761141860016045613151565b60008060046122a561650f565b906101000a90046001600160a01b0316905082600460006101000a816122c961650f565b816001600160a01b0302191690836001600160a01b03160217906122eb6165b5565b505050600080516020616ac383398151915281846040516001600160a01b039283168152911660208201526040908101905180910390a160006115ad565b6000808061233561650f565b906101000a900460ff166123855760405162461bcd60e51b815260206004820152600a6024820152691c994b595b9d195c995960b21b6044820152606401604051809103906123826164a4565b50505b60008060018161239361650f565b8160ff021916908315150217906123a86165b5565b50600091506123b49050565b6123bc611bba565b1461240f5760405162461bcd60e51b81526020600482015260166024820152751858d8dc9d59481a5b9d195c995cdd0819985a5b195960521b60448201526064016040518091039061240c6164a4565b50505b6117bc610e33565b6001600160a01b0381166000908152600e602052808080806040812061243b61650f565b9050600080600061244b8961341e565b93509050600081600381111561245d57fe5b1461247b5760095b9750600096508695508594506124ae9350505050565b6124836129a4565b92509050600081600381111561249557fe5b146124a1576009612465565b5060009650919450925090505b9193509193565b6000610ce382613be7565b6000610ce382613ca3565b6001600160a01b0382166000908152600f602052604081206001600160a01b0383166000908152602091909152604090206115ad61650f565b600080600461251161650f565b906101000a90046001600160a01b03166001600160a01b03165a61253361656f565b6001600160a01b031614158061255a575060005a61254f61656f565b6001600160a01b0316145b156125725761256b60016000613151565b9050610e9c565b60006001600361258061650f565b906101000a90046001600160a01b03169050600060046000906125a161650f565b906101000a90046001600160a01b0316905060046000906125c061650f565b906101000a90046001600160a01b0316600360016101000a816125e161650f565b816001600160a01b0302191690836001600160a01b03160217906126036165b5565b5050506000600460006101000a8161261961650f565b816001600160a01b0302191690836001600160a01b031602179061263b6165b5565b5050507ff9ffabca9c8276e99321725bcb43fb076a6c66a54b7f21c4e8146d8519b417dc82600360019061266d61650f565b906101000a90046001600160a01b03166040516001600160a01b039283168152911660208201526040908101905180910390a1600080516020616ac383398151915281600060046126bc61650f565b906101000a90046001600160a01b03166040516001600160a01b039283168152911660208201526040908101905180910390a160009250505090565b600080612703611bba565b905080156127295761272181601081111561271a57fe5b6040613151565b915050610cfa565b6115ad836134f5565b600060066112c761650f565b60008061274c858585613d5a565b5095945050505050565b600160036112c761650f565b600080600661276f61650f565b906101000a90046001600160a01b03166001600160a01b03166315f24053612795612f5e565b600b61279f61650f565b600c6127a961650f565b6040516001600160e01b031960e086901b168152600481019390935260248301919091526044820152606401602060405180830381868061213d616603565b600080806127f461650f565b906101000a900460ff166128445760405162461bcd60e51b815260206004820152600a6024820152691c994b595b9d195c995960b21b6044820152606401604051809103906128416164a4565b50505b60008060018161285261650f565b8160ff021916908315150217906128676165b5565b5050506000612874611bba565b905080156128925761167481601081111561288b57fe5b6046613151565b61168583613f1e565b600181565b60008080806128ad61650f565b906101000a900460ff166128fd5760405162461bcd60e51b815260206004820152600a6024820152691c994b595b9d195c995960b21b6044820152606401604051809103906128fa6164a4565b50505b60008060018161290b61650f565b8160ff021916908315150217906129206165b5565b505050600061292d611bba565b905080156129585761294b81601081111561294457fe5b6036613151565b9250600091506129799050565b6129735a61296461656f565b5a61296d61656f565b86614005565b92509250505b60016000818161298761650f565b8160ff0219169083151502179061299c6165b5565b505050915091565b6000806000600d6129b361650f565b9050806129d057600060076129c661650f565b9250925050612a6b565b60006129da612f5e565b905060006129e66167af565b6000612a0584600b6129f661650f565b600c612a0061650f565b614473565b935090506000816003811115612a1757fe5b14612a2c57955060009450612a6b9350505050565b612a3683866144b1565b925090506000816003811115612a4857fe5b14612a5d57955060009450612a6b9350505050565b600082519650965050505050505b9091565b600080806005612a7d61650f565b906101000a90046001600160a01b03166001600160a01b031663bdcdc2585a63996d79a5598160e01b8152602081600483336000905af158601d01573d60011458600c01573d6000803e3d621234565260ea61109c528051925060005b6040811015612af157600082820152602001612ada565b5050508787876040516001600160e01b031960e087901b1681526001600160a01b039485166004820152928416602484015292166044820152606481019190915260840160206040518083038160008780612b4a616603565b158015612b5f57600080612b5c6164a4565b50505b505a612b696166ff565b505050505050158015612b89573d6000803e3d6000612b866164a4565b50505b505050506040513d6020811015612ba857600080612ba56164a4565b50505b81019080805193505082159150612bd0905057612bc86003604a8361383b565b9150506113ac565b836001600160a01b0316856001600160a01b03161415612bf657612bc86002604b613151565b60006001600160a01b038781169087161415612c155750600019612c51565b6001600160a01b0386166000908152600f602052604090206001600160a01b038816600090815260209190915260409020612c4e61650f565b90505b600080600080612c6185896137b2565b90945092506000846003811115612c7457fe5b14612c9257612c856009604b613151565b96505050505050506113ac565b6001600160a01b038a166000908152600e602052612cbc9060409020612cb661650f565b896137b2565b90945091506000846003811115612ccf57fe5b14612ce057612c856009604c613151565b6001600160a01b0389166000908152600e602052612d0a9060409020612d0461650f565b89613894565b90945090506000846003811115612d1d57fe5b14612d2e57612c856009604d613151565b6001600160a01b038a166000908152600e6020528290604090208190612d526165b5565b5050506001600160a01b0389166000908152600e6020528190604090208190612d796165b5565b5050506000198514612dc6576001600160a01b038a166000908152600f6020528390604090206001600160a01b038d166000908152602091909152604090208190612dc26165b5565b5050505b886001600160a01b03168a6001600160a01b0316600080516020616b1d8339815191528a60405190815260200160405180910390a35060009a9950505050505050505050565b6000808080612e1961650f565b906101000a900460ff16612e695760405162461bcd60e51b815260206004820152600a6024820152691c994b595b9d195c995960b21b604482015260640160405180910390612e666164a4565b50505b600080600181612e7761650f565b8160ff02191690831515021790612e8c6165b5565b5050506000612e99611bba565b90508015612ec457612eb7816010811115612eb057fe5b6035613151565b925060009150612edd9050565b612ed75a612ed061656f565b8686614005565b92509250505b600160008181612eeb61650f565b8160ff02191690831515021790612f006165b5565b5050509250929050565b6000806000612f176167af565b612f2186866137d5565b90925090506000826003811115612f3457fe5b14612f455750915060009050612f57565b6000612f5082614563565b9350935050505b9250929050565b600080806011612f6c61650f565b906101000a90046001600160a01b03169050806001600160a01b03166370a082315a63996d79a5598160e01b8152602081600483336000905af158601d01573d60011458600c01573d6000803e3d621234565260ea61109c528051925060005b6040811015612fe357600082820152602001612fcc565b5050506040516001600160e01b031960e084901b1681526001600160a01b0390911660048201526024016020604051808303818680613020616603565b158015613035576000806130326164a4565b50505b505a61303f61664f565b505050505015801561305e573d6000803e3d600061305b6164a4565b50505b505050506040513d602081101561307d5760008061307a6164a4565b50505b81019080805194505050505090565b6000808061309861650f565b906101000a900460ff166130e85760405162461bcd60e51b815260206004820152600a6024820152691c994b595b9d195c995960b21b6044820152606401604051809103906130e56164a4565b50505b6000806001816130f661650f565b8160ff0219169083151502179061310b6165b5565b5050506000613118611bba565b905080156131365761167481601081111561312f57fe5b604e613151565b61313f8361457e565b50915050600160008181610e0c61650f565b60006000805160206169bd83398151915283601081111561316e57fe5b83605081111561317a57fe5b600060405180848152602001838152602001828152602001935050505060405180910390a18260108111156115ad57fe5b600080600160036131ba61650f565b906101000a90046001600160a01b03166001600160a01b03165a6131dc61656f565b6001600160a01b0316146131f65761272160016031613151565b6131fe6134ea565b600961320861650f565b1461321957612721600a6033613151565b82613222612f5e565b101561323457612721600e6032613151565b600c61323e61650f565b8311156132515761272160026034613151565b82600c61325c61650f565b039050600c61326961650f565b8111156132b05760405162461bcd60e51b8152600401808060200182810382526024815260200180616c3260249139604001915050604051809103906132ad6164a4565b50505b8080600c6132bc6165b5565b5050506132e560036001906132cf61650f565b906101000a90046001600160a01b0316846146b6565b7f3bad0c59cf2f06e7314077049f48a93578cd16f5ef92329f1dab1420a99c177e6001600361331261650f565b906101000a90046001600160a01b0316848360405180846001600160a01b03166001600160a01b03168152602001838152602001828152602001935050505060405180910390a160006115ad565b6000808061336c61650f565b906101000a900460ff166133bc5760405162461bcd60e51b815260206004820152600a6024820152691c994b595b9d195c995960b21b6044820152606401604051809103906133b96164a4565b50505b6000806001816133ca61650f565b8160ff021916908315150217906133df6165b5565b50505060006133ec611bba565b9050801561340a5761167481601081111561340357fe5b6027613151565b6116855a61341661656f565b6000856147ff565b6001600160a01b0381166000908152601060205280808080806040812090508061344661650f565b61345b5750600094508493506134e592505050565b6134768161346761650f565b600a61347161650f565b614eaf565b9094509250600084600381111561348957fe5b1461349e5750919350600092506134e5915050565b6134b383826001016134ae61650f565b614eee565b909450915060008460038111156134c657fe5b146134db5750919350600092506134e5915050565b5060009450925050505b915091565b60005a6113be616860565b6000806001600361350461650f565b906101000a90046001600160a01b03166001600160a01b03165a61352661656f565b6001600160a01b0316146135405761272160016042613151565b6135486134ea565b600961355261650f565b1461356357612721600a6041613151565b6000600661356f61650f565b906101000a90046001600160a01b03169050826001600160a01b0316632191f92a6040518163ffffffff1660e01b815260040160206040518083038186806135b5616603565b1580156135ca576000806135c76164a4565b50505b505a6135d461664f565b50505050501580156135f3573d6000803e3d60006135f06164a4565b50505b505050506040513d60208110156136125760008061360f6164a4565b50505b81019080805192506136759150505760405162461bcd60e51b815260206004820152601c60248201527b6d61726b6572206d6574686f642072657475726e65642066616c736560201b6044820152606401604051809103906136726164a4565b50505b82600660018161368361650f565b816001600160a01b0302191690836001600160a01b03160217906136a56165b5565b5050507fedffc32e068c7c95dfd4bdfd5c4d939a084d6b11c4199eac8436ed234d72f92681846040516001600160a01b039283168152911660208201526040908101905180910390a160006115ad565b600080808061370261650f565b906101000a900460ff166137525760405162461bcd60e51b815260206004820152600a6024820152691c994b595b9d195c995960b21b60448201526064016040518091039061374f6164a4565b50505b60008060018161376061650f565b8160ff021916908315150217906137756165b5565b5050506000613782611bba565b905080156137a05761294b81601081111561379957fe5b601e613151565b6129735a6137ac61656f565b85614f19565b6000808383116137c9575060009050818303612f57565b50600390506000612f57565b60006137df6167af565b6000806137ed865186614eaf565b9092509050600082600381111561380057fe5b14613821578160405160208101604052600081529094509250612f57915050565b600060405160208101604052918252969095509350505050565b60006000805160206169bd83398151915284601081111561385857fe5b84605081111561386457fe5b8460405180848152602001838152602001828152602001935050505060405180910390a18360108111156113ac57fe5b6000808383018481106138ac57600092509050612f57565b506002915060009050612f57565b60008060006138c76167af565b6138d187876137d5565b909250905060008260038111156138e457fe5b146138f5575091506000905061390e565b61390761390182614563565b86613894565b9350935050505b935093915050565b60008080600561392461650f565b906101000a90046001600160a01b03166001600160a01b031663d02f73515a63996d79a5598160e01b8152602081600483336000905af158601d01573d60011458600c01573d6000803e3d621234565260ea61109c528051925060005b604081101561399857600082820152602001613981565b505050888888886040516001600160e01b031960e088901b1681526001600160a01b039586166004820152938516602485015291841660448401529092166064820152608481019190915260a401602060405180830381600087806139fb616603565b158015613a1057600080613a0d6164a4565b50505b505a613a1a6166ff565b505050505050158015613a3a573d6000803e3d6000613a376164a4565b50505b505050506040513d6020811015613a5957600080613a566164a4565b50505b81019080805193505082159150613a79905057612bc86003601b8361383b565b846001600160a01b0316846001600160a01b03161415613a9f57612bc86006601c613151565b6001600160a01b0384166000908152600e6020528080613aca60408220613ac461650f565b876137b2565b90935091506000836003811115613add57fe5b14613b0057613af56009601a856003811115611e1f57fe5b9450505050506113ac565b6001600160a01b0388166000908152600e602052613b2a9060409020613b2461650f565b87613894565b90935090506000836003811115613b3d57fe5b14613b5557613af560096019856003811115611e1f57fe5b6001600160a01b0387166000908152600e6020528290604090208190613b796165b5565b5050506001600160a01b0388166000908152600e6020528190604090208190613ba06165b5565b505050876001600160a01b0316876001600160a01b0316600080516020616b1d8339815191528860405190815260200160405180910390a360009998505050505050505050565b60008080613bf361650f565b906101000a900460ff16613c435760405162461bcd60e51b815260206004820152600a6024820152691c994b595b9d195c995960b21b604482015260640160405180910390613c406164a4565b50505b600080600181613c5161650f565b8160ff02191690831515021790613c666165b5565b5050506000613c73611bba565b90508015613c9157611674816010811115613c8a57fe5b6008613151565b6116855a613c9d61656f565b84615449565b60008080613caf61650f565b906101000a900460ff16613cff5760405162461bcd60e51b815260206004820152600a6024820152691c994b595b9d195c995960b21b604482015260640160405180910390613cfc6164a4565b50505b600080600181613d0d61650f565b8160ff02191690831515021790613d226165b5565b5050506000613d2f611bba565b90508015613d465761167481601081111561340357fe5b6116855a613d5261656f565b8460006147ff565b6000808080613d6761650f565b906101000a900460ff16613db75760405162461bcd60e51b815260206004820152600a6024820152691c994b595b9d195c995960b21b604482015260640160405180910390613db46164a4565b50505b600080600181613dc561650f565b8160ff02191690831515021790613dda6165b5565b5050506000613de7611bba565b90508015613e1257613e05816010811115613dfe57fe5b600f613151565b925060009150613ef09050565b836001600160a01b031663a6afed956040518163ffffffff1660e01b815260040160206040518083038160008780613e48616603565b158015613e5d57600080613e5a6164a4565b50505b505a613e676166ff565b505050505050158015613e87573d6000803e3d6000613e846164a4565b50505b505050506040513d6020811015613ea657600080613ea36164a4565b50505b810190808051935060009250613eba915050565b8114613ed657613e05816010811115613ecf57fe5b6010613151565b613eea5a613ee261656f565b8787876157ec565b92509250505b600160008181613efe61650f565b8160ff02191690831515021790613f136165b5565b505050935093915050565b600060016003613f2c61650f565b906101000a90046001600160a01b03166001600160a01b03165a613f4e61656f565b6001600160a01b031614613f685761141860016047613151565b613f706134ea565b6009613f7a61650f565b14613f8b57611418600a6048613151565b670de0b6b3a7640000821115613fa75761141860026049613151565b60006008613fb361650f565b905082806008613fc16165b5565b5050507faaa68312e2ea9d50e16af5068410ab56e1a1fd06037b1a35664812c30f821460818460405191825260208201526040908101905180910390a160006115ad565b6000808080600561401461650f565b906101000a90046001600160a01b03166001600160a01b03166324008a625a63996d79a5598160e01b8152602081600483336000905af158601d01573d60011458600c01573d6000803e3d621234565260ea61109c528051925060005b604081101561408857600082820152602001614071565b5050508888886040516001600160e01b031960e087901b1681526001600160a01b0394851660048201529284166024840152921660448201526064810191909152608401602060405180830381600087806140e1616603565b1580156140f6576000806140f36164a4565b50505b505a6141006166ff565b505050505050158015614120573d6000803e3d600061411d6164a4565b50505b505050506040513d602081101561413f5760008061413c6164a4565b50505b8101908080519350508215915061416c90505761415f600360388361383b565b92506000915061390e9050565b6141746134ea565b600961417e61650f565b1461418f5761415f600a6039613151565b6141976168a6565b6001600160a01b03861660009081526010602052604090206001016141ba61650f565b60608201526141c88661341e565b60808301819052602083018260038111156141df57fe5b60038111156141ea57fe5b905250600090508160200151600381111561420157fe5b1461422b5761421d6009603783602001516003811115611e1f57fe5b93506000925061390e915050565b600019851415614244578060800151604082015261424c565b604081018590525b61425a878260400151615fd3565b60e082015261427160808201518260e001516137b2565b60a083018190526020830182600381111561428857fe5b600381111561429357fe5b90525060009050816020015160038111156142aa57fe5b146142ef5760405162461bcd60e51b815260040180806020018281038252603a815260200180616ae3603a9139604001915050604051809103906142ec6164a4565b50505b614306600b6142fc61650f565b8260e001516137b2565b60c083018190526020830182600381111561431d57fe5b600381111561432857fe5b905250600090508160200151600381111561433f57fe5b146143845760405162461bcd60e51b8152600401808060200182810382526031815260200180616b3d60319139604001915050604051809103906143816164a4565b50505b8060a001516001600160a01b038716600090815260106020526040902081906143ab6165b5565b505050600a6143b861650f565b6001600160a01b038716600090815260106020526040902060010181906143dd6165b5565b5050508060c0015180600b6143f06165b5565b5050507f1a2a22cb034d26d1854bdc6666a5b91fe25efbbb5dcad3b0355478d6f5c362a187878360e001518460a001518560c001516040516001600160a01b0395861681529390941660208401526040808401929092526060830152608082019290925260a001905180910390a160008160e00151935093505050935093915050565b6000806000806144838787613894565b9092509050600082600381111561449657fe5b146144a7575091506000905061390e565b61390781866137b2565b60006144bb6167af565b6000806144d086670de0b6b3a7640000614eaf565b909250905060008260038111156144e357fe5b14614504578160405160208101604052600081529094509250612f57915050565b6000806145118388614eee565b9092509050600082600381111561452457fe5b14614547578160405160208101604052600081529096509450612f579350505050565b6000604051602081016040529182529890975095505050505050565b6000670de0b6b3a764000082518161457757fe5b0492915050565b60008060008061458c6134ea565b600961459661650f565b146145b2576145a7600a604f613151565b935091506134e59050565b6145c45a6145be61656f565b86615fd3565b905080600c6145d161650f565b019150600c6145de61650f565b82101561463a5760405162461bcd60e51b815260206004820181905260248201527f61646420726573657276657320756e6578706563746564206f766572666c6f776044820152606401604051809103906146376164a4565b50505b8180600c6146466165b5565b5050507fa91e67c5ea634cd43a12c5a482724b03de01e85ca68702a53d0c2f45cb7c1dc55a61467361656f565b828460405180846001600160a01b03166001600160a01b03168152602001838152602001828152602001935050505060405180910390a160009350915050915091565b60008060116146c361650f565b906101000a90046001600160a01b03169050806001600160a01b031663a9059cbb84846040516001600160e01b031960e085901b1681526001600160a01b039092166004830152602482015260440160006040518083038160008780614727616603565b15801561473c576000806147396164a4565b50505b505a6147466166ff565b505050505050158015614766573d6000803e3d60006147636164a4565b50505b5050505060003d6000811461478f5760208114614799576000806147886164a4565b50506147a5565b60001991506147a5565b60206000803e60005191505b50806147f95760405162461bcd60e51b81526020600482015260196024820152781513d2d15397d514905394d1915497d3d55517d19052531151603a1b6044820152606401604051809103906111ce6164a4565b50505050565b600082158061480c575081155b6148505760405162461bcd60e51b8152600401808060200182810382526034815260200180616bfe603491396040019150506040518091039061484d6164a4565b50505b6148586168eb565b6148606129a4565b604083018190526020830182600381111561487757fe5b600381111561488257fe5b905250600090508160200151600381111561489957fe5b146148bd576148b56009602b83602001516003811115611e1f57fe5b9150506115ad565b831561493f57606081018490526148e560405180602001604052808360400151905285612f0a565b60808301819052602083018260038111156148fc57fe5b600381111561490757fe5b905250600090508160200151600381111561491e57fe5b1461493a576148b56009602983602001516003811115611e1f57fe5b6149b7565b61495a83604051806020016040528084604001519052616434565b606083018190526020830182600381111561497157fe5b600381111561497c57fe5b905250600090508160200151600381111561499357fe5b146149af576148b56009602a83602001516003811115611e1f57fe5b608081018390525b60008060056149c461650f565b906101000a90046001600160a01b03166001600160a01b031663eabe7d915a63996d79a5598160e01b8152602081600483336000905af158601d01573d60011458600c01573d6000803e3d621234565260ea61109c528051925060005b6040811015614a3857600082820152602001614a21565b5050508885606001516040516001600160e01b031960e086901b1681526001600160a01b039384166004820152919092166024820152604481019190915260640160206040518083038160008780614a8e616603565b158015614aa357600080614aa06164a4565b50505b505a614aad6166ff565b505050505050158015614acd573d6000803e3d6000614aca6164a4565b50505b505050506040513d6020811015614aec57600080614ae96164a4565b50505b81019080805193505082159150614b15905057614b0c600360288361383b565b925050506115ad565b614b1d6134ea565b6009614b2761650f565b14614b3857614b0c600a602c613151565b614b4f600d614b4561650f565b83606001516137b2565b60a0840181905260208401826003811115614b6657fe5b6003811115614b7157fe5b9052506000905082602001516003811115614b8857fe5b14614ba457614b0c6009602e84602001516003811115611e1f57fe5b6001600160a01b0386166000908152600e602052614bc89060409020614b4561650f565b60c0840181905260208401826003811115614bdf57fe5b6003811115614bea57fe5b9052506000905082602001516003811115614c0157fe5b14614c1d57614b0c6009602d84602001516003811115611e1f57fe5b8160800151614c2a612f5e565b1015614c3c57614b0c600e602f613151565b614c4a8683608001516146b6565b8160a0015180600d614c5a6165b5565b5050508160c001516001600160a01b0387166000908152600e602052604090208190614c846165b5565b5050505a63996d79a5598160e01b8152602081600483336000905af158601d01573d60011458600c01573d6000803e3d621234565260ea61109c528051925060005b6040811015614cdd57600082820152602001614cc6565b5050506001600160a01b0316866001600160a01b0316600080516020616b1d833981519152846060015160405190815260200160405180910390a37fe5b754fb1abb7f01b499791d0b820ae3b6af3424ac1c59768edb53f4ec31a929868360800151846060015160405180846001600160a01b03166001600160a01b03168152602001838152602001828152602001935050505060405180910390a160006005614d8561650f565b906101000a90046001600160a01b03166001600160a01b03166351dff9895a63996d79a5598160e01b8152602081600483336000905af158601d01573d60011458600c01573d6000803e3d621234565260ea61109c528051925060005b6040811015614df957600082820152602001614de2565b50505088856080015186606001516040516001600160e01b031960e087901b1681526001600160a01b0394851660048201529290931660248301526044820152606481019190915260840160006040518083038160008780614e59616603565b158015614e6e57600080614e6b6164a4565b50505b505a614e786166ff565b505050505050158015614e98573d6000803e3d6000614e956164a4565b50505b5060009250614ea5915050565b9695505050505050565b60008083614ec257506000905080612f57565b83830283858281614ecf57fe5b0414614ee357506002915060009050612f57565b600092509050612f57565b60008082614f025750600190506000612f57565b6000838581614f0d57fe5b04915091509250929050565b60008080806005614f2861650f565b906101000a90046001600160a01b03166001600160a01b0316634ef4c3e15a63996d79a5598160e01b8152602081600483336000905af158601d01573d60011458600c01573d6000803e3d621234565260ea61109c528051925060005b6040811015614f9c57600082820152602001614f85565b50505087876040516001600160e01b031960e086901b1681526001600160a01b039384166004820152919092166024820152604481019190915260640160206040518083038160008780614fee616603565b158015615003576000806150006164a4565b50505b505a61500d6166ff565b50505050505015801561502d573d6000803e3d600061502a6164a4565b50505b505050506040513d602081101561504c576000806150496164a4565b50505b8101908080519350508215915061507990505761506c6003601f8361383b565b925060009150612f579050565b6150816134ea565b600961508b61650f565b1461509c5761506c600a6022613151565b6150a46168eb565b6150ac6129a4565b60408301819052602083018260038111156150c357fe5b60038111156150ce57fe5b90525060009050816020015160038111156150e557fe5b1461510f576151016009602183602001516003811115611e1f57fe5b935060009250612f57915050565b6151198686615fd3565b60c0820190815261513c9051604051806020016040528084604001519052616434565b606083018190526020830182600381111561515357fe5b600381111561515e57fe5b905250600090508160200151600381111561517557fe5b146151cf5760405162461bcd60e51b815260206004820181905260248201527f4d494e545f45584348414e47455f43414c43554c4154494f4e5f4641494c45446044820152606401604051809103906151cc6164a4565b50505b6151e6600d6151dc61650f565b8260600151613894565b60808301819052602083018260038111156151fd57fe5b600381111561520857fe5b905250600090508160200151600381111561521f57fe5b146152645760405162461bcd60e51b8152600401808060200182810382526028815260200180616bd660289139604001915050604051809103906152616164a4565b50505b6001600160a01b0386166000908152600e60205261528890604090206151dc61650f565b60a083018190526020830182600381111561529f57fe5b60038111156152aa57fe5b90525060009050816020015160038111156152c157fe5b146153065760405162461bcd60e51b815260040180806020018281038252602b815260200180616a61602b9139604001915050604051809103906153036164a4565b50505b806080015180600d6153166165b5565b5050508060a001516001600160a01b0387166000908152600e6020526040902081906153406165b5565b5050507f4c209b5fc8ad50758f13e2e1088ba56a560dff690a1c6fef26394f4c03821c4f868260c00151836060015160405180846001600160a01b03166001600160a01b03168152602001838152602001828152602001935050505060405180910390a1856001600160a01b03165a63996d79a5598160e01b8152602081600483336000905af158601d01573d60011458600c01573d6000803e3d621234565260ea61109c528051925060005b6040811015615404576000828201526020016153ed565b5050506001600160a01b0316600080516020616b1d833981519152836060015160405190815260200160405180910390a360008160c001519350935050509250929050565b60008080600561545761650f565b906101000a90046001600160a01b03166001600160a01b031663da3d454c5a63996d79a5598160e01b8152602081600483336000905af158601d01573d60011458600c01573d6000803e3d621234565260ea61109c528051925060005b60408110156154cb576000828201526020016154b4565b50505086866040516001600160e01b031960e086901b1681526001600160a01b03938416600482015291909216602482015260448101919091526064016020604051808303816000878061551d616603565b1580156155325760008061552f6164a4565b50505b505a61553c6166ff565b50505050505015801561555c573d6000803e3d60006155596164a4565b50505b505050506040513d602081101561557b576000806155786164a4565b50505b810190808051935050821591506155a390505761559b6003600e8361383b565b915050610ce3565b6155ab6134ea565b60096155b561650f565b146155c55761559b600a80613151565b826155ce612f5e565b10156155e05761559b600e6009613151565b6155e8616928565b6155f18561341e565b602083018190528282600381111561560557fe5b600381111561561057fe5b905250600090508151600381111561562457fe5b146156465761563d6009600783516003811115611e1f57fe5b92505050610ce3565b615654816020015185613894565b604083018190528282600381111561566857fe5b600381111561567357fe5b905250600090508151600381111561568757fe5b146156a05761563d6009600c83516003811115611e1f57fe5b6156b3600b6156ad61650f565b85613894565b60608301819052828260038111156156c757fe5b60038111156156d257fe5b90525060009050815160038111156156e657fe5b146156ff5761563d6009600b83516003811115611e1f57fe5b61570985856146b6565b80604001516001600160a01b038616600090815260106020526040902081906157306165b5565b505050600a61573d61650f565b6001600160a01b038616600090815260106020526040902060010181906157626165b5565b505050806060015180600b6157756165b5565b5050507f13ed6866d4e1ee6da46f845c46d7e54120883d75c5ea9a2dacc1c4ca8984ab8085858360400151846060015160405180856001600160a01b03166001600160a01b0316815260200184815260200183815260200182815260200194505050505060405180910390a1600095945050505050565b600080808060056157fb61650f565b906101000a90046001600160a01b03166001600160a01b0316635fc7e71e5a63996d79a5598160e01b8152602081600483336000905af158601d01573d60011458600c01573d6000803e3d621234565260ea61109c528051925060005b604081101561586f57600082820152602001615858565b505050868a8a8a6040516001600160e01b031960e088901b1681526001600160a01b039586166004820152938516602485015291841660448401529092166064820152608481019190915260a401602060405180830381600087806158d2616603565b1580156158e7576000806158e46164a4565b50505b505a6158f16166ff565b505050505050158015615911573d6000803e3d600061590e6164a4565b50505b505050506040513d60208110156159305760008061592d6164a4565b50505b8101908080519350508215915061595d905057615950600360128361383b565b925060009150615fca9050565b6159656134ea565b600961596f61650f565b1461598057615950600a6016613151565b6159886134ea565b846001600160a01b0316636c540baf6040518163ffffffff1660e01b815260040160206040518083038186806159bc616603565b1580156159d1576000806159ce6164a4565b50505b505a6159db61664f565b50505050501580156159fa573d6000803e3d60006159f76164a4565b50505b505050506040513d6020811015615a1957600080615a166164a4565b50505b810190808051939093149250615a3891505057615950600a6011613151565b866001600160a01b0316866001600160a01b03161415615a5e5761595060066017613151565b84615a6f5761595060076015613151565b600019851415615a855761595060076014613151565b600080615a93898989614005565b90925090508115615ac357615ab4826010811115615aad57fe5b6018613151565b945060009350615fca92505050565b600080806005615ad161650f565b906101000a90046001600160a01b03166001600160a01b031663c488847b5a63996d79a5598160e01b8152602081600483336000905af158601d01573d60011458600c01573d6000803e3d621234565260ea61109c528051925060005b6040811015615b4557600082820152602001615b2e565b5050508a866040516001600160e01b031960e086901b1681526001600160a01b039384166004820152919092166024820152604481019190915260640160408051808303818680615b94616603565b158015615ba957600080615ba66164a4565b50505b505a615bb361664f565b5050505050158015615bd2573d6000803e3d6000615bcf6164a4565b50505b505050506040513d6040811015615bf157600080615bee6164a4565b50505b810190808051929190602001805193955092935060009250615c11915050565b8214615c575760405162461bcd60e51b8152600401808060200182810382526033815260200180616b6e6033913960400191505060405180910390615c546164a4565b50505b80886001600160a01b03166370a082318c6040516001600160e01b031960e084901b1681526001600160a01b0390911660048201526024016020604051808303818680615ca2616603565b158015615cb757600080615cb46164a4565b50505b505a615cc161664f565b5050505050158015615ce0573d6000803e3d6000615cdd6164a4565b50505b505050506040513d6020811015615cff57600080615cfc6164a4565b50505b81019080805193909310159250615d639150505760405162461bcd60e51b815260206004820152601860248201527709892a2aa928882a88abea68a92b48abea89e9ebe9aaa86960431b604482015260640160405180910390615d606164a4565b50505b60005a63996d79a5598160e01b8152602081600483336000905af158601d01573d60011458600c01573d6000803e3d621234565260ea61109c528051925060005b6040811015615dbb57600082820152602001615da4565b5050506001600160a01b0316896001600160a01b03161415615e4257615e3b5a63996d79a5598160e01b8152602081600483336000905af158601d01573d60011458600c01573d6000803e3d621234565260ea61109c528051925060005b6040811015615e3057600082820152602001615e19565b5050508d8d85613916565b9050615f0b565b886001600160a01b031663b2a02ff18d8d856040516001600160e01b031960e086901b1681526001600160a01b039384166004820152919092166024820152604481019190915260640160206040518083038160008780615ea1616603565b158015615eb657600080615eb36164a4565b50505b505a615ec06166ff565b505050505050158015615ee0573d6000803e3d6000615edd6164a4565b50505b505050506040513d6020811015615eff57600080615efc6164a4565b50505b81019080805193505050505b8015615f5d5760405162461bcd60e51b81526020600482015260146024820152731d1bdad95b881cd95a5e9d5c994819985a5b195960621b604482015260640160405180910390615f5a6164a4565b50505b7f298637f684da70674f26509b10f07ec2fbc77a335ab1e7d6215a4b2484d8bb528c8c868c866040516001600160a01b039586168152938516602085015260408085019390935293166060830152608082019290925260a001905180910390a16000975092955050505050505b94509492505050565b600080806011615fe161650f565b906101000a90046001600160a01b031690506000601160009061600261650f565b906101000a90046001600160a01b03166001600160a01b03166370a082315a63996d79a5598160e01b8152602081600483336000905af158601d01573d60011458600c01573d6000803e3d621234565260ea61109c528051925060005b60408110156160765760008282015260200161605f565b5050506040516001600160e01b031960e084901b1681526001600160a01b03909116600482015260240160206040518083038186806160b3616603565b1580156160c8576000806160c56164a4565b50505b505a6160d261664f565b50505050501580156160f1573d6000803e3d60006160ee6164a4565b50505b505050506040513d60208110156161105760008061610d6164a4565b50505b810190808051935050506001600160a01b03831690506323b872dd865a63996d79a5598160e01b8152602081600483336000905af158601d01573d60011458600c01573d6000803e3d621234565260ea61109c528051925060005b60408110156161825760008282015260200161616b565b505050876040516001600160e01b031960e086901b1681526001600160a01b0393841660048201529190921660248201526044810191909152606401600060405180830381600087806161d3616603565b1580156161e8576000806161e56164a4565b50505b505a6161f26166ff565b505050505050158015616212573d6000803e3d600061620f6164a4565b50505b5050505060003d6000811461623b5760208114616245576000806162346164a4565b5050616251565b6000199150616251565b60206000803e60005191505b50806162a75760405162461bcd60e51b81526020600482015260186024820152771513d2d15397d514905394d1915497d25397d1905253115160421b6044820152606401604051809103906162a46164a4565b50505b60008060116162b461650f565b906101000a90046001600160a01b03166001600160a01b03166370a082315a63996d79a5598160e01b8152602081600483336000905af158601d01573d60011458600c01573d6000803e3d621234565260ea61109c528051925060005b604081101561632857600082820152602001616311565b5050506040516001600160e01b031960e084901b1681526001600160a01b0390911660048201526024016020604051808303818680616365616603565b15801561637a576000806163776164a4565b50505b505a61638461664f565b50505050501580156163a3573d6000803e3d60006163a06164a4565b50505b505050506040513d60208110156163c2576000806163bf6164a4565b50505b8101908080519350505050828110156164275760405162461bcd60e51b815260206004820152601a602482015279544f4b454e5f5452414e534645525f494e5f4f564552464c4f5760301b6044820152606401604051809103906164246164a4565b50505b9190910395945050505050565b60008060006164416167af565b612f21868660006164506167af565b600080616465670de0b6b3a764000087614eaf565b9092509050600082600381111561647857fe5b14616499578160405160208101604052600081529094509250612f57915050565b612f508186516144b1565b632a2a7adb598160e01b8152600481016020815285602082015260005b868110156164dc5780860151828201604001526020016164c1565b506020828760640184336000905af158601d01573d60011458600c01573d6000803e3d621234565260ea61109c52505050565b6303daa959598160e01b8152836004820152602081602483336000905af158601d01573d60011458600c01573d6000803e3d621234565260ea61109c528051935060005b604081101561656a57600082820152602001616553565b505050565b6373509064598160e01b8152602081600483336000905af158601d01573d60011458600c01573d6000803e3d621234565260ea61109c5280516000825293506020616553565b6322bd64c0598160e01b8152836004820152846024820152600081604483336000905af158601d01573d60011458600c01573d6000803e3d621234565260ea61109c52600081526020616553565b638435035b598160e01b8152836004820152602081602483336000905af158601d01573d60011458600c01573d6000803e3d621234565260ea61109c5280516000825293506020616553565b638540661f598160e01b8152836004820152846024820152606060448201528660648201526084810160005b8881101561669357808801518282015260200161667b565b506060828960a40184336000905af158601d01573d60011458600c01573d6000803e3d621234565260ea61109c52815160408301513d6000853e8b8b82606087013350600060045af15059845b818110156166f457600081526020016166e0565b50919b505050505050565b6385979f76598160e01b8152836004820152846024820152606060448201528760648201526084810160005b8981101561674357808901518282015260200161672b565b506060828a60a40184336000905af158601d01573d60011458600c01573d6000803e3d621234565260ea61109c52815160408301513d6000853e8c8c82606087013350600060045af15059845b818110156167a45760008152602001616790565b50919c505050505050565b604051602081016040526000815290565b82806167ca61650f565b600181600116156101000203166002900490600052602060002090601f016020900481019282601f1061681157805160ff1916838001178561680a6165b5565b5050616850565b828001600101856168206165b5565b50508215616850579182015b828111156168505782518261683f6165b5565b50509160200191906001019061682c565b5061685c929150616950565b5090565b635a98c361598160e01b8152602081600483336000905af158601d01573d60011458600c01573d6000803e3d621234565260ea61109c5280516000825293506020616553565b60405161010081016040528060008152602001600081526020016000815260200160008152602001600081526020016000815260200160008152602001600081525090565b60405160e0810160405280600081526020016000815260200160008152602001600081526020016000815260200160008152602001600081525090565b6040516080810160405280600081526020016000815260200160008152602001600081525090565b610e9c91905b8082111561685c576000808261696a6165b5565b50505060010161695656fe6f6e6c792061646d696e206d617920696e697469616c697a6520746865206d61726b65746d61726b6574206d6179206f6e6c7920626520696e697469616c697a6564206f6e636545b96fe442630264581b197e84bbada861235052c5a1aadfff9ea4e40a969aa04345726332303a3a7377656570546f6b656e3a2063616e206e6f7420737765657020756e6465726c79696e6720746f6b656e696e697469616c2065786368616e67652072617465206d7573742062652067726561746572207468616e207a65726f2e73657474696e6720696e7465726573742072617465206d6f64656c206661696c65644d494e545f4e45575f4143434f554e545f42414c414e43455f43414c43554c4154494f4e5f4641494c4544626f72726f7742616c616e636553746f7265643a20626f72726f7742616c616e636553746f726564496e7465726e616c206661696c6564ca4f2f25d0898edd99413412fb94012f9e54ec8142f9b093e7720646a95b16a952455041595f424f52524f575f4e45575f4143434f554e545f424f52524f575f42414c414e43455f43414c43554c4154494f4e5f4641494c4544ddf252ad1be2c89b69c2b068fc378daa952ba7f163c4a11628f55a4df523b3ef52455041595f424f52524f575f4e45575f544f54414c5f42414c414e43455f43414c43554c4154494f4e5f4641494c45444c49515549444154455f434f4d5054524f4c4c45525f43414c43554c4154455f414d4f554e545f5345495a455f4641494c454465786368616e67655261746553746f7265643a2065786368616e67655261746553746f726564496e7465726e616c206661696c65644d494e545f4e45575f544f54414c5f535550504c595f43414c43554c4154494f4e5f4641494c45446f6e65206f662072656465656d546f6b656e73496e206f722072656465656d416d6f756e74496e206d757374206265207a65726f72656475636520726573657276657320756e657870656374656420756e646572666c6f77",
  "source": "pragma solidity ^0.5.16;\n\nimport \"./CErc20.sol\";\n\n/**\n * @title Compound's CErc20Immutable Contract\n * @notice CTokens which wrap an EIP-20 underlying and are immutable\n * @author Compound\n */\ncontract CErc20Immutable is CErc20 {\n    /**\n     * @notice Construct a new money market\n     * @param underlying_ The address of the underlying asset\n     * @param comptroller_ The address of the Comptroller\n     * @param interestRateModel_ The address of the interest rate model\n     * @param initialExchangeRateMantissa_ The initial exchange rate, scaled by 1e18\n     * @param name_ ERC-20 name of this token\n     * @param symbol_ ERC-20 symbol of this token\n     * @param decimals_ ERC-20 decimal precision of this token\n     * @param admin_ Address of the administrator of this token\n     */\n    constructor(address underlying_,\n                ComptrollerInterface comptroller_,\n                InterestRateModel interestRateModel_,\n                uint initialExchangeRateMantissa_,\n                string memory name_,\n                string memory symbol_,\n                uint8 decimals_,\n                address payable admin_) public {\n        // Creator of the contract is admin during initialization\n        admin = msg.sender;\n\n        // Initialize the market\n        initialize(underlying_, comptroller_, interestRateModel_, initialExchangeRateMantissa_, name_, symbol_, decimals_);\n\n        // Set the proper admin now that initialization is done\n        admin = admin_;\n    }\n}\n",
  "sourcePath": "/Users/jesusmeza/Developer/omgx/snapshot-optimism/omgx_examples/compound-protocol/contracts/CErc20Immutable.sol",
  "compiler": {
    "name": "solc",
    "version": "0.5.16"
  },
  "schemaVersion": "3.4.3",
  "updatedAt": "2021-08-25T22:25:24.263Z",
  "devdoc": {
    "author": "Compound",
    "methods": {
      "_acceptAdmin()": {
        "details": "Admin function for pending admin to accept role and update admin",
        "return": "uint 0=success, otherwise a failure (see ErrorReporter.sol for details)"
      },
      "_addReserves(uint256)": {
        "params": {
          "addAmount": "The amount fo underlying token to add as reserves"
        },
        "return": "uint 0=success, otherwise a failure (see ErrorReporter.sol for details)"
      },
      "_reduceReserves(uint256)": {
        "params": {
          "reduceAmount": "Amount of reduction to reserves"
        },
        "return": "uint 0=success, otherwise a failure (see ErrorReporter.sol for details)"
      },
      "_setComptroller(address)": {
        "details": "Admin function to set a new comptroller",
        "return": "uint 0=success, otherwise a failure (see ErrorReporter.sol for details)"
      },
      "_setInterestRateModel(address)": {
        "details": "Admin function to accrue interest and update the interest rate model",
        "params": {
          "newInterestRateModel": "the new interest rate model to use"
        },
        "return": "uint 0=success, otherwise a failure (see ErrorReporter.sol for details)"
      },
      "_setPendingAdmin(address)": {
        "details": "Admin function to begin change of admin. The newPendingAdmin must call `_acceptAdmin` to finalize the transfer.",
        "params": {
          "newPendingAdmin": "New pending admin."
        },
        "return": "uint 0=success, otherwise a failure (see ErrorReporter.sol for details)"
      },
      "_setReserveFactor(uint256)": {
        "details": "Admin function to accrue interest and set a new reserve factor",
        "return": "uint 0=success, otherwise a failure (see ErrorReporter.sol for details)"
      },
      "accrueInterest()": {
        "details": "This calculates interest accrued from the last checkpointed block  up to the current block and writes new checkpoint to storage."
      },
      "allowance(address,address)": {
        "params": {
          "owner": "The address of the account which owns the tokens to be spent",
          "spender": "The address of the account which may transfer tokens"
        },
        "return": "The number of tokens allowed to be spent (-1 means infinite)"
      },
      "approve(address,uint256)": {
        "details": "This will overwrite the approval amount for `spender` and is subject to issues noted [here](https://eips.ethereum.org/EIPS/eip-20#approve)",
        "params": {
          "amount": "The number of tokens that are approved (-1 means infinite)",
          "spender": "The address of the account which may transfer tokens"
        },
        "return": "Whether or not the approval succeeded"
      },
      "balanceOf(address)": {
        "params": {
          "owner": "The address of the account to query"
        },
        "return": "The number of tokens owned by `owner`"
      },
      "balanceOfUnderlying(address)": {
        "details": "This also accrues interest in a transaction",
        "params": {
          "owner": "The address of the account to query"
        },
        "return": "The amount of underlying owned by `owner`"
      },
      "borrow(uint256)": {
        "params": {
          "borrowAmount": "The amount of the underlying asset to borrow"
        },
        "return": "uint 0=success, otherwise a failure (see ErrorReporter.sol for details)"
      },
      "borrowBalanceCurrent(address)": {
        "params": {
          "account": "The address whose balance should be calculated after updating borrowIndex"
        },
        "return": "The calculated balance"
      },
      "borrowBalanceStored(address)": {
        "params": {
          "account": "The address whose balance should be calculated"
        },
        "return": "The calculated balance"
      },
      "borrowRatePerBlock()": {
        "return": "The borrow interest rate per block, scaled by 1e18"
      },
      "constructor": {
        "params": {
          "admin_": "Address of the administrator of this token",
          "comptroller_": "The address of the Comptroller",
          "decimals_": "ERC-20 decimal precision of this token",
          "initialExchangeRateMantissa_": "The initial exchange rate, scaled by 1e18",
          "interestRateModel_": "The address of the interest rate model",
          "name_": "ERC-20 name of this token",
          "symbol_": "ERC-20 symbol of this token",
          "underlying_": "The address of the underlying asset"
        }
      },
      "exchangeRateCurrent()": {
        "return": "Calculated exchange rate scaled by 1e18"
      },
      "exchangeRateStored()": {
        "details": "This function does not accrue interest before calculating the exchange rate",
        "return": "Calculated exchange rate scaled by 1e18"
      },
      "getAccountSnapshot(address)": {
        "details": "This is used by comptroller to more efficiently perform liquidity checks.",
        "params": {
          "account": "Address of the account to snapshot"
        },
        "return": "(possible error, token balance, borrow balance, exchange rate mantissa)"
      },
      "getCash()": {
        "return": "The quantity of underlying asset owned by this contract"
      },
      "initialize(address,address,address,uint256,string,string,uint8)": {
        "params": {
          "comptroller_": "The address of the Comptroller",
          "decimals_": "ERC-20 decimal precision of this token",
          "initialExchangeRateMantissa_": "The initial exchange rate, scaled by 1e18",
          "interestRateModel_": "The address of the interest rate model",
          "name_": "ERC-20 name of this token",
          "symbol_": "ERC-20 symbol of this token",
          "underlying_": "The address of the underlying asset"
        }
      },
      "initialize(address,address,uint256,string,string,uint8)": {
        "params": {
          "comptroller_": "The address of the Comptroller",
          "decimals_": "EIP-20 decimal precision of this token",
          "initialExchangeRateMantissa_": "The initial exchange rate, scaled by 1e18",
          "interestRateModel_": "The address of the interest rate model",
          "name_": "EIP-20 name of this token",
          "symbol_": "EIP-20 symbol of this token"
        }
      },
      "liquidateBorrow(address,uint256,address)": {
        "params": {
          "borrower": "The borrower of this cToken to be liquidated",
          "cTokenCollateral": "The market in which to seize collateral from the borrower",
          "repayAmount": "The amount of the underlying borrowed asset to repay"
        },
        "return": "uint 0=success, otherwise a failure (see ErrorReporter.sol for details)"
      },
      "mint(uint256)": {
        "details": "Accrues interest whether or not the operation succeeds, unless reverted",
        "params": {
          "mintAmount": "The amount of the underlying asset to supply"
        },
        "return": "uint 0=success, otherwise a failure (see ErrorReporter.sol for details)"
      },
      "redeem(uint256)": {
        "details": "Accrues interest whether or not the operation succeeds, unless reverted",
        "params": {
          "redeemTokens": "The number of cTokens to redeem into underlying"
        },
        "return": "uint 0=success, otherwise a failure (see ErrorReporter.sol for details)"
      },
      "redeemUnderlying(uint256)": {
        "details": "Accrues interest whether or not the operation succeeds, unless reverted",
        "params": {
          "redeemAmount": "The amount of underlying to redeem"
        },
        "return": "uint 0=success, otherwise a failure (see ErrorReporter.sol for details)"
      },
      "repayBorrow(uint256)": {
        "params": {
          "repayAmount": "The amount to repay"
        },
        "return": "uint 0=success, otherwise a failure (see ErrorReporter.sol for details)"
      },
      "repayBorrowBehalf(address,uint256)": {
        "params": {
          "borrower": "the account with the debt being payed off",
          "repayAmount": "The amount to repay"
        },
        "return": "uint 0=success, otherwise a failure (see ErrorReporter.sol for details)"
      },
      "seize(address,address,uint256)": {
        "details": "Will fail unless called by another cToken during the process of liquidation. Its absolutely critical to use msg.sender as the borrowed cToken and not a parameter.",
        "params": {
          "borrower": "The account having collateral seized",
          "liquidator": "The account receiving seized collateral",
          "seizeTokens": "The number of cTokens to seize"
        },
        "return": "uint 0=success, otherwise a failure (see ErrorReporter.sol for details)"
      },
      "supplyRatePerBlock()": {
        "return": "The supply interest rate per block, scaled by 1e18"
      },
      "sweepToken(address)": {
        "params": {
          "token": "The address of the ERC-20 token to sweep"
        }
      },
      "totalBorrowsCurrent()": {
        "return": "The total borrows with interest"
      },
      "transfer(address,uint256)": {
        "params": {
          "amount": "The number of tokens to transfer",
          "dst": "The address of the destination account"
        },
        "return": "Whether or not the transfer succeeded"
      },
      "transferFrom(address,address,uint256)": {
        "params": {
          "amount": "The number of tokens to transfer",
          "dst": "The address of the destination account",
          "src": "The address of the source account"
        },
        "return": "Whether or not the transfer succeeded"
      }
    },
    "title": "Compound's CErc20Immutable Contract"
  },
  "userdoc": {
    "methods": {
      "_acceptAdmin()": {
        "notice": "Accepts transfer of admin rights. msg.sender must be pendingAdmin"
      },
      "_addReserves(uint256)": {
        "notice": "The sender adds to reserves."
      },
      "_reduceReserves(uint256)": {
        "notice": "Accrues interest and reduces reserves by transferring to admin"
      },
      "_setComptroller(address)": {
        "notice": "Sets a new comptroller for the market"
      },
      "_setInterestRateModel(address)": {
        "notice": "accrues interest and updates the interest rate model using _setInterestRateModelFresh"
      },
      "_setPendingAdmin(address)": {
        "notice": "Begins transfer of admin rights. The newPendingAdmin must call `_acceptAdmin` to finalize the transfer."
      },
      "_setReserveFactor(uint256)": {
        "notice": "accrues interest and sets a new reserve factor for the protocol using _setReserveFactorFresh"
      },
      "accrueInterest()": {
        "notice": "Applies accrued interest to total borrows and reserves"
      },
      "allowance(address,address)": {
        "notice": "Get the current allowance from `owner` for `spender`"
      },
      "approve(address,uint256)": {
        "notice": "Approve `spender` to transfer up to `amount` from `src`"
      },
      "balanceOf(address)": {
        "notice": "Get the token balance of the `owner`"
      },
      "balanceOfUnderlying(address)": {
        "notice": "Get the underlying balance of the `owner`"
      },
      "borrow(uint256)": {
        "notice": "Sender borrows assets from the protocol to their own address"
      },
      "borrowBalanceCurrent(address)": {
        "notice": "Accrue interest to updated borrowIndex and then calculate account's borrow balance using the updated borrowIndex"
      },
      "borrowBalanceStored(address)": {
        "notice": "Return the borrow balance of account based on stored data"
      },
      "borrowRatePerBlock()": {
        "notice": "Returns the current per-block borrow interest rate for this cToken"
      },
      "constructor": "Construct a new money market",
      "exchangeRateCurrent()": {
        "notice": "Accrue interest then return the up-to-date exchange rate"
      },
      "exchangeRateStored()": {
        "notice": "Calculates the exchange rate from the underlying to the CToken"
      },
      "getAccountSnapshot(address)": {
        "notice": "Get a snapshot of the account's balances, and the cached exchange rate"
      },
      "getCash()": {
        "notice": "Get cash balance of this cToken in the underlying asset"
      },
      "initialize(address,address,address,uint256,string,string,uint8)": {
        "notice": "Initialize the new money market"
      },
      "initialize(address,address,uint256,string,string,uint8)": {
        "notice": "Initialize the money market"
      },
      "liquidateBorrow(address,uint256,address)": {
        "notice": "The sender liquidates the borrowers collateral. The collateral seized is transferred to the liquidator."
      },
      "mint(uint256)": {
        "notice": "Sender supplies assets into the market and receives cTokens in exchange"
      },
      "redeem(uint256)": {
        "notice": "Sender redeems cTokens in exchange for the underlying asset"
      },
      "redeemUnderlying(uint256)": {
        "notice": "Sender redeems cTokens in exchange for a specified amount of underlying asset"
      },
      "repayBorrow(uint256)": {
        "notice": "Sender repays their own borrow"
      },
      "repayBorrowBehalf(address,uint256)": {
        "notice": "Sender repays a borrow belonging to borrower"
      },
      "seize(address,address,uint256)": {
        "notice": "Transfers collateral tokens (this market) to the liquidator."
      },
      "supplyRatePerBlock()": {
        "notice": "Returns the current per-block supply interest rate for this cToken"
      },
      "sweepToken(address)": {
        "notice": "A public function to sweep accidental ERC-20 transfers to this contract. Tokens are sent to admin (timelock)"
      },
      "totalBorrowsCurrent()": {
        "notice": "Returns the current total borrows plus accrued interest"
      },
      "transfer(address,uint256)": {
        "notice": "Transfer `amount` tokens from `msg.sender` to `dst`"
      },
      "transferFrom(address,address,uint256)": {
        "notice": "Transfer `amount` tokens from `src` to `dst`"
      }
    },
    "notice": "CTokens which wrap an EIP-20 underlying and are immutable"
  }
}