{
  "contractName": "CEther",
  "abi": [
    {
      "inputs": [
        {
          "internalType": "contract ComptrollerInterface",
          "name": "comptroller_",
          "type": "address"
        },
        {
          "internalType": "contract InterestRateModel",
          "name": "interestRateModel_",
          "type": "address"
        },
        {
          "internalType": "uint256",
          "name": "initialExchangeRateMantissa_",
          "type": "uint256"
        },
        {
          "internalType": "string",
          "name": "name_",
          "type": "string"
        },
        {
          "internalType": "string",
          "name": "symbol_",
          "type": "string"
        },
        {
          "internalType": "uint8",
          "name": "decimals_",
          "type": "uint8"
        },
        {
          "internalType": "address payable",
          "name": "admin_",
          "type": "address"
        }
      ],
      "payable": false,
      "stateMutability": "nonpayable",
      "type": "constructor"
    },
    {
      "anonymous": false,
      "inputs": [
        {
          "indexed": false,
          "internalType": "uint256",
          "name": "cashPrior",
          "type": "uint256"
        },
        {
          "indexed": false,
          "internalType": "uint256",
          "name": "interestAccumulated",
          "type": "uint256"
        },
        {
          "indexed": false,
          "internalType": "uint256",
          "name": "borrowIndex",
          "type": "uint256"
        },
        {
          "indexed": false,
          "internalType": "uint256",
          "name": "totalBorrows",
          "type": "uint256"
        }
      ],
      "name": "AccrueInterest",
      "type": "event"
    },
    {
      "anonymous": false,
      "inputs": [
        {
          "indexed": true,
          "internalType": "address",
          "name": "owner",
          "type": "address"
        },
        {
          "indexed": true,
          "internalType": "address",
          "name": "spender",
          "type": "address"
        },
        {
          "indexed": false,
          "internalType": "uint256",
          "name": "amount",
          "type": "uint256"
        }
      ],
      "name": "Approval",
      "type": "event"
    },
    {
      "anonymous": false,
      "inputs": [
        {
          "indexed": false,
          "internalType": "address",
          "name": "borrower",
          "type": "address"
        },
        {
          "indexed": false,
          "internalType": "uint256",
          "name": "borrowAmount",
          "type": "uint256"
        },
        {
          "indexed": false,
          "internalType": "uint256",
          "name": "accountBorrows",
          "type": "uint256"
        },
        {
          "indexed": false,
          "internalType": "uint256",
          "name": "totalBorrows",
          "type": "uint256"
        }
      ],
      "name": "Borrow",
      "type": "event"
    },
    {
      "anonymous": false,
      "inputs": [
        {
          "indexed": false,
          "internalType": "uint256",
          "name": "error",
          "type": "uint256"
        },
        {
          "indexed": false,
          "internalType": "uint256",
          "name": "info",
          "type": "uint256"
        },
        {
          "indexed": false,
          "internalType": "uint256",
          "name": "detail",
          "type": "uint256"
        }
      ],
      "name": "Failure",
      "type": "event"
    },
    {
      "anonymous": false,
      "inputs": [
        {
          "indexed": false,
          "internalType": "address",
          "name": "liquidator",
          "type": "address"
        },
        {
          "indexed": false,
          "internalType": "address",
          "name": "borrower",
          "type": "address"
        },
        {
          "indexed": false,
          "internalType": "uint256",
          "name": "repayAmount",
          "type": "uint256"
        },
        {
          "indexed": false,
          "internalType": "address",
          "name": "cTokenCollateral",
          "type": "address"
        },
        {
          "indexed": false,
          "internalType": "uint256",
          "name": "seizeTokens",
          "type": "uint256"
        }
      ],
      "name": "LiquidateBorrow",
      "type": "event"
    },
    {
      "anonymous": false,
      "inputs": [
        {
          "indexed": false,
          "internalType": "address",
          "name": "minter",
          "type": "address"
        },
        {
          "indexed": false,
          "internalType": "uint256",
          "name": "mintAmount",
          "type": "uint256"
        },
        {
          "indexed": false,
          "internalType": "uint256",
          "name": "mintTokens",
          "type": "uint256"
        }
      ],
      "name": "Mint",
      "type": "event"
    },
    {
      "anonymous": false,
      "inputs": [
        {
          "indexed": false,
          "internalType": "address",
          "name": "oldAdmin",
          "type": "address"
        },
        {
          "indexed": false,
          "internalType": "address",
          "name": "newAdmin",
          "type": "address"
        }
      ],
      "name": "NewAdmin",
      "type": "event"
    },
    {
      "anonymous": false,
      "inputs": [
        {
          "indexed": false,
          "internalType": "contract ComptrollerInterface",
          "name": "oldComptroller",
          "type": "address"
        },
        {
          "indexed": false,
          "internalType": "contract ComptrollerInterface",
          "name": "newComptroller",
          "type": "address"
        }
      ],
      "name": "NewComptroller",
      "type": "event"
    },
    {
      "anonymous": false,
      "inputs": [
        {
          "indexed": false,
          "internalType": "contract InterestRateModel",
          "name": "oldInterestRateModel",
          "type": "address"
        },
        {
          "indexed": false,
          "internalType": "contract InterestRateModel",
          "name": "newInterestRateModel",
          "type": "address"
        }
      ],
      "name": "NewMarketInterestRateModel",
      "type": "event"
    },
    {
      "anonymous": false,
      "inputs": [
        {
          "indexed": false,
          "internalType": "address",
          "name": "oldPendingAdmin",
          "type": "address"
        },
        {
          "indexed": false,
          "internalType": "address",
          "name": "newPendingAdmin",
          "type": "address"
        }
      ],
      "name": "NewPendingAdmin",
      "type": "event"
    },
    {
      "anonymous": false,
      "inputs": [
        {
          "indexed": false,
          "internalType": "uint256",
          "name": "oldReserveFactorMantissa",
          "type": "uint256"
        },
        {
          "indexed": false,
          "internalType": "uint256",
          "name": "newReserveFactorMantissa",
          "type": "uint256"
        }
      ],
      "name": "NewReserveFactor",
      "type": "event"
    },
    {
      "anonymous": false,
      "inputs": [
        {
          "indexed": false,
          "internalType": "address",
          "name": "redeemer",
          "type": "address"
        },
        {
          "indexed": false,
          "internalType": "uint256",
          "name": "redeemAmount",
          "type": "uint256"
        },
        {
          "indexed": false,
          "internalType": "uint256",
          "name": "redeemTokens",
          "type": "uint256"
        }
      ],
      "name": "Redeem",
      "type": "event"
    },
    {
      "anonymous": false,
      "inputs": [
        {
          "indexed": false,
          "internalType": "address",
          "name": "payer",
          "type": "address"
        },
        {
          "indexed": false,
          "internalType": "address",
          "name": "borrower",
          "type": "address"
        },
        {
          "indexed": false,
          "internalType": "uint256",
          "name": "repayAmount",
          "type": "uint256"
        },
        {
          "indexed": false,
          "internalType": "uint256",
          "name": "accountBorrows",
          "type": "uint256"
        },
        {
          "indexed": false,
          "internalType": "uint256",
          "name": "totalBorrows",
          "type": "uint256"
        }
      ],
      "name": "RepayBorrow",
      "type": "event"
    },
    {
      "anonymous": false,
      "inputs": [
        {
          "indexed": false,
          "internalType": "address",
          "name": "benefactor",
          "type": "address"
        },
        {
          "indexed": false,
          "internalType": "uint256",
          "name": "addAmount",
          "type": "uint256"
        },
        {
          "indexed": false,
          "internalType": "uint256",
          "name": "newTotalReserves",
          "type": "uint256"
        }
      ],
      "name": "ReservesAdded",
      "type": "event"
    },
    {
      "anonymous": false,
      "inputs": [
        {
          "indexed": false,
          "internalType": "address",
          "name": "admin",
          "type": "address"
        },
        {
          "indexed": false,
          "internalType": "uint256",
          "name": "reduceAmount",
          "type": "uint256"
        },
        {
          "indexed": false,
          "internalType": "uint256",
          "name": "newTotalReserves",
          "type": "uint256"
        }
      ],
      "name": "ReservesReduced",
      "type": "event"
    },
    {
      "anonymous": false,
      "inputs": [
        {
          "indexed": true,
          "internalType": "address",
          "name": "from",
          "type": "address"
        },
        {
          "indexed": true,
          "internalType": "address",
          "name": "to",
          "type": "address"
        },
        {
          "indexed": false,
          "internalType": "uint256",
          "name": "amount",
          "type": "uint256"
        }
      ],
      "name": "Transfer",
      "type": "event"
    },
    {
      "payable": true,
      "stateMutability": "payable",
      "type": "fallback"
    },
    {
      "constant": false,
      "inputs": [],
      "name": "_acceptAdmin",
      "outputs": [
        {
          "internalType": "uint256",
          "name": "",
          "type": "uint256"
        }
      ],
      "payable": false,
      "stateMutability": "nonpayable",
      "type": "function"
    },
    {
      "constant": false,
      "inputs": [
        {
          "internalType": "uint256",
          "name": "reduceAmount",
          "type": "uint256"
        }
      ],
      "name": "_reduceReserves",
      "outputs": [
        {
          "internalType": "uint256",
          "name": "",
          "type": "uint256"
        }
      ],
      "payable": false,
      "stateMutability": "nonpayable",
      "type": "function"
    },
    {
      "constant": false,
      "inputs": [
        {
          "internalType": "contract ComptrollerInterface",
          "name": "newComptroller",
          "type": "address"
        }
      ],
      "name": "_setComptroller",
      "outputs": [
        {
          "internalType": "uint256",
          "name": "",
          "type": "uint256"
        }
      ],
      "payable": false,
      "stateMutability": "nonpayable",
      "type": "function"
    },
    {
      "constant": false,
      "inputs": [
        {
          "internalType": "contract InterestRateModel",
          "name": "newInterestRateModel",
          "type": "address"
        }
      ],
      "name": "_setInterestRateModel",
      "outputs": [
        {
          "internalType": "uint256",
          "name": "",
          "type": "uint256"
        }
      ],
      "payable": false,
      "stateMutability": "nonpayable",
      "type": "function"
    },
    {
      "constant": false,
      "inputs": [
        {
          "internalType": "address payable",
          "name": "newPendingAdmin",
          "type": "address"
        }
      ],
      "name": "_setPendingAdmin",
      "outputs": [
        {
          "internalType": "uint256",
          "name": "",
          "type": "uint256"
        }
      ],
      "payable": false,
      "stateMutability": "nonpayable",
      "type": "function"
    },
    {
      "constant": false,
      "inputs": [
        {
          "internalType": "uint256",
          "name": "newReserveFactorMantissa",
          "type": "uint256"
        }
      ],
      "name": "_setReserveFactor",
      "outputs": [
        {
          "internalType": "uint256",
          "name": "",
          "type": "uint256"
        }
      ],
      "payable": false,
      "stateMutability": "nonpayable",
      "type": "function"
    },
    {
      "constant": true,
      "inputs": [],
      "name": "accrualBlockNumber",
      "outputs": [
        {
          "internalType": "uint256",
          "name": "",
          "type": "uint256"
        }
      ],
      "payable": false,
      "stateMutability": "view",
      "type": "function"
    },
    {
      "constant": false,
      "inputs": [],
      "name": "accrueInterest",
      "outputs": [
        {
          "internalType": "uint256",
          "name": "",
          "type": "uint256"
        }
      ],
      "payable": false,
      "stateMutability": "nonpayable",
      "type": "function"
    },
    {
      "constant": true,
      "inputs": [],
      "name": "admin",
      "outputs": [
        {
          "internalType": "address payable",
          "name": "",
          "type": "address"
        }
      ],
      "payable": false,
      "stateMutability": "view",
      "type": "function"
    },
    {
      "constant": true,
      "inputs": [
        {
          "internalType": "address",
          "name": "owner",
          "type": "address"
        },
        {
          "internalType": "address",
          "name": "spender",
          "type": "address"
        }
      ],
      "name": "allowance",
      "outputs": [
        {
          "internalType": "uint256",
          "name": "",
          "type": "uint256"
        }
      ],
      "payable": false,
      "stateMutability": "view",
      "type": "function"
    },
    {
      "constant": false,
      "inputs": [
        {
          "internalType": "address",
          "name": "spender",
          "type": "address"
        },
        {
          "internalType": "uint256",
          "name": "amount",
          "type": "uint256"
        }
      ],
      "name": "approve",
      "outputs": [
        {
          "internalType": "bool",
          "name": "",
          "type": "bool"
        }
      ],
      "payable": false,
      "stateMutability": "nonpayable",
      "type": "function"
    },
    {
      "constant": true,
      "inputs": [
        {
          "internalType": "address",
          "name": "owner",
          "type": "address"
        }
      ],
      "name": "balanceOf",
      "outputs": [
        {
          "internalType": "uint256",
          "name": "",
          "type": "uint256"
        }
      ],
      "payable": false,
      "stateMutability": "view",
      "type": "function"
    },
    {
      "constant": false,
      "inputs": [
        {
          "internalType": "address",
          "name": "owner",
          "type": "address"
        }
      ],
      "name": "balanceOfUnderlying",
      "outputs": [
        {
          "internalType": "uint256",
          "name": "",
          "type": "uint256"
        }
      ],
      "payable": false,
      "stateMutability": "nonpayable",
      "type": "function"
    },
    {
      "constant": false,
      "inputs": [
        {
          "internalType": "address",
          "name": "account",
          "type": "address"
        }
      ],
      "name": "borrowBalanceCurrent",
      "outputs": [
        {
          "internalType": "uint256",
          "name": "",
          "type": "uint256"
        }
      ],
      "payable": false,
      "stateMutability": "nonpayable",
      "type": "function"
    },
    {
      "constant": true,
      "inputs": [
        {
          "internalType": "address",
          "name": "account",
          "type": "address"
        }
      ],
      "name": "borrowBalanceStored",
      "outputs": [
        {
          "internalType": "uint256",
          "name": "",
          "type": "uint256"
        }
      ],
      "payable": false,
      "stateMutability": "view",
      "type": "function"
    },
    {
      "constant": true,
      "inputs": [],
      "name": "borrowIndex",
      "outputs": [
        {
          "internalType": "uint256",
          "name": "",
          "type": "uint256"
        }
      ],
      "payable": false,
      "stateMutability": "view",
      "type": "function"
    },
    {
      "constant": true,
      "inputs": [],
      "name": "borrowRatePerBlock",
      "outputs": [
        {
          "internalType": "uint256",
          "name": "",
          "type": "uint256"
        }
      ],
      "payable": false,
      "stateMutability": "view",
      "type": "function"
    },
    {
      "constant": true,
      "inputs": [],
      "name": "comptroller",
      "outputs": [
        {
          "internalType": "contract ComptrollerInterface",
          "name": "",
          "type": "address"
        }
      ],
      "payable": false,
      "stateMutability": "view",
      "type": "function"
    },
    {
      "constant": true,
      "inputs": [],
      "name": "decimals",
      "outputs": [
        {
          "internalType": "uint8",
          "name": "",
          "type": "uint8"
        }
      ],
      "payable": false,
      "stateMutability": "view",
      "type": "function"
    },
    {
      "constant": false,
      "inputs": [],
      "name": "exchangeRateCurrent",
      "outputs": [
        {
          "internalType": "uint256",
          "name": "",
          "type": "uint256"
        }
      ],
      "payable": false,
      "stateMutability": "nonpayable",
      "type": "function"
    },
    {
      "constant": true,
      "inputs": [],
      "name": "exchangeRateStored",
      "outputs": [
        {
          "internalType": "uint256",
          "name": "",
          "type": "uint256"
        }
      ],
      "payable": false,
      "stateMutability": "view",
      "type": "function"
    },
    {
      "constant": true,
      "inputs": [
        {
          "internalType": "address",
          "name": "account",
          "type": "address"
        }
      ],
      "name": "getAccountSnapshot",
      "outputs": [
        {
          "internalType": "uint256",
          "name": "",
          "type": "uint256"
        },
        {
          "internalType": "uint256",
          "name": "",
          "type": "uint256"
        },
        {
          "internalType": "uint256",
          "name": "",
          "type": "uint256"
        },
        {
          "internalType": "uint256",
          "name": "",
          "type": "uint256"
        }
      ],
      "payable": false,
      "stateMutability": "view",
      "type": "function"
    },
    {
      "constant": true,
      "inputs": [],
      "name": "getCash",
      "outputs": [
        {
          "internalType": "uint256",
          "name": "",
          "type": "uint256"
        }
      ],
      "payable": false,
      "stateMutability": "view",
      "type": "function"
    },
    {
      "constant": false,
      "inputs": [
        {
          "internalType": "contract ComptrollerInterface",
          "name": "comptroller_",
          "type": "address"
        },
        {
          "internalType": "contract InterestRateModel",
          "name": "interestRateModel_",
          "type": "address"
        },
        {
          "internalType": "uint256",
          "name": "initialExchangeRateMantissa_",
          "type": "uint256"
        },
        {
          "internalType": "string",
          "name": "name_",
          "type": "string"
        },
        {
          "internalType": "string",
          "name": "symbol_",
          "type": "string"
        },
        {
          "internalType": "uint8",
          "name": "decimals_",
          "type": "uint8"
        }
      ],
      "name": "initialize",
      "outputs": [],
      "payable": false,
      "stateMutability": "nonpayable",
      "type": "function"
    },
    {
      "constant": true,
      "inputs": [],
      "name": "interestRateModel",
      "outputs": [
        {
          "internalType": "contract InterestRateModel",
          "name": "",
          "type": "address"
        }
      ],
      "payable": false,
      "stateMutability": "view",
      "type": "function"
    },
    {
      "constant": true,
      "inputs": [],
      "name": "isCToken",
      "outputs": [
        {
          "internalType": "bool",
          "name": "",
          "type": "bool"
        }
      ],
      "payable": false,
      "stateMutability": "view",
      "type": "function"
    },
    {
      "constant": true,
      "inputs": [],
      "name": "name",
      "outputs": [
        {
          "internalType": "string",
          "name": "",
          "type": "string"
        }
      ],
      "payable": false,
      "stateMutability": "view",
      "type": "function"
    },
    {
      "constant": true,
      "inputs": [],
      "name": "pendingAdmin",
      "outputs": [
        {
          "internalType": "address payable",
          "name": "",
          "type": "address"
        }
      ],
      "payable": false,
      "stateMutability": "view",
      "type": "function"
    },
    {
      "constant": true,
      "inputs": [],
      "name": "reserveFactorMantissa",
      "outputs": [
        {
          "internalType": "uint256",
          "name": "",
          "type": "uint256"
        }
      ],
      "payable": false,
      "stateMutability": "view",
      "type": "function"
    },
    {
      "constant": false,
      "inputs": [
        {
          "internalType": "address",
          "name": "liquidator",
          "type": "address"
        },
        {
          "internalType": "address",
          "name": "borrower",
          "type": "address"
        },
        {
          "internalType": "uint256",
          "name": "seizeTokens",
          "type": "uint256"
        }
      ],
      "name": "seize",
      "outputs": [
        {
          "internalType": "uint256",
          "name": "",
          "type": "uint256"
        }
      ],
      "payable": false,
      "stateMutability": "nonpayable",
      "type": "function"
    },
    {
      "constant": true,
      "inputs": [],
      "name": "supplyRatePerBlock",
      "outputs": [
        {
          "internalType": "uint256",
          "name": "",
          "type": "uint256"
        }
      ],
      "payable": false,
      "stateMutability": "view",
      "type": "function"
    },
    {
      "constant": true,
      "inputs": [],
      "name": "symbol",
      "outputs": [
        {
          "internalType": "string",
          "name": "",
          "type": "string"
        }
      ],
      "payable": false,
      "stateMutability": "view",
      "type": "function"
    },
    {
      "constant": true,
      "inputs": [],
      "name": "totalBorrows",
      "outputs": [
        {
          "internalType": "uint256",
          "name": "",
          "type": "uint256"
        }
      ],
      "payable": false,
      "stateMutability": "view",
      "type": "function"
    },
    {
      "constant": false,
      "inputs": [],
      "name": "totalBorrowsCurrent",
      "outputs": [
        {
          "internalType": "uint256",
          "name": "",
          "type": "uint256"
        }
      ],
      "payable": false,
      "stateMutability": "nonpayable",
      "type": "function"
    },
    {
      "constant": true,
      "inputs": [],
      "name": "totalReserves",
      "outputs": [
        {
          "internalType": "uint256",
          "name": "",
          "type": "uint256"
        }
      ],
      "payable": false,
      "stateMutability": "view",
      "type": "function"
    },
    {
      "constant": true,
      "inputs": [],
      "name": "totalSupply",
      "outputs": [
        {
          "internalType": "uint256",
          "name": "",
          "type": "uint256"
        }
      ],
      "payable": false,
      "stateMutability": "view",
      "type": "function"
    },
    {
      "constant": false,
      "inputs": [
        {
          "internalType": "address",
          "name": "dst",
          "type": "address"
        },
        {
          "internalType": "uint256",
          "name": "amount",
          "type": "uint256"
        }
      ],
      "name": "transfer",
      "outputs": [
        {
          "internalType": "bool",
          "name": "",
          "type": "bool"
        }
      ],
      "payable": false,
      "stateMutability": "nonpayable",
      "type": "function"
    },
    {
      "constant": false,
      "inputs": [
        {
          "internalType": "address",
          "name": "src",
          "type": "address"
        },
        {
          "internalType": "address",
          "name": "dst",
          "type": "address"
        },
        {
          "internalType": "uint256",
          "name": "amount",
          "type": "uint256"
        }
      ],
      "name": "transferFrom",
      "outputs": [
        {
          "internalType": "bool",
          "name": "",
          "type": "bool"
        }
      ],
      "payable": false,
      "stateMutability": "nonpayable",
      "type": "function"
    },
    {
      "constant": false,
      "inputs": [],
      "name": "mint",
      "outputs": [],
      "payable": true,
      "stateMutability": "payable",
      "type": "function"
    },
    {
      "constant": false,
      "inputs": [
        {
          "internalType": "uint256",
          "name": "redeemTokens",
          "type": "uint256"
        }
      ],
      "name": "redeem",
      "outputs": [
        {
          "internalType": "uint256",
          "name": "",
          "type": "uint256"
        }
      ],
      "payable": false,
      "stateMutability": "nonpayable",
      "type": "function"
    },
    {
      "constant": false,
      "inputs": [
        {
          "internalType": "uint256",
          "name": "redeemAmount",
          "type": "uint256"
        }
      ],
      "name": "redeemUnderlying",
      "outputs": [
        {
          "internalType": "uint256",
          "name": "",
          "type": "uint256"
        }
      ],
      "payable": false,
      "stateMutability": "nonpayable",
      "type": "function"
    },
    {
      "constant": false,
      "inputs": [
        {
          "internalType": "uint256",
          "name": "borrowAmount",
          "type": "uint256"
        }
      ],
      "name": "borrow",
      "outputs": [
        {
          "internalType": "uint256",
          "name": "",
          "type": "uint256"
        }
      ],
      "payable": false,
      "stateMutability": "nonpayable",
      "type": "function"
    },
    {
      "constant": false,
      "inputs": [],
      "name": "repayBorrow",
      "outputs": [],
      "payable": true,
      "stateMutability": "payable",
      "type": "function"
    },
    {
      "constant": false,
      "inputs": [
        {
          "internalType": "address",
          "name": "borrower",
          "type": "address"
        }
      ],
      "name": "repayBorrowBehalf",
      "outputs": [],
      "payable": true,
      "stateMutability": "payable",
      "type": "function"
    },
    {
      "constant": false,
      "inputs": [
        {
          "internalType": "address",
          "name": "borrower",
          "type": "address"
        },
        {
          "internalType": "contract CToken",
          "name": "cTokenCollateral",
          "type": "address"
        }
      ],
      "name": "liquidateBorrow",
      "outputs": [],
      "payable": true,
      "stateMutability": "payable",
      "type": "function"
    }
  ],
  "bytecode": "0x60806040523480156200001c576000806200001962000a90565b50505b50604051620073cd380380620073cd833981810160405260e08110156200004d576000806200004a62000a90565b50505b810190808051929190602001805192919060200180519291906020018051604051939291908464010000000082111562000091576000806200008e62000a90565b50505b908301906020820185811115620000b257600080620000af62000a90565b50505b8251640100000000811182820188101715620000d857600080620000d562000a90565b50505b825250602001908051906020019080838360005b8381101562000106578082015183820152602001620000ec565b50505050905090810190601f168015620001345780820380516001836020036101000a031916815260200191505b506040526020018051604051939291908464010000000082111562000163576000806200016062000a90565b50505b90830190602082018581111562000184576000806200018162000a90565b50505b8251640100000000811182820188101715620001aa57600080620001a762000a90565b50505b825250602001908051906020019080838360005b83811015620001d8578082015183820152602001620001be565b50505050905090810190601f168015620002065780820380516001836020036101000a031916815260200191505b5060405260200180519291906020018051925050505a6200022662000afd565b6003610100816200023662000b59565b816001600160a01b0302191690836001600160a01b03160217906200025a62000ba6565b50505062000273878787878787620002b860201b60201c565b806003610100816200028462000b59565b816001600160a01b0302191690836001600160a01b0316021790620002a862000ba6565b5050505050505050505062000e16565b60016003620002c662000b59565b906101000a90046001600160a01b03166001600160a01b03165a620002ea62000afd565b6001600160a01b0316146200033c5760405162461bcd60e51b81526004018080602001828103825260248152602001806200733460249139604001915050604051809103906200033962000a90565b50505b60096200034862000b59565b1580156200035f5750600a6200035d62000b59565b155b620003a75760405162461bcd60e51b8152600401808060200182810382526023815260200180620073586023913960400191505060405180910390620003a462000a90565b50505b83806007620003b562000ba6565b50505060006007620003c662000b59565b116200040f5760405162461bcd60e51b81526004018080602001828103825260308152602001806200737b60309139604001915050604051809103906200040c62000a90565b50505b600062000425876001600160e01b03620005ad16565b90508015620004855760405162461bcd60e51b815260206004820152601a60248201527f73657474696e6720636f6d7074726f6c6c6572206661696c65640000000000006044820152606401604051809103906200048262000a90565b50505b620004986001600160e01b03620007bd16565b806009620004a562000ba6565b505050670de0b6b3a7640000600a8190620004bf62000ba6565b505050620004d386620007d060201b60201c565b905080156200051f5760405162461bcd60e51b8152600401808060200182810382526022815260200180620073ab60229139604001915050604051809103906200051c62000a90565b50505b60018480516200053492916020019062000bf5565b5060028380516200054a92916020019062000bf5565b508160036001816200055b62000b59565b8160ff021916908360ff160217906200057362000ba6565b50505060016000806101000a816200058a62000b59565b8160ff02191690831515021790620005a162000ba6565b50505050505050505050565b600060016003620005bd62000b59565b906101000a90046001600160a01b03166001600160a01b03165a620005e162000afd565b6001600160a01b0316146200060f57620006076001603f6001600160e01b0362000a1a16565b9050620007b8565b60008060056200061e62000b59565b906101000a90046001600160a01b03169050826001600160a01b0316627e3dd26040518163ffffffff1660e01b815260040160206040518083038186806200066562000ca4565b1580156200067d576000806200067a62000a90565b50505b505a6200068962000cf1565b5050505050158015620006ab573d6000803e3d6000620006a862000a90565b50505b505050506040513d6020811015620006cd57600080620006ca62000a90565b50505b8101908080519250620007349150505760405162461bcd60e51b815260206004820152601c60248201527f6d61726b6572206d6574686f642072657475726e65642066616c7365000000006044820152606401604051809103906200073162000a90565b50505b8260056001816200074462000b59565b816001600160a01b0302191690836001600160a01b03160217906200076862000ba6565b5050507f7ac369dbd14fa5ea3f473ed67cc9d598964a77501540ba6751eb0b3decf5870d81846040516001600160a01b039283168152911660208201526040908101905180910390a160005b9150505b919050565b60005a620007ca62000da5565b90505b90565b60008060016003620007e162000b59565b906101000a90046001600160a01b03166001600160a01b03165a6200080562000afd565b6001600160a01b03161462000834576200082b600160426001600160e01b0362000a1a16565b915050620007b8565b620008476001600160e01b03620007bd16565b60096200085362000b59565b1462000870576200082b600a60416001600160e01b0362000a1a16565b600060066200087e62000b59565b906101000a90046001600160a01b03169050826001600160a01b0316632191f92a6040518163ffffffff1660e01b81526004016020604051808303818680620008c662000ca4565b158015620008de57600080620008db62000a90565b50505b505a620008ea62000cf1565b50505050501580156200090c573d6000803e3d60006200090962000a90565b50505b505050506040513d60208110156200092e576000806200092b62000a90565b50505b8101908080519250620009959150505760405162461bcd60e51b815260206004820152601c60248201527f6d61726b6572206d6574686f642072657475726e65642066616c7365000000006044820152606401604051809103906200099262000a90565b50505b826006600181620009a562000b59565b816001600160a01b0302191690836001600160a01b0316021790620009c962000ba6565b5050507fedffc32e068c7c95dfd4bdfd5c4d939a084d6b11c4199eac8436ed234d72f92681846040516001600160a01b039283168152911660208201526040908101905180910390a16000620007b4565b60007f45b96fe442630264581b197e84bbada861235052c5a1aadfff9ea4e40a969aa083601081111562000a4a57fe5b83605081111562000a5757fe5b600060405180848152602001838152602001828152602001935050505060405180910390a182601081111562000a8957fe5b9392505050565b632a2a7adb598160e01b8152600481016020815285602082015260005b8681101562000aca57808601518282016040015260200162000aad565b506020828760640184336000905af158600e01573d6000803e3d6000fd5b3d6001141558600a015760016000f35b505050565b6373509064598160e01b8152602081600483336000905af158600e01573d6000803e3d6000fd5b3d6001141558600a015760016000f35b8051935060005b604081101562000b545760008282015260200162000b3b565b505050565b6303daa959598160e01b8152836004820152602081602483336000905af158600e01573d6000803e3d6000fd5b3d6001141558600a015760016000f35b8051600082529350602062000b3b565b6322bd64c0598160e01b8152836004820152846024820152600081604483336000905af158600e01573d6000803e3d6000fd5b3d6001141558600a015760016000f35b60008152602062000b3b565b828062000c0162000b59565b600181600116156101000203166002900490600052602060002090601f016020900481019282601f1062000c4c57805160ff1916838001178562000c4462000ba6565b505062000c92565b8280016001018562000c5d62000ba6565b5050821562000c92579182015b8281111562000c925782518262000c8062000ba6565b50509160200191906001019062000c6a565b5062000ca092915062000dec565b5090565b638435035b598160e01b8152836004820152602081602483336000905af158600e01573d6000803e3d6000fd5b3d6001141558600a015760016000f35b8051600082529350602062000b3b565b638540661f598160e01b8152836004820152846024820152606060448201528660648201526084810160005b8881101562000d3757808801518282015260200162000d1d565b506060828960a40184336000905af158600e01573d6000803e3d6000fd5b3d6001141558600a015760016000f35b815160408301513d6000853e8b8b82606087013350600060045af15059845b8181101562000d9a576000815260200162000d84565b50919b505050505050565b635a98c361598160e01b8152602081600483336000905af158600e01573d6000803e3d6000fd5b3d6001141558600a015760016000f35b8051600082529350602062000b3b565b620007cd91905b8082111562000ca0576000808262000e0a62000ba6565b50505060010162000df3565b61650e8062000e266000396000f3fe6080604052600436106102025760003560e01c806306fdde031461023e578063095ea7b3146102d35780631249c58b14610332578063173b99041461033c57806317bfdfbc1461036c57806318160ddd146103b1578063182df0f5146103cf57806323b872dd146103ed5780632678224714610442578063313ce5671461047c5780633af9e669146104b05780633b1d21a2146104f55780634576b5db1461051357806347bd3718146105585780634e4d9fea146105765780635fe3b5671461057e578063601a0bf11461059c5780636c540baf146105d857806370a08231146105f657806373acee981461063b578063852a12e3146106595780638f840ddd1461069557806395d89b41146106b357806395dd9193146106d157806399d8c1b414610716578063a6afed95146108b7578063a9059cbb146108d5578063aa5af0fd14610920578063aae40a2a1461093e578063ae9d70b014610975578063b2a02ff114610993578063b71d1a0c146109e8578063bd6d894d14610a2d578063c37f68e214610a4b578063c5ebeaec14610abb578063db006a7514610af7578063dd62ed3e14610b33578063e597461914610b80578063e9c714f214610baf578063f2b3abbd14610bcd578063f3fdb15a14610c12578063f851a44014610c30578063f8f9da2814610c4e578063fca7820b14610c6c578063fe9c44ae14610ca8575b600061020d34610cc6565b50905061023b8160405160408082019052600b81526a1b5a5b9d0819985a5b195960aa1b6020820152610dc1565b50005b34801561025357600080610250615d93565b50505b5061025c610fcb565b60405160208082528190810183818151815260200191508051906020019080838360005b83811015610298578082015183820152602001610280565b50505050905090810190601f1680156102c55780820380516001836020036101000a031916815260200191505b509250505060405180910390f35b3480156102e8576000806102e5615d93565b50505b5061031e6004803603604081101561030857600080610305615d93565b50505b506001600160a01b038135169060200135611084565b604051901515815260200160405180910390f35b61033a611126565b005b3480156103515760008061034e615d93565b50505b5061035a611162565b60405190815260200160405180910390f35b3480156103815760008061037e615d93565b50505b5061035a600480360360208110156103a15760008061039e615d93565b50505b50356001600160a01b031661116f565b3480156103c6576000806103c3615d93565b50505b5061035a61128c565b3480156103e4576000806103e1615d93565b50505b5061035a611296565b348015610402576000806103ff615d93565b50505b5061031e600480360360608110156104225760008061041f615d93565b50505b506001600160a01b03813581169160208101359091169060400135611302565b34801561045757600080610454615d93565b50505b506104606113d1565b6040516001600160a01b03909116815260200160405180910390f35b3480156104915760008061048e615d93565b50505b5061049a6113f0565b60405160ff909116815260200160405180910390f35b3480156104c5576000806104c2615d93565b50505b5061035a600480360360208110156104e5576000806104e2615d93565b50505b50356001600160a01b0316611409565b34801561050a57600080610507615d93565b50505b5061035a6114cc565b34801561052857600080610525615d93565b50505b5061035a6004803603602081101561054857600080610545615d93565b50505b50356001600160a01b03166114db565b34801561056d5760008061056a615d93565b50505b5061035a6116c1565b61033a6116cb565b34801561059357600080610590615d93565b50505b5061046061170b565b3480156105b1576000806105ae615d93565b50505b5061035a600480360360208110156105d1576000806105ce615d93565b50505b5035611717565b3480156105ed576000806105ea615d93565b50505b5061035a6117e3565b34801561060b57600080610608615d93565b50505b5061035a6004803603602081101561062b57600080610628615d93565b50505b50356001600160a01b03166117ed565b3480156106505760008061064d615d93565b50505b5061035a61180d565b34801561066e5760008061066b615d93565b50505b5061035a6004803603602081101561068e5760008061068b615d93565b50505b5035611928565b3480156106aa576000806106a7615d93565b50505b5061035a611933565b3480156106c8576000806106c5615d93565b50505b5061025c61193d565b3480156106e6576000806106e3615d93565b50505b5061035a6004803603602081101561070657600080610703615d93565b50505b50356001600160a01b03166119df565b34801561072b57600080610728615d93565b50505b5061033a600480360360c081101561074b57600080610748615d93565b50505b6001600160a01b03823581169260208101359091169160408201359190810190608081016060820135600160201b81111561078e5760008061078b615d93565b50505b8201836020820111156107a9576000806107a6615d93565b50505b803590602001918460018302840111600160201b831117156107d3576000806107d0615d93565b50505b91908080601f01602080910402602001604051908101604052818152929190602084018383808284376000920191909152509295949360208101935035915050600160201b81111561082d5760008061082a615d93565b50505b82018360208201111561084857600080610845615d93565b50505b803590602001918460018302840111600160201b831117156108725760008061086f615d93565b50505b91908080601f01602080910402602001604051908101604052818152929190602084018383808284376000920191909152509295505050903560ff169150611a4b9050565b3480156108cc576000806108c9615d93565b50505b5061035a611cef565b3480156108ea576000806108e7615d93565b50505b5061031e6004803603604081101561090a57600080610907615d93565b50505b506001600160a01b0381351690602001356120fd565b34801561093557600080610932615d93565b50505b5061035a6121d3565b61033a6004803603604081101561095d5760008061095a615d93565b50505b506001600160a01b03813581169160200135166121dd565b34801561098a57600080610987615d93565b50505b5061035a612228565b3480156109a8576000806109a5615d93565b50505b5061035a600480360360608110156109c8576000806109c5615d93565b50505b506001600160a01b03813581169160208101359091169060400135612328565b3480156109fd576000806109fa615d93565b50505b5061035a60048036036020811015610a1d57600080610a1a615d93565b50505b50356001600160a01b03166123ce565b348015610a4257600080610a3f615d93565b50505b5061035a6124a9565b348015610a6057600080610a5d615d93565b50505b50610a9060048036036020811015610a8057600080610a7d615d93565b50505b50356001600160a01b0316612597565b6040518085815260200184815260200183815260200182815260200194505050505060405180910390f35b348015610ad057600080610acd615d93565b50505b5061035a60048036036020811015610af057600080610aed615d93565b50505b5035612635565b348015610b0c57600080610b09615d93565b50505b5061035a60048036036020811015610b2c57600080610b29615d93565b50505b5035612640565b348015610b4857600080610b45615d93565b50505b5061035a60048036036040811015610b6857600080610b65615d93565b50505b506001600160a01b038135811691602001351661264b565b61033a60048036036020811015610b9f57600080610b9c615d93565b50505b50356001600160a01b0316612684565b348015610bc457600080610bc1615d93565b50505b5061035a6126cb565b348015610be257600080610bdf615d93565b50505b5061035a60048036036020811015610c0257600080610bff615d93565b50505b50356001600160a01b03166128bf565b348015610c2757600080610c24615d93565b50505b506104606128f9565b348015610c4557600080610c42615d93565b50505b50610460612905565b348015610c6357600080610c60615d93565b50505b5061035a612911565b348015610c8157600080610c7e615d93565b50505b5061035a60048036036020811015610ca157600080610c9e615d93565b50505b5035612997565b348015610cbd57600080610cba615d93565b50505b5061031e612a4a565b6000808080610cd3615dfe565b906101000a900460ff16610d235760405162461bcd60e51b815260206004820152600a6024820152691c994b595b9d195c995960b21b604482015260640160405180910390610d20615d93565b50505b600080600181610d31615dfe565b8160ff02191690831515021790610d46615e59565b5050506000610d53611cef565b90508015610d7e57610d71816010811115610d6a57fe5b601e612a4f565b925060009150610d969050565b610d905a610d8a615ea7565b85612aa9565b92509250505b600160008181610da4615dfe565b8160ff02191690831515021790610db9615e59565b505050915091565b81610dcb57610fc7565b60608151600501604051818152601f19601f8301168101602001604052908015610dfc576020820181803883390190505b50905060005b8251811015610e5157828181518110610e1757fe5b60200101516001600160f81b031916828281518110610e3257fe5b60200101906001600160f81b031916908160001a905350600101610e02565b600160fd1b828281518110610e6257fe5b60200101906001600160f81b031916908160001a905350600560fb1b826001830181518110610e8d57fe5b60200101906001600160f81b031916908160001a905350600a840460300160f81b828260020181518110610ebd57fe5b60200101906001600160f81b031916908160001a905350600a840660300160f81b828260030181518110610eed57fe5b60200101906001600160f81b031916908160001a905350602960f81b826004830181518110610f1857fe5b60200101906001600160f81b031916908160001a905350818415610fc35760405162461bcd60e51b81526004018080602001828103825283818151815260200191508051906020019080838360005b83811015610f7f578082015183820152602001610f67565b50505050905090810190601f168015610fac5780820380516001836020036101000a031916815260200191505b509250505060405180910390610fc0615d93565b50505b5050505b5050565b600180610fd6615dfe565b600181600116156101000203166002900480601f016020809104026020016040519081016040528181529190602083018280611010615dfe565b6001816001161561010002031660029004801561107c5780601f1061104a57610100808361103c615dfe565b04028352916020019161107c565b820191906000526020600020905b81611061615dfe565b8152906001019060200180831161105857829003601f168201915b505050505081565b6000805a611090615ea7565b6001600160a01b0381166000908152600f6020529091508390604090206001600160a01b03861660009081526020919091526040902081906110d0615e59565b505050836001600160a01b0316816001600160a01b03167f8c5be1e5ebec7d5bd14f71427d1e84f3dd0314c0f7b2291e5b200ac8c7c3b9258560405190815260200160405180910390a360019150505b92915050565b600061113134610cc6565b50905061115f8160405160408082019052600b81526a1b5a5b9d0819985a5b195960aa1b6020820152610dc1565b50565b600861116c615dfe565b81565b6000808061117b615dfe565b906101000a900460ff166111cb5760405162461bcd60e51b815260206004820152600a6024820152691c994b595b9d195c995960b21b6044820152606401604051809103906111c8615d93565b50505b6000806001816111d9615dfe565b8160ff021916908315150217906111ee615e59565b50600091506111fa9050565b611202611cef565b146112555760405162461bcd60e51b81526020600482015260166024820152751858d8dc9d59481a5b9d195c995cdd0819985a5b195960521b604482015260640160405180910390611252615d93565b50505b61125e826119df565b90505b60016000818161126f615dfe565b8160ff02191690831515021790611284615e59565b505050919050565b600d61116c615dfe565b60008060006112a3612fda565b909250905060008260038111156112b657fe5b146112fb5760405162461bcd60e51b815260040180806020018281038252603581526020018061645960359139604001915050604051809103906112f8615d93565b50505b9150505b90565b6000808061130e615dfe565b906101000a900460ff1661135e5760405162461bcd60e51b815260206004820152600a6024820152691c994b595b9d195c995960b21b60448201526064016040518091039061135b615d93565b50505b60008060018161136c615dfe565b8160ff02191690831515021790611381615e59565b506000915061138d9050565b6113a15a611399615ea7565b8686866130a5565b1490506001600081816113b2615dfe565b8160ff021916908315150217906113c7615e59565b5050509392505050565b600060046113dd615dfe565b906101000a90046001600160a01b031681565b600060036113fc615dfe565b906101000a900460ff1681565b6000611413615eed565b60405180602001604052806114266124a9565b90526001600160a01b0384166000908152600e602052909150806114558360408320611450615dfe565b613444565b9092509050600082600381111561146857fe5b146114c25760405162461bcd60e51b815260206004820152601f60248201527f62616c616e636520636f756c64206e6f742062652063616c63756c61746564006044820152606401604051809103906114bf615d93565b50505b925050505b919050565b60006114d6613497565b905090565b6000600160036114e9615dfe565b906101000a90046001600160a01b03166001600160a01b03165a61150b615ea7565b6001600160a01b03161461152c576115256001603f612a4f565b90506114c7565b6000806005611539615dfe565b906101000a90046001600160a01b03169050826001600160a01b0316627e3dd26040518163ffffffff1660e01b8152600401602060405180830381868061157e615efe565b15801561159357600080611590615d93565b50505b505a61159d615f4a565b50505050501580156115bc573d6000803e3d60006115b9615d93565b50505b505050506040513d60208110156115db576000806115d8615d93565b50505b810190808051925061163e9150505760405162461bcd60e51b815260206004820152601c60248201527b6d61726b6572206d6574686f642072657475726e65642066616c736560201b60448201526064016040518091039061163b615d93565b50505b82600560018161164c615dfe565b816001600160a01b0302191690836001600160a01b031602179061166e615e59565b5050507f7ac369dbd14fa5ea3f473ed67cc9d598964a77501540ba6751eb0b3decf5870d81846040516001600160a01b039283168152911660208201526040908101905180910390a160005b9392505050565b600b61116c615dfe565b60006116d63461349c565b50905061115f816040516040808201905260128152711c995c185e509bdc9c9bddc819985a5b195960721b6020820152610dc1565b600060056113dd615dfe565b60008080611723615dfe565b906101000a900460ff166117735760405162461bcd60e51b815260206004820152600a6024820152691c994b595b9d195c995960b21b604482015260640160405180910390611770615d93565b50505b600080600181611781615dfe565b8160ff02191690831515021790611796615e59565b50505060006117a3611cef565b905080156117c9576117c18160108111156117ba57fe5b6030612a4f565b915050611261565b6117d283613562565b91505060016000818161126f615dfe565b600961116c615dfe565b6001600160a01b0381166000908152600e60205260408120611120615dfe565b60008080611819615dfe565b906101000a900460ff166118695760405162461bcd60e51b815260206004820152600a6024820152691c994b595b9d195c995960b21b604482015260640160405180910390611866615d93565b50505b600080600181611877615dfe565b8160ff0219169083151502179061188c615e59565b50600091506118989050565b6118a0611cef565b146118f35760405162461bcd60e51b81526020600482015260166024820152751858d8dc9d59481a5b9d195c995cdd0819985a5b195960521b6044820152606401604051809103906118f0615d93565b50505b600b6118fd615dfe565b905060016000818161190d615dfe565b8160ff02191690831515021790611922615e59565b50505090565b600061112082613717565b600c61116c615dfe565b600280611948615dfe565b600181600116156101000203166002900480601f016020809104026020016040519081016040528181529190602083018280611982615dfe565b6001816001161561010002031660029004801561107c5780601f106119ae57610100808361103c615dfe565b820191906000526020600020905b816119c5615dfe565b815290600101906020018083116119bc5750859350505050565b60008060006119ed846137d5565b90925090506000826003811115611a0057fe5b146116ba5760405162461bcd60e51b81526004018080602001828103825260378152602001806163446037913960400191505060405180910390611a42615d93565b50509392505050565b60016003611a57615dfe565b906101000a90046001600160a01b03166001600160a01b03165a611a79615ea7565b6001600160a01b031614611ac75760405162461bcd60e51b81526004018080602001828103825260248152602001806162606024913960400191505060405180910390611ac4615d93565b50505b6009611ad1615dfe565b158015611ae55750600a611ae3615dfe565b155b611b295760405162461bcd60e51b81526004018080602001828103825260238152602001806162846023913960400191505060405180910390611b26615d93565b50505b83806007611b35615e59565b50505060006007611b44615dfe565b11611b895760405162461bcd60e51b81526004018080602001828103825260308152602001806162c76030913960400191505060405180910390611b86615d93565b50505b6000611b94876114db565b90508015611bee5760405162461bcd60e51b815260206004820152601a6024820152791cd95d1d1a5b99c818dbdb5c1d1c9bdb1b195c8819985a5b195960321b604482015260640160405180910390611beb615d93565b50505b611bf66138a1565b806009611c01615e59565b505050670de0b6b3a7640000600a8190611c19615e59565b505050611c25866138ac565b90508015611c6d5760405162461bcd60e51b81526004018080602001828103825260228152602001806162f76022913960400191505060405180910390611c6a615d93565b50505b6001848051611c80929160200190615ffa565b506002838051611c94929160200190615ffa565b50816003600181611ca3615dfe565b8160ff021916908360ff16021790611cb9615e59565b50505060016000806101000a81611cce615dfe565b8160ff02191690831515021790611ce3615e59565b50505050505050505050565b600080611cfa6138a1565b905060006009611d08615dfe565b905081811415611d1d576000925050506112ff565b6000611d27613497565b90506000600b611d35615dfe565b90506000600c611d43615dfe565b90506000600a611d51615dfe565b90506000806006611d60615dfe565b906101000a90046001600160a01b03166001600160a01b03166315f240538686866040516001600160e01b031960e086901b1681526004810193909352602483019190915260448201526064016020604051808303818680611dc0615efe565b158015611dd557600080611dd2615d93565b50505b505a611ddf615f4a565b5050505050158015611dfe573d6000803e3d6000611dfb615d93565b50505b505050506040513d6020811015611e1d57600080611e1a615d93565b50505b8101908080519350505065048c273950008211159050611e8b5760405162461bcd60e51b815260206004820152601c60248201527b0c4dee4e4deee40e4c2e8ca40d2e640c2c4e6eae4c8d8f240d0d2ced60231b604482015260640160405180910390611e88615d93565b50505b600080611e988989613aac565b90925090506000826003811115611eab57fe5b14611f055760405162461bcd60e51b815260206004820152601f60248201527f636f756c64206e6f742063616c63756c61746520626c6f636b2064656c746100604482015260640160405180910390611f02615d93565b50505b611f0d615eed565b600080600080611f296040516020810160405289815287613acf565b90975094506000876003811115611f3c57fe5b14611f6e57611f5960096006896003811115611f5457fe5b613b35565b9e5050505050505050505050505050506112ff565b611f78858c613444565b90975093506000876003811115611f8b57fe5b14611fa357611f5960096001896003811115611f5457fe5b611fad848c613b8e565b90975092506000876003811115611fc057fe5b14611fd857611f5960096004896003811115611f5457fe5b611ff960405180602001604052806008611ff0615dfe565b9052858c613bb4565b9097509150600087600381111561200c57fe5b1461202457611f5960096005896003811115611f5457fe5b61202f858a8b613bb4565b9097509050600087600381111561204257fe5b1461205a57611f5960096003896003811115611f5457fe5b8d806009612066615e59565b50505080600a8190612076615e59565b50505082600b8190612086615e59565b50505081600c8190612096615e59565b5050507f4dec04e750ca11537cabcd8a9eab06494de08da3735bc8871cd41250e190bc048c8583866040518085815260200184815260200183815260200182815260200194505050505060405180910390a160009e50505050505050505050505050505090565b60008080612109615dfe565b906101000a900460ff166121595760405162461bcd60e51b815260206004820152600a6024820152691c994b595b9d195c995960b21b604482015260640160405180910390612156615d93565b50505b600080600181612167615dfe565b8160ff0219169083151502179061217c615e59565b50600091506121889050565b6121a45a612194615ea7565b5a61219d615ea7565b86866130a5565b1490506001600081816121b5615dfe565b8160ff021916908315150217906121ca615e59565b50505092915050565b600a61116c615dfe565b60006121ea833484613c10565b509050612223816040516040808201905260168152751b1a5c5d5a59185d19509bdc9c9bddc819985a5b195960521b6020820152610dc1565b505050565b6000806006612235615dfe565b906101000a90046001600160a01b03166001600160a01b031663b816881661225b613497565b600b612265615dfe565b600c61226f615dfe565b6008612279615dfe565b6040516001600160e01b031960e087901b168152600481019490945260248401929092526044830152606482015260840160206040518083038186806122bd615efe565b1580156122d2576000806122cf615d93565b50505b505a6122dc615f4a565b50505050501580156122fb573d6000803e3d60006122f8615d93565b50505b505050506040513d602081101561231a57600080612317615d93565b50505b810190808051935050505090565b60008080612334615dfe565b906101000a900460ff166123845760405162461bcd60e51b815260206004820152600a6024820152691c994b595b9d195c995960b21b604482015260640160405180910390612381615d93565b50505b600080600181612392615dfe565b8160ff021916908315150217906123a7615e59565b5050506123be5a6123b6615ea7565b858585613dd4565b90506001600081816113b2615dfe565b6000600160036123dc615dfe565b906101000a90046001600160a01b03166001600160a01b03165a6123fe615ea7565b6001600160a01b0316146124185761152560016045612a4f565b6000806004612425615dfe565b906101000a90046001600160a01b0316905082600460006101000a81612449615dfe565b816001600160a01b0302191690836001600160a01b031602179061246b615e59565b50505060008051602061637b83398151915281846040516001600160a01b039283168152911660208201526040908101905180910390a160006116ba565b600080806124b5615dfe565b906101000a900460ff166125055760405162461bcd60e51b815260206004820152600a6024820152691c994b595b9d195c995960b21b604482015260640160405180910390612502615d93565b50505b600080600181612513615dfe565b8160ff02191690831515021790612528615e59565b50600091506125349050565b61253c611cef565b1461258f5760405162461bcd60e51b81526020600482015260166024820152751858d8dc9d59481a5b9d195c995cdd0819985a5b195960521b60448201526064016040518091039061258c615d93565b50505b6118fd611296565b6001600160a01b0381166000908152600e60205280808080604081206125bb615dfe565b905060008060006125cb896137d5565b9350905060008160038111156125dd57fe5b146125fb5760095b97506000965086955085945061262e9350505050565b612603612fda565b92509050600081600381111561261557fe5b146126215760096125e5565b5060009650919450925090505b9193509193565b6000611120826140a5565b600061112082614161565b6001600160a01b0382166000908152600f602052604081206001600160a01b0383166000908152602091909152604090206116ba615dfe565b60006126908234614218565b509050610fc7816040516040808201905260188152771c995c185e509bdc9c9bddd0995a185b198819985a5b195960421b6020820152610dc1565b60008060046126d8615dfe565b906101000a90046001600160a01b03166001600160a01b03165a6126fa615ea7565b6001600160a01b0316141580612721575060005a612716615ea7565b6001600160a01b0316145b156127395761273260016000612a4f565b90506112ff565b600060016003612747615dfe565b906101000a90046001600160a01b0316905060006004600090612768615dfe565b906101000a90046001600160a01b031690506004600090612787615dfe565b906101000a90046001600160a01b0316600360016101000a816127a8615dfe565b816001600160a01b0302191690836001600160a01b03160217906127ca615e59565b5050506000600460006101000a816127e0615dfe565b816001600160a01b0302191690836001600160a01b0316021790612802615e59565b5050507ff9ffabca9c8276e99321725bcb43fb076a6c66a54b7f21c4e8146d8519b417dc826003600190612834615dfe565b906101000a90046001600160a01b03166040516001600160a01b039283168152911660208201526040908101905180910390a160008051602061637b8339815191528160006004612883615dfe565b906101000a90046001600160a01b03166040516001600160a01b039283168152911660208201526040908101905180910390a160009250505090565b6000806128ca611cef565b905080156128f0576128e88160108111156128e157fe5b6040612a4f565b9150506114c7565b6116ba836138ac565b600060066113dd615dfe565b600160036113dd615dfe565b600080600661291e615dfe565b906101000a90046001600160a01b03166001600160a01b03166315f24053612944613497565b600b61294e615dfe565b600c612958615dfe565b6040516001600160e01b031960e086901b16815260048101939093526024830191909152604482015260640160206040518083038186806122bd615efe565b600080806129a3615dfe565b906101000a900460ff166129f35760405162461bcd60e51b815260206004820152600a6024820152691c994b595b9d195c995960b21b6044820152606401604051809103906129f0615d93565b50505b600080600181612a01615dfe565b8160ff02191690831515021790612a16615e59565b5050506000612a23611cef565b90508015612a41576117c1816010811115612a3a57fe5b6046612a4f565b6117d283614316565b600181565b60006000805160206162a7833981519152836010811115612a6c57fe5b836050811115612a7857fe5b600060405180848152602001838152602001828152602001935050505060405180910390a18260108111156116ba57fe5b60008080806005612ab8615dfe565b906101000a90046001600160a01b03166001600160a01b0316634ef4c3e15a63996d79a5598160e01b8152602081600483336000905af158600e01573d6000803e3d6000fd5b3d6001141558600a015760016000f35b8051925060005b6040811015612b2c57600082820152602001612b15565b50505087876040516001600160e01b031960e086901b1681526001600160a01b039384166004820152919092166024820152604481019190915260640160206040518083038160008780612b7e615efe565b158015612b9357600080612b90615d93565b50505b505a612b9d61609a565b505050505050158015612bbd573d6000803e3d6000612bba615d93565b50505b505050506040513d6020811015612bdc57600080612bd9615d93565b50505b81019080805193505082159150612c09905057612bfc6003601f83613b35565b925060009150612fd39050565b612c116138a1565b6009612c1b615dfe565b14612c2c57612bfc600a6022612a4f565b612c3461614a565b612c3c612fda565b6040830181905260208301826003811115612c5357fe5b6003811115612c5e57fe5b9052506000905081602001516003811115612c7557fe5b14612c9f57612c916009602183602001516003811115611f5457fe5b935060009250612fd3915050565b612ca986866143fd565b60c08201908152612ccc90516040518060200160405280846040015190526144b7565b6060830181905260208301826003811115612ce357fe5b6003811115612cee57fe5b9052506000905081602001516003811115612d0557fe5b14612d5f5760405162461bcd60e51b815260206004820181905260248201527f4d494e545f45584348414e47455f43414c43554c4154494f4e5f4641494c4544604482015260640160405180910390612d5c615d93565b50505b612d76600d612d6c615dfe565b8260600151613b8e565b6080830181905260208301826003811115612d8d57fe5b6003811115612d9857fe5b9052506000905081602001516003811115612daf57fe5b14612df45760405162461bcd60e51b815260040180806020018281038252602881526020018061648e6028913960400191505060405180910390612df1615d93565b50505b6001600160a01b0386166000908152600e602052612e189060409020612d6c615dfe565b60a0830181905260208301826003811115612e2f57fe5b6003811115612e3a57fe5b9052506000905081602001516003811115612e5157fe5b14612e965760405162461bcd60e51b815260040180806020018281038252602b815260200180616319602b913960400191505060405180910390612e93615d93565b50505b806080015180600d612ea6615e59565b5050508060a001516001600160a01b0387166000908152600e602052604090208190612ed0615e59565b5050507f4c209b5fc8ad50758f13e2e1088ba56a560dff690a1c6fef26394f4c03821c4f868260c00151836060015160405180846001600160a01b03166001600160a01b03168152602001838152602001828152602001935050505060405180910390a1856001600160a01b03165a63996d79a5598160e01b8152602081600483336000905af158600e01573d6000803e3d6000fd5b3d6001141558600a015760016000f35b8051925060005b6040811015612f9457600082820152602001612f7d565b5050506001600160a01b03166000805160206163d5833981519152836060015160405190815260200160405180910390a360008160c001519350935050505b9250929050565b6000806000600d612fe9615dfe565b9050806130065760006007612ffc615dfe565b92509250506130a1565b6000613010613497565b9050600061301c615eed565b600061303b84600b61302c615dfe565b600c613036615dfe565b6144ce565b93509050600081600381111561304d57fe5b14613062579550600094506130a19350505050565b61306c838661450c565b92509050600081600381111561307e57fe5b14613093579550600094506130a19350505050565b600082519650965050505050505b9091565b6000808060056130b3615dfe565b906101000a90046001600160a01b03166001600160a01b031663bdcdc2585a63996d79a5598160e01b8152602081600483336000905af158600e01573d6000803e3d6000fd5b3d6001141558600a015760016000f35b8051925060005b604081101561312757600082820152602001613110565b5050508787876040516001600160e01b031960e087901b1681526001600160a01b039485166004820152928416602484015292166044820152606481019190915260840160206040518083038160008780613180615efe565b15801561319557600080613192615d93565b50505b505a61319f61609a565b5050505050501580156131bf573d6000803e3d60006131bc615d93565b50505b505050506040513d60208110156131de576000806131db615d93565b50505b810190808051935050821591506132069050576131fe6003604a83613b35565b91505061343c565b836001600160a01b0316856001600160a01b0316141561322c576131fe6002604b612a4f565b60006001600160a01b03878116908716141561324b5750600019613287565b6001600160a01b0386166000908152600f602052604090206001600160a01b038816600090815260209190915260409020613284615dfe565b90505b6000806000806132978589613aac565b909450925060008460038111156132aa57fe5b146132c8576132bb6009604b612a4f565b965050505050505061343c565b6001600160a01b038a166000908152600e6020526132f290604090206132ec615dfe565b89613aac565b9094509150600084600381111561330557fe5b14613316576132bb6009604c612a4f565b6001600160a01b0389166000908152600e602052613340906040902061333a615dfe565b89613b8e565b9094509050600084600381111561335357fe5b14613364576132bb6009604d612a4f565b6001600160a01b038a166000908152600e6020528290604090208190613388615e59565b5050506001600160a01b0389166000908152600e60205281906040902081906133af615e59565b50505060001985146133fc576001600160a01b038a166000908152600f6020528390604090206001600160a01b038d1660009081526020919091526040902081906133f8615e59565b5050505b886001600160a01b03168a6001600160a01b03166000805160206163d58339815191528a60405190815260200160405180910390a3600096505050505050505b949350505050565b6000806000613451615eed565b61345b8686613acf565b9092509050600082600381111561346e57fe5b1461347f5750915060009050612fd3565b600061348a826145be565b9350935050509250929050565b600090565b60008080806134a9615dfe565b906101000a900460ff166134f95760405162461bcd60e51b815260206004820152600a6024820152691c994b595b9d195c995960b21b6044820152606401604051809103906134f6615d93565b50505b600080600181613507615dfe565b8160ff0219169083151502179061351c615e59565b5050506000613529611cef565b9050801561354757610d7181601081111561354057fe5b6036612a4f565b610d905a613553615ea7565b5a61355c615ea7565b866145d9565b60008060016003613571615dfe565b906101000a90046001600160a01b03166001600160a01b03165a613593615ea7565b6001600160a01b0316146135ad576128e860016031612a4f565b6135b56138a1565b60096135bf615dfe565b146135d0576128e8600a6033612a4f565b826135d9613497565b10156135eb576128e8600e6032612a4f565b600c6135f5615dfe565b831115613608576128e860026034612a4f565b82600c613613615dfe565b039050600c613620615dfe565b8111156136675760405162461bcd60e51b81526004018080602001828103825260248152602001806164ea6024913960400191505060405180910390613664615d93565b50505b8080600c613673615e59565b50505061369c6003600190613686615dfe565b906101000a90046001600160a01b031684614a47565b7f3bad0c59cf2f06e7314077049f48a93578cd16f5ef92329f1dab1420a99c177e600160036136c9615dfe565b906101000a90046001600160a01b0316848360405180846001600160a01b03166001600160a01b03168152602001838152602001828152602001935050505060405180910390a160006116ba565b60008080613723615dfe565b906101000a900460ff166137735760405162461bcd60e51b815260206004820152600a6024820152691c994b595b9d195c995960b21b604482015260640160405180910390613770615d93565b50505b600080600181613781615dfe565b8160ff02191690831515021790613796615e59565b50505060006137a3611cef565b905080156137c1576117c18160108111156137ba57fe5b6027612a4f565b6117d25a6137cd615ea7565b600085614a91565b6001600160a01b038116600090815260106020528080808080604081209050806137fd615dfe565b61381257506000945084935061389c92505050565b61382d8161381e615dfe565b600a613828615dfe565b615141565b9094509250600084600381111561384057fe5b1461385557509193506000925061389c915050565b61386a8382600101613865615dfe565b615180565b9094509150600084600381111561387d57fe5b1461389257509193506000925061389c915050565b5060009450925050505b915091565b60005a6114d6616187565b600080600160036138bb615dfe565b906101000a90046001600160a01b03166001600160a01b03165a6138dd615ea7565b6001600160a01b0316146138f7576128e860016042612a4f565b6138ff6138a1565b6009613909615dfe565b1461391a576128e8600a6041612a4f565b60006006613926615dfe565b906101000a90046001600160a01b03169050826001600160a01b0316632191f92a6040518163ffffffff1660e01b8152600401602060405180830381868061396c615efe565b1580156139815760008061397e615d93565b50505b505a61398b615f4a565b50505050501580156139aa573d6000803e3d60006139a7615d93565b50505b505050506040513d60208110156139c9576000806139c6615d93565b50505b8101908080519250613a2c9150505760405162461bcd60e51b815260206004820152601c60248201527b6d61726b6572206d6574686f642072657475726e65642066616c736560201b604482015260640160405180910390613a29615d93565b50505b826006600181613a3a615dfe565b816001600160a01b0302191690836001600160a01b0316021790613a5c615e59565b5050507fedffc32e068c7c95dfd4bdfd5c4d939a084d6b11c4199eac8436ed234d72f92681846040516001600160a01b039283168152911660208201526040908101905180910390a160006116ba565b600080838311613ac3575060009050818303612fd3565b50600390506000612fd3565b6000613ad9615eed565b600080613ae7865186615141565b90925090506000826003811115613afa57fe5b14613b1b578160405160208101604052600081529094509250612fd3915050565b600060405160208101604052918252969095509350505050565b60006000805160206162a7833981519152846010811115613b5257fe5b846050811115613b5e57fe5b8460405180848152602001838152602001828152602001935050505060405180910390a183601081111561343c57fe5b600080838301848110613ba657600092509050612fd3565b506002915060009050612fd3565b6000806000613bc1615eed565b613bcb8787613acf565b90925090506000826003811115613bde57fe5b14613bef5750915060009050613c08565b613c01613bfb826145be565b86613b8e565b9350935050505b935093915050565b6000808080613c1d615dfe565b906101000a900460ff16613c6d5760405162461bcd60e51b815260206004820152600a6024820152691c994b595b9d195c995960b21b604482015260640160405180910390613c6a615d93565b50505b600080600181613c7b615dfe565b8160ff02191690831515021790613c90615e59565b5050506000613c9d611cef565b90508015613cc857613cbb816010811115613cb457fe5b600f612a4f565b925060009150613da69050565b836001600160a01b031663a6afed956040518163ffffffff1660e01b815260040160206040518083038160008780613cfe615efe565b158015613d1357600080613d10615d93565b50505b505a613d1d61609a565b505050505050158015613d3d573d6000803e3d6000613d3a615d93565b50505b505050506040513d6020811015613d5c57600080613d59615d93565b50505b810190808051935060009250613d70915050565b8114613d8c57613cbb816010811115613d8557fe5b6010612a4f565b613da05a613d98615ea7565b8787876151ab565b92509250505b600160008181613db4615dfe565b8160ff02191690831515021790613dc9615e59565b505050935093915050565b600080806005613de2615dfe565b906101000a90046001600160a01b03166001600160a01b031663d02f73515a63996d79a5598160e01b8152602081600483336000905af158600e01573d6000803e3d6000fd5b3d6001141558600a015760016000f35b8051925060005b6040811015613e5657600082820152602001613e3f565b505050888888886040516001600160e01b031960e088901b1681526001600160a01b039586166004820152938516602485015291841660448401529092166064820152608481019190915260a40160206040518083038160008780613eb9615efe565b158015613ece57600080613ecb615d93565b50505b505a613ed861609a565b505050505050158015613ef8573d6000803e3d6000613ef5615d93565b50505b505050506040513d6020811015613f1757600080613f14615d93565b50505b81019080805193505082159150613f379050576131fe6003601b83613b35565b846001600160a01b0316846001600160a01b03161415613f5d576131fe6006601c612a4f565b6001600160a01b0384166000908152600e6020528080613f8860408220613f82615dfe565b87613aac565b90935091506000836003811115613f9b57fe5b14613fbe57613fb36009601a856003811115611f5457fe5b94505050505061343c565b6001600160a01b0388166000908152600e602052613fe89060409020613fe2615dfe565b87613b8e565b90935090506000836003811115613ffb57fe5b1461401357613fb360096019856003811115611f5457fe5b6001600160a01b0387166000908152600e6020528290604090208190614037615e59565b5050506001600160a01b0388166000908152600e602052819060409020819061405e615e59565b505050876001600160a01b0316876001600160a01b03166000805160206163d58339815191528860405190815260200160405180910390a360009998505050505050505050565b600080806140b1615dfe565b906101000a900460ff166141015760405162461bcd60e51b815260206004820152600a6024820152691c994b595b9d195c995960b21b6044820152606401604051809103906140fe615d93565b50505b60008060018161410f615dfe565b8160ff02191690831515021790614124615e59565b5050506000614131611cef565b9050801561414f576117c181601081111561414857fe5b6008612a4f565b6117d25a61415b615ea7565b84615992565b6000808061416d615dfe565b906101000a900460ff166141bd5760405162461bcd60e51b815260206004820152600a6024820152691c994b595b9d195c995960b21b6044820152606401604051809103906141ba615d93565b50505b6000806001816141cb615dfe565b8160ff021916908315150217906141e0615e59565b50505060006141ed611cef565b90508015614204576117c18160108111156137ba57fe5b6117d25a614210615ea7565b846000614a91565b6000808080614225615dfe565b906101000a900460ff166142755760405162461bcd60e51b815260206004820152600a6024820152691c994b595b9d195c995960b21b604482015260640160405180910390614272615d93565b50505b600080600181614283615dfe565b8160ff02191690831515021790614298615e59565b50505060006142a5611cef565b905080156142d0576142c38160108111156142bc57fe5b6035612a4f565b9250600091506142e99050565b6142e35a6142dc615ea7565b86866145d9565b92509250505b6001600081816142f7615dfe565b8160ff0219169083151502179061430c615e59565b5050509250929050565b600060016003614324615dfe565b906101000a90046001600160a01b03166001600160a01b03165a614346615ea7565b6001600160a01b0316146143605761152560016047612a4f565b6143686138a1565b6009614372615dfe565b1461438357611525600a6048612a4f565b670de0b6b3a764000082111561439f5761152560026049612a4f565b600060086143ab615dfe565b9050828060086143b9615e59565b5050507faaa68312e2ea9d50e16af5068410ab56e1a1fd06037b1a35664812c30f821460818460405191825260208201526040908101905180910390a160006116ba565b6000826001600160a01b03165a614412615ea7565b6001600160a01b0316146144675760405162461bcd60e51b815260206004820152600f60248201526e0e6cadcc8cae440dad2e6dac2e8c6d608b1b604482015260640160405180910390614464615d93565b50505b8134146144b15760405162461bcd60e51b815260206004820152600e60248201526d0ecc2d8eaca40dad2e6dac2e8c6d60931b604482015260640160405180910390611284615d93565b50919050565b60008060006144c4615eed565b61345b8686615d35565b6000806000806144de8787613b8e565b909250905060008260038111156144f157fe5b146145025750915060009050613c08565b613c018186613aac565b6000614516615eed565b60008061452b86670de0b6b3a7640000615141565b9092509050600082600381111561453e57fe5b1461455f578160405160208101604052600081529094509250612fd3915050565b60008061456c8388615180565b9092509050600082600381111561457f57fe5b146145a2578160405160208101604052600081529096509450612fd39350505050565b6000604051602081016040529182529890975095505050505050565b6000670de0b6b3a76400008251816145d257fe5b0492915050565b600080808060056145e8615dfe565b906101000a90046001600160a01b03166001600160a01b03166324008a625a63996d79a5598160e01b8152602081600483336000905af158600e01573d6000803e3d6000fd5b3d6001141558600a015760016000f35b8051925060005b604081101561465c57600082820152602001614645565b5050508888886040516001600160e01b031960e087901b1681526001600160a01b0394851660048201529284166024840152921660448201526064810191909152608401602060405180830381600087806146b5615efe565b1580156146ca576000806146c7615d93565b50505b505a6146d461609a565b5050505050501580156146f4573d6000803e3d60006146f1615d93565b50505b505050506040513d602081101561471357600080614710615d93565b50505b810190808051935050821591506147409050576147336003603883613b35565b925060009150613c089050565b6147486138a1565b6009614752615dfe565b1461476357614733600a6039612a4f565b61476b6161cd565b6001600160a01b038616600090815260106020526040902060010161478e615dfe565b606082015261479c866137d5565b60808301819052602083018260038111156147b357fe5b60038111156147be57fe5b90525060009050816020015160038111156147d557fe5b146147ff576147f16009603783602001516003811115611f5457fe5b935060009250613c08915050565b6000198514156148185780608001516040820152614820565b604081018590525b61482e8782604001516143fd565b60e082015261484560808201518260e00151613aac565b60a083018190526020830182600381111561485c57fe5b600381111561486757fe5b905250600090508160200151600381111561487e57fe5b146148c35760405162461bcd60e51b815260040180806020018281038252603a81526020018061639b603a9139604001915050604051809103906148c0615d93565b50505b6148da600b6148d0615dfe565b8260e00151613aac565b60c08301819052602083018260038111156148f157fe5b60038111156148fc57fe5b905250600090508160200151600381111561491357fe5b146149585760405162461bcd60e51b81526004018080602001828103825260318152602001806163f56031913960400191505060405180910390614955615d93565b50505b8060a001516001600160a01b0387166000908152601060205260409020819061497f615e59565b505050600a61498c615dfe565b6001600160a01b038716600090815260106020526040902060010181906149b1615e59565b5050508060c0015180600b6149c4615e59565b5050507f1a2a22cb034d26d1854bdc6666a5b91fe25efbbb5dcad3b0355478d6f5c362a187878360e001518460a001518560c001516040516001600160a01b0395861681529390941660208401526040808401929092526060830152608082019290925260a001905180910390a160008160e00151935093505050935093915050565b6001600160a01b03821681156108fc0282604051600060405180830381858888614a6f61609a565b5050505050509350505050158015612223573d6000803e3d6000610fc3615d93565b6000821580614a9e575081155b614ae25760405162461bcd60e51b81526004018080602001828103825260348152602001806164b66034913960400191505060405180910390614adf615d93565b50505b614aea61614a565b614af2612fda565b6040830181905260208301826003811115614b0957fe5b6003811115614b1457fe5b9052506000905081602001516003811115614b2b57fe5b14614b4f57614b476009602b83602001516003811115611f5457fe5b9150506116ba565b8315614bd15760608101849052614b7760405180602001604052808360400151905285613444565b6080830181905260208301826003811115614b8e57fe5b6003811115614b9957fe5b9052506000905081602001516003811115614bb057fe5b14614bcc57614b476009602983602001516003811115611f5457fe5b614c49565b614bec836040518060200160405280846040015190526144b7565b6060830181905260208301826003811115614c0357fe5b6003811115614c0e57fe5b9052506000905081602001516003811115614c2557fe5b14614c4157614b476009602a83602001516003811115611f5457fe5b608081018390525b6000806005614c56615dfe565b906101000a90046001600160a01b03166001600160a01b031663eabe7d915a63996d79a5598160e01b8152602081600483336000905af158600e01573d6000803e3d6000fd5b3d6001141558600a015760016000f35b8051925060005b6040811015614cca57600082820152602001614cb3565b5050508885606001516040516001600160e01b031960e086901b1681526001600160a01b039384166004820152919092166024820152604481019190915260640160206040518083038160008780614d20615efe565b158015614d3557600080614d32615d93565b50505b505a614d3f61609a565b505050505050158015614d5f573d6000803e3d6000614d5c615d93565b50505b505050506040513d6020811015614d7e57600080614d7b615d93565b50505b81019080805193505082159150614da7905057614d9e6003602883613b35565b925050506116ba565b614daf6138a1565b6009614db9615dfe565b14614dca57614d9e600a602c612a4f565b614de1600d614dd7615dfe565b8360600151613aac565b60a0840181905260208401826003811115614df857fe5b6003811115614e0357fe5b9052506000905082602001516003811115614e1a57fe5b14614e3657614d9e6009602e84602001516003811115611f5457fe5b6001600160a01b0386166000908152600e602052614e5a9060409020614dd7615dfe565b60c0840181905260208401826003811115614e7157fe5b6003811115614e7c57fe5b9052506000905082602001516003811115614e9357fe5b14614eaf57614d9e6009602d84602001516003811115611f5457fe5b8160800151614ebc613497565b1015614ece57614d9e600e602f612a4f565b614edc868360800151614a47565b8160a0015180600d614eec615e59565b5050508160c001516001600160a01b0387166000908152600e602052604090208190614f16615e59565b5050505a63996d79a5598160e01b8152602081600483336000905af158600e01573d6000803e3d6000fd5b3d6001141558600a015760016000f35b8051925060005b6040811015614f6f57600082820152602001614f58565b5050506001600160a01b0316866001600160a01b03166000805160206163d5833981519152846060015160405190815260200160405180910390a37fe5b754fb1abb7f01b499791d0b820ae3b6af3424ac1c59768edb53f4ec31a929868360800151846060015160405180846001600160a01b03166001600160a01b03168152602001838152602001828152602001935050505060405180910390a160006005615017615dfe565b906101000a90046001600160a01b03166001600160a01b03166351dff9895a63996d79a5598160e01b8152602081600483336000905af158600e01573d6000803e3d6000fd5b3d6001141558600a015760016000f35b8051925060005b604081101561508b57600082820152602001615074565b50505088856080015186606001516040516001600160e01b031960e087901b1681526001600160a01b03948516600482015292909316602483015260448201526064810191909152608401600060405180830381600087806150eb615efe565b158015615100576000806150fd615d93565b50505b505a61510a61609a565b50505050505015801561512a573d6000803e3d6000615127615d93565b50505b5060009250615137915050565b9695505050505050565b6000808361515457506000905080612fd3565b8383028385828161516157fe5b041461517557506002915060009050612fd3565b600092509050612fd3565b600080826151945750600190506000612fd3565b600083858161519f57fe5b04915091509250929050565b600080808060056151ba615dfe565b906101000a90046001600160a01b03166001600160a01b0316635fc7e71e5a63996d79a5598160e01b8152602081600483336000905af158600e01573d6000803e3d6000fd5b3d6001141558600a015760016000f35b8051925060005b604081101561522e57600082820152602001615217565b505050868a8a8a6040516001600160e01b031960e088901b1681526001600160a01b039586166004820152938516602485015291841660448401529092166064820152608481019190915260a40160206040518083038160008780615291615efe565b1580156152a6576000806152a3615d93565b50505b505a6152b061609a565b5050505050501580156152d0573d6000803e3d60006152cd615d93565b50505b505050506040513d60208110156152ef576000806152ec615d93565b50505b8101908080519350508215915061531c90505761530f6003601283613b35565b9250600091506159899050565b6153246138a1565b600961532e615dfe565b1461533f5761530f600a6016612a4f565b6153476138a1565b846001600160a01b0316636c540baf6040518163ffffffff1660e01b8152600401602060405180830381868061537b615efe565b1580156153905760008061538d615d93565b50505b505a61539a615f4a565b50505050501580156153b9573d6000803e3d60006153b6615d93565b50505b505050506040513d60208110156153d8576000806153d5615d93565b50505b8101908080519390931492506153f79150505761530f600a6011612a4f565b866001600160a01b0316866001600160a01b0316141561541d5761530f60066017612a4f565b8461542e5761530f60076015612a4f565b6000198514156154445761530f60076014612a4f565b6000806154528989896145d9565b909250905081156154825761547382601081111561546c57fe5b6018612a4f565b94506000935061598992505050565b600080806005615490615dfe565b906101000a90046001600160a01b03166001600160a01b031663c488847b5a63996d79a5598160e01b8152602081600483336000905af158600e01573d6000803e3d6000fd5b3d6001141558600a015760016000f35b8051925060005b6040811015615504576000828201526020016154ed565b5050508a866040516001600160e01b031960e086901b1681526001600160a01b039384166004820152919092166024820152604481019190915260640160408051808303818680615553615efe565b15801561556857600080615565615d93565b50505b505a615572615f4a565b5050505050158015615591573d6000803e3d600061558e615d93565b50505b505050506040513d60408110156155b0576000806155ad615d93565b50505b8101908080519291906020018051939550929350600092506155d0915050565b82146156165760405162461bcd60e51b81526004018080602001828103825260338152602001806164266033913960400191505060405180910390615613615d93565b50505b80886001600160a01b03166370a082318c6040516001600160e01b031960e084901b1681526001600160a01b0390911660048201526024016020604051808303818680615661615efe565b15801561567657600080615673615d93565b50505b505a615680615f4a565b505050505015801561569f573d6000803e3d600061569c615d93565b50505b505050506040513d60208110156156be576000806156bb615d93565b50505b810190808051939093101592506157229150505760405162461bcd60e51b815260206004820152601860248201527709892a2aa928882a88abea68a92b48abea89e9ebe9aaa86960431b60448201526064016040518091039061571f615d93565b50505b60005a63996d79a5598160e01b8152602081600483336000905af158600e01573d6000803e3d6000fd5b3d6001141558600a015760016000f35b8051925060005b604081101561577a57600082820152602001615763565b5050506001600160a01b0316896001600160a01b03161415615801576157fa5a63996d79a5598160e01b8152602081600483336000905af158600e01573d6000803e3d6000fd5b3d6001141558600a015760016000f35b8051925060005b60408110156157ef576000828201526020016157d8565b5050508d8d85613dd4565b90506158ca565b886001600160a01b031663b2a02ff18d8d856040516001600160e01b031960e086901b1681526001600160a01b039384166004820152919092166024820152604481019190915260640160206040518083038160008780615860615efe565b15801561587557600080615872615d93565b50505b505a61587f61609a565b50505050505015801561589f573d6000803e3d600061589c615d93565b50505b505050506040513d60208110156158be576000806158bb615d93565b50505b81019080805193505050505b801561591c5760405162461bcd60e51b81526020600482015260146024820152731d1bdad95b881cd95a5e9d5c994819985a5b195960621b604482015260640160405180910390615919615d93565b50505b7f298637f684da70674f26509b10f07ec2fbc77a335ab1e7d6215a4b2484d8bb528c8c868c866040516001600160a01b039586168152938516602085015260408085019390935293166060830152608082019290925260a001905180910390a16000975092955050505050505b94509492505050565b6000808060056159a0615dfe565b906101000a90046001600160a01b03166001600160a01b031663da3d454c5a63996d79a5598160e01b8152602081600483336000905af158600e01573d6000803e3d6000fd5b3d6001141558600a015760016000f35b8051925060005b6040811015615a14576000828201526020016159fd565b50505086866040516001600160e01b031960e086901b1681526001600160a01b039384166004820152919092166024820152604481019190915260640160206040518083038160008780615a66615efe565b158015615a7b57600080615a78615d93565b50505b505a615a8561609a565b505050505050158015615aa5573d6000803e3d6000615aa2615d93565b50505b505050506040513d6020811015615ac457600080615ac1615d93565b50505b81019080805193505082159150615aec905057615ae46003600e83613b35565b915050611120565b615af46138a1565b6009615afe615dfe565b14615b0e57615ae4600a80612a4f565b82615b17613497565b1015615b2957615ae4600e6009612a4f565b615b31616212565b615b3a856137d5565b6020830181905282826003811115615b4e57fe5b6003811115615b5957fe5b9052506000905081516003811115615b6d57fe5b14615b8f57615b866009600783516003811115611f5457fe5b92505050611120565b615b9d816020015185613b8e565b6040830181905282826003811115615bb157fe5b6003811115615bbc57fe5b9052506000905081516003811115615bd057fe5b14615be957615b866009600c83516003811115611f5457fe5b615bfc600b615bf6615dfe565b85613b8e565b6060830181905282826003811115615c1057fe5b6003811115615c1b57fe5b9052506000905081516003811115615c2f57fe5b14615c4857615b866009600b83516003811115611f5457fe5b615c528585614a47565b80604001516001600160a01b03861660009081526010602052604090208190615c79615e59565b505050600a615c86615dfe565b6001600160a01b03861660009081526010602052604090206001018190615cab615e59565b505050806060015180600b615cbe615e59565b5050507f13ed6866d4e1ee6da46f845c46d7e54120883d75c5ea9a2dacc1c4ca8984ab8085858360400151846060015160405180856001600160a01b03166001600160a01b0316815260200184815260200183815260200182815260200194505050505060405180910390a1600095945050505050565b6000615d3f615eed565b600080615d54670de0b6b3a764000087615141565b90925090506000826003811115615d6757fe5b14615d88578160405160208101604052600081529094509250612fd3915050565b61348a81865161450c565b632a2a7adb598160e01b8152600481016020815285602082015260005b86811015615dcb578086015182820160400152602001615db0565b506020828760640184336000905af158600e01573d6000803e3d6000fd5b3d6001141558600a015760016000f35b505050565b6303daa959598160e01b8152836004820152602081602483336000905af158600e01573d6000803e3d6000fd5b3d6001141558600a015760016000f35b8051935060005b604081101561222357600082820152602001615e42565b6322bd64c0598160e01b8152836004820152846024820152600081604483336000905af158600e01573d6000803e3d6000fd5b3d6001141558600a015760016000f35b600081526020615e42565b6373509064598160e01b8152602081600483336000905af158600e01573d6000803e3d6000fd5b3d6001141558600a015760016000f35b80516000825293506020615e42565b604051602081016040526000815290565b638435035b598160e01b8152836004820152602081602483336000905af158600e01573d6000803e3d6000fd5b3d6001141558600a015760016000f35b80516000825293506020615e42565b638540661f598160e01b8152836004820152846024820152606060448201528660648201526084810160005b88811015615f8e578088015182820152602001615f76565b506060828960a40184336000905af158600e01573d6000803e3d6000fd5b3d6001141558600a015760016000f35b815160408301513d6000853e8b8b82606087013350600060045af15059845b81811015615fef5760008152602001615fdb565b50919b505050505050565b8280616004615dfe565b600181600116156101000203166002900490600052602060002090601f016020900481019282601f1061604b57805160ff19168380011785616044615e59565b505061608a565b8280016001018561605a615e59565b5050821561608a579182015b8281111561608a57825182616079615e59565b505091602001919060010190616066565b5061609692915061623a565b5090565b6385979f76598160e01b8152836004820152846024820152606060448201528760648201526084810160005b898110156160de5780890151828201526020016160c6565b506060828a60a40184336000905af158600e01573d6000803e3d6000fd5b3d6001141558600a015760016000f35b815160408301513d6000853e8c8c82606087013350600060045af15059845b8181101561613f576000815260200161612b565b50919c505050505050565b60405160e0810160405280600081526020016000815260200160008152602001600081526020016000815260200160008152602001600081525090565b635a98c361598160e01b8152602081600483336000905af158600e01573d6000803e3d6000fd5b3d6001141558600a015760016000f35b80516000825293506020615e42565b60405161010081016040528060008152602001600081526020016000815260200160008152602001600081526020016000815260200160008152602001600081525090565b6040516080810160405280600081526020016000815260200160008152602001600081525090565b6112ff91905b808211156160965760008082616254615e59565b50505060010161624056fe6f6e6c792061646d696e206d617920696e697469616c697a6520746865206d61726b65746d61726b6574206d6179206f6e6c7920626520696e697469616c697a6564206f6e636545b96fe442630264581b197e84bbada861235052c5a1aadfff9ea4e40a969aa0696e697469616c2065786368616e67652072617465206d7573742062652067726561746572207468616e207a65726f2e73657474696e6720696e7465726573742072617465206d6f64656c206661696c65644d494e545f4e45575f4143434f554e545f42414c414e43455f43414c43554c4154494f4e5f4641494c4544626f72726f7742616c616e636553746f7265643a20626f72726f7742616c616e636553746f726564496e7465726e616c206661696c6564ca4f2f25d0898edd99413412fb94012f9e54ec8142f9b093e7720646a95b16a952455041595f424f52524f575f4e45575f4143434f554e545f424f52524f575f42414c414e43455f43414c43554c4154494f4e5f4641494c4544ddf252ad1be2c89b69c2b068fc378daa952ba7f163c4a11628f55a4df523b3ef52455041595f424f52524f575f4e45575f544f54414c5f42414c414e43455f43414c43554c4154494f4e5f4641494c45444c49515549444154455f434f4d5054524f4c4c45525f43414c43554c4154455f414d4f554e545f5345495a455f4641494c454465786368616e67655261746553746f7265643a2065786368616e67655261746553746f726564496e7465726e616c206661696c65644d494e545f4e45575f544f54414c5f535550504c595f43414c43554c4154494f4e5f4641494c45446f6e65206f662072656465656d546f6b656e73496e206f722072656465656d416d6f756e74496e206d757374206265207a65726f72656475636520726573657276657320756e657870656374656420756e646572666c6f776f6e6c792061646d696e206d617920696e697469616c697a6520746865206d61726b65746d61726b6574206d6179206f6e6c7920626520696e697469616c697a6564206f6e6365696e697469616c2065786368616e67652072617465206d7573742062652067726561746572207468616e207a65726f2e73657474696e6720696e7465726573742072617465206d6f64656c206661696c6564",
  "deployedBytecode": "0x6080604052600436106102025760003560e01c806306fdde031461023e578063095ea7b3146102d35780631249c58b14610332578063173b99041461033c57806317bfdfbc1461036c57806318160ddd146103b1578063182df0f5146103cf57806323b872dd146103ed5780632678224714610442578063313ce5671461047c5780633af9e669146104b05780633b1d21a2146104f55780634576b5db1461051357806347bd3718146105585780634e4d9fea146105765780635fe3b5671461057e578063601a0bf11461059c5780636c540baf146105d857806370a08231146105f657806373acee981461063b578063852a12e3146106595780638f840ddd1461069557806395d89b41146106b357806395dd9193146106d157806399d8c1b414610716578063a6afed95146108b7578063a9059cbb146108d5578063aa5af0fd14610920578063aae40a2a1461093e578063ae9d70b014610975578063b2a02ff114610993578063b71d1a0c146109e8578063bd6d894d14610a2d578063c37f68e214610a4b578063c5ebeaec14610abb578063db006a7514610af7578063dd62ed3e14610b33578063e597461914610b80578063e9c714f214610baf578063f2b3abbd14610bcd578063f3fdb15a14610c12578063f851a44014610c30578063f8f9da2814610c4e578063fca7820b14610c6c578063fe9c44ae14610ca8575b600061020d34610cc6565b50905061023b8160405160408082019052600b81526a1b5a5b9d0819985a5b195960aa1b6020820152610dc1565b50005b34801561025357600080610250615d93565b50505b5061025c610fcb565b60405160208082528190810183818151815260200191508051906020019080838360005b83811015610298578082015183820152602001610280565b50505050905090810190601f1680156102c55780820380516001836020036101000a031916815260200191505b509250505060405180910390f35b3480156102e8576000806102e5615d93565b50505b5061031e6004803603604081101561030857600080610305615d93565b50505b506001600160a01b038135169060200135611084565b604051901515815260200160405180910390f35b61033a611126565b005b3480156103515760008061034e615d93565b50505b5061035a611162565b60405190815260200160405180910390f35b3480156103815760008061037e615d93565b50505b5061035a600480360360208110156103a15760008061039e615d93565b50505b50356001600160a01b031661116f565b3480156103c6576000806103c3615d93565b50505b5061035a61128c565b3480156103e4576000806103e1615d93565b50505b5061035a611296565b348015610402576000806103ff615d93565b50505b5061031e600480360360608110156104225760008061041f615d93565b50505b506001600160a01b03813581169160208101359091169060400135611302565b34801561045757600080610454615d93565b50505b506104606113d1565b6040516001600160a01b03909116815260200160405180910390f35b3480156104915760008061048e615d93565b50505b5061049a6113f0565b60405160ff909116815260200160405180910390f35b3480156104c5576000806104c2615d93565b50505b5061035a600480360360208110156104e5576000806104e2615d93565b50505b50356001600160a01b0316611409565b34801561050a57600080610507615d93565b50505b5061035a6114cc565b34801561052857600080610525615d93565b50505b5061035a6004803603602081101561054857600080610545615d93565b50505b50356001600160a01b03166114db565b34801561056d5760008061056a615d93565b50505b5061035a6116c1565b61033a6116cb565b34801561059357600080610590615d93565b50505b5061046061170b565b3480156105b1576000806105ae615d93565b50505b5061035a600480360360208110156105d1576000806105ce615d93565b50505b5035611717565b3480156105ed576000806105ea615d93565b50505b5061035a6117e3565b34801561060b57600080610608615d93565b50505b5061035a6004803603602081101561062b57600080610628615d93565b50505b50356001600160a01b03166117ed565b3480156106505760008061064d615d93565b50505b5061035a61180d565b34801561066e5760008061066b615d93565b50505b5061035a6004803603602081101561068e5760008061068b615d93565b50505b5035611928565b3480156106aa576000806106a7615d93565b50505b5061035a611933565b3480156106c8576000806106c5615d93565b50505b5061025c61193d565b3480156106e6576000806106e3615d93565b50505b5061035a6004803603602081101561070657600080610703615d93565b50505b50356001600160a01b03166119df565b34801561072b57600080610728615d93565b50505b5061033a600480360360c081101561074b57600080610748615d93565b50505b6001600160a01b03823581169260208101359091169160408201359190810190608081016060820135600160201b81111561078e5760008061078b615d93565b50505b8201836020820111156107a9576000806107a6615d93565b50505b803590602001918460018302840111600160201b831117156107d3576000806107d0615d93565b50505b91908080601f01602080910402602001604051908101604052818152929190602084018383808284376000920191909152509295949360208101935035915050600160201b81111561082d5760008061082a615d93565b50505b82018360208201111561084857600080610845615d93565b50505b803590602001918460018302840111600160201b831117156108725760008061086f615d93565b50505b91908080601f01602080910402602001604051908101604052818152929190602084018383808284376000920191909152509295505050903560ff169150611a4b9050565b3480156108cc576000806108c9615d93565b50505b5061035a611cef565b3480156108ea576000806108e7615d93565b50505b5061031e6004803603604081101561090a57600080610907615d93565b50505b506001600160a01b0381351690602001356120fd565b34801561093557600080610932615d93565b50505b5061035a6121d3565b61033a6004803603604081101561095d5760008061095a615d93565b50505b506001600160a01b03813581169160200135166121dd565b34801561098a57600080610987615d93565b50505b5061035a612228565b3480156109a8576000806109a5615d93565b50505b5061035a600480360360608110156109c8576000806109c5615d93565b50505b506001600160a01b03813581169160208101359091169060400135612328565b3480156109fd576000806109fa615d93565b50505b5061035a60048036036020811015610a1d57600080610a1a615d93565b50505b50356001600160a01b03166123ce565b348015610a4257600080610a3f615d93565b50505b5061035a6124a9565b348015610a6057600080610a5d615d93565b50505b50610a9060048036036020811015610a8057600080610a7d615d93565b50505b50356001600160a01b0316612597565b6040518085815260200184815260200183815260200182815260200194505050505060405180910390f35b348015610ad057600080610acd615d93565b50505b5061035a60048036036020811015610af057600080610aed615d93565b50505b5035612635565b348015610b0c57600080610b09615d93565b50505b5061035a60048036036020811015610b2c57600080610b29615d93565b50505b5035612640565b348015610b4857600080610b45615d93565b50505b5061035a60048036036040811015610b6857600080610b65615d93565b50505b506001600160a01b038135811691602001351661264b565b61033a60048036036020811015610b9f57600080610b9c615d93565b50505b50356001600160a01b0316612684565b348015610bc457600080610bc1615d93565b50505b5061035a6126cb565b348015610be257600080610bdf615d93565b50505b5061035a60048036036020811015610c0257600080610bff615d93565b50505b50356001600160a01b03166128bf565b348015610c2757600080610c24615d93565b50505b506104606128f9565b348015610c4557600080610c42615d93565b50505b50610460612905565b348015610c6357600080610c60615d93565b50505b5061035a612911565b348015610c8157600080610c7e615d93565b50505b5061035a60048036036020811015610ca157600080610c9e615d93565b50505b5035612997565b348015610cbd57600080610cba615d93565b50505b5061031e612a4a565b6000808080610cd3615dfe565b906101000a900460ff16610d235760405162461bcd60e51b815260206004820152600a6024820152691c994b595b9d195c995960b21b604482015260640160405180910390610d20615d93565b50505b600080600181610d31615dfe565b8160ff02191690831515021790610d46615e59565b5050506000610d53611cef565b90508015610d7e57610d71816010811115610d6a57fe5b601e612a4f565b925060009150610d969050565b610d905a610d8a615ea7565b85612aa9565b92509250505b600160008181610da4615dfe565b8160ff02191690831515021790610db9615e59565b505050915091565b81610dcb57610fc7565b60608151600501604051818152601f19601f8301168101602001604052908015610dfc576020820181803883390190505b50905060005b8251811015610e5157828181518110610e1757fe5b60200101516001600160f81b031916828281518110610e3257fe5b60200101906001600160f81b031916908160001a905350600101610e02565b600160fd1b828281518110610e6257fe5b60200101906001600160f81b031916908160001a905350600560fb1b826001830181518110610e8d57fe5b60200101906001600160f81b031916908160001a905350600a840460300160f81b828260020181518110610ebd57fe5b60200101906001600160f81b031916908160001a905350600a840660300160f81b828260030181518110610eed57fe5b60200101906001600160f81b031916908160001a905350602960f81b826004830181518110610f1857fe5b60200101906001600160f81b031916908160001a905350818415610fc35760405162461bcd60e51b81526004018080602001828103825283818151815260200191508051906020019080838360005b83811015610f7f578082015183820152602001610f67565b50505050905090810190601f168015610fac5780820380516001836020036101000a031916815260200191505b509250505060405180910390610fc0615d93565b50505b5050505b5050565b600180610fd6615dfe565b600181600116156101000203166002900480601f016020809104026020016040519081016040528181529190602083018280611010615dfe565b6001816001161561010002031660029004801561107c5780601f1061104a57610100808361103c615dfe565b04028352916020019161107c565b820191906000526020600020905b81611061615dfe565b8152906001019060200180831161105857829003601f168201915b505050505081565b6000805a611090615ea7565b6001600160a01b0381166000908152600f6020529091508390604090206001600160a01b03861660009081526020919091526040902081906110d0615e59565b505050836001600160a01b0316816001600160a01b03167f8c5be1e5ebec7d5bd14f71427d1e84f3dd0314c0f7b2291e5b200ac8c7c3b9258560405190815260200160405180910390a360019150505b92915050565b600061113134610cc6565b50905061115f8160405160408082019052600b81526a1b5a5b9d0819985a5b195960aa1b6020820152610dc1565b50565b600861116c615dfe565b81565b6000808061117b615dfe565b906101000a900460ff166111cb5760405162461bcd60e51b815260206004820152600a6024820152691c994b595b9d195c995960b21b6044820152606401604051809103906111c8615d93565b50505b6000806001816111d9615dfe565b8160ff021916908315150217906111ee615e59565b50600091506111fa9050565b611202611cef565b146112555760405162461bcd60e51b81526020600482015260166024820152751858d8dc9d59481a5b9d195c995cdd0819985a5b195960521b604482015260640160405180910390611252615d93565b50505b61125e826119df565b90505b60016000818161126f615dfe565b8160ff02191690831515021790611284615e59565b505050919050565b600d61116c615dfe565b60008060006112a3612fda565b909250905060008260038111156112b657fe5b146112fb5760405162461bcd60e51b815260040180806020018281038252603581526020018061645960359139604001915050604051809103906112f8615d93565b50505b9150505b90565b6000808061130e615dfe565b906101000a900460ff1661135e5760405162461bcd60e51b815260206004820152600a6024820152691c994b595b9d195c995960b21b60448201526064016040518091039061135b615d93565b50505b60008060018161136c615dfe565b8160ff02191690831515021790611381615e59565b506000915061138d9050565b6113a15a611399615ea7565b8686866130a5565b1490506001600081816113b2615dfe565b8160ff021916908315150217906113c7615e59565b5050509392505050565b600060046113dd615dfe565b906101000a90046001600160a01b031681565b600060036113fc615dfe565b906101000a900460ff1681565b6000611413615eed565b60405180602001604052806114266124a9565b90526001600160a01b0384166000908152600e602052909150806114558360408320611450615dfe565b613444565b9092509050600082600381111561146857fe5b146114c25760405162461bcd60e51b815260206004820152601f60248201527f62616c616e636520636f756c64206e6f742062652063616c63756c61746564006044820152606401604051809103906114bf615d93565b50505b925050505b919050565b60006114d6613497565b905090565b6000600160036114e9615dfe565b906101000a90046001600160a01b03166001600160a01b03165a61150b615ea7565b6001600160a01b03161461152c576115256001603f612a4f565b90506114c7565b6000806005611539615dfe565b906101000a90046001600160a01b03169050826001600160a01b0316627e3dd26040518163ffffffff1660e01b8152600401602060405180830381868061157e615efe565b15801561159357600080611590615d93565b50505b505a61159d615f4a565b50505050501580156115bc573d6000803e3d60006115b9615d93565b50505b505050506040513d60208110156115db576000806115d8615d93565b50505b810190808051925061163e9150505760405162461bcd60e51b815260206004820152601c60248201527b6d61726b6572206d6574686f642072657475726e65642066616c736560201b60448201526064016040518091039061163b615d93565b50505b82600560018161164c615dfe565b816001600160a01b0302191690836001600160a01b031602179061166e615e59565b5050507f7ac369dbd14fa5ea3f473ed67cc9d598964a77501540ba6751eb0b3decf5870d81846040516001600160a01b039283168152911660208201526040908101905180910390a160005b9392505050565b600b61116c615dfe565b60006116d63461349c565b50905061115f816040516040808201905260128152711c995c185e509bdc9c9bddc819985a5b195960721b6020820152610dc1565b600060056113dd615dfe565b60008080611723615dfe565b906101000a900460ff166117735760405162461bcd60e51b815260206004820152600a6024820152691c994b595b9d195c995960b21b604482015260640160405180910390611770615d93565b50505b600080600181611781615dfe565b8160ff02191690831515021790611796615e59565b50505060006117a3611cef565b905080156117c9576117c18160108111156117ba57fe5b6030612a4f565b915050611261565b6117d283613562565b91505060016000818161126f615dfe565b600961116c615dfe565b6001600160a01b0381166000908152600e60205260408120611120615dfe565b60008080611819615dfe565b906101000a900460ff166118695760405162461bcd60e51b815260206004820152600a6024820152691c994b595b9d195c995960b21b604482015260640160405180910390611866615d93565b50505b600080600181611877615dfe565b8160ff0219169083151502179061188c615e59565b50600091506118989050565b6118a0611cef565b146118f35760405162461bcd60e51b81526020600482015260166024820152751858d8dc9d59481a5b9d195c995cdd0819985a5b195960521b6044820152606401604051809103906118f0615d93565b50505b600b6118fd615dfe565b905060016000818161190d615dfe565b8160ff02191690831515021790611922615e59565b50505090565b600061112082613717565b600c61116c615dfe565b600280611948615dfe565b600181600116156101000203166002900480601f016020809104026020016040519081016040528181529190602083018280611982615dfe565b6001816001161561010002031660029004801561107c5780601f106119ae57610100808361103c615dfe565b820191906000526020600020905b816119c5615dfe565b815290600101906020018083116119bc5750859350505050565b60008060006119ed846137d5565b90925090506000826003811115611a0057fe5b146116ba5760405162461bcd60e51b81526004018080602001828103825260378152602001806163446037913960400191505060405180910390611a42615d93565b50509392505050565b60016003611a57615dfe565b906101000a90046001600160a01b03166001600160a01b03165a611a79615ea7565b6001600160a01b031614611ac75760405162461bcd60e51b81526004018080602001828103825260248152602001806162606024913960400191505060405180910390611ac4615d93565b50505b6009611ad1615dfe565b158015611ae55750600a611ae3615dfe565b155b611b295760405162461bcd60e51b81526004018080602001828103825260238152602001806162846023913960400191505060405180910390611b26615d93565b50505b83806007611b35615e59565b50505060006007611b44615dfe565b11611b895760405162461bcd60e51b81526004018080602001828103825260308152602001806162c76030913960400191505060405180910390611b86615d93565b50505b6000611b94876114db565b90508015611bee5760405162461bcd60e51b815260206004820152601a6024820152791cd95d1d1a5b99c818dbdb5c1d1c9bdb1b195c8819985a5b195960321b604482015260640160405180910390611beb615d93565b50505b611bf66138a1565b806009611c01615e59565b505050670de0b6b3a7640000600a8190611c19615e59565b505050611c25866138ac565b90508015611c6d5760405162461bcd60e51b81526004018080602001828103825260228152602001806162f76022913960400191505060405180910390611c6a615d93565b50505b6001848051611c80929160200190615ffa565b506002838051611c94929160200190615ffa565b50816003600181611ca3615dfe565b8160ff021916908360ff16021790611cb9615e59565b50505060016000806101000a81611cce615dfe565b8160ff02191690831515021790611ce3615e59565b50505050505050505050565b600080611cfa6138a1565b905060006009611d08615dfe565b905081811415611d1d576000925050506112ff565b6000611d27613497565b90506000600b611d35615dfe565b90506000600c611d43615dfe565b90506000600a611d51615dfe565b90506000806006611d60615dfe565b906101000a90046001600160a01b03166001600160a01b03166315f240538686866040516001600160e01b031960e086901b1681526004810193909352602483019190915260448201526064016020604051808303818680611dc0615efe565b158015611dd557600080611dd2615d93565b50505b505a611ddf615f4a565b5050505050158015611dfe573d6000803e3d6000611dfb615d93565b50505b505050506040513d6020811015611e1d57600080611e1a615d93565b50505b8101908080519350505065048c273950008211159050611e8b5760405162461bcd60e51b815260206004820152601c60248201527b0c4dee4e4deee40e4c2e8ca40d2e640c2c4e6eae4c8d8f240d0d2ced60231b604482015260640160405180910390611e88615d93565b50505b600080611e988989613aac565b90925090506000826003811115611eab57fe5b14611f055760405162461bcd60e51b815260206004820152601f60248201527f636f756c64206e6f742063616c63756c61746520626c6f636b2064656c746100604482015260640160405180910390611f02615d93565b50505b611f0d615eed565b600080600080611f296040516020810160405289815287613acf565b90975094506000876003811115611f3c57fe5b14611f6e57611f5960096006896003811115611f5457fe5b613b35565b9e5050505050505050505050505050506112ff565b611f78858c613444565b90975093506000876003811115611f8b57fe5b14611fa357611f5960096001896003811115611f5457fe5b611fad848c613b8e565b90975092506000876003811115611fc057fe5b14611fd857611f5960096004896003811115611f5457fe5b611ff960405180602001604052806008611ff0615dfe565b9052858c613bb4565b9097509150600087600381111561200c57fe5b1461202457611f5960096005896003811115611f5457fe5b61202f858a8b613bb4565b9097509050600087600381111561204257fe5b1461205a57611f5960096003896003811115611f5457fe5b8d806009612066615e59565b50505080600a8190612076615e59565b50505082600b8190612086615e59565b50505081600c8190612096615e59565b5050507f4dec04e750ca11537cabcd8a9eab06494de08da3735bc8871cd41250e190bc048c8583866040518085815260200184815260200183815260200182815260200194505050505060405180910390a160009e50505050505050505050505050505090565b60008080612109615dfe565b906101000a900460ff166121595760405162461bcd60e51b815260206004820152600a6024820152691c994b595b9d195c995960b21b604482015260640160405180910390612156615d93565b50505b600080600181612167615dfe565b8160ff0219169083151502179061217c615e59565b50600091506121889050565b6121a45a612194615ea7565b5a61219d615ea7565b86866130a5565b1490506001600081816121b5615dfe565b8160ff021916908315150217906121ca615e59565b50505092915050565b600a61116c615dfe565b60006121ea833484613c10565b509050612223816040516040808201905260168152751b1a5c5d5a59185d19509bdc9c9bddc819985a5b195960521b6020820152610dc1565b505050565b6000806006612235615dfe565b906101000a90046001600160a01b03166001600160a01b031663b816881661225b613497565b600b612265615dfe565b600c61226f615dfe565b6008612279615dfe565b6040516001600160e01b031960e087901b168152600481019490945260248401929092526044830152606482015260840160206040518083038186806122bd615efe565b1580156122d2576000806122cf615d93565b50505b505a6122dc615f4a565b50505050501580156122fb573d6000803e3d60006122f8615d93565b50505b505050506040513d602081101561231a57600080612317615d93565b50505b810190808051935050505090565b60008080612334615dfe565b906101000a900460ff166123845760405162461bcd60e51b815260206004820152600a6024820152691c994b595b9d195c995960b21b604482015260640160405180910390612381615d93565b50505b600080600181612392615dfe565b8160ff021916908315150217906123a7615e59565b5050506123be5a6123b6615ea7565b858585613dd4565b90506001600081816113b2615dfe565b6000600160036123dc615dfe565b906101000a90046001600160a01b03166001600160a01b03165a6123fe615ea7565b6001600160a01b0316146124185761152560016045612a4f565b6000806004612425615dfe565b906101000a90046001600160a01b0316905082600460006101000a81612449615dfe565b816001600160a01b0302191690836001600160a01b031602179061246b615e59565b50505060008051602061637b83398151915281846040516001600160a01b039283168152911660208201526040908101905180910390a160006116ba565b600080806124b5615dfe565b906101000a900460ff166125055760405162461bcd60e51b815260206004820152600a6024820152691c994b595b9d195c995960b21b604482015260640160405180910390612502615d93565b50505b600080600181612513615dfe565b8160ff02191690831515021790612528615e59565b50600091506125349050565b61253c611cef565b1461258f5760405162461bcd60e51b81526020600482015260166024820152751858d8dc9d59481a5b9d195c995cdd0819985a5b195960521b60448201526064016040518091039061258c615d93565b50505b6118fd611296565b6001600160a01b0381166000908152600e60205280808080604081206125bb615dfe565b905060008060006125cb896137d5565b9350905060008160038111156125dd57fe5b146125fb5760095b97506000965086955085945061262e9350505050565b612603612fda565b92509050600081600381111561261557fe5b146126215760096125e5565b5060009650919450925090505b9193509193565b6000611120826140a5565b600061112082614161565b6001600160a01b0382166000908152600f602052604081206001600160a01b0383166000908152602091909152604090206116ba615dfe565b60006126908234614218565b509050610fc7816040516040808201905260188152771c995c185e509bdc9c9bddd0995a185b198819985a5b195960421b6020820152610dc1565b60008060046126d8615dfe565b906101000a90046001600160a01b03166001600160a01b03165a6126fa615ea7565b6001600160a01b0316141580612721575060005a612716615ea7565b6001600160a01b0316145b156127395761273260016000612a4f565b90506112ff565b600060016003612747615dfe565b906101000a90046001600160a01b0316905060006004600090612768615dfe565b906101000a90046001600160a01b031690506004600090612787615dfe565b906101000a90046001600160a01b0316600360016101000a816127a8615dfe565b816001600160a01b0302191690836001600160a01b03160217906127ca615e59565b5050506000600460006101000a816127e0615dfe565b816001600160a01b0302191690836001600160a01b0316021790612802615e59565b5050507ff9ffabca9c8276e99321725bcb43fb076a6c66a54b7f21c4e8146d8519b417dc826003600190612834615dfe565b906101000a90046001600160a01b03166040516001600160a01b039283168152911660208201526040908101905180910390a160008051602061637b8339815191528160006004612883615dfe565b906101000a90046001600160a01b03166040516001600160a01b039283168152911660208201526040908101905180910390a160009250505090565b6000806128ca611cef565b905080156128f0576128e88160108111156128e157fe5b6040612a4f565b9150506114c7565b6116ba836138ac565b600060066113dd615dfe565b600160036113dd615dfe565b600080600661291e615dfe565b906101000a90046001600160a01b03166001600160a01b03166315f24053612944613497565b600b61294e615dfe565b600c612958615dfe565b6040516001600160e01b031960e086901b16815260048101939093526024830191909152604482015260640160206040518083038186806122bd615efe565b600080806129a3615dfe565b906101000a900460ff166129f35760405162461bcd60e51b815260206004820152600a6024820152691c994b595b9d195c995960b21b6044820152606401604051809103906129f0615d93565b50505b600080600181612a01615dfe565b8160ff02191690831515021790612a16615e59565b5050506000612a23611cef565b90508015612a41576117c1816010811115612a3a57fe5b6046612a4f565b6117d283614316565b600181565b60006000805160206162a7833981519152836010811115612a6c57fe5b836050811115612a7857fe5b600060405180848152602001838152602001828152602001935050505060405180910390a18260108111156116ba57fe5b60008080806005612ab8615dfe565b906101000a90046001600160a01b03166001600160a01b0316634ef4c3e15a63996d79a5598160e01b8152602081600483336000905af158601d01573d60011458600c01573d6000803e3d621234565260ea61109c528051925060005b6040811015612b2c57600082820152602001612b15565b50505087876040516001600160e01b031960e086901b1681526001600160a01b039384166004820152919092166024820152604481019190915260640160206040518083038160008780612b7e615efe565b158015612b9357600080612b90615d93565b50505b505a612b9d61609a565b505050505050158015612bbd573d6000803e3d6000612bba615d93565b50505b505050506040513d6020811015612bdc57600080612bd9615d93565b50505b81019080805193505082159150612c09905057612bfc6003601f83613b35565b925060009150612fd39050565b612c116138a1565b6009612c1b615dfe565b14612c2c57612bfc600a6022612a4f565b612c3461614a565b612c3c612fda565b6040830181905260208301826003811115612c5357fe5b6003811115612c5e57fe5b9052506000905081602001516003811115612c7557fe5b14612c9f57612c916009602183602001516003811115611f5457fe5b935060009250612fd3915050565b612ca986866143fd565b60c08201908152612ccc90516040518060200160405280846040015190526144b7565b6060830181905260208301826003811115612ce357fe5b6003811115612cee57fe5b9052506000905081602001516003811115612d0557fe5b14612d5f5760405162461bcd60e51b815260206004820181905260248201527f4d494e545f45584348414e47455f43414c43554c4154494f4e5f4641494c4544604482015260640160405180910390612d5c615d93565b50505b612d76600d612d6c615dfe565b8260600151613b8e565b6080830181905260208301826003811115612d8d57fe5b6003811115612d9857fe5b9052506000905081602001516003811115612daf57fe5b14612df45760405162461bcd60e51b815260040180806020018281038252602881526020018061648e6028913960400191505060405180910390612df1615d93565b50505b6001600160a01b0386166000908152600e602052612e189060409020612d6c615dfe565b60a0830181905260208301826003811115612e2f57fe5b6003811115612e3a57fe5b9052506000905081602001516003811115612e5157fe5b14612e965760405162461bcd60e51b815260040180806020018281038252602b815260200180616319602b913960400191505060405180910390612e93615d93565b50505b806080015180600d612ea6615e59565b5050508060a001516001600160a01b0387166000908152600e602052604090208190612ed0615e59565b5050507f4c209b5fc8ad50758f13e2e1088ba56a560dff690a1c6fef26394f4c03821c4f868260c00151836060015160405180846001600160a01b03166001600160a01b03168152602001838152602001828152602001935050505060405180910390a1856001600160a01b03165a63996d79a5598160e01b8152602081600483336000905af158601d01573d60011458600c01573d6000803e3d621234565260ea61109c528051925060005b6040811015612f9457600082820152602001612f7d565b5050506001600160a01b03166000805160206163d5833981519152836060015160405190815260200160405180910390a360008160c001519350935050505b9250929050565b6000806000600d612fe9615dfe565b9050806130065760006007612ffc615dfe565b92509250506130a1565b6000613010613497565b9050600061301c615eed565b600061303b84600b61302c615dfe565b600c613036615dfe565b6144ce565b93509050600081600381111561304d57fe5b14613062579550600094506130a19350505050565b61306c838661450c565b92509050600081600381111561307e57fe5b14613093579550600094506130a19350505050565b600082519650965050505050505b9091565b6000808060056130b3615dfe565b906101000a90046001600160a01b03166001600160a01b031663bdcdc2585a63996d79a5598160e01b8152602081600483336000905af158601d01573d60011458600c01573d6000803e3d621234565260ea61109c528051925060005b604081101561312757600082820152602001613110565b5050508787876040516001600160e01b031960e087901b1681526001600160a01b039485166004820152928416602484015292166044820152606481019190915260840160206040518083038160008780613180615efe565b15801561319557600080613192615d93565b50505b505a61319f61609a565b5050505050501580156131bf573d6000803e3d60006131bc615d93565b50505b505050506040513d60208110156131de576000806131db615d93565b50505b810190808051935050821591506132069050576131fe6003604a83613b35565b91505061343c565b836001600160a01b0316856001600160a01b0316141561322c576131fe6002604b612a4f565b60006001600160a01b03878116908716141561324b5750600019613287565b6001600160a01b0386166000908152600f602052604090206001600160a01b038816600090815260209190915260409020613284615dfe565b90505b6000806000806132978589613aac565b909450925060008460038111156132aa57fe5b146132c8576132bb6009604b612a4f565b965050505050505061343c565b6001600160a01b038a166000908152600e6020526132f290604090206132ec615dfe565b89613aac565b9094509150600084600381111561330557fe5b14613316576132bb6009604c612a4f565b6001600160a01b0389166000908152600e602052613340906040902061333a615dfe565b89613b8e565b9094509050600084600381111561335357fe5b14613364576132bb6009604d612a4f565b6001600160a01b038a166000908152600e6020528290604090208190613388615e59565b5050506001600160a01b0389166000908152600e60205281906040902081906133af615e59565b50505060001985146133fc576001600160a01b038a166000908152600f6020528390604090206001600160a01b038d1660009081526020919091526040902081906133f8615e59565b5050505b886001600160a01b03168a6001600160a01b03166000805160206163d58339815191528a60405190815260200160405180910390a3600096505050505050505b949350505050565b6000806000613451615eed565b61345b8686613acf565b9092509050600082600381111561346e57fe5b1461347f5750915060009050612fd3565b600061348a826145be565b9350935050509250929050565b600090565b60008080806134a9615dfe565b906101000a900460ff166134f95760405162461bcd60e51b815260206004820152600a6024820152691c994b595b9d195c995960b21b6044820152606401604051809103906134f6615d93565b50505b600080600181613507615dfe565b8160ff0219169083151502179061351c615e59565b5050506000613529611cef565b9050801561354757610d7181601081111561354057fe5b6036612a4f565b610d905a613553615ea7565b5a61355c615ea7565b866145d9565b60008060016003613571615dfe565b906101000a90046001600160a01b03166001600160a01b03165a613593615ea7565b6001600160a01b0316146135ad576128e860016031612a4f565b6135b56138a1565b60096135bf615dfe565b146135d0576128e8600a6033612a4f565b826135d9613497565b10156135eb576128e8600e6032612a4f565b600c6135f5615dfe565b831115613608576128e860026034612a4f565b82600c613613615dfe565b039050600c613620615dfe565b8111156136675760405162461bcd60e51b81526004018080602001828103825260248152602001806164ea6024913960400191505060405180910390613664615d93565b50505b8080600c613673615e59565b50505061369c6003600190613686615dfe565b906101000a90046001600160a01b031684614a47565b7f3bad0c59cf2f06e7314077049f48a93578cd16f5ef92329f1dab1420a99c177e600160036136c9615dfe565b906101000a90046001600160a01b0316848360405180846001600160a01b03166001600160a01b03168152602001838152602001828152602001935050505060405180910390a160006116ba565b60008080613723615dfe565b906101000a900460ff166137735760405162461bcd60e51b815260206004820152600a6024820152691c994b595b9d195c995960b21b604482015260640160405180910390613770615d93565b50505b600080600181613781615dfe565b8160ff02191690831515021790613796615e59565b50505060006137a3611cef565b905080156137c1576117c18160108111156137ba57fe5b6027612a4f565b6117d25a6137cd615ea7565b600085614a91565b6001600160a01b038116600090815260106020528080808080604081209050806137fd615dfe565b61381257506000945084935061389c92505050565b61382d8161381e615dfe565b600a613828615dfe565b615141565b9094509250600084600381111561384057fe5b1461385557509193506000925061389c915050565b61386a8382600101613865615dfe565b615180565b9094509150600084600381111561387d57fe5b1461389257509193506000925061389c915050565b5060009450925050505b915091565b60005a6114d6616187565b600080600160036138bb615dfe565b906101000a90046001600160a01b03166001600160a01b03165a6138dd615ea7565b6001600160a01b0316146138f7576128e860016042612a4f565b6138ff6138a1565b6009613909615dfe565b1461391a576128e8600a6041612a4f565b60006006613926615dfe565b906101000a90046001600160a01b03169050826001600160a01b0316632191f92a6040518163ffffffff1660e01b8152600401602060405180830381868061396c615efe565b1580156139815760008061397e615d93565b50505b505a61398b615f4a565b50505050501580156139aa573d6000803e3d60006139a7615d93565b50505b505050506040513d60208110156139c9576000806139c6615d93565b50505b8101908080519250613a2c9150505760405162461bcd60e51b815260206004820152601c60248201527b6d61726b6572206d6574686f642072657475726e65642066616c736560201b604482015260640160405180910390613a29615d93565b50505b826006600181613a3a615dfe565b816001600160a01b0302191690836001600160a01b0316021790613a5c615e59565b5050507fedffc32e068c7c95dfd4bdfd5c4d939a084d6b11c4199eac8436ed234d72f92681846040516001600160a01b039283168152911660208201526040908101905180910390a160006116ba565b600080838311613ac3575060009050818303612fd3565b50600390506000612fd3565b6000613ad9615eed565b600080613ae7865186615141565b90925090506000826003811115613afa57fe5b14613b1b578160405160208101604052600081529094509250612fd3915050565b600060405160208101604052918252969095509350505050565b60006000805160206162a7833981519152846010811115613b5257fe5b846050811115613b5e57fe5b8460405180848152602001838152602001828152602001935050505060405180910390a183601081111561343c57fe5b600080838301848110613ba657600092509050612fd3565b506002915060009050612fd3565b6000806000613bc1615eed565b613bcb8787613acf565b90925090506000826003811115613bde57fe5b14613bef5750915060009050613c08565b613c01613bfb826145be565b86613b8e565b9350935050505b935093915050565b6000808080613c1d615dfe565b906101000a900460ff16613c6d5760405162461bcd60e51b815260206004820152600a6024820152691c994b595b9d195c995960b21b604482015260640160405180910390613c6a615d93565b50505b600080600181613c7b615dfe565b8160ff02191690831515021790613c90615e59565b5050506000613c9d611cef565b90508015613cc857613cbb816010811115613cb457fe5b600f612a4f565b925060009150613da69050565b836001600160a01b031663a6afed956040518163ffffffff1660e01b815260040160206040518083038160008780613cfe615efe565b158015613d1357600080613d10615d93565b50505b505a613d1d61609a565b505050505050158015613d3d573d6000803e3d6000613d3a615d93565b50505b505050506040513d6020811015613d5c57600080613d59615d93565b50505b810190808051935060009250613d70915050565b8114613d8c57613cbb816010811115613d8557fe5b6010612a4f565b613da05a613d98615ea7565b8787876151ab565b92509250505b600160008181613db4615dfe565b8160ff02191690831515021790613dc9615e59565b505050935093915050565b600080806005613de2615dfe565b906101000a90046001600160a01b03166001600160a01b031663d02f73515a63996d79a5598160e01b8152602081600483336000905af158601d01573d60011458600c01573d6000803e3d621234565260ea61109c528051925060005b6040811015613e5657600082820152602001613e3f565b505050888888886040516001600160e01b031960e088901b1681526001600160a01b039586166004820152938516602485015291841660448401529092166064820152608481019190915260a40160206040518083038160008780613eb9615efe565b158015613ece57600080613ecb615d93565b50505b505a613ed861609a565b505050505050158015613ef8573d6000803e3d6000613ef5615d93565b50505b505050506040513d6020811015613f1757600080613f14615d93565b50505b81019080805193505082159150613f379050576131fe6003601b83613b35565b846001600160a01b0316846001600160a01b03161415613f5d576131fe6006601c612a4f565b6001600160a01b0384166000908152600e6020528080613f8860408220613f82615dfe565b87613aac565b90935091506000836003811115613f9b57fe5b14613fbe57613fb36009601a856003811115611f5457fe5b94505050505061343c565b6001600160a01b0388166000908152600e602052613fe89060409020613fe2615dfe565b87613b8e565b90935090506000836003811115613ffb57fe5b1461401357613fb360096019856003811115611f5457fe5b6001600160a01b0387166000908152600e6020528290604090208190614037615e59565b5050506001600160a01b0388166000908152600e602052819060409020819061405e615e59565b505050876001600160a01b0316876001600160a01b03166000805160206163d58339815191528860405190815260200160405180910390a360009998505050505050505050565b600080806140b1615dfe565b906101000a900460ff166141015760405162461bcd60e51b815260206004820152600a6024820152691c994b595b9d195c995960b21b6044820152606401604051809103906140fe615d93565b50505b60008060018161410f615dfe565b8160ff02191690831515021790614124615e59565b5050506000614131611cef565b9050801561414f576117c181601081111561414857fe5b6008612a4f565b6117d25a61415b615ea7565b84615992565b6000808061416d615dfe565b906101000a900460ff166141bd5760405162461bcd60e51b815260206004820152600a6024820152691c994b595b9d195c995960b21b6044820152606401604051809103906141ba615d93565b50505b6000806001816141cb615dfe565b8160ff021916908315150217906141e0615e59565b50505060006141ed611cef565b90508015614204576117c18160108111156137ba57fe5b6117d25a614210615ea7565b846000614a91565b6000808080614225615dfe565b906101000a900460ff166142755760405162461bcd60e51b815260206004820152600a6024820152691c994b595b9d195c995960b21b604482015260640160405180910390614272615d93565b50505b600080600181614283615dfe565b8160ff02191690831515021790614298615e59565b50505060006142a5611cef565b905080156142d0576142c38160108111156142bc57fe5b6035612a4f565b9250600091506142e99050565b6142e35a6142dc615ea7565b86866145d9565b92509250505b6001600081816142f7615dfe565b8160ff0219169083151502179061430c615e59565b5050509250929050565b600060016003614324615dfe565b906101000a90046001600160a01b03166001600160a01b03165a614346615ea7565b6001600160a01b0316146143605761152560016047612a4f565b6143686138a1565b6009614372615dfe565b1461438357611525600a6048612a4f565b670de0b6b3a764000082111561439f5761152560026049612a4f565b600060086143ab615dfe565b9050828060086143b9615e59565b5050507faaa68312e2ea9d50e16af5068410ab56e1a1fd06037b1a35664812c30f821460818460405191825260208201526040908101905180910390a160006116ba565b6000826001600160a01b03165a614412615ea7565b6001600160a01b0316146144675760405162461bcd60e51b815260206004820152600f60248201526e0e6cadcc8cae440dad2e6dac2e8c6d608b1b604482015260640160405180910390614464615d93565b50505b8134146144b15760405162461bcd60e51b815260206004820152600e60248201526d0ecc2d8eaca40dad2e6dac2e8c6d60931b604482015260640160405180910390611284615d93565b50919050565b60008060006144c4615eed565b61345b8686615d35565b6000806000806144de8787613b8e565b909250905060008260038111156144f157fe5b146145025750915060009050613c08565b613c018186613aac565b6000614516615eed565b60008061452b86670de0b6b3a7640000615141565b9092509050600082600381111561453e57fe5b1461455f578160405160208101604052600081529094509250612fd3915050565b60008061456c8388615180565b9092509050600082600381111561457f57fe5b146145a2578160405160208101604052600081529096509450612fd39350505050565b6000604051602081016040529182529890975095505050505050565b6000670de0b6b3a76400008251816145d257fe5b0492915050565b600080808060056145e8615dfe565b906101000a90046001600160a01b03166001600160a01b03166324008a625a63996d79a5598160e01b8152602081600483336000905af158601d01573d60011458600c01573d6000803e3d621234565260ea61109c528051925060005b604081101561465c57600082820152602001614645565b5050508888886040516001600160e01b031960e087901b1681526001600160a01b0394851660048201529284166024840152921660448201526064810191909152608401602060405180830381600087806146b5615efe565b1580156146ca576000806146c7615d93565b50505b505a6146d461609a565b5050505050501580156146f4573d6000803e3d60006146f1615d93565b50505b505050506040513d602081101561471357600080614710615d93565b50505b810190808051935050821591506147409050576147336003603883613b35565b925060009150613c089050565b6147486138a1565b6009614752615dfe565b1461476357614733600a6039612a4f565b61476b6161cd565b6001600160a01b038616600090815260106020526040902060010161478e615dfe565b606082015261479c866137d5565b60808301819052602083018260038111156147b357fe5b60038111156147be57fe5b90525060009050816020015160038111156147d557fe5b146147ff576147f16009603783602001516003811115611f5457fe5b935060009250613c08915050565b6000198514156148185780608001516040820152614820565b604081018590525b61482e8782604001516143fd565b60e082015261484560808201518260e00151613aac565b60a083018190526020830182600381111561485c57fe5b600381111561486757fe5b905250600090508160200151600381111561487e57fe5b146148c35760405162461bcd60e51b815260040180806020018281038252603a81526020018061639b603a9139604001915050604051809103906148c0615d93565b50505b6148da600b6148d0615dfe565b8260e00151613aac565b60c08301819052602083018260038111156148f157fe5b60038111156148fc57fe5b905250600090508160200151600381111561491357fe5b146149585760405162461bcd60e51b81526004018080602001828103825260318152602001806163f56031913960400191505060405180910390614955615d93565b50505b8060a001516001600160a01b0387166000908152601060205260409020819061497f615e59565b505050600a61498c615dfe565b6001600160a01b038716600090815260106020526040902060010181906149b1615e59565b5050508060c0015180600b6149c4615e59565b5050507f1a2a22cb034d26d1854bdc6666a5b91fe25efbbb5dcad3b0355478d6f5c362a187878360e001518460a001518560c001516040516001600160a01b0395861681529390941660208401526040808401929092526060830152608082019290925260a001905180910390a160008160e00151935093505050935093915050565b6001600160a01b03821681156108fc0282604051600060405180830381858888614a6f61609a565b5050505050509350505050158015612223573d6000803e3d6000610fc3615d93565b6000821580614a9e575081155b614ae25760405162461bcd60e51b81526004018080602001828103825260348152602001806164b66034913960400191505060405180910390614adf615d93565b50505b614aea61614a565b614af2612fda565b6040830181905260208301826003811115614b0957fe5b6003811115614b1457fe5b9052506000905081602001516003811115614b2b57fe5b14614b4f57614b476009602b83602001516003811115611f5457fe5b9150506116ba565b8315614bd15760608101849052614b7760405180602001604052808360400151905285613444565b6080830181905260208301826003811115614b8e57fe5b6003811115614b9957fe5b9052506000905081602001516003811115614bb057fe5b14614bcc57614b476009602983602001516003811115611f5457fe5b614c49565b614bec836040518060200160405280846040015190526144b7565b6060830181905260208301826003811115614c0357fe5b6003811115614c0e57fe5b9052506000905081602001516003811115614c2557fe5b14614c4157614b476009602a83602001516003811115611f5457fe5b608081018390525b6000806005614c56615dfe565b906101000a90046001600160a01b03166001600160a01b031663eabe7d915a63996d79a5598160e01b8152602081600483336000905af158601d01573d60011458600c01573d6000803e3d621234565260ea61109c528051925060005b6040811015614cca57600082820152602001614cb3565b5050508885606001516040516001600160e01b031960e086901b1681526001600160a01b039384166004820152919092166024820152604481019190915260640160206040518083038160008780614d20615efe565b158015614d3557600080614d32615d93565b50505b505a614d3f61609a565b505050505050158015614d5f573d6000803e3d6000614d5c615d93565b50505b505050506040513d6020811015614d7e57600080614d7b615d93565b50505b81019080805193505082159150614da7905057614d9e6003602883613b35565b925050506116ba565b614daf6138a1565b6009614db9615dfe565b14614dca57614d9e600a602c612a4f565b614de1600d614dd7615dfe565b8360600151613aac565b60a0840181905260208401826003811115614df857fe5b6003811115614e0357fe5b9052506000905082602001516003811115614e1a57fe5b14614e3657614d9e6009602e84602001516003811115611f5457fe5b6001600160a01b0386166000908152600e602052614e5a9060409020614dd7615dfe565b60c0840181905260208401826003811115614e7157fe5b6003811115614e7c57fe5b9052506000905082602001516003811115614e9357fe5b14614eaf57614d9e6009602d84602001516003811115611f5457fe5b8160800151614ebc613497565b1015614ece57614d9e600e602f612a4f565b614edc868360800151614a47565b8160a0015180600d614eec615e59565b5050508160c001516001600160a01b0387166000908152600e602052604090208190614f16615e59565b5050505a63996d79a5598160e01b8152602081600483336000905af158601d01573d60011458600c01573d6000803e3d621234565260ea61109c528051925060005b6040811015614f6f57600082820152602001614f58565b5050506001600160a01b0316866001600160a01b03166000805160206163d5833981519152846060015160405190815260200160405180910390a37fe5b754fb1abb7f01b499791d0b820ae3b6af3424ac1c59768edb53f4ec31a929868360800151846060015160405180846001600160a01b03166001600160a01b03168152602001838152602001828152602001935050505060405180910390a160006005615017615dfe565b906101000a90046001600160a01b03166001600160a01b03166351dff9895a63996d79a5598160e01b8152602081600483336000905af158601d01573d60011458600c01573d6000803e3d621234565260ea61109c528051925060005b604081101561508b57600082820152602001615074565b50505088856080015186606001516040516001600160e01b031960e087901b1681526001600160a01b03948516600482015292909316602483015260448201526064810191909152608401600060405180830381600087806150eb615efe565b158015615100576000806150fd615d93565b50505b505a61510a61609a565b50505050505015801561512a573d6000803e3d6000615127615d93565b50505b5060009250615137915050565b9695505050505050565b6000808361515457506000905080612fd3565b8383028385828161516157fe5b041461517557506002915060009050612fd3565b600092509050612fd3565b600080826151945750600190506000612fd3565b600083858161519f57fe5b04915091509250929050565b600080808060056151ba615dfe565b906101000a90046001600160a01b03166001600160a01b0316635fc7e71e5a63996d79a5598160e01b8152602081600483336000905af158601d01573d60011458600c01573d6000803e3d621234565260ea61109c528051925060005b604081101561522e57600082820152602001615217565b505050868a8a8a6040516001600160e01b031960e088901b1681526001600160a01b039586166004820152938516602485015291841660448401529092166064820152608481019190915260a40160206040518083038160008780615291615efe565b1580156152a6576000806152a3615d93565b50505b505a6152b061609a565b5050505050501580156152d0573d6000803e3d60006152cd615d93565b50505b505050506040513d60208110156152ef576000806152ec615d93565b50505b8101908080519350508215915061531c90505761530f6003601283613b35565b9250600091506159899050565b6153246138a1565b600961532e615dfe565b1461533f5761530f600a6016612a4f565b6153476138a1565b846001600160a01b0316636c540baf6040518163ffffffff1660e01b8152600401602060405180830381868061537b615efe565b1580156153905760008061538d615d93565b50505b505a61539a615f4a565b50505050501580156153b9573d6000803e3d60006153b6615d93565b50505b505050506040513d60208110156153d8576000806153d5615d93565b50505b8101908080519390931492506153f79150505761530f600a6011612a4f565b866001600160a01b0316866001600160a01b0316141561541d5761530f60066017612a4f565b8461542e5761530f60076015612a4f565b6000198514156154445761530f60076014612a4f565b6000806154528989896145d9565b909250905081156154825761547382601081111561546c57fe5b6018612a4f565b94506000935061598992505050565b600080806005615490615dfe565b906101000a90046001600160a01b03166001600160a01b031663c488847b5a63996d79a5598160e01b8152602081600483336000905af158601d01573d60011458600c01573d6000803e3d621234565260ea61109c528051925060005b6040811015615504576000828201526020016154ed565b5050508a866040516001600160e01b031960e086901b1681526001600160a01b039384166004820152919092166024820152604481019190915260640160408051808303818680615553615efe565b15801561556857600080615565615d93565b50505b505a615572615f4a565b5050505050158015615591573d6000803e3d600061558e615d93565b50505b505050506040513d60408110156155b0576000806155ad615d93565b50505b8101908080519291906020018051939550929350600092506155d0915050565b82146156165760405162461bcd60e51b81526004018080602001828103825260338152602001806164266033913960400191505060405180910390615613615d93565b50505b80886001600160a01b03166370a082318c6040516001600160e01b031960e084901b1681526001600160a01b0390911660048201526024016020604051808303818680615661615efe565b15801561567657600080615673615d93565b50505b505a615680615f4a565b505050505015801561569f573d6000803e3d600061569c615d93565b50505b505050506040513d60208110156156be576000806156bb615d93565b50505b810190808051939093101592506157229150505760405162461bcd60e51b815260206004820152601860248201527709892a2aa928882a88abea68a92b48abea89e9ebe9aaa86960431b60448201526064016040518091039061571f615d93565b50505b60005a63996d79a5598160e01b8152602081600483336000905af158601d01573d60011458600c01573d6000803e3d621234565260ea61109c528051925060005b604081101561577a57600082820152602001615763565b5050506001600160a01b0316896001600160a01b03161415615801576157fa5a63996d79a5598160e01b8152602081600483336000905af158601d01573d60011458600c01573d6000803e3d621234565260ea61109c528051925060005b60408110156157ef576000828201526020016157d8565b5050508d8d85613dd4565b90506158ca565b886001600160a01b031663b2a02ff18d8d856040516001600160e01b031960e086901b1681526001600160a01b039384166004820152919092166024820152604481019190915260640160206040518083038160008780615860615efe565b15801561587557600080615872615d93565b50505b505a61587f61609a565b50505050505015801561589f573d6000803e3d600061589c615d93565b50505b505050506040513d60208110156158be576000806158bb615d93565b50505b81019080805193505050505b801561591c5760405162461bcd60e51b81526020600482015260146024820152731d1bdad95b881cd95a5e9d5c994819985a5b195960621b604482015260640160405180910390615919615d93565b50505b7f298637f684da70674f26509b10f07ec2fbc77a335ab1e7d6215a4b2484d8bb528c8c868c866040516001600160a01b039586168152938516602085015260408085019390935293166060830152608082019290925260a001905180910390a16000975092955050505050505b94509492505050565b6000808060056159a0615dfe565b906101000a90046001600160a01b03166001600160a01b031663da3d454c5a63996d79a5598160e01b8152602081600483336000905af158601d01573d60011458600c01573d6000803e3d621234565260ea61109c528051925060005b6040811015615a14576000828201526020016159fd565b50505086866040516001600160e01b031960e086901b1681526001600160a01b039384166004820152919092166024820152604481019190915260640160206040518083038160008780615a66615efe565b158015615a7b57600080615a78615d93565b50505b505a615a8561609a565b505050505050158015615aa5573d6000803e3d6000615aa2615d93565b50505b505050506040513d6020811015615ac457600080615ac1615d93565b50505b81019080805193505082159150615aec905057615ae46003600e83613b35565b915050611120565b615af46138a1565b6009615afe615dfe565b14615b0e57615ae4600a80612a4f565b82615b17613497565b1015615b2957615ae4600e6009612a4f565b615b31616212565b615b3a856137d5565b6020830181905282826003811115615b4e57fe5b6003811115615b5957fe5b9052506000905081516003811115615b6d57fe5b14615b8f57615b866009600783516003811115611f5457fe5b92505050611120565b615b9d816020015185613b8e565b6040830181905282826003811115615bb157fe5b6003811115615bbc57fe5b9052506000905081516003811115615bd057fe5b14615be957615b866009600c83516003811115611f5457fe5b615bfc600b615bf6615dfe565b85613b8e565b6060830181905282826003811115615c1057fe5b6003811115615c1b57fe5b9052506000905081516003811115615c2f57fe5b14615c4857615b866009600b83516003811115611f5457fe5b615c528585614a47565b80604001516001600160a01b03861660009081526010602052604090208190615c79615e59565b505050600a615c86615dfe565b6001600160a01b03861660009081526010602052604090206001018190615cab615e59565b505050806060015180600b615cbe615e59565b5050507f13ed6866d4e1ee6da46f845c46d7e54120883d75c5ea9a2dacc1c4ca8984ab8085858360400151846060015160405180856001600160a01b03166001600160a01b0316815260200184815260200183815260200182815260200194505050505060405180910390a1600095945050505050565b6000615d3f615eed565b600080615d54670de0b6b3a764000087615141565b90925090506000826003811115615d6757fe5b14615d88578160405160208101604052600081529094509250612fd3915050565b61348a81865161450c565b632a2a7adb598160e01b8152600481016020815285602082015260005b86811015615dcb578086015182820160400152602001615db0565b506020828760640184336000905af158601d01573d60011458600c01573d6000803e3d621234565260ea61109c52505050565b6303daa959598160e01b8152836004820152602081602483336000905af158601d01573d60011458600c01573d6000803e3d621234565260ea61109c528051935060005b604081101561222357600082820152602001615e42565b6322bd64c0598160e01b8152836004820152846024820152600081604483336000905af158601d01573d60011458600c01573d6000803e3d621234565260ea61109c52600081526020615e42565b6373509064598160e01b8152602081600483336000905af158601d01573d60011458600c01573d6000803e3d621234565260ea61109c5280516000825293506020615e42565b604051602081016040526000815290565b638435035b598160e01b8152836004820152602081602483336000905af158601d01573d60011458600c01573d6000803e3d621234565260ea61109c5280516000825293506020615e42565b638540661f598160e01b8152836004820152846024820152606060448201528660648201526084810160005b88811015615f8e578088015182820152602001615f76565b506060828960a40184336000905af158601d01573d60011458600c01573d6000803e3d621234565260ea61109c52815160408301513d6000853e8b8b82606087013350600060045af15059845b81811015615fef5760008152602001615fdb565b50919b505050505050565b8280616004615dfe565b600181600116156101000203166002900490600052602060002090601f016020900481019282601f1061604b57805160ff19168380011785616044615e59565b505061608a565b8280016001018561605a615e59565b5050821561608a579182015b8281111561608a57825182616079615e59565b505091602001919060010190616066565b5061609692915061623a565b5090565b6385979f76598160e01b8152836004820152846024820152606060448201528760648201526084810160005b898110156160de5780890151828201526020016160c6565b506060828a60a40184336000905af158601d01573d60011458600c01573d6000803e3d621234565260ea61109c52815160408301513d6000853e8c8c82606087013350600060045af15059845b8181101561613f576000815260200161612b565b50919c505050505050565b60405160e0810160405280600081526020016000815260200160008152602001600081526020016000815260200160008152602001600081525090565b635a98c361598160e01b8152602081600483336000905af158601d01573d60011458600c01573d6000803e3d621234565260ea61109c5280516000825293506020615e42565b60405161010081016040528060008152602001600081526020016000815260200160008152602001600081526020016000815260200160008152602001600081525090565b6040516080810160405280600081526020016000815260200160008152602001600081525090565b6112ff91905b808211156160965760008082616254615e59565b50505060010161624056fe6f6e6c792061646d696e206d617920696e697469616c697a6520746865206d61726b65746d61726b6574206d6179206f6e6c7920626520696e697469616c697a6564206f6e636545b96fe442630264581b197e84bbada861235052c5a1aadfff9ea4e40a969aa0696e697469616c2065786368616e67652072617465206d7573742062652067726561746572207468616e207a65726f2e73657474696e6720696e7465726573742072617465206d6f64656c206661696c65644d494e545f4e45575f4143434f554e545f42414c414e43455f43414c43554c4154494f4e5f4641494c4544626f72726f7742616c616e636553746f7265643a20626f72726f7742616c616e636553746f726564496e7465726e616c206661696c6564ca4f2f25d0898edd99413412fb94012f9e54ec8142f9b093e7720646a95b16a952455041595f424f52524f575f4e45575f4143434f554e545f424f52524f575f42414c414e43455f43414c43554c4154494f4e5f4641494c4544ddf252ad1be2c89b69c2b068fc378daa952ba7f163c4a11628f55a4df523b3ef52455041595f424f52524f575f4e45575f544f54414c5f42414c414e43455f43414c43554c4154494f4e5f4641494c45444c49515549444154455f434f4d5054524f4c4c45525f43414c43554c4154455f414d4f554e545f5345495a455f4641494c454465786368616e67655261746553746f7265643a2065786368616e67655261746553746f726564496e7465726e616c206661696c65644d494e545f4e45575f544f54414c5f535550504c595f43414c43554c4154494f4e5f4641494c45446f6e65206f662072656465656d546f6b656e73496e206f722072656465656d416d6f756e74496e206d757374206265207a65726f72656475636520726573657276657320756e657870656374656420756e646572666c6f77",
  "source": "pragma solidity ^0.5.16;\n\nimport \"./CToken.sol\";\n\n/**\n * @title Compound's CEther Contract\n * @notice CToken which wraps Ether\n * @author Compound\n */\ncontract CEther is CToken {\n    /**\n     * @notice Construct a new CEther money market\n     * @param comptroller_ The address of the Comptroller\n     * @param interestRateModel_ The address of the interest rate model\n     * @param initialExchangeRateMantissa_ The initial exchange rate, scaled by 1e18\n     * @param name_ ERC-20 name of this token\n     * @param symbol_ ERC-20 symbol of this token\n     * @param decimals_ ERC-20 decimal precision of this token\n     * @param admin_ Address of the administrator of this token\n     */\n    constructor(ComptrollerInterface comptroller_,\n                InterestRateModel interestRateModel_,\n                uint initialExchangeRateMantissa_,\n                string memory name_,\n                string memory symbol_,\n                uint8 decimals_,\n                address payable admin_) public {\n        // Creator of the contract is admin during initialization\n        admin = msg.sender;\n\n        initialize(comptroller_, interestRateModel_, initialExchangeRateMantissa_, name_, symbol_, decimals_);\n\n        // Set the proper admin now that initialization is done\n        admin = admin_;\n    }\n\n\n    /*** User Interface ***/\n\n    /**\n     * @notice Sender supplies assets into the market and receives cTokens in exchange\n     * @dev Reverts upon any failure\n     */\n    function mint() external payable {\n        (uint err,) = mintInternal(msg.value);\n        requireNoError(err, \"mint failed\");\n    }\n\n    /**\n     * @notice Sender redeems cTokens in exchange for the underlying asset\n     * @dev Accrues interest whether or not the operation succeeds, unless reverted\n     * @param redeemTokens The number of cTokens to redeem into underlying\n     * @return uint 0=success, otherwise a failure (see ErrorReporter.sol for details)\n     */\n    function redeem(uint redeemTokens) external returns (uint) {\n        return redeemInternal(redeemTokens);\n    }\n\n    /**\n     * @notice Sender redeems cTokens in exchange for a specified amount of underlying asset\n     * @dev Accrues interest whether or not the operation succeeds, unless reverted\n     * @param redeemAmount The amount of underlying to redeem\n     * @return uint 0=success, otherwise a failure (see ErrorReporter.sol for details)\n     */\n    function redeemUnderlying(uint redeemAmount) external returns (uint) {\n        return redeemUnderlyingInternal(redeemAmount);\n    }\n\n    /**\n      * @notice Sender borrows assets from the protocol to their own address\n      * @param borrowAmount The amount of the underlying asset to borrow\n      * @return uint 0=success, otherwise a failure (see ErrorReporter.sol for details)\n      */\n    function borrow(uint borrowAmount) external returns (uint) {\n        return borrowInternal(borrowAmount);\n    }\n\n    /**\n     * @notice Sender repays their own borrow\n     * @dev Reverts upon any failure\n     */\n    function repayBorrow() external payable {\n        (uint err,) = repayBorrowInternal(msg.value);\n        requireNoError(err, \"repayBorrow failed\");\n    }\n\n    /**\n     * @notice Sender repays a borrow belonging to borrower\n     * @dev Reverts upon any failure\n     * @param borrower the account with the debt being payed off\n     */\n    function repayBorrowBehalf(address borrower) external payable {\n        (uint err,) = repayBorrowBehalfInternal(borrower, msg.value);\n        requireNoError(err, \"repayBorrowBehalf failed\");\n    }\n\n    /**\n     * @notice The sender liquidates the borrowers collateral.\n     *  The collateral seized is transferred to the liquidator.\n     * @dev Reverts upon any failure\n     * @param borrower The borrower of this cToken to be liquidated\n     * @param cTokenCollateral The market in which to seize collateral from the borrower\n     */\n    function liquidateBorrow(address borrower, CToken cTokenCollateral) external payable {\n        (uint err,) = liquidateBorrowInternal(borrower, msg.value, cTokenCollateral);\n        requireNoError(err, \"liquidateBorrow failed\");\n    }\n\n    /**\n     * @notice Send Ether to CEther to mint\n     */\n    function () external payable {\n        (uint err,) = mintInternal(msg.value);\n        requireNoError(err, \"mint failed\");\n    }\n\n    /*** Safe Token ***/\n\n    /**\n     * @notice Gets balance of this contract in terms of Ether, before this message\n     * @dev This excludes the value of the current message, if any\n     * @return The quantity of Ether owned by this contract\n     */\n    function getCashPrior() internal view returns (uint) {\n        // (MathError err, uint startingBalance) = subUInt(address(this).balance, msg.value);\n        // require(err == MathError.NO_ERROR);\n        // return startingBalance;\n        return 0;\n    }\n\n    /**\n     * @notice Perform the actual transfer in, which is a no-op\n     * @param from Address sending the Ether\n     * @param amount Amount of Ether being sent\n     * @return The actual amount of Ether transferred\n     */\n    function doTransferIn(address from, uint amount) internal returns (uint) {\n        // Sanity checks\n        require(msg.sender == from, \"sender mismatch\");\n        require(msg.value == amount, \"value mismatch\");\n        return amount;\n    }\n\n    function doTransferOut(address payable to, uint amount) internal {\n        /* Send the Ether, with minimal gas and revert on failure */\n        to.transfer(amount);\n    }\n\n    function requireNoError(uint errCode, string memory message) internal pure {\n        if (errCode == uint(Error.NO_ERROR)) {\n            return;\n        }\n\n        bytes memory fullMessage = new bytes(bytes(message).length + 5);\n        uint i;\n\n        for (i = 0; i < bytes(message).length; i++) {\n            fullMessage[i] = bytes(message)[i];\n        }\n\n        fullMessage[i+0] = byte(uint8(32));\n        fullMessage[i+1] = byte(uint8(40));\n        fullMessage[i+2] = byte(uint8(48 + ( errCode / 10 )));\n        fullMessage[i+3] = byte(uint8(48 + ( errCode % 10 )));\n        fullMessage[i+4] = byte(uint8(41));\n\n        require(errCode == uint(Error.NO_ERROR), string(fullMessage));\n    }\n}\n",
  "sourcePath": "/Users/jesusmeza/Developer/omgx/snapshot-optimism/omgx_examples/compound-protocol/contracts/CEther.sol",
  "compiler": {
    "name": "solc",
    "version": "0.5.16"
  },
  "schemaVersion": "3.4.3",
  "updatedAt": "2021-08-25T22:25:24.266Z",
  "devdoc": {
    "author": "Compound",
    "methods": {
      "_acceptAdmin()": {
        "details": "Admin function for pending admin to accept role and update admin",
        "return": "uint 0=success, otherwise a failure (see ErrorReporter.sol for details)"
      },
      "_reduceReserves(uint256)": {
        "params": {
          "reduceAmount": "Amount of reduction to reserves"
        },
        "return": "uint 0=success, otherwise a failure (see ErrorReporter.sol for details)"
      },
      "_setComptroller(address)": {
        "details": "Admin function to set a new comptroller",
        "return": "uint 0=success, otherwise a failure (see ErrorReporter.sol for details)"
      },
      "_setInterestRateModel(address)": {
        "details": "Admin function to accrue interest and update the interest rate model",
        "params": {
          "newInterestRateModel": "the new interest rate model to use"
        },
        "return": "uint 0=success, otherwise a failure (see ErrorReporter.sol for details)"
      },
      "_setPendingAdmin(address)": {
        "details": "Admin function to begin change of admin. The newPendingAdmin must call `_acceptAdmin` to finalize the transfer.",
        "params": {
          "newPendingAdmin": "New pending admin."
        },
        "return": "uint 0=success, otherwise a failure (see ErrorReporter.sol for details)"
      },
      "_setReserveFactor(uint256)": {
        "details": "Admin function to accrue interest and set a new reserve factor",
        "return": "uint 0=success, otherwise a failure (see ErrorReporter.sol for details)"
      },
      "accrueInterest()": {
        "details": "This calculates interest accrued from the last checkpointed block  up to the current block and writes new checkpoint to storage."
      },
      "allowance(address,address)": {
        "params": {
          "owner": "The address of the account which owns the tokens to be spent",
          "spender": "The address of the account which may transfer tokens"
        },
        "return": "The number of tokens allowed to be spent (-1 means infinite)"
      },
      "approve(address,uint256)": {
        "details": "This will overwrite the approval amount for `spender` and is subject to issues noted [here](https://eips.ethereum.org/EIPS/eip-20#approve)",
        "params": {
          "amount": "The number of tokens that are approved (-1 means infinite)",
          "spender": "The address of the account which may transfer tokens"
        },
        "return": "Whether or not the approval succeeded"
      },
      "balanceOf(address)": {
        "params": {
          "owner": "The address of the account to query"
        },
        "return": "The number of tokens owned by `owner`"
      },
      "balanceOfUnderlying(address)": {
        "details": "This also accrues interest in a transaction",
        "params": {
          "owner": "The address of the account to query"
        },
        "return": "The amount of underlying owned by `owner`"
      },
      "borrow(uint256)": {
        "params": {
          "borrowAmount": "The amount of the underlying asset to borrow"
        },
        "return": "uint 0=success, otherwise a failure (see ErrorReporter.sol for details)"
      },
      "borrowBalanceCurrent(address)": {
        "params": {
          "account": "The address whose balance should be calculated after updating borrowIndex"
        },
        "return": "The calculated balance"
      },
      "borrowBalanceStored(address)": {
        "params": {
          "account": "The address whose balance should be calculated"
        },
        "return": "The calculated balance"
      },
      "borrowRatePerBlock()": {
        "return": "The borrow interest rate per block, scaled by 1e18"
      },
      "constructor": {
        "params": {
          "admin_": "Address of the administrator of this token",
          "comptroller_": "The address of the Comptroller",
          "decimals_": "ERC-20 decimal precision of this token",
          "initialExchangeRateMantissa_": "The initial exchange rate, scaled by 1e18",
          "interestRateModel_": "The address of the interest rate model",
          "name_": "ERC-20 name of this token",
          "symbol_": "ERC-20 symbol of this token"
        }
      },
      "exchangeRateCurrent()": {
        "return": "Calculated exchange rate scaled by 1e18"
      },
      "exchangeRateStored()": {
        "details": "This function does not accrue interest before calculating the exchange rate",
        "return": "Calculated exchange rate scaled by 1e18"
      },
      "getAccountSnapshot(address)": {
        "details": "This is used by comptroller to more efficiently perform liquidity checks.",
        "params": {
          "account": "Address of the account to snapshot"
        },
        "return": "(possible error, token balance, borrow balance, exchange rate mantissa)"
      },
      "getCash()": {
        "return": "The quantity of underlying asset owned by this contract"
      },
      "initialize(address,address,uint256,string,string,uint8)": {
        "params": {
          "comptroller_": "The address of the Comptroller",
          "decimals_": "EIP-20 decimal precision of this token",
          "initialExchangeRateMantissa_": "The initial exchange rate, scaled by 1e18",
          "interestRateModel_": "The address of the interest rate model",
          "name_": "EIP-20 name of this token",
          "symbol_": "EIP-20 symbol of this token"
        }
      },
      "liquidateBorrow(address,address)": {
        "details": "Reverts upon any failure",
        "params": {
          "borrower": "The borrower of this cToken to be liquidated",
          "cTokenCollateral": "The market in which to seize collateral from the borrower"
        }
      },
      "mint()": {
        "details": "Reverts upon any failure"
      },
      "redeem(uint256)": {
        "details": "Accrues interest whether or not the operation succeeds, unless reverted",
        "params": {
          "redeemTokens": "The number of cTokens to redeem into underlying"
        },
        "return": "uint 0=success, otherwise a failure (see ErrorReporter.sol for details)"
      },
      "redeemUnderlying(uint256)": {
        "details": "Accrues interest whether or not the operation succeeds, unless reverted",
        "params": {
          "redeemAmount": "The amount of underlying to redeem"
        },
        "return": "uint 0=success, otherwise a failure (see ErrorReporter.sol for details)"
      },
      "repayBorrow()": {
        "details": "Reverts upon any failure"
      },
      "repayBorrowBehalf(address)": {
        "details": "Reverts upon any failure",
        "params": {
          "borrower": "the account with the debt being payed off"
        }
      },
      "seize(address,address,uint256)": {
        "details": "Will fail unless called by another cToken during the process of liquidation. Its absolutely critical to use msg.sender as the borrowed cToken and not a parameter.",
        "params": {
          "borrower": "The account having collateral seized",
          "liquidator": "The account receiving seized collateral",
          "seizeTokens": "The number of cTokens to seize"
        },
        "return": "uint 0=success, otherwise a failure (see ErrorReporter.sol for details)"
      },
      "supplyRatePerBlock()": {
        "return": "The supply interest rate per block, scaled by 1e18"
      },
      "totalBorrowsCurrent()": {
        "return": "The total borrows with interest"
      },
      "transfer(address,uint256)": {
        "params": {
          "amount": "The number of tokens to transfer",
          "dst": "The address of the destination account"
        },
        "return": "Whether or not the transfer succeeded"
      },
      "transferFrom(address,address,uint256)": {
        "params": {
          "amount": "The number of tokens to transfer",
          "dst": "The address of the destination account",
          "src": "The address of the source account"
        },
        "return": "Whether or not the transfer succeeded"
      }
    },
    "title": "Compound's CEther Contract"
  },
  "userdoc": {
    "methods": {
      "_acceptAdmin()": {
        "notice": "Accepts transfer of admin rights. msg.sender must be pendingAdmin"
      },
      "_reduceReserves(uint256)": {
        "notice": "Accrues interest and reduces reserves by transferring to admin"
      },
      "_setComptroller(address)": {
        "notice": "Sets a new comptroller for the market"
      },
      "_setInterestRateModel(address)": {
        "notice": "accrues interest and updates the interest rate model using _setInterestRateModelFresh"
      },
      "_setPendingAdmin(address)": {
        "notice": "Begins transfer of admin rights. The newPendingAdmin must call `_acceptAdmin` to finalize the transfer."
      },
      "_setReserveFactor(uint256)": {
        "notice": "accrues interest and sets a new reserve factor for the protocol using _setReserveFactorFresh"
      },
      "accrueInterest()": {
        "notice": "Applies accrued interest to total borrows and reserves"
      },
      "allowance(address,address)": {
        "notice": "Get the current allowance from `owner` for `spender`"
      },
      "approve(address,uint256)": {
        "notice": "Approve `spender` to transfer up to `amount` from `src`"
      },
      "balanceOf(address)": {
        "notice": "Get the token balance of the `owner`"
      },
      "balanceOfUnderlying(address)": {
        "notice": "Get the underlying balance of the `owner`"
      },
      "borrow(uint256)": {
        "notice": "Sender borrows assets from the protocol to their own address"
      },
      "borrowBalanceCurrent(address)": {
        "notice": "Accrue interest to updated borrowIndex and then calculate account's borrow balance using the updated borrowIndex"
      },
      "borrowBalanceStored(address)": {
        "notice": "Return the borrow balance of account based on stored data"
      },
      "borrowRatePerBlock()": {
        "notice": "Returns the current per-block borrow interest rate for this cToken"
      },
      "constructor": "Construct a new CEther money market",
      "exchangeRateCurrent()": {
        "notice": "Accrue interest then return the up-to-date exchange rate"
      },
      "exchangeRateStored()": {
        "notice": "Calculates the exchange rate from the underlying to the CToken"
      },
      "getAccountSnapshot(address)": {
        "notice": "Get a snapshot of the account's balances, and the cached exchange rate"
      },
      "getCash()": {
        "notice": "Get cash balance of this cToken in the underlying asset"
      },
      "initialize(address,address,uint256,string,string,uint8)": {
        "notice": "Initialize the money market"
      },
      "liquidateBorrow(address,address)": {
        "notice": "The sender liquidates the borrowers collateral. The collateral seized is transferred to the liquidator."
      },
      "mint()": {
        "notice": "Sender supplies assets into the market and receives cTokens in exchange"
      },
      "redeem(uint256)": {
        "notice": "Sender redeems cTokens in exchange for the underlying asset"
      },
      "redeemUnderlying(uint256)": {
        "notice": "Sender redeems cTokens in exchange for a specified amount of underlying asset"
      },
      "repayBorrow()": {
        "notice": "Sender repays their own borrow"
      },
      "repayBorrowBehalf(address)": {
        "notice": "Sender repays a borrow belonging to borrower"
      },
      "seize(address,address,uint256)": {
        "notice": "Transfers collateral tokens (this market) to the liquidator."
      },
      "supplyRatePerBlock()": {
        "notice": "Returns the current per-block supply interest rate for this cToken"
      },
      "totalBorrowsCurrent()": {
        "notice": "Returns the current total borrows plus accrued interest"
      },
      "transfer(address,uint256)": {
        "notice": "Transfer `amount` tokens from `msg.sender` to `dst`"
      },
      "transferFrom(address,address,uint256)": {
        "notice": "Transfer `amount` tokens from `src` to `dst`"
      }
    },
    "notice": "CToken which wraps Ether"
  }
}