{
  "contractName": "ComptrollerG1",
  "abi": [
    {
      "inputs": [],
      "payable": false,
      "stateMutability": "nonpayable",
      "type": "constructor"
    },
    {
      "anonymous": false,
      "inputs": [
        {
          "indexed": false,
          "internalType": "uint256",
          "name": "error",
          "type": "uint256"
        },
        {
          "indexed": false,
          "internalType": "uint256",
          "name": "info",
          "type": "uint256"
        },
        {
          "indexed": false,
          "internalType": "uint256",
          "name": "detail",
          "type": "uint256"
        }
      ],
      "name": "Failure",
      "type": "event"
    },
    {
      "anonymous": false,
      "inputs": [
        {
          "indexed": false,
          "internalType": "contract CToken",
          "name": "cToken",
          "type": "address"
        },
        {
          "indexed": false,
          "internalType": "address",
          "name": "account",
          "type": "address"
        }
      ],
      "name": "MarketEntered",
      "type": "event"
    },
    {
      "anonymous": false,
      "inputs": [
        {
          "indexed": false,
          "internalType": "contract CToken",
          "name": "cToken",
          "type": "address"
        },
        {
          "indexed": false,
          "internalType": "address",
          "name": "account",
          "type": "address"
        }
      ],
      "name": "MarketExited",
      "type": "event"
    },
    {
      "anonymous": false,
      "inputs": [
        {
          "indexed": false,
          "internalType": "contract CToken",
          "name": "cToken",
          "type": "address"
        }
      ],
      "name": "MarketListed",
      "type": "event"
    },
    {
      "anonymous": false,
      "inputs": [
        {
          "indexed": false,
          "internalType": "uint256",
          "name": "oldCloseFactorMantissa",
          "type": "uint256"
        },
        {
          "indexed": false,
          "internalType": "uint256",
          "name": "newCloseFactorMantissa",
          "type": "uint256"
        }
      ],
      "name": "NewCloseFactor",
      "type": "event"
    },
    {
      "anonymous": false,
      "inputs": [
        {
          "indexed": false,
          "internalType": "contract CToken",
          "name": "cToken",
          "type": "address"
        },
        {
          "indexed": false,
          "internalType": "uint256",
          "name": "oldCollateralFactorMantissa",
          "type": "uint256"
        },
        {
          "indexed": false,
          "internalType": "uint256",
          "name": "newCollateralFactorMantissa",
          "type": "uint256"
        }
      ],
      "name": "NewCollateralFactor",
      "type": "event"
    },
    {
      "anonymous": false,
      "inputs": [
        {
          "indexed": false,
          "internalType": "uint256",
          "name": "oldLiquidationIncentiveMantissa",
          "type": "uint256"
        },
        {
          "indexed": false,
          "internalType": "uint256",
          "name": "newLiquidationIncentiveMantissa",
          "type": "uint256"
        }
      ],
      "name": "NewLiquidationIncentive",
      "type": "event"
    },
    {
      "anonymous": false,
      "inputs": [
        {
          "indexed": false,
          "internalType": "uint256",
          "name": "oldMaxAssets",
          "type": "uint256"
        },
        {
          "indexed": false,
          "internalType": "uint256",
          "name": "newMaxAssets",
          "type": "uint256"
        }
      ],
      "name": "NewMaxAssets",
      "type": "event"
    },
    {
      "anonymous": false,
      "inputs": [
        {
          "indexed": false,
          "internalType": "contract PriceOracle",
          "name": "oldPriceOracle",
          "type": "address"
        },
        {
          "indexed": false,
          "internalType": "contract PriceOracle",
          "name": "newPriceOracle",
          "type": "address"
        }
      ],
      "name": "NewPriceOracle",
      "type": "event"
    },
    {
      "constant": true,
      "inputs": [
        {
          "internalType": "address",
          "name": "",
          "type": "address"
        },
        {
          "internalType": "uint256",
          "name": "",
          "type": "uint256"
        }
      ],
      "name": "accountAssets",
      "outputs": [
        {
          "internalType": "contract CToken",
          "name": "",
          "type": "address"
        }
      ],
      "payable": false,
      "stateMutability": "view",
      "type": "function"
    },
    {
      "constant": true,
      "inputs": [],
      "name": "admin",
      "outputs": [
        {
          "internalType": "address",
          "name": "",
          "type": "address"
        }
      ],
      "payable": false,
      "stateMutability": "view",
      "type": "function"
    },
    {
      "constant": true,
      "inputs": [],
      "name": "closeFactorMantissa",
      "outputs": [
        {
          "internalType": "uint256",
          "name": "",
          "type": "uint256"
        }
      ],
      "payable": false,
      "stateMutability": "view",
      "type": "function"
    },
    {
      "constant": true,
      "inputs": [],
      "name": "comptrollerImplementation",
      "outputs": [
        {
          "internalType": "address",
          "name": "",
          "type": "address"
        }
      ],
      "payable": false,
      "stateMutability": "view",
      "type": "function"
    },
    {
      "constant": true,
      "inputs": [],
      "name": "isComptroller",
      "outputs": [
        {
          "internalType": "bool",
          "name": "",
          "type": "bool"
        }
      ],
      "payable": false,
      "stateMutability": "view",
      "type": "function"
    },
    {
      "constant": true,
      "inputs": [],
      "name": "liquidationIncentiveMantissa",
      "outputs": [
        {
          "internalType": "uint256",
          "name": "",
          "type": "uint256"
        }
      ],
      "payable": false,
      "stateMutability": "view",
      "type": "function"
    },
    {
      "constant": true,
      "inputs": [
        {
          "internalType": "address",
          "name": "",
          "type": "address"
        }
      ],
      "name": "markets",
      "outputs": [
        {
          "internalType": "bool",
          "name": "isListed",
          "type": "bool"
        },
        {
          "internalType": "uint256",
          "name": "collateralFactorMantissa",
          "type": "uint256"
        }
      ],
      "payable": false,
      "stateMutability": "view",
      "type": "function"
    },
    {
      "constant": true,
      "inputs": [],
      "name": "maxAssets",
      "outputs": [
        {
          "internalType": "uint256",
          "name": "",
          "type": "uint256"
        }
      ],
      "payable": false,
      "stateMutability": "view",
      "type": "function"
    },
    {
      "constant": true,
      "inputs": [],
      "name": "oracle",
      "outputs": [
        {
          "internalType": "contract PriceOracle",
          "name": "",
          "type": "address"
        }
      ],
      "payable": false,
      "stateMutability": "view",
      "type": "function"
    },
    {
      "constant": true,
      "inputs": [],
      "name": "pendingAdmin",
      "outputs": [
        {
          "internalType": "address",
          "name": "",
          "type": "address"
        }
      ],
      "payable": false,
      "stateMutability": "view",
      "type": "function"
    },
    {
      "constant": true,
      "inputs": [],
      "name": "pendingComptrollerImplementation",
      "outputs": [
        {
          "internalType": "address",
          "name": "",
          "type": "address"
        }
      ],
      "payable": false,
      "stateMutability": "view",
      "type": "function"
    },
    {
      "constant": true,
      "inputs": [
        {
          "internalType": "address",
          "name": "account",
          "type": "address"
        }
      ],
      "name": "getAssetsIn",
      "outputs": [
        {
          "internalType": "contract CToken[]",
          "name": "",
          "type": "address[]"
        }
      ],
      "payable": false,
      "stateMutability": "view",
      "type": "function"
    },
    {
      "constant": true,
      "inputs": [
        {
          "internalType": "address",
          "name": "account",
          "type": "address"
        },
        {
          "internalType": "contract CToken",
          "name": "cToken",
          "type": "address"
        }
      ],
      "name": "checkMembership",
      "outputs": [
        {
          "internalType": "bool",
          "name": "",
          "type": "bool"
        }
      ],
      "payable": false,
      "stateMutability": "view",
      "type": "function"
    },
    {
      "constant": false,
      "inputs": [
        {
          "internalType": "address[]",
          "name": "cTokens",
          "type": "address[]"
        }
      ],
      "name": "enterMarkets",
      "outputs": [
        {
          "internalType": "uint256[]",
          "name": "",
          "type": "uint256[]"
        }
      ],
      "payable": false,
      "stateMutability": "nonpayable",
      "type": "function"
    },
    {
      "constant": false,
      "inputs": [
        {
          "internalType": "address",
          "name": "cTokenAddress",
          "type": "address"
        }
      ],
      "name": "exitMarket",
      "outputs": [
        {
          "internalType": "uint256",
          "name": "",
          "type": "uint256"
        }
      ],
      "payable": false,
      "stateMutability": "nonpayable",
      "type": "function"
    },
    {
      "constant": false,
      "inputs": [
        {
          "internalType": "address",
          "name": "cToken",
          "type": "address"
        },
        {
          "internalType": "address",
          "name": "minter",
          "type": "address"
        },
        {
          "internalType": "uint256",
          "name": "mintAmount",
          "type": "uint256"
        }
      ],
      "name": "mintAllowed",
      "outputs": [
        {
          "internalType": "uint256",
          "name": "",
          "type": "uint256"
        }
      ],
      "payable": false,
      "stateMutability": "nonpayable",
      "type": "function"
    },
    {
      "constant": false,
      "inputs": [
        {
          "internalType": "address",
          "name": "cToken",
          "type": "address"
        },
        {
          "internalType": "address",
          "name": "minter",
          "type": "address"
        },
        {
          "internalType": "uint256",
          "name": "mintAmount",
          "type": "uint256"
        },
        {
          "internalType": "uint256",
          "name": "mintTokens",
          "type": "uint256"
        }
      ],
      "name": "mintVerify",
      "outputs": [],
      "payable": false,
      "stateMutability": "nonpayable",
      "type": "function"
    },
    {
      "constant": false,
      "inputs": [
        {
          "internalType": "address",
          "name": "cToken",
          "type": "address"
        },
        {
          "internalType": "address",
          "name": "redeemer",
          "type": "address"
        },
        {
          "internalType": "uint256",
          "name": "redeemTokens",
          "type": "uint256"
        }
      ],
      "name": "redeemAllowed",
      "outputs": [
        {
          "internalType": "uint256",
          "name": "",
          "type": "uint256"
        }
      ],
      "payable": false,
      "stateMutability": "nonpayable",
      "type": "function"
    },
    {
      "constant": false,
      "inputs": [
        {
          "internalType": "address",
          "name": "cToken",
          "type": "address"
        },
        {
          "internalType": "address",
          "name": "redeemer",
          "type": "address"
        },
        {
          "internalType": "uint256",
          "name": "redeemAmount",
          "type": "uint256"
        },
        {
          "internalType": "uint256",
          "name": "redeemTokens",
          "type": "uint256"
        }
      ],
      "name": "redeemVerify",
      "outputs": [],
      "payable": false,
      "stateMutability": "nonpayable",
      "type": "function"
    },
    {
      "constant": false,
      "inputs": [
        {
          "internalType": "address",
          "name": "cToken",
          "type": "address"
        },
        {
          "internalType": "address",
          "name": "borrower",
          "type": "address"
        },
        {
          "internalType": "uint256",
          "name": "borrowAmount",
          "type": "uint256"
        }
      ],
      "name": "borrowAllowed",
      "outputs": [
        {
          "internalType": "uint256",
          "name": "",
          "type": "uint256"
        }
      ],
      "payable": false,
      "stateMutability": "nonpayable",
      "type": "function"
    },
    {
      "constant": false,
      "inputs": [
        {
          "internalType": "address",
          "name": "cToken",
          "type": "address"
        },
        {
          "internalType": "address",
          "name": "borrower",
          "type": "address"
        },
        {
          "internalType": "uint256",
          "name": "borrowAmount",
          "type": "uint256"
        }
      ],
      "name": "borrowVerify",
      "outputs": [],
      "payable": false,
      "stateMutability": "nonpayable",
      "type": "function"
    },
    {
      "constant": false,
      "inputs": [
        {
          "internalType": "address",
          "name": "cToken",
          "type": "address"
        },
        {
          "internalType": "address",
          "name": "payer",
          "type": "address"
        },
        {
          "internalType": "address",
          "name": "borrower",
          "type": "address"
        },
        {
          "internalType": "uint256",
          "name": "repayAmount",
          "type": "uint256"
        }
      ],
      "name": "repayBorrowAllowed",
      "outputs": [
        {
          "internalType": "uint256",
          "name": "",
          "type": "uint256"
        }
      ],
      "payable": false,
      "stateMutability": "nonpayable",
      "type": "function"
    },
    {
      "constant": false,
      "inputs": [
        {
          "internalType": "address",
          "name": "cToken",
          "type": "address"
        },
        {
          "internalType": "address",
          "name": "payer",
          "type": "address"
        },
        {
          "internalType": "address",
          "name": "borrower",
          "type": "address"
        },
        {
          "internalType": "uint256",
          "name": "repayAmount",
          "type": "uint256"
        },
        {
          "internalType": "uint256",
          "name": "borrowerIndex",
          "type": "uint256"
        }
      ],
      "name": "repayBorrowVerify",
      "outputs": [],
      "payable": false,
      "stateMutability": "nonpayable",
      "type": "function"
    },
    {
      "constant": false,
      "inputs": [
        {
          "internalType": "address",
          "name": "cTokenBorrowed",
          "type": "address"
        },
        {
          "internalType": "address",
          "name": "cTokenCollateral",
          "type": "address"
        },
        {
          "internalType": "address",
          "name": "liquidator",
          "type": "address"
        },
        {
          "internalType": "address",
          "name": "borrower",
          "type": "address"
        },
        {
          "internalType": "uint256",
          "name": "repayAmount",
          "type": "uint256"
        }
      ],
      "name": "liquidateBorrowAllowed",
      "outputs": [
        {
          "internalType": "uint256",
          "name": "",
          "type": "uint256"
        }
      ],
      "payable": false,
      "stateMutability": "nonpayable",
      "type": "function"
    },
    {
      "constant": false,
      "inputs": [
        {
          "internalType": "address",
          "name": "cTokenBorrowed",
          "type": "address"
        },
        {
          "internalType": "address",
          "name": "cTokenCollateral",
          "type": "address"
        },
        {
          "internalType": "address",
          "name": "liquidator",
          "type": "address"
        },
        {
          "internalType": "address",
          "name": "borrower",
          "type": "address"
        },
        {
          "internalType": "uint256",
          "name": "repayAmount",
          "type": "uint256"
        },
        {
          "internalType": "uint256",
          "name": "seizeTokens",
          "type": "uint256"
        }
      ],
      "name": "liquidateBorrowVerify",
      "outputs": [],
      "payable": false,
      "stateMutability": "nonpayable",
      "type": "function"
    },
    {
      "constant": false,
      "inputs": [
        {
          "internalType": "address",
          "name": "cTokenCollateral",
          "type": "address"
        },
        {
          "internalType": "address",
          "name": "cTokenBorrowed",
          "type": "address"
        },
        {
          "internalType": "address",
          "name": "liquidator",
          "type": "address"
        },
        {
          "internalType": "address",
          "name": "borrower",
          "type": "address"
        },
        {
          "internalType": "uint256",
          "name": "seizeTokens",
          "type": "uint256"
        }
      ],
      "name": "seizeAllowed",
      "outputs": [
        {
          "internalType": "uint256",
          "name": "",
          "type": "uint256"
        }
      ],
      "payable": false,
      "stateMutability": "nonpayable",
      "type": "function"
    },
    {
      "constant": false,
      "inputs": [
        {
          "internalType": "address",
          "name": "cTokenCollateral",
          "type": "address"
        },
        {
          "internalType": "address",
          "name": "cTokenBorrowed",
          "type": "address"
        },
        {
          "internalType": "address",
          "name": "liquidator",
          "type": "address"
        },
        {
          "internalType": "address",
          "name": "borrower",
          "type": "address"
        },
        {
          "internalType": "uint256",
          "name": "seizeTokens",
          "type": "uint256"
        }
      ],
      "name": "seizeVerify",
      "outputs": [],
      "payable": false,
      "stateMutability": "nonpayable",
      "type": "function"
    },
    {
      "constant": false,
      "inputs": [
        {
          "internalType": "address",
          "name": "cToken",
          "type": "address"
        },
        {
          "internalType": "address",
          "name": "src",
          "type": "address"
        },
        {
          "internalType": "address",
          "name": "dst",
          "type": "address"
        },
        {
          "internalType": "uint256",
          "name": "transferTokens",
          "type": "uint256"
        }
      ],
      "name": "transferAllowed",
      "outputs": [
        {
          "internalType": "uint256",
          "name": "",
          "type": "uint256"
        }
      ],
      "payable": false,
      "stateMutability": "nonpayable",
      "type": "function"
    },
    {
      "constant": false,
      "inputs": [
        {
          "internalType": "address",
          "name": "cToken",
          "type": "address"
        },
        {
          "internalType": "address",
          "name": "src",
          "type": "address"
        },
        {
          "internalType": "address",
          "name": "dst",
          "type": "address"
        },
        {
          "internalType": "uint256",
          "name": "transferTokens",
          "type": "uint256"
        }
      ],
      "name": "transferVerify",
      "outputs": [],
      "payable": false,
      "stateMutability": "nonpayable",
      "type": "function"
    },
    {
      "constant": true,
      "inputs": [
        {
          "internalType": "address",
          "name": "account",
          "type": "address"
        }
      ],
      "name": "getAccountLiquidity",
      "outputs": [
        {
          "internalType": "uint256",
          "name": "",
          "type": "uint256"
        },
        {
          "internalType": "uint256",
          "name": "",
          "type": "uint256"
        },
        {
          "internalType": "uint256",
          "name": "",
          "type": "uint256"
        }
      ],
      "payable": false,
      "stateMutability": "view",
      "type": "function"
    },
    {
      "constant": true,
      "inputs": [
        {
          "internalType": "address",
          "name": "cTokenBorrowed",
          "type": "address"
        },
        {
          "internalType": "address",
          "name": "cTokenCollateral",
          "type": "address"
        },
        {
          "internalType": "uint256",
          "name": "repayAmount",
          "type": "uint256"
        }
      ],
      "name": "liquidateCalculateSeizeTokens",
      "outputs": [
        {
          "internalType": "uint256",
          "name": "",
          "type": "uint256"
        },
        {
          "internalType": "uint256",
          "name": "",
          "type": "uint256"
        }
      ],
      "payable": false,
      "stateMutability": "view",
      "type": "function"
    },
    {
      "constant": false,
      "inputs": [
        {
          "internalType": "contract PriceOracle",
          "name": "newOracle",
          "type": "address"
        }
      ],
      "name": "_setPriceOracle",
      "outputs": [
        {
          "internalType": "uint256",
          "name": "",
          "type": "uint256"
        }
      ],
      "payable": false,
      "stateMutability": "nonpayable",
      "type": "function"
    },
    {
      "constant": false,
      "inputs": [
        {
          "internalType": "uint256",
          "name": "newCloseFactorMantissa",
          "type": "uint256"
        }
      ],
      "name": "_setCloseFactor",
      "outputs": [
        {
          "internalType": "uint256",
          "name": "",
          "type": "uint256"
        }
      ],
      "payable": false,
      "stateMutability": "nonpayable",
      "type": "function"
    },
    {
      "constant": false,
      "inputs": [
        {
          "internalType": "contract CToken",
          "name": "cToken",
          "type": "address"
        },
        {
          "internalType": "uint256",
          "name": "newCollateralFactorMantissa",
          "type": "uint256"
        }
      ],
      "name": "_setCollateralFactor",
      "outputs": [
        {
          "internalType": "uint256",
          "name": "",
          "type": "uint256"
        }
      ],
      "payable": false,
      "stateMutability": "nonpayable",
      "type": "function"
    },
    {
      "constant": false,
      "inputs": [
        {
          "internalType": "uint256",
          "name": "newMaxAssets",
          "type": "uint256"
        }
      ],
      "name": "_setMaxAssets",
      "outputs": [
        {
          "internalType": "uint256",
          "name": "",
          "type": "uint256"
        }
      ],
      "payable": false,
      "stateMutability": "nonpayable",
      "type": "function"
    },
    {
      "constant": false,
      "inputs": [
        {
          "internalType": "uint256",
          "name": "newLiquidationIncentiveMantissa",
          "type": "uint256"
        }
      ],
      "name": "_setLiquidationIncentive",
      "outputs": [
        {
          "internalType": "uint256",
          "name": "",
          "type": "uint256"
        }
      ],
      "payable": false,
      "stateMutability": "nonpayable",
      "type": "function"
    },
    {
      "constant": false,
      "inputs": [
        {
          "internalType": "contract CToken",
          "name": "cToken",
          "type": "address"
        }
      ],
      "name": "_supportMarket",
      "outputs": [
        {
          "internalType": "uint256",
          "name": "",
          "type": "uint256"
        }
      ],
      "payable": false,
      "stateMutability": "nonpayable",
      "type": "function"
    },
    {
      "constant": false,
      "inputs": [
        {
          "internalType": "contract Unitroller",
          "name": "unitroller",
          "type": "address"
        },
        {
          "internalType": "contract PriceOracle",
          "name": "_oracle",
          "type": "address"
        },
        {
          "internalType": "uint256",
          "name": "_closeFactorMantissa",
          "type": "uint256"
        },
        {
          "internalType": "uint256",
          "name": "_maxAssets",
          "type": "uint256"
        },
        {
          "internalType": "bool",
          "name": "reinitializing",
          "type": "bool"
        }
      ],
      "name": "_become",
      "outputs": [],
      "payable": false,
      "stateMutability": "nonpayable",
      "type": "function"
    }
  ],
  "bytecode": "0x60806040523480156200001c576000806200001962000064565b50505b505a62000028620000d1565b6000600181620000376200012d565b816001600160a01b0302191690836001600160a01b03160217906200005b6200017a565b505050620001c9565b632a2a7adb598160e01b8152600481016020815285602082015260005b868110156200009e57808601518282016040015260200162000081565b506020828760640184336000905af158600e01573d6000803e3d6000fd5b3d6001141558600a015760016000f35b505050565b6373509064598160e01b8152602081600483336000905af158600e01573d6000803e3d6000fd5b3d6001141558600a015760016000f35b8051935060005b604081101562000128576000828201526020016200010f565b505050565b6303daa959598160e01b8152836004820152602081602483336000905af158600e01573d6000803e3d6000fd5b3d6001141558600a015760016000f35b805160008252935060206200010f565b6322bd64c0598160e01b8152836004820152846024820152600081604483336000905af158600e01573d6000803e3d6000fd5b3d6001141558600a015760016000f35b6000815260206200010f565b613a8380620001d96000396000f3fe608060405234801561001957600080610016613638565b50505b50600436106101ca5760003560e01c80627e3dd2146101d85780631ededc91146101f457806324008a62146102415780632678224714610298578063317b0b77146102bc57806332000e00146102e257806341c728b91461032f57806347ef3b3b146103745780634ada90af146103c95780634ef4c3e1146103d15780634fd42e171461041057806351dff9891461043657806355ee1fe11461047b5780635c778605146104aa5780635ec88c79146104e95780635fc7e71e1461053c5780636a56947e1461058b5780636d35bf91146105d05780637dc0d1d01461061f5780638e8f294b14610627578063929fe9a11461067057806394b2294b146106a7578063a76b3fda146106af578063abfceffc146106de578063bb82aa5e14610760578063bdcdc25814610768578063c2998238146107ad578063c488847b14610872578063d02f7351146108c9578063d9226ced14610918578063da3d454c1461093e578063dce154491461097d578063dcfbc0c7146109b2578063e4028eee146109ba578063e8755446146109ef578063eabe7d91146109f7578063ede4edd014610a36578063f851a44014610a65575b6000806101d5613638565b50505b6101e0610a6d565b604051901515815260200160405180910390f35b61023f600480360360a081101561021357600080610210613638565b50505b506001600160a01b03813581169160208101358216916040820135169060608101359060800135610a72565b005b610286600480360360808110156102605760008061025d613638565b50505b506001600160a01b03813581169160208101358216916040820135169060600135610a82565b60405190815260200160405180910390f35b6102a0610ac9565b6040516001600160a01b03909116815260200160405180910390f35b610286600480360360208110156102db576000806102d8613638565b50505b5035610ae8565b61023f600480360360a0811015610301576000806102fe613638565b50505b506001600160a01b038135811691602081013590911690604081013590606081013590608001351515610c13565b61023f6004803603608081101561034e5760008061034b613638565b50505b506001600160a01b03813581169160208101359091169060408101359060600135611254565b61023f600480360360c081101561039357600080610390613638565b50505b506001600160a01b0381358116916020810135821691604082013581169160608101359091169060808101359060a0013561125a565b61028661125f565b610286600480360360608110156103f0576000806103ed613638565b50505b506001600160a01b0381358116916020810135909116906040013561126c565b6102866004803603602081101561042f5760008061042c613638565b50505b50356112b4565b61023f6004803603608081101561045557600080610452613638565b50505b506001600160a01b038135811691602081013590911690604081013590606001356113b7565b6102866004803603602081101561049a57600080610497613638565b50505b50356001600160a01b0316611410565b61023f600480360360608110156104c9576000806104c6613638565b50505b506001600160a01b038135811691602081013590911690604001356114cf565b6105186004803603602081101561050857600080610505613638565b50505b50356001600160a01b03166114d4565b60405180848152602001838152602001828152602001935050505060405180910390f35b610286600480360360a081101561055b57600080610558613638565b50505b506001600160a01b0381358116916020810135821691604082013581169160608101359091169060800135611509565b61023f600480360360808110156105aa576000806105a7613638565b50505b506001600160a01b03813581169160208101358216916040820135169060600135611254565b61023f600480360360a08110156105ef576000806105ec613638565b50505b506001600160a01b0381358116916020810135821691604082013581169160608101359091169060800135610a72565b6102a06116e6565b6106566004803603602081101561064657600080610643613638565b50505b50356001600160a01b03166116f2565b604051911515825260208201526040908101905180910390f35b6101e06004803603604081101561068f5760008061068c613638565b50505b506001600160a01b0381358116916020013516611729565b61028661177b565b610286600480360360208110156106ce576000806106cb613638565b50505b50356001600160a01b0316611785565b61070d600480360360208110156106fd576000806106fa613638565b50505b50356001600160a01b0316611951565b60405160208082528190810183818151815260200191508051906020019060200280838360005b8381101561074c578082015183820152602001610734565b505050509050019250505060405180910390f35b6102a06119f4565b6102866004803603608081101561078757600080610784613638565b50505b506001600160a01b03813581169160208101358216916040820135169060600135611a00565b61070d600480360360208110156107cc576000806107c9613638565b50505b810190602081018135600160201b8111156107ef576000806107ec613638565b50505b82018360208201111561080a57600080610807613638565b50505b803590602001918460208302840111600160201b8311171561083457600080610831613638565b50505b919080806020026020016040519081016040528093929190818152602001838360200280828437600092019190915250929550611a0d945050505050565b6108b1600480360360608110156108915760008061088e613638565b50505b506001600160a01b03813581169160208101359091169060400135611cbf565b60405191825260208201526040908101905180910390f35b610286600480360360a08110156108e8576000806108e5613638565b50505b506001600160a01b038135811691602081013582169160408201358116916060810135909116906080013561200f565b6102866004803603602081101561093757600080610934613638565b50505b50356121de565b6102866004803603606081101561095d5760008061095a613638565b50505b506001600160a01b03813581169160208101359091169060400135612256565b6102a06004803603604081101561099c57600080610999613638565b50505b506001600160a01b038135169060200135612409565b6102a0612441565b610286600480360360408110156109d9576000806109d6613638565b50505b506001600160a01b03813516906020013561244d565b6102866126ae565b61028660048036036060811015610a1657600080610a13613638565b50505b506001600160a01b038135811691602081013590911690604001356126b8565b61028660048036036020811015610a5557600080610a52613638565b50505b50356001600160a01b03166126c5565b6102a0612b42565b600181565b610a7b565b5050505b5050505050565b6001600160a01b0384166000908152600960205260408120600090610aa56136a3565b906101000a900460ff16610abb57506009610ac1565b60005b90505b949350505050565b60006001610ad56136a3565b906101000a90046001600160a01b031681565b6000610af2612b4d565b610b0957610b0260016004612bd4565b9050610c0e565b610b1161374c565b604051602081016040528381529050610b2861374c565b6040516020810160405266b1a2bc2ec5000081529050610b488282612c2e565b15610b6157610b58600580612bd4565b92505050610c0e565b610b6961374c565b60405160208101604052670c7d713b49da000081529050610b8a8184612c3d565b15610ba457610b9a600580612bd4565b9350505050610c0e565b60006005610bb06136a3565b905085806005610bbe6136fe565b5050507f3b9670cf975d26958e754b57098eaa2ac914d8d2a31b83257997b9f346110fd9816005610bed6136a3565b60405191825260208201526040908101905180910390a160005b9450505050505b919050565b846001600160a01b031663f851a4406040518163ffffffff1660e01b81526004016020604051808303818680610c4761375d565b158015610c5c57600080610c59613638565b50505b505a610c666137a9565b5050505050158015610c85573d6000803e3d6000610c82613638565b50505b505050506040513d6020811015610ca457600080610ca1613638565b50505b8101908080516001600160a01b0316925050505a610cc0613859565b6001600160a01b031614610d0e5760405162461bcd60e51b8152600401808060200182810382526027815260200180613a5c6027913960400191505060405180910390610d0b613638565b50505b6000856001600160a01b031663c1e803346040518163ffffffff1660e01b815260040160206040518083038160008780610d4661375d565b158015610d5b57600080610d58613638565b50505b505a610d6561389f565b505050505050158015610d85573d6000803e3d6000610d82613638565b50505b505050506040513d6020811015610da457600080610da1613638565b50505b81019080805193505082159150610e0490505760405162461bcd60e51b815260206004820152601560248201527418da185b99d9481b9bdd08185d5d1a1bdc9a5e9959605a1b604482015260640160405180910390610e01613638565b50505b8161124c578560006001600160a01b0382166355ee1fe1886040516001600160e01b031960e084901b1681526001600160a01b03909116600482015260240160206040518083038160008780610e5861375d565b158015610e6d57600080610e6a613638565b50505b505a610e7761389f565b505050505050158015610e97573d6000803e3d6000610e94613638565b50505b505050506040513d6020811015610eb657600080610eb3613638565b50505b810190808051935060009250610eca915050565b8114610f1e5760405162461bcd60e51b815260206004820152601660248201527539b2ba10383934b1b29037b930b1b6329032b93937b960511b604482015260640160405180910390610f1b613638565b50505b816001600160a01b031663317b0b77876040516001600160e01b031960e084901b168152600481019190915260240160206040518083038160008780610f6261375d565b158015610f7757600080610f74613638565b50505b505a610f8161389f565b505050505050158015610fa1573d6000803e3d6000610f9e613638565b50505b505050506040513d6020811015610fc057600080610fbd613638565b50505b810190808051935060009250610fd4915050565b81146110285760405162461bcd60e51b815260206004820152601660248201527539b2ba1031b637b9b2903330b1ba37b91032b93937b960511b604482015260640160405180910390611025613638565b50505b816001600160a01b031663d9226ced866040516001600160e01b031960e084901b16815260048101919091526024016020604051808303816000878061106c61375d565b1580156110815760008061107e613638565b50505b505a61108b61389f565b5050505050501580156110ab573d6000803e3d60006110a8613638565b50505b505050506040513d60208110156110ca576000806110c7613638565b50505b8101908080519350600092506110de915050565b81146111315760405162461bcd60e51b815260206004820152601560248201527439b2ba1036b0bc1030b9b9b9b2ba399032b93937b960591b60448201526064016040518091039061112e613638565b50505b816001600160a01b0316634fd42e17670de0b6b3a76400006040516001600160e01b031960e084901b16815260048101919091526024016020604051808303816000878061117d61375d565b1580156111925760008061118f613638565b50505b505a61119c61389f565b5050505050501580156111bc573d6000803e3d60006111b9613638565b50505b505050506040513d60208110156111db576000806111d8613638565b50505b8101908080519350600092506111ef915050565b8114610a775760405162461bcd60e51b815260206004820152601f60248201527f736574206c69717569646174696f6e20696e63656e74697665206572726f7200604482015260640160405180910390611247613638565b505050505b505050505050565b50505050565b61124c565b60066112696136a3565b81565b6001600160a01b038316600090815260096020526040812060009061128f6136a3565b906101000a900460ff166112a75760095b90506112ad565b60005b90505b9392505050565b60006112be612b4d565b6112ce57610b026001600b612bd4565b6112d661374c565b6040516020810160405283815290506112ed61374c565b60405160208101604052670de0b6b3a76400008152905061130e8282612c3d565b1561131f57610b586007600c612bd4565b61132761374c565b604051602081016040526714d1120d7b160000815290506113488184612c3d565b1561135957610b9a6007600c612bd4565b600060066113656136a3565b9050858060066113736136fe565b5050507faeba5a6c40a8ac138134bff1aaa65debf25971188a58804bad717f82f0ec1316818760405191825260208201526040908101905180910390a16000610c07565b801580156113c55750600082115b156112545760405162461bcd60e51b815260206004820152601160248201527072656465656d546f6b656e73207a65726f60781b60448201526064016040518091039061124c613638565b600061141a612b4d565b61142a57610b0260016010612bd4565b60008060046114376136a3565b906101000a90046001600160a01b0316905082600460006101000a8161145b6136a3565b816001600160a01b0302191690836001600160a01b031602179061147d6136fe565b5050507fd52b2b9b7e9ee655fcb95d2e5b9e0c9f69e7ef2b8e9d2d0ea78402d576d22e2281846040516001600160a01b039283168152911660208201526040908101905180910390a160009392505050565b505050565b6000806000806000806114eb876000806000612c4b565b9250925092508260118111156114fd57fe5b97919650945092505050565b6001600160a01b038516600090815260096020526040812060009061152c6136a3565b906101000a900460ff16158061156c57506001600160a01b03851660009081526009602052604090206000906115606136a3565b906101000a900460ff16155b1561157b5760095b90506116dd565b60008061158785613135565b9193509091506000905082601181111561159d57fe5b146115b7578160118111156115ae57fe5b925050506116dd565b806115c35760036115ae565b6000886001600160a01b03166395dd9193876040516001600160e01b031960e084901b1681526001600160a01b039091166004820152602401602060405180830381868061160f61375d565b15801561162457600080611621613638565b50505b505a61162e6137a9565b505050505015801561164d573d6000803e3d600061164a613638565b50505b505050506040513d602081101561166c57600080611669613638565b50505b81019080805193506000925082915061169d9050604051806020016040528060056116956136a3565b905284613155565b909250905060008260038111156116b057fe5b146116c457600b5b955050505050506116dd565b808711156116d35760116116b8565b6000955050505050505b95945050505050565b60006004610ad56136a3565b6009602052806000526040600020905060008161170d6136a3565b906101000a900460ff1690806001016117246136a3565b905082565b6001600160a01b03811660009081526009602052604081206001600160a01b0384166000908152600291909101602052604090206000906117686136a3565b906101000a900460ff1690505b92915050565b60076112696136a3565b600080806117916136a3565b906101000a90046001600160a01b03166001600160a01b03165a6117b3613859565b6001600160a01b0316146117cd57610b0260016012612bd4565b6001600160a01b03821660009081526009602052604090206000906117f06136a3565b906101000a900460ff161561180b57610b02600a6011612bd4565b816001600160a01b031663fe9c44ae6040518163ffffffff1660e01b8152600401602060405180830381868061183f61375d565b15801561185457600080611851613638565b50505b505a61185e6137a9565b505050505015801561187d573d6000803e3d600061187a613638565b50505b505050506040513d602081101561189c57600080611899613638565b50505b81019080805150604092505050516040808201815260018252600060208084018290526001600160a01b038616825260099052208151816001816118de6136a3565b8160ff021916908315150217906118f36136fe565b5050506020820151816001016119076136fe565b50509050507fcf583bb0c569eb967f806b11601c4cb93c10310485c67add5f8362c2f212321f826040516001600160a01b03909116815260200160405180910390a1600092915050565b6001600160a01b03811660009081526008602052606090819060409020806119776136a3565b80602002602001604051908101604052818152919060208301828061199a6136a3565b80156119e757602002820191906000526020600020905b6000826119bc6136a3565b906101000a90046001600160a01b03166001600160a01b0316815260200190600101908083116119b1575b5093979650505050505050565b60006002610ad56136a3565b6000610abe8585846131a9565b6060600082519050606081604051908082528060200260200182016040528015611a41578160200160208202803883390190505b50905060005b82811015611cb7576000858281518110611a5d57fe5b60200260200101516001600160a01b03811660009081526009602052909150604081209050600081611a8d6136a3565b906101000a900460ff16611abd5760095b848481518110611aaa57fe5b6020026020010181815250505050611caf565b8060020160005a611acc613859565b6001600160a01b03166001600160a01b03168152602001908152602001600020600090611af76136a3565b906101000a900460ff161515600115151415611b14576000611a9e565b6007611b1e6136a3565b600860005a611b2b613859565b6001600160a01b03166001600160a01b0316815260200190815260200160002080611b546136a3565b905010611b62576010611a9e565b60018160020160005a611b73613859565b6001600160a01b03166001600160a01b03168152602001908152602001600020600181611b9e6136a3565b8160ff02191690831515021790611bb36136fe565b505050600860005a611bc3613859565b6001600160a01b03166001600160a01b03168152602001908152602001600020829080600181611bf16136a3565b018082611bfc6136fe565b5050600092835291600019830191506020902091929101600181611c1e6136a3565b816001600160a01b0302191690836001600160a01b0316021790611c406136fe565b505050507f3ab23ab0d51cccc0c3085aec51f99228625aa1a922b3a8ca89a26b0f2027a1a5825a611c6f613859565b6040516001600160a01b039283168152911660208201526040908101905180910390a16000848481518110611ca057fe5b60200260200101818152505050505b600101611a47565b509392505050565b60008080806004611cce6136a3565b906101000a90046001600160a01b03166001600160a01b031663fc57d4df876040516001600160e01b031960e084901b1681526001600160a01b0390911660048201526024016020604051808303818680611d2761375d565b158015611d3c57600080611d39613638565b50505b505a611d466137a9565b5050505050158015611d65573d6000803e3d6000611d62613638565b50505b505050506040513d6020811015611d8457600080611d81613638565b50505b81019080805193506000925082915060049050611d9f6136a3565b906101000a90046001600160a01b03166001600160a01b031663fc57d4df876040516001600160e01b031960e084901b1681526001600160a01b0390911660048201526024016020604051808303818680611df861375d565b158015611e0d57600080611e0a613638565b50505b505a611e176137a9565b5050505050158015611e36573d6000803e3d6000611e33613638565b50505b505050506040513d6020811015611e5557600080611e52613638565b50505b81019080805193505083159150819050611e6d575080155b15611e8257600d935060009250612007915050565b6000866001600160a01b031663182df0f56040518163ffffffff1660e01b81526004016020604051808303818680611eb861375d565b158015611ecd57600080611eca613638565b50505b505a611ed76137a9565b5050505050158015611ef6573d6000803e3d6000611ef3613638565b50505b505050506040513d6020811015611f1557600080611f12613638565b50505b810190808051935060009250611f2d915061374c9050565b611f3561374c565b611f3d61374c565b6000611f526006611f4c6136a3565b89613245565b945090506000816003811115611f6457fe5b14611f8057600b5b995060009850612007975050505050505050565b611f8a8787613245565b935090506000816003811115611f9c57fe5b14611fa857600b611f6c565b611fb2848461327c565b925090506000816003811115611fc457fe5b14611fd057600b611f6c565b611fda828c613155565b955090506000816003811115611fec57fe5b14611ff857600b611f6c565b60009950939750505050505050505b935093915050565b6001600160a01b03851660009081526009602052604081206000906120326136a3565b906101000a900460ff16158061207257506001600160a01b03851660009081526009602052604090206000906120666136a3565b906101000a900460ff16155b1561207e576009611574565b846001600160a01b0316635fe3b5676040518163ffffffff1660e01b815260040160206040518083038186806120b261375d565b1580156120c7576000806120c4613638565b50505b505a6120d16137a9565b50505050501580156120f0573d6000803e3d60006120ed613638565b50505b505050506040513d602081101561210f5760008061210c613638565b50505b8101908080516001600160a01b03908116935089169150635fe3b56790506040518163ffffffff1660e01b8152600401602060405180830381868061215261375d565b15801561216757600080612164613638565b50505b505a6121716137a9565b5050505050158015612190573d6000803e3d600061218d613638565b50505b505050506040513d60208110156121af576000806121ac613638565b50505b8101908080516001600160a01b03169390931492506121d2915050576002611574565b60009695505050505050565b60006121e8612b4d565b6121f857610b026001600d612bd4565b600060076122046136a3565b9050828060076122126136fe565b5050507f7093cf1eb653f749c3ff531d6df7f92764536a7fa0d13530cd26e070780c32ea818460405191825260208201526040908101905180910390a160006112ad565b6001600160a01b03831660009081526009602052604081206000906122796136a3565b906101000a900460ff1661228e5760096112a0565b6001600160a01b03841660009081526009602052604090206001600160a01b0384166000908152600291909101602052604090206000906122cd6136a3565b906101000a900460ff166122e25760086112a0565b600060046122ee6136a3565b906101000a90046001600160a01b03166001600160a01b031663fc57d4df856040516001600160e01b031960e084901b1681526001600160a01b039091166004820152602401602060405180830381868061234761375d565b15801561235c57600080612359613638565b50505b505a6123666137a9565b5050505050158015612385573d6000803e3d6000612382613638565b50505b505050506040513d60208110156123a4576000806123a1613638565b50505b810190808051151592506123bc91505057600d6112a0565b6000806123cc8587600087612c4b565b919350909150600090508260118111156123e257fe5b146123fc578160118111156123f357fe5b925050506112ad565b80156121d25760046123f3565b600860205281600052604060002081816124216136a3565b811061242957fe5b90600052602060002060009350019050610ad56136a3565b60006003610ad56136a3565b600080806124596136a3565b906101000a90046001600160a01b03166001600160a01b03165a61247b613859565b6001600160a01b03161461249c5761249560016006612bd4565b9050611775565b6001600160a01b038316600090815260096020526040812090506000816124c16136a3565b906101000a900460ff166124e3576124db60096007612bd4565b915050611775565b6124eb61374c565b60405160208101604052848152905061250261374c565b60405160208101604052670c7d713b49da0000815290506125238183612c3d565b1561253e5761253460066008612bd4565b9350505050611775565b84158015906126165750600060046125546136a3565b906101000a90046001600160a01b03166001600160a01b031663fc57d4df876040516001600160e01b031960e084901b1681526001600160a01b03909116600482015260240160206040518083038186806125ad61375d565b1580156125c2576000806125bf613638565b50505b505a6125cc6137a9565b50505050501580156125eb573d6000803e3d60006125e8613638565b50505b505050506040513d602081101561260a57600080612607613638565b50505b81019080805115925050505b1561262757612534600d6009612bd4565b6000836001016126356136a3565b90508580600186016126456136fe565b5050507f70483e6592cd5182d45ac970e05bc62cdcc90e9d8ef2c2dbe686cf383bcd7fc587828860405180846001600160a01b03166001600160a01b03168152602001838152602001828152602001935050505060405180910390a16000979650505050505050565b60056112696136a3565b60006112aa8484846131a9565b6000818180806001600160a01b03841663c37f68e25a6126e3613859565b6040516001600160e01b031960e084901b1681526001600160a01b039091166004820152602401608060405180830381868061271d61375d565b1580156127325760008061272f613638565b50505b505a61273c6137a9565b505050505015801561275b573d6000803e3d6000612758613638565b50505b505050506040513d608081101561277a57600080612777613638565b50505b8101908080519291906020018051929190602001805192919060200180515094975092955090935050841591506127ed90505760405162461bcd60e51b8152600401808060200182810382526025815260200180613a3760259139604001915050604051809103906127ea613638565b50505b801561280a576127ff600c6002612bd4565b945050505050610c0e565b600061281f875a612819613859565b856131a9565b9050801561284057612834600e600383613292565b95505050505050610c0e565b6001600160a01b038516600090815260096020526040812090508060020160005a612869613859565b6001600160a01b03166001600160a01b031681526020019081526020016000206000906128946136a3565b906101000a900460ff166128b15760009650505050505050610c0e565b8060020160005a6128c0613859565b6001600160a01b03166001600160a01b031681526020019081526020016000206001816128eb6136a3565b9060ff021916906128fa6136fe565b50506060600860005a61290b613859565b6001600160a01b03166001600160a01b03168152602001908152602001600020806129346136a3565b8060200260200160405190810160405281815291906020830182806129576136a3565b80156129a457602002820191906000526020600020905b6000826129796136a3565b906101000a90046001600160a01b03166001600160a01b03168152602001906001019080831161296e575b505050505090506000815190508060005b828110156129fa57896001600160a01b03168482815181106129d357fe5b60200260200101516001600160a01b031614156129f2578091506129fa565b6001016129b5565b50818110612a0457fe5b6000600860005a612a13613859565b6001600160a01b03166001600160a01b0316815260200190815260200160002090508060018280612a426136a3565b90500381612a4e6136a3565b8110612a5657fe5b90600052602060002001600090612a6b6136a3565b906101000a90046001600160a01b0316818381612a866136a3565b8110612a8e57fe5b90600052602060002001600181612aa36136a3565b816001600160a01b0302191690836001600160a01b0316021790612ac56136fe565b5050508080612ad26136a3565b90612ae190600019830161394f565b507fe699a64c18b07ac5b7301aa273f36a2287239eb9501d81950672794afba29a0d8a5a612b0d613859565b6040516001600160a01b039283168152911660208201526040908101905180910390a160009c9b505050505050505050505050565b600080610ad56136a3565b600080806002612b5b6136a3565b906101000a90046001600160a01b03166001600160a01b03165a612b7d613859565b6001600160a01b031614905060008080612b956136a3565b906101000a90046001600160a01b03166001600160a01b03165a612bb7613859565b6001600160a01b03161490508080612bcc5750815b925050505b90565b6000600080516020613a17833981519152836011811115612bf157fe5b836013811115612bfd57fe5b600060405180848152602001838152602001828152602001935050505060405180910390a18260118111156112ad57fe5b60008151835111159392505050565b600081518351109392505050565b6000806000612c58613983565b6001600160a01b038816600090815260086020528060606040822080612c7c6136a3565b806020026020016040519081016040528181529190602083018280612c9f6136a3565b8015612cec57602002820191906000526020600020905b600082612cc16136a3565b906101000a90046001600160a01b03166001600160a01b031681526020019060010190808311612cb6575b50939450600093505050505b81518110156130e6576000828281518110612d0f57fe5b60200260200101519050806001600160a01b031663c37f68e28e6040516001600160e01b031960e084901b1681526001600160a01b0390911660048201526024016080604051808303818680612d6361375d565b158015612d7857600080612d75613638565b50505b505a612d826137a9565b5050505050158015612da1573d6000803e3d6000612d9e613638565b50505b505050506040513d6080811015612dc057600080612dbd613638565b50505b81019080805192919060200180519291906020018051929190602001805160808d01525050506060890152604088015294508415612e0f5750600f97506000965086955061312b945050505050565b604051602080820160409081526001600160a01b03841660009081526009909252829120600101612e3e6136a3565b905260c087015260405180602001604052808760800151905260e087015260006004612e686136a3565b906101000a90046001600160a01b03166001600160a01b031663fc57d4df826040516001600160e01b031960e084901b1681526001600160a01b0390911660048201526024016020604051808303818680612ec161375d565b158015612ed657600080612ed3613638565b50505b505a612ee06137a9565b5050505050158015612eff573d6000803e3d6000612efc613638565b50505b505050506040513d6020811015612f1e57600080612f1b613638565b50505b81019080805160a08a019081529250505051612f4b5750600d97506000965086955061312b945050505050565b60405180602001604052808760a001519052610100870152612f7b60c08701518760e001518861010001516132eb565b61012088015293506000846003811115612f9157fe5b14612fad5750600b97506000965086955061312b945050505050565b612fc286610120015187604001518851613343565b875293506000846003811115612fd457fe5b14612ff05750600b97506000965086955061312b945050505050565b61300886610100015187606001518860200151613343565b60208801529350600084600381111561301d57fe5b146130395750600b97506000965086955061312b945050505050565b8b6001600160a01b0316816001600160a01b031614156130dd576130678661012001518c8860200151613343565b60208801529350600084600381111561307c57fe5b146130985750600b97506000965086955061312b945050505050565b6130ac8661010001518b8860200151613343565b6020880152935060008460038111156130c157fe5b146130dd5750600b97506000965086955061312b945050505050565b50600101612cf8565b50836020015184511115613112576000846020015185510360008090509650965096505050505061312b565b6000808551866020015103819150965096509650505050505b9450945094915050565b6000806000613148846000806000612c4b565b9250925092509193909250565b600080600061316261374c565b61316c8686613390565b9092509050600082600381111561317f57fe5b1461319057509150600090506131a2565b600061319b826133f6565b9350935050505b9250929050565b6001600160a01b03831660009081526009602052604081206000906131cc6136a3565b906101000a900460ff166131e15760096112a0565b6001600160a01b03841660009081526009602052604090206001600160a01b0384166000908152600291909101602052604090206000906132206136a3565b906101000a900460ff166132355760006112a0565b6000806123cc8587866000612c4b565b600061324f61374c565b6132716040516020810160409081528682525160208101604052858152613411565b915091509250929050565b600061328661374c565b613271845184516134f6565b6000600080516020613a178339815191528460118111156132af57fe5b8460138111156132bb57fe5b8460405180848152602001838152602001828152602001935050505060405180910390a18360118111156112aa57fe5b60006132f561374c565b60006132ff61374c565b6133098787613411565b9092509050600082600381111561331c57fe5b1461332b579092509050612007565b6133358186613411565b935093505050935093915050565b600080600061335061374c565b61335a8787613390565b9092509050600082600381111561336d57fe5b1461337e5750915060009050612007565b61333561338a826133f6565b866135a8565b600061339a61374c565b6000806133a88651866135ce565b909250905060008260038111156133bb57fe5b146133dc5781604051602081016040526000815290945092506131a2915050565b600060405160208101604052918252969095509350505050565b6000670de0b6b3a764000082518161340a57fe5b0492915050565b600061341b61374c565b60008061342a865186516135ce565b9092509050600082600381111561343d57fe5b1461345e5781604051602081016040526000815290945092506131a2915050565b6000806134736706f05b59d3b20000846135a8565b9092509050600082600381111561348657fe5b146134a95781604051602081016040526000815290965094506131a29350505050565b6000806134be83670de0b6b3a764000061360d565b909250905060008260038111156134d157fe5b146134d857fe5b6000604051602081016040529182529a909950975050505050505050565b600061350061374c565b60008061351586670de0b6b3a76400006135ce565b9092509050600082600381111561352857fe5b146135495781604051602081016040526000815290945092506131a2915050565b600080613556838861360d565b9092509050600082600381111561356957fe5b1461358c5781604051602081016040526000815290965094506131a29350505050565b6000604051602081016040529182529890975095505050505050565b6000808383018481106135c0576000925090506131a2565b5060029150600090506131a2565b600080836135e1575060009050806131a2565b838302838582816135ee57fe5b0414613602575060029150600090506131a2565b6000925090506131a2565b6000808261362157506001905060006131a2565b600083858161362c57fe5b04915091509250929050565b632a2a7adb598160e01b8152600481016020815285602082015260005b86811015613670578086015182820160400152602001613655565b506020828760640184336000905af158600e01573d6000803e3d6000fd5b3d6001141558600a015760016000f35b505050565b6303daa959598160e01b8152836004820152602081602483336000905af158600e01573d6000803e3d6000fd5b3d6001141558600a015760016000f35b8051935060005b60408110156114cf576000828201526020016136e7565b6322bd64c0598160e01b8152836004820152846024820152600081604483336000905af158600e01573d6000803e3d6000fd5b3d6001141558600a015760016000f35b6000815260206136e7565b604051602081016040526000815290565b638435035b598160e01b8152836004820152602081602483336000905af158600e01573d6000803e3d6000fd5b3d6001141558600a015760016000f35b805160008252935060206136e7565b638540661f598160e01b8152836004820152846024820152606060448201528660648201526084810160005b888110156137ed5780880151828201526020016137d5565b506060828960a40184336000905af158600e01573d6000803e3d6000fd5b3d6001141558600a015760016000f35b815160408301513d6000853e8b8b82606087013350600060045af15059845b8181101561384e576000815260200161383a565b50919b505050505050565b6373509064598160e01b8152602081600483336000905af158600e01573d6000803e3d6000fd5b3d6001141558600a015760016000f35b805160008252935060206136e7565b6385979f76598160e01b8152836004820152846024820152606060448201528760648201526084810160005b898110156138e35780890151828201526020016138cb565b506060828a60a40184336000905af158600e01573d6000803e3d6000fd5b3d6001141558600a015760016000f35b815160408301513d6000853e8c8c82606087013350600060045af15059845b818110156139445760008152602001613930565b50919c505050505050565b816139586136a3565b81836139626136fe565b5050818111156114cf57818360005260206000206114cf92810191016139ed565b6040518061014001604052806000815260200160008152602001600081526020016000815260200160008152602001600081526020016139c161374c565b81526020016139ce61374c565b81526020016139db61374c565b81526020016139e861374c565b905290565b612bd191905b80821115613a125760008082613a076136fe565b5050506001016139f3565b509056fe45b96fe442630264581b197e84bbada861235052c5a1aadfff9ea4e40a969aa0657869744d61726b65743a206765744163636f756e74536e617073686f74206661696c65646f6e6c7920756e6974726f6c6c65722061646d696e2063616e206368616e676520627261696e73",
  "deployedBytecode": "0x608060405234801561001957600080610016613638565b50505b50600436106101ca5760003560e01c80627e3dd2146101d85780631ededc91146101f457806324008a62146102415780632678224714610298578063317b0b77146102bc57806332000e00146102e257806341c728b91461032f57806347ef3b3b146103745780634ada90af146103c95780634ef4c3e1146103d15780634fd42e171461041057806351dff9891461043657806355ee1fe11461047b5780635c778605146104aa5780635ec88c79146104e95780635fc7e71e1461053c5780636a56947e1461058b5780636d35bf91146105d05780637dc0d1d01461061f5780638e8f294b14610627578063929fe9a11461067057806394b2294b146106a7578063a76b3fda146106af578063abfceffc146106de578063bb82aa5e14610760578063bdcdc25814610768578063c2998238146107ad578063c488847b14610872578063d02f7351146108c9578063d9226ced14610918578063da3d454c1461093e578063dce154491461097d578063dcfbc0c7146109b2578063e4028eee146109ba578063e8755446146109ef578063eabe7d91146109f7578063ede4edd014610a36578063f851a44014610a65575b6000806101d5613638565b50505b6101e0610a6d565b604051901515815260200160405180910390f35b61023f600480360360a081101561021357600080610210613638565b50505b506001600160a01b03813581169160208101358216916040820135169060608101359060800135610a72565b005b610286600480360360808110156102605760008061025d613638565b50505b506001600160a01b03813581169160208101358216916040820135169060600135610a82565b60405190815260200160405180910390f35b6102a0610ac9565b6040516001600160a01b03909116815260200160405180910390f35b610286600480360360208110156102db576000806102d8613638565b50505b5035610ae8565b61023f600480360360a0811015610301576000806102fe613638565b50505b506001600160a01b038135811691602081013590911690604081013590606081013590608001351515610c13565b61023f6004803603608081101561034e5760008061034b613638565b50505b506001600160a01b03813581169160208101359091169060408101359060600135611254565b61023f600480360360c081101561039357600080610390613638565b50505b506001600160a01b0381358116916020810135821691604082013581169160608101359091169060808101359060a0013561125a565b61028661125f565b610286600480360360608110156103f0576000806103ed613638565b50505b506001600160a01b0381358116916020810135909116906040013561126c565b6102866004803603602081101561042f5760008061042c613638565b50505b50356112b4565b61023f6004803603608081101561045557600080610452613638565b50505b506001600160a01b038135811691602081013590911690604081013590606001356113b7565b6102866004803603602081101561049a57600080610497613638565b50505b50356001600160a01b0316611410565b61023f600480360360608110156104c9576000806104c6613638565b50505b506001600160a01b038135811691602081013590911690604001356114cf565b6105186004803603602081101561050857600080610505613638565b50505b50356001600160a01b03166114d4565b60405180848152602001838152602001828152602001935050505060405180910390f35b610286600480360360a081101561055b57600080610558613638565b50505b506001600160a01b0381358116916020810135821691604082013581169160608101359091169060800135611509565b61023f600480360360808110156105aa576000806105a7613638565b50505b506001600160a01b03813581169160208101358216916040820135169060600135611254565b61023f600480360360a08110156105ef576000806105ec613638565b50505b506001600160a01b0381358116916020810135821691604082013581169160608101359091169060800135610a72565b6102a06116e6565b6106566004803603602081101561064657600080610643613638565b50505b50356001600160a01b03166116f2565b604051911515825260208201526040908101905180910390f35b6101e06004803603604081101561068f5760008061068c613638565b50505b506001600160a01b0381358116916020013516611729565b61028661177b565b610286600480360360208110156106ce576000806106cb613638565b50505b50356001600160a01b0316611785565b61070d600480360360208110156106fd576000806106fa613638565b50505b50356001600160a01b0316611951565b60405160208082528190810183818151815260200191508051906020019060200280838360005b8381101561074c578082015183820152602001610734565b505050509050019250505060405180910390f35b6102a06119f4565b6102866004803603608081101561078757600080610784613638565b50505b506001600160a01b03813581169160208101358216916040820135169060600135611a00565b61070d600480360360208110156107cc576000806107c9613638565b50505b810190602081018135600160201b8111156107ef576000806107ec613638565b50505b82018360208201111561080a57600080610807613638565b50505b803590602001918460208302840111600160201b8311171561083457600080610831613638565b50505b919080806020026020016040519081016040528093929190818152602001838360200280828437600092019190915250929550611a0d945050505050565b6108b1600480360360608110156108915760008061088e613638565b50505b506001600160a01b03813581169160208101359091169060400135611cbf565b60405191825260208201526040908101905180910390f35b610286600480360360a08110156108e8576000806108e5613638565b50505b506001600160a01b038135811691602081013582169160408201358116916060810135909116906080013561200f565b6102866004803603602081101561093757600080610934613638565b50505b50356121de565b6102866004803603606081101561095d5760008061095a613638565b50505b506001600160a01b03813581169160208101359091169060400135612256565b6102a06004803603604081101561099c57600080610999613638565b50505b506001600160a01b038135169060200135612409565b6102a0612441565b610286600480360360408110156109d9576000806109d6613638565b50505b506001600160a01b03813516906020013561244d565b6102866126ae565b61028660048036036060811015610a1657600080610a13613638565b50505b506001600160a01b038135811691602081013590911690604001356126b8565b61028660048036036020811015610a5557600080610a52613638565b50505b50356001600160a01b03166126c5565b6102a0612b42565b600181565b610a7b565b5050505b5050505050565b6001600160a01b0384166000908152600960205260408120600090610aa56136a3565b906101000a900460ff16610abb57506009610ac1565b60005b90505b949350505050565b60006001610ad56136a3565b906101000a90046001600160a01b031681565b6000610af2612b4d565b610b0957610b0260016004612bd4565b9050610c0e565b610b1161374c565b604051602081016040528381529050610b2861374c565b6040516020810160405266b1a2bc2ec5000081529050610b488282612c2e565b15610b6157610b58600580612bd4565b92505050610c0e565b610b6961374c565b60405160208101604052670c7d713b49da000081529050610b8a8184612c3d565b15610ba457610b9a600580612bd4565b9350505050610c0e565b60006005610bb06136a3565b905085806005610bbe6136fe565b5050507f3b9670cf975d26958e754b57098eaa2ac914d8d2a31b83257997b9f346110fd9816005610bed6136a3565b60405191825260208201526040908101905180910390a160005b9450505050505b919050565b846001600160a01b031663f851a4406040518163ffffffff1660e01b81526004016020604051808303818680610c4761375d565b158015610c5c57600080610c59613638565b50505b505a610c666137a9565b5050505050158015610c85573d6000803e3d6000610c82613638565b50505b505050506040513d6020811015610ca457600080610ca1613638565b50505b8101908080516001600160a01b0316925050505a610cc0613859565b6001600160a01b031614610d0e5760405162461bcd60e51b8152600401808060200182810382526027815260200180613a5c6027913960400191505060405180910390610d0b613638565b50505b6000856001600160a01b031663c1e803346040518163ffffffff1660e01b815260040160206040518083038160008780610d4661375d565b158015610d5b57600080610d58613638565b50505b505a610d6561389f565b505050505050158015610d85573d6000803e3d6000610d82613638565b50505b505050506040513d6020811015610da457600080610da1613638565b50505b81019080805193505082159150610e0490505760405162461bcd60e51b815260206004820152601560248201527418da185b99d9481b9bdd08185d5d1a1bdc9a5e9959605a1b604482015260640160405180910390610e01613638565b50505b8161124c578560006001600160a01b0382166355ee1fe1886040516001600160e01b031960e084901b1681526001600160a01b03909116600482015260240160206040518083038160008780610e5861375d565b158015610e6d57600080610e6a613638565b50505b505a610e7761389f565b505050505050158015610e97573d6000803e3d6000610e94613638565b50505b505050506040513d6020811015610eb657600080610eb3613638565b50505b810190808051935060009250610eca915050565b8114610f1e5760405162461bcd60e51b815260206004820152601660248201527539b2ba10383934b1b29037b930b1b6329032b93937b960511b604482015260640160405180910390610f1b613638565b50505b816001600160a01b031663317b0b77876040516001600160e01b031960e084901b168152600481019190915260240160206040518083038160008780610f6261375d565b158015610f7757600080610f74613638565b50505b505a610f8161389f565b505050505050158015610fa1573d6000803e3d6000610f9e613638565b50505b505050506040513d6020811015610fc057600080610fbd613638565b50505b810190808051935060009250610fd4915050565b81146110285760405162461bcd60e51b815260206004820152601660248201527539b2ba1031b637b9b2903330b1ba37b91032b93937b960511b604482015260640160405180910390611025613638565b50505b816001600160a01b031663d9226ced866040516001600160e01b031960e084901b16815260048101919091526024016020604051808303816000878061106c61375d565b1580156110815760008061107e613638565b50505b505a61108b61389f565b5050505050501580156110ab573d6000803e3d60006110a8613638565b50505b505050506040513d60208110156110ca576000806110c7613638565b50505b8101908080519350600092506110de915050565b81146111315760405162461bcd60e51b815260206004820152601560248201527439b2ba1036b0bc1030b9b9b9b2ba399032b93937b960591b60448201526064016040518091039061112e613638565b50505b816001600160a01b0316634fd42e17670de0b6b3a76400006040516001600160e01b031960e084901b16815260048101919091526024016020604051808303816000878061117d61375d565b1580156111925760008061118f613638565b50505b505a61119c61389f565b5050505050501580156111bc573d6000803e3d60006111b9613638565b50505b505050506040513d60208110156111db576000806111d8613638565b50505b8101908080519350600092506111ef915050565b8114610a775760405162461bcd60e51b815260206004820152601f60248201527f736574206c69717569646174696f6e20696e63656e74697665206572726f7200604482015260640160405180910390611247613638565b505050505b505050505050565b50505050565b61124c565b60066112696136a3565b81565b6001600160a01b038316600090815260096020526040812060009061128f6136a3565b906101000a900460ff166112a75760095b90506112ad565b60005b90505b9392505050565b60006112be612b4d565b6112ce57610b026001600b612bd4565b6112d661374c565b6040516020810160405283815290506112ed61374c565b60405160208101604052670de0b6b3a76400008152905061130e8282612c3d565b1561131f57610b586007600c612bd4565b61132761374c565b604051602081016040526714d1120d7b160000815290506113488184612c3d565b1561135957610b9a6007600c612bd4565b600060066113656136a3565b9050858060066113736136fe565b5050507faeba5a6c40a8ac138134bff1aaa65debf25971188a58804bad717f82f0ec1316818760405191825260208201526040908101905180910390a16000610c07565b801580156113c55750600082115b156112545760405162461bcd60e51b815260206004820152601160248201527072656465656d546f6b656e73207a65726f60781b60448201526064016040518091039061124c613638565b600061141a612b4d565b61142a57610b0260016010612bd4565b60008060046114376136a3565b906101000a90046001600160a01b0316905082600460006101000a8161145b6136a3565b816001600160a01b0302191690836001600160a01b031602179061147d6136fe565b5050507fd52b2b9b7e9ee655fcb95d2e5b9e0c9f69e7ef2b8e9d2d0ea78402d576d22e2281846040516001600160a01b039283168152911660208201526040908101905180910390a160009392505050565b505050565b6000806000806000806114eb876000806000612c4b565b9250925092508260118111156114fd57fe5b97919650945092505050565b6001600160a01b038516600090815260096020526040812060009061152c6136a3565b906101000a900460ff16158061156c57506001600160a01b03851660009081526009602052604090206000906115606136a3565b906101000a900460ff16155b1561157b5760095b90506116dd565b60008061158785613135565b9193509091506000905082601181111561159d57fe5b146115b7578160118111156115ae57fe5b925050506116dd565b806115c35760036115ae565b6000886001600160a01b03166395dd9193876040516001600160e01b031960e084901b1681526001600160a01b039091166004820152602401602060405180830381868061160f61375d565b15801561162457600080611621613638565b50505b505a61162e6137a9565b505050505015801561164d573d6000803e3d600061164a613638565b50505b505050506040513d602081101561166c57600080611669613638565b50505b81019080805193506000925082915061169d9050604051806020016040528060056116956136a3565b905284613155565b909250905060008260038111156116b057fe5b146116c457600b5b955050505050506116dd565b808711156116d35760116116b8565b6000955050505050505b95945050505050565b60006004610ad56136a3565b6009602052806000526040600020905060008161170d6136a3565b906101000a900460ff1690806001016117246136a3565b905082565b6001600160a01b03811660009081526009602052604081206001600160a01b0384166000908152600291909101602052604090206000906117686136a3565b906101000a900460ff1690505b92915050565b60076112696136a3565b600080806117916136a3565b906101000a90046001600160a01b03166001600160a01b03165a6117b3613859565b6001600160a01b0316146117cd57610b0260016012612bd4565b6001600160a01b03821660009081526009602052604090206000906117f06136a3565b906101000a900460ff161561180b57610b02600a6011612bd4565b816001600160a01b031663fe9c44ae6040518163ffffffff1660e01b8152600401602060405180830381868061183f61375d565b15801561185457600080611851613638565b50505b505a61185e6137a9565b505050505015801561187d573d6000803e3d600061187a613638565b50505b505050506040513d602081101561189c57600080611899613638565b50505b81019080805150604092505050516040808201815260018252600060208084018290526001600160a01b038616825260099052208151816001816118de6136a3565b8160ff021916908315150217906118f36136fe565b5050506020820151816001016119076136fe565b50509050507fcf583bb0c569eb967f806b11601c4cb93c10310485c67add5f8362c2f212321f826040516001600160a01b03909116815260200160405180910390a1600092915050565b6001600160a01b03811660009081526008602052606090819060409020806119776136a3565b80602002602001604051908101604052818152919060208301828061199a6136a3565b80156119e757602002820191906000526020600020905b6000826119bc6136a3565b906101000a90046001600160a01b03166001600160a01b0316815260200190600101908083116119b1575b5093979650505050505050565b60006002610ad56136a3565b6000610abe8585846131a9565b6060600082519050606081604051908082528060200260200182016040528015611a41578160200160208202803883390190505b50905060005b82811015611cb7576000858281518110611a5d57fe5b60200260200101516001600160a01b03811660009081526009602052909150604081209050600081611a8d6136a3565b906101000a900460ff16611abd5760095b848481518110611aaa57fe5b6020026020010181815250505050611caf565b8060020160005a611acc613859565b6001600160a01b03166001600160a01b03168152602001908152602001600020600090611af76136a3565b906101000a900460ff161515600115151415611b14576000611a9e565b6007611b1e6136a3565b600860005a611b2b613859565b6001600160a01b03166001600160a01b0316815260200190815260200160002080611b546136a3565b905010611b62576010611a9e565b60018160020160005a611b73613859565b6001600160a01b03166001600160a01b03168152602001908152602001600020600181611b9e6136a3565b8160ff02191690831515021790611bb36136fe565b505050600860005a611bc3613859565b6001600160a01b03166001600160a01b03168152602001908152602001600020829080600181611bf16136a3565b018082611bfc6136fe565b5050600092835291600019830191506020902091929101600181611c1e6136a3565b816001600160a01b0302191690836001600160a01b0316021790611c406136fe565b505050507f3ab23ab0d51cccc0c3085aec51f99228625aa1a922b3a8ca89a26b0f2027a1a5825a611c6f613859565b6040516001600160a01b039283168152911660208201526040908101905180910390a16000848481518110611ca057fe5b60200260200101818152505050505b600101611a47565b509392505050565b60008080806004611cce6136a3565b906101000a90046001600160a01b03166001600160a01b031663fc57d4df876040516001600160e01b031960e084901b1681526001600160a01b0390911660048201526024016020604051808303818680611d2761375d565b158015611d3c57600080611d39613638565b50505b505a611d466137a9565b5050505050158015611d65573d6000803e3d6000611d62613638565b50505b505050506040513d6020811015611d8457600080611d81613638565b50505b81019080805193506000925082915060049050611d9f6136a3565b906101000a90046001600160a01b03166001600160a01b031663fc57d4df876040516001600160e01b031960e084901b1681526001600160a01b0390911660048201526024016020604051808303818680611df861375d565b158015611e0d57600080611e0a613638565b50505b505a611e176137a9565b5050505050158015611e36573d6000803e3d6000611e33613638565b50505b505050506040513d6020811015611e5557600080611e52613638565b50505b81019080805193505083159150819050611e6d575080155b15611e8257600d935060009250612007915050565b6000866001600160a01b031663182df0f56040518163ffffffff1660e01b81526004016020604051808303818680611eb861375d565b158015611ecd57600080611eca613638565b50505b505a611ed76137a9565b5050505050158015611ef6573d6000803e3d6000611ef3613638565b50505b505050506040513d6020811015611f1557600080611f12613638565b50505b810190808051935060009250611f2d915061374c9050565b611f3561374c565b611f3d61374c565b6000611f526006611f4c6136a3565b89613245565b945090506000816003811115611f6457fe5b14611f8057600b5b995060009850612007975050505050505050565b611f8a8787613245565b935090506000816003811115611f9c57fe5b14611fa857600b611f6c565b611fb2848461327c565b925090506000816003811115611fc457fe5b14611fd057600b611f6c565b611fda828c613155565b955090506000816003811115611fec57fe5b14611ff857600b611f6c565b60009950939750505050505050505b935093915050565b6001600160a01b03851660009081526009602052604081206000906120326136a3565b906101000a900460ff16158061207257506001600160a01b03851660009081526009602052604090206000906120666136a3565b906101000a900460ff16155b1561207e576009611574565b846001600160a01b0316635fe3b5676040518163ffffffff1660e01b815260040160206040518083038186806120b261375d565b1580156120c7576000806120c4613638565b50505b505a6120d16137a9565b50505050501580156120f0573d6000803e3d60006120ed613638565b50505b505050506040513d602081101561210f5760008061210c613638565b50505b8101908080516001600160a01b03908116935089169150635fe3b56790506040518163ffffffff1660e01b8152600401602060405180830381868061215261375d565b15801561216757600080612164613638565b50505b505a6121716137a9565b5050505050158015612190573d6000803e3d600061218d613638565b50505b505050506040513d60208110156121af576000806121ac613638565b50505b8101908080516001600160a01b03169390931492506121d2915050576002611574565b60009695505050505050565b60006121e8612b4d565b6121f857610b026001600d612bd4565b600060076122046136a3565b9050828060076122126136fe565b5050507f7093cf1eb653f749c3ff531d6df7f92764536a7fa0d13530cd26e070780c32ea818460405191825260208201526040908101905180910390a160006112ad565b6001600160a01b03831660009081526009602052604081206000906122796136a3565b906101000a900460ff1661228e5760096112a0565b6001600160a01b03841660009081526009602052604090206001600160a01b0384166000908152600291909101602052604090206000906122cd6136a3565b906101000a900460ff166122e25760086112a0565b600060046122ee6136a3565b906101000a90046001600160a01b03166001600160a01b031663fc57d4df856040516001600160e01b031960e084901b1681526001600160a01b039091166004820152602401602060405180830381868061234761375d565b15801561235c57600080612359613638565b50505b505a6123666137a9565b5050505050158015612385573d6000803e3d6000612382613638565b50505b505050506040513d60208110156123a4576000806123a1613638565b50505b810190808051151592506123bc91505057600d6112a0565b6000806123cc8587600087612c4b565b919350909150600090508260118111156123e257fe5b146123fc578160118111156123f357fe5b925050506112ad565b80156121d25760046123f3565b600860205281600052604060002081816124216136a3565b811061242957fe5b90600052602060002060009350019050610ad56136a3565b60006003610ad56136a3565b600080806124596136a3565b906101000a90046001600160a01b03166001600160a01b03165a61247b613859565b6001600160a01b03161461249c5761249560016006612bd4565b9050611775565b6001600160a01b038316600090815260096020526040812090506000816124c16136a3565b906101000a900460ff166124e3576124db60096007612bd4565b915050611775565b6124eb61374c565b60405160208101604052848152905061250261374c565b60405160208101604052670c7d713b49da0000815290506125238183612c3d565b1561253e5761253460066008612bd4565b9350505050611775565b84158015906126165750600060046125546136a3565b906101000a90046001600160a01b03166001600160a01b031663fc57d4df876040516001600160e01b031960e084901b1681526001600160a01b03909116600482015260240160206040518083038186806125ad61375d565b1580156125c2576000806125bf613638565b50505b505a6125cc6137a9565b50505050501580156125eb573d6000803e3d60006125e8613638565b50505b505050506040513d602081101561260a57600080612607613638565b50505b81019080805115925050505b1561262757612534600d6009612bd4565b6000836001016126356136a3565b90508580600186016126456136fe565b5050507f70483e6592cd5182d45ac970e05bc62cdcc90e9d8ef2c2dbe686cf383bcd7fc587828860405180846001600160a01b03166001600160a01b03168152602001838152602001828152602001935050505060405180910390a16000979650505050505050565b60056112696136a3565b60006112aa8484846131a9565b6000818180806001600160a01b03841663c37f68e25a6126e3613859565b6040516001600160e01b031960e084901b1681526001600160a01b039091166004820152602401608060405180830381868061271d61375d565b1580156127325760008061272f613638565b50505b505a61273c6137a9565b505050505015801561275b573d6000803e3d6000612758613638565b50505b505050506040513d608081101561277a57600080612777613638565b50505b8101908080519291906020018051929190602001805192919060200180515094975092955090935050841591506127ed90505760405162461bcd60e51b8152600401808060200182810382526025815260200180613a3760259139604001915050604051809103906127ea613638565b50505b801561280a576127ff600c6002612bd4565b945050505050610c0e565b600061281f875a612819613859565b856131a9565b9050801561284057612834600e600383613292565b95505050505050610c0e565b6001600160a01b038516600090815260096020526040812090508060020160005a612869613859565b6001600160a01b03166001600160a01b031681526020019081526020016000206000906128946136a3565b906101000a900460ff166128b15760009650505050505050610c0e565b8060020160005a6128c0613859565b6001600160a01b03166001600160a01b031681526020019081526020016000206001816128eb6136a3565b9060ff021916906128fa6136fe565b50506060600860005a61290b613859565b6001600160a01b03166001600160a01b03168152602001908152602001600020806129346136a3565b8060200260200160405190810160405281815291906020830182806129576136a3565b80156129a457602002820191906000526020600020905b6000826129796136a3565b906101000a90046001600160a01b03166001600160a01b03168152602001906001019080831161296e575b505050505090506000815190508060005b828110156129fa57896001600160a01b03168482815181106129d357fe5b60200260200101516001600160a01b031614156129f2578091506129fa565b6001016129b5565b50818110612a0457fe5b6000600860005a612a13613859565b6001600160a01b03166001600160a01b0316815260200190815260200160002090508060018280612a426136a3565b90500381612a4e6136a3565b8110612a5657fe5b90600052602060002001600090612a6b6136a3565b906101000a90046001600160a01b0316818381612a866136a3565b8110612a8e57fe5b90600052602060002001600181612aa36136a3565b816001600160a01b0302191690836001600160a01b0316021790612ac56136fe565b5050508080612ad26136a3565b90612ae190600019830161394f565b507fe699a64c18b07ac5b7301aa273f36a2287239eb9501d81950672794afba29a0d8a5a612b0d613859565b6040516001600160a01b039283168152911660208201526040908101905180910390a160009c9b505050505050505050505050565b600080610ad56136a3565b600080806002612b5b6136a3565b906101000a90046001600160a01b03166001600160a01b03165a612b7d613859565b6001600160a01b031614905060008080612b956136a3565b906101000a90046001600160a01b03166001600160a01b03165a612bb7613859565b6001600160a01b03161490508080612bcc5750815b925050505b90565b6000600080516020613a17833981519152836011811115612bf157fe5b836013811115612bfd57fe5b600060405180848152602001838152602001828152602001935050505060405180910390a18260118111156112ad57fe5b60008151835111159392505050565b600081518351109392505050565b6000806000612c58613983565b6001600160a01b038816600090815260086020528060606040822080612c7c6136a3565b806020026020016040519081016040528181529190602083018280612c9f6136a3565b8015612cec57602002820191906000526020600020905b600082612cc16136a3565b906101000a90046001600160a01b03166001600160a01b031681526020019060010190808311612cb6575b50939450600093505050505b81518110156130e6576000828281518110612d0f57fe5b60200260200101519050806001600160a01b031663c37f68e28e6040516001600160e01b031960e084901b1681526001600160a01b0390911660048201526024016080604051808303818680612d6361375d565b158015612d7857600080612d75613638565b50505b505a612d826137a9565b5050505050158015612da1573d6000803e3d6000612d9e613638565b50505b505050506040513d6080811015612dc057600080612dbd613638565b50505b81019080805192919060200180519291906020018051929190602001805160808d01525050506060890152604088015294508415612e0f5750600f97506000965086955061312b945050505050565b604051602080820160409081526001600160a01b03841660009081526009909252829120600101612e3e6136a3565b905260c087015260405180602001604052808760800151905260e087015260006004612e686136a3565b906101000a90046001600160a01b03166001600160a01b031663fc57d4df826040516001600160e01b031960e084901b1681526001600160a01b0390911660048201526024016020604051808303818680612ec161375d565b158015612ed657600080612ed3613638565b50505b505a612ee06137a9565b5050505050158015612eff573d6000803e3d6000612efc613638565b50505b505050506040513d6020811015612f1e57600080612f1b613638565b50505b81019080805160a08a019081529250505051612f4b5750600d97506000965086955061312b945050505050565b60405180602001604052808760a001519052610100870152612f7b60c08701518760e001518861010001516132eb565b61012088015293506000846003811115612f9157fe5b14612fad5750600b97506000965086955061312b945050505050565b612fc286610120015187604001518851613343565b875293506000846003811115612fd457fe5b14612ff05750600b97506000965086955061312b945050505050565b61300886610100015187606001518860200151613343565b60208801529350600084600381111561301d57fe5b146130395750600b97506000965086955061312b945050505050565b8b6001600160a01b0316816001600160a01b031614156130dd576130678661012001518c8860200151613343565b60208801529350600084600381111561307c57fe5b146130985750600b97506000965086955061312b945050505050565b6130ac8661010001518b8860200151613343565b6020880152935060008460038111156130c157fe5b146130dd5750600b97506000965086955061312b945050505050565b50600101612cf8565b50836020015184511115613112576000846020015185510360008090509650965096505050505061312b565b6000808551866020015103819150965096509650505050505b9450945094915050565b6000806000613148846000806000612c4b565b9250925092509193909250565b600080600061316261374c565b61316c8686613390565b9092509050600082600381111561317f57fe5b1461319057509150600090506131a2565b600061319b826133f6565b9350935050505b9250929050565b6001600160a01b03831660009081526009602052604081206000906131cc6136a3565b906101000a900460ff166131e15760096112a0565b6001600160a01b03841660009081526009602052604090206001600160a01b0384166000908152600291909101602052604090206000906132206136a3565b906101000a900460ff166132355760006112a0565b6000806123cc8587866000612c4b565b600061324f61374c565b6132716040516020810160409081528682525160208101604052858152613411565b915091509250929050565b600061328661374c565b613271845184516134f6565b6000600080516020613a178339815191528460118111156132af57fe5b8460138111156132bb57fe5b8460405180848152602001838152602001828152602001935050505060405180910390a18360118111156112aa57fe5b60006132f561374c565b60006132ff61374c565b6133098787613411565b9092509050600082600381111561331c57fe5b1461332b579092509050612007565b6133358186613411565b935093505050935093915050565b600080600061335061374c565b61335a8787613390565b9092509050600082600381111561336d57fe5b1461337e5750915060009050612007565b61333561338a826133f6565b866135a8565b600061339a61374c565b6000806133a88651866135ce565b909250905060008260038111156133bb57fe5b146133dc5781604051602081016040526000815290945092506131a2915050565b600060405160208101604052918252969095509350505050565b6000670de0b6b3a764000082518161340a57fe5b0492915050565b600061341b61374c565b60008061342a865186516135ce565b9092509050600082600381111561343d57fe5b1461345e5781604051602081016040526000815290945092506131a2915050565b6000806134736706f05b59d3b20000846135a8565b9092509050600082600381111561348657fe5b146134a95781604051602081016040526000815290965094506131a29350505050565b6000806134be83670de0b6b3a764000061360d565b909250905060008260038111156134d157fe5b146134d857fe5b6000604051602081016040529182529a909950975050505050505050565b600061350061374c565b60008061351586670de0b6b3a76400006135ce565b9092509050600082600381111561352857fe5b146135495781604051602081016040526000815290945092506131a2915050565b600080613556838861360d565b9092509050600082600381111561356957fe5b1461358c5781604051602081016040526000815290965094506131a29350505050565b6000604051602081016040529182529890975095505050505050565b6000808383018481106135c0576000925090506131a2565b5060029150600090506131a2565b600080836135e1575060009050806131a2565b838302838582816135ee57fe5b0414613602575060029150600090506131a2565b6000925090506131a2565b6000808261362157506001905060006131a2565b600083858161362c57fe5b04915091509250929050565b632a2a7adb598160e01b8152600481016020815285602082015260005b86811015613670578086015182820160400152602001613655565b506020828760640184336000905af158601d01573d60011458600c01573d6000803e3d621234565260ea61109c52505050565b6303daa959598160e01b8152836004820152602081602483336000905af158601d01573d60011458600c01573d6000803e3d621234565260ea61109c528051935060005b60408110156114cf576000828201526020016136e7565b6322bd64c0598160e01b8152836004820152846024820152600081604483336000905af158601d01573d60011458600c01573d6000803e3d621234565260ea61109c526000815260206136e7565b604051602081016040526000815290565b638435035b598160e01b8152836004820152602081602483336000905af158601d01573d60011458600c01573d6000803e3d621234565260ea61109c52805160008252935060206136e7565b638540661f598160e01b8152836004820152846024820152606060448201528660648201526084810160005b888110156137ed5780880151828201526020016137d5565b506060828960a40184336000905af158601d01573d60011458600c01573d6000803e3d621234565260ea61109c52815160408301513d6000853e8b8b82606087013350600060045af15059845b8181101561384e576000815260200161383a565b50919b505050505050565b6373509064598160e01b8152602081600483336000905af158601d01573d60011458600c01573d6000803e3d621234565260ea61109c52805160008252935060206136e7565b6385979f76598160e01b8152836004820152846024820152606060448201528760648201526084810160005b898110156138e35780890151828201526020016138cb565b506060828a60a40184336000905af158601d01573d60011458600c01573d6000803e3d621234565260ea61109c52815160408301513d6000853e8c8c82606087013350600060045af15059845b818110156139445760008152602001613930565b50919c505050505050565b816139586136a3565b81836139626136fe565b5050818111156114cf57818360005260206000206114cf92810191016139ed565b6040518061014001604052806000815260200160008152602001600081526020016000815260200160008152602001600081526020016139c161374c565b81526020016139ce61374c565b81526020016139db61374c565b81526020016139e861374c565b905290565b612bd191905b80821115613a125760008082613a076136fe565b5050506001016139f3565b509056fe45b96fe442630264581b197e84bbada861235052c5a1aadfff9ea4e40a969aa0657869744d61726b65743a206765744163636f756e74536e617073686f74206661696c65646f6e6c7920756e6974726f6c6c65722061646d696e2063616e206368616e676520627261696e73",
  "source": "pragma solidity ^0.5.16;\n\nimport \"./CToken.sol\";\nimport \"./ErrorReporter.sol\";\nimport \"./Exponential.sol\";\nimport \"./PriceOracle.sol\";\nimport \"./ComptrollerInterface.sol\";\nimport \"./ComptrollerStorage.sol\";\nimport \"./Unitroller.sol\";\n\n/**\n * @title Compound's Comptroller Contract\n * @author Compound\n * @dev This was the first version of the Comptroller brains.\n *  We keep it so our tests can continue to do the real-life behavior of upgrading from this logic forward.\n */\ncontract ComptrollerG1 is ComptrollerV1Storage, ComptrollerInterface, ComptrollerErrorReporter, Exponential {\n    struct Market {\n        /**\n         * @notice Whether or not this market is listed\n         */\n        bool isListed;\n\n        /**\n         * @notice Multiplier representing the most one can borrow against their collateral in this market.\n         *  For instance, 0.9 to allow borrowing 90% of collateral value.\n         *  Must be between 0 and 1, and stored as a mantissa.\n         */\n        uint collateralFactorMantissa;\n\n        /**\n         * @notice Per-market mapping of \"accounts in this asset\"\n         */\n        mapping(address => bool) accountMembership;\n    }\n\n    /**\n     * @notice Official mapping of cTokens -> Market metadata\n     * @dev Used e.g. to determine if a market is supported\n     */\n    mapping(address => Market) public markets;\n\n    /**\n     * @notice Emitted when an admin supports a market\n     */\n    event MarketListed(CToken cToken);\n\n    /**\n     * @notice Emitted when an account enters a market\n     */\n    event MarketEntered(CToken cToken, address account);\n\n    /**\n     * @notice Emitted when an account exits a market\n     */\n    event MarketExited(CToken cToken, address account);\n\n    /**\n     * @notice Emitted when close factor is changed by admin\n     */\n    event NewCloseFactor(uint oldCloseFactorMantissa, uint newCloseFactorMantissa);\n\n    /**\n     * @notice Emitted when a collateral factor is changed by admin\n     */\n    event NewCollateralFactor(CToken cToken, uint oldCollateralFactorMantissa, uint newCollateralFactorMantissa);\n\n    /**\n     * @notice Emitted when liquidation incentive is changed by admin\n     */\n    event NewLiquidationIncentive(uint oldLiquidationIncentiveMantissa, uint newLiquidationIncentiveMantissa);\n\n    /**\n     * @notice Emitted when maxAssets is changed by admin\n     */\n    event NewMaxAssets(uint oldMaxAssets, uint newMaxAssets);\n\n    /**\n     * @notice Emitted when price oracle is changed\n     */\n    event NewPriceOracle(PriceOracle oldPriceOracle, PriceOracle newPriceOracle);\n\n    // closeFactorMantissa must be strictly greater than this value\n    uint constant closeFactorMinMantissa = 5e16; // 0.05\n\n    // closeFactorMantissa must not exceed this value\n    uint constant closeFactorMaxMantissa = 9e17; // 0.9\n\n    // No collateralFactorMantissa may exceed this value\n    uint constant collateralFactorMaxMantissa = 9e17; // 0.9\n\n    // liquidationIncentiveMantissa must be no less than this value\n    uint constant liquidationIncentiveMinMantissa = mantissaOne;\n\n    // liquidationIncentiveMantissa must be no greater than this value\n    uint constant liquidationIncentiveMaxMantissa = 15e17; // 1.5\n\n    constructor() public {\n        admin = msg.sender;\n    }\n\n    /*** Assets You Are In ***/\n\n    /**\n     * @notice Returns the assets an account has entered\n     * @param account The address of the account to pull assets for\n     * @return A dynamic list with the assets the account has entered\n     */\n    function getAssetsIn(address account) external view returns (CToken[] memory) {\n        CToken[] memory assetsIn = accountAssets[account];\n\n        return assetsIn;\n    }\n\n    /**\n     * @notice Returns whether the given account is entered in the given asset\n     * @param account The address of the account to check\n     * @param cToken The cToken to check\n     * @return True if the account is in the asset, otherwise false.\n     */\n    function checkMembership(address account, CToken cToken) external view returns (bool) {\n        return markets[address(cToken)].accountMembership[account];\n    }\n\n    /**\n     * @notice Add assets to be included in account liquidity calculation\n     * @param cTokens The list of addresses of the cToken markets to be enabled\n     * @return Success indicator for whether each corresponding market was entered\n     */\n    function enterMarkets(address[] memory cTokens) public returns (uint[] memory) {\n        uint len = cTokens.length;\n\n        uint[] memory results = new uint[](len);\n        for (uint i = 0; i < len; i++) {\n            CToken cToken = CToken(cTokens[i]);\n            Market storage marketToJoin = markets[address(cToken)];\n\n            if (!marketToJoin.isListed) {\n                // if market is not listed, cannot join move along\n                results[i] = uint(Error.MARKET_NOT_LISTED);\n                continue;\n            }\n\n            if (marketToJoin.accountMembership[msg.sender] == true) {\n                // if already joined, move along\n                results[i] = uint(Error.NO_ERROR);\n                continue;\n            }\n\n            if (accountAssets[msg.sender].length >= maxAssets)  {\n                // if no space, cannot join, move along\n                results[i] = uint(Error.TOO_MANY_ASSETS);\n                continue;\n            }\n\n            // survived the gauntlet, add to list\n            // NOTE: we store these somewhat redundantly as a significant optimization\n            //  this avoids having to iterate through the list for the most common use cases\n            //  that is, only when we need to perform liquidity checks\n            //   and not whenever we want to check if an account is in a particular market\n            marketToJoin.accountMembership[msg.sender] = true;\n            accountAssets[msg.sender].push(cToken);\n\n            emit MarketEntered(cToken, msg.sender);\n\n            results[i] = uint(Error.NO_ERROR);\n        }\n\n        return results;\n    }\n\n    /**\n     * @notice Removes asset from sender's account liquidity calculation\n     * @dev Sender must not have an outstanding borrow balance in the asset,\n     *  or be providing neccessary collateral for an outstanding borrow.\n     * @param cTokenAddress The address of the asset to be removed\n     * @return Whether or not the account successfully exited the market\n     */\n    function exitMarket(address cTokenAddress) external returns (uint) {\n        CToken cToken = CToken(cTokenAddress);\n        /* Get sender tokensHeld and amountOwed underlying from the cToken */\n        (uint oErr, uint tokensHeld, uint amountOwed, ) = cToken.getAccountSnapshot(msg.sender);\n        require(oErr == 0, \"exitMarket: getAccountSnapshot failed\"); // semi-opaque error code\n\n        /* Fail if the sender has a borrow balance */\n        if (amountOwed != 0) {\n            return fail(Error.NONZERO_BORROW_BALANCE, FailureInfo.EXIT_MARKET_BALANCE_OWED);\n        }\n\n        /* Fail if the sender is not permitted to redeem all of their tokens */\n        uint allowed = redeemAllowedInternal(cTokenAddress, msg.sender, tokensHeld);\n        if (allowed != 0) {\n            return failOpaque(Error.REJECTION, FailureInfo.EXIT_MARKET_REJECTION, allowed);\n        }\n\n        Market storage marketToExit = markets[address(cToken)];\n\n        /* Return true if the sender is not already in the market */\n        if (!marketToExit.accountMembership[msg.sender]) {\n            return uint(Error.NO_ERROR);\n        }\n\n        /* Set cToken account membership to false */\n        delete marketToExit.accountMembership[msg.sender];\n\n        /* Delete cToken from the accounts list of assets */\n        // load into memory for faster iteration\n        CToken[] memory userAssetList = accountAssets[msg.sender];\n        uint len = userAssetList.length;\n        uint assetIndex = len;\n        for (uint i = 0; i < len; i++) {\n            if (userAssetList[i] == cToken) {\n                assetIndex = i;\n                break;\n            }\n        }\n\n        // We *must* have found the asset in the list or our redundant data structure is broken\n        assert(assetIndex < len);\n\n        // copy last item in list to location of item to be removed, reduce length by 1\n        CToken[] storage storedList = accountAssets[msg.sender];\n        storedList[assetIndex] = storedList[storedList.length - 1];\n        storedList.length--;\n\n        emit MarketExited(cToken, msg.sender);\n\n        return uint(Error.NO_ERROR);\n    }\n\n    /*** Policy Hooks ***/\n\n    /**\n     * @notice Checks if the account should be allowed to mint tokens in the given market\n     * @param cToken The market to verify the mint against\n     * @param minter The account which would get the minted tokens\n     * @param mintAmount The amount of underlying being supplied to the market in exchange for tokens\n     * @return 0 if the mint is allowed, otherwise a semi-opaque error code (See ErrorReporter.sol)\n     */\n    function mintAllowed(address cToken, address minter, uint mintAmount) external returns (uint) {\n        minter;       // currently unused\n        mintAmount;   // currently unused\n\n        if (!markets[cToken].isListed) {\n            return uint(Error.MARKET_NOT_LISTED);\n        }\n\n        // *may include Policy Hook-type checks\n\n        return uint(Error.NO_ERROR);\n    }\n\n    /**\n     * @notice Validates mint and reverts on rejection. May emit logs.\n     * @param cToken Asset being minted\n     * @param minter The address minting the tokens\n     * @param mintAmount The amount of the underlying asset being minted\n     * @param mintTokens The number of tokens being minted\n     */\n    function mintVerify(address cToken, address minter, uint mintAmount, uint mintTokens) external {\n        cToken;       // currently unused\n        minter;       // currently unused\n        mintAmount;   // currently unused\n        mintTokens;   // currently unused\n\n        if (false) {\n            maxAssets = maxAssets; // not pure\n        }\n    }\n\n    /**\n     * @notice Checks if the account should be allowed to redeem tokens in the given market\n     * @param cToken The market to verify the redeem against\n     * @param redeemer The account which would redeem the tokens\n     * @param redeemTokens The number of cTokens to exchange for the underlying asset in the market\n     * @return 0 if the redeem is allowed, otherwise a semi-opaque error code (See ErrorReporter.sol)\n     */\n    function redeemAllowed(address cToken, address redeemer, uint redeemTokens) external returns (uint) {\n        return redeemAllowedInternal(cToken, redeemer, redeemTokens);\n    }\n\n    function redeemAllowedInternal(address cToken, address redeemer, uint redeemTokens) internal view returns (uint) {\n        if (!markets[cToken].isListed) {\n            return uint(Error.MARKET_NOT_LISTED);\n        }\n\n        // *may include Policy Hook-type checks\n\n        /* If the redeemer is not 'in' the market, then we can bypass the liquidity check */\n        if (!markets[cToken].accountMembership[redeemer]) {\n            return uint(Error.NO_ERROR);\n        }\n\n        /* Otherwise, perform a hypothetical liquidity check to guard against shortfall */\n        (Error err, , uint shortfall) = getHypotheticalAccountLiquidityInternal(redeemer, CToken(cToken), redeemTokens, 0);\n        if (err != Error.NO_ERROR) {\n            return uint(err);\n        }\n        if (shortfall > 0) {\n            return uint(Error.INSUFFICIENT_LIQUIDITY);\n        }\n\n        return uint(Error.NO_ERROR);\n    }\n\n    /**\n     * @notice Validates redeem and reverts on rejection. May emit logs.\n     * @param cToken Asset being redeemed\n     * @param redeemer The address redeeming the tokens\n     * @param redeemAmount The amount of the underlying asset being redeemed\n     * @param redeemTokens The number of tokens being redeemed\n     */\n    function redeemVerify(address cToken, address redeemer, uint redeemAmount, uint redeemTokens) external {\n        cToken;         // currently unused\n        redeemer;       // currently unused\n        redeemAmount;   // currently unused\n        redeemTokens;   // currently unused\n\n        // Require tokens is zero or amount is also zero\n        if (redeemTokens == 0 && redeemAmount > 0) {\n            revert(\"redeemTokens zero\");\n        }\n    }\n\n    /**\n     * @notice Checks if the account should be allowed to borrow the underlying asset of the given market\n     * @param cToken The market to verify the borrow against\n     * @param borrower The account which would borrow the asset\n     * @param borrowAmount The amount of underlying the account would borrow\n     * @return 0 if the borrow is allowed, otherwise a semi-opaque error code (See ErrorReporter.sol)\n     */\n    function borrowAllowed(address cToken, address borrower, uint borrowAmount) external returns (uint) {\n        if (!markets[cToken].isListed) {\n            return uint(Error.MARKET_NOT_LISTED);\n        }\n\n        // *may include Policy Hook-type checks\n\n        if (!markets[cToken].accountMembership[borrower]) {\n            return uint(Error.MARKET_NOT_ENTERED);\n        }\n\n        if (oracle.getUnderlyingPrice(CToken(cToken)) == 0) {\n            return uint(Error.PRICE_ERROR);\n        }\n\n        (Error err, , uint shortfall) = getHypotheticalAccountLiquidityInternal(borrower, CToken(cToken), 0, borrowAmount);\n        if (err != Error.NO_ERROR) {\n            return uint(err);\n        }\n        if (shortfall > 0) {\n            return uint(Error.INSUFFICIENT_LIQUIDITY);\n        }\n\n        return uint(Error.NO_ERROR);\n    }\n\n    /**\n     * @notice Validates borrow and reverts on rejection. May emit logs.\n     * @param cToken Asset whose underlying is being borrowed\n     * @param borrower The address borrowing the underlying\n     * @param borrowAmount The amount of the underlying asset requested to borrow\n     */\n    function borrowVerify(address cToken, address borrower, uint borrowAmount) external {\n        cToken;         // currently unused\n        borrower;       // currently unused\n        borrowAmount;   // currently unused\n\n        if (false) {\n            maxAssets = maxAssets; // not pure\n        }\n    }\n\n    /**\n     * @notice Checks if the account should be allowed to repay a borrow in the given market\n     * @param cToken The market to verify the repay against\n     * @param payer The account which would repay the asset\n     * @param borrower The account which would borrowed the asset\n     * @param repayAmount The amount of the underlying asset the account would repay\n     * @return 0 if the repay is allowed, otherwise a semi-opaque error code (See ErrorReporter.sol)\n     */\n    function repayBorrowAllowed(\n        address cToken,\n        address payer,\n        address borrower,\n        uint repayAmount) external returns (uint) {\n        payer;         // currently unused\n        borrower;      // currently unused\n        repayAmount;   // currently unused\n\n        if (!markets[cToken].isListed) {\n            return uint(Error.MARKET_NOT_LISTED);\n        }\n\n        // *may include Policy Hook-type checks\n\n        return uint(Error.NO_ERROR);\n    }\n\n    /**\n     * @notice Validates repayBorrow and reverts on rejection. May emit logs.\n     * @param cToken Asset being repaid\n     * @param payer The address repaying the borrow\n     * @param borrower The address of the borrower\n     * @param repayAmount The amount of underlying being repaid\n     */\n    function repayBorrowVerify(\n        address cToken,\n        address payer,\n        address borrower,\n        uint repayAmount,\n        uint borrowerIndex) external {\n        cToken;        // currently unused\n        payer;         // currently unused\n        borrower;      // currently unused\n        repayAmount;   // currently unused\n        borrowerIndex; // currently unused\n\n        if (false) {\n            maxAssets = maxAssets; // not pure\n        }\n    }\n\n    /**\n     * @notice Checks if the liquidation should be allowed to occur\n     * @param cTokenBorrowed Asset which was borrowed by the borrower\n     * @param cTokenCollateral Asset which was used as collateral and will be seized\n     * @param liquidator The address repaying the borrow and seizing the collateral\n     * @param borrower The address of the borrower\n     * @param repayAmount The amount of underlying being repaid\n     */\n    function liquidateBorrowAllowed(\n        address cTokenBorrowed,\n        address cTokenCollateral,\n        address liquidator,\n        address borrower,\n        uint repayAmount) external returns (uint) {\n        liquidator;   // currently unused\n        borrower;     // currently unused\n        repayAmount;  // currently unused\n\n        if (!markets[cTokenBorrowed].isListed || !markets[cTokenCollateral].isListed) {\n            return uint(Error.MARKET_NOT_LISTED);\n        }\n\n        // *may include Policy Hook-type checks\n\n        /* The borrower must have shortfall in order to be liquidatable */\n        (Error err, , uint shortfall) = getAccountLiquidityInternal(borrower);\n        if (err != Error.NO_ERROR) {\n            return uint(err);\n        }\n        if (shortfall == 0) {\n            return uint(Error.INSUFFICIENT_SHORTFALL);\n        }\n\n        /* The liquidator may not repay more than what is allowed by the closeFactor */\n        uint borrowBalance = CToken(cTokenBorrowed).borrowBalanceStored(borrower);\n        (MathError mathErr, uint maxClose) = mulScalarTruncate(Exp({mantissa: closeFactorMantissa}), borrowBalance);\n        if (mathErr != MathError.NO_ERROR) {\n            return uint(Error.MATH_ERROR);\n        }\n        if (repayAmount > maxClose) {\n            return uint(Error.TOO_MUCH_REPAY);\n        }\n\n        return uint(Error.NO_ERROR);\n    }\n\n    /**\n     * @notice Validates liquidateBorrow and reverts on rejection. May emit logs.\n     * @param cTokenBorrowed Asset which was borrowed by the borrower\n     * @param cTokenCollateral Asset which was used as collateral and will be seized\n     * @param liquidator The address repaying the borrow and seizing the collateral\n     * @param borrower The address of the borrower\n     * @param repayAmount The amount of underlying being repaid\n     */\n    function liquidateBorrowVerify(\n        address cTokenBorrowed,\n        address cTokenCollateral,\n        address liquidator,\n        address borrower,\n        uint repayAmount,\n        uint seizeTokens) external {\n        cTokenBorrowed;   // currently unused\n        cTokenCollateral; // currently unused\n        liquidator;       // currently unused\n        borrower;         // currently unused\n        repayAmount;      // currently unused\n        seizeTokens;      // currently unused\n\n        if (false) {\n            maxAssets = maxAssets; // not pure\n        }\n    }\n\n    /**\n     * @notice Checks if the seizing of assets should be allowed to occur\n     * @param cTokenCollateral Asset which was used as collateral and will be seized\n     * @param cTokenBorrowed Asset which was borrowed by the borrower\n     * @param liquidator The address repaying the borrow and seizing the collateral\n     * @param borrower The address of the borrower\n     * @param seizeTokens The number of collateral tokens to seize\n     */\n    function seizeAllowed(\n        address cTokenCollateral,\n        address cTokenBorrowed,\n        address liquidator,\n        address borrower,\n        uint seizeTokens) external returns (uint) {\n        liquidator;       // currently unused\n        borrower;         // currently unused\n        seizeTokens;      // currently unused\n\n        if (!markets[cTokenCollateral].isListed || !markets[cTokenBorrowed].isListed) {\n            return uint(Error.MARKET_NOT_LISTED);\n        }\n\n        if (CToken(cTokenCollateral).comptroller() != CToken(cTokenBorrowed).comptroller()) {\n            return uint(Error.COMPTROLLER_MISMATCH);\n        }\n\n        // *may include Policy Hook-type checks\n\n        return uint(Error.NO_ERROR);\n    }\n\n    /**\n     * @notice Validates seize and reverts on rejection. May emit logs.\n     * @param cTokenCollateral Asset which was used as collateral and will be seized\n     * @param cTokenBorrowed Asset which was borrowed by the borrower\n     * @param liquidator The address repaying the borrow and seizing the collateral\n     * @param borrower The address of the borrower\n     * @param seizeTokens The number of collateral tokens to seize\n     */\n    function seizeVerify(\n        address cTokenCollateral,\n        address cTokenBorrowed,\n        address liquidator,\n        address borrower,\n        uint seizeTokens) external {\n        cTokenCollateral; // currently unused\n        cTokenBorrowed;   // currently unused\n        liquidator;       // currently unused\n        borrower;         // currently unused\n        seizeTokens;      // currently unused\n\n        if (false) {\n            maxAssets = maxAssets; // not pure\n        }\n    }\n\n    /**\n     * @notice Checks if the account should be allowed to transfer tokens in the given market\n     * @param cToken The market to verify the transfer against\n     * @param src The account which sources the tokens\n     * @param dst The account which receives the tokens\n     * @param transferTokens The number of cTokens to transfer\n     * @return 0 if the transfer is allowed, otherwise a semi-opaque error code (See ErrorReporter.sol)\n     */\n    function transferAllowed(address cToken, address src, address dst, uint transferTokens) external returns (uint) {\n        cToken;         // currently unused\n        src;            // currently unused\n        dst;            // currently unused\n        transferTokens; // currently unused\n\n        // *may include Policy Hook-type checks\n\n        // Currently the only consideration is whether or not\n        //  the src is allowed to redeem this many tokens\n        return redeemAllowedInternal(cToken, src, transferTokens);\n    }\n\n    /**\n     * @notice Validates transfer and reverts on rejection. May emit logs.\n     * @param cToken Asset being transferred\n     * @param src The account which sources the tokens\n     * @param dst The account which receives the tokens\n     * @param transferTokens The number of cTokens to transfer\n     */\n    function transferVerify(address cToken, address src, address dst, uint transferTokens) external {\n        cToken;         // currently unused\n        src;            // currently unused\n        dst;            // currently unused\n        transferTokens; // currently unused\n\n        if (false) {\n            maxAssets = maxAssets; // not pure\n        }\n    }\n\n    /*** Liquidity/Liquidation Calculations ***/\n\n    /**\n     * @dev Local vars for avoiding stack-depth limits in calculating account liquidity.\n     *  Note that `cTokenBalance` is the number of cTokens the account owns in the market,\n     *  whereas `borrowBalance` is the amount of underlying that the account has borrowed.\n     */\n    struct AccountLiquidityLocalVars {\n        uint sumCollateral;\n        uint sumBorrowPlusEffects;\n        uint cTokenBalance;\n        uint borrowBalance;\n        uint exchangeRateMantissa;\n        uint oraclePriceMantissa;\n        Exp collateralFactor;\n        Exp exchangeRate;\n        Exp oraclePrice;\n        Exp tokensToEther;\n    }\n\n    /**\n     * @notice Determine the current account liquidity wrt collateral requirements\n     * @return (possible error code (semi-opaque),\n                account liquidity in excess of collateral requirements,\n     *          account shortfall below collateral requirements)\n     */\n    function getAccountLiquidity(address account) public view returns (uint, uint, uint) {\n        (Error err, uint liquidity, uint shortfall) = getHypotheticalAccountLiquidityInternal(account, CToken(0), 0, 0);\n\n        return (uint(err), liquidity, shortfall);\n    }\n\n    /**\n     * @notice Determine the current account liquidity wrt collateral requirements\n     * @return (possible error code,\n                account liquidity in excess of collateral requirements,\n     *          account shortfall below collateral requirements)\n     */\n    function getAccountLiquidityInternal(address account) internal view returns (Error, uint, uint) {\n        return getHypotheticalAccountLiquidityInternal(account, CToken(0), 0, 0);\n    }\n\n    /**\n     * @notice Determine what the account liquidity would be if the given amounts were redeemed/borrowed\n     * @param cTokenModify The market to hypothetically redeem/borrow in\n     * @param account The account to determine liquidity for\n     * @param redeemTokens The number of tokens to hypothetically redeem\n     * @param borrowAmount The amount of underlying to hypothetically borrow\n     * @dev Note that we calculate the exchangeRateStored for each collateral cToken using stored data,\n     *  without calculating accumulated interest.\n     * @return (possible error code,\n                hypothetical account liquidity in excess of collateral requirements,\n     *          hypothetical account shortfall below collateral requirements)\n     */\n    function getHypotheticalAccountLiquidityInternal(\n        address account,\n        CToken cTokenModify,\n        uint redeemTokens,\n        uint borrowAmount) internal view returns (Error, uint, uint) {\n\n        AccountLiquidityLocalVars memory vars; // Holds all our calculation results\n        uint oErr;\n        MathError mErr;\n\n        // For each asset the account is in\n        CToken[] memory assets = accountAssets[account];\n        for (uint i = 0; i < assets.length; i++) {\n            CToken asset = assets[i];\n\n            // Read the balances and exchange rate from the cToken\n            (oErr, vars.cTokenBalance, vars.borrowBalance, vars.exchangeRateMantissa) = asset.getAccountSnapshot(account);\n            if (oErr != 0) { // semi-opaque error code, we assume NO_ERROR == 0 is invariant between upgrades\n                return (Error.SNAPSHOT_ERROR, 0, 0);\n            }\n            vars.collateralFactor = Exp({mantissa: markets[address(asset)].collateralFactorMantissa});\n            vars.exchangeRate = Exp({mantissa: vars.exchangeRateMantissa});\n\n            // Get the normalized price of the asset\n            vars.oraclePriceMantissa = oracle.getUnderlyingPrice(asset);\n            if (vars.oraclePriceMantissa == 0) {\n                return (Error.PRICE_ERROR, 0, 0);\n            }\n            vars.oraclePrice = Exp({mantissa: vars.oraclePriceMantissa});\n\n            // Pre-compute a conversion factor from tokens -> ether (normalized price value)\n            (mErr, vars.tokensToEther) = mulExp3(vars.collateralFactor, vars.exchangeRate, vars.oraclePrice);\n            if (mErr != MathError.NO_ERROR) {\n                return (Error.MATH_ERROR, 0, 0);\n            }\n\n            // sumCollateral += tokensToEther * cTokenBalance\n            (mErr, vars.sumCollateral) = mulScalarTruncateAddUInt(vars.tokensToEther, vars.cTokenBalance, vars.sumCollateral);\n            if (mErr != MathError.NO_ERROR) {\n                return (Error.MATH_ERROR, 0, 0);\n            }\n\n            // sumBorrowPlusEffects += oraclePrice * borrowBalance\n            (mErr, vars.sumBorrowPlusEffects) = mulScalarTruncateAddUInt(vars.oraclePrice, vars.borrowBalance, vars.sumBorrowPlusEffects);\n            if (mErr != MathError.NO_ERROR) {\n                return (Error.MATH_ERROR, 0, 0);\n            }\n\n            // Calculate effects of interacting with cTokenModify\n            if (asset == cTokenModify) {\n                // redeem effect\n                // sumBorrowPlusEffects += tokensToEther * redeemTokens\n                (mErr, vars.sumBorrowPlusEffects) = mulScalarTruncateAddUInt(vars.tokensToEther, redeemTokens, vars.sumBorrowPlusEffects);\n                if (mErr != MathError.NO_ERROR) {\n                    return (Error.MATH_ERROR, 0, 0);\n                }\n\n                // borrow effect\n                // sumBorrowPlusEffects += oraclePrice * borrowAmount\n                (mErr, vars.sumBorrowPlusEffects) = mulScalarTruncateAddUInt(vars.oraclePrice, borrowAmount, vars.sumBorrowPlusEffects);\n                if (mErr != MathError.NO_ERROR) {\n                    return (Error.MATH_ERROR, 0, 0);\n                }\n            }\n        }\n\n        // These are safe, as the underflow condition is checked first\n        if (vars.sumCollateral > vars.sumBorrowPlusEffects) {\n            return (Error.NO_ERROR, vars.sumCollateral - vars.sumBorrowPlusEffects, 0);\n        } else {\n            return (Error.NO_ERROR, 0, vars.sumBorrowPlusEffects - vars.sumCollateral);\n        }\n    }\n\n    /**\n     * @notice Calculate number of tokens of collateral asset to seize given an underlying amount\n     * @dev Used in liquidation (called in cToken.liquidateBorrowFresh)\n     * @param cTokenBorrowed The address of the borrowed cToken\n     * @param cTokenCollateral The address of the collateral cToken\n     * @param repayAmount The amount of cTokenBorrowed underlying to convert into cTokenCollateral tokens\n     * @return (errorCode, number of cTokenCollateral tokens to be seized in a liquidation)\n     */\n    function liquidateCalculateSeizeTokens(address cTokenBorrowed, address cTokenCollateral, uint repayAmount) external view returns (uint, uint) {\n        /* Read oracle prices for borrowed and collateral markets */\n        uint priceBorrowedMantissa = oracle.getUnderlyingPrice(CToken(cTokenBorrowed));\n        uint priceCollateralMantissa = oracle.getUnderlyingPrice(CToken(cTokenCollateral));\n        if (priceBorrowedMantissa == 0 || priceCollateralMantissa == 0) {\n            return (uint(Error.PRICE_ERROR), 0);\n        }\n\n        /*\n         * Get the exchange rate and calculate the number of collateral tokens to seize:\n         *  seizeAmount = repayAmount * liquidationIncentive * priceBorrowed / priceCollateral\n         *  seizeTokens = seizeAmount / exchangeRate\n         *   = repayAmount * (liquidationIncentive * priceBorrowed) / (priceCollateral * exchangeRate)\n         */\n        uint exchangeRateMantissa = CToken(cTokenCollateral).exchangeRateStored(); // Note: reverts on error\n        uint seizeTokens;\n        Exp memory numerator;\n        Exp memory denominator;\n        Exp memory ratio;\n        MathError mathErr;\n\n        (mathErr, numerator) = mulExp(liquidationIncentiveMantissa, priceBorrowedMantissa);\n        if (mathErr != MathError.NO_ERROR) {\n            return (uint(Error.MATH_ERROR), 0);\n        }\n\n        (mathErr, denominator) = mulExp(priceCollateralMantissa, exchangeRateMantissa);\n        if (mathErr != MathError.NO_ERROR) {\n            return (uint(Error.MATH_ERROR), 0);\n        }\n\n        (mathErr, ratio) = divExp(numerator, denominator);\n        if (mathErr != MathError.NO_ERROR) {\n            return (uint(Error.MATH_ERROR), 0);\n        }\n\n        (mathErr, seizeTokens) = mulScalarTruncate(ratio, repayAmount);\n        if (mathErr != MathError.NO_ERROR) {\n            return (uint(Error.MATH_ERROR), 0);\n        }\n\n        return (uint(Error.NO_ERROR), seizeTokens);\n    }\n\n    /*** Admin Functions ***/\n\n    /**\n      * @notice Sets a new price oracle for the comptroller\n      * @dev Admin function to set a new price oracle\n      * @return uint 0=success, otherwise a failure (see ErrorReporter.sol for details)\n      */\n    function _setPriceOracle(PriceOracle newOracle) public returns (uint) {\n        // Check caller is admin OR currently initialzing as new unitroller implementation\n        if (!adminOrInitializing()) {\n            return fail(Error.UNAUTHORIZED, FailureInfo.SET_PRICE_ORACLE_OWNER_CHECK);\n        }\n\n        // Track the old oracle for the comptroller\n        PriceOracle oldOracle = oracle;\n\n        // Ensure invoke newOracle.isPriceOracle() returns true\n        // require(newOracle.isPriceOracle(), \"oracle method isPriceOracle returned false\");\n\n        // Set comptroller's oracle to newOracle\n        oracle = newOracle;\n\n        // Emit NewPriceOracle(oldOracle, newOracle)\n        emit NewPriceOracle(oldOracle, newOracle);\n\n        return uint(Error.NO_ERROR);\n    }\n\n    /**\n      * @notice Sets the closeFactor used when liquidating borrows\n      * @dev Admin function to set closeFactor\n      * @param newCloseFactorMantissa New close factor, scaled by 1e18\n      * @return uint 0=success, otherwise a failure. (See ErrorReporter for details)\n      */\n    function _setCloseFactor(uint newCloseFactorMantissa) external returns (uint256) {\n        // Check caller is admin OR currently initialzing as new unitroller implementation\n        if (!adminOrInitializing()) {\n            return fail(Error.UNAUTHORIZED, FailureInfo.SET_CLOSE_FACTOR_OWNER_CHECK);\n        }\n\n        Exp memory newCloseFactorExp = Exp({mantissa: newCloseFactorMantissa});\n        Exp memory lowLimit = Exp({mantissa: closeFactorMinMantissa});\n        if (lessThanOrEqualExp(newCloseFactorExp, lowLimit)) {\n            return fail(Error.INVALID_CLOSE_FACTOR, FailureInfo.SET_CLOSE_FACTOR_VALIDATION);\n        }\n\n        Exp memory highLimit = Exp({mantissa: closeFactorMaxMantissa});\n        if (lessThanExp(highLimit, newCloseFactorExp)) {\n            return fail(Error.INVALID_CLOSE_FACTOR, FailureInfo.SET_CLOSE_FACTOR_VALIDATION);\n        }\n\n        uint oldCloseFactorMantissa = closeFactorMantissa;\n        closeFactorMantissa = newCloseFactorMantissa;\n        emit NewCloseFactor(oldCloseFactorMantissa, closeFactorMantissa);\n\n        return uint(Error.NO_ERROR);\n    }\n\n    /**\n      * @notice Sets the collateralFactor for a market\n      * @dev Admin function to set per-market collateralFactor\n      * @param cToken The market to set the factor on\n      * @param newCollateralFactorMantissa The new collateral factor, scaled by 1e18\n      * @return uint 0=success, otherwise a failure. (See ErrorReporter for details)\n      */\n    function _setCollateralFactor(CToken cToken, uint newCollateralFactorMantissa) external returns (uint256) {\n        // Check caller is admin\n        if (msg.sender != admin) {\n            return fail(Error.UNAUTHORIZED, FailureInfo.SET_COLLATERAL_FACTOR_OWNER_CHECK);\n        }\n\n        // Verify market is listed\n        Market storage market = markets[address(cToken)];\n        if (!market.isListed) {\n            return fail(Error.MARKET_NOT_LISTED, FailureInfo.SET_COLLATERAL_FACTOR_NO_EXISTS);\n        }\n\n        Exp memory newCollateralFactorExp = Exp({mantissa: newCollateralFactorMantissa});\n\n        // Check collateral factor <= 0.9\n        Exp memory highLimit = Exp({mantissa: collateralFactorMaxMantissa});\n        if (lessThanExp(highLimit, newCollateralFactorExp)) {\n            return fail(Error.INVALID_COLLATERAL_FACTOR, FailureInfo.SET_COLLATERAL_FACTOR_VALIDATION);\n        }\n\n        // If collateral factor != 0, fail if price == 0\n        if (newCollateralFactorMantissa != 0 && oracle.getUnderlyingPrice(cToken) == 0) {\n            return fail(Error.PRICE_ERROR, FailureInfo.SET_COLLATERAL_FACTOR_WITHOUT_PRICE);\n        }\n\n        // Set market's collateral factor to new collateral factor, remember old value\n        uint oldCollateralFactorMantissa = market.collateralFactorMantissa;\n        market.collateralFactorMantissa = newCollateralFactorMantissa;\n\n        // Emit event with asset, old collateral factor, and new collateral factor\n        emit NewCollateralFactor(cToken, oldCollateralFactorMantissa, newCollateralFactorMantissa);\n\n        return uint(Error.NO_ERROR);\n    }\n\n    /**\n      * @notice Sets maxAssets which controls how many markets can be entered\n      * @dev Admin function to set maxAssets\n      * @param newMaxAssets New max assets\n      * @return uint 0=success, otherwise a failure. (See ErrorReporter for details)\n      */\n    function _setMaxAssets(uint newMaxAssets) external returns (uint) {\n        // Check caller is admin OR currently initialzing as new unitroller implementation\n        if (!adminOrInitializing()) {\n            return fail(Error.UNAUTHORIZED, FailureInfo.SET_MAX_ASSETS_OWNER_CHECK);\n        }\n\n        uint oldMaxAssets = maxAssets;\n        maxAssets = newMaxAssets;\n        emit NewMaxAssets(oldMaxAssets, newMaxAssets);\n\n        return uint(Error.NO_ERROR);\n    }\n\n    /**\n      * @notice Sets liquidationIncentive\n      * @dev Admin function to set liquidationIncentive\n      * @param newLiquidationIncentiveMantissa New liquidationIncentive scaled by 1e18\n      * @return uint 0=success, otherwise a failure. (See ErrorReporter for details)\n      */\n    function _setLiquidationIncentive(uint newLiquidationIncentiveMantissa) external returns (uint) {\n        // Check caller is admin OR currently initialzing as new unitroller implementation\n        if (!adminOrInitializing()) {\n            return fail(Error.UNAUTHORIZED, FailureInfo.SET_LIQUIDATION_INCENTIVE_OWNER_CHECK);\n        }\n\n        // Check de-scaled 1 <= newLiquidationDiscount <= 1.5\n        Exp memory newLiquidationIncentive = Exp({mantissa: newLiquidationIncentiveMantissa});\n        Exp memory minLiquidationIncentive = Exp({mantissa: liquidationIncentiveMinMantissa});\n        if (lessThanExp(newLiquidationIncentive, minLiquidationIncentive)) {\n            return fail(Error.INVALID_LIQUIDATION_INCENTIVE, FailureInfo.SET_LIQUIDATION_INCENTIVE_VALIDATION);\n        }\n\n        Exp memory maxLiquidationIncentive = Exp({mantissa: liquidationIncentiveMaxMantissa});\n        if (lessThanExp(maxLiquidationIncentive, newLiquidationIncentive)) {\n            return fail(Error.INVALID_LIQUIDATION_INCENTIVE, FailureInfo.SET_LIQUIDATION_INCENTIVE_VALIDATION);\n        }\n\n        // Save current value for use in log\n        uint oldLiquidationIncentiveMantissa = liquidationIncentiveMantissa;\n\n        // Set liquidation incentive to new incentive\n        liquidationIncentiveMantissa = newLiquidationIncentiveMantissa;\n\n        // Emit event with old incentive, new incentive\n        emit NewLiquidationIncentive(oldLiquidationIncentiveMantissa, newLiquidationIncentiveMantissa);\n\n        return uint(Error.NO_ERROR);\n    }\n\n    /**\n      * @notice Add the market to the markets mapping and set it as listed\n      * @dev Admin function to set isListed and add support for the market\n      * @param cToken The address of the market (token) to list\n      * @return uint 0=success, otherwise a failure. (See enum Error for details)\n      */\n    function _supportMarket(CToken cToken) external returns (uint) {\n        if (msg.sender != admin) {\n            return fail(Error.UNAUTHORIZED, FailureInfo.SUPPORT_MARKET_OWNER_CHECK);\n        }\n\n        if (markets[address(cToken)].isListed) {\n            return fail(Error.MARKET_ALREADY_LISTED, FailureInfo.SUPPORT_MARKET_EXISTS);\n        }\n\n        cToken.isCToken(); // Sanity check to make sure its really a CToken\n\n        markets[address(cToken)] = Market({isListed: true, collateralFactorMantissa: 0});\n        emit MarketListed(cToken);\n\n        return uint(Error.NO_ERROR);\n    }\n\n    function _become(Unitroller unitroller, PriceOracle _oracle, uint _closeFactorMantissa, uint _maxAssets, bool reinitializing) public {\n        require(msg.sender == unitroller.admin(), \"only unitroller admin can change brains\");\n        uint changeStatus = unitroller._acceptImplementation();\n\n        require(changeStatus == 0, \"change not authorized\");\n\n        if (!reinitializing) {\n            ComptrollerG1 freshBrainedComptroller = ComptrollerG1(address(unitroller));\n\n            // Ensure invoke _setPriceOracle() = 0\n            uint err = freshBrainedComptroller._setPriceOracle(_oracle);\n            require (err == uint(Error.NO_ERROR), \"set price oracle error\");\n\n            // Ensure invoke _setCloseFactor() = 0\n            err = freshBrainedComptroller._setCloseFactor(_closeFactorMantissa);\n            require (err == uint(Error.NO_ERROR), \"set close factor error\");\n\n            // Ensure invoke _setMaxAssets() = 0\n            err = freshBrainedComptroller._setMaxAssets(_maxAssets);\n            require (err == uint(Error.NO_ERROR), \"set max asssets error\");\n\n            // Ensure invoke _setLiquidationIncentive(liquidationIncentiveMinMantissa) = 0\n            err = freshBrainedComptroller._setLiquidationIncentive(liquidationIncentiveMinMantissa);\n            require (err == uint(Error.NO_ERROR), \"set liquidation incentive error\");\n        }\n    }\n\n    /**\n     * @dev Check that caller is admin or this contract is initializing itself as\n     * the new implementation.\n     * There should be no way to satisfy msg.sender == comptrollerImplementaiton\n     * without tx.origin also being admin, but both are included for extra safety\n     */\n    function adminOrInitializing() internal view returns (bool) {\n        bool initializing = (\n                msg.sender == comptrollerImplementation\n                // &&\n                //solium-disable-next-line security/no-tx-origin\n                // tx.origin == admin\n        );\n        bool isAdmin = msg.sender == admin;\n        return isAdmin || initializing;\n    }\n}",
  "sourcePath": "/Users/jesusmeza/Developer/omgx/snapshot-optimism/omgx_examples/compound-protocol/contracts/ComptrollerG1.sol",
  "compiler": {
    "name": "solc",
    "version": "0.5.16"
  },
  "schemaVersion": "3.4.3",
  "updatedAt": "2021-08-25T22:25:24.405Z",
  "devdoc": {
    "author": "Compound",
    "details": "This was the first version of the Comptroller brains. We keep it so our tests can continue to do the real-life behavior of upgrading from this logic forward.",
    "methods": {
      "_setCloseFactor(uint256)": {
        "details": "Admin function to set closeFactor",
        "params": {
          "newCloseFactorMantissa": "New close factor, scaled by 1e18"
        },
        "return": "uint 0=success, otherwise a failure. (See ErrorReporter for details)"
      },
      "_setCollateralFactor(address,uint256)": {
        "details": "Admin function to set per-market collateralFactor",
        "params": {
          "cToken": "The market to set the factor on",
          "newCollateralFactorMantissa": "The new collateral factor, scaled by 1e18"
        },
        "return": "uint 0=success, otherwise a failure. (See ErrorReporter for details)"
      },
      "_setLiquidationIncentive(uint256)": {
        "details": "Admin function to set liquidationIncentive",
        "params": {
          "newLiquidationIncentiveMantissa": "New liquidationIncentive scaled by 1e18"
        },
        "return": "uint 0=success, otherwise a failure. (See ErrorReporter for details)"
      },
      "_setMaxAssets(uint256)": {
        "details": "Admin function to set maxAssets",
        "params": {
          "newMaxAssets": "New max assets"
        },
        "return": "uint 0=success, otherwise a failure. (See ErrorReporter for details)"
      },
      "_setPriceOracle(address)": {
        "details": "Admin function to set a new price oracle",
        "return": "uint 0=success, otherwise a failure (see ErrorReporter.sol for details)"
      },
      "_supportMarket(address)": {
        "details": "Admin function to set isListed and add support for the market",
        "params": {
          "cToken": "The address of the market (token) to list"
        },
        "return": "uint 0=success, otherwise a failure. (See enum Error for details)"
      },
      "borrowAllowed(address,address,uint256)": {
        "params": {
          "borrowAmount": "The amount of underlying the account would borrow",
          "borrower": "The account which would borrow the asset",
          "cToken": "The market to verify the borrow against"
        },
        "return": "0 if the borrow is allowed, otherwise a semi-opaque error code (See ErrorReporter.sol)"
      },
      "borrowVerify(address,address,uint256)": {
        "params": {
          "borrowAmount": "The amount of the underlying asset requested to borrow",
          "borrower": "The address borrowing the underlying",
          "cToken": "Asset whose underlying is being borrowed"
        }
      },
      "checkMembership(address,address)": {
        "params": {
          "account": "The address of the account to check",
          "cToken": "The cToken to check"
        },
        "return": "True if the account is in the asset, otherwise false."
      },
      "enterMarkets(address[])": {
        "params": {
          "cTokens": "The list of addresses of the cToken markets to be enabled"
        },
        "return": "Success indicator for whether each corresponding market was entered"
      },
      "exitMarket(address)": {
        "details": "Sender must not have an outstanding borrow balance in the asset, or be providing neccessary collateral for an outstanding borrow.",
        "params": {
          "cTokenAddress": "The address of the asset to be removed"
        },
        "return": "Whether or not the account successfully exited the market"
      },
      "getAccountLiquidity(address)": {
        "return": "(possible error code (semi-opaque), account liquidity in excess of collateral requirements,         account shortfall below collateral requirements)"
      },
      "getAssetsIn(address)": {
        "params": {
          "account": "The address of the account to pull assets for"
        },
        "return": "A dynamic list with the assets the account has entered"
      },
      "liquidateBorrowAllowed(address,address,address,address,uint256)": {
        "params": {
          "borrower": "The address of the borrower",
          "cTokenBorrowed": "Asset which was borrowed by the borrower",
          "cTokenCollateral": "Asset which was used as collateral and will be seized",
          "liquidator": "The address repaying the borrow and seizing the collateral",
          "repayAmount": "The amount of underlying being repaid"
        }
      },
      "liquidateBorrowVerify(address,address,address,address,uint256,uint256)": {
        "params": {
          "borrower": "The address of the borrower",
          "cTokenBorrowed": "Asset which was borrowed by the borrower",
          "cTokenCollateral": "Asset which was used as collateral and will be seized",
          "liquidator": "The address repaying the borrow and seizing the collateral",
          "repayAmount": "The amount of underlying being repaid"
        }
      },
      "liquidateCalculateSeizeTokens(address,address,uint256)": {
        "details": "Used in liquidation (called in cToken.liquidateBorrowFresh)",
        "params": {
          "cTokenBorrowed": "The address of the borrowed cToken",
          "cTokenCollateral": "The address of the collateral cToken",
          "repayAmount": "The amount of cTokenBorrowed underlying to convert into cTokenCollateral tokens"
        },
        "return": "(errorCode, number of cTokenCollateral tokens to be seized in a liquidation)"
      },
      "mintAllowed(address,address,uint256)": {
        "params": {
          "cToken": "The market to verify the mint against",
          "mintAmount": "The amount of underlying being supplied to the market in exchange for tokens",
          "minter": "The account which would get the minted tokens"
        },
        "return": "0 if the mint is allowed, otherwise a semi-opaque error code (See ErrorReporter.sol)"
      },
      "mintVerify(address,address,uint256,uint256)": {
        "params": {
          "cToken": "Asset being minted",
          "mintAmount": "The amount of the underlying asset being minted",
          "mintTokens": "The number of tokens being minted",
          "minter": "The address minting the tokens"
        }
      },
      "redeemAllowed(address,address,uint256)": {
        "params": {
          "cToken": "The market to verify the redeem against",
          "redeemTokens": "The number of cTokens to exchange for the underlying asset in the market",
          "redeemer": "The account which would redeem the tokens"
        },
        "return": "0 if the redeem is allowed, otherwise a semi-opaque error code (See ErrorReporter.sol)"
      },
      "redeemVerify(address,address,uint256,uint256)": {
        "params": {
          "cToken": "Asset being redeemed",
          "redeemAmount": "The amount of the underlying asset being redeemed",
          "redeemTokens": "The number of tokens being redeemed",
          "redeemer": "The address redeeming the tokens"
        }
      },
      "repayBorrowAllowed(address,address,address,uint256)": {
        "params": {
          "borrower": "The account which would borrowed the asset",
          "cToken": "The market to verify the repay against",
          "payer": "The account which would repay the asset",
          "repayAmount": "The amount of the underlying asset the account would repay"
        },
        "return": "0 if the repay is allowed, otherwise a semi-opaque error code (See ErrorReporter.sol)"
      },
      "repayBorrowVerify(address,address,address,uint256,uint256)": {
        "params": {
          "borrower": "The address of the borrower",
          "cToken": "Asset being repaid",
          "payer": "The address repaying the borrow",
          "repayAmount": "The amount of underlying being repaid"
        }
      },
      "seizeAllowed(address,address,address,address,uint256)": {
        "params": {
          "borrower": "The address of the borrower",
          "cTokenBorrowed": "Asset which was borrowed by the borrower",
          "cTokenCollateral": "Asset which was used as collateral and will be seized",
          "liquidator": "The address repaying the borrow and seizing the collateral",
          "seizeTokens": "The number of collateral tokens to seize"
        }
      },
      "seizeVerify(address,address,address,address,uint256)": {
        "params": {
          "borrower": "The address of the borrower",
          "cTokenBorrowed": "Asset which was borrowed by the borrower",
          "cTokenCollateral": "Asset which was used as collateral and will be seized",
          "liquidator": "The address repaying the borrow and seizing the collateral",
          "seizeTokens": "The number of collateral tokens to seize"
        }
      },
      "transferAllowed(address,address,address,uint256)": {
        "params": {
          "cToken": "The market to verify the transfer against",
          "dst": "The account which receives the tokens",
          "src": "The account which sources the tokens",
          "transferTokens": "The number of cTokens to transfer"
        },
        "return": "0 if the transfer is allowed, otherwise a semi-opaque error code (See ErrorReporter.sol)"
      },
      "transferVerify(address,address,address,uint256)": {
        "params": {
          "cToken": "Asset being transferred",
          "dst": "The account which receives the tokens",
          "src": "The account which sources the tokens",
          "transferTokens": "The number of cTokens to transfer"
        }
      }
    },
    "title": "Compound's Comptroller Contract"
  },
  "userdoc": {
    "methods": {
      "_setCloseFactor(uint256)": {
        "notice": "Sets the closeFactor used when liquidating borrows"
      },
      "_setCollateralFactor(address,uint256)": {
        "notice": "Sets the collateralFactor for a market"
      },
      "_setLiquidationIncentive(uint256)": {
        "notice": "Sets liquidationIncentive"
      },
      "_setMaxAssets(uint256)": {
        "notice": "Sets maxAssets which controls how many markets can be entered"
      },
      "_setPriceOracle(address)": {
        "notice": "Sets a new price oracle for the comptroller"
      },
      "_supportMarket(address)": {
        "notice": "Add the market to the markets mapping and set it as listed"
      },
      "borrowAllowed(address,address,uint256)": {
        "notice": "Checks if the account should be allowed to borrow the underlying asset of the given market"
      },
      "borrowVerify(address,address,uint256)": {
        "notice": "Validates borrow and reverts on rejection. May emit logs."
      },
      "checkMembership(address,address)": {
        "notice": "Returns whether the given account is entered in the given asset"
      },
      "enterMarkets(address[])": {
        "notice": "Add assets to be included in account liquidity calculation"
      },
      "exitMarket(address)": {
        "notice": "Removes asset from sender's account liquidity calculation"
      },
      "getAccountLiquidity(address)": {
        "notice": "Determine the current account liquidity wrt collateral requirements"
      },
      "getAssetsIn(address)": {
        "notice": "Returns the assets an account has entered"
      },
      "liquidateBorrowAllowed(address,address,address,address,uint256)": {
        "notice": "Checks if the liquidation should be allowed to occur"
      },
      "liquidateBorrowVerify(address,address,address,address,uint256,uint256)": {
        "notice": "Validates liquidateBorrow and reverts on rejection. May emit logs."
      },
      "liquidateCalculateSeizeTokens(address,address,uint256)": {
        "notice": "Calculate number of tokens of collateral asset to seize given an underlying amount"
      },
      "mintAllowed(address,address,uint256)": {
        "notice": "Checks if the account should be allowed to mint tokens in the given market"
      },
      "mintVerify(address,address,uint256,uint256)": {
        "notice": "Validates mint and reverts on rejection. May emit logs."
      },
      "redeemAllowed(address,address,uint256)": {
        "notice": "Checks if the account should be allowed to redeem tokens in the given market"
      },
      "redeemVerify(address,address,uint256,uint256)": {
        "notice": "Validates redeem and reverts on rejection. May emit logs."
      },
      "repayBorrowAllowed(address,address,address,uint256)": {
        "notice": "Checks if the account should be allowed to repay a borrow in the given market"
      },
      "repayBorrowVerify(address,address,address,uint256,uint256)": {
        "notice": "Validates repayBorrow and reverts on rejection. May emit logs."
      },
      "seizeAllowed(address,address,address,address,uint256)": {
        "notice": "Checks if the seizing of assets should be allowed to occur"
      },
      "seizeVerify(address,address,address,address,uint256)": {
        "notice": "Validates seize and reverts on rejection. May emit logs."
      },
      "transferAllowed(address,address,address,uint256)": {
        "notice": "Checks if the account should be allowed to transfer tokens in the given market"
      },
      "transferVerify(address,address,address,uint256)": {
        "notice": "Validates transfer and reverts on rejection. May emit logs."
      }
    }
  }
}