{
  "contractName": "ComptrollerG2",
  "abi": [
    {
      "inputs": [],
      "payable": false,
      "stateMutability": "nonpayable",
      "type": "constructor"
    },
    {
      "anonymous": false,
      "inputs": [
        {
          "indexed": false,
          "internalType": "string",
          "name": "action",
          "type": "string"
        },
        {
          "indexed": false,
          "internalType": "bool",
          "name": "pauseState",
          "type": "bool"
        }
      ],
      "name": "ActionPaused",
      "type": "event"
    },
    {
      "anonymous": false,
      "inputs": [
        {
          "indexed": false,
          "internalType": "contract CToken",
          "name": "cToken",
          "type": "address"
        },
        {
          "indexed": false,
          "internalType": "string",
          "name": "action",
          "type": "string"
        },
        {
          "indexed": false,
          "internalType": "bool",
          "name": "pauseState",
          "type": "bool"
        }
      ],
      "name": "ActionPaused",
      "type": "event"
    },
    {
      "anonymous": false,
      "inputs": [
        {
          "indexed": false,
          "internalType": "uint256",
          "name": "error",
          "type": "uint256"
        },
        {
          "indexed": false,
          "internalType": "uint256",
          "name": "info",
          "type": "uint256"
        },
        {
          "indexed": false,
          "internalType": "uint256",
          "name": "detail",
          "type": "uint256"
        }
      ],
      "name": "Failure",
      "type": "event"
    },
    {
      "anonymous": false,
      "inputs": [
        {
          "indexed": false,
          "internalType": "contract CToken",
          "name": "cToken",
          "type": "address"
        },
        {
          "indexed": false,
          "internalType": "address",
          "name": "account",
          "type": "address"
        }
      ],
      "name": "MarketEntered",
      "type": "event"
    },
    {
      "anonymous": false,
      "inputs": [
        {
          "indexed": false,
          "internalType": "contract CToken",
          "name": "cToken",
          "type": "address"
        },
        {
          "indexed": false,
          "internalType": "address",
          "name": "account",
          "type": "address"
        }
      ],
      "name": "MarketExited",
      "type": "event"
    },
    {
      "anonymous": false,
      "inputs": [
        {
          "indexed": false,
          "internalType": "contract CToken",
          "name": "cToken",
          "type": "address"
        }
      ],
      "name": "MarketListed",
      "type": "event"
    },
    {
      "anonymous": false,
      "inputs": [
        {
          "indexed": false,
          "internalType": "uint256",
          "name": "oldCloseFactorMantissa",
          "type": "uint256"
        },
        {
          "indexed": false,
          "internalType": "uint256",
          "name": "newCloseFactorMantissa",
          "type": "uint256"
        }
      ],
      "name": "NewCloseFactor",
      "type": "event"
    },
    {
      "anonymous": false,
      "inputs": [
        {
          "indexed": false,
          "internalType": "contract CToken",
          "name": "cToken",
          "type": "address"
        },
        {
          "indexed": false,
          "internalType": "uint256",
          "name": "oldCollateralFactorMantissa",
          "type": "uint256"
        },
        {
          "indexed": false,
          "internalType": "uint256",
          "name": "newCollateralFactorMantissa",
          "type": "uint256"
        }
      ],
      "name": "NewCollateralFactor",
      "type": "event"
    },
    {
      "anonymous": false,
      "inputs": [
        {
          "indexed": false,
          "internalType": "uint256",
          "name": "oldLiquidationIncentiveMantissa",
          "type": "uint256"
        },
        {
          "indexed": false,
          "internalType": "uint256",
          "name": "newLiquidationIncentiveMantissa",
          "type": "uint256"
        }
      ],
      "name": "NewLiquidationIncentive",
      "type": "event"
    },
    {
      "anonymous": false,
      "inputs": [
        {
          "indexed": false,
          "internalType": "uint256",
          "name": "oldMaxAssets",
          "type": "uint256"
        },
        {
          "indexed": false,
          "internalType": "uint256",
          "name": "newMaxAssets",
          "type": "uint256"
        }
      ],
      "name": "NewMaxAssets",
      "type": "event"
    },
    {
      "anonymous": false,
      "inputs": [
        {
          "indexed": false,
          "internalType": "address",
          "name": "oldPauseGuardian",
          "type": "address"
        },
        {
          "indexed": false,
          "internalType": "address",
          "name": "newPauseGuardian",
          "type": "address"
        }
      ],
      "name": "NewPauseGuardian",
      "type": "event"
    },
    {
      "anonymous": false,
      "inputs": [
        {
          "indexed": false,
          "internalType": "contract PriceOracle",
          "name": "oldPriceOracle",
          "type": "address"
        },
        {
          "indexed": false,
          "internalType": "contract PriceOracle",
          "name": "newPriceOracle",
          "type": "address"
        }
      ],
      "name": "NewPriceOracle",
      "type": "event"
    },
    {
      "constant": true,
      "inputs": [],
      "name": "_borrowGuardianPaused",
      "outputs": [
        {
          "internalType": "bool",
          "name": "",
          "type": "bool"
        }
      ],
      "payable": false,
      "stateMutability": "view",
      "type": "function"
    },
    {
      "constant": true,
      "inputs": [],
      "name": "_mintGuardianPaused",
      "outputs": [
        {
          "internalType": "bool",
          "name": "",
          "type": "bool"
        }
      ],
      "payable": false,
      "stateMutability": "view",
      "type": "function"
    },
    {
      "constant": true,
      "inputs": [
        {
          "internalType": "address",
          "name": "",
          "type": "address"
        },
        {
          "internalType": "uint256",
          "name": "",
          "type": "uint256"
        }
      ],
      "name": "accountAssets",
      "outputs": [
        {
          "internalType": "contract CToken",
          "name": "",
          "type": "address"
        }
      ],
      "payable": false,
      "stateMutability": "view",
      "type": "function"
    },
    {
      "constant": true,
      "inputs": [],
      "name": "admin",
      "outputs": [
        {
          "internalType": "address",
          "name": "",
          "type": "address"
        }
      ],
      "payable": false,
      "stateMutability": "view",
      "type": "function"
    },
    {
      "constant": true,
      "inputs": [
        {
          "internalType": "address",
          "name": "",
          "type": "address"
        }
      ],
      "name": "borrowGuardianPaused",
      "outputs": [
        {
          "internalType": "bool",
          "name": "",
          "type": "bool"
        }
      ],
      "payable": false,
      "stateMutability": "view",
      "type": "function"
    },
    {
      "constant": true,
      "inputs": [],
      "name": "closeFactorMantissa",
      "outputs": [
        {
          "internalType": "uint256",
          "name": "",
          "type": "uint256"
        }
      ],
      "payable": false,
      "stateMutability": "view",
      "type": "function"
    },
    {
      "constant": true,
      "inputs": [],
      "name": "comptrollerImplementation",
      "outputs": [
        {
          "internalType": "address",
          "name": "",
          "type": "address"
        }
      ],
      "payable": false,
      "stateMutability": "view",
      "type": "function"
    },
    {
      "constant": true,
      "inputs": [],
      "name": "isComptroller",
      "outputs": [
        {
          "internalType": "bool",
          "name": "",
          "type": "bool"
        }
      ],
      "payable": false,
      "stateMutability": "view",
      "type": "function"
    },
    {
      "constant": true,
      "inputs": [],
      "name": "liquidationIncentiveMantissa",
      "outputs": [
        {
          "internalType": "uint256",
          "name": "",
          "type": "uint256"
        }
      ],
      "payable": false,
      "stateMutability": "view",
      "type": "function"
    },
    {
      "constant": true,
      "inputs": [
        {
          "internalType": "address",
          "name": "",
          "type": "address"
        }
      ],
      "name": "markets",
      "outputs": [
        {
          "internalType": "bool",
          "name": "isListed",
          "type": "bool"
        },
        {
          "internalType": "uint256",
          "name": "collateralFactorMantissa",
          "type": "uint256"
        },
        {
          "internalType": "bool",
          "name": "isComped",
          "type": "bool"
        }
      ],
      "payable": false,
      "stateMutability": "view",
      "type": "function"
    },
    {
      "constant": true,
      "inputs": [],
      "name": "maxAssets",
      "outputs": [
        {
          "internalType": "uint256",
          "name": "",
          "type": "uint256"
        }
      ],
      "payable": false,
      "stateMutability": "view",
      "type": "function"
    },
    {
      "constant": true,
      "inputs": [
        {
          "internalType": "address",
          "name": "",
          "type": "address"
        }
      ],
      "name": "mintGuardianPaused",
      "outputs": [
        {
          "internalType": "bool",
          "name": "",
          "type": "bool"
        }
      ],
      "payable": false,
      "stateMutability": "view",
      "type": "function"
    },
    {
      "constant": true,
      "inputs": [],
      "name": "oracle",
      "outputs": [
        {
          "internalType": "contract PriceOracle",
          "name": "",
          "type": "address"
        }
      ],
      "payable": false,
      "stateMutability": "view",
      "type": "function"
    },
    {
      "constant": true,
      "inputs": [],
      "name": "pauseGuardian",
      "outputs": [
        {
          "internalType": "address",
          "name": "",
          "type": "address"
        }
      ],
      "payable": false,
      "stateMutability": "view",
      "type": "function"
    },
    {
      "constant": true,
      "inputs": [],
      "name": "pendingAdmin",
      "outputs": [
        {
          "internalType": "address",
          "name": "",
          "type": "address"
        }
      ],
      "payable": false,
      "stateMutability": "view",
      "type": "function"
    },
    {
      "constant": true,
      "inputs": [],
      "name": "pendingComptrollerImplementation",
      "outputs": [
        {
          "internalType": "address",
          "name": "",
          "type": "address"
        }
      ],
      "payable": false,
      "stateMutability": "view",
      "type": "function"
    },
    {
      "constant": true,
      "inputs": [],
      "name": "seizeGuardianPaused",
      "outputs": [
        {
          "internalType": "bool",
          "name": "",
          "type": "bool"
        }
      ],
      "payable": false,
      "stateMutability": "view",
      "type": "function"
    },
    {
      "constant": true,
      "inputs": [],
      "name": "transferGuardianPaused",
      "outputs": [
        {
          "internalType": "bool",
          "name": "",
          "type": "bool"
        }
      ],
      "payable": false,
      "stateMutability": "view",
      "type": "function"
    },
    {
      "constant": true,
      "inputs": [
        {
          "internalType": "address",
          "name": "account",
          "type": "address"
        }
      ],
      "name": "getAssetsIn",
      "outputs": [
        {
          "internalType": "contract CToken[]",
          "name": "",
          "type": "address[]"
        }
      ],
      "payable": false,
      "stateMutability": "view",
      "type": "function"
    },
    {
      "constant": true,
      "inputs": [
        {
          "internalType": "address",
          "name": "account",
          "type": "address"
        },
        {
          "internalType": "contract CToken",
          "name": "cToken",
          "type": "address"
        }
      ],
      "name": "checkMembership",
      "outputs": [
        {
          "internalType": "bool",
          "name": "",
          "type": "bool"
        }
      ],
      "payable": false,
      "stateMutability": "view",
      "type": "function"
    },
    {
      "constant": false,
      "inputs": [
        {
          "internalType": "address[]",
          "name": "cTokens",
          "type": "address[]"
        }
      ],
      "name": "enterMarkets",
      "outputs": [
        {
          "internalType": "uint256[]",
          "name": "",
          "type": "uint256[]"
        }
      ],
      "payable": false,
      "stateMutability": "nonpayable",
      "type": "function"
    },
    {
      "constant": false,
      "inputs": [
        {
          "internalType": "address",
          "name": "cTokenAddress",
          "type": "address"
        }
      ],
      "name": "exitMarket",
      "outputs": [
        {
          "internalType": "uint256",
          "name": "",
          "type": "uint256"
        }
      ],
      "payable": false,
      "stateMutability": "nonpayable",
      "type": "function"
    },
    {
      "constant": false,
      "inputs": [
        {
          "internalType": "address",
          "name": "cToken",
          "type": "address"
        },
        {
          "internalType": "address",
          "name": "minter",
          "type": "address"
        },
        {
          "internalType": "uint256",
          "name": "mintAmount",
          "type": "uint256"
        }
      ],
      "name": "mintAllowed",
      "outputs": [
        {
          "internalType": "uint256",
          "name": "",
          "type": "uint256"
        }
      ],
      "payable": false,
      "stateMutability": "nonpayable",
      "type": "function"
    },
    {
      "constant": false,
      "inputs": [
        {
          "internalType": "address",
          "name": "cToken",
          "type": "address"
        },
        {
          "internalType": "address",
          "name": "minter",
          "type": "address"
        },
        {
          "internalType": "uint256",
          "name": "actualMintAmount",
          "type": "uint256"
        },
        {
          "internalType": "uint256",
          "name": "mintTokens",
          "type": "uint256"
        }
      ],
      "name": "mintVerify",
      "outputs": [],
      "payable": false,
      "stateMutability": "nonpayable",
      "type": "function"
    },
    {
      "constant": false,
      "inputs": [
        {
          "internalType": "address",
          "name": "cToken",
          "type": "address"
        },
        {
          "internalType": "address",
          "name": "redeemer",
          "type": "address"
        },
        {
          "internalType": "uint256",
          "name": "redeemTokens",
          "type": "uint256"
        }
      ],
      "name": "redeemAllowed",
      "outputs": [
        {
          "internalType": "uint256",
          "name": "",
          "type": "uint256"
        }
      ],
      "payable": false,
      "stateMutability": "nonpayable",
      "type": "function"
    },
    {
      "constant": false,
      "inputs": [
        {
          "internalType": "address",
          "name": "cToken",
          "type": "address"
        },
        {
          "internalType": "address",
          "name": "redeemer",
          "type": "address"
        },
        {
          "internalType": "uint256",
          "name": "redeemAmount",
          "type": "uint256"
        },
        {
          "internalType": "uint256",
          "name": "redeemTokens",
          "type": "uint256"
        }
      ],
      "name": "redeemVerify",
      "outputs": [],
      "payable": false,
      "stateMutability": "nonpayable",
      "type": "function"
    },
    {
      "constant": false,
      "inputs": [
        {
          "internalType": "address",
          "name": "cToken",
          "type": "address"
        },
        {
          "internalType": "address",
          "name": "borrower",
          "type": "address"
        },
        {
          "internalType": "uint256",
          "name": "borrowAmount",
          "type": "uint256"
        }
      ],
      "name": "borrowAllowed",
      "outputs": [
        {
          "internalType": "uint256",
          "name": "",
          "type": "uint256"
        }
      ],
      "payable": false,
      "stateMutability": "nonpayable",
      "type": "function"
    },
    {
      "constant": false,
      "inputs": [
        {
          "internalType": "address",
          "name": "cToken",
          "type": "address"
        },
        {
          "internalType": "address",
          "name": "borrower",
          "type": "address"
        },
        {
          "internalType": "uint256",
          "name": "borrowAmount",
          "type": "uint256"
        }
      ],
      "name": "borrowVerify",
      "outputs": [],
      "payable": false,
      "stateMutability": "nonpayable",
      "type": "function"
    },
    {
      "constant": false,
      "inputs": [
        {
          "internalType": "address",
          "name": "cToken",
          "type": "address"
        },
        {
          "internalType": "address",
          "name": "payer",
          "type": "address"
        },
        {
          "internalType": "address",
          "name": "borrower",
          "type": "address"
        },
        {
          "internalType": "uint256",
          "name": "repayAmount",
          "type": "uint256"
        }
      ],
      "name": "repayBorrowAllowed",
      "outputs": [
        {
          "internalType": "uint256",
          "name": "",
          "type": "uint256"
        }
      ],
      "payable": false,
      "stateMutability": "nonpayable",
      "type": "function"
    },
    {
      "constant": false,
      "inputs": [
        {
          "internalType": "address",
          "name": "cToken",
          "type": "address"
        },
        {
          "internalType": "address",
          "name": "payer",
          "type": "address"
        },
        {
          "internalType": "address",
          "name": "borrower",
          "type": "address"
        },
        {
          "internalType": "uint256",
          "name": "actualRepayAmount",
          "type": "uint256"
        },
        {
          "internalType": "uint256",
          "name": "borrowerIndex",
          "type": "uint256"
        }
      ],
      "name": "repayBorrowVerify",
      "outputs": [],
      "payable": false,
      "stateMutability": "nonpayable",
      "type": "function"
    },
    {
      "constant": false,
      "inputs": [
        {
          "internalType": "address",
          "name": "cTokenBorrowed",
          "type": "address"
        },
        {
          "internalType": "address",
          "name": "cTokenCollateral",
          "type": "address"
        },
        {
          "internalType": "address",
          "name": "liquidator",
          "type": "address"
        },
        {
          "internalType": "address",
          "name": "borrower",
          "type": "address"
        },
        {
          "internalType": "uint256",
          "name": "repayAmount",
          "type": "uint256"
        }
      ],
      "name": "liquidateBorrowAllowed",
      "outputs": [
        {
          "internalType": "uint256",
          "name": "",
          "type": "uint256"
        }
      ],
      "payable": false,
      "stateMutability": "nonpayable",
      "type": "function"
    },
    {
      "constant": false,
      "inputs": [
        {
          "internalType": "address",
          "name": "cTokenBorrowed",
          "type": "address"
        },
        {
          "internalType": "address",
          "name": "cTokenCollateral",
          "type": "address"
        },
        {
          "internalType": "address",
          "name": "liquidator",
          "type": "address"
        },
        {
          "internalType": "address",
          "name": "borrower",
          "type": "address"
        },
        {
          "internalType": "uint256",
          "name": "actualRepayAmount",
          "type": "uint256"
        },
        {
          "internalType": "uint256",
          "name": "seizeTokens",
          "type": "uint256"
        }
      ],
      "name": "liquidateBorrowVerify",
      "outputs": [],
      "payable": false,
      "stateMutability": "nonpayable",
      "type": "function"
    },
    {
      "constant": false,
      "inputs": [
        {
          "internalType": "address",
          "name": "cTokenCollateral",
          "type": "address"
        },
        {
          "internalType": "address",
          "name": "cTokenBorrowed",
          "type": "address"
        },
        {
          "internalType": "address",
          "name": "liquidator",
          "type": "address"
        },
        {
          "internalType": "address",
          "name": "borrower",
          "type": "address"
        },
        {
          "internalType": "uint256",
          "name": "seizeTokens",
          "type": "uint256"
        }
      ],
      "name": "seizeAllowed",
      "outputs": [
        {
          "internalType": "uint256",
          "name": "",
          "type": "uint256"
        }
      ],
      "payable": false,
      "stateMutability": "nonpayable",
      "type": "function"
    },
    {
      "constant": false,
      "inputs": [
        {
          "internalType": "address",
          "name": "cTokenCollateral",
          "type": "address"
        },
        {
          "internalType": "address",
          "name": "cTokenBorrowed",
          "type": "address"
        },
        {
          "internalType": "address",
          "name": "liquidator",
          "type": "address"
        },
        {
          "internalType": "address",
          "name": "borrower",
          "type": "address"
        },
        {
          "internalType": "uint256",
          "name": "seizeTokens",
          "type": "uint256"
        }
      ],
      "name": "seizeVerify",
      "outputs": [],
      "payable": false,
      "stateMutability": "nonpayable",
      "type": "function"
    },
    {
      "constant": false,
      "inputs": [
        {
          "internalType": "address",
          "name": "cToken",
          "type": "address"
        },
        {
          "internalType": "address",
          "name": "src",
          "type": "address"
        },
        {
          "internalType": "address",
          "name": "dst",
          "type": "address"
        },
        {
          "internalType": "uint256",
          "name": "transferTokens",
          "type": "uint256"
        }
      ],
      "name": "transferAllowed",
      "outputs": [
        {
          "internalType": "uint256",
          "name": "",
          "type": "uint256"
        }
      ],
      "payable": false,
      "stateMutability": "nonpayable",
      "type": "function"
    },
    {
      "constant": false,
      "inputs": [
        {
          "internalType": "address",
          "name": "cToken",
          "type": "address"
        },
        {
          "internalType": "address",
          "name": "src",
          "type": "address"
        },
        {
          "internalType": "address",
          "name": "dst",
          "type": "address"
        },
        {
          "internalType": "uint256",
          "name": "transferTokens",
          "type": "uint256"
        }
      ],
      "name": "transferVerify",
      "outputs": [],
      "payable": false,
      "stateMutability": "nonpayable",
      "type": "function"
    },
    {
      "constant": true,
      "inputs": [
        {
          "internalType": "address",
          "name": "account",
          "type": "address"
        }
      ],
      "name": "getAccountLiquidity",
      "outputs": [
        {
          "internalType": "uint256",
          "name": "",
          "type": "uint256"
        },
        {
          "internalType": "uint256",
          "name": "",
          "type": "uint256"
        },
        {
          "internalType": "uint256",
          "name": "",
          "type": "uint256"
        }
      ],
      "payable": false,
      "stateMutability": "view",
      "type": "function"
    },
    {
      "constant": true,
      "inputs": [
        {
          "internalType": "address",
          "name": "account",
          "type": "address"
        },
        {
          "internalType": "address",
          "name": "cTokenModify",
          "type": "address"
        },
        {
          "internalType": "uint256",
          "name": "redeemTokens",
          "type": "uint256"
        },
        {
          "internalType": "uint256",
          "name": "borrowAmount",
          "type": "uint256"
        }
      ],
      "name": "getHypotheticalAccountLiquidity",
      "outputs": [
        {
          "internalType": "uint256",
          "name": "",
          "type": "uint256"
        },
        {
          "internalType": "uint256",
          "name": "",
          "type": "uint256"
        },
        {
          "internalType": "uint256",
          "name": "",
          "type": "uint256"
        }
      ],
      "payable": false,
      "stateMutability": "view",
      "type": "function"
    },
    {
      "constant": true,
      "inputs": [
        {
          "internalType": "address",
          "name": "cTokenBorrowed",
          "type": "address"
        },
        {
          "internalType": "address",
          "name": "cTokenCollateral",
          "type": "address"
        },
        {
          "internalType": "uint256",
          "name": "actualRepayAmount",
          "type": "uint256"
        }
      ],
      "name": "liquidateCalculateSeizeTokens",
      "outputs": [
        {
          "internalType": "uint256",
          "name": "",
          "type": "uint256"
        },
        {
          "internalType": "uint256",
          "name": "",
          "type": "uint256"
        }
      ],
      "payable": false,
      "stateMutability": "view",
      "type": "function"
    },
    {
      "constant": false,
      "inputs": [
        {
          "internalType": "contract PriceOracle",
          "name": "newOracle",
          "type": "address"
        }
      ],
      "name": "_setPriceOracle",
      "outputs": [
        {
          "internalType": "uint256",
          "name": "",
          "type": "uint256"
        }
      ],
      "payable": false,
      "stateMutability": "nonpayable",
      "type": "function"
    },
    {
      "constant": false,
      "inputs": [
        {
          "internalType": "uint256",
          "name": "newCloseFactorMantissa",
          "type": "uint256"
        }
      ],
      "name": "_setCloseFactor",
      "outputs": [
        {
          "internalType": "uint256",
          "name": "",
          "type": "uint256"
        }
      ],
      "payable": false,
      "stateMutability": "nonpayable",
      "type": "function"
    },
    {
      "constant": false,
      "inputs": [
        {
          "internalType": "contract CToken",
          "name": "cToken",
          "type": "address"
        },
        {
          "internalType": "uint256",
          "name": "newCollateralFactorMantissa",
          "type": "uint256"
        }
      ],
      "name": "_setCollateralFactor",
      "outputs": [
        {
          "internalType": "uint256",
          "name": "",
          "type": "uint256"
        }
      ],
      "payable": false,
      "stateMutability": "nonpayable",
      "type": "function"
    },
    {
      "constant": false,
      "inputs": [
        {
          "internalType": "uint256",
          "name": "newMaxAssets",
          "type": "uint256"
        }
      ],
      "name": "_setMaxAssets",
      "outputs": [
        {
          "internalType": "uint256",
          "name": "",
          "type": "uint256"
        }
      ],
      "payable": false,
      "stateMutability": "nonpayable",
      "type": "function"
    },
    {
      "constant": false,
      "inputs": [
        {
          "internalType": "uint256",
          "name": "newLiquidationIncentiveMantissa",
          "type": "uint256"
        }
      ],
      "name": "_setLiquidationIncentive",
      "outputs": [
        {
          "internalType": "uint256",
          "name": "",
          "type": "uint256"
        }
      ],
      "payable": false,
      "stateMutability": "nonpayable",
      "type": "function"
    },
    {
      "constant": false,
      "inputs": [
        {
          "internalType": "contract CToken",
          "name": "cToken",
          "type": "address"
        }
      ],
      "name": "_supportMarket",
      "outputs": [
        {
          "internalType": "uint256",
          "name": "",
          "type": "uint256"
        }
      ],
      "payable": false,
      "stateMutability": "nonpayable",
      "type": "function"
    },
    {
      "constant": false,
      "inputs": [
        {
          "internalType": "address",
          "name": "newPauseGuardian",
          "type": "address"
        }
      ],
      "name": "_setPauseGuardian",
      "outputs": [
        {
          "internalType": "uint256",
          "name": "",
          "type": "uint256"
        }
      ],
      "payable": false,
      "stateMutability": "nonpayable",
      "type": "function"
    },
    {
      "constant": false,
      "inputs": [
        {
          "internalType": "contract CToken",
          "name": "cToken",
          "type": "address"
        },
        {
          "internalType": "bool",
          "name": "state",
          "type": "bool"
        }
      ],
      "name": "_setMintPaused",
      "outputs": [
        {
          "internalType": "bool",
          "name": "",
          "type": "bool"
        }
      ],
      "payable": false,
      "stateMutability": "nonpayable",
      "type": "function"
    },
    {
      "constant": false,
      "inputs": [
        {
          "internalType": "contract CToken",
          "name": "cToken",
          "type": "address"
        },
        {
          "internalType": "bool",
          "name": "state",
          "type": "bool"
        }
      ],
      "name": "_setBorrowPaused",
      "outputs": [
        {
          "internalType": "bool",
          "name": "",
          "type": "bool"
        }
      ],
      "payable": false,
      "stateMutability": "nonpayable",
      "type": "function"
    },
    {
      "constant": false,
      "inputs": [
        {
          "internalType": "bool",
          "name": "state",
          "type": "bool"
        }
      ],
      "name": "_setTransferPaused",
      "outputs": [
        {
          "internalType": "bool",
          "name": "",
          "type": "bool"
        }
      ],
      "payable": false,
      "stateMutability": "nonpayable",
      "type": "function"
    },
    {
      "constant": false,
      "inputs": [
        {
          "internalType": "bool",
          "name": "state",
          "type": "bool"
        }
      ],
      "name": "_setSeizePaused",
      "outputs": [
        {
          "internalType": "bool",
          "name": "",
          "type": "bool"
        }
      ],
      "payable": false,
      "stateMutability": "nonpayable",
      "type": "function"
    },
    {
      "constant": false,
      "inputs": [
        {
          "internalType": "contract Unitroller",
          "name": "unitroller",
          "type": "address"
        }
      ],
      "name": "_become",
      "outputs": [],
      "payable": false,
      "stateMutability": "nonpayable",
      "type": "function"
    }
  ],
  "bytecode": "0x60806040523480156200001c576000806200001962000064565b50505b505a62000028620000d1565b6000600181620000376200012d565b816001600160a01b0302191690836001600160a01b03160217906200005b6200017a565b505050620001c9565b632a2a7adb598160e01b8152600481016020815285602082015260005b868110156200009e57808601518282016040015260200162000081565b506020828760640184336000905af158600e01573d6000803e3d6000fd5b3d6001141558600a015760016000f35b505050565b6373509064598160e01b8152602081600483336000905af158600e01573d6000803e3d6000fd5b3d6001141558600a015760016000f35b8051935060005b604081101562000128576000828201526020016200010f565b505050565b6303daa959598160e01b8152836004820152602081602483336000905af158600e01573d6000803e3d6000fd5b3d6001141558600a015760016000f35b805160008252935060206200010f565b6322bd64c0598160e01b8152836004820152846024820152600081604483336000905af158600e01573d6000803e3d6000fd5b3d6001141558600a015760016000f35b6000815260206200010f565b6145bd80620001d96000396000f3fe6080604052348015610019576000806100166140c0565b50505b50600436106102595760003560e01c80627e3dd21461026757806318c882a5146102835780631d504dc6146102ba5780631ededc91146102eb57806324008a621461033657806324a3d6221461038d57806326782247146103b15780632d70db78146103b9578063317b0b77146103e15780633bcf7ec1146104075780633c94786f1461043e57806341c728b91461044657806347ef3b3b1461048b5780634ada90af146104e05780634e79238f146104e85780634ef4c3e1146105515780634fd42e171461059057806351dff989146105b657806355ee1fe1146105fb5780635c7786051461062a5780635ec88c79146106695780635f5af1aa146106985780635fc7e71e146106c75780636a56947e146107165780636d154ea51461075b5780636d35bf911461078a578063731f0c2b146107d95780637dc0d1d01461080857806387f76303146108105780638e8f294b146108185780638ebf63641461086f578063929fe9a11461089757806394b2294b146108ce578063a76b3fda146108d6578063abfceffc14610905578063ac0b0bb714610987578063bb82aa5e1461098f578063bdcdc25814610997578063c2998238146109dc578063c488847b14610aa1578063d02f735114610af8578063d9226ced14610b47578063da3d454c14610b6d578063dce1544914610bac578063dcfbc0c714610be1578063e4028eee14610be9578063e6653f3d14610c1e578063e875544614610c26578063eabe7d9114610c2e578063ede4edd014610c6d578063f851a44014610c9c575b6000806102646140c0565b50505b61026f610ca4565b604051901515815260200160405180910390f35b61026f600480360360408110156102a25760008061029f6140c0565b50505b506001600160a01b0381351690602001351515610ca9565b6102e9600480360360208110156102d9576000806102d66140c0565b50505b50356001600160a01b0316610efb565b005b6102e9600480360360a081101561030a576000806103076140c0565b50505b506001600160a01b038135811691602081013582169160408201351690606081013590608001356110f0565b61037b60048036036080811015610355576000806103526140c0565b50505b506001600160a01b038135811691602081013582169160408201351690606001356110f7565b60405190815260200160405180910390f35b61039561113e565b6040516001600160a01b03909116815260200160405180910390f35b61039561115d565b61026f600480360360208110156103d8576000806103d56140c0565b50505b50351515611169565b61037b60048036036020811015610400576000806103fd6140c0565b50505b5035611320565b61026f60048036036040811015610426576000806104236140c0565b50505b506001600160a01b0381351690602001351515611477565b61026f6116c4565b6102e960048036036080811015610465576000806104626140c0565b50505b506001600160a01b038135811691602081013590911690604081013590606001356116dd565b6102e9600480360360c08110156104aa576000806104a76140c0565b50505b506001600160a01b0381358116916020810135821691604082013581169160608101359091169060808101359060a001356116e2565b61037b6116ea565b61052d60048036036080811015610507576000806105046140c0565b50505b506001600160a01b038135811691602081013590911690604081013590606001356116f7565b60405180848152602001838152602001828152602001935050505060405180910390f35b61037b600480360360608110156105705760008061056d6140c0565b50505b506001600160a01b03813581169160208101359091169060400135611731565b61037b600480360360208110156105af576000806105ac6140c0565b50505b50356117f1565b6102e9600480360360808110156105d5576000806105d26140c0565b50505b506001600160a01b03813581169160208101359091169060408101359060600135611922565b61037b6004803603602081101561061a576000806106176140c0565b50505b50356001600160a01b031661197b565b6102e960048036036060811015610649576000806106466140c0565b50505b506001600160a01b03813581169160208101359091169060400135611a68565b61052d60048036036020811015610688576000806106856140c0565b50505b50356001600160a01b0316611a6d565b61037b600480360360208110156106b7576000806106b46140c0565b50505b50356001600160a01b0316611aa2565b61037b600480360360a08110156106e6576000806106e36140c0565b50505b506001600160a01b0381358116916020810135821691604082013581169160608101359091169060800135611ba9565b6102e960048036036080811015610735576000806107326140c0565b50505b506001600160a01b038135811691602081013582169160408201351690606001356116dd565b61026f6004803603602081101561077a576000806107776140c0565b50505b50356001600160a01b0316611d86565b6102e9600480360360a08110156107a9576000806107a66140c0565b50505b506001600160a01b03813581169160208101358216916040820135811691606081013590911690608001356110f0565b61026f600480360360208110156107f8576000806107f56140c0565b50505b50356001600160a01b0316611da0565b610395611dba565b61026f611dc6565b61084760048036036020811015610837576000806108346140c0565b50505b50356001600160a01b0316611dd2565b6040519215158352602083019190915215156040808301919091526060909101905180910390f35b61026f6004803603602081101561088e5760008061088b6140c0565b50505b50351515611e22565b61026f600480360360408110156108b6576000806108b36140c0565b50505b506001600160a01b0381358116916020013516611fd8565b61037b612029565b61037b600480360360208110156108f5576000806108f26140c0565b50505b50356001600160a01b0316612033565b61093460048036036020811015610924576000806109216140c0565b50505b50356001600160a01b0316612233565b60405160208082528190810183818151815260200191508051906020019060200280838360005b8381101561097357808201518382015260200161095b565b505050509050019250505060405180910390f35b61026f6122d6565b6103956122e2565b61037b600480360360808110156109b6576000806109b36140c0565b50505b506001600160a01b038135811691602081013582169160408201351690606001356122ee565b610934600480360360208110156109fb576000806109f86140c0565b50505b810190602081018135600160201b811115610a1e57600080610a1b6140c0565b50505b820183602082011115610a3957600080610a366140c0565b50505b803590602001918460208302840111600160201b83111715610a6357600080610a606140c0565b50505b919080806020026020016040519081016040528093929190818152602001838360200280828437600092019190915250929550612360945050505050565b610ae060048036036060811015610ac057600080610abd6140c0565b50505b506001600160a01b038135811691602081013590911690604001356123ff565b60405191825260208201526040908101905180910390f35b61037b600480360360a0811015610b1757600080610b146140c0565b50505b506001600160a01b038135811691602081013582169160408201358116916060810135909116906080013561274f565b61037b60048036036020811015610b6657600080610b636140c0565b50505b5035612982565b61037b60048036036060811015610b8c57600080610b896140c0565b50505b506001600160a01b03813581169160208101359091169060400135612a28565b61039560048036036040811015610bcb57600080610bc86140c0565b50505b506001600160a01b038135169060200135612d4a565b610395612d82565b61037b60048036036040811015610c0857600080610c056140c0565b50505b506001600160a01b038135169060200135612d8e565b61026f612fef565b61037b612ffb565b61037b60048036036060811015610c4d57600080610c4a6140c0565b50505b506001600160a01b03813581169160208101359091169060400135613005565b61037b60048036036020811015610c8c57600080610c896140c0565b50505b50356001600160a01b0316613012565b61039561348f565b600181565b6001600160a01b0382166000908152600960205260408120600090610ccc61412b565b906101000a900460ff16610d1a5760405162461bcd60e51b81526004018080602001828103825260288152602001806144a26028913960400191505060405180910390610d176140c0565b50505b6000600a610d2661412b565b906101000a90046001600160a01b03166001600160a01b03165a610d48614186565b6001600160a01b03161480610d905750600080610d6361412b565b906101000a90046001600160a01b03166001600160a01b03165a610d85614186565b6001600160a01b0316145b610dd45760405162461bcd60e51b815260040180806020018281038252602781526020018061450a6027913960400191505060405180910390610dd16140c0565b50505b600080610ddf61412b565b906101000a90046001600160a01b03166001600160a01b03165a610e01614186565b6001600160a01b03161480610e1857506001821515145b610e5f5760405162461bcd60e51b815260206004820152601660248201526000805160206144ea833981519152604482015260640160405180910390610e5c6140c0565b50505b6001600160a01b0383166000908152600c602052829060409020600181610e8461412b565b8160ff02191690831515021790610e996141cc565b50505060008051602061457683398151915283836040516001600160a01b039092168252151560408083019190915260606020830181905260069083015265426f72726f7760d01b608083015260a0909101905180910390a150805b92915050565b806001600160a01b031663f851a4406040518163ffffffff1660e01b81526004016020604051808303818680610f2f61421a565b158015610f4457600080610f416140c0565b50505b505a610f4e614266565b5050505050158015610f6d573d6000803e3d6000610f6a6140c0565b50505b505050506040513d6020811015610f8c57600080610f896140c0565b50505b8101908080516001600160a01b0316925050505a610fa8614186565b6001600160a01b031614610ff65760405162461bcd60e51b81526004018080602001828103825260278152602001806145966027913960400191505060405180910390610ff36140c0565b50505b6000816001600160a01b031663c1e803346040518163ffffffff1660e01b81526004016020604051808303816000878061102e61421a565b158015611043576000806110406140c0565b50505b505a61104d614316565b50505050505015801561106d573d6000803e3d600061106a6140c0565b50505b505050506040513d602081101561108c576000806110896140c0565b50505b810190808051935050821591506110ec90505760405162461bcd60e51b815260206004820152601560248201527418da185b99d9481b9bdd08185d5d1a1bdc9a5e9959605a1b6044820152606401604051809103906110e96140c0565b50505b5050565b5050505050565b6001600160a01b038416600090815260096020526040812060009061111a61412b565b906101000a900460ff1661113057506009611136565b60005b90505b949350505050565b6000600a61114a61412b565b906101000a90046001600160a01b031681565b6000600161114a61412b565b600080600a61117661412b565b906101000a90046001600160a01b03166001600160a01b03165a611198614186565b6001600160a01b031614806111e057506000806111b361412b565b906101000a90046001600160a01b03166001600160a01b03165a6111d5614186565b6001600160a01b0316145b6112245760405162461bcd60e51b815260040180806020018281038252602781526020018061450a60279139604001915050604051809103906112216140c0565b50505b60008061122f61412b565b906101000a90046001600160a01b03166001600160a01b03165a611251614186565b6001600160a01b0316148061126857506001821515145b6112af5760405162461bcd60e51b815260206004820152601660248201526000805160206144ea8339815191526044820152606401604051809103906112ac6140c0565b50505b81600a600160b81b816112c061412b565b8160ff021916908315150217906112d56141cc565b5050506000805160206145318339815191528260405190151560208201526040808252600581830152645365697a6560d81b60608301526080909101905180910390a150805b919050565b6000808061132c61412b565b906101000a90046001600160a01b03166001600160a01b03165a61134e614186565b6001600160a01b03161461136f576113686001600461349a565b905061131b565b6113776143c6565b60405160208101604052838152905061138e6143c6565b6040516020810160405266b1a2bc2ec50000815290506113ae82826134f4565b156113c7576113be60058061349a565b9250505061131b565b6113cf6143c6565b60405160208101604052670c7d713b49da0000815290506113f08184613503565b1561140a5761140060058061349a565b935050505061131b565b6000600561141661412b565b9050858060056114246141cc565b5050507f3b9670cf975d26958e754b57098eaa2ac914d8d2a31b83257997b9f346110fd981600561145361412b565b60405191825260208201526040908101905180910390a160005b9695505050505050565b6001600160a01b038216600090815260096020526040812060009061149a61412b565b906101000a900460ff166114e85760405162461bcd60e51b81526004018080602001828103825260288152602001806144a260289139604001915050604051809103906114e56140c0565b50505b6000600a6114f461412b565b906101000a90046001600160a01b03166001600160a01b03165a611516614186565b6001600160a01b0316148061155e575060008061153161412b565b906101000a90046001600160a01b03166001600160a01b03165a611553614186565b6001600160a01b0316145b6115a25760405162461bcd60e51b815260040180806020018281038252602781526020018061450a602791396040019150506040518091039061159f6140c0565b50505b6000806115ad61412b565b906101000a90046001600160a01b03166001600160a01b03165a6115cf614186565b6001600160a01b031614806115e657506001821515145b61162d5760405162461bcd60e51b815260206004820152601660248201526000805160206144ea83398151915260448201526064016040518091039061162a6140c0565b50505b6001600160a01b0383166000908152600b60205282906040902060018161165261412b565b8160ff021916908315150217906116676141cc565b50505060008051602061457683398151915283836040516001600160a01b039092168252151560408083019190915260606020830181905260049083015263135a5b9d60e21b608083015260a0909101905180910390a150919050565b6014600a6116d061412b565b906101000a900460ff1681565b6110e9565b505050505050565b60066116f461412b565b81565b60008060008060008061170c8a8a8a8a613511565b92509250925082601181111561171e57fe5b95509093509150505b9450945094915050565b6001600160a01b0383166000908152600b6020526040812060009061175461412b565b906101000a900460ff16156117a95760405162461bcd60e51b815260206004820152600e60248201526d1b5a5b9d081a5cc81c185d5cd95960921b6044820152606401604051809103906117a66140c0565b50505b6001600160a01b03841660009081526009602052604090206000906117cc61412b565b906101000a900460ff166117e45760095b90506117ea565b60005b90505b9392505050565b600080806117fd61412b565b906101000a90046001600160a01b03166001600160a01b03165a61181f614186565b6001600160a01b031614611839576113686001600b61349a565b6118416143c6565b6040516020810160405283815290506118586143c6565b60405160208101604052670de0b6b3a7640000815290506118798282613503565b1561188a576113be6007600c61349a565b6118926143c6565b604051602081016040526714d1120d7b160000815290506118b38184613503565b156118c4576114006007600c61349a565b600060066118d061412b565b9050858060066118de6141cc565b5050507faeba5a6c40a8ac138134bff1aaa65debf25971188a58804bad717f82f0ec1316818760405191825260208201526040908101905180910390a1600061146d565b801580156119305750600082115b156110e95760405162461bcd60e51b815260206004820152601160248201527072656465656d546f6b656e73207a65726f60781b6044820152606401604051809103906116e26140c0565b6000808061198761412b565b906101000a90046001600160a01b03166001600160a01b03165a6119a9614186565b6001600160a01b0316146119c3576113686001601061349a565b60008060046119d061412b565b906101000a90046001600160a01b0316905082600460006101000a816119f461412b565b816001600160a01b0302191690836001600160a01b0316021790611a166141cc565b5050507fd52b2b9b7e9ee655fcb95d2e5b9e0c9f69e7ef2b8e9d2d0ea78402d576d22e2281846040516001600160a01b039283168152911660208201526040908101905180910390a160009392505050565b505050565b600080600080600080611a84876000806000613511565b925092509250826011811115611a9657fe5b97919650945092505050565b60008080611aae61412b565b906101000a90046001600160a01b03166001600160a01b03165a611ad0614186565b6001600160a01b031614611aea576113686001601361349a565b600080600a611af761412b565b906101000a90046001600160a01b0316905082600a60006101000a81611b1b61412b565b816001600160a01b0302191690836001600160a01b0316021790611b3d6141cc565b5050507f0613b6ee6a04f0d09f390e4d9318894b9f6ac7fd83897cd8d18896ba579c401e81600a600090611b6f61412b565b906101000a90046001600160a01b03166040516001600160a01b039283168152911660208201526040908101905180910390a160006117ea565b6001600160a01b0385166000908152600960205260408120600090611bcc61412b565b906101000a900460ff161580611c0c57506001600160a01b0385166000908152600960205260409020600090611c0061412b565b906101000a900460ff16155b15611c1b5760095b9050611d7d565b600080611c27856139f5565b91935090915060009050826011811115611c3d57fe5b14611c5757816011811115611c4e57fe5b92505050611d7d565b80611c63576003611c4e565b6000886001600160a01b03166395dd9193876040516001600160e01b031960e084901b1681526001600160a01b0390911660048201526024016020604051808303818680611caf61421a565b158015611cc457600080611cc16140c0565b50505b505a611cce614266565b5050505050158015611ced573d6000803e3d6000611cea6140c0565b50505b505050506040513d6020811015611d0c57600080611d096140c0565b50505b810190808051935060009250829150611d3d905060405180602001604052806005611d3561412b565b905284613a15565b90925090506000826003811115611d5057fe5b14611d6457600b5b95505050505050611d7d565b80871115611d73576011611d58565b6000955050505050505b95945050505050565b600c602052806000526040600020600091506116d061412b565b600b602052806000526040600020600091506116d061412b565b6000600461114a61412b565b6016600a6116d061412b565b60096020528060005260406000209050600081611ded61412b565b906101000a900460ff169080600101611e0461412b565b90600060038201611e1361412b565b906101000a900460ff16905083565b600080600a611e2f61412b565b906101000a90046001600160a01b03166001600160a01b03165a611e51614186565b6001600160a01b03161480611e995750600080611e6c61412b565b906101000a90046001600160a01b03166001600160a01b03165a611e8e614186565b6001600160a01b0316145b611edd5760405162461bcd60e51b815260040180806020018281038252602781526020018061450a6027913960400191505060405180910390611eda6140c0565b50505b600080611ee861412b565b906101000a90046001600160a01b03166001600160a01b03165a611f0a614186565b6001600160a01b03161480611f2157506001821515145b611f685760405162461bcd60e51b815260206004820152601660248201526000805160206144ea833981519152604482015260640160405180910390611f656140c0565b50505b81600a600160b01b81611f7961412b565b8160ff02191690831515021790611f8e6141cc565b5050506000805160206145318339815191528260405190151560208201526040808252600881830152672a3930b739b332b960c11b60608301526080909101905180910390a15090565b6001600160a01b03811660009081526009602052604081206001600160a01b03841660009081526002919091016020526040902060009061201761412b565b906101000a900460ff16905092915050565b60076116f461412b565b6000808061203f61412b565b906101000a90046001600160a01b03166001600160a01b03165a612061614186565b6001600160a01b03161461207b576113686001601261349a565b6001600160a01b038216600090815260096020526040902060009061209e61412b565b906101000a900460ff16156120b957611368600a601161349a565b816001600160a01b031663fe9c44ae6040518163ffffffff1660e01b815260040160206040518083038186806120ed61421a565b158015612102576000806120ff6140c0565b50505b505a61210c614266565b505050505015801561212b573d6000803e3d60006121286140c0565b50505b505050506040513d602081101561214a576000806121476140c0565b50505b810190808051506040925050505160608101604090815260018252600060208084018290528284018290526001600160a01b0386168252600990522081518160018161219461412b565b8160ff021916908315150217906121a96141cc565b5050506020820151816001016121bd6141cc565b50506040820151600382016001816121d361412b565b8160ff021916908315150217906121e86141cc565b5050509050507fcf583bb0c569eb967f806b11601c4cb93c10310485c67add5f8362c2f212321f826040516001600160a01b03909116815260200160405180910390a1600092915050565b6001600160a01b038116600090815260086020526060908190604090208061225961412b565b80602002602001604051908101604052818152919060208301828061227c61412b565b80156122c957602002820191906000526020600020905b60008261229e61412b565b906101000a90046001600160a01b03166001600160a01b031681526020019060010190808311612293575b5093979650505050505050565b6017600a6116d061412b565b6000600261114a61412b565b60006016600a6122fc61412b565b906101000a900460ff16156123555760405162461bcd60e51b81526020600482015260126024820152711d1c985b9cd9995c881a5cc81c185d5cd95960721b6044820152606401604051809103906123526140c0565b50505b611133858584613a69565b6060600082519050606081604051908082528060200260200182016040528015612394578160200160208202803883390190505b50905060005b828110156123f75760008582815181106123b057fe5b602002602001015190506123cc815a6123c7614186565b613b05565b60118111156123d757fe5b8383815181106123e357fe5b60209081029190910101525060010161239a565b509392505050565b6000808080600461240e61412b565b906101000a90046001600160a01b03166001600160a01b031663fc57d4df876040516001600160e01b031960e084901b1681526001600160a01b039091166004820152602401602060405180830381868061246761421a565b15801561247c576000806124796140c0565b50505b505a612486614266565b50505050501580156124a5573d6000803e3d60006124a26140c0565b50505b505050506040513d60208110156124c4576000806124c16140c0565b50505b810190808051935060009250829150600490506124df61412b565b906101000a90046001600160a01b03166001600160a01b031663fc57d4df876040516001600160e01b031960e084901b1681526001600160a01b039091166004820152602401602060405180830381868061253861421a565b15801561254d5760008061254a6140c0565b50505b505a612557614266565b5050505050158015612576573d6000803e3d60006125736140c0565b50505b505050506040513d6020811015612595576000806125926140c0565b50505b810190808051935050831591508190506125ad575080155b156125c257600d935060009250612747915050565b6000866001600160a01b031663182df0f56040518163ffffffff1660e01b815260040160206040518083038186806125f861421a565b15801561260d5760008061260a6140c0565b50505b505a612617614266565b5050505050158015612636573d6000803e3d60006126336140c0565b50505b505050506040513d6020811015612655576000806126526140c0565b50505b81019080805193506000925061266d91506143c69050565b6126756143c6565b61267d6143c6565b6000612692600661268c61412b565b89613ccd565b9450905060008160038111156126a457fe5b146126c057600b5b995060009850612747975050505050505050565b6126ca8787613ccd565b9350905060008160038111156126dc57fe5b146126e857600b6126ac565b6126f28484613d04565b92509050600081600381111561270457fe5b1461271057600b6126ac565b61271a828c613a15565b95509050600081600381111561272c57fe5b1461273857600b6126ac565b60009950939750505050505050505b935093915050565b60006017600a61275d61412b565b906101000a900460ff16156127b35760405162461bcd60e51b815260206004820152600f60248201526e1cd95a5e99481a5cc81c185d5cd959608a1b6044820152606401604051809103906127b06140c0565b50505b6001600160a01b03861660009081526009602052604090206000906127d661412b565b906101000a900460ff16158061281657506001600160a01b038516600090815260096020526040902060009061280a61412b565b906101000a900460ff16155b15612822576009611c14565b846001600160a01b0316635fe3b5676040518163ffffffff1660e01b8152600401602060405180830381868061285661421a565b15801561286b576000806128686140c0565b50505b505a612875614266565b5050505050158015612894573d6000803e3d60006128916140c0565b50505b505050506040513d60208110156128b3576000806128b06140c0565b50505b8101908080516001600160a01b03908116935089169150635fe3b56790506040518163ffffffff1660e01b815260040160206040518083038186806128f661421a565b15801561290b576000806129086140c0565b50505b505a612915614266565b5050505050158015612934573d6000803e3d60006129316140c0565b50505b505050506040513d6020811015612953576000806129506140c0565b50505b8101908080516001600160a01b0316939093149250612976915050576002611c14565b60009695505050505050565b6000808061298e61412b565b906101000a90046001600160a01b03166001600160a01b03165a6129b0614186565b6001600160a01b0316146129ca576113686001600d61349a565b600060076129d661412b565b9050828060076129e46141cc565b5050507f7093cf1eb653f749c3ff531d6df7f92764536a7fa0d13530cd26e070780c32ea818460405191825260208201526040908101905180910390a160006117ea565b6001600160a01b0383166000908152600c60205260408120600090612a4b61412b565b906101000a900460ff1615612aa25760405162461bcd60e51b815260206004820152601060248201526f189bdc9c9bddc81a5cc81c185d5cd95960821b604482015260640160405180910390612a9f6140c0565b50505b6001600160a01b0384166000908152600960205260409020600090612ac561412b565b906101000a900460ff16612ada5760096117dd565b6001600160a01b03841660009081526009602052604090206001600160a01b038416600090815260029190910160205260409020600090612b1961412b565b906101000a900460ff16612c2357836001600160a01b03165a612b3a614186565b6001600160a01b031614612b955760405162461bcd60e51b815260206004820152601560248201527439b2b73232b91036bab9ba1031329031aa37b5b2b760591b604482015260640160405180910390612b926140c0565b50505b6000612ba95a612ba3614186565b85613b05565b90506000816011811115612bb957fe5b14612bd257806011811115612bca57fe5b9150506117ea565b6001600160a01b03851660009081526009602052604090206001600160a01b038516600090815260029190910160205260409020600090612c1161412b565b906101000a900460ff16612c2157fe5b505b60006004612c2f61412b565b906101000a90046001600160a01b03166001600160a01b031663fc57d4df856040516001600160e01b031960e084901b1681526001600160a01b0390911660048201526024016020604051808303818680612c8861421a565b158015612c9d57600080612c9a6140c0565b50505b505a612ca7614266565b5050505050158015612cc6573d6000803e3d6000612cc36140c0565b50505b505050506040513d6020811015612ce557600080612ce26140c0565b50505b81019080805115159250612cfd91505057600d6117dd565b600080612d0d8587600087613511565b91935090915060009050826011811115612d2357fe5b14612d3d57816011811115612d3457fe5b925050506117ea565b8015612976576004612d34565b60086020528160005260406000208181612d6261412b565b8110612d6a57fe5b9060005260206000206000935001905061114a61412b565b6000600361114a61412b565b60008080612d9a61412b565b906101000a90046001600160a01b03166001600160a01b03165a612dbc614186565b6001600160a01b031614612ddd57612dd66001600661349a565b9050610ef5565b6001600160a01b03831660009081526009602052604081209050600081612e0261412b565b906101000a900460ff16612e2457612e1c6009600761349a565b915050610ef5565b612e2c6143c6565b604051602081016040528481529050612e436143c6565b60405160208101604052670c7d713b49da000081529050612e648183613503565b15612e7f57612e756006600861349a565b9350505050610ef5565b8415801590612f57575060006004612e9561412b565b906101000a90046001600160a01b03166001600160a01b031663fc57d4df876040516001600160e01b031960e084901b1681526001600160a01b0390911660048201526024016020604051808303818680612eee61421a565b158015612f0357600080612f006140c0565b50505b505a612f0d614266565b5050505050158015612f2c573d6000803e3d6000612f296140c0565b50505b505050506040513d6020811015612f4b57600080612f486140c0565b50505b81019080805115925050505b15612f6857612e75600d600961349a565b600083600101612f7661412b565b9050858060018601612f866141cc565b5050507f70483e6592cd5182d45ac970e05bc62cdcc90e9d8ef2c2dbe686cf383bcd7fc587828860405180846001600160a01b03166001600160a01b03168152602001838152602001828152602001935050505060405180910390a16000979650505050505050565b6015600a6116d061412b565b60056116f461412b565b60006117e7848484613a69565b6000818180806001600160a01b03841663c37f68e25a613030614186565b6040516001600160e01b031960e084901b1681526001600160a01b039091166004820152602401608060405180830381868061306a61421a565b15801561307f5760008061307c6140c0565b50505b505a613089614266565b50505050501580156130a8573d6000803e3d60006130a56140c0565b50505b505050506040513d60808110156130c7576000806130c46140c0565b50505b81019080805192919060200180519291906020018051929190602001805150949750929550909350508415915061313a90505760405162461bcd60e51b815260040180806020018281038252602581526020018061455160259139604001915050604051809103906131376140c0565b50505b80156131575761314c600c600261349a565b94505050505061131b565b600061316c875a613166614186565b85613a69565b9050801561318d57613181600e600383613d1a565b9550505050505061131b565b6001600160a01b038516600090815260096020526040812090508060020160005a6131b6614186565b6001600160a01b03166001600160a01b031681526020019081526020016000206000906131e161412b565b906101000a900460ff166131fe576000965050505050505061131b565b8060020160005a61320d614186565b6001600160a01b03166001600160a01b0316815260200190815260200160002060018161323861412b565b9060ff021916906132476141cc565b50506060600860005a613258614186565b6001600160a01b03166001600160a01b031681526020019081526020016000208061328161412b565b8060200260200160405190810160405281815291906020830182806132a461412b565b80156132f157602002820191906000526020600020905b6000826132c661412b565b906101000a90046001600160a01b03166001600160a01b0316815260200190600101908083116132bb575b505050505090506000815190508060005b8281101561334757896001600160a01b031684828151811061332057fe5b60200260200101516001600160a01b0316141561333f57809150613347565b600101613302565b5081811061335157fe5b6000600860005a613360614186565b6001600160a01b03166001600160a01b031681526020019081526020016000209050806001828061338f61412b565b9050038161339b61412b565b81106133a357fe5b906000526020600020016000906133b861412b565b906101000a90046001600160a01b03168183816133d361412b565b81106133db57fe5b906000526020600020016001816133f061412b565b816001600160a01b0302191690836001600160a01b03160217906134126141cc565b505050808061341f61412b565b9061342e9060001983016143d7565b507fe699a64c18b07ac5b7301aa273f36a2287239eb9501d81950672794afba29a0d8a5a61345a614186565b6040516001600160a01b039283168152911660208201526040908101905180910390a160009c9b505050505050505050505050565b60008061114a61412b565b60006000805160206144ca8339815191528360118111156134b757fe5b8360138111156134c357fe5b600060405180848152602001838152602001828152602001935050505060405180910390a18260118111156117ea57fe5b60008151835111159392505050565b600081518351109392505050565b600080600061351e61440b565b6001600160a01b03881660009081526008602052806060604082208061354261412b565b80602002602001604051908101604052818152919060208301828061356561412b565b80156135b257602002820191906000526020600020905b60008261358761412b565b906101000a90046001600160a01b03166001600160a01b03168152602001906001019080831161357c575b50939450600093505050505b81518110156139ac5760008282815181106135d557fe5b60200260200101519050806001600160a01b031663c37f68e28e6040516001600160e01b031960e084901b1681526001600160a01b039091166004820152602401608060405180830381868061362961421a565b15801561363e5760008061363b6140c0565b50505b505a613648614266565b5050505050158015613667573d6000803e3d60006136646140c0565b50505b505050506040513d6080811015613686576000806136836140c0565b50505b81019080805192919060200180519291906020018051929190602001805160808d015250505060608901526040880152945084156136d55750600f975060009650869550611727945050505050565b604051602080820160409081526001600160a01b0384166000908152600990925282912060010161370461412b565b905260c087015260405180602001604052808760800151905260e08701526000600461372e61412b565b906101000a90046001600160a01b03166001600160a01b031663fc57d4df826040516001600160e01b031960e084901b1681526001600160a01b039091166004820152602401602060405180830381868061378761421a565b15801561379c576000806137996140c0565b50505b505a6137a6614266565b50505050501580156137c5573d6000803e3d60006137c26140c0565b50505b505050506040513d60208110156137e4576000806137e16140c0565b50505b81019080805160a08a0190815292505050516138115750600d975060009650869550611727945050505050565b60405180602001604052808760a00151905261010087015261384160c08701518760e00151886101000151613d73565b6101208801529350600084600381111561385757fe5b146138735750600b975060009650869550611727945050505050565b61388886610120015187604001518851613dcb565b87529350600084600381111561389a57fe5b146138b65750600b975060009650869550611727945050505050565b6138ce86610100015187606001518860200151613dcb565b6020880152935060008460038111156138e357fe5b146138ff5750600b975060009650869550611727945050505050565b8b6001600160a01b0316816001600160a01b031614156139a35761392d8661012001518c8860200151613dcb565b60208801529350600084600381111561394257fe5b1461395e5750600b975060009650869550611727945050505050565b6139728661010001518b8860200151613dcb565b60208801529350600084600381111561398757fe5b146139a35750600b975060009650869550611727945050505050565b506001016135be565b508360200151845111156139d85760008460200151855103600080905096509650965050505050611727565b600080855186602001510381915096509650965050505050611727565b6000806000613a08846000806000613511565b9250925092509193909250565b6000806000613a226143c6565b613a2c8686613e18565b90925090506000826003811115613a3f57fe5b14613a505750915060009050613a62565b6000613a5b82613e7e565b9350935050505b9250929050565b6001600160a01b0383166000908152600960205260408120600090613a8c61412b565b906101000a900460ff16613aa15760096117dd565b6001600160a01b03841660009081526009602052604090206001600160a01b038416600090815260029190910160205260409020600090613ae061412b565b906101000a900460ff16613af55760006117dd565b600080612d0d8587866000613511565b6001600160a01b0382166000908152600960205280604081209050600081613b2b61412b565b906101000a900460ff16613b43576009915050610ef5565b6001600160a01b03831660009081526002820160205260409020600090613b6861412b565b906101000a900460ff161515600115151415613b88576000915050610ef5565b6007613b9261412b565b6001600160a01b038416600090815260086020526040902080613bb361412b565b905010613bc4576010915050610ef5565b6001600160a01b03831660009081526002820160205260019060409020600181613bec61412b565b8160ff02191690831515021790613c016141cc565b5050506001600160a01b0383166000908152600860205260409020849080600181613c2a61412b565b018082613c356141cc565b5050600092835291600019830191506020902091929101600181613c5761412b565b816001600160a01b0302191690836001600160a01b0316021790613c796141cc565b505050507f3ab23ab0d51cccc0c3085aec51f99228625aa1a922b3a8ca89a26b0f2027a1a584846040516001600160a01b039283168152911660208201526040908101905180910390a15060009392505050565b6000613cd76143c6565b613cf96040516020810160409081528682525160208101604052858152613e99565b915091509250929050565b6000613d0e6143c6565b613cf984518451613f7e565b60006000805160206144ca833981519152846011811115613d3757fe5b846013811115613d4357fe5b8460405180848152602001838152602001828152602001935050505060405180910390a18360118111156117e757fe5b6000613d7d6143c6565b6000613d876143c6565b613d918787613e99565b90925090506000826003811115613da457fe5b14613db3579092509050612747565b613dbd8186613e99565b935093505050935093915050565b6000806000613dd86143c6565b613de28787613e18565b90925090506000826003811115613df557fe5b14613e065750915060009050612747565b613dbd613e1282613e7e565b86614030565b6000613e226143c6565b600080613e30865186614056565b90925090506000826003811115613e4357fe5b14613e64578160405160208101604052600081529094509250613a62915050565b600060405160208101604052918252969095509350505050565b6000670de0b6b3a7640000825181613e9257fe5b0492915050565b6000613ea36143c6565b600080613eb286518651614056565b90925090506000826003811115613ec557fe5b14613ee6578160405160208101604052600081529094509250613a62915050565b600080613efb6706f05b59d3b2000084614030565b90925090506000826003811115613f0e57fe5b14613f31578160405160208101604052600081529096509450613a629350505050565b600080613f4683670de0b6b3a7640000614095565b90925090506000826003811115613f5957fe5b14613f6057fe5b6000604051602081016040529182529a909950975050505050505050565b6000613f886143c6565b600080613f9d86670de0b6b3a7640000614056565b90925090506000826003811115613fb057fe5b14613fd1578160405160208101604052600081529094509250613a62915050565b600080613fde8388614095565b90925090506000826003811115613ff157fe5b14614014578160405160208101604052600081529096509450613a629350505050565b6000604051602081016040529182529890975095505050505050565b60008083830184811061404857600092509050613a62565b506002915060009050613a62565b6000808361406957506000905080613a62565b8383028385828161407657fe5b041461408a57506002915060009050613a62565b600092509050613a62565b600080826140a95750600190506000613a62565b60008385816140b457fe5b04915091509250929050565b632a2a7adb598160e01b8152600481016020815285602082015260005b868110156140f85780860151828201604001526020016140dd565b506020828760640184336000905af158600e01573d6000803e3d6000fd5b3d6001141558600a015760016000f35b505050565b6303daa959598160e01b8152836004820152602081602483336000905af158600e01573d6000803e3d6000fd5b3d6001141558600a015760016000f35b8051935060005b6040811015611a685760008282015260200161416f565b6373509064598160e01b8152602081600483336000905af158600e01573d6000803e3d6000fd5b3d6001141558600a015760016000f35b8051600082529350602061416f565b6322bd64c0598160e01b8152836004820152846024820152600081604483336000905af158600e01573d6000803e3d6000fd5b3d6001141558600a015760016000f35b60008152602061416f565b638435035b598160e01b8152836004820152602081602483336000905af158600e01573d6000803e3d6000fd5b3d6001141558600a015760016000f35b8051600082529350602061416f565b638540661f598160e01b8152836004820152846024820152606060448201528660648201526084810160005b888110156142aa578088015182820152602001614292565b506060828960a40184336000905af158600e01573d6000803e3d6000fd5b3d6001141558600a015760016000f35b815160408301513d6000853e8b8b82606087013350600060045af15059845b8181101561430b57600081526020016142f7565b50919b505050505050565b6385979f76598160e01b8152836004820152846024820152606060448201528760648201526084810160005b8981101561435a578089015182820152602001614342565b506060828a60a40184336000905af158600e01573d6000803e3d6000fd5b3d6001141558600a015760016000f35b815160408301513d6000853e8c8c82606087013350600060045af15059845b818110156143bb57600081526020016143a7565b50919c505050505050565b604051602081016040526000815290565b816143e061412b565b81836143ea6141cc565b505081811115611a685781836000526020600020611a689281019101614475565b6040518061014001604052806000815260200160008152602001600081526020016000815260200160008152602001600081526020016144496143c6565b81526020016144566143c6565b81526020016144636143c6565b81526020016144706143c6565b905290565b61449e91905b8082111561449a576000808261448f6141cc565b50505060010161447b565b5090565b9056fe63616e6e6f742070617573652061206d61726b65742074686174206973206e6f74206c697374656445b96fe442630264581b197e84bbada861235052c5a1aadfff9ea4e40a969aa06f6e6c792061646d696e2063616e20756e7061757365000000000000000000006f6e6c7920706175736520677561726469616e20616e642061646d696e2063616e207061757365ef159d9a32b2472e32b098f954f3ce62d232939f1c207070b584df1814de2de0657869744d61726b65743a206765744163636f756e74536e617073686f74206661696c656471aec636243f9709bb0007ae15e9afb8150ab01716d75fd7573be5cc096e03b06f6e6c7920756e6974726f6c6c65722061646d696e2063616e206368616e676520627261696e73",
  "deployedBytecode": "0x6080604052348015610019576000806100166140c0565b50505b50600436106102595760003560e01c80627e3dd21461026757806318c882a5146102835780631d504dc6146102ba5780631ededc91146102eb57806324008a621461033657806324a3d6221461038d57806326782247146103b15780632d70db78146103b9578063317b0b77146103e15780633bcf7ec1146104075780633c94786f1461043e57806341c728b91461044657806347ef3b3b1461048b5780634ada90af146104e05780634e79238f146104e85780634ef4c3e1146105515780634fd42e171461059057806351dff989146105b657806355ee1fe1146105fb5780635c7786051461062a5780635ec88c79146106695780635f5af1aa146106985780635fc7e71e146106c75780636a56947e146107165780636d154ea51461075b5780636d35bf911461078a578063731f0c2b146107d95780637dc0d1d01461080857806387f76303146108105780638e8f294b146108185780638ebf63641461086f578063929fe9a11461089757806394b2294b146108ce578063a76b3fda146108d6578063abfceffc14610905578063ac0b0bb714610987578063bb82aa5e1461098f578063bdcdc25814610997578063c2998238146109dc578063c488847b14610aa1578063d02f735114610af8578063d9226ced14610b47578063da3d454c14610b6d578063dce1544914610bac578063dcfbc0c714610be1578063e4028eee14610be9578063e6653f3d14610c1e578063e875544614610c26578063eabe7d9114610c2e578063ede4edd014610c6d578063f851a44014610c9c575b6000806102646140c0565b50505b61026f610ca4565b604051901515815260200160405180910390f35b61026f600480360360408110156102a25760008061029f6140c0565b50505b506001600160a01b0381351690602001351515610ca9565b6102e9600480360360208110156102d9576000806102d66140c0565b50505b50356001600160a01b0316610efb565b005b6102e9600480360360a081101561030a576000806103076140c0565b50505b506001600160a01b038135811691602081013582169160408201351690606081013590608001356110f0565b61037b60048036036080811015610355576000806103526140c0565b50505b506001600160a01b038135811691602081013582169160408201351690606001356110f7565b60405190815260200160405180910390f35b61039561113e565b6040516001600160a01b03909116815260200160405180910390f35b61039561115d565b61026f600480360360208110156103d8576000806103d56140c0565b50505b50351515611169565b61037b60048036036020811015610400576000806103fd6140c0565b50505b5035611320565b61026f60048036036040811015610426576000806104236140c0565b50505b506001600160a01b0381351690602001351515611477565b61026f6116c4565b6102e960048036036080811015610465576000806104626140c0565b50505b506001600160a01b038135811691602081013590911690604081013590606001356116dd565b6102e9600480360360c08110156104aa576000806104a76140c0565b50505b506001600160a01b0381358116916020810135821691604082013581169160608101359091169060808101359060a001356116e2565b61037b6116ea565b61052d60048036036080811015610507576000806105046140c0565b50505b506001600160a01b038135811691602081013590911690604081013590606001356116f7565b60405180848152602001838152602001828152602001935050505060405180910390f35b61037b600480360360608110156105705760008061056d6140c0565b50505b506001600160a01b03813581169160208101359091169060400135611731565b61037b600480360360208110156105af576000806105ac6140c0565b50505b50356117f1565b6102e9600480360360808110156105d5576000806105d26140c0565b50505b506001600160a01b03813581169160208101359091169060408101359060600135611922565b61037b6004803603602081101561061a576000806106176140c0565b50505b50356001600160a01b031661197b565b6102e960048036036060811015610649576000806106466140c0565b50505b506001600160a01b03813581169160208101359091169060400135611a68565b61052d60048036036020811015610688576000806106856140c0565b50505b50356001600160a01b0316611a6d565b61037b600480360360208110156106b7576000806106b46140c0565b50505b50356001600160a01b0316611aa2565b61037b600480360360a08110156106e6576000806106e36140c0565b50505b506001600160a01b0381358116916020810135821691604082013581169160608101359091169060800135611ba9565b6102e960048036036080811015610735576000806107326140c0565b50505b506001600160a01b038135811691602081013582169160408201351690606001356116dd565b61026f6004803603602081101561077a576000806107776140c0565b50505b50356001600160a01b0316611d86565b6102e9600480360360a08110156107a9576000806107a66140c0565b50505b506001600160a01b03813581169160208101358216916040820135811691606081013590911690608001356110f0565b61026f600480360360208110156107f8576000806107f56140c0565b50505b50356001600160a01b0316611da0565b610395611dba565b61026f611dc6565b61084760048036036020811015610837576000806108346140c0565b50505b50356001600160a01b0316611dd2565b6040519215158352602083019190915215156040808301919091526060909101905180910390f35b61026f6004803603602081101561088e5760008061088b6140c0565b50505b50351515611e22565b61026f600480360360408110156108b6576000806108b36140c0565b50505b506001600160a01b0381358116916020013516611fd8565b61037b612029565b61037b600480360360208110156108f5576000806108f26140c0565b50505b50356001600160a01b0316612033565b61093460048036036020811015610924576000806109216140c0565b50505b50356001600160a01b0316612233565b60405160208082528190810183818151815260200191508051906020019060200280838360005b8381101561097357808201518382015260200161095b565b505050509050019250505060405180910390f35b61026f6122d6565b6103956122e2565b61037b600480360360808110156109b6576000806109b36140c0565b50505b506001600160a01b038135811691602081013582169160408201351690606001356122ee565b610934600480360360208110156109fb576000806109f86140c0565b50505b810190602081018135600160201b811115610a1e57600080610a1b6140c0565b50505b820183602082011115610a3957600080610a366140c0565b50505b803590602001918460208302840111600160201b83111715610a6357600080610a606140c0565b50505b919080806020026020016040519081016040528093929190818152602001838360200280828437600092019190915250929550612360945050505050565b610ae060048036036060811015610ac057600080610abd6140c0565b50505b506001600160a01b038135811691602081013590911690604001356123ff565b60405191825260208201526040908101905180910390f35b61037b600480360360a0811015610b1757600080610b146140c0565b50505b506001600160a01b038135811691602081013582169160408201358116916060810135909116906080013561274f565b61037b60048036036020811015610b6657600080610b636140c0565b50505b5035612982565b61037b60048036036060811015610b8c57600080610b896140c0565b50505b506001600160a01b03813581169160208101359091169060400135612a28565b61039560048036036040811015610bcb57600080610bc86140c0565b50505b506001600160a01b038135169060200135612d4a565b610395612d82565b61037b60048036036040811015610c0857600080610c056140c0565b50505b506001600160a01b038135169060200135612d8e565b61026f612fef565b61037b612ffb565b61037b60048036036060811015610c4d57600080610c4a6140c0565b50505b506001600160a01b03813581169160208101359091169060400135613005565b61037b60048036036020811015610c8c57600080610c896140c0565b50505b50356001600160a01b0316613012565b61039561348f565b600181565b6001600160a01b0382166000908152600960205260408120600090610ccc61412b565b906101000a900460ff16610d1a5760405162461bcd60e51b81526004018080602001828103825260288152602001806144a26028913960400191505060405180910390610d176140c0565b50505b6000600a610d2661412b565b906101000a90046001600160a01b03166001600160a01b03165a610d48614186565b6001600160a01b03161480610d905750600080610d6361412b565b906101000a90046001600160a01b03166001600160a01b03165a610d85614186565b6001600160a01b0316145b610dd45760405162461bcd60e51b815260040180806020018281038252602781526020018061450a6027913960400191505060405180910390610dd16140c0565b50505b600080610ddf61412b565b906101000a90046001600160a01b03166001600160a01b03165a610e01614186565b6001600160a01b03161480610e1857506001821515145b610e5f5760405162461bcd60e51b815260206004820152601660248201526000805160206144ea833981519152604482015260640160405180910390610e5c6140c0565b50505b6001600160a01b0383166000908152600c602052829060409020600181610e8461412b565b8160ff02191690831515021790610e996141cc565b50505060008051602061457683398151915283836040516001600160a01b039092168252151560408083019190915260606020830181905260069083015265426f72726f7760d01b608083015260a0909101905180910390a150805b92915050565b806001600160a01b031663f851a4406040518163ffffffff1660e01b81526004016020604051808303818680610f2f61421a565b158015610f4457600080610f416140c0565b50505b505a610f4e614266565b5050505050158015610f6d573d6000803e3d6000610f6a6140c0565b50505b505050506040513d6020811015610f8c57600080610f896140c0565b50505b8101908080516001600160a01b0316925050505a610fa8614186565b6001600160a01b031614610ff65760405162461bcd60e51b81526004018080602001828103825260278152602001806145966027913960400191505060405180910390610ff36140c0565b50505b6000816001600160a01b031663c1e803346040518163ffffffff1660e01b81526004016020604051808303816000878061102e61421a565b158015611043576000806110406140c0565b50505b505a61104d614316565b50505050505015801561106d573d6000803e3d600061106a6140c0565b50505b505050506040513d602081101561108c576000806110896140c0565b50505b810190808051935050821591506110ec90505760405162461bcd60e51b815260206004820152601560248201527418da185b99d9481b9bdd08185d5d1a1bdc9a5e9959605a1b6044820152606401604051809103906110e96140c0565b50505b5050565b5050505050565b6001600160a01b038416600090815260096020526040812060009061111a61412b565b906101000a900460ff1661113057506009611136565b60005b90505b949350505050565b6000600a61114a61412b565b906101000a90046001600160a01b031681565b6000600161114a61412b565b600080600a61117661412b565b906101000a90046001600160a01b03166001600160a01b03165a611198614186565b6001600160a01b031614806111e057506000806111b361412b565b906101000a90046001600160a01b03166001600160a01b03165a6111d5614186565b6001600160a01b0316145b6112245760405162461bcd60e51b815260040180806020018281038252602781526020018061450a60279139604001915050604051809103906112216140c0565b50505b60008061122f61412b565b906101000a90046001600160a01b03166001600160a01b03165a611251614186565b6001600160a01b0316148061126857506001821515145b6112af5760405162461bcd60e51b815260206004820152601660248201526000805160206144ea8339815191526044820152606401604051809103906112ac6140c0565b50505b81600a600160b81b816112c061412b565b8160ff021916908315150217906112d56141cc565b5050506000805160206145318339815191528260405190151560208201526040808252600581830152645365697a6560d81b60608301526080909101905180910390a150805b919050565b6000808061132c61412b565b906101000a90046001600160a01b03166001600160a01b03165a61134e614186565b6001600160a01b03161461136f576113686001600461349a565b905061131b565b6113776143c6565b60405160208101604052838152905061138e6143c6565b6040516020810160405266b1a2bc2ec50000815290506113ae82826134f4565b156113c7576113be60058061349a565b9250505061131b565b6113cf6143c6565b60405160208101604052670c7d713b49da0000815290506113f08184613503565b1561140a5761140060058061349a565b935050505061131b565b6000600561141661412b565b9050858060056114246141cc565b5050507f3b9670cf975d26958e754b57098eaa2ac914d8d2a31b83257997b9f346110fd981600561145361412b565b60405191825260208201526040908101905180910390a160005b9695505050505050565b6001600160a01b038216600090815260096020526040812060009061149a61412b565b906101000a900460ff166114e85760405162461bcd60e51b81526004018080602001828103825260288152602001806144a260289139604001915050604051809103906114e56140c0565b50505b6000600a6114f461412b565b906101000a90046001600160a01b03166001600160a01b03165a611516614186565b6001600160a01b0316148061155e575060008061153161412b565b906101000a90046001600160a01b03166001600160a01b03165a611553614186565b6001600160a01b0316145b6115a25760405162461bcd60e51b815260040180806020018281038252602781526020018061450a602791396040019150506040518091039061159f6140c0565b50505b6000806115ad61412b565b906101000a90046001600160a01b03166001600160a01b03165a6115cf614186565b6001600160a01b031614806115e657506001821515145b61162d5760405162461bcd60e51b815260206004820152601660248201526000805160206144ea83398151915260448201526064016040518091039061162a6140c0565b50505b6001600160a01b0383166000908152600b60205282906040902060018161165261412b565b8160ff021916908315150217906116676141cc565b50505060008051602061457683398151915283836040516001600160a01b039092168252151560408083019190915260606020830181905260049083015263135a5b9d60e21b608083015260a0909101905180910390a150919050565b6014600a6116d061412b565b906101000a900460ff1681565b6110e9565b505050505050565b60066116f461412b565b81565b60008060008060008061170c8a8a8a8a613511565b92509250925082601181111561171e57fe5b95509093509150505b9450945094915050565b6001600160a01b0383166000908152600b6020526040812060009061175461412b565b906101000a900460ff16156117a95760405162461bcd60e51b815260206004820152600e60248201526d1b5a5b9d081a5cc81c185d5cd95960921b6044820152606401604051809103906117a66140c0565b50505b6001600160a01b03841660009081526009602052604090206000906117cc61412b565b906101000a900460ff166117e45760095b90506117ea565b60005b90505b9392505050565b600080806117fd61412b565b906101000a90046001600160a01b03166001600160a01b03165a61181f614186565b6001600160a01b031614611839576113686001600b61349a565b6118416143c6565b6040516020810160405283815290506118586143c6565b60405160208101604052670de0b6b3a7640000815290506118798282613503565b1561188a576113be6007600c61349a565b6118926143c6565b604051602081016040526714d1120d7b160000815290506118b38184613503565b156118c4576114006007600c61349a565b600060066118d061412b565b9050858060066118de6141cc565b5050507faeba5a6c40a8ac138134bff1aaa65debf25971188a58804bad717f82f0ec1316818760405191825260208201526040908101905180910390a1600061146d565b801580156119305750600082115b156110e95760405162461bcd60e51b815260206004820152601160248201527072656465656d546f6b656e73207a65726f60781b6044820152606401604051809103906116e26140c0565b6000808061198761412b565b906101000a90046001600160a01b03166001600160a01b03165a6119a9614186565b6001600160a01b0316146119c3576113686001601061349a565b60008060046119d061412b565b906101000a90046001600160a01b0316905082600460006101000a816119f461412b565b816001600160a01b0302191690836001600160a01b0316021790611a166141cc565b5050507fd52b2b9b7e9ee655fcb95d2e5b9e0c9f69e7ef2b8e9d2d0ea78402d576d22e2281846040516001600160a01b039283168152911660208201526040908101905180910390a160009392505050565b505050565b600080600080600080611a84876000806000613511565b925092509250826011811115611a9657fe5b97919650945092505050565b60008080611aae61412b565b906101000a90046001600160a01b03166001600160a01b03165a611ad0614186565b6001600160a01b031614611aea576113686001601361349a565b600080600a611af761412b565b906101000a90046001600160a01b0316905082600a60006101000a81611b1b61412b565b816001600160a01b0302191690836001600160a01b0316021790611b3d6141cc565b5050507f0613b6ee6a04f0d09f390e4d9318894b9f6ac7fd83897cd8d18896ba579c401e81600a600090611b6f61412b565b906101000a90046001600160a01b03166040516001600160a01b039283168152911660208201526040908101905180910390a160006117ea565b6001600160a01b0385166000908152600960205260408120600090611bcc61412b565b906101000a900460ff161580611c0c57506001600160a01b0385166000908152600960205260409020600090611c0061412b565b906101000a900460ff16155b15611c1b5760095b9050611d7d565b600080611c27856139f5565b91935090915060009050826011811115611c3d57fe5b14611c5757816011811115611c4e57fe5b92505050611d7d565b80611c63576003611c4e565b6000886001600160a01b03166395dd9193876040516001600160e01b031960e084901b1681526001600160a01b0390911660048201526024016020604051808303818680611caf61421a565b158015611cc457600080611cc16140c0565b50505b505a611cce614266565b5050505050158015611ced573d6000803e3d6000611cea6140c0565b50505b505050506040513d6020811015611d0c57600080611d096140c0565b50505b810190808051935060009250829150611d3d905060405180602001604052806005611d3561412b565b905284613a15565b90925090506000826003811115611d5057fe5b14611d6457600b5b95505050505050611d7d565b80871115611d73576011611d58565b6000955050505050505b95945050505050565b600c602052806000526040600020600091506116d061412b565b600b602052806000526040600020600091506116d061412b565b6000600461114a61412b565b6016600a6116d061412b565b60096020528060005260406000209050600081611ded61412b565b906101000a900460ff169080600101611e0461412b565b90600060038201611e1361412b565b906101000a900460ff16905083565b600080600a611e2f61412b565b906101000a90046001600160a01b03166001600160a01b03165a611e51614186565b6001600160a01b03161480611e995750600080611e6c61412b565b906101000a90046001600160a01b03166001600160a01b03165a611e8e614186565b6001600160a01b0316145b611edd5760405162461bcd60e51b815260040180806020018281038252602781526020018061450a6027913960400191505060405180910390611eda6140c0565b50505b600080611ee861412b565b906101000a90046001600160a01b03166001600160a01b03165a611f0a614186565b6001600160a01b03161480611f2157506001821515145b611f685760405162461bcd60e51b815260206004820152601660248201526000805160206144ea833981519152604482015260640160405180910390611f656140c0565b50505b81600a600160b01b81611f7961412b565b8160ff02191690831515021790611f8e6141cc565b5050506000805160206145318339815191528260405190151560208201526040808252600881830152672a3930b739b332b960c11b60608301526080909101905180910390a15090565b6001600160a01b03811660009081526009602052604081206001600160a01b03841660009081526002919091016020526040902060009061201761412b565b906101000a900460ff16905092915050565b60076116f461412b565b6000808061203f61412b565b906101000a90046001600160a01b03166001600160a01b03165a612061614186565b6001600160a01b03161461207b576113686001601261349a565b6001600160a01b038216600090815260096020526040902060009061209e61412b565b906101000a900460ff16156120b957611368600a601161349a565b816001600160a01b031663fe9c44ae6040518163ffffffff1660e01b815260040160206040518083038186806120ed61421a565b158015612102576000806120ff6140c0565b50505b505a61210c614266565b505050505015801561212b573d6000803e3d60006121286140c0565b50505b505050506040513d602081101561214a576000806121476140c0565b50505b810190808051506040925050505160608101604090815260018252600060208084018290528284018290526001600160a01b0386168252600990522081518160018161219461412b565b8160ff021916908315150217906121a96141cc565b5050506020820151816001016121bd6141cc565b50506040820151600382016001816121d361412b565b8160ff021916908315150217906121e86141cc565b5050509050507fcf583bb0c569eb967f806b11601c4cb93c10310485c67add5f8362c2f212321f826040516001600160a01b03909116815260200160405180910390a1600092915050565b6001600160a01b038116600090815260086020526060908190604090208061225961412b565b80602002602001604051908101604052818152919060208301828061227c61412b565b80156122c957602002820191906000526020600020905b60008261229e61412b565b906101000a90046001600160a01b03166001600160a01b031681526020019060010190808311612293575b5093979650505050505050565b6017600a6116d061412b565b6000600261114a61412b565b60006016600a6122fc61412b565b906101000a900460ff16156123555760405162461bcd60e51b81526020600482015260126024820152711d1c985b9cd9995c881a5cc81c185d5cd95960721b6044820152606401604051809103906123526140c0565b50505b611133858584613a69565b6060600082519050606081604051908082528060200260200182016040528015612394578160200160208202803883390190505b50905060005b828110156123f75760008582815181106123b057fe5b602002602001015190506123cc815a6123c7614186565b613b05565b60118111156123d757fe5b8383815181106123e357fe5b60209081029190910101525060010161239a565b509392505050565b6000808080600461240e61412b565b906101000a90046001600160a01b03166001600160a01b031663fc57d4df876040516001600160e01b031960e084901b1681526001600160a01b039091166004820152602401602060405180830381868061246761421a565b15801561247c576000806124796140c0565b50505b505a612486614266565b50505050501580156124a5573d6000803e3d60006124a26140c0565b50505b505050506040513d60208110156124c4576000806124c16140c0565b50505b810190808051935060009250829150600490506124df61412b565b906101000a90046001600160a01b03166001600160a01b031663fc57d4df876040516001600160e01b031960e084901b1681526001600160a01b039091166004820152602401602060405180830381868061253861421a565b15801561254d5760008061254a6140c0565b50505b505a612557614266565b5050505050158015612576573d6000803e3d60006125736140c0565b50505b505050506040513d6020811015612595576000806125926140c0565b50505b810190808051935050831591508190506125ad575080155b156125c257600d935060009250612747915050565b6000866001600160a01b031663182df0f56040518163ffffffff1660e01b815260040160206040518083038186806125f861421a565b15801561260d5760008061260a6140c0565b50505b505a612617614266565b5050505050158015612636573d6000803e3d60006126336140c0565b50505b505050506040513d6020811015612655576000806126526140c0565b50505b81019080805193506000925061266d91506143c69050565b6126756143c6565b61267d6143c6565b6000612692600661268c61412b565b89613ccd565b9450905060008160038111156126a457fe5b146126c057600b5b995060009850612747975050505050505050565b6126ca8787613ccd565b9350905060008160038111156126dc57fe5b146126e857600b6126ac565b6126f28484613d04565b92509050600081600381111561270457fe5b1461271057600b6126ac565b61271a828c613a15565b95509050600081600381111561272c57fe5b1461273857600b6126ac565b60009950939750505050505050505b935093915050565b60006017600a61275d61412b565b906101000a900460ff16156127b35760405162461bcd60e51b815260206004820152600f60248201526e1cd95a5e99481a5cc81c185d5cd959608a1b6044820152606401604051809103906127b06140c0565b50505b6001600160a01b03861660009081526009602052604090206000906127d661412b565b906101000a900460ff16158061281657506001600160a01b038516600090815260096020526040902060009061280a61412b565b906101000a900460ff16155b15612822576009611c14565b846001600160a01b0316635fe3b5676040518163ffffffff1660e01b8152600401602060405180830381868061285661421a565b15801561286b576000806128686140c0565b50505b505a612875614266565b5050505050158015612894573d6000803e3d60006128916140c0565b50505b505050506040513d60208110156128b3576000806128b06140c0565b50505b8101908080516001600160a01b03908116935089169150635fe3b56790506040518163ffffffff1660e01b815260040160206040518083038186806128f661421a565b15801561290b576000806129086140c0565b50505b505a612915614266565b5050505050158015612934573d6000803e3d60006129316140c0565b50505b505050506040513d6020811015612953576000806129506140c0565b50505b8101908080516001600160a01b0316939093149250612976915050576002611c14565b60009695505050505050565b6000808061298e61412b565b906101000a90046001600160a01b03166001600160a01b03165a6129b0614186565b6001600160a01b0316146129ca576113686001600d61349a565b600060076129d661412b565b9050828060076129e46141cc565b5050507f7093cf1eb653f749c3ff531d6df7f92764536a7fa0d13530cd26e070780c32ea818460405191825260208201526040908101905180910390a160006117ea565b6001600160a01b0383166000908152600c60205260408120600090612a4b61412b565b906101000a900460ff1615612aa25760405162461bcd60e51b815260206004820152601060248201526f189bdc9c9bddc81a5cc81c185d5cd95960821b604482015260640160405180910390612a9f6140c0565b50505b6001600160a01b0384166000908152600960205260409020600090612ac561412b565b906101000a900460ff16612ada5760096117dd565b6001600160a01b03841660009081526009602052604090206001600160a01b038416600090815260029190910160205260409020600090612b1961412b565b906101000a900460ff16612c2357836001600160a01b03165a612b3a614186565b6001600160a01b031614612b955760405162461bcd60e51b815260206004820152601560248201527439b2b73232b91036bab9ba1031329031aa37b5b2b760591b604482015260640160405180910390612b926140c0565b50505b6000612ba95a612ba3614186565b85613b05565b90506000816011811115612bb957fe5b14612bd257806011811115612bca57fe5b9150506117ea565b6001600160a01b03851660009081526009602052604090206001600160a01b038516600090815260029190910160205260409020600090612c1161412b565b906101000a900460ff16612c2157fe5b505b60006004612c2f61412b565b906101000a90046001600160a01b03166001600160a01b031663fc57d4df856040516001600160e01b031960e084901b1681526001600160a01b0390911660048201526024016020604051808303818680612c8861421a565b158015612c9d57600080612c9a6140c0565b50505b505a612ca7614266565b5050505050158015612cc6573d6000803e3d6000612cc36140c0565b50505b505050506040513d6020811015612ce557600080612ce26140c0565b50505b81019080805115159250612cfd91505057600d6117dd565b600080612d0d8587600087613511565b91935090915060009050826011811115612d2357fe5b14612d3d57816011811115612d3457fe5b925050506117ea565b8015612976576004612d34565b60086020528160005260406000208181612d6261412b565b8110612d6a57fe5b9060005260206000206000935001905061114a61412b565b6000600361114a61412b565b60008080612d9a61412b565b906101000a90046001600160a01b03166001600160a01b03165a612dbc614186565b6001600160a01b031614612ddd57612dd66001600661349a565b9050610ef5565b6001600160a01b03831660009081526009602052604081209050600081612e0261412b565b906101000a900460ff16612e2457612e1c6009600761349a565b915050610ef5565b612e2c6143c6565b604051602081016040528481529050612e436143c6565b60405160208101604052670c7d713b49da000081529050612e648183613503565b15612e7f57612e756006600861349a565b9350505050610ef5565b8415801590612f57575060006004612e9561412b565b906101000a90046001600160a01b03166001600160a01b031663fc57d4df876040516001600160e01b031960e084901b1681526001600160a01b0390911660048201526024016020604051808303818680612eee61421a565b158015612f0357600080612f006140c0565b50505b505a612f0d614266565b5050505050158015612f2c573d6000803e3d6000612f296140c0565b50505b505050506040513d6020811015612f4b57600080612f486140c0565b50505b81019080805115925050505b15612f6857612e75600d600961349a565b600083600101612f7661412b565b9050858060018601612f866141cc565b5050507f70483e6592cd5182d45ac970e05bc62cdcc90e9d8ef2c2dbe686cf383bcd7fc587828860405180846001600160a01b03166001600160a01b03168152602001838152602001828152602001935050505060405180910390a16000979650505050505050565b6015600a6116d061412b565b60056116f461412b565b60006117e7848484613a69565b6000818180806001600160a01b03841663c37f68e25a613030614186565b6040516001600160e01b031960e084901b1681526001600160a01b039091166004820152602401608060405180830381868061306a61421a565b15801561307f5760008061307c6140c0565b50505b505a613089614266565b50505050501580156130a8573d6000803e3d60006130a56140c0565b50505b505050506040513d60808110156130c7576000806130c46140c0565b50505b81019080805192919060200180519291906020018051929190602001805150949750929550909350508415915061313a90505760405162461bcd60e51b815260040180806020018281038252602581526020018061455160259139604001915050604051809103906131376140c0565b50505b80156131575761314c600c600261349a565b94505050505061131b565b600061316c875a613166614186565b85613a69565b9050801561318d57613181600e600383613d1a565b9550505050505061131b565b6001600160a01b038516600090815260096020526040812090508060020160005a6131b6614186565b6001600160a01b03166001600160a01b031681526020019081526020016000206000906131e161412b565b906101000a900460ff166131fe576000965050505050505061131b565b8060020160005a61320d614186565b6001600160a01b03166001600160a01b0316815260200190815260200160002060018161323861412b565b9060ff021916906132476141cc565b50506060600860005a613258614186565b6001600160a01b03166001600160a01b031681526020019081526020016000208061328161412b565b8060200260200160405190810160405281815291906020830182806132a461412b565b80156132f157602002820191906000526020600020905b6000826132c661412b565b906101000a90046001600160a01b03166001600160a01b0316815260200190600101908083116132bb575b505050505090506000815190508060005b8281101561334757896001600160a01b031684828151811061332057fe5b60200260200101516001600160a01b0316141561333f57809150613347565b600101613302565b5081811061335157fe5b6000600860005a613360614186565b6001600160a01b03166001600160a01b031681526020019081526020016000209050806001828061338f61412b565b9050038161339b61412b565b81106133a357fe5b906000526020600020016000906133b861412b565b906101000a90046001600160a01b03168183816133d361412b565b81106133db57fe5b906000526020600020016001816133f061412b565b816001600160a01b0302191690836001600160a01b03160217906134126141cc565b505050808061341f61412b565b9061342e9060001983016143d7565b507fe699a64c18b07ac5b7301aa273f36a2287239eb9501d81950672794afba29a0d8a5a61345a614186565b6040516001600160a01b039283168152911660208201526040908101905180910390a160009c9b505050505050505050505050565b60008061114a61412b565b60006000805160206144ca8339815191528360118111156134b757fe5b8360138111156134c357fe5b600060405180848152602001838152602001828152602001935050505060405180910390a18260118111156117ea57fe5b60008151835111159392505050565b600081518351109392505050565b600080600061351e61440b565b6001600160a01b03881660009081526008602052806060604082208061354261412b565b80602002602001604051908101604052818152919060208301828061356561412b565b80156135b257602002820191906000526020600020905b60008261358761412b565b906101000a90046001600160a01b03166001600160a01b03168152602001906001019080831161357c575b50939450600093505050505b81518110156139ac5760008282815181106135d557fe5b60200260200101519050806001600160a01b031663c37f68e28e6040516001600160e01b031960e084901b1681526001600160a01b039091166004820152602401608060405180830381868061362961421a565b15801561363e5760008061363b6140c0565b50505b505a613648614266565b5050505050158015613667573d6000803e3d60006136646140c0565b50505b505050506040513d6080811015613686576000806136836140c0565b50505b81019080805192919060200180519291906020018051929190602001805160808d015250505060608901526040880152945084156136d55750600f975060009650869550611727945050505050565b604051602080820160409081526001600160a01b0384166000908152600990925282912060010161370461412b565b905260c087015260405180602001604052808760800151905260e08701526000600461372e61412b565b906101000a90046001600160a01b03166001600160a01b031663fc57d4df826040516001600160e01b031960e084901b1681526001600160a01b039091166004820152602401602060405180830381868061378761421a565b15801561379c576000806137996140c0565b50505b505a6137a6614266565b50505050501580156137c5573d6000803e3d60006137c26140c0565b50505b505050506040513d60208110156137e4576000806137e16140c0565b50505b81019080805160a08a0190815292505050516138115750600d975060009650869550611727945050505050565b60405180602001604052808760a00151905261010087015261384160c08701518760e00151886101000151613d73565b6101208801529350600084600381111561385757fe5b146138735750600b975060009650869550611727945050505050565b61388886610120015187604001518851613dcb565b87529350600084600381111561389a57fe5b146138b65750600b975060009650869550611727945050505050565b6138ce86610100015187606001518860200151613dcb565b6020880152935060008460038111156138e357fe5b146138ff5750600b975060009650869550611727945050505050565b8b6001600160a01b0316816001600160a01b031614156139a35761392d8661012001518c8860200151613dcb565b60208801529350600084600381111561394257fe5b1461395e5750600b975060009650869550611727945050505050565b6139728661010001518b8860200151613dcb565b60208801529350600084600381111561398757fe5b146139a35750600b975060009650869550611727945050505050565b506001016135be565b508360200151845111156139d85760008460200151855103600080905096509650965050505050611727565b600080855186602001510381915096509650965050505050611727565b6000806000613a08846000806000613511565b9250925092509193909250565b6000806000613a226143c6565b613a2c8686613e18565b90925090506000826003811115613a3f57fe5b14613a505750915060009050613a62565b6000613a5b82613e7e565b9350935050505b9250929050565b6001600160a01b0383166000908152600960205260408120600090613a8c61412b565b906101000a900460ff16613aa15760096117dd565b6001600160a01b03841660009081526009602052604090206001600160a01b038416600090815260029190910160205260409020600090613ae061412b565b906101000a900460ff16613af55760006117dd565b600080612d0d8587866000613511565b6001600160a01b0382166000908152600960205280604081209050600081613b2b61412b565b906101000a900460ff16613b43576009915050610ef5565b6001600160a01b03831660009081526002820160205260409020600090613b6861412b565b906101000a900460ff161515600115151415613b88576000915050610ef5565b6007613b9261412b565b6001600160a01b038416600090815260086020526040902080613bb361412b565b905010613bc4576010915050610ef5565b6001600160a01b03831660009081526002820160205260019060409020600181613bec61412b565b8160ff02191690831515021790613c016141cc565b5050506001600160a01b0383166000908152600860205260409020849080600181613c2a61412b565b018082613c356141cc565b5050600092835291600019830191506020902091929101600181613c5761412b565b816001600160a01b0302191690836001600160a01b0316021790613c796141cc565b505050507f3ab23ab0d51cccc0c3085aec51f99228625aa1a922b3a8ca89a26b0f2027a1a584846040516001600160a01b039283168152911660208201526040908101905180910390a15060009392505050565b6000613cd76143c6565b613cf96040516020810160409081528682525160208101604052858152613e99565b915091509250929050565b6000613d0e6143c6565b613cf984518451613f7e565b60006000805160206144ca833981519152846011811115613d3757fe5b846013811115613d4357fe5b8460405180848152602001838152602001828152602001935050505060405180910390a18360118111156117e757fe5b6000613d7d6143c6565b6000613d876143c6565b613d918787613e99565b90925090506000826003811115613da457fe5b14613db3579092509050612747565b613dbd8186613e99565b935093505050935093915050565b6000806000613dd86143c6565b613de28787613e18565b90925090506000826003811115613df557fe5b14613e065750915060009050612747565b613dbd613e1282613e7e565b86614030565b6000613e226143c6565b600080613e30865186614056565b90925090506000826003811115613e4357fe5b14613e64578160405160208101604052600081529094509250613a62915050565b600060405160208101604052918252969095509350505050565b6000670de0b6b3a7640000825181613e9257fe5b0492915050565b6000613ea36143c6565b600080613eb286518651614056565b90925090506000826003811115613ec557fe5b14613ee6578160405160208101604052600081529094509250613a62915050565b600080613efb6706f05b59d3b2000084614030565b90925090506000826003811115613f0e57fe5b14613f31578160405160208101604052600081529096509450613a629350505050565b600080613f4683670de0b6b3a7640000614095565b90925090506000826003811115613f5957fe5b14613f6057fe5b6000604051602081016040529182529a909950975050505050505050565b6000613f886143c6565b600080613f9d86670de0b6b3a7640000614056565b90925090506000826003811115613fb057fe5b14613fd1578160405160208101604052600081529094509250613a62915050565b600080613fde8388614095565b90925090506000826003811115613ff157fe5b14614014578160405160208101604052600081529096509450613a629350505050565b6000604051602081016040529182529890975095505050505050565b60008083830184811061404857600092509050613a62565b506002915060009050613a62565b6000808361406957506000905080613a62565b8383028385828161407657fe5b041461408a57506002915060009050613a62565b600092509050613a62565b600080826140a95750600190506000613a62565b60008385816140b457fe5b04915091509250929050565b632a2a7adb598160e01b8152600481016020815285602082015260005b868110156140f85780860151828201604001526020016140dd565b506020828760640184336000905af158601d01573d60011458600c01573d6000803e3d621234565260ea61109c52505050565b6303daa959598160e01b8152836004820152602081602483336000905af158601d01573d60011458600c01573d6000803e3d621234565260ea61109c528051935060005b6040811015611a685760008282015260200161416f565b6373509064598160e01b8152602081600483336000905af158601d01573d60011458600c01573d6000803e3d621234565260ea61109c528051600082529350602061416f565b6322bd64c0598160e01b8152836004820152846024820152600081604483336000905af158601d01573d60011458600c01573d6000803e3d621234565260ea61109c5260008152602061416f565b638435035b598160e01b8152836004820152602081602483336000905af158601d01573d60011458600c01573d6000803e3d621234565260ea61109c528051600082529350602061416f565b638540661f598160e01b8152836004820152846024820152606060448201528660648201526084810160005b888110156142aa578088015182820152602001614292565b506060828960a40184336000905af158601d01573d60011458600c01573d6000803e3d621234565260ea61109c52815160408301513d6000853e8b8b82606087013350600060045af15059845b8181101561430b57600081526020016142f7565b50919b505050505050565b6385979f76598160e01b8152836004820152846024820152606060448201528760648201526084810160005b8981101561435a578089015182820152602001614342565b506060828a60a40184336000905af158601d01573d60011458600c01573d6000803e3d621234565260ea61109c52815160408301513d6000853e8c8c82606087013350600060045af15059845b818110156143bb57600081526020016143a7565b50919c505050505050565b604051602081016040526000815290565b816143e061412b565b81836143ea6141cc565b505081811115611a685781836000526020600020611a689281019101614475565b6040518061014001604052806000815260200160008152602001600081526020016000815260200160008152602001600081526020016144496143c6565b81526020016144566143c6565b81526020016144636143c6565b81526020016144706143c6565b905290565b61449e91905b8082111561449a576000808261448f6141cc565b50505060010161447b565b5090565b9056fe63616e6e6f742070617573652061206d61726b65742074686174206973206e6f74206c697374656445b96fe442630264581b197e84bbada861235052c5a1aadfff9ea4e40a969aa06f6e6c792061646d696e2063616e20756e7061757365000000000000000000006f6e6c7920706175736520677561726469616e20616e642061646d696e2063616e207061757365ef159d9a32b2472e32b098f954f3ce62d232939f1c207070b584df1814de2de0657869744d61726b65743a206765744163636f756e74536e617073686f74206661696c656471aec636243f9709bb0007ae15e9afb8150ab01716d75fd7573be5cc096e03b06f6e6c7920756e6974726f6c6c65722061646d696e2063616e206368616e676520627261696e73",
  "source": "pragma solidity ^0.5.16;\n\nimport \"./CToken.sol\";\nimport \"./ErrorReporter.sol\";\nimport \"./Exponential.sol\";\nimport \"./PriceOracle.sol\";\nimport \"./ComptrollerInterface.sol\";\nimport \"./ComptrollerStorage.sol\";\nimport \"./Unitroller.sol\";\n\n/**\n * @title Compound's Comptroller Contract\n * @author Compound\n */\ncontract ComptrollerG2 is ComptrollerV2Storage, ComptrollerInterface, ComptrollerErrorReporter, Exponential {\n    /**\n     * @notice Emitted when an admin supports a market\n     */\n    event MarketListed(CToken cToken);\n\n    /**\n     * @notice Emitted when an account enters a market\n     */\n    event MarketEntered(CToken cToken, address account);\n\n    /**\n     * @notice Emitted when an account exits a market\n     */\n    event MarketExited(CToken cToken, address account);\n\n    /**\n     * @notice Emitted when close factor is changed by admin\n     */\n    event NewCloseFactor(uint oldCloseFactorMantissa, uint newCloseFactorMantissa);\n\n    /**\n     * @notice Emitted when a collateral factor is changed by admin\n     */\n    event NewCollateralFactor(CToken cToken, uint oldCollateralFactorMantissa, uint newCollateralFactorMantissa);\n\n    /**\n     * @notice Emitted when liquidation incentive is changed by admin\n     */\n    event NewLiquidationIncentive(uint oldLiquidationIncentiveMantissa, uint newLiquidationIncentiveMantissa);\n\n    /**\n     * @notice Emitted when maxAssets is changed by admin\n     */\n    event NewMaxAssets(uint oldMaxAssets, uint newMaxAssets);\n\n    /**\n     * @notice Emitted when price oracle is changed\n     */\n    event NewPriceOracle(PriceOracle oldPriceOracle, PriceOracle newPriceOracle);\n\n    /**\n     * @notice Emitted when pause guardian is changed\n     */\n    event NewPauseGuardian(address oldPauseGuardian, address newPauseGuardian);\n\n    /**\n     * @notice Emitted when an action is paused globally\n     */\n    event ActionPaused(string action, bool pauseState);\n\n    /**\n     * @notice Emitted when an action is paused on a market\n     */\n    event ActionPaused(CToken cToken, string action, bool pauseState);\n\n    // closeFactorMantissa must be strictly greater than this value\n    uint internal constant closeFactorMinMantissa = 0.05e18; // 0.05\n\n    // closeFactorMantissa must not exceed this value\n    uint internal constant closeFactorMaxMantissa = 0.9e18; // 0.9\n\n    // No collateralFactorMantissa may exceed this value\n    uint internal constant collateralFactorMaxMantissa = 0.9e18; // 0.9\n\n    // liquidationIncentiveMantissa must be no less than this value\n    uint internal constant liquidationIncentiveMinMantissa = 1.0e18; // 1.0\n\n    // liquidationIncentiveMantissa must be no greater than this value\n    uint internal constant liquidationIncentiveMaxMantissa = 1.5e18; // 1.5\n\n    constructor() public {\n        admin = msg.sender;\n    }\n\n    /*** Assets You Are In ***/\n\n    /**\n     * @notice Returns the assets an account has entered\n     * @param account The address of the account to pull assets for\n     * @return A dynamic list with the assets the account has entered\n     */\n    function getAssetsIn(address account) external view returns (CToken[] memory) {\n        CToken[] memory assetsIn = accountAssets[account];\n\n        return assetsIn;\n    }\n\n    /**\n     * @notice Returns whether the given account is entered in the given asset\n     * @param account The address of the account to check\n     * @param cToken The cToken to check\n     * @return True if the account is in the asset, otherwise false.\n     */\n    function checkMembership(address account, CToken cToken) external view returns (bool) {\n        return markets[address(cToken)].accountMembership[account];\n    }\n\n    /**\n     * @notice Add assets to be included in account liquidity calculation\n     * @param cTokens The list of addresses of the cToken markets to be enabled\n     * @return Success indicator for whether each corresponding market was entered\n     */\n    function enterMarkets(address[] memory cTokens) public returns (uint[] memory) {\n        uint len = cTokens.length;\n\n        uint[] memory results = new uint[](len);\n        for (uint i = 0; i < len; i++) {\n            CToken cToken = CToken(cTokens[i]);\n\n            results[i] = uint(addToMarketInternal(cToken, msg.sender));\n        }\n\n        return results;\n    }\n\n    /**\n     * @notice Add the market to the borrower's \"assets in\" for liquidity calculations\n     * @param cToken The market to enter\n     * @param borrower The address of the account to modify\n     * @return Success indicator for whether the market was entered\n     */\n    function addToMarketInternal(CToken cToken, address borrower) internal returns (Error) {\n        Market storage marketToJoin = markets[address(cToken)];\n\n        if (!marketToJoin.isListed) {\n            // market is not listed, cannot join\n            return Error.MARKET_NOT_LISTED;\n        }\n\n        if (marketToJoin.accountMembership[borrower] == true) {\n            // already joined\n            return Error.NO_ERROR;\n        }\n\n        if (accountAssets[borrower].length >= maxAssets)  {\n            // no space, cannot join\n            return Error.TOO_MANY_ASSETS;\n        }\n\n        // survived the gauntlet, add to list\n        // NOTE: we store these somewhat redundantly as a significant optimization\n        //  this avoids having to iterate through the list for the most common use cases\n        //  that is, only when we need to perform liquidity checks\n        //  and not whenever we want to check if an account is in a particular market\n        marketToJoin.accountMembership[borrower] = true;\n        accountAssets[borrower].push(cToken);\n\n        emit MarketEntered(cToken, borrower);\n\n        return Error.NO_ERROR;\n    }\n\n    /**\n     * @notice Removes asset from sender's account liquidity calculation\n     * @dev Sender must not have an outstanding borrow balance in the asset,\n     *  or be providing neccessary collateral for an outstanding borrow.\n     * @param cTokenAddress The address of the asset to be removed\n     * @return Whether or not the account successfully exited the market\n     */\n    function exitMarket(address cTokenAddress) external returns (uint) {\n        CToken cToken = CToken(cTokenAddress);\n        /* Get sender tokensHeld and amountOwed underlying from the cToken */\n        (uint oErr, uint tokensHeld, uint amountOwed, ) = cToken.getAccountSnapshot(msg.sender);\n        require(oErr == 0, \"exitMarket: getAccountSnapshot failed\"); // semi-opaque error code\n\n        /* Fail if the sender has a borrow balance */\n        if (amountOwed != 0) {\n            return fail(Error.NONZERO_BORROW_BALANCE, FailureInfo.EXIT_MARKET_BALANCE_OWED);\n        }\n\n        /* Fail if the sender is not permitted to redeem all of their tokens */\n        uint allowed = redeemAllowedInternal(cTokenAddress, msg.sender, tokensHeld);\n        if (allowed != 0) {\n            return failOpaque(Error.REJECTION, FailureInfo.EXIT_MARKET_REJECTION, allowed);\n        }\n\n        Market storage marketToExit = markets[address(cToken)];\n\n        /* Return true if the sender is not already in the market */\n        if (!marketToExit.accountMembership[msg.sender]) {\n            return uint(Error.NO_ERROR);\n        }\n\n        /* Set cToken account membership to false */\n        delete marketToExit.accountMembership[msg.sender];\n\n        /* Delete cToken from the accounts list of assets */\n        // load into memory for faster iteration\n        CToken[] memory userAssetList = accountAssets[msg.sender];\n        uint len = userAssetList.length;\n        uint assetIndex = len;\n        for (uint i = 0; i < len; i++) {\n            if (userAssetList[i] == cToken) {\n                assetIndex = i;\n                break;\n            }\n        }\n\n        // We *must* have found the asset in the list or our redundant data structure is broken\n        assert(assetIndex < len);\n\n        // copy last item in list to location of item to be removed, reduce length by 1\n        CToken[] storage storedList = accountAssets[msg.sender];\n        storedList[assetIndex] = storedList[storedList.length - 1];\n        storedList.length--;\n\n        emit MarketExited(cToken, msg.sender);\n\n        return uint(Error.NO_ERROR);\n    }\n\n    /*** Policy Hooks ***/\n\n    /**\n     * @notice Checks if the account should be allowed to mint tokens in the given market\n     * @param cToken The market to verify the mint against\n     * @param minter The account which would get the minted tokens\n     * @param mintAmount The amount of underlying being supplied to the market in exchange for tokens\n     * @return 0 if the mint is allowed, otherwise a semi-opaque error code (See ErrorReporter.sol)\n     */\n    function mintAllowed(address cToken, address minter, uint mintAmount) external returns (uint) {\n        // Pausing is a very serious situation - we revert to sound the alarms\n        require(!mintGuardianPaused[cToken], \"mint is paused\");\n\n        // Shh - currently unused\n        minter;\n        mintAmount;\n\n        if (!markets[cToken].isListed) {\n            return uint(Error.MARKET_NOT_LISTED);\n        }\n\n        // *may include Policy Hook-type checks\n\n        return uint(Error.NO_ERROR);\n    }\n\n    /**\n     * @notice Validates mint and reverts on rejection. May emit logs.\n     * @param cToken Asset being minted\n     * @param minter The address minting the tokens\n     * @param actualMintAmount The amount of the underlying asset being minted\n     * @param mintTokens The number of tokens being minted\n     */\n    function mintVerify(address cToken, address minter, uint actualMintAmount, uint mintTokens) external {\n        // Shh - currently unused\n        cToken;\n        minter;\n        actualMintAmount;\n        mintTokens;\n\n        // Shh - we don't ever want this hook to be marked pure\n        if (false) {\n            maxAssets = maxAssets;\n        }\n    }\n\n    /**\n     * @notice Checks if the account should be allowed to redeem tokens in the given market\n     * @param cToken The market to verify the redeem against\n     * @param redeemer The account which would redeem the tokens\n     * @param redeemTokens The number of cTokens to exchange for the underlying asset in the market\n     * @return 0 if the redeem is allowed, otherwise a semi-opaque error code (See ErrorReporter.sol)\n     */\n    function redeemAllowed(address cToken, address redeemer, uint redeemTokens) external returns (uint) {\n        return redeemAllowedInternal(cToken, redeemer, redeemTokens);\n    }\n\n    function redeemAllowedInternal(address cToken, address redeemer, uint redeemTokens) internal view returns (uint) {\n        if (!markets[cToken].isListed) {\n            return uint(Error.MARKET_NOT_LISTED);\n        }\n\n        // *may include Policy Hook-type checks\n\n        /* If the redeemer is not 'in' the market, then we can bypass the liquidity check */\n        if (!markets[cToken].accountMembership[redeemer]) {\n            return uint(Error.NO_ERROR);\n        }\n\n        /* Otherwise, perform a hypothetical liquidity check to guard against shortfall */\n        (Error err, , uint shortfall) = getHypotheticalAccountLiquidityInternal(redeemer, CToken(cToken), redeemTokens, 0);\n        if (err != Error.NO_ERROR) {\n            return uint(err);\n        }\n        if (shortfall > 0) {\n            return uint(Error.INSUFFICIENT_LIQUIDITY);\n        }\n\n        return uint(Error.NO_ERROR);\n    }\n\n    /**\n     * @notice Validates redeem and reverts on rejection. May emit logs.\n     * @param cToken Asset being redeemed\n     * @param redeemer The address redeeming the tokens\n     * @param redeemAmount The amount of the underlying asset being redeemed\n     * @param redeemTokens The number of tokens being redeemed\n     */\n    function redeemVerify(address cToken, address redeemer, uint redeemAmount, uint redeemTokens) external {\n        // Shh - currently unused\n        cToken;\n        redeemer;\n\n        // Require tokens is zero or amount is also zero\n        if (redeemTokens == 0 && redeemAmount > 0) {\n            revert(\"redeemTokens zero\");\n        }\n    }\n\n    /**\n     * @notice Checks if the account should be allowed to borrow the underlying asset of the given market\n     * @param cToken The market to verify the borrow against\n     * @param borrower The account which would borrow the asset\n     * @param borrowAmount The amount of underlying the account would borrow\n     * @return 0 if the borrow is allowed, otherwise a semi-opaque error code (See ErrorReporter.sol)\n     */\n    function borrowAllowed(address cToken, address borrower, uint borrowAmount) external returns (uint) {\n        // Pausing is a very serious situation - we revert to sound the alarms\n        require(!borrowGuardianPaused[cToken], \"borrow is paused\");\n\n        if (!markets[cToken].isListed) {\n            return uint(Error.MARKET_NOT_LISTED);\n        }\n\n        // *may include Policy Hook-type checks\n\n        if (!markets[cToken].accountMembership[borrower]) {\n            // only cTokens may call borrowAllowed if borrower not in market\n            require(msg.sender == cToken, \"sender must be cToken\");\n\n            // attempt to add borrower to the market\n            Error err = addToMarketInternal(CToken(msg.sender), borrower);\n            if (err != Error.NO_ERROR) {\n                return uint(err);\n            }\n\n            // it should be impossible to break the important invariant\n            assert(markets[cToken].accountMembership[borrower]);\n        }\n\n        if (oracle.getUnderlyingPrice(CToken(cToken)) == 0) {\n            return uint(Error.PRICE_ERROR);\n        }\n\n        (Error err, , uint shortfall) = getHypotheticalAccountLiquidityInternal(borrower, CToken(cToken), 0, borrowAmount);\n        if (err != Error.NO_ERROR) {\n            return uint(err);\n        }\n        if (shortfall > 0) {\n            return uint(Error.INSUFFICIENT_LIQUIDITY);\n        }\n\n        return uint(Error.NO_ERROR);\n    }\n\n    /**\n     * @notice Validates borrow and reverts on rejection. May emit logs.\n     * @param cToken Asset whose underlying is being borrowed\n     * @param borrower The address borrowing the underlying\n     * @param borrowAmount The amount of the underlying asset requested to borrow\n     */\n    function borrowVerify(address cToken, address borrower, uint borrowAmount) external {\n        // Shh - currently unused\n        cToken;\n        borrower;\n        borrowAmount;\n\n        // Shh - we don't ever want this hook to be marked pure\n        if (false) {\n            maxAssets = maxAssets;\n        }\n    }\n\n    /**\n     * @notice Checks if the account should be allowed to repay a borrow in the given market\n     * @param cToken The market to verify the repay against\n     * @param payer The account which would repay the asset\n     * @param borrower The account which would borrowed the asset\n     * @param repayAmount The amount of the underlying asset the account would repay\n     * @return 0 if the repay is allowed, otherwise a semi-opaque error code (See ErrorReporter.sol)\n     */\n    function repayBorrowAllowed(\n        address cToken,\n        address payer,\n        address borrower,\n        uint repayAmount) external returns (uint) {\n        // Shh - currently unused\n        payer;\n        borrower;\n        repayAmount;\n\n        if (!markets[cToken].isListed) {\n            return uint(Error.MARKET_NOT_LISTED);\n        }\n\n        // *may include Policy Hook-type checks\n\n        return uint(Error.NO_ERROR);\n    }\n\n    /**\n     * @notice Validates repayBorrow and reverts on rejection. May emit logs.\n     * @param cToken Asset being repaid\n     * @param payer The address repaying the borrow\n     * @param borrower The address of the borrower\n     * @param actualRepayAmount The amount of underlying being repaid\n     */\n    function repayBorrowVerify(\n        address cToken,\n        address payer,\n        address borrower,\n        uint actualRepayAmount,\n        uint borrowerIndex) external {\n        // Shh - currently unused\n        cToken;\n        payer;\n        borrower;\n        actualRepayAmount;\n        borrowerIndex;\n\n        // Shh - we don't ever want this hook to be marked pure\n        if (false) {\n            maxAssets = maxAssets;\n        }\n    }\n\n    /**\n     * @notice Checks if the liquidation should be allowed to occur\n     * @param cTokenBorrowed Asset which was borrowed by the borrower\n     * @param cTokenCollateral Asset which was used as collateral and will be seized\n     * @param liquidator The address repaying the borrow and seizing the collateral\n     * @param borrower The address of the borrower\n     * @param repayAmount The amount of underlying being repaid\n     */\n    function liquidateBorrowAllowed(\n        address cTokenBorrowed,\n        address cTokenCollateral,\n        address liquidator,\n        address borrower,\n        uint repayAmount) external returns (uint) {\n        // Shh - currently unused\n        liquidator;\n\n        if (!markets[cTokenBorrowed].isListed || !markets[cTokenCollateral].isListed) {\n            return uint(Error.MARKET_NOT_LISTED);\n        }\n\n        // *may include Policy Hook-type checks\n\n        /* The borrower must have shortfall in order to be liquidatable */\n        (Error err, , uint shortfall) = getAccountLiquidityInternal(borrower);\n        if (err != Error.NO_ERROR) {\n            return uint(err);\n        }\n        if (shortfall == 0) {\n            return uint(Error.INSUFFICIENT_SHORTFALL);\n        }\n\n        /* The liquidator may not repay more than what is allowed by the closeFactor */\n        uint borrowBalance = CToken(cTokenBorrowed).borrowBalanceStored(borrower);\n        (MathError mathErr, uint maxClose) = mulScalarTruncate(Exp({mantissa: closeFactorMantissa}), borrowBalance);\n        if (mathErr != MathError.NO_ERROR) {\n            return uint(Error.MATH_ERROR);\n        }\n        if (repayAmount > maxClose) {\n            return uint(Error.TOO_MUCH_REPAY);\n        }\n\n        return uint(Error.NO_ERROR);\n    }\n\n    /**\n     * @notice Validates liquidateBorrow and reverts on rejection. May emit logs.\n     * @param cTokenBorrowed Asset which was borrowed by the borrower\n     * @param cTokenCollateral Asset which was used as collateral and will be seized\n     * @param liquidator The address repaying the borrow and seizing the collateral\n     * @param borrower The address of the borrower\n     * @param actualRepayAmount The amount of underlying being repaid\n     */\n    function liquidateBorrowVerify(\n        address cTokenBorrowed,\n        address cTokenCollateral,\n        address liquidator,\n        address borrower,\n        uint actualRepayAmount,\n        uint seizeTokens) external {\n        // Shh - currently unused\n        cTokenBorrowed;\n        cTokenCollateral;\n        liquidator;\n        borrower;\n        actualRepayAmount;\n        seizeTokens;\n\n        // Shh - we don't ever want this hook to be marked pure\n        if (false) {\n            maxAssets = maxAssets;\n        }\n    }\n\n    /**\n     * @notice Checks if the seizing of assets should be allowed to occur\n     * @param cTokenCollateral Asset which was used as collateral and will be seized\n     * @param cTokenBorrowed Asset which was borrowed by the borrower\n     * @param liquidator The address repaying the borrow and seizing the collateral\n     * @param borrower The address of the borrower\n     * @param seizeTokens The number of collateral tokens to seize\n     */\n    function seizeAllowed(\n        address cTokenCollateral,\n        address cTokenBorrowed,\n        address liquidator,\n        address borrower,\n        uint seizeTokens) external returns (uint) {\n        // Pausing is a very serious situation - we revert to sound the alarms\n        require(!seizeGuardianPaused, \"seize is paused\");\n\n        // Shh - currently unused\n        liquidator;\n        borrower;\n        seizeTokens;\n\n        if (!markets[cTokenCollateral].isListed || !markets[cTokenBorrowed].isListed) {\n            return uint(Error.MARKET_NOT_LISTED);\n        }\n\n        if (CToken(cTokenCollateral).comptroller() != CToken(cTokenBorrowed).comptroller()) {\n            return uint(Error.COMPTROLLER_MISMATCH);\n        }\n\n        // *may include Policy Hook-type checks\n\n        return uint(Error.NO_ERROR);\n    }\n\n    /**\n     * @notice Validates seize and reverts on rejection. May emit logs.\n     * @param cTokenCollateral Asset which was used as collateral and will be seized\n     * @param cTokenBorrowed Asset which was borrowed by the borrower\n     * @param liquidator The address repaying the borrow and seizing the collateral\n     * @param borrower The address of the borrower\n     * @param seizeTokens The number of collateral tokens to seize\n     */\n    function seizeVerify(\n        address cTokenCollateral,\n        address cTokenBorrowed,\n        address liquidator,\n        address borrower,\n        uint seizeTokens) external {\n        // Shh - currently unused\n        cTokenCollateral;\n        cTokenBorrowed;\n        liquidator;\n        borrower;\n        seizeTokens;\n\n        // Shh - we don't ever want this hook to be marked pure\n        if (false) {\n            maxAssets = maxAssets;\n        }\n    }\n\n    /**\n     * @notice Checks if the account should be allowed to transfer tokens in the given market\n     * @param cToken The market to verify the transfer against\n     * @param src The account which sources the tokens\n     * @param dst The account which receives the tokens\n     * @param transferTokens The number of cTokens to transfer\n     * @return 0 if the transfer is allowed, otherwise a semi-opaque error code (See ErrorReporter.sol)\n     */\n    function transferAllowed(address cToken, address src, address dst, uint transferTokens) external returns (uint) {\n        // Pausing is a very serious situation - we revert to sound the alarms\n        require(!transferGuardianPaused, \"transfer is paused\");\n\n        // Shh - currently unused\n        dst;\n\n        // *may include Policy Hook-type checks\n\n        // Currently the only consideration is whether or not\n        //  the src is allowed to redeem this many tokens\n        return redeemAllowedInternal(cToken, src, transferTokens);\n    }\n\n    /**\n     * @notice Validates transfer and reverts on rejection. May emit logs.\n     * @param cToken Asset being transferred\n     * @param src The account which sources the tokens\n     * @param dst The account which receives the tokens\n     * @param transferTokens The number of cTokens to transfer\n     */\n    function transferVerify(address cToken, address src, address dst, uint transferTokens) external {\n        // Shh - currently unused\n        cToken;\n        src;\n        dst;\n        transferTokens;\n\n        // Shh - we don't ever want this hook to be marked pure\n        if (false) {\n            maxAssets = maxAssets;\n        }\n    }\n\n    /*** Liquidity/Liquidation Calculations ***/\n\n    /**\n     * @dev Local vars for avoiding stack-depth limits in calculating account liquidity.\n     *  Note that `cTokenBalance` is the number of cTokens the account owns in the market,\n     *  whereas `borrowBalance` is the amount of underlying that the account has borrowed.\n     */\n    struct AccountLiquidityLocalVars {\n        uint sumCollateral;\n        uint sumBorrowPlusEffects;\n        uint cTokenBalance;\n        uint borrowBalance;\n        uint exchangeRateMantissa;\n        uint oraclePriceMantissa;\n        Exp collateralFactor;\n        Exp exchangeRate;\n        Exp oraclePrice;\n        Exp tokensToEther;\n    }\n\n    /**\n     * @notice Determine the current account liquidity wrt collateral requirements\n     * @return (possible error code (semi-opaque),\n                account liquidity in excess of collateral requirements,\n     *          account shortfall below collateral requirements)\n     */\n    function getAccountLiquidity(address account) public view returns (uint, uint, uint) {\n        (Error err, uint liquidity, uint shortfall) = getHypotheticalAccountLiquidityInternal(account, CToken(0), 0, 0);\n\n        return (uint(err), liquidity, shortfall);\n    }\n\n    /**\n     * @notice Determine the current account liquidity wrt collateral requirements\n     * @return (possible error code,\n                account liquidity in excess of collateral requirements,\n     *          account shortfall below collateral requirements)\n     */\n    function getAccountLiquidityInternal(address account) internal view returns (Error, uint, uint) {\n        return getHypotheticalAccountLiquidityInternal(account, CToken(0), 0, 0);\n    }\n\n    /**\n     * @notice Determine what the account liquidity would be if the given amounts were redeemed/borrowed\n     * @param cTokenModify The market to hypothetically redeem/borrow in\n     * @param account The account to determine liquidity for\n     * @param redeemTokens The number of tokens to hypothetically redeem\n     * @param borrowAmount The amount of underlying to hypothetically borrow\n     * @return (possible error code (semi-opaque),\n                hypothetical account liquidity in excess of collateral requirements,\n     *          hypothetical account shortfall below collateral requirements)\n     */\n    function getHypotheticalAccountLiquidity(\n        address account,\n        address cTokenModify,\n        uint redeemTokens,\n        uint borrowAmount) public view returns (uint, uint, uint) {\n        (Error err, uint liquidity, uint shortfall) = getHypotheticalAccountLiquidityInternal(account, CToken(cTokenModify), redeemTokens, borrowAmount);\n        return (uint(err), liquidity, shortfall);\n    }\n\n    /**\n     * @notice Determine what the account liquidity would be if the given amounts were redeemed/borrowed\n     * @param cTokenModify The market to hypothetically redeem/borrow in\n     * @param account The account to determine liquidity for\n     * @param redeemTokens The number of tokens to hypothetically redeem\n     * @param borrowAmount The amount of underlying to hypothetically borrow\n     * @dev Note that we calculate the exchangeRateStored for each collateral cToken using stored data,\n     *  without calculating accumulated interest.\n     * @return (possible error code,\n                hypothetical account liquidity in excess of collateral requirements,\n     *          hypothetical account shortfall below collateral requirements)\n     */\n    function getHypotheticalAccountLiquidityInternal(\n        address account,\n        CToken cTokenModify,\n        uint redeemTokens,\n        uint borrowAmount) internal view returns (Error, uint, uint) {\n\n        AccountLiquidityLocalVars memory vars; // Holds all our calculation results\n        uint oErr;\n        MathError mErr;\n\n        // For each asset the account is in\n        CToken[] memory assets = accountAssets[account];\n        for (uint i = 0; i < assets.length; i++) {\n            CToken asset = assets[i];\n\n            // Read the balances and exchange rate from the cToken\n            (oErr, vars.cTokenBalance, vars.borrowBalance, vars.exchangeRateMantissa) = asset.getAccountSnapshot(account);\n            if (oErr != 0) { // semi-opaque error code, we assume NO_ERROR == 0 is invariant between upgrades\n                return (Error.SNAPSHOT_ERROR, 0, 0);\n            }\n            vars.collateralFactor = Exp({mantissa: markets[address(asset)].collateralFactorMantissa});\n            vars.exchangeRate = Exp({mantissa: vars.exchangeRateMantissa});\n\n            // Get the normalized price of the asset\n            vars.oraclePriceMantissa = oracle.getUnderlyingPrice(asset);\n            if (vars.oraclePriceMantissa == 0) {\n                return (Error.PRICE_ERROR, 0, 0);\n            }\n            vars.oraclePrice = Exp({mantissa: vars.oraclePriceMantissa});\n\n            // Pre-compute a conversion factor from tokens -> ether (normalized price value)\n            (mErr, vars.tokensToEther) = mulExp3(vars.collateralFactor, vars.exchangeRate, vars.oraclePrice);\n            if (mErr != MathError.NO_ERROR) {\n                return (Error.MATH_ERROR, 0, 0);\n            }\n\n            // sumCollateral += tokensToEther * cTokenBalance\n            (mErr, vars.sumCollateral) = mulScalarTruncateAddUInt(vars.tokensToEther, vars.cTokenBalance, vars.sumCollateral);\n            if (mErr != MathError.NO_ERROR) {\n                return (Error.MATH_ERROR, 0, 0);\n            }\n\n            // sumBorrowPlusEffects += oraclePrice * borrowBalance\n            (mErr, vars.sumBorrowPlusEffects) = mulScalarTruncateAddUInt(vars.oraclePrice, vars.borrowBalance, vars.sumBorrowPlusEffects);\n            if (mErr != MathError.NO_ERROR) {\n                return (Error.MATH_ERROR, 0, 0);\n            }\n\n            // Calculate effects of interacting with cTokenModify\n            if (asset == cTokenModify) {\n                // redeem effect\n                // sumBorrowPlusEffects += tokensToEther * redeemTokens\n                (mErr, vars.sumBorrowPlusEffects) = mulScalarTruncateAddUInt(vars.tokensToEther, redeemTokens, vars.sumBorrowPlusEffects);\n                if (mErr != MathError.NO_ERROR) {\n                    return (Error.MATH_ERROR, 0, 0);\n                }\n\n                // borrow effect\n                // sumBorrowPlusEffects += oraclePrice * borrowAmount\n                (mErr, vars.sumBorrowPlusEffects) = mulScalarTruncateAddUInt(vars.oraclePrice, borrowAmount, vars.sumBorrowPlusEffects);\n                if (mErr != MathError.NO_ERROR) {\n                    return (Error.MATH_ERROR, 0, 0);\n                }\n            }\n        }\n\n        // These are safe, as the underflow condition is checked first\n        if (vars.sumCollateral > vars.sumBorrowPlusEffects) {\n            return (Error.NO_ERROR, vars.sumCollateral - vars.sumBorrowPlusEffects, 0);\n        } else {\n            return (Error.NO_ERROR, 0, vars.sumBorrowPlusEffects - vars.sumCollateral);\n        }\n    }\n\n    /**\n     * @notice Calculate number of tokens of collateral asset to seize given an underlying amount\n     * @dev Used in liquidation (called in cToken.liquidateBorrowFresh)\n     * @param cTokenBorrowed The address of the borrowed cToken\n     * @param cTokenCollateral The address of the collateral cToken\n     * @param actualRepayAmount The amount of cTokenBorrowed underlying to convert into cTokenCollateral tokens\n     * @return (errorCode, number of cTokenCollateral tokens to be seized in a liquidation)\n     */\n    function liquidateCalculateSeizeTokens(address cTokenBorrowed, address cTokenCollateral, uint actualRepayAmount) external view returns (uint, uint) {\n        /* Read oracle prices for borrowed and collateral markets */\n        uint priceBorrowedMantissa = oracle.getUnderlyingPrice(CToken(cTokenBorrowed));\n        uint priceCollateralMantissa = oracle.getUnderlyingPrice(CToken(cTokenCollateral));\n        if (priceBorrowedMantissa == 0 || priceCollateralMantissa == 0) {\n            return (uint(Error.PRICE_ERROR), 0);\n        }\n\n        /*\n         * Get the exchange rate and calculate the number of collateral tokens to seize:\n         *  seizeAmount = actualRepayAmount * liquidationIncentive * priceBorrowed / priceCollateral\n         *  seizeTokens = seizeAmount / exchangeRate\n         *   = actualRepayAmount * (liquidationIncentive * priceBorrowed) / (priceCollateral * exchangeRate)\n         */\n        uint exchangeRateMantissa = CToken(cTokenCollateral).exchangeRateStored(); // Note: reverts on error\n        uint seizeTokens;\n        Exp memory numerator;\n        Exp memory denominator;\n        Exp memory ratio;\n        MathError mathErr;\n\n        (mathErr, numerator) = mulExp(liquidationIncentiveMantissa, priceBorrowedMantissa);\n        if (mathErr != MathError.NO_ERROR) {\n            return (uint(Error.MATH_ERROR), 0);\n        }\n\n        (mathErr, denominator) = mulExp(priceCollateralMantissa, exchangeRateMantissa);\n        if (mathErr != MathError.NO_ERROR) {\n            return (uint(Error.MATH_ERROR), 0);\n        }\n\n        (mathErr, ratio) = divExp(numerator, denominator);\n        if (mathErr != MathError.NO_ERROR) {\n            return (uint(Error.MATH_ERROR), 0);\n        }\n\n        (mathErr, seizeTokens) = mulScalarTruncate(ratio, actualRepayAmount);\n        if (mathErr != MathError.NO_ERROR) {\n            return (uint(Error.MATH_ERROR), 0);\n        }\n\n        return (uint(Error.NO_ERROR), seizeTokens);\n    }\n\n    /*** Admin Functions ***/\n\n    /**\n      * @notice Sets a new price oracle for the comptroller\n      * @dev Admin function to set a new price oracle\n      * @return uint 0=success, otherwise a failure (see ErrorReporter.sol for details)\n      */\n    function _setPriceOracle(PriceOracle newOracle) public returns (uint) {\n        // Check caller is admin\n        if (msg.sender != admin) {\n            return fail(Error.UNAUTHORIZED, FailureInfo.SET_PRICE_ORACLE_OWNER_CHECK);\n        }\n\n        // Track the old oracle for the comptroller\n        PriceOracle oldOracle = oracle;\n\n        // Set comptroller's oracle to newOracle\n        oracle = newOracle;\n\n        // Emit NewPriceOracle(oldOracle, newOracle)\n        emit NewPriceOracle(oldOracle, newOracle);\n\n        return uint(Error.NO_ERROR);\n    }\n\n    /**\n      * @notice Sets the closeFactor used when liquidating borrows\n      * @dev Admin function to set closeFactor\n      * @param newCloseFactorMantissa New close factor, scaled by 1e18\n      * @return uint 0=success, otherwise a failure. (See ErrorReporter for details)\n      */\n    function _setCloseFactor(uint newCloseFactorMantissa) external returns (uint256) {\n        // Check caller is admin\n        if (msg.sender != admin) {\n            return fail(Error.UNAUTHORIZED, FailureInfo.SET_CLOSE_FACTOR_OWNER_CHECK);\n        }\n\n        Exp memory newCloseFactorExp = Exp({mantissa: newCloseFactorMantissa});\n        Exp memory lowLimit = Exp({mantissa: closeFactorMinMantissa});\n        if (lessThanOrEqualExp(newCloseFactorExp, lowLimit)) {\n            return fail(Error.INVALID_CLOSE_FACTOR, FailureInfo.SET_CLOSE_FACTOR_VALIDATION);\n        }\n\n        Exp memory highLimit = Exp({mantissa: closeFactorMaxMantissa});\n        if (lessThanExp(highLimit, newCloseFactorExp)) {\n            return fail(Error.INVALID_CLOSE_FACTOR, FailureInfo.SET_CLOSE_FACTOR_VALIDATION);\n        }\n\n        uint oldCloseFactorMantissa = closeFactorMantissa;\n        closeFactorMantissa = newCloseFactorMantissa;\n        emit NewCloseFactor(oldCloseFactorMantissa, closeFactorMantissa);\n\n        return uint(Error.NO_ERROR);\n    }\n\n    /**\n      * @notice Sets the collateralFactor for a market\n      * @dev Admin function to set per-market collateralFactor\n      * @param cToken The market to set the factor on\n      * @param newCollateralFactorMantissa The new collateral factor, scaled by 1e18\n      * @return uint 0=success, otherwise a failure. (See ErrorReporter for details)\n      */\n    function _setCollateralFactor(CToken cToken, uint newCollateralFactorMantissa) external returns (uint256) {\n        // Check caller is admin\n        if (msg.sender != admin) {\n            return fail(Error.UNAUTHORIZED, FailureInfo.SET_COLLATERAL_FACTOR_OWNER_CHECK);\n        }\n\n        // Verify market is listed\n        Market storage market = markets[address(cToken)];\n        if (!market.isListed) {\n            return fail(Error.MARKET_NOT_LISTED, FailureInfo.SET_COLLATERAL_FACTOR_NO_EXISTS);\n        }\n\n        Exp memory newCollateralFactorExp = Exp({mantissa: newCollateralFactorMantissa});\n\n        // Check collateral factor <= 0.9\n        Exp memory highLimit = Exp({mantissa: collateralFactorMaxMantissa});\n        if (lessThanExp(highLimit, newCollateralFactorExp)) {\n            return fail(Error.INVALID_COLLATERAL_FACTOR, FailureInfo.SET_COLLATERAL_FACTOR_VALIDATION);\n        }\n\n        // If collateral factor != 0, fail if price == 0\n        if (newCollateralFactorMantissa != 0 && oracle.getUnderlyingPrice(cToken) == 0) {\n            return fail(Error.PRICE_ERROR, FailureInfo.SET_COLLATERAL_FACTOR_WITHOUT_PRICE);\n        }\n\n        // Set market's collateral factor to new collateral factor, remember old value\n        uint oldCollateralFactorMantissa = market.collateralFactorMantissa;\n        market.collateralFactorMantissa = newCollateralFactorMantissa;\n\n        // Emit event with asset, old collateral factor, and new collateral factor\n        emit NewCollateralFactor(cToken, oldCollateralFactorMantissa, newCollateralFactorMantissa);\n\n        return uint(Error.NO_ERROR);\n    }\n\n    /**\n      * @notice Sets maxAssets which controls how many markets can be entered\n      * @dev Admin function to set maxAssets\n      * @param newMaxAssets New max assets\n      * @return uint 0=success, otherwise a failure. (See ErrorReporter for details)\n      */\n    function _setMaxAssets(uint newMaxAssets) external returns (uint) {\n        // Check caller is admin\n        if (msg.sender != admin) {\n            return fail(Error.UNAUTHORIZED, FailureInfo.SET_MAX_ASSETS_OWNER_CHECK);\n        }\n\n        uint oldMaxAssets = maxAssets;\n        maxAssets = newMaxAssets;\n        emit NewMaxAssets(oldMaxAssets, newMaxAssets);\n\n        return uint(Error.NO_ERROR);\n    }\n\n    /**\n      * @notice Sets liquidationIncentive\n      * @dev Admin function to set liquidationIncentive\n      * @param newLiquidationIncentiveMantissa New liquidationIncentive scaled by 1e18\n      * @return uint 0=success, otherwise a failure. (See ErrorReporter for details)\n      */\n    function _setLiquidationIncentive(uint newLiquidationIncentiveMantissa) external returns (uint) {\n        // Check caller is admin\n        if (msg.sender != admin) {\n            return fail(Error.UNAUTHORIZED, FailureInfo.SET_LIQUIDATION_INCENTIVE_OWNER_CHECK);\n        }\n\n        // Check de-scaled min <= newLiquidationIncentive <= max\n        Exp memory newLiquidationIncentive = Exp({mantissa: newLiquidationIncentiveMantissa});\n        Exp memory minLiquidationIncentive = Exp({mantissa: liquidationIncentiveMinMantissa});\n        if (lessThanExp(newLiquidationIncentive, minLiquidationIncentive)) {\n            return fail(Error.INVALID_LIQUIDATION_INCENTIVE, FailureInfo.SET_LIQUIDATION_INCENTIVE_VALIDATION);\n        }\n\n        Exp memory maxLiquidationIncentive = Exp({mantissa: liquidationIncentiveMaxMantissa});\n        if (lessThanExp(maxLiquidationIncentive, newLiquidationIncentive)) {\n            return fail(Error.INVALID_LIQUIDATION_INCENTIVE, FailureInfo.SET_LIQUIDATION_INCENTIVE_VALIDATION);\n        }\n\n        // Save current value for use in log\n        uint oldLiquidationIncentiveMantissa = liquidationIncentiveMantissa;\n\n        // Set liquidation incentive to new incentive\n        liquidationIncentiveMantissa = newLiquidationIncentiveMantissa;\n\n        // Emit event with old incentive, new incentive\n        emit NewLiquidationIncentive(oldLiquidationIncentiveMantissa, newLiquidationIncentiveMantissa);\n\n        return uint(Error.NO_ERROR);\n    }\n\n    /**\n      * @notice Add the market to the markets mapping and set it as listed\n      * @dev Admin function to set isListed and add support for the market\n      * @param cToken The address of the market (token) to list\n      * @return uint 0=success, otherwise a failure. (See enum Error for details)\n      */\n    function _supportMarket(CToken cToken) external returns (uint) {\n        if (msg.sender != admin) {\n            return fail(Error.UNAUTHORIZED, FailureInfo.SUPPORT_MARKET_OWNER_CHECK);\n        }\n\n        if (markets[address(cToken)].isListed) {\n            return fail(Error.MARKET_ALREADY_LISTED, FailureInfo.SUPPORT_MARKET_EXISTS);\n        }\n\n        cToken.isCToken(); // Sanity check to make sure its really a CToken\n\n        markets[address(cToken)] = Market({isListed: true, isComped: false, collateralFactorMantissa: 0});\n        emit MarketListed(cToken);\n\n        return uint(Error.NO_ERROR);\n    }\n\n    /**\n     * @notice Admin function to change the Pause Guardian\n     * @param newPauseGuardian The address of the new Pause Guardian\n     * @return uint 0=success, otherwise a failure. (See enum Error for details)\n     */\n    function _setPauseGuardian(address newPauseGuardian) public returns (uint) {\n        if (msg.sender != admin) {\n            return fail(Error.UNAUTHORIZED, FailureInfo.SET_PAUSE_GUARDIAN_OWNER_CHECK);\n        }\n\n        // Save current value for inclusion in log\n        address oldPauseGuardian = pauseGuardian;\n\n        // Store pauseGuardian with value newPauseGuardian\n        pauseGuardian = newPauseGuardian;\n\n        // Emit NewPauseGuardian(OldPauseGuardian, NewPauseGuardian)\n        emit NewPauseGuardian(oldPauseGuardian, pauseGuardian);\n\n        return uint(Error.NO_ERROR);\n    }\n\n    function _setMintPaused(CToken cToken, bool state) public returns (bool) {\n        require(markets[address(cToken)].isListed, \"cannot pause a market that is not listed\");\n        require(msg.sender == pauseGuardian || msg.sender == admin, \"only pause guardian and admin can pause\");\n        require(msg.sender == admin || state == true, \"only admin can unpause\");\n\n        mintGuardianPaused[address(cToken)] = state;\n        emit ActionPaused(cToken, \"Mint\", state);\n        return state;\n    }\n\n    function _setBorrowPaused(CToken cToken, bool state) public returns (bool) {\n        require(markets[address(cToken)].isListed, \"cannot pause a market that is not listed\");\n        require(msg.sender == pauseGuardian || msg.sender == admin, \"only pause guardian and admin can pause\");\n        require(msg.sender == admin || state == true, \"only admin can unpause\");\n\n        borrowGuardianPaused[address(cToken)] = state;\n        emit ActionPaused(cToken, \"Borrow\", state);\n        return state;\n    }\n\n    function _setTransferPaused(bool state) public returns (bool) {\n        require(msg.sender == pauseGuardian || msg.sender == admin, \"only pause guardian and admin can pause\");\n        require(msg.sender == admin || state == true, \"only admin can unpause\");\n\n        transferGuardianPaused = state;\n        emit ActionPaused(\"Transfer\", state);\n        return state;\n    }\n\n    function _setSeizePaused(bool state) public returns (bool) {\n        require(msg.sender == pauseGuardian || msg.sender == admin, \"only pause guardian and admin can pause\");\n        require(msg.sender == admin || state == true, \"only admin can unpause\");\n\n        seizeGuardianPaused = state;\n        emit ActionPaused(\"Seize\", state);\n        return state;\n    }\n\n    function _become(Unitroller unitroller) public {\n        require(msg.sender == unitroller.admin(), \"only unitroller admin can change brains\");\n\n        uint changeStatus = unitroller._acceptImplementation();\n        require(changeStatus == 0, \"change not authorized\");\n    }\n}\n",
  "sourcePath": "/Users/jesusmeza/Developer/omgx/snapshot-optimism/omgx_examples/compound-protocol/contracts/ComptrollerG2.sol",
  "compiler": {
    "name": "solc",
    "version": "0.5.16"
  },
  "schemaVersion": "3.4.3",
  "updatedAt": "2021-08-25T22:25:24.435Z",
  "devdoc": {
    "author": "Compound",
    "methods": {
      "_setCloseFactor(uint256)": {
        "details": "Admin function to set closeFactor",
        "params": {
          "newCloseFactorMantissa": "New close factor, scaled by 1e18"
        },
        "return": "uint 0=success, otherwise a failure. (See ErrorReporter for details)"
      },
      "_setCollateralFactor(address,uint256)": {
        "details": "Admin function to set per-market collateralFactor",
        "params": {
          "cToken": "The market to set the factor on",
          "newCollateralFactorMantissa": "The new collateral factor, scaled by 1e18"
        },
        "return": "uint 0=success, otherwise a failure. (See ErrorReporter for details)"
      },
      "_setLiquidationIncentive(uint256)": {
        "details": "Admin function to set liquidationIncentive",
        "params": {
          "newLiquidationIncentiveMantissa": "New liquidationIncentive scaled by 1e18"
        },
        "return": "uint 0=success, otherwise a failure. (See ErrorReporter for details)"
      },
      "_setMaxAssets(uint256)": {
        "details": "Admin function to set maxAssets",
        "params": {
          "newMaxAssets": "New max assets"
        },
        "return": "uint 0=success, otherwise a failure. (See ErrorReporter for details)"
      },
      "_setPauseGuardian(address)": {
        "params": {
          "newPauseGuardian": "The address of the new Pause Guardian"
        },
        "return": "uint 0=success, otherwise a failure. (See enum Error for details)"
      },
      "_setPriceOracle(address)": {
        "details": "Admin function to set a new price oracle",
        "return": "uint 0=success, otherwise a failure (see ErrorReporter.sol for details)"
      },
      "_supportMarket(address)": {
        "details": "Admin function to set isListed and add support for the market",
        "params": {
          "cToken": "The address of the market (token) to list"
        },
        "return": "uint 0=success, otherwise a failure. (See enum Error for details)"
      },
      "borrowAllowed(address,address,uint256)": {
        "params": {
          "borrowAmount": "The amount of underlying the account would borrow",
          "borrower": "The account which would borrow the asset",
          "cToken": "The market to verify the borrow against"
        },
        "return": "0 if the borrow is allowed, otherwise a semi-opaque error code (See ErrorReporter.sol)"
      },
      "borrowVerify(address,address,uint256)": {
        "params": {
          "borrowAmount": "The amount of the underlying asset requested to borrow",
          "borrower": "The address borrowing the underlying",
          "cToken": "Asset whose underlying is being borrowed"
        }
      },
      "checkMembership(address,address)": {
        "params": {
          "account": "The address of the account to check",
          "cToken": "The cToken to check"
        },
        "return": "True if the account is in the asset, otherwise false."
      },
      "enterMarkets(address[])": {
        "params": {
          "cTokens": "The list of addresses of the cToken markets to be enabled"
        },
        "return": "Success indicator for whether each corresponding market was entered"
      },
      "exitMarket(address)": {
        "details": "Sender must not have an outstanding borrow balance in the asset, or be providing neccessary collateral for an outstanding borrow.",
        "params": {
          "cTokenAddress": "The address of the asset to be removed"
        },
        "return": "Whether or not the account successfully exited the market"
      },
      "getAccountLiquidity(address)": {
        "return": "(possible error code (semi-opaque), account liquidity in excess of collateral requirements,         account shortfall below collateral requirements)"
      },
      "getAssetsIn(address)": {
        "params": {
          "account": "The address of the account to pull assets for"
        },
        "return": "A dynamic list with the assets the account has entered"
      },
      "getHypotheticalAccountLiquidity(address,address,uint256,uint256)": {
        "params": {
          "account": "The account to determine liquidity for",
          "borrowAmount": "The amount of underlying to hypothetically borrow",
          "cTokenModify": "The market to hypothetically redeem/borrow in",
          "redeemTokens": "The number of tokens to hypothetically redeem"
        },
        "return": "(possible error code (semi-opaque), hypothetical account liquidity in excess of collateral requirements,         hypothetical account shortfall below collateral requirements)"
      },
      "liquidateBorrowAllowed(address,address,address,address,uint256)": {
        "params": {
          "borrower": "The address of the borrower",
          "cTokenBorrowed": "Asset which was borrowed by the borrower",
          "cTokenCollateral": "Asset which was used as collateral and will be seized",
          "liquidator": "The address repaying the borrow and seizing the collateral",
          "repayAmount": "The amount of underlying being repaid"
        }
      },
      "liquidateBorrowVerify(address,address,address,address,uint256,uint256)": {
        "params": {
          "actualRepayAmount": "The amount of underlying being repaid",
          "borrower": "The address of the borrower",
          "cTokenBorrowed": "Asset which was borrowed by the borrower",
          "cTokenCollateral": "Asset which was used as collateral and will be seized",
          "liquidator": "The address repaying the borrow and seizing the collateral"
        }
      },
      "liquidateCalculateSeizeTokens(address,address,uint256)": {
        "details": "Used in liquidation (called in cToken.liquidateBorrowFresh)",
        "params": {
          "actualRepayAmount": "The amount of cTokenBorrowed underlying to convert into cTokenCollateral tokens",
          "cTokenBorrowed": "The address of the borrowed cToken",
          "cTokenCollateral": "The address of the collateral cToken"
        },
        "return": "(errorCode, number of cTokenCollateral tokens to be seized in a liquidation)"
      },
      "mintAllowed(address,address,uint256)": {
        "params": {
          "cToken": "The market to verify the mint against",
          "mintAmount": "The amount of underlying being supplied to the market in exchange for tokens",
          "minter": "The account which would get the minted tokens"
        },
        "return": "0 if the mint is allowed, otherwise a semi-opaque error code (See ErrorReporter.sol)"
      },
      "mintVerify(address,address,uint256,uint256)": {
        "params": {
          "actualMintAmount": "The amount of the underlying asset being minted",
          "cToken": "Asset being minted",
          "mintTokens": "The number of tokens being minted",
          "minter": "The address minting the tokens"
        }
      },
      "redeemAllowed(address,address,uint256)": {
        "params": {
          "cToken": "The market to verify the redeem against",
          "redeemTokens": "The number of cTokens to exchange for the underlying asset in the market",
          "redeemer": "The account which would redeem the tokens"
        },
        "return": "0 if the redeem is allowed, otherwise a semi-opaque error code (See ErrorReporter.sol)"
      },
      "redeemVerify(address,address,uint256,uint256)": {
        "params": {
          "cToken": "Asset being redeemed",
          "redeemAmount": "The amount of the underlying asset being redeemed",
          "redeemTokens": "The number of tokens being redeemed",
          "redeemer": "The address redeeming the tokens"
        }
      },
      "repayBorrowAllowed(address,address,address,uint256)": {
        "params": {
          "borrower": "The account which would borrowed the asset",
          "cToken": "The market to verify the repay against",
          "payer": "The account which would repay the asset",
          "repayAmount": "The amount of the underlying asset the account would repay"
        },
        "return": "0 if the repay is allowed, otherwise a semi-opaque error code (See ErrorReporter.sol)"
      },
      "repayBorrowVerify(address,address,address,uint256,uint256)": {
        "params": {
          "actualRepayAmount": "The amount of underlying being repaid",
          "borrower": "The address of the borrower",
          "cToken": "Asset being repaid",
          "payer": "The address repaying the borrow"
        }
      },
      "seizeAllowed(address,address,address,address,uint256)": {
        "params": {
          "borrower": "The address of the borrower",
          "cTokenBorrowed": "Asset which was borrowed by the borrower",
          "cTokenCollateral": "Asset which was used as collateral and will be seized",
          "liquidator": "The address repaying the borrow and seizing the collateral",
          "seizeTokens": "The number of collateral tokens to seize"
        }
      },
      "seizeVerify(address,address,address,address,uint256)": {
        "params": {
          "borrower": "The address of the borrower",
          "cTokenBorrowed": "Asset which was borrowed by the borrower",
          "cTokenCollateral": "Asset which was used as collateral and will be seized",
          "liquidator": "The address repaying the borrow and seizing the collateral",
          "seizeTokens": "The number of collateral tokens to seize"
        }
      },
      "transferAllowed(address,address,address,uint256)": {
        "params": {
          "cToken": "The market to verify the transfer against",
          "dst": "The account which receives the tokens",
          "src": "The account which sources the tokens",
          "transferTokens": "The number of cTokens to transfer"
        },
        "return": "0 if the transfer is allowed, otherwise a semi-opaque error code (See ErrorReporter.sol)"
      },
      "transferVerify(address,address,address,uint256)": {
        "params": {
          "cToken": "Asset being transferred",
          "dst": "The account which receives the tokens",
          "src": "The account which sources the tokens",
          "transferTokens": "The number of cTokens to transfer"
        }
      }
    },
    "title": "Compound's Comptroller Contract"
  },
  "userdoc": {
    "methods": {
      "_setCloseFactor(uint256)": {
        "notice": "Sets the closeFactor used when liquidating borrows"
      },
      "_setCollateralFactor(address,uint256)": {
        "notice": "Sets the collateralFactor for a market"
      },
      "_setLiquidationIncentive(uint256)": {
        "notice": "Sets liquidationIncentive"
      },
      "_setMaxAssets(uint256)": {
        "notice": "Sets maxAssets which controls how many markets can be entered"
      },
      "_setPauseGuardian(address)": {
        "notice": "Admin function to change the Pause Guardian"
      },
      "_setPriceOracle(address)": {
        "notice": "Sets a new price oracle for the comptroller"
      },
      "_supportMarket(address)": {
        "notice": "Add the market to the markets mapping and set it as listed"
      },
      "borrowAllowed(address,address,uint256)": {
        "notice": "Checks if the account should be allowed to borrow the underlying asset of the given market"
      },
      "borrowVerify(address,address,uint256)": {
        "notice": "Validates borrow and reverts on rejection. May emit logs."
      },
      "checkMembership(address,address)": {
        "notice": "Returns whether the given account is entered in the given asset"
      },
      "enterMarkets(address[])": {
        "notice": "Add assets to be included in account liquidity calculation"
      },
      "exitMarket(address)": {
        "notice": "Removes asset from sender's account liquidity calculation"
      },
      "getAccountLiquidity(address)": {
        "notice": "Determine the current account liquidity wrt collateral requirements"
      },
      "getAssetsIn(address)": {
        "notice": "Returns the assets an account has entered"
      },
      "getHypotheticalAccountLiquidity(address,address,uint256,uint256)": {
        "notice": "Determine what the account liquidity would be if the given amounts were redeemed/borrowed"
      },
      "liquidateBorrowAllowed(address,address,address,address,uint256)": {
        "notice": "Checks if the liquidation should be allowed to occur"
      },
      "liquidateBorrowVerify(address,address,address,address,uint256,uint256)": {
        "notice": "Validates liquidateBorrow and reverts on rejection. May emit logs."
      },
      "liquidateCalculateSeizeTokens(address,address,uint256)": {
        "notice": "Calculate number of tokens of collateral asset to seize given an underlying amount"
      },
      "mintAllowed(address,address,uint256)": {
        "notice": "Checks if the account should be allowed to mint tokens in the given market"
      },
      "mintVerify(address,address,uint256,uint256)": {
        "notice": "Validates mint and reverts on rejection. May emit logs."
      },
      "redeemAllowed(address,address,uint256)": {
        "notice": "Checks if the account should be allowed to redeem tokens in the given market"
      },
      "redeemVerify(address,address,uint256,uint256)": {
        "notice": "Validates redeem and reverts on rejection. May emit logs."
      },
      "repayBorrowAllowed(address,address,address,uint256)": {
        "notice": "Checks if the account should be allowed to repay a borrow in the given market"
      },
      "repayBorrowVerify(address,address,address,uint256,uint256)": {
        "notice": "Validates repayBorrow and reverts on rejection. May emit logs."
      },
      "seizeAllowed(address,address,address,address,uint256)": {
        "notice": "Checks if the seizing of assets should be allowed to occur"
      },
      "seizeVerify(address,address,address,address,uint256)": {
        "notice": "Validates seize and reverts on rejection. May emit logs."
      },
      "transferAllowed(address,address,address,uint256)": {
        "notice": "Checks if the account should be allowed to transfer tokens in the given market"
      },
      "transferVerify(address,address,address,uint256)": {
        "notice": "Validates transfer and reverts on rejection. May emit logs."
      }
    }
  }
}