{
  "contractName": "ComptrollerV4Storage",
  "abi": [
    {
      "constant": true,
      "inputs": [],
      "name": "_borrowGuardianPaused",
      "outputs": [
        {
          "internalType": "bool",
          "name": "",
          "type": "bool"
        }
      ],
      "payable": false,
      "stateMutability": "view",
      "type": "function"
    },
    {
      "constant": true,
      "inputs": [],
      "name": "_mintGuardianPaused",
      "outputs": [
        {
          "internalType": "bool",
          "name": "",
          "type": "bool"
        }
      ],
      "payable": false,
      "stateMutability": "view",
      "type": "function"
    },
    {
      "constant": true,
      "inputs": [
        {
          "internalType": "address",
          "name": "",
          "type": "address"
        },
        {
          "internalType": "uint256",
          "name": "",
          "type": "uint256"
        }
      ],
      "name": "accountAssets",
      "outputs": [
        {
          "internalType": "contract CToken",
          "name": "",
          "type": "address"
        }
      ],
      "payable": false,
      "stateMutability": "view",
      "type": "function"
    },
    {
      "constant": true,
      "inputs": [],
      "name": "admin",
      "outputs": [
        {
          "internalType": "address",
          "name": "",
          "type": "address"
        }
      ],
      "payable": false,
      "stateMutability": "view",
      "type": "function"
    },
    {
      "constant": true,
      "inputs": [
        {
          "internalType": "uint256",
          "name": "",
          "type": "uint256"
        }
      ],
      "name": "allMarkets",
      "outputs": [
        {
          "internalType": "contract CToken",
          "name": "",
          "type": "address"
        }
      ],
      "payable": false,
      "stateMutability": "view",
      "type": "function"
    },
    {
      "constant": true,
      "inputs": [],
      "name": "borrowCapGuardian",
      "outputs": [
        {
          "internalType": "address",
          "name": "",
          "type": "address"
        }
      ],
      "payable": false,
      "stateMutability": "view",
      "type": "function"
    },
    {
      "constant": true,
      "inputs": [
        {
          "internalType": "address",
          "name": "",
          "type": "address"
        }
      ],
      "name": "borrowCaps",
      "outputs": [
        {
          "internalType": "uint256",
          "name": "",
          "type": "uint256"
        }
      ],
      "payable": false,
      "stateMutability": "view",
      "type": "function"
    },
    {
      "constant": true,
      "inputs": [
        {
          "internalType": "address",
          "name": "",
          "type": "address"
        }
      ],
      "name": "borrowGuardianPaused",
      "outputs": [
        {
          "internalType": "bool",
          "name": "",
          "type": "bool"
        }
      ],
      "payable": false,
      "stateMutability": "view",
      "type": "function"
    },
    {
      "constant": true,
      "inputs": [],
      "name": "closeFactorMantissa",
      "outputs": [
        {
          "internalType": "uint256",
          "name": "",
          "type": "uint256"
        }
      ],
      "payable": false,
      "stateMutability": "view",
      "type": "function"
    },
    {
      "constant": true,
      "inputs": [
        {
          "internalType": "address",
          "name": "",
          "type": "address"
        }
      ],
      "name": "compAccrued",
      "outputs": [
        {
          "internalType": "uint256",
          "name": "",
          "type": "uint256"
        }
      ],
      "payable": false,
      "stateMutability": "view",
      "type": "function"
    },
    {
      "constant": true,
      "inputs": [
        {
          "internalType": "address",
          "name": "",
          "type": "address"
        }
      ],
      "name": "compBorrowState",
      "outputs": [
        {
          "internalType": "uint224",
          "name": "index",
          "type": "uint224"
        },
        {
          "internalType": "uint32",
          "name": "block",
          "type": "uint32"
        }
      ],
      "payable": false,
      "stateMutability": "view",
      "type": "function"
    },
    {
      "constant": true,
      "inputs": [
        {
          "internalType": "address",
          "name": "",
          "type": "address"
        },
        {
          "internalType": "address",
          "name": "",
          "type": "address"
        }
      ],
      "name": "compBorrowerIndex",
      "outputs": [
        {
          "internalType": "uint256",
          "name": "",
          "type": "uint256"
        }
      ],
      "payable": false,
      "stateMutability": "view",
      "type": "function"
    },
    {
      "constant": true,
      "inputs": [],
      "name": "compRate",
      "outputs": [
        {
          "internalType": "uint256",
          "name": "",
          "type": "uint256"
        }
      ],
      "payable": false,
      "stateMutability": "view",
      "type": "function"
    },
    {
      "constant": true,
      "inputs": [
        {
          "internalType": "address",
          "name": "",
          "type": "address"
        }
      ],
      "name": "compSpeeds",
      "outputs": [
        {
          "internalType": "uint256",
          "name": "",
          "type": "uint256"
        }
      ],
      "payable": false,
      "stateMutability": "view",
      "type": "function"
    },
    {
      "constant": true,
      "inputs": [
        {
          "internalType": "address",
          "name": "",
          "type": "address"
        },
        {
          "internalType": "address",
          "name": "",
          "type": "address"
        }
      ],
      "name": "compSupplierIndex",
      "outputs": [
        {
          "internalType": "uint256",
          "name": "",
          "type": "uint256"
        }
      ],
      "payable": false,
      "stateMutability": "view",
      "type": "function"
    },
    {
      "constant": true,
      "inputs": [
        {
          "internalType": "address",
          "name": "",
          "type": "address"
        }
      ],
      "name": "compSupplyState",
      "outputs": [
        {
          "internalType": "uint224",
          "name": "index",
          "type": "uint224"
        },
        {
          "internalType": "uint32",
          "name": "block",
          "type": "uint32"
        }
      ],
      "payable": false,
      "stateMutability": "view",
      "type": "function"
    },
    {
      "constant": true,
      "inputs": [],
      "name": "comptrollerImplementation",
      "outputs": [
        {
          "internalType": "address",
          "name": "",
          "type": "address"
        }
      ],
      "payable": false,
      "stateMutability": "view",
      "type": "function"
    },
    {
      "constant": true,
      "inputs": [],
      "name": "liquidationIncentiveMantissa",
      "outputs": [
        {
          "internalType": "uint256",
          "name": "",
          "type": "uint256"
        }
      ],
      "payable": false,
      "stateMutability": "view",
      "type": "function"
    },
    {
      "constant": true,
      "inputs": [
        {
          "internalType": "address",
          "name": "",
          "type": "address"
        }
      ],
      "name": "markets",
      "outputs": [
        {
          "internalType": "bool",
          "name": "isListed",
          "type": "bool"
        },
        {
          "internalType": "uint256",
          "name": "collateralFactorMantissa",
          "type": "uint256"
        },
        {
          "internalType": "bool",
          "name": "isComped",
          "type": "bool"
        }
      ],
      "payable": false,
      "stateMutability": "view",
      "type": "function"
    },
    {
      "constant": true,
      "inputs": [],
      "name": "maxAssets",
      "outputs": [
        {
          "internalType": "uint256",
          "name": "",
          "type": "uint256"
        }
      ],
      "payable": false,
      "stateMutability": "view",
      "type": "function"
    },
    {
      "constant": true,
      "inputs": [
        {
          "internalType": "address",
          "name": "",
          "type": "address"
        }
      ],
      "name": "mintGuardianPaused",
      "outputs": [
        {
          "internalType": "bool",
          "name": "",
          "type": "bool"
        }
      ],
      "payable": false,
      "stateMutability": "view",
      "type": "function"
    },
    {
      "constant": true,
      "inputs": [],
      "name": "oracle",
      "outputs": [
        {
          "internalType": "contract PriceOracle",
          "name": "",
          "type": "address"
        }
      ],
      "payable": false,
      "stateMutability": "view",
      "type": "function"
    },
    {
      "constant": true,
      "inputs": [],
      "name": "pauseGuardian",
      "outputs": [
        {
          "internalType": "address",
          "name": "",
          "type": "address"
        }
      ],
      "payable": false,
      "stateMutability": "view",
      "type": "function"
    },
    {
      "constant": true,
      "inputs": [],
      "name": "pendingAdmin",
      "outputs": [
        {
          "internalType": "address",
          "name": "",
          "type": "address"
        }
      ],
      "payable": false,
      "stateMutability": "view",
      "type": "function"
    },
    {
      "constant": true,
      "inputs": [],
      "name": "pendingComptrollerImplementation",
      "outputs": [
        {
          "internalType": "address",
          "name": "",
          "type": "address"
        }
      ],
      "payable": false,
      "stateMutability": "view",
      "type": "function"
    },
    {
      "constant": true,
      "inputs": [],
      "name": "seizeGuardianPaused",
      "outputs": [
        {
          "internalType": "bool",
          "name": "",
          "type": "bool"
        }
      ],
      "payable": false,
      "stateMutability": "view",
      "type": "function"
    },
    {
      "constant": true,
      "inputs": [],
      "name": "transferGuardianPaused",
      "outputs": [
        {
          "internalType": "bool",
          "name": "",
          "type": "bool"
        }
      ],
      "payable": false,
      "stateMutability": "view",
      "type": "function"
    }
  ],
  "bytecode": "0x60806040523480156100195760008061001661001f565b50505b5061008a565b632a2a7adb598160e01b8152600481016020815285602082015260005b8681101561005757808601518282016040015260200161003c565b506020828760640184336000905af158600e01573d6000803e3d6000fd5b3d6001141558600a015760016000f35b505050565b610824806100996000396000f3fe608060405234801561001957600080610016610759565b50505b50600436106101525760003560e01c80631d7b33d71461016057806321af4569146101a157806324a3d622146101c557806326782247146101cd5780633c94786f146101d55780634a584432146101f15780634ada90af1461022057806352d84d1e146102285780636b79c38d1461024e5780636d154ea5146102a5578063731f0c2b146102d45780637dc0d1d01461030357806387f763031461030b5780638c57804e146103135780638e8f294b1461034257806394b2294b14610399578063aa900754146103a1578063ac0b0bb7146103a9578063b21be7fd146103b1578063bb82aa5e146103e8578063ca0af043146103f0578063cc7ebdc414610427578063dce1544914610456578063dcfbc0c71461048b578063e6653f3d14610493578063e87554461461049b578063f851a440146104a3575b60008061015d610759565b50505b61018f6004803603602081101561017f5760008061017c610759565b50505b50356001600160a01b03166104ab565b60405190815260200160405180910390f35b6101a96104c6565b6040516001600160a01b03909116815260200160405180910390f35b6101a96104e5565b6101a96104f1565b6101dd6104fd565b604051901515815260200160405180910390f35b61018f600480360360208110156102105760008061020d610759565b50505b50356001600160a01b0316610516565b61018f61052e565b6101a96004803603602081101561024757600080610244610759565b50505b5035610538565b61027d6004803603602081101561026d5760008061026a610759565b50505b50356001600160a01b0316610562565b6040516001600160e01b03909216825263ffffffff1660208201526040908101905180910390f35b6101dd600480360360208110156102c4576000806102c1610759565b50505b50356001600160a01b03166105ad565b6101dd600480360360208110156102f3576000806102f0610759565b50505b50356001600160a01b03166105c7565b6101a96105e1565b6101dd6105ed565b61027d600480360360208110156103325760008061032f610759565b50505b50356001600160a01b03166105f9565b610371600480360360208110156103615760008061035e610759565b50505b50356001600160a01b0316610614565b6040519215158352602083019190915215156040808301919091526060909101905180910390f35b61018f610664565b61018f61066e565b6101dd610678565b61018f600480360360408110156103d0576000806103cd610759565b50505b506001600160a01b0381358116916020013516610684565b6101a96106aa565b61018f6004803603604081101561040f5760008061040c610759565b50505b506001600160a01b03813581169160200135166106b6565b61018f6004803603602081101561044657600080610443610759565b50505b50356001600160a01b03166106dc565b6101a96004803603604081101561047557600080610472610759565b50505b506001600160a01b0381351690602001356106f4565b6101a961072c565b6101dd610738565b61018f610744565b6101a961074e565b600f60205280600052604060002090506104c36107c4565b81565b600060156104d26107c4565b906101000a90046001600160a01b031681565b6000600a6104d26107c4565b600060016104d26107c4565b6014600a6105096107c4565b906101000a900460ff1681565b601660205280600052604060002090506104c36107c4565b60066104c36107c4565b600d81816105446107c4565b811061054c57fe5b90600052602060002001600091506104d26107c4565b6010602052806000526040600020905060008161057d6107c4565b6001600160e01b036101009290920a90041690601c8161059b6107c4565b906101000a900463ffffffff16905082565b600c602052806000526040600020600091506105096107c4565b600b602052806000526040600020600091506105096107c4565b600060046104d26107c4565b6016600a6105096107c4565b6011602052806000526040600020905060008161057d6107c4565b6009602052806000526040600020905060008161062f6107c4565b906101000a900460ff1690806001016106466107c4565b906000600382016106556107c4565b906101000a900460ff16905083565b60076104c36107c4565b600e6104c36107c4565b6017600a6105096107c4565b601260205281600052604060002060205280600052604060002091506104c390506107c4565b600060026104d26107c4565b601360205281600052604060002060205280600052604060002091506104c390506107c4565b601460205280600052604060002090506104c36107c4565b6008602052816000526040600020818161070c6107c4565b811061071457fe5b906000526020600020600093500190506104d26107c4565b600060036104d26107c4565b6015600a6105096107c4565b60056104c36107c4565b6000806104d26107c4565b632a2a7adb598160e01b8152600481016020815285602082015260005b86811015610791578086015182820160400152602001610776565b506020828760640184336000905af158600e01573d6000803e3d6000fd5b3d6001141558600a015760016000f35b505050565b6303daa959598160e01b8152836004820152602081602483336000905af158600e01573d6000803e3d6000fd5b3d6001141558600a015760016000f35b8051935060005b604081101561081f57600082820152602001610808565b50505056",
  "deployedBytecode": "0x608060405234801561001957600080610016610759565b50505b50600436106101525760003560e01c80631d7b33d71461016057806321af4569146101a157806324a3d622146101c557806326782247146101cd5780633c94786f146101d55780634a584432146101f15780634ada90af1461022057806352d84d1e146102285780636b79c38d1461024e5780636d154ea5146102a5578063731f0c2b146102d45780637dc0d1d01461030357806387f763031461030b5780638c57804e146103135780638e8f294b1461034257806394b2294b14610399578063aa900754146103a1578063ac0b0bb7146103a9578063b21be7fd146103b1578063bb82aa5e146103e8578063ca0af043146103f0578063cc7ebdc414610427578063dce1544914610456578063dcfbc0c71461048b578063e6653f3d14610493578063e87554461461049b578063f851a440146104a3575b60008061015d610759565b50505b61018f6004803603602081101561017f5760008061017c610759565b50505b50356001600160a01b03166104ab565b60405190815260200160405180910390f35b6101a96104c6565b6040516001600160a01b03909116815260200160405180910390f35b6101a96104e5565b6101a96104f1565b6101dd6104fd565b604051901515815260200160405180910390f35b61018f600480360360208110156102105760008061020d610759565b50505b50356001600160a01b0316610516565b61018f61052e565b6101a96004803603602081101561024757600080610244610759565b50505b5035610538565b61027d6004803603602081101561026d5760008061026a610759565b50505b50356001600160a01b0316610562565b6040516001600160e01b03909216825263ffffffff1660208201526040908101905180910390f35b6101dd600480360360208110156102c4576000806102c1610759565b50505b50356001600160a01b03166105ad565b6101dd600480360360208110156102f3576000806102f0610759565b50505b50356001600160a01b03166105c7565b6101a96105e1565b6101dd6105ed565b61027d600480360360208110156103325760008061032f610759565b50505b50356001600160a01b03166105f9565b610371600480360360208110156103615760008061035e610759565b50505b50356001600160a01b0316610614565b6040519215158352602083019190915215156040808301919091526060909101905180910390f35b61018f610664565b61018f61066e565b6101dd610678565b61018f600480360360408110156103d0576000806103cd610759565b50505b506001600160a01b0381358116916020013516610684565b6101a96106aa565b61018f6004803603604081101561040f5760008061040c610759565b50505b506001600160a01b03813581169160200135166106b6565b61018f6004803603602081101561044657600080610443610759565b50505b50356001600160a01b03166106dc565b6101a96004803603604081101561047557600080610472610759565b50505b506001600160a01b0381351690602001356106f4565b6101a961072c565b6101dd610738565b61018f610744565b6101a961074e565b600f60205280600052604060002090506104c36107c4565b81565b600060156104d26107c4565b906101000a90046001600160a01b031681565b6000600a6104d26107c4565b600060016104d26107c4565b6014600a6105096107c4565b906101000a900460ff1681565b601660205280600052604060002090506104c36107c4565b60066104c36107c4565b600d81816105446107c4565b811061054c57fe5b90600052602060002001600091506104d26107c4565b6010602052806000526040600020905060008161057d6107c4565b6001600160e01b036101009290920a90041690601c8161059b6107c4565b906101000a900463ffffffff16905082565b600c602052806000526040600020600091506105096107c4565b600b602052806000526040600020600091506105096107c4565b600060046104d26107c4565b6016600a6105096107c4565b6011602052806000526040600020905060008161057d6107c4565b6009602052806000526040600020905060008161062f6107c4565b906101000a900460ff1690806001016106466107c4565b906000600382016106556107c4565b906101000a900460ff16905083565b60076104c36107c4565b600e6104c36107c4565b6017600a6105096107c4565b601260205281600052604060002060205280600052604060002091506104c390506107c4565b600060026104d26107c4565b601360205281600052604060002060205280600052604060002091506104c390506107c4565b601460205280600052604060002090506104c36107c4565b6008602052816000526040600020818161070c6107c4565b811061071457fe5b906000526020600020600093500190506104d26107c4565b600060036104d26107c4565b6015600a6105096107c4565b60056104c36107c4565b6000806104d26107c4565b632a2a7adb598160e01b8152600481016020815285602082015260005b86811015610791578086015182820160400152602001610776565b506020828760640184336000905af158601d01573d60011458600c01573d6000803e3d621234565260ea61109c52505050565b6303daa959598160e01b8152836004820152602081602483336000905af158601d01573d60011458600c01573d6000803e3d621234565260ea61109c528051935060005b604081101561081f57600082820152602001610808565b50505056",
  "source": "pragma solidity ^0.5.16;\n\nimport \"./CToken.sol\";\nimport \"./PriceOracle.sol\";\n\ncontract UnitrollerAdminStorage {\n    /**\n    * @notice Administrator for this contract\n    */\n    address public admin;\n\n    /**\n    * @notice Pending administrator for this contract\n    */\n    address public pendingAdmin;\n\n    /**\n    * @notice Active brains of Unitroller\n    */\n    address public comptrollerImplementation;\n\n    /**\n    * @notice Pending brains of Unitroller\n    */\n    address public pendingComptrollerImplementation;\n}\n\ncontract ComptrollerV1Storage is UnitrollerAdminStorage {\n\n    /**\n     * @notice Oracle which gives the price of any given asset\n     */\n    PriceOracle public oracle;\n\n    /**\n     * @notice Multiplier used to calculate the maximum repayAmount when liquidating a borrow\n     */\n    uint public closeFactorMantissa;\n\n    /**\n     * @notice Multiplier representing the discount on collateral that a liquidator receives\n     */\n    uint public liquidationIncentiveMantissa;\n\n    /**\n     * @notice Max number of assets a single account can participate in (borrow or use as collateral)\n     */\n    uint public maxAssets;\n\n    /**\n     * @notice Per-account mapping of \"assets you are in\", capped by maxAssets\n     */\n    mapping(address => CToken[]) public accountAssets;\n\n}\n\ncontract ComptrollerV2Storage is ComptrollerV1Storage {\n    struct Market {\n        /// @notice Whether or not this market is listed\n        bool isListed;\n\n        /**\n         * @notice Multiplier representing the most one can borrow against their collateral in this market.\n         *  For instance, 0.9 to allow borrowing 90% of collateral value.\n         *  Must be between 0 and 1, and stored as a mantissa.\n         */\n        uint collateralFactorMantissa;\n\n        /// @notice Per-market mapping of \"accounts in this asset\"\n        mapping(address => bool) accountMembership;\n\n        /// @notice Whether or not this market receives COMP\n        bool isComped;\n    }\n\n    /**\n     * @notice Official mapping of cTokens -> Market metadata\n     * @dev Used e.g. to determine if a market is supported\n     */\n    mapping(address => Market) public markets;\n\n\n    /**\n     * @notice The Pause Guardian can pause certain actions as a safety mechanism.\n     *  Actions which allow users to remove their own assets cannot be paused.\n     *  Liquidation / seizing / transfer can only be paused globally, not by market.\n     */\n    address public pauseGuardian;\n    bool public _mintGuardianPaused;\n    bool public _borrowGuardianPaused;\n    bool public transferGuardianPaused;\n    bool public seizeGuardianPaused;\n    mapping(address => bool) public mintGuardianPaused;\n    mapping(address => bool) public borrowGuardianPaused;\n}\n\ncontract ComptrollerV3Storage is ComptrollerV2Storage {\n    struct CompMarketState {\n        /// @notice The market's last updated compBorrowIndex or compSupplyIndex\n        uint224 index;\n\n        /// @notice The block number the index was last updated at\n        uint32 block;\n    }\n\n    /// @notice A list of all markets\n    CToken[] public allMarkets;\n\n    /// @notice The rate at which the flywheel distributes COMP, per block\n    uint public compRate;\n\n    /// @notice The portion of compRate that each market currently receives\n    mapping(address => uint) public compSpeeds;\n\n    /// @notice The COMP market supply state for each market\n    mapping(address => CompMarketState) public compSupplyState;\n\n    /// @notice The COMP market borrow state for each market\n    mapping(address => CompMarketState) public compBorrowState;\n\n    /// @notice The COMP borrow index for each market for each supplier as of the last time they accrued COMP\n    mapping(address => mapping(address => uint)) public compSupplierIndex;\n\n    /// @notice The COMP borrow index for each market for each borrower as of the last time they accrued COMP\n    mapping(address => mapping(address => uint)) public compBorrowerIndex;\n\n    /// @notice The COMP accrued but not yet transferred to each user\n    mapping(address => uint) public compAccrued;\n}\n\ncontract ComptrollerV4Storage is ComptrollerV3Storage {\n    // @notice The borrowCapGuardian can set borrowCaps to any number for any market. Lowering the borrow cap could disable borrowing on the given market.\n    address public borrowCapGuardian;\n\n    // @notice Borrow caps enforced by borrowAllowed for each cToken address. Defaults to zero which corresponds to unlimited borrowing.\n    mapping(address => uint) public borrowCaps;\n}\n\ncontract ComptrollerV5Storage is ComptrollerV4Storage {\n    /// @notice The portion of COMP that each contributor receives per block\n    mapping(address => uint) public compContributorSpeeds;\n\n    /// @notice Last block at which a contributor's COMP rewards have been allocated\n    mapping(address => uint) public lastContributorBlock;\n}\n",
  "sourcePath": "/Users/jesusmeza/Developer/omgx/snapshot-optimism/omgx_examples/compound-protocol/contracts/ComptrollerStorage.sol",
  "compiler": {
    "name": "solc",
    "version": "0.5.16"
  },
  "schemaVersion": "3.4.3",
  "updatedAt": "2021-08-25T22:25:24.606Z",
  "devdoc": {
    "methods": {}
  },
  "userdoc": {
    "methods": {}
  }
}