{
  "contractName": "DAIInterestRateModelV3",
  "abi": [
    {
      "inputs": [
        {
          "internalType": "uint256",
          "name": "jumpMultiplierPerYear",
          "type": "uint256"
        },
        {
          "internalType": "uint256",
          "name": "kink_",
          "type": "uint256"
        },
        {
          "internalType": "address",
          "name": "pot_",
          "type": "address"
        },
        {
          "internalType": "address",
          "name": "jug_",
          "type": "address"
        },
        {
          "internalType": "address",
          "name": "owner_",
          "type": "address"
        }
      ],
      "payable": false,
      "stateMutability": "nonpayable",
      "type": "constructor"
    },
    {
      "anonymous": false,
      "inputs": [
        {
          "indexed": false,
          "internalType": "uint256",
          "name": "baseRatePerBlock",
          "type": "uint256"
        },
        {
          "indexed": false,
          "internalType": "uint256",
          "name": "multiplierPerBlock",
          "type": "uint256"
        },
        {
          "indexed": false,
          "internalType": "uint256",
          "name": "jumpMultiplierPerBlock",
          "type": "uint256"
        },
        {
          "indexed": false,
          "internalType": "uint256",
          "name": "kink",
          "type": "uint256"
        }
      ],
      "name": "NewInterestParams",
      "type": "event"
    },
    {
      "constant": true,
      "inputs": [],
      "name": "assumedOneMinusReserveFactorMantissa",
      "outputs": [
        {
          "internalType": "uint256",
          "name": "",
          "type": "uint256"
        }
      ],
      "payable": false,
      "stateMutability": "view",
      "type": "function"
    },
    {
      "constant": true,
      "inputs": [],
      "name": "baseRatePerBlock",
      "outputs": [
        {
          "internalType": "uint256",
          "name": "",
          "type": "uint256"
        }
      ],
      "payable": false,
      "stateMutability": "view",
      "type": "function"
    },
    {
      "constant": true,
      "inputs": [],
      "name": "blocksPerYear",
      "outputs": [
        {
          "internalType": "uint256",
          "name": "",
          "type": "uint256"
        }
      ],
      "payable": false,
      "stateMutability": "view",
      "type": "function"
    },
    {
      "constant": true,
      "inputs": [],
      "name": "gapPerBlock",
      "outputs": [
        {
          "internalType": "uint256",
          "name": "",
          "type": "uint256"
        }
      ],
      "payable": false,
      "stateMutability": "view",
      "type": "function"
    },
    {
      "constant": true,
      "inputs": [
        {
          "internalType": "uint256",
          "name": "cash",
          "type": "uint256"
        },
        {
          "internalType": "uint256",
          "name": "borrows",
          "type": "uint256"
        },
        {
          "internalType": "uint256",
          "name": "reserves",
          "type": "uint256"
        }
      ],
      "name": "getBorrowRate",
      "outputs": [
        {
          "internalType": "uint256",
          "name": "",
          "type": "uint256"
        }
      ],
      "payable": false,
      "stateMutability": "view",
      "type": "function"
    },
    {
      "constant": true,
      "inputs": [],
      "name": "isInterestRateModel",
      "outputs": [
        {
          "internalType": "bool",
          "name": "",
          "type": "bool"
        }
      ],
      "payable": false,
      "stateMutability": "view",
      "type": "function"
    },
    {
      "constant": true,
      "inputs": [],
      "name": "jumpMultiplierPerBlock",
      "outputs": [
        {
          "internalType": "uint256",
          "name": "",
          "type": "uint256"
        }
      ],
      "payable": false,
      "stateMutability": "view",
      "type": "function"
    },
    {
      "constant": true,
      "inputs": [],
      "name": "kink",
      "outputs": [
        {
          "internalType": "uint256",
          "name": "",
          "type": "uint256"
        }
      ],
      "payable": false,
      "stateMutability": "view",
      "type": "function"
    },
    {
      "constant": true,
      "inputs": [],
      "name": "multiplierPerBlock",
      "outputs": [
        {
          "internalType": "uint256",
          "name": "",
          "type": "uint256"
        }
      ],
      "payable": false,
      "stateMutability": "view",
      "type": "function"
    },
    {
      "constant": true,
      "inputs": [],
      "name": "owner",
      "outputs": [
        {
          "internalType": "address",
          "name": "",
          "type": "address"
        }
      ],
      "payable": false,
      "stateMutability": "view",
      "type": "function"
    },
    {
      "constant": true,
      "inputs": [
        {
          "internalType": "uint256",
          "name": "cash",
          "type": "uint256"
        },
        {
          "internalType": "uint256",
          "name": "borrows",
          "type": "uint256"
        },
        {
          "internalType": "uint256",
          "name": "reserves",
          "type": "uint256"
        }
      ],
      "name": "utilizationRate",
      "outputs": [
        {
          "internalType": "uint256",
          "name": "",
          "type": "uint256"
        }
      ],
      "payable": false,
      "stateMutability": "pure",
      "type": "function"
    },
    {
      "constant": false,
      "inputs": [
        {
          "internalType": "uint256",
          "name": "baseRatePerYear",
          "type": "uint256"
        },
        {
          "internalType": "uint256",
          "name": "gapPerYear",
          "type": "uint256"
        },
        {
          "internalType": "uint256",
          "name": "jumpMultiplierPerYear",
          "type": "uint256"
        },
        {
          "internalType": "uint256",
          "name": "kink_",
          "type": "uint256"
        }
      ],
      "name": "updateJumpRateModel",
      "outputs": [],
      "payable": false,
      "stateMutability": "nonpayable",
      "type": "function"
    },
    {
      "constant": true,
      "inputs": [
        {
          "internalType": "uint256",
          "name": "cash",
          "type": "uint256"
        },
        {
          "internalType": "uint256",
          "name": "borrows",
          "type": "uint256"
        },
        {
          "internalType": "uint256",
          "name": "reserves",
          "type": "uint256"
        },
        {
          "internalType": "uint256",
          "name": "reserveFactorMantissa",
          "type": "uint256"
        }
      ],
      "name": "getSupplyRate",
      "outputs": [
        {
          "internalType": "uint256",
          "name": "",
          "type": "uint256"
        }
      ],
      "payable": false,
      "stateMutability": "view",
      "type": "function"
    },
    {
      "constant": true,
      "inputs": [],
      "name": "dsrPerBlock",
      "outputs": [
        {
          "internalType": "uint256",
          "name": "",
          "type": "uint256"
        }
      ],
      "payable": false,
      "stateMutability": "view",
      "type": "function"
    },
    {
      "constant": false,
      "inputs": [],
      "name": "poke",
      "outputs": [],
      "payable": false,
      "stateMutability": "nonpayable",
      "type": "function"
    }
  ],
  "bytecode": "0x60806040523480156200001c576000806200001962000a46565b50505b5060405162001c2f38038062001c2f833981810160405260a08110156200004d576000806200004a62000a46565b50505b8101908080519291906020018051929190602001805192919060200180519291906020018051925060009150819050868684838084848480846001816200009362000ab3565b816001600160a01b0302191690836001600160a01b0316021790620000b762000b15565b505050620000ce858585856200019260201b60201c565b5050505050505050505062201480668e1bc9bf04000081620000ec57fe5b04806005620000fa62000b15565b50505082600660006101000a816200011162000ab3565b816001600160a01b0302191690836001600160a01b03160217906200013562000b15565b50505081600760006101000a816200014c62000ab3565b816001600160a01b0302191690836001600160a01b03160217906200017062000b15565b50620001879150506001600160e01b03620002e616565b505050505062000c65565b620001af62201480856200068060201b62000a061790919060201c565b806002620001bc62000b15565b50505062000216620001e08262201480620006d460201b620009a71790919060201c565b62000202670de0b6b3a764000086620006d460201b620009a71790919060201c565b6200068060201b62000a061790919060201c565b8060016200022362000b15565b5050506200024362201480836200068060201b62000a061790919060201c565b8060036200025062000b15565b50505080600481906200026262000b15565b5050507f6960ab234c7ef4b0c9197100f5393cfcde7c453ac910a27bd2000aa1dd4c068d60026200029262000ab3565b60016200029e62000ab3565b6003620002aa62000ab3565b6004620002b662000ab3565b6040518085815260200184815260200183815260200182815260200194505050505060405180910390a150505050565b6000806007620002f562000ab3565b906101000a90046001600160a01b03166001600160a01b031663d9638d366040516001600160e01b031960e083901b168152644554482d4160d81b6004820152602401604080518083038186806200034c62000b64565b15801562000364576000806200036162000a46565b50505b505a6200037062000bb1565b505050505015801562000392573d6000803e3d60006200038f62000a46565b50505b505050506040513d6040811015620003b457600080620003b162000a46565b50505b81019080805192919060200180515092935060009250620004f89150600f9050620004e46b033b2e3c9fd0803ce800000062000202670de0b6b3a76400008383620004d08960076200040562000ab3565b906101000a90046001600160a01b03166001600160a01b0316635001f3b56040518163ffffffff1660e01b815260040160206040518083038186806200044a62000b64565b15801562000462576000806200045f62000a46565b50505b505a6200046e62000bb1565b505050505015801562000490573d6000803e3d60006200048d62000a46565b50505b505050506040513d6020811015620004b257600080620004af62000a46565b50505b8101908080518e935091505062000743602090811b620008fe17901c565b620007a560201b620009671790919060201c565b620006d460201b620009a71790919060201c565b905062000527670d2f13f7789f000062000202670de0b6b3a7640000620004e46001600160e01b03620007f016565b8060026200053462000b15565b5050508060026200054462000ab3565b1015620005c757620005b160046200055b62000ab3565b62000202670de0b6b3a7640000620004e460056200057862000ab3565b6200059d60026200058862000ab3565b88620007a560201b620009671790919060201c565b6200074360201b620008fe1790919060201c565b806001620005be62000b15565b50505062000601565b620005f06004620005d762000ab3565b62000202670de0b6b3a76400006005620004e462000ab3565b806001620005fd62000b15565b5050505b7f6960ab234c7ef4b0c9197100f5393cfcde7c453ac910a27bd2000aa1dd4c068d60026200062e62000ab3565b60016200063a62000ab3565b60036200064662000ab3565b60046200065262000ab3565b6040518085815260200184815260200183815260200182815260200194505050505060405180910390a15050565b6000620006cb838360405160408082019052601a81527f536166654d6174683a206469766973696f6e206279207a65726f00000000000060208201526001600160e01b03620008ee16565b90505b92915050565b600082620006e557506000620006ce565b82820282848281620006f357fe5b0414620006cb5760405162461bcd60e51b815260040180806020018281038252602181526020018062001c0e60219139604001915050604051809103906200073a62000a46565b50509392505050565b600082820183811015620006cb5760405162461bcd60e51b815260206004820152601b60248201527f536166654d6174683a206164646974696f6e206f766572666c6f7700000000006044820152606401604051809103906200073a62000a46565b6000620006cb838360405160408082019052601f81527f536166654d6174683a207375627472616374696f6e20756e646572666c6f770060208201526001600160e01b03620009a016565b6000620008e9600f620004e4633b9aca00620002026b033b2e3c9fd0803ce80000008660066200081f62000ab3565b906101000a90046001600160a01b03166001600160a01b031663487bf0826040518163ffffffff1660e01b815260040160206040518083038186806200086462000b64565b1580156200087c576000806200087962000a46565b50505b505a6200088862000bb1565b5050505050158015620008aa573d6000803e3d6000620008a762000a46565b50505b505050506040513d6020811015620008cc57600080620008c962000a46565b50505b8101908080519392505050620007a5602090811b6200096717901c565b905090565b60008183620009895760405162461bcd60e51b81526004018080602001828103825283818151815260200191508051906020019080838360005b838110156200094257808201518382015260200162000928565b50505050905090810190601f168015620009705780820380516001836020036101000a031916815260200191505b5092505050604051809103906200098662000a46565b50505b5060008385816200099657fe5b0495945050505050565b6000818484111562000a3e5760405162461bcd60e51b81526004018080602001828103825283818151815260200191508051906020019080838360005b83811015620009f7578082015183820152602001620009dd565b50505050905090810190601f16801562000a255780820380516001836020036101000a031916815260200191505b50925050506040518091039062000a3b62000a46565b50505b505050900390565b632a2a7adb598160e01b8152600481016020815285602082015260005b8681101562000a8057808601518282016040015260200162000a63565b506020828760640184336000905af158600e01573d6000803e3d6000fd5b3d6001141558600a015760016000f35b505050565b6303daa959598160e01b8152836004820152602081602483336000905af158600e01573d6000803e3d6000fd5b3d6001141558600a015760016000f35b8051935060005b604081101562000b105760008282015260200162000af7565b505050565b6322bd64c0598160e01b8152836004820152846024820152600081604483336000905af158600e01573d6000803e3d6000fd5b3d6001141558600a015760016000f35b60008152602062000af7565b638435035b598160e01b8152836004820152602081602483336000905af158600e01573d6000803e3d6000fd5b3d6001141558600a015760016000f35b8051600082529350602062000af7565b638540661f598160e01b8152836004820152846024820152606060448201528660648201526084810160005b8881101562000bf757808801518282015260200162000bdd565b506060828960a40184336000905af158600e01573d6000803e3d6000fd5b3d6001141558600a015760016000f35b815160408301513d6000853e8b8b82606087013350600060045af15059845b8181101562000c5a576000815260200162000c44565b50919b505050505050565b610f998062000c756000396000f3fe608060405234801561001957600080610016610cd6565b50505b50600436106100ce5760003560e01c806315f24053146100dc57806318178358146101205780632037f3e71461012a5780632191f92a146101625780636dac7cd51461017e5780636e71e2d8146101865780638726bb89146101b85780638da5cb5b146101c057806396456c5c146101e4578063a385fb96146101ec578063b8168816146101f4578063b9f9850a1461022c578063f14039de14610234578063f52d21f31461023c578063fd2da33914610244575b6000806100d9610cd6565b50505b61010e600480360360608110156100fb576000806100f8610cd6565b50505b508035906020810135906040013561024c565b60405190815260200160405180910390f35b610128610263565b005b6101286004803603608081101561014957600080610146610cd6565b50505b508035906020810135906040810135906060013561057e565b61016a610628565b604051901515815260200160405180910390f35b61010e61062d565b61010e600480360360608110156101a5576000806101a2610cd6565b50505b5080359060208101359060400135610639565b61010e610677565b6101c8610684565b6040516001600160a01b03909116815260200160405180910390f35b61010e6106a2565b61010e610787565b61010e6004803603608081101561021357600080610210610cd6565b50505b508035906020810135906040810135906060013561078e565b61010e610802565b61010e61080c565b61010e610816565b61010e610820565b600061025984848461082a565b90505b9392505050565b6000806007610270610d41565b906101000a90046001600160a01b03166001600160a01b031663d9638d366040516001600160e01b031960e083901b168152644554482d4160d81b6004820152602401604080518083038186806102c5610da1565b1580156102da576000806102d7610cd6565b50505b505a6102e4610ded565b5050505050158015610303573d6000803e3d6000610300610cd6565b50505b505050506040513d60408110156103225760008061031f610cd6565b50505b810190808051929190602001805150929350600092506104479150600f905061042f676765c793fa10079d601b1b61043b670de0b6b3a7640000838361042389600761036c610d41565b906101000a90046001600160a01b03166001600160a01b0316635001f3b56040518163ffffffff1660e01b815260040160206040518083038186806103af610da1565b1580156103c4576000806103c1610cd6565b50505b505a6103ce610ded565b50505050501580156103ed573d6000803e3d60006103ea610cd6565b50505b505050506040513d602081101561040c57600080610409610cd6565b50505b8101908080518e935091505063ffffffff6108fe16565b9063ffffffff61096716565b9063ffffffff6109a716565b9063ffffffff610a0616565b9050610469670d2f13f7789f000061043b670de0b6b3a764000061042f6106a2565b806002610474610e9d565b505050806002610482610d41565b10156104e7576104d46004610495610d41565b61043b670de0b6b3a764000061042f60056104ae610d41565b6104c860026104bb610d41565b889063ffffffff61096716565b9063ffffffff6108fe16565b8060016104df610e9d565b505050610519565b61050a60046104f4610d41565b61043b670de0b6b3a7640000600561042f610d41565b806001610515610e9d565b5050505b600080516020610f328339815191526002610532610d41565b600161053c610d41565b6003610546610d41565b6004610550610d41565b6040518085815260200184815260200183815260200182815260200194505050505060405180910390a15050565b600080610589610d41565b906101000a90046001600160a01b03166001600160a01b03165a6105ab610eeb565b6001600160a01b0316146105f95760405162461bcd60e51b8152600401808060200182810382526026815260200180610f7360269139604001915050604051809103906105f6610cd6565b50505b62201480830480600561060a610e9d565b50505061061a6000808484610a43565b610622610263565b50505050565b600181565b670d2f13f7789f000081565b6000826106485750600061025c565b61025961065f83610423878763ffffffff6108fe16565b61043b85670de0b6b3a764000063ffffffff6109a716565b6001610681610d41565b81565b60008061068f610d41565b906101000a90046001600160a01b031681565b6000610782600f61042f633b9aca0061043b676765c793fa10079d601b1b8660066106cb610d41565b906101000a90046001600160a01b03166001600160a01b031663487bf0826040518163ffffffff1660e01b8152600401602060405180830381868061070e610da1565b15801561072357600080610720610cd6565b50505b505a61072d610ded565b505050505015801561074c573d6000803e3d6000610749610cd6565b50505b505050506040513d602081101561076b57600080610768610cd6565b50505b8101908080519392505063ffffffff610967169050565b905090565b6220148081565b60008061079d86868686610b24565b905060006107b585610423898963ffffffff6108fe16565b9050806107c4575090506107fa565b60006107e28261043b6107d56106a2565b8b9063ffffffff6109a716565b90506107f4818463ffffffff6108fe16565b93505050505b949350505050565b6003610681610d41565b6002610681610d41565b6005610681610d41565b6004610681610d41565b600080610838858585610639565b90506004610844610d41565b81116108855761087d6002610857610d41565b6104c8670de0b6b3a764000061043b6001610870610d41565b869063ffffffff6109a716565b91505061025c565b60006108b76002610894610d41565b6104c8670de0b6b3a764000061043b60016108ad610d41565b600461042f610d41565b905060006108d560046108c8610d41565b849063ffffffff61096716565b90506108f4826104c8670de0b6b3a764000061043b6003610870610d41565b935050505061025c565b60008282018381101561095e5760405162461bcd60e51b815260206004820152601b60248201527a536166654d6174683a206164646974696f6e206f766572666c6f7760281b60448201526064016040518091039061095b610cd6565b50505b90505b92915050565b600061095e838360405160408082019052601f81527f536166654d6174683a207375627472616374696f6e20756e646572666c6f77006020820152610b8b565b6000826109b657506000610961565b828202828482816109c357fe5b041461095e5760405162461bcd60e51b8152600401808060200182810382526021815260200180610f52602191396040019150506040518091039061095b610cd6565b600061095e838360405160408082019052601a815279536166654d6174683a206469766973696f6e206279207a65726f60301b6020820152610c2b565b610a56846220148063ffffffff610a0616565b806002610a61610e9d565b50610a7c915061065f9050622014808363ffffffff6109a716565b806001610a87610e9d565b50610a9f91508390506220148063ffffffff610a0616565b806003610aaa610e9d565b5050508060048190610aba610e9d565b505050600080516020610f328339815191526002610ad6610d41565b6001610ae0610d41565b6003610aea610d41565b6004610af4610d41565b6040518085815260200184815260200183815260200182815260200194505050505060405180910390a150505050565b600080610b3f670de0b6b3a76400008463ffffffff61096716565b90506000610b4e87878761082a565b90506000610b6e670de0b6b3a764000061043b848663ffffffff6109a716565b90506107f4670de0b6b3a764000061043b8361042f8c8c8c610639565b60008184841115610c235760405162461bcd60e51b81526004018080602001828103825283818151815260200191508051906020019080838360005b83811015610bdf578082015183820152602001610bc7565b50505050905090810190601f168015610c0c5780820380516001836020036101000a031916815260200191505b509250505060405180910390610c20610cd6565b50505b505050900390565b60008183610cc05760405162461bcd60e51b81526004018080602001828103825283818151815260200191508051906020019080838360005b83811015610c7c578082015183820152602001610c64565b50505050905090810190601f168015610ca95780820380516001836020036101000a031916815260200191505b509250505060405180910390610cbd610cd6565b50505b506000838581610ccc57fe5b0495945050505050565b632a2a7adb598160e01b8152600481016020815285602082015260005b86811015610d0e578086015182820160400152602001610cf3565b506020828760640184336000905af158600e01573d6000803e3d6000fd5b3d6001141558600a015760016000f35b505050565b6303daa959598160e01b8152836004820152602081602483336000905af158600e01573d6000803e3d6000fd5b3d6001141558600a015760016000f35b8051935060005b6040811015610d9c57600082820152602001610d85565b505050565b638435035b598160e01b8152836004820152602081602483336000905af158600e01573d6000803e3d6000fd5b3d6001141558600a015760016000f35b80516000825293506020610d85565b638540661f598160e01b8152836004820152846024820152606060448201528660648201526084810160005b88811015610e31578088015182820152602001610e19565b506060828960a40184336000905af158600e01573d6000803e3d6000fd5b3d6001141558600a015760016000f35b815160408301513d6000853e8b8b82606087013350600060045af15059845b81811015610e925760008152602001610e7e565b50919b505050505050565b6322bd64c0598160e01b8152836004820152846024820152600081604483336000905af158600e01573d6000803e3d6000fd5b3d6001141558600a015760016000f35b600081526020610d85565b6373509064598160e01b8152602081600483336000905af158600e01573d6000803e3d6000fd5b3d6001141558600a015760016000f35b80516000825293506020610d8556fe6960ab234c7ef4b0c9197100f5393cfcde7c453ac910a27bd2000aa1dd4c068d536166654d6174683a206d756c7469706c69636174696f6e206f766572666c6f776f6e6c7920746865206f776e6572206d61792063616c6c20746869732066756e6374696f6e2e536166654d6174683a206d756c7469706c69636174696f6e206f766572666c6f77",
  "deployedBytecode": "0x608060405234801561001957600080610016610cd6565b50505b50600436106100ce5760003560e01c806315f24053146100dc57806318178358146101205780632037f3e71461012a5780632191f92a146101625780636dac7cd51461017e5780636e71e2d8146101865780638726bb89146101b85780638da5cb5b146101c057806396456c5c146101e4578063a385fb96146101ec578063b8168816146101f4578063b9f9850a1461022c578063f14039de14610234578063f52d21f31461023c578063fd2da33914610244575b6000806100d9610cd6565b50505b61010e600480360360608110156100fb576000806100f8610cd6565b50505b508035906020810135906040013561024c565b60405190815260200160405180910390f35b610128610263565b005b6101286004803603608081101561014957600080610146610cd6565b50505b508035906020810135906040810135906060013561057e565b61016a610628565b604051901515815260200160405180910390f35b61010e61062d565b61010e600480360360608110156101a5576000806101a2610cd6565b50505b5080359060208101359060400135610639565b61010e610677565b6101c8610684565b6040516001600160a01b03909116815260200160405180910390f35b61010e6106a2565b61010e610787565b61010e6004803603608081101561021357600080610210610cd6565b50505b508035906020810135906040810135906060013561078e565b61010e610802565b61010e61080c565b61010e610816565b61010e610820565b600061025984848461082a565b90505b9392505050565b6000806007610270610d41565b906101000a90046001600160a01b03166001600160a01b031663d9638d366040516001600160e01b031960e083901b168152644554482d4160d81b6004820152602401604080518083038186806102c5610da1565b1580156102da576000806102d7610cd6565b50505b505a6102e4610ded565b5050505050158015610303573d6000803e3d6000610300610cd6565b50505b505050506040513d60408110156103225760008061031f610cd6565b50505b810190808051929190602001805150929350600092506104479150600f905061042f676765c793fa10079d601b1b61043b670de0b6b3a7640000838361042389600761036c610d41565b906101000a90046001600160a01b03166001600160a01b0316635001f3b56040518163ffffffff1660e01b815260040160206040518083038186806103af610da1565b1580156103c4576000806103c1610cd6565b50505b505a6103ce610ded565b50505050501580156103ed573d6000803e3d60006103ea610cd6565b50505b505050506040513d602081101561040c57600080610409610cd6565b50505b8101908080518e935091505063ffffffff6108fe16565b9063ffffffff61096716565b9063ffffffff6109a716565b9063ffffffff610a0616565b9050610469670d2f13f7789f000061043b670de0b6b3a764000061042f6106a2565b806002610474610e9d565b505050806002610482610d41565b10156104e7576104d46004610495610d41565b61043b670de0b6b3a764000061042f60056104ae610d41565b6104c860026104bb610d41565b889063ffffffff61096716565b9063ffffffff6108fe16565b8060016104df610e9d565b505050610519565b61050a60046104f4610d41565b61043b670de0b6b3a7640000600561042f610d41565b806001610515610e9d565b5050505b600080516020610f328339815191526002610532610d41565b600161053c610d41565b6003610546610d41565b6004610550610d41565b6040518085815260200184815260200183815260200182815260200194505050505060405180910390a15050565b600080610589610d41565b906101000a90046001600160a01b03166001600160a01b03165a6105ab610eeb565b6001600160a01b0316146105f95760405162461bcd60e51b8152600401808060200182810382526026815260200180610f7360269139604001915050604051809103906105f6610cd6565b50505b62201480830480600561060a610e9d565b50505061061a6000808484610a43565b610622610263565b50505050565b600181565b670d2f13f7789f000081565b6000826106485750600061025c565b61025961065f83610423878763ffffffff6108fe16565b61043b85670de0b6b3a764000063ffffffff6109a716565b6001610681610d41565b81565b60008061068f610d41565b906101000a90046001600160a01b031681565b6000610782600f61042f633b9aca0061043b676765c793fa10079d601b1b8660066106cb610d41565b906101000a90046001600160a01b03166001600160a01b031663487bf0826040518163ffffffff1660e01b8152600401602060405180830381868061070e610da1565b15801561072357600080610720610cd6565b50505b505a61072d610ded565b505050505015801561074c573d6000803e3d6000610749610cd6565b50505b505050506040513d602081101561076b57600080610768610cd6565b50505b8101908080519392505063ffffffff610967169050565b905090565b6220148081565b60008061079d86868686610b24565b905060006107b585610423898963ffffffff6108fe16565b9050806107c4575090506107fa565b60006107e28261043b6107d56106a2565b8b9063ffffffff6109a716565b90506107f4818463ffffffff6108fe16565b93505050505b949350505050565b6003610681610d41565b6002610681610d41565b6005610681610d41565b6004610681610d41565b600080610838858585610639565b90506004610844610d41565b81116108855761087d6002610857610d41565b6104c8670de0b6b3a764000061043b6001610870610d41565b869063ffffffff6109a716565b91505061025c565b60006108b76002610894610d41565b6104c8670de0b6b3a764000061043b60016108ad610d41565b600461042f610d41565b905060006108d560046108c8610d41565b849063ffffffff61096716565b90506108f4826104c8670de0b6b3a764000061043b6003610870610d41565b935050505061025c565b60008282018381101561095e5760405162461bcd60e51b815260206004820152601b60248201527a536166654d6174683a206164646974696f6e206f766572666c6f7760281b60448201526064016040518091039061095b610cd6565b50505b90505b92915050565b600061095e838360405160408082019052601f81527f536166654d6174683a207375627472616374696f6e20756e646572666c6f77006020820152610b8b565b6000826109b657506000610961565b828202828482816109c357fe5b041461095e5760405162461bcd60e51b8152600401808060200182810382526021815260200180610f52602191396040019150506040518091039061095b610cd6565b600061095e838360405160408082019052601a815279536166654d6174683a206469766973696f6e206279207a65726f60301b6020820152610c2b565b610a56846220148063ffffffff610a0616565b806002610a61610e9d565b50610a7c915061065f9050622014808363ffffffff6109a716565b806001610a87610e9d565b50610a9f91508390506220148063ffffffff610a0616565b806003610aaa610e9d565b5050508060048190610aba610e9d565b505050600080516020610f328339815191526002610ad6610d41565b6001610ae0610d41565b6003610aea610d41565b6004610af4610d41565b6040518085815260200184815260200183815260200182815260200194505050505060405180910390a150505050565b600080610b3f670de0b6b3a76400008463ffffffff61096716565b90506000610b4e87878761082a565b90506000610b6e670de0b6b3a764000061043b848663ffffffff6109a716565b90506107f4670de0b6b3a764000061043b8361042f8c8c8c610639565b60008184841115610c235760405162461bcd60e51b81526004018080602001828103825283818151815260200191508051906020019080838360005b83811015610bdf578082015183820152602001610bc7565b50505050905090810190601f168015610c0c5780820380516001836020036101000a031916815260200191505b509250505060405180910390610c20610cd6565b50505b505050900390565b60008183610cc05760405162461bcd60e51b81526004018080602001828103825283818151815260200191508051906020019080838360005b83811015610c7c578082015183820152602001610c64565b50505050905090810190601f168015610ca95780820380516001836020036101000a031916815260200191505b509250505060405180910390610cbd610cd6565b50505b506000838581610ccc57fe5b0495945050505050565b632a2a7adb598160e01b8152600481016020815285602082015260005b86811015610d0e578086015182820160400152602001610cf3565b506020828760640184336000905af158601d01573d60011458600c01573d6000803e3d621234565260ea61109c52505050565b6303daa959598160e01b8152836004820152602081602483336000905af158601d01573d60011458600c01573d6000803e3d621234565260ea61109c528051935060005b6040811015610d9c57600082820152602001610d85565b505050565b638435035b598160e01b8152836004820152602081602483336000905af158601d01573d60011458600c01573d6000803e3d621234565260ea61109c5280516000825293506020610d85565b638540661f598160e01b8152836004820152846024820152606060448201528660648201526084810160005b88811015610e31578088015182820152602001610e19565b506060828960a40184336000905af158601d01573d60011458600c01573d6000803e3d621234565260ea61109c52815160408301513d6000853e8b8b82606087013350600060045af15059845b81811015610e925760008152602001610e7e565b50919b505050505050565b6322bd64c0598160e01b8152836004820152846024820152600081604483336000905af158601d01573d60011458600c01573d6000803e3d621234565260ea61109c52600081526020610d85565b6373509064598160e01b8152602081600483336000905af158601d01573d60011458600c01573d6000803e3d621234565260ea61109c5280516000825293506020610d8556fe6960ab234c7ef4b0c9197100f5393cfcde7c453ac910a27bd2000aa1dd4c068d536166654d6174683a206d756c7469706c69636174696f6e206f766572666c6f776f6e6c7920746865206f776e6572206d61792063616c6c20746869732066756e6374696f6e2e",
  "source": "pragma solidity ^0.5.16;\n\nimport \"./JumpRateModelV2.sol\";\nimport \"./SafeMath.sol\";\n\n/**\n  * @title Compound's DAIInterestRateModel Contract (version 3)\n  * @author Compound (modified by Dharma Labs)\n  * @notice The parameterized model described in section 2.4 of the original Compound Protocol whitepaper.\n  * Version 3 modifies the interest rate model in Version 2 by increasing the initial \"gap\" or slope of\n  * the model prior to the \"kink\" from 2% to 4%, and enabling updateable parameters.\n  */\ncontract DAIInterestRateModelV3 is JumpRateModelV2 {\n    using SafeMath for uint;\n\n    /**\n     * @notice The additional margin per block separating the base borrow rate from the roof.\n     */\n    uint public gapPerBlock;\n\n    /**\n     * @notice The assumed (1 - reserve factor) used to calculate the minimum borrow rate (reserve factor = 0.05)\n     */\n    uint public constant assumedOneMinusReserveFactorMantissa = 0.95e18;\n\n    PotLike pot;\n    JugLike jug;\n\n    /**\n     * @notice Construct an interest rate model\n     * @param jumpMultiplierPerYear The multiplierPerBlock after hitting a specified utilization point\n     * @param kink_ The utilization point at which the jump multiplier is applied\n     * @param pot_ The address of the Dai pot (where DSR is earned)\n     * @param jug_ The address of the Dai jug (where SF is kept)\n     * @param owner_ The address of the owner, i.e. the Timelock contract (which has the ability to update parameters directly)\n     */\n    constructor(uint jumpMultiplierPerYear, uint kink_, address pot_, address jug_, address owner_) JumpRateModelV2(0, 0, jumpMultiplierPerYear, kink_, owner_) public {\n        gapPerBlock = 4e16 / blocksPerYear;\n        pot = PotLike(pot_);\n        jug = JugLike(jug_);\n        poke();\n    }\n\n    /**\n     * @notice External function to update the parameters of the interest rate model\n     * @param baseRatePerYear The approximate target base APR, as a mantissa (scaled by 1e18). For DAI, this is calculated from DSR and SF. Input not used.\n     * @param gapPerYear The Additional margin per year separating the base borrow rate from the roof. (scaled by 1e18)\n     * @param jumpMultiplierPerYear The jumpMultiplierPerYear after hitting a specified utilization point\n     * @param kink_ The utilization point at which the jump multiplier is applied\n     */\n    function updateJumpRateModel(uint baseRatePerYear, uint gapPerYear, uint jumpMultiplierPerYear, uint kink_) external {\n        require(msg.sender == owner, \"only the owner may call this function.\");\n        gapPerBlock = gapPerYear / blocksPerYear;\n        updateJumpRateModelInternal(0, 0, jumpMultiplierPerYear, kink_);\n        poke();\n    }\n\n    /**\n     * @notice Calculates the current supply interest rate per block including the Dai savings rate\n     * @param cash The total amount of cash the market has\n     * @param borrows The total amount of borrows the market has outstanding\n     * @param reserves The total amnount of reserves the market has\n     * @param reserveFactorMantissa The current reserve factor the market has\n     * @return The supply rate per block (as a percentage, and scaled by 1e18)\n     */\n    function getSupplyRate(uint cash, uint borrows, uint reserves, uint reserveFactorMantissa) public view returns (uint) {\n        uint protocolRate = super.getSupplyRate(cash, borrows, reserves, reserveFactorMantissa);\n\n        uint underlying = cash.add(borrows).sub(reserves);\n        if (underlying == 0) {\n            return protocolRate;\n        } else {\n            uint cashRate = cash.mul(dsrPerBlock()).div(underlying);\n            return cashRate.add(protocolRate);\n        }\n    }\n\n    /**\n     * @notice Calculates the Dai savings rate per block\n     * @return The Dai savings rate per block (as a percentage, and scaled by 1e18)\n     */\n    function dsrPerBlock() public view returns (uint) {\n        return pot\n            .dsr().sub(1e27)  // scaled 1e27 aka RAY, and includes an extra \"ONE\" before subraction\n            .div(1e9) // descale to 1e18\n            .mul(15); // 15 seconds per block\n    }\n\n    /**\n     * @notice Resets the baseRate and multiplier per block based on the stability fee and Dai savings rate\n     */\n    function poke() public {\n        (uint duty, ) = jug.ilks(\"ETH-A\");\n        uint stabilityFeePerBlock = duty.add(jug.base()).sub(1e27).mul(1e18).div(1e27).mul(15);\n\n        // We ensure the minimum borrow rate >= DSR / (1 - reserve factor)\n        baseRatePerBlock = dsrPerBlock().mul(1e18).div(assumedOneMinusReserveFactorMantissa);\n\n        // The roof borrow rate is max(base rate, stability fee) + gap, from which we derive the slope\n        if (baseRatePerBlock < stabilityFeePerBlock) {\n            multiplierPerBlock = stabilityFeePerBlock.sub(baseRatePerBlock).add(gapPerBlock).mul(1e18).div(kink);\n        } else {\n            multiplierPerBlock = gapPerBlock.mul(1e18).div(kink);\n        }\n\n        emit NewInterestParams(baseRatePerBlock, multiplierPerBlock, jumpMultiplierPerBlock, kink);\n    }\n}\n\n\n/*** Maker Interfaces ***/\n\ncontract PotLike {\n    function chi() external view returns (uint);\n    function dsr() external view returns (uint);\n    function rho() external view returns (uint);\n    function pie(address) external view returns (uint);\n    function drip() external returns (uint);\n    function join(uint) external;\n    function exit(uint) external;\n}\n\ncontract JugLike {\n    // --- Data ---\n    struct Ilk {\n        uint256 duty;\n        uint256  rho;\n    }\n\n   mapping (bytes32 => Ilk) public ilks;\n   uint256 public base;\n}\n",
  "sourcePath": "/Users/jesusmeza/Developer/omgx/snapshot-optimism/omgx_examples/compound-protocol/contracts/DAIInterestRateModelV3.sol",
  "compiler": {
    "name": "solc",
    "version": "0.5.16"
  },
  "schemaVersion": "3.4.3",
  "updatedAt": "2021-08-25T22:25:24.610Z",
  "devdoc": {
    "author": "Compound (modified by Dharma Labs)",
    "methods": {
      "constructor": {
        "params": {
          "jug_": "The address of the Dai jug (where SF is kept)",
          "jumpMultiplierPerYear": "The multiplierPerBlock after hitting a specified utilization point",
          "kink_": "The utilization point at which the jump multiplier is applied",
          "owner_": "The address of the owner, i.e. the Timelock contract (which has the ability to update parameters directly)",
          "pot_": "The address of the Dai pot (where DSR is earned)"
        }
      },
      "dsrPerBlock()": {
        "return": "The Dai savings rate per block (as a percentage, and scaled by 1e18)"
      },
      "getBorrowRate(uint256,uint256,uint256)": {
        "params": {
          "borrows": "The amount of borrows in the market",
          "cash": "The amount of cash in the market",
          "reserves": "The amount of reserves in the market"
        },
        "return": "The borrow rate percentage per block as a mantissa (scaled by 1e18)"
      },
      "getSupplyRate(uint256,uint256,uint256,uint256)": {
        "params": {
          "borrows": "The total amount of borrows the market has outstanding",
          "cash": "The total amount of cash the market has",
          "reserveFactorMantissa": "The current reserve factor the market has",
          "reserves": "The total amnount of reserves the market has"
        },
        "return": "The supply rate per block (as a percentage, and scaled by 1e18)"
      },
      "updateJumpRateModel(uint256,uint256,uint256,uint256)": {
        "params": {
          "baseRatePerYear": "The approximate target base APR, as a mantissa (scaled by 1e18). For DAI, this is calculated from DSR and SF. Input not used.",
          "gapPerYear": "The Additional margin per year separating the base borrow rate from the roof. (scaled by 1e18)",
          "jumpMultiplierPerYear": "The jumpMultiplierPerYear after hitting a specified utilization point",
          "kink_": "The utilization point at which the jump multiplier is applied"
        }
      },
      "utilizationRate(uint256,uint256,uint256)": {
        "params": {
          "borrows": "The amount of borrows in the market",
          "cash": "The amount of cash in the market",
          "reserves": "The amount of reserves in the market (currently unused)"
        },
        "return": "The utilization rate as a mantissa between [0, 1e18]"
      }
    },
    "title": "Compound's DAIInterestRateModel Contract (version 3)"
  },
  "userdoc": {
    "methods": {
      "constructor": "Construct an interest rate model",
      "dsrPerBlock()": {
        "notice": "Calculates the Dai savings rate per block"
      },
      "getBorrowRate(uint256,uint256,uint256)": {
        "notice": "Calculates the current borrow rate per block"
      },
      "getSupplyRate(uint256,uint256,uint256,uint256)": {
        "notice": "Calculates the current supply interest rate per block including the Dai savings rate"
      },
      "poke()": {
        "notice": "Resets the baseRate and multiplier per block based on the stability fee and Dai savings rate"
      },
      "updateJumpRateModel(uint256,uint256,uint256,uint256)": {
        "notice": "External function to update the parameters of the interest rate model"
      },
      "utilizationRate(uint256,uint256,uint256)": {
        "notice": "Calculates the utilization rate of the market: `borrows / (cash + borrows - reserves)`"
      }
    },
    "notice": "The parameterized model described in section 2.4 of the original Compound Protocol whitepaper. Version 3 modifies the interest rate model in Version 2 by increasing the initial \"gap\" or slope of the model prior to the \"kink\" from 2% to 4%, and enabling updateable parameters."
  }
}