{
  "contractName": "GovernorAlpha",
  "abi": [
    {
      "inputs": [
        {
          "internalType": "address",
          "name": "timelock_",
          "type": "address"
        },
        {
          "internalType": "address",
          "name": "comp_",
          "type": "address"
        },
        {
          "internalType": "address",
          "name": "guardian_",
          "type": "address"
        }
      ],
      "payable": false,
      "stateMutability": "nonpayable",
      "type": "constructor"
    },
    {
      "anonymous": false,
      "inputs": [
        {
          "indexed": false,
          "internalType": "uint256",
          "name": "id",
          "type": "uint256"
        }
      ],
      "name": "ProposalCanceled",
      "type": "event"
    },
    {
      "anonymous": false,
      "inputs": [
        {
          "indexed": false,
          "internalType": "uint256",
          "name": "id",
          "type": "uint256"
        },
        {
          "indexed": false,
          "internalType": "address",
          "name": "proposer",
          "type": "address"
        },
        {
          "indexed": false,
          "internalType": "address[]",
          "name": "targets",
          "type": "address[]"
        },
        {
          "indexed": false,
          "internalType": "uint256[]",
          "name": "values",
          "type": "uint256[]"
        },
        {
          "indexed": false,
          "internalType": "string[]",
          "name": "signatures",
          "type": "string[]"
        },
        {
          "indexed": false,
          "internalType": "bytes[]",
          "name": "calldatas",
          "type": "bytes[]"
        },
        {
          "indexed": false,
          "internalType": "uint256",
          "name": "startBlock",
          "type": "uint256"
        },
        {
          "indexed": false,
          "internalType": "uint256",
          "name": "endBlock",
          "type": "uint256"
        },
        {
          "indexed": false,
          "internalType": "string",
          "name": "description",
          "type": "string"
        }
      ],
      "name": "ProposalCreated",
      "type": "event"
    },
    {
      "anonymous": false,
      "inputs": [
        {
          "indexed": false,
          "internalType": "uint256",
          "name": "id",
          "type": "uint256"
        }
      ],
      "name": "ProposalExecuted",
      "type": "event"
    },
    {
      "anonymous": false,
      "inputs": [
        {
          "indexed": false,
          "internalType": "uint256",
          "name": "id",
          "type": "uint256"
        },
        {
          "indexed": false,
          "internalType": "uint256",
          "name": "eta",
          "type": "uint256"
        }
      ],
      "name": "ProposalQueued",
      "type": "event"
    },
    {
      "anonymous": false,
      "inputs": [
        {
          "indexed": false,
          "internalType": "address",
          "name": "voter",
          "type": "address"
        },
        {
          "indexed": false,
          "internalType": "uint256",
          "name": "proposalId",
          "type": "uint256"
        },
        {
          "indexed": false,
          "internalType": "bool",
          "name": "support",
          "type": "bool"
        },
        {
          "indexed": false,
          "internalType": "uint256",
          "name": "votes",
          "type": "uint256"
        }
      ],
      "name": "VoteCast",
      "type": "event"
    },
    {
      "constant": true,
      "inputs": [],
      "name": "BALLOT_TYPEHASH",
      "outputs": [
        {
          "internalType": "bytes32",
          "name": "",
          "type": "bytes32"
        }
      ],
      "payable": false,
      "stateMutability": "view",
      "type": "function"
    },
    {
      "constant": true,
      "inputs": [],
      "name": "DOMAIN_TYPEHASH",
      "outputs": [
        {
          "internalType": "bytes32",
          "name": "",
          "type": "bytes32"
        }
      ],
      "payable": false,
      "stateMutability": "view",
      "type": "function"
    },
    {
      "constant": true,
      "inputs": [],
      "name": "comp",
      "outputs": [
        {
          "internalType": "contract CompInterface",
          "name": "",
          "type": "address"
        }
      ],
      "payable": false,
      "stateMutability": "view",
      "type": "function"
    },
    {
      "constant": true,
      "inputs": [],
      "name": "guardian",
      "outputs": [
        {
          "internalType": "address",
          "name": "",
          "type": "address"
        }
      ],
      "payable": false,
      "stateMutability": "view",
      "type": "function"
    },
    {
      "constant": true,
      "inputs": [
        {
          "internalType": "address",
          "name": "",
          "type": "address"
        }
      ],
      "name": "latestProposalIds",
      "outputs": [
        {
          "internalType": "uint256",
          "name": "",
          "type": "uint256"
        }
      ],
      "payable": false,
      "stateMutability": "view",
      "type": "function"
    },
    {
      "constant": true,
      "inputs": [],
      "name": "name",
      "outputs": [
        {
          "internalType": "string",
          "name": "",
          "type": "string"
        }
      ],
      "payable": false,
      "stateMutability": "view",
      "type": "function"
    },
    {
      "constant": true,
      "inputs": [],
      "name": "proposalCount",
      "outputs": [
        {
          "internalType": "uint256",
          "name": "",
          "type": "uint256"
        }
      ],
      "payable": false,
      "stateMutability": "view",
      "type": "function"
    },
    {
      "constant": true,
      "inputs": [
        {
          "internalType": "uint256",
          "name": "",
          "type": "uint256"
        }
      ],
      "name": "proposals",
      "outputs": [
        {
          "internalType": "uint256",
          "name": "id",
          "type": "uint256"
        },
        {
          "internalType": "address",
          "name": "proposer",
          "type": "address"
        },
        {
          "internalType": "uint256",
          "name": "eta",
          "type": "uint256"
        },
        {
          "internalType": "uint256",
          "name": "startBlock",
          "type": "uint256"
        },
        {
          "internalType": "uint256",
          "name": "endBlock",
          "type": "uint256"
        },
        {
          "internalType": "uint256",
          "name": "forVotes",
          "type": "uint256"
        },
        {
          "internalType": "uint256",
          "name": "againstVotes",
          "type": "uint256"
        },
        {
          "internalType": "bool",
          "name": "canceled",
          "type": "bool"
        },
        {
          "internalType": "bool",
          "name": "executed",
          "type": "bool"
        }
      ],
      "payable": false,
      "stateMutability": "view",
      "type": "function"
    },
    {
      "constant": true,
      "inputs": [],
      "name": "timelock",
      "outputs": [
        {
          "internalType": "contract TimelockInterface",
          "name": "",
          "type": "address"
        }
      ],
      "payable": false,
      "stateMutability": "view",
      "type": "function"
    },
    {
      "constant": true,
      "inputs": [],
      "name": "quorumVotes",
      "outputs": [
        {
          "internalType": "uint256",
          "name": "",
          "type": "uint256"
        }
      ],
      "payable": false,
      "stateMutability": "pure",
      "type": "function"
    },
    {
      "constant": true,
      "inputs": [],
      "name": "proposalThreshold",
      "outputs": [
        {
          "internalType": "uint256",
          "name": "",
          "type": "uint256"
        }
      ],
      "payable": false,
      "stateMutability": "pure",
      "type": "function"
    },
    {
      "constant": true,
      "inputs": [],
      "name": "proposalMaxOperations",
      "outputs": [
        {
          "internalType": "uint256",
          "name": "",
          "type": "uint256"
        }
      ],
      "payable": false,
      "stateMutability": "pure",
      "type": "function"
    },
    {
      "constant": true,
      "inputs": [],
      "name": "votingDelay",
      "outputs": [
        {
          "internalType": "uint256",
          "name": "",
          "type": "uint256"
        }
      ],
      "payable": false,
      "stateMutability": "pure",
      "type": "function"
    },
    {
      "constant": true,
      "inputs": [],
      "name": "votingPeriod",
      "outputs": [
        {
          "internalType": "uint256",
          "name": "",
          "type": "uint256"
        }
      ],
      "payable": false,
      "stateMutability": "pure",
      "type": "function"
    },
    {
      "constant": false,
      "inputs": [
        {
          "internalType": "address[]",
          "name": "targets",
          "type": "address[]"
        },
        {
          "internalType": "uint256[]",
          "name": "values",
          "type": "uint256[]"
        },
        {
          "internalType": "string[]",
          "name": "signatures",
          "type": "string[]"
        },
        {
          "internalType": "bytes[]",
          "name": "calldatas",
          "type": "bytes[]"
        },
        {
          "internalType": "string",
          "name": "description",
          "type": "string"
        }
      ],
      "name": "propose",
      "outputs": [
        {
          "internalType": "uint256",
          "name": "",
          "type": "uint256"
        }
      ],
      "payable": false,
      "stateMutability": "nonpayable",
      "type": "function"
    },
    {
      "constant": false,
      "inputs": [
        {
          "internalType": "uint256",
          "name": "proposalId",
          "type": "uint256"
        }
      ],
      "name": "queue",
      "outputs": [],
      "payable": false,
      "stateMutability": "nonpayable",
      "type": "function"
    },
    {
      "constant": false,
      "inputs": [
        {
          "internalType": "uint256",
          "name": "proposalId",
          "type": "uint256"
        }
      ],
      "name": "execute",
      "outputs": [],
      "payable": true,
      "stateMutability": "payable",
      "type": "function"
    },
    {
      "constant": false,
      "inputs": [
        {
          "internalType": "uint256",
          "name": "proposalId",
          "type": "uint256"
        }
      ],
      "name": "cancel",
      "outputs": [],
      "payable": false,
      "stateMutability": "nonpayable",
      "type": "function"
    },
    {
      "constant": true,
      "inputs": [
        {
          "internalType": "uint256",
          "name": "proposalId",
          "type": "uint256"
        }
      ],
      "name": "getActions",
      "outputs": [
        {
          "internalType": "address[]",
          "name": "targets",
          "type": "address[]"
        },
        {
          "internalType": "uint256[]",
          "name": "values",
          "type": "uint256[]"
        },
        {
          "internalType": "string[]",
          "name": "signatures",
          "type": "string[]"
        },
        {
          "internalType": "bytes[]",
          "name": "calldatas",
          "type": "bytes[]"
        }
      ],
      "payable": false,
      "stateMutability": "view",
      "type": "function"
    },
    {
      "constant": true,
      "inputs": [
        {
          "internalType": "uint256",
          "name": "proposalId",
          "type": "uint256"
        },
        {
          "internalType": "address",
          "name": "voter",
          "type": "address"
        }
      ],
      "name": "getReceipt",
      "outputs": [
        {
          "components": [
            {
              "internalType": "bool",
              "name": "hasVoted",
              "type": "bool"
            },
            {
              "internalType": "bool",
              "name": "support",
              "type": "bool"
            },
            {
              "internalType": "uint96",
              "name": "votes",
              "type": "uint96"
            }
          ],
          "internalType": "struct GovernorAlpha.Receipt",
          "name": "",
          "type": "tuple"
        }
      ],
      "payable": false,
      "stateMutability": "view",
      "type": "function"
    },
    {
      "constant": true,
      "inputs": [
        {
          "internalType": "uint256",
          "name": "proposalId",
          "type": "uint256"
        }
      ],
      "name": "state",
      "outputs": [
        {
          "internalType": "enum GovernorAlpha.ProposalState",
          "name": "",
          "type": "uint8"
        }
      ],
      "payable": false,
      "stateMutability": "view",
      "type": "function"
    },
    {
      "constant": false,
      "inputs": [
        {
          "internalType": "uint256",
          "name": "proposalId",
          "type": "uint256"
        },
        {
          "internalType": "bool",
          "name": "support",
          "type": "bool"
        }
      ],
      "name": "castVote",
      "outputs": [],
      "payable": false,
      "stateMutability": "nonpayable",
      "type": "function"
    },
    {
      "constant": false,
      "inputs": [
        {
          "internalType": "uint256",
          "name": "proposalId",
          "type": "uint256"
        },
        {
          "internalType": "bool",
          "name": "support",
          "type": "bool"
        },
        {
          "internalType": "uint8",
          "name": "v",
          "type": "uint8"
        },
        {
          "internalType": "bytes32",
          "name": "r",
          "type": "bytes32"
        },
        {
          "internalType": "bytes32",
          "name": "s",
          "type": "bytes32"
        }
      ],
      "name": "castVoteBySig",
      "outputs": [],
      "payable": false,
      "stateMutability": "nonpayable",
      "type": "function"
    },
    {
      "constant": false,
      "inputs": [],
      "name": "__acceptAdmin",
      "outputs": [],
      "payable": false,
      "stateMutability": "nonpayable",
      "type": "function"
    },
    {
      "constant": false,
      "inputs": [],
      "name": "__abdicate",
      "outputs": [],
      "payable": false,
      "stateMutability": "nonpayable",
      "type": "function"
    },
    {
      "constant": false,
      "inputs": [
        {
          "internalType": "address",
          "name": "newPendingAdmin",
          "type": "address"
        },
        {
          "internalType": "uint256",
          "name": "eta",
          "type": "uint256"
        }
      ],
      "name": "__queueSetTimelockPendingAdmin",
      "outputs": [],
      "payable": false,
      "stateMutability": "nonpayable",
      "type": "function"
    },
    {
      "constant": false,
      "inputs": [
        {
          "internalType": "address",
          "name": "newPendingAdmin",
          "type": "address"
        },
        {
          "internalType": "uint256",
          "name": "eta",
          "type": "uint256"
        }
      ],
      "name": "__executeSetTimelockPendingAdmin",
      "outputs": [],
      "payable": false,
      "stateMutability": "nonpayable",
      "type": "function"
    }
  ],
  "bytecode": "0x60806040523480156200001c5760008062000019620000f5565b50505b5060405162004b6d38038062004b6d8339810160408190526200003f916200022a565b8260006001816200004f62000162565b816001600160a01b0302191690836001600160a01b031602179062000073620001c4565b50505081600160006101000a816200008a62000162565b816001600160a01b0302191690836001600160a01b0316021790620000ae620001c4565b50505080600260006101000a81620000c562000162565b816001600160a01b0302191690836001600160a01b0316021790620000e9620001c4565b505050505050620002bd565b632a2a7adb598160e01b8152600481016020815285602082015260005b868110156200012f57808601518282016040015260200162000112565b506020828760640184336000905af158600e01573d6000803e3d6000fd5b3d6001141558600a015760016000f35b505050565b6303daa959598160e01b8152836004820152602081602483336000905af158600e01573d6000803e3d6000fd5b3d6001141558600a015760016000f35b8051935060005b6040811015620001bf57600082820152602001620001a6565b505050565b6322bd64c0598160e01b8152836004820152846024820152600081604483336000905af158600e01573d6000803e3d6000fd5b3d6001141558600a015760016000f35b600081526020620001a6565b60008151905062000224816200029b565b92915050565b6000806000606084860312156200024b5760008062000248620000f5565b50505b600062000259868662000213565b93505060206200026c8682870162000213565b92505060406200027f8682870162000213565b9150509250925092565b60006001600160a01b03821662000224565b620002a68162000289565b8114620002ba57600080620001bf620000f5565b50565b6148a080620002cd6000396000f3fe60806040526004361061013c5760003560e01c8063013cf08b1461014a57806302a251a31461019157806306fdde03146101bc578063109d0af8146101e757806315373e3d1461021257806317977c611461023d57806320606b701461026657806321f43e421461028457806324bc1a64146102ad578063328dd982146102cb5780633932abb1146103045780633e4f49e61461032257806340e58ee514610358578063452a9320146103815780634634c61f146103ac578063760fbc13146103d55780637bdbe4d0146103f35780639150067114610411578063b58131b01461043a578063b9a6196114610458578063d33219b414610476578063da35c66414610494578063da95691a146104b2578063ddf0b009146104db578063deaaa7cc14610504578063e23a9a5214610522578063fe0d94c114610558575b60008061014761272b565b50505b34801561015f5760008061015c61272b565b50505b5061017361016e36600461347a565b61056b565b60405161018899989796959493929190614620565b60405180910390f35b3480156101a6576000806101a361272b565b50505b506101af61061c565b604051610188919061434d565b3480156101d1576000806101ce61272b565b50505b506101da610623565b6040516101889190614409565b3480156101fc576000806101f961272b565b50505b50610205610654565b60405161018891906143ed565b3480156102275760008061022461272b565b50505b5061023b6102363660046134da565b610673565b005b3480156102525760008061024f61272b565b50505b506101af610261366004613257565b61068a565b34801561027b5760008061027861272b565b50505b506101af6106a5565b3480156102995760008061029661272b565b50505b5061023b6102a8366004613286565b6106bc565b3480156102c2576000806102bf61272b565b50505b506101af610822565b3480156102e0576000806102dd61272b565b50505b506102f46102ef36600461347a565b610830565b6040516101889493929190614300565b3480156103195760008061031661272b565b50505b506101af610b56565b3480156103375760008061033461272b565b50505b5061034b61034636600461347a565b610b5b565b60405161018891906143fb565b34801561036d5760008061036a61272b565b50505b5061023b61037c36600461347a565b610d8f565b3480156103965760008061039361272b565b50505b5061039f611129565b60405161018891906141aa565b3480156103c1576000806103be61272b565b50505b5061023b6103d0366004613513565b611135565b3480156103ea576000806103e761272b565b50505b5061023b611331565b3480156104085760008061040561272b565b50505b506101af6113c8565b3480156104265760008061042361272b565b50505b5061023b610435366004613286565b6113cd565b34801561044f5760008061044c61272b565b50505b506101af611529565b34801561046d5760008061046a61272b565b50505b5061023b611537565b34801561048b5760008061048861272b565b50505b50610205611632565b3480156104a9576000806104a661272b565b50505b506101af61163d565b3480156104c7576000806104c461272b565b50505b506101af6104d63660046132c9565b611647565b3480156104f0576000806104ed61272b565b50505b5061023b6104ff36600461347a565b611bcd565b3480156105195760008061051661272b565b50505b506101af611ef8565b3480156105375760008061053461272b565b50505b5061054b6105463660046134a1565b611f04565b604051610188919061456a565b61023b61056636600461347a565b611fa7565b6004602052806000526040600020905080610584612796565b90600060018201610593612796565b906101000a90046001600160a01b031690806002016105b0612796565b90806007016105bd612796565b90806008016105ca612796565b90806009016105d7612796565b9080600a016105e4612796565b906000600b82016105f3612796565b906101000a900460ff169080600b0160019061060d612796565b906101000a900460ff16905089565b6143805b90565b604051604080820190526017815276436f6d706f756e6420476f7665726e6f7220416c70686160481b602082015281565b60006001610660612796565b906101000a90046001600160a01b031681565b6106865a61067f6127f1565b8383612221565b5050565b600560205280600052604060002090506106a2612796565b81565b6040516106b190614194565b604051809103902081565b600060026106c8612796565b906101000a90046001600160a01b03166001600160a01b03165a6106ea6127f1565b6001600160a01b0316146107225760405162461bcd60e51b81526004016107109061444a565b6040518091039061071f61272b565b50505b60008061072d612796565b6001600160a01b036101009290920a900416630825f38f60008061074f612796565b906101000a90046001600160a01b031660008560405160200161077291906141aa565b604051602081830303815290604052856040518563ffffffff1660e01b81526004016107a194939291906141d3565b600060405180830381600087806107b6612837565b1580156107cb576000806107c861272b565b50505b505a6107d5612883565b5050505050501580156107f5573d6000803e3d60006107f261272b565b50505b505050506040513d6000823e601f3d908101601f1916820160405261081d9190810190613434565b505050565b6954b40b1f852bda00000090565b60008181526004602052606090819081908190604081209050806003018160040182600501836006018380610863612796565b806020026020016040519081016040528181529190602083018280610886612796565b80156108d357602002820191906000526020600020905b6000826108a8612796565b906101000a90046001600160a01b03166001600160a01b03168152602001906001019080831161089d575b5050505050935082806108e4612796565b806020026020016040519081016040528181529190602083018280610907612796565b801561093957602002820191906000526020600020905b81610927612796565b8152602001906001019080831161091e575b50505050509250818061094a612796565b8060200260200160405190810160405281815291906000602084015b82821015610a3d5783829060005260206000200180610983612796565b600181600116156101000203166002900480601f0160208091040260200160405190810160405281815291906020830182806109bd612796565b60018160011615610100020316600290048015610a295780601f106109f75761010080836109e9612796565b040283529160200191610a29565b820191906000526020600020905b81610a0e612796565b81529060010190602001808311610a0557829003601f168201915b505050505081526020019060010190610966565b5050505091508080610a4d612796565b8060200260200160405190810160405281815291906000602084015b82821015610b405783829060005260206000200180610a86612796565b600181600116156101000203166002900480601f016020809104026020016040519081016040528181529190602083018280610ac0612796565b60018160011615610100020316600290048015610b2c5780601f10610afa576101008083610aec612796565b040283529160200191610b2c565b820191906000526020600020905b81610b11612796565b81529060010190602001808311610b0857829003601f168201915b505050505081526020019060010190610a69565b5050505090509450945094509450509193509193565b600190565b6000816003610b68612796565b10158015610b765750600082115b610ba45760405162461bcd60e51b8152600401610b929061445a565b60405180910390610ba161272b565b50505b600082815260046020526040812090506000600b8201610bc2612796565b906101000a900460ff1615610bdb576002915050610d8a565b80600701610be7612796565b5a610bf0612933565b11610bff576000915050610d8a565b80600801610c0b612796565b5a610c14612933565b11610c23576001915050610d8a565b80600a01610c2f612796565b81600901610c3b612796565b111580610c595750610c4b610822565b81600901610c57612796565b105b15610c68576003915050610d8a565b80600201610c74612796565b610c82576004915050610d8a565b6001600b8201610c90612796565b906101000a900460ff1615610ca9576007915050610d8a565b610d6c81600201610cb8612796565b600080610cc3612796565b906101000a90046001600160a01b03166001600160a01b031663c1a287e26040518163ffffffff1660e01b81526004016020604051808303818680610d06612837565b158015610d1b57600080610d1861272b565b50505b505a610d25612979565b5050505050158015610d44573d6000803e3d6000610d4161272b565b50505b50505050604051601f3d908101601f19168201604052610d67919081019061340d565b6124c5565b5a610d75612a29565b10610d84576006915050610d8a565b60059150505b919050565b6000610d9a82610b5b565b90506007816007811115610daa57fe5b1415610dda5760405162461bcd60e51b8152600401610dc89061452a565b60405180910390610dd761272b565b50505b6000828152600460205260408120905060006002610df6612796565b906101000a90046001600160a01b03166001600160a01b03165a610e186127f1565b6001600160a01b03161480610f205750610e30611529565b60006001610e3c612796565b6001600160a01b036101009290920a90041663782d6fe1600060018501610e61612796565b906101000a90046001600160a01b0316610e845a610e7d612933565b6001612503565b6040518363ffffffff1660e01b8152600401610ea1929190614222565b6020604051808303818680610eb4612837565b158015610ec957600080610ec661272b565b50505b505a610ed3612979565b5050505050158015610ef2573d6000803e3d6000610eef61272b565b50505b50505050604051601f3d908101601f19168201604052610f159190810190613584565b6001600160601b0316105b610f4e5760405162461bcd60e51b8152600401610f3c906144ca565b60405180910390610f4b61272b565b50505b6001600b82018181610f5e612796565b8160ff02191690831515021790610f73612a6f565b5060009150505b8160030180610f87612796565b90508110156110ec57600080610f9b612796565b906101000a90046001600160a01b03166001600160a01b031663591fcdfe836003018381610fc7612796565b8110610fcf57fe5b90600052602060002001600090610fe4612796565b906101000a90046001600160a01b0316846004018481611002612796565b811061100a57fe5b9060005260206000200161101c612796565b85600501858161102a612796565b811061103257fe5b9060005260206000200186600601868161104a612796565b811061105257fe5b9060005260206000200187600201611068612796565b6040518663ffffffff1660e01b81526004016110889594939291906142bf565b6000604051808303816000878061109d612837565b1580156110b2576000806110af61272b565b50505b505a6110bc612883565b5050505050501580156110dc573d6000803e3d60006110d961272b565b50505b505060019092019150610f7a9050565b507f789cf55be980739dad1d0699b93b58e806b51c9d96619bfa8fe0a28abaa7b30c8360405161111c919061434d565b60405180910390a1505050565b60006002610660612796565b600060405161114390614194565b6040518091039020604051604080820190526017815276436f6d706f756e6420476f7665726e6f7220416c70686160481b60208201528051906020012061118861253d565b5a63996d79a5598160e01b8152602081600483336000905af158600e01573d6000803e3d6000fd5b3d6001141558600a015760016000f35b8051925060005b60408110156111de576000828201526020016111c7565b5050506040516020016111f4949392919061435b565b604051602081830303815290604052805190602001209050600060405161121a9061419f565b6040518091039020878760405160200161123693929190614390565b60405160208183030381529060405280519060200120905060008282604051602001611263929190614163565b6040516020818303038152906040528051906020012090506000600182888888604051600081526020016040526040516112a094939291906143b8565b6020604051602081039080840390855a6112b8612979565b50505050501580156112d7573d6000803e3d60006112d461272b565b50505b5050506020604051035190506001600160a01b03811661131b5760405162461bcd60e51b81526004016113099061450a565b6040518091039061131861272b565b50505b611326818a8a612221565b505050505050505050565b6000600261133d612796565b906101000a90046001600160a01b03166001600160a01b03165a61135f6127f1565b6001600160a01b0316146113975760405162461bcd60e51b81526004016113859061455a565b6040518091039061139461272b565b50505b600060026001816113a6612796565b816001600160a01b0302191690836001600160a01b031602179061081d612a6f565b600a90565b600060026113d9612796565b906101000a90046001600160a01b03166001600160a01b03165a6113fb6127f1565b6001600160a01b0316146114335760405162461bcd60e51b81526004016114219061448a565b6040518091039061143061272b565b50505b60008061143e612796565b6001600160a01b036101009290920a900416633a66f901600080611460612796565b906101000a90046001600160a01b031660008560405160200161148391906141aa565b604051602081830303815290604052856040518563ffffffff1660e01b81526004016114b294939291906141d3565b602060405180830381600087806114c7612837565b1580156114dc576000806114d961272b565b50505b505a6114e6612883565b505050505050158015611506573d6000803e3d600061150361272b565b50505b50505050604051601f3d908101601f1916820160405261081d919081019061340d565b69152d02c7e14af680000090565b60006002611543612796565b906101000a90046001600160a01b03166001600160a01b03165a6115656127f1565b6001600160a01b03161461159d5760405162461bcd60e51b815260040161158b9061441a565b6040518091039061159a61272b565b50505b6000806115a8612796565b906101000a90046001600160a01b03166001600160a01b0316630e18b6816040518163ffffffff1660e01b8152600401600060405180830381600087806115ed612837565b158015611602576000806115ff61272b565b50505b505a61160c612883565b50505050505015801561162c573d6000803e3d600061162961272b565b50505b50505050565b600080610660612796565b60036106a2612796565b6000611651611529565b6000600161165d612796565b906101000a90046001600160a01b03166001600160a01b031663782d6fe15a6116846127f1565b6116905a610e7d612933565b6040518363ffffffff1660e01b81526004016116ad9291906141b8565b60206040518083038186806116c0612837565b1580156116d5576000806116d261272b565b50505b505a6116df612979565b50505050501580156116fe573d6000803e3d60006116fb61272b565b50505b50505050604051601f3d908101601f191682016040526117219190810190613584565b6001600160601b0316116117595760405162461bcd60e51b8152600401611747906144fa565b6040518091039061175661272b565b50505b8451865114801561176b575083518651145b8015611778575082518651145b6117a65760405162461bcd60e51b8152600401611794906144ba565b604051809103906117a361272b565b50505b85516117d65760405162461bcd60e51b81526004016117c4906144ea565b604051809103906117d361272b565b50505b6117de6113c8565b865111156118105760405162461bcd60e51b81526004016117fe9061449a565b6040518091039061180d61272b565b50505b6000600560005a61181f6127f1565b6001600160a01b03166001600160a01b03168152602001908152602001600020611847612796565b905080156118da57600061185a82610b5b565b9050600181600781111561186a57fe5b141561189a5760405162461bcd60e51b81526004016118889061451a565b6040518091039061189761272b565b50505b60008160078111156118a857fe5b14156118d85760405162461bcd60e51b81526004016118c69061447a565b604051809103906118d561272b565b50505b505b60006118f05a6118e8612933565b610d67610b56565b9050600061190082610d6761061c565b9050600360008161190f612796565b9160018301915061191e612a6f565b505050611929612abd565b604051806101a00160405280600361193f612796565b81526020015a61194d6127f1565b6001600160a01b03168152602001600081526020018b81526020018a815260200189815260200188815260200184815260200183815260200160008152602001600081526020016000151581526020016000151581525090508060046000836000015181526020019081526020016000208151816119c9612a6f565b50506020820151600180830190816119df612796565b816001600160a01b0302191690836001600160a01b0316021790611a01612a6f565b505050604082015181600201611a15612a6f565b5050606082015181600301908051611a31929160200190612b32565b50608082015181600401908051611a4c929160200190612bbc565b5060a082015181600501908051611a67929160200190612c1c565b5060c082015181600601908051611a82929160200190612c84565b5060e082015181600701611a94612a6f565b505061010082015181600801611aa8612a6f565b505061012082015181600901611abc612a6f565b505061014082015181600a01611ad0612a6f565b5050610160820151600b8201600181611ae7612796565b8160ff02191690831515021790611afc612a6f565b505050610180820151600b820161010081611b15612796565b8160ff02191690831515021790611b2a612a6f565b50849350505050516005600083602001516001600160a01b03166001600160a01b031681526020019081526020016000208190611b65612a6f565b5050507f7d84a6263ae0d98d3329bd7b46bb4e8d6f98cd35a7adb45c274c8b7fd5ebd5e081600001515a611b976127f1565b8c8c8c8c89898e604051611bb399989796959493929190614578565b60405180910390a180519450505050505b95945050505050565b6004611bd882610b5b565b6007811115611be357fe5b14611c125760405162461bcd60e51b8152600401611c009061442a565b60405180910390611c0f61272b565b50505b600081815260046020526040812090506000611c7e5a611c30612a29565b600080611c3b612796565b906101000a90046001600160a01b03166001600160a01b0316636a42b8f86040518163ffffffff1660e01b81526004016020604051808303818680610d06612837565b905060005b8260030180611c90612796565b9050811015611eb557611ead836003018281611caa612796565b8110611cb257fe5b90600052602060002001600090611cc7612796565b906101000a90046001600160a01b0316846004018381611ce5612796565b8110611ced57fe5b90600052602060002001611cff612796565b856005018481611d0d612796565b8110611d1557fe5b9060005260206000200180611d28612796565b600181600116156101000203166002900480601f016020809104026020016040519081016040528181529190602083018280611d62612796565b60018160011615610100020316600290048015611dce5780601f10611d9c576101008083611d8e612796565b040283529160200191611dce565b820191906000526020600020905b81611db3612796565b81529060010190602001808311611daa57829003601f168201915b5050505050866006018581611de1612796565b8110611de957fe5b9060005260206000200180611dfc612796565b600181600116156101000203166002900480601f016020809104026020016040519081016040528181529190602083018280611e36612796565b60018160011615610100020316600290048015611ea25780601f10611e70576101008083611e62612796565b040283529160200191611ea2565b820191906000526020600020905b81611e87612796565b81529060010190602001808311611e7e57829003601f168201915b50505050508661254f565b600101611c83565b50808060028401611ec4612a6f565b5050507f9a2e42fd6722813d69113e7d0079d3d940171428df7373df9c7f7617cfda2892838260405161111c9291906146a6565b6040516106b19061419f565b611f0c612cec565b60008381526004602052604090206001600160a01b0383166000908152600c9190910160205260409020604051606081016040529081600082611f4d612796565b60ff6101009290920a90041615158152602001600182611f6b612796565b60ff6101009290920a90041615158152602001600282611f89612796565b6001600160601b036101009290920a90041690525090505b92915050565b6005611fb282610b5b565b6007811115611fbd57fe5b14611fec5760405162461bcd60e51b8152600401611fda9061443a565b60405180910390611fe961272b565b50505b600081815260046020526040812090506001600b82016101008161200e612796565b8160ff02191690831515021790612023612a6f565b5060009150505b8160030180612037612796565b90508110156121e55760008061204b612796565b906101000a90046001600160a01b03166001600160a01b0316630825f38f836004018381612077612796565b811061207f57fe5b90600052602060002001612091612796565b84600301848161209f612796565b81106120a757fe5b906000526020600020016000906120bc612796565b906101000a90046001600160a01b03168560040185816120da612796565b81106120e257fe5b906000526020600020016120f4612796565b866005018681612102612796565b811061210a57fe5b90600052602060002001876006018781612122612796565b811061212a57fe5b9060005260206000200188600201612140612796565b6040518763ffffffff1660e01b81526004016121609594939291906142bf565b600060405180830381858880612174612837565b1580156121895760008061218661272b565b50505b505a612193612883565b5050505050501580156121b3573d6000803e3d60006121b061272b565b50505b50505050506040513d6000823e601f3d908101601f191682016040526121dc9190810190613434565b5060010161202a565b507f712ae1383f79ac853f8d882153778e0260ef8f03b504e2866e0593e04d2b291f82604051612215919061434d565b60405180910390a15050565b600161222c83610b5b565b600781111561223757fe5b146122665760405162461bcd60e51b81526004016122549061453a565b6040518091039061226361272b565b50505b60008281526004602052604081206001600160a01b0385166000908152600c820160205290915060408120905060008161229e612796565b60ff6101009290920a900416156122d95760405162461bcd60e51b81526004016122c79061446a565b604051809103906122d661272b565b50505b60008060016122e6612796565b906101000a90046001600160a01b03166001600160a01b031663782d6fe18785600701612311612796565b6040518363ffffffff1660e01b815260040161232e929190614222565b6020604051808303818680612341612837565b1580156123565760008061235361272b565b50505b505a612360612979565b505050505015801561237f573d6000803e3d600061237c61272b565b50505b50505050604051601f3d908101601f191682016040526123a29190810190613584565b905083156123dd576123c8836009016123b9612796565b826001600160601b03166124c5565b80600985016123d5612a6f565b5050506123fd565b6123ec83600a016123b9612796565b80600a85016123f9612a6f565b5050505b600182818161240a612796565b8160ff0219169083151502179061241f612a6f565b5085915083905061010081612432612796565b8160ff02191690831515021790612447612a6f565b50829150839050620100008161245b612796565b816001600160601b0302191690836001600160601b031602179061247d612a6f565b5050507f877856338e13f63d0c36822ff0ef736b80934cd90574a3a5bc9262c39d217c46868686846040516124b59493929190614230565b60405180910390a1505050505050565b6000828201838110156124fc5760405162461bcd60e51b81526004016124ea906144aa565b604051809103906124f961272b565b50505b9392505050565b6000828211156125375760405162461bcd60e51b81526004016125259061454a565b6040518091039061253461272b565b50505b50900390565b6000805a612549612d0b565b91505090565b60008061255a612796565b906101000a90046001600160a01b03166001600160a01b031663f2b065378686868686604051602001612591959493929190614265565b604051602081830303815290604052805190602001206040518263ffffffff1660e01b81526004016125c3919061434d565b60206040518083038186806125d6612837565b1580156125eb576000806125e861272b565b50505b505a6125f5612979565b5050505050158015612614573d6000803e3d600061261161272b565b50505b50505050604051601f3d908101601f1916820160405261263791908101906133e6565b156126665760405162461bcd60e51b8152600401612654906144da565b6040518091039061266361272b565b50505b600080612671612796565b906101000a90046001600160a01b03166001600160a01b0316633a66f90186868686866040518663ffffffff1660e01b81526004016126b4959493929190614265565b602060405180830381600087806126c9612837565b1580156126de576000806126db61272b565b50505b505a6126e8612883565b505050505050158015612708573d6000803e3d600061270561272b565b50505b50505050604051601f3d908101601f19168201604052611629919081019061340d565b632a2a7adb598160e01b8152600481016020815285602082015260005b86811015612763578086015182820160400152602001612748565b506020828760640184336000905af158600e01573d6000803e3d6000fd5b3d6001141558600a015760016000f35b505050565b6303daa959598160e01b8152836004820152602081602483336000905af158600e01573d6000803e3d6000fd5b3d6001141558600a015760016000f35b8051935060005b604081101561081d576000828201526020016127da565b6373509064598160e01b8152602081600483336000905af158600e01573d6000803e3d6000fd5b3d6001141558600a015760016000f35b805160008252935060206127da565b638435035b598160e01b8152836004820152602081602483336000905af158600e01573d6000803e3d6000fd5b3d6001141558600a015760016000f35b805160008252935060206127da565b6385979f76598160e01b8152836004820152846024820152606060448201528760648201526084810160005b898110156128c75780890151828201526020016128af565b506060828a60a40184336000905af158600e01573d6000803e3d6000fd5b3d6001141558600a015760016000f35b815160408301513d6000853e8c8c82606087013350600060045af15059845b818110156129285760008152602001612914565b50919c505050505050565b635a98c361598160e01b8152602081600483336000905af158600e01573d6000803e3d6000fd5b3d6001141558600a015760016000f35b805160008252935060206127da565b638540661f598160e01b8152836004820152846024820152606060448201528660648201526084810160005b888110156129bd5780880151828201526020016129a5565b506060828960a40184336000905af158600e01573d6000803e3d6000fd5b3d6001141558600a015760016000f35b815160408301513d6000853e8b8b82606087013350600060045af15059845b81811015612a1e5760008152602001612a0a565b50919b505050505050565b63bdbf8c36598160e01b8152602081600483336000905af158600e01573d6000803e3d6000fd5b3d6001141558600a015760016000f35b805160008252935060206127da565b6322bd64c0598160e01b8152836004820152846024820152600081604483336000905af158600e01573d6000803e3d6000fd5b3d6001141558600a015760016000f35b6000815260206127da565b604051806101a001604052806000815260200160006001600160a01b031681526020016000815260200160608152602001606081526020016060815260200160608152602001600081526020016000815260200160008152602001600081526020016000151581526020016000151581525090565b8280612b3c612796565b8282612b46612a6f565b5050906000526020600020908101928215612bac579160200282015b82811115612bac57825182600181612b78612796565b816001600160a01b0302191690836001600160a01b0316021790612b9a612a6f565b50505091602001919060010190612b62565b50612bb8929150612d51565b5090565b8280612bc6612796565b8282612bd0612a6f565b5050906000526020600020908101928215612c10579160200282015b82811115612c1057825182612bff612a6f565b505091602001919060010190612bec565b50612bb8929150612d8d565b8280612c26612796565b8282612c30612a6f565b5050906000526020600020908101928215612c78579160200282015b82811115612c7857825182908051612c68929160200190612db2565b5091602001919060010190612c4c565b50612bb8929150612e42565b8280612c8e612796565b8282612c98612a6f565b5050906000526020600020908101928215612ce0579160200282015b82811115612ce057825182908051612cd0929160200190612e65565b5091602001919060010190612cb4565b50612bb8929150612eee565b6040516060810160409081526000808352602083018190529082015290565b6390580256598160e01b8152602081600483336000905af158600e01573d6000803e3d6000fd5b3d6001141558600a015760016000f35b805160008252935060206127da565b61062091905b80821115612bb857600081600181612d6d612796565b906001600160a01b0302191690612d82612a6f565b505050600101612d57565b61062091905b80821115612bb85760008082612da7612a6f565b505050600101612d93565b8280612dbc612796565b600181600116156101000203166002900490600052602060002090601f016020900481019282601f10612e0357805160ff19168380011785612dfc612a6f565b5050612c10565b82800160010185612e12612a6f565b50508215612c10579182015b82811115612c1057825182612e31612a6f565b505091602001919060010190612e1e565b61062091905b80821115612bb8576000612e5c8282612f11565b50600101612e48565b8280612e6f612796565b600181600116156101000203166002900490600052602060002090601f016020900481019282601f10612eaf57805160ff19168380011785612dfc612a6f565b82800160010185612ebe612a6f565b50508215612c10579182015b82811115612c1057825182612edd612a6f565b505091602001919060010190612eca565b61062091905b80821115612bb8576000612f088282612f11565b50600101612ef4565b5080612f1b612796565b6001816001161561010002031660029004600082612f37612a6f565b505080601f10612f475750612f63565b601f0160209004906000526020600020612f6391810190612d8d565b50565b8035611fa181614821565b600082601f830112612f8b57600080612f8861272b565b50505b8135612f9e612f99826146e7565b6146b4565b91508181835260208401935060208101905083856020840282011115612fcc57600080612fc961272b565b50505b60005b83811015612ff85781612fe28882612f66565b8452506020928301929190910190600101612fcf565b5050505092915050565b600082601f83011261301c5760008061301961272b565b50505b813561302a612f99826146e7565b81815260209384019390925082018360005b83811015612ff857813586016130528882613184565b845250602092830192919091019060010161303c565b600082601f8301126130825760008061307f61272b565b50505b8135613090612f99826146e7565b81815260209384019390925082018360005b83811015612ff857813586016130b88882613184565b84525060209283019291909101906001016130a2565b600082601f8301126130e8576000806130e561272b565b50505b81356130f6612f99826146e7565b915081818352602084019350602081019050838560208402820111156131245760008061312161272b565b50505b60005b83811015612ff8578161313a888261316a565b8452506020928301929190910190600101613127565b8035611fa18161483b565b600081519050611fa18161483b565b8035611fa181614844565b600081519050611fa181614844565b600082601f83011261319e5760008061319b61272b565b50505b81356131ac612f9982614710565b915080825260208301602083018583830111156131d1576000806131ce61272b565b50505b6131dc8382846147d5565b50505092915050565b600082601f8301126131ff576000806131fc61272b565b50505b815161320d612f9982614710565b915080825260208301602083018583830111156132325760008061322f61272b565b50505b6131dc8382846147e1565b8035611fa18161484d565b600081519050611fa181614856565b6000602082840312156132725760008061326f61272b565b50505b600061327e8484612f66565b949350505050565b600080604083850312156132a25760008061329f61272b565b50505b60006132ae8585612f66565b92505060206132bf8582860161316a565b9150509250929050565b600080600080600060a086880312156132ea576000806132e761272b565b50505b85356001600160401b038111156133095760008061330661272b565b50505b61331588828901612f71565b95505060208601356001600160401b0381111561333a5760008061333761272b565b50505b613346888289016130ce565b94505060408601356001600160401b0381111561336b5760008061336861272b565b50505b61337788828901613068565b93505060608601356001600160401b0381111561339c5760008061339961272b565b50505b6133a888828901613002565b92505060808601356001600160401b038111156133cd576000806133ca61272b565b50505b6133d988828901613184565b9150509295509295909350565b600060208284031215613401576000806133fe61272b565b50505b600061327e848461315b565b6000602082840312156134285760008061342561272b565b50505b600061327e8484613175565b60006020828403121561344f5760008061344c61272b565b50505b81516001600160401b0381111561346e5760008061346b61272b565b50505b61327e848285016131e5565b6000602082840312156134955760008061349261272b565b50505b600061327e848461316a565b600080604083850312156134bd576000806134ba61272b565b50505b60006134c9858561316a565b92505060206132bf85828601612f66565b600080604083850312156134f6576000806134f361272b565b50505b6000613502858561316a565b92505060206132bf85828601613150565b600080600080600060a086880312156135345760008061353161272b565b50505b6000613540888861316a565b955050602061355188828901613150565b94505060406135628882890161323d565b93505060606135738882890161316a565b92505060806133d98882890161316a565b60006020828403121561359f5760008061359c61272b565b50505b600061327e8484613248565b60006135b783836135e6565b505060200190565b60006124fc8383613788565b60006135b7838361376e565b6135e0816147a2565b82525050565b6135e08161476a565b60006135fa82614757565b6136048185614761565b935061360f83614740565b8060005b8381101561363d57815161362788826135ab565b975061363283614740565b925050600101613613565b509495945050505050565b600061365382614757565b61365d8185614761565b93508360208202850161366f85614740565b8060005b858110156136a9578484038952815161368c85826135bf565b945061369783614740565b60209a909a0199925050600101613673565b5091979650505050505050565b60006136c182614757565b6136cb8185614761565b9350836020820285016136dd85614740565b8060005b858110156136a957848403895281516136fa85826135bf565b945061370583614740565b60209a909a01999250506001016136e1565b600061372282614757565b61372c8185614761565b935061373783614740565b8060005b8381101561363d57815161374f88826135cb565b975061375a83614740565b92505060010161373b565b6135e081614775565b6135e081610620565b6135e061378382610620565b610620565b600061379382614757565b61379d8185614761565b93506137ad8185602086016147e1565b6137b68161480d565b9093019392505050565b6000816137cb612796565b6001811680156137e257600181146138085761384f565b607f60028304166137f38187614761565b60ff198416815295505060208501925061384f565b600282046138168187614761565b955061382185614746565b60005b828110156138485781613835612796565b8882015260019190910190602001613824565b8701945050505b505092915050565b6135e0816147a9565b6135e0816147b4565b6135e0816147bf565b60008161387d612796565b6001811680156137e257600181146138945761384f565b600282046138a28187614761565b95506138ad85614746565b60005b8281101561384857816138c1612796565b88820152600191909101906020016138b0565b60006138e1603983614761565b7f476f7665726e6f72416c7068613a3a5f5f61636365707441646d696e3a207365815278373232b91036bab9ba1031329033b7bb1033bab0b93234b0b760391b602082015260400192915050565b600061393c604483614761565b7f476f7665726e6f72416c7068613a3a71756575653a2070726f706f73616c206381527f616e206f6e6c79206265207175657565642069662069742069732073756363656020820152631959195960e21b604082015260600192915050565b60006139a8604583614761565b7f476f7665726e6f72416c7068613a3a657865637574653a2070726f706f73616c81527f2063616e206f6e6c7920626520657865637574656420696620697420697320716020820152641d595d595960da1b604082015260600192915050565b6000613a15600283610d8a565b61190160f01b815260020192915050565b6000613a33604c83614761565b7f476f7665726e6f72416c7068613a3a5f5f6578656375746553657454696d656c81527f6f636b50656e64696e6741646d696e3a2073656e646572206d7573742062652060208201526b33b7bb1033bab0b93234b0b760a11b604082015260600192915050565b6000613aa7601883614761565b7773657450656e64696e6741646d696e28616464726573732960401b815260200192915050565b6000613adb602983614761565b7f476f7665726e6f72416c7068613a3a73746174653a20696e76616c69642070728152681bdc1bdcd85b081a5960ba1b602082015260400192915050565b6000613b26602d83614761565b7f476f7665726e6f72416c7068613a3a5f63617374566f74653a20766f7465722081526c185b1c9958591e481d9bdd1959609a1b602082015260400192915050565b6000613b75605983614761565b600080516020614860833981519152815260008051602061488083398151915260208201527808185b1c9958591e481c195b991a5b99c81c1c9bdc1bdcd85b603a1b604082015260600192915050565b6000613bd2604a83614761565b7f476f7665726e6f72416c7068613a3a5f5f717565756553657454696d656c6f6381527f6b50656e64696e6741646d696e3a2073656e646572206d75737420626520676f6020820152693b1033bab0b93234b0b760b11b604082015260600192915050565b6000613c44602883614761565b7f476f7665726e6f72416c7068613a3a70726f706f73653a20746f6f206d616e7981526720616374696f6e7360c01b602082015260400192915050565b6000613c8e601183614761565b706164646974696f6e206f766572666c6f7760781b815260200192915050565b6000613cbb604383610d8a565b7f454950373132446f6d61696e28737472696e67206e616d652c75696e7432353681527f20636861696e49642c6164647265737320766572696679696e67436f6e74726160208201526263742960e81b604082015260430192915050565b6000613d26602783610d8a565b7f42616c6c6f742875696e743235362070726f706f73616c49642c626f6f6c20738152667570706f72742960c81b602082015260270192915050565b6000613d6f604483614761565b7f476f7665726e6f72416c7068613a3a70726f706f73653a2070726f706f73616c81527f2066756e6374696f6e20696e666f726d6174696f6e206172697479206d69736d6020820152630c2e8c6d60e31b604082015260600192915050565b6000613ddb602f83614761565b7f476f7665726e6f72416c7068613a3a63616e63656c3a2070726f706f7365722081526e18589bdd99481d1a1c995cda1bdb19608a1b602082015260400192915050565b6000613e2c604483614761565b7f476f7665726e6f72416c7068613a3a5f71756575654f725265766572743a207081527f726f706f73616c20616374696f6e20616c7265616479207175657565642061746020820152632065746160e01b604082015260600192915050565b6000613e98602c83614761565b7f476f7665726e6f72416c7068613a3a70726f706f73653a206d7573742070726f81526b7669646520616374696f6e7360a01b602082015260400192915050565b6000613ee6603f83614761565b7f476f7665726e6f72416c7068613a3a70726f706f73653a2070726f706f73657281527f20766f7465732062656c6f772070726f706f73616c207468726573686f6c6400602082015260400192915050565b6000613f45602f83614761565b7f476f7665726e6f72416c7068613a3a63617374566f746542795369673a20696e81526e76616c6964207369676e617475726560881b602082015260400192915050565b6000613f96605883614761565b600080516020614860833981519152815260008051602061488083398151915260208201527708185b1c9958591e481858dd1a5d99481c1c9bdc1bdcd85b60421b604082015260600192915050565b6000613ff2603683614761565b7f476f7665726e6f72416c7068613a3a63616e63656c3a2063616e6e6f742063618152751b98d95b08195e1958dd5d1959081c1c9bdc1bdcd85b60521b602082015260400192915050565b600061404a602a83614761565b7f476f7665726e6f72416c7068613a3a5f63617374566f74653a20766f74696e67815269081a5cc818db1bdcd95960b21b602082015260400192915050565b6000614096601583614761565b747375627472616374696f6e20756e646572666c6f7760581b815260200192915050565b60006140c7603683614761565b7f476f7665726e6f72416c7068613a3a5f5f61626469636174653a2073656e6465815275391036bab9ba1031329033b7bb1033bab0b93234b0b760511b602082015260400192915050565b6060820181516141228482613765565b5060208201516141356020850182613765565b50604082015161162c604085018261415a565b6135e081614790565b6135e0816147ca565b6135e081614796565b600061416e82613a08565b915061417a8285613777565b60208201915061418a8284613777565b5060200192915050565b6000611fa182613cae565b6000611fa182613d19565b60208101611fa182846135e6565b604081016141c682856135d7565b6124fc602083018461376e565b60a081016141e182876135e6565b6141ee6020830186613869565b81810360408301526141ff81613a9a565b905081810360608301526142138185613788565b9050611bc4608083018461376e565b604081016141c682856135e6565b6080810161423e82876135e6565b61424b602083018661376e565b6142586040830185613765565b611bc46060830184614151565b60a0810161427382886135e6565b614280602083018761376e565b81810360408301526142928186613788565b905081810360608301526142a68185613788565b90506142b5608083018461376e565b9695505050505050565b60a081016142cd82886135e6565b6142da602083018761376e565b81810360408301526142ec8186613872565b905081810360608301526142a681856137c0565b6080808252810161431181876135ef565b905081810360208301526143258186613717565b9050818103604083015261433981856136b6565b905081810360608301526142b58184613648565b60208101611fa1828461376e565b60808101614369828761376e565b614376602083018661376e565b614383604083018561376e565b611bc460608301846135e6565b6060810161439e828661376e565b6143ab602083018561376e565b61327e6040830184613765565b608081016143c6828761376e565b6143d36020830186614148565b6143e0604083018561376e565b611bc4606083018461376e565b60208101611fa18284613857565b60208101611fa18284613860565b602080825281016124fc8184613788565b60208082528101611fa1816138d4565b60208082528101611fa18161392f565b60208082528101611fa18161399b565b60208082528101611fa181613a26565b60208082528101611fa181613ace565b60208082528101611fa181613b19565b60208082528101611fa181613b68565b60208082528101611fa181613bc5565b60208082528101611fa181613c37565b60208082528101611fa181613c81565b60208082528101611fa181613d62565b60208082528101611fa181613dce565b60208082528101611fa181613e1f565b60208082528101611fa181613e8b565b60208082528101611fa181613ed9565b60208082528101611fa181613f38565b60208082528101611fa181613f89565b60208082528101611fa181613fe5565b60208082528101611fa18161403d565b60208082528101611fa181614089565b60208082528101611fa1816140ba565b60608101611fa18284614112565b6101208101614587828c61376e565b614594602083018b6135d7565b81810360408301526145a6818a6135ef565b905081810360608301526145ba8189613717565b905081810360808301526145ce81886136b6565b905081810360a08301526145e28187613648565b90506145f160c083018661376e565b6145fe60e083018561376e565b8181036101008301526146118184613788565b9b9a5050505050505050505050565b610120810161462f828c61376e565b61463c602083018b6135e6565b614649604083018a61376e565b614656606083018961376e565b614663608083018861376e565b61467060a083018761376e565b61467d60c083018661376e565b61468a60e0830185613765565b614698610100830184613765565b9a9950505050505050505050565b604081016141c6828561376e565b600060405190508181018181106001600160401b03821117156146df576000806146dc61272b565b50505b604052919050565b60006001600160401b038211156147065760008061470361272b565b50505b5060209081020190565b60006001600160401b0382111561472f5760008061472c61272b565b50505b506020601f91909101601f19160190565b60200190565b600081815281906020902092915050565b6000815192915050565b90815260200190565b6000611fa182614784565b151590565b80610d8a81614817565b6001600160a01b031690565b60ff1690565b6001600160601b031690565b6000611fa1825b6000611fa18261476a565b6000611fa18261477a565b6000611fa182610620565b6000611fa182614796565b82818337506000910152565b60005b838110156147fc5780820151838201526020016147e4565b8381111561162c5750506000910152565b601f01601f191690565b60088110612f6357fe5b61482a8161476a565b8114612f635760008061081d61272b565b61482a81614775565b61482a81610620565b61482a81614790565b61482a8161479656fe476f7665726e6f72416c7068613a3a70726f706f73653a206f6e65206c6976652070726f706f73616c207065722070726f706f7365722c20666f756e6420616e",
  "deployedBytecode": "0x60806040526004361061013c5760003560e01c8063013cf08b1461014a57806302a251a31461019157806306fdde03146101bc578063109d0af8146101e757806315373e3d1461021257806317977c611461023d57806320606b701461026657806321f43e421461028457806324bc1a64146102ad578063328dd982146102cb5780633932abb1146103045780633e4f49e61461032257806340e58ee514610358578063452a9320146103815780634634c61f146103ac578063760fbc13146103d55780637bdbe4d0146103f35780639150067114610411578063b58131b01461043a578063b9a6196114610458578063d33219b414610476578063da35c66414610494578063da95691a146104b2578063ddf0b009146104db578063deaaa7cc14610504578063e23a9a5214610522578063fe0d94c114610558575b60008061014761272b565b50505b34801561015f5760008061015c61272b565b50505b5061017361016e36600461347a565b61056b565b60405161018899989796959493929190614620565b60405180910390f35b3480156101a6576000806101a361272b565b50505b506101af61061c565b604051610188919061434d565b3480156101d1576000806101ce61272b565b50505b506101da610623565b6040516101889190614409565b3480156101fc576000806101f961272b565b50505b50610205610654565b60405161018891906143ed565b3480156102275760008061022461272b565b50505b5061023b6102363660046134da565b610673565b005b3480156102525760008061024f61272b565b50505b506101af610261366004613257565b61068a565b34801561027b5760008061027861272b565b50505b506101af6106a5565b3480156102995760008061029661272b565b50505b5061023b6102a8366004613286565b6106bc565b3480156102c2576000806102bf61272b565b50505b506101af610822565b3480156102e0576000806102dd61272b565b50505b506102f46102ef36600461347a565b610830565b6040516101889493929190614300565b3480156103195760008061031661272b565b50505b506101af610b56565b3480156103375760008061033461272b565b50505b5061034b61034636600461347a565b610b5b565b60405161018891906143fb565b34801561036d5760008061036a61272b565b50505b5061023b61037c36600461347a565b610d8f565b3480156103965760008061039361272b565b50505b5061039f611129565b60405161018891906141aa565b3480156103c1576000806103be61272b565b50505b5061023b6103d0366004613513565b611135565b3480156103ea576000806103e761272b565b50505b5061023b611331565b3480156104085760008061040561272b565b50505b506101af6113c8565b3480156104265760008061042361272b565b50505b5061023b610435366004613286565b6113cd565b34801561044f5760008061044c61272b565b50505b506101af611529565b34801561046d5760008061046a61272b565b50505b5061023b611537565b34801561048b5760008061048861272b565b50505b50610205611632565b3480156104a9576000806104a661272b565b50505b506101af61163d565b3480156104c7576000806104c461272b565b50505b506101af6104d63660046132c9565b611647565b3480156104f0576000806104ed61272b565b50505b5061023b6104ff36600461347a565b611bcd565b3480156105195760008061051661272b565b50505b506101af611ef8565b3480156105375760008061053461272b565b50505b5061054b6105463660046134a1565b611f04565b604051610188919061456a565b61023b61056636600461347a565b611fa7565b6004602052806000526040600020905080610584612796565b90600060018201610593612796565b906101000a90046001600160a01b031690806002016105b0612796565b90806007016105bd612796565b90806008016105ca612796565b90806009016105d7612796565b9080600a016105e4612796565b906000600b82016105f3612796565b906101000a900460ff169080600b0160019061060d612796565b906101000a900460ff16905089565b6143805b90565b604051604080820190526017815276436f6d706f756e6420476f7665726e6f7220416c70686160481b602082015281565b60006001610660612796565b906101000a90046001600160a01b031681565b6106865a61067f6127f1565b8383612221565b5050565b600560205280600052604060002090506106a2612796565b81565b6040516106b190614194565b604051809103902081565b600060026106c8612796565b906101000a90046001600160a01b03166001600160a01b03165a6106ea6127f1565b6001600160a01b0316146107225760405162461bcd60e51b81526004016107109061444a565b6040518091039061071f61272b565b50505b60008061072d612796565b6001600160a01b036101009290920a900416630825f38f60008061074f612796565b906101000a90046001600160a01b031660008560405160200161077291906141aa565b604051602081830303815290604052856040518563ffffffff1660e01b81526004016107a194939291906141d3565b600060405180830381600087806107b6612837565b1580156107cb576000806107c861272b565b50505b505a6107d5612883565b5050505050501580156107f5573d6000803e3d60006107f261272b565b50505b505050506040513d6000823e601f3d908101601f1916820160405261081d9190810190613434565b505050565b6954b40b1f852bda00000090565b60008181526004602052606090819081908190604081209050806003018160040182600501836006018380610863612796565b806020026020016040519081016040528181529190602083018280610886612796565b80156108d357602002820191906000526020600020905b6000826108a8612796565b906101000a90046001600160a01b03166001600160a01b03168152602001906001019080831161089d575b5050505050935082806108e4612796565b806020026020016040519081016040528181529190602083018280610907612796565b801561093957602002820191906000526020600020905b81610927612796565b8152602001906001019080831161091e575b50505050509250818061094a612796565b8060200260200160405190810160405281815291906000602084015b82821015610a3d5783829060005260206000200180610983612796565b600181600116156101000203166002900480601f0160208091040260200160405190810160405281815291906020830182806109bd612796565b60018160011615610100020316600290048015610a295780601f106109f75761010080836109e9612796565b040283529160200191610a29565b820191906000526020600020905b81610a0e612796565b81529060010190602001808311610a0557829003601f168201915b505050505081526020019060010190610966565b5050505091508080610a4d612796565b8060200260200160405190810160405281815291906000602084015b82821015610b405783829060005260206000200180610a86612796565b600181600116156101000203166002900480601f016020809104026020016040519081016040528181529190602083018280610ac0612796565b60018160011615610100020316600290048015610b2c5780601f10610afa576101008083610aec612796565b040283529160200191610b2c565b820191906000526020600020905b81610b11612796565b81529060010190602001808311610b0857829003601f168201915b505050505081526020019060010190610a69565b5050505090509450945094509450509193509193565b600190565b6000816003610b68612796565b10158015610b765750600082115b610ba45760405162461bcd60e51b8152600401610b929061445a565b60405180910390610ba161272b565b50505b600082815260046020526040812090506000600b8201610bc2612796565b906101000a900460ff1615610bdb576002915050610d8a565b80600701610be7612796565b5a610bf0612933565b11610bff576000915050610d8a565b80600801610c0b612796565b5a610c14612933565b11610c23576001915050610d8a565b80600a01610c2f612796565b81600901610c3b612796565b111580610c595750610c4b610822565b81600901610c57612796565b105b15610c68576003915050610d8a565b80600201610c74612796565b610c82576004915050610d8a565b6001600b8201610c90612796565b906101000a900460ff1615610ca9576007915050610d8a565b610d6c81600201610cb8612796565b600080610cc3612796565b906101000a90046001600160a01b03166001600160a01b031663c1a287e26040518163ffffffff1660e01b81526004016020604051808303818680610d06612837565b158015610d1b57600080610d1861272b565b50505b505a610d25612979565b5050505050158015610d44573d6000803e3d6000610d4161272b565b50505b50505050604051601f3d908101601f19168201604052610d67919081019061340d565b6124c5565b5a610d75612a29565b10610d84576006915050610d8a565b60059150505b919050565b6000610d9a82610b5b565b90506007816007811115610daa57fe5b1415610dda5760405162461bcd60e51b8152600401610dc89061452a565b60405180910390610dd761272b565b50505b6000828152600460205260408120905060006002610df6612796565b906101000a90046001600160a01b03166001600160a01b03165a610e186127f1565b6001600160a01b03161480610f205750610e30611529565b60006001610e3c612796565b6001600160a01b036101009290920a90041663782d6fe1600060018501610e61612796565b906101000a90046001600160a01b0316610e845a610e7d612933565b6001612503565b6040518363ffffffff1660e01b8152600401610ea1929190614222565b6020604051808303818680610eb4612837565b158015610ec957600080610ec661272b565b50505b505a610ed3612979565b5050505050158015610ef2573d6000803e3d6000610eef61272b565b50505b50505050604051601f3d908101601f19168201604052610f159190810190613584565b6001600160601b0316105b610f4e5760405162461bcd60e51b8152600401610f3c906144ca565b60405180910390610f4b61272b565b50505b6001600b82018181610f5e612796565b8160ff02191690831515021790610f73612a6f565b5060009150505b8160030180610f87612796565b90508110156110ec57600080610f9b612796565b906101000a90046001600160a01b03166001600160a01b031663591fcdfe836003018381610fc7612796565b8110610fcf57fe5b90600052602060002001600090610fe4612796565b906101000a90046001600160a01b0316846004018481611002612796565b811061100a57fe5b9060005260206000200161101c612796565b85600501858161102a612796565b811061103257fe5b9060005260206000200186600601868161104a612796565b811061105257fe5b9060005260206000200187600201611068612796565b6040518663ffffffff1660e01b81526004016110889594939291906142bf565b6000604051808303816000878061109d612837565b1580156110b2576000806110af61272b565b50505b505a6110bc612883565b5050505050501580156110dc573d6000803e3d60006110d961272b565b50505b505060019092019150610f7a9050565b507f789cf55be980739dad1d0699b93b58e806b51c9d96619bfa8fe0a28abaa7b30c8360405161111c919061434d565b60405180910390a1505050565b60006002610660612796565b600060405161114390614194565b6040518091039020604051604080820190526017815276436f6d706f756e6420476f7665726e6f7220416c70686160481b60208201528051906020012061118861253d565b5a63996d79a5598160e01b8152602081600483336000905af158601d01573d60011458600c01573d6000803e3d621234565260ea61109c528051925060005b60408110156111de576000828201526020016111c7565b5050506040516020016111f4949392919061435b565b604051602081830303815290604052805190602001209050600060405161121a9061419f565b6040518091039020878760405160200161123693929190614390565b60405160208183030381529060405280519060200120905060008282604051602001611263929190614163565b6040516020818303038152906040528051906020012090506000600182888888604051600081526020016040526040516112a094939291906143b8565b6020604051602081039080840390855a6112b8612979565b50505050501580156112d7573d6000803e3d60006112d461272b565b50505b5050506020604051035190506001600160a01b03811661131b5760405162461bcd60e51b81526004016113099061450a565b6040518091039061131861272b565b50505b611326818a8a612221565b505050505050505050565b6000600261133d612796565b906101000a90046001600160a01b03166001600160a01b03165a61135f6127f1565b6001600160a01b0316146113975760405162461bcd60e51b81526004016113859061455a565b6040518091039061139461272b565b50505b600060026001816113a6612796565b816001600160a01b0302191690836001600160a01b031602179061081d612a6f565b600a90565b600060026113d9612796565b906101000a90046001600160a01b03166001600160a01b03165a6113fb6127f1565b6001600160a01b0316146114335760405162461bcd60e51b81526004016114219061448a565b6040518091039061143061272b565b50505b60008061143e612796565b6001600160a01b036101009290920a900416633a66f901600080611460612796565b906101000a90046001600160a01b031660008560405160200161148391906141aa565b604051602081830303815290604052856040518563ffffffff1660e01b81526004016114b294939291906141d3565b602060405180830381600087806114c7612837565b1580156114dc576000806114d961272b565b50505b505a6114e6612883565b505050505050158015611506573d6000803e3d600061150361272b565b50505b50505050604051601f3d908101601f1916820160405261081d919081019061340d565b69152d02c7e14af680000090565b60006002611543612796565b906101000a90046001600160a01b03166001600160a01b03165a6115656127f1565b6001600160a01b03161461159d5760405162461bcd60e51b815260040161158b9061441a565b6040518091039061159a61272b565b50505b6000806115a8612796565b906101000a90046001600160a01b03166001600160a01b0316630e18b6816040518163ffffffff1660e01b8152600401600060405180830381600087806115ed612837565b158015611602576000806115ff61272b565b50505b505a61160c612883565b50505050505015801561162c573d6000803e3d600061162961272b565b50505b50505050565b600080610660612796565b60036106a2612796565b6000611651611529565b6000600161165d612796565b906101000a90046001600160a01b03166001600160a01b031663782d6fe15a6116846127f1565b6116905a610e7d612933565b6040518363ffffffff1660e01b81526004016116ad9291906141b8565b60206040518083038186806116c0612837565b1580156116d5576000806116d261272b565b50505b505a6116df612979565b50505050501580156116fe573d6000803e3d60006116fb61272b565b50505b50505050604051601f3d908101601f191682016040526117219190810190613584565b6001600160601b0316116117595760405162461bcd60e51b8152600401611747906144fa565b6040518091039061175661272b565b50505b8451865114801561176b575083518651145b8015611778575082518651145b6117a65760405162461bcd60e51b8152600401611794906144ba565b604051809103906117a361272b565b50505b85516117d65760405162461bcd60e51b81526004016117c4906144ea565b604051809103906117d361272b565b50505b6117de6113c8565b865111156118105760405162461bcd60e51b81526004016117fe9061449a565b6040518091039061180d61272b565b50505b6000600560005a61181f6127f1565b6001600160a01b03166001600160a01b03168152602001908152602001600020611847612796565b905080156118da57600061185a82610b5b565b9050600181600781111561186a57fe5b141561189a5760405162461bcd60e51b81526004016118889061451a565b6040518091039061189761272b565b50505b60008160078111156118a857fe5b14156118d85760405162461bcd60e51b81526004016118c69061447a565b604051809103906118d561272b565b50505b505b60006118f05a6118e8612933565b610d67610b56565b9050600061190082610d6761061c565b9050600360008161190f612796565b9160018301915061191e612a6f565b505050611929612abd565b604051806101a00160405280600361193f612796565b81526020015a61194d6127f1565b6001600160a01b03168152602001600081526020018b81526020018a815260200189815260200188815260200184815260200183815260200160008152602001600081526020016000151581526020016000151581525090508060046000836000015181526020019081526020016000208151816119c9612a6f565b50506020820151600180830190816119df612796565b816001600160a01b0302191690836001600160a01b0316021790611a01612a6f565b505050604082015181600201611a15612a6f565b5050606082015181600301908051611a31929160200190612b32565b50608082015181600401908051611a4c929160200190612bbc565b5060a082015181600501908051611a67929160200190612c1c565b5060c082015181600601908051611a82929160200190612c84565b5060e082015181600701611a94612a6f565b505061010082015181600801611aa8612a6f565b505061012082015181600901611abc612a6f565b505061014082015181600a01611ad0612a6f565b5050610160820151600b8201600181611ae7612796565b8160ff02191690831515021790611afc612a6f565b505050610180820151600b820161010081611b15612796565b8160ff02191690831515021790611b2a612a6f565b50849350505050516005600083602001516001600160a01b03166001600160a01b031681526020019081526020016000208190611b65612a6f565b5050507f7d84a6263ae0d98d3329bd7b46bb4e8d6f98cd35a7adb45c274c8b7fd5ebd5e081600001515a611b976127f1565b8c8c8c8c89898e604051611bb399989796959493929190614578565b60405180910390a180519450505050505b95945050505050565b6004611bd882610b5b565b6007811115611be357fe5b14611c125760405162461bcd60e51b8152600401611c009061442a565b60405180910390611c0f61272b565b50505b600081815260046020526040812090506000611c7e5a611c30612a29565b600080611c3b612796565b906101000a90046001600160a01b03166001600160a01b0316636a42b8f86040518163ffffffff1660e01b81526004016020604051808303818680610d06612837565b905060005b8260030180611c90612796565b9050811015611eb557611ead836003018281611caa612796565b8110611cb257fe5b90600052602060002001600090611cc7612796565b906101000a90046001600160a01b0316846004018381611ce5612796565b8110611ced57fe5b90600052602060002001611cff612796565b856005018481611d0d612796565b8110611d1557fe5b9060005260206000200180611d28612796565b600181600116156101000203166002900480601f016020809104026020016040519081016040528181529190602083018280611d62612796565b60018160011615610100020316600290048015611dce5780601f10611d9c576101008083611d8e612796565b040283529160200191611dce565b820191906000526020600020905b81611db3612796565b81529060010190602001808311611daa57829003601f168201915b5050505050866006018581611de1612796565b8110611de957fe5b9060005260206000200180611dfc612796565b600181600116156101000203166002900480601f016020809104026020016040519081016040528181529190602083018280611e36612796565b60018160011615610100020316600290048015611ea25780601f10611e70576101008083611e62612796565b040283529160200191611ea2565b820191906000526020600020905b81611e87612796565b81529060010190602001808311611e7e57829003601f168201915b50505050508661254f565b600101611c83565b50808060028401611ec4612a6f565b5050507f9a2e42fd6722813d69113e7d0079d3d940171428df7373df9c7f7617cfda2892838260405161111c9291906146a6565b6040516106b19061419f565b611f0c612cec565b60008381526004602052604090206001600160a01b0383166000908152600c9190910160205260409020604051606081016040529081600082611f4d612796565b60ff6101009290920a90041615158152602001600182611f6b612796565b60ff6101009290920a90041615158152602001600282611f89612796565b6001600160601b036101009290920a90041690525090505b92915050565b6005611fb282610b5b565b6007811115611fbd57fe5b14611fec5760405162461bcd60e51b8152600401611fda9061443a565b60405180910390611fe961272b565b50505b600081815260046020526040812090506001600b82016101008161200e612796565b8160ff02191690831515021790612023612a6f565b5060009150505b8160030180612037612796565b90508110156121e55760008061204b612796565b906101000a90046001600160a01b03166001600160a01b0316630825f38f836004018381612077612796565b811061207f57fe5b90600052602060002001612091612796565b84600301848161209f612796565b81106120a757fe5b906000526020600020016000906120bc612796565b906101000a90046001600160a01b03168560040185816120da612796565b81106120e257fe5b906000526020600020016120f4612796565b866005018681612102612796565b811061210a57fe5b90600052602060002001876006018781612122612796565b811061212a57fe5b9060005260206000200188600201612140612796565b6040518763ffffffff1660e01b81526004016121609594939291906142bf565b600060405180830381858880612174612837565b1580156121895760008061218661272b565b50505b505a612193612883565b5050505050501580156121b3573d6000803e3d60006121b061272b565b50505b50505050506040513d6000823e601f3d908101601f191682016040526121dc9190810190613434565b5060010161202a565b507f712ae1383f79ac853f8d882153778e0260ef8f03b504e2866e0593e04d2b291f82604051612215919061434d565b60405180910390a15050565b600161222c83610b5b565b600781111561223757fe5b146122665760405162461bcd60e51b81526004016122549061453a565b6040518091039061226361272b565b50505b60008281526004602052604081206001600160a01b0385166000908152600c820160205290915060408120905060008161229e612796565b60ff6101009290920a900416156122d95760405162461bcd60e51b81526004016122c79061446a565b604051809103906122d661272b565b50505b60008060016122e6612796565b906101000a90046001600160a01b03166001600160a01b031663782d6fe18785600701612311612796565b6040518363ffffffff1660e01b815260040161232e929190614222565b6020604051808303818680612341612837565b1580156123565760008061235361272b565b50505b505a612360612979565b505050505015801561237f573d6000803e3d600061237c61272b565b50505b50505050604051601f3d908101601f191682016040526123a29190810190613584565b905083156123dd576123c8836009016123b9612796565b826001600160601b03166124c5565b80600985016123d5612a6f565b5050506123fd565b6123ec83600a016123b9612796565b80600a85016123f9612a6f565b5050505b600182818161240a612796565b8160ff0219169083151502179061241f612a6f565b5085915083905061010081612432612796565b8160ff02191690831515021790612447612a6f565b50829150839050620100008161245b612796565b816001600160601b0302191690836001600160601b031602179061247d612a6f565b5050507f877856338e13f63d0c36822ff0ef736b80934cd90574a3a5bc9262c39d217c46868686846040516124b59493929190614230565b60405180910390a1505050505050565b6000828201838110156124fc5760405162461bcd60e51b81526004016124ea906144aa565b604051809103906124f961272b565b50505b9392505050565b6000828211156125375760405162461bcd60e51b81526004016125259061454a565b6040518091039061253461272b565b50505b50900390565b6000805a612549612d0b565b91505090565b60008061255a612796565b906101000a90046001600160a01b03166001600160a01b031663f2b065378686868686604051602001612591959493929190614265565b604051602081830303815290604052805190602001206040518263ffffffff1660e01b81526004016125c3919061434d565b60206040518083038186806125d6612837565b1580156125eb576000806125e861272b565b50505b505a6125f5612979565b5050505050158015612614573d6000803e3d600061261161272b565b50505b50505050604051601f3d908101601f1916820160405261263791908101906133e6565b156126665760405162461bcd60e51b8152600401612654906144da565b6040518091039061266361272b565b50505b600080612671612796565b906101000a90046001600160a01b03166001600160a01b0316633a66f90186868686866040518663ffffffff1660e01b81526004016126b4959493929190614265565b602060405180830381600087806126c9612837565b1580156126de576000806126db61272b565b50505b505a6126e8612883565b505050505050158015612708573d6000803e3d600061270561272b565b50505b50505050604051601f3d908101601f19168201604052611629919081019061340d565b632a2a7adb598160e01b8152600481016020815285602082015260005b86811015612763578086015182820160400152602001612748565b506020828760640184336000905af158601d01573d60011458600c01573d6000803e3d621234565260ea61109c52505050565b6303daa959598160e01b8152836004820152602081602483336000905af158601d01573d60011458600c01573d6000803e3d621234565260ea61109c528051935060005b604081101561081d576000828201526020016127da565b6373509064598160e01b8152602081600483336000905af158601d01573d60011458600c01573d6000803e3d621234565260ea61109c52805160008252935060206127da565b638435035b598160e01b8152836004820152602081602483336000905af158601d01573d60011458600c01573d6000803e3d621234565260ea61109c52805160008252935060206127da565b6385979f76598160e01b8152836004820152846024820152606060448201528760648201526084810160005b898110156128c75780890151828201526020016128af565b506060828a60a40184336000905af158601d01573d60011458600c01573d6000803e3d621234565260ea61109c52815160408301513d6000853e8c8c82606087013350600060045af15059845b818110156129285760008152602001612914565b50919c505050505050565b635a98c361598160e01b8152602081600483336000905af158601d01573d60011458600c01573d6000803e3d621234565260ea61109c52805160008252935060206127da565b638540661f598160e01b8152836004820152846024820152606060448201528660648201526084810160005b888110156129bd5780880151828201526020016129a5565b506060828960a40184336000905af158601d01573d60011458600c01573d6000803e3d621234565260ea61109c52815160408301513d6000853e8b8b82606087013350600060045af15059845b81811015612a1e5760008152602001612a0a565b50919b505050505050565b63bdbf8c36598160e01b8152602081600483336000905af158601d01573d60011458600c01573d6000803e3d621234565260ea61109c52805160008252935060206127da565b6322bd64c0598160e01b8152836004820152846024820152600081604483336000905af158601d01573d60011458600c01573d6000803e3d621234565260ea61109c526000815260206127da565b604051806101a001604052806000815260200160006001600160a01b031681526020016000815260200160608152602001606081526020016060815260200160608152602001600081526020016000815260200160008152602001600081526020016000151581526020016000151581525090565b8280612b3c612796565b8282612b46612a6f565b5050906000526020600020908101928215612bac579160200282015b82811115612bac57825182600181612b78612796565b816001600160a01b0302191690836001600160a01b0316021790612b9a612a6f565b50505091602001919060010190612b62565b50612bb8929150612d51565b5090565b8280612bc6612796565b8282612bd0612a6f565b5050906000526020600020908101928215612c10579160200282015b82811115612c1057825182612bff612a6f565b505091602001919060010190612bec565b50612bb8929150612d8d565b8280612c26612796565b8282612c30612a6f565b5050906000526020600020908101928215612c78579160200282015b82811115612c7857825182908051612c68929160200190612db2565b5091602001919060010190612c4c565b50612bb8929150612e42565b8280612c8e612796565b8282612c98612a6f565b5050906000526020600020908101928215612ce0579160200282015b82811115612ce057825182908051612cd0929160200190612e65565b5091602001919060010190612cb4565b50612bb8929150612eee565b6040516060810160409081526000808352602083018190529082015290565b6390580256598160e01b8152602081600483336000905af158601d01573d60011458600c01573d6000803e3d621234565260ea61109c52805160008252935060206127da565b61062091905b80821115612bb857600081600181612d6d612796565b906001600160a01b0302191690612d82612a6f565b505050600101612d57565b61062091905b80821115612bb85760008082612da7612a6f565b505050600101612d93565b8280612dbc612796565b600181600116156101000203166002900490600052602060002090601f016020900481019282601f10612e0357805160ff19168380011785612dfc612a6f565b5050612c10565b82800160010185612e12612a6f565b50508215612c10579182015b82811115612c1057825182612e31612a6f565b505091602001919060010190612e1e565b61062091905b80821115612bb8576000612e5c8282612f11565b50600101612e48565b8280612e6f612796565b600181600116156101000203166002900490600052602060002090601f016020900481019282601f10612eaf57805160ff19168380011785612dfc612a6f565b82800160010185612ebe612a6f565b50508215612c10579182015b82811115612c1057825182612edd612a6f565b505091602001919060010190612eca565b61062091905b80821115612bb8576000612f088282612f11565b50600101612ef4565b5080612f1b612796565b6001816001161561010002031660029004600082612f37612a6f565b505080601f10612f475750612f63565b601f0160209004906000526020600020612f6391810190612d8d565b50565b8035611fa181614821565b600082601f830112612f8b57600080612f8861272b565b50505b8135612f9e612f99826146e7565b6146b4565b91508181835260208401935060208101905083856020840282011115612fcc57600080612fc961272b565b50505b60005b83811015612ff85781612fe28882612f66565b8452506020928301929190910190600101612fcf565b5050505092915050565b600082601f83011261301c5760008061301961272b565b50505b813561302a612f99826146e7565b81815260209384019390925082018360005b83811015612ff857813586016130528882613184565b845250602092830192919091019060010161303c565b600082601f8301126130825760008061307f61272b565b50505b8135613090612f99826146e7565b81815260209384019390925082018360005b83811015612ff857813586016130b88882613184565b84525060209283019291909101906001016130a2565b600082601f8301126130e8576000806130e561272b565b50505b81356130f6612f99826146e7565b915081818352602084019350602081019050838560208402820111156131245760008061312161272b565b50505b60005b83811015612ff8578161313a888261316a565b8452506020928301929190910190600101613127565b8035611fa18161483b565b600081519050611fa18161483b565b8035611fa181614844565b600081519050611fa181614844565b600082601f83011261319e5760008061319b61272b565b50505b81356131ac612f9982614710565b915080825260208301602083018583830111156131d1576000806131ce61272b565b50505b6131dc8382846147d5565b50505092915050565b600082601f8301126131ff576000806131fc61272b565b50505b815161320d612f9982614710565b915080825260208301602083018583830111156132325760008061322f61272b565b50505b6131dc8382846147e1565b8035611fa18161484d565b600081519050611fa181614856565b6000602082840312156132725760008061326f61272b565b50505b600061327e8484612f66565b949350505050565b600080604083850312156132a25760008061329f61272b565b50505b60006132ae8585612f66565b92505060206132bf8582860161316a565b9150509250929050565b600080600080600060a086880312156132ea576000806132e761272b565b50505b85356001600160401b038111156133095760008061330661272b565b50505b61331588828901612f71565b95505060208601356001600160401b0381111561333a5760008061333761272b565b50505b613346888289016130ce565b94505060408601356001600160401b0381111561336b5760008061336861272b565b50505b61337788828901613068565b93505060608601356001600160401b0381111561339c5760008061339961272b565b50505b6133a888828901613002565b92505060808601356001600160401b038111156133cd576000806133ca61272b565b50505b6133d988828901613184565b9150509295509295909350565b600060208284031215613401576000806133fe61272b565b50505b600061327e848461315b565b6000602082840312156134285760008061342561272b565b50505b600061327e8484613175565b60006020828403121561344f5760008061344c61272b565b50505b81516001600160401b0381111561346e5760008061346b61272b565b50505b61327e848285016131e5565b6000602082840312156134955760008061349261272b565b50505b600061327e848461316a565b600080604083850312156134bd576000806134ba61272b565b50505b60006134c9858561316a565b92505060206132bf85828601612f66565b600080604083850312156134f6576000806134f361272b565b50505b6000613502858561316a565b92505060206132bf85828601613150565b600080600080600060a086880312156135345760008061353161272b565b50505b6000613540888861316a565b955050602061355188828901613150565b94505060406135628882890161323d565b93505060606135738882890161316a565b92505060806133d98882890161316a565b60006020828403121561359f5760008061359c61272b565b50505b600061327e8484613248565b60006135b783836135e6565b505060200190565b60006124fc8383613788565b60006135b7838361376e565b6135e0816147a2565b82525050565b6135e08161476a565b60006135fa82614757565b6136048185614761565b935061360f83614740565b8060005b8381101561363d57815161362788826135ab565b975061363283614740565b925050600101613613565b509495945050505050565b600061365382614757565b61365d8185614761565b93508360208202850161366f85614740565b8060005b858110156136a9578484038952815161368c85826135bf565b945061369783614740565b60209a909a0199925050600101613673565b5091979650505050505050565b60006136c182614757565b6136cb8185614761565b9350836020820285016136dd85614740565b8060005b858110156136a957848403895281516136fa85826135bf565b945061370583614740565b60209a909a01999250506001016136e1565b600061372282614757565b61372c8185614761565b935061373783614740565b8060005b8381101561363d57815161374f88826135cb565b975061375a83614740565b92505060010161373b565b6135e081614775565b6135e081610620565b6135e061378382610620565b610620565b600061379382614757565b61379d8185614761565b93506137ad8185602086016147e1565b6137b68161480d565b9093019392505050565b6000816137cb612796565b6001811680156137e257600181146138085761384f565b607f60028304166137f38187614761565b60ff198416815295505060208501925061384f565b600282046138168187614761565b955061382185614746565b60005b828110156138485781613835612796565b8882015260019190910190602001613824565b8701945050505b505092915050565b6135e0816147a9565b6135e0816147b4565b6135e0816147bf565b60008161387d612796565b6001811680156137e257600181146138945761384f565b600282046138a28187614761565b95506138ad85614746565b60005b8281101561384857816138c1612796565b88820152600191909101906020016138b0565b60006138e1603983614761565b7f476f7665726e6f72416c7068613a3a5f5f61636365707441646d696e3a207365815278373232b91036bab9ba1031329033b7bb1033bab0b93234b0b760391b602082015260400192915050565b600061393c604483614761565b7f476f7665726e6f72416c7068613a3a71756575653a2070726f706f73616c206381527f616e206f6e6c79206265207175657565642069662069742069732073756363656020820152631959195960e21b604082015260600192915050565b60006139a8604583614761565b7f476f7665726e6f72416c7068613a3a657865637574653a2070726f706f73616c81527f2063616e206f6e6c7920626520657865637574656420696620697420697320716020820152641d595d595960da1b604082015260600192915050565b6000613a15600283610d8a565b61190160f01b815260020192915050565b6000613a33604c83614761565b7f476f7665726e6f72416c7068613a3a5f5f6578656375746553657454696d656c81527f6f636b50656e64696e6741646d696e3a2073656e646572206d7573742062652060208201526b33b7bb1033bab0b93234b0b760a11b604082015260600192915050565b6000613aa7601883614761565b7773657450656e64696e6741646d696e28616464726573732960401b815260200192915050565b6000613adb602983614761565b7f476f7665726e6f72416c7068613a3a73746174653a20696e76616c69642070728152681bdc1bdcd85b081a5960ba1b602082015260400192915050565b6000613b26602d83614761565b7f476f7665726e6f72416c7068613a3a5f63617374566f74653a20766f7465722081526c185b1c9958591e481d9bdd1959609a1b602082015260400192915050565b6000613b75605983614761565b600080516020614860833981519152815260008051602061488083398151915260208201527808185b1c9958591e481c195b991a5b99c81c1c9bdc1bdcd85b603a1b604082015260600192915050565b6000613bd2604a83614761565b7f476f7665726e6f72416c7068613a3a5f5f717565756553657454696d656c6f6381527f6b50656e64696e6741646d696e3a2073656e646572206d75737420626520676f6020820152693b1033bab0b93234b0b760b11b604082015260600192915050565b6000613c44602883614761565b7f476f7665726e6f72416c7068613a3a70726f706f73653a20746f6f206d616e7981526720616374696f6e7360c01b602082015260400192915050565b6000613c8e601183614761565b706164646974696f6e206f766572666c6f7760781b815260200192915050565b6000613cbb604383610d8a565b7f454950373132446f6d61696e28737472696e67206e616d652c75696e7432353681527f20636861696e49642c6164647265737320766572696679696e67436f6e74726160208201526263742960e81b604082015260430192915050565b6000613d26602783610d8a565b7f42616c6c6f742875696e743235362070726f706f73616c49642c626f6f6c20738152667570706f72742960c81b602082015260270192915050565b6000613d6f604483614761565b7f476f7665726e6f72416c7068613a3a70726f706f73653a2070726f706f73616c81527f2066756e6374696f6e20696e666f726d6174696f6e206172697479206d69736d6020820152630c2e8c6d60e31b604082015260600192915050565b6000613ddb602f83614761565b7f476f7665726e6f72416c7068613a3a63616e63656c3a2070726f706f7365722081526e18589bdd99481d1a1c995cda1bdb19608a1b602082015260400192915050565b6000613e2c604483614761565b7f476f7665726e6f72416c7068613a3a5f71756575654f725265766572743a207081527f726f706f73616c20616374696f6e20616c7265616479207175657565642061746020820152632065746160e01b604082015260600192915050565b6000613e98602c83614761565b7f476f7665726e6f72416c7068613a3a70726f706f73653a206d7573742070726f81526b7669646520616374696f6e7360a01b602082015260400192915050565b6000613ee6603f83614761565b7f476f7665726e6f72416c7068613a3a70726f706f73653a2070726f706f73657281527f20766f7465732062656c6f772070726f706f73616c207468726573686f6c6400602082015260400192915050565b6000613f45602f83614761565b7f476f7665726e6f72416c7068613a3a63617374566f746542795369673a20696e81526e76616c6964207369676e617475726560881b602082015260400192915050565b6000613f96605883614761565b600080516020614860833981519152815260008051602061488083398151915260208201527708185b1c9958591e481858dd1a5d99481c1c9bdc1bdcd85b60421b604082015260600192915050565b6000613ff2603683614761565b7f476f7665726e6f72416c7068613a3a63616e63656c3a2063616e6e6f742063618152751b98d95b08195e1958dd5d1959081c1c9bdc1bdcd85b60521b602082015260400192915050565b600061404a602a83614761565b7f476f7665726e6f72416c7068613a3a5f63617374566f74653a20766f74696e67815269081a5cc818db1bdcd95960b21b602082015260400192915050565b6000614096601583614761565b747375627472616374696f6e20756e646572666c6f7760581b815260200192915050565b60006140c7603683614761565b7f476f7665726e6f72416c7068613a3a5f5f61626469636174653a2073656e6465815275391036bab9ba1031329033b7bb1033bab0b93234b0b760511b602082015260400192915050565b6060820181516141228482613765565b5060208201516141356020850182613765565b50604082015161162c604085018261415a565b6135e081614790565b6135e0816147ca565b6135e081614796565b600061416e82613a08565b915061417a8285613777565b60208201915061418a8284613777565b5060200192915050565b6000611fa182613cae565b6000611fa182613d19565b60208101611fa182846135e6565b604081016141c682856135d7565b6124fc602083018461376e565b60a081016141e182876135e6565b6141ee6020830186613869565b81810360408301526141ff81613a9a565b905081810360608301526142138185613788565b9050611bc4608083018461376e565b604081016141c682856135e6565b6080810161423e82876135e6565b61424b602083018661376e565b6142586040830185613765565b611bc46060830184614151565b60a0810161427382886135e6565b614280602083018761376e565b81810360408301526142928186613788565b905081810360608301526142a68185613788565b90506142b5608083018461376e565b9695505050505050565b60a081016142cd82886135e6565b6142da602083018761376e565b81810360408301526142ec8186613872565b905081810360608301526142a681856137c0565b6080808252810161431181876135ef565b905081810360208301526143258186613717565b9050818103604083015261433981856136b6565b905081810360608301526142b58184613648565b60208101611fa1828461376e565b60808101614369828761376e565b614376602083018661376e565b614383604083018561376e565b611bc460608301846135e6565b6060810161439e828661376e565b6143ab602083018561376e565b61327e6040830184613765565b608081016143c6828761376e565b6143d36020830186614148565b6143e0604083018561376e565b611bc4606083018461376e565b60208101611fa18284613857565b60208101611fa18284613860565b602080825281016124fc8184613788565b60208082528101611fa1816138d4565b60208082528101611fa18161392f565b60208082528101611fa18161399b565b60208082528101611fa181613a26565b60208082528101611fa181613ace565b60208082528101611fa181613b19565b60208082528101611fa181613b68565b60208082528101611fa181613bc5565b60208082528101611fa181613c37565b60208082528101611fa181613c81565b60208082528101611fa181613d62565b60208082528101611fa181613dce565b60208082528101611fa181613e1f565b60208082528101611fa181613e8b565b60208082528101611fa181613ed9565b60208082528101611fa181613f38565b60208082528101611fa181613f89565b60208082528101611fa181613fe5565b60208082528101611fa18161403d565b60208082528101611fa181614089565b60208082528101611fa1816140ba565b60608101611fa18284614112565b6101208101614587828c61376e565b614594602083018b6135d7565b81810360408301526145a6818a6135ef565b905081810360608301526145ba8189613717565b905081810360808301526145ce81886136b6565b905081810360a08301526145e28187613648565b90506145f160c083018661376e565b6145fe60e083018561376e565b8181036101008301526146118184613788565b9b9a5050505050505050505050565b610120810161462f828c61376e565b61463c602083018b6135e6565b614649604083018a61376e565b614656606083018961376e565b614663608083018861376e565b61467060a083018761376e565b61467d60c083018661376e565b61468a60e0830185613765565b614698610100830184613765565b9a9950505050505050505050565b604081016141c6828561376e565b600060405190508181018181106001600160401b03821117156146df576000806146dc61272b565b50505b604052919050565b60006001600160401b038211156147065760008061470361272b565b50505b5060209081020190565b60006001600160401b0382111561472f5760008061472c61272b565b50505b506020601f91909101601f19160190565b60200190565b600081815281906020902092915050565b6000815192915050565b90815260200190565b6000611fa182614784565b151590565b80610d8a81614817565b6001600160a01b031690565b60ff1690565b6001600160601b031690565b6000611fa1825b6000611fa18261476a565b6000611fa18261477a565b6000611fa182610620565b6000611fa182614796565b82818337506000910152565b60005b838110156147fc5780820151838201526020016147e4565b8381111561162c5750506000910152565b601f01601f191690565b60088110612f6357fe5b61482a8161476a565b8114612f635760008061081d61272b565b61482a81614775565b61482a81610620565b61482a81614790565b61482a8161479656fe476f7665726e6f72416c7068613a3a70726f706f73653a206f6e65206c6976652070726f706f73616c207065722070726f706f7365722c20666f756e6420616e",
  "source": "pragma solidity ^0.5.16;\npragma experimental ABIEncoderV2;\n\ncontract GovernorAlpha {\n    /// @notice The name of this contract\n    string public constant name = \"Compound Governor Alpha\";\n\n    /// @notice The number of votes in support of a proposal required in order for a quorum to be reached and for a vote to succeed\n    function quorumVotes() public pure returns (uint) { return 400000e18; } // 400,000 = 4% of Comp\n\n    /// @notice The number of votes required in order for a voter to become a proposer\n    function proposalThreshold() public pure returns (uint) { return 100000e18; } // 100,000 = 1% of Comp\n\n    /// @notice The maximum number of actions that can be included in a proposal\n    function proposalMaxOperations() public pure returns (uint) { return 10; } // 10 actions\n\n    /// @notice The delay before voting on a proposal may take place, once proposed\n    function votingDelay() public pure returns (uint) { return 1; } // 1 block\n\n    /// @notice The duration of voting on a proposal, in blocks\n    function votingPeriod() public pure returns (uint) { return 17280; } // ~3 days in blocks (assuming 15s blocks)\n\n    /// @notice The address of the Compound Protocol Timelock\n    TimelockInterface public timelock;\n\n    /// @notice The address of the Compound governance token\n    CompInterface public comp;\n\n    /// @notice The address of the Governor Guardian\n    address public guardian;\n\n    /// @notice The total number of proposals\n    uint public proposalCount;\n\n    struct Proposal {\n        /// @notice Unique id for looking up a proposal\n        uint id;\n\n        /// @notice Creator of the proposal\n        address proposer;\n\n        /// @notice The timestamp that the proposal will be available for execution, set once the vote succeeds\n        uint eta;\n\n        /// @notice the ordered list of target addresses for calls to be made\n        address[] targets;\n\n        /// @notice The ordered list of values (i.e. msg.value) to be passed to the calls to be made\n        uint[] values;\n\n        /// @notice The ordered list of function signatures to be called\n        string[] signatures;\n\n        /// @notice The ordered list of calldata to be passed to each call\n        bytes[] calldatas;\n\n        /// @notice The block at which voting begins: holders must delegate their votes prior to this block\n        uint startBlock;\n\n        /// @notice The block at which voting ends: votes must be cast prior to this block\n        uint endBlock;\n\n        /// @notice Current number of votes in favor of this proposal\n        uint forVotes;\n\n        /// @notice Current number of votes in opposition to this proposal\n        uint againstVotes;\n\n        /// @notice Flag marking whether the proposal has been canceled\n        bool canceled;\n\n        /// @notice Flag marking whether the proposal has been executed\n        bool executed;\n\n        /// @notice Receipts of ballots for the entire set of voters\n        mapping (address => Receipt) receipts;\n    }\n\n    /// @notice Ballot receipt record for a voter\n    struct Receipt {\n        /// @notice Whether or not a vote has been cast\n        bool hasVoted;\n\n        /// @notice Whether or not the voter supports the proposal\n        bool support;\n\n        /// @notice The number of votes the voter had, which were cast\n        uint96 votes;\n    }\n\n    /// @notice Possible states that a proposal may be in\n    enum ProposalState {\n        Pending,\n        Active,\n        Canceled,\n        Defeated,\n        Succeeded,\n        Queued,\n        Expired,\n        Executed\n    }\n\n    /// @notice The official record of all proposals ever proposed\n    mapping (uint => Proposal) public proposals;\n\n    /// @notice The latest proposal for each proposer\n    mapping (address => uint) public latestProposalIds;\n\n    /// @notice The EIP-712 typehash for the contract's domain\n    bytes32 public constant DOMAIN_TYPEHASH = keccak256(\"EIP712Domain(string name,uint256 chainId,address verifyingContract)\");\n\n    /// @notice The EIP-712 typehash for the ballot struct used by the contract\n    bytes32 public constant BALLOT_TYPEHASH = keccak256(\"Ballot(uint256 proposalId,bool support)\");\n\n    /// @notice An event emitted when a new proposal is created\n    event ProposalCreated(uint id, address proposer, address[] targets, uint[] values, string[] signatures, bytes[] calldatas, uint startBlock, uint endBlock, string description);\n\n    /// @notice An event emitted when a vote has been cast on a proposal\n    event VoteCast(address voter, uint proposalId, bool support, uint votes);\n\n    /// @notice An event emitted when a proposal has been canceled\n    event ProposalCanceled(uint id);\n\n    /// @notice An event emitted when a proposal has been queued in the Timelock\n    event ProposalQueued(uint id, uint eta);\n\n    /// @notice An event emitted when a proposal has been executed in the Timelock\n    event ProposalExecuted(uint id);\n\n    constructor(address timelock_, address comp_, address guardian_) public {\n        timelock = TimelockInterface(timelock_);\n        comp = CompInterface(comp_);\n        guardian = guardian_;\n    }\n\n    function propose(address[] memory targets, uint[] memory values, string[] memory signatures, bytes[] memory calldatas, string memory description) public returns (uint) {\n        require(comp.getPriorVotes(msg.sender, sub256(block.number, 1)) > proposalThreshold(), \"GovernorAlpha::propose: proposer votes below proposal threshold\");\n        require(targets.length == values.length && targets.length == signatures.length && targets.length == calldatas.length, \"GovernorAlpha::propose: proposal function information arity mismatch\");\n        require(targets.length != 0, \"GovernorAlpha::propose: must provide actions\");\n        require(targets.length <= proposalMaxOperations(), \"GovernorAlpha::propose: too many actions\");\n\n        uint latestProposalId = latestProposalIds[msg.sender];\n        if (latestProposalId != 0) {\n          ProposalState proposersLatestProposalState = state(latestProposalId);\n          require(proposersLatestProposalState != ProposalState.Active, \"GovernorAlpha::propose: one live proposal per proposer, found an already active proposal\");\n          require(proposersLatestProposalState != ProposalState.Pending, \"GovernorAlpha::propose: one live proposal per proposer, found an already pending proposal\");\n        }\n\n        uint startBlock = add256(block.number, votingDelay());\n        uint endBlock = add256(startBlock, votingPeriod());\n\n        proposalCount++;\n        Proposal memory newProposal = Proposal({\n            id: proposalCount,\n            proposer: msg.sender,\n            eta: 0,\n            targets: targets,\n            values: values,\n            signatures: signatures,\n            calldatas: calldatas,\n            startBlock: startBlock,\n            endBlock: endBlock,\n            forVotes: 0,\n            againstVotes: 0,\n            canceled: false,\n            executed: false\n        });\n\n        proposals[newProposal.id] = newProposal;\n        latestProposalIds[newProposal.proposer] = newProposal.id;\n\n        emit ProposalCreated(newProposal.id, msg.sender, targets, values, signatures, calldatas, startBlock, endBlock, description);\n        return newProposal.id;\n    }\n\n    function queue(uint proposalId) public {\n        require(state(proposalId) == ProposalState.Succeeded, \"GovernorAlpha::queue: proposal can only be queued if it is succeeded\");\n        Proposal storage proposal = proposals[proposalId];\n        uint eta = add256(block.timestamp, timelock.delay());\n        for (uint i = 0; i < proposal.targets.length; i++) {\n            _queueOrRevert(proposal.targets[i], proposal.values[i], proposal.signatures[i], proposal.calldatas[i], eta);\n        }\n        proposal.eta = eta;\n        emit ProposalQueued(proposalId, eta);\n    }\n\n    function _queueOrRevert(address target, uint value, string memory signature, bytes memory data, uint eta) internal {\n        require(!timelock.queuedTransactions(keccak256(abi.encode(target, value, signature, data, eta))), \"GovernorAlpha::_queueOrRevert: proposal action already queued at eta\");\n        timelock.queueTransaction(target, value, signature, data, eta);\n    }\n\n    function execute(uint proposalId) public payable {\n        require(state(proposalId) == ProposalState.Queued, \"GovernorAlpha::execute: proposal can only be executed if it is queued\");\n        Proposal storage proposal = proposals[proposalId];\n        proposal.executed = true;\n        for (uint i = 0; i < proposal.targets.length; i++) {\n            timelock.executeTransaction.value(proposal.values[i])(proposal.targets[i], proposal.values[i], proposal.signatures[i], proposal.calldatas[i], proposal.eta);\n        }\n        emit ProposalExecuted(proposalId);\n    }\n\n    function cancel(uint proposalId) public {\n        ProposalState state = state(proposalId);\n        require(state != ProposalState.Executed, \"GovernorAlpha::cancel: cannot cancel executed proposal\");\n\n        Proposal storage proposal = proposals[proposalId];\n        require(msg.sender == guardian || comp.getPriorVotes(proposal.proposer, sub256(block.number, 1)) < proposalThreshold(), \"GovernorAlpha::cancel: proposer above threshold\");\n\n        proposal.canceled = true;\n        for (uint i = 0; i < proposal.targets.length; i++) {\n            timelock.cancelTransaction(proposal.targets[i], proposal.values[i], proposal.signatures[i], proposal.calldatas[i], proposal.eta);\n        }\n\n        emit ProposalCanceled(proposalId);\n    }\n\n    function getActions(uint proposalId) public view returns (address[] memory targets, uint[] memory values, string[] memory signatures, bytes[] memory calldatas) {\n        Proposal storage p = proposals[proposalId];\n        return (p.targets, p.values, p.signatures, p.calldatas);\n    }\n\n    function getReceipt(uint proposalId, address voter) public view returns (Receipt memory) {\n        return proposals[proposalId].receipts[voter];\n    }\n\n    function state(uint proposalId) public view returns (ProposalState) {\n        require(proposalCount >= proposalId && proposalId > 0, \"GovernorAlpha::state: invalid proposal id\");\n        Proposal storage proposal = proposals[proposalId];\n        if (proposal.canceled) {\n            return ProposalState.Canceled;\n        } else if (block.number <= proposal.startBlock) {\n            return ProposalState.Pending;\n        } else if (block.number <= proposal.endBlock) {\n            return ProposalState.Active;\n        } else if (proposal.forVotes <= proposal.againstVotes || proposal.forVotes < quorumVotes()) {\n            return ProposalState.Defeated;\n        } else if (proposal.eta == 0) {\n            return ProposalState.Succeeded;\n        } else if (proposal.executed) {\n            return ProposalState.Executed;\n        } else if (block.timestamp >= add256(proposal.eta, timelock.GRACE_PERIOD())) {\n            return ProposalState.Expired;\n        } else {\n            return ProposalState.Queued;\n        }\n    }\n\n    function castVote(uint proposalId, bool support) public {\n        return _castVote(msg.sender, proposalId, support);\n    }\n\n    function castVoteBySig(uint proposalId, bool support, uint8 v, bytes32 r, bytes32 s) public {\n        bytes32 domainSeparator = keccak256(abi.encode(DOMAIN_TYPEHASH, keccak256(bytes(name)), getChainId(), address(this)));\n        bytes32 structHash = keccak256(abi.encode(BALLOT_TYPEHASH, proposalId, support));\n        bytes32 digest = keccak256(abi.encodePacked(\"\\x19\\x01\", domainSeparator, structHash));\n        address signatory = ecrecover(digest, v, r, s);\n        require(signatory != address(0), \"GovernorAlpha::castVoteBySig: invalid signature\");\n        return _castVote(signatory, proposalId, support);\n    }\n\n    function _castVote(address voter, uint proposalId, bool support) internal {\n        require(state(proposalId) == ProposalState.Active, \"GovernorAlpha::_castVote: voting is closed\");\n        Proposal storage proposal = proposals[proposalId];\n        Receipt storage receipt = proposal.receipts[voter];\n        require(receipt.hasVoted == false, \"GovernorAlpha::_castVote: voter already voted\");\n        uint96 votes = comp.getPriorVotes(voter, proposal.startBlock);\n\n        if (support) {\n            proposal.forVotes = add256(proposal.forVotes, votes);\n        } else {\n            proposal.againstVotes = add256(proposal.againstVotes, votes);\n        }\n\n        receipt.hasVoted = true;\n        receipt.support = support;\n        receipt.votes = votes;\n\n        emit VoteCast(voter, proposalId, support, votes);\n    }\n\n    function __acceptAdmin() public {\n        require(msg.sender == guardian, \"GovernorAlpha::__acceptAdmin: sender must be gov guardian\");\n        timelock.acceptAdmin();\n    }\n\n    function __abdicate() public {\n        require(msg.sender == guardian, \"GovernorAlpha::__abdicate: sender must be gov guardian\");\n        guardian = address(0);\n    }\n\n    function __queueSetTimelockPendingAdmin(address newPendingAdmin, uint eta) public {\n        require(msg.sender == guardian, \"GovernorAlpha::__queueSetTimelockPendingAdmin: sender must be gov guardian\");\n        timelock.queueTransaction(address(timelock), 0, \"setPendingAdmin(address)\", abi.encode(newPendingAdmin), eta);\n    }\n\n    function __executeSetTimelockPendingAdmin(address newPendingAdmin, uint eta) public {\n        require(msg.sender == guardian, \"GovernorAlpha::__executeSetTimelockPendingAdmin: sender must be gov guardian\");\n        timelock.executeTransaction(address(timelock), 0, \"setPendingAdmin(address)\", abi.encode(newPendingAdmin), eta);\n    }\n\n    function add256(uint256 a, uint256 b) internal pure returns (uint) {\n        uint c = a + b;\n        require(c >= a, \"addition overflow\");\n        return c;\n    }\n\n    function sub256(uint256 a, uint256 b) internal pure returns (uint) {\n        require(b <= a, \"subtraction underflow\");\n        return a - b;\n    }\n\n    function getChainId() internal pure returns (uint) {\n        uint chainId;\n        assembly { chainId := chainid() }\n        return chainId;\n    }\n}\n\ninterface TimelockInterface {\n    function delay() external view returns (uint);\n    function GRACE_PERIOD() external view returns (uint);\n    function acceptAdmin() external;\n    function queuedTransactions(bytes32 hash) external view returns (bool);\n    function queueTransaction(address target, uint value, string calldata signature, bytes calldata data, uint eta) external returns (bytes32);\n    function cancelTransaction(address target, uint value, string calldata signature, bytes calldata data, uint eta) external;\n    function executeTransaction(address target, uint value, string calldata signature, bytes calldata data, uint eta) external payable returns (bytes memory);\n}\n\ninterface CompInterface {\n    function getPriorVotes(address account, uint blockNumber) external view returns (uint96);\n}\n",
  "sourcePath": "/Users/jesusmeza/Developer/omgx/snapshot-optimism/omgx_examples/compound-protocol/contracts/Governance/GovernorAlpha.sol",
  "compiler": {
    "name": "solc",
    "version": "0.5.16"
  },
  "schemaVersion": "3.4.3",
  "updatedAt": "2021-08-25T22:25:24.643Z",
  "devdoc": {
    "methods": {}
  },
  "userdoc": {
    "methods": {
      "proposalMaxOperations()": {
        "notice": "The maximum number of actions that can be included in a proposal"
      },
      "proposalThreshold()": {
        "notice": "The number of votes required in order for a voter to become a proposer"
      },
      "quorumVotes()": {
        "notice": "The number of votes in support of a proposal required in order for a quorum to be reached and for a vote to succeed"
      },
      "votingDelay()": {
        "notice": "The delay before voting on a proposal may take place, once proposed"
      },
      "votingPeriod()": {
        "notice": "The duration of voting on a proposal, in blocks"
      }
    }
  }
}