{
  "contractName": "GovernorBravoDelegate",
  "abi": [
    {
      "anonymous": false,
      "inputs": [
        {
          "indexed": false,
          "internalType": "address",
          "name": "oldAdmin",
          "type": "address"
        },
        {
          "indexed": false,
          "internalType": "address",
          "name": "newAdmin",
          "type": "address"
        }
      ],
      "name": "NewAdmin",
      "type": "event"
    },
    {
      "anonymous": false,
      "inputs": [
        {
          "indexed": false,
          "internalType": "address",
          "name": "oldImplementation",
          "type": "address"
        },
        {
          "indexed": false,
          "internalType": "address",
          "name": "newImplementation",
          "type": "address"
        }
      ],
      "name": "NewImplementation",
      "type": "event"
    },
    {
      "anonymous": false,
      "inputs": [
        {
          "indexed": false,
          "internalType": "address",
          "name": "oldPendingAdmin",
          "type": "address"
        },
        {
          "indexed": false,
          "internalType": "address",
          "name": "newPendingAdmin",
          "type": "address"
        }
      ],
      "name": "NewPendingAdmin",
      "type": "event"
    },
    {
      "anonymous": false,
      "inputs": [
        {
          "indexed": false,
          "internalType": "uint256",
          "name": "id",
          "type": "uint256"
        }
      ],
      "name": "ProposalCanceled",
      "type": "event"
    },
    {
      "anonymous": false,
      "inputs": [
        {
          "indexed": false,
          "internalType": "uint256",
          "name": "id",
          "type": "uint256"
        },
        {
          "indexed": false,
          "internalType": "address",
          "name": "proposer",
          "type": "address"
        },
        {
          "indexed": false,
          "internalType": "address[]",
          "name": "targets",
          "type": "address[]"
        },
        {
          "indexed": false,
          "internalType": "uint256[]",
          "name": "values",
          "type": "uint256[]"
        },
        {
          "indexed": false,
          "internalType": "string[]",
          "name": "signatures",
          "type": "string[]"
        },
        {
          "indexed": false,
          "internalType": "bytes[]",
          "name": "calldatas",
          "type": "bytes[]"
        },
        {
          "indexed": false,
          "internalType": "uint256",
          "name": "startBlock",
          "type": "uint256"
        },
        {
          "indexed": false,
          "internalType": "uint256",
          "name": "endBlock",
          "type": "uint256"
        },
        {
          "indexed": false,
          "internalType": "string",
          "name": "description",
          "type": "string"
        }
      ],
      "name": "ProposalCreated",
      "type": "event"
    },
    {
      "anonymous": false,
      "inputs": [
        {
          "indexed": false,
          "internalType": "uint256",
          "name": "id",
          "type": "uint256"
        }
      ],
      "name": "ProposalExecuted",
      "type": "event"
    },
    {
      "anonymous": false,
      "inputs": [
        {
          "indexed": false,
          "internalType": "uint256",
          "name": "id",
          "type": "uint256"
        },
        {
          "indexed": false,
          "internalType": "uint256",
          "name": "eta",
          "type": "uint256"
        }
      ],
      "name": "ProposalQueued",
      "type": "event"
    },
    {
      "anonymous": false,
      "inputs": [
        {
          "indexed": false,
          "internalType": "uint256",
          "name": "oldProposalThreshold",
          "type": "uint256"
        },
        {
          "indexed": false,
          "internalType": "uint256",
          "name": "newProposalThreshold",
          "type": "uint256"
        }
      ],
      "name": "ProposalThresholdSet",
      "type": "event"
    },
    {
      "anonymous": false,
      "inputs": [
        {
          "indexed": true,
          "internalType": "address",
          "name": "voter",
          "type": "address"
        },
        {
          "indexed": false,
          "internalType": "uint256",
          "name": "proposalId",
          "type": "uint256"
        },
        {
          "indexed": false,
          "internalType": "uint8",
          "name": "support",
          "type": "uint8"
        },
        {
          "indexed": false,
          "internalType": "uint256",
          "name": "votes",
          "type": "uint256"
        },
        {
          "indexed": false,
          "internalType": "string",
          "name": "reason",
          "type": "string"
        }
      ],
      "name": "VoteCast",
      "type": "event"
    },
    {
      "anonymous": false,
      "inputs": [
        {
          "indexed": false,
          "internalType": "uint256",
          "name": "oldVotingDelay",
          "type": "uint256"
        },
        {
          "indexed": false,
          "internalType": "uint256",
          "name": "newVotingDelay",
          "type": "uint256"
        }
      ],
      "name": "VotingDelaySet",
      "type": "event"
    },
    {
      "anonymous": false,
      "inputs": [
        {
          "indexed": false,
          "internalType": "uint256",
          "name": "oldVotingPeriod",
          "type": "uint256"
        },
        {
          "indexed": false,
          "internalType": "uint256",
          "name": "newVotingPeriod",
          "type": "uint256"
        }
      ],
      "name": "VotingPeriodSet",
      "type": "event"
    },
    {
      "constant": true,
      "inputs": [],
      "name": "BALLOT_TYPEHASH",
      "outputs": [
        {
          "internalType": "bytes32",
          "name": "",
          "type": "bytes32"
        }
      ],
      "payable": false,
      "stateMutability": "view",
      "type": "function"
    },
    {
      "constant": true,
      "inputs": [],
      "name": "DOMAIN_TYPEHASH",
      "outputs": [
        {
          "internalType": "bytes32",
          "name": "",
          "type": "bytes32"
        }
      ],
      "payable": false,
      "stateMutability": "view",
      "type": "function"
    },
    {
      "constant": true,
      "inputs": [],
      "name": "MAX_PROPOSAL_THRESHOLD",
      "outputs": [
        {
          "internalType": "uint256",
          "name": "",
          "type": "uint256"
        }
      ],
      "payable": false,
      "stateMutability": "view",
      "type": "function"
    },
    {
      "constant": true,
      "inputs": [],
      "name": "MAX_VOTING_DELAY",
      "outputs": [
        {
          "internalType": "uint256",
          "name": "",
          "type": "uint256"
        }
      ],
      "payable": false,
      "stateMutability": "view",
      "type": "function"
    },
    {
      "constant": true,
      "inputs": [],
      "name": "MAX_VOTING_PERIOD",
      "outputs": [
        {
          "internalType": "uint256",
          "name": "",
          "type": "uint256"
        }
      ],
      "payable": false,
      "stateMutability": "view",
      "type": "function"
    },
    {
      "constant": true,
      "inputs": [],
      "name": "MIN_PROPOSAL_THRESHOLD",
      "outputs": [
        {
          "internalType": "uint256",
          "name": "",
          "type": "uint256"
        }
      ],
      "payable": false,
      "stateMutability": "view",
      "type": "function"
    },
    {
      "constant": true,
      "inputs": [],
      "name": "MIN_VOTING_DELAY",
      "outputs": [
        {
          "internalType": "uint256",
          "name": "",
          "type": "uint256"
        }
      ],
      "payable": false,
      "stateMutability": "view",
      "type": "function"
    },
    {
      "constant": true,
      "inputs": [],
      "name": "MIN_VOTING_PERIOD",
      "outputs": [
        {
          "internalType": "uint256",
          "name": "",
          "type": "uint256"
        }
      ],
      "payable": false,
      "stateMutability": "view",
      "type": "function"
    },
    {
      "constant": true,
      "inputs": [],
      "name": "admin",
      "outputs": [
        {
          "internalType": "address",
          "name": "",
          "type": "address"
        }
      ],
      "payable": false,
      "stateMutability": "view",
      "type": "function"
    },
    {
      "constant": true,
      "inputs": [],
      "name": "comp",
      "outputs": [
        {
          "internalType": "contract CompInterface",
          "name": "",
          "type": "address"
        }
      ],
      "payable": false,
      "stateMutability": "view",
      "type": "function"
    },
    {
      "constant": true,
      "inputs": [],
      "name": "implementation",
      "outputs": [
        {
          "internalType": "address",
          "name": "",
          "type": "address"
        }
      ],
      "payable": false,
      "stateMutability": "view",
      "type": "function"
    },
    {
      "constant": true,
      "inputs": [],
      "name": "initialProposalId",
      "outputs": [
        {
          "internalType": "uint256",
          "name": "",
          "type": "uint256"
        }
      ],
      "payable": false,
      "stateMutability": "view",
      "type": "function"
    },
    {
      "constant": true,
      "inputs": [
        {
          "internalType": "address",
          "name": "",
          "type": "address"
        }
      ],
      "name": "latestProposalIds",
      "outputs": [
        {
          "internalType": "uint256",
          "name": "",
          "type": "uint256"
        }
      ],
      "payable": false,
      "stateMutability": "view",
      "type": "function"
    },
    {
      "constant": true,
      "inputs": [],
      "name": "name",
      "outputs": [
        {
          "internalType": "string",
          "name": "",
          "type": "string"
        }
      ],
      "payable": false,
      "stateMutability": "view",
      "type": "function"
    },
    {
      "constant": true,
      "inputs": [],
      "name": "pendingAdmin",
      "outputs": [
        {
          "internalType": "address",
          "name": "",
          "type": "address"
        }
      ],
      "payable": false,
      "stateMutability": "view",
      "type": "function"
    },
    {
      "constant": true,
      "inputs": [],
      "name": "proposalCount",
      "outputs": [
        {
          "internalType": "uint256",
          "name": "",
          "type": "uint256"
        }
      ],
      "payable": false,
      "stateMutability": "view",
      "type": "function"
    },
    {
      "constant": true,
      "inputs": [],
      "name": "proposalMaxOperations",
      "outputs": [
        {
          "internalType": "uint256",
          "name": "",
          "type": "uint256"
        }
      ],
      "payable": false,
      "stateMutability": "view",
      "type": "function"
    },
    {
      "constant": true,
      "inputs": [],
      "name": "proposalThreshold",
      "outputs": [
        {
          "internalType": "uint256",
          "name": "",
          "type": "uint256"
        }
      ],
      "payable": false,
      "stateMutability": "view",
      "type": "function"
    },
    {
      "constant": true,
      "inputs": [
        {
          "internalType": "uint256",
          "name": "",
          "type": "uint256"
        }
      ],
      "name": "proposals",
      "outputs": [
        {
          "internalType": "uint256",
          "name": "id",
          "type": "uint256"
        },
        {
          "internalType": "address",
          "name": "proposer",
          "type": "address"
        },
        {
          "internalType": "uint256",
          "name": "eta",
          "type": "uint256"
        },
        {
          "internalType": "uint256",
          "name": "startBlock",
          "type": "uint256"
        },
        {
          "internalType": "uint256",
          "name": "endBlock",
          "type": "uint256"
        },
        {
          "internalType": "uint256",
          "name": "forVotes",
          "type": "uint256"
        },
        {
          "internalType": "uint256",
          "name": "againstVotes",
          "type": "uint256"
        },
        {
          "internalType": "uint256",
          "name": "abstainVotes",
          "type": "uint256"
        },
        {
          "internalType": "bool",
          "name": "canceled",
          "type": "bool"
        },
        {
          "internalType": "bool",
          "name": "executed",
          "type": "bool"
        }
      ],
      "payable": false,
      "stateMutability": "view",
      "type": "function"
    },
    {
      "constant": true,
      "inputs": [],
      "name": "quorumVotes",
      "outputs": [
        {
          "internalType": "uint256",
          "name": "",
          "type": "uint256"
        }
      ],
      "payable": false,
      "stateMutability": "view",
      "type": "function"
    },
    {
      "constant": true,
      "inputs": [],
      "name": "timelock",
      "outputs": [
        {
          "internalType": "contract TimelockInterface",
          "name": "",
          "type": "address"
        }
      ],
      "payable": false,
      "stateMutability": "view",
      "type": "function"
    },
    {
      "constant": true,
      "inputs": [],
      "name": "votingDelay",
      "outputs": [
        {
          "internalType": "uint256",
          "name": "",
          "type": "uint256"
        }
      ],
      "payable": false,
      "stateMutability": "view",
      "type": "function"
    },
    {
      "constant": true,
      "inputs": [],
      "name": "votingPeriod",
      "outputs": [
        {
          "internalType": "uint256",
          "name": "",
          "type": "uint256"
        }
      ],
      "payable": false,
      "stateMutability": "view",
      "type": "function"
    },
    {
      "constant": false,
      "inputs": [
        {
          "internalType": "address",
          "name": "timelock_",
          "type": "address"
        },
        {
          "internalType": "address",
          "name": "comp_",
          "type": "address"
        },
        {
          "internalType": "uint256",
          "name": "votingPeriod_",
          "type": "uint256"
        },
        {
          "internalType": "uint256",
          "name": "votingDelay_",
          "type": "uint256"
        },
        {
          "internalType": "uint256",
          "name": "proposalThreshold_",
          "type": "uint256"
        }
      ],
      "name": "initialize",
      "outputs": [],
      "payable": false,
      "stateMutability": "nonpayable",
      "type": "function"
    },
    {
      "constant": false,
      "inputs": [
        {
          "internalType": "address[]",
          "name": "targets",
          "type": "address[]"
        },
        {
          "internalType": "uint256[]",
          "name": "values",
          "type": "uint256[]"
        },
        {
          "internalType": "string[]",
          "name": "signatures",
          "type": "string[]"
        },
        {
          "internalType": "bytes[]",
          "name": "calldatas",
          "type": "bytes[]"
        },
        {
          "internalType": "string",
          "name": "description",
          "type": "string"
        }
      ],
      "name": "propose",
      "outputs": [
        {
          "internalType": "uint256",
          "name": "",
          "type": "uint256"
        }
      ],
      "payable": false,
      "stateMutability": "nonpayable",
      "type": "function"
    },
    {
      "constant": false,
      "inputs": [
        {
          "internalType": "uint256",
          "name": "proposalId",
          "type": "uint256"
        }
      ],
      "name": "queue",
      "outputs": [],
      "payable": false,
      "stateMutability": "nonpayable",
      "type": "function"
    },
    {
      "constant": false,
      "inputs": [
        {
          "internalType": "uint256",
          "name": "proposalId",
          "type": "uint256"
        }
      ],
      "name": "execute",
      "outputs": [],
      "payable": true,
      "stateMutability": "payable",
      "type": "function"
    },
    {
      "constant": false,
      "inputs": [
        {
          "internalType": "uint256",
          "name": "proposalId",
          "type": "uint256"
        }
      ],
      "name": "cancel",
      "outputs": [],
      "payable": false,
      "stateMutability": "nonpayable",
      "type": "function"
    },
    {
      "constant": true,
      "inputs": [
        {
          "internalType": "uint256",
          "name": "proposalId",
          "type": "uint256"
        }
      ],
      "name": "getActions",
      "outputs": [
        {
          "internalType": "address[]",
          "name": "targets",
          "type": "address[]"
        },
        {
          "internalType": "uint256[]",
          "name": "values",
          "type": "uint256[]"
        },
        {
          "internalType": "string[]",
          "name": "signatures",
          "type": "string[]"
        },
        {
          "internalType": "bytes[]",
          "name": "calldatas",
          "type": "bytes[]"
        }
      ],
      "payable": false,
      "stateMutability": "view",
      "type": "function"
    },
    {
      "constant": true,
      "inputs": [
        {
          "internalType": "uint256",
          "name": "proposalId",
          "type": "uint256"
        },
        {
          "internalType": "address",
          "name": "voter",
          "type": "address"
        }
      ],
      "name": "getReceipt",
      "outputs": [
        {
          "components": [
            {
              "internalType": "bool",
              "name": "hasVoted",
              "type": "bool"
            },
            {
              "internalType": "uint8",
              "name": "support",
              "type": "uint8"
            },
            {
              "internalType": "uint96",
              "name": "votes",
              "type": "uint96"
            }
          ],
          "internalType": "struct GovernorBravoDelegateStorageV1.Receipt",
          "name": "",
          "type": "tuple"
        }
      ],
      "payable": false,
      "stateMutability": "view",
      "type": "function"
    },
    {
      "constant": true,
      "inputs": [
        {
          "internalType": "uint256",
          "name": "proposalId",
          "type": "uint256"
        }
      ],
      "name": "state",
      "outputs": [
        {
          "internalType": "enum GovernorBravoDelegateStorageV1.ProposalState",
          "name": "",
          "type": "uint8"
        }
      ],
      "payable": false,
      "stateMutability": "view",
      "type": "function"
    },
    {
      "constant": false,
      "inputs": [
        {
          "internalType": "uint256",
          "name": "proposalId",
          "type": "uint256"
        },
        {
          "internalType": "uint8",
          "name": "support",
          "type": "uint8"
        }
      ],
      "name": "castVote",
      "outputs": [],
      "payable": false,
      "stateMutability": "nonpayable",
      "type": "function"
    },
    {
      "constant": false,
      "inputs": [
        {
          "internalType": "uint256",
          "name": "proposalId",
          "type": "uint256"
        },
        {
          "internalType": "uint8",
          "name": "support",
          "type": "uint8"
        },
        {
          "internalType": "string",
          "name": "reason",
          "type": "string"
        }
      ],
      "name": "castVoteWithReason",
      "outputs": [],
      "payable": false,
      "stateMutability": "nonpayable",
      "type": "function"
    },
    {
      "constant": false,
      "inputs": [
        {
          "internalType": "uint256",
          "name": "proposalId",
          "type": "uint256"
        },
        {
          "internalType": "uint8",
          "name": "support",
          "type": "uint8"
        },
        {
          "internalType": "uint8",
          "name": "v",
          "type": "uint8"
        },
        {
          "internalType": "bytes32",
          "name": "r",
          "type": "bytes32"
        },
        {
          "internalType": "bytes32",
          "name": "s",
          "type": "bytes32"
        }
      ],
      "name": "castVoteBySig",
      "outputs": [],
      "payable": false,
      "stateMutability": "nonpayable",
      "type": "function"
    },
    {
      "constant": false,
      "inputs": [
        {
          "internalType": "uint256",
          "name": "newVotingDelay",
          "type": "uint256"
        }
      ],
      "name": "_setVotingDelay",
      "outputs": [],
      "payable": false,
      "stateMutability": "nonpayable",
      "type": "function"
    },
    {
      "constant": false,
      "inputs": [
        {
          "internalType": "uint256",
          "name": "newVotingPeriod",
          "type": "uint256"
        }
      ],
      "name": "_setVotingPeriod",
      "outputs": [],
      "payable": false,
      "stateMutability": "nonpayable",
      "type": "function"
    },
    {
      "constant": false,
      "inputs": [
        {
          "internalType": "uint256",
          "name": "newProposalThreshold",
          "type": "uint256"
        }
      ],
      "name": "_setProposalThreshold",
      "outputs": [],
      "payable": false,
      "stateMutability": "nonpayable",
      "type": "function"
    },
    {
      "constant": false,
      "inputs": [],
      "name": "_initiate",
      "outputs": [],
      "payable": false,
      "stateMutability": "nonpayable",
      "type": "function"
    },
    {
      "constant": false,
      "inputs": [
        {
          "internalType": "address",
          "name": "newPendingAdmin",
          "type": "address"
        }
      ],
      "name": "_setPendingAdmin",
      "outputs": [],
      "payable": false,
      "stateMutability": "nonpayable",
      "type": "function"
    },
    {
      "constant": false,
      "inputs": [],
      "name": "_acceptAdmin",
      "outputs": [],
      "payable": false,
      "stateMutability": "nonpayable",
      "type": "function"
    }
  ],
  "bytecode": "0x60806040523480156200001c576000806200001962000023565b50505b5062000090565b632a2a7adb598160e01b8152600481016020815285602082015260005b868110156200005d57808601518282016040015260200162000040565b506020828760640184336000905af158600e01573d6000803e3d6000fd5b3d6001141558600a015760016000f35b505050565b61580e80620000a06000396000f3fe6080604052600436106101cb5760003560e01c8063013cf08b146101d957806302a251a31461022157806306fdde031461024c5780630ea2d98c14610277578063109d0af8146102a257806317977c61146102cd57806317ba1b8b146102f65780631dfb1b5a1461031f57806320606b7014610348578063215809ca1461036657806324bc1a641461038457806325fd935a146103a257806326782247146103c0578063328dd982146103eb5780633932abb1146104245780633bccf4fd146104425780633e4f49e61461046b57806340e58ee5146104a157806356781388146104ca5780635c60da1b146104f3578063791f5d23146105115780637b3c71d31461052f5780637bdbe4d014610558578063878f148214610576578063a64e024a14610594578063b1126263146105b2578063b58131b0146105d0578063b71d1a0c146105ee578063d13f90b414610617578063d33219b414610640578063da35c6641461065e578063da95691a1461067c578063ddf0b009146106a5578063deaaa7cc146106ce578063e23a9a52146106ec578063e48083fe14610366578063e9c714f214610722578063f851a44014610740578063fc4eee421461075e578063fe0d94c11461077c575b6000806101d661303f565b50505b3480156101ee576000806101eb61303f565b50505b506102026101fd366004613e20565b61078f565b6040516102189a9998979695949392919061543a565b60405180910390f35b3480156102365760008061023361303f565b50505b5061023f61084d565b6040516102189190615077565b3480156102615760008061025e61303f565b50505b5061026a61085a565b6040516102189190615133565b34801561028c5760008061028961303f565b50505b506102a061029b366004613e20565b61088b565b005b3480156102b7576000806102b461303f565b50505b506102c0610995565b6040516102189190615117565b3480156102e2576000806102df61303f565b50505b5061023f6102f1366004613bcf565b6109b4565b34801561030b5760008061030861303f565b50505b506102a061031a366004613e20565b6109cc565b3480156103345760008061033161303f565b50505b506102a0610343366004613e20565b610acc565b34801561035d5760008061035a61303f565b50505b5061023f610bbb565b34801561037b5760008061037861303f565b50505b5061023f610bd2565b3480156103995760008061039661303f565b50505b5061023f610bd7565b3480156103b7576000806103b461303f565b50505b5061023f610be5565b3480156103d5576000806103d261303f565b50505b506103de610bf3565b6040516102189190614f3d565b348015610400576000806103fd61303f565b50505b5061041461040f366004613e20565b610bff565b604051610218949392919061502a565b3480156104395760008061043661303f565b50505b5061023f610f25565b3480156104575760008061045461303f565b50505b506102a0610466366004613f3c565b610f2f565b3480156104805760008061047d61303f565b50505b5061049461048f366004613e20565b61115d565b6040516102189190615125565b3480156104b6576000806104b361303f565b50505b506102a06104c5366004613e20565b61139e565b3480156104df576000806104dc61303f565b50505b506102a06104ee366004613e8a565b61172b565b3480156105085760008061050561303f565b50505b506103de61177c565b3480156105265760008061052361303f565b50505b5061023f611788565b3480156105445760008061054161303f565b50505b506102a0610553366004613ec3565b611796565b34801561056d5760008061056a61303f565b50505b5061023f6117ed565b34801561058b5760008061058861303f565b50505b506102a06117f2565b3480156105a9576000806105a661303f565b50505b5061023f611937565b3480156105c7576000806105c461303f565b50505b5061023f61193e565b3480156105e5576000806105e261303f565b50505b5061023f611944565b3480156106035760008061060061303f565b50505b506102a0610612366004613bcf565b61194e565b34801561062c5760008061062961303f565b50505b506102a061063b366004613bfe565b611a28565b3480156106555760008061065261303f565b50505b506102c0611cc8565b3480156106735760008061067061303f565b50505b5061023f611cd4565b3480156106915760008061068e61303f565b50505b5061023f6106a0366004613c7c565b611cde565b3480156106ba576000806106b761303f565b50505b506102a06106c9366004613e20565b6122b7565b3480156106e3576000806106e061303f565b50505b5061023f6125f0565b348015610701576000806106fe61303f565b50505b50610715610710366004613e47565b6125fc565b6040516102189190615384565b3480156107375760008061073461303f565b50505b506102a061269d565b3480156107555760008061075261303f565b50505b506103de612878565b3480156107735760008061077061303f565b50505b5061023f612883565b6102a061078a366004613e20565b61288d565b600a6020528060005260406000209050806107a86130aa565b906000600182016107b76130aa565b906101000a90046001600160a01b031690806002016107d46130aa565b90806007016107e16130aa565b90806008016107ee6130aa565b90806009016107fb6130aa565b9080600a016108086130aa565b9080600b016108156130aa565b906000600c82016108246130aa565b906101000a900460ff169080600c0160019061083e6130aa565b906101000a900460ff1690508a565b60046108576130aa565b81565b604051604080820190526017815276436f6d706f756e6420476f7665726e6f7220427261766f60481b602082015281565b6000806108966130aa565b906101000a90046001600160a01b03166001600160a01b03165a6108b861310a565b6001600160a01b0316146108f05760405162461bcd60e51b81526004016108de90615184565b604051809103906108ed61303f565b50505b60018110158015610904575062013b008111155b6109325760405162461bcd60e51b8152600401610920906151c4565b6040518091039061092f61303f565b50505b6000600461093e6130aa565b90508180600461094c613150565b5050507f7e3f7f0708a84de9203036abaa450dccc85ad5ff52f78c170f3edb55cf5e882881600461097b6130aa565b6040516109899291906154c0565b60405180910390a15050565b600060096109a16130aa565b906101000a90046001600160a01b031681565b600b60205280600052604060002090506108576130aa565b6000806109d76130aa565b906101000a90046001600160a01b03166001600160a01b03165a6109f961310a565b6001600160a01b031614610a315760405162461bcd60e51b8152600401610a1f90615344565b60405180910390610a2e61303f565b50505b690a968163f0a57b4000008110158015610a55575069152d02c7e14af68000008111155b610a835760405162461bcd60e51b8152600401610a7190615264565b60405180910390610a8061303f565b50505b60006005610a8f6130aa565b905081806005610a9d613150565b5050507fccb45da8d5717e6c4544694297c4ba5cf151d455c9bb0ed4fc7a38411bc0546181600561097b6130aa565b600080610ad76130aa565b906101000a90046001600160a01b03166001600160a01b03165a610af961310a565b6001600160a01b031614610b315760405162461bcd60e51b8152600401610b1f906151a4565b60405180910390610b2e61303f565b50505b60018110158015610b445750619d808111155b610b725760405162461bcd60e51b8152600401610b60906151f4565b60405180910390610b6f61303f565b50505b60006003610b7e6130aa565b905081806003610b8c613150565b5050507fc565b045403dc03c2eea82b81a0465edad9e2e7fc4d97e11421c209da93d7a9381600361097b6130aa565b604051610bc790614f32565b604051809103902081565b600181565b6954b40b1f852bda00000081565b69152d02c7e14af680000081565b600060016109a16130aa565b6000818152600a602052606090819081908190604081209050806003018160040182600501836006018380610c326130aa565b806020026020016040519081016040528181529190602083018280610c556130aa565b8015610ca257602002820191906000526020600020905b600082610c776130aa565b906101000a90046001600160a01b03166001600160a01b031681526020019060010190808311610c6c575b505050505093508280610cb36130aa565b806020026020016040519081016040528181529190602083018280610cd66130aa565b8015610d0857602002820191906000526020600020905b81610cf66130aa565b81526020019060010190808311610ced575b505050505092508180610d196130aa565b8060200260200160405190810160405281815291906000602084015b82821015610e0c5783829060005260206000200180610d526130aa565b600181600116156101000203166002900480601f016020809104026020016040519081016040528181529190602083018280610d8c6130aa565b60018160011615610100020316600290048015610df85780601f10610dc6576101008083610db86130aa565b040283529160200191610df8565b820191906000526020600020905b81610ddd6130aa565b81529060010190602001808311610dd457829003601f168201915b505050505081526020019060010190610d35565b5050505091508080610e1c6130aa565b8060200260200160405190810160405281815291906000602084015b82821015610f0f5783829060005260206000200180610e556130aa565b600181600116156101000203166002900480601f016020809104026020016040519081016040528181529190602083018280610e8f6130aa565b60018160011615610100020316600290048015610efb5780601f10610ec9576101008083610ebb6130aa565b040283529160200191610efb565b820191906000526020600020905b81610ee06130aa565b81529060010190602001808311610ed757829003601f168201915b505050505081526020019060010190610e38565b5050505090509450945094509450509193509193565b60036108576130aa565b6000604051610f3d90614f32565b6040518091039020604051604080820190526017815276436f6d706f756e6420476f7665726e6f7220427261766f60481b602082015280519060200120610f82612afc565b5a63996d79a5598160e01b8152602081600483336000905af158600e01573d6000803e3d6000fd5b3d6001141558600a015760016000f35b8051925060005b6040811015610fd857600082820152602001610fc1565b505050604051602001610fee9493929190615085565b604051602081830303815290604052805190602001209050600060405161101490614ef6565b60405180910390208787604051602001611030939291906150ba565b6040516020818303038152906040528051906020012090506000828260405160200161105d929190614f01565b60405160208183030381529060405280519060200120905060006001828888886040516000815260200160405260405161109a94939291906150e2565b6020604051602081039080840390855a6110b261319e565b50505050501580156110d1573d6000803e3d60006110ce61303f565b50505b5050506020604051035190506001600160a01b0381166111155760405162461bcd60e51b815260040161110390615224565b6040518091039061111261303f565b50505b806001600160a01b03166000805160206157ee8339815191528a8a61113b858e8e612b0f565b60405161114a93929190615514565b60405180910390a2505050505050505050565b600081600761116a6130aa565b101580156111815750600661117d6130aa565b8210155b6111af5760405162461bcd60e51b815260040161119d90615354565b604051809103906111ac61303f565b50505b6000828152600a6020526040812090506000600c82016111cd6130aa565b906101000a900460ff16156111e6576002915050611399565b806007016111f26130aa565b5a6111fb61324e565b1161120a576000915050611399565b806008016112166130aa565b5a61121f61324e565b1161122e576001915050611399565b80600a0161123a6130aa565b816009016112466130aa565b11158061126757506954b40b1f852bda000000816009016112656130aa565b105b15611276576003915050611399565b806002016112826130aa565b611290576004915050611399565b6001600c820161129e6130aa565b906101000a900460ff16156112b7576007915050611399565b61137b816002016112c66130aa565b600060086112d26130aa565b906101000a90046001600160a01b03166001600160a01b031663c1a287e26040518163ffffffff1660e01b81526004016020604051808303818680611315613294565b15801561132a5760008061132761303f565b50505b505a61133461319e565b5050505050158015611353573d6000803e3d600061135061303f565b50505b50505050604051601f3d908101601f191682016040526113769190810190613db3565b612dea565b5a6113846132e0565b10611393576006915050611399565b60059150505b919050565b60076113a98261115d565b60078111156113b457fe5b14156113e45760405162461bcd60e51b81526004016113d290615334565b604051809103906113e161303f565b50505b6000818152600a6020526040812090506000600182016114026130aa565b906101000a90046001600160a01b03166001600160a01b03165a61142461310a565b6001600160a01b0316148061152e5750600561143e6130aa565b6000600961144a6130aa565b6001600160a01b036101009290920a90041663782d6fe160006001850161146f6130aa565b906101000a90046001600160a01b03166114925a61148b61324e565b6001612e27565b6040518363ffffffff1660e01b81526004016114af929190614f81565b60206040518083038186806114c2613294565b1580156114d7576000806114d461303f565b50505b505a6114e161319e565b5050505050158015611500573d6000803e3d60006114fd61303f565b50505b50505050604051601f3d908101601f191682016040526115239190810190613f8b565b6001600160601b0316105b61155c5760405162461bcd60e51b815260040161154a906152d4565b6040518091039061155961303f565b50505b6001600c8201818161156c6130aa565b8160ff02191690831515021790611581613150565b5060009150505b81600301806115956130aa565b90508110156116fb57600060086115aa6130aa565b906101000a90046001600160a01b03166001600160a01b031663591fcdfe8360030183816115d66130aa565b81106115de57fe5b906000526020600020016000906115f36130aa565b906101000a90046001600160a01b03168460040184816116116130aa565b811061161957fe5b9060005260206000200161162b6130aa565b8560050185816116396130aa565b811061164157fe5b906000526020600020018660060186816116596130aa565b811061166157fe5b90600052602060002001876002016116776130aa565b6040518663ffffffff1660e01b8152600401611697959493929190614fe9565b600060405180830381600087806116ac613294565b1580156116c1576000806116be61303f565b50505b505a6116cb613326565b5050505050501580156116eb573d6000803e3d60006116e861303f565b50505b5050600190920191506115889050565b507f789cf55be980739dad1d0699b93b58e806b51c9d96619bfa8fe0a28abaa7b30c826040516109899190615077565b5a61173461310a565b6001600160a01b03166000805160206157ee83398151915283836117615a61175a61310a565b8787612b0f565b60405161177093929190615514565b60405180910390a25050565b600060026109a16130aa565b690a968163f0a57b40000081565b5a61179f61310a565b6001600160a01b03166000805160206157ee83398151915285856117cc5a6117c561310a565b8989612b0f565b86866040516117df9594939291906154ce565b60405180910390a250505050565b600a81565b6000806117fd6130aa565b906101000a90046001600160a01b03166001600160a01b03165a61181f61310a565b6001600160a01b0316146118575760405162461bcd60e51b815260040161184590615314565b6040518091039061185461303f565b50505b60066118616130aa565b156118905760405162461bcd60e51b815260040161187e90615294565b6040518091039061188d61303f565b50505b600180600661189d613150565b50505060086000906118ad6130aa565b906101000a90046001600160a01b03166001600160a01b0316630e18b6816040518163ffffffff1660e01b8152600401600060405180830381600087806118f2613294565b1580156119075760008061190461303f565b50505b505a611911613326565b505050505050158015611931573d6000803e3d600061192e61303f565b50505b50505050565b62013b0081565b619d8081565b60056108576130aa565b6000806119596130aa565b906101000a90046001600160a01b03166001600160a01b03165a61197b61310a565b6001600160a01b0316146119b35760405162461bcd60e51b81526004016119a190615164565b604051809103906119b061303f565b50505b60008060016119c06130aa565b906101000a90046001600160a01b0316905081600160006101000a816119e46130aa565b816001600160a01b0302191690836001600160a01b0316021790611a06613150565b50505060008051602061578e8339815191528183604051610989929190614f66565b6000806008611a356130aa565b906101000a90046001600160a01b03166001600160a01b031614611a7d5760405162461bcd60e51b8152600401611a6b90615154565b60405180910390611a7a61303f565b50505b600080611a886130aa565b906101000a90046001600160a01b03166001600160a01b03165a611aaa61310a565b6001600160a01b031614611ae25760405162461bcd60e51b8152600401611ad090615254565b60405180910390611adf61303f565b50505b6001600160a01b038516611b1a5760405162461bcd60e51b8152600401611b0890615194565b60405180910390611b1761303f565b50505b6001600160a01b038416611b525760405162461bcd60e51b8152600401611b40906152c4565b60405180910390611b4f61303f565b50505b60018310158015611b66575062013b008311155b611b945760405162461bcd60e51b8152600401611b8290615364565b60405180910390611b9161303f565b50505b60018210158015611ba75750619d808211155b611bd55760405162461bcd60e51b8152600401611bc390615234565b60405180910390611bd261303f565b50505b690a968163f0a57b4000008110158015611bf9575069152d02c7e14af68000008111155b611c275760405162461bcd60e51b8152600401611c1590615204565b60405180910390611c2461303f565b50505b846008600181611c356130aa565b816001600160a01b0302191690836001600160a01b0316021790611c57613150565b50505083600960006101000a81611c6c6130aa565b816001600160a01b0302191690836001600160a01b0316021790611c8e613150565b5050508260048190611c9e613150565b5050508160038190611cae613150565b5050508060058190611cbe613150565b5050505050505050565b600060086109a16130aa565b60076108576130aa565b60006006611cea6130aa565b611d185760405162461bcd60e51b8152600401611d06906151b4565b60405180910390611d1561303f565b50505b6005611d226130aa565b60006009611d2e6130aa565b906101000a90046001600160a01b03166001600160a01b031663782d6fe15a611d5561310a565b611d615a61148b61324e565b6040518363ffffffff1660e01b8152600401611d7e929190614f4b565b6020604051808303818680611d91613294565b158015611da657600080611da361303f565b50505b505a611db061319e565b5050505050158015611dcf573d6000803e3d6000611dcc61303f565b50505b50505050604051601f3d908101601f19168201604052611df29190810190613f8b565b6001600160601b031611611e2a5760405162461bcd60e51b8152600401611e1890615324565b60405180910390611e2761303f565b50505b84518651148015611e3c575083518651145b8015611e49575082518651145b611e775760405162461bcd60e51b8152600401611e6590615244565b60405180910390611e7461303f565b50505b8551611ea75760405162461bcd60e51b8152600401611e95906152a4565b60405180910390611ea461303f565b50505b600a86511115611edb5760405162461bcd60e51b8152600401611ec9906152e4565b60405180910390611ed861303f565b50505b6000600b60005a611eea61310a565b6001600160a01b03166001600160a01b03168152602001908152602001600020611f126130aa565b90508015611fa5576000611f258261115d565b90506001816007811115611f3557fe5b1415611f655760405162461bcd60e51b8152600401611f5390615304565b60405180910390611f6261303f565b50505b6000816007811115611f7357fe5b1415611fa35760405162461bcd60e51b8152600401611f91906152f4565b60405180910390611fa061303f565b50505b505b6000611fbd5a611fb361324e565b60036113766130aa565b90506000611fcf8260046113766130aa565b90506007600081611fde6130aa565b91600183019150611fed613150565b505050611ff86133d6565b604051806101c00160405280600761200e6130aa565b81526020015a61201c61310a565b6001600160a01b03168152602001600081526020018b81526020018a815260200189815260200188815260200184815260200183815260200160008152602001600081526020016000815260200160001515815260200160001515815250905080600a60008360000151815260200190815260200160002081518161209f613150565b50506020820151600180830190816120b56130aa565b816001600160a01b0302191690836001600160a01b03160217906120d7613150565b5050506040820151816002016120eb613150565b5050606082015181600301908051612107929160200190613452565b506080820151816004019080516121229291602001906134dc565b5060a08201518160050190805161213d92916020019061353c565b5060c0820151816006019080516121589291602001906135a4565b5060e08201518160070161216a613150565b50506101008201518160080161217e613150565b505061012082015181600901612192613150565b505061014082015181600a016121a6613150565b505061016082015181600b016121ba613150565b5050610180820151600c82016001816121d16130aa565b8160ff021916908315150217906121e6613150565b5050506101a0820151600c8201610100816121ff6130aa565b8160ff02191690831515021790612214613150565b5084935050505051600b600083602001516001600160a01b03166001600160a01b03168152602001908152602001600020819061224f613150565b5050507f7d84a6263ae0d98d3329bd7b46bb4e8d6f98cd35a7adb45c274c8b7fd5ebd5e081600001515a61228161310a565b8c8c8c8c89898e60405161229d99989796959493929190615392565b60405180910390a180519450505050505b95945050505050565b60046122c28261115d565b60078111156122cd57fe5b146122fc5760405162461bcd60e51b81526004016122ea90615274565b604051809103906122f961303f565b50505b6000818152600a60205260408120905060006123695a61231a6132e0565b600060086123266130aa565b906101000a90046001600160a01b03166001600160a01b0316636a42b8f86040518163ffffffff1660e01b81526004016020604051808303818680611315613294565b905060005b826003018061237b6130aa565b90508110156125a0576125988360030182816123956130aa565b811061239d57fe5b906000526020600020016000906123b26130aa565b906101000a90046001600160a01b03168460040183816123d06130aa565b81106123d857fe5b906000526020600020016123ea6130aa565b8560050184816123f86130aa565b811061240057fe5b90600052602060002001806124136130aa565b600181600116156101000203166002900480601f01602080910402602001604051908101604052818152919060208301828061244d6130aa565b600181600116156101000203166002900480156124b95780601f106124875761010080836124796130aa565b0402835291602001916124b9565b820191906000526020600020905b8161249e6130aa565b8152906001019060200180831161249557829003601f168201915b50505050508660060185816124cc6130aa565b81106124d457fe5b90600052602060002001806124e76130aa565b600181600116156101000203166002900480601f0160208091040260200160405190810160405281815291906020830182806125216130aa565b6001816001161561010002031660029004801561258d5780601f1061255b57610100808361254d6130aa565b04028352916020019161258d565b820191906000526020600020905b816125726130aa565b8152906001019060200180831161256957829003601f168201915b505050505086612e61565b60010161236e565b508080600284016125af613150565b5050507f9a2e42fd6722813d69113e7d0079d3d940171428df7373df9c7f7617cfda289283826040516125e39291906154c0565b60405180910390a1505050565b604051610bc790614ef6565b61260461360c565b6000838152600a602052604090206001600160a01b0383166000908152600d91909101602052604090206040516060810160405290816000826126456130aa565b60ff6101009290920a900416151581526020016001826126636130aa565b60ff6101009290920a900416815260200160028261267f6130aa565b6001600160601b036101009290920a90041690525090505b92915050565b600060016126a96130aa565b906101000a90046001600160a01b03166001600160a01b03165a6126cb61310a565b6001600160a01b03161480156126f3575060005a6126e761310a565b6001600160a01b031614155b6127215760405162461bcd60e51b815260040161270f906152b4565b6040518091039061271e61303f565b50505b6000808061272d6130aa565b906101000a90046001600160a01b031690506000600160009061274e6130aa565b906101000a90046001600160a01b03169050600160009061276d6130aa565b906101000a90046001600160a01b03166000806101000a8161278d6130aa565b816001600160a01b0302191690836001600160a01b03160217906127af613150565b5050506000600160006101000a816127c56130aa565b816001600160a01b0302191690836001600160a01b03160217906127e7613150565b5050507ff9ffabca9c8276e99321725bcb43fb076a6c66a54b7f21c4e8146d8519b417dc82600080906128186130aa565b906101000a90046001600160a01b0316604051612836929190614f66565b60405180910390a160008051602061578e833981519152816000600161285a6130aa565b906101000a90046001600160a01b0316604051610989929190614f66565b6000806109a16130aa565b60066108576130aa565b60056128988261115d565b60078111156128a357fe5b146128d25760405162461bcd60e51b81526004016128c090615214565b604051809103906128cf61303f565b50505b6000818152600a6020526040812090506001600c8201610100816128f46130aa565b8160ff02191690831515021790612909613150565b5060009150505b816003018061291d6130aa565b9050811015612acc57600060086129326130aa565b906101000a90046001600160a01b03166001600160a01b0316630825f38f83600401838161295e6130aa565b811061296657fe5b906000526020600020016129786130aa565b8460030184816129866130aa565b811061298e57fe5b906000526020600020016000906129a36130aa565b906101000a90046001600160a01b03168560040185816129c16130aa565b81106129c957fe5b906000526020600020016129db6130aa565b8660050186816129e96130aa565b81106129f157fe5b90600052602060002001876006018781612a096130aa565b8110612a1157fe5b9060005260206000200188600201612a276130aa565b6040518763ffffffff1660e01b8152600401612a47959493929190614fe9565b600060405180830381858880612a5b613294565b158015612a7057600080612a6d61303f565b50505b505a612a7a613326565b505050505050158015612a9a573d6000803e3d6000612a9761303f565b50505b50505050506040513d6000823e601f3d908101601f19168201604052612ac39190810190613dda565b50600101612910565b507f712ae1383f79ac853f8d882153778e0260ef8f03b504e2866e0593e04d2b291f826040516109899190615077565b6000805a612b0861362b565b9150505b90565b60006001612b1c8461115d565b6007811115612b2757fe5b14612b565760405162461bcd60e51b8152600401612b44906151d4565b60405180910390612b5361303f565b50505b60028260ff161115612b8c5760405162461bcd60e51b8152600401612b7a90615144565b60405180910390612b8961303f565b50505b6000838152600a602052604081206001600160a01b0386166000908152600d8201602052909150604081209050600081612bc46130aa565b60ff6101009290920a90041615612bff5760405162461bcd60e51b8152600401612bed906151e4565b60405180910390612bfc61303f565b50505b6000806009612c0c6130aa565b906101000a90046001600160a01b03166001600160a01b031663782d6fe18885600701612c376130aa565b6040518363ffffffff1660e01b8152600401612c54929190614f81565b6020604051808303818680612c67613294565b158015612c7c57600080612c7961303f565b50505b505a612c8661319e565b5050505050158015612ca5573d6000803e3d6000612ca261303f565b50505b50505050604051601f3d908101601f19168201604052612cc89190810190613f8b565b905060ff8516612d0557612cf083600a01612ce16130aa565b826001600160601b0316612dea565b80600a8501612cfd613150565b505050612d59565b8460ff1660011415612d2d57612d2083600901612ce16130aa565b8060098501612cfd613150565b8460ff1660021415612d5957612d4883600b01612ce16130aa565b80600b8501612d55613150565b5050505b6001828181612d666130aa565b8160ff02191690831515021790612d7b613150565b5086915083905061010081612d8e6130aa565b8160ff021916908360ff16021790612da4613150565b508291508390506201000081612db86130aa565b816001600160601b0302191690836001600160601b0316021790612dda613150565b50919450505050505b9392505050565b600082820183811015612de35760405162461bcd60e51b8152600401612e0f90615284565b60405180910390612e1e61303f565b50509392505050565b600082821115612e5b5760405162461bcd60e51b8152600401612e4990615374565b60405180910390612e5861303f565b50505b50900390565b60006008612e6d6130aa565b906101000a90046001600160a01b03166001600160a01b031663f2b065378686868686604051602001612ea4959493929190614f8f565b604051602081830303815290604052805190602001206040518263ffffffff1660e01b8152600401612ed69190615077565b6020604051808303818680612ee9613294565b158015612efe57600080612efb61303f565b50505b505a612f0861319e565b5050505050158015612f27573d6000803e3d6000612f2461303f565b50505b50505050604051601f3d908101601f19168201604052612f4a9190810190613d8c565b15612f795760405162461bcd60e51b8152600401612f6790615174565b60405180910390612f7661303f565b50505b60006008612f856130aa565b906101000a90046001600160a01b03166001600160a01b0316633a66f90186868686866040518663ffffffff1660e01b8152600401612fc8959493929190614f8f565b60206040518083038160008780612fdd613294565b158015612ff257600080612fef61303f565b50505b505a612ffc613326565b50505050505015801561301c573d6000803e3d600061301961303f565b50505b50505050604051601f3d908101601f1916820160405261192e9190810190613db3565b632a2a7adb598160e01b8152600481016020815285602082015260005b8681101561307757808601518282016040015260200161305c565b506020828760640184336000905af158600e01573d6000803e3d6000fd5b3d6001141558600a015760016000f35b505050565b6303daa959598160e01b8152836004820152602081602483336000905af158600e01573d6000803e3d6000fd5b3d6001141558600a015760016000f35b8051935060005b6040811015613105576000828201526020016130ee565b505050565b6373509064598160e01b8152602081600483336000905af158600e01573d6000803e3d6000fd5b3d6001141558600a015760016000f35b805160008252935060206130ee565b6322bd64c0598160e01b8152836004820152846024820152600081604483336000905af158600e01573d6000803e3d6000fd5b3d6001141558600a015760016000f35b6000815260206130ee565b638540661f598160e01b8152836004820152846024820152606060448201528660648201526084810160005b888110156131e25780880151828201526020016131ca565b506060828960a40184336000905af158600e01573d6000803e3d6000fd5b3d6001141558600a015760016000f35b815160408301513d6000853e8b8b82606087013350600060045af15059845b81811015613243576000815260200161322f565b50919b505050505050565b635a98c361598160e01b8152602081600483336000905af158600e01573d6000803e3d6000fd5b3d6001141558600a015760016000f35b805160008252935060206130ee565b638435035b598160e01b8152836004820152602081602483336000905af158600e01573d6000803e3d6000fd5b3d6001141558600a015760016000f35b805160008252935060206130ee565b63bdbf8c36598160e01b8152602081600483336000905af158600e01573d6000803e3d6000fd5b3d6001141558600a015760016000f35b805160008252935060206130ee565b6385979f76598160e01b8152836004820152846024820152606060448201528760648201526084810160005b8981101561336a578089015182820152602001613352565b506060828a60a40184336000905af158600e01573d6000803e3d6000fd5b3d6001141558600a015760016000f35b815160408301513d6000853e8c8c82606087013350600060045af15059845b818110156133cb57600081526020016133b7565b50919c505050505050565b604051806101c001604052806000815260200160006001600160a01b03168152602001600081526020016060815260200160608152602001606081526020016060815260200160008152602001600081526020016000815260200160008152602001600081526020016000151581526020016000151581525090565b828061345c6130aa565b8282613466613150565b50509060005260206000209081019282156134cc579160200282015b828111156134cc578251826001816134986130aa565b816001600160a01b0302191690836001600160a01b03160217906134ba613150565b50505091602001919060010190613482565b506134d8929150613671565b5090565b82806134e66130aa565b82826134f0613150565b5050906000526020600020908101928215613530579160200282015b828111156135305782518261351f613150565b50509160200191906001019061350c565b506134d89291506136ad565b82806135466130aa565b8282613550613150565b5050906000526020600020908101928215613598579160200282015b82811115613598578251829080516135889291602001906136d2565b509160200191906001019061356c565b506134d8929150613762565b82806135ae6130aa565b82826135b8613150565b5050906000526020600020908101928215613600579160200282015b82811115613600578251829080516135f0929160200190613785565b50916020019190600101906135d4565b506134d892915061380e565b6040516060810160409081526000808352602083018190529082015290565b6390580256598160e01b8152602081600483336000905af158600e01573d6000803e3d6000fd5b3d6001141558600a015760016000f35b805160008252935060206130ee565b612b0c91905b808211156134d85760008160018161368d6130aa565b906001600160a01b03021916906136a2613150565b505050600101613677565b612b0c91905b808211156134d857600080826136c7613150565b5050506001016136b3565b82806136dc6130aa565b600181600116156101000203166002900490600052602060002090601f016020900481019282601f1061372357805160ff1916838001178561371c613150565b5050613530565b82800160010185613732613150565b50508215613530579182015b8281111561353057825182613751613150565b50509160200191906001019061373e565b612b0c91905b808211156134d857600061377c8282613831565b50600101613768565b828061378f6130aa565b600181600116156101000203166002900490600052602060002090601f016020900481019282601f106137cf57805160ff1916838001178561371c613150565b828001600101856137de613150565b50508215613530579182015b82811115613530578251826137fd613150565b5050916020019190600101906137ea565b612b0c91905b808211156134d85760006138288282613831565b50600101613814565b508061383b6130aa565b6001816001161561010002031660029004600082613857613150565b505080601f106138675750613883565b601f0160209004906000526020600020613883918101906136ad565b50565b8035612697816156af565b600082601f8301126138ab576000806138a861303f565b50505b81356138be6138b982615580565b61554d565b915081818352602084019350602081019050838560208402820111156138ec576000806138e961303f565b50505b60005b8381101561391857816139028882613886565b84525060209283019291909101906001016138ef565b5050505092915050565b600082601f83011261393c5760008061393961303f565b50505b813561394a6138b982615580565b81815260209384019390925082018360005b8381101561391857813586016139728882613a99565b845250602092830192919091019060010161395c565b600082601f8301126139a25760008061399f61303f565b50505b81356139b06138b982615580565b81815260209384019390925082018360005b8381101561391857813586016139d88882613a99565b84525060209283019291909101906001016139c2565b600082601f830112613a0857600080613a0561303f565b50505b8135613a166138b982615580565b91508181835260208401935060208101905083856020840282011115613a4457600080613a4161303f565b50505b60005b838110156139185781613a5a8882613a7f565b8452506020928301929190910190600101613a47565b600081519050612697816156c9565b8035612697816156d2565b600081519050612697816156d2565b600082601f830112613ab357600080613ab061303f565b50505b8135613ac16138b9826155a9565b91508082526020830160208301858383011115613ae657600080613ae361303f565b50505b613af1838284615663565b50505092915050565b600082601f830112613b1457600080613b1161303f565b50505b8151613b226138b9826155a9565b91508082526020830160208301858383011115613b4757600080613b4461303f565b50505b613af183828461566f565b60008083601f840112613b6d57600080613b6a61303f565b50505b5081356001600160401b03811115613b8d57600080613b8a61303f565b50505b602083019150836001820283011115613bae57600080613bab61303f565b50505b9250929050565b8035612697816156db565b600081519050612697816156e4565b600060208284031215613bea57600080613be761303f565b50505b6000613bf68484613886565b949350505050565b600080600080600060a08688031215613c1f57600080613c1c61303f565b50505b6000613c2b8888613886565b9550506020613c3c88828901613886565b9450506040613c4d88828901613a7f565b9350506060613c5e88828901613a7f565b9250506080613c6f88828901613a7f565b9150509295509295909350565b600080600080600060a08688031215613c9d57600080613c9a61303f565b50505b85356001600160401b03811115613cbc57600080613cb961303f565b50505b613cc888828901613891565b95505060208601356001600160401b03811115613ced57600080613cea61303f565b50505b613cf9888289016139ee565b94505060408601356001600160401b03811115613d1e57600080613d1b61303f565b50505b613d2a88828901613988565b93505060608601356001600160401b03811115613d4f57600080613d4c61303f565b50505b613d5b88828901613922565b92505060808601356001600160401b03811115613d8057600080613d7d61303f565b50505b613c6f88828901613a99565b600060208284031215613da757600080613da461303f565b50505b6000613bf68484613a70565b600060208284031215613dce57600080613dcb61303f565b50505b6000613bf68484613a8a565b600060208284031215613df557600080613df261303f565b50505b81516001600160401b03811115613e1457600080613e1161303f565b50505b613bf684828501613afa565b600060208284031215613e3b57600080613e3861303f565b50505b6000613bf68484613a7f565b60008060408385031215613e6357600080613e6061303f565b50505b6000613e6f8585613a7f565b9250506020613e8085828601613886565b9150509250929050565b60008060408385031215613ea657600080613ea361303f565b50505b6000613eb28585613a7f565b9250506020613e8085828601613bb5565b60008060008060608587031215613ee257600080613edf61303f565b50505b6000613eee8787613a7f565b9450506020613eff87828801613bb5565b93505060408501356001600160401b03811115613f2457600080613f2161303f565b50505b613f3087828801613b52565b95989497509550505050565b600080600080600060a08688031215613f5d57600080613f5a61303f565b50505b6000613f698888613a7f565b9550506020613f7a88828901613bb5565b9450506040613c4d88828901613bb5565b600060208284031215613fa657600080613fa361303f565b50505b6000613bf68484613bc0565b6000613fbe8383613fed565b505060200190565b6000612de3838361418f565b6000613fbe8383614175565b613fe78161563b565b82525050565b613fe781615603565b6000614001826155f0565b61400b81856155fa565b9350614016836155d9565b8060005b8381101561404457815161402e8882613fb2565b9750614039836155d9565b92505060010161401a565b509495945050505050565b600061405a826155f0565b61406481856155fa565b935083602082028501614076856155d9565b8060005b858110156140b057848403895281516140938582613fc6565b945061409e836155d9565b60209a909a019992505060010161407a565b5091979650505050505050565b60006140c8826155f0565b6140d281856155fa565b9350836020820285016140e4856155d9565b8060005b858110156140b057848403895281516141018582613fc6565b945061410c836155d9565b60209a909a01999250506001016140e8565b6000614129826155f0565b61413381856155fa565b935061413e836155d9565b8060005b838110156140445781516141568882613fd2565b9750614161836155d9565b925050600101614142565b613fe78161560e565b613fe781612b0c565b613fe761418a82612b0c565b612b0c565b600061419a826155f0565b6141a481856155fa565b93506141b481856020860161566f565b6141bd8161569b565b9093019392505050565b6000816141d26130aa565b6001811680156141e9576001811461420f57614256565b607f60028304166141fa81876155fa565b60ff1984168152955050602085019250614256565b6002820461421d81876155fa565b9550614228856155df565b60005b8281101561424f578161423c6130aa565b888201526001919091019060200161422b565b8701945050505b505092915050565b613fe781615642565b613fe78161564d565b600061427c83856155fa565b9350614289838584615663565b6141bd8361569b565b60008161429d6130aa565b6001811680156141e957600181146142b457614256565b600282046142c281876155fa565b95506142cd856155df565b60005b8281101561424f57816142e16130aa565b88820152600191909101906020016142d0565b60006143016032836155fa565b60008051602061570e83398151915281527120696e76616c696420766f7465207479706560701b602082015260400192915050565b6000614343602883611399565b7f42616c6c6f742875696e743235362070726f706f73616c49642c75696e743820815267737570706f72742960c01b602082015260280192915050565b600061438d6033836155fa565b7f476f7665726e6f72427261766f3a3a696e697469616c697a653a2063616e206f8152726e6c7920696e697469616c697a65206f6e636560681b602082015260400192915050565b60006143e2602a836155fa565b7f476f7665726e6f72427261766f3a5f73657450656e64696e6741646d696e3a2081526961646d696e206f6e6c7960b01b602082015260400192915050565b600061442e6055836155fa565b7f476f7665726e6f72427261766f3a3a71756575654f72526576657274496e746581527f726e616c3a206964656e746963616c2070726f706f73616c20616374696f6e20602082015274616c7265616479207175657565642061742065746160581b604082015260600192915050565b60006144ab602b836155fa565b6000805160206157ce83398151915281526a2061646d696e206f6e6c7960a81b602082015260400192915050565b60006144e66033836155fa565b60008051602061572e83398151915281527269642074696d656c6f636b206164647265737360681b602082015260400192915050565b6000614529602a836155fa565b6000805160206157ae83398151915281526961646d696e206f6e6c7960b01b602082015260400192915050565b60006145636031836155fa565b7f476f7665726e6f72427261766f3a3a70726f706f73653a20476f7665726e6f7281527020427261766f206e6f742061637469766560781b602082015260400192915050565b60006145b6600283611399565b61190160f01b815260020192915050565b60006145d46036836155fa565b6000805160206157ce833981519152815275081a5b9d985b1a59081d9bdd1a5b99c81c195c9a5bd960521b602082015260400192915050565b600061461a6031836155fa565b60008051602061570e833981519152815270081d9bdd1a5b99c81a5cc818db1bdcd959607a1b602082015260400192915050565b600061465b6034836155fa565b60008051602061570e833981519152815273081d9bdd195c88185b1c9958591e481d9bdd195960621b602082015260400192915050565b600061469f6034836155fa565b6000805160206157ae833981519152815273696e76616c696420766f74696e672064656c617960601b602082015260400192915050565b60006146e36035836155fa565b60008051602061572e8339815191528152741a59081c1c9bdc1bdcd85b081d1a1c995cda1bdb19605a1b602082015260400192915050565b60006147286045836155fa565b7f476f7665726e6f72427261766f3a3a657865637574653a2070726f706f73616c81527f2063616e206f6e6c7920626520657865637574656420696620697420697320716020820152641d595d595960da1b604082015260600192915050565b6000614795602f836155fa565b7f476f7665726e6f72427261766f3a3a63617374566f746542795369673a20696e81526e76616c6964207369676e617475726560881b602082015260400192915050565b60006147e6602f836155fa565b60008051602061572e83398151915281526e696420766f74696e672064656c617960881b602082015260400192915050565b60006148256044836155fa565b7f476f7665726e6f72427261766f3a3a70726f706f73653a2070726f706f73616c81527f2066756e6374696f6e20696e666f726d6174696f6e206172697479206d69736d6020820152630c2e8c6d60e31b604082015260600192915050565b60006148916025836155fa565b7f476f7665726e6f72427261766f3a3a696e697469616c697a653a2061646d696e815264206f6e6c7960d81b602082015260400192915050565b60006148d86040836155fa565b6000805160206156ee83398151915281527f686f6c643a20696e76616c69642070726f706f73616c207468726573686f6c64602082015260400192915050565b60006149256044836155fa565b7f476f7665726e6f72427261766f3a3a71756575653a2070726f706f73616c206381527f616e206f6e6c79206265207175657565642069662069742069732073756363656020820152631959195960e21b604082015260600192915050565b60006149916011836155fa565b706164646974696f6e206f766572666c6f7760781b815260200192915050565b60006149be604383611399565b7f454950373132446f6d61696e28737472696e67206e616d652c75696e7432353681527f20636861696e49642c6164647265737320766572696679696e67436f6e74726160208201526263742960e81b604082015260430192915050565b6000614a296030836155fa565b7f476f7665726e6f72427261766f3a3a5f696e6974696174653a2063616e206f6e81526f6c7920696e697469617465206f6e636560801b602082015260400192915050565b6000614a7b602c836155fa565b7f476f7665726e6f72427261766f3a3a70726f706f73653a206d7573742070726f81526b7669646520616374696f6e7360a01b602082015260400192915050565b6000614ac9602e836155fa565b7f476f7665726e6f72427261766f3a5f61636365707441646d696e3a2070656e6481526d696e672061646d696e206f6e6c7960901b602082015260400192915050565b6000614b19602f836155fa565b60008051602061572e83398151915281526e696420636f6d70206164647265737360881b602082015260400192915050565b6000614b58602f836155fa565b7f476f7665726e6f72427261766f3a3a63616e63656c3a2070726f706f7365722081526e18589bdd99481d1a1c995cda1bdb19608a1b602082015260400192915050565b6000614ba96028836155fa565b7f476f7665726e6f72427261766f3a3a70726f706f73653a20746f6f206d616e7981526720616374696f6e7360c01b602082015260400192915050565b6000614bf36059836155fa565b60008051602061574e833981519152815260008051602061576e83398151915260208201527808185b1c9958591e481c195b991a5b99c81c1c9bdc1bdcd85b603a1b604082015260600192915050565b6000614c506058836155fa565b60008051602061574e833981519152815260008051602061576e83398151915260208201527708185b1c9958591e481858dd1a5d99481c1c9bdc1bdcd85b60421b604082015260600192915050565b60006126976000836155fa565b6000614cb96024836155fa565b7f476f7665726e6f72427261766f3a3a5f696e6974696174653a2061646d696e208152636f6e6c7960e01b602082015260400192915050565b6000614cff603f836155fa565b7f476f7665726e6f72427261766f3a3a70726f706f73653a2070726f706f73657281527f20766f7465732062656c6f772070726f706f73616c207468726573686f6c6400602082015260400192915050565b6000614d5e6036836155fa565b7f476f7665726e6f72427261766f3a3a63616e63656c3a2063616e6e6f742063618152751b98d95b08195e1958dd5d1959081c1c9bdc1bdcd85b60521b602082015260400192915050565b6000614db66030836155fa565b6000805160206156ee83398151915281526f686f6c643a2061646d696e206f6e6c7960801b602082015260400192915050565b6000614df66029836155fa565b7f476f7665726e6f72427261766f3a3a73746174653a20696e76616c69642070728152681bdc1bdcd85b081a5960ba1b602082015260400192915050565b6000614e416030836155fa565b60008051602061572e83398151915281526f1a59081d9bdd1a5b99c81c195c9a5bd960821b602082015260400192915050565b6000614e816015836155fa565b747375627472616374696f6e20756e646572666c6f7760581b815260200192915050565b606082018151614eb5848261416c565b506020820151614ec86020850182614edb565b5060408201516119316040850182614eed565b613fe781615629565b613fe781615658565b613fe78161562f565b600061269782614336565b6000614f0c826145a9565b9150614f18828561417e565b602082019150614f28828461417e565b5060200192915050565b6000612697826149b1565b602081016126978284613fed565b60408101614f598285613fde565b612de36020830184614175565b60408101614f748285613fed565b612de36020830184613fed565b60408101614f598285613fed565b60a08101614f9d8288613fed565b614faa6020830187614175565b8181036040830152614fbc818661418f565b90508181036060830152614fd0818561418f565b9050614fdf6080830184614175565b9695505050505050565b60a08101614ff78288613fed565b6150046020830187614175565b81810360408301526150168186614292565b90508181036060830152614fd081856141c7565b6080808252810161503b8187613ff6565b9050818103602083015261504f818661411e565b9050818103604083015261506381856140bd565b90508181036060830152614fdf818461404f565b602081016126978284614175565b608081016150938287614175565b6150a06020830186614175565b6150ad6040830185614175565b6122ae6060830184613fed565b606081016150c88286614175565b6150d56020830185614175565b613bf66040830184614edb565b608081016150f08287614175565b6150fd6020830186614edb565b61510a6040830185614175565b6122ae6060830184614175565b60208101612697828461425e565b602081016126978284614267565b60208082528101612de3818461418f565b60208082528101612697816142f4565b6020808252810161269781614380565b60208082528101612697816143d5565b6020808252810161269781614421565b602080825281016126978161449e565b60208082528101612697816144d9565b602080825281016126978161451c565b6020808252810161269781614556565b60208082528101612697816145c7565b602080825281016126978161460d565b602080825281016126978161464e565b6020808252810161269781614692565b60208082528101612697816146d6565b602080825281016126978161471b565b6020808252810161269781614788565b60208082528101612697816147d9565b6020808252810161269781614818565b6020808252810161269781614884565b60208082528101612697816148cb565b6020808252810161269781614918565b6020808252810161269781614984565b6020808252810161269781614a1c565b6020808252810161269781614a6e565b6020808252810161269781614abc565b6020808252810161269781614b0c565b6020808252810161269781614b4b565b6020808252810161269781614b9c565b6020808252810161269781614be6565b6020808252810161269781614c43565b6020808252810161269781614cac565b6020808252810161269781614cf2565b6020808252810161269781614d51565b6020808252810161269781614da9565b6020808252810161269781614de9565b6020808252810161269781614e34565b6020808252810161269781614e74565b606081016126978284614ea5565b61012081016153a1828c614175565b6153ae602083018b613fde565b81810360408301526153c0818a613ff6565b905081810360608301526153d4818961411e565b905081810360808301526153e881886140bd565b905081810360a08301526153fc818761404f565b905061540b60c0830186614175565b61541860e0830185614175565b81810361010083015261542b818461418f565b9b9a5050505050505050505050565b6101408101615449828d614175565b615456602083018c613fed565b615463604083018b614175565b615470606083018a614175565b61547d6080830189614175565b61548a60a0830188614175565b61549760c0830187614175565b6154a460e0830186614175565b6154b261010083018561416c565b61542b61012083018461416c565b60408101614f598285614175565b608081016154dc8288614175565b6154e96020830187614edb565b6154f66040830186614ee4565b8181036060830152615509818486614270565b979650505050505050565b608081016155228286614175565b61552f6020830185614edb565b61553c6040830184614ee4565b81810360608301526122ae81614c9f565b600060405190508181018181106001600160401b03821117156155785760008061557561303f565b50505b604052919050565b60006001600160401b0382111561559f5760008061559c61303f565b50505b5060209081020190565b60006001600160401b038211156155c8576000806155c561303f565b50505b506020601f91909101601f19160190565b60200190565b600081815281906020902092915050565b6000815192915050565b90815260200190565b60006126978261561d565b151590565b80611399816156a5565b6001600160a01b031690565b60ff1690565b6001600160601b031690565b6000612697825b600061269782615603565b600061269782615613565b60006126978261562f565b82818337506000910152565b60005b8381101561568a578082015183820152602001615672565b838111156119315750506000910152565b601f01601f191690565b6008811061388357fe5b6156b881615603565b81146138835760008061310561303f565b6156b88161560e565b6156b881612b0c565b6156b881615629565b6156b88161562f56fe476f7665726e6f72427261766f3a3a5f73657450726f706f73616c5468726573476f7665726e6f72427261766f3a3a63617374566f7465496e7465726e616c3a476f7665726e6f72427261766f3a3a696e697469616c697a653a20696e76616c476f7665726e6f72427261766f3a3a70726f706f73653a206f6e65206c6976652070726f706f73616c207065722070726f706f7365722c20666f756e6420616eca4f2f25d0898edd99413412fb94012f9e54ec8142f9b093e7720646a95b16a9476f7665726e6f72427261766f3a3a5f736574566f74696e6744656c61793a20476f7665726e6f72427261766f3a3a5f736574566f74696e67506572696f643ab8e138887d0aa13bab447e82de9d5c1777041ecd21ca36ba824ff1e6c07ddda4",
  "deployedBytecode": "0x6080604052600436106101cb5760003560e01c8063013cf08b146101d957806302a251a31461022157806306fdde031461024c5780630ea2d98c14610277578063109d0af8146102a257806317977c61146102cd57806317ba1b8b146102f65780631dfb1b5a1461031f57806320606b7014610348578063215809ca1461036657806324bc1a641461038457806325fd935a146103a257806326782247146103c0578063328dd982146103eb5780633932abb1146104245780633bccf4fd146104425780633e4f49e61461046b57806340e58ee5146104a157806356781388146104ca5780635c60da1b146104f3578063791f5d23146105115780637b3c71d31461052f5780637bdbe4d014610558578063878f148214610576578063a64e024a14610594578063b1126263146105b2578063b58131b0146105d0578063b71d1a0c146105ee578063d13f90b414610617578063d33219b414610640578063da35c6641461065e578063da95691a1461067c578063ddf0b009146106a5578063deaaa7cc146106ce578063e23a9a52146106ec578063e48083fe14610366578063e9c714f214610722578063f851a44014610740578063fc4eee421461075e578063fe0d94c11461077c575b6000806101d661303f565b50505b3480156101ee576000806101eb61303f565b50505b506102026101fd366004613e20565b61078f565b6040516102189a9998979695949392919061543a565b60405180910390f35b3480156102365760008061023361303f565b50505b5061023f61084d565b6040516102189190615077565b3480156102615760008061025e61303f565b50505b5061026a61085a565b6040516102189190615133565b34801561028c5760008061028961303f565b50505b506102a061029b366004613e20565b61088b565b005b3480156102b7576000806102b461303f565b50505b506102c0610995565b6040516102189190615117565b3480156102e2576000806102df61303f565b50505b5061023f6102f1366004613bcf565b6109b4565b34801561030b5760008061030861303f565b50505b506102a061031a366004613e20565b6109cc565b3480156103345760008061033161303f565b50505b506102a0610343366004613e20565b610acc565b34801561035d5760008061035a61303f565b50505b5061023f610bbb565b34801561037b5760008061037861303f565b50505b5061023f610bd2565b3480156103995760008061039661303f565b50505b5061023f610bd7565b3480156103b7576000806103b461303f565b50505b5061023f610be5565b3480156103d5576000806103d261303f565b50505b506103de610bf3565b6040516102189190614f3d565b348015610400576000806103fd61303f565b50505b5061041461040f366004613e20565b610bff565b604051610218949392919061502a565b3480156104395760008061043661303f565b50505b5061023f610f25565b3480156104575760008061045461303f565b50505b506102a0610466366004613f3c565b610f2f565b3480156104805760008061047d61303f565b50505b5061049461048f366004613e20565b61115d565b6040516102189190615125565b3480156104b6576000806104b361303f565b50505b506102a06104c5366004613e20565b61139e565b3480156104df576000806104dc61303f565b50505b506102a06104ee366004613e8a565b61172b565b3480156105085760008061050561303f565b50505b506103de61177c565b3480156105265760008061052361303f565b50505b5061023f611788565b3480156105445760008061054161303f565b50505b506102a0610553366004613ec3565b611796565b34801561056d5760008061056a61303f565b50505b5061023f6117ed565b34801561058b5760008061058861303f565b50505b506102a06117f2565b3480156105a9576000806105a661303f565b50505b5061023f611937565b3480156105c7576000806105c461303f565b50505b5061023f61193e565b3480156105e5576000806105e261303f565b50505b5061023f611944565b3480156106035760008061060061303f565b50505b506102a0610612366004613bcf565b61194e565b34801561062c5760008061062961303f565b50505b506102a061063b366004613bfe565b611a28565b3480156106555760008061065261303f565b50505b506102c0611cc8565b3480156106735760008061067061303f565b50505b5061023f611cd4565b3480156106915760008061068e61303f565b50505b5061023f6106a0366004613c7c565b611cde565b3480156106ba576000806106b761303f565b50505b506102a06106c9366004613e20565b6122b7565b3480156106e3576000806106e061303f565b50505b5061023f6125f0565b348015610701576000806106fe61303f565b50505b50610715610710366004613e47565b6125fc565b6040516102189190615384565b3480156107375760008061073461303f565b50505b506102a061269d565b3480156107555760008061075261303f565b50505b506103de612878565b3480156107735760008061077061303f565b50505b5061023f612883565b6102a061078a366004613e20565b61288d565b600a6020528060005260406000209050806107a86130aa565b906000600182016107b76130aa565b906101000a90046001600160a01b031690806002016107d46130aa565b90806007016107e16130aa565b90806008016107ee6130aa565b90806009016107fb6130aa565b9080600a016108086130aa565b9080600b016108156130aa565b906000600c82016108246130aa565b906101000a900460ff169080600c0160019061083e6130aa565b906101000a900460ff1690508a565b60046108576130aa565b81565b604051604080820190526017815276436f6d706f756e6420476f7665726e6f7220427261766f60481b602082015281565b6000806108966130aa565b906101000a90046001600160a01b03166001600160a01b03165a6108b861310a565b6001600160a01b0316146108f05760405162461bcd60e51b81526004016108de90615184565b604051809103906108ed61303f565b50505b60018110158015610904575062013b008111155b6109325760405162461bcd60e51b8152600401610920906151c4565b6040518091039061092f61303f565b50505b6000600461093e6130aa565b90508180600461094c613150565b5050507f7e3f7f0708a84de9203036abaa450dccc85ad5ff52f78c170f3edb55cf5e882881600461097b6130aa565b6040516109899291906154c0565b60405180910390a15050565b600060096109a16130aa565b906101000a90046001600160a01b031681565b600b60205280600052604060002090506108576130aa565b6000806109d76130aa565b906101000a90046001600160a01b03166001600160a01b03165a6109f961310a565b6001600160a01b031614610a315760405162461bcd60e51b8152600401610a1f90615344565b60405180910390610a2e61303f565b50505b690a968163f0a57b4000008110158015610a55575069152d02c7e14af68000008111155b610a835760405162461bcd60e51b8152600401610a7190615264565b60405180910390610a8061303f565b50505b60006005610a8f6130aa565b905081806005610a9d613150565b5050507fccb45da8d5717e6c4544694297c4ba5cf151d455c9bb0ed4fc7a38411bc0546181600561097b6130aa565b600080610ad76130aa565b906101000a90046001600160a01b03166001600160a01b03165a610af961310a565b6001600160a01b031614610b315760405162461bcd60e51b8152600401610b1f906151a4565b60405180910390610b2e61303f565b50505b60018110158015610b445750619d808111155b610b725760405162461bcd60e51b8152600401610b60906151f4565b60405180910390610b6f61303f565b50505b60006003610b7e6130aa565b905081806003610b8c613150565b5050507fc565b045403dc03c2eea82b81a0465edad9e2e7fc4d97e11421c209da93d7a9381600361097b6130aa565b604051610bc790614f32565b604051809103902081565b600181565b6954b40b1f852bda00000081565b69152d02c7e14af680000081565b600060016109a16130aa565b6000818152600a602052606090819081908190604081209050806003018160040182600501836006018380610c326130aa565b806020026020016040519081016040528181529190602083018280610c556130aa565b8015610ca257602002820191906000526020600020905b600082610c776130aa565b906101000a90046001600160a01b03166001600160a01b031681526020019060010190808311610c6c575b505050505093508280610cb36130aa565b806020026020016040519081016040528181529190602083018280610cd66130aa565b8015610d0857602002820191906000526020600020905b81610cf66130aa565b81526020019060010190808311610ced575b505050505092508180610d196130aa565b8060200260200160405190810160405281815291906000602084015b82821015610e0c5783829060005260206000200180610d526130aa565b600181600116156101000203166002900480601f016020809104026020016040519081016040528181529190602083018280610d8c6130aa565b60018160011615610100020316600290048015610df85780601f10610dc6576101008083610db86130aa565b040283529160200191610df8565b820191906000526020600020905b81610ddd6130aa565b81529060010190602001808311610dd457829003601f168201915b505050505081526020019060010190610d35565b5050505091508080610e1c6130aa565b8060200260200160405190810160405281815291906000602084015b82821015610f0f5783829060005260206000200180610e556130aa565b600181600116156101000203166002900480601f016020809104026020016040519081016040528181529190602083018280610e8f6130aa565b60018160011615610100020316600290048015610efb5780601f10610ec9576101008083610ebb6130aa565b040283529160200191610efb565b820191906000526020600020905b81610ee06130aa565b81529060010190602001808311610ed757829003601f168201915b505050505081526020019060010190610e38565b5050505090509450945094509450509193509193565b60036108576130aa565b6000604051610f3d90614f32565b6040518091039020604051604080820190526017815276436f6d706f756e6420476f7665726e6f7220427261766f60481b602082015280519060200120610f82612afc565b5a63996d79a5598160e01b8152602081600483336000905af158601d01573d60011458600c01573d6000803e3d621234565260ea61109c528051925060005b6040811015610fd857600082820152602001610fc1565b505050604051602001610fee9493929190615085565b604051602081830303815290604052805190602001209050600060405161101490614ef6565b60405180910390208787604051602001611030939291906150ba565b6040516020818303038152906040528051906020012090506000828260405160200161105d929190614f01565b60405160208183030381529060405280519060200120905060006001828888886040516000815260200160405260405161109a94939291906150e2565b6020604051602081039080840390855a6110b261319e565b50505050501580156110d1573d6000803e3d60006110ce61303f565b50505b5050506020604051035190506001600160a01b0381166111155760405162461bcd60e51b815260040161110390615224565b6040518091039061111261303f565b50505b806001600160a01b03166000805160206157ee8339815191528a8a61113b858e8e612b0f565b60405161114a93929190615514565b60405180910390a2505050505050505050565b600081600761116a6130aa565b101580156111815750600661117d6130aa565b8210155b6111af5760405162461bcd60e51b815260040161119d90615354565b604051809103906111ac61303f565b50505b6000828152600a6020526040812090506000600c82016111cd6130aa565b906101000a900460ff16156111e6576002915050611399565b806007016111f26130aa565b5a6111fb61324e565b1161120a576000915050611399565b806008016112166130aa565b5a61121f61324e565b1161122e576001915050611399565b80600a0161123a6130aa565b816009016112466130aa565b11158061126757506954b40b1f852bda000000816009016112656130aa565b105b15611276576003915050611399565b806002016112826130aa565b611290576004915050611399565b6001600c820161129e6130aa565b906101000a900460ff16156112b7576007915050611399565b61137b816002016112c66130aa565b600060086112d26130aa565b906101000a90046001600160a01b03166001600160a01b031663c1a287e26040518163ffffffff1660e01b81526004016020604051808303818680611315613294565b15801561132a5760008061132761303f565b50505b505a61133461319e565b5050505050158015611353573d6000803e3d600061135061303f565b50505b50505050604051601f3d908101601f191682016040526113769190810190613db3565b612dea565b5a6113846132e0565b10611393576006915050611399565b60059150505b919050565b60076113a98261115d565b60078111156113b457fe5b14156113e45760405162461bcd60e51b81526004016113d290615334565b604051809103906113e161303f565b50505b6000818152600a6020526040812090506000600182016114026130aa565b906101000a90046001600160a01b03166001600160a01b03165a61142461310a565b6001600160a01b0316148061152e5750600561143e6130aa565b6000600961144a6130aa565b6001600160a01b036101009290920a90041663782d6fe160006001850161146f6130aa565b906101000a90046001600160a01b03166114925a61148b61324e565b6001612e27565b6040518363ffffffff1660e01b81526004016114af929190614f81565b60206040518083038186806114c2613294565b1580156114d7576000806114d461303f565b50505b505a6114e161319e565b5050505050158015611500573d6000803e3d60006114fd61303f565b50505b50505050604051601f3d908101601f191682016040526115239190810190613f8b565b6001600160601b0316105b61155c5760405162461bcd60e51b815260040161154a906152d4565b6040518091039061155961303f565b50505b6001600c8201818161156c6130aa565b8160ff02191690831515021790611581613150565b5060009150505b81600301806115956130aa565b90508110156116fb57600060086115aa6130aa565b906101000a90046001600160a01b03166001600160a01b031663591fcdfe8360030183816115d66130aa565b81106115de57fe5b906000526020600020016000906115f36130aa565b906101000a90046001600160a01b03168460040184816116116130aa565b811061161957fe5b9060005260206000200161162b6130aa565b8560050185816116396130aa565b811061164157fe5b906000526020600020018660060186816116596130aa565b811061166157fe5b90600052602060002001876002016116776130aa565b6040518663ffffffff1660e01b8152600401611697959493929190614fe9565b600060405180830381600087806116ac613294565b1580156116c1576000806116be61303f565b50505b505a6116cb613326565b5050505050501580156116eb573d6000803e3d60006116e861303f565b50505b5050600190920191506115889050565b507f789cf55be980739dad1d0699b93b58e806b51c9d96619bfa8fe0a28abaa7b30c826040516109899190615077565b5a61173461310a565b6001600160a01b03166000805160206157ee83398151915283836117615a61175a61310a565b8787612b0f565b60405161177093929190615514565b60405180910390a25050565b600060026109a16130aa565b690a968163f0a57b40000081565b5a61179f61310a565b6001600160a01b03166000805160206157ee83398151915285856117cc5a6117c561310a565b8989612b0f565b86866040516117df9594939291906154ce565b60405180910390a250505050565b600a81565b6000806117fd6130aa565b906101000a90046001600160a01b03166001600160a01b03165a61181f61310a565b6001600160a01b0316146118575760405162461bcd60e51b815260040161184590615314565b6040518091039061185461303f565b50505b60066118616130aa565b156118905760405162461bcd60e51b815260040161187e90615294565b6040518091039061188d61303f565b50505b600180600661189d613150565b50505060086000906118ad6130aa565b906101000a90046001600160a01b03166001600160a01b0316630e18b6816040518163ffffffff1660e01b8152600401600060405180830381600087806118f2613294565b1580156119075760008061190461303f565b50505b505a611911613326565b505050505050158015611931573d6000803e3d600061192e61303f565b50505b50505050565b62013b0081565b619d8081565b60056108576130aa565b6000806119596130aa565b906101000a90046001600160a01b03166001600160a01b03165a61197b61310a565b6001600160a01b0316146119b35760405162461bcd60e51b81526004016119a190615164565b604051809103906119b061303f565b50505b60008060016119c06130aa565b906101000a90046001600160a01b0316905081600160006101000a816119e46130aa565b816001600160a01b0302191690836001600160a01b0316021790611a06613150565b50505060008051602061578e8339815191528183604051610989929190614f66565b6000806008611a356130aa565b906101000a90046001600160a01b03166001600160a01b031614611a7d5760405162461bcd60e51b8152600401611a6b90615154565b60405180910390611a7a61303f565b50505b600080611a886130aa565b906101000a90046001600160a01b03166001600160a01b03165a611aaa61310a565b6001600160a01b031614611ae25760405162461bcd60e51b8152600401611ad090615254565b60405180910390611adf61303f565b50505b6001600160a01b038516611b1a5760405162461bcd60e51b8152600401611b0890615194565b60405180910390611b1761303f565b50505b6001600160a01b038416611b525760405162461bcd60e51b8152600401611b40906152c4565b60405180910390611b4f61303f565b50505b60018310158015611b66575062013b008311155b611b945760405162461bcd60e51b8152600401611b8290615364565b60405180910390611b9161303f565b50505b60018210158015611ba75750619d808211155b611bd55760405162461bcd60e51b8152600401611bc390615234565b60405180910390611bd261303f565b50505b690a968163f0a57b4000008110158015611bf9575069152d02c7e14af68000008111155b611c275760405162461bcd60e51b8152600401611c1590615204565b60405180910390611c2461303f565b50505b846008600181611c356130aa565b816001600160a01b0302191690836001600160a01b0316021790611c57613150565b50505083600960006101000a81611c6c6130aa565b816001600160a01b0302191690836001600160a01b0316021790611c8e613150565b5050508260048190611c9e613150565b5050508160038190611cae613150565b5050508060058190611cbe613150565b5050505050505050565b600060086109a16130aa565b60076108576130aa565b60006006611cea6130aa565b611d185760405162461bcd60e51b8152600401611d06906151b4565b60405180910390611d1561303f565b50505b6005611d226130aa565b60006009611d2e6130aa565b906101000a90046001600160a01b03166001600160a01b031663782d6fe15a611d5561310a565b611d615a61148b61324e565b6040518363ffffffff1660e01b8152600401611d7e929190614f4b565b6020604051808303818680611d91613294565b158015611da657600080611da361303f565b50505b505a611db061319e565b5050505050158015611dcf573d6000803e3d6000611dcc61303f565b50505b50505050604051601f3d908101601f19168201604052611df29190810190613f8b565b6001600160601b031611611e2a5760405162461bcd60e51b8152600401611e1890615324565b60405180910390611e2761303f565b50505b84518651148015611e3c575083518651145b8015611e49575082518651145b611e775760405162461bcd60e51b8152600401611e6590615244565b60405180910390611e7461303f565b50505b8551611ea75760405162461bcd60e51b8152600401611e95906152a4565b60405180910390611ea461303f565b50505b600a86511115611edb5760405162461bcd60e51b8152600401611ec9906152e4565b60405180910390611ed861303f565b50505b6000600b60005a611eea61310a565b6001600160a01b03166001600160a01b03168152602001908152602001600020611f126130aa565b90508015611fa5576000611f258261115d565b90506001816007811115611f3557fe5b1415611f655760405162461bcd60e51b8152600401611f5390615304565b60405180910390611f6261303f565b50505b6000816007811115611f7357fe5b1415611fa35760405162461bcd60e51b8152600401611f91906152f4565b60405180910390611fa061303f565b50505b505b6000611fbd5a611fb361324e565b60036113766130aa565b90506000611fcf8260046113766130aa565b90506007600081611fde6130aa565b91600183019150611fed613150565b505050611ff86133d6565b604051806101c00160405280600761200e6130aa565b81526020015a61201c61310a565b6001600160a01b03168152602001600081526020018b81526020018a815260200189815260200188815260200184815260200183815260200160008152602001600081526020016000815260200160001515815260200160001515815250905080600a60008360000151815260200190815260200160002081518161209f613150565b50506020820151600180830190816120b56130aa565b816001600160a01b0302191690836001600160a01b03160217906120d7613150565b5050506040820151816002016120eb613150565b5050606082015181600301908051612107929160200190613452565b506080820151816004019080516121229291602001906134dc565b5060a08201518160050190805161213d92916020019061353c565b5060c0820151816006019080516121589291602001906135a4565b5060e08201518160070161216a613150565b50506101008201518160080161217e613150565b505061012082015181600901612192613150565b505061014082015181600a016121a6613150565b505061016082015181600b016121ba613150565b5050610180820151600c82016001816121d16130aa565b8160ff021916908315150217906121e6613150565b5050506101a0820151600c8201610100816121ff6130aa565b8160ff02191690831515021790612214613150565b5084935050505051600b600083602001516001600160a01b03166001600160a01b03168152602001908152602001600020819061224f613150565b5050507f7d84a6263ae0d98d3329bd7b46bb4e8d6f98cd35a7adb45c274c8b7fd5ebd5e081600001515a61228161310a565b8c8c8c8c89898e60405161229d99989796959493929190615392565b60405180910390a180519450505050505b95945050505050565b60046122c28261115d565b60078111156122cd57fe5b146122fc5760405162461bcd60e51b81526004016122ea90615274565b604051809103906122f961303f565b50505b6000818152600a60205260408120905060006123695a61231a6132e0565b600060086123266130aa565b906101000a90046001600160a01b03166001600160a01b0316636a42b8f86040518163ffffffff1660e01b81526004016020604051808303818680611315613294565b905060005b826003018061237b6130aa565b90508110156125a0576125988360030182816123956130aa565b811061239d57fe5b906000526020600020016000906123b26130aa565b906101000a90046001600160a01b03168460040183816123d06130aa565b81106123d857fe5b906000526020600020016123ea6130aa565b8560050184816123f86130aa565b811061240057fe5b90600052602060002001806124136130aa565b600181600116156101000203166002900480601f01602080910402602001604051908101604052818152919060208301828061244d6130aa565b600181600116156101000203166002900480156124b95780601f106124875761010080836124796130aa565b0402835291602001916124b9565b820191906000526020600020905b8161249e6130aa565b8152906001019060200180831161249557829003601f168201915b50505050508660060185816124cc6130aa565b81106124d457fe5b90600052602060002001806124e76130aa565b600181600116156101000203166002900480601f0160208091040260200160405190810160405281815291906020830182806125216130aa565b6001816001161561010002031660029004801561258d5780601f1061255b57610100808361254d6130aa565b04028352916020019161258d565b820191906000526020600020905b816125726130aa565b8152906001019060200180831161256957829003601f168201915b505050505086612e61565b60010161236e565b508080600284016125af613150565b5050507f9a2e42fd6722813d69113e7d0079d3d940171428df7373df9c7f7617cfda289283826040516125e39291906154c0565b60405180910390a1505050565b604051610bc790614ef6565b61260461360c565b6000838152600a602052604090206001600160a01b0383166000908152600d91909101602052604090206040516060810160405290816000826126456130aa565b60ff6101009290920a900416151581526020016001826126636130aa565b60ff6101009290920a900416815260200160028261267f6130aa565b6001600160601b036101009290920a90041690525090505b92915050565b600060016126a96130aa565b906101000a90046001600160a01b03166001600160a01b03165a6126cb61310a565b6001600160a01b03161480156126f3575060005a6126e761310a565b6001600160a01b031614155b6127215760405162461bcd60e51b815260040161270f906152b4565b6040518091039061271e61303f565b50505b6000808061272d6130aa565b906101000a90046001600160a01b031690506000600160009061274e6130aa565b906101000a90046001600160a01b03169050600160009061276d6130aa565b906101000a90046001600160a01b03166000806101000a8161278d6130aa565b816001600160a01b0302191690836001600160a01b03160217906127af613150565b5050506000600160006101000a816127c56130aa565b816001600160a01b0302191690836001600160a01b03160217906127e7613150565b5050507ff9ffabca9c8276e99321725bcb43fb076a6c66a54b7f21c4e8146d8519b417dc82600080906128186130aa565b906101000a90046001600160a01b0316604051612836929190614f66565b60405180910390a160008051602061578e833981519152816000600161285a6130aa565b906101000a90046001600160a01b0316604051610989929190614f66565b6000806109a16130aa565b60066108576130aa565b60056128988261115d565b60078111156128a357fe5b146128d25760405162461bcd60e51b81526004016128c090615214565b604051809103906128cf61303f565b50505b6000818152600a6020526040812090506001600c8201610100816128f46130aa565b8160ff02191690831515021790612909613150565b5060009150505b816003018061291d6130aa565b9050811015612acc57600060086129326130aa565b906101000a90046001600160a01b03166001600160a01b0316630825f38f83600401838161295e6130aa565b811061296657fe5b906000526020600020016129786130aa565b8460030184816129866130aa565b811061298e57fe5b906000526020600020016000906129a36130aa565b906101000a90046001600160a01b03168560040185816129c16130aa565b81106129c957fe5b906000526020600020016129db6130aa565b8660050186816129e96130aa565b81106129f157fe5b90600052602060002001876006018781612a096130aa565b8110612a1157fe5b9060005260206000200188600201612a276130aa565b6040518763ffffffff1660e01b8152600401612a47959493929190614fe9565b600060405180830381858880612a5b613294565b158015612a7057600080612a6d61303f565b50505b505a612a7a613326565b505050505050158015612a9a573d6000803e3d6000612a9761303f565b50505b50505050506040513d6000823e601f3d908101601f19168201604052612ac39190810190613dda565b50600101612910565b507f712ae1383f79ac853f8d882153778e0260ef8f03b504e2866e0593e04d2b291f826040516109899190615077565b6000805a612b0861362b565b9150505b90565b60006001612b1c8461115d565b6007811115612b2757fe5b14612b565760405162461bcd60e51b8152600401612b44906151d4565b60405180910390612b5361303f565b50505b60028260ff161115612b8c5760405162461bcd60e51b8152600401612b7a90615144565b60405180910390612b8961303f565b50505b6000838152600a602052604081206001600160a01b0386166000908152600d8201602052909150604081209050600081612bc46130aa565b60ff6101009290920a90041615612bff5760405162461bcd60e51b8152600401612bed906151e4565b60405180910390612bfc61303f565b50505b6000806009612c0c6130aa565b906101000a90046001600160a01b03166001600160a01b031663782d6fe18885600701612c376130aa565b6040518363ffffffff1660e01b8152600401612c54929190614f81565b6020604051808303818680612c67613294565b158015612c7c57600080612c7961303f565b50505b505a612c8661319e565b5050505050158015612ca5573d6000803e3d6000612ca261303f565b50505b50505050604051601f3d908101601f19168201604052612cc89190810190613f8b565b905060ff8516612d0557612cf083600a01612ce16130aa565b826001600160601b0316612dea565b80600a8501612cfd613150565b505050612d59565b8460ff1660011415612d2d57612d2083600901612ce16130aa565b8060098501612cfd613150565b8460ff1660021415612d5957612d4883600b01612ce16130aa565b80600b8501612d55613150565b5050505b6001828181612d666130aa565b8160ff02191690831515021790612d7b613150565b5086915083905061010081612d8e6130aa565b8160ff021916908360ff16021790612da4613150565b508291508390506201000081612db86130aa565b816001600160601b0302191690836001600160601b0316021790612dda613150565b50919450505050505b9392505050565b600082820183811015612de35760405162461bcd60e51b8152600401612e0f90615284565b60405180910390612e1e61303f565b50509392505050565b600082821115612e5b5760405162461bcd60e51b8152600401612e4990615374565b60405180910390612e5861303f565b50505b50900390565b60006008612e6d6130aa565b906101000a90046001600160a01b03166001600160a01b031663f2b065378686868686604051602001612ea4959493929190614f8f565b604051602081830303815290604052805190602001206040518263ffffffff1660e01b8152600401612ed69190615077565b6020604051808303818680612ee9613294565b158015612efe57600080612efb61303f565b50505b505a612f0861319e565b5050505050158015612f27573d6000803e3d6000612f2461303f565b50505b50505050604051601f3d908101601f19168201604052612f4a9190810190613d8c565b15612f795760405162461bcd60e51b8152600401612f6790615174565b60405180910390612f7661303f565b50505b60006008612f856130aa565b906101000a90046001600160a01b03166001600160a01b0316633a66f90186868686866040518663ffffffff1660e01b8152600401612fc8959493929190614f8f565b60206040518083038160008780612fdd613294565b158015612ff257600080612fef61303f565b50505b505a612ffc613326565b50505050505015801561301c573d6000803e3d600061301961303f565b50505b50505050604051601f3d908101601f1916820160405261192e9190810190613db3565b632a2a7adb598160e01b8152600481016020815285602082015260005b8681101561307757808601518282016040015260200161305c565b506020828760640184336000905af158601d01573d60011458600c01573d6000803e3d621234565260ea61109c52505050565b6303daa959598160e01b8152836004820152602081602483336000905af158601d01573d60011458600c01573d6000803e3d621234565260ea61109c528051935060005b6040811015613105576000828201526020016130ee565b505050565b6373509064598160e01b8152602081600483336000905af158601d01573d60011458600c01573d6000803e3d621234565260ea61109c52805160008252935060206130ee565b6322bd64c0598160e01b8152836004820152846024820152600081604483336000905af158601d01573d60011458600c01573d6000803e3d621234565260ea61109c526000815260206130ee565b638540661f598160e01b8152836004820152846024820152606060448201528660648201526084810160005b888110156131e25780880151828201526020016131ca565b506060828960a40184336000905af158601d01573d60011458600c01573d6000803e3d621234565260ea61109c52815160408301513d6000853e8b8b82606087013350600060045af15059845b81811015613243576000815260200161322f565b50919b505050505050565b635a98c361598160e01b8152602081600483336000905af158601d01573d60011458600c01573d6000803e3d621234565260ea61109c52805160008252935060206130ee565b638435035b598160e01b8152836004820152602081602483336000905af158601d01573d60011458600c01573d6000803e3d621234565260ea61109c52805160008252935060206130ee565b63bdbf8c36598160e01b8152602081600483336000905af158601d01573d60011458600c01573d6000803e3d621234565260ea61109c52805160008252935060206130ee565b6385979f76598160e01b8152836004820152846024820152606060448201528760648201526084810160005b8981101561336a578089015182820152602001613352565b506060828a60a40184336000905af158601d01573d60011458600c01573d6000803e3d621234565260ea61109c52815160408301513d6000853e8c8c82606087013350600060045af15059845b818110156133cb57600081526020016133b7565b50919c505050505050565b604051806101c001604052806000815260200160006001600160a01b03168152602001600081526020016060815260200160608152602001606081526020016060815260200160008152602001600081526020016000815260200160008152602001600081526020016000151581526020016000151581525090565b828061345c6130aa565b8282613466613150565b50509060005260206000209081019282156134cc579160200282015b828111156134cc578251826001816134986130aa565b816001600160a01b0302191690836001600160a01b03160217906134ba613150565b50505091602001919060010190613482565b506134d8929150613671565b5090565b82806134e66130aa565b82826134f0613150565b5050906000526020600020908101928215613530579160200282015b828111156135305782518261351f613150565b50509160200191906001019061350c565b506134d89291506136ad565b82806135466130aa565b8282613550613150565b5050906000526020600020908101928215613598579160200282015b82811115613598578251829080516135889291602001906136d2565b509160200191906001019061356c565b506134d8929150613762565b82806135ae6130aa565b82826135b8613150565b5050906000526020600020908101928215613600579160200282015b82811115613600578251829080516135f0929160200190613785565b50916020019190600101906135d4565b506134d892915061380e565b6040516060810160409081526000808352602083018190529082015290565b6390580256598160e01b8152602081600483336000905af158601d01573d60011458600c01573d6000803e3d621234565260ea61109c52805160008252935060206130ee565b612b0c91905b808211156134d85760008160018161368d6130aa565b906001600160a01b03021916906136a2613150565b505050600101613677565b612b0c91905b808211156134d857600080826136c7613150565b5050506001016136b3565b82806136dc6130aa565b600181600116156101000203166002900490600052602060002090601f016020900481019282601f1061372357805160ff1916838001178561371c613150565b5050613530565b82800160010185613732613150565b50508215613530579182015b8281111561353057825182613751613150565b50509160200191906001019061373e565b612b0c91905b808211156134d857600061377c8282613831565b50600101613768565b828061378f6130aa565b600181600116156101000203166002900490600052602060002090601f016020900481019282601f106137cf57805160ff1916838001178561371c613150565b828001600101856137de613150565b50508215613530579182015b82811115613530578251826137fd613150565b5050916020019190600101906137ea565b612b0c91905b808211156134d85760006138288282613831565b50600101613814565b508061383b6130aa565b6001816001161561010002031660029004600082613857613150565b505080601f106138675750613883565b601f0160209004906000526020600020613883918101906136ad565b50565b8035612697816156af565b600082601f8301126138ab576000806138a861303f565b50505b81356138be6138b982615580565b61554d565b915081818352602084019350602081019050838560208402820111156138ec576000806138e961303f565b50505b60005b8381101561391857816139028882613886565b84525060209283019291909101906001016138ef565b5050505092915050565b600082601f83011261393c5760008061393961303f565b50505b813561394a6138b982615580565b81815260209384019390925082018360005b8381101561391857813586016139728882613a99565b845250602092830192919091019060010161395c565b600082601f8301126139a25760008061399f61303f565b50505b81356139b06138b982615580565b81815260209384019390925082018360005b8381101561391857813586016139d88882613a99565b84525060209283019291909101906001016139c2565b600082601f830112613a0857600080613a0561303f565b50505b8135613a166138b982615580565b91508181835260208401935060208101905083856020840282011115613a4457600080613a4161303f565b50505b60005b838110156139185781613a5a8882613a7f565b8452506020928301929190910190600101613a47565b600081519050612697816156c9565b8035612697816156d2565b600081519050612697816156d2565b600082601f830112613ab357600080613ab061303f565b50505b8135613ac16138b9826155a9565b91508082526020830160208301858383011115613ae657600080613ae361303f565b50505b613af1838284615663565b50505092915050565b600082601f830112613b1457600080613b1161303f565b50505b8151613b226138b9826155a9565b91508082526020830160208301858383011115613b4757600080613b4461303f565b50505b613af183828461566f565b60008083601f840112613b6d57600080613b6a61303f565b50505b5081356001600160401b03811115613b8d57600080613b8a61303f565b50505b602083019150836001820283011115613bae57600080613bab61303f565b50505b9250929050565b8035612697816156db565b600081519050612697816156e4565b600060208284031215613bea57600080613be761303f565b50505b6000613bf68484613886565b949350505050565b600080600080600060a08688031215613c1f57600080613c1c61303f565b50505b6000613c2b8888613886565b9550506020613c3c88828901613886565b9450506040613c4d88828901613a7f565b9350506060613c5e88828901613a7f565b9250506080613c6f88828901613a7f565b9150509295509295909350565b600080600080600060a08688031215613c9d57600080613c9a61303f565b50505b85356001600160401b03811115613cbc57600080613cb961303f565b50505b613cc888828901613891565b95505060208601356001600160401b03811115613ced57600080613cea61303f565b50505b613cf9888289016139ee565b94505060408601356001600160401b03811115613d1e57600080613d1b61303f565b50505b613d2a88828901613988565b93505060608601356001600160401b03811115613d4f57600080613d4c61303f565b50505b613d5b88828901613922565b92505060808601356001600160401b03811115613d8057600080613d7d61303f565b50505b613c6f88828901613a99565b600060208284031215613da757600080613da461303f565b50505b6000613bf68484613a70565b600060208284031215613dce57600080613dcb61303f565b50505b6000613bf68484613a8a565b600060208284031215613df557600080613df261303f565b50505b81516001600160401b03811115613e1457600080613e1161303f565b50505b613bf684828501613afa565b600060208284031215613e3b57600080613e3861303f565b50505b6000613bf68484613a7f565b60008060408385031215613e6357600080613e6061303f565b50505b6000613e6f8585613a7f565b9250506020613e8085828601613886565b9150509250929050565b60008060408385031215613ea657600080613ea361303f565b50505b6000613eb28585613a7f565b9250506020613e8085828601613bb5565b60008060008060608587031215613ee257600080613edf61303f565b50505b6000613eee8787613a7f565b9450506020613eff87828801613bb5565b93505060408501356001600160401b03811115613f2457600080613f2161303f565b50505b613f3087828801613b52565b95989497509550505050565b600080600080600060a08688031215613f5d57600080613f5a61303f565b50505b6000613f698888613a7f565b9550506020613f7a88828901613bb5565b9450506040613c4d88828901613bb5565b600060208284031215613fa657600080613fa361303f565b50505b6000613bf68484613bc0565b6000613fbe8383613fed565b505060200190565b6000612de3838361418f565b6000613fbe8383614175565b613fe78161563b565b82525050565b613fe781615603565b6000614001826155f0565b61400b81856155fa565b9350614016836155d9565b8060005b8381101561404457815161402e8882613fb2565b9750614039836155d9565b92505060010161401a565b509495945050505050565b600061405a826155f0565b61406481856155fa565b935083602082028501614076856155d9565b8060005b858110156140b057848403895281516140938582613fc6565b945061409e836155d9565b60209a909a019992505060010161407a565b5091979650505050505050565b60006140c8826155f0565b6140d281856155fa565b9350836020820285016140e4856155d9565b8060005b858110156140b057848403895281516141018582613fc6565b945061410c836155d9565b60209a909a01999250506001016140e8565b6000614129826155f0565b61413381856155fa565b935061413e836155d9565b8060005b838110156140445781516141568882613fd2565b9750614161836155d9565b925050600101614142565b613fe78161560e565b613fe781612b0c565b613fe761418a82612b0c565b612b0c565b600061419a826155f0565b6141a481856155fa565b93506141b481856020860161566f565b6141bd8161569b565b9093019392505050565b6000816141d26130aa565b6001811680156141e9576001811461420f57614256565b607f60028304166141fa81876155fa565b60ff1984168152955050602085019250614256565b6002820461421d81876155fa565b9550614228856155df565b60005b8281101561424f578161423c6130aa565b888201526001919091019060200161422b565b8701945050505b505092915050565b613fe781615642565b613fe78161564d565b600061427c83856155fa565b9350614289838584615663565b6141bd8361569b565b60008161429d6130aa565b6001811680156141e957600181146142b457614256565b600282046142c281876155fa565b95506142cd856155df565b60005b8281101561424f57816142e16130aa565b88820152600191909101906020016142d0565b60006143016032836155fa565b60008051602061570e83398151915281527120696e76616c696420766f7465207479706560701b602082015260400192915050565b6000614343602883611399565b7f42616c6c6f742875696e743235362070726f706f73616c49642c75696e743820815267737570706f72742960c01b602082015260280192915050565b600061438d6033836155fa565b7f476f7665726e6f72427261766f3a3a696e697469616c697a653a2063616e206f8152726e6c7920696e697469616c697a65206f6e636560681b602082015260400192915050565b60006143e2602a836155fa565b7f476f7665726e6f72427261766f3a5f73657450656e64696e6741646d696e3a2081526961646d696e206f6e6c7960b01b602082015260400192915050565b600061442e6055836155fa565b7f476f7665726e6f72427261766f3a3a71756575654f72526576657274496e746581527f726e616c3a206964656e746963616c2070726f706f73616c20616374696f6e20602082015274616c7265616479207175657565642061742065746160581b604082015260600192915050565b60006144ab602b836155fa565b6000805160206157ce83398151915281526a2061646d696e206f6e6c7960a81b602082015260400192915050565b60006144e66033836155fa565b60008051602061572e83398151915281527269642074696d656c6f636b206164647265737360681b602082015260400192915050565b6000614529602a836155fa565b6000805160206157ae83398151915281526961646d696e206f6e6c7960b01b602082015260400192915050565b60006145636031836155fa565b7f476f7665726e6f72427261766f3a3a70726f706f73653a20476f7665726e6f7281527020427261766f206e6f742061637469766560781b602082015260400192915050565b60006145b6600283611399565b61190160f01b815260020192915050565b60006145d46036836155fa565b6000805160206157ce833981519152815275081a5b9d985b1a59081d9bdd1a5b99c81c195c9a5bd960521b602082015260400192915050565b600061461a6031836155fa565b60008051602061570e833981519152815270081d9bdd1a5b99c81a5cc818db1bdcd959607a1b602082015260400192915050565b600061465b6034836155fa565b60008051602061570e833981519152815273081d9bdd195c88185b1c9958591e481d9bdd195960621b602082015260400192915050565b600061469f6034836155fa565b6000805160206157ae833981519152815273696e76616c696420766f74696e672064656c617960601b602082015260400192915050565b60006146e36035836155fa565b60008051602061572e8339815191528152741a59081c1c9bdc1bdcd85b081d1a1c995cda1bdb19605a1b602082015260400192915050565b60006147286045836155fa565b7f476f7665726e6f72427261766f3a3a657865637574653a2070726f706f73616c81527f2063616e206f6e6c7920626520657865637574656420696620697420697320716020820152641d595d595960da1b604082015260600192915050565b6000614795602f836155fa565b7f476f7665726e6f72427261766f3a3a63617374566f746542795369673a20696e81526e76616c6964207369676e617475726560881b602082015260400192915050565b60006147e6602f836155fa565b60008051602061572e83398151915281526e696420766f74696e672064656c617960881b602082015260400192915050565b60006148256044836155fa565b7f476f7665726e6f72427261766f3a3a70726f706f73653a2070726f706f73616c81527f2066756e6374696f6e20696e666f726d6174696f6e206172697479206d69736d6020820152630c2e8c6d60e31b604082015260600192915050565b60006148916025836155fa565b7f476f7665726e6f72427261766f3a3a696e697469616c697a653a2061646d696e815264206f6e6c7960d81b602082015260400192915050565b60006148d86040836155fa565b6000805160206156ee83398151915281527f686f6c643a20696e76616c69642070726f706f73616c207468726573686f6c64602082015260400192915050565b60006149256044836155fa565b7f476f7665726e6f72427261766f3a3a71756575653a2070726f706f73616c206381527f616e206f6e6c79206265207175657565642069662069742069732073756363656020820152631959195960e21b604082015260600192915050565b60006149916011836155fa565b706164646974696f6e206f766572666c6f7760781b815260200192915050565b60006149be604383611399565b7f454950373132446f6d61696e28737472696e67206e616d652c75696e7432353681527f20636861696e49642c6164647265737320766572696679696e67436f6e74726160208201526263742960e81b604082015260430192915050565b6000614a296030836155fa565b7f476f7665726e6f72427261766f3a3a5f696e6974696174653a2063616e206f6e81526f6c7920696e697469617465206f6e636560801b602082015260400192915050565b6000614a7b602c836155fa565b7f476f7665726e6f72427261766f3a3a70726f706f73653a206d7573742070726f81526b7669646520616374696f6e7360a01b602082015260400192915050565b6000614ac9602e836155fa565b7f476f7665726e6f72427261766f3a5f61636365707441646d696e3a2070656e6481526d696e672061646d696e206f6e6c7960901b602082015260400192915050565b6000614b19602f836155fa565b60008051602061572e83398151915281526e696420636f6d70206164647265737360881b602082015260400192915050565b6000614b58602f836155fa565b7f476f7665726e6f72427261766f3a3a63616e63656c3a2070726f706f7365722081526e18589bdd99481d1a1c995cda1bdb19608a1b602082015260400192915050565b6000614ba96028836155fa565b7f476f7665726e6f72427261766f3a3a70726f706f73653a20746f6f206d616e7981526720616374696f6e7360c01b602082015260400192915050565b6000614bf36059836155fa565b60008051602061574e833981519152815260008051602061576e83398151915260208201527808185b1c9958591e481c195b991a5b99c81c1c9bdc1bdcd85b603a1b604082015260600192915050565b6000614c506058836155fa565b60008051602061574e833981519152815260008051602061576e83398151915260208201527708185b1c9958591e481858dd1a5d99481c1c9bdc1bdcd85b60421b604082015260600192915050565b60006126976000836155fa565b6000614cb96024836155fa565b7f476f7665726e6f72427261766f3a3a5f696e6974696174653a2061646d696e208152636f6e6c7960e01b602082015260400192915050565b6000614cff603f836155fa565b7f476f7665726e6f72427261766f3a3a70726f706f73653a2070726f706f73657281527f20766f7465732062656c6f772070726f706f73616c207468726573686f6c6400602082015260400192915050565b6000614d5e6036836155fa565b7f476f7665726e6f72427261766f3a3a63616e63656c3a2063616e6e6f742063618152751b98d95b08195e1958dd5d1959081c1c9bdc1bdcd85b60521b602082015260400192915050565b6000614db66030836155fa565b6000805160206156ee83398151915281526f686f6c643a2061646d696e206f6e6c7960801b602082015260400192915050565b6000614df66029836155fa565b7f476f7665726e6f72427261766f3a3a73746174653a20696e76616c69642070728152681bdc1bdcd85b081a5960ba1b602082015260400192915050565b6000614e416030836155fa565b60008051602061572e83398151915281526f1a59081d9bdd1a5b99c81c195c9a5bd960821b602082015260400192915050565b6000614e816015836155fa565b747375627472616374696f6e20756e646572666c6f7760581b815260200192915050565b606082018151614eb5848261416c565b506020820151614ec86020850182614edb565b5060408201516119316040850182614eed565b613fe781615629565b613fe781615658565b613fe78161562f565b600061269782614336565b6000614f0c826145a9565b9150614f18828561417e565b602082019150614f28828461417e565b5060200192915050565b6000612697826149b1565b602081016126978284613fed565b60408101614f598285613fde565b612de36020830184614175565b60408101614f748285613fed565b612de36020830184613fed565b60408101614f598285613fed565b60a08101614f9d8288613fed565b614faa6020830187614175565b8181036040830152614fbc818661418f565b90508181036060830152614fd0818561418f565b9050614fdf6080830184614175565b9695505050505050565b60a08101614ff78288613fed565b6150046020830187614175565b81810360408301526150168186614292565b90508181036060830152614fd081856141c7565b6080808252810161503b8187613ff6565b9050818103602083015261504f818661411e565b9050818103604083015261506381856140bd565b90508181036060830152614fdf818461404f565b602081016126978284614175565b608081016150938287614175565b6150a06020830186614175565b6150ad6040830185614175565b6122ae6060830184613fed565b606081016150c88286614175565b6150d56020830185614175565b613bf66040830184614edb565b608081016150f08287614175565b6150fd6020830186614edb565b61510a6040830185614175565b6122ae6060830184614175565b60208101612697828461425e565b602081016126978284614267565b60208082528101612de3818461418f565b60208082528101612697816142f4565b6020808252810161269781614380565b60208082528101612697816143d5565b6020808252810161269781614421565b602080825281016126978161449e565b60208082528101612697816144d9565b602080825281016126978161451c565b6020808252810161269781614556565b60208082528101612697816145c7565b602080825281016126978161460d565b602080825281016126978161464e565b6020808252810161269781614692565b60208082528101612697816146d6565b602080825281016126978161471b565b6020808252810161269781614788565b60208082528101612697816147d9565b6020808252810161269781614818565b6020808252810161269781614884565b60208082528101612697816148cb565b6020808252810161269781614918565b6020808252810161269781614984565b6020808252810161269781614a1c565b6020808252810161269781614a6e565b6020808252810161269781614abc565b6020808252810161269781614b0c565b6020808252810161269781614b4b565b6020808252810161269781614b9c565b6020808252810161269781614be6565b6020808252810161269781614c43565b6020808252810161269781614cac565b6020808252810161269781614cf2565b6020808252810161269781614d51565b6020808252810161269781614da9565b6020808252810161269781614de9565b6020808252810161269781614e34565b6020808252810161269781614e74565b606081016126978284614ea5565b61012081016153a1828c614175565b6153ae602083018b613fde565b81810360408301526153c0818a613ff6565b905081810360608301526153d4818961411e565b905081810360808301526153e881886140bd565b905081810360a08301526153fc818761404f565b905061540b60c0830186614175565b61541860e0830185614175565b81810361010083015261542b818461418f565b9b9a5050505050505050505050565b6101408101615449828d614175565b615456602083018c613fed565b615463604083018b614175565b615470606083018a614175565b61547d6080830189614175565b61548a60a0830188614175565b61549760c0830187614175565b6154a460e0830186614175565b6154b261010083018561416c565b61542b61012083018461416c565b60408101614f598285614175565b608081016154dc8288614175565b6154e96020830187614edb565b6154f66040830186614ee4565b8181036060830152615509818486614270565b979650505050505050565b608081016155228286614175565b61552f6020830185614edb565b61553c6040830184614ee4565b81810360608301526122ae81614c9f565b600060405190508181018181106001600160401b03821117156155785760008061557561303f565b50505b604052919050565b60006001600160401b0382111561559f5760008061559c61303f565b50505b5060209081020190565b60006001600160401b038211156155c8576000806155c561303f565b50505b506020601f91909101601f19160190565b60200190565b600081815281906020902092915050565b6000815192915050565b90815260200190565b60006126978261561d565b151590565b80611399816156a5565b6001600160a01b031690565b60ff1690565b6001600160601b031690565b6000612697825b600061269782615603565b600061269782615613565b60006126978261562f565b82818337506000910152565b60005b8381101561568a578082015183820152602001615672565b838111156119315750506000910152565b601f01601f191690565b6008811061388357fe5b6156b881615603565b81146138835760008061310561303f565b6156b88161560e565b6156b881612b0c565b6156b881615629565b6156b88161562f56fe476f7665726e6f72427261766f3a3a5f73657450726f706f73616c5468726573476f7665726e6f72427261766f3a3a63617374566f7465496e7465726e616c3a476f7665726e6f72427261766f3a3a696e697469616c697a653a20696e76616c476f7665726e6f72427261766f3a3a70726f706f73653a206f6e65206c6976652070726f706f73616c207065722070726f706f7365722c20666f756e6420616eca4f2f25d0898edd99413412fb94012f9e54ec8142f9b093e7720646a95b16a9476f7665726e6f72427261766f3a3a5f736574566f74696e6744656c61793a20476f7665726e6f72427261766f3a3a5f736574566f74696e67506572696f643ab8e138887d0aa13bab447e82de9d5c1777041ecd21ca36ba824ff1e6c07ddda4",
  "source": "pragma solidity ^0.5.16;\npragma experimental ABIEncoderV2;\n\nimport \"./GovernorBravoInterfaces.sol\";\n\ncontract GovernorBravoDelegate is GovernorBravoDelegateStorageV1, GovernorBravoEvents {\n\n    /// @notice The name of this contract\n    string public constant name = \"Compound Governor Bravo\";\n\n    /// @notice The minimum setable proposal threshold\n    uint public constant MIN_PROPOSAL_THRESHOLD = 50000e18; // 50,000 Comp\n\n    /// @notice The maximum setable proposal threshold\n    uint public constant MAX_PROPOSAL_THRESHOLD = 100000e18; //100,000 Comp\n\n    /// @notice The minimum setable voting period\n    uint public constant MIN_VOTING_PERIOD = 1; // About 24 hours\n\n    /// @notice The max setable voting period\n    uint public constant MAX_VOTING_PERIOD = 80640; // About 2 weeks\n\n    /// @notice The min setable voting delay\n    uint public constant MIN_VOTING_DELAY = 1;\n\n    /// @notice The max setable voting delay\n    uint public constant MAX_VOTING_DELAY = 40320; // About 1 week\n\n    /// @notice The number of votes in support of a proposal required in order for a quorum to be reached and for a vote to succeed\n    uint public constant quorumVotes = 400000e18; // 400,000 = 4% of Comp\n\n    /// @notice The maximum number of actions that can be included in a proposal\n    uint public constant proposalMaxOperations = 10; // 10 actions\n\n    /// @notice The EIP-712 typehash for the contract's domain\n    bytes32 public constant DOMAIN_TYPEHASH = keccak256(\"EIP712Domain(string name,uint256 chainId,address verifyingContract)\");\n\n    /// @notice The EIP-712 typehash for the ballot struct used by the contract\n    bytes32 public constant BALLOT_TYPEHASH = keccak256(\"Ballot(uint256 proposalId,uint8 support)\");\n\n    /**\n      * @notice Used to initialize the contract during delegator contructor\n      * @param timelock_ The address of the Timelock\n      * @param comp_ The address of the COMP token\n      * @param votingPeriod_ The initial voting period\n      * @param votingDelay_ The initial voting delay\n      * @param proposalThreshold_ The initial proposal threshold\n      */\n    function initialize(address timelock_, address comp_, uint votingPeriod_, uint votingDelay_, uint proposalThreshold_) public {\n        require(address(timelock) == address(0), \"GovernorBravo::initialize: can only initialize once\");\n        require(msg.sender == admin, \"GovernorBravo::initialize: admin only\");\n        require(timelock_ != address(0), \"GovernorBravo::initialize: invalid timelock address\");\n        require(comp_ != address(0), \"GovernorBravo::initialize: invalid comp address\");\n        require(votingPeriod_ >= MIN_VOTING_PERIOD && votingPeriod_ <= MAX_VOTING_PERIOD, \"GovernorBravo::initialize: invalid voting period\");\n        require(votingDelay_ >= MIN_VOTING_DELAY && votingDelay_ <= MAX_VOTING_DELAY, \"GovernorBravo::initialize: invalid voting delay\");\n        require(proposalThreshold_ >= MIN_PROPOSAL_THRESHOLD && proposalThreshold_ <= MAX_PROPOSAL_THRESHOLD, \"GovernorBravo::initialize: invalid proposal threshold\");\n\n        timelock = TimelockInterface(timelock_);\n        comp = CompInterface(comp_);\n        votingPeriod = votingPeriod_;\n        votingDelay = votingDelay_;\n        proposalThreshold = proposalThreshold_;\n    }\n\n    /**\n      * @notice Function used to propose a new proposal. Sender must have delegates above the proposal threshold\n      * @param targets Target addresses for proposal calls\n      * @param values Eth values for proposal calls\n      * @param signatures Function signatures for proposal calls\n      * @param calldatas Calldatas for proposal calls\n      * @param description String description of the proposal\n      * @return Proposal id of new proposal\n      */\n    function propose(address[] memory targets, uint[] memory values, string[] memory signatures, bytes[] memory calldatas, string memory description) public returns (uint) {\n        // Reject proposals before initiating as Governor\n        require(initialProposalId != 0, \"GovernorBravo::propose: Governor Bravo not active\");\n        require(comp.getPriorVotes(msg.sender, sub256(block.number, 1)) > proposalThreshold, \"GovernorBravo::propose: proposer votes below proposal threshold\");\n        require(targets.length == values.length && targets.length == signatures.length && targets.length == calldatas.length, \"GovernorBravo::propose: proposal function information arity mismatch\");\n        require(targets.length != 0, \"GovernorBravo::propose: must provide actions\");\n        require(targets.length <= proposalMaxOperations, \"GovernorBravo::propose: too many actions\");\n\n        uint latestProposalId = latestProposalIds[msg.sender];\n        if (latestProposalId != 0) {\n          ProposalState proposersLatestProposalState = state(latestProposalId);\n          require(proposersLatestProposalState != ProposalState.Active, \"GovernorBravo::propose: one live proposal per proposer, found an already active proposal\");\n          require(proposersLatestProposalState != ProposalState.Pending, \"GovernorBravo::propose: one live proposal per proposer, found an already pending proposal\");\n        }\n\n        uint startBlock = add256(block.number, votingDelay);\n        uint endBlock = add256(startBlock, votingPeriod);\n\n        proposalCount++;\n        Proposal memory newProposal = Proposal({\n            id: proposalCount,\n            proposer: msg.sender,\n            eta: 0,\n            targets: targets,\n            values: values,\n            signatures: signatures,\n            calldatas: calldatas,\n            startBlock: startBlock,\n            endBlock: endBlock,\n            forVotes: 0,\n            againstVotes: 0,\n            abstainVotes: 0,\n            canceled: false,\n            executed: false\n        });\n\n        proposals[newProposal.id] = newProposal;\n        latestProposalIds[newProposal.proposer] = newProposal.id;\n\n        emit ProposalCreated(newProposal.id, msg.sender, targets, values, signatures, calldatas, startBlock, endBlock, description);\n        return newProposal.id;\n    }\n\n    /**\n      * @notice Queues a proposal of state succeeded\n      * @param proposalId The id of the proposal to queue\n      */\n    function queue(uint proposalId) external {\n        require(state(proposalId) == ProposalState.Succeeded, \"GovernorBravo::queue: proposal can only be queued if it is succeeded\");\n        Proposal storage proposal = proposals[proposalId];\n        uint eta = add256(block.timestamp, timelock.delay());\n        for (uint i = 0; i < proposal.targets.length; i++) {\n            queueOrRevertInternal(proposal.targets[i], proposal.values[i], proposal.signatures[i], proposal.calldatas[i], eta);\n        }\n        proposal.eta = eta;\n        emit ProposalQueued(proposalId, eta);\n    }\n\n    function queueOrRevertInternal(address target, uint value, string memory signature, bytes memory data, uint eta) internal {\n        require(!timelock.queuedTransactions(keccak256(abi.encode(target, value, signature, data, eta))), \"GovernorBravo::queueOrRevertInternal: identical proposal action already queued at eta\");\n        timelock.queueTransaction(target, value, signature, data, eta);\n    }\n\n    /**\n      * @notice Executes a queued proposal if eta has passed\n      * @param proposalId The id of the proposal to execute\n      */\n    function execute(uint proposalId) external payable {\n        require(state(proposalId) == ProposalState.Queued, \"GovernorBravo::execute: proposal can only be executed if it is queued\");\n        Proposal storage proposal = proposals[proposalId];\n        proposal.executed = true;\n        for (uint i = 0; i < proposal.targets.length; i++) {\n            timelock.executeTransaction.value(proposal.values[i])(proposal.targets[i], proposal.values[i], proposal.signatures[i], proposal.calldatas[i], proposal.eta);\n        }\n        emit ProposalExecuted(proposalId);\n    }\n\n    /**\n      * @notice Cancels a proposal only if sender is the proposer, or proposer delegates dropped below proposal threshold\n      * @param proposalId The id of the proposal to cancel\n      */\n    function cancel(uint proposalId) external {\n        require(state(proposalId) != ProposalState.Executed, \"GovernorBravo::cancel: cannot cancel executed proposal\");\n\n        Proposal storage proposal = proposals[proposalId];\n        require(msg.sender == proposal.proposer || comp.getPriorVotes(proposal.proposer, sub256(block.number, 1)) < proposalThreshold, \"GovernorBravo::cancel: proposer above threshold\");\n\n        proposal.canceled = true;\n        for (uint i = 0; i < proposal.targets.length; i++) {\n            timelock.cancelTransaction(proposal.targets[i], proposal.values[i], proposal.signatures[i], proposal.calldatas[i], proposal.eta);\n        }\n\n        emit ProposalCanceled(proposalId);\n    }\n\n    /**\n      * @notice Gets actions of a proposal\n      * @param proposalId the id of the proposal\n      * @return Targets, values, signatures, and calldatas of the proposal actions\n      */\n    function getActions(uint proposalId) external view returns (address[] memory targets, uint[] memory values, string[] memory signatures, bytes[] memory calldatas) {\n        Proposal storage p = proposals[proposalId];\n        return (p.targets, p.values, p.signatures, p.calldatas);\n    }\n\n    /**\n      * @notice Gets the receipt for a voter on a given proposal\n      * @param proposalId the id of proposal\n      * @param voter The address of the voter\n      * @return The voting receipt\n      */\n    function getReceipt(uint proposalId, address voter) external view returns (Receipt memory) {\n        return proposals[proposalId].receipts[voter];\n    }\n\n    /**\n      * @notice Gets the state of a proposal\n      * @param proposalId The id of the proposal\n      * @return Proposal state\n      */\n    function state(uint proposalId) public view returns (ProposalState) {\n        require(proposalCount >= proposalId && proposalId >= initialProposalId, \"GovernorBravo::state: invalid proposal id\");\n        Proposal storage proposal = proposals[proposalId];\n        if (proposal.canceled) {\n            return ProposalState.Canceled;\n        } else if (block.number <= proposal.startBlock) {\n            return ProposalState.Pending;\n        } else if (block.number <= proposal.endBlock) {\n            return ProposalState.Active;\n        } else if (proposal.forVotes <= proposal.againstVotes || proposal.forVotes < quorumVotes) {\n            return ProposalState.Defeated;\n        } else if (proposal.eta == 0) {\n            return ProposalState.Succeeded;\n        } else if (proposal.executed) {\n            return ProposalState.Executed;\n        } else if (block.timestamp >= add256(proposal.eta, timelock.GRACE_PERIOD())) {\n            return ProposalState.Expired;\n        } else {\n            return ProposalState.Queued;\n        }\n    }\n\n    /**\n      * @notice Cast a vote for a proposal\n      * @param proposalId The id of the proposal to vote on\n      * @param support The support value for the vote. 0=against, 1=for, 2=abstain\n      */\n    function castVote(uint proposalId, uint8 support) external {\n        emit VoteCast(msg.sender, proposalId, support, castVoteInternal(msg.sender, proposalId, support), \"\");\n    }\n\n    /**\n      * @notice Cast a vote for a proposal with a reason\n      * @param proposalId The id of the proposal to vote on\n      * @param support The support value for the vote. 0=against, 1=for, 2=abstain\n      * @param reason The reason given for the vote by the voter\n      */\n    function castVoteWithReason(uint proposalId, uint8 support, string calldata reason) external {\n        emit VoteCast(msg.sender, proposalId, support, castVoteInternal(msg.sender, proposalId, support), reason);\n    }\n\n    /**\n      * @notice Cast a vote for a proposal by signature\n      * @dev External function that accepts EIP-712 signatures for voting on proposals.\n      */\n    function castVoteBySig(uint proposalId, uint8 support, uint8 v, bytes32 r, bytes32 s) external {\n        bytes32 domainSeparator = keccak256(abi.encode(DOMAIN_TYPEHASH, keccak256(bytes(name)), getChainIdInternal(), address(this)));\n        bytes32 structHash = keccak256(abi.encode(BALLOT_TYPEHASH, proposalId, support));\n        bytes32 digest = keccak256(abi.encodePacked(\"\\x19\\x01\", domainSeparator, structHash));\n        address signatory = ecrecover(digest, v, r, s);\n        require(signatory != address(0), \"GovernorBravo::castVoteBySig: invalid signature\");\n        emit VoteCast(signatory, proposalId, support, castVoteInternal(signatory, proposalId, support), \"\");\n    }\n\n    /**\n      * @notice Internal function that caries out voting logic\n      * @param voter The voter that is casting their vote\n      * @param proposalId The id of the proposal to vote on\n      * @param support The support value for the vote. 0=against, 1=for, 2=abstain\n      * @return The number of votes cast\n      */\n    function castVoteInternal(address voter, uint proposalId, uint8 support) internal returns (uint96) {\n        require(state(proposalId) == ProposalState.Active, \"GovernorBravo::castVoteInternal: voting is closed\");\n        require(support <= 2, \"GovernorBravo::castVoteInternal: invalid vote type\");\n        Proposal storage proposal = proposals[proposalId];\n        Receipt storage receipt = proposal.receipts[voter];\n        require(receipt.hasVoted == false, \"GovernorBravo::castVoteInternal: voter already voted\");\n        uint96 votes = comp.getPriorVotes(voter, proposal.startBlock);\n\n        if (support == 0) {\n            proposal.againstVotes = add256(proposal.againstVotes, votes);\n        } else if (support == 1) {\n            proposal.forVotes = add256(proposal.forVotes, votes);\n        } else if (support == 2) {\n            proposal.abstainVotes = add256(proposal.abstainVotes, votes);\n        }\n\n        receipt.hasVoted = true;\n        receipt.support = support;\n        receipt.votes = votes;\n\n        return votes;\n    }\n\n    /**\n      * @notice Admin function for setting the voting delay\n      * @param newVotingDelay new voting delay, in blocks\n      */\n    function _setVotingDelay(uint newVotingDelay) external {\n        require(msg.sender == admin, \"GovernorBravo::_setVotingDelay: admin only\");\n        require(newVotingDelay >= MIN_VOTING_DELAY && newVotingDelay <= MAX_VOTING_DELAY, \"GovernorBravo::_setVotingDelay: invalid voting delay\");\n        uint oldVotingDelay = votingDelay;\n        votingDelay = newVotingDelay;\n\n        emit VotingDelaySet(oldVotingDelay,votingDelay);\n    }\n\n    /**\n      * @notice Admin function for setting the voting period\n      * @param newVotingPeriod new voting period, in blocks\n      */\n    function _setVotingPeriod(uint newVotingPeriod) external {\n        require(msg.sender == admin, \"GovernorBravo::_setVotingPeriod: admin only\");\n        require(newVotingPeriod >= MIN_VOTING_PERIOD && newVotingPeriod <= MAX_VOTING_PERIOD, \"GovernorBravo::_setVotingPeriod: invalid voting period\");\n        uint oldVotingPeriod = votingPeriod;\n        votingPeriod = newVotingPeriod;\n\n        emit VotingPeriodSet(oldVotingPeriod, votingPeriod);\n    }\n\n    /**\n      * @notice Admin function for setting the proposal threshold\n      * @dev newProposalThreshold must be greater than the hardcoded min\n      * @param newProposalThreshold new proposal threshold\n      */\n    function _setProposalThreshold(uint newProposalThreshold) external {\n        require(msg.sender == admin, \"GovernorBravo::_setProposalThreshold: admin only\");\n        require(newProposalThreshold >= MIN_PROPOSAL_THRESHOLD && newProposalThreshold <= MAX_PROPOSAL_THRESHOLD, \"GovernorBravo::_setProposalThreshold: invalid proposal threshold\");\n        uint oldProposalThreshold = proposalThreshold;\n        proposalThreshold = newProposalThreshold;\n\n        emit ProposalThresholdSet(oldProposalThreshold, proposalThreshold);\n    }\n\n    /**\n      * @notice Initiate the GovernorBravo contract\n      * @dev Admin only. Sets initial proposal id which initiates the contract, ensuring a continuous proposal id count\n      *  The address for the Governor to continue the proposal id count from\n      */\n    function _initiate(/*address governorAlpha*/) external {\n        require(msg.sender == admin, \"GovernorBravo::_initiate: admin only\");\n        require(initialProposalId == 0, \"GovernorBravo::_initiate: can only initiate once\");\n        //proposalCount = GovernorAlpha(governorAlpha).proposalCount();\n        initialProposalId = 1; //proposalCount;\n        timelock.acceptAdmin();\n    }\n\n    /**\n      * @notice Begins transfer of admin rights. The newPendingAdmin must call `_acceptAdmin` to finalize the transfer.\n      * @dev Admin function to begin change of admin. The newPendingAdmin must call `_acceptAdmin` to finalize the transfer.\n      * @param newPendingAdmin New pending admin.\n      */\n    function _setPendingAdmin(address newPendingAdmin) external {\n        // Check caller = admin\n        require(msg.sender == admin, \"GovernorBravo:_setPendingAdmin: admin only\");\n\n        // Save current value, if any, for inclusion in log\n        address oldPendingAdmin = pendingAdmin;\n\n        // Store pendingAdmin with value newPendingAdmin\n        pendingAdmin = newPendingAdmin;\n\n        // Emit NewPendingAdmin(oldPendingAdmin, newPendingAdmin)\n        emit NewPendingAdmin(oldPendingAdmin, newPendingAdmin);\n    }\n\n    /**\n      * @notice Accepts transfer of admin rights. msg.sender must be pendingAdmin\n      * @dev Admin function for pending admin to accept role and update admin\n      */\n    function _acceptAdmin() external {\n        // Check caller is pendingAdmin and pendingAdmin  address(0)\n        require(msg.sender == pendingAdmin && msg.sender != address(0), \"GovernorBravo:_acceptAdmin: pending admin only\");\n\n        // Save current values for inclusion in log\n        address oldAdmin = admin;\n        address oldPendingAdmin = pendingAdmin;\n\n        // Store admin with value pendingAdmin\n        admin = pendingAdmin;\n\n        // Clear the pending value\n        pendingAdmin = address(0);\n\n        emit NewAdmin(oldAdmin, admin);\n        emit NewPendingAdmin(oldPendingAdmin, pendingAdmin);\n    }\n\n    function add256(uint256 a, uint256 b) internal pure returns (uint) {\n        uint c = a + b;\n        require(c >= a, \"addition overflow\");\n        return c;\n    }\n\n    function sub256(uint256 a, uint256 b) internal pure returns (uint) {\n        require(b <= a, \"subtraction underflow\");\n        return a - b;\n    }\n\n    function getChainIdInternal() internal pure returns (uint) {\n        uint chainId;\n        assembly { chainId := chainid() }\n        return chainId;\n    }\n}",
  "sourcePath": "/Users/jesusmeza/Developer/omgx/snapshot-optimism/omgx_examples/compound-protocol/contracts/Governance/GovernorBravoDelegate.sol",
  "compiler": {
    "name": "solc",
    "version": "0.5.16"
  },
  "schemaVersion": "3.4.3",
  "updatedAt": "2021-08-30T21:29:35.342Z",
  "networkType": "ethereum",
  "devdoc": {
    "methods": {
      "_acceptAdmin()": {
        "details": "Admin function for pending admin to accept role and update admin"
      },
      "_initiate()": {
        "details": "Admin only. Sets initial proposal id which initiates the contract, ensuring a continuous proposal id count The address for the Governor to continue the proposal id count from"
      },
      "_setPendingAdmin(address)": {
        "details": "Admin function to begin change of admin. The newPendingAdmin must call `_acceptAdmin` to finalize the transfer.",
        "params": {
          "newPendingAdmin": "New pending admin."
        }
      },
      "_setProposalThreshold(uint256)": {
        "details": "newProposalThreshold must be greater than the hardcoded min",
        "params": {
          "newProposalThreshold": "new proposal threshold"
        }
      },
      "_setVotingDelay(uint256)": {
        "params": {
          "newVotingDelay": "new voting delay, in blocks"
        }
      },
      "_setVotingPeriod(uint256)": {
        "params": {
          "newVotingPeriod": "new voting period, in blocks"
        }
      },
      "cancel(uint256)": {
        "params": {
          "proposalId": "The id of the proposal to cancel"
        }
      },
      "castVote(uint256,uint8)": {
        "params": {
          "proposalId": "The id of the proposal to vote on",
          "support": "The support value for the vote. 0=against, 1=for, 2=abstain"
        }
      },
      "castVoteBySig(uint256,uint8,uint8,bytes32,bytes32)": {
        "details": "External function that accepts EIP-712 signatures for voting on proposals."
      },
      "castVoteWithReason(uint256,uint8,string)": {
        "params": {
          "proposalId": "The id of the proposal to vote on",
          "reason": "The reason given for the vote by the voter",
          "support": "The support value for the vote. 0=against, 1=for, 2=abstain"
        }
      },
      "execute(uint256)": {
        "params": {
          "proposalId": "The id of the proposal to execute"
        }
      },
      "getActions(uint256)": {
        "params": {
          "proposalId": "the id of the proposal"
        },
        "return": "Targets, values, signatures, and calldatas of the proposal actions"
      },
      "getReceipt(uint256,address)": {
        "params": {
          "proposalId": "the id of proposal",
          "voter": "The address of the voter"
        },
        "return": "The voting receipt"
      },
      "initialize(address,address,uint256,uint256,uint256)": {
        "params": {
          "comp_": "The address of the COMP token",
          "proposalThreshold_": "The initial proposal threshold",
          "timelock_": "The address of the Timelock",
          "votingDelay_": "The initial voting delay",
          "votingPeriod_": "The initial voting period"
        }
      },
      "propose(address[],uint256[],string[],bytes[],string)": {
        "params": {
          "calldatas": "Calldatas for proposal calls",
          "description": "String description of the proposal",
          "signatures": "Function signatures for proposal calls",
          "targets": "Target addresses for proposal calls",
          "values": "Eth values for proposal calls"
        },
        "return": "Proposal id of new proposal"
      },
      "queue(uint256)": {
        "params": {
          "proposalId": "The id of the proposal to queue"
        }
      },
      "state(uint256)": {
        "params": {
          "proposalId": "The id of the proposal"
        },
        "return": "Proposal state"
      }
    }
  },
  "userdoc": {
    "methods": {
      "_acceptAdmin()": {
        "notice": "Accepts transfer of admin rights. msg.sender must be pendingAdmin"
      },
      "_initiate()": {
        "notice": "Initiate the GovernorBravo contract"
      },
      "_setPendingAdmin(address)": {
        "notice": "Begins transfer of admin rights. The newPendingAdmin must call `_acceptAdmin` to finalize the transfer."
      },
      "_setProposalThreshold(uint256)": {
        "notice": "Admin function for setting the proposal threshold"
      },
      "_setVotingDelay(uint256)": {
        "notice": "Admin function for setting the voting delay"
      },
      "_setVotingPeriod(uint256)": {
        "notice": "Admin function for setting the voting period"
      },
      "cancel(uint256)": {
        "notice": "Cancels a proposal only if sender is the proposer, or proposer delegates dropped below proposal threshold"
      },
      "castVote(uint256,uint8)": {
        "notice": "Cast a vote for a proposal"
      },
      "castVoteBySig(uint256,uint8,uint8,bytes32,bytes32)": {
        "notice": "Cast a vote for a proposal by signature"
      },
      "castVoteWithReason(uint256,uint8,string)": {
        "notice": "Cast a vote for a proposal with a reason"
      },
      "execute(uint256)": {
        "notice": "Executes a queued proposal if eta has passed"
      },
      "getActions(uint256)": {
        "notice": "Gets actions of a proposal"
      },
      "getReceipt(uint256,address)": {
        "notice": "Gets the receipt for a voter on a given proposal"
      },
      "initialize(address,address,uint256,uint256,uint256)": {
        "notice": "Used to initialize the contract during delegator contructor"
      },
      "propose(address[],uint256[],string[],bytes[],string)": {
        "notice": "Function used to propose a new proposal. Sender must have delegates above the proposal threshold"
      },
      "queue(uint256)": {
        "notice": "Queues a proposal of state succeeded"
      },
      "state(uint256)": {
        "notice": "Gets the state of a proposal"
      }
    }
  }
}