{
  "contractName": "JugLike",
  "abi": [
    {
      "constant": true,
      "inputs": [],
      "name": "base",
      "outputs": [
        {
          "internalType": "uint256",
          "name": "",
          "type": "uint256"
        }
      ],
      "payable": false,
      "stateMutability": "view",
      "type": "function"
    },
    {
      "constant": true,
      "inputs": [
        {
          "internalType": "bytes32",
          "name": "",
          "type": "bytes32"
        }
      ],
      "name": "ilks",
      "outputs": [
        {
          "internalType": "uint256",
          "name": "duty",
          "type": "uint256"
        },
        {
          "internalType": "uint256",
          "name": "rho",
          "type": "uint256"
        }
      ],
      "payable": false,
      "stateMutability": "view",
      "type": "function"
    }
  ],
  "bytecode": "0x60806040523480156100195760008061001661001f565b50505b5061008a565b632a2a7adb598160e01b8152600481016020815285602082015260005b8681101561005757808601518282016040015260200161003c565b506020828760640184336000905af158600e01573d6000803e3d6000fd5b3d6001141558600a015760016000f35b505050565b6101a8806100996000396000f3fe6080604052348015610019576000806100166100dd565b50505b506004361061003f5760003560e01c80635001f3b51461004d578063d9638d3614610067575b60008061004a6100dd565b50505b6100556100a5565b60405190815260200160405180910390f35b61008d60048036036020811015610086576000806100836100dd565b50505b50356100b2565b60405191825260208201526040908101905180910390f35b60016100af610148565b81565b60006020528060005260406000209050806100cb610148565b90806001016100d8610148565b905082565b632a2a7adb598160e01b8152600481016020815285602082015260005b868110156101155780860151828201604001526020016100fa565b506020828760640184336000905af158600e01573d6000803e3d6000fd5b3d6001141558600a015760016000f35b505050565b6303daa959598160e01b8152836004820152602081602483336000905af158600e01573d6000803e3d6000fd5b3d6001141558600a015760016000f35b8051935060005b60408110156101a35760008282015260200161018c565b50505056",
  "deployedBytecode": "0x6080604052348015610019576000806100166100dd565b50505b506004361061003f5760003560e01c80635001f3b51461004d578063d9638d3614610067575b60008061004a6100dd565b50505b6100556100a5565b60405190815260200160405180910390f35b61008d60048036036020811015610086576000806100836100dd565b50505b50356100b2565b60405191825260208201526040908101905180910390f35b60016100af610148565b81565b60006020528060005260406000209050806100cb610148565b90806001016100d8610148565b905082565b632a2a7adb598160e01b8152600481016020815285602082015260005b868110156101155780860151828201604001526020016100fa565b506020828760640184336000905af158601d01573d60011458600c01573d6000803e3d621234565260ea61109c52505050565b6303daa959598160e01b8152836004820152602081602483336000905af158601d01573d60011458600c01573d6000803e3d621234565260ea61109c528051935060005b60408110156101a35760008282015260200161018c565b50505056",
  "source": "pragma solidity ^0.5.16;\n\nimport \"./JumpRateModelV2.sol\";\nimport \"./SafeMath.sol\";\n\n/**\n  * @title Compound's DAIInterestRateModel Contract (version 3)\n  * @author Compound (modified by Dharma Labs)\n  * @notice The parameterized model described in section 2.4 of the original Compound Protocol whitepaper.\n  * Version 3 modifies the interest rate model in Version 2 by increasing the initial \"gap\" or slope of\n  * the model prior to the \"kink\" from 2% to 4%, and enabling updateable parameters.\n  */\ncontract DAIInterestRateModelV3 is JumpRateModelV2 {\n    using SafeMath for uint;\n\n    /**\n     * @notice The additional margin per block separating the base borrow rate from the roof.\n     */\n    uint public gapPerBlock;\n\n    /**\n     * @notice The assumed (1 - reserve factor) used to calculate the minimum borrow rate (reserve factor = 0.05)\n     */\n    uint public constant assumedOneMinusReserveFactorMantissa = 0.95e18;\n\n    PotLike pot;\n    JugLike jug;\n\n    /**\n     * @notice Construct an interest rate model\n     * @param jumpMultiplierPerYear The multiplierPerBlock after hitting a specified utilization point\n     * @param kink_ The utilization point at which the jump multiplier is applied\n     * @param pot_ The address of the Dai pot (where DSR is earned)\n     * @param jug_ The address of the Dai jug (where SF is kept)\n     * @param owner_ The address of the owner, i.e. the Timelock contract (which has the ability to update parameters directly)\n     */\n    constructor(uint jumpMultiplierPerYear, uint kink_, address pot_, address jug_, address owner_) JumpRateModelV2(0, 0, jumpMultiplierPerYear, kink_, owner_) public {\n        gapPerBlock = 4e16 / blocksPerYear;\n        pot = PotLike(pot_);\n        jug = JugLike(jug_);\n        poke();\n    }\n\n    /**\n     * @notice External function to update the parameters of the interest rate model\n     * @param baseRatePerYear The approximate target base APR, as a mantissa (scaled by 1e18). For DAI, this is calculated from DSR and SF. Input not used.\n     * @param gapPerYear The Additional margin per year separating the base borrow rate from the roof. (scaled by 1e18)\n     * @param jumpMultiplierPerYear The jumpMultiplierPerYear after hitting a specified utilization point\n     * @param kink_ The utilization point at which the jump multiplier is applied\n     */\n    function updateJumpRateModel(uint baseRatePerYear, uint gapPerYear, uint jumpMultiplierPerYear, uint kink_) external {\n        require(msg.sender == owner, \"only the owner may call this function.\");\n        gapPerBlock = gapPerYear / blocksPerYear;\n        updateJumpRateModelInternal(0, 0, jumpMultiplierPerYear, kink_);\n        poke();\n    }\n\n    /**\n     * @notice Calculates the current supply interest rate per block including the Dai savings rate\n     * @param cash The total amount of cash the market has\n     * @param borrows The total amount of borrows the market has outstanding\n     * @param reserves The total amnount of reserves the market has\n     * @param reserveFactorMantissa The current reserve factor the market has\n     * @return The supply rate per block (as a percentage, and scaled by 1e18)\n     */\n    function getSupplyRate(uint cash, uint borrows, uint reserves, uint reserveFactorMantissa) public view returns (uint) {\n        uint protocolRate = super.getSupplyRate(cash, borrows, reserves, reserveFactorMantissa);\n\n        uint underlying = cash.add(borrows).sub(reserves);\n        if (underlying == 0) {\n            return protocolRate;\n        } else {\n            uint cashRate = cash.mul(dsrPerBlock()).div(underlying);\n            return cashRate.add(protocolRate);\n        }\n    }\n\n    /**\n     * @notice Calculates the Dai savings rate per block\n     * @return The Dai savings rate per block (as a percentage, and scaled by 1e18)\n     */\n    function dsrPerBlock() public view returns (uint) {\n        return pot\n            .dsr().sub(1e27)  // scaled 1e27 aka RAY, and includes an extra \"ONE\" before subraction\n            .div(1e9) // descale to 1e18\n            .mul(15); // 15 seconds per block\n    }\n\n    /**\n     * @notice Resets the baseRate and multiplier per block based on the stability fee and Dai savings rate\n     */\n    function poke() public {\n        (uint duty, ) = jug.ilks(\"ETH-A\");\n        uint stabilityFeePerBlock = duty.add(jug.base()).sub(1e27).mul(1e18).div(1e27).mul(15);\n\n        // We ensure the minimum borrow rate >= DSR / (1 - reserve factor)\n        baseRatePerBlock = dsrPerBlock().mul(1e18).div(assumedOneMinusReserveFactorMantissa);\n\n        // The roof borrow rate is max(base rate, stability fee) + gap, from which we derive the slope\n        if (baseRatePerBlock < stabilityFeePerBlock) {\n            multiplierPerBlock = stabilityFeePerBlock.sub(baseRatePerBlock).add(gapPerBlock).mul(1e18).div(kink);\n        } else {\n            multiplierPerBlock = gapPerBlock.mul(1e18).div(kink);\n        }\n\n        emit NewInterestParams(baseRatePerBlock, multiplierPerBlock, jumpMultiplierPerBlock, kink);\n    }\n}\n\n\n/*** Maker Interfaces ***/\n\ncontract PotLike {\n    function chi() external view returns (uint);\n    function dsr() external view returns (uint);\n    function rho() external view returns (uint);\n    function pie(address) external view returns (uint);\n    function drip() external returns (uint);\n    function join(uint) external;\n    function exit(uint) external;\n}\n\ncontract JugLike {\n    // --- Data ---\n    struct Ilk {\n        uint256 duty;\n        uint256  rho;\n    }\n\n   mapping (bytes32 => Ilk) public ilks;\n   uint256 public base;\n}\n",
  "sourcePath": "/Users/jesusmeza/Developer/omgx/snapshot-optimism/omgx_examples/compound-protocol/contracts/DAIInterestRateModelV3.sol",
  "compiler": {
    "name": "solc",
    "version": "0.5.16"
  },
  "schemaVersion": "3.4.3",
  "updatedAt": "2021-08-25T22:25:24.613Z",
  "devdoc": {
    "methods": {}
  },
  "userdoc": {
    "methods": {}
  }
}