{
  "contractName": "JumpRateModelV2",
  "abi": [
    {
      "inputs": [
        {
          "internalType": "uint256",
          "name": "baseRatePerYear",
          "type": "uint256"
        },
        {
          "internalType": "uint256",
          "name": "multiplierPerYear",
          "type": "uint256"
        },
        {
          "internalType": "uint256",
          "name": "jumpMultiplierPerYear",
          "type": "uint256"
        },
        {
          "internalType": "uint256",
          "name": "kink_",
          "type": "uint256"
        },
        {
          "internalType": "address",
          "name": "owner_",
          "type": "address"
        }
      ],
      "payable": false,
      "stateMutability": "nonpayable",
      "type": "constructor"
    },
    {
      "anonymous": false,
      "inputs": [
        {
          "indexed": false,
          "internalType": "uint256",
          "name": "baseRatePerBlock",
          "type": "uint256"
        },
        {
          "indexed": false,
          "internalType": "uint256",
          "name": "multiplierPerBlock",
          "type": "uint256"
        },
        {
          "indexed": false,
          "internalType": "uint256",
          "name": "jumpMultiplierPerBlock",
          "type": "uint256"
        },
        {
          "indexed": false,
          "internalType": "uint256",
          "name": "kink",
          "type": "uint256"
        }
      ],
      "name": "NewInterestParams",
      "type": "event"
    },
    {
      "constant": true,
      "inputs": [],
      "name": "baseRatePerBlock",
      "outputs": [
        {
          "internalType": "uint256",
          "name": "",
          "type": "uint256"
        }
      ],
      "payable": false,
      "stateMutability": "view",
      "type": "function"
    },
    {
      "constant": true,
      "inputs": [],
      "name": "blocksPerYear",
      "outputs": [
        {
          "internalType": "uint256",
          "name": "",
          "type": "uint256"
        }
      ],
      "payable": false,
      "stateMutability": "view",
      "type": "function"
    },
    {
      "constant": true,
      "inputs": [
        {
          "internalType": "uint256",
          "name": "cash",
          "type": "uint256"
        },
        {
          "internalType": "uint256",
          "name": "borrows",
          "type": "uint256"
        },
        {
          "internalType": "uint256",
          "name": "reserves",
          "type": "uint256"
        },
        {
          "internalType": "uint256",
          "name": "reserveFactorMantissa",
          "type": "uint256"
        }
      ],
      "name": "getSupplyRate",
      "outputs": [
        {
          "internalType": "uint256",
          "name": "",
          "type": "uint256"
        }
      ],
      "payable": false,
      "stateMutability": "view",
      "type": "function"
    },
    {
      "constant": true,
      "inputs": [],
      "name": "isInterestRateModel",
      "outputs": [
        {
          "internalType": "bool",
          "name": "",
          "type": "bool"
        }
      ],
      "payable": false,
      "stateMutability": "view",
      "type": "function"
    },
    {
      "constant": true,
      "inputs": [],
      "name": "jumpMultiplierPerBlock",
      "outputs": [
        {
          "internalType": "uint256",
          "name": "",
          "type": "uint256"
        }
      ],
      "payable": false,
      "stateMutability": "view",
      "type": "function"
    },
    {
      "constant": true,
      "inputs": [],
      "name": "kink",
      "outputs": [
        {
          "internalType": "uint256",
          "name": "",
          "type": "uint256"
        }
      ],
      "payable": false,
      "stateMutability": "view",
      "type": "function"
    },
    {
      "constant": true,
      "inputs": [],
      "name": "multiplierPerBlock",
      "outputs": [
        {
          "internalType": "uint256",
          "name": "",
          "type": "uint256"
        }
      ],
      "payable": false,
      "stateMutability": "view",
      "type": "function"
    },
    {
      "constant": true,
      "inputs": [],
      "name": "owner",
      "outputs": [
        {
          "internalType": "address",
          "name": "",
          "type": "address"
        }
      ],
      "payable": false,
      "stateMutability": "view",
      "type": "function"
    },
    {
      "constant": false,
      "inputs": [
        {
          "internalType": "uint256",
          "name": "baseRatePerYear",
          "type": "uint256"
        },
        {
          "internalType": "uint256",
          "name": "multiplierPerYear",
          "type": "uint256"
        },
        {
          "internalType": "uint256",
          "name": "jumpMultiplierPerYear",
          "type": "uint256"
        },
        {
          "internalType": "uint256",
          "name": "kink_",
          "type": "uint256"
        }
      ],
      "name": "updateJumpRateModel",
      "outputs": [],
      "payable": false,
      "stateMutability": "nonpayable",
      "type": "function"
    },
    {
      "constant": true,
      "inputs": [
        {
          "internalType": "uint256",
          "name": "cash",
          "type": "uint256"
        },
        {
          "internalType": "uint256",
          "name": "borrows",
          "type": "uint256"
        },
        {
          "internalType": "uint256",
          "name": "reserves",
          "type": "uint256"
        }
      ],
      "name": "utilizationRate",
      "outputs": [
        {
          "internalType": "uint256",
          "name": "",
          "type": "uint256"
        }
      ],
      "payable": false,
      "stateMutability": "pure",
      "type": "function"
    },
    {
      "constant": true,
      "inputs": [
        {
          "internalType": "uint256",
          "name": "cash",
          "type": "uint256"
        },
        {
          "internalType": "uint256",
          "name": "borrows",
          "type": "uint256"
        },
        {
          "internalType": "uint256",
          "name": "reserves",
          "type": "uint256"
        }
      ],
      "name": "getBorrowRate",
      "outputs": [
        {
          "internalType": "uint256",
          "name": "",
          "type": "uint256"
        }
      ],
      "payable": false,
      "stateMutability": "view",
      "type": "function"
    }
  ],
  "bytecode": "0x60806040523480156200001c5760008062000019620003a2565b50505b5060405162000ec938038062000ec9833981810160405260a08110156200004d576000806200004a620003a2565b50505b810190808051929190602001805192919060200180519291906020018051929190602001805192508691508590508484848060006001816200008e6200040f565b816001600160a01b0302191690836001600160a01b0316021790620000b262000471565b505050620000c985858585620000d960201b60201c565b50505050505050505050620004c0565b620000f662201480856200022d60201b620006a91790919060201c565b8060026200010362000471565b5050506200015d6200012782622014806200028160201b6200064a1790919060201c565b62000149670de0b6b3a7640000866200028160201b6200064a1790919060201c565b6200022d60201b620006a91790919060201c565b8060016200016a62000471565b5050506200018a62201480836200022d60201b620006a91790919060201c565b8060036200019762000471565b5050508060048190620001a962000471565b5050507f6960ab234c7ef4b0c9197100f5393cfcde7c453ac910a27bd2000aa1dd4c068d6002620001d96200040f565b6001620001e56200040f565b6003620001f16200040f565b6004620001fd6200040f565b6040518085815260200184815260200183815260200182815260200194505050505060405180910390a150505050565b600062000278838360405160408082019052601a81527f536166654d6174683a206469766973696f6e206279207a65726f00000000000060208201526001600160e01b03620002f016565b90505b92915050565b60008262000292575060006200027b565b82820282848281620002a057fe5b0414620002785760405162461bcd60e51b815260040180806020018281038252602181526020018062000ea86021913960400191505060405180910390620002e7620003a2565b50509392505050565b600081836200038b5760405162461bcd60e51b81526004018080602001828103825283818151815260200191508051906020019080838360005b83811015620003445780820151838201526020016200032a565b50505050905090810190601f168015620003725780820380516001836020036101000a031916815260200191505b50925050506040518091039062000388620003a2565b50505b5060008385816200039857fe5b0495945050505050565b632a2a7adb598160e01b8152600481016020815285602082015260005b86811015620003dc578086015182820160400152602001620003bf565b506020828760640184336000905af158600e01573d6000803e3d6000fd5b3d6001141558600a015760016000f35b505050565b6303daa959598160e01b8152836004820152602081602483336000905af158600e01573d6000803e3d6000fd5b3d6001141558600a015760016000f35b8051935060005b60408110156200046c5760008282015260200162000453565b505050565b6322bd64c0598160e01b8152836004820152846024820152600081604483336000905af158600e01573d6000803e3d6000fd5b3d6001141558600a015760016000f35b60008152602062000453565b6109d880620004d06000396000f3fe608060405234801561001957600080610016610831565b50505b50600436106100a25760003560e01c806315f24053146100b05780632037f3e7146100f45780632191f92a1461012e5780636e71e2d81461014a5780638726bb891461017c5780638da5cb5b14610184578063a385fb96146101a8578063b8168816146101b0578063b9f9850a146101e8578063f14039de146101f0578063fd2da339146101f8575b6000806100ad610831565b50505b6100e2600480360360608110156100cf576000806100cc610831565b50505b5080359060208101359060400135610200565b60405190815260200160405180910390f35b61012c6004803603608081101561011357600080610110610831565b50505b5080359060208101359060408101359060600135610217565b005b6101366102a4565b604051901515815260200160405180910390f35b6100e26004803603606081101561016957600080610166610831565b50505b50803590602081013590604001356102a9565b6100e26102ff565b61018c61030c565b6040516001600160a01b03909116815260200160405180910390f35b6100e261032a565b6100e2600480360360808110156101cf576000806101cc610831565b50505b5080359060208101359060408101359060600135610331565b6100e26103b0565b6100e26103ba565b6100e26103c4565b600061020d8484846103ce565b90505b9392505050565b60008061022261089c565b906101000a90046001600160a01b03166001600160a01b03165a6102446108fc565b6001600160a01b0316146102925760405162461bcd60e51b81526004018080602001828103825260268152602001806109b2602691396040019150506040518091039061028f610831565b50505b61029e848484846104ae565b50505050565b600181565b6000826102b857506000610210565b61020d6102db836102cf878763ffffffff6105a116565b9063ffffffff61060a16565b6102f385670de0b6b3a764000063ffffffff61064a16565b9063ffffffff6106a916565b600161030961089c565b81565b60008061031761089c565b906101000a90046001600160a01b031681565b6220148081565b60008061034c670de0b6b3a76400008463ffffffff61060a16565b9050600061035b8787876103ce565b9050600061037b670de0b6b3a76400006102f3848663ffffffff61064a16565b90506103a4670de0b6b3a76400006102f3836103988c8c8c6102a9565b9063ffffffff61064a16565b98975050505050505050565b600361030961089c565b600261030961089c565b600461030961089c565b6000806103dc8585856102a9565b905060046103e861089c565b81116104355761042d60026103fb61089c565b610421670de0b6b3a76400006102f3600161041461089c565b869063ffffffff61064a16565b9063ffffffff6105a116565b915050610210565b6000610467600261044461089c565b610421670de0b6b3a76400006102f3600161045d61089c565b600461039861089c565b90506000610485600461047861089c565b849063ffffffff61060a16565b90506104a482610421670de0b6b3a76400006102f3600361041461089c565b9350505050610210565b6104c1846220148063ffffffff6106a916565b8060026104cc610942565b506104e791506102db9050622014808363ffffffff61064a16565b8060016104f2610942565b5061050a91508390506220148063ffffffff6106a916565b806003610515610942565b5050508060048190610525610942565b5050507f6960ab234c7ef4b0c9197100f5393cfcde7c453ac910a27bd2000aa1dd4c068d600261055361089c565b600161055d61089c565b600361056761089c565b600461057161089c565b6040518085815260200184815260200183815260200182815260200194505050505060405180910390a150505050565b6000828201838110156106015760405162461bcd60e51b815260206004820152601b60248201527a536166654d6174683a206164646974696f6e206f766572666c6f7760281b6044820152606401604051809103906105fe610831565b50505b90505b92915050565b6000610601838360405160408082019052601f81527f536166654d6174683a207375627472616374696f6e20756e646572666c6f770060208201526106e6565b60008261065957506000610604565b8282028284828161066657fe5b04146106015760405162461bcd60e51b815260040180806020018281038252602181526020018061099160219139604001915050604051809103906105fe610831565b6000610601838360405160408082019052601a815279536166654d6174683a206469766973696f6e206279207a65726f60301b6020820152610786565b6000818484111561077e5760405162461bcd60e51b81526004018080602001828103825283818151815260200191508051906020019080838360005b8381101561073a578082015183820152602001610722565b50505050905090810190601f1680156107675780820380516001836020036101000a031916815260200191505b50925050506040518091039061077b610831565b50505b505050900390565b6000818361081b5760405162461bcd60e51b81526004018080602001828103825283818151815260200191508051906020019080838360005b838110156107d75780820151838201526020016107bf565b50505050905090810190601f1680156108045780820380516001836020036101000a031916815260200191505b509250505060405180910390610818610831565b50505b50600083858161082757fe5b0495945050505050565b632a2a7adb598160e01b8152600481016020815285602082015260005b8681101561086957808601518282016040015260200161084e565b506020828760640184336000905af158600e01573d6000803e3d6000fd5b3d6001141558600a015760016000f35b505050565b6303daa959598160e01b8152836004820152602081602483336000905af158600e01573d6000803e3d6000fd5b3d6001141558600a015760016000f35b8051935060005b60408110156108f7576000828201526020016108e0565b505050565b6373509064598160e01b8152602081600483336000905af158600e01573d6000803e3d6000fd5b3d6001141558600a015760016000f35b805160008252935060206108e0565b6322bd64c0598160e01b8152836004820152846024820152600081604483336000905af158600e01573d6000803e3d6000fd5b3d6001141558600a015760016000f35b6000815260206108e056fe536166654d6174683a206d756c7469706c69636174696f6e206f766572666c6f776f6e6c7920746865206f776e6572206d61792063616c6c20746869732066756e6374696f6e2e536166654d6174683a206d756c7469706c69636174696f6e206f766572666c6f77",
  "deployedBytecode": "0x608060405234801561001957600080610016610831565b50505b50600436106100a25760003560e01c806315f24053146100b05780632037f3e7146100f45780632191f92a1461012e5780636e71e2d81461014a5780638726bb891461017c5780638da5cb5b14610184578063a385fb96146101a8578063b8168816146101b0578063b9f9850a146101e8578063f14039de146101f0578063fd2da339146101f8575b6000806100ad610831565b50505b6100e2600480360360608110156100cf576000806100cc610831565b50505b5080359060208101359060400135610200565b60405190815260200160405180910390f35b61012c6004803603608081101561011357600080610110610831565b50505b5080359060208101359060408101359060600135610217565b005b6101366102a4565b604051901515815260200160405180910390f35b6100e26004803603606081101561016957600080610166610831565b50505b50803590602081013590604001356102a9565b6100e26102ff565b61018c61030c565b6040516001600160a01b03909116815260200160405180910390f35b6100e261032a565b6100e2600480360360808110156101cf576000806101cc610831565b50505b5080359060208101359060408101359060600135610331565b6100e26103b0565b6100e26103ba565b6100e26103c4565b600061020d8484846103ce565b90505b9392505050565b60008061022261089c565b906101000a90046001600160a01b03166001600160a01b03165a6102446108fc565b6001600160a01b0316146102925760405162461bcd60e51b81526004018080602001828103825260268152602001806109b2602691396040019150506040518091039061028f610831565b50505b61029e848484846104ae565b50505050565b600181565b6000826102b857506000610210565b61020d6102db836102cf878763ffffffff6105a116565b9063ffffffff61060a16565b6102f385670de0b6b3a764000063ffffffff61064a16565b9063ffffffff6106a916565b600161030961089c565b81565b60008061031761089c565b906101000a90046001600160a01b031681565b6220148081565b60008061034c670de0b6b3a76400008463ffffffff61060a16565b9050600061035b8787876103ce565b9050600061037b670de0b6b3a76400006102f3848663ffffffff61064a16565b90506103a4670de0b6b3a76400006102f3836103988c8c8c6102a9565b9063ffffffff61064a16565b98975050505050505050565b600361030961089c565b600261030961089c565b600461030961089c565b6000806103dc8585856102a9565b905060046103e861089c565b81116104355761042d60026103fb61089c565b610421670de0b6b3a76400006102f3600161041461089c565b869063ffffffff61064a16565b9063ffffffff6105a116565b915050610210565b6000610467600261044461089c565b610421670de0b6b3a76400006102f3600161045d61089c565b600461039861089c565b90506000610485600461047861089c565b849063ffffffff61060a16565b90506104a482610421670de0b6b3a76400006102f3600361041461089c565b9350505050610210565b6104c1846220148063ffffffff6106a916565b8060026104cc610942565b506104e791506102db9050622014808363ffffffff61064a16565b8060016104f2610942565b5061050a91508390506220148063ffffffff6106a916565b806003610515610942565b5050508060048190610525610942565b5050507f6960ab234c7ef4b0c9197100f5393cfcde7c453ac910a27bd2000aa1dd4c068d600261055361089c565b600161055d61089c565b600361056761089c565b600461057161089c565b6040518085815260200184815260200183815260200182815260200194505050505060405180910390a150505050565b6000828201838110156106015760405162461bcd60e51b815260206004820152601b60248201527a536166654d6174683a206164646974696f6e206f766572666c6f7760281b6044820152606401604051809103906105fe610831565b50505b90505b92915050565b6000610601838360405160408082019052601f81527f536166654d6174683a207375627472616374696f6e20756e646572666c6f770060208201526106e6565b60008261065957506000610604565b8282028284828161066657fe5b04146106015760405162461bcd60e51b815260040180806020018281038252602181526020018061099160219139604001915050604051809103906105fe610831565b6000610601838360405160408082019052601a815279536166654d6174683a206469766973696f6e206279207a65726f60301b6020820152610786565b6000818484111561077e5760405162461bcd60e51b81526004018080602001828103825283818151815260200191508051906020019080838360005b8381101561073a578082015183820152602001610722565b50505050905090810190601f1680156107675780820380516001836020036101000a031916815260200191505b50925050506040518091039061077b610831565b50505b505050900390565b6000818361081b5760405162461bcd60e51b81526004018080602001828103825283818151815260200191508051906020019080838360005b838110156107d75780820151838201526020016107bf565b50505050905090810190601f1680156108045780820380516001836020036101000a031916815260200191505b509250505060405180910390610818610831565b50505b50600083858161082757fe5b0495945050505050565b632a2a7adb598160e01b8152600481016020815285602082015260005b8681101561086957808601518282016040015260200161084e565b506020828760640184336000905af158601d01573d60011458600c01573d6000803e3d621234565260ea61109c52505050565b6303daa959598160e01b8152836004820152602081602483336000905af158601d01573d60011458600c01573d6000803e3d621234565260ea61109c528051935060005b60408110156108f7576000828201526020016108e0565b505050565b6373509064598160e01b8152602081600483336000905af158601d01573d60011458600c01573d6000803e3d621234565260ea61109c52805160008252935060206108e0565b6322bd64c0598160e01b8152836004820152846024820152600081604483336000905af158601d01573d60011458600c01573d6000803e3d621234565260ea61109c526000815260206108e056fe536166654d6174683a206d756c7469706c69636174696f6e206f766572666c6f776f6e6c7920746865206f776e6572206d61792063616c6c20746869732066756e6374696f6e2e",
  "source": "pragma solidity ^0.5.16;\n\nimport \"./BaseJumpRateModelV2.sol\";\nimport \"./InterestRateModel.sol\";\n\n\n/**\n  * @title Compound's JumpRateModel Contract V2 for V2 cTokens\n  * @author Arr00\n  * @notice Supports only for V2 cTokens\n  */\ncontract JumpRateModelV2 is InterestRateModel, BaseJumpRateModelV2  {\n\n\t/**\n     * @notice Calculates the current borrow rate per block\n     * @param cash The amount of cash in the market\n     * @param borrows The amount of borrows in the market\n     * @param reserves The amount of reserves in the market\n     * @return The borrow rate percentage per block as a mantissa (scaled by 1e18)\n     */\n    function getBorrowRate(uint cash, uint borrows, uint reserves) external view returns (uint) {\n        return getBorrowRateInternal(cash, borrows, reserves);\n    }\n\n    constructor(uint baseRatePerYear, uint multiplierPerYear, uint jumpMultiplierPerYear, uint kink_, address owner_) \n    \tBaseJumpRateModelV2(baseRatePerYear,multiplierPerYear,jumpMultiplierPerYear,kink_,owner_) public {}\n}\n",
  "sourcePath": "/Users/jesusmeza/Developer/omgx/snapshot-optimism/omgx_examples/compound-protocol/contracts/JumpRateModelV2.sol",
  "compiler": {
    "name": "solc",
    "version": "0.5.16"
  },
  "schemaVersion": "3.4.3",
  "updatedAt": "2021-08-25T22:25:24.678Z",
  "devdoc": {
    "author": "Arr00",
    "methods": {
      "getBorrowRate(uint256,uint256,uint256)": {
        "params": {
          "borrows": "The amount of borrows in the market",
          "cash": "The amount of cash in the market",
          "reserves": "The amount of reserves in the market"
        },
        "return": "The borrow rate percentage per block as a mantissa (scaled by 1e18)"
      },
      "getSupplyRate(uint256,uint256,uint256,uint256)": {
        "params": {
          "borrows": "The amount of borrows in the market",
          "cash": "The amount of cash in the market",
          "reserveFactorMantissa": "The current reserve factor for the market",
          "reserves": "The amount of reserves in the market"
        },
        "return": "The supply rate percentage per block as a mantissa (scaled by 1e18)"
      },
      "updateJumpRateModel(uint256,uint256,uint256,uint256)": {
        "params": {
          "baseRatePerYear": "The approximate target base APR, as a mantissa (scaled by 1e18)",
          "jumpMultiplierPerYear": "The multiplierPerBlock after hitting a specified utilization point",
          "kink_": "The utilization point at which the jump multiplier is applied",
          "multiplierPerYear": "The rate of increase in interest rate wrt utilization (scaled by 1e18)"
        }
      },
      "utilizationRate(uint256,uint256,uint256)": {
        "params": {
          "borrows": "The amount of borrows in the market",
          "cash": "The amount of cash in the market",
          "reserves": "The amount of reserves in the market (currently unused)"
        },
        "return": "The utilization rate as a mantissa between [0, 1e18]"
      }
    },
    "title": "Compound's JumpRateModel Contract V2 for V2 cTokens"
  },
  "userdoc": {
    "methods": {
      "getBorrowRate(uint256,uint256,uint256)": {
        "notice": "Calculates the current borrow rate per block"
      },
      "getSupplyRate(uint256,uint256,uint256,uint256)": {
        "notice": "Calculates the current supply rate per block"
      },
      "updateJumpRateModel(uint256,uint256,uint256,uint256)": {
        "notice": "Update the parameters of the interest rate model (only callable by owner, i.e. Timelock)"
      },
      "utilizationRate(uint256,uint256,uint256)": {
        "notice": "Calculates the utilization rate of the market: `borrows / (cash + borrows - reserves)`"
      }
    },
    "notice": "Supports only for V2 cTokens"
  }
}