{
  "contractName": "JumpRateModel",
  "abi": [
    {
      "inputs": [
        {
          "internalType": "uint256",
          "name": "baseRatePerYear",
          "type": "uint256"
        },
        {
          "internalType": "uint256",
          "name": "multiplierPerYear",
          "type": "uint256"
        },
        {
          "internalType": "uint256",
          "name": "jumpMultiplierPerYear",
          "type": "uint256"
        },
        {
          "internalType": "uint256",
          "name": "kink_",
          "type": "uint256"
        }
      ],
      "payable": false,
      "stateMutability": "nonpayable",
      "type": "constructor"
    },
    {
      "anonymous": false,
      "inputs": [
        {
          "indexed": false,
          "internalType": "uint256",
          "name": "baseRatePerBlock",
          "type": "uint256"
        },
        {
          "indexed": false,
          "internalType": "uint256",
          "name": "multiplierPerBlock",
          "type": "uint256"
        },
        {
          "indexed": false,
          "internalType": "uint256",
          "name": "jumpMultiplierPerBlock",
          "type": "uint256"
        },
        {
          "indexed": false,
          "internalType": "uint256",
          "name": "kink",
          "type": "uint256"
        }
      ],
      "name": "NewInterestParams",
      "type": "event"
    },
    {
      "constant": true,
      "inputs": [],
      "name": "baseRatePerBlock",
      "outputs": [
        {
          "internalType": "uint256",
          "name": "",
          "type": "uint256"
        }
      ],
      "payable": false,
      "stateMutability": "view",
      "type": "function"
    },
    {
      "constant": true,
      "inputs": [],
      "name": "blocksPerYear",
      "outputs": [
        {
          "internalType": "uint256",
          "name": "",
          "type": "uint256"
        }
      ],
      "payable": false,
      "stateMutability": "view",
      "type": "function"
    },
    {
      "constant": true,
      "inputs": [],
      "name": "isInterestRateModel",
      "outputs": [
        {
          "internalType": "bool",
          "name": "",
          "type": "bool"
        }
      ],
      "payable": false,
      "stateMutability": "view",
      "type": "function"
    },
    {
      "constant": true,
      "inputs": [],
      "name": "jumpMultiplierPerBlock",
      "outputs": [
        {
          "internalType": "uint256",
          "name": "",
          "type": "uint256"
        }
      ],
      "payable": false,
      "stateMutability": "view",
      "type": "function"
    },
    {
      "constant": true,
      "inputs": [],
      "name": "kink",
      "outputs": [
        {
          "internalType": "uint256",
          "name": "",
          "type": "uint256"
        }
      ],
      "payable": false,
      "stateMutability": "view",
      "type": "function"
    },
    {
      "constant": true,
      "inputs": [],
      "name": "multiplierPerBlock",
      "outputs": [
        {
          "internalType": "uint256",
          "name": "",
          "type": "uint256"
        }
      ],
      "payable": false,
      "stateMutability": "view",
      "type": "function"
    },
    {
      "constant": true,
      "inputs": [
        {
          "internalType": "uint256",
          "name": "cash",
          "type": "uint256"
        },
        {
          "internalType": "uint256",
          "name": "borrows",
          "type": "uint256"
        },
        {
          "internalType": "uint256",
          "name": "reserves",
          "type": "uint256"
        }
      ],
      "name": "utilizationRate",
      "outputs": [
        {
          "internalType": "uint256",
          "name": "",
          "type": "uint256"
        }
      ],
      "payable": false,
      "stateMutability": "pure",
      "type": "function"
    },
    {
      "constant": true,
      "inputs": [
        {
          "internalType": "uint256",
          "name": "cash",
          "type": "uint256"
        },
        {
          "internalType": "uint256",
          "name": "borrows",
          "type": "uint256"
        },
        {
          "internalType": "uint256",
          "name": "reserves",
          "type": "uint256"
        }
      ],
      "name": "getBorrowRate",
      "outputs": [
        {
          "internalType": "uint256",
          "name": "",
          "type": "uint256"
        }
      ],
      "payable": false,
      "stateMutability": "view",
      "type": "function"
    },
    {
      "constant": true,
      "inputs": [
        {
          "internalType": "uint256",
          "name": "cash",
          "type": "uint256"
        },
        {
          "internalType": "uint256",
          "name": "borrows",
          "type": "uint256"
        },
        {
          "internalType": "uint256",
          "name": "reserves",
          "type": "uint256"
        },
        {
          "internalType": "uint256",
          "name": "reserveFactorMantissa",
          "type": "uint256"
        }
      ],
      "name": "getSupplyRate",
      "outputs": [
        {
          "internalType": "uint256",
          "name": "",
          "type": "uint256"
        }
      ],
      "payable": false,
      "stateMutability": "view",
      "type": "function"
    }
  ],
  "bytecode": "0x60806040523480156200001c576000806200001962000291565b50505b5060405162000abf38038062000abf833981810160405260808110156200004d576000806200004a62000291565b50505b81019080805192919060200180519291906020018051929190602001805192506200008c9150859050622014806200018d602090811b620003ee17901c565b80600162000099620002fe565b505050620000b962201480846200018d60201b620003ee1790919060201c565b806000620000c6620002fe565b505050620000e662201480836200018d60201b620003ee1790919060201c565b806002620000f3620002fe565b505050806003819062000105620002fe565b5050507f6960ab234c7ef4b0c9197100f5393cfcde7c453ac910a27bd2000aa1dd4c068d60016200013562000362565b60006200014162000362565b60026200014d62000362565b60036200015962000362565b6040518085815260200184815260200183815260200182815260200194505050505060405180910390a150505050620003af565b6000620001d8838360405160408082019052601a81527f536166654d6174683a206469766973696f6e206279207a65726f00000000000060208201526001600160e01b03620001df16565b9392505050565b600081836200027a5760405162461bcd60e51b81526004018080602001828103825283818151815260200191508051906020019080838360005b838110156200023357808201518382015260200162000219565b50505050905090810190601f168015620002615780820380516001836020036101000a031916815260200191505b5092505050604051809103906200027762000291565b50505b5060008385816200028757fe5b0495945050505050565b632a2a7adb598160e01b8152600481016020815285602082015260005b86811015620002cb578086015182820160400152602001620002ae565b506020828760640184336000905af158600e01573d6000803e3d6000fd5b3d6001141558600a015760016000f35b505050565b6322bd64c0598160e01b8152836004820152846024820152600081604483336000905af158600e01573d6000803e3d6000fd5b3d6001141558600a015760016000f35b60005b60408110156200035d5760008282015260200162000344565b505050565b6303daa959598160e01b8152836004820152602081602483336000905af158600e01573d6000803e3d6000fd5b3d6001141558600a015760016000f35b8051600082529350602062000344565b61070080620003bf6000396000f3fe608060405234801561001957600080610016610613565b50505b506004361061008c5760003560e01c806315f240531461009a5780632191f92a146100de5780636e71e2d8146100fa5780638726bb891461012c578063a385fb9614610134578063b81688161461013c578063b9f9850a14610174578063f14039de1461017c578063fd2da33914610184575b600080610097610613565b50505b6100cc600480360360608110156100b9576000806100b6610613565b50505b508035906020810135906040013561018c565b60405190815260200160405180910390f35b6100e6610287565b604051901515815260200160405180910390f35b6100cc6004803603606081101561011957600080610116610613565b50505b508035906020810135906040013561028c565b6100cc6102de565b6100cc6102eb565b6100cc6004803603608081101561015b57600080610158610613565b50505b50803590602081013590604081013590606001356102f2565b6100cc610365565b6100cc61036f565b6100cc610379565b60008061019a85858561028c565b905060036101a661067e565b81116101ff576101f760016101b961067e565b6101eb670de0b6b3a76400006101df60006101d261067e565b869063ffffffff61038316565b9063ffffffff6103ee16565b9063ffffffff61042b16565b915050610280565b600061023d600161020e61067e565b6101eb670de0b6b3a76400006101df600061022761067e565b600361023161067e565b9063ffffffff61038316565b9050600061025b600361024e61067e565b849063ffffffff61048816565b905061027a826101eb670de0b6b3a76400006101df60026101d261067e565b93505050505b9392505050565b600181565b60008261029b57506000610280565b6102d66102be836102b2878763ffffffff61042b16565b9063ffffffff61048816565b6101df85670de0b6b3a764000063ffffffff61038316565b949350505050565b60006102e861067e565b81565b6220148081565b60008061030d670de0b6b3a76400008463ffffffff61048816565b9050600061031c87878761018c565b9050600061033c670de0b6b3a76400006101df848663ffffffff61038316565b9050610359670de0b6b3a76400006101df836102318c8c8c61028c565b98975050505050505050565b60026102e861067e565b60016102e861067e565b60036102e861067e565b600082610392575060006103e8565b8282028284828161039f57fe5b04146103e55760405162461bcd60e51b81526004018080602001828103825260218152602001806106df60219139604001915050604051809103906103e2610613565b50505b90505b92915050565b60006103e5838360405160408082019052601a815279536166654d6174683a206469766973696f6e206279207a65726f60301b60208201526104c8565b6000828201838110156103e55760405162461bcd60e51b815260206004820152601b60248201527a536166654d6174683a206164646974696f6e206f766572666c6f7760281b6044820152606401604051809103906103e2610613565b60006103e5838360405160408082019052601f81527f536166654d6174683a207375627472616374696f6e20756e646572666c6f77006020820152610573565b6000818361055d5760405162461bcd60e51b81526004018080602001828103825283818151815260200191508051906020019080838360005b83811015610519578082015183820152602001610501565b50505050905090810190601f1680156105465780820380516001836020036101000a031916815260200191505b50925050506040518091039061055a610613565b50505b50600083858161056957fe5b0495945050505050565b6000818484111561060b5760405162461bcd60e51b81526004018080602001828103825283818151815260200191508051906020019080838360005b838110156105c75780820151838201526020016105af565b50505050905090810190601f1680156105f45780820380516001836020036101000a031916815260200191505b509250505060405180910390610608610613565b50505b505050900390565b632a2a7adb598160e01b8152600481016020815285602082015260005b8681101561064b578086015182820160400152602001610630565b506020828760640184336000905af158600e01573d6000803e3d6000fd5b3d6001141558600a015760016000f35b505050565b6303daa959598160e01b8152836004820152602081602483336000905af158600e01573d6000803e3d6000fd5b3d6001141558600a015760016000f35b8051935060005b60408110156106d9576000828201526020016106c2565b50505056fe536166654d6174683a206d756c7469706c69636174696f6e206f766572666c6f77",
  "deployedBytecode": "0x608060405234801561001957600080610016610613565b50505b506004361061008c5760003560e01c806315f240531461009a5780632191f92a146100de5780636e71e2d8146100fa5780638726bb891461012c578063a385fb9614610134578063b81688161461013c578063b9f9850a14610174578063f14039de1461017c578063fd2da33914610184575b600080610097610613565b50505b6100cc600480360360608110156100b9576000806100b6610613565b50505b508035906020810135906040013561018c565b60405190815260200160405180910390f35b6100e6610287565b604051901515815260200160405180910390f35b6100cc6004803603606081101561011957600080610116610613565b50505b508035906020810135906040013561028c565b6100cc6102de565b6100cc6102eb565b6100cc6004803603608081101561015b57600080610158610613565b50505b50803590602081013590604081013590606001356102f2565b6100cc610365565b6100cc61036f565b6100cc610379565b60008061019a85858561028c565b905060036101a661067e565b81116101ff576101f760016101b961067e565b6101eb670de0b6b3a76400006101df60006101d261067e565b869063ffffffff61038316565b9063ffffffff6103ee16565b9063ffffffff61042b16565b915050610280565b600061023d600161020e61067e565b6101eb670de0b6b3a76400006101df600061022761067e565b600361023161067e565b9063ffffffff61038316565b9050600061025b600361024e61067e565b849063ffffffff61048816565b905061027a826101eb670de0b6b3a76400006101df60026101d261067e565b93505050505b9392505050565b600181565b60008261029b57506000610280565b6102d66102be836102b2878763ffffffff61042b16565b9063ffffffff61048816565b6101df85670de0b6b3a764000063ffffffff61038316565b949350505050565b60006102e861067e565b81565b6220148081565b60008061030d670de0b6b3a76400008463ffffffff61048816565b9050600061031c87878761018c565b9050600061033c670de0b6b3a76400006101df848663ffffffff61038316565b9050610359670de0b6b3a76400006101df836102318c8c8c61028c565b98975050505050505050565b60026102e861067e565b60016102e861067e565b60036102e861067e565b600082610392575060006103e8565b8282028284828161039f57fe5b04146103e55760405162461bcd60e51b81526004018080602001828103825260218152602001806106df60219139604001915050604051809103906103e2610613565b50505b90505b92915050565b60006103e5838360405160408082019052601a815279536166654d6174683a206469766973696f6e206279207a65726f60301b60208201526104c8565b6000828201838110156103e55760405162461bcd60e51b815260206004820152601b60248201527a536166654d6174683a206164646974696f6e206f766572666c6f7760281b6044820152606401604051809103906103e2610613565b60006103e5838360405160408082019052601f81527f536166654d6174683a207375627472616374696f6e20756e646572666c6f77006020820152610573565b6000818361055d5760405162461bcd60e51b81526004018080602001828103825283818151815260200191508051906020019080838360005b83811015610519578082015183820152602001610501565b50505050905090810190601f1680156105465780820380516001836020036101000a031916815260200191505b50925050506040518091039061055a610613565b50505b50600083858161056957fe5b0495945050505050565b6000818484111561060b5760405162461bcd60e51b81526004018080602001828103825283818151815260200191508051906020019080838360005b838110156105c75780820151838201526020016105af565b50505050905090810190601f1680156105f45780820380516001836020036101000a031916815260200191505b509250505060405180910390610608610613565b50505b505050900390565b632a2a7adb598160e01b8152600481016020815285602082015260005b8681101561064b578086015182820160400152602001610630565b506020828760640184336000905af158601d01573d60011458600c01573d6000803e3d621234565260ea61109c52505050565b6303daa959598160e01b8152836004820152602081602483336000905af158601d01573d60011458600c01573d6000803e3d621234565260ea61109c528051935060005b60408110156106d9576000828201526020016106c2565b50505056fe536166654d6174683a206d756c7469706c69636174696f6e206f766572666c6f77",
  "source": "pragma solidity ^0.5.16;\n\nimport \"./InterestRateModel.sol\";\nimport \"./SafeMath.sol\";\n\n/**\n  * @title Compound's JumpRateModel Contract\n  * @author Compound\n  */\ncontract JumpRateModel is InterestRateModel {\n    using SafeMath for uint;\n\n    event NewInterestParams(uint baseRatePerBlock, uint multiplierPerBlock, uint jumpMultiplierPerBlock, uint kink);\n\n    /**\n     * @notice The approximate number of blocks per year that is assumed by the interest rate model\n     */\n    uint public constant blocksPerYear = 2102400;\n\n    /**\n     * @notice The multiplier of utilization rate that gives the slope of the interest rate\n     */\n    uint public multiplierPerBlock;\n\n    /**\n     * @notice The base interest rate which is the y-intercept when utilization rate is 0\n     */\n    uint public baseRatePerBlock;\n\n    /**\n     * @notice The multiplierPerBlock after hitting a specified utilization point\n     */\n    uint public jumpMultiplierPerBlock;\n\n    /**\n     * @notice The utilization point at which the jump multiplier is applied\n     */\n    uint public kink;\n\n    /**\n     * @notice Construct an interest rate model\n     * @param baseRatePerYear The approximate target base APR, as a mantissa (scaled by 1e18)\n     * @param multiplierPerYear The rate of increase in interest rate wrt utilization (scaled by 1e18)\n     * @param jumpMultiplierPerYear The multiplierPerBlock after hitting a specified utilization point\n     * @param kink_ The utilization point at which the jump multiplier is applied\n     */\n    constructor(uint baseRatePerYear, uint multiplierPerYear, uint jumpMultiplierPerYear, uint kink_) public {\n        baseRatePerBlock = baseRatePerYear.div(blocksPerYear);\n        multiplierPerBlock = multiplierPerYear.div(blocksPerYear);\n        jumpMultiplierPerBlock = jumpMultiplierPerYear.div(blocksPerYear);\n        kink = kink_;\n\n        emit NewInterestParams(baseRatePerBlock, multiplierPerBlock, jumpMultiplierPerBlock, kink);\n    }\n\n    /**\n     * @notice Calculates the utilization rate of the market: `borrows / (cash + borrows - reserves)`\n     * @param cash The amount of cash in the market\n     * @param borrows The amount of borrows in the market\n     * @param reserves The amount of reserves in the market (currently unused)\n     * @return The utilization rate as a mantissa between [0, 1e18]\n     */\n    function utilizationRate(uint cash, uint borrows, uint reserves) public pure returns (uint) {\n        // Utilization rate is 0 when there are no borrows\n        if (borrows == 0) {\n            return 0;\n        }\n\n        return borrows.mul(1e18).div(cash.add(borrows).sub(reserves));\n    }\n\n    /**\n     * @notice Calculates the current borrow rate per block, with the error code expected by the market\n     * @param cash The amount of cash in the market\n     * @param borrows The amount of borrows in the market\n     * @param reserves The amount of reserves in the market\n     * @return The borrow rate percentage per block as a mantissa (scaled by 1e18)\n     */\n    function getBorrowRate(uint cash, uint borrows, uint reserves) public view returns (uint) {\n        uint util = utilizationRate(cash, borrows, reserves);\n\n        if (util <= kink) {\n            return util.mul(multiplierPerBlock).div(1e18).add(baseRatePerBlock);\n        } else {\n            uint normalRate = kink.mul(multiplierPerBlock).div(1e18).add(baseRatePerBlock);\n            uint excessUtil = util.sub(kink);\n            return excessUtil.mul(jumpMultiplierPerBlock).div(1e18).add(normalRate);\n        }\n    }\n\n    /**\n     * @notice Calculates the current supply rate per block\n     * @param cash The amount of cash in the market\n     * @param borrows The amount of borrows in the market\n     * @param reserves The amount of reserves in the market\n     * @param reserveFactorMantissa The current reserve factor for the market\n     * @return The supply rate percentage per block as a mantissa (scaled by 1e18)\n     */\n    function getSupplyRate(uint cash, uint borrows, uint reserves, uint reserveFactorMantissa) public view returns (uint) {\n        uint oneMinusReserveFactor = uint(1e18).sub(reserveFactorMantissa);\n        uint borrowRate = getBorrowRate(cash, borrows, reserves);\n        uint rateToPool = borrowRate.mul(oneMinusReserveFactor).div(1e18);\n        return utilizationRate(cash, borrows, reserves).mul(rateToPool).div(1e18);\n    }\n}\n",
  "sourcePath": "/Users/jesusmeza/Developer/omgx/snapshot-optimism/omgx_examples/compound-protocol/contracts/JumpRateModel.sol",
  "compiler": {
    "name": "solc",
    "version": "0.5.16"
  },
  "schemaVersion": "3.4.3",
  "updatedAt": "2021-08-25T22:25:24.676Z",
  "devdoc": {
    "author": "Compound",
    "methods": {
      "constructor": {
        "params": {
          "baseRatePerYear": "The approximate target base APR, as a mantissa (scaled by 1e18)",
          "jumpMultiplierPerYear": "The multiplierPerBlock after hitting a specified utilization point",
          "kink_": "The utilization point at which the jump multiplier is applied",
          "multiplierPerYear": "The rate of increase in interest rate wrt utilization (scaled by 1e18)"
        }
      },
      "getBorrowRate(uint256,uint256,uint256)": {
        "params": {
          "borrows": "The amount of borrows in the market",
          "cash": "The amount of cash in the market",
          "reserves": "The amount of reserves in the market"
        },
        "return": "The borrow rate percentage per block as a mantissa (scaled by 1e18)"
      },
      "getSupplyRate(uint256,uint256,uint256,uint256)": {
        "params": {
          "borrows": "The amount of borrows in the market",
          "cash": "The amount of cash in the market",
          "reserveFactorMantissa": "The current reserve factor for the market",
          "reserves": "The amount of reserves in the market"
        },
        "return": "The supply rate percentage per block as a mantissa (scaled by 1e18)"
      },
      "utilizationRate(uint256,uint256,uint256)": {
        "params": {
          "borrows": "The amount of borrows in the market",
          "cash": "The amount of cash in the market",
          "reserves": "The amount of reserves in the market (currently unused)"
        },
        "return": "The utilization rate as a mantissa between [0, 1e18]"
      }
    },
    "title": "Compound's JumpRateModel Contract"
  },
  "userdoc": {
    "methods": {
      "constructor": "Construct an interest rate model",
      "getBorrowRate(uint256,uint256,uint256)": {
        "notice": "Calculates the current borrow rate per block, with the error code expected by the market"
      },
      "getSupplyRate(uint256,uint256,uint256,uint256)": {
        "notice": "Calculates the current supply rate per block"
      },
      "utilizationRate(uint256,uint256,uint256)": {
        "notice": "Calculates the utilization rate of the market: `borrows / (cash + borrows - reserves)`"
      }
    }
  }
}