{
  "contractName": "LegacyJumpRateModelV2",
  "abi": [
    {
      "inputs": [
        {
          "internalType": "uint256",
          "name": "baseRatePerYear",
          "type": "uint256"
        },
        {
          "internalType": "uint256",
          "name": "multiplierPerYear",
          "type": "uint256"
        },
        {
          "internalType": "uint256",
          "name": "jumpMultiplierPerYear",
          "type": "uint256"
        },
        {
          "internalType": "uint256",
          "name": "kink_",
          "type": "uint256"
        },
        {
          "internalType": "address",
          "name": "owner_",
          "type": "address"
        }
      ],
      "payable": false,
      "stateMutability": "nonpayable",
      "type": "constructor"
    },
    {
      "anonymous": false,
      "inputs": [
        {
          "indexed": false,
          "internalType": "uint256",
          "name": "baseRatePerBlock",
          "type": "uint256"
        },
        {
          "indexed": false,
          "internalType": "uint256",
          "name": "multiplierPerBlock",
          "type": "uint256"
        },
        {
          "indexed": false,
          "internalType": "uint256",
          "name": "jumpMultiplierPerBlock",
          "type": "uint256"
        },
        {
          "indexed": false,
          "internalType": "uint256",
          "name": "kink",
          "type": "uint256"
        }
      ],
      "name": "NewInterestParams",
      "type": "event"
    },
    {
      "constant": true,
      "inputs": [],
      "name": "baseRatePerBlock",
      "outputs": [
        {
          "internalType": "uint256",
          "name": "",
          "type": "uint256"
        }
      ],
      "payable": false,
      "stateMutability": "view",
      "type": "function"
    },
    {
      "constant": true,
      "inputs": [],
      "name": "blocksPerYear",
      "outputs": [
        {
          "internalType": "uint256",
          "name": "",
          "type": "uint256"
        }
      ],
      "payable": false,
      "stateMutability": "view",
      "type": "function"
    },
    {
      "constant": true,
      "inputs": [
        {
          "internalType": "uint256",
          "name": "cash",
          "type": "uint256"
        },
        {
          "internalType": "uint256",
          "name": "borrows",
          "type": "uint256"
        },
        {
          "internalType": "uint256",
          "name": "reserves",
          "type": "uint256"
        },
        {
          "internalType": "uint256",
          "name": "reserveFactorMantissa",
          "type": "uint256"
        }
      ],
      "name": "getSupplyRate",
      "outputs": [
        {
          "internalType": "uint256",
          "name": "",
          "type": "uint256"
        }
      ],
      "payable": false,
      "stateMutability": "view",
      "type": "function"
    },
    {
      "constant": true,
      "inputs": [],
      "name": "isInterestRateModel",
      "outputs": [
        {
          "internalType": "bool",
          "name": "",
          "type": "bool"
        }
      ],
      "payable": false,
      "stateMutability": "view",
      "type": "function"
    },
    {
      "constant": true,
      "inputs": [],
      "name": "jumpMultiplierPerBlock",
      "outputs": [
        {
          "internalType": "uint256",
          "name": "",
          "type": "uint256"
        }
      ],
      "payable": false,
      "stateMutability": "view",
      "type": "function"
    },
    {
      "constant": true,
      "inputs": [],
      "name": "kink",
      "outputs": [
        {
          "internalType": "uint256",
          "name": "",
          "type": "uint256"
        }
      ],
      "payable": false,
      "stateMutability": "view",
      "type": "function"
    },
    {
      "constant": true,
      "inputs": [],
      "name": "multiplierPerBlock",
      "outputs": [
        {
          "internalType": "uint256",
          "name": "",
          "type": "uint256"
        }
      ],
      "payable": false,
      "stateMutability": "view",
      "type": "function"
    },
    {
      "constant": true,
      "inputs": [],
      "name": "owner",
      "outputs": [
        {
          "internalType": "address",
          "name": "",
          "type": "address"
        }
      ],
      "payable": false,
      "stateMutability": "view",
      "type": "function"
    },
    {
      "constant": false,
      "inputs": [
        {
          "internalType": "uint256",
          "name": "baseRatePerYear",
          "type": "uint256"
        },
        {
          "internalType": "uint256",
          "name": "multiplierPerYear",
          "type": "uint256"
        },
        {
          "internalType": "uint256",
          "name": "jumpMultiplierPerYear",
          "type": "uint256"
        },
        {
          "internalType": "uint256",
          "name": "kink_",
          "type": "uint256"
        }
      ],
      "name": "updateJumpRateModel",
      "outputs": [],
      "payable": false,
      "stateMutability": "nonpayable",
      "type": "function"
    },
    {
      "constant": true,
      "inputs": [
        {
          "internalType": "uint256",
          "name": "cash",
          "type": "uint256"
        },
        {
          "internalType": "uint256",
          "name": "borrows",
          "type": "uint256"
        },
        {
          "internalType": "uint256",
          "name": "reserves",
          "type": "uint256"
        }
      ],
      "name": "utilizationRate",
      "outputs": [
        {
          "internalType": "uint256",
          "name": "",
          "type": "uint256"
        }
      ],
      "payable": false,
      "stateMutability": "pure",
      "type": "function"
    },
    {
      "constant": true,
      "inputs": [
        {
          "internalType": "uint256",
          "name": "cash",
          "type": "uint256"
        },
        {
          "internalType": "uint256",
          "name": "borrows",
          "type": "uint256"
        },
        {
          "internalType": "uint256",
          "name": "reserves",
          "type": "uint256"
        }
      ],
      "name": "getBorrowRate",
      "outputs": [
        {
          "internalType": "uint256",
          "name": "",
          "type": "uint256"
        },
        {
          "internalType": "uint256",
          "name": "",
          "type": "uint256"
        }
      ],
      "payable": false,
      "stateMutability": "view",
      "type": "function"
    }
  ],
  "bytecode": "0x60806040523480156200001c5760008062000019620003a2565b50505b5060405162000ef038038062000ef0833981810160405260a08110156200004d576000806200004a620003a2565b50505b810190808051929190602001805192919060200180519291906020018051929190602001805192508691508590508484848060006001816200008e6200040f565b816001600160a01b0302191690836001600160a01b0316021790620000b262000471565b505050620000c985858585620000d960201b60201c565b50505050505050505050620004c0565b620000f662201480856200022d60201b620006d01790919060201c565b8060026200010362000471565b5050506200015d6200012782622014806200028160201b620006711790919060201c565b62000149670de0b6b3a7640000866200028160201b620006711790919060201c565b6200022d60201b620006d01790919060201c565b8060016200016a62000471565b5050506200018a62201480836200022d60201b620006d01790919060201c565b8060036200019762000471565b5050508060048190620001a962000471565b5050507f6960ab234c7ef4b0c9197100f5393cfcde7c453ac910a27bd2000aa1dd4c068d6002620001d96200040f565b6001620001e56200040f565b6003620001f16200040f565b6004620001fd6200040f565b6040518085815260200184815260200183815260200182815260200194505050505060405180910390a150505050565b600062000278838360405160408082019052601a81527f536166654d6174683a206469766973696f6e206279207a65726f00000000000060208201526001600160e01b03620002f016565b90505b92915050565b60008262000292575060006200027b565b82820282848281620002a057fe5b0414620002785760405162461bcd60e51b815260040180806020018281038252602181526020018062000ecf6021913960400191505060405180910390620002e7620003a2565b50509392505050565b600081836200038b5760405162461bcd60e51b81526004018080602001828103825283818151815260200191508051906020019080838360005b83811015620003445780820151838201526020016200032a565b50505050905090810190601f168015620003725780820380516001836020036101000a031916815260200191505b50925050506040518091039062000388620003a2565b50505b5060008385816200039857fe5b0495945050505050565b632a2a7adb598160e01b8152600481016020815285602082015260005b86811015620003dc578086015182820160400152602001620003bf565b506020828760640184336000905af158600e01573d6000803e3d6000fd5b3d6001141558600a015760016000f35b505050565b6303daa959598160e01b8152836004820152602081602483336000905af158600e01573d6000803e3d6000fd5b3d6001141558600a015760016000f35b8051935060005b60408110156200046c5760008282015260200162000453565b505050565b6322bd64c0598160e01b8152836004820152846024820152600081604483336000905af158600e01573d6000803e3d6000fd5b3d6001141558600a015760016000f35b60008152602062000453565b6109ff80620004d06000396000f3fe608060405234801561001957600080610016610858565b50505b50600436106100a25760003560e01c806315f24053146100b05780632037f3e7146100fa5780632191f92a146101345780636e71e2d8146101505780638726bb89146101945780638da5cb5b1461019c578063a385fb96146101c0578063b8168816146101c8578063b9f9850a14610200578063f14039de14610208578063fd2da33914610210575b6000806100ad610858565b50505b6100e2600480360360608110156100cf576000806100cc610858565b50505b5080359060208101359060400135610218565b60405191825260208201526040908101905180910390f35b6101326004803603608081101561011957600080610116610858565b50505b5080359060208101359060408101359060600135610234565b005b61013c6102c1565b604051901515815260200160405180910390f35b6101826004803603606081101561016f5760008061016c610858565b50505b50803590602081013590604001356102c6565b60405190815260200160405180910390f35b610182610326565b6101a4610333565b6040516001600160a01b03909116815260200160405180910390f35b610182610351565b610182600480360360808110156101e7576000806101e4610858565b50505b5080359060208101359060408101359060600135610358565b6101826103d7565b6101826103e1565b6101826103eb565b60008060006102288686866103f5565b90969095509350505050565b60008061023f6108c3565b906101000a90046001600160a01b03166001600160a01b03165a610261610923565b6001600160a01b0316146102af5760405162461bcd60e51b81526004018080602001828103825260268152602001806109d960269139604001915050604051809103906102ac610858565b50505b6102bb848484846104d5565b50505050565b600181565b6000826102d55750600061031f565b61031c6102f8836102ec878763ffffffff6105c816565b9063ffffffff61063116565b61031085670de0b6b3a764000063ffffffff61067116565b9063ffffffff6106d016565b90505b9392505050565b60016103306108c3565b81565b60008061033e6108c3565b906101000a90046001600160a01b031681565b6220148081565b600080610373670de0b6b3a76400008463ffffffff61063116565b905060006103828787876103f5565b905060006103a2670de0b6b3a7640000610310848663ffffffff61067116565b90506103cb670de0b6b3a7640000610310836103bf8c8c8c6102c6565b9063ffffffff61067116565b98975050505050505050565b60036103306108c3565b60026103306108c3565b60046103306108c3565b6000806104038585856102c6565b9050600461040f6108c3565b811161045c5761045460026104226108c3565b610448670de0b6b3a7640000610310600161043b6108c3565b869063ffffffff61067116565b9063ffffffff6105c816565b91505061031f565b600061048e600261046b6108c3565b610448670de0b6b3a764000061031060016104846108c3565b60046103bf6108c3565b905060006104ac600461049f6108c3565b849063ffffffff61063116565b90506104cb82610448670de0b6b3a7640000610310600361043b6108c3565b935050505061031f565b6104e8846220148063ffffffff6106d016565b8060026104f3610969565b5061050e91506102f89050622014808363ffffffff61067116565b806001610519610969565b5061053191508390506220148063ffffffff6106d016565b80600361053c610969565b505050806004819061054c610969565b5050507f6960ab234c7ef4b0c9197100f5393cfcde7c453ac910a27bd2000aa1dd4c068d600261057a6108c3565b60016105846108c3565b600361058e6108c3565b60046105986108c3565b6040518085815260200184815260200183815260200182815260200194505050505060405180910390a150505050565b6000828201838110156106285760405162461bcd60e51b815260206004820152601b60248201527a536166654d6174683a206164646974696f6e206f766572666c6f7760281b604482015260640160405180910390610625610858565b50505b90505b92915050565b6000610628838360405160408082019052601f81527f536166654d6174683a207375627472616374696f6e20756e646572666c6f7700602082015261070d565b6000826106805750600061062b565b8282028284828161068d57fe5b04146106285760405162461bcd60e51b81526004018080602001828103825260218152602001806109b86021913960400191505060405180910390610625610858565b6000610628838360405160408082019052601a815279536166654d6174683a206469766973696f6e206279207a65726f60301b60208201526107ad565b600081848411156107a55760405162461bcd60e51b81526004018080602001828103825283818151815260200191508051906020019080838360005b83811015610761578082015183820152602001610749565b50505050905090810190601f16801561078e5780820380516001836020036101000a031916815260200191505b5092505050604051809103906107a2610858565b50505b505050900390565b600081836108425760405162461bcd60e51b81526004018080602001828103825283818151815260200191508051906020019080838360005b838110156107fe5780820151838201526020016107e6565b50505050905090810190601f16801561082b5780820380516001836020036101000a031916815260200191505b50925050506040518091039061083f610858565b50505b50600083858161084e57fe5b0495945050505050565b632a2a7adb598160e01b8152600481016020815285602082015260005b86811015610890578086015182820160400152602001610875565b506020828760640184336000905af158600e01573d6000803e3d6000fd5b3d6001141558600a015760016000f35b505050565b6303daa959598160e01b8152836004820152602081602483336000905af158600e01573d6000803e3d6000fd5b3d6001141558600a015760016000f35b8051935060005b604081101561091e57600082820152602001610907565b505050565b6373509064598160e01b8152602081600483336000905af158600e01573d6000803e3d6000fd5b3d6001141558600a015760016000f35b80516000825293506020610907565b6322bd64c0598160e01b8152836004820152846024820152600081604483336000905af158600e01573d6000803e3d6000fd5b3d6001141558600a015760016000f35b60008152602061090756fe536166654d6174683a206d756c7469706c69636174696f6e206f766572666c6f776f6e6c7920746865206f776e6572206d61792063616c6c20746869732066756e6374696f6e2e536166654d6174683a206d756c7469706c69636174696f6e206f766572666c6f77",
  "deployedBytecode": "0x608060405234801561001957600080610016610858565b50505b50600436106100a25760003560e01c806315f24053146100b05780632037f3e7146100fa5780632191f92a146101345780636e71e2d8146101505780638726bb89146101945780638da5cb5b1461019c578063a385fb96146101c0578063b8168816146101c8578063b9f9850a14610200578063f14039de14610208578063fd2da33914610210575b6000806100ad610858565b50505b6100e2600480360360608110156100cf576000806100cc610858565b50505b5080359060208101359060400135610218565b60405191825260208201526040908101905180910390f35b6101326004803603608081101561011957600080610116610858565b50505b5080359060208101359060408101359060600135610234565b005b61013c6102c1565b604051901515815260200160405180910390f35b6101826004803603606081101561016f5760008061016c610858565b50505b50803590602081013590604001356102c6565b60405190815260200160405180910390f35b610182610326565b6101a4610333565b6040516001600160a01b03909116815260200160405180910390f35b610182610351565b610182600480360360808110156101e7576000806101e4610858565b50505b5080359060208101359060408101359060600135610358565b6101826103d7565b6101826103e1565b6101826103eb565b60008060006102288686866103f5565b90969095509350505050565b60008061023f6108c3565b906101000a90046001600160a01b03166001600160a01b03165a610261610923565b6001600160a01b0316146102af5760405162461bcd60e51b81526004018080602001828103825260268152602001806109d960269139604001915050604051809103906102ac610858565b50505b6102bb848484846104d5565b50505050565b600181565b6000826102d55750600061031f565b61031c6102f8836102ec878763ffffffff6105c816565b9063ffffffff61063116565b61031085670de0b6b3a764000063ffffffff61067116565b9063ffffffff6106d016565b90505b9392505050565b60016103306108c3565b81565b60008061033e6108c3565b906101000a90046001600160a01b031681565b6220148081565b600080610373670de0b6b3a76400008463ffffffff61063116565b905060006103828787876103f5565b905060006103a2670de0b6b3a7640000610310848663ffffffff61067116565b90506103cb670de0b6b3a7640000610310836103bf8c8c8c6102c6565b9063ffffffff61067116565b98975050505050505050565b60036103306108c3565b60026103306108c3565b60046103306108c3565b6000806104038585856102c6565b9050600461040f6108c3565b811161045c5761045460026104226108c3565b610448670de0b6b3a7640000610310600161043b6108c3565b869063ffffffff61067116565b9063ffffffff6105c816565b91505061031f565b600061048e600261046b6108c3565b610448670de0b6b3a764000061031060016104846108c3565b60046103bf6108c3565b905060006104ac600461049f6108c3565b849063ffffffff61063116565b90506104cb82610448670de0b6b3a7640000610310600361043b6108c3565b935050505061031f565b6104e8846220148063ffffffff6106d016565b8060026104f3610969565b5061050e91506102f89050622014808363ffffffff61067116565b806001610519610969565b5061053191508390506220148063ffffffff6106d016565b80600361053c610969565b505050806004819061054c610969565b5050507f6960ab234c7ef4b0c9197100f5393cfcde7c453ac910a27bd2000aa1dd4c068d600261057a6108c3565b60016105846108c3565b600361058e6108c3565b60046105986108c3565b6040518085815260200184815260200183815260200182815260200194505050505060405180910390a150505050565b6000828201838110156106285760405162461bcd60e51b815260206004820152601b60248201527a536166654d6174683a206164646974696f6e206f766572666c6f7760281b604482015260640160405180910390610625610858565b50505b90505b92915050565b6000610628838360405160408082019052601f81527f536166654d6174683a207375627472616374696f6e20756e646572666c6f7700602082015261070d565b6000826106805750600061062b565b8282028284828161068d57fe5b04146106285760405162461bcd60e51b81526004018080602001828103825260218152602001806109b86021913960400191505060405180910390610625610858565b6000610628838360405160408082019052601a815279536166654d6174683a206469766973696f6e206279207a65726f60301b60208201526107ad565b600081848411156107a55760405162461bcd60e51b81526004018080602001828103825283818151815260200191508051906020019080838360005b83811015610761578082015183820152602001610749565b50505050905090810190601f16801561078e5780820380516001836020036101000a031916815260200191505b5092505050604051809103906107a2610858565b50505b505050900390565b600081836108425760405162461bcd60e51b81526004018080602001828103825283818151815260200191508051906020019080838360005b838110156107fe5780820151838201526020016107e6565b50505050905090810190601f16801561082b5780820380516001836020036101000a031916815260200191505b50925050506040518091039061083f610858565b50505b50600083858161084e57fe5b0495945050505050565b632a2a7adb598160e01b8152600481016020815285602082015260005b86811015610890578086015182820160400152602001610875565b506020828760640184336000905af158601d01573d60011458600c01573d6000803e3d621234565260ea61109c52505050565b6303daa959598160e01b8152836004820152602081602483336000905af158601d01573d60011458600c01573d6000803e3d621234565260ea61109c528051935060005b604081101561091e57600082820152602001610907565b505050565b6373509064598160e01b8152602081600483336000905af158601d01573d60011458600c01573d6000803e3d621234565260ea61109c5280516000825293506020610907565b6322bd64c0598160e01b8152836004820152846024820152600081604483336000905af158601d01573d60011458600c01573d6000803e3d621234565260ea61109c5260008152602061090756fe536166654d6174683a206d756c7469706c69636174696f6e206f766572666c6f776f6e6c7920746865206f776e6572206d61792063616c6c20746869732066756e6374696f6e2e",
  "source": "pragma solidity ^0.5.16;\n\nimport \"./BaseJumpRateModelV2.sol\";\nimport \"./LegacyInterestRateModel.sol\";\n\n\n/**\n  * @title Compound's JumpRateModel Contract V2 for legacy cTokens\n  * @author Arr00\n  * @notice Supports only legacy cTokens\n  */\ncontract LegacyJumpRateModelV2 is LegacyInterestRateModel, BaseJumpRateModelV2  {\n\n\t/**\n     * @notice Calculates the current borrow rate per block, with the error code expected by the market\n     * @param cash The amount of cash in the market\n     * @param borrows The amount of borrows in the market\n     * @param reserves The amount of reserves in the market\n     * @return (Error, The borrow rate percentage per block as a mantissa (scaled by 1e18))\n     */\n    function getBorrowRate(uint cash, uint borrows, uint reserves) external view returns (uint, uint) {\n        return (0,getBorrowRateInternal(cash, borrows, reserves));\n    }\n    \n    constructor(uint baseRatePerYear, uint multiplierPerYear, uint jumpMultiplierPerYear, uint kink_, address owner_) \n    \tBaseJumpRateModelV2(baseRatePerYear,multiplierPerYear,jumpMultiplierPerYear,kink_,owner_) public {}\n}\n",
  "sourcePath": "/Users/jesusmeza/Developer/omgx/snapshot-optimism/omgx_examples/compound-protocol/contracts/LegacyJumpRateModelV2.sol",
  "compiler": {
    "name": "solc",
    "version": "0.5.16"
  },
  "schemaVersion": "3.4.3",
  "updatedAt": "2021-08-25T22:25:24.679Z",
  "devdoc": {
    "author": "Arr00",
    "methods": {
      "getBorrowRate(uint256,uint256,uint256)": {
        "params": {
          "borrows": "The amount of borrows in the market",
          "cash": "The amount of cash in the market",
          "reserves": "The amount of reserves in the market"
        },
        "return": "(Error, The borrow rate percentage per block as a mantissa (scaled by 1e18))"
      },
      "getSupplyRate(uint256,uint256,uint256,uint256)": {
        "params": {
          "borrows": "The amount of borrows in the market",
          "cash": "The amount of cash in the market",
          "reserveFactorMantissa": "The current reserve factor for the market",
          "reserves": "The amount of reserves in the market"
        },
        "return": "The supply rate percentage per block as a mantissa (scaled by 1e18)"
      },
      "updateJumpRateModel(uint256,uint256,uint256,uint256)": {
        "params": {
          "baseRatePerYear": "The approximate target base APR, as a mantissa (scaled by 1e18)",
          "jumpMultiplierPerYear": "The multiplierPerBlock after hitting a specified utilization point",
          "kink_": "The utilization point at which the jump multiplier is applied",
          "multiplierPerYear": "The rate of increase in interest rate wrt utilization (scaled by 1e18)"
        }
      },
      "utilizationRate(uint256,uint256,uint256)": {
        "params": {
          "borrows": "The amount of borrows in the market",
          "cash": "The amount of cash in the market",
          "reserves": "The amount of reserves in the market (currently unused)"
        },
        "return": "The utilization rate as a mantissa between [0, 1e18]"
      }
    },
    "title": "Compound's JumpRateModel Contract V2 for legacy cTokens"
  },
  "userdoc": {
    "methods": {
      "getBorrowRate(uint256,uint256,uint256)": {
        "notice": "Calculates the current borrow rate per block, with the error code expected by the market"
      },
      "getSupplyRate(uint256,uint256,uint256,uint256)": {
        "notice": "Calculates the current supply rate per block"
      },
      "updateJumpRateModel(uint256,uint256,uint256,uint256)": {
        "notice": "Update the parameters of the interest rate model (only callable by owner, i.e. Timelock)"
      },
      "utilizationRate(uint256,uint256,uint256)": {
        "notice": "Calculates the utilization rate of the market: `borrows / (cash + borrows - reserves)`"
      }
    },
    "notice": "Supports only legacy cTokens"
  }
}