{
  "contractName": "Maximillion",
  "abi": [
    {
      "inputs": [
        {
          "internalType": "contract CEther",
          "name": "cEther_",
          "type": "address"
        }
      ],
      "payable": false,
      "stateMutability": "nonpayable",
      "type": "constructor"
    },
    {
      "constant": true,
      "inputs": [],
      "name": "cEther",
      "outputs": [
        {
          "internalType": "contract CEther",
          "name": "",
          "type": "address"
        }
      ],
      "payable": false,
      "stateMutability": "view",
      "type": "function"
    },
    {
      "constant": false,
      "inputs": [
        {
          "internalType": "address",
          "name": "borrower",
          "type": "address"
        }
      ],
      "name": "repayBehalf",
      "outputs": [],
      "payable": true,
      "stateMutability": "payable",
      "type": "function"
    },
    {
      "constant": false,
      "inputs": [
        {
          "internalType": "address",
          "name": "borrower",
          "type": "address"
        },
        {
          "internalType": "contract CEther",
          "name": "cEther_",
          "type": "address"
        }
      ],
      "name": "repayBehalfExplicit",
      "outputs": [],
      "payable": true,
      "stateMutability": "payable",
      "type": "function"
    }
  ],
  "bytecode": "0x60806040523480156100195760008061001661008a565b50505b5060405161072d38038061072d833981810160405260208110156100455760008061004261008a565b50505b81019080805192508291506000905060018161005f6100f5565b816001600160a01b0302191690836001600160a01b0316021790610081610155565b505050506101a3565b632a2a7adb598160e01b8152600481016020815285602082015260005b868110156100c25780860151828201604001526020016100a7565b506020828760640184336000905af158600e01573d6000803e3d6000fd5b3d6001141558600a015760016000f35b505050565b6303daa959598160e01b8152836004820152602081602483336000905af158600e01573d6000803e3d6000fd5b3d6001141558600a015760016000f35b8051935060005b604081101561015057600082820152602001610139565b505050565b6322bd64c0598160e01b8152836004820152846024820152600081604483336000905af158600e01573d6000803e3d6000fd5b3d6001141558600a015760016000f35b600081526020610139565b61057b806101b26000396000f3fe6080604052600436106100345760003560e01c806319b68c0014610042578063367b7f051461007c5780639f35c3d5146100b5575b60008061003f61036e565b50505b3480156100575760008061005461036e565b50505b506100606100e4565b6040516001600160a01b03909116815260200160405180910390f35b6100b36004803603604081101561009b5760008061009861036e565b50505b506001600160a01b0381358116916020013516610102565b005b6100b3600480360360208110156100d4576000806100d161036e565b50505b50356001600160a01b0316610347565b6000806100ef6103d9565b906101000a90046001600160a01b031681565b3460006001600160a01b0383166317bfdfbc856040516001600160e01b031960e084901b1681526001600160a01b03909116600482015260240160206040518083038160008780610151610439565b1580156101665760008061016361036e565b50505b505a610170610485565b505050505050158015610190573d6000803e3d600061018d61036e565b50505b505050506040513d60208110156101af576000806101ac61036e565b50505b8101908080519350505050808211156102b057826001600160a01b031663e597461982866040516001600160e01b031960e085901b1681526001600160a01b03909116600482015260240160006040518083038185888061020e610439565b1580156102235760008061022061036e565b50505b505a61022d610485565b50505050505015801561024d573d6000803e3d600061024a61036e565b50505b50505050505a61025b610535565b6001600160a01b031681830380156108fc0290604051600060405180830381858888610285610485565b50505050505093505050501580156102aa573d6000803e3d60006102a761036e565b50505b50610341565b826001600160a01b031663e597461983866040516001600160e01b031960e085901b1681526001600160a01b0390911660048201526024016000604051808303818588806102fc610439565b1580156103115760008061030e61036e565b50505b505a61031b610485565b50505050505015801561033b573d6000803e3d600061033861036e565b50505b50505050505b50505050565b61036b816000806103566103d9565b906101000a90046001600160a01b0316610102565b50565b632a2a7adb598160e01b8152600481016020815285602082015260005b868110156103a657808601518282016040015260200161038b565b506020828760640184336000905af158600e01573d6000803e3d6000fd5b3d6001141558600a015760016000f35b505050565b6303daa959598160e01b8152836004820152602081602483336000905af158600e01573d6000803e3d6000fd5b3d6001141558600a015760016000f35b8051935060005b60408110156104345760008282015260200161041d565b505050565b638435035b598160e01b8152836004820152602081602483336000905af158600e01573d6000803e3d6000fd5b3d6001141558600a015760016000f35b8051600082529350602061041d565b6385979f76598160e01b8152836004820152846024820152606060448201528760648201526084810160005b898110156104c95780890151828201526020016104b1565b506060828a60a40184336000905af158600e01573d6000803e3d6000fd5b3d6001141558600a015760016000f35b815160408301513d6000853e8c8c82606087013350600060045af15059845b8181101561052a5760008152602001610516565b50919c505050505050565b6373509064598160e01b8152602081600483336000905af158600e01573d6000803e3d6000fd5b3d6001141558600a015760016000f35b8051600082529350602061041d56",
  "deployedBytecode": "0x6080604052600436106100345760003560e01c806319b68c0014610042578063367b7f051461007c5780639f35c3d5146100b5575b60008061003f61036e565b50505b3480156100575760008061005461036e565b50505b506100606100e4565b6040516001600160a01b03909116815260200160405180910390f35b6100b36004803603604081101561009b5760008061009861036e565b50505b506001600160a01b0381358116916020013516610102565b005b6100b3600480360360208110156100d4576000806100d161036e565b50505b50356001600160a01b0316610347565b6000806100ef6103d9565b906101000a90046001600160a01b031681565b3460006001600160a01b0383166317bfdfbc856040516001600160e01b031960e084901b1681526001600160a01b03909116600482015260240160206040518083038160008780610151610439565b1580156101665760008061016361036e565b50505b505a610170610485565b505050505050158015610190573d6000803e3d600061018d61036e565b50505b505050506040513d60208110156101af576000806101ac61036e565b50505b8101908080519350505050808211156102b057826001600160a01b031663e597461982866040516001600160e01b031960e085901b1681526001600160a01b03909116600482015260240160006040518083038185888061020e610439565b1580156102235760008061022061036e565b50505b505a61022d610485565b50505050505015801561024d573d6000803e3d600061024a61036e565b50505b50505050505a61025b610535565b6001600160a01b031681830380156108fc0290604051600060405180830381858888610285610485565b50505050505093505050501580156102aa573d6000803e3d60006102a761036e565b50505b50610341565b826001600160a01b031663e597461983866040516001600160e01b031960e085901b1681526001600160a01b0390911660048201526024016000604051808303818588806102fc610439565b1580156103115760008061030e61036e565b50505b505a61031b610485565b50505050505015801561033b573d6000803e3d600061033861036e565b50505b50505050505b50505050565b61036b816000806103566103d9565b906101000a90046001600160a01b0316610102565b50565b632a2a7adb598160e01b8152600481016020815285602082015260005b868110156103a657808601518282016040015260200161038b565b506020828760640184336000905af158601d01573d60011458600c01573d6000803e3d621234565260ea61109c52505050565b6303daa959598160e01b8152836004820152602081602483336000905af158601d01573d60011458600c01573d6000803e3d621234565260ea61109c528051935060005b60408110156104345760008282015260200161041d565b505050565b638435035b598160e01b8152836004820152602081602483336000905af158601d01573d60011458600c01573d6000803e3d621234565260ea61109c528051600082529350602061041d565b6385979f76598160e01b8152836004820152846024820152606060448201528760648201526084810160005b898110156104c95780890151828201526020016104b1565b506060828a60a40184336000905af158601d01573d60011458600c01573d6000803e3d621234565260ea61109c52815160408301513d6000853e8c8c82606087013350600060045af15059845b8181101561052a5760008152602001610516565b50919c505050505050565b6373509064598160e01b8152602081600483336000905af158601d01573d60011458600c01573d6000803e3d621234565260ea61109c528051600082529350602061041d56",
  "source": "pragma solidity ^0.5.16;\n\nimport \"./CEther.sol\";\n\n/**\n * @title Compound's Maximillion Contract\n * @author Compound\n */\ncontract Maximillion {\n    /**\n     * @notice The default cEther market to repay in\n     */\n    CEther public cEther;\n\n    /**\n     * @notice Construct a Maximillion to repay max in a CEther market\n     */\n    constructor(CEther cEther_) public {\n        cEther = cEther_;\n    }\n\n    /**\n     * @notice msg.sender sends Ether to repay an account's borrow in the cEther market\n     * @dev The provided Ether is applied towards the borrow balance, any excess is refunded\n     * @param borrower The address of the borrower account to repay on behalf of\n     */\n    function repayBehalf(address borrower) public payable {\n        repayBehalfExplicit(borrower, cEther);\n    }\n\n    /**\n     * @notice msg.sender sends Ether to repay an account's borrow in a cEther market\n     * @dev The provided Ether is applied towards the borrow balance, any excess is refunded\n     * @param borrower The address of the borrower account to repay on behalf of\n     * @param cEther_ The address of the cEther contract to repay in\n     */\n    function repayBehalfExplicit(address borrower, CEther cEther_) public payable {\n        uint received = msg.value;\n        uint borrows = cEther_.borrowBalanceCurrent(borrower);\n        if (received > borrows) {\n            cEther_.repayBorrowBehalf.value(borrows)(borrower);\n            msg.sender.transfer(received - borrows);\n        } else {\n            cEther_.repayBorrowBehalf.value(received)(borrower);\n        }\n    }\n}\n",
  "sourcePath": "/Users/jesusmeza/Developer/omgx/snapshot-optimism/omgx_examples/compound-protocol/contracts/Maximillion.sol",
  "compiler": {
    "name": "solc",
    "version": "0.5.16"
  },
  "schemaVersion": "3.4.3",
  "updatedAt": "2021-08-25T22:25:24.716Z",
  "devdoc": {
    "author": "Compound",
    "methods": {
      "repayBehalf(address)": {
        "details": "The provided Ether is applied towards the borrow balance, any excess is refunded",
        "params": {
          "borrower": "The address of the borrower account to repay on behalf of"
        }
      },
      "repayBehalfExplicit(address,address)": {
        "details": "The provided Ether is applied towards the borrow balance, any excess is refunded",
        "params": {
          "borrower": "The address of the borrower account to repay on behalf of",
          "cEther_": "The address of the cEther contract to repay in"
        }
      }
    },
    "title": "Compound's Maximillion Contract"
  },
  "userdoc": {
    "methods": {
      "constructor": "Construct a Maximillion to repay max in a CEther market",
      "repayBehalf(address)": {
        "notice": "msg.sender sends Ether to repay an account's borrow in the cEther market"
      },
      "repayBehalfExplicit(address,address)": {
        "notice": "msg.sender sends Ether to repay an account's borrow in a cEther market"
      }
    }
  }
}