{
  "contractName": "Migrations",
  "abi": [
    {
      "constant": true,
      "inputs": [],
      "name": "last_completed_migration",
      "outputs": [
        {
          "internalType": "uint256",
          "name": "",
          "type": "uint256"
        }
      ],
      "payable": false,
      "stateMutability": "view",
      "type": "function"
    },
    {
      "constant": true,
      "inputs": [],
      "name": "owner",
      "outputs": [
        {
          "internalType": "address",
          "name": "",
          "type": "address"
        }
      ],
      "payable": false,
      "stateMutability": "view",
      "type": "function"
    },
    {
      "constant": false,
      "inputs": [
        {
          "internalType": "uint256",
          "name": "completed",
          "type": "uint256"
        }
      ],
      "name": "setCompleted",
      "outputs": [],
      "payable": false,
      "stateMutability": "nonpayable",
      "type": "function"
    }
  ],
  "bytecode": "0x60806040525a61000d61005a565b600060018161001a6100b4565b816001600160a01b0302191690836001600160a01b031602179061003c610100565b5050503480156100545760008061005161014e565b50505b506101b9565b6373509064598160e01b8152602081600483336000905af158600e01573d6000803e3d6000fd5b3d6001141558600a015760016000f35b8051935060005b60408110156100af57600082820152602001610098565b505050565b6303daa959598160e01b8152836004820152602081602483336000905af158600e01573d6000803e3d6000fd5b3d6001141558600a015760016000f35b80516000825293506020610098565b6322bd64c0598160e01b8152836004820152846024820152600081604483336000905af158600e01573d6000803e3d6000fd5b3d6001141558600a015760016000f35b600081526020610098565b632a2a7adb598160e01b8152600481016020815285602082015260005b8681101561018657808601518282016040015260200161016b565b506020828760640184336000905af158600e01573d6000803e3d6000fd5b3d6001141558600a015760016000f35b505050565b610309806101c86000396000f3fe608060405234801561001957600080610016610176565b50505b506004361061004a5760003560e01c8063445df0ac146100585780638da5cb5b14610072578063fdacd57614610096575b600080610055610176565b50505b6100606100be565b60405190815260200160405180910390f35b61007a6100cb565b6040516001600160a01b03909116815260200160405180910390f35b6100bc600480360360208110156100b5576000806100b2610176565b50505b50356100e9565b005b60016100c86101e1565b81565b6000806100d66101e1565b906101000a90046001600160a01b031681565b6000806100f46101e1565b906101000a90046001600160a01b03166001600160a01b03165a610116610241565b6001600160a01b0316146101645760405162461bcd60e51b81526004018080602001828103825260338152602001806102d66033913960400191505060405180910390610161610176565b50505b80806001610170610287565b50505050565b632a2a7adb598160e01b8152600481016020815285602082015260005b868110156101ae578086015182820160400152602001610193565b506020828760640184336000905af158600e01573d6000803e3d6000fd5b3d6001141558600a015760016000f35b505050565b6303daa959598160e01b8152836004820152602081602483336000905af158600e01573d6000803e3d6000fd5b3d6001141558600a015760016000f35b8051935060005b604081101561023c57600082820152602001610225565b505050565b6373509064598160e01b8152602081600483336000905af158600e01573d6000803e3d6000fd5b3d6001141558600a015760016000f35b80516000825293506020610225565b6322bd64c0598160e01b8152836004820152846024820152600081604483336000905af158600e01573d6000803e3d6000fd5b3d6001141558600a015760016000f35b60008152602061022556fe546869732066756e6374696f6e206973207265737472696374656420746f2074686520636f6e74726163742773206f776e6572",
  "deployedBytecode": "0x608060405234801561001957600080610016610176565b50505b506004361061004a5760003560e01c8063445df0ac146100585780638da5cb5b14610072578063fdacd57614610096575b600080610055610176565b50505b6100606100be565b60405190815260200160405180910390f35b61007a6100cb565b6040516001600160a01b03909116815260200160405180910390f35b6100bc600480360360208110156100b5576000806100b2610176565b50505b50356100e9565b005b60016100c86101e1565b81565b6000806100d66101e1565b906101000a90046001600160a01b031681565b6000806100f46101e1565b906101000a90046001600160a01b03166001600160a01b03165a610116610241565b6001600160a01b0316146101645760405162461bcd60e51b81526004018080602001828103825260338152602001806102d66033913960400191505060405180910390610161610176565b50505b80806001610170610287565b50505050565b632a2a7adb598160e01b8152600481016020815285602082015260005b868110156101ae578086015182820160400152602001610193565b506020828760640184336000905af158601d01573d60011458600c01573d6000803e3d621234565260ea61109c52505050565b6303daa959598160e01b8152836004820152602081602483336000905af158601d01573d60011458600c01573d6000803e3d621234565260ea61109c528051935060005b604081101561023c57600082820152602001610225565b505050565b6373509064598160e01b8152602081600483336000905af158601d01573d60011458600c01573d6000803e3d621234565260ea61109c5280516000825293506020610225565b6322bd64c0598160e01b8152836004820152846024820152600081604483336000905af158601d01573d60011458600c01573d6000803e3d621234565260ea61109c5260008152602061022556fe546869732066756e6374696f6e206973207265737472696374656420746f2074686520636f6e74726163742773206f776e6572",
  "source": "// SPDX-License-Identifier: MIT\npragma solidity >=0.4.22 <0.9.0;\n\ncontract Migrations {\n  address public owner = msg.sender;\n  uint public last_completed_migration;\n\n  modifier restricted() {\n    require(\n      msg.sender == owner,\n      \"This function is restricted to the contract's owner\"\n    );\n    _;\n  }\n\n  function setCompleted(uint completed) public restricted {\n    last_completed_migration = completed;\n  }\n}\n",
  "sourcePath": "/Users/jesusmeza/Developer/omgx/snapshot-optimism/omgx_examples/compound-protocol/contracts/Migrations.sol",
  "compiler": {
    "name": "solc",
    "version": "0.5.16"
  },
  "schemaVersion": "3.4.3",
  "updatedAt": "2021-08-30T21:29:35.358Z",
  "networkType": "ethereum",
  "devdoc": {
    "methods": {}
  },
  "userdoc": {
    "methods": {}
  }
}