{
  "contractName": "Reservoir",
  "abi": [
    {
      "inputs": [
        {
          "internalType": "uint256",
          "name": "dripRate_",
          "type": "uint256"
        },
        {
          "internalType": "contract EIP20Interface",
          "name": "token_",
          "type": "address"
        },
        {
          "internalType": "address",
          "name": "target_",
          "type": "address"
        }
      ],
      "payable": false,
      "stateMutability": "nonpayable",
      "type": "constructor"
    },
    {
      "constant": true,
      "inputs": [],
      "name": "dripRate",
      "outputs": [
        {
          "internalType": "uint256",
          "name": "",
          "type": "uint256"
        }
      ],
      "payable": false,
      "stateMutability": "view",
      "type": "function"
    },
    {
      "constant": true,
      "inputs": [],
      "name": "dripStart",
      "outputs": [
        {
          "internalType": "uint256",
          "name": "",
          "type": "uint256"
        }
      ],
      "payable": false,
      "stateMutability": "view",
      "type": "function"
    },
    {
      "constant": true,
      "inputs": [],
      "name": "dripped",
      "outputs": [
        {
          "internalType": "uint256",
          "name": "",
          "type": "uint256"
        }
      ],
      "payable": false,
      "stateMutability": "view",
      "type": "function"
    },
    {
      "constant": true,
      "inputs": [],
      "name": "target",
      "outputs": [
        {
          "internalType": "address",
          "name": "",
          "type": "address"
        }
      ],
      "payable": false,
      "stateMutability": "view",
      "type": "function"
    },
    {
      "constant": true,
      "inputs": [],
      "name": "token",
      "outputs": [
        {
          "internalType": "contract EIP20Interface",
          "name": "",
          "type": "address"
        }
      ],
      "payable": false,
      "stateMutability": "view",
      "type": "function"
    },
    {
      "constant": false,
      "inputs": [],
      "name": "drip",
      "outputs": [
        {
          "internalType": "uint256",
          "name": "",
          "type": "uint256"
        }
      ],
      "payable": false,
      "stateMutability": "nonpayable",
      "type": "function"
    }
  ],
  "bytecode": "0x60806040523480156200001c576000806200001962000126565b50505b5060405162000ba038038062000ba0833981810160405260608110156200004d576000806200004a62000126565b50505b81019080805192919060200180519291906020018051925050505a6200007262000193565b8060006200007f620001ef565b505050826001819062000091620001ef565b50505081600260006101000a81620000a86200023e565b816001600160a01b0302191690836001600160a01b0316021790620000cc620001ef565b50505080600360006101000a81620000e36200023e565b816001600160a01b0302191690836001600160a01b031602179062000107620001ef565b5050506000600481906200011a620001ef565b5050505050506200028b565b632a2a7adb598160e01b8152600481016020815285602082015260005b868110156200016057808601518282016040015260200162000143565b506020828760640184336000905af158600e01573d6000803e3d6000fd5b3d6001141558600a015760016000f35b505050565b635a98c361598160e01b8152602081600483336000905af158600e01573d6000803e3d6000fd5b3d6001141558600a015760016000f35b8051935060005b6040811015620001ea57600082820152602001620001d1565b505050565b6322bd64c0598160e01b8152836004820152846024820152600081604483336000905af158600e01573d6000803e3d6000fd5b3d6001141558600a015760016000f35b600081526020620001d1565b6303daa959598160e01b8152836004820152602081602483336000905af158600e01573d6000803e3d6000fd5b3d6001141558600a015760016000f35b80516000825293506020620001d1565b610905806200029b6000396000f3fe6080604052348015610019576000806100166105fa565b50505b506004361061006b5760003560e01c806388a91a8a1461007957806395f632b3146100935780639f678cca1461009b578063d3261592146100a3578063d4b83992146100ab578063fc0c546a146100cf575b6000806100766105fa565b50505b6100816100d7565b60405190815260200160405180910390f35b6100816100e4565b6100816100ee565b6100816103fb565b6100b3610405565b6040516001600160a01b03909116815260200160405180910390f35b6100b3610424565b60006100e1610665565b81565b60046100e1610665565b6000808060026100fc610665565b906101000a90046001600160a01b031690506000816001600160a01b03166370a082315a63996d79a5598160e01b8152602081600483336000905af158600e01573d6000803e3d6000fd5b3d6001141558600a015760016000f35b8051925060005b60408110156101755760008282015260200161015e565b5050506040516001600160e01b031960e084901b1681526001600160a01b03909116600482015260240160206040518083038186806101b26106c5565b1580156101c7576000806101c46105fa565b50505b505a6101d1610711565b50505050501580156101f0573d6000803e3d60006101ed6105fa565b50505b505050506040513d602081101561020f5760008061020c6105fa565b50505b810190808051935060009250600191506102299050610665565b9050600080610236610665565b905060006004610244610665565b90506000806003610253610665565b906101000a90046001600160a01b0316905060005a6102706107c1565b905060006102a98686840360405160408082019052601281527164726970546f74616c206f766572666c6f7760701b6020820152610430565b905060006102e1828660405160408082019052601381527264656c74614472697020756e646572666c6f7760681b60208201526104ec565b905060006102ef898361058c565b90506000610320878360405160408082019052600c81526b1d185d5d1bdb1bd9da58d85b60a21b60208201526105a5565b90508080600461032e610807565b5050508a6001600160a01b031663a9059cbb87846040516001600160e01b031960e085901b1681526001600160a01b0390921660048301526024820152604401602060405180830381600087806103836106c5565b158015610398576000806103956105fa565b50505b505a6103a2610855565b5050505050501580156103c2573d6000803e3d60006103bf6105fa565b50505b505050506040513d60208110156103e1576000806103de6105fa565b50505b81019080805150939d505050505050505050505050505090565b60016100e1610665565b60006003610411610665565b906101000a90046001600160a01b031681565b60006002610411610665565b60008361043f575060006104e5565b8383028385828161044c57fe5b041483906104e15760405162461bcd60e51b81526004018080602001828103825283818151815260200191508051906020019080838360005b8381101561049d578082015183820152602001610485565b50505050905090810190601f1680156104ca5780820380516001836020036101000a031916815260200191505b5092505050604051809103906104de6105fa565b50505b5090505b9392505050565b600081848411156105845760405162461bcd60e51b81526004018080602001828103825283818151815260200191508051906020019080838360005b83811015610540578082015183820152602001610528565b50505050905090810190601f16801561056d5780820380516001836020036101000a031916815260200191505b5092505050604051809103906105816105fa565b50505b505050900390565b600081831161059c57508161059f565b50805b92915050565b600083830182858210156104e15760405162461bcd60e51b815260040180806020018281038252838181518152602001915080516020909101908083836000831561049d578082015183820152602001610485565b632a2a7adb598160e01b8152600481016020815285602082015260005b86811015610632578086015182820160400152602001610617565b506020828760640184336000905af158600e01573d6000803e3d6000fd5b3d6001141558600a015760016000f35b505050565b6303daa959598160e01b8152836004820152602081602483336000905af158600e01573d6000803e3d6000fd5b3d6001141558600a015760016000f35b8051935060005b60408110156106c0576000828201526020016106a9565b505050565b638435035b598160e01b8152836004820152602081602483336000905af158600e01573d6000803e3d6000fd5b3d6001141558600a015760016000f35b805160008252935060206106a9565b638540661f598160e01b8152836004820152846024820152606060448201528660648201526084810160005b8881101561075557808801518282015260200161073d565b506060828960a40184336000905af158600e01573d6000803e3d6000fd5b3d6001141558600a015760016000f35b815160408301513d6000853e8b8b82606087013350600060045af15059845b818110156107b657600081526020016107a2565b50919b505050505050565b635a98c361598160e01b8152602081600483336000905af158600e01573d6000803e3d6000fd5b3d6001141558600a015760016000f35b805160008252935060206106a9565b6322bd64c0598160e01b8152836004820152846024820152600081604483336000905af158600e01573d6000803e3d6000fd5b3d6001141558600a015760016000f35b6000815260206106a9565b6385979f76598160e01b8152836004820152846024820152606060448201528760648201526084810160005b89811015610899578089015182820152602001610881565b506060828a60a40184336000905af158600e01573d6000803e3d6000fd5b3d6001141558600a015760016000f35b815160408301513d6000853e8c8c82606087013350600060045af15059845b818110156108fa57600081526020016108e6565b50919c50505050505056",
  "deployedBytecode": "0x6080604052348015610019576000806100166105fa565b50505b506004361061006b5760003560e01c806388a91a8a1461007957806395f632b3146100935780639f678cca1461009b578063d3261592146100a3578063d4b83992146100ab578063fc0c546a146100cf575b6000806100766105fa565b50505b6100816100d7565b60405190815260200160405180910390f35b6100816100e4565b6100816100ee565b6100816103fb565b6100b3610405565b6040516001600160a01b03909116815260200160405180910390f35b6100b3610424565b60006100e1610665565b81565b60046100e1610665565b6000808060026100fc610665565b906101000a90046001600160a01b031690506000816001600160a01b03166370a082315a63996d79a5598160e01b8152602081600483336000905af158601d01573d60011458600c01573d6000803e3d621234565260ea61109c528051925060005b60408110156101755760008282015260200161015e565b5050506040516001600160e01b031960e084901b1681526001600160a01b03909116600482015260240160206040518083038186806101b26106c5565b1580156101c7576000806101c46105fa565b50505b505a6101d1610711565b50505050501580156101f0573d6000803e3d60006101ed6105fa565b50505b505050506040513d602081101561020f5760008061020c6105fa565b50505b810190808051935060009250600191506102299050610665565b9050600080610236610665565b905060006004610244610665565b90506000806003610253610665565b906101000a90046001600160a01b0316905060005a6102706107c1565b905060006102a98686840360405160408082019052601281527164726970546f74616c206f766572666c6f7760701b6020820152610430565b905060006102e1828660405160408082019052601381527264656c74614472697020756e646572666c6f7760681b60208201526104ec565b905060006102ef898361058c565b90506000610320878360405160408082019052600c81526b1d185d5d1bdb1bd9da58d85b60a21b60208201526105a5565b90508080600461032e610807565b5050508a6001600160a01b031663a9059cbb87846040516001600160e01b031960e085901b1681526001600160a01b0390921660048301526024820152604401602060405180830381600087806103836106c5565b158015610398576000806103956105fa565b50505b505a6103a2610855565b5050505050501580156103c2573d6000803e3d60006103bf6105fa565b50505b505050506040513d60208110156103e1576000806103de6105fa565b50505b81019080805150939d505050505050505050505050505090565b60016100e1610665565b60006003610411610665565b906101000a90046001600160a01b031681565b60006002610411610665565b60008361043f575060006104e5565b8383028385828161044c57fe5b041483906104e15760405162461bcd60e51b81526004018080602001828103825283818151815260200191508051906020019080838360005b8381101561049d578082015183820152602001610485565b50505050905090810190601f1680156104ca5780820380516001836020036101000a031916815260200191505b5092505050604051809103906104de6105fa565b50505b5090505b9392505050565b600081848411156105845760405162461bcd60e51b81526004018080602001828103825283818151815260200191508051906020019080838360005b83811015610540578082015183820152602001610528565b50505050905090810190601f16801561056d5780820380516001836020036101000a031916815260200191505b5092505050604051809103906105816105fa565b50505b505050900390565b600081831161059c57508161059f565b50805b92915050565b600083830182858210156104e15760405162461bcd60e51b815260040180806020018281038252838181518152602001915080516020909101908083836000831561049d578082015183820152602001610485565b632a2a7adb598160e01b8152600481016020815285602082015260005b86811015610632578086015182820160400152602001610617565b506020828760640184336000905af158601d01573d60011458600c01573d6000803e3d621234565260ea61109c52505050565b6303daa959598160e01b8152836004820152602081602483336000905af158601d01573d60011458600c01573d6000803e3d621234565260ea61109c528051935060005b60408110156106c0576000828201526020016106a9565b505050565b638435035b598160e01b8152836004820152602081602483336000905af158601d01573d60011458600c01573d6000803e3d621234565260ea61109c52805160008252935060206106a9565b638540661f598160e01b8152836004820152846024820152606060448201528660648201526084810160005b8881101561075557808801518282015260200161073d565b506060828960a40184336000905af158601d01573d60011458600c01573d6000803e3d621234565260ea61109c52815160408301513d6000853e8b8b82606087013350600060045af15059845b818110156107b657600081526020016107a2565b50919b505050505050565b635a98c361598160e01b8152602081600483336000905af158601d01573d60011458600c01573d6000803e3d621234565260ea61109c52805160008252935060206106a9565b6322bd64c0598160e01b8152836004820152846024820152600081604483336000905af158601d01573d60011458600c01573d6000803e3d621234565260ea61109c526000815260206106a9565b6385979f76598160e01b8152836004820152846024820152606060448201528760648201526084810160005b89811015610899578089015182820152602001610881565b506060828a60a40184336000905af158601d01573d60011458600c01573d6000803e3d621234565260ea61109c52815160408301513d6000853e8c8c82606087013350600060045af15059845b818110156108fa57600081526020016108e6565b50919c50505050505056",
  "source": "pragma solidity ^0.5.16;\n\n/**\n * @title Reservoir Contract\n * @notice Distributes a token to a different contract at a fixed rate.\n * @dev This contract must be poked via the `drip()` function every so often.\n * @author Compound\n */\ncontract Reservoir {\n\n  /// @notice The block number when the Reservoir started (immutable)\n  uint public dripStart;\n\n  /// @notice Tokens per block that to drip to target (immutable)\n  uint public dripRate;\n\n  /// @notice Reference to token to drip (immutable)\n  EIP20Interface public token;\n\n  /// @notice Target to receive dripped tokens (immutable)\n  address public target;\n\n  /// @notice Amount that has already been dripped\n  uint public dripped;\n\n  /**\n    * @notice Constructs a Reservoir\n    * @param dripRate_ Numer of tokens per block to drip\n    * @param token_ The token to drip\n    * @param target_ The recipient of dripped tokens\n    */\n  constructor(uint dripRate_, EIP20Interface token_, address target_) public {\n    dripStart = block.number;\n    dripRate = dripRate_;\n    token = token_;\n    target = target_;\n    dripped = 0;\n  }\n\n  /**\n    * @notice Drips the maximum amount of tokens to match the drip rate since inception\n    * @dev Note: this will only drip up to the amount of tokens available.\n    * @return The amount of tokens dripped in this call\n    */\n  function drip() public returns (uint) {\n    // First, read storage into memory\n    EIP20Interface token_ = token;\n    uint reservoirBalance_ = token_.balanceOf(address(this)); // TODO: Verify this is a static call\n    uint dripRate_ = dripRate;\n    uint dripStart_ = dripStart;\n    uint dripped_ = dripped;\n    address target_ = target;\n    uint blockNumber_ = block.number;\n\n    // Next, calculate intermediate values\n    uint dripTotal_ = mul(dripRate_, blockNumber_ - dripStart_, \"dripTotal overflow\");\n    uint deltaDrip_ = sub(dripTotal_, dripped_, \"deltaDrip underflow\");\n    uint toDrip_ = min(reservoirBalance_, deltaDrip_);\n    uint drippedNext_ = add(dripped_, toDrip_, \"tautological\");\n\n    // Finally, write new `dripped` value and transfer tokens to target\n    dripped = drippedNext_;\n    token_.transfer(target_, toDrip_);\n\n    return toDrip_;\n  }\n\n  /* Internal helper functions for safe math */\n\n  function add(uint a, uint b, string memory errorMessage) internal pure returns (uint) {\n    uint c = a + b;\n    require(c >= a, errorMessage);\n    return c;\n  }\n\n  function sub(uint a, uint b, string memory errorMessage) internal pure returns (uint) {\n    require(b <= a, errorMessage);\n    uint c = a - b;\n    return c;\n  }\n\n  function mul(uint a, uint b, string memory errorMessage) internal pure returns (uint) {\n    if (a == 0) {\n      return 0;\n    }\n    uint c = a * b;\n    require(c / a == b, errorMessage);\n    return c;\n  }\n\n  function min(uint a, uint b) internal pure returns (uint) {\n    if (a <= b) {\n      return a;\n    } else {\n      return b;\n    }\n  }\n}\n\nimport \"./EIP20Interface.sol\";\n",
  "sourcePath": "/Users/jesusmeza/Developer/omgx/snapshot-optimism/omgx_examples/compound-protocol/contracts/Reservoir.sol",
  "compiler": {
    "name": "solc",
    "version": "0.5.16"
  },
  "schemaVersion": "3.4.3",
  "updatedAt": "2021-08-25T22:25:24.718Z",
  "devdoc": {
    "author": "Compound",
    "details": "This contract must be poked via the `drip()` function every so often.",
    "methods": {
      "constructor": {
        "params": {
          "dripRate_": "Numer of tokens per block to drip",
          "target_": "The recipient of dripped tokens",
          "token_": "The token to drip"
        }
      },
      "drip()": {
        "details": "Note: this will only drip up to the amount of tokens available.",
        "return": "The amount of tokens dripped in this call"
      }
    },
    "title": "Reservoir Contract"
  },
  "userdoc": {
    "methods": {
      "constructor": "Constructs a Reservoir",
      "drip()": {
        "notice": "Drips the maximum amount of tokens to match the drip rate since inception"
      }
    },
    "notice": "Distributes a token to a different contract at a fixed rate."
  }
}