{
  "contractName": "SimplePriceOracle",
  "abi": [
    {
      "anonymous": false,
      "inputs": [
        {
          "indexed": false,
          "internalType": "address",
          "name": "asset",
          "type": "address"
        },
        {
          "indexed": false,
          "internalType": "uint256",
          "name": "previousPriceMantissa",
          "type": "uint256"
        },
        {
          "indexed": false,
          "internalType": "uint256",
          "name": "requestedPriceMantissa",
          "type": "uint256"
        },
        {
          "indexed": false,
          "internalType": "uint256",
          "name": "newPriceMantissa",
          "type": "uint256"
        }
      ],
      "name": "PricePosted",
      "type": "event"
    },
    {
      "constant": true,
      "inputs": [],
      "name": "isPriceOracle",
      "outputs": [
        {
          "internalType": "bool",
          "name": "",
          "type": "bool"
        }
      ],
      "payable": false,
      "stateMutability": "view",
      "type": "function"
    },
    {
      "constant": true,
      "inputs": [
        {
          "internalType": "contract CToken",
          "name": "cToken",
          "type": "address"
        }
      ],
      "name": "getUnderlyingPrice",
      "outputs": [
        {
          "internalType": "uint256",
          "name": "",
          "type": "uint256"
        }
      ],
      "payable": false,
      "stateMutability": "view",
      "type": "function"
    },
    {
      "constant": false,
      "inputs": [
        {
          "internalType": "contract CToken",
          "name": "cToken",
          "type": "address"
        },
        {
          "internalType": "uint256",
          "name": "underlyingPriceMantissa",
          "type": "uint256"
        }
      ],
      "name": "setUnderlyingPrice",
      "outputs": [],
      "payable": false,
      "stateMutability": "nonpayable",
      "type": "function"
    },
    {
      "constant": false,
      "inputs": [
        {
          "internalType": "address",
          "name": "asset",
          "type": "address"
        },
        {
          "internalType": "uint256",
          "name": "price",
          "type": "uint256"
        }
      ],
      "name": "setDirectPrice",
      "outputs": [],
      "payable": false,
      "stateMutability": "nonpayable",
      "type": "function"
    },
    {
      "constant": true,
      "inputs": [
        {
          "internalType": "address",
          "name": "asset",
          "type": "address"
        }
      ],
      "name": "assetPrices",
      "outputs": [
        {
          "internalType": "uint256",
          "name": "",
          "type": "uint256"
        }
      ],
      "payable": false,
      "stateMutability": "view",
      "type": "function"
    }
  ],
  "bytecode": "0x60806040523480156100195760008061001661001f565b50505b5061008a565b632a2a7adb598160e01b8152600481016020815285602082015260005b8681101561005757808601518282016040015260200161003c565b506020828760640184336000905af158600e01573d6000803e3d6000fd5b3d6001141558600a015760016000f35b505050565b6108ed806100996000396000f3fe6080604052348015610019576000806100166106b7565b50505b50600436106100605760003560e01c806309a8acb01461006e578063127ffda0146100a55780635e9a523c146100da57806366331bba1461011b578063fc57d4df14610137575b60008061006b6106b7565b50505b6100a36004803603604081101561008d5760008061008a6106b7565b50505b506001600160a01b038135169060200135610166565b005b6100a3600480360360408110156100c4576000806100c16106b7565b50505b506001600160a01b038135169060200135610201565b610109600480360360208110156100f9576000806100f66106b7565b50505b50356001600160a01b031661033c565b60405190815260200160405180910390f35b610123610364565b604051901515815260200160405180910390f35b61010960048036036020811015610156576000806101536106b7565b50505b50356001600160a01b0316610369565b6001600160a01b038216600090815260208190526000805160206108cd83398151915290839060409020610198610722565b838460405180856001600160a01b03166001600160a01b0316815260200184815260200183815260200182815260200194505050505060405180910390a16001600160a01b0382166000908152602081905281906040902081906101fa610782565b5050505050565b6000826001600160a01b0316636f307dc36040518163ffffffff1660e01b815260040160206040518083038186806102376107d0565b15801561024c576000806102496106b7565b50505b505a61025661081c565b5050505050158015610275573d6000803e3d60006102726106b7565b50505b505050506040513d6020811015610294576000806102916106b7565b50505b8101908080516001600160a01b038116600090815260208190529094506000805160206108cd833981519152935084925060409150206102d2610722565b848560405180856001600160a01b03166001600160a01b0316815260200184815260200183815260200182815260200194505050505060405180910390a16001600160a01b038116600090815260208190528290604090208190610334610782565b505050505050565b6001600160a01b038116600090815260208190526040812061035c610722565b90505b919050565b600181565b60006104fa826001600160a01b03166395d89b416040518163ffffffff1660e01b815260040160006040518083038186806103a26107d0565b1580156103b7576000806103b46106b7565b50505b505a6103c161081c565b50505050501580156103e0573d6000803e3d60006103dd6106b7565b50505b505050506040513d6000823e601f3d908101601f1916820160405260208110156104125760008061040f6106b7565b50505b8101908080516040519392919084600160201b82111561043a576000806104376106b7565b50505b908301906020820185811115610458576000806104556106b7565b50505b8251600160201b81118282018810171561047a576000806104776106b7565b50505b825250602001908051906020019080838360005b838110156104a657808201518382015260200161048e565b50505050905090810190601f1680156104d35780820380516001836020036101000a031916815260200191505b506040525050506040516040808201905260048152630c68aa8960e31b60208201526105d3565b1561050e5750670de0b6b3a764000061035f565b600080836001600160a01b0316636f307dc36040518163ffffffff1660e01b815260040160206040518083038186806105456107d0565b15801561055a576000806105576106b7565b50505b505a61056461081c565b5050505050158015610583573d6000803e3d60006105806106b7565b50505b505050506040513d60208110156105a25760008061059f6106b7565b50505b8101908080516001600160a01b0316845250505060208101919091526040016000206105cc610722565b905061035f565b6000816040516020018082805190602001908083835b602083106106085780518252601f1990920191602091820191016105e9565b6001836020036101000a038019825116818451161790925250505091909101925060409150505160208183030381529060405280519060200120836040516020018082805190602001908083835b602083106106755780518252601f199092019160209182019101610656565b6001836020036101000a038019825116818451161790925250505091909101925060409150505160208183030381529060405280519060200120149392505050565b632a2a7adb598160e01b8152600481016020815285602082015260005b868110156106ef5780860151828201604001526020016106d4565b506020828760640184336000905af158600e01573d6000803e3d6000fd5b3d6001141558600a015760016000f35b505050565b6303daa959598160e01b8152836004820152602081602483336000905af158600e01573d6000803e3d6000fd5b3d6001141558600a015760016000f35b8051935060005b604081101561077d57600082820152602001610766565b505050565b6322bd64c0598160e01b8152836004820152846024820152600081604483336000905af158600e01573d6000803e3d6000fd5b3d6001141558600a015760016000f35b600081526020610766565b638435035b598160e01b8152836004820152602081602483336000905af158600e01573d6000803e3d6000fd5b3d6001141558600a015760016000f35b80516000825293506020610766565b638540661f598160e01b8152836004820152846024820152606060448201528660648201526084810160005b88811015610860578088015182820152602001610848565b506060828960a40184336000905af158600e01573d6000803e3d6000fd5b3d6001141558600a015760016000f35b815160408301513d6000853e8b8b82606087013350600060045af15059845b818110156108c157600081526020016108ad565b50919b50505050505056fedd71a1d19fcba687442a1d5c58578f1e409af71a79d10fd95a4d66efd8fa9ae7",
  "deployedBytecode": "0x6080604052348015610019576000806100166106b7565b50505b50600436106100605760003560e01c806309a8acb01461006e578063127ffda0146100a55780635e9a523c146100da57806366331bba1461011b578063fc57d4df14610137575b60008061006b6106b7565b50505b6100a36004803603604081101561008d5760008061008a6106b7565b50505b506001600160a01b038135169060200135610166565b005b6100a3600480360360408110156100c4576000806100c16106b7565b50505b506001600160a01b038135169060200135610201565b610109600480360360208110156100f9576000806100f66106b7565b50505b50356001600160a01b031661033c565b60405190815260200160405180910390f35b610123610364565b604051901515815260200160405180910390f35b61010960048036036020811015610156576000806101536106b7565b50505b50356001600160a01b0316610369565b6001600160a01b038216600090815260208190526000805160206108cd83398151915290839060409020610198610722565b838460405180856001600160a01b03166001600160a01b0316815260200184815260200183815260200182815260200194505050505060405180910390a16001600160a01b0382166000908152602081905281906040902081906101fa610782565b5050505050565b6000826001600160a01b0316636f307dc36040518163ffffffff1660e01b815260040160206040518083038186806102376107d0565b15801561024c576000806102496106b7565b50505b505a61025661081c565b5050505050158015610275573d6000803e3d60006102726106b7565b50505b505050506040513d6020811015610294576000806102916106b7565b50505b8101908080516001600160a01b038116600090815260208190529094506000805160206108cd833981519152935084925060409150206102d2610722565b848560405180856001600160a01b03166001600160a01b0316815260200184815260200183815260200182815260200194505050505060405180910390a16001600160a01b038116600090815260208190528290604090208190610334610782565b505050505050565b6001600160a01b038116600090815260208190526040812061035c610722565b90505b919050565b600181565b60006104fa826001600160a01b03166395d89b416040518163ffffffff1660e01b815260040160006040518083038186806103a26107d0565b1580156103b7576000806103b46106b7565b50505b505a6103c161081c565b50505050501580156103e0573d6000803e3d60006103dd6106b7565b50505b505050506040513d6000823e601f3d908101601f1916820160405260208110156104125760008061040f6106b7565b50505b8101908080516040519392919084600160201b82111561043a576000806104376106b7565b50505b908301906020820185811115610458576000806104556106b7565b50505b8251600160201b81118282018810171561047a576000806104776106b7565b50505b825250602001908051906020019080838360005b838110156104a657808201518382015260200161048e565b50505050905090810190601f1680156104d35780820380516001836020036101000a031916815260200191505b506040525050506040516040808201905260048152630c68aa8960e31b60208201526105d3565b1561050e5750670de0b6b3a764000061035f565b600080836001600160a01b0316636f307dc36040518163ffffffff1660e01b815260040160206040518083038186806105456107d0565b15801561055a576000806105576106b7565b50505b505a61056461081c565b5050505050158015610583573d6000803e3d60006105806106b7565b50505b505050506040513d60208110156105a25760008061059f6106b7565b50505b8101908080516001600160a01b0316845250505060208101919091526040016000206105cc610722565b905061035f565b6000816040516020018082805190602001908083835b602083106106085780518252601f1990920191602091820191016105e9565b6001836020036101000a038019825116818451161790925250505091909101925060409150505160208183030381529060405280519060200120836040516020018082805190602001908083835b602083106106755780518252601f199092019160209182019101610656565b6001836020036101000a038019825116818451161790925250505091909101925060409150505160208183030381529060405280519060200120149392505050565b632a2a7adb598160e01b8152600481016020815285602082015260005b868110156106ef5780860151828201604001526020016106d4565b506020828760640184336000905af158601d01573d60011458600c01573d6000803e3d621234565260ea61109c52505050565b6303daa959598160e01b8152836004820152602081602483336000905af158601d01573d60011458600c01573d6000803e3d621234565260ea61109c528051935060005b604081101561077d57600082820152602001610766565b505050565b6322bd64c0598160e01b8152836004820152846024820152600081604483336000905af158601d01573d60011458600c01573d6000803e3d621234565260ea61109c52600081526020610766565b638435035b598160e01b8152836004820152602081602483336000905af158601d01573d60011458600c01573d6000803e3d621234565260ea61109c5280516000825293506020610766565b638540661f598160e01b8152836004820152846024820152606060448201528660648201526084810160005b88811015610860578088015182820152602001610848565b506060828960a40184336000905af158601d01573d60011458600c01573d6000803e3d621234565260ea61109c52815160408301513d6000853e8b8b82606087013350600060045af15059845b818110156108c157600081526020016108ad565b50919b50505050505056fedd71a1d19fcba687442a1d5c58578f1e409af71a79d10fd95a4d66efd8fa9ae7",
  "source": "pragma solidity ^0.5.16;\n\nimport \"./PriceOracle.sol\";\nimport \"./CErc20.sol\";\n\ncontract SimplePriceOracle is PriceOracle {\n    mapping(address => uint) prices;\n    event PricePosted(address asset, uint previousPriceMantissa, uint requestedPriceMantissa, uint newPriceMantissa);\n\n    function getUnderlyingPrice(CToken cToken) public view returns (uint) {\n        if (compareStrings(cToken.symbol(), \"cETH\")) {\n            return 1e18;\n        } else {\n            return prices[address(CErc20(address(cToken)).underlying())];\n        }\n    }\n\n    function setUnderlyingPrice(CToken cToken, uint underlyingPriceMantissa) public {\n        address asset = address(CErc20(address(cToken)).underlying());\n        emit PricePosted(asset, prices[asset], underlyingPriceMantissa, underlyingPriceMantissa);\n        prices[asset] = underlyingPriceMantissa;\n    }\n\n    function setDirectPrice(address asset, uint price) public {\n        emit PricePosted(asset, prices[asset], price, price);\n        prices[asset] = price;\n    }\n\n    // v1 price oracle interface for use as backing of proxy\n    function assetPrices(address asset) external view returns (uint) {\n        return prices[asset];\n    }\n\n    function compareStrings(string memory a, string memory b) internal pure returns (bool) {\n        return (keccak256(abi.encodePacked((a))) == keccak256(abi.encodePacked((b))));\n    }\n}\n",
  "sourcePath": "/Users/jesusmeza/Developer/omgx/snapshot-optimism/omgx_examples/compound-protocol/contracts/SimplePriceOracle.sol",
  "compiler": {
    "name": "solc",
    "version": "0.5.16"
  },
  "schemaVersion": "3.4.3",
  "updatedAt": "2021-08-25T22:25:24.722Z",
  "devdoc": {
    "methods": {}
  },
  "userdoc": {
    "methods": {}
  }
}