{
  "contractName": "Timelock",
  "abi": [
    {
      "inputs": [
        {
          "internalType": "address",
          "name": "admin_",
          "type": "address"
        },
        {
          "internalType": "uint256",
          "name": "delay_",
          "type": "uint256"
        }
      ],
      "payable": false,
      "stateMutability": "nonpayable",
      "type": "constructor"
    },
    {
      "anonymous": false,
      "inputs": [
        {
          "indexed": true,
          "internalType": "bytes32",
          "name": "txHash",
          "type": "bytes32"
        },
        {
          "indexed": true,
          "internalType": "address",
          "name": "target",
          "type": "address"
        },
        {
          "indexed": false,
          "internalType": "uint256",
          "name": "value",
          "type": "uint256"
        },
        {
          "indexed": false,
          "internalType": "string",
          "name": "signature",
          "type": "string"
        },
        {
          "indexed": false,
          "internalType": "bytes",
          "name": "data",
          "type": "bytes"
        },
        {
          "indexed": false,
          "internalType": "uint256",
          "name": "eta",
          "type": "uint256"
        }
      ],
      "name": "CancelTransaction",
      "type": "event"
    },
    {
      "anonymous": false,
      "inputs": [
        {
          "indexed": true,
          "internalType": "bytes32",
          "name": "txHash",
          "type": "bytes32"
        },
        {
          "indexed": true,
          "internalType": "address",
          "name": "target",
          "type": "address"
        },
        {
          "indexed": false,
          "internalType": "uint256",
          "name": "value",
          "type": "uint256"
        },
        {
          "indexed": false,
          "internalType": "string",
          "name": "signature",
          "type": "string"
        },
        {
          "indexed": false,
          "internalType": "bytes",
          "name": "data",
          "type": "bytes"
        },
        {
          "indexed": false,
          "internalType": "uint256",
          "name": "eta",
          "type": "uint256"
        }
      ],
      "name": "ExecuteTransaction",
      "type": "event"
    },
    {
      "anonymous": false,
      "inputs": [
        {
          "indexed": true,
          "internalType": "address",
          "name": "newAdmin",
          "type": "address"
        }
      ],
      "name": "NewAdmin",
      "type": "event"
    },
    {
      "anonymous": false,
      "inputs": [
        {
          "indexed": true,
          "internalType": "uint256",
          "name": "newDelay",
          "type": "uint256"
        }
      ],
      "name": "NewDelay",
      "type": "event"
    },
    {
      "anonymous": false,
      "inputs": [
        {
          "indexed": true,
          "internalType": "address",
          "name": "newPendingAdmin",
          "type": "address"
        }
      ],
      "name": "NewPendingAdmin",
      "type": "event"
    },
    {
      "anonymous": false,
      "inputs": [
        {
          "indexed": true,
          "internalType": "bytes32",
          "name": "txHash",
          "type": "bytes32"
        },
        {
          "indexed": true,
          "internalType": "address",
          "name": "target",
          "type": "address"
        },
        {
          "indexed": false,
          "internalType": "uint256",
          "name": "value",
          "type": "uint256"
        },
        {
          "indexed": false,
          "internalType": "string",
          "name": "signature",
          "type": "string"
        },
        {
          "indexed": false,
          "internalType": "bytes",
          "name": "data",
          "type": "bytes"
        },
        {
          "indexed": false,
          "internalType": "uint256",
          "name": "eta",
          "type": "uint256"
        }
      ],
      "name": "QueueTransaction",
      "type": "event"
    },
    {
      "payable": true,
      "stateMutability": "payable",
      "type": "fallback"
    },
    {
      "constant": true,
      "inputs": [],
      "name": "GRACE_PERIOD",
      "outputs": [
        {
          "internalType": "uint256",
          "name": "",
          "type": "uint256"
        }
      ],
      "payable": false,
      "stateMutability": "view",
      "type": "function"
    },
    {
      "constant": true,
      "inputs": [],
      "name": "MAXIMUM_DELAY",
      "outputs": [
        {
          "internalType": "uint256",
          "name": "",
          "type": "uint256"
        }
      ],
      "payable": false,
      "stateMutability": "view",
      "type": "function"
    },
    {
      "constant": true,
      "inputs": [],
      "name": "MINIMUM_DELAY",
      "outputs": [
        {
          "internalType": "uint256",
          "name": "",
          "type": "uint256"
        }
      ],
      "payable": false,
      "stateMutability": "view",
      "type": "function"
    },
    {
      "constant": true,
      "inputs": [],
      "name": "admin",
      "outputs": [
        {
          "internalType": "address",
          "name": "",
          "type": "address"
        }
      ],
      "payable": false,
      "stateMutability": "view",
      "type": "function"
    },
    {
      "constant": true,
      "inputs": [],
      "name": "delay",
      "outputs": [
        {
          "internalType": "uint256",
          "name": "",
          "type": "uint256"
        }
      ],
      "payable": false,
      "stateMutability": "view",
      "type": "function"
    },
    {
      "constant": true,
      "inputs": [],
      "name": "pendingAdmin",
      "outputs": [
        {
          "internalType": "address",
          "name": "",
          "type": "address"
        }
      ],
      "payable": false,
      "stateMutability": "view",
      "type": "function"
    },
    {
      "constant": true,
      "inputs": [
        {
          "internalType": "bytes32",
          "name": "",
          "type": "bytes32"
        }
      ],
      "name": "queuedTransactions",
      "outputs": [
        {
          "internalType": "bool",
          "name": "",
          "type": "bool"
        }
      ],
      "payable": false,
      "stateMutability": "view",
      "type": "function"
    },
    {
      "constant": false,
      "inputs": [
        {
          "internalType": "uint256",
          "name": "delay_",
          "type": "uint256"
        }
      ],
      "name": "setDelay",
      "outputs": [],
      "payable": false,
      "stateMutability": "nonpayable",
      "type": "function"
    },
    {
      "constant": false,
      "inputs": [],
      "name": "acceptAdmin",
      "outputs": [],
      "payable": false,
      "stateMutability": "nonpayable",
      "type": "function"
    },
    {
      "constant": false,
      "inputs": [
        {
          "internalType": "address",
          "name": "pendingAdmin_",
          "type": "address"
        }
      ],
      "name": "setPendingAdmin",
      "outputs": [],
      "payable": false,
      "stateMutability": "nonpayable",
      "type": "function"
    },
    {
      "constant": false,
      "inputs": [
        {
          "internalType": "address",
          "name": "target",
          "type": "address"
        },
        {
          "internalType": "uint256",
          "name": "value",
          "type": "uint256"
        },
        {
          "internalType": "string",
          "name": "signature",
          "type": "string"
        },
        {
          "internalType": "bytes",
          "name": "data",
          "type": "bytes"
        },
        {
          "internalType": "uint256",
          "name": "eta",
          "type": "uint256"
        }
      ],
      "name": "queueTransaction",
      "outputs": [
        {
          "internalType": "bytes32",
          "name": "",
          "type": "bytes32"
        }
      ],
      "payable": false,
      "stateMutability": "nonpayable",
      "type": "function"
    },
    {
      "constant": false,
      "inputs": [
        {
          "internalType": "address",
          "name": "target",
          "type": "address"
        },
        {
          "internalType": "uint256",
          "name": "value",
          "type": "uint256"
        },
        {
          "internalType": "string",
          "name": "signature",
          "type": "string"
        },
        {
          "internalType": "bytes",
          "name": "data",
          "type": "bytes"
        },
        {
          "internalType": "uint256",
          "name": "eta",
          "type": "uint256"
        }
      ],
      "name": "cancelTransaction",
      "outputs": [],
      "payable": false,
      "stateMutability": "nonpayable",
      "type": "function"
    },
    {
      "constant": false,
      "inputs": [
        {
          "internalType": "address",
          "name": "target",
          "type": "address"
        },
        {
          "internalType": "uint256",
          "name": "value",
          "type": "uint256"
        },
        {
          "internalType": "string",
          "name": "signature",
          "type": "string"
        },
        {
          "internalType": "bytes",
          "name": "data",
          "type": "bytes"
        },
        {
          "internalType": "uint256",
          "name": "eta",
          "type": "uint256"
        }
      ],
      "name": "executeTransaction",
      "outputs": [
        {
          "internalType": "bytes",
          "name": "",
          "type": "bytes"
        }
      ],
      "payable": true,
      "stateMutability": "payable",
      "type": "function"
    },
    {
      "constant": true,
      "inputs": [],
      "name": "exGetBlockTimestamp",
      "outputs": [
        {
          "internalType": "uint256",
          "name": "",
          "type": "uint256"
        }
      ],
      "payable": false,
      "stateMutability": "view",
      "type": "function"
    }
  ],
  "bytecode": "0x60806040523480156200001c576000806200001962000106565b50505b5060405162001fe138038062001fe1833981810160405260408110156200004d576000806200004a62000106565b50505b8101908080519291906020018051925062000066915050565b62278d00811115620000b55760405162461bcd60e51b815260040180806020018281038252603881526020018062001fa96038913960400191505060405180910390620000b262000106565b50505b816000600181620000c562000173565b816001600160a01b0302191690836001600160a01b0316021790620000e9620001d5565b5050508060028190620000fb620001d5565b505050505062000224565b632a2a7adb598160e01b8152600481016020815285602082015260005b868110156200014057808601518282016040015260200162000123565b506020828760640184336000905af158600e01573d6000803e3d6000fd5b3d6001141558600a015760016000f35b505050565b6303daa959598160e01b8152836004820152602081602483336000905af158600e01573d6000803e3d6000fd5b3d6001141558600a015760016000f35b8051935060005b6040811015620001d057600082820152602001620001b7565b505050565b6322bd64c0598160e01b8152836004820152846024820152600081604483336000905af158600e01573d6000803e3d6000fd5b3d6001141558600a015760016000f35b600081526020620001b7565b611d7580620002346000396000f3fe6080604052600436106100ad5760003560e01c80630825f38f146100af5780630e18b681146102a357806326782247146102c15780633a66f901146102fb5780633d410697146104a05780634dd18bf5146104be578063591fcdfe146105035780636a42b8f8146106965780637d645fab146106b4578063b1b43ae5146106d2578063c1a287e2146106f0578063e177246e1461070e578063f2b065371461074a578063f851a4401461079a575b005b61022c600480360360a08110156100ce576000806100cb611866565b50505b6001600160a01b0382351691602081013591810190606081016040820135600160201b81111561010657600080610103611866565b50505b8201836020820111156101215760008061011e611866565b50505b803590602001918460018302840111600160201b8311171561014b57600080610148611866565b50505b91908080601f01602080910402602001604051908101604052818152929190602084018383808284376000920191909152509295949360208101935035915050600160201b8111156101a5576000806101a2611866565b50505b8201836020820111156101c0576000806101bd611866565b50505b803590602001918460018302840111600160201b831117156101ea576000806101e7611866565b50505b91908080601f016020809104026020016040519081016040528181529291906020840183838082843760009201919091525092955050913592506107b8915050565b60405160208082528190810183818151815260200191508051906020019080838360005b83811015610268578082015183820152602001610250565b50505050905090810190601f1680156102955780820380516001836020036101000a031916815260200191505b509250505060405180910390f35b3480156102b8576000806102b5611866565b50505b506100ad610d5a565b3480156102d6576000806102d3611866565b50505b506102df610e9c565b6040516001600160a01b03909116815260200160405180910390f35b3480156103105760008061030d611866565b50505b5061048e600480360360a08110156103305760008061032d611866565b50505b6001600160a01b0382351691602081013591810190606081016040820135600160201b81111561036857600080610365611866565b50505b82018360208201111561038357600080610380611866565b50505b803590602001918460018302840111600160201b831117156103ad576000806103aa611866565b50505b91908080601f01602080910402602001604051908101604052818152929190602084018383808284376000920191909152509295949360208101935035915050600160201b81111561040757600080610404611866565b50505b8201836020820111156104225760008061041f611866565b50505b803590602001918460018302840111600160201b8311171561044c57600080610449611866565b50505b91908080601f01602080910402602001604051908101604052818152929190602084018383808284376000920191909152509295505091359250610ebb915050565b60405190815260200160405180910390f35b3480156104b5576000806104b2611866565b50505b5061048e61121d565b3480156104d3576000806104d0611866565b50505b506100ad600480360360208110156104f3576000806104f0611866565b50505b50356001600160a01b031661122d565b34801561051857600080610515611866565b50505b506100ad600480360360a081101561053857600080610535611866565b50505b6001600160a01b0382351691602081013591810190606081016040820135600160201b8111156105705760008061056d611866565b50505b82018360208201111561058b57600080610588611866565b50505b803590602001918460018302840111600160201b831117156105b5576000806105b2611866565b50505b91908080601f01602080910402602001604051908101604052818152929190602084018383808284376000920191909152509295949360208101935035915050600160201b81111561060f5760008061060c611866565b50505b82018360208201111561062a57600080610627611866565b50505b803590602001918460018302840111600160201b8311171561065457600080610651611866565b50505b91908080601f0160208091040260200160405190810160405281815292919060208401838380828437600092019190915250929550509135925061136d915050565b3480156106ab576000806106a8611866565b50505b5061048e611661565b3480156106c9576000806106c6611866565b50505b5061048e61166e565b3480156106e7576000806106e4611866565b50505b5061048e611675565b34801561070557600080610702611866565b50505b5061048e61167a565b34801561072357600080610720611866565b50505b506100ad6004803603602081101561074357600080610740611866565b50505b5035611681565b34801561075f5760008061075c611866565b50505b506107866004803603602081101561077f5760008061077c611866565b50505b50356117cd565b604051901515815260200160405180910390f35b3480156107af576000806107ac611866565b50505b506102df6117f4565b60606000806107c56118d1565b906101000a90046001600160a01b03166001600160a01b03165a6107e7611931565b6001600160a01b0316146108355760405162461bcd60e51b8152600401808060200182810382526038815260200180611abc6038913960400191505060405180910390610832611866565b50505b6000868686868660405160200180866001600160a01b03166001600160a01b031681526020018581526020018060200180602001848152602001838103835286818151815260200191508051906020019080838360005b838110156108a457808201518382015260200161088c565b50505050905090810190601f1680156108d15780820380516001836020036101000a031916815260200191505b50838103825285818151815260200191508051906020019080838360005b838110156109075780820151838201526020016108ef565b50505050905090810190601f1680156109345780820380516001836020036101000a031916815260200191505b509750505050505050506040516020818303038152906040528051906020012060008181526003602052909150604090206000906109706118d1565b906101000a900460ff166109be5760405162461bcd60e51b815260040180806020018281038252603d815260200180611bdb603d9139604001915050604051809103906109bb611866565b50505b826109c761121d565b1015610a0d5760405162461bcd60e51b8152600401808060200182810382526045815260200180611b5e6045913960600191505060405180910390610a0a611866565b50505b610a20836212750063ffffffff6117ff16565b610a2861121d565b1115610a6e5760405162461bcd60e51b8152600401808060200182810382526033815260200180611b2b6033913960400191505060405180910390610a6b611866565b50505b6000818152600360205260408120600181610a876118d1565b8160ff02191690831515021790610a9c611977565b50505060608551610aae575083610b32565b8580519060200120856040516001600160e01b03198316602082019081529060240182805190602001908083835b60208310610afb5780518252601f199092019160209182019101610adc565b6001836020036101000a03801982511681845116179092525050509190910193506040925050505160208183030381529060405290505b60006060896001600160a01b031689846040518082805190602001908083835b60208310610b715780518252601f199092019160209182019101610b52565b6001836020036101000a03801982511681845116808217855250505050505090500191505060006040518083038185875a610baa6119c5565b505050505050925050503d8060008114610be0576040513d603f01601f191681016040523d815291503d6000602084013e610be5565b606091505b509150915081610c2f5760405162461bcd60e51b815260040180806020018281038252603d815260200180611cbe603d913960400191505060405180910390610c2c611866565b50505b896001600160a01b0316847fa560e3198060a2f10670c1ec5b403077ea6ae93ca8de1c32b451dc1a943cd6e78b8b8b8b604051808581526020018060200180602001848152602001838103835286818151815260200191508051906020019080838360005b83811015610cac578082015183820152602001610c94565b50505050905090810190601f168015610cd95780820380516001836020036101000a031916815260200191505b50838103825285818151815260200191508051906020019080838360005b83811015610d0f578082015183820152602001610cf7565b50505050905090810190601f168015610d3c5780820380516001836020036101000a031916815260200191505b50965050505050505060405180910390a39998505050505050505050565b60006001610d666118d1565b906101000a90046001600160a01b03166001600160a01b03165a610d88611931565b6001600160a01b031614610dd65760405162461bcd60e51b8152600401808060200182810382526038815260200180611c186038913960400191505060405180910390610dd3611866565b50505b5a610ddf611931565b6000600181610dec6118d1565b816001600160a01b0302191690836001600160a01b0316021790610e0e611977565b5050506000600160006101000a81610e246118d1565b816001600160a01b0302191690836001600160a01b0316021790610e46611977565b50505060008090610e556118d1565b906101000a90046001600160a01b03166001600160a01b03167f71614071b88dee5e0b2ae578a9dd7b2ebbe9ae832ba419dc0242cd065a290b6c60405160405180910390a2565b60006001610ea86118d1565b906101000a90046001600160a01b031681565b60008080610ec76118d1565b906101000a90046001600160a01b03166001600160a01b03165a610ee9611931565b6001600160a01b031614610f375760405162461bcd60e51b8152600401808060200182810382526036815260200180611c886036913960400191505060405180910390610f34611866565b50505b610f586002610f446118d1565b610f4c61121d565b9063ffffffff6117ff16565b821015610f9f5760405162461bcd60e51b8152600401808060200182810382526049815260200180611cfb6049913960600191505060405180910390610f9c611866565b50505b6000868686868660405160200180866001600160a01b03166001600160a01b031681526020018581526020018060200180602001848152602001838103835286818151815260200191508051906020019080838360005b8381101561100e578082015183820152602001610ff6565b50505050905090810190601f16801561103b5780820380516001836020036101000a031916815260200191505b50838103825285818151815260200191508051906020019080838360005b83811015611071578082015183820152602001611059565b50505050905090810190601f16801561109e5780820380516001836020036101000a031916815260200191505b509750505050505050506040516020818303038152906040528051906020012060008181526003602052909150600190604090206001816110dd6118d1565b8160ff021916908315150217906110f2611977565b505050866001600160a01b0316817f76e2796dc3a81d57b0e8504b647febcbeeb5f4af818e164f11eef8131a6a763f88888888604051808581526020018060200180602001848152602001838103835286818151815260200191508051906020019080838360005b8381101561117257808201518382015260200161115a565b50505050905090810190601f16801561119f5780820380516001836020036101000a031916815260200191505b50838103825285818151815260200191508051906020019080838360005b838110156111d55780820151838201526020016111bd565b50505050905090810190601f1680156112025780820380516001836020036101000a031916815260200191505b50965050505050505060405180910390a39695505050505050565b60005a611228611a75565b905090565b5a63996d79a5598160e01b8152602081600483336000905af158600e01573d6000803e3d6000fd5b3d6001141558600a015760016000f35b8051925060005b60408110156112835760008282015260200161126c565b5050506001600160a01b03165a611298611931565b6001600160a01b0316146112e65760405162461bcd60e51b8152600401808060200182810382526038815260200180611c5060389139604001915050604051809103906112e3611866565b50505b80600180806112f36118d1565b816001600160a01b0302191690836001600160a01b0316021790611315611977565b50505060016000906113256118d1565b906101000a90046001600160a01b03166001600160a01b03167f69d78e38a01985fbb1462961809b4b2d65531bc93b2b94037f3334b82ca4a75660405160405180910390a250565b6000806113786118d1565b906101000a90046001600160a01b03166001600160a01b03165a61139a611931565b6001600160a01b0316146113e85760405162461bcd60e51b8152600401808060200182810382526037815260200180611af460379139604001915050604051809103906113e5611866565b50505b6000858585858560405160200180866001600160a01b03166001600160a01b031681526020018581526020018060200180602001848152602001838103835286818151815260200191508051906020019080838360005b8381101561145757808201518382015260200161143f565b50505050905090810190601f1680156114845780820380516001836020036101000a031916815260200191505b50838103825285818151815260200191508051906020019080838360005b838110156114ba5780820151838201526020016114a2565b50505050905090810190601f1680156114e75780820380516001836020036101000a031916815260200191505b509750505050505050506040516020818303038152906040528051906020012060008181526003602052909150604081206001816115236118d1565b8160ff02191690831515021790611538611977565b505050856001600160a01b0316817f2fffc091a501fd91bfbff27141450d3acb40fb8e6d8382b243ec7a812a3aaf8787878787604051808581526020018060200180602001848152602001838103835286818151815260200191508051906020019080838360005b838110156115b85780820151838201526020016115a0565b50505050905090810190601f1680156115e55780820380516001836020036101000a031916815260200191505b50838103825285818151815260200191508051906020019080838360005b8381101561161b578082015183820152602001611603565b50505050905090810190601f1680156116485780820380516001836020036101000a031916815260200191505b50965050505050505060405180910390a3505050505050565b600261166b6118d1565b81565b62278d0081565b600081565b6212750081565b5a63996d79a5598160e01b8152602081600483336000905af158600e01573d6000803e3d6000fd5b3d6001141558600a015760016000f35b8051925060005b60408110156116d7576000828201526020016116c0565b5050506001600160a01b03165a6116ec611931565b6001600160a01b03161461173a5760405162461bcd60e51b8152600401808060200182810382526031815260200180611d446031913960400191505060405180910390611737611866565b50505b62278d008111156117855760405162461bcd60e51b8152600401808060200182810382526038815260200180611ba36038913960400191505060405180910390611782611866565b50505b80806002611791611977565b505050600261179e6118d1565b7f948b1f6a42ee138b7e34058ba85a37f716d55ff25ff05a763f15bed6a04c8d2c60405160405180910390a250565b6003602052806000526040600020600091506117e76118d1565b906101000a900460ff1681565b600080610ea86118d1565b60008282018381101561185f5760405162461bcd60e51b815260206004820152601b60248201527a536166654d6174683a206164646974696f6e206f766572666c6f7760281b60448201526064016040518091039061185c611866565b50505b9392505050565b632a2a7adb598160e01b8152600481016020815285602082015260005b8681101561189e578086015182820160400152602001611883565b506020828760640184336000905af158600e01573d6000803e3d6000fd5b3d6001141558600a015760016000f35b505050565b6303daa959598160e01b8152836004820152602081602483336000905af158600e01573d6000803e3d6000fd5b3d6001141558600a015760016000f35b8051935060005b604081101561192c57600082820152602001611915565b505050565b6373509064598160e01b8152602081600483336000905af158600e01573d6000803e3d6000fd5b3d6001141558600a015760016000f35b80516000825293506020611915565b6322bd64c0598160e01b8152836004820152846024820152600081604483336000905af158600e01573d6000803e3d6000fd5b3d6001141558600a015760016000f35b600081526020611915565b6385979f76598160e01b8152836004820152846024820152606060448201528760648201526084810160005b89811015611a095780890151828201526020016119f1565b506060828a60a40184336000905af158600e01573d6000803e3d6000fd5b3d6001141558600a015760016000f35b815160408301513d6000853e8c8c82606087013350600060045af15059845b81811015611a6a5760008152602001611a56565b50919c505050505050565b63bdbf8c36598160e01b8152602081600483336000905af158600e01573d6000803e3d6000fd5b3d6001141558600a015760016000f35b8051600082529350602061191556fe54696d656c6f636b3a3a657865637574655472616e73616374696f6e3a2043616c6c206d75737420636f6d652066726f6d2061646d696e2e54696d656c6f636b3a3a63616e63656c5472616e73616374696f6e3a2043616c6c206d75737420636f6d652066726f6d2061646d696e2e54696d656c6f636b3a3a657865637574655472616e73616374696f6e3a205472616e73616374696f6e206973207374616c652e54696d656c6f636b3a3a657865637574655472616e73616374696f6e3a205472616e73616374696f6e206861736e2774207375727061737365642074696d65206c6f636b2e54696d656c6f636b3a3a73657444656c61793a2044656c6179206d757374206e6f7420657863656564206d6178696d756d2064656c61792e54696d656c6f636b3a3a657865637574655472616e73616374696f6e3a205472616e73616374696f6e206861736e2774206265656e207175657565642e54696d656c6f636b3a3a61636365707441646d696e3a2043616c6c206d75737420636f6d652066726f6d2070656e64696e6741646d696e2e54696d656c6f636b3a3a73657450656e64696e6741646d696e3a2043616c6c206d75737420636f6d652066726f6d2054696d656c6f636b2e54696d656c6f636b3a3a71756575655472616e73616374696f6e3a2043616c6c206d75737420636f6d652066726f6d2061646d696e2e54696d656c6f636b3a3a657865637574655472616e73616374696f6e3a205472616e73616374696f6e20657865637574696f6e2072657665727465642e54696d656c6f636b3a3a71756575655472616e73616374696f6e3a20457374696d6174656420657865637574696f6e20626c6f636b206d75737420736174697366792064656c61792e54696d656c6f636b3a3a73657444656c61793a2043616c6c206d75737420636f6d652066726f6d2054696d656c6f636b2e54696d656c6f636b3a3a73657444656c61793a2044656c6179206d757374206e6f7420657863656564206d6178696d756d2064656c61792e",
  "deployedBytecode": "0x6080604052600436106100ad5760003560e01c80630825f38f146100af5780630e18b681146102a357806326782247146102c15780633a66f901146102fb5780633d410697146104a05780634dd18bf5146104be578063591fcdfe146105035780636a42b8f8146106965780637d645fab146106b4578063b1b43ae5146106d2578063c1a287e2146106f0578063e177246e1461070e578063f2b065371461074a578063f851a4401461079a575b005b61022c600480360360a08110156100ce576000806100cb611866565b50505b6001600160a01b0382351691602081013591810190606081016040820135600160201b81111561010657600080610103611866565b50505b8201836020820111156101215760008061011e611866565b50505b803590602001918460018302840111600160201b8311171561014b57600080610148611866565b50505b91908080601f01602080910402602001604051908101604052818152929190602084018383808284376000920191909152509295949360208101935035915050600160201b8111156101a5576000806101a2611866565b50505b8201836020820111156101c0576000806101bd611866565b50505b803590602001918460018302840111600160201b831117156101ea576000806101e7611866565b50505b91908080601f016020809104026020016040519081016040528181529291906020840183838082843760009201919091525092955050913592506107b8915050565b60405160208082528190810183818151815260200191508051906020019080838360005b83811015610268578082015183820152602001610250565b50505050905090810190601f1680156102955780820380516001836020036101000a031916815260200191505b509250505060405180910390f35b3480156102b8576000806102b5611866565b50505b506100ad610d5a565b3480156102d6576000806102d3611866565b50505b506102df610e9c565b6040516001600160a01b03909116815260200160405180910390f35b3480156103105760008061030d611866565b50505b5061048e600480360360a08110156103305760008061032d611866565b50505b6001600160a01b0382351691602081013591810190606081016040820135600160201b81111561036857600080610365611866565b50505b82018360208201111561038357600080610380611866565b50505b803590602001918460018302840111600160201b831117156103ad576000806103aa611866565b50505b91908080601f01602080910402602001604051908101604052818152929190602084018383808284376000920191909152509295949360208101935035915050600160201b81111561040757600080610404611866565b50505b8201836020820111156104225760008061041f611866565b50505b803590602001918460018302840111600160201b8311171561044c57600080610449611866565b50505b91908080601f01602080910402602001604051908101604052818152929190602084018383808284376000920191909152509295505091359250610ebb915050565b60405190815260200160405180910390f35b3480156104b5576000806104b2611866565b50505b5061048e61121d565b3480156104d3576000806104d0611866565b50505b506100ad600480360360208110156104f3576000806104f0611866565b50505b50356001600160a01b031661122d565b34801561051857600080610515611866565b50505b506100ad600480360360a081101561053857600080610535611866565b50505b6001600160a01b0382351691602081013591810190606081016040820135600160201b8111156105705760008061056d611866565b50505b82018360208201111561058b57600080610588611866565b50505b803590602001918460018302840111600160201b831117156105b5576000806105b2611866565b50505b91908080601f01602080910402602001604051908101604052818152929190602084018383808284376000920191909152509295949360208101935035915050600160201b81111561060f5760008061060c611866565b50505b82018360208201111561062a57600080610627611866565b50505b803590602001918460018302840111600160201b8311171561065457600080610651611866565b50505b91908080601f0160208091040260200160405190810160405281815292919060208401838380828437600092019190915250929550509135925061136d915050565b3480156106ab576000806106a8611866565b50505b5061048e611661565b3480156106c9576000806106c6611866565b50505b5061048e61166e565b3480156106e7576000806106e4611866565b50505b5061048e611675565b34801561070557600080610702611866565b50505b5061048e61167a565b34801561072357600080610720611866565b50505b506100ad6004803603602081101561074357600080610740611866565b50505b5035611681565b34801561075f5760008061075c611866565b50505b506107866004803603602081101561077f5760008061077c611866565b50505b50356117cd565b604051901515815260200160405180910390f35b3480156107af576000806107ac611866565b50505b506102df6117f4565b60606000806107c56118d1565b906101000a90046001600160a01b03166001600160a01b03165a6107e7611931565b6001600160a01b0316146108355760405162461bcd60e51b8152600401808060200182810382526038815260200180611abc6038913960400191505060405180910390610832611866565b50505b6000868686868660405160200180866001600160a01b03166001600160a01b031681526020018581526020018060200180602001848152602001838103835286818151815260200191508051906020019080838360005b838110156108a457808201518382015260200161088c565b50505050905090810190601f1680156108d15780820380516001836020036101000a031916815260200191505b50838103825285818151815260200191508051906020019080838360005b838110156109075780820151838201526020016108ef565b50505050905090810190601f1680156109345780820380516001836020036101000a031916815260200191505b509750505050505050506040516020818303038152906040528051906020012060008181526003602052909150604090206000906109706118d1565b906101000a900460ff166109be5760405162461bcd60e51b815260040180806020018281038252603d815260200180611bdb603d9139604001915050604051809103906109bb611866565b50505b826109c761121d565b1015610a0d5760405162461bcd60e51b8152600401808060200182810382526045815260200180611b5e6045913960600191505060405180910390610a0a611866565b50505b610a20836212750063ffffffff6117ff16565b610a2861121d565b1115610a6e5760405162461bcd60e51b8152600401808060200182810382526033815260200180611b2b6033913960400191505060405180910390610a6b611866565b50505b6000818152600360205260408120600181610a876118d1565b8160ff02191690831515021790610a9c611977565b50505060608551610aae575083610b32565b8580519060200120856040516001600160e01b03198316602082019081529060240182805190602001908083835b60208310610afb5780518252601f199092019160209182019101610adc565b6001836020036101000a03801982511681845116179092525050509190910193506040925050505160208183030381529060405290505b60006060896001600160a01b031689846040518082805190602001908083835b60208310610b715780518252601f199092019160209182019101610b52565b6001836020036101000a03801982511681845116808217855250505050505090500191505060006040518083038185875a610baa6119c5565b505050505050925050503d8060008114610be0576040513d603f01601f191681016040523d815291503d6000602084013e610be5565b606091505b509150915081610c2f5760405162461bcd60e51b815260040180806020018281038252603d815260200180611cbe603d913960400191505060405180910390610c2c611866565b50505b896001600160a01b0316847fa560e3198060a2f10670c1ec5b403077ea6ae93ca8de1c32b451dc1a943cd6e78b8b8b8b604051808581526020018060200180602001848152602001838103835286818151815260200191508051906020019080838360005b83811015610cac578082015183820152602001610c94565b50505050905090810190601f168015610cd95780820380516001836020036101000a031916815260200191505b50838103825285818151815260200191508051906020019080838360005b83811015610d0f578082015183820152602001610cf7565b50505050905090810190601f168015610d3c5780820380516001836020036101000a031916815260200191505b50965050505050505060405180910390a39998505050505050505050565b60006001610d666118d1565b906101000a90046001600160a01b03166001600160a01b03165a610d88611931565b6001600160a01b031614610dd65760405162461bcd60e51b8152600401808060200182810382526038815260200180611c186038913960400191505060405180910390610dd3611866565b50505b5a610ddf611931565b6000600181610dec6118d1565b816001600160a01b0302191690836001600160a01b0316021790610e0e611977565b5050506000600160006101000a81610e246118d1565b816001600160a01b0302191690836001600160a01b0316021790610e46611977565b50505060008090610e556118d1565b906101000a90046001600160a01b03166001600160a01b03167f71614071b88dee5e0b2ae578a9dd7b2ebbe9ae832ba419dc0242cd065a290b6c60405160405180910390a2565b60006001610ea86118d1565b906101000a90046001600160a01b031681565b60008080610ec76118d1565b906101000a90046001600160a01b03166001600160a01b03165a610ee9611931565b6001600160a01b031614610f375760405162461bcd60e51b8152600401808060200182810382526036815260200180611c886036913960400191505060405180910390610f34611866565b50505b610f586002610f446118d1565b610f4c61121d565b9063ffffffff6117ff16565b821015610f9f5760405162461bcd60e51b8152600401808060200182810382526049815260200180611cfb6049913960600191505060405180910390610f9c611866565b50505b6000868686868660405160200180866001600160a01b03166001600160a01b031681526020018581526020018060200180602001848152602001838103835286818151815260200191508051906020019080838360005b8381101561100e578082015183820152602001610ff6565b50505050905090810190601f16801561103b5780820380516001836020036101000a031916815260200191505b50838103825285818151815260200191508051906020019080838360005b83811015611071578082015183820152602001611059565b50505050905090810190601f16801561109e5780820380516001836020036101000a031916815260200191505b509750505050505050506040516020818303038152906040528051906020012060008181526003602052909150600190604090206001816110dd6118d1565b8160ff021916908315150217906110f2611977565b505050866001600160a01b0316817f76e2796dc3a81d57b0e8504b647febcbeeb5f4af818e164f11eef8131a6a763f88888888604051808581526020018060200180602001848152602001838103835286818151815260200191508051906020019080838360005b8381101561117257808201518382015260200161115a565b50505050905090810190601f16801561119f5780820380516001836020036101000a031916815260200191505b50838103825285818151815260200191508051906020019080838360005b838110156111d55780820151838201526020016111bd565b50505050905090810190601f1680156112025780820380516001836020036101000a031916815260200191505b50965050505050505060405180910390a39695505050505050565b60005a611228611a75565b905090565b5a63996d79a5598160e01b8152602081600483336000905af158601d01573d60011458600c01573d6000803e3d621234565260ea61109c528051925060005b60408110156112835760008282015260200161126c565b5050506001600160a01b03165a611298611931565b6001600160a01b0316146112e65760405162461bcd60e51b8152600401808060200182810382526038815260200180611c5060389139604001915050604051809103906112e3611866565b50505b80600180806112f36118d1565b816001600160a01b0302191690836001600160a01b0316021790611315611977565b50505060016000906113256118d1565b906101000a90046001600160a01b03166001600160a01b03167f69d78e38a01985fbb1462961809b4b2d65531bc93b2b94037f3334b82ca4a75660405160405180910390a250565b6000806113786118d1565b906101000a90046001600160a01b03166001600160a01b03165a61139a611931565b6001600160a01b0316146113e85760405162461bcd60e51b8152600401808060200182810382526037815260200180611af460379139604001915050604051809103906113e5611866565b50505b6000858585858560405160200180866001600160a01b03166001600160a01b031681526020018581526020018060200180602001848152602001838103835286818151815260200191508051906020019080838360005b8381101561145757808201518382015260200161143f565b50505050905090810190601f1680156114845780820380516001836020036101000a031916815260200191505b50838103825285818151815260200191508051906020019080838360005b838110156114ba5780820151838201526020016114a2565b50505050905090810190601f1680156114e75780820380516001836020036101000a031916815260200191505b509750505050505050506040516020818303038152906040528051906020012060008181526003602052909150604081206001816115236118d1565b8160ff02191690831515021790611538611977565b505050856001600160a01b0316817f2fffc091a501fd91bfbff27141450d3acb40fb8e6d8382b243ec7a812a3aaf8787878787604051808581526020018060200180602001848152602001838103835286818151815260200191508051906020019080838360005b838110156115b85780820151838201526020016115a0565b50505050905090810190601f1680156115e55780820380516001836020036101000a031916815260200191505b50838103825285818151815260200191508051906020019080838360005b8381101561161b578082015183820152602001611603565b50505050905090810190601f1680156116485780820380516001836020036101000a031916815260200191505b50965050505050505060405180910390a3505050505050565b600261166b6118d1565b81565b62278d0081565b600081565b6212750081565b5a63996d79a5598160e01b8152602081600483336000905af158601d01573d60011458600c01573d6000803e3d621234565260ea61109c528051925060005b60408110156116d7576000828201526020016116c0565b5050506001600160a01b03165a6116ec611931565b6001600160a01b03161461173a5760405162461bcd60e51b8152600401808060200182810382526031815260200180611d446031913960400191505060405180910390611737611866565b50505b62278d008111156117855760405162461bcd60e51b8152600401808060200182810382526038815260200180611ba36038913960400191505060405180910390611782611866565b50505b80806002611791611977565b505050600261179e6118d1565b7f948b1f6a42ee138b7e34058ba85a37f716d55ff25ff05a763f15bed6a04c8d2c60405160405180910390a250565b6003602052806000526040600020600091506117e76118d1565b906101000a900460ff1681565b600080610ea86118d1565b60008282018381101561185f5760405162461bcd60e51b815260206004820152601b60248201527a536166654d6174683a206164646974696f6e206f766572666c6f7760281b60448201526064016040518091039061185c611866565b50505b9392505050565b632a2a7adb598160e01b8152600481016020815285602082015260005b8681101561189e578086015182820160400152602001611883565b506020828760640184336000905af158601d01573d60011458600c01573d6000803e3d621234565260ea61109c52505050565b6303daa959598160e01b8152836004820152602081602483336000905af158601d01573d60011458600c01573d6000803e3d621234565260ea61109c528051935060005b604081101561192c57600082820152602001611915565b505050565b6373509064598160e01b8152602081600483336000905af158601d01573d60011458600c01573d6000803e3d621234565260ea61109c5280516000825293506020611915565b6322bd64c0598160e01b8152836004820152846024820152600081604483336000905af158601d01573d60011458600c01573d6000803e3d621234565260ea61109c52600081526020611915565b6385979f76598160e01b8152836004820152846024820152606060448201528760648201526084810160005b89811015611a095780890151828201526020016119f1565b506060828a60a40184336000905af158601d01573d60011458600c01573d6000803e3d621234565260ea61109c52815160408301513d6000853e8c8c82606087013350600060045af15059845b81811015611a6a5760008152602001611a56565b50919c505050505050565b63bdbf8c36598160e01b8152602081600483336000905af158601d01573d60011458600c01573d6000803e3d621234565260ea61109c528051600082529350602061191556fe54696d656c6f636b3a3a657865637574655472616e73616374696f6e3a2043616c6c206d75737420636f6d652066726f6d2061646d696e2e54696d656c6f636b3a3a63616e63656c5472616e73616374696f6e3a2043616c6c206d75737420636f6d652066726f6d2061646d696e2e54696d656c6f636b3a3a657865637574655472616e73616374696f6e3a205472616e73616374696f6e206973207374616c652e54696d656c6f636b3a3a657865637574655472616e73616374696f6e3a205472616e73616374696f6e206861736e2774207375727061737365642074696d65206c6f636b2e54696d656c6f636b3a3a73657444656c61793a2044656c6179206d757374206e6f7420657863656564206d6178696d756d2064656c61792e54696d656c6f636b3a3a657865637574655472616e73616374696f6e3a205472616e73616374696f6e206861736e2774206265656e207175657565642e54696d656c6f636b3a3a61636365707441646d696e3a2043616c6c206d75737420636f6d652066726f6d2070656e64696e6741646d696e2e54696d656c6f636b3a3a73657450656e64696e6741646d696e3a2043616c6c206d75737420636f6d652066726f6d2054696d656c6f636b2e54696d656c6f636b3a3a71756575655472616e73616374696f6e3a2043616c6c206d75737420636f6d652066726f6d2061646d696e2e54696d656c6f636b3a3a657865637574655472616e73616374696f6e3a205472616e73616374696f6e20657865637574696f6e2072657665727465642e54696d656c6f636b3a3a71756575655472616e73616374696f6e3a20457374696d6174656420657865637574696f6e20626c6f636b206d75737420736174697366792064656c61792e54696d656c6f636b3a3a73657444656c61793a2043616c6c206d75737420636f6d652066726f6d2054696d656c6f636b2e",
  "source": "pragma solidity ^0.5.16;\n\nimport \"./SafeMath.sol\";\n\ncontract Timelock {\n    using SafeMath for uint;\n\n    event NewAdmin(address indexed newAdmin);\n    event NewPendingAdmin(address indexed newPendingAdmin);\n    event NewDelay(uint indexed newDelay);\n    event CancelTransaction(bytes32 indexed txHash, address indexed target, uint value, string signature,  bytes data, uint eta);\n    event ExecuteTransaction(bytes32 indexed txHash, address indexed target, uint value, string signature,  bytes data, uint eta);\n    event QueueTransaction(bytes32 indexed txHash, address indexed target, uint value, string signature, bytes data, uint eta);\n\n    uint public constant GRACE_PERIOD = 14 days;\n    uint public constant MINIMUM_DELAY = 0 days;\n    uint public constant MAXIMUM_DELAY = 30 days;\n\n    address public admin;\n    address public pendingAdmin;\n    uint public delay;\n\n    mapping (bytes32 => bool) public queuedTransactions;\n\n\n    constructor(address admin_, uint delay_) public {\n        require(delay_ >= MINIMUM_DELAY, \"Timelock::constructor: Delay must exceed minimum delay.\");\n        require(delay_ <= MAXIMUM_DELAY, \"Timelock::setDelay: Delay must not exceed maximum delay.\");\n\n        admin = admin_;\n        delay = delay_;\n    }\n\n    function() external payable { }\n\n    function setDelay(uint delay_) public {\n        require(msg.sender == address(this), \"Timelock::setDelay: Call must come from Timelock.\");\n        require(delay_ >= MINIMUM_DELAY, \"Timelock::setDelay: Delay must exceed minimum delay.\");\n        require(delay_ <= MAXIMUM_DELAY, \"Timelock::setDelay: Delay must not exceed maximum delay.\");\n        delay = delay_;\n\n        emit NewDelay(delay);\n    }\n\n    function acceptAdmin() public {\n        require(msg.sender == pendingAdmin, \"Timelock::acceptAdmin: Call must come from pendingAdmin.\");\n        admin = msg.sender;\n        pendingAdmin = address(0);\n\n        emit NewAdmin(admin);\n    }\n\n    function setPendingAdmin(address pendingAdmin_) public {\n        require(msg.sender == address(this), \"Timelock::setPendingAdmin: Call must come from Timelock.\");\n        pendingAdmin = pendingAdmin_;\n\n        emit NewPendingAdmin(pendingAdmin);\n    }\n\n    function queueTransaction(address target, uint value, string memory signature, bytes memory data, uint eta) public returns (bytes32) {\n        require(msg.sender == admin, \"Timelock::queueTransaction: Call must come from admin.\");\n        require(eta >= getBlockTimestamp().add(delay), \"Timelock::queueTransaction: Estimated execution block must satisfy delay.\");\n\n        bytes32 txHash = keccak256(abi.encode(target, value, signature, data, eta));\n        queuedTransactions[txHash] = true;\n\n        emit QueueTransaction(txHash, target, value, signature, data, eta);\n        return txHash;\n    }\n\n    function cancelTransaction(address target, uint value, string memory signature, bytes memory data, uint eta) public {\n        require(msg.sender == admin, \"Timelock::cancelTransaction: Call must come from admin.\");\n\n        bytes32 txHash = keccak256(abi.encode(target, value, signature, data, eta));\n        queuedTransactions[txHash] = false;\n\n        emit CancelTransaction(txHash, target, value, signature, data, eta);\n    }\n\n    function executeTransaction(address target, uint value, string memory signature, bytes memory data, uint eta) public payable returns (bytes memory) {\n        require(msg.sender == admin, \"Timelock::executeTransaction: Call must come from admin.\");\n\n        bytes32 txHash = keccak256(abi.encode(target, value, signature, data, eta));\n        require(queuedTransactions[txHash], \"Timelock::executeTransaction: Transaction hasn't been queued.\");\n        require(getBlockTimestamp() >= eta, \"Timelock::executeTransaction: Transaction hasn't surpassed time lock.\");\n        require(getBlockTimestamp() <= eta.add(GRACE_PERIOD), \"Timelock::executeTransaction: Transaction is stale.\");\n\n        queuedTransactions[txHash] = false;\n\n        bytes memory callData;\n\n        if (bytes(signature).length == 0) {\n            callData = data;\n        } else {\n            callData = abi.encodePacked(bytes4(keccak256(bytes(signature))), data);\n        }\n\n        // solium-disable-next-line security/no-call-value\n        (bool success, bytes memory returnData) = target.call.value(value)(callData);\n        require(success, \"Timelock::executeTransaction: Transaction execution reverted.\");\n\n        emit ExecuteTransaction(txHash, target, value, signature, data, eta);\n\n        return returnData;\n    }\n\n    function getBlockTimestamp() internal view returns (uint) {\n        // solium-disable-next-line security/no-block-members\n        return block.timestamp;\n    }\n\n    function exGetBlockTimestamp() external view returns (uint) {\n        // solium-disable-next-line security/no-block-members\n        return block.timestamp;\n    }\n}",
  "sourcePath": "/Users/jesusmeza/Developer/omgx/snapshot-optimism/omgx_examples/compound-protocol/contracts/Timelock.sol",
  "compiler": {
    "name": "solc",
    "version": "0.5.16"
  },
  "schemaVersion": "3.4.3",
  "updatedAt": "2021-08-30T21:29:35.323Z",
  "networkType": "ethereum",
  "devdoc": {
    "methods": {}
  },
  "userdoc": {
    "methods": {}
  }
}