{
  "contractName": "Unitroller",
  "abi": [
    {
      "inputs": [],
      "payable": false,
      "stateMutability": "nonpayable",
      "type": "constructor"
    },
    {
      "anonymous": false,
      "inputs": [
        {
          "indexed": false,
          "internalType": "uint256",
          "name": "error",
          "type": "uint256"
        },
        {
          "indexed": false,
          "internalType": "uint256",
          "name": "info",
          "type": "uint256"
        },
        {
          "indexed": false,
          "internalType": "uint256",
          "name": "detail",
          "type": "uint256"
        }
      ],
      "name": "Failure",
      "type": "event"
    },
    {
      "anonymous": false,
      "inputs": [
        {
          "indexed": false,
          "internalType": "address",
          "name": "oldAdmin",
          "type": "address"
        },
        {
          "indexed": false,
          "internalType": "address",
          "name": "newAdmin",
          "type": "address"
        }
      ],
      "name": "NewAdmin",
      "type": "event"
    },
    {
      "anonymous": false,
      "inputs": [
        {
          "indexed": false,
          "internalType": "address",
          "name": "oldImplementation",
          "type": "address"
        },
        {
          "indexed": false,
          "internalType": "address",
          "name": "newImplementation",
          "type": "address"
        }
      ],
      "name": "NewImplementation",
      "type": "event"
    },
    {
      "anonymous": false,
      "inputs": [
        {
          "indexed": false,
          "internalType": "address",
          "name": "oldPendingAdmin",
          "type": "address"
        },
        {
          "indexed": false,
          "internalType": "address",
          "name": "newPendingAdmin",
          "type": "address"
        }
      ],
      "name": "NewPendingAdmin",
      "type": "event"
    },
    {
      "anonymous": false,
      "inputs": [
        {
          "indexed": false,
          "internalType": "address",
          "name": "oldPendingImplementation",
          "type": "address"
        },
        {
          "indexed": false,
          "internalType": "address",
          "name": "newPendingImplementation",
          "type": "address"
        }
      ],
      "name": "NewPendingImplementation",
      "type": "event"
    },
    {
      "payable": true,
      "stateMutability": "payable",
      "type": "fallback"
    },
    {
      "constant": true,
      "inputs": [],
      "name": "admin",
      "outputs": [
        {
          "internalType": "address",
          "name": "",
          "type": "address"
        }
      ],
      "payable": false,
      "stateMutability": "view",
      "type": "function"
    },
    {
      "constant": true,
      "inputs": [],
      "name": "comptrollerImplementation",
      "outputs": [
        {
          "internalType": "address",
          "name": "",
          "type": "address"
        }
      ],
      "payable": false,
      "stateMutability": "view",
      "type": "function"
    },
    {
      "constant": true,
      "inputs": [],
      "name": "pendingAdmin",
      "outputs": [
        {
          "internalType": "address",
          "name": "",
          "type": "address"
        }
      ],
      "payable": false,
      "stateMutability": "view",
      "type": "function"
    },
    {
      "constant": true,
      "inputs": [],
      "name": "pendingComptrollerImplementation",
      "outputs": [
        {
          "internalType": "address",
          "name": "",
          "type": "address"
        }
      ],
      "payable": false,
      "stateMutability": "view",
      "type": "function"
    },
    {
      "constant": false,
      "inputs": [
        {
          "internalType": "address",
          "name": "newPendingImplementation",
          "type": "address"
        }
      ],
      "name": "_setPendingImplementation",
      "outputs": [
        {
          "internalType": "uint256",
          "name": "",
          "type": "uint256"
        }
      ],
      "payable": false,
      "stateMutability": "nonpayable",
      "type": "function"
    },
    {
      "constant": false,
      "inputs": [],
      "name": "_acceptImplementation",
      "outputs": [
        {
          "internalType": "uint256",
          "name": "",
          "type": "uint256"
        }
      ],
      "payable": false,
      "stateMutability": "nonpayable",
      "type": "function"
    },
    {
      "constant": false,
      "inputs": [
        {
          "internalType": "address",
          "name": "newPendingAdmin",
          "type": "address"
        }
      ],
      "name": "_setPendingAdmin",
      "outputs": [
        {
          "internalType": "uint256",
          "name": "",
          "type": "uint256"
        }
      ],
      "payable": false,
      "stateMutability": "nonpayable",
      "type": "function"
    },
    {
      "constant": false,
      "inputs": [],
      "name": "_acceptAdmin",
      "outputs": [
        {
          "internalType": "uint256",
          "name": "",
          "type": "uint256"
        }
      ],
      "payable": false,
      "stateMutability": "nonpayable",
      "type": "function"
    }
  ],
  "bytecode": "0x60806040523480156100195760008061001661005a565b50505b505a6100236100c5565b600060018161003061011f565b816001600160a01b0302191690836001600160a01b031602179061005261016b565b5050506101b9565b632a2a7adb598160e01b8152600481016020815285602082015260005b86811015610092578086015182820160400152602001610077565b506020828760640184336000905af158600e01573d6000803e3d6000fd5b3d6001141558600a015760016000f35b505050565b6373509064598160e01b8152602081600483336000905af158600e01573d6000803e3d6000fd5b3d6001141558600a015760016000f35b8051935060005b604081101561011a57600082820152602001610103565b505050565b6303daa959598160e01b8152836004820152602081602483336000905af158600e01573d6000803e3d6000fd5b3d6001141558600a015760016000f35b80516000825293506020610103565b6322bd64c0598160e01b8152836004820152846024820152600081604483336000905af158600e01573d6000803e3d6000fd5b3d6001141558600a015760016000f35b600081526020610103565b610b1a806101c86000396000f3fe60806040526004361061006b5760003560e01c8063267822471461011d578063b71d1a0c14610157578063bb82aa5e146101ae578063c1e80334146101cc578063dcfbc0c7146101ea578063e992a04114610208578063e9c714f21461024d578063f851a4401461026b575b60008060026100786108ca565b906101000a90046001600160a01b03166001600160a01b0316600036604051808383808284378083019250505092505050600060405180830381855a6100bc61092a565b50505050509150503d80600081146100f0576040513d603f01601f191681016040523d815291503d6000602084013e6100f5565b606091505b505090506040513d6000823e81801561010c573d82f35b3d826101166109da565b5050505050005b3480156101325760008061012f6109da565b50505b5061013b610289565b6040516001600160a01b03909116815260200160405180910390f35b34801561016c576000806101696109da565b50505b5061019c6004803603602081101561018c576000806101896109da565b50505b50356001600160a01b03166102a8565b60405190815260200160405180910390f35b3480156101c3576000806101c06109da565b50505b5061013b61038d565b3480156101e1576000806101de6109da565b50505b5061019c610399565b3480156101ff576000806101fc6109da565b50505b5061013b61059e565b34801561021d5760008061021a6109da565b50505b5061019c6004803603602081101561023d5760008061023a6109da565b50505b50356001600160a01b03166105aa565b3480156102625760008061025f6109da565b50505b5061019c61069f565b3480156102805760008061027d6109da565b50505b5061013b61084c565b600060016102956108ca565b906101000a90046001600160a01b031681565b600080806102b46108ca565b906101000a90046001600160a01b03166001600160a01b03165a6102d6610a45565b6001600160a01b0316146102f7576102f06001600e610857565b9050610388565b60008060016103046108ca565b906101000a90046001600160a01b0316905082600160006101000a816103286108ca565b816001600160a01b0302191690836001600160a01b031602179061034a610a8b565b505050600080516020610afa83398151915281846040516001600160a01b039283168152911660208201526040908101905180910390a160005b9150505b919050565b600060026102956108ca565b60008060036103a66108ca565b906101000a90046001600160a01b03166001600160a01b03165a6103c8610a45565b6001600160a01b0316141580610401575060008060036103e66108ca565b906101000a90046001600160a01b03166001600160a01b0316145b1561041857610411600180610857565b905061059b565b60008060026104256108ca565b906101000a90046001600160a01b03169050600060036000906104466108ca565b906101000a90046001600160a01b0316905060036000906104656108ca565b906101000a90046001600160a01b0316600260006101000a816104866108ca565b816001600160a01b0302191690836001600160a01b03160217906104a8610a8b565b5050506000600360006101000a816104be6108ca565b816001600160a01b0302191690836001600160a01b03160217906104e0610a8b565b5050507fd604de94d45953f9138079ec1b82d533cb2160c906d1076d1f7ed54befbca97a8260026000906105126108ca565b906101000a90046001600160a01b03166040516001600160a01b039283168152911660208201526040908101905180910390a1600080516020610ada83398151915281600060036105616108ca565b906101000a90046001600160a01b03166040516001600160a01b039283168152911660208201526040908101905180910390a16000925050505b90565b600060036102956108ca565b600080806105b66108ca565b906101000a90046001600160a01b03166001600160a01b03165a6105d8610a45565b6001600160a01b0316146105f2576102f06001600f610857565b60008060036105ff6108ca565b906101000a90046001600160a01b0316905082600360006101000a816106236108ca565b816001600160a01b0302191690836001600160a01b0316021790610645610a8b565b505050600080516020610ada8339815191528160036000906106656108ca565b906101000a90046001600160a01b03166040516001600160a01b039283168152911660208201526040908101905180910390a16000610384565b60008060016106ac6108ca565b906101000a90046001600160a01b03166001600160a01b03165a6106ce610a45565b6001600160a01b03161415806106f5575060005a6106ea610a45565b6001600160a01b0316145b156107065761041160016000610857565b600080806107126108ca565b906101000a90046001600160a01b03169050600060016000906107336108ca565b906101000a90046001600160a01b0316905060016000906107526108ca565b906101000a90046001600160a01b03166000806101000a816107726108ca565b816001600160a01b0302191690836001600160a01b0316021790610794610a8b565b5050506000600160006101000a816107aa6108ca565b816001600160a01b0302191690836001600160a01b03160217906107cc610a8b565b5050507ff9ffabca9c8276e99321725bcb43fb076a6c66a54b7f21c4e8146d8519b417dc82600080906107fd6108ca565b906101000a90046001600160a01b03166040516001600160a01b039283168152911660208201526040908101905180910390a1600080516020610afa83398151915281600060016105616108ca565b6000806102956108ca565b60007f45b96fe442630264581b197e84bbada861235052c5a1aadfff9ea4e40a969aa083601181111561088657fe5b83601381111561089257fe5b600060405180848152602001838152602001828152602001935050505060405180910390a18260118111156108c357fe5b9392505050565b6303daa959598160e01b8152836004820152602081602483336000905af158600e01573d6000803e3d6000fd5b3d6001141558600a015760016000f35b8051935060005b60408110156109255760008282015260200161090e565b505050565b63ffe73914598160e01b8152836004820152846024820152606060448201528660648201526084810160005b8881101561096e578088015182820152602001610956565b506060828960a40184336000905af158600e01573d6000803e3d6000fd5b3d6001141558600a015760016000f35b815160408301513d6000853e8b8b82606087013350600060045af15059845b818110156109cf57600081526020016109bb565b50919b505050505050565b632a2a7adb598160e01b8152600481016020815285602082015260005b86811015610a125780860151828201604001526020016109f7565b506020828760640184336000905af158600e01573d6000803e3d6000fd5b3d6001141558600a015760016000f35b505050565b6373509064598160e01b8152602081600483336000905af158600e01573d6000803e3d6000fd5b3d6001141558600a015760016000f35b8051600082529350602061090e565b6322bd64c0598160e01b8152836004820152846024820152600081604483336000905af158600e01573d6000803e3d6000fd5b3d6001141558600a015760016000f35b60008152602061090e56fee945ccee5d701fc83f9b8aa8ca94ea4219ec1fcbd4f4cab4f0ea57c5c3e1d815ca4f2f25d0898edd99413412fb94012f9e54ec8142f9b093e7720646a95b16a9",
  "deployedBytecode": "0x60806040526004361061006b5760003560e01c8063267822471461011d578063b71d1a0c14610157578063bb82aa5e146101ae578063c1e80334146101cc578063dcfbc0c7146101ea578063e992a04114610208578063e9c714f21461024d578063f851a4401461026b575b60008060026100786108ca565b906101000a90046001600160a01b03166001600160a01b0316600036604051808383808284378083019250505092505050600060405180830381855a6100bc61092a565b50505050509150503d80600081146100f0576040513d603f01601f191681016040523d815291503d6000602084013e6100f5565b606091505b505090506040513d6000823e81801561010c573d82f35b3d826101166109da565b5050505050005b3480156101325760008061012f6109da565b50505b5061013b610289565b6040516001600160a01b03909116815260200160405180910390f35b34801561016c576000806101696109da565b50505b5061019c6004803603602081101561018c576000806101896109da565b50505b50356001600160a01b03166102a8565b60405190815260200160405180910390f35b3480156101c3576000806101c06109da565b50505b5061013b61038d565b3480156101e1576000806101de6109da565b50505b5061019c610399565b3480156101ff576000806101fc6109da565b50505b5061013b61059e565b34801561021d5760008061021a6109da565b50505b5061019c6004803603602081101561023d5760008061023a6109da565b50505b50356001600160a01b03166105aa565b3480156102625760008061025f6109da565b50505b5061019c61069f565b3480156102805760008061027d6109da565b50505b5061013b61084c565b600060016102956108ca565b906101000a90046001600160a01b031681565b600080806102b46108ca565b906101000a90046001600160a01b03166001600160a01b03165a6102d6610a45565b6001600160a01b0316146102f7576102f06001600e610857565b9050610388565b60008060016103046108ca565b906101000a90046001600160a01b0316905082600160006101000a816103286108ca565b816001600160a01b0302191690836001600160a01b031602179061034a610a8b565b505050600080516020610afa83398151915281846040516001600160a01b039283168152911660208201526040908101905180910390a160005b9150505b919050565b600060026102956108ca565b60008060036103a66108ca565b906101000a90046001600160a01b03166001600160a01b03165a6103c8610a45565b6001600160a01b0316141580610401575060008060036103e66108ca565b906101000a90046001600160a01b03166001600160a01b0316145b1561041857610411600180610857565b905061059b565b60008060026104256108ca565b906101000a90046001600160a01b03169050600060036000906104466108ca565b906101000a90046001600160a01b0316905060036000906104656108ca565b906101000a90046001600160a01b0316600260006101000a816104866108ca565b816001600160a01b0302191690836001600160a01b03160217906104a8610a8b565b5050506000600360006101000a816104be6108ca565b816001600160a01b0302191690836001600160a01b03160217906104e0610a8b565b5050507fd604de94d45953f9138079ec1b82d533cb2160c906d1076d1f7ed54befbca97a8260026000906105126108ca565b906101000a90046001600160a01b03166040516001600160a01b039283168152911660208201526040908101905180910390a1600080516020610ada83398151915281600060036105616108ca565b906101000a90046001600160a01b03166040516001600160a01b039283168152911660208201526040908101905180910390a16000925050505b90565b600060036102956108ca565b600080806105b66108ca565b906101000a90046001600160a01b03166001600160a01b03165a6105d8610a45565b6001600160a01b0316146105f2576102f06001600f610857565b60008060036105ff6108ca565b906101000a90046001600160a01b0316905082600360006101000a816106236108ca565b816001600160a01b0302191690836001600160a01b0316021790610645610a8b565b505050600080516020610ada8339815191528160036000906106656108ca565b906101000a90046001600160a01b03166040516001600160a01b039283168152911660208201526040908101905180910390a16000610384565b60008060016106ac6108ca565b906101000a90046001600160a01b03166001600160a01b03165a6106ce610a45565b6001600160a01b03161415806106f5575060005a6106ea610a45565b6001600160a01b0316145b156107065761041160016000610857565b600080806107126108ca565b906101000a90046001600160a01b03169050600060016000906107336108ca565b906101000a90046001600160a01b0316905060016000906107526108ca565b906101000a90046001600160a01b03166000806101000a816107726108ca565b816001600160a01b0302191690836001600160a01b0316021790610794610a8b565b5050506000600160006101000a816107aa6108ca565b816001600160a01b0302191690836001600160a01b03160217906107cc610a8b565b5050507ff9ffabca9c8276e99321725bcb43fb076a6c66a54b7f21c4e8146d8519b417dc82600080906107fd6108ca565b906101000a90046001600160a01b03166040516001600160a01b039283168152911660208201526040908101905180910390a1600080516020610afa83398151915281600060016105616108ca565b6000806102956108ca565b60007f45b96fe442630264581b197e84bbada861235052c5a1aadfff9ea4e40a969aa083601181111561088657fe5b83601381111561089257fe5b600060405180848152602001838152602001828152602001935050505060405180910390a18260118111156108c357fe5b9392505050565b6303daa959598160e01b8152836004820152602081602483336000905af158601d01573d60011458600c01573d6000803e3d621234565260ea61109c528051935060005b60408110156109255760008282015260200161090e565b505050565b63ffe73914598160e01b8152836004820152846024820152606060448201528660648201526084810160005b8881101561096e578088015182820152602001610956565b506060828960a40184336000905af158601d01573d60011458600c01573d6000803e3d621234565260ea61109c52815160408301513d6000853e8b8b82606087013350600060045af15059845b818110156109cf57600081526020016109bb565b50919b505050505050565b632a2a7adb598160e01b8152600481016020815285602082015260005b86811015610a125780860151828201604001526020016109f7565b506020828760640184336000905af158601d01573d60011458600c01573d6000803e3d621234565260ea61109c52505050565b6373509064598160e01b8152602081600483336000905af158601d01573d60011458600c01573d6000803e3d621234565260ea61109c528051600082529350602061090e565b6322bd64c0598160e01b8152836004820152846024820152600081604483336000905af158601d01573d60011458600c01573d6000803e3d621234565260ea61109c5260008152602061090e56fee945ccee5d701fc83f9b8aa8ca94ea4219ec1fcbd4f4cab4f0ea57c5c3e1d815ca4f2f25d0898edd99413412fb94012f9e54ec8142f9b093e7720646a95b16a9",
  "source": "pragma solidity ^0.5.16;\n\nimport \"./ErrorReporter.sol\";\nimport \"./ComptrollerStorage.sol\";\n/**\n * @title ComptrollerCore\n * @dev Storage for the comptroller is at this address, while execution is delegated to the `comptrollerImplementation`.\n * CTokens should reference this contract as their comptroller.\n */\ncontract Unitroller is UnitrollerAdminStorage, ComptrollerErrorReporter {\n\n    /**\n      * @notice Emitted when pendingComptrollerImplementation is changed\n      */\n    event NewPendingImplementation(address oldPendingImplementation, address newPendingImplementation);\n\n    /**\n      * @notice Emitted when pendingComptrollerImplementation is accepted, which means comptroller implementation is updated\n      */\n    event NewImplementation(address oldImplementation, address newImplementation);\n\n    /**\n      * @notice Emitted when pendingAdmin is changed\n      */\n    event NewPendingAdmin(address oldPendingAdmin, address newPendingAdmin);\n\n    /**\n      * @notice Emitted when pendingAdmin is accepted, which means admin is updated\n      */\n    event NewAdmin(address oldAdmin, address newAdmin);\n\n    constructor() public {\n        // Set admin to caller\n        admin = msg.sender;\n    }\n\n    /*** Admin Functions ***/\n    function _setPendingImplementation(address newPendingImplementation) public returns (uint) {\n\n        if (msg.sender != admin) {\n            return fail(Error.UNAUTHORIZED, FailureInfo.SET_PENDING_IMPLEMENTATION_OWNER_CHECK);\n        }\n\n        address oldPendingImplementation = pendingComptrollerImplementation;\n\n        pendingComptrollerImplementation = newPendingImplementation;\n\n        emit NewPendingImplementation(oldPendingImplementation, pendingComptrollerImplementation);\n\n        return uint(Error.NO_ERROR);\n    }\n\n    /**\n    * @notice Accepts new implementation of comptroller. msg.sender must be pendingImplementation\n    * @dev Admin function for new implementation to accept it's role as implementation\n    * @return uint 0=success, otherwise a failure (see ErrorReporter.sol for details)\n    */\n    function _acceptImplementation() public returns (uint) {\n        // Check caller is pendingImplementation and pendingImplementation ≠ address(0)\n        if (msg.sender != pendingComptrollerImplementation || pendingComptrollerImplementation == address(0)) {\n            return fail(Error.UNAUTHORIZED, FailureInfo.ACCEPT_PENDING_IMPLEMENTATION_ADDRESS_CHECK);\n        }\n\n        // Save current values for inclusion in log\n        address oldImplementation = comptrollerImplementation;\n        address oldPendingImplementation = pendingComptrollerImplementation;\n\n        comptrollerImplementation = pendingComptrollerImplementation;\n\n        pendingComptrollerImplementation = address(0);\n\n        emit NewImplementation(oldImplementation, comptrollerImplementation);\n        emit NewPendingImplementation(oldPendingImplementation, pendingComptrollerImplementation);\n\n        return uint(Error.NO_ERROR);\n    }\n\n\n    /**\n      * @notice Begins transfer of admin rights. The newPendingAdmin must call `_acceptAdmin` to finalize the transfer.\n      * @dev Admin function to begin change of admin. The newPendingAdmin must call `_acceptAdmin` to finalize the transfer.\n      * @param newPendingAdmin New pending admin.\n      * @return uint 0=success, otherwise a failure (see ErrorReporter.sol for details)\n      */\n    function _setPendingAdmin(address newPendingAdmin) public returns (uint) {\n        // Check caller = admin\n        if (msg.sender != admin) {\n            return fail(Error.UNAUTHORIZED, FailureInfo.SET_PENDING_ADMIN_OWNER_CHECK);\n        }\n\n        // Save current value, if any, for inclusion in log\n        address oldPendingAdmin = pendingAdmin;\n\n        // Store pendingAdmin with value newPendingAdmin\n        pendingAdmin = newPendingAdmin;\n\n        // Emit NewPendingAdmin(oldPendingAdmin, newPendingAdmin)\n        emit NewPendingAdmin(oldPendingAdmin, newPendingAdmin);\n\n        return uint(Error.NO_ERROR);\n    }\n\n    /**\n      * @notice Accepts transfer of admin rights. msg.sender must be pendingAdmin\n      * @dev Admin function for pending admin to accept role and update admin\n      * @return uint 0=success, otherwise a failure (see ErrorReporter.sol for details)\n      */\n    function _acceptAdmin() public returns (uint) {\n        // Check caller is pendingAdmin and pendingAdmin ≠ address(0)\n        if (msg.sender != pendingAdmin || msg.sender == address(0)) {\n            return fail(Error.UNAUTHORIZED, FailureInfo.ACCEPT_ADMIN_PENDING_ADMIN_CHECK);\n        }\n\n        // Save current values for inclusion in log\n        address oldAdmin = admin;\n        address oldPendingAdmin = pendingAdmin;\n\n        // Store admin with value pendingAdmin\n        admin = pendingAdmin;\n\n        // Clear the pending value\n        pendingAdmin = address(0);\n\n        emit NewAdmin(oldAdmin, admin);\n        emit NewPendingAdmin(oldPendingAdmin, pendingAdmin);\n\n        return uint(Error.NO_ERROR);\n    }\n\n    /**\n     * @dev Delegates execution to an implementation contract.\n     * It returns to the external caller whatever the implementation returns\n     * or forwards reverts.\n     */\n    function () payable external {\n        // delegate all other functions to current implementation\n        (bool success, ) = comptrollerImplementation.delegatecall(msg.data);\n\n        assembly {\n              let free_mem_ptr := mload(0x40)\n              returndatacopy(free_mem_ptr, 0, returndatasize)\n\n              switch success\n              case 0 { revert(free_mem_ptr, returndatasize) }\n              default { return(free_mem_ptr, returndatasize) }\n        }\n    }\n}\n",
  "sourcePath": "/Users/jesusmeza/Developer/omgx/snapshot-optimism/omgx_examples/compound-protocol/contracts/Unitroller.sol",
  "compiler": {
    "name": "solc",
    "version": "0.5.16"
  },
  "schemaVersion": "3.4.3",
  "updatedAt": "2021-08-25T22:25:24.728Z",
  "devdoc": {
    "details": "Storage for the comptroller is at this address, while execution is delegated to the `comptrollerImplementation`. CTokens should reference this contract as their comptroller.",
    "methods": {
      "_acceptAdmin()": {
        "details": "Admin function for pending admin to accept role and update admin",
        "return": "uint 0=success, otherwise a failure (see ErrorReporter.sol for details)"
      },
      "_acceptImplementation()": {
        "details": "Admin function for new implementation to accept it's role as implementation",
        "return": "uint 0=success, otherwise a failure (see ErrorReporter.sol for details)"
      },
      "_setPendingAdmin(address)": {
        "details": "Admin function to begin change of admin. The newPendingAdmin must call `_acceptAdmin` to finalize the transfer.",
        "params": {
          "newPendingAdmin": "New pending admin."
        },
        "return": "uint 0=success, otherwise a failure (see ErrorReporter.sol for details)"
      }
    },
    "title": "ComptrollerCore"
  },
  "userdoc": {
    "methods": {
      "_acceptAdmin()": {
        "notice": "Accepts transfer of admin rights. msg.sender must be pendingAdmin"
      },
      "_acceptImplementation()": {
        "notice": "Accepts new implementation of comptroller. msg.sender must be pendingImplementation"
      },
      "_setPendingAdmin(address)": {
        "notice": "Begins transfer of admin rights. The newPendingAdmin must call `_acceptAdmin` to finalize the transfer."
      },
      "_setPendingImplementation(address)": {
        "notice": "* Admin Functions **"
      }
    }
  }
}