{
  "contractName": "WhitePaperInterestRateModel",
  "abi": [
    {
      "inputs": [
        {
          "internalType": "uint256",
          "name": "baseRatePerYear",
          "type": "uint256"
        },
        {
          "internalType": "uint256",
          "name": "multiplierPerYear",
          "type": "uint256"
        }
      ],
      "payable": false,
      "stateMutability": "nonpayable",
      "type": "constructor"
    },
    {
      "anonymous": false,
      "inputs": [
        {
          "indexed": false,
          "internalType": "uint256",
          "name": "baseRatePerBlock",
          "type": "uint256"
        },
        {
          "indexed": false,
          "internalType": "uint256",
          "name": "multiplierPerBlock",
          "type": "uint256"
        }
      ],
      "name": "NewInterestParams",
      "type": "event"
    },
    {
      "constant": true,
      "inputs": [],
      "name": "baseRatePerBlock",
      "outputs": [
        {
          "internalType": "uint256",
          "name": "",
          "type": "uint256"
        }
      ],
      "payable": false,
      "stateMutability": "view",
      "type": "function"
    },
    {
      "constant": true,
      "inputs": [],
      "name": "blocksPerYear",
      "outputs": [
        {
          "internalType": "uint256",
          "name": "",
          "type": "uint256"
        }
      ],
      "payable": false,
      "stateMutability": "view",
      "type": "function"
    },
    {
      "constant": true,
      "inputs": [],
      "name": "isInterestRateModel",
      "outputs": [
        {
          "internalType": "bool",
          "name": "",
          "type": "bool"
        }
      ],
      "payable": false,
      "stateMutability": "view",
      "type": "function"
    },
    {
      "constant": true,
      "inputs": [],
      "name": "multiplierPerBlock",
      "outputs": [
        {
          "internalType": "uint256",
          "name": "",
          "type": "uint256"
        }
      ],
      "payable": false,
      "stateMutability": "view",
      "type": "function"
    },
    {
      "constant": true,
      "inputs": [
        {
          "internalType": "uint256",
          "name": "cash",
          "type": "uint256"
        },
        {
          "internalType": "uint256",
          "name": "borrows",
          "type": "uint256"
        },
        {
          "internalType": "uint256",
          "name": "reserves",
          "type": "uint256"
        }
      ],
      "name": "utilizationRate",
      "outputs": [
        {
          "internalType": "uint256",
          "name": "",
          "type": "uint256"
        }
      ],
      "payable": false,
      "stateMutability": "pure",
      "type": "function"
    },
    {
      "constant": true,
      "inputs": [
        {
          "internalType": "uint256",
          "name": "cash",
          "type": "uint256"
        },
        {
          "internalType": "uint256",
          "name": "borrows",
          "type": "uint256"
        },
        {
          "internalType": "uint256",
          "name": "reserves",
          "type": "uint256"
        }
      ],
      "name": "getBorrowRate",
      "outputs": [
        {
          "internalType": "uint256",
          "name": "",
          "type": "uint256"
        }
      ],
      "payable": false,
      "stateMutability": "view",
      "type": "function"
    },
    {
      "constant": true,
      "inputs": [
        {
          "internalType": "uint256",
          "name": "cash",
          "type": "uint256"
        },
        {
          "internalType": "uint256",
          "name": "borrows",
          "type": "uint256"
        },
        {
          "internalType": "uint256",
          "name": "reserves",
          "type": "uint256"
        },
        {
          "internalType": "uint256",
          "name": "reserveFactorMantissa",
          "type": "uint256"
        }
      ],
      "name": "getSupplyRate",
      "outputs": [
        {
          "internalType": "uint256",
          "name": "",
          "type": "uint256"
        }
      ],
      "payable": false,
      "stateMutability": "view",
      "type": "function"
    }
  ],
  "bytecode": "0x6080604052348015610019576000806100166101f5565b50505b5060405161095a38038061095a83398181016040526040811015610045576000806100426101f5565b50505b810190808051929190602001805192506100719150839050622014806100fa602090811b61032b17901c565b80600161007c610260565b50505061009962201480826100fa60201b61032b1790919060201c565b8060006100a4610260565b5050507ff35fa19c15e9ba782633a5df62a98b20217151addc68e3ff2cd623a48d37ec2760016100d26102c2565b60006100dc6102c2565b60405191825260208201526040908101905180910390a1505061030e565b6000610143838360405160408082019052601a81527f536166654d6174683a206469766973696f6e206279207a65726f00000000000060208201526001600160e01b0361014a16565b9392505050565b600081836101df5760405162461bcd60e51b81526004018080602001828103825283818151815260200191508051906020019080838360005b8381101561019b578082015183820152602001610183565b50505050905090810190601f1680156101c85780820380516001836020036101000a031916815260200191505b5092505050604051809103906101dc6101f5565b50505b5060008385816101eb57fe5b0495945050505050565b632a2a7adb598160e01b8152600481016020815285602082015260005b8681101561022d578086015182820160400152602001610212565b506020828760640184336000905af158600e01573d6000803e3d6000fd5b3d6001141558600a015760016000f35b505050565b6322bd64c0598160e01b8152836004820152846024820152600081604483336000905af158600e01573d6000803e3d6000fd5b3d6001141558600a015760016000f35b60005b60408110156102bd576000828201526020016102a6565b505050565b6303daa959598160e01b8152836004820152602081602483336000905af158600e01573d6000803e3d6000fd5b3d6001141558600a015760016000f35b805160008252935060206102a6565b61063d8061031d6000396000f3fe608060405234801561001957600080610016610550565b50505b50600436106100765760003560e01c806315f24053146100845780632191f92a146100c85780636e71e2d8146100e45780638726bb8914610116578063a385fb961461011e578063b816881614610126578063f14039de1461015e575b600080610081610550565b50505b6100b6600480360360608110156100a3576000806100a0610550565b50505b5080359060208101359060400135610166565b60405190815260200160405180910390f35b6100d06101cc565b604051901515815260200160405180910390f35b6100b66004803603606081101561010357600080610100610550565b50505b50803590602081013590604001356101d1565b6100b6610223565b6100b6610230565b6100b66004803603608081101561014557600080610142610550565b50505b5080359060208101359060408101359060600135610237565b6100b66102b6565b6000806101748585856101d1565b90506101c160016101836105bb565b6101b5670de0b6b3a76400006101a9600061019c6105bb565b869063ffffffff6102c016565b9063ffffffff61032b16565b9063ffffffff61036816565b9150505b9392505050565b600181565b6000826101e0575060006101c5565b61021b610203836101f7878763ffffffff61036816565b9063ffffffff6103c516565b6101a985670de0b6b3a764000063ffffffff6102c016565b949350505050565b600061022d6105bb565b81565b6220148081565b600080610252670de0b6b3a76400008463ffffffff6103c516565b90506000610261878787610166565b90506000610281670de0b6b3a76400006101a9848663ffffffff6102c016565b90506102aa670de0b6b3a76400006101a98361029e8c8c8c6101d1565b9063ffffffff6102c016565b98975050505050505050565b600161022d6105bb565b6000826102cf57506000610325565b828202828482816102dc57fe5b04146103225760405162461bcd60e51b815260040180806020018281038252602181526020018061061c602191396040019150506040518091039061031f610550565b50505b90505b92915050565b6000610322838360405160408082019052601a815279536166654d6174683a206469766973696f6e206279207a65726f60301b6020820152610405565b6000828201838110156103225760405162461bcd60e51b815260206004820152601b60248201527a536166654d6174683a206164646974696f6e206f766572666c6f7760281b60448201526064016040518091039061031f610550565b6000610322838360405160408082019052601f81527f536166654d6174683a207375627472616374696f6e20756e646572666c6f770060208201526104b0565b6000818361049a5760405162461bcd60e51b81526004018080602001828103825283818151815260200191508051906020019080838360005b8381101561045657808201518382015260200161043e565b50505050905090810190601f1680156104835780820380516001836020036101000a031916815260200191505b509250505060405180910390610497610550565b50505b5060008385816104a657fe5b0495945050505050565b600081848411156105485760405162461bcd60e51b81526004018080602001828103825283818151815260200191508051906020019080838360005b838110156105045780820151838201526020016104ec565b50505050905090810190601f1680156105315780820380516001836020036101000a031916815260200191505b509250505060405180910390610545610550565b50505b505050900390565b632a2a7adb598160e01b8152600481016020815285602082015260005b8681101561058857808601518282016040015260200161056d565b506020828760640184336000905af158600e01573d6000803e3d6000fd5b3d6001141558600a015760016000f35b505050565b6303daa959598160e01b8152836004820152602081602483336000905af158600e01573d6000803e3d6000fd5b3d6001141558600a015760016000f35b8051935060005b6040811015610616576000828201526020016105ff565b50505056fe536166654d6174683a206d756c7469706c69636174696f6e206f766572666c6f77",
  "deployedBytecode": "0x608060405234801561001957600080610016610550565b50505b50600436106100765760003560e01c806315f24053146100845780632191f92a146100c85780636e71e2d8146100e45780638726bb8914610116578063a385fb961461011e578063b816881614610126578063f14039de1461015e575b600080610081610550565b50505b6100b6600480360360608110156100a3576000806100a0610550565b50505b5080359060208101359060400135610166565b60405190815260200160405180910390f35b6100d06101cc565b604051901515815260200160405180910390f35b6100b66004803603606081101561010357600080610100610550565b50505b50803590602081013590604001356101d1565b6100b6610223565b6100b6610230565b6100b66004803603608081101561014557600080610142610550565b50505b5080359060208101359060408101359060600135610237565b6100b66102b6565b6000806101748585856101d1565b90506101c160016101836105bb565b6101b5670de0b6b3a76400006101a9600061019c6105bb565b869063ffffffff6102c016565b9063ffffffff61032b16565b9063ffffffff61036816565b9150505b9392505050565b600181565b6000826101e0575060006101c5565b61021b610203836101f7878763ffffffff61036816565b9063ffffffff6103c516565b6101a985670de0b6b3a764000063ffffffff6102c016565b949350505050565b600061022d6105bb565b81565b6220148081565b600080610252670de0b6b3a76400008463ffffffff6103c516565b90506000610261878787610166565b90506000610281670de0b6b3a76400006101a9848663ffffffff6102c016565b90506102aa670de0b6b3a76400006101a98361029e8c8c8c6101d1565b9063ffffffff6102c016565b98975050505050505050565b600161022d6105bb565b6000826102cf57506000610325565b828202828482816102dc57fe5b04146103225760405162461bcd60e51b815260040180806020018281038252602181526020018061061c602191396040019150506040518091039061031f610550565b50505b90505b92915050565b6000610322838360405160408082019052601a815279536166654d6174683a206469766973696f6e206279207a65726f60301b6020820152610405565b6000828201838110156103225760405162461bcd60e51b815260206004820152601b60248201527a536166654d6174683a206164646974696f6e206f766572666c6f7760281b60448201526064016040518091039061031f610550565b6000610322838360405160408082019052601f81527f536166654d6174683a207375627472616374696f6e20756e646572666c6f770060208201526104b0565b6000818361049a5760405162461bcd60e51b81526004018080602001828103825283818151815260200191508051906020019080838360005b8381101561045657808201518382015260200161043e565b50505050905090810190601f1680156104835780820380516001836020036101000a031916815260200191505b509250505060405180910390610497610550565b50505b5060008385816104a657fe5b0495945050505050565b600081848411156105485760405162461bcd60e51b81526004018080602001828103825283818151815260200191508051906020019080838360005b838110156105045780820151838201526020016104ec565b50505050905090810190601f1680156105315780820380516001836020036101000a031916815260200191505b509250505060405180910390610545610550565b50505b505050900390565b632a2a7adb598160e01b8152600481016020815285602082015260005b8681101561058857808601518282016040015260200161056d565b506020828760640184336000905af158601d01573d60011458600c01573d6000803e3d621234565260ea61109c52505050565b6303daa959598160e01b8152836004820152602081602483336000905af158601d01573d60011458600c01573d6000803e3d621234565260ea61109c528051935060005b6040811015610616576000828201526020016105ff565b50505056fe536166654d6174683a206d756c7469706c69636174696f6e206f766572666c6f77",
  "source": "pragma solidity ^0.5.16;\n\nimport \"./InterestRateModel.sol\";\nimport \"./SafeMath.sol\";\n\n/**\n  * @title Compound's WhitePaperInterestRateModel Contract\n  * @author Compound\n  * @notice The parameterized model described in section 2.4 of the original Compound Protocol whitepaper\n  */\ncontract WhitePaperInterestRateModel is InterestRateModel {\n    using SafeMath for uint;\n\n    event NewInterestParams(uint baseRatePerBlock, uint multiplierPerBlock);\n\n    /**\n     * @notice The approximate number of blocks per year that is assumed by the interest rate model\n     */\n    uint public constant blocksPerYear = 2102400;\n\n    /**\n     * @notice The multiplier of utilization rate that gives the slope of the interest rate\n     */\n    uint public multiplierPerBlock;\n\n    /**\n     * @notice The base interest rate which is the y-intercept when utilization rate is 0\n     */\n    uint public baseRatePerBlock;\n\n    /**\n     * @notice Construct an interest rate model\n     * @param baseRatePerYear The approximate target base APR, as a mantissa (scaled by 1e18)\n     * @param multiplierPerYear The rate of increase in interest rate wrt utilization (scaled by 1e18)\n     */\n    constructor(uint baseRatePerYear, uint multiplierPerYear) public {\n        baseRatePerBlock = baseRatePerYear.div(blocksPerYear);\n        multiplierPerBlock = multiplierPerYear.div(blocksPerYear);\n\n        emit NewInterestParams(baseRatePerBlock, multiplierPerBlock);\n    }\n\n    /**\n     * @notice Calculates the utilization rate of the market: `borrows / (cash + borrows - reserves)`\n     * @param cash The amount of cash in the market\n     * @param borrows The amount of borrows in the market\n     * @param reserves The amount of reserves in the market (currently unused)\n     * @return The utilization rate as a mantissa between [0, 1e18]\n     */\n    function utilizationRate(uint cash, uint borrows, uint reserves) public pure returns (uint) {\n        // Utilization rate is 0 when there are no borrows\n        if (borrows == 0) {\n            return 0;\n        }\n\n        return borrows.mul(1e18).div(cash.add(borrows).sub(reserves));\n    }\n\n    /**\n     * @notice Calculates the current borrow rate per block, with the error code expected by the market\n     * @param cash The amount of cash in the market\n     * @param borrows The amount of borrows in the market\n     * @param reserves The amount of reserves in the market\n     * @return The borrow rate percentage per block as a mantissa (scaled by 1e18)\n     */\n    function getBorrowRate(uint cash, uint borrows, uint reserves) public view returns (uint) {\n        uint ur = utilizationRate(cash, borrows, reserves);\n        return ur.mul(multiplierPerBlock).div(1e18).add(baseRatePerBlock);\n    }\n\n    /**\n     * @notice Calculates the current supply rate per block\n     * @param cash The amount of cash in the market\n     * @param borrows The amount of borrows in the market\n     * @param reserves The amount of reserves in the market\n     * @param reserveFactorMantissa The current reserve factor for the market\n     * @return The supply rate percentage per block as a mantissa (scaled by 1e18)\n     */\n    function getSupplyRate(uint cash, uint borrows, uint reserves, uint reserveFactorMantissa) public view returns (uint) {\n        uint oneMinusReserveFactor = uint(1e18).sub(reserveFactorMantissa);\n        uint borrowRate = getBorrowRate(cash, borrows, reserves);\n        uint rateToPool = borrowRate.mul(oneMinusReserveFactor).div(1e18);\n        return utilizationRate(cash, borrows, reserves).mul(rateToPool).div(1e18);\n    }\n}\n",
  "sourcePath": "/Users/jesusmeza/Developer/omgx/snapshot-optimism/omgx_examples/compound-protocol/contracts/WhitePaperInterestRateModel.sol",
  "compiler": {
    "name": "solc",
    "version": "0.5.16"
  },
  "schemaVersion": "3.4.3",
  "updatedAt": "2021-08-25T22:25:24.730Z",
  "devdoc": {
    "author": "Compound",
    "methods": {
      "constructor": {
        "params": {
          "baseRatePerYear": "The approximate target base APR, as a mantissa (scaled by 1e18)",
          "multiplierPerYear": "The rate of increase in interest rate wrt utilization (scaled by 1e18)"
        }
      },
      "getBorrowRate(uint256,uint256,uint256)": {
        "params": {
          "borrows": "The amount of borrows in the market",
          "cash": "The amount of cash in the market",
          "reserves": "The amount of reserves in the market"
        },
        "return": "The borrow rate percentage per block as a mantissa (scaled by 1e18)"
      },
      "getSupplyRate(uint256,uint256,uint256,uint256)": {
        "params": {
          "borrows": "The amount of borrows in the market",
          "cash": "The amount of cash in the market",
          "reserveFactorMantissa": "The current reserve factor for the market",
          "reserves": "The amount of reserves in the market"
        },
        "return": "The supply rate percentage per block as a mantissa (scaled by 1e18)"
      },
      "utilizationRate(uint256,uint256,uint256)": {
        "params": {
          "borrows": "The amount of borrows in the market",
          "cash": "The amount of cash in the market",
          "reserves": "The amount of reserves in the market (currently unused)"
        },
        "return": "The utilization rate as a mantissa between [0, 1e18]"
      }
    },
    "title": "Compound's WhitePaperInterestRateModel Contract"
  },
  "userdoc": {
    "methods": {
      "constructor": "Construct an interest rate model",
      "getBorrowRate(uint256,uint256,uint256)": {
        "notice": "Calculates the current borrow rate per block, with the error code expected by the market"
      },
      "getSupplyRate(uint256,uint256,uint256,uint256)": {
        "notice": "Calculates the current supply rate per block"
      },
      "utilizationRate(uint256,uint256,uint256)": {
        "notice": "Calculates the utilization rate of the market: `borrows / (cash + borrows - reserves)`"
      }
    },
    "notice": "The parameterized model described in section 2.4 of the original Compound Protocol whitepaper"
  }
}