{
  "address": "0xA9f2d64347724d2da5616F329d3E58B0522Dd031",
  "abi": [
    {
      "inputs": [
        {
          "internalType": "address",
          "name": "admin_",
          "type": "address"
        },
        {
          "components": [
            {
              "internalType": "bytes32",
              "name": "topping",
              "type": "bytes32"
            },
            {
              "internalType": "uint256[3]",
              "name": "color",
              "type": "uint256[3]"
            },
            {
              "internalType": "uint256",
              "name": "commonScore",
              "type": "uint256"
            }
          ],
          "internalType": "struct BobaChef.topping",
          "name": "_first_topping",
          "type": "tuple"
        },
        {
          "components": [
            {
              "internalType": "bytes32",
              "name": "flavor",
              "type": "bytes32"
            },
            {
              "internalType": "uint256[3]",
              "name": "color",
              "type": "uint256[3]"
            },
            {
              "internalType": "uint256",
              "name": "commonScore",
              "type": "uint256"
            },
            {
              "internalType": "uint256[3]",
              "name": "gradient",
              "type": "uint256[3]"
            }
          ],
          "internalType": "struct BobaChef.flavor",
          "name": "_first_flavor",
          "type": "tuple"
        }
      ],
      "stateMutability": "nonpayable",
      "type": "constructor"
    },
    {
      "anonymous": false,
      "inputs": [
        {
          "indexed": true,
          "internalType": "address",
          "name": "newAdmin",
          "type": "address"
        }
      ],
      "name": "NewAdmin",
      "type": "event"
    },
    {
      "anonymous": false,
      "inputs": [
        {
          "indexed": true,
          "internalType": "address",
          "name": "newPendingAdmin",
          "type": "address"
        }
      ],
      "name": "NewPendingAdmin",
      "type": "event"
    },
    {
      "anonymous": false,
      "inputs": [
        {
          "components": [
            {
              "internalType": "bytes32",
              "name": "flavor",
              "type": "bytes32"
            },
            {
              "internalType": "uint256[3]",
              "name": "color",
              "type": "uint256[3]"
            },
            {
              "internalType": "uint256",
              "name": "commonScore",
              "type": "uint256"
            },
            {
              "internalType": "uint256[3]",
              "name": "gradient",
              "type": "uint256[3]"
            }
          ],
          "indexed": true,
          "internalType": "struct BobaChef.flavor",
          "name": "old_flavor",
          "type": "tuple"
        },
        {
          "components": [
            {
              "internalType": "bytes32",
              "name": "flavor",
              "type": "bytes32"
            },
            {
              "internalType": "uint256[3]",
              "name": "color",
              "type": "uint256[3]"
            },
            {
              "internalType": "uint256",
              "name": "commonScore",
              "type": "uint256"
            },
            {
              "internalType": "uint256[3]",
              "name": "gradient",
              "type": "uint256[3]"
            }
          ],
          "indexed": true,
          "internalType": "struct BobaChef.flavor",
          "name": "new_flavor",
          "type": "tuple"
        }
      ],
      "name": "flavorReplaced",
      "type": "event"
    },
    {
      "anonymous": false,
      "inputs": [
        {
          "indexed": true,
          "internalType": "bool",
          "name": "newLocked",
          "type": "bool"
        }
      ],
      "name": "lockChanged",
      "type": "event"
    },
    {
      "anonymous": false,
      "inputs": [
        {
          "components": [
            {
              "internalType": "bytes32",
              "name": "flavor",
              "type": "bytes32"
            },
            {
              "internalType": "uint256[3]",
              "name": "color",
              "type": "uint256[3]"
            },
            {
              "internalType": "uint256",
              "name": "commonScore",
              "type": "uint256"
            },
            {
              "internalType": "uint256[3]",
              "name": "gradient",
              "type": "uint256[3]"
            }
          ],
          "indexed": true,
          "internalType": "struct BobaChef.flavor",
          "name": "new_flavor",
          "type": "tuple"
        }
      ],
      "name": "newFlavorAdded",
      "type": "event"
    },
    {
      "anonymous": false,
      "inputs": [
        {
          "components": [
            {
              "internalType": "bytes32",
              "name": "topping",
              "type": "bytes32"
            },
            {
              "internalType": "uint256[3]",
              "name": "color",
              "type": "uint256[3]"
            },
            {
              "internalType": "uint256",
              "name": "commonScore",
              "type": "uint256"
            }
          ],
          "indexed": true,
          "internalType": "struct BobaChef.topping",
          "name": "new_topping",
          "type": "tuple"
        }
      ],
      "name": "newToppingAdded",
      "type": "event"
    },
    {
      "anonymous": false,
      "inputs": [
        {
          "components": [
            {
              "internalType": "bytes32",
              "name": "topping",
              "type": "bytes32"
            },
            {
              "internalType": "uint256[3]",
              "name": "color",
              "type": "uint256[3]"
            },
            {
              "internalType": "uint256",
              "name": "commonScore",
              "type": "uint256"
            }
          ],
          "indexed": true,
          "internalType": "struct BobaChef.topping",
          "name": "old_topping",
          "type": "tuple"
        },
        {
          "components": [
            {
              "internalType": "bytes32",
              "name": "topping",
              "type": "bytes32"
            },
            {
              "internalType": "uint256[3]",
              "name": "color",
              "type": "uint256[3]"
            },
            {
              "internalType": "uint256",
              "name": "commonScore",
              "type": "uint256"
            }
          ],
          "indexed": true,
          "internalType": "struct BobaChef.topping",
          "name": "new_topping",
          "type": "tuple"
        }
      ],
      "name": "toppingReplaced",
      "type": "event"
    },
    {
      "inputs": [],
      "name": "acceptAdmin",
      "outputs": [],
      "stateMutability": "nonpayable",
      "type": "function"
    },
    {
      "inputs": [
        {
          "components": [
            {
              "internalType": "bytes32",
              "name": "flavor",
              "type": "bytes32"
            },
            {
              "internalType": "uint256[3]",
              "name": "color",
              "type": "uint256[3]"
            },
            {
              "internalType": "uint256",
              "name": "commonScore",
              "type": "uint256"
            },
            {
              "internalType": "uint256[3]",
              "name": "gradient",
              "type": "uint256[3]"
            }
          ],
          "internalType": "struct BobaChef.flavor",
          "name": "new_flavor",
          "type": "tuple"
        }
      ],
      "name": "addFlavor",
      "outputs": [],
      "stateMutability": "nonpayable",
      "type": "function"
    },
    {
      "inputs": [
        {
          "components": [
            {
              "internalType": "bytes32",
              "name": "topping",
              "type": "bytes32"
            },
            {
              "internalType": "uint256[3]",
              "name": "color",
              "type": "uint256[3]"
            },
            {
              "internalType": "uint256",
              "name": "commonScore",
              "type": "uint256"
            }
          ],
          "internalType": "struct BobaChef.topping",
          "name": "new_topping",
          "type": "tuple"
        }
      ],
      "name": "addTopping",
      "outputs": [],
      "stateMutability": "nonpayable",
      "type": "function"
    },
    {
      "inputs": [],
      "name": "admin",
      "outputs": [
        {
          "internalType": "address",
          "name": "",
          "type": "address"
        }
      ],
      "stateMutability": "view",
      "type": "function"
    },
    {
      "inputs": [
        {
          "internalType": "bool",
          "name": "newLocked",
          "type": "bool"
        }
      ],
      "name": "changeLock",
      "outputs": [],
      "stateMutability": "nonpayable",
      "type": "function"
    },
    {
      "inputs": [],
      "name": "first_flavor",
      "outputs": [
        {
          "internalType": "bytes32",
          "name": "flavor",
          "type": "bytes32"
        },
        {
          "internalType": "uint256",
          "name": "commonScore",
          "type": "uint256"
        }
      ],
      "stateMutability": "view",
      "type": "function"
    },
    {
      "inputs": [],
      "name": "first_topping",
      "outputs": [
        {
          "internalType": "bytes32",
          "name": "topping",
          "type": "bytes32"
        },
        {
          "internalType": "uint256",
          "name": "commonScore",
          "type": "uint256"
        }
      ],
      "stateMutability": "view",
      "type": "function"
    },
    {
      "inputs": [
        {
          "internalType": "uint256",
          "name": "",
          "type": "uint256"
        }
      ],
      "name": "flavors",
      "outputs": [
        {
          "internalType": "bytes32",
          "name": "flavor",
          "type": "bytes32"
        },
        {
          "internalType": "uint256",
          "name": "commonScore",
          "type": "uint256"
        }
      ],
      "stateMutability": "view",
      "type": "function"
    },
    {
      "inputs": [],
      "name": "locked",
      "outputs": [
        {
          "internalType": "bool",
          "name": "",
          "type": "bool"
        }
      ],
      "stateMutability": "view",
      "type": "function"
    },
    {
      "inputs": [],
      "name": "pendingAdmin",
      "outputs": [
        {
          "internalType": "address",
          "name": "",
          "type": "address"
        }
      ],
      "stateMutability": "view",
      "type": "function"
    },
    {
      "inputs": [
        {
          "internalType": "bytes32",
          "name": "",
          "type": "bytes32"
        }
      ],
      "name": "queuedTransactions",
      "outputs": [
        {
          "internalType": "bool",
          "name": "",
          "type": "bool"
        }
      ],
      "stateMutability": "view",
      "type": "function"
    },
    {
      "inputs": [
        {
          "internalType": "uint256",
          "name": "indexOfOld",
          "type": "uint256"
        },
        {
          "components": [
            {
              "internalType": "bytes32",
              "name": "flavor",
              "type": "bytes32"
            },
            {
              "internalType": "uint256[3]",
              "name": "color",
              "type": "uint256[3]"
            },
            {
              "internalType": "uint256",
              "name": "commonScore",
              "type": "uint256"
            },
            {
              "internalType": "uint256[3]",
              "name": "gradient",
              "type": "uint256[3]"
            }
          ],
          "internalType": "struct BobaChef.flavor",
          "name": "new_flavor",
          "type": "tuple"
        }
      ],
      "name": "replaceFlavor",
      "outputs": [],
      "stateMutability": "nonpayable",
      "type": "function"
    },
    {
      "inputs": [
        {
          "internalType": "uint256",
          "name": "indexOfOld",
          "type": "uint256"
        },
        {
          "components": [
            {
              "internalType": "bytes32",
              "name": "topping",
              "type": "bytes32"
            },
            {
              "internalType": "uint256[3]",
              "name": "color",
              "type": "uint256[3]"
            },
            {
              "internalType": "uint256",
              "name": "commonScore",
              "type": "uint256"
            }
          ],
          "internalType": "struct BobaChef.topping",
          "name": "new_topping",
          "type": "tuple"
        }
      ],
      "name": "replaceTopping",
      "outputs": [],
      "stateMutability": "nonpayable",
      "type": "function"
    },
    {
      "inputs": [
        {
          "internalType": "address",
          "name": "pendingAdmin_",
          "type": "address"
        }
      ],
      "name": "setPendingAdmin",
      "outputs": [],
      "stateMutability": "nonpayable",
      "type": "function"
    },
    {
      "inputs": [
        {
          "internalType": "uint256",
          "name": "",
          "type": "uint256"
        }
      ],
      "name": "toppings",
      "outputs": [
        {
          "internalType": "bytes32",
          "name": "topping",
          "type": "bytes32"
        },
        {
          "internalType": "uint256",
          "name": "commonScore",
          "type": "uint256"
        }
      ],
      "stateMutability": "view",
      "type": "function"
    }
  ],
  "transactionHash": "0x69fdb09ae6c0b90b7b61f0440824b85ce4dbab598724276a141f02d79a7c5f36",
  "args": [
    "0x21A235cf690798ee052f54888297Ad8F46D3F389",
    [
      "0x416c6f6520566572610000000000000000000000000000000000000000000000",
      [
        230,
        242,
        234
      ],
      30
    ],
    [
      "0x5461726f204d696c6b0000000000000000000000000000000000000000000000",
      [
        221,
        137,
        245
      ],
      30,
      [
        1,
        2,
        3
      ]
    ]
  ],
  "solcInputHash": "6b220fcd6390106f70ad6bb5275df39a",
  "bytecode": "0x60806040526000608f62000012620002ee565b50506000609062000022620002ee565b50506000609160006101000a816200003962000355565b8160ff0219169083151502179062000050620002ee565b5050503480156200006b5760008062000068620003ba565b50505b5060405162002c5638038062002c568339818101604052810190620000919190620006ea565b60826000608f620000a162000355565b600a8110620000ac57fe5b6005020160008201620000be62000355565b81600001620000cc620002ee565b50506001820181600101906003620000e69291906200042a565b5060048201620000f562000355565b8160040162000103620002ee565b50509050506087603260906200011862000355565b600a81106200012357fe5b60080201600082016200013562000355565b8160000162000143620002ee565b505060018201816001019060036200015d9291906200042a565b50600482016200016c62000355565b816004016200017a620002ee565b50506005820181600501906003620001949291906200042a565b50905050806087600082015181600001620001ae620002ee565b5050602082015181600101906003620001c992919062000480565b50604082015181600401620001dd620002ee565b5050606082015181600501906003620001f892919062000480565b5090505081608260008201518160000162000212620002ee565b50506020820151816001019060036200022d92919062000480565b5060408201518160040162000241620002ee565b50509050506001608f600082826200025862000355565b01925050819062000268620002ee565b50505060016090600082826200027d62000355565b0192505081906200028d620002ee565b50505082609160016101000a81620002a462000355565b8173ffffffffffffffffffffffffffffffffffffffff021916908373ffffffffffffffffffffffffffffffffffffffff16021790620002e2620002ee565b50505050505062000862565b6322bd64c0598160e01b8152836004820152846024820152600081604483336000905af158600e01573d6000803e3d6000fd5b3d6001141558600a015760016000f35b60005b6040811015620003505760008183015260208101905062000334565b505050565b6303daa959598160e01b8152836004820152602081602483336000905af158600e01573d6000803e3d6000fd5b3d6001141558600a015760016000f35b8051935060005b6040811015620003b55760008183015260208101905062000399565b505050565b632a2a7adb598160e01b8152600481016020815285602082015260005b86811015620003f7578086015181604084010152602081019050620003d7565b506020828760640184336000905af158600e01573d6000803e3d6000fd5b3d6001141558600a015760016000f35b505050565b82600381019282156200046d579182015b828111156200046c57826200044f62000355565b826200045a620002ee565b5050916001019190600101906200043b565b5b5090506200047c9190620004d0565b5090565b8260038101928215620004bd579160200282015b82811115620004bc57825182620004aa620002ee565b50509160200191906001019062000494565b5b509050620004cc9190620004d0565b5090565b5b80821115620004f657600081600090620004ea620002ee565b505050600101620004d1565b5090565b6000620005116200050b8462000780565b6200074c565b90508082856020860282011115620005335760008062000530620003ba565b50505b60005b858110156200056757816200054c8882620006d3565b84526020840193506020830192505060018101905062000536565b5050509392505050565b6000815190506200058281620007f3565b92915050565b600082601f830112620005a557600080620005a2620003ba565b50505b6003620005b4848285620004fa565b91505092915050565b600081519050620005ce8162000818565b92915050565b60006101008284031215620005f357600080620005f0620003ba565b50505b620005ff60806200074c565b905060006200061184828501620005bd565b6000830152506020620006278482850162000588565b60208301525060806200063d84828501620006d3565b60408301525060a0620006538482850162000588565b60608301525092915050565b600060a082840312156200067d576000806200067a620003ba565b50505b6200068960606200074c565b905060006200069b84828501620005bd565b6000830152506020620006b18482850162000588565b6020830152506080620006c784828501620006d3565b60408301525092915050565b600081519050620006e4816200083d565b92915050565b60008060006101c084860312156200070c5760008062000709620003ba565b50505b60006200071c8682870162000571565b93505060206200072f868287016200065f565b92505060c06200074286828701620005d4565b9150509250925092565b6000604051905081810181811067ffffffffffffffff82111715620007765762000775620007f1565b5b8060405250919050565b600067ffffffffffffffff8211156200079e576200079d620007f1565b5b602082029050919050565b6000620007b682620007c7565b9050919050565b6000819050919050565b600073ffffffffffffffffffffffffffffffffffffffff82169050919050565b6000819050919050565bfe5b620007fe81620007a9565b8114620008155760008062000812620003ba565b50505b50565b6200082381620007bd565b81146200083a5760008062000837620003ba565b50505b50565b6200084881620007e7565b81146200085f576000806200085c620003ba565b50505b50565b6123e480620008726000396000f3fe6080604052348015610019576000806100166112f1565b50505b50600436106100fe5760003560e01c80636fc0e5d2116100a0578063df94d1951161006f578063df94d1951461024a578063f1aa75e01461027b578063f2b065371461029a578063f851a440146102ca576100fe565b80636fc0e5d2146101d8578063ac8a7b43146101f4578063cf30901214610210578063d51abb451461022e576100fe565b806326782247116100dc57806326782247146101665780633e9d0f6f1461018457806345f2193f146101a05780634dd18bf5146101bc576100fe565b80630770732f1461010c5780630e18b6811461012b5780630f3b22c014610135575b6000806101096112f1565b50505b6101146102e8565b604051610122929190612072565b60405180910390f35b610133610308565b005b61014f600480360381019061014a91906117c5565b6104c9565b60405161015d929190612072565b60405180910390f35b61016e61050a565b60405161017b919061203c565b60405180910390f35b61019e60048036038101906101999190611760565b610537565b005b6101ba60048036038101906101b59190611793565b610774565b005b6101d660048036038101906101d191906116ca565b610999565b005b6101f260048036038101906101ed91906117f7565b610b01565b005b61020e600480360381019061020991906116fc565b610e04565b005b610218610f84565b6040516102259190612057565b60405180910390f35b6102486004803603810190610243919061183d565b610f9e565b005b610264600480360381019061025f91906117c5565b61123c565b604051610272929190612072565b60405180910390f35b61028361127d565b604051610291929190612072565b60405180910390f35b6102b460048036038101906102af919061172e565b61129d565b6040516102c19190612057565b60405180910390f35b6102d26112c4565b6040516102df919061203c565b60405180910390f35b6082806000016102f661135f565b908060040161030361135f565b905082565b609260009061031561135f565b906101000a900473ffffffffffffffffffffffffffffffffffffffff1673ffffffffffffffffffffffffffffffffffffffff165a6103516113c2565b73ffffffffffffffffffffffffffffffffffffffff16146103b0576040517f08c379a000000000000000000000000000000000000000000000000000000000815260040161039e906121db565b604051809103906103ad6112f1565b50505b5a6103b96113c2565b609160016101000a816103ca61135f565b8173ffffffffffffffffffffffffffffffffffffffff021916908373ffffffffffffffffffffffffffffffffffffffff1602179061040661141f565b5050506000609260006101000a8161041c61135f565b8173ffffffffffffffffffffffffffffffffffffffff021916908373ffffffffffffffffffffffffffffffffffffffff1602179061045861141f565b505050609160019061046861135f565b906101000a900473ffffffffffffffffffffffffffffffffffffffff1673ffffffffffffffffffffffffffffffffffffffff167f71614071b88dee5e0b2ae578a9dd7b2ebbe9ae832ba419dc0242cd065a290b6c60405160405180910390a2565b600081600a81106104e2576000806104df6112f1565b50505b60050201600091509050806000016104f861135f565b908060040161050561135f565b905082565b609260009061051761135f565b906101000a900473ffffffffffffffffffffffffffffffffffffffff1681565b609160019061054461135f565b906101000a900473ffffffffffffffffffffffffffffffffffffffff1673ffffffffffffffffffffffffffffffffffffffff165a6105806113c2565b73ffffffffffffffffffffffffffffffffffffffff16146105df576040517f08c379a00000000000000000000000000000000000000000000000000000000081526004016105cd906120db565b604051809103906105dc6112f1565b50505b600a60906105eb61135f565b10610634576040517f08c379a00000000000000000000000000000000000000000000000000000000081526004016106229061211b565b604051809103906106316112f1565b50505b60001515609160009061064561135f565b906101000a900460ff1615151461069a576040517f08c379a00000000000000000000000000000000000000000000000000000000081526004016106889061215b565b604051809103906106976112f1565b50505b80603260906106a761135f565b600a81106106b157fe5b600802016000820151816000016106c661141f565b50506020820151816001019060036106df929190611484565b506040820151816004016106f161141f565b505060608201518160050190600361070a929190611484565b50905050600160906000828261071e61135f565b01925050819061072c61141f565b5050508060405161073d9190612005565b60405180910390207f6912a8eb2c743d7d7dc42b761ce1db05a403d2b89b0bcd1c6ff8ae2723eaef8060405160405180910390a250565b609160019061078161135f565b906101000a900473ffffffffffffffffffffffffffffffffffffffff1673ffffffffffffffffffffffffffffffffffffffff165a6107bd6113c2565b73ffffffffffffffffffffffffffffffffffffffff161461081c576040517f08c379a000000000000000000000000000000000000000000000000000000000815260040161080a906120db565b604051809103906108196112f1565b50505b600a608f61082861135f565b10610871576040517f08c379a000000000000000000000000000000000000000000000000000000000815260040161085f906121bb565b6040518091039061086e6112f1565b50505b60001515609160009061088261135f565b906101000a900460ff161515146108d7576040517f08c379a00000000000000000000000000000000000000000000000000000000081526004016108c5906120bb565b604051809103906108d46112f1565b50505b806000608f6108e461135f565b600a81106108ee57fe5b6005020160008201518160000161090361141f565b505060208201518160010190600361091c929190611484565b5060408201518160040161092e61141f565b50509050506001608f6000828261094361135f565b01925050819061095161141f565b505050806040516109629190612021565b60405180910390207f2b76a48150cb1ceca81fa4bb7f7320f74e5bca78e50963d069cf7b1452a71e6b60405160405180910390a250565b60916001906109a661135f565b906101000a900473ffffffffffffffffffffffffffffffffffffffff1673ffffffffffffffffffffffffffffffffffffffff165a6109e26113c2565b73ffffffffffffffffffffffffffffffffffffffff1614610a41576040517f08c379a0000000000000000000000000000000000000000000000000000000008152600401610a2f906121fb565b60405180910390610a3e6112f1565b50505b80609260006101000a81610a5361135f565b8173ffffffffffffffffffffffffffffffffffffffff021916908373ffffffffffffffffffffffffffffffffffffffff16021790610a8f61141f565b5050506092600090610a9f61135f565b906101000a900473ffffffffffffffffffffffffffffffffffffffff1673ffffffffffffffffffffffffffffffffffffffff167f69d78e38a01985fbb1462961809b4b2d65531bc93b2b94037f3334b82ca4a75660405160405180910390a250565b6091600190610b0e61135f565b906101000a900473ffffffffffffffffffffffffffffffffffffffff1673ffffffffffffffffffffffffffffffffffffffff165a610b4a6113c2565b73ffffffffffffffffffffffffffffffffffffffff1614610ba9576040517f08c379a0000000000000000000000000000000000000000000000000000000008152600401610b97906120fb565b60405180910390610ba66112f1565b50505b600015156091600090610bba61135f565b906101000a900460ff16151514610c0f576040517f08c379a0000000000000000000000000000000000000000000000000000000008152600401610bfd9061221b565b60405180910390610c0c6112f1565b50505b6000603283600a8110610c1e57fe5b6008020160405180608001604052908160008201610c3a61135f565b815260200160018201600380602002604051908101604052809291908260038015610c81576020028201915b81610c6f61135f565b81526020019060010190808311610c66575b5050505050815260200160048201610c9761135f565b815260200160058201600380602002604051908101604052809291908260038015610cde576020028201915b81610ccc61135f565b81526020019060010190808311610cc3575b50505050508152505090506000801b81600001511415610d3c576040517f08c379a0000000000000000000000000000000000000000000000000000000008152600401610d2a9061209b565b60405180910390610d396112f1565b50505b81603284600a8110610d4a57fe5b60080201600082015181600001610d5f61141f565b5050602082015181600101906003610d78929190611484565b50604082015181600401610d8a61141f565b5050606082015181600501906003610da3929190611484565b5090505081604051610db59190612005565b604051809103902081604051610dcb9190612005565b60405180910390207f13bd72287dd14c874606c3e145db4070f49af9f9983843137bc2bc9353224e7c60405160405180910390a3505050565b6091600190610e1161135f565b906101000a900473ffffffffffffffffffffffffffffffffffffffff1673ffffffffffffffffffffffffffffffffffffffff165a610e4d6113c2565b73ffffffffffffffffffffffffffffffffffffffff1614610eac576040517f08c379a0000000000000000000000000000000000000000000000000000000008152600401610e9a9061217b565b60405180910390610ea96112f1565b50505b8015156091600090610ebc61135f565b906101000a900460ff1615151415610f12576040517f08c379a0000000000000000000000000000000000000000000000000000000008152600401610f009061213b565b60405180910390610f0f6112f1565b50505b80609160006101000a81610f2461135f565b8160ff02191690831515021790610f3961141f565b5050506091600090610f4961135f565b906101000a900460ff1615157f6ea94867c3d379529b924ffb735a556fa4996abe155d944355e0a6c71ee7de4160405160405180910390a250565b6091600090610f9161135f565b906101000a900460ff1681565b6091600190610fab61135f565b906101000a900473ffffffffffffffffffffffffffffffffffffffff1673ffffffffffffffffffffffffffffffffffffffff165a610fe76113c2565b73ffffffffffffffffffffffffffffffffffffffff1614611046576040517f08c379a00000000000000000000000000000000000000000000000000000000081526004016110349061219b565b604051809103906110436112f1565b50505b60001515609160009061105761135f565b906101000a900460ff161515146110ac576040517f08c379a000000000000000000000000000000000000000000000000000000000815260040161109a9061225b565b604051809103906110a96112f1565b50505b60008083600a81106110ba57fe5b60050201604051806060016040529081600082016110d661135f565b81526020016001820160038060200260405190810160405280929190826003801561111d576020028201915b8161110b61135f565b81526020019060010190808311611102575b505050505081526020016004820161113361135f565b8152505090506000801b8160000151141561118c576040517f08c379a000000000000000000000000000000000000000000000000000000000815260040161117a9061223b565b604051809103906111896112f1565b50505b81600084600a811061119a57fe5b600502016000820151816000016111af61141f565b50506020820151816001019060036111c8929190611484565b506040820151816004016111da61141f565b5050905050816040516111ed9190612021565b6040518091039020816040516112039190612021565b60405180910390207fcba0d08faeba2ff8e28dddbf643ea39e946d27996eca8de8a7b192fd1f73629360405160405180910390a3505050565b603281600a8110611255576000806112526112f1565b50505b600802016000915090508060000161126b61135f565b908060040161127861135f565b905082565b60878060000161128b61135f565b908060040161129861135f565b905082565b6093602052806000526040600020600091506112b761135f565b906101000a900460ff1681565b60916001906112d161135f565b906101000a900473ffffffffffffffffffffffffffffffffffffffff1681565b632a2a7adb598160e01b8152600481016020815285602082015260005b8681101561132c57808601518160408401015260208101905061130e565b506020828760640184336000905af158600e01573d6000803e3d6000fd5b3d6001141558600a015760016000f35b505050565b6303daa959598160e01b8152836004820152602081602483336000905af158600e01573d6000803e3d6000fd5b3d6001141558600a015760016000f35b8051935060005b60408110156113bd576000818301526020810190506113a3565b505050565b6373509064598160e01b8152602081600483336000905af158600e01573d6000803e3d6000fd5b3d6001141558600a015760016000f35b8051935060005b604081101561141a57600081830152602081019050611400565b505050565b6322bd64c0598160e01b8152836004820152846024820152600081604483336000905af158600e01573d6000803e3d6000fd5b3d6001141558600a015760016000f35b60005b604081101561147f57600081830152602081019050611465565b505050565b82600381019282156114bc579160200282015b828111156114bb578251826114aa61141f565b505091602001919060010190611497565b5b5090506114c991906114cd565b5090565b5b808211156114ef576000816000906114e461141f565b5050506001016114ce565b5090565b6000611506611501846122ac565b61227b565b90508082856020860282011115611525576000806115226112f1565b50505b60005b85811015611555578161153b88826116b5565b845260208401935060208301925050600181019050611528565b5050509392505050565b60008135905061156e81612364565b92915050565b600082601f83011261158e5760008061158b6112f1565b50505b600361159b8482856114f3565b91505092915050565b6000813590506115b381612384565b92915050565b6000813590506115c8816123a4565b92915050565b600061010082840312156115ea576000806115e76112f1565b50505b6115f4608061227b565b90506000611604848285016115b9565b600083015250602061161884828501611574565b602083015250608061162c848285016116b5565b60408301525060a061164084828501611574565b60608301525092915050565b600060a08284031215611667576000806116646112f1565b50505b611671606061227b565b90506000611681848285016115b9565b600083015250602061169584828501611574565b60208301525060806116a9848285016116b5565b60408301525092915050565b6000813590506116c4816123c4565b92915050565b6000602082840312156116e5576000806116e26112f1565b50505b60006116f38482850161155f565b91505092915050565b600060208284031215611717576000806117146112f1565b50505b6000611725848285016115a4565b91505092915050565b600060208284031215611749576000806117466112f1565b50505b6000611757848285016115b9565b91505092915050565b6000610100828403121561177c576000806117796112f1565b50505b600061178a848285016115ce565b91505092915050565b600060a082840312156117ae576000806117ab6112f1565b50505b60006117bc8482850161164c565b91505092915050565b6000602082840312156117e0576000806117dd6112f1565b50505b60006117ee848285016116b5565b91505092915050565b6000806101208385031215611814576000806118116112f1565b50505b6000611822858286016116b5565b9250506020611833858286016115ce565b9150509250929050565b60008060c08385031215611859576000806118566112f1565b50505b6000611867858286016116b5565b92505060206118788582860161164c565b9150509250929050565b600061188e83836118d9565b60608301905092915050565b60006118a6838361194e565b60208301905092915050565b60006118be8383611ff6565b60208301905092915050565b6118d381612310565b82525050565b6118e2816122dc565b6118ec81846122f4565b92506118f7826122d2565b8060005b8381101561192857815161190f87826118b2565b965061191a836122e7565b9250506001810190506118fb565b505050505050565b61193981612322565b82525050565b6119488161232e565b82525050565b6119578161232e565b82525050565b600061196a6033836122ff565b91507f426f6261436865663a3a7265706c616365466c61766f723a204f6c6420666c6160008301527f766f7220646f6573206e6f742065786973742e000000000000000000000000006020830152604082019050919050565b60006119d06025836122ff565b91507f426f6261436865663a3a616464546f7070696e673a204b69746368656e206c6f60008301527f636b65642e0000000000000000000000000000000000000000000000000000006020830152604082019050919050565b6000611a366032836122ff565b91507f426f6261436865663a3a616464466c61766f723a2043616c6c206d757374206360008301527f6f6d652066726f6d2054696d656c6f636b2e00000000000000000000000000006020830152604082019050919050565b6000611a9c6036836122ff565b91507f426f6261436865663a3a7265706c616365466c61766f723a2043616c6c206d7560008301527f737420636f6d652066726f6d2054696d656c6f636b2e000000000000000000006020830152604082019050919050565b6000611b026034836122ff565b91507f426f6261436865663a3a616464466c61766f723a20466c61766f72732063616e60008301527f206e6f206c6f6e6765722062652061646465642e0000000000000000000000006020830152604082019050919050565b6000611b686028836122ff565b91507f426f6261436865663a3a6368616e67654c6f636b3a204f6c64206c6f636b656460008301527f207374617475732e0000000000000000000000000000000000000000000000006020830152604082019050919050565b6000611bce6024836122ff565b91507f426f6261436865663a3a616464466c61766f723a204b69746368656e206c6f6360008301527f6b65642e000000000000000000000000000000000000000000000000000000006020830152604082019050919050565b6000611c346033836122ff565b91507f426f6261436865663a3a6368616e67654c6f636b3a2043616c6c206d7573742060008301527f636f6d652066726f6d2054696d656c6f636b2e000000000000000000000000006020830152604082019050919050565b6000611c9a6037836122ff565b91507f426f6261436865663a3a7265706c616365546f7070696e673a2043616c6c206d60008301527f75737420636f6d652066726f6d2054696d656c6f636b2e0000000000000000006020830152604082019050919050565b6000611d006036836122ff565b91507f426f6261436865663a3a616464546f7070696e673a20546f7070696e6773206360008301527f616e206e6f206c6f6e6765722062652061646465642e000000000000000000006020830152604082019050919050565b6000611d666038836122ff565b91507f54696d656c6f636b3a3a61636365707441646d696e3a2043616c6c206d75737460008301527f20636f6d652066726f6d2070656e64696e6741646d696e2e00000000000000006020830152604082019050919050565b6000611dcc6038836122ff565b91507f54696d656c6f636b3a3a73657450656e64696e6741646d696e3a2043616c6c2060008301527f6d75737420636f6d652066726f6d2054696d656c6f636b2e00000000000000006020830152604082019050919050565b6000611e326028836122ff565b91507f426f6261436865663a3a7265706c616365466c61766f723a204b69746368656e60008301527f206c6f636b65642e0000000000000000000000000000000000000000000000006020830152604082019050919050565b6000611e986035836122ff565b91507f426f6261436865663a3a7265706c616365546f7070696e673a204f6c6420746f60008301527f7070696e6720646f6573206e6f742065786973742e00000000000000000000006020830152604082019050919050565b6000611efe6029836122ff565b91507f426f6261436865663a3a7265706c616365546f7070696e673a204b697463686560008301527f6e206c6f636b65642e00000000000000000000000000000000000000000000006020830152604082019050919050565b600082016000820151611f6a848261189a565b9350506020820151611f7c8482611882565b9350506040820151611f8e84826118b2565b9350506060820151611fa08482611882565b935050505050565b600082016000820151611fbb848261189a565b9350506020820151611fcd8482611882565b9350506040820151611fdf84826118b2565b935050505050565b611ff081612358565b82525050565b611fff81612358565b82525050565b60006120118284611f57565b6101008201915081905092915050565b600061202d8284611fa8565b60a08201915081905092915050565b600060208201905061205160008301846118ca565b92915050565b600060208201905061206c6000830184611930565b92915050565b6000604082019050612087600083018561193f565b6120946020830184611fe7565b9392505050565b600060208201905081810360008301526120b48161195d565b9050919050565b600060208201905081810360008301526120d4816119c3565b9050919050565b600060208201905081810360008301526120f481611a29565b9050919050565b6000602082019050818103600083015261211481611a8f565b9050919050565b6000602082019050818103600083015261213481611af5565b9050919050565b6000602082019050818103600083015261215481611b5b565b9050919050565b6000602082019050818103600083015261217481611bc1565b9050919050565b6000602082019050818103600083015261219481611c27565b9050919050565b600060208201905081810360008301526121b481611c8d565b9050919050565b600060208201905081810360008301526121d481611cf3565b9050919050565b600060208201905081810360008301526121f481611d59565b9050919050565b6000602082019050818103600083015261221481611dbf565b9050919050565b6000602082019050818103600083015261223481611e25565b9050919050565b6000602082019050818103600083015261225481611e8b565b9050919050565b6000602082019050818103600083015261227481611ef1565b9050919050565b6000604051905081810181811067ffffffffffffffff821117156122a2576122a1612362565b5b8060405250919050565b600067ffffffffffffffff8211156122c7576122c6612362565b5b602082029050919050565b6000819050919050565b600060039050919050565b6000602082019050919050565b600081905092915050565b600082825260208201905092915050565b600061231b82612338565b9050919050565b60008115159050919050565b6000819050919050565b600073ffffffffffffffffffffffffffffffffffffffff82169050919050565b6000819050919050565bfe5b61236d81612310565b81146123815760008061237e6112f1565b50505b50565b61238d81612322565b81146123a15760008061239e6112f1565b50505b50565b6123ad8161232e565b81146123c1576000806123be6112f1565b50505b50565b6123cd81612358565b81146123e1576000806123de6112f1565b50505b5056",
  "devdoc": {
    "kind": "dev",
    "methods": {},
    "version": 1
  },
  "userdoc": {
    "kind": "user",
    "methods": {},
    "version": 1
  },
  "storageLayout": {
    "storage": [
      {
        "astId": 61,
        "contract": "contracts/BobaChef.sol:BobaChef",
        "label": "toppings",
        "offset": 0,
        "slot": "0",
        "type": "t_array(t_struct(topping)57_storage)10_storage"
      },
      {
        "astId": 65,
        "contract": "contracts/BobaChef.sol:BobaChef",
        "label": "flavors",
        "offset": 0,
        "slot": "50",
        "type": "t_array(t_struct(flavor)48_storage)10_storage"
      },
      {
        "astId": 67,
        "contract": "contracts/BobaChef.sol:BobaChef",
        "label": "first_topping",
        "offset": 0,
        "slot": "130",
        "type": "t_struct(topping)57_storage"
      },
      {
        "astId": 69,
        "contract": "contracts/BobaChef.sol:BobaChef",
        "label": "first_flavor",
        "offset": 0,
        "slot": "135",
        "type": "t_struct(flavor)48_storage"
      },
      {
        "astId": 72,
        "contract": "contracts/BobaChef.sol:BobaChef",
        "label": "toppingIndex",
        "offset": 0,
        "slot": "143",
        "type": "t_uint256"
      },
      {
        "astId": 75,
        "contract": "contracts/BobaChef.sol:BobaChef",
        "label": "flavorIndex",
        "offset": 0,
        "slot": "144",
        "type": "t_uint256"
      },
      {
        "astId": 78,
        "contract": "contracts/BobaChef.sol:BobaChef",
        "label": "locked",
        "offset": 0,
        "slot": "145",
        "type": "t_bool"
      },
      {
        "astId": 80,
        "contract": "contracts/BobaChef.sol:BobaChef",
        "label": "admin",
        "offset": 1,
        "slot": "145",
        "type": "t_address"
      },
      {
        "astId": 82,
        "contract": "contracts/BobaChef.sol:BobaChef",
        "label": "pendingAdmin",
        "offset": 0,
        "slot": "146",
        "type": "t_address"
      },
      {
        "astId": 86,
        "contract": "contracts/BobaChef.sol:BobaChef",
        "label": "queuedTransactions",
        "offset": 0,
        "slot": "147",
        "type": "t_mapping(t_bytes32,t_bool)"
      }
    ],
    "types": {
      "t_address": {
        "encoding": "inplace",
        "label": "address",
        "numberOfBytes": "20"
      },
      "t_array(t_struct(flavor)48_storage)10_storage": {
        "base": "t_struct(flavor)48_storage",
        "encoding": "inplace",
        "label": "struct BobaChef.flavor[10]",
        "numberOfBytes": "2560"
      },
      "t_array(t_struct(topping)57_storage)10_storage": {
        "base": "t_struct(topping)57_storage",
        "encoding": "inplace",
        "label": "struct BobaChef.topping[10]",
        "numberOfBytes": "1600"
      },
      "t_array(t_uint256)3_storage": {
        "base": "t_uint256",
        "encoding": "inplace",
        "label": "uint256[3]",
        "numberOfBytes": "96"
      },
      "t_bool": {
        "encoding": "inplace",
        "label": "bool",
        "numberOfBytes": "1"
      },
      "t_bytes32": {
        "encoding": "inplace",
        "label": "bytes32",
        "numberOfBytes": "32"
      },
      "t_mapping(t_bytes32,t_bool)": {
        "encoding": "mapping",
        "key": "t_bytes32",
        "label": "mapping(bytes32 => bool)",
        "numberOfBytes": "32",
        "value": "t_bool"
      },
      "t_struct(flavor)48_storage": {
        "encoding": "inplace",
        "label": "struct BobaChef.flavor",
        "members": [
          {
            "astId": 37,
            "contract": "contracts/BobaChef.sol:BobaChef",
            "label": "flavor",
            "offset": 0,
            "slot": "0",
            "type": "t_bytes32"
          },
          {
            "astId": 41,
            "contract": "contracts/BobaChef.sol:BobaChef",
            "label": "color",
            "offset": 0,
            "slot": "1",
            "type": "t_array(t_uint256)3_storage"
          },
          {
            "astId": 43,
            "contract": "contracts/BobaChef.sol:BobaChef",
            "label": "commonScore",
            "offset": 0,
            "slot": "4",
            "type": "t_uint256"
          },
          {
            "astId": 47,
            "contract": "contracts/BobaChef.sol:BobaChef",
            "label": "gradient",
            "offset": 0,
            "slot": "5",
            "type": "t_array(t_uint256)3_storage"
          }
        ],
        "numberOfBytes": "256"
      },
      "t_struct(topping)57_storage": {
        "encoding": "inplace",
        "label": "struct BobaChef.topping",
        "members": [
          {
            "astId": 50,
            "contract": "contracts/BobaChef.sol:BobaChef",
            "label": "topping",
            "offset": 0,
            "slot": "0",
            "type": "t_bytes32"
          },
          {
            "astId": 54,
            "contract": "contracts/BobaChef.sol:BobaChef",
            "label": "color",
            "offset": 0,
            "slot": "1",
            "type": "t_array(t_uint256)3_storage"
          },
          {
            "astId": 56,
            "contract": "contracts/BobaChef.sol:BobaChef",
            "label": "commonScore",
            "offset": 0,
            "slot": "4",
            "type": "t_uint256"
          }
        ],
        "numberOfBytes": "160"
      },
      "t_uint256": {
        "encoding": "inplace",
        "label": "uint256",
        "numberOfBytes": "32"
      }
    }
  }
}